{
	"PictureToken.sol": {
		"PictureToken": {
			"abi": [
				{
					"inputs": [
						{
							"internalType": "address",
							"name": "initialOwner",
							"type": "address"
						},
						{
							"internalType": "contract Picture",
							"name": "_props",
							"type": "address"
						}
					],
					"stateMutability": "nonpayable",
					"type": "constructor"
				},
				{
					"inputs": [
						{
							"internalType": "address",
							"name": "sender",
							"type": "address"
						},
						{
							"internalType": "uint256",
							"name": "tokenId",
							"type": "uint256"
						},
						{
							"internalType": "address",
							"name": "owner",
							"type": "address"
						}
					],
					"name": "ERC721IncorrectOwner",
					"type": "error"
				},
				{
					"inputs": [
						{
							"internalType": "address",
							"name": "operator",
							"type": "address"
						},
						{
							"internalType": "uint256",
							"name": "tokenId",
							"type": "uint256"
						}
					],
					"name": "ERC721InsufficientApproval",
					"type": "error"
				},
				{
					"inputs": [
						{
							"internalType": "address",
							"name": "approver",
							"type": "address"
						}
					],
					"name": "ERC721InvalidApprover",
					"type": "error"
				},
				{
					"inputs": [
						{
							"internalType": "address",
							"name": "operator",
							"type": "address"
						}
					],
					"name": "ERC721InvalidOperator",
					"type": "error"
				},
				{
					"inputs": [
						{
							"internalType": "address",
							"name": "owner",
							"type": "address"
						}
					],
					"name": "ERC721InvalidOwner",
					"type": "error"
				},
				{
					"inputs": [
						{
							"internalType": "address",
							"name": "receiver",
							"type": "address"
						}
					],
					"name": "ERC721InvalidReceiver",
					"type": "error"
				},
				{
					"inputs": [
						{
							"internalType": "address",
							"name": "sender",
							"type": "address"
						}
					],
					"name": "ERC721InvalidSender",
					"type": "error"
				},
				{
					"inputs": [
						{
							"internalType": "uint256",
							"name": "tokenId",
							"type": "uint256"
						}
					],
					"name": "ERC721NonexistentToken",
					"type": "error"
				},
				{
					"inputs": [
						{
							"internalType": "address",
							"name": "owner",
							"type": "address"
						}
					],
					"name": "OwnableInvalidOwner",
					"type": "error"
				},
				{
					"inputs": [
						{
							"internalType": "address",
							"name": "account",
							"type": "address"
						}
					],
					"name": "OwnableUnauthorizedAccount",
					"type": "error"
				},
				{
					"anonymous": false,
					"inputs": [
						{
							"indexed": true,
							"internalType": "address",
							"name": "owner",
							"type": "address"
						},
						{
							"indexed": true,
							"internalType": "address",
							"name": "approved",
							"type": "address"
						},
						{
							"indexed": true,
							"internalType": "uint256",
							"name": "tokenId",
							"type": "uint256"
						}
					],
					"name": "Approval",
					"type": "event"
				},
				{
					"anonymous": false,
					"inputs": [
						{
							"indexed": true,
							"internalType": "address",
							"name": "owner",
							"type": "address"
						},
						{
							"indexed": true,
							"internalType": "address",
							"name": "operator",
							"type": "address"
						},
						{
							"indexed": false,
							"internalType": "bool",
							"name": "approved",
							"type": "bool"
						}
					],
					"name": "ApprovalForAll",
					"type": "event"
				},
				{
					"anonymous": false,
					"inputs": [
						{
							"indexed": true,
							"internalType": "address",
							"name": "previousOwner",
							"type": "address"
						},
						{
							"indexed": true,
							"internalType": "address",
							"name": "newOwner",
							"type": "address"
						}
					],
					"name": "OwnershipTransferred",
					"type": "event"
				},
				{
					"anonymous": false,
					"inputs": [
						{
							"indexed": true,
							"internalType": "address",
							"name": "from",
							"type": "address"
						},
						{
							"indexed": true,
							"internalType": "address",
							"name": "to",
							"type": "address"
						},
						{
							"indexed": true,
							"internalType": "uint256",
							"name": "tokenId",
							"type": "uint256"
						}
					],
					"name": "Transfer",
					"type": "event"
				},
				{
					"inputs": [
						{
							"internalType": "address",
							"name": "to",
							"type": "address"
						},
						{
							"internalType": "uint256",
							"name": "tokenId",
							"type": "uint256"
						}
					],
					"name": "approve",
					"outputs": [],
					"stateMutability": "nonpayable",
					"type": "function"
				},
				{
					"inputs": [
						{
							"internalType": "address",
							"name": "owner",
							"type": "address"
						}
					],
					"name": "balanceOf",
					"outputs": [
						{
							"internalType": "uint256",
							"name": "",
							"type": "uint256"
						}
					],
					"stateMutability": "view",
					"type": "function"
				},
				{
					"inputs": [
						{
							"internalType": "uint256",
							"name": "tokenId",
							"type": "uint256"
						}
					],
					"name": "getApproved",
					"outputs": [
						{
							"internalType": "address",
							"name": "",
							"type": "address"
						}
					],
					"stateMutability": "view",
					"type": "function"
				},
				{
					"inputs": [],
					"name": "getPrice",
					"outputs": [
						{
							"internalType": "uint256",
							"name": "",
							"type": "uint256"
						}
					],
					"stateMutability": "view",
					"type": "function"
				},
				{
					"inputs": [],
					"name": "getSinglePictureToken",
					"outputs": [
						{
							"components": [
								{
									"internalType": "address",
									"name": "ownerAddress",
									"type": "address"
								},
								{
									"internalType": "contract Picture",
									"name": "props",
									"type": "address"
								},
								{
									"internalType": "uint256",
									"name": "price",
									"type": "uint256"
								},
								{
									"internalType": "bool",
									"name": "onSale",
									"type": "bool"
								}
							],
							"internalType": "struct tokenData",
							"name": "",
							"type": "tuple"
						}
					],
					"stateMutability": "view",
					"type": "function"
				},
				{
					"inputs": [
						{
							"internalType": "address",
							"name": "owner",
							"type": "address"
						},
						{
							"internalType": "address",
							"name": "operator",
							"type": "address"
						}
					],
					"name": "isApprovedForAll",
					"outputs": [
						{
							"internalType": "bool",
							"name": "",
							"type": "bool"
						}
					],
					"stateMutability": "view",
					"type": "function"
				},
				{
					"inputs": [],
					"name": "name",
					"outputs": [
						{
							"internalType": "string",
							"name": "",
							"type": "string"
						}
					],
					"stateMutability": "view",
					"type": "function"
				},
				{
					"inputs": [],
					"name": "notPutOnSale",
					"outputs": [],
					"stateMutability": "nonpayable",
					"type": "function"
				},
				{
					"inputs": [],
					"name": "owner",
					"outputs": [
						{
							"internalType": "address",
							"name": "",
							"type": "address"
						}
					],
					"stateMutability": "view",
					"type": "function"
				},
				{
					"inputs": [
						{
							"internalType": "uint256",
							"name": "tokenId",
							"type": "uint256"
						}
					],
					"name": "ownerOf",
					"outputs": [
						{
							"internalType": "address",
							"name": "",
							"type": "address"
						}
					],
					"stateMutability": "view",
					"type": "function"
				},
				{
					"inputs": [],
					"name": "price",
					"outputs": [
						{
							"internalType": "uint256",
							"name": "",
							"type": "uint256"
						}
					],
					"stateMutability": "view",
					"type": "function"
				},
				{
					"inputs": [],
					"name": "purchase",
					"outputs": [],
					"stateMutability": "nonpayable",
					"type": "function"
				},
				{
					"inputs": [],
					"name": "putOnSale",
					"outputs": [],
					"stateMutability": "nonpayable",
					"type": "function"
				},
				{
					"inputs": [],
					"name": "renounceOwnership",
					"outputs": [],
					"stateMutability": "nonpayable",
					"type": "function"
				},
				{
					"inputs": [
						{
							"internalType": "address",
							"name": "from",
							"type": "address"
						},
						{
							"internalType": "address",
							"name": "to",
							"type": "address"
						},
						{
							"internalType": "uint256",
							"name": "tokenId",
							"type": "uint256"
						}
					],
					"name": "safeTransferFrom",
					"outputs": [],
					"stateMutability": "nonpayable",
					"type": "function"
				},
				{
					"inputs": [
						{
							"internalType": "address",
							"name": "from",
							"type": "address"
						},
						{
							"internalType": "address",
							"name": "to",
							"type": "address"
						},
						{
							"internalType": "uint256",
							"name": "tokenId",
							"type": "uint256"
						},
						{
							"internalType": "bytes",
							"name": "data",
							"type": "bytes"
						}
					],
					"name": "safeTransferFrom",
					"outputs": [],
					"stateMutability": "nonpayable",
					"type": "function"
				},
				{
					"inputs": [
						{
							"internalType": "address",
							"name": "operator",
							"type": "address"
						},
						{
							"internalType": "bool",
							"name": "approved",
							"type": "bool"
						}
					],
					"name": "setApprovalForAll",
					"outputs": [],
					"stateMutability": "nonpayable",
					"type": "function"
				},
				{
					"inputs": [
						{
							"internalType": "uint256",
							"name": "_price",
							"type": "uint256"
						}
					],
					"name": "setPrice",
					"outputs": [],
					"stateMutability": "nonpayable",
					"type": "function"
				},
				{
					"inputs": [
						{
							"internalType": "bytes4",
							"name": "interfaceId",
							"type": "bytes4"
						}
					],
					"name": "supportsInterface",
					"outputs": [
						{
							"internalType": "bool",
							"name": "",
							"type": "bool"
						}
					],
					"stateMutability": "view",
					"type": "function"
				},
				{
					"inputs": [],
					"name": "symbol",
					"outputs": [
						{
							"internalType": "string",
							"name": "",
							"type": "string"
						}
					],
					"stateMutability": "view",
					"type": "function"
				},
				{
					"inputs": [
						{
							"internalType": "uint256",
							"name": "tokenId",
							"type": "uint256"
						}
					],
					"name": "tokenURI",
					"outputs": [
						{
							"internalType": "string",
							"name": "",
							"type": "string"
						}
					],
					"stateMutability": "view",
					"type": "function"
				},
				{
					"inputs": [
						{
							"internalType": "address",
							"name": "from",
							"type": "address"
						},
						{
							"internalType": "address",
							"name": "to",
							"type": "address"
						},
						{
							"internalType": "uint256",
							"name": "tokenId",
							"type": "uint256"
						}
					],
					"name": "transferFrom",
					"outputs": [],
					"stateMutability": "nonpayable",
					"type": "function"
				},
				{
					"inputs": [
						{
							"internalType": "address",
							"name": "newOwner",
							"type": "address"
						}
					],
					"name": "transferOwnership",
					"outputs": [],
					"stateMutability": "nonpayable",
					"type": "function"
				}
			],
			"devdoc": {
				"errors": {
					"ERC721IncorrectOwner(address,uint256,address)": [
						{
							"details": "Indicates an error related to the ownership over a particular token. Used in transfers.",
							"params": {
								"owner": "Address of the current owner of a token.",
								"sender": "Address whose tokens are being transferred.",
								"tokenId": "Identifier number of a token."
							}
						}
					],
					"ERC721InsufficientApproval(address,uint256)": [
						{
							"details": "Indicates a failure with the `operator`’s approval. Used in transfers.",
							"params": {
								"operator": "Address that may be allowed to operate on tokens without being their owner.",
								"tokenId": "Identifier number of a token."
							}
						}
					],
					"ERC721InvalidApprover(address)": [
						{
							"details": "Indicates a failure with the `approver` of a token to be approved. Used in approvals.",
							"params": {
								"approver": "Address initiating an approval operation."
							}
						}
					],
					"ERC721InvalidOperator(address)": [
						{
							"details": "Indicates a failure with the `operator` to be approved. Used in approvals.",
							"params": {
								"operator": "Address that may be allowed to operate on tokens without being their owner."
							}
						}
					],
					"ERC721InvalidOwner(address)": [
						{
							"details": "Indicates that an address can't be an owner. For example, `address(0)` is a forbidden owner in EIP-20. Used in balance queries.",
							"params": {
								"owner": "Address of the current owner of a token."
							}
						}
					],
					"ERC721InvalidReceiver(address)": [
						{
							"details": "Indicates a failure with the token `receiver`. Used in transfers.",
							"params": {
								"receiver": "Address to which tokens are being transferred."
							}
						}
					],
					"ERC721InvalidSender(address)": [
						{
							"details": "Indicates a failure with the token `sender`. Used in transfers.",
							"params": {
								"sender": "Address whose tokens are being transferred."
							}
						}
					],
					"ERC721NonexistentToken(uint256)": [
						{
							"details": "Indicates a `tokenId` whose `owner` is the zero address.",
							"params": {
								"tokenId": "Identifier number of a token."
							}
						}
					],
					"OwnableInvalidOwner(address)": [
						{
							"details": "The owner is not a valid owner account. (eg. `address(0)`)"
						}
					],
					"OwnableUnauthorizedAccount(address)": [
						{
							"details": "The caller account is not authorized to perform an operation."
						}
					]
				},
				"events": {
					"Approval(address,address,uint256)": {
						"details": "Emitted when `owner` enables `approved` to manage the `tokenId` token."
					},
					"ApprovalForAll(address,address,bool)": {
						"details": "Emitted when `owner` enables or disables (`approved`) `operator` to manage all of its assets."
					},
					"Transfer(address,address,uint256)": {
						"details": "Emitted when `tokenId` token is transferred from `from` to `to`."
					}
				},
				"kind": "dev",
				"methods": {
					"approve(address,uint256)": {
						"details": "See {IERC721-approve}."
					},
					"balanceOf(address)": {
						"details": "See {IERC721-balanceOf}."
					},
					"getApproved(uint256)": {
						"details": "See {IERC721-getApproved}."
					},
					"isApprovedForAll(address,address)": {
						"details": "See {IERC721-isApprovedForAll}."
					},
					"name()": {
						"details": "See {IERC721Metadata-name}."
					},
					"owner()": {
						"details": "Returns the address of the current owner."
					},
					"ownerOf(uint256)": {
						"details": "See {IERC721-ownerOf}."
					},
					"renounceOwnership()": {
						"details": "Leaves the contract without owner. It will not be possible to call `onlyOwner` functions. Can only be called by the current owner. NOTE: Renouncing ownership will leave the contract without an owner, thereby disabling any functionality that is only available to the owner."
					},
					"safeTransferFrom(address,address,uint256)": {
						"details": "See {IERC721-safeTransferFrom}."
					},
					"safeTransferFrom(address,address,uint256,bytes)": {
						"details": "See {IERC721-safeTransferFrom}."
					},
					"setApprovalForAll(address,bool)": {
						"details": "See {IERC721-setApprovalForAll}."
					},
					"supportsInterface(bytes4)": {
						"details": "See {IERC165-supportsInterface}."
					},
					"symbol()": {
						"details": "See {IERC721Metadata-symbol}."
					},
					"tokenURI(uint256)": {
						"details": "See {IERC721Metadata-tokenURI}."
					},
					"transferFrom(address,address,uint256)": {
						"details": "See {IERC721-transferFrom}."
					},
					"transferOwnership(address)": {
						"details": "Transfers ownership of the contract to a new account (`newOwner`). Can only be called by the current owner."
					}
				},
				"version": 1
			},
			"evm": {
				"assembly": "    /* \"PictureToken.sol\":223:1333  contract PictureToken is ERC721, Ownable {... */\n  mstore(0x40, 0x80)\n    /* \"PictureToken.sol\":340:534  constructor(address initialOwner, Picture _props)... */\n  callvalue\n  dup1\n  iszero\n  tag_1\n  jumpi\n  0x00\n  dup1\n  revert\ntag_1:\n  pop\n  mload(0x40)\n  sub(codesize, bytecodeSize)\n  dup1\n  bytecodeSize\n  dup4\n  codecopy\n  dup2\n  dup2\n  add\n  0x40\n  mstore\n  dup2\n  add\n  swap1\n  tag_2\n  swap2\n  swap1\n  tag_3\n  jump\t// in\ntag_2:\n    /* \"PictureToken.sol\":437:449  initialOwner */\n  dup2\n    /* \"openzeppelin-contracts/contracts/token/ERC721/ERC721.sol\":1419:1535  constructor(string memory name_, string memory symbol_) {... */\n  mload(0x40)\n  dup1\n  0x40\n  add\n  0x40\n  mstore\n  dup1\n  0x0c\n  dup2\n  mstore\n  0x20\n  add\n  0x50696374757265546f6b656e0000000000000000000000000000000000000000\n  dup2\n  mstore\n  pop\n  mload(0x40)\n  dup1\n  0x40\n  add\n  0x40\n  mstore\n  dup1\n  0x02\n  dup2\n  mstore\n  0x20\n  add\n  0x5054000000000000000000000000000000000000000000000000000000000000\n  dup2\n  mstore\n  pop\n    /* \"openzeppelin-contracts/contracts/token/ERC721/ERC721.sol\":1494:1499  name_ */\n  dup2\n    /* \"openzeppelin-contracts/contracts/token/ERC721/ERC721.sol\":1486:1491  _name */\n  0x00\n    /* \"openzeppelin-contracts/contracts/token/ERC721/ERC721.sol\":1486:1499  _name = name_ */\n  swap1\n  dup2\n  tag_8\n  swap2\n  swap1\n  tag_9\n  jump\t// in\ntag_8:\n  pop\n    /* \"openzeppelin-contracts/contracts/token/ERC721/ERC721.sol\":1520:1527  symbol_ */\n  dup1\n    /* \"openzeppelin-contracts/contracts/token/ERC721/ERC721.sol\":1510:1517  _symbol */\n  0x01\n    /* \"openzeppelin-contracts/contracts/token/ERC721/ERC721.sol\":1510:1527  _symbol = symbol_ */\n  swap1\n  dup2\n  tag_10\n  swap2\n  swap1\n  tag_9\n  jump\t// in\ntag_10:\n  pop\n    /* \"openzeppelin-contracts/contracts/token/ERC721/ERC721.sol\":1419:1535  constructor(string memory name_, string memory symbol_) {... */\n  pop\n  pop\n    /* \"openzeppelin-contracts/contracts/access/Ownable.sol\":1335:1336  0 */\n  0x00\n    /* \"openzeppelin-contracts/contracts/access/Ownable.sol\":1311:1337  initialOwner == address(0) */\n  0xffffffffffffffffffffffffffffffffffffffff\n  and\n    /* \"openzeppelin-contracts/contracts/access/Ownable.sol\":1311:1323  initialOwner */\n  dup2\n    /* \"openzeppelin-contracts/contracts/access/Ownable.sol\":1311:1337  initialOwner == address(0) */\n  0xffffffffffffffffffffffffffffffffffffffff\n  and\n  sub\n    /* \"openzeppelin-contracts/contracts/access/Ownable.sol\":1307:1404  if (initialOwner == address(0)) {... */\n  tag_12\n  jumpi\n    /* \"openzeppelin-contracts/contracts/access/Ownable.sol\":1389:1390  0 */\n  0x00\n    /* \"openzeppelin-contracts/contracts/access/Ownable.sol\":1361:1392  OwnableInvalidOwner(address(0)) */\n  mload(0x40)\n  0x1e4fbdf700000000000000000000000000000000000000000000000000000000\n  dup2\n  mstore\n  0x04\n  add\n  tag_13\n  swap2\n  swap1\n  tag_14\n  jump\t// in\ntag_13:\n  mload(0x40)\n  dup1\n  swap2\n  sub\n  swap1\n  revert\n    /* \"openzeppelin-contracts/contracts/access/Ownable.sol\":1307:1404  if (initialOwner == address(0)) {... */\ntag_12:\n    /* \"openzeppelin-contracts/contracts/access/Ownable.sol\":1414:1446  _transferOwnership(initialOwner) */\n  tag_15\n    /* \"openzeppelin-contracts/contracts/access/Ownable.sol\":1433:1445  initialOwner */\n  dup2\n    /* \"openzeppelin-contracts/contracts/access/Ownable.sol\":1414:1432  _transferOwnership */\n  shl(0x20, tag_16)\n    /* \"openzeppelin-contracts/contracts/access/Ownable.sol\":1414:1446  _transferOwnership(initialOwner) */\n  0x20\n  shr\n  jump\t// in\ntag_15:\n    /* \"openzeppelin-contracts/contracts/access/Ownable.sol\":1262:1454  constructor(address initialOwner) {... */\n  pop\n    /* \"PictureToken.sol\":475:481  _props */\n  dup1\n    /* \"PictureToken.sol\":467:472  props */\n  0x07\n  0x00\n    /* \"PictureToken.sol\":467:481  props = _props */\n  0x0100\n  exp\n  dup2\n  sload\n  dup2\n  0xffffffffffffffffffffffffffffffffffffffff\n  mul\n  not\n  and\n  swap1\n  dup4\n  0xffffffffffffffffffffffffffffffffffffffff\n  and\n  mul\n  or\n  swap1\n  sstore\n  pop\n    /* \"PictureToken.sol\":500:501  0 */\n  0x00\n    /* \"PictureToken.sol\":492:497  price */\n  0x08\n    /* \"PictureToken.sol\":492:501  price = 0 */\n  dup2\n  swap1\n  sstore\n  pop\n    /* \"PictureToken.sol\":521:526  false */\n  0x00\n    /* \"PictureToken.sol\":512:518  onSale */\n  0x09\n  0x00\n    /* \"PictureToken.sol\":512:526  onSale = false */\n  0x0100\n  exp\n  dup2\n  sload\n  dup2\n  0xff\n  mul\n  not\n  and\n  swap1\n  dup4\n  iszero\n  iszero\n  mul\n  or\n  swap1\n  sstore\n  pop\n    /* \"PictureToken.sol\":340:534  constructor(address initialOwner, Picture _props)... */\n  pop\n  pop\n    /* \"PictureToken.sol\":223:1333  contract PictureToken is ERC721, Ownable {... */\n  jump(tag_18)\n    /* \"openzeppelin-contracts/contracts/access/Ownable.sol\":3006:3197  function _transferOwnership(address newOwner) internal virtual {... */\ntag_16:\n    /* \"openzeppelin-contracts/contracts/access/Ownable.sol\":3080:3096  address oldOwner */\n  0x00\n    /* \"openzeppelin-contracts/contracts/access/Ownable.sol\":3099:3105  _owner */\n  0x06\n  0x00\n  swap1\n  sload\n  swap1\n  0x0100\n  exp\n  swap1\n  div\n  0xffffffffffffffffffffffffffffffffffffffff\n  and\n    /* \"openzeppelin-contracts/contracts/access/Ownable.sol\":3080:3105  address oldOwner = _owner */\n  swap1\n  pop\n    /* \"openzeppelin-contracts/contracts/access/Ownable.sol\":3125:3133  newOwner */\n  dup2\n    /* \"openzeppelin-contracts/contracts/access/Ownable.sol\":3116:3122  _owner */\n  0x06\n  0x00\n    /* \"openzeppelin-contracts/contracts/access/Ownable.sol\":3116:3133  _owner = newOwner */\n  0x0100\n  exp\n  dup2\n  sload\n  dup2\n  0xffffffffffffffffffffffffffffffffffffffff\n  mul\n  not\n  and\n  swap1\n  dup4\n  0xffffffffffffffffffffffffffffffffffffffff\n  and\n  mul\n  or\n  swap1\n  sstore\n  pop\n    /* \"openzeppelin-contracts/contracts/access/Ownable.sol\":3180:3188  newOwner */\n  dup2\n    /* \"openzeppelin-contracts/contracts/access/Ownable.sol\":3149:3189  OwnershipTransferred(oldOwner, newOwner) */\n  0xffffffffffffffffffffffffffffffffffffffff\n  and\n    /* \"openzeppelin-contracts/contracts/access/Ownable.sol\":3170:3178  oldOwner */\n  dup2\n    /* \"openzeppelin-contracts/contracts/access/Ownable.sol\":3149:3189  OwnershipTransferred(oldOwner, newOwner) */\n  0xffffffffffffffffffffffffffffffffffffffff\n  and\n  0x8be0079c531659141344cd1fd0a4f28419497f9722a3daafe3b4186f6b6457e0\n  mload(0x40)\n  mload(0x40)\n  dup1\n  swap2\n  sub\n  swap1\n  log3\n    /* \"openzeppelin-contracts/contracts/access/Ownable.sol\":3069:3197  {... */\n  pop\n    /* \"openzeppelin-contracts/contracts/access/Ownable.sol\":3006:3197  function _transferOwnership(address newOwner) internal virtual {... */\n  pop\n  jump\t// out\n    /* \"#utility.yul\":88:205   */\ntag_21:\n    /* \"#utility.yul\":197:198   */\n  0x00\n    /* \"#utility.yul\":194:195   */\n  dup1\n    /* \"#utility.yul\":187:199   */\n  revert\n    /* \"#utility.yul\":334:460   */\ntag_23:\n    /* \"#utility.yul\":371:378   */\n  0x00\n    /* \"#utility.yul\":411:453   */\n  0xffffffffffffffffffffffffffffffffffffffff\n    /* \"#utility.yul\":404:409   */\n  dup3\n    /* \"#utility.yul\":400:454   */\n  and\n    /* \"#utility.yul\":389:454   */\n  swap1\n  pop\n    /* \"#utility.yul\":334:460   */\n  swap2\n  swap1\n  pop\n  jump\t// out\n    /* \"#utility.yul\":466:562   */\ntag_24:\n    /* \"#utility.yul\":503:510   */\n  0x00\n    /* \"#utility.yul\":532:556   */\n  tag_57\n    /* \"#utility.yul\":550:555   */\n  dup3\n    /* \"#utility.yul\":532:556   */\n  tag_23\n  jump\t// in\ntag_57:\n    /* \"#utility.yul\":521:556   */\n  swap1\n  pop\n    /* \"#utility.yul\":466:562   */\n  swap2\n  swap1\n  pop\n  jump\t// out\n    /* \"#utility.yul\":568:690   */\ntag_25:\n    /* \"#utility.yul\":641:665   */\n  tag_59\n    /* \"#utility.yul\":659:664   */\n  dup2\n    /* \"#utility.yul\":641:665   */\n  tag_24\n  jump\t// in\ntag_59:\n    /* \"#utility.yul\":634:639   */\n  dup2\n    /* \"#utility.yul\":631:666   */\n  eq\n    /* \"#utility.yul\":621:684   */\n  tag_60\n  jumpi\n    /* \"#utility.yul\":680:681   */\n  0x00\n    /* \"#utility.yul\":677:678   */\n  dup1\n    /* \"#utility.yul\":670:682   */\n  revert\n    /* \"#utility.yul\":621:684   */\ntag_60:\n    /* \"#utility.yul\":568:690   */\n  pop\n  jump\t// out\n    /* \"#utility.yul\":696:839   */\ntag_26:\n    /* \"#utility.yul\":753:758   */\n  0x00\n    /* \"#utility.yul\":784:790   */\n  dup2\n    /* \"#utility.yul\":778:791   */\n  mload\n    /* \"#utility.yul\":769:791   */\n  swap1\n  pop\n    /* \"#utility.yul\":800:833   */\n  tag_62\n    /* \"#utility.yul\":827:832   */\n  dup2\n    /* \"#utility.yul\":800:833   */\n  tag_25\n  jump\t// in\ntag_62:\n    /* \"#utility.yul\":696:839   */\n  swap3\n  swap2\n  pop\n  pop\n  jump\t// out\n    /* \"#utility.yul\":845:955   */\ntag_27:\n    /* \"#utility.yul\":896:903   */\n  0x00\n    /* \"#utility.yul\":925:949   */\n  tag_64\n    /* \"#utility.yul\":943:948   */\n  dup3\n    /* \"#utility.yul\":925:949   */\n  tag_24\n  jump\t// in\ntag_64:\n    /* \"#utility.yul\":914:949   */\n  swap1\n  pop\n    /* \"#utility.yul\":845:955   */\n  swap2\n  swap1\n  pop\n  jump\t// out\n    /* \"#utility.yul\":961:1111   */\ntag_28:\n    /* \"#utility.yul\":1048:1086   */\n  tag_66\n    /* \"#utility.yul\":1080:1085   */\n  dup2\n    /* \"#utility.yul\":1048:1086   */\n  tag_27\n  jump\t// in\ntag_66:\n    /* \"#utility.yul\":1041:1046   */\n  dup2\n    /* \"#utility.yul\":1038:1087   */\n  eq\n    /* \"#utility.yul\":1028:1105   */\n  tag_67\n  jumpi\n    /* \"#utility.yul\":1101:1102   */\n  0x00\n    /* \"#utility.yul\":1098:1099   */\n  dup1\n    /* \"#utility.yul\":1091:1103   */\n  revert\n    /* \"#utility.yul\":1028:1105   */\ntag_67:\n    /* \"#utility.yul\":961:1111   */\n  pop\n  jump\t// out\n    /* \"#utility.yul\":1117:1288   */\ntag_29:\n    /* \"#utility.yul\":1188:1193   */\n  0x00\n    /* \"#utility.yul\":1219:1225   */\n  dup2\n    /* \"#utility.yul\":1213:1226   */\n  mload\n    /* \"#utility.yul\":1204:1226   */\n  swap1\n  pop\n    /* \"#utility.yul\":1235:1282   */\n  tag_69\n    /* \"#utility.yul\":1276:1281   */\n  dup2\n    /* \"#utility.yul\":1235:1282   */\n  tag_28\n  jump\t// in\ntag_69:\n    /* \"#utility.yul\":1117:1288   */\n  swap3\n  swap2\n  pop\n  pop\n  jump\t// out\n    /* \"#utility.yul\":1294:1829   */\ntag_3:\n    /* \"#utility.yul\":1387:1393   */\n  0x00\n    /* \"#utility.yul\":1395:1401   */\n  dup1\n    /* \"#utility.yul\":1444:1446   */\n  0x40\n    /* \"#utility.yul\":1432:1441   */\n  dup4\n    /* \"#utility.yul\":1423:1430   */\n  dup6\n    /* \"#utility.yul\":1419:1442   */\n  sub\n    /* \"#utility.yul\":1415:1447   */\n  slt\n    /* \"#utility.yul\":1412:1531   */\n  iszero\n  tag_71\n  jumpi\n    /* \"#utility.yul\":1450:1529   */\n  tag_72\n  tag_21\n  jump\t// in\ntag_72:\n    /* \"#utility.yul\":1412:1531   */\ntag_71:\n    /* \"#utility.yul\":1570:1571   */\n  0x00\n    /* \"#utility.yul\":1595:1659   */\n  tag_73\n    /* \"#utility.yul\":1651:1658   */\n  dup6\n    /* \"#utility.yul\":1642:1648   */\n  dup3\n    /* \"#utility.yul\":1631:1640   */\n  dup7\n    /* \"#utility.yul\":1627:1649   */\n  add\n    /* \"#utility.yul\":1595:1659   */\n  tag_26\n  jump\t// in\ntag_73:\n    /* \"#utility.yul\":1585:1659   */\n  swap3\n  pop\n    /* \"#utility.yul\":1541:1669   */\n  pop\n    /* \"#utility.yul\":1708:1710   */\n  0x20\n    /* \"#utility.yul\":1734:1812   */\n  tag_74\n    /* \"#utility.yul\":1804:1811   */\n  dup6\n    /* \"#utility.yul\":1795:1801   */\n  dup3\n    /* \"#utility.yul\":1784:1793   */\n  dup7\n    /* \"#utility.yul\":1780:1802   */\n  add\n    /* \"#utility.yul\":1734:1812   */\n  tag_29\n  jump\t// in\ntag_74:\n    /* \"#utility.yul\":1724:1812   */\n  swap2\n  pop\n    /* \"#utility.yul\":1679:1822   */\n  pop\n    /* \"#utility.yul\":1294:1829   */\n  swap3\n  pop\n  swap3\n  swap1\n  pop\n  jump\t// out\n    /* \"#utility.yul\":1835:1934   */\ntag_30:\n    /* \"#utility.yul\":1887:1893   */\n  0x00\n    /* \"#utility.yul\":1921:1926   */\n  dup2\n    /* \"#utility.yul\":1915:1927   */\n  mload\n    /* \"#utility.yul\":1905:1927   */\n  swap1\n  pop\n    /* \"#utility.yul\":1835:1934   */\n  swap2\n  swap1\n  pop\n  jump\t// out\n    /* \"#utility.yul\":1940:2120   */\ntag_31:\n    /* \"#utility.yul\":1988:2065   */\n  0x4e487b7100000000000000000000000000000000000000000000000000000000\n    /* \"#utility.yul\":1985:1986   */\n  0x00\n    /* \"#utility.yul\":1978:2066   */\n  mstore\n    /* \"#utility.yul\":2085:2089   */\n  0x41\n    /* \"#utility.yul\":2082:2083   */\n  0x04\n    /* \"#utility.yul\":2075:2090   */\n  mstore\n    /* \"#utility.yul\":2109:2113   */\n  0x24\n    /* \"#utility.yul\":2106:2107   */\n  0x00\n    /* \"#utility.yul\":2099:2114   */\n  revert\n    /* \"#utility.yul\":2126:2306   */\ntag_32:\n    /* \"#utility.yul\":2174:2251   */\n  0x4e487b7100000000000000000000000000000000000000000000000000000000\n    /* \"#utility.yul\":2171:2172   */\n  0x00\n    /* \"#utility.yul\":2164:2252   */\n  mstore\n    /* \"#utility.yul\":2271:2275   */\n  0x22\n    /* \"#utility.yul\":2268:2269   */\n  0x04\n    /* \"#utility.yul\":2261:2276   */\n  mstore\n    /* \"#utility.yul\":2295:2299   */\n  0x24\n    /* \"#utility.yul\":2292:2293   */\n  0x00\n    /* \"#utility.yul\":2285:2300   */\n  revert\n    /* \"#utility.yul\":2312:2632   */\ntag_33:\n    /* \"#utility.yul\":2356:2362   */\n  0x00\n    /* \"#utility.yul\":2393:2394   */\n  0x02\n    /* \"#utility.yul\":2387:2391   */\n  dup3\n    /* \"#utility.yul\":2383:2395   */\n  div\n    /* \"#utility.yul\":2373:2395   */\n  swap1\n  pop\n    /* \"#utility.yul\":2440:2441   */\n  0x01\n    /* \"#utility.yul\":2434:2438   */\n  dup3\n    /* \"#utility.yul\":2430:2442   */\n  and\n    /* \"#utility.yul\":2461:2479   */\n  dup1\n    /* \"#utility.yul\":2451:2532   */\n  tag_79\n  jumpi\n    /* \"#utility.yul\":2517:2521   */\n  0x7f\n    /* \"#utility.yul\":2509:2515   */\n  dup3\n    /* \"#utility.yul\":2505:2522   */\n  and\n    /* \"#utility.yul\":2495:2522   */\n  swap2\n  pop\n    /* \"#utility.yul\":2451:2532   */\ntag_79:\n    /* \"#utility.yul\":2579:2581   */\n  0x20\n    /* \"#utility.yul\":2571:2577   */\n  dup3\n    /* \"#utility.yul\":2568:2582   */\n  lt\n    /* \"#utility.yul\":2548:2566   */\n  dup2\n    /* \"#utility.yul\":2545:2583   */\n  sub\n    /* \"#utility.yul\":2542:2626   */\n  tag_80\n  jumpi\n    /* \"#utility.yul\":2598:2616   */\n  tag_81\n  tag_32\n  jump\t// in\ntag_81:\n    /* \"#utility.yul\":2542:2626   */\ntag_80:\n    /* \"#utility.yul\":2363:2632   */\n  pop\n    /* \"#utility.yul\":2312:2632   */\n  swap2\n  swap1\n  pop\n  jump\t// out\n    /* \"#utility.yul\":2638:2779   */\ntag_34:\n    /* \"#utility.yul\":2687:2691   */\n  0x00\n    /* \"#utility.yul\":2710:2713   */\n  dup2\n    /* \"#utility.yul\":2702:2713   */\n  swap1\n  pop\n    /* \"#utility.yul\":2733:2736   */\n  dup2\n    /* \"#utility.yul\":2730:2731   */\n  0x00\n    /* \"#utility.yul\":2723:2737   */\n  mstore\n    /* \"#utility.yul\":2767:2771   */\n  0x20\n    /* \"#utility.yul\":2764:2765   */\n  0x00\n    /* \"#utility.yul\":2754:2772   */\n  keccak256\n    /* \"#utility.yul\":2746:2772   */\n  swap1\n  pop\n    /* \"#utility.yul\":2638:2779   */\n  swap2\n  swap1\n  pop\n  jump\t// out\n    /* \"#utility.yul\":2785:2878   */\ntag_35:\n    /* \"#utility.yul\":2822:2828   */\n  0x00\n    /* \"#utility.yul\":2869:2871   */\n  0x20\n    /* \"#utility.yul\":2864:2866   */\n  0x1f\n    /* \"#utility.yul\":2857:2862   */\n  dup4\n    /* \"#utility.yul\":2853:2867   */\n  add\n    /* \"#utility.yul\":2849:2872   */\n  div\n    /* \"#utility.yul\":2839:2872   */\n  swap1\n  pop\n    /* \"#utility.yul\":2785:2878   */\n  swap2\n  swap1\n  pop\n  jump\t// out\n    /* \"#utility.yul\":2884:2991   */\ntag_36:\n    /* \"#utility.yul\":2928:2936   */\n  0x00\n    /* \"#utility.yul\":2978:2983   */\n  dup3\n    /* \"#utility.yul\":2972:2976   */\n  dup3\n    /* \"#utility.yul\":2968:2984   */\n  shl\n    /* \"#utility.yul\":2947:2984   */\n  swap1\n  pop\n    /* \"#utility.yul\":2884:2991   */\n  swap3\n  swap2\n  pop\n  pop\n  jump\t// out\n    /* \"#utility.yul\":2997:3390   */\ntag_37:\n    /* \"#utility.yul\":3066:3072   */\n  0x00\n    /* \"#utility.yul\":3116:3117   */\n  0x08\n    /* \"#utility.yul\":3104:3114   */\n  dup4\n    /* \"#utility.yul\":3100:3118   */\n  mul\n    /* \"#utility.yul\":3139:3236   */\n  tag_86\n    /* \"#utility.yul\":3169:3235   */\n  0xffffffffffffffffffffffffffffffffffffffffffffffffffffffffffffffff\n    /* \"#utility.yul\":3158:3167   */\n  dup3\n    /* \"#utility.yul\":3139:3236   */\n  tag_36\n  jump\t// in\ntag_86:\n    /* \"#utility.yul\":3257:3296   */\n  tag_87\n    /* \"#utility.yul\":3287:3295   */\n  dup7\n    /* \"#utility.yul\":3276:3285   */\n  dup4\n    /* \"#utility.yul\":3257:3296   */\n  tag_36\n  jump\t// in\ntag_87:\n    /* \"#utility.yul\":3245:3296   */\n  swap6\n  pop\n    /* \"#utility.yul\":3329:3333   */\n  dup1\n    /* \"#utility.yul\":3325:3334   */\n  not\n    /* \"#utility.yul\":3318:3323   */\n  dup5\n    /* \"#utility.yul\":3314:3335   */\n  and\n    /* \"#utility.yul\":3305:3335   */\n  swap4\n  pop\n    /* \"#utility.yul\":3378:3382   */\n  dup1\n    /* \"#utility.yul\":3368:3376   */\n  dup7\n    /* \"#utility.yul\":3364:3383   */\n  and\n    /* \"#utility.yul\":3357:3362   */\n  dup5\n    /* \"#utility.yul\":3354:3384   */\n  or\n    /* \"#utility.yul\":3344:3384   */\n  swap3\n  pop\n    /* \"#utility.yul\":3073:3390   */\n  pop\n  pop\n    /* \"#utility.yul\":2997:3390   */\n  swap4\n  swap3\n  pop\n  pop\n  pop\n  jump\t// out\n    /* \"#utility.yul\":3396:3473   */\ntag_38:\n    /* \"#utility.yul\":3433:3440   */\n  0x00\n    /* \"#utility.yul\":3462:3467   */\n  dup2\n    /* \"#utility.yul\":3451:3467   */\n  swap1\n  pop\n    /* \"#utility.yul\":3396:3473   */\n  swap2\n  swap1\n  pop\n  jump\t// out\n    /* \"#utility.yul\":3479:3539   */\ntag_39:\n    /* \"#utility.yul\":3507:3510   */\n  0x00\n    /* \"#utility.yul\":3528:3533   */\n  dup2\n    /* \"#utility.yul\":3521:3533   */\n  swap1\n  pop\n    /* \"#utility.yul\":3479:3539   */\n  swap2\n  swap1\n  pop\n  jump\t// out\n    /* \"#utility.yul\":3545:3687   */\ntag_40:\n    /* \"#utility.yul\":3595:3604   */\n  0x00\n    /* \"#utility.yul\":3628:3681   */\n  tag_91\n    /* \"#utility.yul\":3646:3680   */\n  tag_92\n    /* \"#utility.yul\":3655:3679   */\n  tag_93\n    /* \"#utility.yul\":3673:3678   */\n  dup5\n    /* \"#utility.yul\":3655:3679   */\n  tag_38\n  jump\t// in\ntag_93:\n    /* \"#utility.yul\":3646:3680   */\n  tag_39\n  jump\t// in\ntag_92:\n    /* \"#utility.yul\":3628:3681   */\n  tag_38\n  jump\t// in\ntag_91:\n    /* \"#utility.yul\":3615:3681   */\n  swap1\n  pop\n    /* \"#utility.yul\":3545:3687   */\n  swap2\n  swap1\n  pop\n  jump\t// out\n    /* \"#utility.yul\":3693:3768   */\ntag_41:\n    /* \"#utility.yul\":3736:3739   */\n  0x00\n    /* \"#utility.yul\":3757:3762   */\n  dup2\n    /* \"#utility.yul\":3750:3762   */\n  swap1\n  pop\n    /* \"#utility.yul\":3693:3768   */\n  swap2\n  swap1\n  pop\n  jump\t// out\n    /* \"#utility.yul\":3774:4043   */\ntag_42:\n    /* \"#utility.yul\":3884:3923   */\n  tag_96\n    /* \"#utility.yul\":3915:3922   */\n  dup4\n    /* \"#utility.yul\":3884:3923   */\n  tag_40\n  jump\t// in\ntag_96:\n    /* \"#utility.yul\":3945:4036   */\n  tag_97\n    /* \"#utility.yul\":3994:4035   */\n  tag_98\n    /* \"#utility.yul\":4018:4034   */\n  dup3\n    /* \"#utility.yul\":3994:4035   */\n  tag_41\n  jump\t// in\ntag_98:\n    /* \"#utility.yul\":3986:3992   */\n  dup5\n    /* \"#utility.yul\":3979:3983   */\n  dup5\n    /* \"#utility.yul\":3973:3984   */\n  sload\n    /* \"#utility.yul\":3945:4036   */\n  tag_37\n  jump\t// in\ntag_97:\n    /* \"#utility.yul\":3939:3943   */\n  dup3\n    /* \"#utility.yul\":3932:4037   */\n  sstore\n    /* \"#utility.yul\":3850:4043   */\n  pop\n    /* \"#utility.yul\":3774:4043   */\n  pop\n  pop\n  pop\n  jump\t// out\n    /* \"#utility.yul\":4049:4122   */\ntag_43:\n    /* \"#utility.yul\":4094:4097   */\n  0x00\n    /* \"#utility.yul\":4049:4122   */\n  swap1\n  jump\t// out\n    /* \"#utility.yul\":4128:4317   */\ntag_44:\n    /* \"#utility.yul\":4205:4237   */\n  tag_101\n  tag_43\n  jump\t// in\ntag_101:\n    /* \"#utility.yul\":4246:4311   */\n  tag_102\n    /* \"#utility.yul\":4304:4310   */\n  dup2\n    /* \"#utility.yul\":4296:4302   */\n  dup5\n    /* \"#utility.yul\":4290:4294   */\n  dup5\n    /* \"#utility.yul\":4246:4311   */\n  tag_42\n  jump\t// in\ntag_102:\n    /* \"#utility.yul\":4181:4317   */\n  pop\n    /* \"#utility.yul\":4128:4317   */\n  pop\n  pop\n  jump\t// out\n    /* \"#utility.yul\":4323:4509   */\ntag_45:\n    /* \"#utility.yul\":4383:4503   */\ntag_104:\n    /* \"#utility.yul\":4400:4403   */\n  dup2\n    /* \"#utility.yul\":4393:4398   */\n  dup2\n    /* \"#utility.yul\":4390:4404   */\n  lt\n    /* \"#utility.yul\":4383:4503   */\n  iszero\n  tag_106\n  jumpi\n    /* \"#utility.yul\":4454:4493   */\n  tag_107\n    /* \"#utility.yul\":4491:4492   */\n  0x00\n    /* \"#utility.yul\":4484:4489   */\n  dup3\n    /* \"#utility.yul\":4454:4493   */\n  tag_44\n  jump\t// in\ntag_107:\n    /* \"#utility.yul\":4427:4428   */\n  0x01\n    /* \"#utility.yul\":4420:4425   */\n  dup2\n    /* \"#utility.yul\":4416:4429   */\n  add\n    /* \"#utility.yul\":4407:4429   */\n  swap1\n  pop\n    /* \"#utility.yul\":4383:4503   */\n  jump(tag_104)\ntag_106:\n    /* \"#utility.yul\":4323:4509   */\n  pop\n  pop\n  jump\t// out\n    /* \"#utility.yul\":4515:5058   */\ntag_46:\n    /* \"#utility.yul\":4616:4618   */\n  0x1f\n    /* \"#utility.yul\":4611:4614   */\n  dup3\n    /* \"#utility.yul\":4608:4619   */\n  gt\n    /* \"#utility.yul\":4605:5051   */\n  iszero\n  tag_109\n  jumpi\n    /* \"#utility.yul\":4650:4688   */\n  tag_110\n    /* \"#utility.yul\":4682:4687   */\n  dup2\n    /* \"#utility.yul\":4650:4688   */\n  tag_34\n  jump\t// in\ntag_110:\n    /* \"#utility.yul\":4734:4763   */\n  tag_111\n    /* \"#utility.yul\":4752:4762   */\n  dup5\n    /* \"#utility.yul\":4734:4763   */\n  tag_35\n  jump\t// in\ntag_111:\n    /* \"#utility.yul\":4724:4732   */\n  dup2\n    /* \"#utility.yul\":4720:4764   */\n  add\n    /* \"#utility.yul\":4917:4919   */\n  0x20\n    /* \"#utility.yul\":4905:4915   */\n  dup6\n    /* \"#utility.yul\":4902:4920   */\n  lt\n    /* \"#utility.yul\":4899:4948   */\n  iszero\n  tag_112\n  jumpi\n    /* \"#utility.yul\":4938:4946   */\n  dup2\n    /* \"#utility.yul\":4923:4946   */\n  swap1\n  pop\n    /* \"#utility.yul\":4899:4948   */\ntag_112:\n    /* \"#utility.yul\":4961:5041   */\n  tag_113\n    /* \"#utility.yul\":5017:5039   */\n  tag_114\n    /* \"#utility.yul\":5035:5038   */\n  dup6\n    /* \"#utility.yul\":5017:5039   */\n  tag_35\n  jump\t// in\ntag_114:\n    /* \"#utility.yul\":5007:5015   */\n  dup4\n    /* \"#utility.yul\":5003:5040   */\n  add\n    /* \"#utility.yul\":4990:5001   */\n  dup3\n    /* \"#utility.yul\":4961:5041   */\n  tag_45\n  jump\t// in\ntag_113:\n    /* \"#utility.yul\":4620:5051   */\n  pop\n  pop\n    /* \"#utility.yul\":4605:5051   */\ntag_109:\n    /* \"#utility.yul\":4515:5058   */\n  pop\n  pop\n  pop\n  jump\t// out\n    /* \"#utility.yul\":5064:5181   */\ntag_47:\n    /* \"#utility.yul\":5118:5126   */\n  0x00\n    /* \"#utility.yul\":5168:5173   */\n  dup3\n    /* \"#utility.yul\":5162:5166   */\n  dup3\n    /* \"#utility.yul\":5158:5174   */\n  shr\n    /* \"#utility.yul\":5137:5174   */\n  swap1\n  pop\n    /* \"#utility.yul\":5064:5181   */\n  swap3\n  swap2\n  pop\n  pop\n  jump\t// out\n    /* \"#utility.yul\":5187:5356   */\ntag_48:\n    /* \"#utility.yul\":5231:5237   */\n  0x00\n    /* \"#utility.yul\":5264:5315   */\n  tag_117\n    /* \"#utility.yul\":5312:5313   */\n  0x00\n    /* \"#utility.yul\":5308:5314   */\n  not\n    /* \"#utility.yul\":5300:5305   */\n  dup5\n    /* \"#utility.yul\":5297:5298   */\n  0x08\n    /* \"#utility.yul\":5293:5306   */\n  mul\n    /* \"#utility.yul\":5264:5315   */\n  tag_47\n  jump\t// in\ntag_117:\n    /* \"#utility.yul\":5260:5316   */\n  not\n    /* \"#utility.yul\":5345:5349   */\n  dup1\n    /* \"#utility.yul\":5339:5343   */\n  dup4\n    /* \"#utility.yul\":5335:5350   */\n  and\n    /* \"#utility.yul\":5325:5350   */\n  swap2\n  pop\n    /* \"#utility.yul\":5238:5356   */\n  pop\n    /* \"#utility.yul\":5187:5356   */\n  swap3\n  swap2\n  pop\n  pop\n  jump\t// out\n    /* \"#utility.yul\":5361:5656   */\ntag_49:\n    /* \"#utility.yul\":5437:5441   */\n  0x00\n    /* \"#utility.yul\":5583:5612   */\n  tag_119\n    /* \"#utility.yul\":5608:5611   */\n  dup4\n    /* \"#utility.yul\":5602:5606   */\n  dup4\n    /* \"#utility.yul\":5583:5612   */\n  tag_48\n  jump\t// in\ntag_119:\n    /* \"#utility.yul\":5575:5612   */\n  swap2\n  pop\n    /* \"#utility.yul\":5645:5648   */\n  dup3\n    /* \"#utility.yul\":5642:5643   */\n  0x02\n    /* \"#utility.yul\":5638:5649   */\n  mul\n    /* \"#utility.yul\":5632:5636   */\n  dup3\n    /* \"#utility.yul\":5629:5650   */\n  or\n    /* \"#utility.yul\":5621:5650   */\n  swap1\n  pop\n    /* \"#utility.yul\":5361:5656   */\n  swap3\n  swap2\n  pop\n  pop\n  jump\t// out\n    /* \"#utility.yul\":5661:7056   */\ntag_9:\n    /* \"#utility.yul\":5778:5815   */\n  tag_121\n    /* \"#utility.yul\":5811:5814   */\n  dup3\n    /* \"#utility.yul\":5778:5815   */\n  tag_30\n  jump\t// in\ntag_121:\n    /* \"#utility.yul\":5880:5898   */\n  0xffffffffffffffff\n    /* \"#utility.yul\":5872:5878   */\n  dup2\n    /* \"#utility.yul\":5869:5899   */\n  gt\n    /* \"#utility.yul\":5866:5922   */\n  iszero\n  tag_122\n  jumpi\n    /* \"#utility.yul\":5902:5920   */\n  tag_123\n  tag_31\n  jump\t// in\ntag_123:\n    /* \"#utility.yul\":5866:5922   */\ntag_122:\n    /* \"#utility.yul\":5946:5984   */\n  tag_124\n    /* \"#utility.yul\":5978:5982   */\n  dup3\n    /* \"#utility.yul\":5972:5983   */\n  sload\n    /* \"#utility.yul\":5946:5984   */\n  tag_33\n  jump\t// in\ntag_124:\n    /* \"#utility.yul\":6031:6098   */\n  tag_125\n    /* \"#utility.yul\":6091:6097   */\n  dup3\n    /* \"#utility.yul\":6083:6089   */\n  dup3\n    /* \"#utility.yul\":6077:6081   */\n  dup6\n    /* \"#utility.yul\":6031:6098   */\n  tag_46\n  jump\t// in\ntag_125:\n    /* \"#utility.yul\":6125:6126   */\n  0x00\n    /* \"#utility.yul\":6149:6153   */\n  0x20\n    /* \"#utility.yul\":6136:6153   */\n  swap1\n  pop\n    /* \"#utility.yul\":6181:6183   */\n  0x1f\n    /* \"#utility.yul\":6173:6179   */\n  dup4\n    /* \"#utility.yul\":6170:6184   */\n  gt\n    /* \"#utility.yul\":6198:6199   */\n  0x01\n    /* \"#utility.yul\":6193:6811   */\n  dup2\n  eq\n  tag_127\n  jumpi\n    /* \"#utility.yul\":6855:6856   */\n  0x00\n    /* \"#utility.yul\":6872:6878   */\n  dup5\n    /* \"#utility.yul\":6869:6946   */\n  iszero\n  tag_128\n  jumpi\n    /* \"#utility.yul\":6921:6930   */\n  dup3\n    /* \"#utility.yul\":6916:6919   */\n  dup8\n    /* \"#utility.yul\":6912:6931   */\n  add\n    /* \"#utility.yul\":6906:6932   */\n  mload\n    /* \"#utility.yul\":6897:6932   */\n  swap1\n  pop\n    /* \"#utility.yul\":6869:6946   */\ntag_128:\n    /* \"#utility.yul\":6972:7039   */\n  tag_129\n    /* \"#utility.yul\":7032:7038   */\n  dup6\n    /* \"#utility.yul\":7025:7030   */\n  dup3\n    /* \"#utility.yul\":6972:7039   */\n  tag_49\n  jump\t// in\ntag_129:\n    /* \"#utility.yul\":6966:6970   */\n  dup7\n    /* \"#utility.yul\":6959:7040   */\n  sstore\n    /* \"#utility.yul\":6828:7050   */\n  pop\n    /* \"#utility.yul\":6163:7050   */\n  jump(tag_126)\n    /* \"#utility.yul\":6193:6811   */\ntag_127:\n    /* \"#utility.yul\":6245:6249   */\n  0x1f\n    /* \"#utility.yul\":6241:6250   */\n  not\n    /* \"#utility.yul\":6233:6239   */\n  dup5\n    /* \"#utility.yul\":6229:6251   */\n  and\n    /* \"#utility.yul\":6279:6316   */\n  tag_130\n    /* \"#utility.yul\":6311:6315   */\n  dup7\n    /* \"#utility.yul\":6279:6316   */\n  tag_34\n  jump\t// in\ntag_130:\n    /* \"#utility.yul\":6338:6339   */\n  0x00\n    /* \"#utility.yul\":6352:6560   */\ntag_131:\n    /* \"#utility.yul\":6366:6373   */\n  dup3\n    /* \"#utility.yul\":6363:6364   */\n  dup2\n    /* \"#utility.yul\":6360:6374   */\n  lt\n    /* \"#utility.yul\":6352:6560   */\n  iszero\n  tag_133\n  jumpi\n    /* \"#utility.yul\":6445:6454   */\n  dup5\n    /* \"#utility.yul\":6440:6443   */\n  dup10\n    /* \"#utility.yul\":6436:6455   */\n  add\n    /* \"#utility.yul\":6430:6456   */\n  mload\n    /* \"#utility.yul\":6422:6428   */\n  dup3\n    /* \"#utility.yul\":6415:6457   */\n  sstore\n    /* \"#utility.yul\":6496:6497   */\n  0x01\n    /* \"#utility.yul\":6488:6494   */\n  dup3\n    /* \"#utility.yul\":6484:6498   */\n  add\n    /* \"#utility.yul\":6474:6498   */\n  swap2\n  pop\n    /* \"#utility.yul\":6543:6545   */\n  0x20\n    /* \"#utility.yul\":6532:6541   */\n  dup6\n    /* \"#utility.yul\":6528:6546   */\n  add\n    /* \"#utility.yul\":6515:6546   */\n  swap5\n  pop\n    /* \"#utility.yul\":6389:6393   */\n  0x20\n    /* \"#utility.yul\":6386:6387   */\n  dup2\n    /* \"#utility.yul\":6382:6394   */\n  add\n    /* \"#utility.yul\":6377:6394   */\n  swap1\n  pop\n    /* \"#utility.yul\":6352:6560   */\n  jump(tag_131)\ntag_133:\n    /* \"#utility.yul\":6588:6594   */\n  dup7\n    /* \"#utility.yul\":6579:6586   */\n  dup4\n    /* \"#utility.yul\":6576:6595   */\n  lt\n    /* \"#utility.yul\":6573:6752   */\n  iszero\n  tag_134\n  jumpi\n    /* \"#utility.yul\":6646:6655   */\n  dup5\n    /* \"#utility.yul\":6641:6644   */\n  dup10\n    /* \"#utility.yul\":6637:6656   */\n  add\n    /* \"#utility.yul\":6631:6657   */\n  mload\n    /* \"#utility.yul\":6689:6737   */\n  tag_135\n    /* \"#utility.yul\":6731:6735   */\n  0x1f\n    /* \"#utility.yul\":6723:6729   */\n  dup10\n    /* \"#utility.yul\":6719:6736   */\n  and\n    /* \"#utility.yul\":6708:6717   */\n  dup3\n    /* \"#utility.yul\":6689:6737   */\n  tag_48\n  jump\t// in\ntag_135:\n    /* \"#utility.yul\":6681:6687   */\n  dup4\n    /* \"#utility.yul\":6674:6738   */\n  sstore\n    /* \"#utility.yul\":6596:6752   */\n  pop\n    /* \"#utility.yul\":6573:6752   */\ntag_134:\n    /* \"#utility.yul\":6798:6799   */\n  0x01\n    /* \"#utility.yul\":6794:6795   */\n  0x02\n    /* \"#utility.yul\":6786:6792   */\n  dup9\n    /* \"#utility.yul\":6782:6796   */\n  mul\n    /* \"#utility.yul\":6778:6800   */\n  add\n    /* \"#utility.yul\":6772:6776   */\n  dup9\n    /* \"#utility.yul\":6765:6801   */\n  sstore\n    /* \"#utility.yul\":6200:6811   */\n  pop\n  pop\n  pop\n    /* \"#utility.yul\":6163:7050   */\ntag_126:\n  pop\n    /* \"#utility.yul\":5753:7056   */\n  pop\n  pop\n  pop\n    /* \"#utility.yul\":5661:7056   */\n  pop\n  pop\n  jump\t// out\n    /* \"#utility.yul\":7062:7180   */\ntag_50:\n    /* \"#utility.yul\":7149:7173   */\n  tag_137\n    /* \"#utility.yul\":7167:7172   */\n  dup2\n    /* \"#utility.yul\":7149:7173   */\n  tag_24\n  jump\t// in\ntag_137:\n    /* \"#utility.yul\":7144:7147   */\n  dup3\n    /* \"#utility.yul\":7137:7174   */\n  mstore\n    /* \"#utility.yul\":7062:7180   */\n  pop\n  pop\n  jump\t// out\n    /* \"#utility.yul\":7186:7408   */\ntag_14:\n    /* \"#utility.yul\":7279:7283   */\n  0x00\n    /* \"#utility.yul\":7317:7319   */\n  0x20\n    /* \"#utility.yul\":7306:7315   */\n  dup3\n    /* \"#utility.yul\":7302:7320   */\n  add\n    /* \"#utility.yul\":7294:7320   */\n  swap1\n  pop\n    /* \"#utility.yul\":7330:7401   */\n  tag_139\n    /* \"#utility.yul\":7398:7399   */\n  0x00\n    /* \"#utility.yul\":7387:7396   */\n  dup4\n    /* \"#utility.yul\":7383:7400   */\n  add\n    /* \"#utility.yul\":7374:7380   */\n  dup5\n    /* \"#utility.yul\":7330:7401   */\n  tag_50\n  jump\t// in\ntag_139:\n    /* \"#utility.yul\":7186:7408   */\n  swap3\n  swap2\n  pop\n  pop\n  jump\t// out\n    /* \"PictureToken.sol\":223:1333  contract PictureToken is ERC721, Ownable {... */\ntag_18:\n  dataSize(sub_0)\n  dup1\n  dataOffset(sub_0)\n  0x00\n  codecopy\n  0x00\n  return\nstop\n\nsub_0: assembly {\n        /* \"PictureToken.sol\":223:1333  contract PictureToken is ERC721, Ownable {... */\n      mstore(0x40, 0x80)\n      callvalue\n      dup1\n      iszero\n      tag_1\n      jumpi\n      0x00\n      dup1\n      revert\n    tag_1:\n      pop\n      jumpi(tag_2, lt(calldatasize, 0x04))\n      shr(0xe0, calldataload(0x00))\n      dup1\n      0x854cbb4a\n      gt\n      tag_26\n      jumpi\n      dup1\n      0xa035b1fe\n      gt\n      tag_27\n      jumpi\n      dup1\n      0xa035b1fe\n      eq\n      tag_20\n      jumpi\n      dup1\n      0xa22cb465\n      eq\n      tag_21\n      jumpi\n      dup1\n      0xb88d4fde\n      eq\n      tag_22\n      jumpi\n      dup1\n      0xc87b56dd\n      eq\n      tag_23\n      jumpi\n      dup1\n      0xe985e9c5\n      eq\n      tag_24\n      jumpi\n      dup1\n      0xf2fde38b\n      eq\n      tag_25\n      jumpi\n      jump(tag_2)\n    tag_27:\n      dup1\n      0x854cbb4a\n      eq\n      tag_14\n      jumpi\n      dup1\n      0x8c2a5bc8\n      eq\n      tag_15\n      jumpi\n      dup1\n      0x8da5cb5b\n      eq\n      tag_16\n      jumpi\n      dup1\n      0x91b7f5ed\n      eq\n      tag_17\n      jumpi\n      dup1\n      0x95d89b41\n      eq\n      tag_18\n      jumpi\n      dup1\n      0x98d5fdca\n      eq\n      tag_19\n      jumpi\n      jump(tag_2)\n    tag_26:\n      dup1\n      0x42842e0e\n      gt\n      tag_28\n      jumpi\n      dup1\n      0x42842e0e\n      eq\n      tag_8\n      jumpi\n      dup1\n      0x5987cc19\n      eq\n      tag_9\n      jumpi\n      dup1\n      0x6352211e\n      eq\n      tag_10\n      jumpi\n      dup1\n      0x64edfbf0\n      eq\n      tag_11\n      jumpi\n      dup1\n      0x70a08231\n      eq\n      tag_12\n      jumpi\n      dup1\n      0x715018a6\n      eq\n      tag_13\n      jumpi\n      jump(tag_2)\n    tag_28:\n      dup1\n      0x01ffc9a7\n      eq\n      tag_3\n      jumpi\n      dup1\n      0x06fdde03\n      eq\n      tag_4\n      jumpi\n      dup1\n      0x081812fc\n      eq\n      tag_5\n      jumpi\n      dup1\n      0x095ea7b3\n      eq\n      tag_6\n      jumpi\n      dup1\n      0x23b872dd\n      eq\n      tag_7\n      jumpi\n    tag_2:\n      0x00\n      dup1\n      revert\n        /* \"openzeppelin-contracts/contracts/token/ERC721/ERC721.sol\":1607:1912  function supportsInterface(bytes4 interfaceId) public view virtual override(ERC165, IERC165) returns (bool) {... */\n    tag_3:\n      tag_29\n      0x04\n      dup1\n      calldatasize\n      sub\n      dup2\n      add\n      swap1\n      tag_30\n      swap2\n      swap1\n      tag_31\n      jump\t// in\n    tag_30:\n      tag_32\n      jump\t// in\n    tag_29:\n      mload(0x40)\n      tag_33\n      swap2\n      swap1\n      tag_34\n      jump\t// in\n    tag_33:\n      mload(0x40)\n      dup1\n      swap2\n      sub\n      swap1\n      return\n        /* \"openzeppelin-contracts/contracts/token/ERC721/ERC721.sol\":2438:2529  function name() public view virtual returns (string memory) {... */\n    tag_4:\n      tag_35\n      tag_36\n      jump\t// in\n    tag_35:\n      mload(0x40)\n      tag_37\n      swap2\n      swap1\n      tag_38\n      jump\t// in\n    tag_37:\n      mload(0x40)\n      dup1\n      swap2\n      sub\n      swap1\n      return\n        /* \"openzeppelin-contracts/contracts/token/ERC721/ERC721.sol\":3610:3768  function getApproved(uint256 tokenId) public view virtual returns (address) {... */\n    tag_5:\n      tag_39\n      0x04\n      dup1\n      calldatasize\n      sub\n      dup2\n      add\n      swap1\n      tag_40\n      swap2\n      swap1\n      tag_41\n      jump\t// in\n    tag_40:\n      tag_42\n      jump\t// in\n    tag_39:\n      mload(0x40)\n      tag_43\n      swap2\n      swap1\n      tag_44\n      jump\t// in\n    tag_43:\n      mload(0x40)\n      dup1\n      swap2\n      sub\n      swap1\n      return\n        /* \"openzeppelin-contracts/contracts/token/ERC721/ERC721.sol\":3429:3544  function approve(address to, uint256 tokenId) public virtual {... */\n    tag_6:\n      tag_45\n      0x04\n      dup1\n      calldatasize\n      sub\n      dup2\n      add\n      swap1\n      tag_46\n      swap2\n      swap1\n      tag_47\n      jump\t// in\n    tag_46:\n      tag_48\n      jump\t// in\n    tag_45:\n      stop\n        /* \"openzeppelin-contracts/contracts/token/ERC721/ERC721.sol\":4279:4867  function transferFrom(address from, address to, uint256 tokenId) public virtual {... */\n    tag_7:\n      tag_49\n      0x04\n      dup1\n      calldatasize\n      sub\n      dup2\n      add\n      swap1\n      tag_50\n      swap2\n      swap1\n      tag_51\n      jump\t// in\n    tag_50:\n      tag_52\n      jump\t// in\n    tag_49:\n      stop\n        /* \"openzeppelin-contracts/contracts/token/ERC721/ERC721.sol\":4938:5072  function safeTransferFrom(address from, address to, uint256 tokenId) public {... */\n    tag_8:\n      tag_53\n      0x04\n      dup1\n      calldatasize\n      sub\n      dup2\n      add\n      swap1\n      tag_54\n      swap2\n      swap1\n      tag_51\n      jump\t// in\n    tag_54:\n      tag_55\n      jump\t// in\n    tag_53:\n      stop\n        /* \"PictureToken.sol\":1002:1072  function putOnSale() public onlyOwner {... */\n    tag_9:\n      tag_56\n      tag_57\n      jump\t// in\n    tag_56:\n      stop\n        /* \"openzeppelin-contracts/contracts/token/ERC721/ERC721.sol\":2251:2371  function ownerOf(uint256 tokenId) public view virtual returns (address) {... */\n    tag_10:\n      tag_58\n      0x04\n      dup1\n      calldatasize\n      sub\n      dup2\n      add\n      swap1\n      tag_59\n      swap2\n      swap1\n      tag_41\n      jump\t// in\n    tag_59:\n      tag_60\n      jump\t// in\n    tag_58:\n      mload(0x40)\n      tag_61\n      swap2\n      swap1\n      tag_44\n      jump\t// in\n    tag_61:\n      mload(0x40)\n      dup1\n      swap2\n      sub\n      swap1\n      return\n        /* \"PictureToken.sol\":1162:1328  function purchase() public {... */\n    tag_11:\n      tag_62\n      tag_63\n      jump\t// in\n    tag_62:\n      stop\n        /* \"openzeppelin-contracts/contracts/token/ERC721/ERC721.sol\":1976:2189  function balanceOf(address owner) public view virtual returns (uint256) {... */\n    tag_12:\n      tag_64\n      0x04\n      dup1\n      calldatasize\n      sub\n      dup2\n      add\n      swap1\n      tag_65\n      swap2\n      swap1\n      tag_66\n      jump\t// in\n    tag_65:\n      tag_67\n      jump\t// in\n    tag_64:\n      mload(0x40)\n      tag_68\n      swap2\n      swap1\n      tag_69\n      jump\t// in\n    tag_68:\n      mload(0x40)\n      dup1\n      swap2\n      sub\n      swap1\n      return\n        /* \"openzeppelin-contracts/contracts/access/Ownable.sol\":2368:2471  function renounceOwnership() public virtual onlyOwner {... */\n    tag_13:\n      tag_70\n      tag_71\n      jump\t// in\n    tag_70:\n      stop\n        /* \"PictureToken.sol\":669:814  function getSinglePictureToken() public view returns(tokenData memory) {... */\n    tag_14:\n      tag_72\n      tag_73\n      jump\t// in\n    tag_72:\n      mload(0x40)\n      tag_74\n      swap2\n      swap1\n      tag_75\n      jump\t// in\n    tag_74:\n      mload(0x40)\n      dup1\n      swap2\n      sub\n      swap1\n      return\n        /* \"PictureToken.sol\":1080:1154  function notPutOnSale() public onlyOwner {... */\n    tag_15:\n      tag_76\n      tag_77\n      jump\t// in\n    tag_76:\n      stop\n        /* \"openzeppelin-contracts/contracts/access/Ownable.sol\":1693:1780  function owner() public view virtual returns (address) {... */\n    tag_16:\n      tag_78\n      tag_79\n      jump\t// in\n    tag_78:\n      mload(0x40)\n      tag_80\n      swap2\n      swap1\n      tag_44\n      jump\t// in\n    tag_80:\n      mload(0x40)\n      dup1\n      swap2\n      sub\n      swap1\n      return\n        /* \"PictureToken.sol\":910:994  function setPrice(uint256 _price) public onlyOwner {... */\n    tag_17:\n      tag_81\n      0x04\n      dup1\n      calldatasize\n      sub\n      dup2\n      add\n      swap1\n      tag_82\n      swap2\n      swap1\n      tag_41\n      jump\t// in\n    tag_82:\n      tag_83\n      jump\t// in\n    tag_81:\n      stop\n        /* \"openzeppelin-contracts/contracts/token/ERC721/ERC721.sol\":2598:2693  function symbol() public view virtual returns (string memory) {... */\n    tag_18:\n      tag_84\n      tag_85\n      jump\t// in\n    tag_84:\n      mload(0x40)\n      tag_86\n      swap2\n      swap1\n      tag_38\n      jump\t// in\n    tag_86:\n      mload(0x40)\n      dup1\n      swap2\n      sub\n      swap1\n      return\n        /* \"PictureToken.sol\":822:902  function getPrice() public view returns(uint256) {... */\n    tag_19:\n      tag_87\n      tag_88\n      jump\t// in\n    tag_87:\n      mload(0x40)\n      tag_89\n      swap2\n      swap1\n      tag_69\n      jump\t// in\n    tag_89:\n      mload(0x40)\n      dup1\n      swap2\n      sub\n      swap1\n      return\n        /* \"PictureToken.sol\":293:313  uint256 public price */\n    tag_20:\n      tag_90\n      tag_91\n      jump\t// in\n    tag_90:\n      mload(0x40)\n      tag_92\n      swap2\n      swap1\n      tag_69\n      jump\t// in\n    tag_92:\n      mload(0x40)\n      dup1\n      swap2\n      sub\n      swap1\n      return\n        /* \"openzeppelin-contracts/contracts/token/ERC721/ERC721.sol\":3840:3986  function setApprovalForAll(address operator, bool approved) public virtual {... */\n    tag_21:\n      tag_93\n      0x04\n      dup1\n      calldatasize\n      sub\n      dup2\n      add\n      swap1\n      tag_94\n      swap2\n      swap1\n      tag_95\n      jump\t// in\n    tag_94:\n      tag_96\n      jump\t// in\n    tag_93:\n      stop\n        /* \"openzeppelin-contracts/contracts/token/ERC721/ERC721.sol\":5143:5354  function safeTransferFrom(address from, address to, uint256 tokenId, bytes memory data) public virtual {... */\n    tag_22:\n      tag_97\n      0x04\n      dup1\n      calldatasize\n      sub\n      dup2\n      add\n      swap1\n      tag_98\n      swap2\n      swap1\n      tag_99\n      jump\t// in\n    tag_98:\n      tag_100\n      jump\t// in\n    tag_97:\n      stop\n        /* \"openzeppelin-contracts/contracts/token/ERC721/ERC721.sol\":2764:3024  function tokenURI(uint256 tokenId) public view virtual returns (string memory) {... */\n    tag_23:\n      tag_101\n      0x04\n      dup1\n      calldatasize\n      sub\n      dup2\n      add\n      swap1\n      tag_102\n      swap2\n      swap1\n      tag_41\n      jump\t// in\n    tag_102:\n      tag_103\n      jump\t// in\n    tag_101:\n      mload(0x40)\n      tag_104\n      swap2\n      swap1\n      tag_38\n      jump\t// in\n    tag_104:\n      mload(0x40)\n      dup1\n      swap2\n      sub\n      swap1\n      return\n        /* \"openzeppelin-contracts/contracts/token/ERC721/ERC721.sol\":4057:4212  function isApprovedForAll(address owner, address operator) public view virtual returns (bool) {... */\n    tag_24:\n      tag_105\n      0x04\n      dup1\n      calldatasize\n      sub\n      dup2\n      add\n      swap1\n      tag_106\n      swap2\n      swap1\n      tag_107\n      jump\t// in\n    tag_106:\n      tag_108\n      jump\t// in\n    tag_105:\n      mload(0x40)\n      tag_109\n      swap2\n      swap1\n      tag_34\n      jump\t// in\n    tag_109:\n      mload(0x40)\n      dup1\n      swap2\n      sub\n      swap1\n      return\n        /* \"openzeppelin-contracts/contracts/access/Ownable.sol\":2626:2846  function transferOwnership(address newOwner) public virtual onlyOwner {... */\n    tag_25:\n      tag_110\n      0x04\n      dup1\n      calldatasize\n      sub\n      dup2\n      add\n      swap1\n      tag_111\n      swap2\n      swap1\n      tag_66\n      jump\t// in\n    tag_111:\n      tag_112\n      jump\t// in\n    tag_110:\n      stop\n        /* \"openzeppelin-contracts/contracts/token/ERC721/ERC721.sol\":1607:1912  function supportsInterface(bytes4 interfaceId) public view virtual override(ERC165, IERC165) returns (bool) {... */\n    tag_32:\n        /* \"openzeppelin-contracts/contracts/token/ERC721/ERC721.sol\":1709:1713  bool */\n      0x00\n        /* \"openzeppelin-contracts/contracts/token/ERC721/ERC721.sol\":1761:1786  type(IERC721).interfaceId */\n      0x80ac58cd00000000000000000000000000000000000000000000000000000000\n        /* \"openzeppelin-contracts/contracts/token/ERC721/ERC721.sol\":1746:1786  interfaceId == type(IERC721).interfaceId */\n      not(0xffffffffffffffffffffffffffffffffffffffffffffffffffffffff)\n      and\n        /* \"openzeppelin-contracts/contracts/token/ERC721/ERC721.sol\":1746:1757  interfaceId */\n      dup3\n        /* \"openzeppelin-contracts/contracts/token/ERC721/ERC721.sol\":1746:1786  interfaceId == type(IERC721).interfaceId */\n      not(0xffffffffffffffffffffffffffffffffffffffffffffffffffffffff)\n      and\n      eq\n        /* \"openzeppelin-contracts/contracts/token/ERC721/ERC721.sol\":1746:1851  interfaceId == type(IERC721).interfaceId ||... */\n      dup1\n      tag_114\n      jumpi\n      pop\n        /* \"openzeppelin-contracts/contracts/token/ERC721/ERC721.sol\":1818:1851  type(IERC721Metadata).interfaceId */\n      0x5b5e139f00000000000000000000000000000000000000000000000000000000\n        /* \"openzeppelin-contracts/contracts/token/ERC721/ERC721.sol\":1803:1851  interfaceId == type(IERC721Metadata).interfaceId */\n      not(0xffffffffffffffffffffffffffffffffffffffffffffffffffffffff)\n      and\n        /* \"openzeppelin-contracts/contracts/token/ERC721/ERC721.sol\":1803:1814  interfaceId */\n      dup3\n        /* \"openzeppelin-contracts/contracts/token/ERC721/ERC721.sol\":1803:1851  interfaceId == type(IERC721Metadata).interfaceId */\n      not(0xffffffffffffffffffffffffffffffffffffffffffffffffffffffff)\n      and\n      eq\n        /* \"openzeppelin-contracts/contracts/token/ERC721/ERC721.sol\":1746:1851  interfaceId == type(IERC721).interfaceId ||... */\n    tag_114:\n        /* \"openzeppelin-contracts/contracts/token/ERC721/ERC721.sol\":1746:1904  interfaceId == type(IERC721).interfaceId ||... */\n      dup1\n      tag_115\n      jumpi\n      pop\n        /* \"openzeppelin-contracts/contracts/token/ERC721/ERC721.sol\":1868:1904  super.supportsInterface(interfaceId) */\n      tag_116\n        /* \"openzeppelin-contracts/contracts/token/ERC721/ERC721.sol\":1892:1903  interfaceId */\n      dup3\n        /* \"openzeppelin-contracts/contracts/token/ERC721/ERC721.sol\":1868:1891  super.supportsInterface */\n      tag_117\n        /* \"openzeppelin-contracts/contracts/token/ERC721/ERC721.sol\":1868:1904  super.supportsInterface(interfaceId) */\n      jump\t// in\n    tag_116:\n        /* \"openzeppelin-contracts/contracts/token/ERC721/ERC721.sol\":1746:1904  interfaceId == type(IERC721).interfaceId ||... */\n    tag_115:\n        /* \"openzeppelin-contracts/contracts/token/ERC721/ERC721.sol\":1726:1904  return... */\n      swap1\n      pop\n        /* \"openzeppelin-contracts/contracts/token/ERC721/ERC721.sol\":1607:1912  function supportsInterface(bytes4 interfaceId) public view virtual override(ERC165, IERC165) returns (bool) {... */\n      swap2\n      swap1\n      pop\n      jump\t// out\n        /* \"openzeppelin-contracts/contracts/token/ERC721/ERC721.sol\":2438:2529  function name() public view virtual returns (string memory) {... */\n    tag_36:\n        /* \"openzeppelin-contracts/contracts/token/ERC721/ERC721.sol\":2483:2496  string memory */\n      0x60\n        /* \"openzeppelin-contracts/contracts/token/ERC721/ERC721.sol\":2516:2521  _name */\n      0x00\n        /* \"openzeppelin-contracts/contracts/token/ERC721/ERC721.sol\":2509:2521  return _name */\n      dup1\n      sload\n      tag_119\n      swap1\n      tag_120\n      jump\t// in\n    tag_119:\n      dup1\n      0x1f\n      add\n      0x20\n      dup1\n      swap2\n      div\n      mul\n      0x20\n      add\n      mload(0x40)\n      swap1\n      dup2\n      add\n      0x40\n      mstore\n      dup1\n      swap3\n      swap2\n      swap1\n      dup2\n      dup2\n      mstore\n      0x20\n      add\n      dup3\n      dup1\n      sload\n      tag_121\n      swap1\n      tag_120\n      jump\t// in\n    tag_121:\n      dup1\n      iszero\n      tag_122\n      jumpi\n      dup1\n      0x1f\n      lt\n      tag_123\n      jumpi\n      0x0100\n      dup1\n      dup4\n      sload\n      div\n      mul\n      dup4\n      mstore\n      swap2\n      0x20\n      add\n      swap2\n      jump(tag_122)\n    tag_123:\n      dup3\n      add\n      swap2\n      swap1\n      0x00\n      mstore\n      keccak256(0x00, 0x20)\n      swap1\n    tag_124:\n      dup2\n      sload\n      dup2\n      mstore\n      swap1\n      0x01\n      add\n      swap1\n      0x20\n      add\n      dup1\n      dup4\n      gt\n      tag_124\n      jumpi\n      dup3\n      swap1\n      sub\n      0x1f\n      and\n      dup3\n      add\n      swap2\n    tag_122:\n      pop\n      pop\n      pop\n      pop\n      pop\n      swap1\n      pop\n        /* \"openzeppelin-contracts/contracts/token/ERC721/ERC721.sol\":2438:2529  function name() public view virtual returns (string memory) {... */\n      swap1\n      jump\t// out\n        /* \"openzeppelin-contracts/contracts/token/ERC721/ERC721.sol\":3610:3768  function getApproved(uint256 tokenId) public view virtual returns (address) {... */\n    tag_42:\n        /* \"openzeppelin-contracts/contracts/token/ERC721/ERC721.sol\":3677:3684  address */\n      0x00\n        /* \"openzeppelin-contracts/contracts/token/ERC721/ERC721.sol\":3697:3719  _requireOwned(tokenId) */\n      tag_126\n        /* \"openzeppelin-contracts/contracts/token/ERC721/ERC721.sol\":3711:3718  tokenId */\n      dup3\n        /* \"openzeppelin-contracts/contracts/token/ERC721/ERC721.sol\":3697:3710  _requireOwned */\n      tag_127\n        /* \"openzeppelin-contracts/contracts/token/ERC721/ERC721.sol\":3697:3719  _requireOwned(tokenId) */\n      jump\t// in\n    tag_126:\n      pop\n        /* \"openzeppelin-contracts/contracts/token/ERC721/ERC721.sol\":3739:3760  _getApproved(tokenId) */\n      tag_128\n        /* \"openzeppelin-contracts/contracts/token/ERC721/ERC721.sol\":3752:3759  tokenId */\n      dup3\n        /* \"openzeppelin-contracts/contracts/token/ERC721/ERC721.sol\":3739:3751  _getApproved */\n      tag_129\n        /* \"openzeppelin-contracts/contracts/token/ERC721/ERC721.sol\":3739:3760  _getApproved(tokenId) */\n      jump\t// in\n    tag_128:\n        /* \"openzeppelin-contracts/contracts/token/ERC721/ERC721.sol\":3732:3760  return _getApproved(tokenId) */\n      swap1\n      pop\n        /* \"openzeppelin-contracts/contracts/token/ERC721/ERC721.sol\":3610:3768  function getApproved(uint256 tokenId) public view virtual returns (address) {... */\n      swap2\n      swap1\n      pop\n      jump\t// out\n        /* \"openzeppelin-contracts/contracts/token/ERC721/ERC721.sol\":3429:3544  function approve(address to, uint256 tokenId) public virtual {... */\n    tag_48:\n        /* \"openzeppelin-contracts/contracts/token/ERC721/ERC721.sol\":3501:3536  _approve(to, tokenId, _msgSender()) */\n      tag_131\n        /* \"openzeppelin-contracts/contracts/token/ERC721/ERC721.sol\":3510:3512  to */\n      dup3\n        /* \"openzeppelin-contracts/contracts/token/ERC721/ERC721.sol\":3514:3521  tokenId */\n      dup3\n        /* \"openzeppelin-contracts/contracts/token/ERC721/ERC721.sol\":3523:3535  _msgSender() */\n      tag_132\n        /* \"openzeppelin-contracts/contracts/token/ERC721/ERC721.sol\":3523:3533  _msgSender */\n      tag_133\n        /* \"openzeppelin-contracts/contracts/token/ERC721/ERC721.sol\":3523:3535  _msgSender() */\n      jump\t// in\n    tag_132:\n        /* \"openzeppelin-contracts/contracts/token/ERC721/ERC721.sol\":3501:3509  _approve */\n      tag_134\n        /* \"openzeppelin-contracts/contracts/token/ERC721/ERC721.sol\":3501:3536  _approve(to, tokenId, _msgSender()) */\n      jump\t// in\n    tag_131:\n        /* \"openzeppelin-contracts/contracts/token/ERC721/ERC721.sol\":3429:3544  function approve(address to, uint256 tokenId) public virtual {... */\n      pop\n      pop\n      jump\t// out\n        /* \"openzeppelin-contracts/contracts/token/ERC721/ERC721.sol\":4279:4867  function transferFrom(address from, address to, uint256 tokenId) public virtual {... */\n    tag_52:\n        /* \"openzeppelin-contracts/contracts/token/ERC721/ERC721.sol\":4388:4389  0 */\n      0x00\n        /* \"openzeppelin-contracts/contracts/token/ERC721/ERC721.sol\":4374:4390  to == address(0) */\n      0xffffffffffffffffffffffffffffffffffffffff\n      and\n        /* \"openzeppelin-contracts/contracts/token/ERC721/ERC721.sol\":4374:4376  to */\n      dup3\n        /* \"openzeppelin-contracts/contracts/token/ERC721/ERC721.sol\":4374:4390  to == address(0) */\n      0xffffffffffffffffffffffffffffffffffffffff\n      and\n      sub\n        /* \"openzeppelin-contracts/contracts/token/ERC721/ERC721.sol\":4370:4459  if (to == address(0)) {... */\n      tag_136\n      jumpi\n        /* \"openzeppelin-contracts/contracts/token/ERC721/ERC721.sol\":4444:4445  0 */\n      0x00\n        /* \"openzeppelin-contracts/contracts/token/ERC721/ERC721.sol\":4414:4447  ERC721InvalidReceiver(address(0)) */\n      mload(0x40)\n      0x64a0ae9200000000000000000000000000000000000000000000000000000000\n      dup2\n      mstore\n      0x04\n      add\n      tag_137\n      swap2\n      swap1\n      tag_44\n      jump\t// in\n    tag_137:\n      mload(0x40)\n      dup1\n      swap2\n      sub\n      swap1\n      revert\n        /* \"openzeppelin-contracts/contracts/token/ERC721/ERC721.sol\":4370:4459  if (to == address(0)) {... */\n    tag_136:\n        /* \"openzeppelin-contracts/contracts/token/ERC721/ERC721.sol\":4680:4701  address previousOwner */\n      0x00\n        /* \"openzeppelin-contracts/contracts/token/ERC721/ERC721.sol\":4704:4738  _update(to, tokenId, _msgSender()) */\n      tag_138\n        /* \"openzeppelin-contracts/contracts/token/ERC721/ERC721.sol\":4712:4714  to */\n      dup4\n        /* \"openzeppelin-contracts/contracts/token/ERC721/ERC721.sol\":4716:4723  tokenId */\n      dup4\n        /* \"openzeppelin-contracts/contracts/token/ERC721/ERC721.sol\":4725:4737  _msgSender() */\n      tag_139\n        /* \"openzeppelin-contracts/contracts/token/ERC721/ERC721.sol\":4725:4735  _msgSender */\n      tag_133\n        /* \"openzeppelin-contracts/contracts/token/ERC721/ERC721.sol\":4725:4737  _msgSender() */\n      jump\t// in\n    tag_139:\n        /* \"openzeppelin-contracts/contracts/token/ERC721/ERC721.sol\":4704:4711  _update */\n      tag_140\n        /* \"openzeppelin-contracts/contracts/token/ERC721/ERC721.sol\":4704:4738  _update(to, tokenId, _msgSender()) */\n      jump\t// in\n    tag_138:\n        /* \"openzeppelin-contracts/contracts/token/ERC721/ERC721.sol\":4680:4738  address previousOwner = _update(to, tokenId, _msgSender()) */\n      swap1\n      pop\n        /* \"openzeppelin-contracts/contracts/token/ERC721/ERC721.sol\":4770:4774  from */\n      dup4\n        /* \"openzeppelin-contracts/contracts/token/ERC721/ERC721.sol\":4753:4774  previousOwner != from */\n      0xffffffffffffffffffffffffffffffffffffffff\n      and\n        /* \"openzeppelin-contracts/contracts/token/ERC721/ERC721.sol\":4753:4766  previousOwner */\n      dup2\n        /* \"openzeppelin-contracts/contracts/token/ERC721/ERC721.sol\":4753:4774  previousOwner != from */\n      0xffffffffffffffffffffffffffffffffffffffff\n      and\n      eq\n        /* \"openzeppelin-contracts/contracts/token/ERC721/ERC721.sol\":4749:4860  if (previousOwner != from) {... */\n      tag_141\n      jumpi\n        /* \"openzeppelin-contracts/contracts/token/ERC721/ERC721.sol\":4819:4823  from */\n      dup4\n        /* \"openzeppelin-contracts/contracts/token/ERC721/ERC721.sol\":4825:4832  tokenId */\n      dup3\n        /* \"openzeppelin-contracts/contracts/token/ERC721/ERC721.sol\":4834:4847  previousOwner */\n      dup3\n        /* \"openzeppelin-contracts/contracts/token/ERC721/ERC721.sol\":4798:4848  ERC721IncorrectOwner(from, tokenId, previousOwner) */\n      mload(0x40)\n      0x64283d7b00000000000000000000000000000000000000000000000000000000\n      dup2\n      mstore\n      0x04\n      add\n      tag_142\n      swap4\n      swap3\n      swap2\n      swap1\n      tag_143\n      jump\t// in\n    tag_142:\n      mload(0x40)\n      dup1\n      swap2\n      sub\n      swap1\n      revert\n        /* \"openzeppelin-contracts/contracts/token/ERC721/ERC721.sol\":4749:4860  if (previousOwner != from) {... */\n    tag_141:\n        /* \"openzeppelin-contracts/contracts/token/ERC721/ERC721.sol\":4359:4867  {... */\n      pop\n        /* \"openzeppelin-contracts/contracts/token/ERC721/ERC721.sol\":4279:4867  function transferFrom(address from, address to, uint256 tokenId) public virtual {... */\n      pop\n      pop\n      pop\n      jump\t// out\n        /* \"openzeppelin-contracts/contracts/token/ERC721/ERC721.sol\":4938:5072  function safeTransferFrom(address from, address to, uint256 tokenId) public {... */\n    tag_55:\n        /* \"openzeppelin-contracts/contracts/token/ERC721/ERC721.sol\":5025:5064  safeTransferFrom(from, to, tokenId, \"\") */\n      tag_145\n        /* \"openzeppelin-contracts/contracts/token/ERC721/ERC721.sol\":5042:5046  from */\n      dup4\n        /* \"openzeppelin-contracts/contracts/token/ERC721/ERC721.sol\":5048:5050  to */\n      dup4\n        /* \"openzeppelin-contracts/contracts/token/ERC721/ERC721.sol\":5052:5059  tokenId */\n      dup4\n        /* \"openzeppelin-contracts/contracts/token/ERC721/ERC721.sol\":5025:5064  safeTransferFrom(from, to, tokenId, \"\") */\n      mload(0x40)\n      dup1\n      0x20\n      add\n      0x40\n      mstore\n      dup1\n      0x00\n      dup2\n      mstore\n      pop\n        /* \"openzeppelin-contracts/contracts/token/ERC721/ERC721.sol\":5025:5041  safeTransferFrom */\n      tag_100\n        /* \"openzeppelin-contracts/contracts/token/ERC721/ERC721.sol\":5025:5064  safeTransferFrom(from, to, tokenId, \"\") */\n      jump\t// in\n    tag_145:\n        /* \"openzeppelin-contracts/contracts/token/ERC721/ERC721.sol\":4938:5072  function safeTransferFrom(address from, address to, uint256 tokenId) public {... */\n      pop\n      pop\n      pop\n      jump\t// out\n        /* \"PictureToken.sol\":1002:1072  function putOnSale() public onlyOwner {... */\n    tag_57:\n        /* \"openzeppelin-contracts/contracts/access/Ownable.sol\":1579:1592  _checkOwner() */\n      tag_147\n        /* \"openzeppelin-contracts/contracts/access/Ownable.sol\":1579:1590  _checkOwner */\n      tag_148\n        /* \"openzeppelin-contracts/contracts/access/Ownable.sol\":1579:1592  _checkOwner() */\n      jump\t// in\n    tag_147:\n        /* \"PictureToken.sol\":1060:1064  true */\n      0x01\n        /* \"PictureToken.sol\":1051:1057  onSale */\n      0x09\n      0x00\n        /* \"PictureToken.sol\":1051:1064  onSale = true */\n      0x0100\n      exp\n      dup2\n      sload\n      dup2\n      0xff\n      mul\n      not\n      and\n      swap1\n      dup4\n      iszero\n      iszero\n      mul\n      or\n      swap1\n      sstore\n      pop\n        /* \"PictureToken.sol\":1002:1072  function putOnSale() public onlyOwner {... */\n      jump\t// out\n        /* \"openzeppelin-contracts/contracts/token/ERC721/ERC721.sol\":2251:2371  function ownerOf(uint256 tokenId) public view virtual returns (address) {... */\n    tag_60:\n        /* \"openzeppelin-contracts/contracts/token/ERC721/ERC721.sol\":2314:2321  address */\n      0x00\n        /* \"openzeppelin-contracts/contracts/token/ERC721/ERC721.sol\":2341:2363  _requireOwned(tokenId) */\n      tag_151\n        /* \"openzeppelin-contracts/contracts/token/ERC721/ERC721.sol\":2355:2362  tokenId */\n      dup3\n        /* \"openzeppelin-contracts/contracts/token/ERC721/ERC721.sol\":2341:2354  _requireOwned */\n      tag_127\n        /* \"openzeppelin-contracts/contracts/token/ERC721/ERC721.sol\":2341:2363  _requireOwned(tokenId) */\n      jump\t// in\n    tag_151:\n        /* \"openzeppelin-contracts/contracts/token/ERC721/ERC721.sol\":2334:2363  return _requireOwned(tokenId) */\n      swap1\n      pop\n        /* \"openzeppelin-contracts/contracts/token/ERC721/ERC721.sol\":2251:2371  function ownerOf(uint256 tokenId) public view virtual returns (address) {... */\n      swap2\n      swap1\n      pop\n      jump\t// out\n        /* \"PictureToken.sol\":1162:1328  function purchase() public {... */\n    tag_63:\n        /* \"PictureToken.sol\":1208:1218  msg.sender */\n      caller\n        /* \"PictureToken.sol\":1200:1228  payable(msg.sender).transfer */\n      0xffffffffffffffffffffffffffffffffffffffff\n      and\n        /* \"PictureToken.sol\":1200:1235  payable(msg.sender).transfer(price) */\n      0x08fc\n        /* \"PictureToken.sol\":1229:1234  price */\n      sload(0x08)\n        /* \"PictureToken.sol\":1200:1235  payable(msg.sender).transfer(price) */\n      swap1\n      dup2\n      iszero\n      mul\n      swap1\n      mload(0x40)\n      0x00\n      mload(0x40)\n      dup1\n      dup4\n      sub\n      dup2\n      dup6\n      dup9\n      dup9\n      call\n      swap4\n      pop\n      pop\n      pop\n      pop\n      iszero\n      dup1\n      iszero\n      tag_154\n      jumpi\n      returndatasize\n      0x00\n      dup1\n      returndatacopy\n      revert(0x00, returndatasize)\n    tag_154:\n      pop\n        /* \"PictureToken.sol\":1246:1275  transferOwnership(msg.sender) */\n      tag_155\n        /* \"PictureToken.sol\":1264:1274  msg.sender */\n      caller\n        /* \"PictureToken.sol\":1246:1263  transferOwnership */\n      tag_112\n        /* \"PictureToken.sol\":1246:1275  transferOwnership(msg.sender) */\n      jump\t// in\n    tag_155:\n        /* \"PictureToken.sol\":1294:1295  0 */\n      0x00\n        /* \"PictureToken.sol\":1286:1291  price */\n      0x08\n        /* \"PictureToken.sol\":1286:1295  price = 0 */\n      dup2\n      swap1\n      sstore\n      pop\n        /* \"PictureToken.sol\":1315:1320  false */\n      0x00\n        /* \"PictureToken.sol\":1306:1312  onSale */\n      0x09\n      0x00\n        /* \"PictureToken.sol\":1306:1320  onSale = false */\n      0x0100\n      exp\n      dup2\n      sload\n      dup2\n      0xff\n      mul\n      not\n      and\n      swap1\n      dup4\n      iszero\n      iszero\n      mul\n      or\n      swap1\n      sstore\n      pop\n        /* \"PictureToken.sol\":1162:1328  function purchase() public {... */\n      jump\t// out\n        /* \"openzeppelin-contracts/contracts/token/ERC721/ERC721.sol\":1976:2189  function balanceOf(address owner) public view virtual returns (uint256) {... */\n    tag_67:\n        /* \"openzeppelin-contracts/contracts/token/ERC721/ERC721.sol\":2039:2046  uint256 */\n      0x00\n        /* \"openzeppelin-contracts/contracts/token/ERC721/ERC721.sol\":2080:2081  0 */\n      dup1\n        /* \"openzeppelin-contracts/contracts/token/ERC721/ERC721.sol\":2063:2082  owner == address(0) */\n      0xffffffffffffffffffffffffffffffffffffffff\n      and\n        /* \"openzeppelin-contracts/contracts/token/ERC721/ERC721.sol\":2063:2068  owner */\n      dup3\n        /* \"openzeppelin-contracts/contracts/token/ERC721/ERC721.sol\":2063:2082  owner == address(0) */\n      0xffffffffffffffffffffffffffffffffffffffff\n      and\n      sub\n        /* \"openzeppelin-contracts/contracts/token/ERC721/ERC721.sol\":2059:2148  if (owner == address(0)) {... */\n      tag_157\n      jumpi\n        /* \"openzeppelin-contracts/contracts/token/ERC721/ERC721.sol\":2133:2134  0 */\n      0x00\n        /* \"openzeppelin-contracts/contracts/token/ERC721/ERC721.sol\":2106:2136  ERC721InvalidOwner(address(0)) */\n      mload(0x40)\n      0x89c62b6400000000000000000000000000000000000000000000000000000000\n      dup2\n      mstore\n      0x04\n      add\n      tag_158\n      swap2\n      swap1\n      tag_44\n      jump\t// in\n    tag_158:\n      mload(0x40)\n      dup1\n      swap2\n      sub\n      swap1\n      revert\n        /* \"openzeppelin-contracts/contracts/token/ERC721/ERC721.sol\":2059:2148  if (owner == address(0)) {... */\n    tag_157:\n        /* \"openzeppelin-contracts/contracts/token/ERC721/ERC721.sol\":2165:2174  _balances */\n      0x03\n        /* \"openzeppelin-contracts/contracts/token/ERC721/ERC721.sol\":2165:2181  _balances[owner] */\n      0x00\n        /* \"openzeppelin-contracts/contracts/token/ERC721/ERC721.sol\":2175:2180  owner */\n      dup4\n        /* \"openzeppelin-contracts/contracts/token/ERC721/ERC721.sol\":2165:2181  _balances[owner] */\n      0xffffffffffffffffffffffffffffffffffffffff\n      and\n      0xffffffffffffffffffffffffffffffffffffffff\n      and\n      dup2\n      mstore\n      0x20\n      add\n      swap1\n      dup2\n      mstore\n      0x20\n      add\n      0x00\n      keccak256\n      sload\n        /* \"openzeppelin-contracts/contracts/token/ERC721/ERC721.sol\":2158:2181  return _balances[owner] */\n      swap1\n      pop\n        /* \"openzeppelin-contracts/contracts/token/ERC721/ERC721.sol\":1976:2189  function balanceOf(address owner) public view virtual returns (uint256) {... */\n      swap2\n      swap1\n      pop\n      jump\t// out\n        /* \"openzeppelin-contracts/contracts/access/Ownable.sol\":2368:2471  function renounceOwnership() public virtual onlyOwner {... */\n    tag_71:\n        /* \"openzeppelin-contracts/contracts/access/Ownable.sol\":1579:1592  _checkOwner() */\n      tag_160\n        /* \"openzeppelin-contracts/contracts/access/Ownable.sol\":1579:1590  _checkOwner */\n      tag_148\n        /* \"openzeppelin-contracts/contracts/access/Ownable.sol\":1579:1592  _checkOwner() */\n      jump\t// in\n    tag_160:\n        /* \"openzeppelin-contracts/contracts/access/Ownable.sol\":2433:2463  _transferOwnership(address(0)) */\n      tag_162\n        /* \"openzeppelin-contracts/contracts/access/Ownable.sol\":2460:2461  0 */\n      0x00\n        /* \"openzeppelin-contracts/contracts/access/Ownable.sol\":2433:2451  _transferOwnership */\n      tag_163\n        /* \"openzeppelin-contracts/contracts/access/Ownable.sol\":2433:2463  _transferOwnership(address(0)) */\n      jump\t// in\n    tag_162:\n        /* \"openzeppelin-contracts/contracts/access/Ownable.sol\":2368:2471  function renounceOwnership() public virtual onlyOwner {... */\n      jump\t// out\n        /* \"PictureToken.sol\":669:814  function getSinglePictureToken() public view returns(tokenData memory) {... */\n    tag_73:\n        /* \"PictureToken.sol\":722:738  tokenData memory */\n      tag_164\n      tag_165\n      jump\t// in\n    tag_164:\n        /* \"PictureToken.sol\":758:806  tokenData(Ownable.owner(), props, price, onSale) */\n      mload(0x40)\n      dup1\n      0x80\n      add\n      0x40\n      mstore\n      dup1\n        /* \"PictureToken.sol\":768:783  Ownable.owner() */\n      tag_167\n        /* \"PictureToken.sol\":768:781  Ownable.owner */\n      tag_79\n        /* \"PictureToken.sol\":768:783  Ownable.owner() */\n      jump\t// in\n    tag_167:\n        /* \"PictureToken.sol\":758:806  tokenData(Ownable.owner(), props, price, onSale) */\n      0xffffffffffffffffffffffffffffffffffffffff\n      and\n      dup2\n      mstore\n      0x20\n      add\n        /* \"PictureToken.sol\":785:790  props */\n      0x07\n      0x00\n      swap1\n      sload\n      swap1\n      0x0100\n      exp\n      swap1\n      div\n      0xffffffffffffffffffffffffffffffffffffffff\n      and\n        /* \"PictureToken.sol\":758:806  tokenData(Ownable.owner(), props, price, onSale) */\n      0xffffffffffffffffffffffffffffffffffffffff\n      and\n      dup2\n      mstore\n      0x20\n      add\n        /* \"PictureToken.sol\":792:797  price */\n      sload(0x08)\n        /* \"PictureToken.sol\":758:806  tokenData(Ownable.owner(), props, price, onSale) */\n      dup2\n      mstore\n      0x20\n      add\n        /* \"PictureToken.sol\":799:805  onSale */\n      0x09\n      0x00\n      swap1\n      sload\n      swap1\n      0x0100\n      exp\n      swap1\n      div\n      0xff\n      and\n        /* \"PictureToken.sol\":758:806  tokenData(Ownable.owner(), props, price, onSale) */\n      iszero\n      iszero\n      dup2\n      mstore\n      pop\n        /* \"PictureToken.sol\":751:806  return tokenData(Ownable.owner(), props, price, onSale) */\n      swap1\n      pop\n        /* \"PictureToken.sol\":669:814  function getSinglePictureToken() public view returns(tokenData memory) {... */\n      swap1\n      jump\t// out\n        /* \"PictureToken.sol\":1080:1154  function notPutOnSale() public onlyOwner {... */\n    tag_77:\n        /* \"openzeppelin-contracts/contracts/access/Ownable.sol\":1579:1592  _checkOwner() */\n      tag_169\n        /* \"openzeppelin-contracts/contracts/access/Ownable.sol\":1579:1590  _checkOwner */\n      tag_148\n        /* \"openzeppelin-contracts/contracts/access/Ownable.sol\":1579:1592  _checkOwner() */\n      jump\t// in\n    tag_169:\n        /* \"PictureToken.sol\":1141:1146  false */\n      0x00\n        /* \"PictureToken.sol\":1132:1138  onSale */\n      0x09\n      0x00\n        /* \"PictureToken.sol\":1132:1146  onSale = false */\n      0x0100\n      exp\n      dup2\n      sload\n      dup2\n      0xff\n      mul\n      not\n      and\n      swap1\n      dup4\n      iszero\n      iszero\n      mul\n      or\n      swap1\n      sstore\n      pop\n        /* \"PictureToken.sol\":1080:1154  function notPutOnSale() public onlyOwner {... */\n      jump\t// out\n        /* \"openzeppelin-contracts/contracts/access/Ownable.sol\":1693:1780  function owner() public view virtual returns (address) {... */\n    tag_79:\n        /* \"openzeppelin-contracts/contracts/access/Ownable.sol\":1739:1746  address */\n      0x00\n        /* \"openzeppelin-contracts/contracts/access/Ownable.sol\":1766:1772  _owner */\n      0x06\n      0x00\n      swap1\n      sload\n      swap1\n      0x0100\n      exp\n      swap1\n      div\n      0xffffffffffffffffffffffffffffffffffffffff\n      and\n        /* \"openzeppelin-contracts/contracts/access/Ownable.sol\":1759:1772  return _owner */\n      swap1\n      pop\n        /* \"openzeppelin-contracts/contracts/access/Ownable.sol\":1693:1780  function owner() public view virtual returns (address) {... */\n      swap1\n      jump\t// out\n        /* \"PictureToken.sol\":910:994  function setPrice(uint256 _price) public onlyOwner {... */\n    tag_83:\n        /* \"openzeppelin-contracts/contracts/access/Ownable.sol\":1579:1592  _checkOwner() */\n      tag_173\n        /* \"openzeppelin-contracts/contracts/access/Ownable.sol\":1579:1590  _checkOwner */\n      tag_148\n        /* \"openzeppelin-contracts/contracts/access/Ownable.sol\":1579:1592  _checkOwner() */\n      jump\t// in\n    tag_173:\n        /* \"PictureToken.sol\":980:986  _price */\n      dup1\n        /* \"PictureToken.sol\":972:977  price */\n      0x08\n        /* \"PictureToken.sol\":972:986  price = _price */\n      dup2\n      swap1\n      sstore\n      pop\n        /* \"PictureToken.sol\":910:994  function setPrice(uint256 _price) public onlyOwner {... */\n      pop\n      jump\t// out\n        /* \"openzeppelin-contracts/contracts/token/ERC721/ERC721.sol\":2598:2693  function symbol() public view virtual returns (string memory) {... */\n    tag_85:\n        /* \"openzeppelin-contracts/contracts/token/ERC721/ERC721.sol\":2645:2658  string memory */\n      0x60\n        /* \"openzeppelin-contracts/contracts/token/ERC721/ERC721.sol\":2678:2685  _symbol */\n      0x01\n        /* \"openzeppelin-contracts/contracts/token/ERC721/ERC721.sol\":2671:2685  return _symbol */\n      dup1\n      sload\n      tag_176\n      swap1\n      tag_120\n      jump\t// in\n    tag_176:\n      dup1\n      0x1f\n      add\n      0x20\n      dup1\n      swap2\n      div\n      mul\n      0x20\n      add\n      mload(0x40)\n      swap1\n      dup2\n      add\n      0x40\n      mstore\n      dup1\n      swap3\n      swap2\n      swap1\n      dup2\n      dup2\n      mstore\n      0x20\n      add\n      dup3\n      dup1\n      sload\n      tag_177\n      swap1\n      tag_120\n      jump\t// in\n    tag_177:\n      dup1\n      iszero\n      tag_178\n      jumpi\n      dup1\n      0x1f\n      lt\n      tag_179\n      jumpi\n      0x0100\n      dup1\n      dup4\n      sload\n      div\n      mul\n      dup4\n      mstore\n      swap2\n      0x20\n      add\n      swap2\n      jump(tag_178)\n    tag_179:\n      dup3\n      add\n      swap2\n      swap1\n      0x00\n      mstore\n      keccak256(0x00, 0x20)\n      swap1\n    tag_180:\n      dup2\n      sload\n      dup2\n      mstore\n      swap1\n      0x01\n      add\n      swap1\n      0x20\n      add\n      dup1\n      dup4\n      gt\n      tag_180\n      jumpi\n      dup3\n      swap1\n      sub\n      0x1f\n      and\n      dup3\n      add\n      swap2\n    tag_178:\n      pop\n      pop\n      pop\n      pop\n      pop\n      swap1\n      pop\n        /* \"openzeppelin-contracts/contracts/token/ERC721/ERC721.sol\":2598:2693  function symbol() public view virtual returns (string memory) {... */\n      swap1\n      jump\t// out\n        /* \"PictureToken.sol\":822:902  function getPrice() public view returns(uint256) {... */\n    tag_88:\n        /* \"PictureToken.sol\":862:869  uint256 */\n      0x00\n        /* \"PictureToken.sol\":889:894  price */\n      sload(0x08)\n        /* \"PictureToken.sol\":882:894  return price */\n      swap1\n      pop\n        /* \"PictureToken.sol\":822:902  function getPrice() public view returns(uint256) {... */\n      swap1\n      jump\t// out\n        /* \"PictureToken.sol\":293:313  uint256 public price */\n    tag_91:\n      sload(0x08)\n      dup2\n      jump\t// out\n        /* \"openzeppelin-contracts/contracts/token/ERC721/ERC721.sol\":3840:3986  function setApprovalForAll(address operator, bool approved) public virtual {... */\n    tag_96:\n        /* \"openzeppelin-contracts/contracts/token/ERC721/ERC721.sol\":3926:3978  _setApprovalForAll(_msgSender(), operator, approved) */\n      tag_183\n        /* \"openzeppelin-contracts/contracts/token/ERC721/ERC721.sol\":3945:3957  _msgSender() */\n      tag_184\n        /* \"openzeppelin-contracts/contracts/token/ERC721/ERC721.sol\":3945:3955  _msgSender */\n      tag_133\n        /* \"openzeppelin-contracts/contracts/token/ERC721/ERC721.sol\":3945:3957  _msgSender() */\n      jump\t// in\n    tag_184:\n        /* \"openzeppelin-contracts/contracts/token/ERC721/ERC721.sol\":3959:3967  operator */\n      dup4\n        /* \"openzeppelin-contracts/contracts/token/ERC721/ERC721.sol\":3969:3977  approved */\n      dup4\n        /* \"openzeppelin-contracts/contracts/token/ERC721/ERC721.sol\":3926:3944  _setApprovalForAll */\n      tag_185\n        /* \"openzeppelin-contracts/contracts/token/ERC721/ERC721.sol\":3926:3978  _setApprovalForAll(_msgSender(), operator, approved) */\n      jump\t// in\n    tag_183:\n        /* \"openzeppelin-contracts/contracts/token/ERC721/ERC721.sol\":3840:3986  function setApprovalForAll(address operator, bool approved) public virtual {... */\n      pop\n      pop\n      jump\t// out\n        /* \"openzeppelin-contracts/contracts/token/ERC721/ERC721.sol\":5143:5354  function safeTransferFrom(address from, address to, uint256 tokenId, bytes memory data) public virtual {... */\n    tag_100:\n        /* \"openzeppelin-contracts/contracts/token/ERC721/ERC721.sol\":5257:5288  transferFrom(from, to, tokenId) */\n      tag_187\n        /* \"openzeppelin-contracts/contracts/token/ERC721/ERC721.sol\":5270:5274  from */\n      dup5\n        /* \"openzeppelin-contracts/contracts/token/ERC721/ERC721.sol\":5276:5278  to */\n      dup5\n        /* \"openzeppelin-contracts/contracts/token/ERC721/ERC721.sol\":5280:5287  tokenId */\n      dup5\n        /* \"openzeppelin-contracts/contracts/token/ERC721/ERC721.sol\":5257:5269  transferFrom */\n      tag_52\n        /* \"openzeppelin-contracts/contracts/token/ERC721/ERC721.sol\":5257:5288  transferFrom(from, to, tokenId) */\n      jump\t// in\n    tag_187:\n        /* \"openzeppelin-contracts/contracts/token/ERC721/ERC721.sol\":5299:5346  _checkOnERC721Received(from, to, tokenId, data) */\n      tag_188\n        /* \"openzeppelin-contracts/contracts/token/ERC721/ERC721.sol\":5322:5326  from */\n      dup5\n        /* \"openzeppelin-contracts/contracts/token/ERC721/ERC721.sol\":5328:5330  to */\n      dup5\n        /* \"openzeppelin-contracts/contracts/token/ERC721/ERC721.sol\":5332:5339  tokenId */\n      dup5\n        /* \"openzeppelin-contracts/contracts/token/ERC721/ERC721.sol\":5341:5345  data */\n      dup5\n        /* \"openzeppelin-contracts/contracts/token/ERC721/ERC721.sol\":5299:5321  _checkOnERC721Received */\n      tag_189\n        /* \"openzeppelin-contracts/contracts/token/ERC721/ERC721.sol\":5299:5346  _checkOnERC721Received(from, to, tokenId, data) */\n      jump\t// in\n    tag_188:\n        /* \"openzeppelin-contracts/contracts/token/ERC721/ERC721.sol\":5143:5354  function safeTransferFrom(address from, address to, uint256 tokenId, bytes memory data) public virtual {... */\n      pop\n      pop\n      pop\n      pop\n      jump\t// out\n        /* \"openzeppelin-contracts/contracts/token/ERC721/ERC721.sol\":2764:3024  function tokenURI(uint256 tokenId) public view virtual returns (string memory) {... */\n    tag_103:\n        /* \"openzeppelin-contracts/contracts/token/ERC721/ERC721.sol\":2828:2841  string memory */\n      0x60\n        /* \"openzeppelin-contracts/contracts/token/ERC721/ERC721.sol\":2854:2876  _requireOwned(tokenId) */\n      tag_191\n        /* \"openzeppelin-contracts/contracts/token/ERC721/ERC721.sol\":2868:2875  tokenId */\n      dup3\n        /* \"openzeppelin-contracts/contracts/token/ERC721/ERC721.sol\":2854:2867  _requireOwned */\n      tag_127\n        /* \"openzeppelin-contracts/contracts/token/ERC721/ERC721.sol\":2854:2876  _requireOwned(tokenId) */\n      jump\t// in\n    tag_191:\n      pop\n        /* \"openzeppelin-contracts/contracts/token/ERC721/ERC721.sol\":2889:2910  string memory baseURI */\n      0x00\n        /* \"openzeppelin-contracts/contracts/token/ERC721/ERC721.sol\":2913:2923  _baseURI() */\n      tag_192\n        /* \"openzeppelin-contracts/contracts/token/ERC721/ERC721.sol\":2913:2921  _baseURI */\n      tag_193\n        /* \"openzeppelin-contracts/contracts/token/ERC721/ERC721.sol\":2913:2923  _baseURI() */\n      jump\t// in\n    tag_192:\n        /* \"openzeppelin-contracts/contracts/token/ERC721/ERC721.sol\":2889:2923  string memory baseURI = _baseURI() */\n      swap1\n      pop\n        /* \"openzeppelin-contracts/contracts/token/ERC721/ERC721.sol\":2965:2966  0 */\n      0x00\n        /* \"openzeppelin-contracts/contracts/token/ERC721/ERC721.sol\":2947:2954  baseURI */\n      dup2\n        /* \"openzeppelin-contracts/contracts/token/ERC721/ERC721.sol\":2941:2962  bytes(baseURI).length */\n      mload\n        /* \"openzeppelin-contracts/contracts/token/ERC721/ERC721.sol\":2941:2966  bytes(baseURI).length > 0 */\n      gt\n        /* \"openzeppelin-contracts/contracts/token/ERC721/ERC721.sol\":2941:3016  bytes(baseURI).length > 0 ? string.concat(baseURI, tokenId.toString()) : \"\" */\n      tag_194\n      jumpi\n      mload(0x40)\n      dup1\n      0x20\n      add\n      0x40\n      mstore\n      dup1\n      0x00\n      dup2\n      mstore\n      pop\n      jump(tag_195)\n    tag_194:\n        /* \"openzeppelin-contracts/contracts/token/ERC721/ERC721.sol\":2983:2990  baseURI */\n      dup1\n        /* \"openzeppelin-contracts/contracts/token/ERC721/ERC721.sol\":2992:3010  tokenId.toString() */\n      tag_196\n        /* \"openzeppelin-contracts/contracts/token/ERC721/ERC721.sol\":2992:2999  tokenId */\n      dup5\n        /* \"openzeppelin-contracts/contracts/token/ERC721/ERC721.sol\":2992:3008  tokenId.toString */\n      tag_197\n        /* \"openzeppelin-contracts/contracts/token/ERC721/ERC721.sol\":2992:3010  tokenId.toString() */\n      jump\t// in\n    tag_196:\n        /* \"openzeppelin-contracts/contracts/token/ERC721/ERC721.sol\":2969:3011  string.concat(baseURI, tokenId.toString()) */\n      add(0x20, mload(0x40))\n      tag_198\n      swap3\n      swap2\n      swap1\n      tag_199\n      jump\t// in\n    tag_198:\n      mload(0x40)\n      0x20\n      dup2\n      dup4\n      sub\n      sub\n      dup2\n      mstore\n      swap1\n      0x40\n      mstore\n        /* \"openzeppelin-contracts/contracts/token/ERC721/ERC721.sol\":2941:3016  bytes(baseURI).length > 0 ? string.concat(baseURI, tokenId.toString()) : \"\" */\n    tag_195:\n        /* \"openzeppelin-contracts/contracts/token/ERC721/ERC721.sol\":2934:3016  return bytes(baseURI).length > 0 ? string.concat(baseURI, tokenId.toString()) : \"\" */\n      swap2\n      pop\n      pop\n        /* \"openzeppelin-contracts/contracts/token/ERC721/ERC721.sol\":2764:3024  function tokenURI(uint256 tokenId) public view virtual returns (string memory) {... */\n      swap2\n      swap1\n      pop\n      jump\t// out\n        /* \"openzeppelin-contracts/contracts/token/ERC721/ERC721.sol\":4057:4212  function isApprovedForAll(address owner, address operator) public view virtual returns (bool) {... */\n    tag_108:\n        /* \"openzeppelin-contracts/contracts/token/ERC721/ERC721.sol\":4145:4149  bool */\n      0x00\n        /* \"openzeppelin-contracts/contracts/token/ERC721/ERC721.sol\":4169:4187  _operatorApprovals */\n      0x05\n        /* \"openzeppelin-contracts/contracts/token/ERC721/ERC721.sol\":4169:4194  _operatorApprovals[owner] */\n      0x00\n        /* \"openzeppelin-contracts/contracts/token/ERC721/ERC721.sol\":4188:4193  owner */\n      dup5\n        /* \"openzeppelin-contracts/contracts/token/ERC721/ERC721.sol\":4169:4194  _operatorApprovals[owner] */\n      0xffffffffffffffffffffffffffffffffffffffff\n      and\n      0xffffffffffffffffffffffffffffffffffffffff\n      and\n      dup2\n      mstore\n      0x20\n      add\n      swap1\n      dup2\n      mstore\n      0x20\n      add\n      0x00\n      keccak256\n        /* \"openzeppelin-contracts/contracts/token/ERC721/ERC721.sol\":4169:4204  _operatorApprovals[owner][operator] */\n      0x00\n        /* \"openzeppelin-contracts/contracts/token/ERC721/ERC721.sol\":4195:4203  operator */\n      dup4\n        /* \"openzeppelin-contracts/contracts/token/ERC721/ERC721.sol\":4169:4204  _operatorApprovals[owner][operator] */\n      0xffffffffffffffffffffffffffffffffffffffff\n      and\n      0xffffffffffffffffffffffffffffffffffffffff\n      and\n      dup2\n      mstore\n      0x20\n      add\n      swap1\n      dup2\n      mstore\n      0x20\n      add\n      0x00\n      keccak256\n      0x00\n      swap1\n      sload\n      swap1\n      0x0100\n      exp\n      swap1\n      div\n      0xff\n      and\n        /* \"openzeppelin-contracts/contracts/token/ERC721/ERC721.sol\":4162:4204  return _operatorApprovals[owner][operator] */\n      swap1\n      pop\n        /* \"openzeppelin-contracts/contracts/token/ERC721/ERC721.sol\":4057:4212  function isApprovedForAll(address owner, address operator) public view virtual returns (bool) {... */\n      swap3\n      swap2\n      pop\n      pop\n      jump\t// out\n        /* \"openzeppelin-contracts/contracts/access/Ownable.sol\":2626:2846  function transferOwnership(address newOwner) public virtual onlyOwner {... */\n    tag_112:\n        /* \"openzeppelin-contracts/contracts/access/Ownable.sol\":1579:1592  _checkOwner() */\n      tag_202\n        /* \"openzeppelin-contracts/contracts/access/Ownable.sol\":1579:1590  _checkOwner */\n      tag_148\n        /* \"openzeppelin-contracts/contracts/access/Ownable.sol\":1579:1592  _checkOwner() */\n      jump\t// in\n    tag_202:\n        /* \"openzeppelin-contracts/contracts/access/Ownable.sol\":2731:2732  0 */\n      0x00\n        /* \"openzeppelin-contracts/contracts/access/Ownable.sol\":2711:2733  newOwner == address(0) */\n      0xffffffffffffffffffffffffffffffffffffffff\n      and\n        /* \"openzeppelin-contracts/contracts/access/Ownable.sol\":2711:2719  newOwner */\n      dup2\n        /* \"openzeppelin-contracts/contracts/access/Ownable.sol\":2711:2733  newOwner == address(0) */\n      0xffffffffffffffffffffffffffffffffffffffff\n      and\n      sub\n        /* \"openzeppelin-contracts/contracts/access/Ownable.sol\":2707:2800  if (newOwner == address(0)) {... */\n      tag_204\n      jumpi\n        /* \"openzeppelin-contracts/contracts/access/Ownable.sol\":2785:2786  0 */\n      0x00\n        /* \"openzeppelin-contracts/contracts/access/Ownable.sol\":2757:2788  OwnableInvalidOwner(address(0)) */\n      mload(0x40)\n      0x1e4fbdf700000000000000000000000000000000000000000000000000000000\n      dup2\n      mstore\n      0x04\n      add\n      tag_205\n      swap2\n      swap1\n      tag_44\n      jump\t// in\n    tag_205:\n      mload(0x40)\n      dup1\n      swap2\n      sub\n      swap1\n      revert\n        /* \"openzeppelin-contracts/contracts/access/Ownable.sol\":2707:2800  if (newOwner == address(0)) {... */\n    tag_204:\n        /* \"openzeppelin-contracts/contracts/access/Ownable.sol\":2810:2838  _transferOwnership(newOwner) */\n      tag_206\n        /* \"openzeppelin-contracts/contracts/access/Ownable.sol\":2829:2837  newOwner */\n      dup2\n        /* \"openzeppelin-contracts/contracts/access/Ownable.sol\":2810:2828  _transferOwnership */\n      tag_163\n        /* \"openzeppelin-contracts/contracts/access/Ownable.sol\":2810:2838  _transferOwnership(newOwner) */\n      jump\t// in\n    tag_206:\n        /* \"openzeppelin-contracts/contracts/access/Ownable.sol\":2626:2846  function transferOwnership(address newOwner) public virtual onlyOwner {... */\n      pop\n      jump\t// out\n        /* \"openzeppelin-contracts/contracts/utils/introspection/ERC165.sol\":785:933  function supportsInterface(bytes4 interfaceId) public view virtual returns (bool) {... */\n    tag_117:\n        /* \"openzeppelin-contracts/contracts/utils/introspection/ERC165.sol\":861:865  bool */\n      0x00\n        /* \"openzeppelin-contracts/contracts/utils/introspection/ERC165.sol\":900:925  type(IERC165).interfaceId */\n      0x01ffc9a700000000000000000000000000000000000000000000000000000000\n        /* \"openzeppelin-contracts/contracts/utils/introspection/ERC165.sol\":885:925  interfaceId == type(IERC165).interfaceId */\n      not(0xffffffffffffffffffffffffffffffffffffffffffffffffffffffff)\n      and\n        /* \"openzeppelin-contracts/contracts/utils/introspection/ERC165.sol\":885:896  interfaceId */\n      dup3\n        /* \"openzeppelin-contracts/contracts/utils/introspection/ERC165.sol\":885:925  interfaceId == type(IERC165).interfaceId */\n      not(0xffffffffffffffffffffffffffffffffffffffffffffffffffffffff)\n      and\n      eq\n        /* \"openzeppelin-contracts/contracts/utils/introspection/ERC165.sol\":878:925  return interfaceId == type(IERC165).interfaceId */\n      swap1\n      pop\n        /* \"openzeppelin-contracts/contracts/utils/introspection/ERC165.sol\":785:933  function supportsInterface(bytes4 interfaceId) public view virtual returns (bool) {... */\n      swap2\n      swap1\n      pop\n      jump\t// out\n        /* \"openzeppelin-contracts/contracts/token/ERC721/ERC721.sol\":16585:16832  function _requireOwned(uint256 tokenId) internal view returns (address) {... */\n    tag_127:\n        /* \"openzeppelin-contracts/contracts/token/ERC721/ERC721.sol\":16648:16655  address */\n      0x00\n        /* \"openzeppelin-contracts/contracts/token/ERC721/ERC721.sol\":16668:16681  address owner */\n      dup1\n        /* \"openzeppelin-contracts/contracts/token/ERC721/ERC721.sol\":16684:16701  _ownerOf(tokenId) */\n      tag_209\n        /* \"openzeppelin-contracts/contracts/token/ERC721/ERC721.sol\":16693:16700  tokenId */\n      dup4\n        /* \"openzeppelin-contracts/contracts/token/ERC721/ERC721.sol\":16684:16692  _ownerOf */\n      tag_210\n        /* \"openzeppelin-contracts/contracts/token/ERC721/ERC721.sol\":16684:16701  _ownerOf(tokenId) */\n      jump\t// in\n    tag_209:\n        /* \"openzeppelin-contracts/contracts/token/ERC721/ERC721.sol\":16668:16701  address owner = _ownerOf(tokenId) */\n      swap1\n      pop\n        /* \"openzeppelin-contracts/contracts/token/ERC721/ERC721.sol\":16733:16734  0 */\n      0x00\n        /* \"openzeppelin-contracts/contracts/token/ERC721/ERC721.sol\":16716:16735  owner == address(0) */\n      0xffffffffffffffffffffffffffffffffffffffff\n      and\n        /* \"openzeppelin-contracts/contracts/token/ERC721/ERC721.sol\":16716:16721  owner */\n      dup2\n        /* \"openzeppelin-contracts/contracts/token/ERC721/ERC721.sol\":16716:16735  owner == address(0) */\n      0xffffffffffffffffffffffffffffffffffffffff\n      and\n      sub\n        /* \"openzeppelin-contracts/contracts/token/ERC721/ERC721.sol\":16712:16802  if (owner == address(0)) {... */\n      tag_211\n      jumpi\n        /* \"openzeppelin-contracts/contracts/token/ERC721/ERC721.sol\":16782:16789  tokenId */\n      dup3\n        /* \"openzeppelin-contracts/contracts/token/ERC721/ERC721.sol\":16759:16790  ERC721NonexistentToken(tokenId) */\n      mload(0x40)\n      0x7e27328900000000000000000000000000000000000000000000000000000000\n      dup2\n      mstore\n      0x04\n      add\n      tag_212\n      swap2\n      swap1\n      tag_69\n      jump\t// in\n    tag_212:\n      mload(0x40)\n      dup1\n      swap2\n      sub\n      swap1\n      revert\n        /* \"openzeppelin-contracts/contracts/token/ERC721/ERC721.sol\":16712:16802  if (owner == address(0)) {... */\n    tag_211:\n        /* \"openzeppelin-contracts/contracts/token/ERC721/ERC721.sol\":16819:16824  owner */\n      dup1\n        /* \"openzeppelin-contracts/contracts/token/ERC721/ERC721.sol\":16812:16824  return owner */\n      swap2\n      pop\n      pop\n        /* \"openzeppelin-contracts/contracts/token/ERC721/ERC721.sol\":16585:16832  function _requireOwned(uint256 tokenId) internal view returns (address) {... */\n      swap2\n      swap1\n      pop\n      jump\t// out\n        /* \"openzeppelin-contracts/contracts/token/ERC721/ERC721.sol\":6116:6245  function _getApproved(uint256 tokenId) internal view virtual returns (address) {... */\n    tag_129:\n        /* \"openzeppelin-contracts/contracts/token/ERC721/ERC721.sol\":6186:6193  address */\n      0x00\n        /* \"openzeppelin-contracts/contracts/token/ERC721/ERC721.sol\":6213:6228  _tokenApprovals */\n      0x04\n        /* \"openzeppelin-contracts/contracts/token/ERC721/ERC721.sol\":6213:6237  _tokenApprovals[tokenId] */\n      0x00\n        /* \"openzeppelin-contracts/contracts/token/ERC721/ERC721.sol\":6229:6236  tokenId */\n      dup4\n        /* \"openzeppelin-contracts/contracts/token/ERC721/ERC721.sol\":6213:6237  _tokenApprovals[tokenId] */\n      dup2\n      mstore\n      0x20\n      add\n      swap1\n      dup2\n      mstore\n      0x20\n      add\n      0x00\n      keccak256\n      0x00\n      swap1\n      sload\n      swap1\n      0x0100\n      exp\n      swap1\n      div\n      0xffffffffffffffffffffffffffffffffffffffff\n      and\n        /* \"openzeppelin-contracts/contracts/token/ERC721/ERC721.sol\":6206:6237  return _tokenApprovals[tokenId] */\n      swap1\n      pop\n        /* \"openzeppelin-contracts/contracts/token/ERC721/ERC721.sol\":6116:6245  function _getApproved(uint256 tokenId) internal view virtual returns (address) {... */\n      swap2\n      swap1\n      pop\n      jump\t// out\n        /* \"openzeppelin-contracts/contracts/utils/Context.sol\":672:770  function _msgSender() internal view virtual returns (address) {... */\n    tag_133:\n        /* \"openzeppelin-contracts/contracts/utils/Context.sol\":725:732  address */\n      0x00\n        /* \"openzeppelin-contracts/contracts/utils/Context.sol\":752:762  msg.sender */\n      caller\n        /* \"openzeppelin-contracts/contracts/utils/Context.sol\":745:762  return msg.sender */\n      swap1\n      pop\n        /* \"openzeppelin-contracts/contracts/utils/Context.sol\":672:770  function _msgSender() internal view virtual returns (address) {... */\n      swap1\n      jump\t// out\n        /* \"openzeppelin-contracts/contracts/token/ERC721/ERC721.sol\":14817:14939  function _approve(address to, uint256 tokenId, address auth) internal {... */\n    tag_134:\n        /* \"openzeppelin-contracts/contracts/token/ERC721/ERC721.sol\":14898:14931  _approve(to, tokenId, auth, true) */\n      tag_216\n        /* \"openzeppelin-contracts/contracts/token/ERC721/ERC721.sol\":14907:14909  to */\n      dup4\n        /* \"openzeppelin-contracts/contracts/token/ERC721/ERC721.sol\":14911:14918  tokenId */\n      dup4\n        /* \"openzeppelin-contracts/contracts/token/ERC721/ERC721.sol\":14920:14924  auth */\n      dup4\n        /* \"openzeppelin-contracts/contracts/token/ERC721/ERC721.sol\":14926:14930  true */\n      0x01\n        /* \"openzeppelin-contracts/contracts/token/ERC721/ERC721.sol\":14898:14906  _approve */\n      tag_217\n        /* \"openzeppelin-contracts/contracts/token/ERC721/ERC721.sol\":14898:14931  _approve(to, tokenId, auth, true) */\n      jump\t// in\n    tag_216:\n        /* \"openzeppelin-contracts/contracts/token/ERC721/ERC721.sol\":14817:14939  function _approve(address to, uint256 tokenId, address auth) internal {... */\n      pop\n      pop\n      pop\n      jump\t// out\n        /* \"openzeppelin-contracts/contracts/token/ERC721/ERC721.sol\":9078:9902  function _update(address to, uint256 tokenId, address auth) internal virtual returns (address) {... */\n    tag_140:\n        /* \"openzeppelin-contracts/contracts/token/ERC721/ERC721.sol\":9164:9171  address */\n      0x00\n        /* \"openzeppelin-contracts/contracts/token/ERC721/ERC721.sol\":9184:9196  address from */\n      dup1\n        /* \"openzeppelin-contracts/contracts/token/ERC721/ERC721.sol\":9199:9216  _ownerOf(tokenId) */\n      tag_219\n        /* \"openzeppelin-contracts/contracts/token/ERC721/ERC721.sol\":9208:9215  tokenId */\n      dup5\n        /* \"openzeppelin-contracts/contracts/token/ERC721/ERC721.sol\":9199:9207  _ownerOf */\n      tag_210\n        /* \"openzeppelin-contracts/contracts/token/ERC721/ERC721.sol\":9199:9216  _ownerOf(tokenId) */\n      jump\t// in\n    tag_219:\n        /* \"openzeppelin-contracts/contracts/token/ERC721/ERC721.sol\":9184:9216  address from = _ownerOf(tokenId) */\n      swap1\n      pop\n        /* \"openzeppelin-contracts/contracts/token/ERC721/ERC721.sol\":9295:9296  0 */\n      0x00\n        /* \"openzeppelin-contracts/contracts/token/ERC721/ERC721.sol\":9279:9297  auth != address(0) */\n      0xffffffffffffffffffffffffffffffffffffffff\n      and\n        /* \"openzeppelin-contracts/contracts/token/ERC721/ERC721.sol\":9279:9283  auth */\n      dup4\n        /* \"openzeppelin-contracts/contracts/token/ERC721/ERC721.sol\":9279:9297  auth != address(0) */\n      0xffffffffffffffffffffffffffffffffffffffff\n      and\n      eq\n        /* \"openzeppelin-contracts/contracts/token/ERC721/ERC721.sol\":9275:9363  if (auth != address(0)) {... */\n      tag_220\n      jumpi\n        /* \"openzeppelin-contracts/contracts/token/ERC721/ERC721.sol\":9314:9351  _checkAuthorized(from, auth, tokenId) */\n      tag_221\n        /* \"openzeppelin-contracts/contracts/token/ERC721/ERC721.sol\":9331:9335  from */\n      dup2\n        /* \"openzeppelin-contracts/contracts/token/ERC721/ERC721.sol\":9337:9341  auth */\n      dup5\n        /* \"openzeppelin-contracts/contracts/token/ERC721/ERC721.sol\":9343:9350  tokenId */\n      dup7\n        /* \"openzeppelin-contracts/contracts/token/ERC721/ERC721.sol\":9314:9330  _checkAuthorized */\n      tag_222\n        /* \"openzeppelin-contracts/contracts/token/ERC721/ERC721.sol\":9314:9351  _checkAuthorized(from, auth, tokenId) */\n      jump\t// in\n    tag_221:\n        /* \"openzeppelin-contracts/contracts/token/ERC721/ERC721.sol\":9275:9363  if (auth != address(0)) {... */\n    tag_220:\n        /* \"openzeppelin-contracts/contracts/token/ERC721/ERC721.sol\":9426:9427  0 */\n      0x00\n        /* \"openzeppelin-contracts/contracts/token/ERC721/ERC721.sol\":9410:9428  from != address(0) */\n      0xffffffffffffffffffffffffffffffffffffffff\n      and\n        /* \"openzeppelin-contracts/contracts/token/ERC721/ERC721.sol\":9410:9414  from */\n      dup2\n        /* \"openzeppelin-contracts/contracts/token/ERC721/ERC721.sol\":9410:9428  from != address(0) */\n      0xffffffffffffffffffffffffffffffffffffffff\n      and\n      eq\n        /* \"openzeppelin-contracts/contracts/token/ERC721/ERC721.sol\":9406:9669  if (from != address(0)) {... */\n      tag_223\n      jumpi\n        /* \"openzeppelin-contracts/contracts/token/ERC721/ERC721.sol\":9528:9576  _approve(address(0), tokenId, address(0), false) */\n      tag_224\n        /* \"openzeppelin-contracts/contracts/token/ERC721/ERC721.sol\":9545:9546  0 */\n      0x00\n        /* \"openzeppelin-contracts/contracts/token/ERC721/ERC721.sol\":9549:9556  tokenId */\n      dup6\n        /* \"openzeppelin-contracts/contracts/token/ERC721/ERC721.sol\":9566:9567  0 */\n      0x00\n        /* \"openzeppelin-contracts/contracts/token/ERC721/ERC721.sol\":9570:9575  false */\n      dup1\n        /* \"openzeppelin-contracts/contracts/token/ERC721/ERC721.sol\":9528:9536  _approve */\n      tag_217\n        /* \"openzeppelin-contracts/contracts/token/ERC721/ERC721.sol\":9528:9576  _approve(address(0), tokenId, address(0), false) */\n      jump\t// in\n    tag_224:\n        /* \"openzeppelin-contracts/contracts/token/ERC721/ERC721.sol\":9641:9642  1 */\n      0x01\n        /* \"openzeppelin-contracts/contracts/token/ERC721/ERC721.sol\":9622:9631  _balances */\n      0x03\n        /* \"openzeppelin-contracts/contracts/token/ERC721/ERC721.sol\":9622:9637  _balances[from] */\n      0x00\n        /* \"openzeppelin-contracts/contracts/token/ERC721/ERC721.sol\":9632:9636  from */\n      dup4\n        /* \"openzeppelin-contracts/contracts/token/ERC721/ERC721.sol\":9622:9637  _balances[from] */\n      0xffffffffffffffffffffffffffffffffffffffff\n      and\n      0xffffffffffffffffffffffffffffffffffffffff\n      and\n      dup2\n      mstore\n      0x20\n      add\n      swap1\n      dup2\n      mstore\n      0x20\n      add\n      0x00\n      keccak256\n      0x00\n        /* \"openzeppelin-contracts/contracts/token/ERC721/ERC721.sol\":9622:9642  _balances[from] -= 1 */\n      dup3\n      dup3\n      sload\n      sub\n      swap3\n      pop\n      pop\n      dup2\n      swap1\n      sstore\n      pop\n        /* \"openzeppelin-contracts/contracts/token/ERC721/ERC721.sol\":9406:9669  if (from != address(0)) {... */\n    tag_223:\n        /* \"openzeppelin-contracts/contracts/token/ERC721/ERC721.sol\":9699:9700  0 */\n      0x00\n        /* \"openzeppelin-contracts/contracts/token/ERC721/ERC721.sol\":9685:9701  to != address(0) */\n      0xffffffffffffffffffffffffffffffffffffffff\n      and\n        /* \"openzeppelin-contracts/contracts/token/ERC721/ERC721.sol\":9685:9687  to */\n      dup6\n        /* \"openzeppelin-contracts/contracts/token/ERC721/ERC721.sol\":9685:9701  to != address(0) */\n      0xffffffffffffffffffffffffffffffffffffffff\n      and\n      eq\n        /* \"openzeppelin-contracts/contracts/token/ERC721/ERC721.sol\":9681:9792  if (to != address(0)) {... */\n      tag_225\n      jumpi\n        /* \"openzeppelin-contracts/contracts/token/ERC721/ERC721.sol\":9764:9765  1 */\n      0x01\n        /* \"openzeppelin-contracts/contracts/token/ERC721/ERC721.sol\":9747:9756  _balances */\n      0x03\n        /* \"openzeppelin-contracts/contracts/token/ERC721/ERC721.sol\":9747:9760  _balances[to] */\n      0x00\n        /* \"openzeppelin-contracts/contracts/token/ERC721/ERC721.sol\":9757:9759  to */\n      dup8\n        /* \"openzeppelin-contracts/contracts/token/ERC721/ERC721.sol\":9747:9760  _balances[to] */\n      0xffffffffffffffffffffffffffffffffffffffff\n      and\n      0xffffffffffffffffffffffffffffffffffffffff\n      and\n      dup2\n      mstore\n      0x20\n      add\n      swap1\n      dup2\n      mstore\n      0x20\n      add\n      0x00\n      keccak256\n      0x00\n        /* \"openzeppelin-contracts/contracts/token/ERC721/ERC721.sol\":9747:9765  _balances[to] += 1 */\n      dup3\n      dup3\n      sload\n      add\n      swap3\n      pop\n      pop\n      dup2\n      swap1\n      sstore\n      pop\n        /* \"openzeppelin-contracts/contracts/token/ERC721/ERC721.sol\":9681:9792  if (to != address(0)) {... */\n    tag_225:\n        /* \"openzeppelin-contracts/contracts/token/ERC721/ERC721.sol\":9823:9825  to */\n      dup5\n        /* \"openzeppelin-contracts/contracts/token/ERC721/ERC721.sol\":9804:9811  _owners */\n      0x02\n        /* \"openzeppelin-contracts/contracts/token/ERC721/ERC721.sol\":9804:9820  _owners[tokenId] */\n      0x00\n        /* \"openzeppelin-contracts/contracts/token/ERC721/ERC721.sol\":9812:9819  tokenId */\n      dup7\n        /* \"openzeppelin-contracts/contracts/token/ERC721/ERC721.sol\":9804:9820  _owners[tokenId] */\n      dup2\n      mstore\n      0x20\n      add\n      swap1\n      dup2\n      mstore\n      0x20\n      add\n      0x00\n      keccak256\n      0x00\n        /* \"openzeppelin-contracts/contracts/token/ERC721/ERC721.sol\":9804:9825  _owners[tokenId] = to */\n      0x0100\n      exp\n      dup2\n      sload\n      dup2\n      0xffffffffffffffffffffffffffffffffffffffff\n      mul\n      not\n      and\n      swap1\n      dup4\n      0xffffffffffffffffffffffffffffffffffffffff\n      and\n      mul\n      or\n      swap1\n      sstore\n      pop\n        /* \"openzeppelin-contracts/contracts/token/ERC721/ERC721.sol\":9862:9869  tokenId */\n      dup4\n        /* \"openzeppelin-contracts/contracts/token/ERC721/ERC721.sol\":9858:9860  to */\n      dup6\n        /* \"openzeppelin-contracts/contracts/token/ERC721/ERC721.sol\":9843:9870  Transfer(from, to, tokenId) */\n      0xffffffffffffffffffffffffffffffffffffffff\n      and\n        /* \"openzeppelin-contracts/contracts/token/ERC721/ERC721.sol\":9852:9856  from */\n      dup3\n        /* \"openzeppelin-contracts/contracts/token/ERC721/ERC721.sol\":9843:9870  Transfer(from, to, tokenId) */\n      0xffffffffffffffffffffffffffffffffffffffff\n      and\n      0xddf252ad1be2c89b69c2b068fc378daa952ba7f163c4a11628f55a4df523b3ef\n      mload(0x40)\n      mload(0x40)\n      dup1\n      swap2\n      sub\n      swap1\n      log4\n        /* \"openzeppelin-contracts/contracts/token/ERC721/ERC721.sol\":9890:9894  from */\n      dup1\n        /* \"openzeppelin-contracts/contracts/token/ERC721/ERC721.sol\":9883:9894  return from */\n      swap2\n      pop\n      pop\n        /* \"openzeppelin-contracts/contracts/token/ERC721/ERC721.sol\":9078:9902  function _update(address to, uint256 tokenId, address auth) internal virtual returns (address) {... */\n      swap4\n      swap3\n      pop\n      pop\n      pop\n      jump\t// out\n        /* \"openzeppelin-contracts/contracts/access/Ownable.sol\":1858:2024  function _checkOwner() internal view virtual {... */\n    tag_148:\n        /* \"openzeppelin-contracts/contracts/access/Ownable.sol\":1929:1941  _msgSender() */\n      tag_227\n        /* \"openzeppelin-contracts/contracts/access/Ownable.sol\":1929:1939  _msgSender */\n      tag_133\n        /* \"openzeppelin-contracts/contracts/access/Ownable.sol\":1929:1941  _msgSender() */\n      jump\t// in\n    tag_227:\n        /* \"openzeppelin-contracts/contracts/access/Ownable.sol\":1918:1941  owner() != _msgSender() */\n      0xffffffffffffffffffffffffffffffffffffffff\n      and\n        /* \"openzeppelin-contracts/contracts/access/Ownable.sol\":1918:1925  owner() */\n      tag_228\n        /* \"openzeppelin-contracts/contracts/access/Ownable.sol\":1918:1923  owner */\n      tag_79\n        /* \"openzeppelin-contracts/contracts/access/Ownable.sol\":1918:1925  owner() */\n      jump\t// in\n    tag_228:\n        /* \"openzeppelin-contracts/contracts/access/Ownable.sol\":1918:1941  owner() != _msgSender() */\n      0xffffffffffffffffffffffffffffffffffffffff\n      and\n      eq\n        /* \"openzeppelin-contracts/contracts/access/Ownable.sol\":1914:2017  if (owner() != _msgSender()) {... */\n      tag_229\n      jumpi\n        /* \"openzeppelin-contracts/contracts/access/Ownable.sol\":1992:2004  _msgSender() */\n      tag_230\n        /* \"openzeppelin-contracts/contracts/access/Ownable.sol\":1992:2002  _msgSender */\n      tag_133\n        /* \"openzeppelin-contracts/contracts/access/Ownable.sol\":1992:2004  _msgSender() */\n      jump\t// in\n    tag_230:\n        /* \"openzeppelin-contracts/contracts/access/Ownable.sol\":1965:2005  OwnableUnauthorizedAccount(_msgSender()) */\n      mload(0x40)\n      0x118cdaa700000000000000000000000000000000000000000000000000000000\n      dup2\n      mstore\n      0x04\n      add\n      tag_231\n      swap2\n      swap1\n      tag_44\n      jump\t// in\n    tag_231:\n      mload(0x40)\n      dup1\n      swap2\n      sub\n      swap1\n      revert\n        /* \"openzeppelin-contracts/contracts/access/Ownable.sol\":1914:2017  if (owner() != _msgSender()) {... */\n    tag_229:\n        /* \"openzeppelin-contracts/contracts/access/Ownable.sol\":1858:2024  function _checkOwner() internal view virtual {... */\n      jump\t// out\n        /* \"openzeppelin-contracts/contracts/access/Ownable.sol\":3006:3197  function _transferOwnership(address newOwner) internal virtual {... */\n    tag_163:\n        /* \"openzeppelin-contracts/contracts/access/Ownable.sol\":3080:3096  address oldOwner */\n      0x00\n        /* \"openzeppelin-contracts/contracts/access/Ownable.sol\":3099:3105  _owner */\n      0x06\n      0x00\n      swap1\n      sload\n      swap1\n      0x0100\n      exp\n      swap1\n      div\n      0xffffffffffffffffffffffffffffffffffffffff\n      and\n        /* \"openzeppelin-contracts/contracts/access/Ownable.sol\":3080:3105  address oldOwner = _owner */\n      swap1\n      pop\n        /* \"openzeppelin-contracts/contracts/access/Ownable.sol\":3125:3133  newOwner */\n      dup2\n        /* \"openzeppelin-contracts/contracts/access/Ownable.sol\":3116:3122  _owner */\n      0x06\n      0x00\n        /* \"openzeppelin-contracts/contracts/access/Ownable.sol\":3116:3133  _owner = newOwner */\n      0x0100\n      exp\n      dup2\n      sload\n      dup2\n      0xffffffffffffffffffffffffffffffffffffffff\n      mul\n      not\n      and\n      swap1\n      dup4\n      0xffffffffffffffffffffffffffffffffffffffff\n      and\n      mul\n      or\n      swap1\n      sstore\n      pop\n        /* \"openzeppelin-contracts/contracts/access/Ownable.sol\":3180:3188  newOwner */\n      dup2\n        /* \"openzeppelin-contracts/contracts/access/Ownable.sol\":3149:3189  OwnershipTransferred(oldOwner, newOwner) */\n      0xffffffffffffffffffffffffffffffffffffffff\n      and\n        /* \"openzeppelin-contracts/contracts/access/Ownable.sol\":3170:3178  oldOwner */\n      dup2\n        /* \"openzeppelin-contracts/contracts/access/Ownable.sol\":3149:3189  OwnershipTransferred(oldOwner, newOwner) */\n      0xffffffffffffffffffffffffffffffffffffffff\n      and\n      0x8be0079c531659141344cd1fd0a4f28419497f9722a3daafe3b4186f6b6457e0\n      mload(0x40)\n      mload(0x40)\n      dup1\n      swap2\n      sub\n      swap1\n      log3\n        /* \"openzeppelin-contracts/contracts/access/Ownable.sol\":3069:3197  {... */\n      pop\n        /* \"openzeppelin-contracts/contracts/access/Ownable.sol\":3006:3197  function _transferOwnership(address newOwner) internal virtual {... */\n      pop\n      jump\t// out\n        /* \"openzeppelin-contracts/contracts/token/ERC721/ERC721.sol\":16024:16342  function _setApprovalForAll(address owner, address operator, bool approved) internal virtual {... */\n    tag_185:\n        /* \"openzeppelin-contracts/contracts/token/ERC721/ERC721.sol\":16152:16153  0 */\n      0x00\n        /* \"openzeppelin-contracts/contracts/token/ERC721/ERC721.sol\":16132:16154  operator == address(0) */\n      0xffffffffffffffffffffffffffffffffffffffff\n      and\n        /* \"openzeppelin-contracts/contracts/token/ERC721/ERC721.sol\":16132:16140  operator */\n      dup3\n        /* \"openzeppelin-contracts/contracts/token/ERC721/ERC721.sol\":16132:16154  operator == address(0) */\n      0xffffffffffffffffffffffffffffffffffffffff\n      and\n      sub\n        /* \"openzeppelin-contracts/contracts/token/ERC721/ERC721.sol\":16128:16221  if (operator == address(0)) {... */\n      tag_234\n      jumpi\n        /* \"openzeppelin-contracts/contracts/token/ERC721/ERC721.sol\":16200:16208  operator */\n      dup2\n        /* \"openzeppelin-contracts/contracts/token/ERC721/ERC721.sol\":16178:16209  ERC721InvalidOperator(operator) */\n      mload(0x40)\n      0x5b08ba1800000000000000000000000000000000000000000000000000000000\n      dup2\n      mstore\n      0x04\n      add\n      tag_235\n      swap2\n      swap1\n      tag_44\n      jump\t// in\n    tag_235:\n      mload(0x40)\n      dup1\n      swap2\n      sub\n      swap1\n      revert\n        /* \"openzeppelin-contracts/contracts/token/ERC721/ERC721.sol\":16128:16221  if (operator == address(0)) {... */\n    tag_234:\n        /* \"openzeppelin-contracts/contracts/token/ERC721/ERC721.sol\":16269:16277  approved */\n      dup1\n        /* \"openzeppelin-contracts/contracts/token/ERC721/ERC721.sol\":16231:16249  _operatorApprovals */\n      0x05\n        /* \"openzeppelin-contracts/contracts/token/ERC721/ERC721.sol\":16231:16256  _operatorApprovals[owner] */\n      0x00\n        /* \"openzeppelin-contracts/contracts/token/ERC721/ERC721.sol\":16250:16255  owner */\n      dup6\n        /* \"openzeppelin-contracts/contracts/token/ERC721/ERC721.sol\":16231:16256  _operatorApprovals[owner] */\n      0xffffffffffffffffffffffffffffffffffffffff\n      and\n      0xffffffffffffffffffffffffffffffffffffffff\n      and\n      dup2\n      mstore\n      0x20\n      add\n      swap1\n      dup2\n      mstore\n      0x20\n      add\n      0x00\n      keccak256\n        /* \"openzeppelin-contracts/contracts/token/ERC721/ERC721.sol\":16231:16266  _operatorApprovals[owner][operator] */\n      0x00\n        /* \"openzeppelin-contracts/contracts/token/ERC721/ERC721.sol\":16257:16265  operator */\n      dup5\n        /* \"openzeppelin-contracts/contracts/token/ERC721/ERC721.sol\":16231:16266  _operatorApprovals[owner][operator] */\n      0xffffffffffffffffffffffffffffffffffffffff\n      and\n      0xffffffffffffffffffffffffffffffffffffffff\n      and\n      dup2\n      mstore\n      0x20\n      add\n      swap1\n      dup2\n      mstore\n      0x20\n      add\n      0x00\n      keccak256\n      0x00\n        /* \"openzeppelin-contracts/contracts/token/ERC721/ERC721.sol\":16231:16277  _operatorApprovals[owner][operator] = approved */\n      0x0100\n      exp\n      dup2\n      sload\n      dup2\n      0xff\n      mul\n      not\n      and\n      swap1\n      dup4\n      iszero\n      iszero\n      mul\n      or\n      swap1\n      sstore\n      pop\n        /* \"openzeppelin-contracts/contracts/token/ERC721/ERC721.sol\":16315:16323  operator */\n      dup2\n        /* \"openzeppelin-contracts/contracts/token/ERC721/ERC721.sol\":16293:16334  ApprovalForAll(owner, operator, approved) */\n      0xffffffffffffffffffffffffffffffffffffffff\n      and\n        /* \"openzeppelin-contracts/contracts/token/ERC721/ERC721.sol\":16308:16313  owner */\n      dup4\n        /* \"openzeppelin-contracts/contracts/token/ERC721/ERC721.sol\":16293:16334  ApprovalForAll(owner, operator, approved) */\n      0xffffffffffffffffffffffffffffffffffffffff\n      and\n      0x17307eab39ab6107e8899845ad3d59bd9653f200f220920489ca2b5937696c31\n        /* \"openzeppelin-contracts/contracts/token/ERC721/ERC721.sol\":16325:16333  approved */\n      dup4\n        /* \"openzeppelin-contracts/contracts/token/ERC721/ERC721.sol\":16293:16334  ApprovalForAll(owner, operator, approved) */\n      mload(0x40)\n      tag_236\n      swap2\n      swap1\n      tag_34\n      jump\t// in\n    tag_236:\n      mload(0x40)\n      dup1\n      swap2\n      sub\n      swap1\n      log3\n        /* \"openzeppelin-contracts/contracts/token/ERC721/ERC721.sol\":16024:16342  function _setApprovalForAll(address owner, address operator, bool approved) internal virtual {... */\n      pop\n      pop\n      pop\n      jump\t// out\n        /* \"openzeppelin-contracts/contracts/token/ERC721/ERC721.sol\":17382:18181  function _checkOnERC721Received(address from, address to, uint256 tokenId, bytes memory data) private {... */\n    tag_189:\n        /* \"openzeppelin-contracts/contracts/token/ERC721/ERC721.sol\":17516:17517  0 */\n      0x00\n        /* \"openzeppelin-contracts/contracts/token/ERC721/ERC721.sol\":17499:17501  to */\n      dup4\n        /* \"openzeppelin-contracts/contracts/token/ERC721/ERC721.sol\":17499:17513  to.code.length */\n      0xffffffffffffffffffffffffffffffffffffffff\n      and\n      extcodesize\n        /* \"openzeppelin-contracts/contracts/token/ERC721/ERC721.sol\":17499:17517  to.code.length > 0 */\n      gt\n        /* \"openzeppelin-contracts/contracts/token/ERC721/ERC721.sol\":17495:18174  if (to.code.length > 0) {... */\n      iszero\n      tag_238\n      jumpi\n        /* \"openzeppelin-contracts/contracts/token/ERC721/ERC721.sol\":17554:17556  to */\n      dup3\n        /* \"openzeppelin-contracts/contracts/token/ERC721/ERC721.sol\":17538:17574  IERC721Receiver(to).onERC721Received */\n      0xffffffffffffffffffffffffffffffffffffffff\n      and\n      0x150b7a02\n        /* \"openzeppelin-contracts/contracts/token/ERC721/ERC721.sol\":17575:17587  _msgSender() */\n      tag_239\n        /* \"openzeppelin-contracts/contracts/token/ERC721/ERC721.sol\":17575:17585  _msgSender */\n      tag_133\n        /* \"openzeppelin-contracts/contracts/token/ERC721/ERC721.sol\":17575:17587  _msgSender() */\n      jump\t// in\n    tag_239:\n        /* \"openzeppelin-contracts/contracts/token/ERC721/ERC721.sol\":17589:17593  from */\n      dup7\n        /* \"openzeppelin-contracts/contracts/token/ERC721/ERC721.sol\":17595:17602  tokenId */\n      dup6\n        /* \"openzeppelin-contracts/contracts/token/ERC721/ERC721.sol\":17604:17608  data */\n      dup6\n        /* \"openzeppelin-contracts/contracts/token/ERC721/ERC721.sol\":17538:17609  IERC721Receiver(to).onERC721Received(_msgSender(), from, tokenId, data) */\n      mload(0x40)\n      dup6\n      0xffffffff\n      and\n      0xe0\n      shl\n      dup2\n      mstore\n      0x04\n      add\n      tag_240\n      swap5\n      swap4\n      swap3\n      swap2\n      swap1\n      tag_241\n      jump\t// in\n    tag_240:\n      0x20\n      mload(0x40)\n      dup1\n      dup4\n      sub\n      dup2\n      0x00\n      dup8\n      gas\n      call\n      swap3\n      pop\n      pop\n      pop\n      dup1\n      iszero\n      tag_242\n      jumpi\n      pop\n      mload(0x40)\n      returndatasize\n      not(0x1f)\n      0x1f\n      dup3\n      add\n      and\n      dup3\n      add\n      dup1\n      0x40\n      mstore\n      pop\n      dup2\n      add\n      swap1\n      tag_243\n      swap2\n      swap1\n      tag_244\n      jump\t// in\n    tag_243:\n      0x01\n    tag_242:\n        /* \"openzeppelin-contracts/contracts/token/ERC721/ERC721.sol\":17534:18163  try IERC721Receiver(to).onERC721Received(_msgSender(), from, tokenId, data) returns (bytes4 retval) {... */\n      tag_245\n      jumpi\n      returndatasize\n      dup1\n      0x00\n      dup2\n      eq\n      tag_250\n      jumpi\n      mload(0x40)\n      swap2\n      pop\n      and(add(returndatasize, 0x3f), not(0x1f))\n      dup3\n      add\n      0x40\n      mstore\n      returndatasize\n      dup3\n      mstore\n      returndatasize\n      0x00\n      0x20\n      dup5\n      add\n      returndatacopy\n      jump(tag_249)\n    tag_250:\n      0x60\n      swap2\n      pop\n    tag_249:\n      pop\n        /* \"openzeppelin-contracts/contracts/token/ERC721/ERC721.sol\":17869:17870  0 */\n      0x00\n        /* \"openzeppelin-contracts/contracts/token/ERC721/ERC721.sol\":17852:17858  reason */\n      dup2\n        /* \"openzeppelin-contracts/contracts/token/ERC721/ERC721.sol\":17852:17865  reason.length */\n      mload\n        /* \"openzeppelin-contracts/contracts/token/ERC721/ERC721.sol\":17852:17870  reason.length == 0 */\n      sub\n        /* \"openzeppelin-contracts/contracts/token/ERC721/ERC721.sol\":17848:18148  if (reason.length == 0) {... */\n      tag_251\n      jumpi\n        /* \"openzeppelin-contracts/contracts/token/ERC721/ERC721.sol\":17924:17926  to */\n      dup4\n        /* \"openzeppelin-contracts/contracts/token/ERC721/ERC721.sol\":17902:17927  ERC721InvalidReceiver(to) */\n      mload(0x40)\n      0x64a0ae9200000000000000000000000000000000000000000000000000000000\n      dup2\n      mstore\n      0x04\n      add\n      tag_252\n      swap2\n      swap1\n      tag_44\n      jump\t// in\n    tag_252:\n      mload(0x40)\n      dup1\n      swap2\n      sub\n      swap1\n      revert\n        /* \"openzeppelin-contracts/contracts/token/ERC721/ERC721.sol\":17848:18148  if (reason.length == 0) {... */\n    tag_251:\n        /* \"openzeppelin-contracts/contracts/token/ERC721/ERC721.sol\":18098:18104  reason */\n      dup1\n        /* \"openzeppelin-contracts/contracts/token/ERC721/ERC721.sol\":18092:18105  mload(reason) */\n      mload\n        /* \"openzeppelin-contracts/contracts/token/ERC721/ERC721.sol\":18083:18089  reason */\n      dup2\n        /* \"openzeppelin-contracts/contracts/token/ERC721/ERC721.sol\":18079:18081  32 */\n      0x20\n        /* \"openzeppelin-contracts/contracts/token/ERC721/ERC721.sol\":18075:18090  add(32, reason) */\n      add\n        /* \"openzeppelin-contracts/contracts/token/ERC721/ERC721.sol\":18068:18106  revert(add(32, reason), mload(reason)) */\n      revert\n        /* \"openzeppelin-contracts/contracts/token/ERC721/ERC721.sol\":17534:18163  try IERC721Receiver(to).onERC721Received(_msgSender(), from, tokenId, data) returns (bytes4 retval) {... */\n    tag_245:\n        /* \"openzeppelin-contracts/contracts/token/ERC721/ERC721.sol\":17667:17708  IERC721Receiver.onERC721Received.selector */\n      shl(0xe0, 0x150b7a02)\n        /* \"openzeppelin-contracts/contracts/token/ERC721/ERC721.sol\":17657:17708  retval != IERC721Receiver.onERC721Received.selector */\n      not(0xffffffffffffffffffffffffffffffffffffffffffffffffffffffff)\n      and\n        /* \"openzeppelin-contracts/contracts/token/ERC721/ERC721.sol\":17657:17663  retval */\n      dup2\n        /* \"openzeppelin-contracts/contracts/token/ERC721/ERC721.sol\":17657:17708  retval != IERC721Receiver.onERC721Received.selector */\n      not(0xffffffffffffffffffffffffffffffffffffffffffffffffffffffff)\n      and\n      eq\n        /* \"openzeppelin-contracts/contracts/token/ERC721/ERC721.sol\":17653:17785  if (retval != IERC721Receiver.onERC721Received.selector) {... */\n      tag_255\n      jumpi\n        /* \"openzeppelin-contracts/contracts/token/ERC721/ERC721.sol\":17762:17764  to */\n      dup4\n        /* \"openzeppelin-contracts/contracts/token/ERC721/ERC721.sol\":17740:17765  ERC721InvalidReceiver(to) */\n      mload(0x40)\n      0x64a0ae9200000000000000000000000000000000000000000000000000000000\n      dup2\n      mstore\n      0x04\n      add\n      tag_256\n      swap2\n      swap1\n      tag_44\n      jump\t// in\n    tag_256:\n      mload(0x40)\n      dup1\n      swap2\n      sub\n      swap1\n      revert\n        /* \"openzeppelin-contracts/contracts/token/ERC721/ERC721.sol\":17653:17785  if (retval != IERC721Receiver.onERC721Received.selector) {... */\n    tag_255:\n        /* \"openzeppelin-contracts/contracts/token/ERC721/ERC721.sol\":17610:17800  returns (bytes4 retval) {... */\n      pop\n        /* \"openzeppelin-contracts/contracts/token/ERC721/ERC721.sol\":17495:18174  if (to.code.length > 0) {... */\n    tag_238:\n        /* \"openzeppelin-contracts/contracts/token/ERC721/ERC721.sol\":17382:18181  function _checkOnERC721Received(address from, address to, uint256 tokenId, bytes memory data) private {... */\n      pop\n      pop\n      pop\n      pop\n      jump\t// out\n        /* \"PictureToken.sol\":542:661  function _baseURI() internal pure override returns (string memory) {... */\n    tag_193:\n        /* \"PictureToken.sol\":594:607  string memory */\n      0x60\n        /* \"PictureToken.sol\":620:653  return \"ipfs://pieceTokenBaseURI\" */\n      mload(0x40)\n      dup1\n      0x40\n      add\n      0x40\n      mstore\n      dup1\n      0x18\n      dup2\n      mstore\n      0x20\n      add\n      0x697066733a2f2f7069656365546f6b656e426173655552490000000000000000\n      dup2\n      mstore\n      pop\n      swap1\n      pop\n        /* \"PictureToken.sol\":542:661  function _baseURI() internal pure override returns (string memory) {... */\n      swap1\n      jump\t// out\n        /* \"openzeppelin-contracts/contracts/utils/Strings.sol\":660:1378  function toString(uint256 value) internal pure returns (string memory) {... */\n    tag_197:\n        /* \"openzeppelin-contracts/contracts/utils/Strings.sol\":716:729  string memory */\n      0x60\n        /* \"openzeppelin-contracts/contracts/utils/Strings.sol\":767:781  uint256 length */\n      0x00\n        /* \"openzeppelin-contracts/contracts/utils/Strings.sol\":804:805  1 */\n      0x01\n        /* \"openzeppelin-contracts/contracts/utils/Strings.sol\":784:801  Math.log10(value) */\n      tag_259\n        /* \"openzeppelin-contracts/contracts/utils/Strings.sol\":795:800  value */\n      dup5\n        /* \"openzeppelin-contracts/contracts/utils/Strings.sol\":784:794  Math.log10 */\n      tag_260\n        /* \"openzeppelin-contracts/contracts/utils/Strings.sol\":784:801  Math.log10(value) */\n      jump\t// in\n    tag_259:\n        /* \"openzeppelin-contracts/contracts/utils/Strings.sol\":784:805  Math.log10(value) + 1 */\n      add\n        /* \"openzeppelin-contracts/contracts/utils/Strings.sol\":767:805  uint256 length = Math.log10(value) + 1 */\n      swap1\n      pop\n        /* \"openzeppelin-contracts/contracts/utils/Strings.sol\":820:840  string memory buffer */\n      0x00\n        /* \"openzeppelin-contracts/contracts/utils/Strings.sol\":854:860  length */\n      dup2\n        /* \"openzeppelin-contracts/contracts/utils/Strings.sol\":843:861  new string(length) */\n      0xffffffffffffffff\n      dup2\n      gt\n      iszero\n      tag_261\n      jumpi\n      tag_262\n      tag_263\n      jump\t// in\n    tag_262:\n    tag_261:\n      mload(0x40)\n      swap1\n      dup1\n      dup3\n      mstore\n      dup1\n      0x1f\n      add\n      not(0x1f)\n      and\n      0x20\n      add\n      dup3\n      add\n      0x40\n      mstore\n      dup1\n      iszero\n      tag_264\n      jumpi\n      dup2\n      0x20\n      add\n      0x01\n      dup3\n      mul\n      dup1\n      calldatasize\n      dup4\n      calldatacopy\n      dup1\n      dup3\n      add\n      swap2\n      pop\n      pop\n      swap1\n      pop\n    tag_264:\n      pop\n        /* \"openzeppelin-contracts/contracts/utils/Strings.sol\":820:861  string memory buffer = new string(length) */\n      swap1\n      pop\n        /* \"openzeppelin-contracts/contracts/utils/Strings.sol\":876:887  uint256 ptr */\n      0x00\n        /* \"openzeppelin-contracts/contracts/utils/Strings.sol\":1005:1011  length */\n      dup3\n        /* \"openzeppelin-contracts/contracts/utils/Strings.sol\":1001:1003  32 */\n      0x20\n        /* \"openzeppelin-contracts/contracts/utils/Strings.sol\":997:1012  add(32, length) */\n      add\n        /* \"openzeppelin-contracts/contracts/utils/Strings.sol\":989:995  buffer */\n      dup3\n        /* \"openzeppelin-contracts/contracts/utils/Strings.sol\":985:1013  add(buffer, add(32, length)) */\n      add\n        /* \"openzeppelin-contracts/contracts/utils/Strings.sol\":978:1013  ptr := add(buffer, add(32, length)) */\n      swap1\n      pop\n        /* \"openzeppelin-contracts/contracts/utils/Strings.sol\":1042:1332  while (true) {... */\n    tag_265:\n        /* \"openzeppelin-contracts/contracts/utils/Strings.sol\":1049:1053  true */\n      0x01\n        /* \"openzeppelin-contracts/contracts/utils/Strings.sol\":1042:1332  while (true) {... */\n      iszero\n      tag_266\n      jumpi\n        /* \"openzeppelin-contracts/contracts/utils/Strings.sol\":1074:1079  ptr-- */\n      dup1\n      dup1\n      0x01\n      swap1\n      sub\n      swap2\n      pop\n      pop\n        /* \"openzeppelin-contracts/contracts/utils/Strings.sol\":1216:1226  HEX_DIGITS */\n      0x3031323334353637383961626364656600000000000000000000000000000000\n        /* \"openzeppelin-contracts/contracts/utils/Strings.sol\":1211:1213  10 */\n      0x0a\n        /* \"openzeppelin-contracts/contracts/utils/Strings.sol\":1204:1209  value */\n      dup7\n        /* \"openzeppelin-contracts/contracts/utils/Strings.sol\":1200:1214  mod(value, 10) */\n      mod\n        /* \"openzeppelin-contracts/contracts/utils/Strings.sol\":1195:1227  byte(mod(value, 10), HEX_DIGITS) */\n      byte\n        /* \"openzeppelin-contracts/contracts/utils/Strings.sol\":1190:1193  ptr */\n      dup2\n        /* \"openzeppelin-contracts/contracts/utils/Strings.sol\":1182:1228  mstore8(ptr, byte(mod(value, 10), HEX_DIGITS)) */\n      mstore8\n        /* \"openzeppelin-contracts/contracts/utils/Strings.sol\":1274:1276  10 */\n      0x0a\n        /* \"openzeppelin-contracts/contracts/utils/Strings.sol\":1265:1276  value /= 10 */\n      dup6\n      dup2\n      tag_267\n      jumpi\n      tag_268\n      tag_269\n      jump\t// in\n    tag_268:\n    tag_267:\n      div\n      swap5\n      pop\n        /* \"openzeppelin-contracts/contracts/utils/Strings.sol\":1308:1309  0 */\n      0x00\n        /* \"openzeppelin-contracts/contracts/utils/Strings.sol\":1299:1304  value */\n      dup6\n        /* \"openzeppelin-contracts/contracts/utils/Strings.sol\":1299:1309  value == 0 */\n      sub\n        /* \"openzeppelin-contracts/contracts/utils/Strings.sol\":1042:1332  while (true) {... */\n      tag_265\n        /* \"openzeppelin-contracts/contracts/utils/Strings.sol\":1295:1316  if (value == 0) break */\n      jumpi\n        /* \"openzeppelin-contracts/contracts/utils/Strings.sol\":1042:1332  while (true) {... */\n    tag_266:\n        /* \"openzeppelin-contracts/contracts/utils/Strings.sol\":1353:1359  buffer */\n      dup2\n        /* \"openzeppelin-contracts/contracts/utils/Strings.sol\":1346:1359  return buffer */\n      swap4\n      pop\n      pop\n      pop\n      pop\n        /* \"openzeppelin-contracts/contracts/utils/Strings.sol\":660:1378  function toString(uint256 value) internal pure returns (string memory) {... */\n      swap2\n      swap1\n      pop\n      jump\t// out\n        /* \"openzeppelin-contracts/contracts/token/ERC721/ERC721.sol\":5878:5995  function _ownerOf(uint256 tokenId) internal view virtual returns (address) {... */\n    tag_210:\n        /* \"openzeppelin-contracts/contracts/token/ERC721/ERC721.sol\":5944:5951  address */\n      0x00\n        /* \"openzeppelin-contracts/contracts/token/ERC721/ERC721.sol\":5971:5978  _owners */\n      0x02\n        /* \"openzeppelin-contracts/contracts/token/ERC721/ERC721.sol\":5971:5987  _owners[tokenId] */\n      0x00\n        /* \"openzeppelin-contracts/contracts/token/ERC721/ERC721.sol\":5979:5986  tokenId */\n      dup4\n        /* \"openzeppelin-contracts/contracts/token/ERC721/ERC721.sol\":5971:5987  _owners[tokenId] */\n      dup2\n      mstore\n      0x20\n      add\n      swap1\n      dup2\n      mstore\n      0x20\n      add\n      0x00\n      keccak256\n      0x00\n      swap1\n      sload\n      swap1\n      0x0100\n      exp\n      swap1\n      div\n      0xffffffffffffffffffffffffffffffffffffffff\n      and\n        /* \"openzeppelin-contracts/contracts/token/ERC721/ERC721.sol\":5964:5987  return _owners[tokenId] */\n      swap1\n      pop\n        /* \"openzeppelin-contracts/contracts/token/ERC721/ERC721.sol\":5878:5995  function _ownerOf(uint256 tokenId) internal view virtual returns (address) {... */\n      swap2\n      swap1\n      pop\n      jump\t// out\n        /* \"openzeppelin-contracts/contracts/token/ERC721/ERC721.sol\":15127:15805  function _approve(address to, uint256 tokenId, address auth, bool emitEvent) internal virtual {... */\n    tag_217:\n        /* \"openzeppelin-contracts/contracts/token/ERC721/ERC721.sol\":15289:15298  emitEvent */\n      dup1\n        /* \"openzeppelin-contracts/contracts/token/ERC721/ERC721.sol\":15289:15320  emitEvent || auth != address(0) */\n      dup1\n      tag_273\n      jumpi\n      pop\n        /* \"openzeppelin-contracts/contracts/token/ERC721/ERC721.sol\":15318:15319  0 */\n      0x00\n        /* \"openzeppelin-contracts/contracts/token/ERC721/ERC721.sol\":15302:15320  auth != address(0) */\n      0xffffffffffffffffffffffffffffffffffffffff\n      and\n        /* \"openzeppelin-contracts/contracts/token/ERC721/ERC721.sol\":15302:15306  auth */\n      dup3\n        /* \"openzeppelin-contracts/contracts/token/ERC721/ERC721.sol\":15302:15320  auth != address(0) */\n      0xffffffffffffffffffffffffffffffffffffffff\n      and\n      eq\n      iszero\n        /* \"openzeppelin-contracts/contracts/token/ERC721/ERC721.sol\":15289:15320  emitEvent || auth != address(0) */\n    tag_273:\n        /* \"openzeppelin-contracts/contracts/token/ERC721/ERC721.sol\":15285:15756  if (emitEvent || auth != address(0)) {... */\n      iszero\n      tag_274\n      jumpi\n        /* \"openzeppelin-contracts/contracts/token/ERC721/ERC721.sol\":15337:15350  address owner */\n      0x00\n        /* \"openzeppelin-contracts/contracts/token/ERC721/ERC721.sol\":15353:15375  _requireOwned(tokenId) */\n      tag_275\n        /* \"openzeppelin-contracts/contracts/token/ERC721/ERC721.sol\":15367:15374  tokenId */\n      dup5\n        /* \"openzeppelin-contracts/contracts/token/ERC721/ERC721.sol\":15353:15366  _requireOwned */\n      tag_127\n        /* \"openzeppelin-contracts/contracts/token/ERC721/ERC721.sol\":15353:15375  _requireOwned(tokenId) */\n      jump\t// in\n    tag_275:\n        /* \"openzeppelin-contracts/contracts/token/ERC721/ERC721.sol\":15337:15375  address owner = _requireOwned(tokenId) */\n      swap1\n      pop\n        /* \"openzeppelin-contracts/contracts/token/ERC721/ERC721.sol\":15522:15523  0 */\n      0x00\n        /* \"openzeppelin-contracts/contracts/token/ERC721/ERC721.sol\":15506:15524  auth != address(0) */\n      0xffffffffffffffffffffffffffffffffffffffff\n      and\n        /* \"openzeppelin-contracts/contracts/token/ERC721/ERC721.sol\":15506:15510  auth */\n      dup4\n        /* \"openzeppelin-contracts/contracts/token/ERC721/ERC721.sol\":15506:15524  auth != address(0) */\n      0xffffffffffffffffffffffffffffffffffffffff\n      and\n      eq\n      iszero\n        /* \"openzeppelin-contracts/contracts/token/ERC721/ERC721.sol\":15506:15541  auth != address(0) && owner != auth */\n      dup1\n      iszero\n      tag_276\n      jumpi\n      pop\n        /* \"openzeppelin-contracts/contracts/token/ERC721/ERC721.sol\":15537:15541  auth */\n      dup3\n        /* \"openzeppelin-contracts/contracts/token/ERC721/ERC721.sol\":15528:15541  owner != auth */\n      0xffffffffffffffffffffffffffffffffffffffff\n      and\n        /* \"openzeppelin-contracts/contracts/token/ERC721/ERC721.sol\":15528:15533  owner */\n      dup2\n        /* \"openzeppelin-contracts/contracts/token/ERC721/ERC721.sol\":15528:15541  owner != auth */\n      0xffffffffffffffffffffffffffffffffffffffff\n      and\n      eq\n      iszero\n        /* \"openzeppelin-contracts/contracts/token/ERC721/ERC721.sol\":15506:15541  auth != address(0) && owner != auth */\n    tag_276:\n        /* \"openzeppelin-contracts/contracts/token/ERC721/ERC721.sol\":15506:15575  auth != address(0) && owner != auth && !isApprovedForAll(owner, auth) */\n      dup1\n      iszero\n      tag_277\n      jumpi\n      pop\n        /* \"openzeppelin-contracts/contracts/token/ERC721/ERC721.sol\":15546:15575  isApprovedForAll(owner, auth) */\n      tag_278\n        /* \"openzeppelin-contracts/contracts/token/ERC721/ERC721.sol\":15563:15568  owner */\n      dup2\n        /* \"openzeppelin-contracts/contracts/token/ERC721/ERC721.sol\":15570:15574  auth */\n      dup5\n        /* \"openzeppelin-contracts/contracts/token/ERC721/ERC721.sol\":15546:15562  isApprovedForAll */\n      tag_108\n        /* \"openzeppelin-contracts/contracts/token/ERC721/ERC721.sol\":15546:15575  isApprovedForAll(owner, auth) */\n      jump\t// in\n    tag_278:\n        /* \"openzeppelin-contracts/contracts/token/ERC721/ERC721.sol\":15545:15575  !isApprovedForAll(owner, auth) */\n      iszero\n        /* \"openzeppelin-contracts/contracts/token/ERC721/ERC721.sol\":15506:15575  auth != address(0) && owner != auth && !isApprovedForAll(owner, auth) */\n    tag_277:\n        /* \"openzeppelin-contracts/contracts/token/ERC721/ERC721.sol\":15502:15646  if (auth != address(0) && owner != auth && !isApprovedForAll(owner, auth)) {... */\n      iszero\n      tag_279\n      jumpi\n        /* \"openzeppelin-contracts/contracts/token/ERC721/ERC721.sol\":15625:15629  auth */\n      dup3\n        /* \"openzeppelin-contracts/contracts/token/ERC721/ERC721.sol\":15603:15630  ERC721InvalidApprover(auth) */\n      mload(0x40)\n      0xa9fbf51f00000000000000000000000000000000000000000000000000000000\n      dup2\n      mstore\n      0x04\n      add\n      tag_280\n      swap2\n      swap1\n      tag_44\n      jump\t// in\n    tag_280:\n      mload(0x40)\n      dup1\n      swap2\n      sub\n      swap1\n      revert\n        /* \"openzeppelin-contracts/contracts/token/ERC721/ERC721.sol\":15502:15646  if (auth != address(0) && owner != auth && !isApprovedForAll(owner, auth)) {... */\n    tag_279:\n        /* \"openzeppelin-contracts/contracts/token/ERC721/ERC721.sol\":15666:15675  emitEvent */\n      dup2\n        /* \"openzeppelin-contracts/contracts/token/ERC721/ERC721.sol\":15662:15745  if (emitEvent) {... */\n      iszero\n      tag_281\n      jumpi\n        /* \"openzeppelin-contracts/contracts/token/ERC721/ERC721.sol\":15721:15728  tokenId */\n      dup4\n        /* \"openzeppelin-contracts/contracts/token/ERC721/ERC721.sol\":15717:15719  to */\n      dup6\n        /* \"openzeppelin-contracts/contracts/token/ERC721/ERC721.sol\":15701:15729  Approval(owner, to, tokenId) */\n      0xffffffffffffffffffffffffffffffffffffffff\n      and\n        /* \"openzeppelin-contracts/contracts/token/ERC721/ERC721.sol\":15710:15715  owner */\n      dup3\n        /* \"openzeppelin-contracts/contracts/token/ERC721/ERC721.sol\":15701:15729  Approval(owner, to, tokenId) */\n      0xffffffffffffffffffffffffffffffffffffffff\n      and\n      0x8c5be1e5ebec7d5bd14f71427d1e84f3dd0314c0f7b2291e5b200ac8c7c3b925\n      mload(0x40)\n      mload(0x40)\n      dup1\n      swap2\n      sub\n      swap1\n      log4\n        /* \"openzeppelin-contracts/contracts/token/ERC721/ERC721.sol\":15662:15745  if (emitEvent) {... */\n    tag_281:\n        /* \"openzeppelin-contracts/contracts/token/ERC721/ERC721.sol\":15322:15756  {... */\n      pop\n        /* \"openzeppelin-contracts/contracts/token/ERC721/ERC721.sol\":15285:15756  if (emitEvent || auth != address(0)) {... */\n    tag_274:\n        /* \"openzeppelin-contracts/contracts/token/ERC721/ERC721.sol\":15795:15797  to */\n      dup4\n        /* \"openzeppelin-contracts/contracts/token/ERC721/ERC721.sol\":15768:15783  _tokenApprovals */\n      0x04\n        /* \"openzeppelin-contracts/contracts/token/ERC721/ERC721.sol\":15768:15792  _tokenApprovals[tokenId] */\n      0x00\n        /* \"openzeppelin-contracts/contracts/token/ERC721/ERC721.sol\":15784:15791  tokenId */\n      dup6\n        /* \"openzeppelin-contracts/contracts/token/ERC721/ERC721.sol\":15768:15792  _tokenApprovals[tokenId] */\n      dup2\n      mstore\n      0x20\n      add\n      swap1\n      dup2\n      mstore\n      0x20\n      add\n      0x00\n      keccak256\n      0x00\n        /* \"openzeppelin-contracts/contracts/token/ERC721/ERC721.sol\":15768:15797  _tokenApprovals[tokenId] = to */\n      0x0100\n      exp\n      dup2\n      sload\n      dup2\n      0xffffffffffffffffffffffffffffffffffffffff\n      mul\n      not\n      and\n      swap1\n      dup4\n      0xffffffffffffffffffffffffffffffffffffffff\n      and\n      mul\n      or\n      swap1\n      sstore\n      pop\n        /* \"openzeppelin-contracts/contracts/token/ERC721/ERC721.sol\":15127:15805  function _approve(address to, uint256 tokenId, address auth, bool emitEvent) internal virtual {... */\n      pop\n      pop\n      pop\n      pop\n      jump\t// out\n        /* \"openzeppelin-contracts/contracts/token/ERC721/ERC721.sol\":7285:7661  function _checkAuthorized(address owner, address spender, uint256 tokenId) internal view virtual {... */\n    tag_222:\n        /* \"openzeppelin-contracts/contracts/token/ERC721/ERC721.sol\":7398:7436  _isAuthorized(owner, spender, tokenId) */\n      tag_283\n        /* \"openzeppelin-contracts/contracts/token/ERC721/ERC721.sol\":7412:7417  owner */\n      dup4\n        /* \"openzeppelin-contracts/contracts/token/ERC721/ERC721.sol\":7419:7426  spender */\n      dup4\n        /* \"openzeppelin-contracts/contracts/token/ERC721/ERC721.sol\":7428:7435  tokenId */\n      dup4\n        /* \"openzeppelin-contracts/contracts/token/ERC721/ERC721.sol\":7398:7411  _isAuthorized */\n      tag_284\n        /* \"openzeppelin-contracts/contracts/token/ERC721/ERC721.sol\":7398:7436  _isAuthorized(owner, spender, tokenId) */\n      jump\t// in\n    tag_283:\n        /* \"openzeppelin-contracts/contracts/token/ERC721/ERC721.sol\":7393:7654  if (!_isAuthorized(owner, spender, tokenId)) {... */\n      tag_285\n      jumpi\n        /* \"openzeppelin-contracts/contracts/token/ERC721/ERC721.sol\":7474:7475  0 */\n      0x00\n        /* \"openzeppelin-contracts/contracts/token/ERC721/ERC721.sol\":7457:7476  owner == address(0) */\n      0xffffffffffffffffffffffffffffffffffffffff\n      and\n        /* \"openzeppelin-contracts/contracts/token/ERC721/ERC721.sol\":7457:7462  owner */\n      dup4\n        /* \"openzeppelin-contracts/contracts/token/ERC721/ERC721.sol\":7457:7476  owner == address(0) */\n      0xffffffffffffffffffffffffffffffffffffffff\n      and\n      sub\n        /* \"openzeppelin-contracts/contracts/token/ERC721/ERC721.sol\":7453:7643  if (owner == address(0)) {... */\n      tag_286\n      jumpi\n        /* \"openzeppelin-contracts/contracts/token/ERC721/ERC721.sol\":7527:7534  tokenId */\n      dup1\n        /* \"openzeppelin-contracts/contracts/token/ERC721/ERC721.sol\":7504:7535  ERC721NonexistentToken(tokenId) */\n      mload(0x40)\n      0x7e27328900000000000000000000000000000000000000000000000000000000\n      dup2\n      mstore\n      0x04\n      add\n      tag_287\n      swap2\n      swap1\n      tag_69\n      jump\t// in\n    tag_287:\n      mload(0x40)\n      dup1\n      swap2\n      sub\n      swap1\n      revert\n        /* \"openzeppelin-contracts/contracts/token/ERC721/ERC721.sol\":7453:7643  if (owner == address(0)) {... */\n    tag_286:\n        /* \"openzeppelin-contracts/contracts/token/ERC721/ERC721.sol\":7610:7617  spender */\n      dup2\n        /* \"openzeppelin-contracts/contracts/token/ERC721/ERC721.sol\":7619:7626  tokenId */\n      dup2\n        /* \"openzeppelin-contracts/contracts/token/ERC721/ERC721.sol\":7583:7627  ERC721InsufficientApproval(spender, tokenId) */\n      mload(0x40)\n      0x177e802f00000000000000000000000000000000000000000000000000000000\n      dup2\n      mstore\n      0x04\n      add\n      tag_289\n      swap3\n      swap2\n      swap1\n      tag_290\n      jump\t// in\n    tag_289:\n      mload(0x40)\n      dup1\n      swap2\n      sub\n      swap1\n      revert\n        /* \"openzeppelin-contracts/contracts/token/ERC721/ERC721.sol\":7393:7654  if (!_isAuthorized(owner, spender, tokenId)) {... */\n    tag_285:\n        /* \"openzeppelin-contracts/contracts/token/ERC721/ERC721.sol\":7285:7661  function _checkAuthorized(address owner, address spender, uint256 tokenId) internal view virtual {... */\n      pop\n      pop\n      pop\n      jump\t// out\n        /* \"openzeppelin-contracts/contracts/utils/math/Math.sol\":12534:13482  function log10(uint256 value) internal pure returns (uint256) {... */\n    tag_260:\n        /* \"openzeppelin-contracts/contracts/utils/math/Math.sol\":12587:12594  uint256 */\n      0x00\n        /* \"openzeppelin-contracts/contracts/utils/math/Math.sol\":12607:12621  uint256 result */\n      dup1\n        /* \"openzeppelin-contracts/contracts/utils/math/Math.sol\":12624:12625  0 */\n      0x00\n        /* \"openzeppelin-contracts/contracts/utils/math/Math.sol\":12607:12625  uint256 result = 0 */\n      swap1\n      pop\n        /* \"openzeppelin-contracts/contracts/utils/math/Math.sol\":12674:12682  10 ** 64 */\n      0x184f03e93ff9f4daa797ed6e38ed64bf6a1f010000000000000000\n        /* \"openzeppelin-contracts/contracts/utils/math/Math.sol\":12665:12670  value */\n      dup4\n        /* \"openzeppelin-contracts/contracts/utils/math/Math.sol\":12665:12682  value >= 10 ** 64 */\n      lt\n        /* \"openzeppelin-contracts/contracts/utils/math/Math.sol\":12661:12767  if (value >= 10 ** 64) {... */\n      tag_292\n      jumpi\n        /* \"openzeppelin-contracts/contracts/utils/math/Math.sol\":12712:12720  10 ** 64 */\n      0x184f03e93ff9f4daa797ed6e38ed64bf6a1f010000000000000000\n        /* \"openzeppelin-contracts/contracts/utils/math/Math.sol\":12703:12720  value /= 10 ** 64 */\n      dup4\n      dup2\n      tag_293\n      jumpi\n      tag_294\n      tag_269\n      jump\t// in\n    tag_294:\n    tag_293:\n      div\n      swap3\n      pop\n        /* \"openzeppelin-contracts/contracts/utils/math/Math.sol\":12749:12751  64 */\n      0x40\n        /* \"openzeppelin-contracts/contracts/utils/math/Math.sol\":12739:12751  result += 64 */\n      dup2\n      add\n      swap1\n      pop\n        /* \"openzeppelin-contracts/contracts/utils/math/Math.sol\":12661:12767  if (value >= 10 ** 64) {... */\n    tag_292:\n        /* \"openzeppelin-contracts/contracts/utils/math/Math.sol\":12794:12802  10 ** 32 */\n      0x04ee2d6d415b85acef8100000000\n        /* \"openzeppelin-contracts/contracts/utils/math/Math.sol\":12785:12790  value */\n      dup4\n        /* \"openzeppelin-contracts/contracts/utils/math/Math.sol\":12785:12802  value >= 10 ** 32 */\n      lt\n        /* \"openzeppelin-contracts/contracts/utils/math/Math.sol\":12781:12887  if (value >= 10 ** 32) {... */\n      tag_295\n      jumpi\n        /* \"openzeppelin-contracts/contracts/utils/math/Math.sol\":12832:12840  10 ** 32 */\n      0x04ee2d6d415b85acef8100000000\n        /* \"openzeppelin-contracts/contracts/utils/math/Math.sol\":12823:12840  value /= 10 ** 32 */\n      dup4\n      dup2\n      tag_296\n      jumpi\n      tag_297\n      tag_269\n      jump\t// in\n    tag_297:\n    tag_296:\n      div\n      swap3\n      pop\n        /* \"openzeppelin-contracts/contracts/utils/math/Math.sol\":12869:12871  32 */\n      0x20\n        /* \"openzeppelin-contracts/contracts/utils/math/Math.sol\":12859:12871  result += 32 */\n      dup2\n      add\n      swap1\n      pop\n        /* \"openzeppelin-contracts/contracts/utils/math/Math.sol\":12781:12887  if (value >= 10 ** 32) {... */\n    tag_295:\n        /* \"openzeppelin-contracts/contracts/utils/math/Math.sol\":12914:12922  10 ** 16 */\n      0x2386f26fc10000\n        /* \"openzeppelin-contracts/contracts/utils/math/Math.sol\":12905:12910  value */\n      dup4\n        /* \"openzeppelin-contracts/contracts/utils/math/Math.sol\":12905:12922  value >= 10 ** 16 */\n      lt\n        /* \"openzeppelin-contracts/contracts/utils/math/Math.sol\":12901:13007  if (value >= 10 ** 16) {... */\n      tag_298\n      jumpi\n        /* \"openzeppelin-contracts/contracts/utils/math/Math.sol\":12952:12960  10 ** 16 */\n      0x2386f26fc10000\n        /* \"openzeppelin-contracts/contracts/utils/math/Math.sol\":12943:12960  value /= 10 ** 16 */\n      dup4\n      dup2\n      tag_299\n      jumpi\n      tag_300\n      tag_269\n      jump\t// in\n    tag_300:\n    tag_299:\n      div\n      swap3\n      pop\n        /* \"openzeppelin-contracts/contracts/utils/math/Math.sol\":12989:12991  16 */\n      0x10\n        /* \"openzeppelin-contracts/contracts/utils/math/Math.sol\":12979:12991  result += 16 */\n      dup2\n      add\n      swap1\n      pop\n        /* \"openzeppelin-contracts/contracts/utils/math/Math.sol\":12901:13007  if (value >= 10 ** 16) {... */\n    tag_298:\n        /* \"openzeppelin-contracts/contracts/utils/math/Math.sol\":13034:13041  10 ** 8 */\n      0x05f5e100\n        /* \"openzeppelin-contracts/contracts/utils/math/Math.sol\":13025:13030  value */\n      dup4\n        /* \"openzeppelin-contracts/contracts/utils/math/Math.sol\":13025:13041  value >= 10 ** 8 */\n      lt\n        /* \"openzeppelin-contracts/contracts/utils/math/Math.sol\":13021:13124  if (value >= 10 ** 8) {... */\n      tag_301\n      jumpi\n        /* \"openzeppelin-contracts/contracts/utils/math/Math.sol\":13071:13078  10 ** 8 */\n      0x05f5e100\n        /* \"openzeppelin-contracts/contracts/utils/math/Math.sol\":13062:13078  value /= 10 ** 8 */\n      dup4\n      dup2\n      tag_302\n      jumpi\n      tag_303\n      tag_269\n      jump\t// in\n    tag_303:\n    tag_302:\n      div\n      swap3\n      pop\n        /* \"openzeppelin-contracts/contracts/utils/math/Math.sol\":13107:13108  8 */\n      0x08\n        /* \"openzeppelin-contracts/contracts/utils/math/Math.sol\":13097:13108  result += 8 */\n      dup2\n      add\n      swap1\n      pop\n        /* \"openzeppelin-contracts/contracts/utils/math/Math.sol\":13021:13124  if (value >= 10 ** 8) {... */\n    tag_301:\n        /* \"openzeppelin-contracts/contracts/utils/math/Math.sol\":13151:13158  10 ** 4 */\n      0x2710\n        /* \"openzeppelin-contracts/contracts/utils/math/Math.sol\":13142:13147  value */\n      dup4\n        /* \"openzeppelin-contracts/contracts/utils/math/Math.sol\":13142:13158  value >= 10 ** 4 */\n      lt\n        /* \"openzeppelin-contracts/contracts/utils/math/Math.sol\":13138:13241  if (value >= 10 ** 4) {... */\n      tag_304\n      jumpi\n        /* \"openzeppelin-contracts/contracts/utils/math/Math.sol\":13188:13195  10 ** 4 */\n      0x2710\n        /* \"openzeppelin-contracts/contracts/utils/math/Math.sol\":13179:13195  value /= 10 ** 4 */\n      dup4\n      dup2\n      tag_305\n      jumpi\n      tag_306\n      tag_269\n      jump\t// in\n    tag_306:\n    tag_305:\n      div\n      swap3\n      pop\n        /* \"openzeppelin-contracts/contracts/utils/math/Math.sol\":13224:13225  4 */\n      0x04\n        /* \"openzeppelin-contracts/contracts/utils/math/Math.sol\":13214:13225  result += 4 */\n      dup2\n      add\n      swap1\n      pop\n        /* \"openzeppelin-contracts/contracts/utils/math/Math.sol\":13138:13241  if (value >= 10 ** 4) {... */\n    tag_304:\n        /* \"openzeppelin-contracts/contracts/utils/math/Math.sol\":13268:13275  10 ** 2 */\n      0x64\n        /* \"openzeppelin-contracts/contracts/utils/math/Math.sol\":13259:13264  value */\n      dup4\n        /* \"openzeppelin-contracts/contracts/utils/math/Math.sol\":13259:13275  value >= 10 ** 2 */\n      lt\n        /* \"openzeppelin-contracts/contracts/utils/math/Math.sol\":13255:13358  if (value >= 10 ** 2) {... */\n      tag_307\n      jumpi\n        /* \"openzeppelin-contracts/contracts/utils/math/Math.sol\":13305:13312  10 ** 2 */\n      0x64\n        /* \"openzeppelin-contracts/contracts/utils/math/Math.sol\":13296:13312  value /= 10 ** 2 */\n      dup4\n      dup2\n      tag_308\n      jumpi\n      tag_309\n      tag_269\n      jump\t// in\n    tag_309:\n    tag_308:\n      div\n      swap3\n      pop\n        /* \"openzeppelin-contracts/contracts/utils/math/Math.sol\":13341:13342  2 */\n      0x02\n        /* \"openzeppelin-contracts/contracts/utils/math/Math.sol\":13331:13342  result += 2 */\n      dup2\n      add\n      swap1\n      pop\n        /* \"openzeppelin-contracts/contracts/utils/math/Math.sol\":13255:13358  if (value >= 10 ** 2) {... */\n    tag_307:\n        /* \"openzeppelin-contracts/contracts/utils/math/Math.sol\":13385:13392  10 ** 1 */\n      0x0a\n        /* \"openzeppelin-contracts/contracts/utils/math/Math.sol\":13376:13381  value */\n      dup4\n        /* \"openzeppelin-contracts/contracts/utils/math/Math.sol\":13376:13392  value >= 10 ** 1 */\n      lt\n        /* \"openzeppelin-contracts/contracts/utils/math/Math.sol\":13372:13440  if (value >= 10 ** 1) {... */\n      tag_310\n      jumpi\n        /* \"openzeppelin-contracts/contracts/utils/math/Math.sol\":13423:13424  1 */\n      0x01\n        /* \"openzeppelin-contracts/contracts/utils/math/Math.sol\":13413:13424  result += 1 */\n      dup2\n      add\n      swap1\n      pop\n        /* \"openzeppelin-contracts/contracts/utils/math/Math.sol\":13372:13440  if (value >= 10 ** 1) {... */\n    tag_310:\n        /* \"openzeppelin-contracts/contracts/utils/math/Math.sol\":13468:13474  result */\n      dup1\n        /* \"openzeppelin-contracts/contracts/utils/math/Math.sol\":13461:13474  return result */\n      swap2\n      pop\n      pop\n        /* \"openzeppelin-contracts/contracts/utils/math/Math.sol\":12534:13482  function log10(uint256 value) internal pure returns (uint256) {... */\n      swap2\n      swap1\n      pop\n      jump\t// out\n        /* \"openzeppelin-contracts/contracts/token/ERC721/ERC721.sol\":6565:6841  function _isAuthorized(address owner, address spender, uint256 tokenId) internal view virtual returns (bool) {... */\n    tag_284:\n        /* \"openzeppelin-contracts/contracts/token/ERC721/ERC721.sol\":6668:6672  bool */\n      0x00\n        /* \"openzeppelin-contracts/contracts/token/ERC721/ERC721.sol\":6724:6725  0 */\n      dup1\n        /* \"openzeppelin-contracts/contracts/token/ERC721/ERC721.sol\":6705:6726  spender != address(0) */\n      0xffffffffffffffffffffffffffffffffffffffff\n      and\n        /* \"openzeppelin-contracts/contracts/token/ERC721/ERC721.sol\":6705:6712  spender */\n      dup4\n        /* \"openzeppelin-contracts/contracts/token/ERC721/ERC721.sol\":6705:6726  spender != address(0) */\n      0xffffffffffffffffffffffffffffffffffffffff\n      and\n      eq\n      iszero\n        /* \"openzeppelin-contracts/contracts/token/ERC721/ERC721.sol\":6705:6833  spender != address(0) &&... */\n      dup1\n      iszero\n      tag_312\n      jumpi\n      pop\n        /* \"openzeppelin-contracts/contracts/token/ERC721/ERC721.sol\":6753:6760  spender */\n      dup3\n        /* \"openzeppelin-contracts/contracts/token/ERC721/ERC721.sol\":6744:6760  owner == spender */\n      0xffffffffffffffffffffffffffffffffffffffff\n      and\n        /* \"openzeppelin-contracts/contracts/token/ERC721/ERC721.sol\":6744:6749  owner */\n      dup5\n        /* \"openzeppelin-contracts/contracts/token/ERC721/ERC721.sol\":6744:6760  owner == spender */\n      0xffffffffffffffffffffffffffffffffffffffff\n      and\n      eq\n        /* \"openzeppelin-contracts/contracts/token/ERC721/ERC721.sol\":6744:6796  owner == spender || isApprovedForAll(owner, spender) */\n      dup1\n      tag_313\n      jumpi\n      pop\n        /* \"openzeppelin-contracts/contracts/token/ERC721/ERC721.sol\":6764:6796  isApprovedForAll(owner, spender) */\n      tag_314\n        /* \"openzeppelin-contracts/contracts/token/ERC721/ERC721.sol\":6781:6786  owner */\n      dup5\n        /* \"openzeppelin-contracts/contracts/token/ERC721/ERC721.sol\":6788:6795  spender */\n      dup5\n        /* \"openzeppelin-contracts/contracts/token/ERC721/ERC721.sol\":6764:6780  isApprovedForAll */\n      tag_108\n        /* \"openzeppelin-contracts/contracts/token/ERC721/ERC721.sol\":6764:6796  isApprovedForAll(owner, spender) */\n      jump\t// in\n    tag_314:\n        /* \"openzeppelin-contracts/contracts/token/ERC721/ERC721.sol\":6744:6796  owner == spender || isApprovedForAll(owner, spender) */\n    tag_313:\n        /* \"openzeppelin-contracts/contracts/token/ERC721/ERC721.sol\":6744:6832  owner == spender || isApprovedForAll(owner, spender) || _getApproved(tokenId) == spender */\n      dup1\n      tag_315\n      jumpi\n      pop\n        /* \"openzeppelin-contracts/contracts/token/ERC721/ERC721.sol\":6825:6832  spender */\n      dup3\n        /* \"openzeppelin-contracts/contracts/token/ERC721/ERC721.sol\":6800:6832  _getApproved(tokenId) == spender */\n      0xffffffffffffffffffffffffffffffffffffffff\n      and\n        /* \"openzeppelin-contracts/contracts/token/ERC721/ERC721.sol\":6800:6821  _getApproved(tokenId) */\n      tag_316\n        /* \"openzeppelin-contracts/contracts/token/ERC721/ERC721.sol\":6813:6820  tokenId */\n      dup4\n        /* \"openzeppelin-contracts/contracts/token/ERC721/ERC721.sol\":6800:6812  _getApproved */\n      tag_129\n        /* \"openzeppelin-contracts/contracts/token/ERC721/ERC721.sol\":6800:6821  _getApproved(tokenId) */\n      jump\t// in\n    tag_316:\n        /* \"openzeppelin-contracts/contracts/token/ERC721/ERC721.sol\":6800:6832  _getApproved(tokenId) == spender */\n      0xffffffffffffffffffffffffffffffffffffffff\n      and\n      eq\n        /* \"openzeppelin-contracts/contracts/token/ERC721/ERC721.sol\":6744:6832  owner == spender || isApprovedForAll(owner, spender) || _getApproved(tokenId) == spender */\n    tag_315:\n        /* \"openzeppelin-contracts/contracts/token/ERC721/ERC721.sol\":6705:6833  spender != address(0) &&... */\n    tag_312:\n        /* \"openzeppelin-contracts/contracts/token/ERC721/ERC721.sol\":6685:6833  return... */\n      swap1\n      pop\n        /* \"openzeppelin-contracts/contracts/token/ERC721/ERC721.sol\":6565:6841  function _isAuthorized(address owner, address spender, uint256 tokenId) internal view virtual returns (bool) {... */\n      swap4\n      swap3\n      pop\n      pop\n      pop\n      jump\t// out\n    tag_165:\n      mload(0x40)\n      dup1\n      0x80\n      add\n      0x40\n      mstore\n      dup1\n      and(0xffffffffffffffffffffffffffffffffffffffff, 0x00)\n      dup2\n      mstore\n      0x20\n      add\n      and(0xffffffffffffffffffffffffffffffffffffffff, 0x00)\n      dup2\n      mstore\n      0x20\n      add\n      0x00\n      dup2\n      mstore\n      0x20\n      add\n      iszero(iszero(0x00))\n      dup2\n      mstore\n      pop\n      swap1\n      jump\t// out\n        /* \"#utility.yul\":7:82   */\n    tag_317:\n        /* \"#utility.yul\":40:46   */\n      0x00\n        /* \"#utility.yul\":73:75   */\n      0x40\n        /* \"#utility.yul\":67:76   */\n      mload\n        /* \"#utility.yul\":57:76   */\n      swap1\n      pop\n        /* \"#utility.yul\":7:82   */\n      swap1\n      jump\t// out\n        /* \"#utility.yul\":88:205   */\n    tag_318:\n        /* \"#utility.yul\":197:198   */\n      0x00\n        /* \"#utility.yul\":194:195   */\n      dup1\n        /* \"#utility.yul\":187:199   */\n      revert\n        /* \"#utility.yul\":211:328   */\n    tag_319:\n        /* \"#utility.yul\":320:321   */\n      0x00\n        /* \"#utility.yul\":317:318   */\n      dup1\n        /* \"#utility.yul\":310:322   */\n      revert\n        /* \"#utility.yul\":334:483   */\n    tag_320:\n        /* \"#utility.yul\":370:377   */\n      0x00\n        /* \"#utility.yul\":410:476   */\n      0xffffffff00000000000000000000000000000000000000000000000000000000\n        /* \"#utility.yul\":403:408   */\n      dup3\n        /* \"#utility.yul\":399:477   */\n      and\n        /* \"#utility.yul\":388:477   */\n      swap1\n      pop\n        /* \"#utility.yul\":334:483   */\n      swap2\n      swap1\n      pop\n      jump\t// out\n        /* \"#utility.yul\":489:609   */\n    tag_321:\n        /* \"#utility.yul\":561:584   */\n      tag_371\n        /* \"#utility.yul\":578:583   */\n      dup2\n        /* \"#utility.yul\":561:584   */\n      tag_320\n      jump\t// in\n    tag_371:\n        /* \"#utility.yul\":554:559   */\n      dup2\n        /* \"#utility.yul\":551:585   */\n      eq\n        /* \"#utility.yul\":541:603   */\n      tag_372\n      jumpi\n        /* \"#utility.yul\":599:600   */\n      0x00\n        /* \"#utility.yul\":596:597   */\n      dup1\n        /* \"#utility.yul\":589:601   */\n      revert\n        /* \"#utility.yul\":541:603   */\n    tag_372:\n        /* \"#utility.yul\":489:609   */\n      pop\n      jump\t// out\n        /* \"#utility.yul\":615:752   */\n    tag_322:\n        /* \"#utility.yul\":660:665   */\n      0x00\n        /* \"#utility.yul\":698:704   */\n      dup2\n        /* \"#utility.yul\":685:705   */\n      calldataload\n        /* \"#utility.yul\":676:705   */\n      swap1\n      pop\n        /* \"#utility.yul\":714:746   */\n      tag_374\n        /* \"#utility.yul\":740:745   */\n      dup2\n        /* \"#utility.yul\":714:746   */\n      tag_321\n      jump\t// in\n    tag_374:\n        /* \"#utility.yul\":615:752   */\n      swap3\n      swap2\n      pop\n      pop\n      jump\t// out\n        /* \"#utility.yul\":758:1085   */\n    tag_31:\n        /* \"#utility.yul\":816:822   */\n      0x00\n        /* \"#utility.yul\":865:867   */\n      0x20\n        /* \"#utility.yul\":853:862   */\n      dup3\n        /* \"#utility.yul\":844:851   */\n      dup5\n        /* \"#utility.yul\":840:863   */\n      sub\n        /* \"#utility.yul\":836:868   */\n      slt\n        /* \"#utility.yul\":833:952   */\n      iszero\n      tag_376\n      jumpi\n        /* \"#utility.yul\":871:950   */\n      tag_377\n      tag_318\n      jump\t// in\n    tag_377:\n        /* \"#utility.yul\":833:952   */\n    tag_376:\n        /* \"#utility.yul\":991:992   */\n      0x00\n        /* \"#utility.yul\":1016:1068   */\n      tag_378\n        /* \"#utility.yul\":1060:1067   */\n      dup5\n        /* \"#utility.yul\":1051:1057   */\n      dup3\n        /* \"#utility.yul\":1040:1049   */\n      dup6\n        /* \"#utility.yul\":1036:1058   */\n      add\n        /* \"#utility.yul\":1016:1068   */\n      tag_322\n      jump\t// in\n    tag_378:\n        /* \"#utility.yul\":1006:1068   */\n      swap2\n      pop\n        /* \"#utility.yul\":962:1078   */\n      pop\n        /* \"#utility.yul\":758:1085   */\n      swap3\n      swap2\n      pop\n      pop\n      jump\t// out\n        /* \"#utility.yul\":1091:1181   */\n    tag_323:\n        /* \"#utility.yul\":1125:1132   */\n      0x00\n        /* \"#utility.yul\":1168:1173   */\n      dup2\n        /* \"#utility.yul\":1161:1174   */\n      iszero\n        /* \"#utility.yul\":1154:1175   */\n      iszero\n        /* \"#utility.yul\":1143:1175   */\n      swap1\n      pop\n        /* \"#utility.yul\":1091:1181   */\n      swap2\n      swap1\n      pop\n      jump\t// out\n        /* \"#utility.yul\":1187:1296   */\n    tag_324:\n        /* \"#utility.yul\":1268:1289   */\n      tag_381\n        /* \"#utility.yul\":1283:1288   */\n      dup2\n        /* \"#utility.yul\":1268:1289   */\n      tag_323\n      jump\t// in\n    tag_381:\n        /* \"#utility.yul\":1263:1266   */\n      dup3\n        /* \"#utility.yul\":1256:1290   */\n      mstore\n        /* \"#utility.yul\":1187:1296   */\n      pop\n      pop\n      jump\t// out\n        /* \"#utility.yul\":1302:1512   */\n    tag_34:\n        /* \"#utility.yul\":1389:1393   */\n      0x00\n        /* \"#utility.yul\":1427:1429   */\n      0x20\n        /* \"#utility.yul\":1416:1425   */\n      dup3\n        /* \"#utility.yul\":1412:1430   */\n      add\n        /* \"#utility.yul\":1404:1430   */\n      swap1\n      pop\n        /* \"#utility.yul\":1440:1505   */\n      tag_383\n        /* \"#utility.yul\":1502:1503   */\n      0x00\n        /* \"#utility.yul\":1491:1500   */\n      dup4\n        /* \"#utility.yul\":1487:1504   */\n      add\n        /* \"#utility.yul\":1478:1484   */\n      dup5\n        /* \"#utility.yul\":1440:1505   */\n      tag_324\n      jump\t// in\n    tag_383:\n        /* \"#utility.yul\":1302:1512   */\n      swap3\n      swap2\n      pop\n      pop\n      jump\t// out\n        /* \"#utility.yul\":1518:1617   */\n    tag_325:\n        /* \"#utility.yul\":1570:1576   */\n      0x00\n        /* \"#utility.yul\":1604:1609   */\n      dup2\n        /* \"#utility.yul\":1598:1610   */\n      mload\n        /* \"#utility.yul\":1588:1610   */\n      swap1\n      pop\n        /* \"#utility.yul\":1518:1617   */\n      swap2\n      swap1\n      pop\n      jump\t// out\n        /* \"#utility.yul\":1623:1792   */\n    tag_326:\n        /* \"#utility.yul\":1707:1718   */\n      0x00\n        /* \"#utility.yul\":1741:1747   */\n      dup3\n        /* \"#utility.yul\":1736:1739   */\n      dup3\n        /* \"#utility.yul\":1729:1748   */\n      mstore\n        /* \"#utility.yul\":1781:1785   */\n      0x20\n        /* \"#utility.yul\":1776:1779   */\n      dup3\n        /* \"#utility.yul\":1772:1786   */\n      add\n        /* \"#utility.yul\":1757:1786   */\n      swap1\n      pop\n        /* \"#utility.yul\":1623:1792   */\n      swap3\n      swap2\n      pop\n      pop\n      jump\t// out\n        /* \"#utility.yul\":1798:2044   */\n    tag_327:\n        /* \"#utility.yul\":1879:1880   */\n      0x00\n        /* \"#utility.yul\":1889:2002   */\n    tag_387:\n        /* \"#utility.yul\":1903:1909   */\n      dup4\n        /* \"#utility.yul\":1900:1901   */\n      dup2\n        /* \"#utility.yul\":1897:1910   */\n      lt\n        /* \"#utility.yul\":1889:2002   */\n      iszero\n      tag_389\n      jumpi\n        /* \"#utility.yul\":1988:1989   */\n      dup1\n        /* \"#utility.yul\":1983:1986   */\n      dup3\n        /* \"#utility.yul\":1979:1990   */\n      add\n        /* \"#utility.yul\":1973:1991   */\n      mload\n        /* \"#utility.yul\":1969:1970   */\n      dup2\n        /* \"#utility.yul\":1964:1967   */\n      dup5\n        /* \"#utility.yul\":1960:1971   */\n      add\n        /* \"#utility.yul\":1953:1992   */\n      mstore\n        /* \"#utility.yul\":1925:1927   */\n      0x20\n        /* \"#utility.yul\":1922:1923   */\n      dup2\n        /* \"#utility.yul\":1918:1928   */\n      add\n        /* \"#utility.yul\":1913:1928   */\n      swap1\n      pop\n        /* \"#utility.yul\":1889:2002   */\n      jump(tag_387)\n    tag_389:\n        /* \"#utility.yul\":2036:2037   */\n      0x00\n        /* \"#utility.yul\":2027:2033   */\n      dup5\n        /* \"#utility.yul\":2022:2025   */\n      dup5\n        /* \"#utility.yul\":2018:2034   */\n      add\n        /* \"#utility.yul\":2011:2038   */\n      mstore\n        /* \"#utility.yul\":1860:2044   */\n      pop\n        /* \"#utility.yul\":1798:2044   */\n      pop\n      pop\n      pop\n      jump\t// out\n        /* \"#utility.yul\":2050:2152   */\n    tag_328:\n        /* \"#utility.yul\":2091:2097   */\n      0x00\n        /* \"#utility.yul\":2142:2144   */\n      0x1f\n        /* \"#utility.yul\":2138:2145   */\n      not\n        /* \"#utility.yul\":2133:2135   */\n      0x1f\n        /* \"#utility.yul\":2126:2131   */\n      dup4\n        /* \"#utility.yul\":2122:2136   */\n      add\n        /* \"#utility.yul\":2118:2146   */\n      and\n        /* \"#utility.yul\":2108:2146   */\n      swap1\n      pop\n        /* \"#utility.yul\":2050:2152   */\n      swap2\n      swap1\n      pop\n      jump\t// out\n        /* \"#utility.yul\":2158:2535   */\n    tag_329:\n        /* \"#utility.yul\":2246:2249   */\n      0x00\n        /* \"#utility.yul\":2274:2313   */\n      tag_392\n        /* \"#utility.yul\":2307:2312   */\n      dup3\n        /* \"#utility.yul\":2274:2313   */\n      tag_325\n      jump\t// in\n    tag_392:\n        /* \"#utility.yul\":2329:2400   */\n      tag_393\n        /* \"#utility.yul\":2393:2399   */\n      dup2\n        /* \"#utility.yul\":2388:2391   */\n      dup6\n        /* \"#utility.yul\":2329:2400   */\n      tag_326\n      jump\t// in\n    tag_393:\n        /* \"#utility.yul\":2322:2400   */\n      swap4\n      pop\n        /* \"#utility.yul\":2409:2474   */\n      tag_394\n        /* \"#utility.yul\":2467:2473   */\n      dup2\n        /* \"#utility.yul\":2462:2465   */\n      dup6\n        /* \"#utility.yul\":2455:2459   */\n      0x20\n        /* \"#utility.yul\":2448:2453   */\n      dup7\n        /* \"#utility.yul\":2444:2460   */\n      add\n        /* \"#utility.yul\":2409:2474   */\n      tag_327\n      jump\t// in\n    tag_394:\n        /* \"#utility.yul\":2499:2528   */\n      tag_395\n        /* \"#utility.yul\":2521:2527   */\n      dup2\n        /* \"#utility.yul\":2499:2528   */\n      tag_328\n      jump\t// in\n    tag_395:\n        /* \"#utility.yul\":2494:2497   */\n      dup5\n        /* \"#utility.yul\":2490:2529   */\n      add\n        /* \"#utility.yul\":2483:2529   */\n      swap2\n      pop\n        /* \"#utility.yul\":2250:2535   */\n      pop\n        /* \"#utility.yul\":2158:2535   */\n      swap3\n      swap2\n      pop\n      pop\n      jump\t// out\n        /* \"#utility.yul\":2541:2854   */\n    tag_38:\n        /* \"#utility.yul\":2654:2658   */\n      0x00\n        /* \"#utility.yul\":2692:2694   */\n      0x20\n        /* \"#utility.yul\":2681:2690   */\n      dup3\n        /* \"#utility.yul\":2677:2695   */\n      add\n        /* \"#utility.yul\":2669:2695   */\n      swap1\n      pop\n        /* \"#utility.yul\":2741:2750   */\n      dup2\n        /* \"#utility.yul\":2735:2739   */\n      dup2\n        /* \"#utility.yul\":2731:2751   */\n      sub\n        /* \"#utility.yul\":2727:2728   */\n      0x00\n        /* \"#utility.yul\":2716:2725   */\n      dup4\n        /* \"#utility.yul\":2712:2729   */\n      add\n        /* \"#utility.yul\":2705:2752   */\n      mstore\n        /* \"#utility.yul\":2769:2847   */\n      tag_397\n        /* \"#utility.yul\":2842:2846   */\n      dup2\n        /* \"#utility.yul\":2833:2839   */\n      dup5\n        /* \"#utility.yul\":2769:2847   */\n      tag_329\n      jump\t// in\n    tag_397:\n        /* \"#utility.yul\":2761:2847   */\n      swap1\n      pop\n        /* \"#utility.yul\":2541:2854   */\n      swap3\n      swap2\n      pop\n      pop\n      jump\t// out\n        /* \"#utility.yul\":2860:2937   */\n    tag_330:\n        /* \"#utility.yul\":2897:2904   */\n      0x00\n        /* \"#utility.yul\":2926:2931   */\n      dup2\n        /* \"#utility.yul\":2915:2931   */\n      swap1\n      pop\n        /* \"#utility.yul\":2860:2937   */\n      swap2\n      swap1\n      pop\n      jump\t// out\n        /* \"#utility.yul\":2943:3065   */\n    tag_331:\n        /* \"#utility.yul\":3016:3040   */\n      tag_400\n        /* \"#utility.yul\":3034:3039   */\n      dup2\n        /* \"#utility.yul\":3016:3040   */\n      tag_330\n      jump\t// in\n    tag_400:\n        /* \"#utility.yul\":3009:3014   */\n      dup2\n        /* \"#utility.yul\":3006:3041   */\n      eq\n        /* \"#utility.yul\":2996:3059   */\n      tag_401\n      jumpi\n        /* \"#utility.yul\":3055:3056   */\n      0x00\n        /* \"#utility.yul\":3052:3053   */\n      dup1\n        /* \"#utility.yul\":3045:3057   */\n      revert\n        /* \"#utility.yul\":2996:3059   */\n    tag_401:\n        /* \"#utility.yul\":2943:3065   */\n      pop\n      jump\t// out\n        /* \"#utility.yul\":3071:3210   */\n    tag_332:\n        /* \"#utility.yul\":3117:3122   */\n      0x00\n        /* \"#utility.yul\":3155:3161   */\n      dup2\n        /* \"#utility.yul\":3142:3162   */\n      calldataload\n        /* \"#utility.yul\":3133:3162   */\n      swap1\n      pop\n        /* \"#utility.yul\":3171:3204   */\n      tag_403\n        /* \"#utility.yul\":3198:3203   */\n      dup2\n        /* \"#utility.yul\":3171:3204   */\n      tag_331\n      jump\t// in\n    tag_403:\n        /* \"#utility.yul\":3071:3210   */\n      swap3\n      swap2\n      pop\n      pop\n      jump\t// out\n        /* \"#utility.yul\":3216:3545   */\n    tag_41:\n        /* \"#utility.yul\":3275:3281   */\n      0x00\n        /* \"#utility.yul\":3324:3326   */\n      0x20\n        /* \"#utility.yul\":3312:3321   */\n      dup3\n        /* \"#utility.yul\":3303:3310   */\n      dup5\n        /* \"#utility.yul\":3299:3322   */\n      sub\n        /* \"#utility.yul\":3295:3327   */\n      slt\n        /* \"#utility.yul\":3292:3411   */\n      iszero\n      tag_405\n      jumpi\n        /* \"#utility.yul\":3330:3409   */\n      tag_406\n      tag_318\n      jump\t// in\n    tag_406:\n        /* \"#utility.yul\":3292:3411   */\n    tag_405:\n        /* \"#utility.yul\":3450:3451   */\n      0x00\n        /* \"#utility.yul\":3475:3528   */\n      tag_407\n        /* \"#utility.yul\":3520:3527   */\n      dup5\n        /* \"#utility.yul\":3511:3517   */\n      dup3\n        /* \"#utility.yul\":3500:3509   */\n      dup6\n        /* \"#utility.yul\":3496:3518   */\n      add\n        /* \"#utility.yul\":3475:3528   */\n      tag_332\n      jump\t// in\n    tag_407:\n        /* \"#utility.yul\":3465:3528   */\n      swap2\n      pop\n        /* \"#utility.yul\":3421:3538   */\n      pop\n        /* \"#utility.yul\":3216:3545   */\n      swap3\n      swap2\n      pop\n      pop\n      jump\t// out\n        /* \"#utility.yul\":3551:3677   */\n    tag_333:\n        /* \"#utility.yul\":3588:3595   */\n      0x00\n        /* \"#utility.yul\":3628:3670   */\n      0xffffffffffffffffffffffffffffffffffffffff\n        /* \"#utility.yul\":3621:3626   */\n      dup3\n        /* \"#utility.yul\":3617:3671   */\n      and\n        /* \"#utility.yul\":3606:3671   */\n      swap1\n      pop\n        /* \"#utility.yul\":3551:3677   */\n      swap2\n      swap1\n      pop\n      jump\t// out\n        /* \"#utility.yul\":3683:3779   */\n    tag_334:\n        /* \"#utility.yul\":3720:3727   */\n      0x00\n        /* \"#utility.yul\":3749:3773   */\n      tag_410\n        /* \"#utility.yul\":3767:3772   */\n      dup3\n        /* \"#utility.yul\":3749:3773   */\n      tag_333\n      jump\t// in\n    tag_410:\n        /* \"#utility.yul\":3738:3773   */\n      swap1\n      pop\n        /* \"#utility.yul\":3683:3779   */\n      swap2\n      swap1\n      pop\n      jump\t// out\n        /* \"#utility.yul\":3785:3903   */\n    tag_335:\n        /* \"#utility.yul\":3872:3896   */\n      tag_412\n        /* \"#utility.yul\":3890:3895   */\n      dup2\n        /* \"#utility.yul\":3872:3896   */\n      tag_334\n      jump\t// in\n    tag_412:\n        /* \"#utility.yul\":3867:3870   */\n      dup3\n        /* \"#utility.yul\":3860:3897   */\n      mstore\n        /* \"#utility.yul\":3785:3903   */\n      pop\n      pop\n      jump\t// out\n        /* \"#utility.yul\":3909:4131   */\n    tag_44:\n        /* \"#utility.yul\":4002:4006   */\n      0x00\n        /* \"#utility.yul\":4040:4042   */\n      0x20\n        /* \"#utility.yul\":4029:4038   */\n      dup3\n        /* \"#utility.yul\":4025:4043   */\n      add\n        /* \"#utility.yul\":4017:4043   */\n      swap1\n      pop\n        /* \"#utility.yul\":4053:4124   */\n      tag_414\n        /* \"#utility.yul\":4121:4122   */\n      0x00\n        /* \"#utility.yul\":4110:4119   */\n      dup4\n        /* \"#utility.yul\":4106:4123   */\n      add\n        /* \"#utility.yul\":4097:4103   */\n      dup5\n        /* \"#utility.yul\":4053:4124   */\n      tag_335\n      jump\t// in\n    tag_414:\n        /* \"#utility.yul\":3909:4131   */\n      swap3\n      swap2\n      pop\n      pop\n      jump\t// out\n        /* \"#utility.yul\":4137:4259   */\n    tag_336:\n        /* \"#utility.yul\":4210:4234   */\n      tag_416\n        /* \"#utility.yul\":4228:4233   */\n      dup2\n        /* \"#utility.yul\":4210:4234   */\n      tag_334\n      jump\t// in\n    tag_416:\n        /* \"#utility.yul\":4203:4208   */\n      dup2\n        /* \"#utility.yul\":4200:4235   */\n      eq\n        /* \"#utility.yul\":4190:4253   */\n      tag_417\n      jumpi\n        /* \"#utility.yul\":4249:4250   */\n      0x00\n        /* \"#utility.yul\":4246:4247   */\n      dup1\n        /* \"#utility.yul\":4239:4251   */\n      revert\n        /* \"#utility.yul\":4190:4253   */\n    tag_417:\n        /* \"#utility.yul\":4137:4259   */\n      pop\n      jump\t// out\n        /* \"#utility.yul\":4265:4404   */\n    tag_337:\n        /* \"#utility.yul\":4311:4316   */\n      0x00\n        /* \"#utility.yul\":4349:4355   */\n      dup2\n        /* \"#utility.yul\":4336:4356   */\n      calldataload\n        /* \"#utility.yul\":4327:4356   */\n      swap1\n      pop\n        /* \"#utility.yul\":4365:4398   */\n      tag_419\n        /* \"#utility.yul\":4392:4397   */\n      dup2\n        /* \"#utility.yul\":4365:4398   */\n      tag_336\n      jump\t// in\n    tag_419:\n        /* \"#utility.yul\":4265:4404   */\n      swap3\n      swap2\n      pop\n      pop\n      jump\t// out\n        /* \"#utility.yul\":4410:4884   */\n    tag_47:\n        /* \"#utility.yul\":4478:4484   */\n      0x00\n        /* \"#utility.yul\":4486:4492   */\n      dup1\n        /* \"#utility.yul\":4535:4537   */\n      0x40\n        /* \"#utility.yul\":4523:4532   */\n      dup4\n        /* \"#utility.yul\":4514:4521   */\n      dup6\n        /* \"#utility.yul\":4510:4533   */\n      sub\n        /* \"#utility.yul\":4506:4538   */\n      slt\n        /* \"#utility.yul\":4503:4622   */\n      iszero\n      tag_421\n      jumpi\n        /* \"#utility.yul\":4541:4620   */\n      tag_422\n      tag_318\n      jump\t// in\n    tag_422:\n        /* \"#utility.yul\":4503:4622   */\n    tag_421:\n        /* \"#utility.yul\":4661:4662   */\n      0x00\n        /* \"#utility.yul\":4686:4739   */\n      tag_423\n        /* \"#utility.yul\":4731:4738   */\n      dup6\n        /* \"#utility.yul\":4722:4728   */\n      dup3\n        /* \"#utility.yul\":4711:4720   */\n      dup7\n        /* \"#utility.yul\":4707:4729   */\n      add\n        /* \"#utility.yul\":4686:4739   */\n      tag_337\n      jump\t// in\n    tag_423:\n        /* \"#utility.yul\":4676:4739   */\n      swap3\n      pop\n        /* \"#utility.yul\":4632:4749   */\n      pop\n        /* \"#utility.yul\":4788:4790   */\n      0x20\n        /* \"#utility.yul\":4814:4867   */\n      tag_424\n        /* \"#utility.yul\":4859:4866   */\n      dup6\n        /* \"#utility.yul\":4850:4856   */\n      dup3\n        /* \"#utility.yul\":4839:4848   */\n      dup7\n        /* \"#utility.yul\":4835:4857   */\n      add\n        /* \"#utility.yul\":4814:4867   */\n      tag_332\n      jump\t// in\n    tag_424:\n        /* \"#utility.yul\":4804:4867   */\n      swap2\n      pop\n        /* \"#utility.yul\":4759:4877   */\n      pop\n        /* \"#utility.yul\":4410:4884   */\n      swap3\n      pop\n      swap3\n      swap1\n      pop\n      jump\t// out\n        /* \"#utility.yul\":4890:5509   */\n    tag_51:\n        /* \"#utility.yul\":4967:4973   */\n      0x00\n        /* \"#utility.yul\":4975:4981   */\n      dup1\n        /* \"#utility.yul\":4983:4989   */\n      0x00\n        /* \"#utility.yul\":5032:5034   */\n      0x60\n        /* \"#utility.yul\":5020:5029   */\n      dup5\n        /* \"#utility.yul\":5011:5018   */\n      dup7\n        /* \"#utility.yul\":5007:5030   */\n      sub\n        /* \"#utility.yul\":5003:5035   */\n      slt\n        /* \"#utility.yul\":5000:5119   */\n      iszero\n      tag_426\n      jumpi\n        /* \"#utility.yul\":5038:5117   */\n      tag_427\n      tag_318\n      jump\t// in\n    tag_427:\n        /* \"#utility.yul\":5000:5119   */\n    tag_426:\n        /* \"#utility.yul\":5158:5159   */\n      0x00\n        /* \"#utility.yul\":5183:5236   */\n      tag_428\n        /* \"#utility.yul\":5228:5235   */\n      dup7\n        /* \"#utility.yul\":5219:5225   */\n      dup3\n        /* \"#utility.yul\":5208:5217   */\n      dup8\n        /* \"#utility.yul\":5204:5226   */\n      add\n        /* \"#utility.yul\":5183:5236   */\n      tag_337\n      jump\t// in\n    tag_428:\n        /* \"#utility.yul\":5173:5236   */\n      swap4\n      pop\n        /* \"#utility.yul\":5129:5246   */\n      pop\n        /* \"#utility.yul\":5285:5287   */\n      0x20\n        /* \"#utility.yul\":5311:5364   */\n      tag_429\n        /* \"#utility.yul\":5356:5363   */\n      dup7\n        /* \"#utility.yul\":5347:5353   */\n      dup3\n        /* \"#utility.yul\":5336:5345   */\n      dup8\n        /* \"#utility.yul\":5332:5354   */\n      add\n        /* \"#utility.yul\":5311:5364   */\n      tag_337\n      jump\t// in\n    tag_429:\n        /* \"#utility.yul\":5301:5364   */\n      swap3\n      pop\n        /* \"#utility.yul\":5256:5374   */\n      pop\n        /* \"#utility.yul\":5413:5415   */\n      0x40\n        /* \"#utility.yul\":5439:5492   */\n      tag_430\n        /* \"#utility.yul\":5484:5491   */\n      dup7\n        /* \"#utility.yul\":5475:5481   */\n      dup3\n        /* \"#utility.yul\":5464:5473   */\n      dup8\n        /* \"#utility.yul\":5460:5482   */\n      add\n        /* \"#utility.yul\":5439:5492   */\n      tag_332\n      jump\t// in\n    tag_430:\n        /* \"#utility.yul\":5429:5492   */\n      swap2\n      pop\n        /* \"#utility.yul\":5384:5502   */\n      pop\n        /* \"#utility.yul\":4890:5509   */\n      swap3\n      pop\n      swap3\n      pop\n      swap3\n      jump\t// out\n        /* \"#utility.yul\":5515:5844   */\n    tag_66:\n        /* \"#utility.yul\":5574:5580   */\n      0x00\n        /* \"#utility.yul\":5623:5625   */\n      0x20\n        /* \"#utility.yul\":5611:5620   */\n      dup3\n        /* \"#utility.yul\":5602:5609   */\n      dup5\n        /* \"#utility.yul\":5598:5621   */\n      sub\n        /* \"#utility.yul\":5594:5626   */\n      slt\n        /* \"#utility.yul\":5591:5710   */\n      iszero\n      tag_432\n      jumpi\n        /* \"#utility.yul\":5629:5708   */\n      tag_433\n      tag_318\n      jump\t// in\n    tag_433:\n        /* \"#utility.yul\":5591:5710   */\n    tag_432:\n        /* \"#utility.yul\":5749:5750   */\n      0x00\n        /* \"#utility.yul\":5774:5827   */\n      tag_434\n        /* \"#utility.yul\":5819:5826   */\n      dup5\n        /* \"#utility.yul\":5810:5816   */\n      dup3\n        /* \"#utility.yul\":5799:5808   */\n      dup6\n        /* \"#utility.yul\":5795:5817   */\n      add\n        /* \"#utility.yul\":5774:5827   */\n      tag_337\n      jump\t// in\n    tag_434:\n        /* \"#utility.yul\":5764:5827   */\n      swap2\n      pop\n        /* \"#utility.yul\":5720:5837   */\n      pop\n        /* \"#utility.yul\":5515:5844   */\n      swap3\n      swap2\n      pop\n      pop\n      jump\t// out\n        /* \"#utility.yul\":5850:5968   */\n    tag_338:\n        /* \"#utility.yul\":5937:5961   */\n      tag_436\n        /* \"#utility.yul\":5955:5960   */\n      dup2\n        /* \"#utility.yul\":5937:5961   */\n      tag_330\n      jump\t// in\n    tag_436:\n        /* \"#utility.yul\":5932:5935   */\n      dup3\n        /* \"#utility.yul\":5925:5962   */\n      mstore\n        /* \"#utility.yul\":5850:5968   */\n      pop\n      pop\n      jump\t// out\n        /* \"#utility.yul\":5974:6196   */\n    tag_69:\n        /* \"#utility.yul\":6067:6071   */\n      0x00\n        /* \"#utility.yul\":6105:6107   */\n      0x20\n        /* \"#utility.yul\":6094:6103   */\n      dup3\n        /* \"#utility.yul\":6090:6108   */\n      add\n        /* \"#utility.yul\":6082:6108   */\n      swap1\n      pop\n        /* \"#utility.yul\":6118:6189   */\n      tag_438\n        /* \"#utility.yul\":6186:6187   */\n      0x00\n        /* \"#utility.yul\":6175:6184   */\n      dup4\n        /* \"#utility.yul\":6171:6188   */\n      add\n        /* \"#utility.yul\":6162:6168   */\n      dup5\n        /* \"#utility.yul\":6118:6189   */\n      tag_338\n      jump\t// in\n    tag_438:\n        /* \"#utility.yul\":5974:6196   */\n      swap3\n      swap2\n      pop\n      pop\n      jump\t// out\n        /* \"#utility.yul\":6202:6310   */\n    tag_339:\n        /* \"#utility.yul\":6279:6303   */\n      tag_440\n        /* \"#utility.yul\":6297:6302   */\n      dup2\n        /* \"#utility.yul\":6279:6303   */\n      tag_334\n      jump\t// in\n    tag_440:\n        /* \"#utility.yul\":6274:6277   */\n      dup3\n        /* \"#utility.yul\":6267:6304   */\n      mstore\n        /* \"#utility.yul\":6202:6310   */\n      pop\n      pop\n      jump\t// out\n        /* \"#utility.yul\":6316:6376   */\n    tag_340:\n        /* \"#utility.yul\":6344:6347   */\n      0x00\n        /* \"#utility.yul\":6365:6370   */\n      dup2\n        /* \"#utility.yul\":6358:6370   */\n      swap1\n      pop\n        /* \"#utility.yul\":6316:6376   */\n      swap2\n      swap1\n      pop\n      jump\t// out\n        /* \"#utility.yul\":6382:6524   */\n    tag_341:\n        /* \"#utility.yul\":6432:6441   */\n      0x00\n        /* \"#utility.yul\":6465:6518   */\n      tag_443\n        /* \"#utility.yul\":6483:6517   */\n      tag_444\n        /* \"#utility.yul\":6492:6516   */\n      tag_445\n        /* \"#utility.yul\":6510:6515   */\n      dup5\n        /* \"#utility.yul\":6492:6516   */\n      tag_333\n      jump\t// in\n    tag_445:\n        /* \"#utility.yul\":6483:6517   */\n      tag_340\n      jump\t// in\n    tag_444:\n        /* \"#utility.yul\":6465:6518   */\n      tag_333\n      jump\t// in\n    tag_443:\n        /* \"#utility.yul\":6452:6518   */\n      swap1\n      pop\n        /* \"#utility.yul\":6382:6524   */\n      swap2\n      swap1\n      pop\n      jump\t// out\n        /* \"#utility.yul\":6530:6656   */\n    tag_342:\n        /* \"#utility.yul\":6580:6589   */\n      0x00\n        /* \"#utility.yul\":6613:6650   */\n      tag_447\n        /* \"#utility.yul\":6644:6649   */\n      dup3\n        /* \"#utility.yul\":6613:6650   */\n      tag_341\n      jump\t// in\n    tag_447:\n        /* \"#utility.yul\":6600:6650   */\n      swap1\n      pop\n        /* \"#utility.yul\":6530:6656   */\n      swap2\n      swap1\n      pop\n      jump\t// out\n        /* \"#utility.yul\":6662:6802   */\n    tag_343:\n        /* \"#utility.yul\":6726:6735   */\n      0x00\n        /* \"#utility.yul\":6759:6796   */\n      tag_449\n        /* \"#utility.yul\":6790:6795   */\n      dup3\n        /* \"#utility.yul\":6759:6796   */\n      tag_342\n      jump\t// in\n    tag_449:\n        /* \"#utility.yul\":6746:6796   */\n      swap1\n      pop\n        /* \"#utility.yul\":6662:6802   */\n      swap2\n      swap1\n      pop\n      jump\t// out\n        /* \"#utility.yul\":6808:6957   */\n    tag_344:\n        /* \"#utility.yul\":6899:6950   */\n      tag_451\n        /* \"#utility.yul\":6944:6949   */\n      dup2\n        /* \"#utility.yul\":6899:6950   */\n      tag_343\n      jump\t// in\n    tag_451:\n        /* \"#utility.yul\":6894:6897   */\n      dup3\n        /* \"#utility.yul\":6887:6951   */\n      mstore\n        /* \"#utility.yul\":6808:6957   */\n      pop\n      pop\n      jump\t// out\n        /* \"#utility.yul\":6963:7071   */\n    tag_345:\n        /* \"#utility.yul\":7040:7064   */\n      tag_453\n        /* \"#utility.yul\":7058:7063   */\n      dup2\n        /* \"#utility.yul\":7040:7064   */\n      tag_330\n      jump\t// in\n    tag_453:\n        /* \"#utility.yul\":7035:7038   */\n      dup3\n        /* \"#utility.yul\":7028:7065   */\n      mstore\n        /* \"#utility.yul\":6963:7071   */\n      pop\n      pop\n      jump\t// out\n        /* \"#utility.yul\":7077:7176   */\n    tag_346:\n        /* \"#utility.yul\":7148:7169   */\n      tag_455\n        /* \"#utility.yul\":7163:7168   */\n      dup2\n        /* \"#utility.yul\":7148:7169   */\n      tag_323\n      jump\t// in\n    tag_455:\n        /* \"#utility.yul\":7143:7146   */\n      dup3\n        /* \"#utility.yul\":7136:7170   */\n      mstore\n        /* \"#utility.yul\":7077:7176   */\n      pop\n      pop\n      jump\t// out\n        /* \"#utility.yul\":7226:8103   */\n    tag_347:\n        /* \"#utility.yul\":7375:7379   */\n      0x80\n        /* \"#utility.yul\":7370:7373   */\n      dup3\n        /* \"#utility.yul\":7366:7380   */\n      add\n        /* \"#utility.yul\":7470:7474   */\n      0x00\n        /* \"#utility.yul\":7463:7468   */\n      dup3\n        /* \"#utility.yul\":7459:7475   */\n      add\n        /* \"#utility.yul\":7453:7476   */\n      mload\n        /* \"#utility.yul\":7489:7552   */\n      tag_457\n        /* \"#utility.yul\":7546:7550   */\n      0x00\n        /* \"#utility.yul\":7541:7544   */\n      dup6\n        /* \"#utility.yul\":7537:7551   */\n      add\n        /* \"#utility.yul\":7523:7535   */\n      dup3\n        /* \"#utility.yul\":7489:7552   */\n      tag_339\n      jump\t// in\n    tag_457:\n        /* \"#utility.yul\":7390:7562   */\n      pop\n        /* \"#utility.yul\":7645:7649   */\n      0x20\n        /* \"#utility.yul\":7638:7643   */\n      dup3\n        /* \"#utility.yul\":7634:7650   */\n      add\n        /* \"#utility.yul\":7628:7651   */\n      mload\n        /* \"#utility.yul\":7664:7741   */\n      tag_458\n        /* \"#utility.yul\":7735:7739   */\n      0x20\n        /* \"#utility.yul\":7730:7733   */\n      dup6\n        /* \"#utility.yul\":7726:7740   */\n      add\n        /* \"#utility.yul\":7712:7724   */\n      dup3\n        /* \"#utility.yul\":7664:7741   */\n      tag_344\n      jump\t// in\n    tag_458:\n        /* \"#utility.yul\":7572:7751   */\n      pop\n        /* \"#utility.yul\":7834:7838   */\n      0x40\n        /* \"#utility.yul\":7827:7832   */\n      dup3\n        /* \"#utility.yul\":7823:7839   */\n      add\n        /* \"#utility.yul\":7817:7840   */\n      mload\n        /* \"#utility.yul\":7853:7916   */\n      tag_459\n        /* \"#utility.yul\":7910:7914   */\n      0x40\n        /* \"#utility.yul\":7905:7908   */\n      dup6\n        /* \"#utility.yul\":7901:7915   */\n      add\n        /* \"#utility.yul\":7887:7899   */\n      dup3\n        /* \"#utility.yul\":7853:7916   */\n      tag_345\n      jump\t// in\n    tag_459:\n        /* \"#utility.yul\":7761:7926   */\n      pop\n        /* \"#utility.yul\":8010:8014   */\n      0x60\n        /* \"#utility.yul\":8003:8008   */\n      dup3\n        /* \"#utility.yul\":7999:8015   */\n      add\n        /* \"#utility.yul\":7993:8016   */\n      mload\n        /* \"#utility.yul\":8029:8086   */\n      tag_460\n        /* \"#utility.yul\":8080:8084   */\n      0x60\n        /* \"#utility.yul\":8075:8078   */\n      dup6\n        /* \"#utility.yul\":8071:8085   */\n      add\n        /* \"#utility.yul\":8057:8069   */\n      dup3\n        /* \"#utility.yul\":8029:8086   */\n      tag_346\n      jump\t// in\n    tag_460:\n        /* \"#utility.yul\":7936:8096   */\n      pop\n        /* \"#utility.yul\":7344:8103   */\n      pop\n        /* \"#utility.yul\":7226:8103   */\n      pop\n      pop\n      jump\t// out\n        /* \"#utility.yul\":8109:8436   */\n    tag_75:\n        /* \"#utility.yul\":8254:8258   */\n      0x00\n        /* \"#utility.yul\":8292:8295   */\n      0x80\n        /* \"#utility.yul\":8281:8290   */\n      dup3\n        /* \"#utility.yul\":8277:8296   */\n      add\n        /* \"#utility.yul\":8269:8296   */\n      swap1\n      pop\n        /* \"#utility.yul\":8306:8429   */\n      tag_462\n        /* \"#utility.yul\":8426:8427   */\n      0x00\n        /* \"#utility.yul\":8415:8424   */\n      dup4\n        /* \"#utility.yul\":8411:8428   */\n      add\n        /* \"#utility.yul\":8402:8408   */\n      dup5\n        /* \"#utility.yul\":8306:8429   */\n      tag_347\n      jump\t// in\n    tag_462:\n        /* \"#utility.yul\":8109:8436   */\n      swap3\n      swap2\n      pop\n      pop\n      jump\t// out\n        /* \"#utility.yul\":8442:8558   */\n    tag_348:\n        /* \"#utility.yul\":8512:8533   */\n      tag_464\n        /* \"#utility.yul\":8527:8532   */\n      dup2\n        /* \"#utility.yul\":8512:8533   */\n      tag_323\n      jump\t// in\n    tag_464:\n        /* \"#utility.yul\":8505:8510   */\n      dup2\n        /* \"#utility.yul\":8502:8534   */\n      eq\n        /* \"#utility.yul\":8492:8552   */\n      tag_465\n      jumpi\n        /* \"#utility.yul\":8548:8549   */\n      0x00\n        /* \"#utility.yul\":8545:8546   */\n      dup1\n        /* \"#utility.yul\":8538:8550   */\n      revert\n        /* \"#utility.yul\":8492:8552   */\n    tag_465:\n        /* \"#utility.yul\":8442:8558   */\n      pop\n      jump\t// out\n        /* \"#utility.yul\":8564:8697   */\n    tag_349:\n        /* \"#utility.yul\":8607:8612   */\n      0x00\n        /* \"#utility.yul\":8645:8651   */\n      dup2\n        /* \"#utility.yul\":8632:8652   */\n      calldataload\n        /* \"#utility.yul\":8623:8652   */\n      swap1\n      pop\n        /* \"#utility.yul\":8661:8691   */\n      tag_467\n        /* \"#utility.yul\":8685:8690   */\n      dup2\n        /* \"#utility.yul\":8661:8691   */\n      tag_348\n      jump\t// in\n    tag_467:\n        /* \"#utility.yul\":8564:8697   */\n      swap3\n      swap2\n      pop\n      pop\n      jump\t// out\n        /* \"#utility.yul\":8703:9171   */\n    tag_95:\n        /* \"#utility.yul\":8768:8774   */\n      0x00\n        /* \"#utility.yul\":8776:8782   */\n      dup1\n        /* \"#utility.yul\":8825:8827   */\n      0x40\n        /* \"#utility.yul\":8813:8822   */\n      dup4\n        /* \"#utility.yul\":8804:8811   */\n      dup6\n        /* \"#utility.yul\":8800:8823   */\n      sub\n        /* \"#utility.yul\":8796:8828   */\n      slt\n        /* \"#utility.yul\":8793:8912   */\n      iszero\n      tag_469\n      jumpi\n        /* \"#utility.yul\":8831:8910   */\n      tag_470\n      tag_318\n      jump\t// in\n    tag_470:\n        /* \"#utility.yul\":8793:8912   */\n    tag_469:\n        /* \"#utility.yul\":8951:8952   */\n      0x00\n        /* \"#utility.yul\":8976:9029   */\n      tag_471\n        /* \"#utility.yul\":9021:9028   */\n      dup6\n        /* \"#utility.yul\":9012:9018   */\n      dup3\n        /* \"#utility.yul\":9001:9010   */\n      dup7\n        /* \"#utility.yul\":8997:9019   */\n      add\n        /* \"#utility.yul\":8976:9029   */\n      tag_337\n      jump\t// in\n    tag_471:\n        /* \"#utility.yul\":8966:9029   */\n      swap3\n      pop\n        /* \"#utility.yul\":8922:9039   */\n      pop\n        /* \"#utility.yul\":9078:9080   */\n      0x20\n        /* \"#utility.yul\":9104:9154   */\n      tag_472\n        /* \"#utility.yul\":9146:9153   */\n      dup6\n        /* \"#utility.yul\":9137:9143   */\n      dup3\n        /* \"#utility.yul\":9126:9135   */\n      dup7\n        /* \"#utility.yul\":9122:9144   */\n      add\n        /* \"#utility.yul\":9104:9154   */\n      tag_349\n      jump\t// in\n    tag_472:\n        /* \"#utility.yul\":9094:9154   */\n      swap2\n      pop\n        /* \"#utility.yul\":9049:9164   */\n      pop\n        /* \"#utility.yul\":8703:9171   */\n      swap3\n      pop\n      swap3\n      swap1\n      pop\n      jump\t// out\n        /* \"#utility.yul\":9177:9294   */\n    tag_350:\n        /* \"#utility.yul\":9286:9287   */\n      0x00\n        /* \"#utility.yul\":9283:9284   */\n      dup1\n        /* \"#utility.yul\":9276:9288   */\n      revert\n        /* \"#utility.yul\":9300:9417   */\n    tag_351:\n        /* \"#utility.yul\":9409:9410   */\n      0x00\n        /* \"#utility.yul\":9406:9407   */\n      dup1\n        /* \"#utility.yul\":9399:9411   */\n      revert\n        /* \"#utility.yul\":9423:9603   */\n    tag_263:\n        /* \"#utility.yul\":9471:9548   */\n      0x4e487b7100000000000000000000000000000000000000000000000000000000\n        /* \"#utility.yul\":9468:9469   */\n      0x00\n        /* \"#utility.yul\":9461:9549   */\n      mstore\n        /* \"#utility.yul\":9568:9572   */\n      0x41\n        /* \"#utility.yul\":9565:9566   */\n      0x04\n        /* \"#utility.yul\":9558:9573   */\n      mstore\n        /* \"#utility.yul\":9592:9596   */\n      0x24\n        /* \"#utility.yul\":9589:9590   */\n      0x00\n        /* \"#utility.yul\":9582:9597   */\n      revert\n        /* \"#utility.yul\":9609:9890   */\n    tag_352:\n        /* \"#utility.yul\":9692:9719   */\n      tag_477\n        /* \"#utility.yul\":9714:9718   */\n      dup3\n        /* \"#utility.yul\":9692:9719   */\n      tag_328\n      jump\t// in\n    tag_477:\n        /* \"#utility.yul\":9684:9690   */\n      dup2\n        /* \"#utility.yul\":9680:9720   */\n      add\n        /* \"#utility.yul\":9822:9828   */\n      dup2\n        /* \"#utility.yul\":9810:9820   */\n      dup2\n        /* \"#utility.yul\":9807:9829   */\n      lt\n        /* \"#utility.yul\":9786:9804   */\n      0xffffffffffffffff\n        /* \"#utility.yul\":9774:9784   */\n      dup3\n        /* \"#utility.yul\":9771:9805   */\n      gt\n        /* \"#utility.yul\":9768:9830   */\n      or\n        /* \"#utility.yul\":9765:9853   */\n      iszero\n      tag_478\n      jumpi\n        /* \"#utility.yul\":9833:9851   */\n      tag_479\n      tag_263\n      jump\t// in\n    tag_479:\n        /* \"#utility.yul\":9765:9853   */\n    tag_478:\n        /* \"#utility.yul\":9873:9883   */\n      dup1\n        /* \"#utility.yul\":9869:9871   */\n      0x40\n        /* \"#utility.yul\":9862:9884   */\n      mstore\n        /* \"#utility.yul\":9652:9890   */\n      pop\n        /* \"#utility.yul\":9609:9890   */\n      pop\n      pop\n      jump\t// out\n        /* \"#utility.yul\":9896:10025   */\n    tag_353:\n        /* \"#utility.yul\":9930:9936   */\n      0x00\n        /* \"#utility.yul\":9957:9977   */\n      tag_481\n      tag_317\n      jump\t// in\n    tag_481:\n        /* \"#utility.yul\":9947:9977   */\n      swap1\n      pop\n        /* \"#utility.yul\":9986:10019   */\n      tag_482\n        /* \"#utility.yul\":10014:10018   */\n      dup3\n        /* \"#utility.yul\":10006:10012   */\n      dup3\n        /* \"#utility.yul\":9986:10019   */\n      tag_352\n      jump\t// in\n    tag_482:\n        /* \"#utility.yul\":9896:10025   */\n      swap2\n      swap1\n      pop\n      jump\t// out\n        /* \"#utility.yul\":10031:10338   */\n    tag_354:\n        /* \"#utility.yul\":10092:10096   */\n      0x00\n        /* \"#utility.yul\":10182:10200   */\n      0xffffffffffffffff\n        /* \"#utility.yul\":10174:10180   */\n      dup3\n        /* \"#utility.yul\":10171:10201   */\n      gt\n        /* \"#utility.yul\":10168:10224   */\n      iszero\n      tag_484\n      jumpi\n        /* \"#utility.yul\":10204:10222   */\n      tag_485\n      tag_263\n      jump\t// in\n    tag_485:\n        /* \"#utility.yul\":10168:10224   */\n    tag_484:\n        /* \"#utility.yul\":10242:10271   */\n      tag_486\n        /* \"#utility.yul\":10264:10270   */\n      dup3\n        /* \"#utility.yul\":10242:10271   */\n      tag_328\n      jump\t// in\n    tag_486:\n        /* \"#utility.yul\":10234:10271   */\n      swap1\n      pop\n        /* \"#utility.yul\":10326:10330   */\n      0x20\n        /* \"#utility.yul\":10320:10324   */\n      dup2\n        /* \"#utility.yul\":10316:10331   */\n      add\n        /* \"#utility.yul\":10308:10331   */\n      swap1\n      pop\n        /* \"#utility.yul\":10031:10338   */\n      swap2\n      swap1\n      pop\n      jump\t// out\n        /* \"#utility.yul\":10344:10490   */\n    tag_355:\n        /* \"#utility.yul\":10441:10447   */\n      dup3\n        /* \"#utility.yul\":10436:10439   */\n      dup2\n        /* \"#utility.yul\":10431:10434   */\n      dup4\n        /* \"#utility.yul\":10418:10448   */\n      calldatacopy\n        /* \"#utility.yul\":10482:10483   */\n      0x00\n        /* \"#utility.yul\":10473:10479   */\n      dup4\n        /* \"#utility.yul\":10468:10471   */\n      dup4\n        /* \"#utility.yul\":10464:10480   */\n      add\n        /* \"#utility.yul\":10457:10484   */\n      mstore\n        /* \"#utility.yul\":10344:10490   */\n      pop\n      pop\n      pop\n      jump\t// out\n        /* \"#utility.yul\":10496:10919   */\n    tag_356:\n        /* \"#utility.yul\":10573:10578   */\n      0x00\n        /* \"#utility.yul\":10598:10663   */\n      tag_489\n        /* \"#utility.yul\":10614:10662   */\n      tag_490\n        /* \"#utility.yul\":10655:10661   */\n      dup5\n        /* \"#utility.yul\":10614:10662   */\n      tag_354\n      jump\t// in\n    tag_490:\n        /* \"#utility.yul\":10598:10663   */\n      tag_353\n      jump\t// in\n    tag_489:\n        /* \"#utility.yul\":10589:10663   */\n      swap1\n      pop\n        /* \"#utility.yul\":10686:10692   */\n      dup3\n        /* \"#utility.yul\":10679:10684   */\n      dup2\n        /* \"#utility.yul\":10672:10693   */\n      mstore\n        /* \"#utility.yul\":10724:10728   */\n      0x20\n        /* \"#utility.yul\":10717:10722   */\n      dup2\n        /* \"#utility.yul\":10713:10729   */\n      add\n        /* \"#utility.yul\":10762:10765   */\n      dup5\n        /* \"#utility.yul\":10753:10759   */\n      dup5\n        /* \"#utility.yul\":10748:10751   */\n      dup5\n        /* \"#utility.yul\":10744:10760   */\n      add\n        /* \"#utility.yul\":10741:10766   */\n      gt\n        /* \"#utility.yul\":10738:10850   */\n      iszero\n      tag_491\n      jumpi\n        /* \"#utility.yul\":10769:10848   */\n      tag_492\n      tag_351\n      jump\t// in\n    tag_492:\n        /* \"#utility.yul\":10738:10850   */\n    tag_491:\n        /* \"#utility.yul\":10859:10913   */\n      tag_493\n        /* \"#utility.yul\":10906:10912   */\n      dup5\n        /* \"#utility.yul\":10901:10904   */\n      dup3\n        /* \"#utility.yul\":10896:10899   */\n      dup6\n        /* \"#utility.yul\":10859:10913   */\n      tag_355\n      jump\t// in\n    tag_493:\n        /* \"#utility.yul\":10579:10919   */\n      pop\n        /* \"#utility.yul\":10496:10919   */\n      swap4\n      swap3\n      pop\n      pop\n      pop\n      jump\t// out\n        /* \"#utility.yul\":10938:11276   */\n    tag_357:\n        /* \"#utility.yul\":10993:10998   */\n      0x00\n        /* \"#utility.yul\":11042:11045   */\n      dup3\n        /* \"#utility.yul\":11035:11039   */\n      0x1f\n        /* \"#utility.yul\":11027:11033   */\n      dup4\n        /* \"#utility.yul\":11023:11040   */\n      add\n        /* \"#utility.yul\":11019:11046   */\n      slt\n        /* \"#utility.yul\":11009:11131   */\n      tag_495\n      jumpi\n        /* \"#utility.yul\":11050:11129   */\n      tag_496\n      tag_350\n      jump\t// in\n    tag_496:\n        /* \"#utility.yul\":11009:11131   */\n    tag_495:\n        /* \"#utility.yul\":11167:11173   */\n      dup2\n        /* \"#utility.yul\":11154:11174   */\n      calldataload\n        /* \"#utility.yul\":11192:11270   */\n      tag_497\n        /* \"#utility.yul\":11266:11269   */\n      dup5\n        /* \"#utility.yul\":11258:11264   */\n      dup3\n        /* \"#utility.yul\":11251:11255   */\n      0x20\n        /* \"#utility.yul\":11243:11249   */\n      dup7\n        /* \"#utility.yul\":11239:11256   */\n      add\n        /* \"#utility.yul\":11192:11270   */\n      tag_356\n      jump\t// in\n    tag_497:\n        /* \"#utility.yul\":11183:11270   */\n      swap2\n      pop\n        /* \"#utility.yul\":10999:11276   */\n      pop\n        /* \"#utility.yul\":10938:11276   */\n      swap3\n      swap2\n      pop\n      pop\n      jump\t// out\n        /* \"#utility.yul\":11282:12225   */\n    tag_99:\n        /* \"#utility.yul\":11377:11383   */\n      0x00\n        /* \"#utility.yul\":11385:11391   */\n      dup1\n        /* \"#utility.yul\":11393:11399   */\n      0x00\n        /* \"#utility.yul\":11401:11407   */\n      dup1\n        /* \"#utility.yul\":11450:11453   */\n      0x80\n        /* \"#utility.yul\":11438:11447   */\n      dup6\n        /* \"#utility.yul\":11429:11436   */\n      dup8\n        /* \"#utility.yul\":11425:11448   */\n      sub\n        /* \"#utility.yul\":11421:11454   */\n      slt\n        /* \"#utility.yul\":11418:11538   */\n      iszero\n      tag_499\n      jumpi\n        /* \"#utility.yul\":11457:11536   */\n      tag_500\n      tag_318\n      jump\t// in\n    tag_500:\n        /* \"#utility.yul\":11418:11538   */\n    tag_499:\n        /* \"#utility.yul\":11577:11578   */\n      0x00\n        /* \"#utility.yul\":11602:11655   */\n      tag_501\n        /* \"#utility.yul\":11647:11654   */\n      dup8\n        /* \"#utility.yul\":11638:11644   */\n      dup3\n        /* \"#utility.yul\":11627:11636   */\n      dup9\n        /* \"#utility.yul\":11623:11645   */\n      add\n        /* \"#utility.yul\":11602:11655   */\n      tag_337\n      jump\t// in\n    tag_501:\n        /* \"#utility.yul\":11592:11655   */\n      swap5\n      pop\n        /* \"#utility.yul\":11548:11665   */\n      pop\n        /* \"#utility.yul\":11704:11706   */\n      0x20\n        /* \"#utility.yul\":11730:11783   */\n      tag_502\n        /* \"#utility.yul\":11775:11782   */\n      dup8\n        /* \"#utility.yul\":11766:11772   */\n      dup3\n        /* \"#utility.yul\":11755:11764   */\n      dup9\n        /* \"#utility.yul\":11751:11773   */\n      add\n        /* \"#utility.yul\":11730:11783   */\n      tag_337\n      jump\t// in\n    tag_502:\n        /* \"#utility.yul\":11720:11783   */\n      swap4\n      pop\n        /* \"#utility.yul\":11675:11793   */\n      pop\n        /* \"#utility.yul\":11832:11834   */\n      0x40\n        /* \"#utility.yul\":11858:11911   */\n      tag_503\n        /* \"#utility.yul\":11903:11910   */\n      dup8\n        /* \"#utility.yul\":11894:11900   */\n      dup3\n        /* \"#utility.yul\":11883:11892   */\n      dup9\n        /* \"#utility.yul\":11879:11901   */\n      add\n        /* \"#utility.yul\":11858:11911   */\n      tag_332\n      jump\t// in\n    tag_503:\n        /* \"#utility.yul\":11848:11911   */\n      swap3\n      pop\n        /* \"#utility.yul\":11803:11921   */\n      pop\n        /* \"#utility.yul\":11988:11990   */\n      0x60\n        /* \"#utility.yul\":11977:11986   */\n      dup6\n        /* \"#utility.yul\":11973:11991   */\n      add\n        /* \"#utility.yul\":11960:11992   */\n      calldataload\n        /* \"#utility.yul\":12019:12037   */\n      0xffffffffffffffff\n        /* \"#utility.yul\":12011:12017   */\n      dup2\n        /* \"#utility.yul\":12008:12038   */\n      gt\n        /* \"#utility.yul\":12005:12122   */\n      iszero\n      tag_504\n      jumpi\n        /* \"#utility.yul\":12041:12120   */\n      tag_505\n      tag_319\n      jump\t// in\n    tag_505:\n        /* \"#utility.yul\":12005:12122   */\n    tag_504:\n        /* \"#utility.yul\":12146:12208   */\n      tag_506\n        /* \"#utility.yul\":12200:12207   */\n      dup8\n        /* \"#utility.yul\":12191:12197   */\n      dup3\n        /* \"#utility.yul\":12180:12189   */\n      dup9\n        /* \"#utility.yul\":12176:12198   */\n      add\n        /* \"#utility.yul\":12146:12208   */\n      tag_357\n      jump\t// in\n    tag_506:\n        /* \"#utility.yul\":12136:12208   */\n      swap2\n      pop\n        /* \"#utility.yul\":11931:12218   */\n      pop\n        /* \"#utility.yul\":11282:12225   */\n      swap3\n      swap6\n      swap2\n      swap5\n      pop\n      swap3\n      pop\n      jump\t// out\n        /* \"#utility.yul\":12231:12705   */\n    tag_107:\n        /* \"#utility.yul\":12299:12305   */\n      0x00\n        /* \"#utility.yul\":12307:12313   */\n      dup1\n        /* \"#utility.yul\":12356:12358   */\n      0x40\n        /* \"#utility.yul\":12344:12353   */\n      dup4\n        /* \"#utility.yul\":12335:12342   */\n      dup6\n        /* \"#utility.yul\":12331:12354   */\n      sub\n        /* \"#utility.yul\":12327:12359   */\n      slt\n        /* \"#utility.yul\":12324:12443   */\n      iszero\n      tag_508\n      jumpi\n        /* \"#utility.yul\":12362:12441   */\n      tag_509\n      tag_318\n      jump\t// in\n    tag_509:\n        /* \"#utility.yul\":12324:12443   */\n    tag_508:\n        /* \"#utility.yul\":12482:12483   */\n      0x00\n        /* \"#utility.yul\":12507:12560   */\n      tag_510\n        /* \"#utility.yul\":12552:12559   */\n      dup6\n        /* \"#utility.yul\":12543:12549   */\n      dup3\n        /* \"#utility.yul\":12532:12541   */\n      dup7\n        /* \"#utility.yul\":12528:12550   */\n      add\n        /* \"#utility.yul\":12507:12560   */\n      tag_337\n      jump\t// in\n    tag_510:\n        /* \"#utility.yul\":12497:12560   */\n      swap3\n      pop\n        /* \"#utility.yul\":12453:12570   */\n      pop\n        /* \"#utility.yul\":12609:12611   */\n      0x20\n        /* \"#utility.yul\":12635:12688   */\n      tag_511\n        /* \"#utility.yul\":12680:12687   */\n      dup6\n        /* \"#utility.yul\":12671:12677   */\n      dup3\n        /* \"#utility.yul\":12660:12669   */\n      dup7\n        /* \"#utility.yul\":12656:12678   */\n      add\n        /* \"#utility.yul\":12635:12688   */\n      tag_337\n      jump\t// in\n    tag_511:\n        /* \"#utility.yul\":12625:12688   */\n      swap2\n      pop\n        /* \"#utility.yul\":12580:12698   */\n      pop\n        /* \"#utility.yul\":12231:12705   */\n      swap3\n      pop\n      swap3\n      swap1\n      pop\n      jump\t// out\n        /* \"#utility.yul\":12711:12891   */\n    tag_358:\n        /* \"#utility.yul\":12759:12836   */\n      0x4e487b7100000000000000000000000000000000000000000000000000000000\n        /* \"#utility.yul\":12756:12757   */\n      0x00\n        /* \"#utility.yul\":12749:12837   */\n      mstore\n        /* \"#utility.yul\":12856:12860   */\n      0x22\n        /* \"#utility.yul\":12853:12854   */\n      0x04\n        /* \"#utility.yul\":12846:12861   */\n      mstore\n        /* \"#utility.yul\":12880:12884   */\n      0x24\n        /* \"#utility.yul\":12877:12878   */\n      0x00\n        /* \"#utility.yul\":12870:12885   */\n      revert\n        /* \"#utility.yul\":12897:13217   */\n    tag_120:\n        /* \"#utility.yul\":12941:12947   */\n      0x00\n        /* \"#utility.yul\":12978:12979   */\n      0x02\n        /* \"#utility.yul\":12972:12976   */\n      dup3\n        /* \"#utility.yul\":12968:12980   */\n      div\n        /* \"#utility.yul\":12958:12980   */\n      swap1\n      pop\n        /* \"#utility.yul\":13025:13026   */\n      0x01\n        /* \"#utility.yul\":13019:13023   */\n      dup3\n        /* \"#utility.yul\":13015:13027   */\n      and\n        /* \"#utility.yul\":13046:13064   */\n      dup1\n        /* \"#utility.yul\":13036:13117   */\n      tag_514\n      jumpi\n        /* \"#utility.yul\":13102:13106   */\n      0x7f\n        /* \"#utility.yul\":13094:13100   */\n      dup3\n        /* \"#utility.yul\":13090:13107   */\n      and\n        /* \"#utility.yul\":13080:13107   */\n      swap2\n      pop\n        /* \"#utility.yul\":13036:13117   */\n    tag_514:\n        /* \"#utility.yul\":13164:13166   */\n      0x20\n        /* \"#utility.yul\":13156:13162   */\n      dup3\n        /* \"#utility.yul\":13153:13167   */\n      lt\n        /* \"#utility.yul\":13133:13151   */\n      dup2\n        /* \"#utility.yul\":13130:13168   */\n      sub\n        /* \"#utility.yul\":13127:13211   */\n      tag_515\n      jumpi\n        /* \"#utility.yul\":13183:13201   */\n      tag_516\n      tag_358\n      jump\t// in\n    tag_516:\n        /* \"#utility.yul\":13127:13211   */\n    tag_515:\n        /* \"#utility.yul\":12948:13217   */\n      pop\n        /* \"#utility.yul\":12897:13217   */\n      swap2\n      swap1\n      pop\n      jump\t// out\n        /* \"#utility.yul\":13223:13665   */\n    tag_143:\n        /* \"#utility.yul\":13372:13376   */\n      0x00\n        /* \"#utility.yul\":13410:13412   */\n      0x60\n        /* \"#utility.yul\":13399:13408   */\n      dup3\n        /* \"#utility.yul\":13395:13413   */\n      add\n        /* \"#utility.yul\":13387:13413   */\n      swap1\n      pop\n        /* \"#utility.yul\":13423:13494   */\n      tag_518\n        /* \"#utility.yul\":13491:13492   */\n      0x00\n        /* \"#utility.yul\":13480:13489   */\n      dup4\n        /* \"#utility.yul\":13476:13493   */\n      add\n        /* \"#utility.yul\":13467:13473   */\n      dup7\n        /* \"#utility.yul\":13423:13494   */\n      tag_335\n      jump\t// in\n    tag_518:\n        /* \"#utility.yul\":13504:13576   */\n      tag_519\n        /* \"#utility.yul\":13572:13574   */\n      0x20\n        /* \"#utility.yul\":13561:13570   */\n      dup4\n        /* \"#utility.yul\":13557:13575   */\n      add\n        /* \"#utility.yul\":13548:13554   */\n      dup6\n        /* \"#utility.yul\":13504:13576   */\n      tag_338\n      jump\t// in\n    tag_519:\n        /* \"#utility.yul\":13586:13658   */\n      tag_520\n        /* \"#utility.yul\":13654:13656   */\n      0x40\n        /* \"#utility.yul\":13643:13652   */\n      dup4\n        /* \"#utility.yul\":13639:13657   */\n      add\n        /* \"#utility.yul\":13630:13636   */\n      dup5\n        /* \"#utility.yul\":13586:13658   */\n      tag_335\n      jump\t// in\n    tag_520:\n        /* \"#utility.yul\":13223:13665   */\n      swap5\n      swap4\n      pop\n      pop\n      pop\n      pop\n      jump\t// out\n        /* \"#utility.yul\":13671:13819   */\n    tag_359:\n        /* \"#utility.yul\":13773:13784   */\n      0x00\n        /* \"#utility.yul\":13810:13813   */\n      dup2\n        /* \"#utility.yul\":13795:13813   */\n      swap1\n      pop\n        /* \"#utility.yul\":13671:13819   */\n      swap3\n      swap2\n      pop\n      pop\n      jump\t// out\n        /* \"#utility.yul\":13825:14215   */\n    tag_360:\n        /* \"#utility.yul\":13931:13934   */\n      0x00\n        /* \"#utility.yul\":13959:13998   */\n      tag_523\n        /* \"#utility.yul\":13992:13997   */\n      dup3\n        /* \"#utility.yul\":13959:13998   */\n      tag_325\n      jump\t// in\n    tag_523:\n        /* \"#utility.yul\":14014:14103   */\n      tag_524\n        /* \"#utility.yul\":14096:14102   */\n      dup2\n        /* \"#utility.yul\":14091:14094   */\n      dup6\n        /* \"#utility.yul\":14014:14103   */\n      tag_359\n      jump\t// in\n    tag_524:\n        /* \"#utility.yul\":14007:14103   */\n      swap4\n      pop\n        /* \"#utility.yul\":14112:14177   */\n      tag_525\n        /* \"#utility.yul\":14170:14176   */\n      dup2\n        /* \"#utility.yul\":14165:14168   */\n      dup6\n        /* \"#utility.yul\":14158:14162   */\n      0x20\n        /* \"#utility.yul\":14151:14156   */\n      dup7\n        /* \"#utility.yul\":14147:14163   */\n      add\n        /* \"#utility.yul\":14112:14177   */\n      tag_327\n      jump\t// in\n    tag_525:\n        /* \"#utility.yul\":14202:14208   */\n      dup1\n        /* \"#utility.yul\":14197:14200   */\n      dup5\n        /* \"#utility.yul\":14193:14209   */\n      add\n        /* \"#utility.yul\":14186:14209   */\n      swap2\n      pop\n        /* \"#utility.yul\":13935:14215   */\n      pop\n        /* \"#utility.yul\":13825:14215   */\n      swap3\n      swap2\n      pop\n      pop\n      jump\t// out\n        /* \"#utility.yul\":14221:14656   */\n    tag_199:\n        /* \"#utility.yul\":14401:14404   */\n      0x00\n        /* \"#utility.yul\":14423:14518   */\n      tag_527\n        /* \"#utility.yul\":14514:14517   */\n      dup3\n        /* \"#utility.yul\":14505:14511   */\n      dup6\n        /* \"#utility.yul\":14423:14518   */\n      tag_360\n      jump\t// in\n    tag_527:\n        /* \"#utility.yul\":14416:14518   */\n      swap2\n      pop\n        /* \"#utility.yul\":14535:14630   */\n      tag_528\n        /* \"#utility.yul\":14626:14629   */\n      dup3\n        /* \"#utility.yul\":14617:14623   */\n      dup5\n        /* \"#utility.yul\":14535:14630   */\n      tag_360\n      jump\t// in\n    tag_528:\n        /* \"#utility.yul\":14528:14630   */\n      swap2\n      pop\n        /* \"#utility.yul\":14647:14650   */\n      dup2\n        /* \"#utility.yul\":14640:14650   */\n      swap1\n      pop\n        /* \"#utility.yul\":14221:14656   */\n      swap4\n      swap3\n      pop\n      pop\n      pop\n      jump\t// out\n        /* \"#utility.yul\":14662:14760   */\n    tag_361:\n        /* \"#utility.yul\":14713:14719   */\n      0x00\n        /* \"#utility.yul\":14747:14752   */\n      dup2\n        /* \"#utility.yul\":14741:14753   */\n      mload\n        /* \"#utility.yul\":14731:14753   */\n      swap1\n      pop\n        /* \"#utility.yul\":14662:14760   */\n      swap2\n      swap1\n      pop\n      jump\t// out\n        /* \"#utility.yul\":14766:14934   */\n    tag_362:\n        /* \"#utility.yul\":14849:14860   */\n      0x00\n        /* \"#utility.yul\":14883:14889   */\n      dup3\n        /* \"#utility.yul\":14878:14881   */\n      dup3\n        /* \"#utility.yul\":14871:14890   */\n      mstore\n        /* \"#utility.yul\":14923:14927   */\n      0x20\n        /* \"#utility.yul\":14918:14921   */\n      dup3\n        /* \"#utility.yul\":14914:14928   */\n      add\n        /* \"#utility.yul\":14899:14928   */\n      swap1\n      pop\n        /* \"#utility.yul\":14766:14934   */\n      swap3\n      swap2\n      pop\n      pop\n      jump\t// out\n        /* \"#utility.yul\":14940:15313   */\n    tag_363:\n        /* \"#utility.yul\":15026:15029   */\n      0x00\n        /* \"#utility.yul\":15054:15092   */\n      tag_532\n        /* \"#utility.yul\":15086:15091   */\n      dup3\n        /* \"#utility.yul\":15054:15092   */\n      tag_361\n      jump\t// in\n    tag_532:\n        /* \"#utility.yul\":15108:15178   */\n      tag_533\n        /* \"#utility.yul\":15171:15177   */\n      dup2\n        /* \"#utility.yul\":15166:15169   */\n      dup6\n        /* \"#utility.yul\":15108:15178   */\n      tag_362\n      jump\t// in\n    tag_533:\n        /* \"#utility.yul\":15101:15178   */\n      swap4\n      pop\n        /* \"#utility.yul\":15187:15252   */\n      tag_534\n        /* \"#utility.yul\":15245:15251   */\n      dup2\n        /* \"#utility.yul\":15240:15243   */\n      dup6\n        /* \"#utility.yul\":15233:15237   */\n      0x20\n        /* \"#utility.yul\":15226:15231   */\n      dup7\n        /* \"#utility.yul\":15222:15238   */\n      add\n        /* \"#utility.yul\":15187:15252   */\n      tag_327\n      jump\t// in\n    tag_534:\n        /* \"#utility.yul\":15277:15306   */\n      tag_535\n        /* \"#utility.yul\":15299:15305   */\n      dup2\n        /* \"#utility.yul\":15277:15306   */\n      tag_328\n      jump\t// in\n    tag_535:\n        /* \"#utility.yul\":15272:15275   */\n      dup5\n        /* \"#utility.yul\":15268:15307   */\n      add\n        /* \"#utility.yul\":15261:15307   */\n      swap2\n      pop\n        /* \"#utility.yul\":15030:15313   */\n      pop\n        /* \"#utility.yul\":14940:15313   */\n      swap3\n      swap2\n      pop\n      pop\n      jump\t// out\n        /* \"#utility.yul\":15319:15959   */\n    tag_241:\n        /* \"#utility.yul\":15514:15518   */\n      0x00\n        /* \"#utility.yul\":15552:15555   */\n      0x80\n        /* \"#utility.yul\":15541:15550   */\n      dup3\n        /* \"#utility.yul\":15537:15556   */\n      add\n        /* \"#utility.yul\":15529:15556   */\n      swap1\n      pop\n        /* \"#utility.yul\":15566:15637   */\n      tag_537\n        /* \"#utility.yul\":15634:15635   */\n      0x00\n        /* \"#utility.yul\":15623:15632   */\n      dup4\n        /* \"#utility.yul\":15619:15636   */\n      add\n        /* \"#utility.yul\":15610:15616   */\n      dup8\n        /* \"#utility.yul\":15566:15637   */\n      tag_335\n      jump\t// in\n    tag_537:\n        /* \"#utility.yul\":15647:15719   */\n      tag_538\n        /* \"#utility.yul\":15715:15717   */\n      0x20\n        /* \"#utility.yul\":15704:15713   */\n      dup4\n        /* \"#utility.yul\":15700:15718   */\n      add\n        /* \"#utility.yul\":15691:15697   */\n      dup7\n        /* \"#utility.yul\":15647:15719   */\n      tag_335\n      jump\t// in\n    tag_538:\n        /* \"#utility.yul\":15729:15801   */\n      tag_539\n        /* \"#utility.yul\":15797:15799   */\n      0x40\n        /* \"#utility.yul\":15786:15795   */\n      dup4\n        /* \"#utility.yul\":15782:15800   */\n      add\n        /* \"#utility.yul\":15773:15779   */\n      dup6\n        /* \"#utility.yul\":15729:15801   */\n      tag_338\n      jump\t// in\n    tag_539:\n        /* \"#utility.yul\":15848:15857   */\n      dup2\n        /* \"#utility.yul\":15842:15846   */\n      dup2\n        /* \"#utility.yul\":15838:15858   */\n      sub\n        /* \"#utility.yul\":15833:15835   */\n      0x60\n        /* \"#utility.yul\":15822:15831   */\n      dup4\n        /* \"#utility.yul\":15818:15836   */\n      add\n        /* \"#utility.yul\":15811:15859   */\n      mstore\n        /* \"#utility.yul\":15876:15952   */\n      tag_540\n        /* \"#utility.yul\":15947:15951   */\n      dup2\n        /* \"#utility.yul\":15938:15944   */\n      dup5\n        /* \"#utility.yul\":15876:15952   */\n      tag_363\n      jump\t// in\n    tag_540:\n        /* \"#utility.yul\":15868:15952   */\n      swap1\n      pop\n        /* \"#utility.yul\":15319:15959   */\n      swap6\n      swap5\n      pop\n      pop\n      pop\n      pop\n      pop\n      jump\t// out\n        /* \"#utility.yul\":15965:16106   */\n    tag_364:\n        /* \"#utility.yul\":16021:16026   */\n      0x00\n        /* \"#utility.yul\":16052:16058   */\n      dup2\n        /* \"#utility.yul\":16046:16059   */\n      mload\n        /* \"#utility.yul\":16037:16059   */\n      swap1\n      pop\n        /* \"#utility.yul\":16068:16100   */\n      tag_542\n        /* \"#utility.yul\":16094:16099   */\n      dup2\n        /* \"#utility.yul\":16068:16100   */\n      tag_321\n      jump\t// in\n    tag_542:\n        /* \"#utility.yul\":15965:16106   */\n      swap3\n      swap2\n      pop\n      pop\n      jump\t// out\n        /* \"#utility.yul\":16112:16461   */\n    tag_244:\n        /* \"#utility.yul\":16181:16187   */\n      0x00\n        /* \"#utility.yul\":16230:16232   */\n      0x20\n        /* \"#utility.yul\":16218:16227   */\n      dup3\n        /* \"#utility.yul\":16209:16216   */\n      dup5\n        /* \"#utility.yul\":16205:16228   */\n      sub\n        /* \"#utility.yul\":16201:16233   */\n      slt\n        /* \"#utility.yul\":16198:16317   */\n      iszero\n      tag_544\n      jumpi\n        /* \"#utility.yul\":16236:16315   */\n      tag_545\n      tag_318\n      jump\t// in\n    tag_545:\n        /* \"#utility.yul\":16198:16317   */\n    tag_544:\n        /* \"#utility.yul\":16356:16357   */\n      0x00\n        /* \"#utility.yul\":16381:16444   */\n      tag_546\n        /* \"#utility.yul\":16436:16443   */\n      dup5\n        /* \"#utility.yul\":16427:16433   */\n      dup3\n        /* \"#utility.yul\":16416:16425   */\n      dup6\n        /* \"#utility.yul\":16412:16434   */\n      add\n        /* \"#utility.yul\":16381:16444   */\n      tag_364\n      jump\t// in\n    tag_546:\n        /* \"#utility.yul\":16371:16444   */\n      swap2\n      pop\n        /* \"#utility.yul\":16327:16454   */\n      pop\n        /* \"#utility.yul\":16112:16461   */\n      swap3\n      swap2\n      pop\n      pop\n      jump\t// out\n        /* \"#utility.yul\":16467:16647   */\n    tag_269:\n        /* \"#utility.yul\":16515:16592   */\n      0x4e487b7100000000000000000000000000000000000000000000000000000000\n        /* \"#utility.yul\":16512:16513   */\n      0x00\n        /* \"#utility.yul\":16505:16593   */\n      mstore\n        /* \"#utility.yul\":16612:16616   */\n      0x12\n        /* \"#utility.yul\":16609:16610   */\n      0x04\n        /* \"#utility.yul\":16602:16617   */\n      mstore\n        /* \"#utility.yul\":16636:16640   */\n      0x24\n        /* \"#utility.yul\":16633:16634   */\n      0x00\n        /* \"#utility.yul\":16626:16641   */\n      revert\n        /* \"#utility.yul\":16653:16985   */\n    tag_290:\n        /* \"#utility.yul\":16774:16778   */\n      0x00\n        /* \"#utility.yul\":16812:16814   */\n      0x40\n        /* \"#utility.yul\":16801:16810   */\n      dup3\n        /* \"#utility.yul\":16797:16815   */\n      add\n        /* \"#utility.yul\":16789:16815   */\n      swap1\n      pop\n        /* \"#utility.yul\":16825:16896   */\n      tag_549\n        /* \"#utility.yul\":16893:16894   */\n      0x00\n        /* \"#utility.yul\":16882:16891   */\n      dup4\n        /* \"#utility.yul\":16878:16895   */\n      add\n        /* \"#utility.yul\":16869:16875   */\n      dup6\n        /* \"#utility.yul\":16825:16896   */\n      tag_335\n      jump\t// in\n    tag_549:\n        /* \"#utility.yul\":16906:16978   */\n      tag_550\n        /* \"#utility.yul\":16974:16976   */\n      0x20\n        /* \"#utility.yul\":16963:16972   */\n      dup4\n        /* \"#utility.yul\":16959:16977   */\n      add\n        /* \"#utility.yul\":16950:16956   */\n      dup5\n        /* \"#utility.yul\":16906:16978   */\n      tag_338\n      jump\t// in\n    tag_550:\n        /* \"#utility.yul\":16653:16985   */\n      swap4\n      swap3\n      pop\n      pop\n      pop\n      jump\t// out\n\n    auxdata: 0xa2646970667358221220038e326ee7ea47c0d58867f51e45bfa898c556b0a05c25707ca4d4572479c82f64736f6c63430008140033\n}\n",
				"bytecode": {
					"linkReferences": {},
					"object": "608060405234801562000010575f80fd5b50604051620028fd380380620028fd83398181016040528101906200003691906200031f565b816040518060400160405280600c81526020017f50696374757265546f6b656e00000000000000000000000000000000000000008152506040518060400160405280600281526020017f5054000000000000000000000000000000000000000000000000000000000000815250815f9081620000b39190620005c8565b508060019081620000c59190620005c8565b5050505f73ffffffffffffffffffffffffffffffffffffffff168173ffffffffffffffffffffffffffffffffffffffff16036200013b575f6040517f1e4fbdf7000000000000000000000000000000000000000000000000000000008152600401620001329190620006bd565b60405180910390fd5b6200014c81620001b560201b60201c565b508060075f6101000a81548173ffffffffffffffffffffffffffffffffffffffff021916908373ffffffffffffffffffffffffffffffffffffffff1602179055505f6008819055505f60095f6101000a81548160ff0219169083151502179055505050620006d8565b5f60065f9054906101000a900473ffffffffffffffffffffffffffffffffffffffff1690508160065f6101000a81548173ffffffffffffffffffffffffffffffffffffffff021916908373ffffffffffffffffffffffffffffffffffffffff1602179055508173ffffffffffffffffffffffffffffffffffffffff168173ffffffffffffffffffffffffffffffffffffffff167f8be0079c531659141344cd1fd0a4f28419497f9722a3daafe3b4186f6b6457e060405160405180910390a35050565b5f80fd5b5f73ffffffffffffffffffffffffffffffffffffffff82169050919050565b5f620002a7826200027c565b9050919050565b620002b9816200029b565b8114620002c4575f80fd5b50565b5f81519050620002d781620002ae565b92915050565b5f620002e9826200029b565b9050919050565b620002fb81620002dd565b811462000306575f80fd5b50565b5f815190506200031981620002f0565b92915050565b5f806040838503121562000338576200033762000278565b5b5f6200034785828601620002c7565b92505060206200035a8582860162000309565b9150509250929050565b5f81519050919050565b7f4e487b71000000000000000000000000000000000000000000000000000000005f52604160045260245ffd5b7f4e487b71000000000000000000000000000000000000000000000000000000005f52602260045260245ffd5b5f6002820490506001821680620003e057607f821691505b602082108103620003f657620003f56200039b565b5b50919050565b5f819050815f5260205f209050919050565b5f6020601f8301049050919050565b5f82821b905092915050565b5f600883026200045a7fffffffffffffffffffffffffffffffffffffffffffffffffffffffffffffffff826200041d565b6200046686836200041d565b95508019841693508086168417925050509392505050565b5f819050919050565b5f819050919050565b5f620004b0620004aa620004a4846200047e565b62000487565b6200047e565b9050919050565b5f819050919050565b620004cb8362000490565b620004e3620004da82620004b7565b84845462000429565b825550505050565b5f90565b620004f9620004eb565b62000506818484620004c0565b505050565b5b818110156200052d57620005215f82620004ef565b6001810190506200050c565b5050565b601f8211156200057c576200054681620003fc565b62000551846200040e565b8101602085101562000561578190505b6200057962000570856200040e565b8301826200050b565b50505b505050565b5f82821c905092915050565b5f6200059e5f198460080262000581565b1980831691505092915050565b5f620005b883836200058d565b9150826002028217905092915050565b620005d38262000364565b67ffffffffffffffff811115620005ef57620005ee6200036e565b5b620005fb8254620003c8565b6200060882828562000531565b5f60209050601f8311600181146200063e575f841562000629578287015190505b620006358582620005ab565b865550620006a4565b601f1984166200064e86620003fc565b5f5b82811015620006775784890151825560018201915060208501945060208101905062000650565b8683101562000697578489015162000693601f8916826200058d565b8355505b6001600288020188555050505b505050505050565b620006b7816200029b565b82525050565b5f602082019050620006d25f830184620006ac565b92915050565b61221780620006e65f395ff3fe608060405234801561000f575f80fd5b506004361061014b575f3560e01c8063854cbb4a116100c1578063a035b1fe1161007a578063a035b1fe1461033d578063a22cb4651461035b578063b88d4fde14610377578063c87b56dd14610393578063e985e9c5146103c3578063f2fde38b146103f35761014b565b8063854cbb4a1461029f5780638c2a5bc8146102bd5780638da5cb5b146102c757806391b7f5ed146102e557806395d89b411461030157806398d5fdca1461031f5761014b565b806342842e0e1161011357806342842e0e146102055780635987cc19146102215780636352211e1461022b57806364edfbf01461025b57806370a0823114610265578063715018a6146102955761014b565b806301ffc9a71461014f57806306fdde031461017f578063081812fc1461019d578063095ea7b3146101cd57806323b872dd146101e9575b5f80fd5b610169600480360381019061016491906119b4565b61040f565b60405161017691906119f9565b60405180910390f35b6101876104f0565b6040516101949190611a9c565b60405180910390f35b6101b760048036038101906101b29190611aef565b61057f565b6040516101c49190611b59565b60405180910390f35b6101e760048036038101906101e29190611b9c565b61059a565b005b61020360048036038101906101fe9190611bda565b6105b0565b005b61021f600480360381019061021a9190611bda565b6106af565b005b6102296106ce565b005b61024560048036038101906102409190611aef565b6106f2565b6040516102529190611b59565b60405180910390f35b610263610703565b005b61027f600480360381019061027a9190611c2a565b610774565b60405161028c9190611c64565b60405180910390f35b61029d61082a565b005b6102a761083d565b6040516102b49190611d58565b60405180910390f35b6102c56108d1565b005b6102cf6108f4565b6040516102dc9190611b59565b60405180910390f35b6102ff60048036038101906102fa9190611aef565b61091c565b005b61030961092e565b6040516103169190611a9c565b60405180910390f35b6103276109be565b6040516103349190611c64565b60405180910390f35b6103456109c7565b6040516103529190611c64565b60405180910390f35b61037560048036038101906103709190611d9b565b6109cd565b005b610391600480360381019061038c9190611f05565b6109e3565b005b6103ad60048036038101906103a89190611aef565b610a00565b6040516103ba9190611a9c565b60405180910390f35b6103dd60048036038101906103d89190611f85565b610a66565b6040516103ea91906119f9565b60405180910390f35b61040d60048036038101906104089190611c2a565b610af4565b005b5f7f80ac58cd000000000000000000000000000000000000000000000000000000007bffffffffffffffffffffffffffffffffffffffffffffffffffffffff1916827bffffffffffffffffffffffffffffffffffffffffffffffffffffffff191614806104d957507f5b5e139f000000000000000000000000000000000000000000000000000000007bffffffffffffffffffffffffffffffffffffffffffffffffffffffff1916827bffffffffffffffffffffffffffffffffffffffffffffffffffffffff1916145b806104e957506104e882610b78565b5b9050919050565b60605f80546104fe90611ff0565b80601f016020809104026020016040519081016040528092919081815260200182805461052a90611ff0565b80156105755780601f1061054c57610100808354040283529160200191610575565b820191905f5260205f20905b81548152906001019060200180831161055857829003601f168201915b5050505050905090565b5f61058982610be1565b5061059382610c67565b9050919050565b6105ac82826105a7610ca0565b610ca7565b5050565b5f73ffffffffffffffffffffffffffffffffffffffff168273ffffffffffffffffffffffffffffffffffffffff1603610620575f6040517f64a0ae920000000000000000000000000000000000000000000000000000000081526004016106179190611b59565b60405180910390fd5b5f610633838361062e610ca0565b610cb9565b90508373ffffffffffffffffffffffffffffffffffffffff168173ffffffffffffffffffffffffffffffffffffffff16146106a9578382826040517f64283d7b0000000000000000000000000000000000000000000000000000000081526004016106a093929190612020565b60405180910390fd5b50505050565b6106c983838360405180602001604052805f8152506109e3565b505050565b6106d6610ec4565b600160095f6101000a81548160ff021916908315150217905550565b5f6106fc82610be1565b9050919050565b3373ffffffffffffffffffffffffffffffffffffffff166108fc60085490811502906040515f60405180830381858888f19350505050158015610748573d5f803e3d5ffd5b5061075233610af4565b5f6008819055505f60095f6101000a81548160ff021916908315150217905550565b5f8073ffffffffffffffffffffffffffffffffffffffff168273ffffffffffffffffffffffffffffffffffffffff16036107e5575f6040517f89c62b640000000000000000000000000000000000000000000000000000000081526004016107dc9190611b59565b60405180910390fd5b60035f8373ffffffffffffffffffffffffffffffffffffffff1673ffffffffffffffffffffffffffffffffffffffff1681526020019081526020015f20549050919050565b610832610ec4565b61083b5f610f4b565b565b6108456118fc565b60405180608001604052806108586108f4565b73ffffffffffffffffffffffffffffffffffffffff16815260200160075f9054906101000a900473ffffffffffffffffffffffffffffffffffffffff1673ffffffffffffffffffffffffffffffffffffffff168152602001600854815260200160095f9054906101000a900460ff161515815250905090565b6108d9610ec4565b5f60095f6101000a81548160ff021916908315150217905550565b5f60065f9054906101000a900473ffffffffffffffffffffffffffffffffffffffff16905090565b610924610ec4565b8060088190555050565b60606001805461093d90611ff0565b80601f016020809104026020016040519081016040528092919081815260200182805461096990611ff0565b80156109b45780601f1061098b576101008083540402835291602001916109b4565b820191905f5260205f20905b81548152906001019060200180831161099757829003601f168201915b5050505050905090565b5f600854905090565b60085481565b6109df6109d8610ca0565b838361100e565b5050565b6109ee8484846105b0565b6109fa84848484611177565b50505050565b6060610a0b82610be1565b505f610a15611329565b90505f815111610a335760405180602001604052805f815250610a5e565b80610a3d84611366565b604051602001610a4e92919061208f565b6040516020818303038152906040525b915050919050565b5f60055f8473ffffffffffffffffffffffffffffffffffffffff1673ffffffffffffffffffffffffffffffffffffffff1681526020019081526020015f205f8373ffffffffffffffffffffffffffffffffffffffff1673ffffffffffffffffffffffffffffffffffffffff1681526020019081526020015f205f9054906101000a900460ff16905092915050565b610afc610ec4565b5f73ffffffffffffffffffffffffffffffffffffffff168173ffffffffffffffffffffffffffffffffffffffff1603610b6c575f6040517f1e4fbdf7000000000000000000000000000000000000000000000000000000008152600401610b639190611b59565b60405180910390fd5b610b7581610f4b565b50565b5f7f01ffc9a7000000000000000000000000000000000000000000000000000000007bffffffffffffffffffffffffffffffffffffffffffffffffffffffff1916827bffffffffffffffffffffffffffffffffffffffffffffffffffffffff1916149050919050565b5f80610bec83611430565b90505f73ffffffffffffffffffffffffffffffffffffffff168173ffffffffffffffffffffffffffffffffffffffff1603610c5e57826040517f7e273289000000000000000000000000000000000000000000000000000000008152600401610c559190611c64565b60405180910390fd5b80915050919050565b5f60045f8381526020019081526020015f205f9054906101000a900473ffffffffffffffffffffffffffffffffffffffff169050919050565b5f33905090565b610cb48383836001611469565b505050565b5f80610cc484611430565b90505f73ffffffffffffffffffffffffffffffffffffffff168373ffffffffffffffffffffffffffffffffffffffff1614610d0557610d04818486611628565b5b5f73ffffffffffffffffffffffffffffffffffffffff168173ffffffffffffffffffffffffffffffffffffffff1614610d9057610d445f855f80611469565b600160035f8373ffffffffffffffffffffffffffffffffffffffff1673ffffffffffffffffffffffffffffffffffffffff1681526020019081526020015f205f82825403925050819055505b5f73ffffffffffffffffffffffffffffffffffffffff168573ffffffffffffffffffffffffffffffffffffffff1614610e0f57600160035f8773ffffffffffffffffffffffffffffffffffffffff1673ffffffffffffffffffffffffffffffffffffffff1681526020019081526020015f205f82825401925050819055505b8460025f8681526020019081526020015f205f6101000a81548173ffffffffffffffffffffffffffffffffffffffff021916908373ffffffffffffffffffffffffffffffffffffffff160217905550838573ffffffffffffffffffffffffffffffffffffffff168273ffffffffffffffffffffffffffffffffffffffff167fddf252ad1be2c89b69c2b068fc378daa952ba7f163c4a11628f55a4df523b3ef60405160405180910390a4809150509392505050565b610ecc610ca0565b73ffffffffffffffffffffffffffffffffffffffff16610eea6108f4565b73ffffffffffffffffffffffffffffffffffffffff1614610f4957610f0d610ca0565b6040517f118cdaa7000000000000000000000000000000000000000000000000000000008152600401610f409190611b59565b60405180910390fd5b565b5f60065f9054906101000a900473ffffffffffffffffffffffffffffffffffffffff1690508160065f6101000a81548173ffffffffffffffffffffffffffffffffffffffff021916908373ffffffffffffffffffffffffffffffffffffffff1602179055508173ffffffffffffffffffffffffffffffffffffffff168173ffffffffffffffffffffffffffffffffffffffff167f8be0079c531659141344cd1fd0a4f28419497f9722a3daafe3b4186f6b6457e060405160405180910390a35050565b5f73ffffffffffffffffffffffffffffffffffffffff168273ffffffffffffffffffffffffffffffffffffffff160361107e57816040517f5b08ba180000000000000000000000000000000000000000000000000000000081526004016110759190611b59565b60405180910390fd5b8060055f8573ffffffffffffffffffffffffffffffffffffffff1673ffffffffffffffffffffffffffffffffffffffff1681526020019081526020015f205f8473ffffffffffffffffffffffffffffffffffffffff1673ffffffffffffffffffffffffffffffffffffffff1681526020019081526020015f205f6101000a81548160ff0219169083151502179055508173ffffffffffffffffffffffffffffffffffffffff168373ffffffffffffffffffffffffffffffffffffffff167f17307eab39ab6107e8899845ad3d59bd9653f200f220920489ca2b5937696c318360405161116a91906119f9565b60405180910390a3505050565b5f8373ffffffffffffffffffffffffffffffffffffffff163b1115611323578273ffffffffffffffffffffffffffffffffffffffff1663150b7a026111ba610ca0565b8685856040518563ffffffff1660e01b81526004016111dc9493929190612104565b6020604051808303815f875af192505050801561121757506040513d601f19601f820116820180604052508101906112149190612162565b60015b611298573d805f8114611245576040519150601f19603f3d011682016040523d82523d5f602084013e61124a565b606091505b505f81510361129057836040517f64a0ae920000000000000000000000000000000000000000000000000000000081526004016112879190611b59565b60405180910390fd5b805181602001fd5b63150b7a0260e01b7bffffffffffffffffffffffffffffffffffffffffffffffffffffffff1916817bffffffffffffffffffffffffffffffffffffffffffffffffffffffff19161461132157836040517f64a0ae920000000000000000000000000000000000000000000000000000000081526004016113189190611b59565b60405180910390fd5b505b50505050565b60606040518060400160405280601881526020017f697066733a2f2f7069656365546f6b656e426173655552490000000000000000815250905090565b60605f6001611374846116eb565b0190505f8167ffffffffffffffff81111561139257611391611de1565b5b6040519080825280601f01601f1916602001820160405280156113c45781602001600182028036833780820191505090505b5090505f82602001820190505b600115611425578080600190039150507f3031323334353637383961626364656600000000000000000000000000000000600a86061a8153600a858161141a5761141961218d565b5b0494505f85036113d1575b819350505050919050565b5f60025f8381526020019081526020015f205f9054906101000a900473ffffffffffffffffffffffffffffffffffffffff169050919050565b80806114a157505f73ffffffffffffffffffffffffffffffffffffffff168273ffffffffffffffffffffffffffffffffffffffff1614155b156115d3575f6114b084610be1565b90505f73ffffffffffffffffffffffffffffffffffffffff168373ffffffffffffffffffffffffffffffffffffffff161415801561151a57508273ffffffffffffffffffffffffffffffffffffffff168173ffffffffffffffffffffffffffffffffffffffff1614155b801561152d575061152b8184610a66565b155b1561156f57826040517fa9fbf51f0000000000000000000000000000000000000000000000000000000081526004016115669190611b59565b60405180910390fd5b81156115d157838573ffffffffffffffffffffffffffffffffffffffff168273ffffffffffffffffffffffffffffffffffffffff167f8c5be1e5ebec7d5bd14f71427d1e84f3dd0314c0f7b2291e5b200ac8c7c3b92560405160405180910390a45b505b8360045f8581526020019081526020015f205f6101000a81548173ffffffffffffffffffffffffffffffffffffffff021916908373ffffffffffffffffffffffffffffffffffffffff16021790555050505050565b61163383838361183c565b6116e6575f73ffffffffffffffffffffffffffffffffffffffff168373ffffffffffffffffffffffffffffffffffffffff16036116a757806040517f7e27328900000000000000000000000000000000000000000000000000000000815260040161169e9190611c64565b60405180910390fd5b81816040517f177e802f0000000000000000000000000000000000000000000000000000000081526004016116dd9291906121ba565b60405180910390fd5b505050565b5f805f90507a184f03e93ff9f4daa797ed6e38ed64bf6a1f0100000000000000008310611747577a184f03e93ff9f4daa797ed6e38ed64bf6a1f010000000000000000838161173d5761173c61218d565b5b0492506040810190505b6d04ee2d6d415b85acef81000000008310611784576d04ee2d6d415b85acef8100000000838161177a5761177961218d565b5b0492506020810190505b662386f26fc1000083106117b357662386f26fc1000083816117a9576117a861218d565b5b0492506010810190505b6305f5e10083106117dc576305f5e10083816117d2576117d161218d565b5b0492506008810190505b61271083106118015761271083816117f7576117f661218d565b5b0492506004810190505b60648310611824576064838161181a5761181961218d565b5b0492506002810190505b600a8310611833576001810190505b80915050919050565b5f8073ffffffffffffffffffffffffffffffffffffffff168373ffffffffffffffffffffffffffffffffffffffff16141580156118f357508273ffffffffffffffffffffffffffffffffffffffff168473ffffffffffffffffffffffffffffffffffffffff1614806118b457506118b38484610a66565b5b806118f257508273ffffffffffffffffffffffffffffffffffffffff166118da83610c67565b73ffffffffffffffffffffffffffffffffffffffff16145b5b90509392505050565b60405180608001604052805f73ffffffffffffffffffffffffffffffffffffffff1681526020015f73ffffffffffffffffffffffffffffffffffffffff1681526020015f81526020015f151581525090565b5f604051905090565b5f80fd5b5f80fd5b5f7fffffffff0000000000000000000000000000000000000000000000000000000082169050919050565b6119938161195f565b811461199d575f80fd5b50565b5f813590506119ae8161198a565b92915050565b5f602082840312156119c9576119c8611957565b5b5f6119d6848285016119a0565b91505092915050565b5f8115159050919050565b6119f3816119df565b82525050565b5f602082019050611a0c5f8301846119ea565b92915050565b5f81519050919050565b5f82825260208201905092915050565b5f5b83811015611a49578082015181840152602081019050611a2e565b5f8484015250505050565b5f601f19601f8301169050919050565b5f611a6e82611a12565b611a788185611a1c565b9350611a88818560208601611a2c565b611a9181611a54565b840191505092915050565b5f6020820190508181035f830152611ab48184611a64565b905092915050565b5f819050919050565b611ace81611abc565b8114611ad8575f80fd5b50565b5f81359050611ae981611ac5565b92915050565b5f60208284031215611b0457611b03611957565b5b5f611b1184828501611adb565b91505092915050565b5f73ffffffffffffffffffffffffffffffffffffffff82169050919050565b5f611b4382611b1a565b9050919050565b611b5381611b39565b82525050565b5f602082019050611b6c5f830184611b4a565b92915050565b611b7b81611b39565b8114611b85575f80fd5b50565b5f81359050611b9681611b72565b92915050565b5f8060408385031215611bb257611bb1611957565b5b5f611bbf85828601611b88565b9250506020611bd085828601611adb565b9150509250929050565b5f805f60608486031215611bf157611bf0611957565b5b5f611bfe86828701611b88565b9350506020611c0f86828701611b88565b9250506040611c2086828701611adb565b9150509250925092565b5f60208284031215611c3f57611c3e611957565b5b5f611c4c84828501611b88565b91505092915050565b611c5e81611abc565b82525050565b5f602082019050611c775f830184611c55565b92915050565b611c8681611b39565b82525050565b5f819050919050565b5f611caf611caa611ca584611b1a565b611c8c565b611b1a565b9050919050565b5f611cc082611c95565b9050919050565b5f611cd182611cb6565b9050919050565b611ce181611cc7565b82525050565b611cf081611abc565b82525050565b611cff816119df565b82525050565b608082015f820151611d195f850182611c7d565b506020820151611d2c6020850182611cd8565b506040820151611d3f6040850182611ce7565b506060820151611d526060850182611cf6565b50505050565b5f608082019050611d6b5f830184611d05565b92915050565b611d7a816119df565b8114611d84575f80fd5b50565b5f81359050611d9581611d71565b92915050565b5f8060408385031215611db157611db0611957565b5b5f611dbe85828601611b88565b9250506020611dcf85828601611d87565b9150509250929050565b5f80fd5b5f80fd5b7f4e487b71000000000000000000000000000000000000000000000000000000005f52604160045260245ffd5b611e1782611a54565b810181811067ffffffffffffffff82111715611e3657611e35611de1565b5b80604052505050565b5f611e4861194e565b9050611e548282611e0e565b919050565b5f67ffffffffffffffff821115611e7357611e72611de1565b5b611e7c82611a54565b9050602081019050919050565b828183375f83830152505050565b5f611ea9611ea484611e59565b611e3f565b905082815260208101848484011115611ec557611ec4611ddd565b5b611ed0848285611e89565b509392505050565b5f82601f830112611eec57611eeb611dd9565b5b8135611efc848260208601611e97565b91505092915050565b5f805f8060808587031215611f1d57611f1c611957565b5b5f611f2a87828801611b88565b9450506020611f3b87828801611b88565b9350506040611f4c87828801611adb565b925050606085013567ffffffffffffffff811115611f6d57611f6c61195b565b5b611f7987828801611ed8565b91505092959194509250565b5f8060408385031215611f9b57611f9a611957565b5b5f611fa885828601611b88565b9250506020611fb985828601611b88565b9150509250929050565b7f4e487b71000000000000000000000000000000000000000000000000000000005f52602260045260245ffd5b5f600282049050600182168061200757607f821691505b60208210810361201a57612019611fc3565b5b50919050565b5f6060820190506120335f830186611b4a565b6120406020830185611c55565b61204d6040830184611b4a565b949350505050565b5f81905092915050565b5f61206982611a12565b6120738185612055565b9350612083818560208601611a2c565b80840191505092915050565b5f61209a828561205f565b91506120a6828461205f565b91508190509392505050565b5f81519050919050565b5f82825260208201905092915050565b5f6120d6826120b2565b6120e081856120bc565b93506120f0818560208601611a2c565b6120f981611a54565b840191505092915050565b5f6080820190506121175f830187611b4a565b6121246020830186611b4a565b6121316040830185611c55565b818103606083015261214381846120cc565b905095945050505050565b5f8151905061215c8161198a565b92915050565b5f6020828403121561217757612176611957565b5b5f6121848482850161214e565b91505092915050565b7f4e487b71000000000000000000000000000000000000000000000000000000005f52601260045260245ffd5b5f6040820190506121cd5f830185611b4a565b6121da6020830184611c55565b939250505056fea2646970667358221220038e326ee7ea47c0d58867f51e45bfa898c556b0a05c25707ca4d4572479c82f64736f6c63430008140033",
					"opcodes": "PUSH1 0x80 PUSH1 0x40 MSTORE CALLVALUE DUP1 ISZERO PUSH3 0x10 JUMPI PUSH0 DUP1 REVERT JUMPDEST POP PUSH1 0x40 MLOAD PUSH3 0x28FD CODESIZE SUB DUP1 PUSH3 0x28FD DUP4 CODECOPY DUP2 DUP2 ADD PUSH1 0x40 MSTORE DUP2 ADD SWAP1 PUSH3 0x36 SWAP2 SWAP1 PUSH3 0x31F JUMP JUMPDEST DUP2 PUSH1 0x40 MLOAD DUP1 PUSH1 0x40 ADD PUSH1 0x40 MSTORE DUP1 PUSH1 0xC DUP2 MSTORE PUSH1 0x20 ADD PUSH32 0x50696374757265546F6B656E0000000000000000000000000000000000000000 DUP2 MSTORE POP PUSH1 0x40 MLOAD DUP1 PUSH1 0x40 ADD PUSH1 0x40 MSTORE DUP1 PUSH1 0x2 DUP2 MSTORE PUSH1 0x20 ADD PUSH32 0x5054000000000000000000000000000000000000000000000000000000000000 DUP2 MSTORE POP DUP2 PUSH0 SWAP1 DUP2 PUSH3 0xB3 SWAP2 SWAP1 PUSH3 0x5C8 JUMP JUMPDEST POP DUP1 PUSH1 0x1 SWAP1 DUP2 PUSH3 0xC5 SWAP2 SWAP1 PUSH3 0x5C8 JUMP JUMPDEST POP POP POP PUSH0 PUSH20 0xFFFFFFFFFFFFFFFFFFFFFFFFFFFFFFFFFFFFFFFF AND DUP2 PUSH20 0xFFFFFFFFFFFFFFFFFFFFFFFFFFFFFFFFFFFFFFFF AND SUB PUSH3 0x13B JUMPI PUSH0 PUSH1 0x40 MLOAD PUSH32 0x1E4FBDF700000000000000000000000000000000000000000000000000000000 DUP2 MSTORE PUSH1 0x4 ADD PUSH3 0x132 SWAP2 SWAP1 PUSH3 0x6BD JUMP JUMPDEST PUSH1 0x40 MLOAD DUP1 SWAP2 SUB SWAP1 REVERT JUMPDEST PUSH3 0x14C DUP2 PUSH3 0x1B5 PUSH1 0x20 SHL PUSH1 0x20 SHR JUMP JUMPDEST POP DUP1 PUSH1 0x7 PUSH0 PUSH2 0x100 EXP DUP2 SLOAD DUP2 PUSH20 0xFFFFFFFFFFFFFFFFFFFFFFFFFFFFFFFFFFFFFFFF MUL NOT AND SWAP1 DUP4 PUSH20 0xFFFFFFFFFFFFFFFFFFFFFFFFFFFFFFFFFFFFFFFF AND MUL OR SWAP1 SSTORE POP PUSH0 PUSH1 0x8 DUP2 SWAP1 SSTORE POP PUSH0 PUSH1 0x9 PUSH0 PUSH2 0x100 EXP DUP2 SLOAD DUP2 PUSH1 0xFF MUL NOT AND SWAP1 DUP4 ISZERO ISZERO MUL OR SWAP1 SSTORE POP POP POP PUSH3 0x6D8 JUMP JUMPDEST PUSH0 PUSH1 0x6 PUSH0 SWAP1 SLOAD SWAP1 PUSH2 0x100 EXP SWAP1 DIV PUSH20 0xFFFFFFFFFFFFFFFFFFFFFFFFFFFFFFFFFFFFFFFF AND SWAP1 POP DUP2 PUSH1 0x6 PUSH0 PUSH2 0x100 EXP DUP2 SLOAD DUP2 PUSH20 0xFFFFFFFFFFFFFFFFFFFFFFFFFFFFFFFFFFFFFFFF MUL NOT AND SWAP1 DUP4 PUSH20 0xFFFFFFFFFFFFFFFFFFFFFFFFFFFFFFFFFFFFFFFF AND MUL OR SWAP1 SSTORE POP DUP2 PUSH20 0xFFFFFFFFFFFFFFFFFFFFFFFFFFFFFFFFFFFFFFFF AND DUP2 PUSH20 0xFFFFFFFFFFFFFFFFFFFFFFFFFFFFFFFFFFFFFFFF AND PUSH32 0x8BE0079C531659141344CD1FD0A4F28419497F9722A3DAAFE3B4186F6B6457E0 PUSH1 0x40 MLOAD PUSH1 0x40 MLOAD DUP1 SWAP2 SUB SWAP1 LOG3 POP POP JUMP JUMPDEST PUSH0 DUP1 REVERT JUMPDEST PUSH0 PUSH20 0xFFFFFFFFFFFFFFFFFFFFFFFFFFFFFFFFFFFFFFFF DUP3 AND SWAP1 POP SWAP2 SWAP1 POP JUMP JUMPDEST PUSH0 PUSH3 0x2A7 DUP3 PUSH3 0x27C JUMP JUMPDEST SWAP1 POP SWAP2 SWAP1 POP JUMP JUMPDEST PUSH3 0x2B9 DUP2 PUSH3 0x29B JUMP JUMPDEST DUP2 EQ PUSH3 0x2C4 JUMPI PUSH0 DUP1 REVERT JUMPDEST POP JUMP JUMPDEST PUSH0 DUP2 MLOAD SWAP1 POP PUSH3 0x2D7 DUP2 PUSH3 0x2AE JUMP JUMPDEST SWAP3 SWAP2 POP POP JUMP JUMPDEST PUSH0 PUSH3 0x2E9 DUP3 PUSH3 0x29B JUMP JUMPDEST SWAP1 POP SWAP2 SWAP1 POP JUMP JUMPDEST PUSH3 0x2FB DUP2 PUSH3 0x2DD JUMP JUMPDEST DUP2 EQ PUSH3 0x306 JUMPI PUSH0 DUP1 REVERT JUMPDEST POP JUMP JUMPDEST PUSH0 DUP2 MLOAD SWAP1 POP PUSH3 0x319 DUP2 PUSH3 0x2F0 JUMP JUMPDEST SWAP3 SWAP2 POP POP JUMP JUMPDEST PUSH0 DUP1 PUSH1 0x40 DUP4 DUP6 SUB SLT ISZERO PUSH3 0x338 JUMPI PUSH3 0x337 PUSH3 0x278 JUMP JUMPDEST JUMPDEST PUSH0 PUSH3 0x347 DUP6 DUP3 DUP7 ADD PUSH3 0x2C7 JUMP JUMPDEST SWAP3 POP POP PUSH1 0x20 PUSH3 0x35A DUP6 DUP3 DUP7 ADD PUSH3 0x309 JUMP JUMPDEST SWAP2 POP POP SWAP3 POP SWAP3 SWAP1 POP JUMP JUMPDEST PUSH0 DUP2 MLOAD SWAP1 POP SWAP2 SWAP1 POP JUMP JUMPDEST PUSH32 0x4E487B7100000000000000000000000000000000000000000000000000000000 PUSH0 MSTORE PUSH1 0x41 PUSH1 0x4 MSTORE PUSH1 0x24 PUSH0 REVERT JUMPDEST PUSH32 0x4E487B7100000000000000000000000000000000000000000000000000000000 PUSH0 MSTORE PUSH1 0x22 PUSH1 0x4 MSTORE PUSH1 0x24 PUSH0 REVERT JUMPDEST PUSH0 PUSH1 0x2 DUP3 DIV SWAP1 POP PUSH1 0x1 DUP3 AND DUP1 PUSH3 0x3E0 JUMPI PUSH1 0x7F DUP3 AND SWAP2 POP JUMPDEST PUSH1 0x20 DUP3 LT DUP2 SUB PUSH3 0x3F6 JUMPI PUSH3 0x3F5 PUSH3 0x39B JUMP JUMPDEST JUMPDEST POP SWAP2 SWAP1 POP JUMP JUMPDEST PUSH0 DUP2 SWAP1 POP DUP2 PUSH0 MSTORE PUSH1 0x20 PUSH0 KECCAK256 SWAP1 POP SWAP2 SWAP1 POP JUMP JUMPDEST PUSH0 PUSH1 0x20 PUSH1 0x1F DUP4 ADD DIV SWAP1 POP SWAP2 SWAP1 POP JUMP JUMPDEST PUSH0 DUP3 DUP3 SHL SWAP1 POP SWAP3 SWAP2 POP POP JUMP JUMPDEST PUSH0 PUSH1 0x8 DUP4 MUL PUSH3 0x45A PUSH32 0xFFFFFFFFFFFFFFFFFFFFFFFFFFFFFFFFFFFFFFFFFFFFFFFFFFFFFFFFFFFFFFFF DUP3 PUSH3 0x41D JUMP JUMPDEST PUSH3 0x466 DUP7 DUP4 PUSH3 0x41D JUMP JUMPDEST SWAP6 POP DUP1 NOT DUP5 AND SWAP4 POP DUP1 DUP7 AND DUP5 OR SWAP3 POP POP POP SWAP4 SWAP3 POP POP POP JUMP JUMPDEST PUSH0 DUP2 SWAP1 POP SWAP2 SWAP1 POP JUMP JUMPDEST PUSH0 DUP2 SWAP1 POP SWAP2 SWAP1 POP JUMP JUMPDEST PUSH0 PUSH3 0x4B0 PUSH3 0x4AA PUSH3 0x4A4 DUP5 PUSH3 0x47E JUMP JUMPDEST PUSH3 0x487 JUMP JUMPDEST PUSH3 0x47E JUMP JUMPDEST SWAP1 POP SWAP2 SWAP1 POP JUMP JUMPDEST PUSH0 DUP2 SWAP1 POP SWAP2 SWAP1 POP JUMP JUMPDEST PUSH3 0x4CB DUP4 PUSH3 0x490 JUMP JUMPDEST PUSH3 0x4E3 PUSH3 0x4DA DUP3 PUSH3 0x4B7 JUMP JUMPDEST DUP5 DUP5 SLOAD PUSH3 0x429 JUMP JUMPDEST DUP3 SSTORE POP POP POP POP JUMP JUMPDEST PUSH0 SWAP1 JUMP JUMPDEST PUSH3 0x4F9 PUSH3 0x4EB JUMP JUMPDEST PUSH3 0x506 DUP2 DUP5 DUP5 PUSH3 0x4C0 JUMP JUMPDEST POP POP POP JUMP JUMPDEST JUMPDEST DUP2 DUP2 LT ISZERO PUSH3 0x52D JUMPI PUSH3 0x521 PUSH0 DUP3 PUSH3 0x4EF JUMP JUMPDEST PUSH1 0x1 DUP2 ADD SWAP1 POP PUSH3 0x50C JUMP JUMPDEST POP POP JUMP JUMPDEST PUSH1 0x1F DUP3 GT ISZERO PUSH3 0x57C JUMPI PUSH3 0x546 DUP2 PUSH3 0x3FC JUMP JUMPDEST PUSH3 0x551 DUP5 PUSH3 0x40E JUMP JUMPDEST DUP2 ADD PUSH1 0x20 DUP6 LT ISZERO PUSH3 0x561 JUMPI DUP2 SWAP1 POP JUMPDEST PUSH3 0x579 PUSH3 0x570 DUP6 PUSH3 0x40E JUMP JUMPDEST DUP4 ADD DUP3 PUSH3 0x50B JUMP JUMPDEST POP POP JUMPDEST POP POP POP JUMP JUMPDEST PUSH0 DUP3 DUP3 SHR SWAP1 POP SWAP3 SWAP2 POP POP JUMP JUMPDEST PUSH0 PUSH3 0x59E PUSH0 NOT DUP5 PUSH1 0x8 MUL PUSH3 0x581 JUMP JUMPDEST NOT DUP1 DUP4 AND SWAP2 POP POP SWAP3 SWAP2 POP POP JUMP JUMPDEST PUSH0 PUSH3 0x5B8 DUP4 DUP4 PUSH3 0x58D JUMP JUMPDEST SWAP2 POP DUP3 PUSH1 0x2 MUL DUP3 OR SWAP1 POP SWAP3 SWAP2 POP POP JUMP JUMPDEST PUSH3 0x5D3 DUP3 PUSH3 0x364 JUMP JUMPDEST PUSH8 0xFFFFFFFFFFFFFFFF DUP2 GT ISZERO PUSH3 0x5EF JUMPI PUSH3 0x5EE PUSH3 0x36E JUMP JUMPDEST JUMPDEST PUSH3 0x5FB DUP3 SLOAD PUSH3 0x3C8 JUMP JUMPDEST PUSH3 0x608 DUP3 DUP3 DUP6 PUSH3 0x531 JUMP JUMPDEST PUSH0 PUSH1 0x20 SWAP1 POP PUSH1 0x1F DUP4 GT PUSH1 0x1 DUP2 EQ PUSH3 0x63E JUMPI PUSH0 DUP5 ISZERO PUSH3 0x629 JUMPI DUP3 DUP8 ADD MLOAD SWAP1 POP JUMPDEST PUSH3 0x635 DUP6 DUP3 PUSH3 0x5AB JUMP JUMPDEST DUP7 SSTORE POP PUSH3 0x6A4 JUMP JUMPDEST PUSH1 0x1F NOT DUP5 AND PUSH3 0x64E DUP7 PUSH3 0x3FC JUMP JUMPDEST PUSH0 JUMPDEST DUP3 DUP2 LT ISZERO PUSH3 0x677 JUMPI DUP5 DUP10 ADD MLOAD DUP3 SSTORE PUSH1 0x1 DUP3 ADD SWAP2 POP PUSH1 0x20 DUP6 ADD SWAP5 POP PUSH1 0x20 DUP2 ADD SWAP1 POP PUSH3 0x650 JUMP JUMPDEST DUP7 DUP4 LT ISZERO PUSH3 0x697 JUMPI DUP5 DUP10 ADD MLOAD PUSH3 0x693 PUSH1 0x1F DUP10 AND DUP3 PUSH3 0x58D JUMP JUMPDEST DUP4 SSTORE POP JUMPDEST PUSH1 0x1 PUSH1 0x2 DUP9 MUL ADD DUP9 SSTORE POP POP POP JUMPDEST POP POP POP POP POP POP JUMP JUMPDEST PUSH3 0x6B7 DUP2 PUSH3 0x29B JUMP JUMPDEST DUP3 MSTORE POP POP JUMP JUMPDEST PUSH0 PUSH1 0x20 DUP3 ADD SWAP1 POP PUSH3 0x6D2 PUSH0 DUP4 ADD DUP5 PUSH3 0x6AC JUMP JUMPDEST SWAP3 SWAP2 POP POP JUMP JUMPDEST PUSH2 0x2217 DUP1 PUSH3 0x6E6 PUSH0 CODECOPY PUSH0 RETURN INVALID PUSH1 0x80 PUSH1 0x40 MSTORE CALLVALUE DUP1 ISZERO PUSH2 0xF JUMPI PUSH0 DUP1 REVERT JUMPDEST POP PUSH1 0x4 CALLDATASIZE LT PUSH2 0x14B JUMPI PUSH0 CALLDATALOAD PUSH1 0xE0 SHR DUP1 PUSH4 0x854CBB4A GT PUSH2 0xC1 JUMPI DUP1 PUSH4 0xA035B1FE GT PUSH2 0x7A JUMPI DUP1 PUSH4 0xA035B1FE EQ PUSH2 0x33D JUMPI DUP1 PUSH4 0xA22CB465 EQ PUSH2 0x35B JUMPI DUP1 PUSH4 0xB88D4FDE EQ PUSH2 0x377 JUMPI DUP1 PUSH4 0xC87B56DD EQ PUSH2 0x393 JUMPI DUP1 PUSH4 0xE985E9C5 EQ PUSH2 0x3C3 JUMPI DUP1 PUSH4 0xF2FDE38B EQ PUSH2 0x3F3 JUMPI PUSH2 0x14B JUMP JUMPDEST DUP1 PUSH4 0x854CBB4A EQ PUSH2 0x29F JUMPI DUP1 PUSH4 0x8C2A5BC8 EQ PUSH2 0x2BD JUMPI DUP1 PUSH4 0x8DA5CB5B EQ PUSH2 0x2C7 JUMPI DUP1 PUSH4 0x91B7F5ED EQ PUSH2 0x2E5 JUMPI DUP1 PUSH4 0x95D89B41 EQ PUSH2 0x301 JUMPI DUP1 PUSH4 0x98D5FDCA EQ PUSH2 0x31F JUMPI PUSH2 0x14B JUMP JUMPDEST DUP1 PUSH4 0x42842E0E GT PUSH2 0x113 JUMPI DUP1 PUSH4 0x42842E0E EQ PUSH2 0x205 JUMPI DUP1 PUSH4 0x5987CC19 EQ PUSH2 0x221 JUMPI DUP1 PUSH4 0x6352211E EQ PUSH2 0x22B JUMPI DUP1 PUSH4 0x64EDFBF0 EQ PUSH2 0x25B JUMPI DUP1 PUSH4 0x70A08231 EQ PUSH2 0x265 JUMPI DUP1 PUSH4 0x715018A6 EQ PUSH2 0x295 JUMPI PUSH2 0x14B JUMP JUMPDEST DUP1 PUSH4 0x1FFC9A7 EQ PUSH2 0x14F JUMPI DUP1 PUSH4 0x6FDDE03 EQ PUSH2 0x17F JUMPI DUP1 PUSH4 0x81812FC EQ PUSH2 0x19D JUMPI DUP1 PUSH4 0x95EA7B3 EQ PUSH2 0x1CD JUMPI DUP1 PUSH4 0x23B872DD EQ PUSH2 0x1E9 JUMPI JUMPDEST PUSH0 DUP1 REVERT JUMPDEST PUSH2 0x169 PUSH1 0x4 DUP1 CALLDATASIZE SUB DUP2 ADD SWAP1 PUSH2 0x164 SWAP2 SWAP1 PUSH2 0x19B4 JUMP JUMPDEST PUSH2 0x40F JUMP JUMPDEST PUSH1 0x40 MLOAD PUSH2 0x176 SWAP2 SWAP1 PUSH2 0x19F9 JUMP JUMPDEST PUSH1 0x40 MLOAD DUP1 SWAP2 SUB SWAP1 RETURN JUMPDEST PUSH2 0x187 PUSH2 0x4F0 JUMP JUMPDEST PUSH1 0x40 MLOAD PUSH2 0x194 SWAP2 SWAP1 PUSH2 0x1A9C JUMP JUMPDEST PUSH1 0x40 MLOAD DUP1 SWAP2 SUB SWAP1 RETURN JUMPDEST PUSH2 0x1B7 PUSH1 0x4 DUP1 CALLDATASIZE SUB DUP2 ADD SWAP1 PUSH2 0x1B2 SWAP2 SWAP1 PUSH2 0x1AEF JUMP JUMPDEST PUSH2 0x57F JUMP JUMPDEST PUSH1 0x40 MLOAD PUSH2 0x1C4 SWAP2 SWAP1 PUSH2 0x1B59 JUMP JUMPDEST PUSH1 0x40 MLOAD DUP1 SWAP2 SUB SWAP1 RETURN JUMPDEST PUSH2 0x1E7 PUSH1 0x4 DUP1 CALLDATASIZE SUB DUP2 ADD SWAP1 PUSH2 0x1E2 SWAP2 SWAP1 PUSH2 0x1B9C JUMP JUMPDEST PUSH2 0x59A JUMP JUMPDEST STOP JUMPDEST PUSH2 0x203 PUSH1 0x4 DUP1 CALLDATASIZE SUB DUP2 ADD SWAP1 PUSH2 0x1FE SWAP2 SWAP1 PUSH2 0x1BDA JUMP JUMPDEST PUSH2 0x5B0 JUMP JUMPDEST STOP JUMPDEST PUSH2 0x21F PUSH1 0x4 DUP1 CALLDATASIZE SUB DUP2 ADD SWAP1 PUSH2 0x21A SWAP2 SWAP1 PUSH2 0x1BDA JUMP JUMPDEST PUSH2 0x6AF JUMP JUMPDEST STOP JUMPDEST PUSH2 0x229 PUSH2 0x6CE JUMP JUMPDEST STOP JUMPDEST PUSH2 0x245 PUSH1 0x4 DUP1 CALLDATASIZE SUB DUP2 ADD SWAP1 PUSH2 0x240 SWAP2 SWAP1 PUSH2 0x1AEF JUMP JUMPDEST PUSH2 0x6F2 JUMP JUMPDEST PUSH1 0x40 MLOAD PUSH2 0x252 SWAP2 SWAP1 PUSH2 0x1B59 JUMP JUMPDEST PUSH1 0x40 MLOAD DUP1 SWAP2 SUB SWAP1 RETURN JUMPDEST PUSH2 0x263 PUSH2 0x703 JUMP JUMPDEST STOP JUMPDEST PUSH2 0x27F PUSH1 0x4 DUP1 CALLDATASIZE SUB DUP2 ADD SWAP1 PUSH2 0x27A SWAP2 SWAP1 PUSH2 0x1C2A JUMP JUMPDEST PUSH2 0x774 JUMP JUMPDEST PUSH1 0x40 MLOAD PUSH2 0x28C SWAP2 SWAP1 PUSH2 0x1C64 JUMP JUMPDEST PUSH1 0x40 MLOAD DUP1 SWAP2 SUB SWAP1 RETURN JUMPDEST PUSH2 0x29D PUSH2 0x82A JUMP JUMPDEST STOP JUMPDEST PUSH2 0x2A7 PUSH2 0x83D JUMP JUMPDEST PUSH1 0x40 MLOAD PUSH2 0x2B4 SWAP2 SWAP1 PUSH2 0x1D58 JUMP JUMPDEST PUSH1 0x40 MLOAD DUP1 SWAP2 SUB SWAP1 RETURN JUMPDEST PUSH2 0x2C5 PUSH2 0x8D1 JUMP JUMPDEST STOP JUMPDEST PUSH2 0x2CF PUSH2 0x8F4 JUMP JUMPDEST PUSH1 0x40 MLOAD PUSH2 0x2DC SWAP2 SWAP1 PUSH2 0x1B59 JUMP JUMPDEST PUSH1 0x40 MLOAD DUP1 SWAP2 SUB SWAP1 RETURN JUMPDEST PUSH2 0x2FF PUSH1 0x4 DUP1 CALLDATASIZE SUB DUP2 ADD SWAP1 PUSH2 0x2FA SWAP2 SWAP1 PUSH2 0x1AEF JUMP JUMPDEST PUSH2 0x91C JUMP JUMPDEST STOP JUMPDEST PUSH2 0x309 PUSH2 0x92E JUMP JUMPDEST PUSH1 0x40 MLOAD PUSH2 0x316 SWAP2 SWAP1 PUSH2 0x1A9C JUMP JUMPDEST PUSH1 0x40 MLOAD DUP1 SWAP2 SUB SWAP1 RETURN JUMPDEST PUSH2 0x327 PUSH2 0x9BE JUMP JUMPDEST PUSH1 0x40 MLOAD PUSH2 0x334 SWAP2 SWAP1 PUSH2 0x1C64 JUMP JUMPDEST PUSH1 0x40 MLOAD DUP1 SWAP2 SUB SWAP1 RETURN JUMPDEST PUSH2 0x345 PUSH2 0x9C7 JUMP JUMPDEST PUSH1 0x40 MLOAD PUSH2 0x352 SWAP2 SWAP1 PUSH2 0x1C64 JUMP JUMPDEST PUSH1 0x40 MLOAD DUP1 SWAP2 SUB SWAP1 RETURN JUMPDEST PUSH2 0x375 PUSH1 0x4 DUP1 CALLDATASIZE SUB DUP2 ADD SWAP1 PUSH2 0x370 SWAP2 SWAP1 PUSH2 0x1D9B JUMP JUMPDEST PUSH2 0x9CD JUMP JUMPDEST STOP JUMPDEST PUSH2 0x391 PUSH1 0x4 DUP1 CALLDATASIZE SUB DUP2 ADD SWAP1 PUSH2 0x38C SWAP2 SWAP1 PUSH2 0x1F05 JUMP JUMPDEST PUSH2 0x9E3 JUMP JUMPDEST STOP JUMPDEST PUSH2 0x3AD PUSH1 0x4 DUP1 CALLDATASIZE SUB DUP2 ADD SWAP1 PUSH2 0x3A8 SWAP2 SWAP1 PUSH2 0x1AEF JUMP JUMPDEST PUSH2 0xA00 JUMP JUMPDEST PUSH1 0x40 MLOAD PUSH2 0x3BA SWAP2 SWAP1 PUSH2 0x1A9C JUMP JUMPDEST PUSH1 0x40 MLOAD DUP1 SWAP2 SUB SWAP1 RETURN JUMPDEST PUSH2 0x3DD PUSH1 0x4 DUP1 CALLDATASIZE SUB DUP2 ADD SWAP1 PUSH2 0x3D8 SWAP2 SWAP1 PUSH2 0x1F85 JUMP JUMPDEST PUSH2 0xA66 JUMP JUMPDEST PUSH1 0x40 MLOAD PUSH2 0x3EA SWAP2 SWAP1 PUSH2 0x19F9 JUMP JUMPDEST PUSH1 0x40 MLOAD DUP1 SWAP2 SUB SWAP1 RETURN JUMPDEST PUSH2 0x40D PUSH1 0x4 DUP1 CALLDATASIZE SUB DUP2 ADD SWAP1 PUSH2 0x408 SWAP2 SWAP1 PUSH2 0x1C2A JUMP JUMPDEST PUSH2 0xAF4 JUMP JUMPDEST STOP JUMPDEST PUSH0 PUSH32 0x80AC58CD00000000000000000000000000000000000000000000000000000000 PUSH28 0xFFFFFFFFFFFFFFFFFFFFFFFFFFFFFFFFFFFFFFFFFFFFFFFFFFFFFFFF NOT AND DUP3 PUSH28 0xFFFFFFFFFFFFFFFFFFFFFFFFFFFFFFFFFFFFFFFFFFFFFFFFFFFFFFFF NOT AND EQ DUP1 PUSH2 0x4D9 JUMPI POP PUSH32 0x5B5E139F00000000000000000000000000000000000000000000000000000000 PUSH28 0xFFFFFFFFFFFFFFFFFFFFFFFFFFFFFFFFFFFFFFFFFFFFFFFFFFFFFFFF NOT AND DUP3 PUSH28 0xFFFFFFFFFFFFFFFFFFFFFFFFFFFFFFFFFFFFFFFFFFFFFFFFFFFFFFFF NOT AND EQ JUMPDEST DUP1 PUSH2 0x4E9 JUMPI POP PUSH2 0x4E8 DUP3 PUSH2 0xB78 JUMP JUMPDEST JUMPDEST SWAP1 POP SWAP2 SWAP1 POP JUMP JUMPDEST PUSH1 0x60 PUSH0 DUP1 SLOAD PUSH2 0x4FE SWAP1 PUSH2 0x1FF0 JUMP JUMPDEST DUP1 PUSH1 0x1F ADD PUSH1 0x20 DUP1 SWAP2 DIV MUL PUSH1 0x20 ADD PUSH1 0x40 MLOAD SWAP1 DUP2 ADD PUSH1 0x40 MSTORE DUP1 SWAP3 SWAP2 SWAP1 DUP2 DUP2 MSTORE PUSH1 0x20 ADD DUP3 DUP1 SLOAD PUSH2 0x52A SWAP1 PUSH2 0x1FF0 JUMP JUMPDEST DUP1 ISZERO PUSH2 0x575 JUMPI DUP1 PUSH1 0x1F LT PUSH2 0x54C JUMPI PUSH2 0x100 DUP1 DUP4 SLOAD DIV MUL DUP4 MSTORE SWAP2 PUSH1 0x20 ADD SWAP2 PUSH2 0x575 JUMP JUMPDEST DUP3 ADD SWAP2 SWAP1 PUSH0 MSTORE PUSH1 0x20 PUSH0 KECCAK256 SWAP1 JUMPDEST DUP2 SLOAD DUP2 MSTORE SWAP1 PUSH1 0x1 ADD SWAP1 PUSH1 0x20 ADD DUP1 DUP4 GT PUSH2 0x558 JUMPI DUP3 SWAP1 SUB PUSH1 0x1F AND DUP3 ADD SWAP2 JUMPDEST POP POP POP POP POP SWAP1 POP SWAP1 JUMP JUMPDEST PUSH0 PUSH2 0x589 DUP3 PUSH2 0xBE1 JUMP JUMPDEST POP PUSH2 0x593 DUP3 PUSH2 0xC67 JUMP JUMPDEST SWAP1 POP SWAP2 SWAP1 POP JUMP JUMPDEST PUSH2 0x5AC DUP3 DUP3 PUSH2 0x5A7 PUSH2 0xCA0 JUMP JUMPDEST PUSH2 0xCA7 JUMP JUMPDEST POP POP JUMP JUMPDEST PUSH0 PUSH20 0xFFFFFFFFFFFFFFFFFFFFFFFFFFFFFFFFFFFFFFFF AND DUP3 PUSH20 0xFFFFFFFFFFFFFFFFFFFFFFFFFFFFFFFFFFFFFFFF AND SUB PUSH2 0x620 JUMPI PUSH0 PUSH1 0x40 MLOAD PUSH32 0x64A0AE9200000000000000000000000000000000000000000000000000000000 DUP2 MSTORE PUSH1 0x4 ADD PUSH2 0x617 SWAP2 SWAP1 PUSH2 0x1B59 JUMP JUMPDEST PUSH1 0x40 MLOAD DUP1 SWAP2 SUB SWAP1 REVERT JUMPDEST PUSH0 PUSH2 0x633 DUP4 DUP4 PUSH2 0x62E PUSH2 0xCA0 JUMP JUMPDEST PUSH2 0xCB9 JUMP JUMPDEST SWAP1 POP DUP4 PUSH20 0xFFFFFFFFFFFFFFFFFFFFFFFFFFFFFFFFFFFFFFFF AND DUP2 PUSH20 0xFFFFFFFFFFFFFFFFFFFFFFFFFFFFFFFFFFFFFFFF AND EQ PUSH2 0x6A9 JUMPI DUP4 DUP3 DUP3 PUSH1 0x40 MLOAD PUSH32 0x64283D7B00000000000000000000000000000000000000000000000000000000 DUP2 MSTORE PUSH1 0x4 ADD PUSH2 0x6A0 SWAP4 SWAP3 SWAP2 SWAP1 PUSH2 0x2020 JUMP JUMPDEST PUSH1 0x40 MLOAD DUP1 SWAP2 SUB SWAP1 REVERT JUMPDEST POP POP POP POP JUMP JUMPDEST PUSH2 0x6C9 DUP4 DUP4 DUP4 PUSH1 0x40 MLOAD DUP1 PUSH1 0x20 ADD PUSH1 0x40 MSTORE DUP1 PUSH0 DUP2 MSTORE POP PUSH2 0x9E3 JUMP JUMPDEST POP POP POP JUMP JUMPDEST PUSH2 0x6D6 PUSH2 0xEC4 JUMP JUMPDEST PUSH1 0x1 PUSH1 0x9 PUSH0 PUSH2 0x100 EXP DUP2 SLOAD DUP2 PUSH1 0xFF MUL NOT AND SWAP1 DUP4 ISZERO ISZERO MUL OR SWAP1 SSTORE POP JUMP JUMPDEST PUSH0 PUSH2 0x6FC DUP3 PUSH2 0xBE1 JUMP JUMPDEST SWAP1 POP SWAP2 SWAP1 POP JUMP JUMPDEST CALLER PUSH20 0xFFFFFFFFFFFFFFFFFFFFFFFFFFFFFFFFFFFFFFFF AND PUSH2 0x8FC PUSH1 0x8 SLOAD SWAP1 DUP2 ISZERO MUL SWAP1 PUSH1 0x40 MLOAD PUSH0 PUSH1 0x40 MLOAD DUP1 DUP4 SUB DUP2 DUP6 DUP9 DUP9 CALL SWAP4 POP POP POP POP ISZERO DUP1 ISZERO PUSH2 0x748 JUMPI RETURNDATASIZE PUSH0 DUP1 RETURNDATACOPY RETURNDATASIZE PUSH0 REVERT JUMPDEST POP PUSH2 0x752 CALLER PUSH2 0xAF4 JUMP JUMPDEST PUSH0 PUSH1 0x8 DUP2 SWAP1 SSTORE POP PUSH0 PUSH1 0x9 PUSH0 PUSH2 0x100 EXP DUP2 SLOAD DUP2 PUSH1 0xFF MUL NOT AND SWAP1 DUP4 ISZERO ISZERO MUL OR SWAP1 SSTORE POP JUMP JUMPDEST PUSH0 DUP1 PUSH20 0xFFFFFFFFFFFFFFFFFFFFFFFFFFFFFFFFFFFFFFFF AND DUP3 PUSH20 0xFFFFFFFFFFFFFFFFFFFFFFFFFFFFFFFFFFFFFFFF AND SUB PUSH2 0x7E5 JUMPI PUSH0 PUSH1 0x40 MLOAD PUSH32 0x89C62B6400000000000000000000000000000000000000000000000000000000 DUP2 MSTORE PUSH1 0x4 ADD PUSH2 0x7DC SWAP2 SWAP1 PUSH2 0x1B59 JUMP JUMPDEST PUSH1 0x40 MLOAD DUP1 SWAP2 SUB SWAP1 REVERT JUMPDEST PUSH1 0x3 PUSH0 DUP4 PUSH20 0xFFFFFFFFFFFFFFFFFFFFFFFFFFFFFFFFFFFFFFFF AND PUSH20 0xFFFFFFFFFFFFFFFFFFFFFFFFFFFFFFFFFFFFFFFF AND DUP2 MSTORE PUSH1 0x20 ADD SWAP1 DUP2 MSTORE PUSH1 0x20 ADD PUSH0 KECCAK256 SLOAD SWAP1 POP SWAP2 SWAP1 POP JUMP JUMPDEST PUSH2 0x832 PUSH2 0xEC4 JUMP JUMPDEST PUSH2 0x83B PUSH0 PUSH2 0xF4B JUMP JUMPDEST JUMP JUMPDEST PUSH2 0x845 PUSH2 0x18FC JUMP JUMPDEST PUSH1 0x40 MLOAD DUP1 PUSH1 0x80 ADD PUSH1 0x40 MSTORE DUP1 PUSH2 0x858 PUSH2 0x8F4 JUMP JUMPDEST PUSH20 0xFFFFFFFFFFFFFFFFFFFFFFFFFFFFFFFFFFFFFFFF AND DUP2 MSTORE PUSH1 0x20 ADD PUSH1 0x7 PUSH0 SWAP1 SLOAD SWAP1 PUSH2 0x100 EXP SWAP1 DIV PUSH20 0xFFFFFFFFFFFFFFFFFFFFFFFFFFFFFFFFFFFFFFFF AND PUSH20 0xFFFFFFFFFFFFFFFFFFFFFFFFFFFFFFFFFFFFFFFF AND DUP2 MSTORE PUSH1 0x20 ADD PUSH1 0x8 SLOAD DUP2 MSTORE PUSH1 0x20 ADD PUSH1 0x9 PUSH0 SWAP1 SLOAD SWAP1 PUSH2 0x100 EXP SWAP1 DIV PUSH1 0xFF AND ISZERO ISZERO DUP2 MSTORE POP SWAP1 POP SWAP1 JUMP JUMPDEST PUSH2 0x8D9 PUSH2 0xEC4 JUMP JUMPDEST PUSH0 PUSH1 0x9 PUSH0 PUSH2 0x100 EXP DUP2 SLOAD DUP2 PUSH1 0xFF MUL NOT AND SWAP1 DUP4 ISZERO ISZERO MUL OR SWAP1 SSTORE POP JUMP JUMPDEST PUSH0 PUSH1 0x6 PUSH0 SWAP1 SLOAD SWAP1 PUSH2 0x100 EXP SWAP1 DIV PUSH20 0xFFFFFFFFFFFFFFFFFFFFFFFFFFFFFFFFFFFFFFFF AND SWAP1 POP SWAP1 JUMP JUMPDEST PUSH2 0x924 PUSH2 0xEC4 JUMP JUMPDEST DUP1 PUSH1 0x8 DUP2 SWAP1 SSTORE POP POP JUMP JUMPDEST PUSH1 0x60 PUSH1 0x1 DUP1 SLOAD PUSH2 0x93D SWAP1 PUSH2 0x1FF0 JUMP JUMPDEST DUP1 PUSH1 0x1F ADD PUSH1 0x20 DUP1 SWAP2 DIV MUL PUSH1 0x20 ADD PUSH1 0x40 MLOAD SWAP1 DUP2 ADD PUSH1 0x40 MSTORE DUP1 SWAP3 SWAP2 SWAP1 DUP2 DUP2 MSTORE PUSH1 0x20 ADD DUP3 DUP1 SLOAD PUSH2 0x969 SWAP1 PUSH2 0x1FF0 JUMP JUMPDEST DUP1 ISZERO PUSH2 0x9B4 JUMPI DUP1 PUSH1 0x1F LT PUSH2 0x98B JUMPI PUSH2 0x100 DUP1 DUP4 SLOAD DIV MUL DUP4 MSTORE SWAP2 PUSH1 0x20 ADD SWAP2 PUSH2 0x9B4 JUMP JUMPDEST DUP3 ADD SWAP2 SWAP1 PUSH0 MSTORE PUSH1 0x20 PUSH0 KECCAK256 SWAP1 JUMPDEST DUP2 SLOAD DUP2 MSTORE SWAP1 PUSH1 0x1 ADD SWAP1 PUSH1 0x20 ADD DUP1 DUP4 GT PUSH2 0x997 JUMPI DUP3 SWAP1 SUB PUSH1 0x1F AND DUP3 ADD SWAP2 JUMPDEST POP POP POP POP POP SWAP1 POP SWAP1 JUMP JUMPDEST PUSH0 PUSH1 0x8 SLOAD SWAP1 POP SWAP1 JUMP JUMPDEST PUSH1 0x8 SLOAD DUP2 JUMP JUMPDEST PUSH2 0x9DF PUSH2 0x9D8 PUSH2 0xCA0 JUMP JUMPDEST DUP4 DUP4 PUSH2 0x100E JUMP JUMPDEST POP POP JUMP JUMPDEST PUSH2 0x9EE DUP5 DUP5 DUP5 PUSH2 0x5B0 JUMP JUMPDEST PUSH2 0x9FA DUP5 DUP5 DUP5 DUP5 PUSH2 0x1177 JUMP JUMPDEST POP POP POP POP JUMP JUMPDEST PUSH1 0x60 PUSH2 0xA0B DUP3 PUSH2 0xBE1 JUMP JUMPDEST POP PUSH0 PUSH2 0xA15 PUSH2 0x1329 JUMP JUMPDEST SWAP1 POP PUSH0 DUP2 MLOAD GT PUSH2 0xA33 JUMPI PUSH1 0x40 MLOAD DUP1 PUSH1 0x20 ADD PUSH1 0x40 MSTORE DUP1 PUSH0 DUP2 MSTORE POP PUSH2 0xA5E JUMP JUMPDEST DUP1 PUSH2 0xA3D DUP5 PUSH2 0x1366 JUMP JUMPDEST PUSH1 0x40 MLOAD PUSH1 0x20 ADD PUSH2 0xA4E SWAP3 SWAP2 SWAP1 PUSH2 0x208F JUMP JUMPDEST PUSH1 0x40 MLOAD PUSH1 0x20 DUP2 DUP4 SUB SUB DUP2 MSTORE SWAP1 PUSH1 0x40 MSTORE JUMPDEST SWAP2 POP POP SWAP2 SWAP1 POP JUMP JUMPDEST PUSH0 PUSH1 0x5 PUSH0 DUP5 PUSH20 0xFFFFFFFFFFFFFFFFFFFFFFFFFFFFFFFFFFFFFFFF AND PUSH20 0xFFFFFFFFFFFFFFFFFFFFFFFFFFFFFFFFFFFFFFFF AND DUP2 MSTORE PUSH1 0x20 ADD SWAP1 DUP2 MSTORE PUSH1 0x20 ADD PUSH0 KECCAK256 PUSH0 DUP4 PUSH20 0xFFFFFFFFFFFFFFFFFFFFFFFFFFFFFFFFFFFFFFFF AND PUSH20 0xFFFFFFFFFFFFFFFFFFFFFFFFFFFFFFFFFFFFFFFF AND DUP2 MSTORE PUSH1 0x20 ADD SWAP1 DUP2 MSTORE PUSH1 0x20 ADD PUSH0 KECCAK256 PUSH0 SWAP1 SLOAD SWAP1 PUSH2 0x100 EXP SWAP1 DIV PUSH1 0xFF AND SWAP1 POP SWAP3 SWAP2 POP POP JUMP JUMPDEST PUSH2 0xAFC PUSH2 0xEC4 JUMP JUMPDEST PUSH0 PUSH20 0xFFFFFFFFFFFFFFFFFFFFFFFFFFFFFFFFFFFFFFFF AND DUP2 PUSH20 0xFFFFFFFFFFFFFFFFFFFFFFFFFFFFFFFFFFFFFFFF AND SUB PUSH2 0xB6C JUMPI PUSH0 PUSH1 0x40 MLOAD PUSH32 0x1E4FBDF700000000000000000000000000000000000000000000000000000000 DUP2 MSTORE PUSH1 0x4 ADD PUSH2 0xB63 SWAP2 SWAP1 PUSH2 0x1B59 JUMP JUMPDEST PUSH1 0x40 MLOAD DUP1 SWAP2 SUB SWAP1 REVERT JUMPDEST PUSH2 0xB75 DUP2 PUSH2 0xF4B JUMP JUMPDEST POP JUMP JUMPDEST PUSH0 PUSH32 0x1FFC9A700000000000000000000000000000000000000000000000000000000 PUSH28 0xFFFFFFFFFFFFFFFFFFFFFFFFFFFFFFFFFFFFFFFFFFFFFFFFFFFFFFFF NOT AND DUP3 PUSH28 0xFFFFFFFFFFFFFFFFFFFFFFFFFFFFFFFFFFFFFFFFFFFFFFFFFFFFFFFF NOT AND EQ SWAP1 POP SWAP2 SWAP1 POP JUMP JUMPDEST PUSH0 DUP1 PUSH2 0xBEC DUP4 PUSH2 0x1430 JUMP JUMPDEST SWAP1 POP PUSH0 PUSH20 0xFFFFFFFFFFFFFFFFFFFFFFFFFFFFFFFFFFFFFFFF AND DUP2 PUSH20 0xFFFFFFFFFFFFFFFFFFFFFFFFFFFFFFFFFFFFFFFF AND SUB PUSH2 0xC5E JUMPI DUP3 PUSH1 0x40 MLOAD PUSH32 0x7E27328900000000000000000000000000000000000000000000000000000000 DUP2 MSTORE PUSH1 0x4 ADD PUSH2 0xC55 SWAP2 SWAP1 PUSH2 0x1C64 JUMP JUMPDEST PUSH1 0x40 MLOAD DUP1 SWAP2 SUB SWAP1 REVERT JUMPDEST DUP1 SWAP2 POP POP SWAP2 SWAP1 POP JUMP JUMPDEST PUSH0 PUSH1 0x4 PUSH0 DUP4 DUP2 MSTORE PUSH1 0x20 ADD SWAP1 DUP2 MSTORE PUSH1 0x20 ADD PUSH0 KECCAK256 PUSH0 SWAP1 SLOAD SWAP1 PUSH2 0x100 EXP SWAP1 DIV PUSH20 0xFFFFFFFFFFFFFFFFFFFFFFFFFFFFFFFFFFFFFFFF AND SWAP1 POP SWAP2 SWAP1 POP JUMP JUMPDEST PUSH0 CALLER SWAP1 POP SWAP1 JUMP JUMPDEST PUSH2 0xCB4 DUP4 DUP4 DUP4 PUSH1 0x1 PUSH2 0x1469 JUMP JUMPDEST POP POP POP JUMP JUMPDEST PUSH0 DUP1 PUSH2 0xCC4 DUP5 PUSH2 0x1430 JUMP JUMPDEST SWAP1 POP PUSH0 PUSH20 0xFFFFFFFFFFFFFFFFFFFFFFFFFFFFFFFFFFFFFFFF AND DUP4 PUSH20 0xFFFFFFFFFFFFFFFFFFFFFFFFFFFFFFFFFFFFFFFF AND EQ PUSH2 0xD05 JUMPI PUSH2 0xD04 DUP2 DUP5 DUP7 PUSH2 0x1628 JUMP JUMPDEST JUMPDEST PUSH0 PUSH20 0xFFFFFFFFFFFFFFFFFFFFFFFFFFFFFFFFFFFFFFFF AND DUP2 PUSH20 0xFFFFFFFFFFFFFFFFFFFFFFFFFFFFFFFFFFFFFFFF AND EQ PUSH2 0xD90 JUMPI PUSH2 0xD44 PUSH0 DUP6 PUSH0 DUP1 PUSH2 0x1469 JUMP JUMPDEST PUSH1 0x1 PUSH1 0x3 PUSH0 DUP4 PUSH20 0xFFFFFFFFFFFFFFFFFFFFFFFFFFFFFFFFFFFFFFFF AND PUSH20 0xFFFFFFFFFFFFFFFFFFFFFFFFFFFFFFFFFFFFFFFF AND DUP2 MSTORE PUSH1 0x20 ADD SWAP1 DUP2 MSTORE PUSH1 0x20 ADD PUSH0 KECCAK256 PUSH0 DUP3 DUP3 SLOAD SUB SWAP3 POP POP DUP2 SWAP1 SSTORE POP JUMPDEST PUSH0 PUSH20 0xFFFFFFFFFFFFFFFFFFFFFFFFFFFFFFFFFFFFFFFF AND DUP6 PUSH20 0xFFFFFFFFFFFFFFFFFFFFFFFFFFFFFFFFFFFFFFFF AND EQ PUSH2 0xE0F JUMPI PUSH1 0x1 PUSH1 0x3 PUSH0 DUP8 PUSH20 0xFFFFFFFFFFFFFFFFFFFFFFFFFFFFFFFFFFFFFFFF AND PUSH20 0xFFFFFFFFFFFFFFFFFFFFFFFFFFFFFFFFFFFFFFFF AND DUP2 MSTORE PUSH1 0x20 ADD SWAP1 DUP2 MSTORE PUSH1 0x20 ADD PUSH0 KECCAK256 PUSH0 DUP3 DUP3 SLOAD ADD SWAP3 POP POP DUP2 SWAP1 SSTORE POP JUMPDEST DUP5 PUSH1 0x2 PUSH0 DUP7 DUP2 MSTORE PUSH1 0x20 ADD SWAP1 DUP2 MSTORE PUSH1 0x20 ADD PUSH0 KECCAK256 PUSH0 PUSH2 0x100 EXP DUP2 SLOAD DUP2 PUSH20 0xFFFFFFFFFFFFFFFFFFFFFFFFFFFFFFFFFFFFFFFF MUL NOT AND SWAP1 DUP4 PUSH20 0xFFFFFFFFFFFFFFFFFFFFFFFFFFFFFFFFFFFFFFFF AND MUL OR SWAP1 SSTORE POP DUP4 DUP6 PUSH20 0xFFFFFFFFFFFFFFFFFFFFFFFFFFFFFFFFFFFFFFFF AND DUP3 PUSH20 0xFFFFFFFFFFFFFFFFFFFFFFFFFFFFFFFFFFFFFFFF AND PUSH32 0xDDF252AD1BE2C89B69C2B068FC378DAA952BA7F163C4A11628F55A4DF523B3EF PUSH1 0x40 MLOAD PUSH1 0x40 MLOAD DUP1 SWAP2 SUB SWAP1 LOG4 DUP1 SWAP2 POP POP SWAP4 SWAP3 POP POP POP JUMP JUMPDEST PUSH2 0xECC PUSH2 0xCA0 JUMP JUMPDEST PUSH20 0xFFFFFFFFFFFFFFFFFFFFFFFFFFFFFFFFFFFFFFFF AND PUSH2 0xEEA PUSH2 0x8F4 JUMP JUMPDEST PUSH20 0xFFFFFFFFFFFFFFFFFFFFFFFFFFFFFFFFFFFFFFFF AND EQ PUSH2 0xF49 JUMPI PUSH2 0xF0D PUSH2 0xCA0 JUMP JUMPDEST PUSH1 0x40 MLOAD PUSH32 0x118CDAA700000000000000000000000000000000000000000000000000000000 DUP2 MSTORE PUSH1 0x4 ADD PUSH2 0xF40 SWAP2 SWAP1 PUSH2 0x1B59 JUMP JUMPDEST PUSH1 0x40 MLOAD DUP1 SWAP2 SUB SWAP1 REVERT JUMPDEST JUMP JUMPDEST PUSH0 PUSH1 0x6 PUSH0 SWAP1 SLOAD SWAP1 PUSH2 0x100 EXP SWAP1 DIV PUSH20 0xFFFFFFFFFFFFFFFFFFFFFFFFFFFFFFFFFFFFFFFF AND SWAP1 POP DUP2 PUSH1 0x6 PUSH0 PUSH2 0x100 EXP DUP2 SLOAD DUP2 PUSH20 0xFFFFFFFFFFFFFFFFFFFFFFFFFFFFFFFFFFFFFFFF MUL NOT AND SWAP1 DUP4 PUSH20 0xFFFFFFFFFFFFFFFFFFFFFFFFFFFFFFFFFFFFFFFF AND MUL OR SWAP1 SSTORE POP DUP2 PUSH20 0xFFFFFFFFFFFFFFFFFFFFFFFFFFFFFFFFFFFFFFFF AND DUP2 PUSH20 0xFFFFFFFFFFFFFFFFFFFFFFFFFFFFFFFFFFFFFFFF AND PUSH32 0x8BE0079C531659141344CD1FD0A4F28419497F9722A3DAAFE3B4186F6B6457E0 PUSH1 0x40 MLOAD PUSH1 0x40 MLOAD DUP1 SWAP2 SUB SWAP1 LOG3 POP POP JUMP JUMPDEST PUSH0 PUSH20 0xFFFFFFFFFFFFFFFFFFFFFFFFFFFFFFFFFFFFFFFF AND DUP3 PUSH20 0xFFFFFFFFFFFFFFFFFFFFFFFFFFFFFFFFFFFFFFFF AND SUB PUSH2 0x107E JUMPI DUP2 PUSH1 0x40 MLOAD PUSH32 0x5B08BA1800000000000000000000000000000000000000000000000000000000 DUP2 MSTORE PUSH1 0x4 ADD PUSH2 0x1075 SWAP2 SWAP1 PUSH2 0x1B59 JUMP JUMPDEST PUSH1 0x40 MLOAD DUP1 SWAP2 SUB SWAP1 REVERT JUMPDEST DUP1 PUSH1 0x5 PUSH0 DUP6 PUSH20 0xFFFFFFFFFFFFFFFFFFFFFFFFFFFFFFFFFFFFFFFF AND PUSH20 0xFFFFFFFFFFFFFFFFFFFFFFFFFFFFFFFFFFFFFFFF AND DUP2 MSTORE PUSH1 0x20 ADD SWAP1 DUP2 MSTORE PUSH1 0x20 ADD PUSH0 KECCAK256 PUSH0 DUP5 PUSH20 0xFFFFFFFFFFFFFFFFFFFFFFFFFFFFFFFFFFFFFFFF AND PUSH20 0xFFFFFFFFFFFFFFFFFFFFFFFFFFFFFFFFFFFFFFFF AND DUP2 MSTORE PUSH1 0x20 ADD SWAP1 DUP2 MSTORE PUSH1 0x20 ADD PUSH0 KECCAK256 PUSH0 PUSH2 0x100 EXP DUP2 SLOAD DUP2 PUSH1 0xFF MUL NOT AND SWAP1 DUP4 ISZERO ISZERO MUL OR SWAP1 SSTORE POP DUP2 PUSH20 0xFFFFFFFFFFFFFFFFFFFFFFFFFFFFFFFFFFFFFFFF AND DUP4 PUSH20 0xFFFFFFFFFFFFFFFFFFFFFFFFFFFFFFFFFFFFFFFF AND PUSH32 0x17307EAB39AB6107E8899845AD3D59BD9653F200F220920489CA2B5937696C31 DUP4 PUSH1 0x40 MLOAD PUSH2 0x116A SWAP2 SWAP1 PUSH2 0x19F9 JUMP JUMPDEST PUSH1 0x40 MLOAD DUP1 SWAP2 SUB SWAP1 LOG3 POP POP POP JUMP JUMPDEST PUSH0 DUP4 PUSH20 0xFFFFFFFFFFFFFFFFFFFFFFFFFFFFFFFFFFFFFFFF AND EXTCODESIZE GT ISZERO PUSH2 0x1323 JUMPI DUP3 PUSH20 0xFFFFFFFFFFFFFFFFFFFFFFFFFFFFFFFFFFFFFFFF AND PUSH4 0x150B7A02 PUSH2 0x11BA PUSH2 0xCA0 JUMP JUMPDEST DUP7 DUP6 DUP6 PUSH1 0x40 MLOAD DUP6 PUSH4 0xFFFFFFFF AND PUSH1 0xE0 SHL DUP2 MSTORE PUSH1 0x4 ADD PUSH2 0x11DC SWAP5 SWAP4 SWAP3 SWAP2 SWAP1 PUSH2 0x2104 JUMP JUMPDEST PUSH1 0x20 PUSH1 0x40 MLOAD DUP1 DUP4 SUB DUP2 PUSH0 DUP8 GAS CALL SWAP3 POP POP POP DUP1 ISZERO PUSH2 0x1217 JUMPI POP PUSH1 0x40 MLOAD RETURNDATASIZE PUSH1 0x1F NOT PUSH1 0x1F DUP3 ADD AND DUP3 ADD DUP1 PUSH1 0x40 MSTORE POP DUP2 ADD SWAP1 PUSH2 0x1214 SWAP2 SWAP1 PUSH2 0x2162 JUMP JUMPDEST PUSH1 0x1 JUMPDEST PUSH2 0x1298 JUMPI RETURNDATASIZE DUP1 PUSH0 DUP2 EQ PUSH2 0x1245 JUMPI PUSH1 0x40 MLOAD SWAP2 POP PUSH1 0x1F NOT PUSH1 0x3F RETURNDATASIZE ADD AND DUP3 ADD PUSH1 0x40 MSTORE RETURNDATASIZE DUP3 MSTORE RETURNDATASIZE PUSH0 PUSH1 0x20 DUP5 ADD RETURNDATACOPY PUSH2 0x124A JUMP JUMPDEST PUSH1 0x60 SWAP2 POP JUMPDEST POP PUSH0 DUP2 MLOAD SUB PUSH2 0x1290 JUMPI DUP4 PUSH1 0x40 MLOAD PUSH32 0x64A0AE9200000000000000000000000000000000000000000000000000000000 DUP2 MSTORE PUSH1 0x4 ADD PUSH2 0x1287 SWAP2 SWAP1 PUSH2 0x1B59 JUMP JUMPDEST PUSH1 0x40 MLOAD DUP1 SWAP2 SUB SWAP1 REVERT JUMPDEST DUP1 MLOAD DUP2 PUSH1 0x20 ADD REVERT JUMPDEST PUSH4 0x150B7A02 PUSH1 0xE0 SHL PUSH28 0xFFFFFFFFFFFFFFFFFFFFFFFFFFFFFFFFFFFFFFFFFFFFFFFFFFFFFFFF NOT AND DUP2 PUSH28 0xFFFFFFFFFFFFFFFFFFFFFFFFFFFFFFFFFFFFFFFFFFFFFFFFFFFFFFFF NOT AND EQ PUSH2 0x1321 JUMPI DUP4 PUSH1 0x40 MLOAD PUSH32 0x64A0AE9200000000000000000000000000000000000000000000000000000000 DUP2 MSTORE PUSH1 0x4 ADD PUSH2 0x1318 SWAP2 SWAP1 PUSH2 0x1B59 JUMP JUMPDEST PUSH1 0x40 MLOAD DUP1 SWAP2 SUB SWAP1 REVERT JUMPDEST POP JUMPDEST POP POP POP POP JUMP JUMPDEST PUSH1 0x60 PUSH1 0x40 MLOAD DUP1 PUSH1 0x40 ADD PUSH1 0x40 MSTORE DUP1 PUSH1 0x18 DUP2 MSTORE PUSH1 0x20 ADD PUSH32 0x697066733A2F2F7069656365546F6B656E426173655552490000000000000000 DUP2 MSTORE POP SWAP1 POP SWAP1 JUMP JUMPDEST PUSH1 0x60 PUSH0 PUSH1 0x1 PUSH2 0x1374 DUP5 PUSH2 0x16EB JUMP JUMPDEST ADD SWAP1 POP PUSH0 DUP2 PUSH8 0xFFFFFFFFFFFFFFFF DUP2 GT ISZERO PUSH2 0x1392 JUMPI PUSH2 0x1391 PUSH2 0x1DE1 JUMP JUMPDEST JUMPDEST PUSH1 0x40 MLOAD SWAP1 DUP1 DUP3 MSTORE DUP1 PUSH1 0x1F ADD PUSH1 0x1F NOT AND PUSH1 0x20 ADD DUP3 ADD PUSH1 0x40 MSTORE DUP1 ISZERO PUSH2 0x13C4 JUMPI DUP2 PUSH1 0x20 ADD PUSH1 0x1 DUP3 MUL DUP1 CALLDATASIZE DUP4 CALLDATACOPY DUP1 DUP3 ADD SWAP2 POP POP SWAP1 POP JUMPDEST POP SWAP1 POP PUSH0 DUP3 PUSH1 0x20 ADD DUP3 ADD SWAP1 POP JUMPDEST PUSH1 0x1 ISZERO PUSH2 0x1425 JUMPI DUP1 DUP1 PUSH1 0x1 SWAP1 SUB SWAP2 POP POP PUSH32 0x3031323334353637383961626364656600000000000000000000000000000000 PUSH1 0xA DUP7 MOD BYTE DUP2 MSTORE8 PUSH1 0xA DUP6 DUP2 PUSH2 0x141A JUMPI PUSH2 0x1419 PUSH2 0x218D JUMP JUMPDEST JUMPDEST DIV SWAP5 POP PUSH0 DUP6 SUB PUSH2 0x13D1 JUMPI JUMPDEST DUP2 SWAP4 POP POP POP POP SWAP2 SWAP1 POP JUMP JUMPDEST PUSH0 PUSH1 0x2 PUSH0 DUP4 DUP2 MSTORE PUSH1 0x20 ADD SWAP1 DUP2 MSTORE PUSH1 0x20 ADD PUSH0 KECCAK256 PUSH0 SWAP1 SLOAD SWAP1 PUSH2 0x100 EXP SWAP1 DIV PUSH20 0xFFFFFFFFFFFFFFFFFFFFFFFFFFFFFFFFFFFFFFFF AND SWAP1 POP SWAP2 SWAP1 POP JUMP JUMPDEST DUP1 DUP1 PUSH2 0x14A1 JUMPI POP PUSH0 PUSH20 0xFFFFFFFFFFFFFFFFFFFFFFFFFFFFFFFFFFFFFFFF AND DUP3 PUSH20 0xFFFFFFFFFFFFFFFFFFFFFFFFFFFFFFFFFFFFFFFF AND EQ ISZERO JUMPDEST ISZERO PUSH2 0x15D3 JUMPI PUSH0 PUSH2 0x14B0 DUP5 PUSH2 0xBE1 JUMP JUMPDEST SWAP1 POP PUSH0 PUSH20 0xFFFFFFFFFFFFFFFFFFFFFFFFFFFFFFFFFFFFFFFF AND DUP4 PUSH20 0xFFFFFFFFFFFFFFFFFFFFFFFFFFFFFFFFFFFFFFFF AND EQ ISZERO DUP1 ISZERO PUSH2 0x151A JUMPI POP DUP3 PUSH20 0xFFFFFFFFFFFFFFFFFFFFFFFFFFFFFFFFFFFFFFFF AND DUP2 PUSH20 0xFFFFFFFFFFFFFFFFFFFFFFFFFFFFFFFFFFFFFFFF AND EQ ISZERO JUMPDEST DUP1 ISZERO PUSH2 0x152D JUMPI POP PUSH2 0x152B DUP2 DUP5 PUSH2 0xA66 JUMP JUMPDEST ISZERO JUMPDEST ISZERO PUSH2 0x156F JUMPI DUP3 PUSH1 0x40 MLOAD PUSH32 0xA9FBF51F00000000000000000000000000000000000000000000000000000000 DUP2 MSTORE PUSH1 0x4 ADD PUSH2 0x1566 SWAP2 SWAP1 PUSH2 0x1B59 JUMP JUMPDEST PUSH1 0x40 MLOAD DUP1 SWAP2 SUB SWAP1 REVERT JUMPDEST DUP2 ISZERO PUSH2 0x15D1 JUMPI DUP4 DUP6 PUSH20 0xFFFFFFFFFFFFFFFFFFFFFFFFFFFFFFFFFFFFFFFF AND DUP3 PUSH20 0xFFFFFFFFFFFFFFFFFFFFFFFFFFFFFFFFFFFFFFFF AND PUSH32 0x8C5BE1E5EBEC7D5BD14F71427D1E84F3DD0314C0F7B2291E5B200AC8C7C3B925 PUSH1 0x40 MLOAD PUSH1 0x40 MLOAD DUP1 SWAP2 SUB SWAP1 LOG4 JUMPDEST POP JUMPDEST DUP4 PUSH1 0x4 PUSH0 DUP6 DUP2 MSTORE PUSH1 0x20 ADD SWAP1 DUP2 MSTORE PUSH1 0x20 ADD PUSH0 KECCAK256 PUSH0 PUSH2 0x100 EXP DUP2 SLOAD DUP2 PUSH20 0xFFFFFFFFFFFFFFFFFFFFFFFFFFFFFFFFFFFFFFFF MUL NOT AND SWAP1 DUP4 PUSH20 0xFFFFFFFFFFFFFFFFFFFFFFFFFFFFFFFFFFFFFFFF AND MUL OR SWAP1 SSTORE POP POP POP POP POP JUMP JUMPDEST PUSH2 0x1633 DUP4 DUP4 DUP4 PUSH2 0x183C JUMP JUMPDEST PUSH2 0x16E6 JUMPI PUSH0 PUSH20 0xFFFFFFFFFFFFFFFFFFFFFFFFFFFFFFFFFFFFFFFF AND DUP4 PUSH20 0xFFFFFFFFFFFFFFFFFFFFFFFFFFFFFFFFFFFFFFFF AND SUB PUSH2 0x16A7 JUMPI DUP1 PUSH1 0x40 MLOAD PUSH32 0x7E27328900000000000000000000000000000000000000000000000000000000 DUP2 MSTORE PUSH1 0x4 ADD PUSH2 0x169E SWAP2 SWAP1 PUSH2 0x1C64 JUMP JUMPDEST PUSH1 0x40 MLOAD DUP1 SWAP2 SUB SWAP1 REVERT JUMPDEST DUP2 DUP2 PUSH1 0x40 MLOAD PUSH32 0x177E802F00000000000000000000000000000000000000000000000000000000 DUP2 MSTORE PUSH1 0x4 ADD PUSH2 0x16DD SWAP3 SWAP2 SWAP1 PUSH2 0x21BA JUMP JUMPDEST PUSH1 0x40 MLOAD DUP1 SWAP2 SUB SWAP1 REVERT JUMPDEST POP POP POP JUMP JUMPDEST PUSH0 DUP1 PUSH0 SWAP1 POP PUSH27 0x184F03E93FF9F4DAA797ED6E38ED64BF6A1F010000000000000000 DUP4 LT PUSH2 0x1747 JUMPI PUSH27 0x184F03E93FF9F4DAA797ED6E38ED64BF6A1F010000000000000000 DUP4 DUP2 PUSH2 0x173D JUMPI PUSH2 0x173C PUSH2 0x218D JUMP JUMPDEST JUMPDEST DIV SWAP3 POP PUSH1 0x40 DUP2 ADD SWAP1 POP JUMPDEST PUSH14 0x4EE2D6D415B85ACEF8100000000 DUP4 LT PUSH2 0x1784 JUMPI PUSH14 0x4EE2D6D415B85ACEF8100000000 DUP4 DUP2 PUSH2 0x177A JUMPI PUSH2 0x1779 PUSH2 0x218D JUMP JUMPDEST JUMPDEST DIV SWAP3 POP PUSH1 0x20 DUP2 ADD SWAP1 POP JUMPDEST PUSH7 0x2386F26FC10000 DUP4 LT PUSH2 0x17B3 JUMPI PUSH7 0x2386F26FC10000 DUP4 DUP2 PUSH2 0x17A9 JUMPI PUSH2 0x17A8 PUSH2 0x218D JUMP JUMPDEST JUMPDEST DIV SWAP3 POP PUSH1 0x10 DUP2 ADD SWAP1 POP JUMPDEST PUSH4 0x5F5E100 DUP4 LT PUSH2 0x17DC JUMPI PUSH4 0x5F5E100 DUP4 DUP2 PUSH2 0x17D2 JUMPI PUSH2 0x17D1 PUSH2 0x218D JUMP JUMPDEST JUMPDEST DIV SWAP3 POP PUSH1 0x8 DUP2 ADD SWAP1 POP JUMPDEST PUSH2 0x2710 DUP4 LT PUSH2 0x1801 JUMPI PUSH2 0x2710 DUP4 DUP2 PUSH2 0x17F7 JUMPI PUSH2 0x17F6 PUSH2 0x218D JUMP JUMPDEST JUMPDEST DIV SWAP3 POP PUSH1 0x4 DUP2 ADD SWAP1 POP JUMPDEST PUSH1 0x64 DUP4 LT PUSH2 0x1824 JUMPI PUSH1 0x64 DUP4 DUP2 PUSH2 0x181A JUMPI PUSH2 0x1819 PUSH2 0x218D JUMP JUMPDEST JUMPDEST DIV SWAP3 POP PUSH1 0x2 DUP2 ADD SWAP1 POP JUMPDEST PUSH1 0xA DUP4 LT PUSH2 0x1833 JUMPI PUSH1 0x1 DUP2 ADD SWAP1 POP JUMPDEST DUP1 SWAP2 POP POP SWAP2 SWAP1 POP JUMP JUMPDEST PUSH0 DUP1 PUSH20 0xFFFFFFFFFFFFFFFFFFFFFFFFFFFFFFFFFFFFFFFF AND DUP4 PUSH20 0xFFFFFFFFFFFFFFFFFFFFFFFFFFFFFFFFFFFFFFFF AND EQ ISZERO DUP1 ISZERO PUSH2 0x18F3 JUMPI POP DUP3 PUSH20 0xFFFFFFFFFFFFFFFFFFFFFFFFFFFFFFFFFFFFFFFF AND DUP5 PUSH20 0xFFFFFFFFFFFFFFFFFFFFFFFFFFFFFFFFFFFFFFFF AND EQ DUP1 PUSH2 0x18B4 JUMPI POP PUSH2 0x18B3 DUP5 DUP5 PUSH2 0xA66 JUMP JUMPDEST JUMPDEST DUP1 PUSH2 0x18F2 JUMPI POP DUP3 PUSH20 0xFFFFFFFFFFFFFFFFFFFFFFFFFFFFFFFFFFFFFFFF AND PUSH2 0x18DA DUP4 PUSH2 0xC67 JUMP JUMPDEST PUSH20 0xFFFFFFFFFFFFFFFFFFFFFFFFFFFFFFFFFFFFFFFF AND EQ JUMPDEST JUMPDEST SWAP1 POP SWAP4 SWAP3 POP POP POP JUMP JUMPDEST PUSH1 0x40 MLOAD DUP1 PUSH1 0x80 ADD PUSH1 0x40 MSTORE DUP1 PUSH0 PUSH20 0xFFFFFFFFFFFFFFFFFFFFFFFFFFFFFFFFFFFFFFFF AND DUP2 MSTORE PUSH1 0x20 ADD PUSH0 PUSH20 0xFFFFFFFFFFFFFFFFFFFFFFFFFFFFFFFFFFFFFFFF AND DUP2 MSTORE PUSH1 0x20 ADD PUSH0 DUP2 MSTORE PUSH1 0x20 ADD PUSH0 ISZERO ISZERO DUP2 MSTORE POP SWAP1 JUMP JUMPDEST PUSH0 PUSH1 0x40 MLOAD SWAP1 POP SWAP1 JUMP JUMPDEST PUSH0 DUP1 REVERT JUMPDEST PUSH0 DUP1 REVERT JUMPDEST PUSH0 PUSH32 0xFFFFFFFF00000000000000000000000000000000000000000000000000000000 DUP3 AND SWAP1 POP SWAP2 SWAP1 POP JUMP JUMPDEST PUSH2 0x1993 DUP2 PUSH2 0x195F JUMP JUMPDEST DUP2 EQ PUSH2 0x199D JUMPI PUSH0 DUP1 REVERT JUMPDEST POP JUMP JUMPDEST PUSH0 DUP2 CALLDATALOAD SWAP1 POP PUSH2 0x19AE DUP2 PUSH2 0x198A JUMP JUMPDEST SWAP3 SWAP2 POP POP JUMP JUMPDEST PUSH0 PUSH1 0x20 DUP3 DUP5 SUB SLT ISZERO PUSH2 0x19C9 JUMPI PUSH2 0x19C8 PUSH2 0x1957 JUMP JUMPDEST JUMPDEST PUSH0 PUSH2 0x19D6 DUP5 DUP3 DUP6 ADD PUSH2 0x19A0 JUMP JUMPDEST SWAP2 POP POP SWAP3 SWAP2 POP POP JUMP JUMPDEST PUSH0 DUP2 ISZERO ISZERO SWAP1 POP SWAP2 SWAP1 POP JUMP JUMPDEST PUSH2 0x19F3 DUP2 PUSH2 0x19DF JUMP JUMPDEST DUP3 MSTORE POP POP JUMP JUMPDEST PUSH0 PUSH1 0x20 DUP3 ADD SWAP1 POP PUSH2 0x1A0C PUSH0 DUP4 ADD DUP5 PUSH2 0x19EA JUMP JUMPDEST SWAP3 SWAP2 POP POP JUMP JUMPDEST PUSH0 DUP2 MLOAD SWAP1 POP SWAP2 SWAP1 POP JUMP JUMPDEST PUSH0 DUP3 DUP3 MSTORE PUSH1 0x20 DUP3 ADD SWAP1 POP SWAP3 SWAP2 POP POP JUMP JUMPDEST PUSH0 JUMPDEST DUP4 DUP2 LT ISZERO PUSH2 0x1A49 JUMPI DUP1 DUP3 ADD MLOAD DUP2 DUP5 ADD MSTORE PUSH1 0x20 DUP2 ADD SWAP1 POP PUSH2 0x1A2E JUMP JUMPDEST PUSH0 DUP5 DUP5 ADD MSTORE POP POP POP POP JUMP JUMPDEST PUSH0 PUSH1 0x1F NOT PUSH1 0x1F DUP4 ADD AND SWAP1 POP SWAP2 SWAP1 POP JUMP JUMPDEST PUSH0 PUSH2 0x1A6E DUP3 PUSH2 0x1A12 JUMP JUMPDEST PUSH2 0x1A78 DUP2 DUP6 PUSH2 0x1A1C JUMP JUMPDEST SWAP4 POP PUSH2 0x1A88 DUP2 DUP6 PUSH1 0x20 DUP7 ADD PUSH2 0x1A2C JUMP JUMPDEST PUSH2 0x1A91 DUP2 PUSH2 0x1A54 JUMP JUMPDEST DUP5 ADD SWAP2 POP POP SWAP3 SWAP2 POP POP JUMP JUMPDEST PUSH0 PUSH1 0x20 DUP3 ADD SWAP1 POP DUP2 DUP2 SUB PUSH0 DUP4 ADD MSTORE PUSH2 0x1AB4 DUP2 DUP5 PUSH2 0x1A64 JUMP JUMPDEST SWAP1 POP SWAP3 SWAP2 POP POP JUMP JUMPDEST PUSH0 DUP2 SWAP1 POP SWAP2 SWAP1 POP JUMP JUMPDEST PUSH2 0x1ACE DUP2 PUSH2 0x1ABC JUMP JUMPDEST DUP2 EQ PUSH2 0x1AD8 JUMPI PUSH0 DUP1 REVERT JUMPDEST POP JUMP JUMPDEST PUSH0 DUP2 CALLDATALOAD SWAP1 POP PUSH2 0x1AE9 DUP2 PUSH2 0x1AC5 JUMP JUMPDEST SWAP3 SWAP2 POP POP JUMP JUMPDEST PUSH0 PUSH1 0x20 DUP3 DUP5 SUB SLT ISZERO PUSH2 0x1B04 JUMPI PUSH2 0x1B03 PUSH2 0x1957 JUMP JUMPDEST JUMPDEST PUSH0 PUSH2 0x1B11 DUP5 DUP3 DUP6 ADD PUSH2 0x1ADB JUMP JUMPDEST SWAP2 POP POP SWAP3 SWAP2 POP POP JUMP JUMPDEST PUSH0 PUSH20 0xFFFFFFFFFFFFFFFFFFFFFFFFFFFFFFFFFFFFFFFF DUP3 AND SWAP1 POP SWAP2 SWAP1 POP JUMP JUMPDEST PUSH0 PUSH2 0x1B43 DUP3 PUSH2 0x1B1A JUMP JUMPDEST SWAP1 POP SWAP2 SWAP1 POP JUMP JUMPDEST PUSH2 0x1B53 DUP2 PUSH2 0x1B39 JUMP JUMPDEST DUP3 MSTORE POP POP JUMP JUMPDEST PUSH0 PUSH1 0x20 DUP3 ADD SWAP1 POP PUSH2 0x1B6C PUSH0 DUP4 ADD DUP5 PUSH2 0x1B4A JUMP JUMPDEST SWAP3 SWAP2 POP POP JUMP JUMPDEST PUSH2 0x1B7B DUP2 PUSH2 0x1B39 JUMP JUMPDEST DUP2 EQ PUSH2 0x1B85 JUMPI PUSH0 DUP1 REVERT JUMPDEST POP JUMP JUMPDEST PUSH0 DUP2 CALLDATALOAD SWAP1 POP PUSH2 0x1B96 DUP2 PUSH2 0x1B72 JUMP JUMPDEST SWAP3 SWAP2 POP POP JUMP JUMPDEST PUSH0 DUP1 PUSH1 0x40 DUP4 DUP6 SUB SLT ISZERO PUSH2 0x1BB2 JUMPI PUSH2 0x1BB1 PUSH2 0x1957 JUMP JUMPDEST JUMPDEST PUSH0 PUSH2 0x1BBF DUP6 DUP3 DUP7 ADD PUSH2 0x1B88 JUMP JUMPDEST SWAP3 POP POP PUSH1 0x20 PUSH2 0x1BD0 DUP6 DUP3 DUP7 ADD PUSH2 0x1ADB JUMP JUMPDEST SWAP2 POP POP SWAP3 POP SWAP3 SWAP1 POP JUMP JUMPDEST PUSH0 DUP1 PUSH0 PUSH1 0x60 DUP5 DUP7 SUB SLT ISZERO PUSH2 0x1BF1 JUMPI PUSH2 0x1BF0 PUSH2 0x1957 JUMP JUMPDEST JUMPDEST PUSH0 PUSH2 0x1BFE DUP7 DUP3 DUP8 ADD PUSH2 0x1B88 JUMP JUMPDEST SWAP4 POP POP PUSH1 0x20 PUSH2 0x1C0F DUP7 DUP3 DUP8 ADD PUSH2 0x1B88 JUMP JUMPDEST SWAP3 POP POP PUSH1 0x40 PUSH2 0x1C20 DUP7 DUP3 DUP8 ADD PUSH2 0x1ADB JUMP JUMPDEST SWAP2 POP POP SWAP3 POP SWAP3 POP SWAP3 JUMP JUMPDEST PUSH0 PUSH1 0x20 DUP3 DUP5 SUB SLT ISZERO PUSH2 0x1C3F JUMPI PUSH2 0x1C3E PUSH2 0x1957 JUMP JUMPDEST JUMPDEST PUSH0 PUSH2 0x1C4C DUP5 DUP3 DUP6 ADD PUSH2 0x1B88 JUMP JUMPDEST SWAP2 POP POP SWAP3 SWAP2 POP POP JUMP JUMPDEST PUSH2 0x1C5E DUP2 PUSH2 0x1ABC JUMP JUMPDEST DUP3 MSTORE POP POP JUMP JUMPDEST PUSH0 PUSH1 0x20 DUP3 ADD SWAP1 POP PUSH2 0x1C77 PUSH0 DUP4 ADD DUP5 PUSH2 0x1C55 JUMP JUMPDEST SWAP3 SWAP2 POP POP JUMP JUMPDEST PUSH2 0x1C86 DUP2 PUSH2 0x1B39 JUMP JUMPDEST DUP3 MSTORE POP POP JUMP JUMPDEST PUSH0 DUP2 SWAP1 POP SWAP2 SWAP1 POP JUMP JUMPDEST PUSH0 PUSH2 0x1CAF PUSH2 0x1CAA PUSH2 0x1CA5 DUP5 PUSH2 0x1B1A JUMP JUMPDEST PUSH2 0x1C8C JUMP JUMPDEST PUSH2 0x1B1A JUMP JUMPDEST SWAP1 POP SWAP2 SWAP1 POP JUMP JUMPDEST PUSH0 PUSH2 0x1CC0 DUP3 PUSH2 0x1C95 JUMP JUMPDEST SWAP1 POP SWAP2 SWAP1 POP JUMP JUMPDEST PUSH0 PUSH2 0x1CD1 DUP3 PUSH2 0x1CB6 JUMP JUMPDEST SWAP1 POP SWAP2 SWAP1 POP JUMP JUMPDEST PUSH2 0x1CE1 DUP2 PUSH2 0x1CC7 JUMP JUMPDEST DUP3 MSTORE POP POP JUMP JUMPDEST PUSH2 0x1CF0 DUP2 PUSH2 0x1ABC JUMP JUMPDEST DUP3 MSTORE POP POP JUMP JUMPDEST PUSH2 0x1CFF DUP2 PUSH2 0x19DF JUMP JUMPDEST DUP3 MSTORE POP POP JUMP JUMPDEST PUSH1 0x80 DUP3 ADD PUSH0 DUP3 ADD MLOAD PUSH2 0x1D19 PUSH0 DUP6 ADD DUP3 PUSH2 0x1C7D JUMP JUMPDEST POP PUSH1 0x20 DUP3 ADD MLOAD PUSH2 0x1D2C PUSH1 0x20 DUP6 ADD DUP3 PUSH2 0x1CD8 JUMP JUMPDEST POP PUSH1 0x40 DUP3 ADD MLOAD PUSH2 0x1D3F PUSH1 0x40 DUP6 ADD DUP3 PUSH2 0x1CE7 JUMP JUMPDEST POP PUSH1 0x60 DUP3 ADD MLOAD PUSH2 0x1D52 PUSH1 0x60 DUP6 ADD DUP3 PUSH2 0x1CF6 JUMP JUMPDEST POP POP POP POP JUMP JUMPDEST PUSH0 PUSH1 0x80 DUP3 ADD SWAP1 POP PUSH2 0x1D6B PUSH0 DUP4 ADD DUP5 PUSH2 0x1D05 JUMP JUMPDEST SWAP3 SWAP2 POP POP JUMP JUMPDEST PUSH2 0x1D7A DUP2 PUSH2 0x19DF JUMP JUMPDEST DUP2 EQ PUSH2 0x1D84 JUMPI PUSH0 DUP1 REVERT JUMPDEST POP JUMP JUMPDEST PUSH0 DUP2 CALLDATALOAD SWAP1 POP PUSH2 0x1D95 DUP2 PUSH2 0x1D71 JUMP JUMPDEST SWAP3 SWAP2 POP POP JUMP JUMPDEST PUSH0 DUP1 PUSH1 0x40 DUP4 DUP6 SUB SLT ISZERO PUSH2 0x1DB1 JUMPI PUSH2 0x1DB0 PUSH2 0x1957 JUMP JUMPDEST JUMPDEST PUSH0 PUSH2 0x1DBE DUP6 DUP3 DUP7 ADD PUSH2 0x1B88 JUMP JUMPDEST SWAP3 POP POP PUSH1 0x20 PUSH2 0x1DCF DUP6 DUP3 DUP7 ADD PUSH2 0x1D87 JUMP JUMPDEST SWAP2 POP POP SWAP3 POP SWAP3 SWAP1 POP JUMP JUMPDEST PUSH0 DUP1 REVERT JUMPDEST PUSH0 DUP1 REVERT JUMPDEST PUSH32 0x4E487B7100000000000000000000000000000000000000000000000000000000 PUSH0 MSTORE PUSH1 0x41 PUSH1 0x4 MSTORE PUSH1 0x24 PUSH0 REVERT JUMPDEST PUSH2 0x1E17 DUP3 PUSH2 0x1A54 JUMP JUMPDEST DUP2 ADD DUP2 DUP2 LT PUSH8 0xFFFFFFFFFFFFFFFF DUP3 GT OR ISZERO PUSH2 0x1E36 JUMPI PUSH2 0x1E35 PUSH2 0x1DE1 JUMP JUMPDEST JUMPDEST DUP1 PUSH1 0x40 MSTORE POP POP POP JUMP JUMPDEST PUSH0 PUSH2 0x1E48 PUSH2 0x194E JUMP JUMPDEST SWAP1 POP PUSH2 0x1E54 DUP3 DUP3 PUSH2 0x1E0E JUMP JUMPDEST SWAP2 SWAP1 POP JUMP JUMPDEST PUSH0 PUSH8 0xFFFFFFFFFFFFFFFF DUP3 GT ISZERO PUSH2 0x1E73 JUMPI PUSH2 0x1E72 PUSH2 0x1DE1 JUMP JUMPDEST JUMPDEST PUSH2 0x1E7C DUP3 PUSH2 0x1A54 JUMP JUMPDEST SWAP1 POP PUSH1 0x20 DUP2 ADD SWAP1 POP SWAP2 SWAP1 POP JUMP JUMPDEST DUP3 DUP2 DUP4 CALLDATACOPY PUSH0 DUP4 DUP4 ADD MSTORE POP POP POP JUMP JUMPDEST PUSH0 PUSH2 0x1EA9 PUSH2 0x1EA4 DUP5 PUSH2 0x1E59 JUMP JUMPDEST PUSH2 0x1E3F JUMP JUMPDEST SWAP1 POP DUP3 DUP2 MSTORE PUSH1 0x20 DUP2 ADD DUP5 DUP5 DUP5 ADD GT ISZERO PUSH2 0x1EC5 JUMPI PUSH2 0x1EC4 PUSH2 0x1DDD JUMP JUMPDEST JUMPDEST PUSH2 0x1ED0 DUP5 DUP3 DUP6 PUSH2 0x1E89 JUMP JUMPDEST POP SWAP4 SWAP3 POP POP POP JUMP JUMPDEST PUSH0 DUP3 PUSH1 0x1F DUP4 ADD SLT PUSH2 0x1EEC JUMPI PUSH2 0x1EEB PUSH2 0x1DD9 JUMP JUMPDEST JUMPDEST DUP2 CALLDATALOAD PUSH2 0x1EFC DUP5 DUP3 PUSH1 0x20 DUP7 ADD PUSH2 0x1E97 JUMP JUMPDEST SWAP2 POP POP SWAP3 SWAP2 POP POP JUMP JUMPDEST PUSH0 DUP1 PUSH0 DUP1 PUSH1 0x80 DUP6 DUP8 SUB SLT ISZERO PUSH2 0x1F1D JUMPI PUSH2 0x1F1C PUSH2 0x1957 JUMP JUMPDEST JUMPDEST PUSH0 PUSH2 0x1F2A DUP8 DUP3 DUP9 ADD PUSH2 0x1B88 JUMP JUMPDEST SWAP5 POP POP PUSH1 0x20 PUSH2 0x1F3B DUP8 DUP3 DUP9 ADD PUSH2 0x1B88 JUMP JUMPDEST SWAP4 POP POP PUSH1 0x40 PUSH2 0x1F4C DUP8 DUP3 DUP9 ADD PUSH2 0x1ADB JUMP JUMPDEST SWAP3 POP POP PUSH1 0x60 DUP6 ADD CALLDATALOAD PUSH8 0xFFFFFFFFFFFFFFFF DUP2 GT ISZERO PUSH2 0x1F6D JUMPI PUSH2 0x1F6C PUSH2 0x195B JUMP JUMPDEST JUMPDEST PUSH2 0x1F79 DUP8 DUP3 DUP9 ADD PUSH2 0x1ED8 JUMP JUMPDEST SWAP2 POP POP SWAP3 SWAP6 SWAP2 SWAP5 POP SWAP3 POP JUMP JUMPDEST PUSH0 DUP1 PUSH1 0x40 DUP4 DUP6 SUB SLT ISZERO PUSH2 0x1F9B JUMPI PUSH2 0x1F9A PUSH2 0x1957 JUMP JUMPDEST JUMPDEST PUSH0 PUSH2 0x1FA8 DUP6 DUP3 DUP7 ADD PUSH2 0x1B88 JUMP JUMPDEST SWAP3 POP POP PUSH1 0x20 PUSH2 0x1FB9 DUP6 DUP3 DUP7 ADD PUSH2 0x1B88 JUMP JUMPDEST SWAP2 POP POP SWAP3 POP SWAP3 SWAP1 POP JUMP JUMPDEST PUSH32 0x4E487B7100000000000000000000000000000000000000000000000000000000 PUSH0 MSTORE PUSH1 0x22 PUSH1 0x4 MSTORE PUSH1 0x24 PUSH0 REVERT JUMPDEST PUSH0 PUSH1 0x2 DUP3 DIV SWAP1 POP PUSH1 0x1 DUP3 AND DUP1 PUSH2 0x2007 JUMPI PUSH1 0x7F DUP3 AND SWAP2 POP JUMPDEST PUSH1 0x20 DUP3 LT DUP2 SUB PUSH2 0x201A JUMPI PUSH2 0x2019 PUSH2 0x1FC3 JUMP JUMPDEST JUMPDEST POP SWAP2 SWAP1 POP JUMP JUMPDEST PUSH0 PUSH1 0x60 DUP3 ADD SWAP1 POP PUSH2 0x2033 PUSH0 DUP4 ADD DUP7 PUSH2 0x1B4A JUMP JUMPDEST PUSH2 0x2040 PUSH1 0x20 DUP4 ADD DUP6 PUSH2 0x1C55 JUMP JUMPDEST PUSH2 0x204D PUSH1 0x40 DUP4 ADD DUP5 PUSH2 0x1B4A JUMP JUMPDEST SWAP5 SWAP4 POP POP POP POP JUMP JUMPDEST PUSH0 DUP2 SWAP1 POP SWAP3 SWAP2 POP POP JUMP JUMPDEST PUSH0 PUSH2 0x2069 DUP3 PUSH2 0x1A12 JUMP JUMPDEST PUSH2 0x2073 DUP2 DUP6 PUSH2 0x2055 JUMP JUMPDEST SWAP4 POP PUSH2 0x2083 DUP2 DUP6 PUSH1 0x20 DUP7 ADD PUSH2 0x1A2C JUMP JUMPDEST DUP1 DUP5 ADD SWAP2 POP POP SWAP3 SWAP2 POP POP JUMP JUMPDEST PUSH0 PUSH2 0x209A DUP3 DUP6 PUSH2 0x205F JUMP JUMPDEST SWAP2 POP PUSH2 0x20A6 DUP3 DUP5 PUSH2 0x205F JUMP JUMPDEST SWAP2 POP DUP2 SWAP1 POP SWAP4 SWAP3 POP POP POP JUMP JUMPDEST PUSH0 DUP2 MLOAD SWAP1 POP SWAP2 SWAP1 POP JUMP JUMPDEST PUSH0 DUP3 DUP3 MSTORE PUSH1 0x20 DUP3 ADD SWAP1 POP SWAP3 SWAP2 POP POP JUMP JUMPDEST PUSH0 PUSH2 0x20D6 DUP3 PUSH2 0x20B2 JUMP JUMPDEST PUSH2 0x20E0 DUP2 DUP6 PUSH2 0x20BC JUMP JUMPDEST SWAP4 POP PUSH2 0x20F0 DUP2 DUP6 PUSH1 0x20 DUP7 ADD PUSH2 0x1A2C JUMP JUMPDEST PUSH2 0x20F9 DUP2 PUSH2 0x1A54 JUMP JUMPDEST DUP5 ADD SWAP2 POP POP SWAP3 SWAP2 POP POP JUMP JUMPDEST PUSH0 PUSH1 0x80 DUP3 ADD SWAP1 POP PUSH2 0x2117 PUSH0 DUP4 ADD DUP8 PUSH2 0x1B4A JUMP JUMPDEST PUSH2 0x2124 PUSH1 0x20 DUP4 ADD DUP7 PUSH2 0x1B4A JUMP JUMPDEST PUSH2 0x2131 PUSH1 0x40 DUP4 ADD DUP6 PUSH2 0x1C55 JUMP JUMPDEST DUP2 DUP2 SUB PUSH1 0x60 DUP4 ADD MSTORE PUSH2 0x2143 DUP2 DUP5 PUSH2 0x20CC JUMP JUMPDEST SWAP1 POP SWAP6 SWAP5 POP POP POP POP POP JUMP JUMPDEST PUSH0 DUP2 MLOAD SWAP1 POP PUSH2 0x215C DUP2 PUSH2 0x198A JUMP JUMPDEST SWAP3 SWAP2 POP POP JUMP JUMPDEST PUSH0 PUSH1 0x20 DUP3 DUP5 SUB SLT ISZERO PUSH2 0x2177 JUMPI PUSH2 0x2176 PUSH2 0x1957 JUMP JUMPDEST JUMPDEST PUSH0 PUSH2 0x2184 DUP5 DUP3 DUP6 ADD PUSH2 0x214E JUMP JUMPDEST SWAP2 POP POP SWAP3 SWAP2 POP POP JUMP JUMPDEST PUSH32 0x4E487B7100000000000000000000000000000000000000000000000000000000 PUSH0 MSTORE PUSH1 0x12 PUSH1 0x4 MSTORE PUSH1 0x24 PUSH0 REVERT JUMPDEST PUSH0 PUSH1 0x40 DUP3 ADD SWAP1 POP PUSH2 0x21CD PUSH0 DUP4 ADD DUP6 PUSH2 0x1B4A JUMP JUMPDEST PUSH2 0x21DA PUSH1 0x20 DUP4 ADD DUP5 PUSH2 0x1C55 JUMP JUMPDEST SWAP4 SWAP3 POP POP POP JUMP INVALID LOG2 PUSH5 0x6970667358 0x22 SLT KECCAK256 SUB DUP15 ORIGIN PUSH15 0xE7EA47C0D58867F51E45BFA898C556 0xB0 LOG0 0x5C 0x25 PUSH17 0x7CA4D4572479C82F64736F6C6343000814 STOP CALLER "
				},
				"gasEstimates": {
					"creation": {
						"codeDepositCost": "1745400",
						"executionCost": "infinite",
						"totalCost": "infinite"
					},
					"external": {
						"approve(address,uint256)": "infinite",
						"balanceOf(address)": "infinite",
						"getApproved(uint256)": "infinite",
						"getPrice()": "2565",
						"getSinglePictureToken()": "infinite",
						"isApprovedForAll(address,address)": "infinite",
						"name()": "infinite",
						"notPutOnSale()": "infinite",
						"owner()": "2582",
						"ownerOf(uint256)": "infinite",
						"price()": "2447",
						"purchase()": "infinite",
						"putOnSale()": "infinite",
						"renounceOwnership()": "infinite",
						"safeTransferFrom(address,address,uint256)": "infinite",
						"safeTransferFrom(address,address,uint256,bytes)": "infinite",
						"setApprovalForAll(address,bool)": "infinite",
						"setPrice(uint256)": "infinite",
						"supportsInterface(bytes4)": "787",
						"symbol()": "infinite",
						"tokenURI(uint256)": "infinite",
						"transferFrom(address,address,uint256)": "infinite",
						"transferOwnership(address)": "infinite"
					},
					"internal": {
						"_baseURI()": "infinite"
					}
				},
				"methodIdentifiers": {
					"approve(address,uint256)": "095ea7b3",
					"balanceOf(address)": "70a08231",
					"getApproved(uint256)": "081812fc",
					"getPrice()": "98d5fdca",
					"getSinglePictureToken()": "854cbb4a",
					"isApprovedForAll(address,address)": "e985e9c5",
					"name()": "06fdde03",
					"notPutOnSale()": "8c2a5bc8",
					"owner()": "8da5cb5b",
					"ownerOf(uint256)": "6352211e",
					"price()": "a035b1fe",
					"purchase()": "64edfbf0",
					"putOnSale()": "5987cc19",
					"renounceOwnership()": "715018a6",
					"safeTransferFrom(address,address,uint256)": "42842e0e",
					"safeTransferFrom(address,address,uint256,bytes)": "b88d4fde",
					"setApprovalForAll(address,bool)": "a22cb465",
					"setPrice(uint256)": "91b7f5ed",
					"supportsInterface(bytes4)": "01ffc9a7",
					"symbol()": "95d89b41",
					"tokenURI(uint256)": "c87b56dd",
					"transferFrom(address,address,uint256)": "23b872dd",
					"transferOwnership(address)": "f2fde38b"
				}
			},
			"storageLayout": {
				"storage": [
					{
						"astId": 486,
						"contract": "PictureToken.sol:PictureToken",
						"label": "_name",
						"offset": 0,
						"slot": "0",
						"type": "t_string_storage"
					},
					{
						"astId": 488,
						"contract": "PictureToken.sol:PictureToken",
						"label": "_symbol",
						"offset": 0,
						"slot": "1",
						"type": "t_string_storage"
					},
					{
						"astId": 492,
						"contract": "PictureToken.sol:PictureToken",
						"label": "_owners",
						"offset": 0,
						"slot": "2",
						"type": "t_mapping(t_uint256,t_address)"
					},
					{
						"astId": 496,
						"contract": "PictureToken.sol:PictureToken",
						"label": "_balances",
						"offset": 0,
						"slot": "3",
						"type": "t_mapping(t_address,t_uint256)"
					},
					{
						"astId": 500,
						"contract": "PictureToken.sol:PictureToken",
						"label": "_tokenApprovals",
						"offset": 0,
						"slot": "4",
						"type": "t_mapping(t_uint256,t_address)"
					},
					{
						"astId": 506,
						"contract": "PictureToken.sol:PictureToken",
						"label": "_operatorApprovals",
						"offset": 0,
						"slot": "5",
						"type": "t_mapping(t_address,t_mapping(t_address,t_bool))"
					},
					{
						"astId": 177,
						"contract": "PictureToken.sol:PictureToken",
						"label": "_owner",
						"offset": 0,
						"slot": "6",
						"type": "t_address"
					},
					{
						"astId": 34,
						"contract": "PictureToken.sol:PictureToken",
						"label": "props",
						"offset": 0,
						"slot": "7",
						"type": "t_contract(Picture)22"
					},
					{
						"astId": 36,
						"contract": "PictureToken.sol:PictureToken",
						"label": "price",
						"offset": 0,
						"slot": "8",
						"type": "t_uint256"
					},
					{
						"astId": 38,
						"contract": "PictureToken.sol:PictureToken",
						"label": "onSale",
						"offset": 0,
						"slot": "9",
						"type": "t_bool"
					}
				],
				"types": {
					"t_address": {
						"encoding": "inplace",
						"label": "address",
						"numberOfBytes": "20"
					},
					"t_bool": {
						"encoding": "inplace",
						"label": "bool",
						"numberOfBytes": "1"
					},
					"t_contract(Picture)22": {
						"encoding": "inplace",
						"label": "contract Picture",
						"numberOfBytes": "20"
					},
					"t_mapping(t_address,t_bool)": {
						"encoding": "mapping",
						"key": "t_address",
						"label": "mapping(address => bool)",
						"numberOfBytes": "32",
						"value": "t_bool"
					},
					"t_mapping(t_address,t_mapping(t_address,t_bool))": {
						"encoding": "mapping",
						"key": "t_address",
						"label": "mapping(address => mapping(address => bool))",
						"numberOfBytes": "32",
						"value": "t_mapping(t_address,t_bool)"
					},
					"t_mapping(t_address,t_uint256)": {
						"encoding": "mapping",
						"key": "t_address",
						"label": "mapping(address => uint256)",
						"numberOfBytes": "32",
						"value": "t_uint256"
					},
					"t_mapping(t_uint256,t_address)": {
						"encoding": "mapping",
						"key": "t_uint256",
						"label": "mapping(uint256 => address)",
						"numberOfBytes": "32",
						"value": "t_address"
					},
					"t_string_storage": {
						"encoding": "bytes",
						"label": "string",
						"numberOfBytes": "32"
					},
					"t_uint256": {
						"encoding": "inplace",
						"label": "uint256",
						"numberOfBytes": "32"
					}
				}
			},
			"userdoc": {
				"kind": "user",
				"methods": {},
				"version": 1
			}
		}
	}
}