{
	"BigPictureFactory.sol": {
		"BigPictureFactory": {
			"abi": [
				{
					"inputs": [
						{
							"internalType": "string",
							"name": "_name",
							"type": "string"
						},
						{
							"internalType": "string",
							"name": "_image",
							"type": "string"
						},
						{
							"internalType": "contract Picture[]",
							"name": "_picturePart",
							"type": "address[]"
						}
					],
					"name": "createBigPicture",
					"outputs": [],
					"stateMutability": "nonpayable",
					"type": "function"
				},
				{
					"inputs": [],
					"name": "getAllBigPictures",
					"outputs": [
						{
							"internalType": "contract BigPicture[]",
							"name": "",
							"type": "address[]"
						}
					],
					"stateMutability": "view",
					"type": "function"
				}
			],
			"devdoc": {
				"kind": "dev",
				"methods": {},
				"version": 1
			},
			"evm": {
				"assembly": "    /* \"BigPictureFactory.sol\":116:644  contract BigPictureFactory {... */\n  mstore(0x40, 0x80)\n  callvalue\n  dup1\n  iszero\n  tag_1\n  jumpi\n  0x00\n  dup1\n  revert\ntag_1:\n  pop\n  dataSize(sub_0)\n  dup1\n  dataOffset(sub_0)\n  0x00\n  codecopy\n  0x00\n  return\nstop\n\nsub_0: assembly {\n        /* \"BigPictureFactory.sol\":116:644  contract BigPictureFactory {... */\n      mstore(0x40, 0x80)\n      callvalue\n      dup1\n      iszero\n      tag_1\n      jumpi\n      0x00\n      dup1\n      revert\n    tag_1:\n      pop\n      jumpi(tag_2, lt(calldatasize, 0x04))\n      shr(0xe0, calldataload(0x00))\n      dup1\n      0x4eef150d\n      eq\n      tag_3\n      jumpi\n      dup1\n      0x73292fe8\n      eq\n      tag_4\n      jumpi\n    tag_2:\n      0x00\n      dup1\n      revert\n        /* \"BigPictureFactory.sol\":194:305  function getAllBigPictures() public view returns (BigPicture[] memory) {... */\n    tag_3:\n      tag_5\n      tag_6\n      jump\t// in\n    tag_5:\n      mload(0x40)\n      tag_7\n      swap2\n      swap1\n      tag_8\n      jump\t// in\n    tag_7:\n      mload(0x40)\n      dup1\n      swap2\n      sub\n      swap1\n      return\n        /* \"BigPictureFactory.sol\":314:639  function createBigPicture(... */\n    tag_4:\n      tag_9\n      0x04\n      dup1\n      calldatasize\n      sub\n      dup2\n      add\n      swap1\n      tag_10\n      swap2\n      swap1\n      tag_11\n      jump\t// in\n    tag_10:\n      tag_12\n      jump\t// in\n    tag_9:\n      stop\n        /* \"BigPictureFactory.sol\":194:305  function getAllBigPictures() public view returns (BigPicture[] memory) {... */\n    tag_6:\n        /* \"BigPictureFactory.sol\":244:263  BigPicture[] memory */\n      0x60\n        /* \"BigPictureFactory.sol\":283:297  allBigPictures */\n      0x00\n        /* \"BigPictureFactory.sol\":276:297  return allBigPictures */\n      dup1\n      sload\n      dup1\n      0x20\n      mul\n      0x20\n      add\n      mload(0x40)\n      swap1\n      dup2\n      add\n      0x40\n      mstore\n      dup1\n      swap3\n      swap2\n      swap1\n      dup2\n      dup2\n      mstore\n      0x20\n      add\n      dup3\n      dup1\n      sload\n      dup1\n      iszero\n      tag_14\n      jumpi\n      0x20\n      mul\n      dup3\n      add\n      swap2\n      swap1\n      0x00\n      mstore\n      keccak256(0x00, 0x20)\n      swap1\n    tag_15:\n      dup2\n      0x00\n      swap1\n      sload\n      swap1\n      0x0100\n      exp\n      swap1\n      div\n      0xffffffffffffffffffffffffffffffffffffffff\n      and\n      0xffffffffffffffffffffffffffffffffffffffff\n      and\n      dup2\n      mstore\n      0x20\n      add\n      swap1\n      0x01\n      add\n      swap1\n      dup1\n      dup4\n      gt\n      tag_15\n      jumpi\n    tag_14:\n      pop\n      pop\n      pop\n      pop\n      pop\n      swap1\n      pop\n        /* \"BigPictureFactory.sol\":194:305  function getAllBigPictures() public view returns (BigPicture[] memory) {... */\n      swap1\n      jump\t// out\n        /* \"BigPictureFactory.sol\":314:639  function createBigPicture(... */\n    tag_12:\n        /* \"BigPictureFactory.sol\":466:490  BigPicture newBigPicture */\n      0x00\n        /* \"BigPictureFactory.sol\":522:527  _name */\n      dup4\n        /* \"BigPictureFactory.sol\":542:548  _image */\n      dup4\n        /* \"BigPictureFactory.sol\":563:575  _picturePart */\n      dup4\n        /* \"BigPictureFactory.sol\":493:586  new BigPicture(... */\n      mload(0x40)\n      tag_17\n      swap1\n      tag_18\n      jump\t// in\n    tag_17:\n      tag_19\n      swap4\n      swap3\n      swap2\n      swap1\n      tag_20\n      jump\t// in\n    tag_19:\n      mload(0x40)\n      dup1\n      swap2\n      sub\n      swap1\n      0x00\n      create\n      dup1\n      iszero\n      dup1\n      iszero\n      tag_21\n      jumpi\n      returndatasize\n      0x00\n      dup1\n      returndatacopy\n      revert(0x00, returndatasize)\n    tag_21:\n      pop\n        /* \"BigPictureFactory.sol\":466:586  BigPicture newBigPicture = new BigPicture(... */\n      swap1\n      pop\n        /* \"BigPictureFactory.sol\":597:611  allBigPictures */\n      0x00\n        /* \"BigPictureFactory.sol\":617:630  newBigPicture */\n      dup2\n        /* \"BigPictureFactory.sol\":597:631  allBigPictures.push(newBigPicture) */\n      swap1\n      dup1\n      0x01\n      dup2\n      sload\n      add\n      dup1\n      dup3\n      sstore\n      dup1\n      swap2\n      pop\n      pop\n      0x01\n      swap1\n      sub\n      swap1\n      0x00\n      mstore\n      keccak256(0x00, 0x20)\n      add\n      0x00\n      swap1\n      swap2\n      swap1\n      swap2\n      swap1\n      swap2\n      0x0100\n      exp\n      dup2\n      sload\n      dup2\n      0xffffffffffffffffffffffffffffffffffffffff\n      mul\n      not\n      and\n      swap1\n      dup4\n      0xffffffffffffffffffffffffffffffffffffffff\n      and\n      mul\n      or\n      swap1\n      sstore\n      pop\n        /* \"BigPictureFactory.sol\":455:639  {... */\n      pop\n        /* \"BigPictureFactory.sol\":314:639  function createBigPicture(... */\n      pop\n      pop\n      pop\n      jump\t// out\n    tag_18:\n      dataSize(sub_0)\n      dup1\n      dataOffset(sub_0)\n      dup4\n      codecopy\n      add\n      swap1\n      jump\t// out\n        /* \"#utility.yul\":7:138   */\n    tag_23:\n        /* \"#utility.yul\":91:97   */\n      0x00\n        /* \"#utility.yul\":125:130   */\n      dup2\n        /* \"#utility.yul\":119:131   */\n      mload\n        /* \"#utility.yul\":109:131   */\n      swap1\n      pop\n        /* \"#utility.yul\":7:138   */\n      swap2\n      swap1\n      pop\n      jump\t// out\n        /* \"#utility.yul\":144:328   */\n    tag_24:\n        /* \"#utility.yul\":243:254   */\n      0x00\n        /* \"#utility.yul\":277:283   */\n      dup3\n        /* \"#utility.yul\":272:275   */\n      dup3\n        /* \"#utility.yul\":265:284   */\n      mstore\n        /* \"#utility.yul\":317:321   */\n      0x20\n        /* \"#utility.yul\":312:315   */\n      dup3\n        /* \"#utility.yul\":308:322   */\n      add\n        /* \"#utility.yul\":293:322   */\n      swap1\n      pop\n        /* \"#utility.yul\":144:328   */\n      swap3\n      swap2\n      pop\n      pop\n      jump\t// out\n        /* \"#utility.yul\":334:483   */\n    tag_25:\n        /* \"#utility.yul\":418:422   */\n      0x00\n        /* \"#utility.yul\":441:444   */\n      dup2\n        /* \"#utility.yul\":433:444   */\n      swap1\n      pop\n        /* \"#utility.yul\":471:475   */\n      0x20\n        /* \"#utility.yul\":466:469   */\n      dup3\n        /* \"#utility.yul\":462:476   */\n      add\n        /* \"#utility.yul\":454:476   */\n      swap1\n      pop\n        /* \"#utility.yul\":334:483   */\n      swap2\n      swap1\n      pop\n      jump\t// out\n        /* \"#utility.yul\":489:615   */\n    tag_26:\n        /* \"#utility.yul\":526:533   */\n      0x00\n        /* \"#utility.yul\":566:608   */\n      0xffffffffffffffffffffffffffffffffffffffff\n        /* \"#utility.yul\":559:564   */\n      dup3\n        /* \"#utility.yul\":555:609   */\n      and\n        /* \"#utility.yul\":544:609   */\n      swap1\n      pop\n        /* \"#utility.yul\":489:615   */\n      swap2\n      swap1\n      pop\n      jump\t// out\n        /* \"#utility.yul\":621:681   */\n    tag_27:\n        /* \"#utility.yul\":649:652   */\n      0x00\n        /* \"#utility.yul\":670:675   */\n      dup2\n        /* \"#utility.yul\":663:675   */\n      swap1\n      pop\n        /* \"#utility.yul\":621:681   */\n      swap2\n      swap1\n      pop\n      jump\t// out\n        /* \"#utility.yul\":687:829   */\n    tag_28:\n        /* \"#utility.yul\":737:746   */\n      0x00\n        /* \"#utility.yul\":770:823   */\n      tag_74\n        /* \"#utility.yul\":788:822   */\n      tag_75\n        /* \"#utility.yul\":797:821   */\n      tag_76\n        /* \"#utility.yul\":815:820   */\n      dup5\n        /* \"#utility.yul\":797:821   */\n      tag_26\n      jump\t// in\n    tag_76:\n        /* \"#utility.yul\":788:822   */\n      tag_27\n      jump\t// in\n    tag_75:\n        /* \"#utility.yul\":770:823   */\n      tag_26\n      jump\t// in\n    tag_74:\n        /* \"#utility.yul\":757:823   */\n      swap1\n      pop\n        /* \"#utility.yul\":687:829   */\n      swap2\n      swap1\n      pop\n      jump\t// out\n        /* \"#utility.yul\":835:961   */\n    tag_29:\n        /* \"#utility.yul\":885:894   */\n      0x00\n        /* \"#utility.yul\":918:955   */\n      tag_78\n        /* \"#utility.yul\":949:954   */\n      dup3\n        /* \"#utility.yul\":918:955   */\n      tag_28\n      jump\t// in\n    tag_78:\n        /* \"#utility.yul\":905:955   */\n      swap1\n      pop\n        /* \"#utility.yul\":835:961   */\n      swap2\n      swap1\n      pop\n      jump\t// out\n        /* \"#utility.yul\":967:1110   */\n    tag_30:\n        /* \"#utility.yul\":1034:1043   */\n      0x00\n        /* \"#utility.yul\":1067:1104   */\n      tag_80\n        /* \"#utility.yul\":1098:1103   */\n      dup3\n        /* \"#utility.yul\":1067:1104   */\n      tag_29\n      jump\t// in\n    tag_80:\n        /* \"#utility.yul\":1054:1104   */\n      swap1\n      pop\n        /* \"#utility.yul\":967:1110   */\n      swap2\n      swap1\n      pop\n      jump\t// out\n        /* \"#utility.yul\":1116:1271   */\n    tag_31:\n        /* \"#utility.yul\":1210:1264   */\n      tag_82\n        /* \"#utility.yul\":1258:1263   */\n      dup2\n        /* \"#utility.yul\":1210:1264   */\n      tag_30\n      jump\t// in\n    tag_82:\n        /* \"#utility.yul\":1205:1208   */\n      dup3\n        /* \"#utility.yul\":1198:1265   */\n      mstore\n        /* \"#utility.yul\":1116:1271   */\n      pop\n      pop\n      jump\t// out\n        /* \"#utility.yul\":1277:1490   */\n    tag_32:\n        /* \"#utility.yul\":1363:1373   */\n      0x00\n        /* \"#utility.yul\":1384:1447   */\n      tag_84\n        /* \"#utility.yul\":1443:1446   */\n      dup4\n        /* \"#utility.yul\":1435:1441   */\n      dup4\n        /* \"#utility.yul\":1384:1447   */\n      tag_31\n      jump\t// in\n    tag_84:\n        /* \"#utility.yul\":1479:1483   */\n      0x20\n        /* \"#utility.yul\":1474:1477   */\n      dup4\n        /* \"#utility.yul\":1470:1484   */\n      add\n        /* \"#utility.yul\":1456:1484   */\n      swap1\n      pop\n        /* \"#utility.yul\":1277:1490   */\n      swap3\n      swap2\n      pop\n      pop\n      jump\t// out\n        /* \"#utility.yul\":1496:1626   */\n    tag_33:\n        /* \"#utility.yul\":1583:1587   */\n      0x00\n        /* \"#utility.yul\":1615:1619   */\n      0x20\n        /* \"#utility.yul\":1610:1613   */\n      dup3\n        /* \"#utility.yul\":1606:1620   */\n      add\n        /* \"#utility.yul\":1598:1620   */\n      swap1\n      pop\n        /* \"#utility.yul\":1496:1626   */\n      swap2\n      swap1\n      pop\n      jump\t// out\n        /* \"#utility.yul\":1674:2491   */\n    tag_34:\n        /* \"#utility.yul\":1810:1813   */\n      0x00\n        /* \"#utility.yul\":1839:1910   */\n      tag_87\n        /* \"#utility.yul\":1904:1909   */\n      dup3\n        /* \"#utility.yul\":1839:1910   */\n      tag_23\n      jump\t// in\n    tag_87:\n        /* \"#utility.yul\":1926:2012   */\n      tag_88\n        /* \"#utility.yul\":2005:2011   */\n      dup2\n        /* \"#utility.yul\":2000:2003   */\n      dup6\n        /* \"#utility.yul\":1926:2012   */\n      tag_24\n      jump\t// in\n    tag_88:\n        /* \"#utility.yul\":1919:2012   */\n      swap4\n      pop\n        /* \"#utility.yul\":2036:2109   */\n      tag_89\n        /* \"#utility.yul\":2103:2108   */\n      dup4\n        /* \"#utility.yul\":2036:2109   */\n      tag_25\n      jump\t// in\n    tag_89:\n        /* \"#utility.yul\":2132:2139   */\n      dup1\n        /* \"#utility.yul\":2163:2164   */\n      0x00\n        /* \"#utility.yul\":2148:2466   */\n    tag_90:\n        /* \"#utility.yul\":2173:2179   */\n      dup4\n        /* \"#utility.yul\":2170:2171   */\n      dup2\n        /* \"#utility.yul\":2167:2180   */\n      lt\n        /* \"#utility.yul\":2148:2466   */\n      iszero\n      tag_92\n      jumpi\n        /* \"#utility.yul\":2249:2255   */\n      dup2\n        /* \"#utility.yul\":2243:2256   */\n      mload\n        /* \"#utility.yul\":2276:2356   */\n      tag_93\n        /* \"#utility.yul\":2352:2355   */\n      dup9\n        /* \"#utility.yul\":2337:2350   */\n      dup3\n        /* \"#utility.yul\":2276:2356   */\n      tag_32\n      jump\t// in\n    tag_93:\n        /* \"#utility.yul\":2269:2356   */\n      swap8\n      pop\n        /* \"#utility.yul\":2379:2456   */\n      tag_94\n        /* \"#utility.yul\":2449:2455   */\n      dup4\n        /* \"#utility.yul\":2379:2456   */\n      tag_33\n      jump\t// in\n    tag_94:\n        /* \"#utility.yul\":2369:2456   */\n      swap3\n      pop\n        /* \"#utility.yul\":2208:2466   */\n      pop\n        /* \"#utility.yul\":2195:2196   */\n      0x01\n        /* \"#utility.yul\":2192:2193   */\n      dup2\n        /* \"#utility.yul\":2188:2197   */\n      add\n        /* \"#utility.yul\":2183:2197   */\n      swap1\n      pop\n        /* \"#utility.yul\":2148:2466   */\n      jump(tag_90)\n    tag_92:\n        /* \"#utility.yul\":2152:2166   */\n      pop\n        /* \"#utility.yul\":2482:2485   */\n      dup6\n        /* \"#utility.yul\":2475:2485   */\n      swap4\n      pop\n        /* \"#utility.yul\":1815:2491   */\n      pop\n      pop\n      pop\n        /* \"#utility.yul\":1674:2491   */\n      swap3\n      swap2\n      pop\n      pop\n      jump\t// out\n        /* \"#utility.yul\":2497:2904   */\n    tag_8:\n        /* \"#utility.yul\":2657:2661   */\n      0x00\n        /* \"#utility.yul\":2695:2697   */\n      0x20\n        /* \"#utility.yul\":2684:2693   */\n      dup3\n        /* \"#utility.yul\":2680:2698   */\n      add\n        /* \"#utility.yul\":2672:2698   */\n      swap1\n      pop\n        /* \"#utility.yul\":2744:2753   */\n      dup2\n        /* \"#utility.yul\":2738:2742   */\n      dup2\n        /* \"#utility.yul\":2734:2754   */\n      sub\n        /* \"#utility.yul\":2730:2731   */\n      0x00\n        /* \"#utility.yul\":2719:2728   */\n      dup4\n        /* \"#utility.yul\":2715:2732   */\n      add\n        /* \"#utility.yul\":2708:2755   */\n      mstore\n        /* \"#utility.yul\":2772:2897   */\n      tag_96\n        /* \"#utility.yul\":2892:2896   */\n      dup2\n        /* \"#utility.yul\":2883:2889   */\n      dup5\n        /* \"#utility.yul\":2772:2897   */\n      tag_34\n      jump\t// in\n    tag_96:\n        /* \"#utility.yul\":2764:2897   */\n      swap1\n      pop\n        /* \"#utility.yul\":2497:2904   */\n      swap3\n      swap2\n      pop\n      pop\n      jump\t// out\n        /* \"#utility.yul\":2910:2985   */\n    tag_35:\n        /* \"#utility.yul\":2943:2949   */\n      0x00\n        /* \"#utility.yul\":2976:2978   */\n      0x40\n        /* \"#utility.yul\":2970:2979   */\n      mload\n        /* \"#utility.yul\":2960:2979   */\n      swap1\n      pop\n        /* \"#utility.yul\":2910:2985   */\n      swap1\n      jump\t// out\n        /* \"#utility.yul\":2991:3108   */\n    tag_36:\n        /* \"#utility.yul\":3100:3101   */\n      0x00\n        /* \"#utility.yul\":3097:3098   */\n      dup1\n        /* \"#utility.yul\":3090:3102   */\n      revert\n        /* \"#utility.yul\":3114:3231   */\n    tag_37:\n        /* \"#utility.yul\":3223:3224   */\n      0x00\n        /* \"#utility.yul\":3220:3221   */\n      dup1\n        /* \"#utility.yul\":3213:3225   */\n      revert\n        /* \"#utility.yul\":3237:3354   */\n    tag_38:\n        /* \"#utility.yul\":3346:3347   */\n      0x00\n        /* \"#utility.yul\":3343:3344   */\n      dup1\n        /* \"#utility.yul\":3336:3348   */\n      revert\n        /* \"#utility.yul\":3360:3477   */\n    tag_39:\n        /* \"#utility.yul\":3469:3470   */\n      0x00\n        /* \"#utility.yul\":3466:3467   */\n      dup1\n        /* \"#utility.yul\":3459:3471   */\n      revert\n        /* \"#utility.yul\":3483:3585   */\n    tag_40:\n        /* \"#utility.yul\":3524:3530   */\n      0x00\n        /* \"#utility.yul\":3575:3577   */\n      0x1f\n        /* \"#utility.yul\":3571:3578   */\n      not\n        /* \"#utility.yul\":3566:3568   */\n      0x1f\n        /* \"#utility.yul\":3559:3564   */\n      dup4\n        /* \"#utility.yul\":3555:3569   */\n      add\n        /* \"#utility.yul\":3551:3579   */\n      and\n        /* \"#utility.yul\":3541:3579   */\n      swap1\n      pop\n        /* \"#utility.yul\":3483:3585   */\n      swap2\n      swap1\n      pop\n      jump\t// out\n        /* \"#utility.yul\":3591:3771   */\n    tag_41:\n        /* \"#utility.yul\":3639:3716   */\n      0x4e487b7100000000000000000000000000000000000000000000000000000000\n        /* \"#utility.yul\":3636:3637   */\n      0x00\n        /* \"#utility.yul\":3629:3717   */\n      mstore\n        /* \"#utility.yul\":3736:3740   */\n      0x41\n        /* \"#utility.yul\":3733:3734   */\n      0x04\n        /* \"#utility.yul\":3726:3741   */\n      mstore\n        /* \"#utility.yul\":3760:3764   */\n      0x24\n        /* \"#utility.yul\":3757:3758   */\n      0x00\n        /* \"#utility.yul\":3750:3765   */\n      revert\n        /* \"#utility.yul\":3777:4058   */\n    tag_42:\n        /* \"#utility.yul\":3860:3887   */\n      tag_105\n        /* \"#utility.yul\":3882:3886   */\n      dup3\n        /* \"#utility.yul\":3860:3887   */\n      tag_40\n      jump\t// in\n    tag_105:\n        /* \"#utility.yul\":3852:3858   */\n      dup2\n        /* \"#utility.yul\":3848:3888   */\n      add\n        /* \"#utility.yul\":3990:3996   */\n      dup2\n        /* \"#utility.yul\":3978:3988   */\n      dup2\n        /* \"#utility.yul\":3975:3997   */\n      lt\n        /* \"#utility.yul\":3954:3972   */\n      0xffffffffffffffff\n        /* \"#utility.yul\":3942:3952   */\n      dup3\n        /* \"#utility.yul\":3939:3973   */\n      gt\n        /* \"#utility.yul\":3936:3998   */\n      or\n        /* \"#utility.yul\":3933:4021   */\n      iszero\n      tag_106\n      jumpi\n        /* \"#utility.yul\":4001:4019   */\n      tag_107\n      tag_41\n      jump\t// in\n    tag_107:\n        /* \"#utility.yul\":3933:4021   */\n    tag_106:\n        /* \"#utility.yul\":4041:4051   */\n      dup1\n        /* \"#utility.yul\":4037:4039   */\n      0x40\n        /* \"#utility.yul\":4030:4052   */\n      mstore\n        /* \"#utility.yul\":3820:4058   */\n      pop\n        /* \"#utility.yul\":3777:4058   */\n      pop\n      pop\n      jump\t// out\n        /* \"#utility.yul\":4064:4193   */\n    tag_43:\n        /* \"#utility.yul\":4098:4104   */\n      0x00\n        /* \"#utility.yul\":4125:4145   */\n      tag_109\n      tag_35\n      jump\t// in\n    tag_109:\n        /* \"#utility.yul\":4115:4145   */\n      swap1\n      pop\n        /* \"#utility.yul\":4154:4187   */\n      tag_110\n        /* \"#utility.yul\":4182:4186   */\n      dup3\n        /* \"#utility.yul\":4174:4180   */\n      dup3\n        /* \"#utility.yul\":4154:4187   */\n      tag_42\n      jump\t// in\n    tag_110:\n        /* \"#utility.yul\":4064:4193   */\n      swap2\n      swap1\n      pop\n      jump\t// out\n        /* \"#utility.yul\":4199:4507   */\n    tag_44:\n        /* \"#utility.yul\":4261:4265   */\n      0x00\n        /* \"#utility.yul\":4351:4369   */\n      0xffffffffffffffff\n        /* \"#utility.yul\":4343:4349   */\n      dup3\n        /* \"#utility.yul\":4340:4370   */\n      gt\n        /* \"#utility.yul\":4337:4393   */\n      iszero\n      tag_112\n      jumpi\n        /* \"#utility.yul\":4373:4391   */\n      tag_113\n      tag_41\n      jump\t// in\n    tag_113:\n        /* \"#utility.yul\":4337:4393   */\n    tag_112:\n        /* \"#utility.yul\":4411:4440   */\n      tag_114\n        /* \"#utility.yul\":4433:4439   */\n      dup3\n        /* \"#utility.yul\":4411:4440   */\n      tag_40\n      jump\t// in\n    tag_114:\n        /* \"#utility.yul\":4403:4440   */\n      swap1\n      pop\n        /* \"#utility.yul\":4495:4499   */\n      0x20\n        /* \"#utility.yul\":4489:4493   */\n      dup2\n        /* \"#utility.yul\":4485:4500   */\n      add\n        /* \"#utility.yul\":4477:4500   */\n      swap1\n      pop\n        /* \"#utility.yul\":4199:4507   */\n      swap2\n      swap1\n      pop\n      jump\t// out\n        /* \"#utility.yul\":4513:4659   */\n    tag_45:\n        /* \"#utility.yul\":4610:4616   */\n      dup3\n        /* \"#utility.yul\":4605:4608   */\n      dup2\n        /* \"#utility.yul\":4600:4603   */\n      dup4\n        /* \"#utility.yul\":4587:4617   */\n      calldatacopy\n        /* \"#utility.yul\":4651:4652   */\n      0x00\n        /* \"#utility.yul\":4642:4648   */\n      dup4\n        /* \"#utility.yul\":4637:4640   */\n      dup4\n        /* \"#utility.yul\":4633:4649   */\n      add\n        /* \"#utility.yul\":4626:4653   */\n      mstore\n        /* \"#utility.yul\":4513:4659   */\n      pop\n      pop\n      pop\n      jump\t// out\n        /* \"#utility.yul\":4665:5090   */\n    tag_46:\n        /* \"#utility.yul\":4743:4748   */\n      0x00\n        /* \"#utility.yul\":4768:4834   */\n      tag_117\n        /* \"#utility.yul\":4784:4833   */\n      tag_118\n        /* \"#utility.yul\":4826:4832   */\n      dup5\n        /* \"#utility.yul\":4784:4833   */\n      tag_44\n      jump\t// in\n    tag_118:\n        /* \"#utility.yul\":4768:4834   */\n      tag_43\n      jump\t// in\n    tag_117:\n        /* \"#utility.yul\":4759:4834   */\n      swap1\n      pop\n        /* \"#utility.yul\":4857:4863   */\n      dup3\n        /* \"#utility.yul\":4850:4855   */\n      dup2\n        /* \"#utility.yul\":4843:4864   */\n      mstore\n        /* \"#utility.yul\":4895:4899   */\n      0x20\n        /* \"#utility.yul\":4888:4893   */\n      dup2\n        /* \"#utility.yul\":4884:4900   */\n      add\n        /* \"#utility.yul\":4933:4936   */\n      dup5\n        /* \"#utility.yul\":4924:4930   */\n      dup5\n        /* \"#utility.yul\":4919:4922   */\n      dup5\n        /* \"#utility.yul\":4915:4931   */\n      add\n        /* \"#utility.yul\":4912:4937   */\n      gt\n        /* \"#utility.yul\":4909:5021   */\n      iszero\n      tag_119\n      jumpi\n        /* \"#utility.yul\":4940:5019   */\n      tag_120\n      tag_39\n      jump\t// in\n    tag_120:\n        /* \"#utility.yul\":4909:5021   */\n    tag_119:\n        /* \"#utility.yul\":5030:5084   */\n      tag_121\n        /* \"#utility.yul\":5077:5083   */\n      dup5\n        /* \"#utility.yul\":5072:5075   */\n      dup3\n        /* \"#utility.yul\":5067:5070   */\n      dup6\n        /* \"#utility.yul\":5030:5084   */\n      tag_45\n      jump\t// in\n    tag_121:\n        /* \"#utility.yul\":4749:5090   */\n      pop\n        /* \"#utility.yul\":4665:5090   */\n      swap4\n      swap3\n      pop\n      pop\n      pop\n      jump\t// out\n        /* \"#utility.yul\":5110:5450   */\n    tag_47:\n        /* \"#utility.yul\":5166:5171   */\n      0x00\n        /* \"#utility.yul\":5215:5218   */\n      dup3\n        /* \"#utility.yul\":5208:5212   */\n      0x1f\n        /* \"#utility.yul\":5200:5206   */\n      dup4\n        /* \"#utility.yul\":5196:5213   */\n      add\n        /* \"#utility.yul\":5192:5219   */\n      slt\n        /* \"#utility.yul\":5182:5304   */\n      tag_123\n      jumpi\n        /* \"#utility.yul\":5223:5302   */\n      tag_124\n      tag_38\n      jump\t// in\n    tag_124:\n        /* \"#utility.yul\":5182:5304   */\n    tag_123:\n        /* \"#utility.yul\":5340:5346   */\n      dup2\n        /* \"#utility.yul\":5327:5347   */\n      calldataload\n        /* \"#utility.yul\":5365:5444   */\n      tag_125\n        /* \"#utility.yul\":5440:5443   */\n      dup5\n        /* \"#utility.yul\":5432:5438   */\n      dup3\n        /* \"#utility.yul\":5425:5429   */\n      0x20\n        /* \"#utility.yul\":5417:5423   */\n      dup7\n        /* \"#utility.yul\":5413:5430   */\n      add\n        /* \"#utility.yul\":5365:5444   */\n      tag_46\n      jump\t// in\n    tag_125:\n        /* \"#utility.yul\":5356:5444   */\n      swap2\n      pop\n        /* \"#utility.yul\":5172:5450   */\n      pop\n        /* \"#utility.yul\":5110:5450   */\n      swap3\n      swap2\n      pop\n      pop\n      jump\t// out\n        /* \"#utility.yul\":5456:5782   */\n    tag_48:\n        /* \"#utility.yul\":5548:5552   */\n      0x00\n        /* \"#utility.yul\":5638:5656   */\n      0xffffffffffffffff\n        /* \"#utility.yul\":5630:5636   */\n      dup3\n        /* \"#utility.yul\":5627:5657   */\n      gt\n        /* \"#utility.yul\":5624:5680   */\n      iszero\n      tag_127\n      jumpi\n        /* \"#utility.yul\":5660:5678   */\n      tag_128\n      tag_41\n      jump\t// in\n    tag_128:\n        /* \"#utility.yul\":5624:5680   */\n    tag_127:\n        /* \"#utility.yul\":5710:5714   */\n      0x20\n        /* \"#utility.yul\":5702:5708   */\n      dup3\n        /* \"#utility.yul\":5698:5715   */\n      mul\n        /* \"#utility.yul\":5690:5715   */\n      swap1\n      pop\n        /* \"#utility.yul\":5770:5774   */\n      0x20\n        /* \"#utility.yul\":5764:5768   */\n      dup2\n        /* \"#utility.yul\":5760:5775   */\n      add\n        /* \"#utility.yul\":5752:5775   */\n      swap1\n      pop\n        /* \"#utility.yul\":5456:5782   */\n      swap2\n      swap1\n      pop\n      jump\t// out\n        /* \"#utility.yul\":5788:5905   */\n    tag_49:\n        /* \"#utility.yul\":5897:5898   */\n      0x00\n        /* \"#utility.yul\":5894:5895   */\n      dup1\n        /* \"#utility.yul\":5887:5899   */\n      revert\n        /* \"#utility.yul\":5911:6007   */\n    tag_50:\n        /* \"#utility.yul\":5948:5955   */\n      0x00\n        /* \"#utility.yul\":5977:6001   */\n      tag_131\n        /* \"#utility.yul\":5995:6000   */\n      dup3\n        /* \"#utility.yul\":5977:6001   */\n      tag_26\n      jump\t// in\n    tag_131:\n        /* \"#utility.yul\":5966:6001   */\n      swap1\n      pop\n        /* \"#utility.yul\":5911:6007   */\n      swap2\n      swap1\n      pop\n      jump\t// out\n        /* \"#utility.yul\":6013:6124   */\n    tag_51:\n        /* \"#utility.yul\":6065:6072   */\n      0x00\n        /* \"#utility.yul\":6094:6118   */\n      tag_133\n        /* \"#utility.yul\":6112:6117   */\n      dup3\n        /* \"#utility.yul\":6094:6118   */\n      tag_50\n      jump\t// in\n    tag_133:\n        /* \"#utility.yul\":6083:6118   */\n      swap1\n      pop\n        /* \"#utility.yul\":6013:6124   */\n      swap2\n      swap1\n      pop\n      jump\t// out\n        /* \"#utility.yul\":6130:6282   */\n    tag_52:\n        /* \"#utility.yul\":6218:6257   */\n      tag_135\n        /* \"#utility.yul\":6251:6256   */\n      dup2\n        /* \"#utility.yul\":6218:6257   */\n      tag_51\n      jump\t// in\n    tag_135:\n        /* \"#utility.yul\":6211:6216   */\n      dup2\n        /* \"#utility.yul\":6208:6258   */\n      eq\n        /* \"#utility.yul\":6198:6276   */\n      tag_136\n      jumpi\n        /* \"#utility.yul\":6272:6273   */\n      0x00\n        /* \"#utility.yul\":6269:6270   */\n      dup1\n        /* \"#utility.yul\":6262:6274   */\n      revert\n        /* \"#utility.yul\":6198:6276   */\n    tag_136:\n        /* \"#utility.yul\":6130:6282   */\n      pop\n      jump\t// out\n        /* \"#utility.yul\":6288:6457   */\n    tag_53:\n        /* \"#utility.yul\":6349:6354   */\n      0x00\n        /* \"#utility.yul\":6387:6393   */\n      dup2\n        /* \"#utility.yul\":6374:6394   */\n      calldataload\n        /* \"#utility.yul\":6365:6394   */\n      swap1\n      pop\n        /* \"#utility.yul\":6403:6451   */\n      tag_138\n        /* \"#utility.yul\":6445:6450   */\n      dup2\n        /* \"#utility.yul\":6403:6451   */\n      tag_52\n      jump\t// in\n    tag_138:\n        /* \"#utility.yul\":6288:6457   */\n      swap3\n      swap2\n      pop\n      pop\n      jump\t// out\n        /* \"#utility.yul\":6489:7244   */\n    tag_54:\n        /* \"#utility.yul\":6600:6605   */\n      0x00\n        /* \"#utility.yul\":6625:6721   */\n      tag_140\n        /* \"#utility.yul\":6641:6720   */\n      tag_141\n        /* \"#utility.yul\":6713:6719   */\n      dup5\n        /* \"#utility.yul\":6641:6720   */\n      tag_48\n      jump\t// in\n    tag_141:\n        /* \"#utility.yul\":6625:6721   */\n      tag_43\n      jump\t// in\n    tag_140:\n        /* \"#utility.yul\":6616:6721   */\n      swap1\n      pop\n        /* \"#utility.yul\":6741:6746   */\n      dup1\n        /* \"#utility.yul\":6770:6776   */\n      dup4\n        /* \"#utility.yul\":6763:6768   */\n      dup3\n        /* \"#utility.yul\":6756:6777   */\n      mstore\n        /* \"#utility.yul\":6804:6808   */\n      0x20\n        /* \"#utility.yul\":6797:6802   */\n      dup3\n        /* \"#utility.yul\":6793:6809   */\n      add\n        /* \"#utility.yul\":6786:6809   */\n      swap1\n      pop\n        /* \"#utility.yul\":6857:6861   */\n      0x20\n        /* \"#utility.yul\":6849:6855   */\n      dup5\n        /* \"#utility.yul\":6845:6862   */\n      mul\n        /* \"#utility.yul\":6837:6843   */\n      dup4\n        /* \"#utility.yul\":6833:6863   */\n      add\n        /* \"#utility.yul\":6886:6889   */\n      dup6\n        /* \"#utility.yul\":6878:6884   */\n      dup2\n        /* \"#utility.yul\":6875:6890   */\n      gt\n        /* \"#utility.yul\":6872:6994   */\n      iszero\n      tag_142\n      jumpi\n        /* \"#utility.yul\":6905:6984   */\n      tag_143\n      tag_49\n      jump\t// in\n    tag_143:\n        /* \"#utility.yul\":6872:6994   */\n    tag_142:\n        /* \"#utility.yul\":7020:7026   */\n      dup4\n        /* \"#utility.yul\":7003:7238   */\n    tag_144:\n        /* \"#utility.yul\":7037:7043   */\n      dup2\n        /* \"#utility.yul\":7032:7035   */\n      dup2\n        /* \"#utility.yul\":7029:7044   */\n      lt\n        /* \"#utility.yul\":7003:7238   */\n      iszero\n      tag_146\n      jumpi\n        /* \"#utility.yul\":7112:7115   */\n      dup1\n        /* \"#utility.yul\":7141:7193   */\n      tag_147\n        /* \"#utility.yul\":7189:7192   */\n      dup9\n        /* \"#utility.yul\":7177:7187   */\n      dup3\n        /* \"#utility.yul\":7141:7193   */\n      tag_53\n      jump\t// in\n    tag_147:\n        /* \"#utility.yul\":7136:7139   */\n      dup5\n        /* \"#utility.yul\":7129:7194   */\n      mstore\n        /* \"#utility.yul\":7223:7227   */\n      0x20\n        /* \"#utility.yul\":7218:7221   */\n      dup5\n        /* \"#utility.yul\":7214:7228   */\n      add\n        /* \"#utility.yul\":7207:7228   */\n      swap4\n      pop\n        /* \"#utility.yul\":7079:7238   */\n      pop\n        /* \"#utility.yul\":7063:7067   */\n      0x20\n        /* \"#utility.yul\":7058:7061   */\n      dup2\n        /* \"#utility.yul\":7054:7068   */\n      add\n        /* \"#utility.yul\":7047:7068   */\n      swap1\n      pop\n        /* \"#utility.yul\":7003:7238   */\n      jump(tag_144)\n    tag_146:\n        /* \"#utility.yul\":7007:7028   */\n      pop\n        /* \"#utility.yul\":6606:7244   */\n      pop\n      pop\n        /* \"#utility.yul\":6489:7244   */\n      swap4\n      swap3\n      pop\n      pop\n      pop\n      jump\t// out\n        /* \"#utility.yul\":7276:7676   */\n    tag_55:\n        /* \"#utility.yul\":7362:7367   */\n      0x00\n        /* \"#utility.yul\":7411:7414   */\n      dup3\n        /* \"#utility.yul\":7404:7408   */\n      0x1f\n        /* \"#utility.yul\":7396:7402   */\n      dup4\n        /* \"#utility.yul\":7392:7409   */\n      add\n        /* \"#utility.yul\":7388:7415   */\n      slt\n        /* \"#utility.yul\":7378:7500   */\n      tag_149\n      jumpi\n        /* \"#utility.yul\":7419:7498   */\n      tag_150\n      tag_38\n      jump\t// in\n    tag_150:\n        /* \"#utility.yul\":7378:7500   */\n    tag_149:\n        /* \"#utility.yul\":7536:7542   */\n      dup2\n        /* \"#utility.yul\":7523:7543   */\n      calldataload\n        /* \"#utility.yul\":7561:7670   */\n      tag_151\n        /* \"#utility.yul\":7666:7669   */\n      dup5\n        /* \"#utility.yul\":7658:7664   */\n      dup3\n        /* \"#utility.yul\":7651:7655   */\n      0x20\n        /* \"#utility.yul\":7643:7649   */\n      dup7\n        /* \"#utility.yul\":7639:7656   */\n      add\n        /* \"#utility.yul\":7561:7670   */\n      tag_54\n      jump\t// in\n    tag_151:\n        /* \"#utility.yul\":7552:7670   */\n      swap2\n      pop\n        /* \"#utility.yul\":7368:7676   */\n      pop\n        /* \"#utility.yul\":7276:7676   */\n      swap3\n      swap2\n      pop\n      pop\n      jump\t// out\n        /* \"#utility.yul\":7682:8901   */\n    tag_11:\n        /* \"#utility.yul\":7819:7825   */\n      0x00\n        /* \"#utility.yul\":7827:7833   */\n      dup1\n        /* \"#utility.yul\":7835:7841   */\n      0x00\n        /* \"#utility.yul\":7884:7886   */\n      0x60\n        /* \"#utility.yul\":7872:7881   */\n      dup5\n        /* \"#utility.yul\":7863:7870   */\n      dup7\n        /* \"#utility.yul\":7859:7882   */\n      sub\n        /* \"#utility.yul\":7855:7887   */\n      slt\n        /* \"#utility.yul\":7852:7971   */\n      iszero\n      tag_153\n      jumpi\n        /* \"#utility.yul\":7890:7969   */\n      tag_154\n      tag_36\n      jump\t// in\n    tag_154:\n        /* \"#utility.yul\":7852:7971   */\n    tag_153:\n        /* \"#utility.yul\":8038:8039   */\n      0x00\n        /* \"#utility.yul\":8027:8036   */\n      dup5\n        /* \"#utility.yul\":8023:8040   */\n      add\n        /* \"#utility.yul\":8010:8041   */\n      calldataload\n        /* \"#utility.yul\":8068:8086   */\n      0xffffffffffffffff\n        /* \"#utility.yul\":8060:8066   */\n      dup2\n        /* \"#utility.yul\":8057:8087   */\n      gt\n        /* \"#utility.yul\":8054:8171   */\n      iszero\n      tag_155\n      jumpi\n        /* \"#utility.yul\":8090:8169   */\n      tag_156\n      tag_37\n      jump\t// in\n    tag_156:\n        /* \"#utility.yul\":8054:8171   */\n    tag_155:\n        /* \"#utility.yul\":8195:8258   */\n      tag_157\n        /* \"#utility.yul\":8250:8257   */\n      dup7\n        /* \"#utility.yul\":8241:8247   */\n      dup3\n        /* \"#utility.yul\":8230:8239   */\n      dup8\n        /* \"#utility.yul\":8226:8248   */\n      add\n        /* \"#utility.yul\":8195:8258   */\n      tag_47\n      jump\t// in\n    tag_157:\n        /* \"#utility.yul\":8185:8258   */\n      swap4\n      pop\n        /* \"#utility.yul\":7981:8268   */\n      pop\n        /* \"#utility.yul\":8335:8337   */\n      0x20\n        /* \"#utility.yul\":8324:8333   */\n      dup5\n        /* \"#utility.yul\":8320:8338   */\n      add\n        /* \"#utility.yul\":8307:8339   */\n      calldataload\n        /* \"#utility.yul\":8366:8384   */\n      0xffffffffffffffff\n        /* \"#utility.yul\":8358:8364   */\n      dup2\n        /* \"#utility.yul\":8355:8385   */\n      gt\n        /* \"#utility.yul\":8352:8469   */\n      iszero\n      tag_158\n      jumpi\n        /* \"#utility.yul\":8388:8467   */\n      tag_159\n      tag_37\n      jump\t// in\n    tag_159:\n        /* \"#utility.yul\":8352:8469   */\n    tag_158:\n        /* \"#utility.yul\":8493:8556   */\n      tag_160\n        /* \"#utility.yul\":8548:8555   */\n      dup7\n        /* \"#utility.yul\":8539:8545   */\n      dup3\n        /* \"#utility.yul\":8528:8537   */\n      dup8\n        /* \"#utility.yul\":8524:8546   */\n      add\n        /* \"#utility.yul\":8493:8556   */\n      tag_47\n      jump\t// in\n    tag_160:\n        /* \"#utility.yul\":8483:8556   */\n      swap3\n      pop\n        /* \"#utility.yul\":8278:8566   */\n      pop\n        /* \"#utility.yul\":8633:8635   */\n      0x40\n        /* \"#utility.yul\":8622:8631   */\n      dup5\n        /* \"#utility.yul\":8618:8636   */\n      add\n        /* \"#utility.yul\":8605:8637   */\n      calldataload\n        /* \"#utility.yul\":8664:8682   */\n      0xffffffffffffffff\n        /* \"#utility.yul\":8656:8662   */\n      dup2\n        /* \"#utility.yul\":8653:8683   */\n      gt\n        /* \"#utility.yul\":8650:8767   */\n      iszero\n      tag_161\n      jumpi\n        /* \"#utility.yul\":8686:8765   */\n      tag_162\n      tag_37\n      jump\t// in\n    tag_162:\n        /* \"#utility.yul\":8650:8767   */\n    tag_161:\n        /* \"#utility.yul\":8791:8884   */\n      tag_163\n        /* \"#utility.yul\":8876:8883   */\n      dup7\n        /* \"#utility.yul\":8867:8873   */\n      dup3\n        /* \"#utility.yul\":8856:8865   */\n      dup8\n        /* \"#utility.yul\":8852:8874   */\n      add\n        /* \"#utility.yul\":8791:8884   */\n      tag_55\n      jump\t// in\n    tag_163:\n        /* \"#utility.yul\":8781:8884   */\n      swap2\n      pop\n        /* \"#utility.yul\":8576:8894   */\n      pop\n        /* \"#utility.yul\":7682:8901   */\n      swap3\n      pop\n      swap3\n      pop\n      swap3\n      jump\t// out\n        /* \"#utility.yul\":8907:9006   */\n    tag_56:\n        /* \"#utility.yul\":8959:8965   */\n      0x00\n        /* \"#utility.yul\":8993:8998   */\n      dup2\n        /* \"#utility.yul\":8987:8999   */\n      mload\n        /* \"#utility.yul\":8977:8999   */\n      swap1\n      pop\n        /* \"#utility.yul\":8907:9006   */\n      swap2\n      swap1\n      pop\n      jump\t// out\n        /* \"#utility.yul\":9012:9181   */\n    tag_57:\n        /* \"#utility.yul\":9096:9107   */\n      0x00\n        /* \"#utility.yul\":9130:9136   */\n      dup3\n        /* \"#utility.yul\":9125:9128   */\n      dup3\n        /* \"#utility.yul\":9118:9137   */\n      mstore\n        /* \"#utility.yul\":9170:9174   */\n      0x20\n        /* \"#utility.yul\":9165:9168   */\n      dup3\n        /* \"#utility.yul\":9161:9175   */\n      add\n        /* \"#utility.yul\":9146:9175   */\n      swap1\n      pop\n        /* \"#utility.yul\":9012:9181   */\n      swap3\n      swap2\n      pop\n      pop\n      jump\t// out\n        /* \"#utility.yul\":9187:9433   */\n    tag_58:\n        /* \"#utility.yul\":9268:9269   */\n      0x00\n        /* \"#utility.yul\":9278:9391   */\n    tag_167:\n        /* \"#utility.yul\":9292:9298   */\n      dup4\n        /* \"#utility.yul\":9289:9290   */\n      dup2\n        /* \"#utility.yul\":9286:9299   */\n      lt\n        /* \"#utility.yul\":9278:9391   */\n      iszero\n      tag_169\n      jumpi\n        /* \"#utility.yul\":9377:9378   */\n      dup1\n        /* \"#utility.yul\":9372:9375   */\n      dup3\n        /* \"#utility.yul\":9368:9379   */\n      add\n        /* \"#utility.yul\":9362:9380   */\n      mload\n        /* \"#utility.yul\":9358:9359   */\n      dup2\n        /* \"#utility.yul\":9353:9356   */\n      dup5\n        /* \"#utility.yul\":9349:9360   */\n      add\n        /* \"#utility.yul\":9342:9381   */\n      mstore\n        /* \"#utility.yul\":9314:9316   */\n      0x20\n        /* \"#utility.yul\":9311:9312   */\n      dup2\n        /* \"#utility.yul\":9307:9317   */\n      add\n        /* \"#utility.yul\":9302:9317   */\n      swap1\n      pop\n        /* \"#utility.yul\":9278:9391   */\n      jump(tag_167)\n    tag_169:\n        /* \"#utility.yul\":9425:9426   */\n      0x00\n        /* \"#utility.yul\":9416:9422   */\n      dup5\n        /* \"#utility.yul\":9411:9414   */\n      dup5\n        /* \"#utility.yul\":9407:9423   */\n      add\n        /* \"#utility.yul\":9400:9427   */\n      mstore\n        /* \"#utility.yul\":9249:9433   */\n      pop\n        /* \"#utility.yul\":9187:9433   */\n      pop\n      pop\n      pop\n      jump\t// out\n        /* \"#utility.yul\":9439:9816   */\n    tag_59:\n        /* \"#utility.yul\":9527:9530   */\n      0x00\n        /* \"#utility.yul\":9555:9594   */\n      tag_171\n        /* \"#utility.yul\":9588:9593   */\n      dup3\n        /* \"#utility.yul\":9555:9594   */\n      tag_56\n      jump\t// in\n    tag_171:\n        /* \"#utility.yul\":9610:9681   */\n      tag_172\n        /* \"#utility.yul\":9674:9680   */\n      dup2\n        /* \"#utility.yul\":9669:9672   */\n      dup6\n        /* \"#utility.yul\":9610:9681   */\n      tag_57\n      jump\t// in\n    tag_172:\n        /* \"#utility.yul\":9603:9681   */\n      swap4\n      pop\n        /* \"#utility.yul\":9690:9755   */\n      tag_173\n        /* \"#utility.yul\":9748:9754   */\n      dup2\n        /* \"#utility.yul\":9743:9746   */\n      dup6\n        /* \"#utility.yul\":9736:9740   */\n      0x20\n        /* \"#utility.yul\":9729:9734   */\n      dup7\n        /* \"#utility.yul\":9725:9741   */\n      add\n        /* \"#utility.yul\":9690:9755   */\n      tag_58\n      jump\t// in\n    tag_173:\n        /* \"#utility.yul\":9780:9809   */\n      tag_174\n        /* \"#utility.yul\":9802:9808   */\n      dup2\n        /* \"#utility.yul\":9780:9809   */\n      tag_40\n      jump\t// in\n    tag_174:\n        /* \"#utility.yul\":9775:9778   */\n      dup5\n        /* \"#utility.yul\":9771:9810   */\n      add\n        /* \"#utility.yul\":9764:9810   */\n      swap2\n      pop\n        /* \"#utility.yul\":9531:9816   */\n      pop\n        /* \"#utility.yul\":9439:9816   */\n      swap3\n      swap2\n      pop\n      pop\n      jump\t// out\n        /* \"#utility.yul\":9822:9951   */\n    tag_60:\n        /* \"#utility.yul\":9904:9910   */\n      0x00\n        /* \"#utility.yul\":9938:9943   */\n      dup2\n        /* \"#utility.yul\":9932:9944   */\n      mload\n        /* \"#utility.yul\":9922:9944   */\n      swap1\n      pop\n        /* \"#utility.yul\":9822:9951   */\n      swap2\n      swap1\n      pop\n      jump\t// out\n        /* \"#utility.yul\":9957:10104   */\n    tag_61:\n        /* \"#utility.yul\":10039:10043   */\n      0x00\n        /* \"#utility.yul\":10062:10065   */\n      dup2\n        /* \"#utility.yul\":10054:10065   */\n      swap1\n      pop\n        /* \"#utility.yul\":10092:10096   */\n      0x20\n        /* \"#utility.yul\":10087:10090   */\n      dup3\n        /* \"#utility.yul\":10083:10097   */\n      add\n        /* \"#utility.yul\":10075:10097   */\n      swap1\n      pop\n        /* \"#utility.yul\":9957:10104   */\n      swap2\n      swap1\n      pop\n      jump\t// out\n        /* \"#utility.yul\":10110:10251   */\n    tag_62:\n        /* \"#utility.yul\":10175:10184   */\n      0x00\n        /* \"#utility.yul\":10208:10245   */\n      tag_178\n        /* \"#utility.yul\":10239:10244   */\n      dup3\n        /* \"#utility.yul\":10208:10245   */\n      tag_29\n      jump\t// in\n    tag_178:\n        /* \"#utility.yul\":10195:10245   */\n      swap1\n      pop\n        /* \"#utility.yul\":10110:10251   */\n      swap2\n      swap1\n      pop\n      jump\t// out\n        /* \"#utility.yul\":10257:10408   */\n    tag_63:\n        /* \"#utility.yul\":10349:10401   */\n      tag_180\n        /* \"#utility.yul\":10395:10400   */\n      dup2\n        /* \"#utility.yul\":10349:10401   */\n      tag_62\n      jump\t// in\n    tag_180:\n        /* \"#utility.yul\":10344:10347   */\n      dup3\n        /* \"#utility.yul\":10337:10402   */\n      mstore\n        /* \"#utility.yul\":10257:10408   */\n      pop\n      pop\n      jump\t// out\n        /* \"#utility.yul\":10414:10623   */\n    tag_64:\n        /* \"#utility.yul\":10498:10508   */\n      0x00\n        /* \"#utility.yul\":10519:10580   */\n      tag_182\n        /* \"#utility.yul\":10576:10579   */\n      dup4\n        /* \"#utility.yul\":10568:10574   */\n      dup4\n        /* \"#utility.yul\":10519:10580   */\n      tag_63\n      jump\t// in\n    tag_182:\n        /* \"#utility.yul\":10612:10616   */\n      0x20\n        /* \"#utility.yul\":10607:10610   */\n      dup4\n        /* \"#utility.yul\":10603:10617   */\n      add\n        /* \"#utility.yul\":10589:10617   */\n      swap1\n      pop\n        /* \"#utility.yul\":10414:10623   */\n      swap3\n      swap2\n      pop\n      pop\n      jump\t// out\n        /* \"#utility.yul\":10629:10757   */\n    tag_65:\n        /* \"#utility.yul\":10714:10718   */\n      0x00\n        /* \"#utility.yul\":10746:10750   */\n      0x20\n        /* \"#utility.yul\":10741:10744   */\n      dup3\n        /* \"#utility.yul\":10737:10751   */\n      add\n        /* \"#utility.yul\":10729:10751   */\n      swap1\n      pop\n        /* \"#utility.yul\":10629:10757   */\n      swap2\n      swap1\n      pop\n      jump\t// out\n        /* \"#utility.yul\":10802:11609   */\n    tag_66:\n        /* \"#utility.yul\":10936:10939   */\n      0x00\n        /* \"#utility.yul\":10965:11034   */\n      tag_185\n        /* \"#utility.yul\":11028:11033   */\n      dup3\n        /* \"#utility.yul\":10965:11034   */\n      tag_60\n      jump\t// in\n    tag_185:\n        /* \"#utility.yul\":11050:11136   */\n      tag_186\n        /* \"#utility.yul\":11129:11135   */\n      dup2\n        /* \"#utility.yul\":11124:11127   */\n      dup6\n        /* \"#utility.yul\":11050:11136   */\n      tag_24\n      jump\t// in\n    tag_186:\n        /* \"#utility.yul\":11043:11136   */\n      swap4\n      pop\n        /* \"#utility.yul\":11160:11231   */\n      tag_187\n        /* \"#utility.yul\":11225:11230   */\n      dup4\n        /* \"#utility.yul\":11160:11231   */\n      tag_61\n      jump\t// in\n    tag_187:\n        /* \"#utility.yul\":11254:11261   */\n      dup1\n        /* \"#utility.yul\":11285:11286   */\n      0x00\n        /* \"#utility.yul\":11270:11584   */\n    tag_188:\n        /* \"#utility.yul\":11295:11301   */\n      dup4\n        /* \"#utility.yul\":11292:11293   */\n      dup2\n        /* \"#utility.yul\":11289:11302   */\n      lt\n        /* \"#utility.yul\":11270:11584   */\n      iszero\n      tag_190\n      jumpi\n        /* \"#utility.yul\":11371:11377   */\n      dup2\n        /* \"#utility.yul\":11365:11378   */\n      mload\n        /* \"#utility.yul\":11398:11476   */\n      tag_191\n        /* \"#utility.yul\":11472:11475   */\n      dup9\n        /* \"#utility.yul\":11457:11470   */\n      dup3\n        /* \"#utility.yul\":11398:11476   */\n      tag_64\n      jump\t// in\n    tag_191:\n        /* \"#utility.yul\":11391:11476   */\n      swap8\n      pop\n        /* \"#utility.yul\":11499:11574   */\n      tag_192\n        /* \"#utility.yul\":11567:11573   */\n      dup4\n        /* \"#utility.yul\":11499:11574   */\n      tag_65\n      jump\t// in\n    tag_192:\n        /* \"#utility.yul\":11489:11574   */\n      swap3\n      pop\n        /* \"#utility.yul\":11330:11584   */\n      pop\n        /* \"#utility.yul\":11317:11318   */\n      0x01\n        /* \"#utility.yul\":11314:11315   */\n      dup2\n        /* \"#utility.yul\":11310:11319   */\n      add\n        /* \"#utility.yul\":11305:11319   */\n      swap1\n      pop\n        /* \"#utility.yul\":11270:11584   */\n      jump(tag_188)\n    tag_190:\n        /* \"#utility.yul\":11274:11288   */\n      pop\n        /* \"#utility.yul\":11600:11603   */\n      dup6\n        /* \"#utility.yul\":11593:11603   */\n      swap4\n      pop\n        /* \"#utility.yul\":10941:11609   */\n      pop\n      pop\n      pop\n        /* \"#utility.yul\":10802:11609   */\n      swap3\n      swap2\n      pop\n      pop\n      jump\t// out\n        /* \"#utility.yul\":11615:12420   */\n    tag_20:\n        /* \"#utility.yul\":11869:11873   */\n      0x00\n        /* \"#utility.yul\":11907:11909   */\n      0x60\n        /* \"#utility.yul\":11896:11905   */\n      dup3\n        /* \"#utility.yul\":11892:11910   */\n      add\n        /* \"#utility.yul\":11884:11910   */\n      swap1\n      pop\n        /* \"#utility.yul\":11956:11965   */\n      dup2\n        /* \"#utility.yul\":11950:11954   */\n      dup2\n        /* \"#utility.yul\":11946:11966   */\n      sub\n        /* \"#utility.yul\":11942:11943   */\n      0x00\n        /* \"#utility.yul\":11931:11940   */\n      dup4\n        /* \"#utility.yul\":11927:11944   */\n      add\n        /* \"#utility.yul\":11920:11967   */\n      mstore\n        /* \"#utility.yul\":11984:12062   */\n      tag_194\n        /* \"#utility.yul\":12057:12061   */\n      dup2\n        /* \"#utility.yul\":12048:12054   */\n      dup7\n        /* \"#utility.yul\":11984:12062   */\n      tag_59\n      jump\t// in\n    tag_194:\n        /* \"#utility.yul\":11976:12062   */\n      swap1\n      pop\n        /* \"#utility.yul\":12109:12118   */\n      dup2\n        /* \"#utility.yul\":12103:12107   */\n      dup2\n        /* \"#utility.yul\":12099:12119   */\n      sub\n        /* \"#utility.yul\":12094:12096   */\n      0x20\n        /* \"#utility.yul\":12083:12092   */\n      dup4\n        /* \"#utility.yul\":12079:12097   */\n      add\n        /* \"#utility.yul\":12072:12120   */\n      mstore\n        /* \"#utility.yul\":12137:12215   */\n      tag_195\n        /* \"#utility.yul\":12210:12214   */\n      dup2\n        /* \"#utility.yul\":12201:12207   */\n      dup6\n        /* \"#utility.yul\":12137:12215   */\n      tag_59\n      jump\t// in\n    tag_195:\n        /* \"#utility.yul\":12129:12215   */\n      swap1\n      pop\n        /* \"#utility.yul\":12262:12271   */\n      dup2\n        /* \"#utility.yul\":12256:12260   */\n      dup2\n        /* \"#utility.yul\":12252:12272   */\n      sub\n        /* \"#utility.yul\":12247:12249   */\n      0x40\n        /* \"#utility.yul\":12236:12245   */\n      dup4\n        /* \"#utility.yul\":12232:12250   */\n      add\n        /* \"#utility.yul\":12225:12273   */\n      mstore\n        /* \"#utility.yul\":12290:12413   */\n      tag_196\n        /* \"#utility.yul\":12408:12412   */\n      dup2\n        /* \"#utility.yul\":12399:12405   */\n      dup5\n        /* \"#utility.yul\":12290:12413   */\n      tag_66\n      jump\t// in\n    tag_196:\n        /* \"#utility.yul\":12282:12413   */\n      swap1\n      pop\n        /* \"#utility.yul\":11615:12420   */\n      swap5\n      swap4\n      pop\n      pop\n      pop\n      pop\n      jump\t// out\n    stop\n\n    sub_0: assembly {\n            /* \"BigPicture.sol\":88:402  contract BigPicture {... */\n          mstore(0x40, 0x80)\n            /* \"BigPicture.sol\":184:397  constructor (... */\n          callvalue\n          dup1\n          iszero\n          tag_1\n          jumpi\n          0x00\n          dup1\n          revert\n        tag_1:\n          pop\n          mload(0x40)\n          sub(codesize, bytecodeSize)\n          dup1\n          bytecodeSize\n          dup4\n          codecopy\n          dup2\n          dup2\n          add\n          0x40\n          mstore\n          dup2\n          add\n          swap1\n          tag_2\n          swap2\n          swap1\n          tag_3\n          jump\t// in\n        tag_2:\n            /* \"BigPicture.sol\":323:328  _name */\n          dup3\n            /* \"BigPicture.sol\":316:320  name */\n          0x00\n            /* \"BigPicture.sol\":316:328  name = _name */\n          swap1\n          dup2\n          tag_6\n          swap2\n          swap1\n          tag_7\n          jump\t// in\n        tag_6:\n          pop\n            /* \"BigPicture.sol\":346:352  _image */\n          dup2\n            /* \"BigPicture.sol\":339:344  image */\n          0x01\n            /* \"BigPicture.sol\":339:352  image= _image */\n          swap1\n          dup2\n          tag_8\n          swap2\n          swap1\n          tag_7\n          jump\t// in\n        tag_8:\n          pop\n            /* \"BigPicture.sol\":377:389  _picturePart */\n          dup1\n            /* \"BigPicture.sol\":363:374  picturePart */\n          0x02\n            /* \"BigPicture.sol\":363:389  picturePart = _picturePart */\n          swap1\n          dup1\n          mload\n          swap1\n          0x20\n          add\n          swap1\n          tag_9\n          swap3\n          swap2\n          swap1\n          tag_10\n          jump\t// in\n        tag_9:\n          pop\n            /* \"BigPicture.sol\":184:397  constructor (... */\n          pop\n          pop\n          pop\n            /* \"BigPicture.sol\":88:402  contract BigPicture {... */\n          jump(tag_11)\n        tag_10:\n          dup3\n          dup1\n          sload\n          dup3\n          dup3\n          sstore\n          swap1\n          0x00\n          mstore\n          keccak256(0x00, 0x20)\n          swap1\n          dup2\n          add\n          swap3\n          dup3\n          iszero\n          tag_12\n          jumpi\n          swap2\n          0x20\n          mul\n          dup3\n          add\n        tag_13:\n          dup3\n          dup2\n          gt\n          iszero\n          tag_14\n          jumpi\n          dup3\n          mload\n          dup3\n          exp(0x0100, 0x00)\n          dup2\n          sload\n          dup2\n          0xffffffffffffffffffffffffffffffffffffffff\n          mul\n          not\n          and\n          swap1\n          dup4\n          0xffffffffffffffffffffffffffffffffffffffff\n          and\n          mul\n          or\n          swap1\n          sstore\n          pop\n          swap2\n          0x20\n          add\n          swap2\n          swap1\n          0x01\n          add\n          swap1\n          jump(tag_13)\n        tag_14:\n        tag_12:\n          pop\n          swap1\n          pop\n          tag_15\n          swap2\n          swap1\n          tag_16\n          jump\t// in\n        tag_15:\n          pop\n          swap1\n          jump\t// out\n        tag_16:\n        tag_17:\n          dup1\n          dup3\n          gt\n          iszero\n          tag_18\n          jumpi\n          0x00\n          dup2\n          0x00\n          swap1\n          sstore\n          pop\n          0x01\n          add\n          jump(tag_17)\n        tag_18:\n          pop\n          swap1\n          jump\t// out\n            /* \"#utility.yul\":7:82   */\n        tag_19:\n            /* \"#utility.yul\":40:46   */\n          0x00\n            /* \"#utility.yul\":73:75   */\n          0x40\n            /* \"#utility.yul\":67:76   */\n          mload\n            /* \"#utility.yul\":57:76   */\n          swap1\n          pop\n            /* \"#utility.yul\":7:82   */\n          swap1\n          jump\t// out\n            /* \"#utility.yul\":88:205   */\n        tag_20:\n            /* \"#utility.yul\":197:198   */\n          0x00\n            /* \"#utility.yul\":194:195   */\n          dup1\n            /* \"#utility.yul\":187:199   */\n          revert\n            /* \"#utility.yul\":211:328   */\n        tag_21:\n            /* \"#utility.yul\":320:321   */\n          0x00\n            /* \"#utility.yul\":317:318   */\n          dup1\n            /* \"#utility.yul\":310:322   */\n          revert\n            /* \"#utility.yul\":334:451   */\n        tag_22:\n            /* \"#utility.yul\":443:444   */\n          0x00\n            /* \"#utility.yul\":440:441   */\n          dup1\n            /* \"#utility.yul\":433:445   */\n          revert\n            /* \"#utility.yul\":457:574   */\n        tag_23:\n            /* \"#utility.yul\":566:567   */\n          0x00\n            /* \"#utility.yul\":563:564   */\n          dup1\n            /* \"#utility.yul\":556:568   */\n          revert\n            /* \"#utility.yul\":580:682   */\n        tag_24:\n            /* \"#utility.yul\":621:627   */\n          0x00\n            /* \"#utility.yul\":672:674   */\n          0x1f\n            /* \"#utility.yul\":668:675   */\n          not\n            /* \"#utility.yul\":663:665   */\n          0x1f\n            /* \"#utility.yul\":656:661   */\n          dup4\n            /* \"#utility.yul\":652:666   */\n          add\n            /* \"#utility.yul\":648:676   */\n          and\n            /* \"#utility.yul\":638:676   */\n          swap1\n          pop\n            /* \"#utility.yul\":580:682   */\n          swap2\n          swap1\n          pop\n          jump\t// out\n            /* \"#utility.yul\":688:868   */\n        tag_25:\n            /* \"#utility.yul\":736:813   */\n          0x4e487b7100000000000000000000000000000000000000000000000000000000\n            /* \"#utility.yul\":733:734   */\n          0x00\n            /* \"#utility.yul\":726:814   */\n          mstore\n            /* \"#utility.yul\":833:837   */\n          0x41\n            /* \"#utility.yul\":830:831   */\n          0x04\n            /* \"#utility.yul\":823:838   */\n          mstore\n            /* \"#utility.yul\":857:861   */\n          0x24\n            /* \"#utility.yul\":854:855   */\n          0x00\n            /* \"#utility.yul\":847:862   */\n          revert\n            /* \"#utility.yul\":874:1155   */\n        tag_26:\n            /* \"#utility.yul\":957:984   */\n          tag_69\n            /* \"#utility.yul\":979:983   */\n          dup3\n            /* \"#utility.yul\":957:984   */\n          tag_24\n          jump\t// in\n        tag_69:\n            /* \"#utility.yul\":949:955   */\n          dup2\n            /* \"#utility.yul\":945:985   */\n          add\n            /* \"#utility.yul\":1087:1093   */\n          dup2\n            /* \"#utility.yul\":1075:1085   */\n          dup2\n            /* \"#utility.yul\":1072:1094   */\n          lt\n            /* \"#utility.yul\":1051:1069   */\n          0xffffffffffffffff\n            /* \"#utility.yul\":1039:1049   */\n          dup3\n            /* \"#utility.yul\":1036:1070   */\n          gt\n            /* \"#utility.yul\":1033:1095   */\n          or\n            /* \"#utility.yul\":1030:1118   */\n          iszero\n          tag_70\n          jumpi\n            /* \"#utility.yul\":1098:1116   */\n          tag_71\n          tag_25\n          jump\t// in\n        tag_71:\n            /* \"#utility.yul\":1030:1118   */\n        tag_70:\n            /* \"#utility.yul\":1138:1148   */\n          dup1\n            /* \"#utility.yul\":1134:1136   */\n          0x40\n            /* \"#utility.yul\":1127:1149   */\n          mstore\n            /* \"#utility.yul\":917:1155   */\n          pop\n            /* \"#utility.yul\":874:1155   */\n          pop\n          pop\n          jump\t// out\n            /* \"#utility.yul\":1161:1290   */\n        tag_27:\n            /* \"#utility.yul\":1195:1201   */\n          0x00\n            /* \"#utility.yul\":1222:1242   */\n          tag_73\n          tag_19\n          jump\t// in\n        tag_73:\n            /* \"#utility.yul\":1212:1242   */\n          swap1\n          pop\n            /* \"#utility.yul\":1251:1284   */\n          tag_74\n            /* \"#utility.yul\":1279:1283   */\n          dup3\n            /* \"#utility.yul\":1271:1277   */\n          dup3\n            /* \"#utility.yul\":1251:1284   */\n          tag_26\n          jump\t// in\n        tag_74:\n            /* \"#utility.yul\":1161:1290   */\n          swap2\n          swap1\n          pop\n          jump\t// out\n            /* \"#utility.yul\":1296:1604   */\n        tag_28:\n            /* \"#utility.yul\":1358:1362   */\n          0x00\n            /* \"#utility.yul\":1448:1466   */\n          0xffffffffffffffff\n            /* \"#utility.yul\":1440:1446   */\n          dup3\n            /* \"#utility.yul\":1437:1467   */\n          gt\n            /* \"#utility.yul\":1434:1490   */\n          iszero\n          tag_76\n          jumpi\n            /* \"#utility.yul\":1470:1488   */\n          tag_77\n          tag_25\n          jump\t// in\n        tag_77:\n            /* \"#utility.yul\":1434:1490   */\n        tag_76:\n            /* \"#utility.yul\":1508:1537   */\n          tag_78\n            /* \"#utility.yul\":1530:1536   */\n          dup3\n            /* \"#utility.yul\":1508:1537   */\n          tag_24\n          jump\t// in\n        tag_78:\n            /* \"#utility.yul\":1500:1537   */\n          swap1\n          pop\n            /* \"#utility.yul\":1592:1596   */\n          0x20\n            /* \"#utility.yul\":1586:1590   */\n          dup2\n            /* \"#utility.yul\":1582:1597   */\n          add\n            /* \"#utility.yul\":1574:1597   */\n          swap1\n          pop\n            /* \"#utility.yul\":1296:1604   */\n          swap2\n          swap1\n          pop\n          jump\t// out\n            /* \"#utility.yul\":1610:1856   */\n        tag_29:\n            /* \"#utility.yul\":1691:1692   */\n          0x00\n            /* \"#utility.yul\":1701:1814   */\n        tag_80:\n            /* \"#utility.yul\":1715:1721   */\n          dup4\n            /* \"#utility.yul\":1712:1713   */\n          dup2\n            /* \"#utility.yul\":1709:1722   */\n          lt\n            /* \"#utility.yul\":1701:1814   */\n          iszero\n          tag_82\n          jumpi\n            /* \"#utility.yul\":1800:1801   */\n          dup1\n            /* \"#utility.yul\":1795:1798   */\n          dup3\n            /* \"#utility.yul\":1791:1802   */\n          add\n            /* \"#utility.yul\":1785:1803   */\n          mload\n            /* \"#utility.yul\":1781:1782   */\n          dup2\n            /* \"#utility.yul\":1776:1779   */\n          dup5\n            /* \"#utility.yul\":1772:1783   */\n          add\n            /* \"#utility.yul\":1765:1804   */\n          mstore\n            /* \"#utility.yul\":1737:1739   */\n          0x20\n            /* \"#utility.yul\":1734:1735   */\n          dup2\n            /* \"#utility.yul\":1730:1740   */\n          add\n            /* \"#utility.yul\":1725:1740   */\n          swap1\n          pop\n            /* \"#utility.yul\":1701:1814   */\n          jump(tag_80)\n        tag_82:\n            /* \"#utility.yul\":1848:1849   */\n          0x00\n            /* \"#utility.yul\":1839:1845   */\n          dup5\n            /* \"#utility.yul\":1834:1837   */\n          dup5\n            /* \"#utility.yul\":1830:1846   */\n          add\n            /* \"#utility.yul\":1823:1850   */\n          mstore\n            /* \"#utility.yul\":1672:1856   */\n          pop\n            /* \"#utility.yul\":1610:1856   */\n          pop\n          pop\n          pop\n          jump\t// out\n            /* \"#utility.yul\":1862:2296   */\n        tag_30:\n            /* \"#utility.yul\":1951:1956   */\n          0x00\n            /* \"#utility.yul\":1976:2042   */\n          tag_84\n            /* \"#utility.yul\":1992:2041   */\n          tag_85\n            /* \"#utility.yul\":2034:2040   */\n          dup5\n            /* \"#utility.yul\":1992:2041   */\n          tag_28\n          jump\t// in\n        tag_85:\n            /* \"#utility.yul\":1976:2042   */\n          tag_27\n          jump\t// in\n        tag_84:\n            /* \"#utility.yul\":1967:2042   */\n          swap1\n          pop\n            /* \"#utility.yul\":2065:2071   */\n          dup3\n            /* \"#utility.yul\":2058:2063   */\n          dup2\n            /* \"#utility.yul\":2051:2072   */\n          mstore\n            /* \"#utility.yul\":2103:2107   */\n          0x20\n            /* \"#utility.yul\":2096:2101   */\n          dup2\n            /* \"#utility.yul\":2092:2108   */\n          add\n            /* \"#utility.yul\":2141:2144   */\n          dup5\n            /* \"#utility.yul\":2132:2138   */\n          dup5\n            /* \"#utility.yul\":2127:2130   */\n          dup5\n            /* \"#utility.yul\":2123:2139   */\n          add\n            /* \"#utility.yul\":2120:2145   */\n          gt\n            /* \"#utility.yul\":2117:2229   */\n          iszero\n          tag_86\n          jumpi\n            /* \"#utility.yul\":2148:2227   */\n          tag_87\n          tag_23\n          jump\t// in\n        tag_87:\n            /* \"#utility.yul\":2117:2229   */\n        tag_86:\n            /* \"#utility.yul\":2238:2290   */\n          tag_88\n            /* \"#utility.yul\":2283:2289   */\n          dup5\n            /* \"#utility.yul\":2278:2281   */\n          dup3\n            /* \"#utility.yul\":2273:2276   */\n          dup6\n            /* \"#utility.yul\":2238:2290   */\n          tag_29\n          jump\t// in\n        tag_88:\n            /* \"#utility.yul\":1957:2296   */\n          pop\n            /* \"#utility.yul\":1862:2296   */\n          swap4\n          swap3\n          pop\n          pop\n          pop\n          jump\t// out\n            /* \"#utility.yul\":2316:2671   */\n        tag_31:\n            /* \"#utility.yul\":2383:2388   */\n          0x00\n            /* \"#utility.yul\":2432:2435   */\n          dup3\n            /* \"#utility.yul\":2425:2429   */\n          0x1f\n            /* \"#utility.yul\":2417:2423   */\n          dup4\n            /* \"#utility.yul\":2413:2430   */\n          add\n            /* \"#utility.yul\":2409:2436   */\n          slt\n            /* \"#utility.yul\":2399:2521   */\n          tag_90\n          jumpi\n            /* \"#utility.yul\":2440:2519   */\n          tag_91\n          tag_22\n          jump\t// in\n        tag_91:\n            /* \"#utility.yul\":2399:2521   */\n        tag_90:\n            /* \"#utility.yul\":2550:2556   */\n          dup2\n            /* \"#utility.yul\":2544:2557   */\n          mload\n            /* \"#utility.yul\":2575:2665   */\n          tag_92\n            /* \"#utility.yul\":2661:2664   */\n          dup5\n            /* \"#utility.yul\":2653:2659   */\n          dup3\n            /* \"#utility.yul\":2646:2650   */\n          0x20\n            /* \"#utility.yul\":2638:2644   */\n          dup7\n            /* \"#utility.yul\":2634:2651   */\n          add\n            /* \"#utility.yul\":2575:2665   */\n          tag_30\n          jump\t// in\n        tag_92:\n            /* \"#utility.yul\":2566:2665   */\n          swap2\n          pop\n            /* \"#utility.yul\":2389:2671   */\n          pop\n            /* \"#utility.yul\":2316:2671   */\n          swap3\n          swap2\n          pop\n          pop\n          jump\t// out\n            /* \"#utility.yul\":2677:3003   */\n        tag_32:\n            /* \"#utility.yul\":2769:2773   */\n          0x00\n            /* \"#utility.yul\":2859:2877   */\n          0xffffffffffffffff\n            /* \"#utility.yul\":2851:2857   */\n          dup3\n            /* \"#utility.yul\":2848:2878   */\n          gt\n            /* \"#utility.yul\":2845:2901   */\n          iszero\n          tag_94\n          jumpi\n            /* \"#utility.yul\":2881:2899   */\n          tag_95\n          tag_25\n          jump\t// in\n        tag_95:\n            /* \"#utility.yul\":2845:2901   */\n        tag_94:\n            /* \"#utility.yul\":2931:2935   */\n          0x20\n            /* \"#utility.yul\":2923:2929   */\n          dup3\n            /* \"#utility.yul\":2919:2936   */\n          mul\n            /* \"#utility.yul\":2911:2936   */\n          swap1\n          pop\n            /* \"#utility.yul\":2991:2995   */\n          0x20\n            /* \"#utility.yul\":2985:2989   */\n          dup2\n            /* \"#utility.yul\":2981:2996   */\n          add\n            /* \"#utility.yul\":2973:2996   */\n          swap1\n          pop\n            /* \"#utility.yul\":2677:3003   */\n          swap2\n          swap1\n          pop\n          jump\t// out\n            /* \"#utility.yul\":3009:3126   */\n        tag_33:\n            /* \"#utility.yul\":3118:3119   */\n          0x00\n            /* \"#utility.yul\":3115:3116   */\n          dup1\n            /* \"#utility.yul\":3108:3120   */\n          revert\n            /* \"#utility.yul\":3132:3258   */\n        tag_34:\n            /* \"#utility.yul\":3169:3176   */\n          0x00\n            /* \"#utility.yul\":3209:3251   */\n          0xffffffffffffffffffffffffffffffffffffffff\n            /* \"#utility.yul\":3202:3207   */\n          dup3\n            /* \"#utility.yul\":3198:3252   */\n          and\n            /* \"#utility.yul\":3187:3252   */\n          swap1\n          pop\n            /* \"#utility.yul\":3132:3258   */\n          swap2\n          swap1\n          pop\n          jump\t// out\n            /* \"#utility.yul\":3264:3360   */\n        tag_35:\n            /* \"#utility.yul\":3301:3308   */\n          0x00\n            /* \"#utility.yul\":3330:3354   */\n          tag_99\n            /* \"#utility.yul\":3348:3353   */\n          dup3\n            /* \"#utility.yul\":3330:3354   */\n          tag_34\n          jump\t// in\n        tag_99:\n            /* \"#utility.yul\":3319:3354   */\n          swap1\n          pop\n            /* \"#utility.yul\":3264:3360   */\n          swap2\n          swap1\n          pop\n          jump\t// out\n            /* \"#utility.yul\":3366:3477   */\n        tag_36:\n            /* \"#utility.yul\":3418:3425   */\n          0x00\n            /* \"#utility.yul\":3447:3471   */\n          tag_101\n            /* \"#utility.yul\":3465:3470   */\n          dup3\n            /* \"#utility.yul\":3447:3471   */\n          tag_35\n          jump\t// in\n        tag_101:\n            /* \"#utility.yul\":3436:3471   */\n          swap1\n          pop\n            /* \"#utility.yul\":3366:3477   */\n          swap2\n          swap1\n          pop\n          jump\t// out\n            /* \"#utility.yul\":3483:3635   */\n        tag_37:\n            /* \"#utility.yul\":3571:3610   */\n          tag_103\n            /* \"#utility.yul\":3604:3609   */\n          dup2\n            /* \"#utility.yul\":3571:3610   */\n          tag_36\n          jump\t// in\n        tag_103:\n            /* \"#utility.yul\":3564:3569   */\n          dup2\n            /* \"#utility.yul\":3561:3611   */\n          eq\n            /* \"#utility.yul\":3551:3629   */\n          tag_104\n          jumpi\n            /* \"#utility.yul\":3625:3626   */\n          0x00\n            /* \"#utility.yul\":3622:3623   */\n          dup1\n            /* \"#utility.yul\":3615:3627   */\n          revert\n            /* \"#utility.yul\":3551:3629   */\n        tag_104:\n            /* \"#utility.yul\":3483:3635   */\n          pop\n          jump\t// out\n            /* \"#utility.yul\":3641:3814   */\n        tag_38:\n            /* \"#utility.yul\":3713:3718   */\n          0x00\n            /* \"#utility.yul\":3744:3750   */\n          dup2\n            /* \"#utility.yul\":3738:3751   */\n          mload\n            /* \"#utility.yul\":3729:3751   */\n          swap1\n          pop\n            /* \"#utility.yul\":3760:3808   */\n          tag_106\n            /* \"#utility.yul\":3802:3807   */\n          dup2\n            /* \"#utility.yul\":3760:3808   */\n          tag_37\n          jump\t// in\n        tag_106:\n            /* \"#utility.yul\":3641:3814   */\n          swap3\n          swap2\n          pop\n          pop\n          jump\t// out\n            /* \"#utility.yul\":3846:4623   */\n        tag_39:\n            /* \"#utility.yul\":3968:3973   */\n          0x00\n            /* \"#utility.yul\":3993:4089   */\n          tag_108\n            /* \"#utility.yul\":4009:4088   */\n          tag_109\n            /* \"#utility.yul\":4081:4087   */\n          dup5\n            /* \"#utility.yul\":4009:4088   */\n          tag_32\n          jump\t// in\n        tag_109:\n            /* \"#utility.yul\":3993:4089   */\n          tag_27\n          jump\t// in\n        tag_108:\n            /* \"#utility.yul\":3984:4089   */\n          swap1\n          pop\n            /* \"#utility.yul\":4109:4114   */\n          dup1\n            /* \"#utility.yul\":4138:4144   */\n          dup4\n            /* \"#utility.yul\":4131:4136   */\n          dup3\n            /* \"#utility.yul\":4124:4145   */\n          mstore\n            /* \"#utility.yul\":4172:4176   */\n          0x20\n            /* \"#utility.yul\":4165:4170   */\n          dup3\n            /* \"#utility.yul\":4161:4177   */\n          add\n            /* \"#utility.yul\":4154:4177   */\n          swap1\n          pop\n            /* \"#utility.yul\":4225:4229   */\n          0x20\n            /* \"#utility.yul\":4217:4223   */\n          dup5\n            /* \"#utility.yul\":4213:4230   */\n          mul\n            /* \"#utility.yul\":4205:4211   */\n          dup4\n            /* \"#utility.yul\":4201:4231   */\n          add\n            /* \"#utility.yul\":4254:4257   */\n          dup6\n            /* \"#utility.yul\":4246:4252   */\n          dup2\n            /* \"#utility.yul\":4243:4258   */\n          gt\n            /* \"#utility.yul\":4240:4362   */\n          iszero\n          tag_110\n          jumpi\n            /* \"#utility.yul\":4273:4352   */\n          tag_111\n          tag_33\n          jump\t// in\n        tag_111:\n            /* \"#utility.yul\":4240:4362   */\n        tag_110:\n            /* \"#utility.yul\":4388:4394   */\n          dup4\n            /* \"#utility.yul\":4371:4617   */\n        tag_112:\n            /* \"#utility.yul\":4405:4411   */\n          dup2\n            /* \"#utility.yul\":4400:4403   */\n          dup2\n            /* \"#utility.yul\":4397:4412   */\n          lt\n            /* \"#utility.yul\":4371:4617   */\n          iszero\n          tag_114\n          jumpi\n            /* \"#utility.yul\":4480:4483   */\n          dup1\n            /* \"#utility.yul\":4509:4572   */\n          tag_115\n            /* \"#utility.yul\":4568:4571   */\n          dup9\n            /* \"#utility.yul\":4556:4566   */\n          dup3\n            /* \"#utility.yul\":4509:4572   */\n          tag_38\n          jump\t// in\n        tag_115:\n            /* \"#utility.yul\":4504:4507   */\n          dup5\n            /* \"#utility.yul\":4497:4573   */\n          mstore\n            /* \"#utility.yul\":4602:4606   */\n          0x20\n            /* \"#utility.yul\":4597:4600   */\n          dup5\n            /* \"#utility.yul\":4593:4607   */\n          add\n            /* \"#utility.yul\":4586:4607   */\n          swap4\n          pop\n            /* \"#utility.yul\":4447:4617   */\n          pop\n            /* \"#utility.yul\":4431:4435   */\n          0x20\n            /* \"#utility.yul\":4426:4429   */\n          dup2\n            /* \"#utility.yul\":4422:4436   */\n          add\n            /* \"#utility.yul\":4415:4436   */\n          swap1\n          pop\n            /* \"#utility.yul\":4371:4617   */\n          jump(tag_112)\n        tag_114:\n            /* \"#utility.yul\":4375:4396   */\n          pop\n            /* \"#utility.yul\":3974:4623   */\n          pop\n          pop\n            /* \"#utility.yul\":3846:4623   */\n          swap4\n          swap3\n          pop\n          pop\n          pop\n          jump\t// out\n            /* \"#utility.yul\":4655:5070   */\n        tag_40:\n            /* \"#utility.yul\":4752:4757   */\n          0x00\n            /* \"#utility.yul\":4801:4804   */\n          dup3\n            /* \"#utility.yul\":4794:4798   */\n          0x1f\n            /* \"#utility.yul\":4786:4792   */\n          dup4\n            /* \"#utility.yul\":4782:4799   */\n          add\n            /* \"#utility.yul\":4778:4805   */\n          slt\n            /* \"#utility.yul\":4768:4890   */\n          tag_117\n          jumpi\n            /* \"#utility.yul\":4809:4888   */\n          tag_118\n          tag_22\n          jump\t// in\n        tag_118:\n            /* \"#utility.yul\":4768:4890   */\n        tag_117:\n            /* \"#utility.yul\":4919:4925   */\n          dup2\n            /* \"#utility.yul\":4913:4926   */\n          mload\n            /* \"#utility.yul\":4944:5064   */\n          tag_119\n            /* \"#utility.yul\":5060:5063   */\n          dup5\n            /* \"#utility.yul\":5052:5058   */\n          dup3\n            /* \"#utility.yul\":5045:5049   */\n          0x20\n            /* \"#utility.yul\":5037:5043   */\n          dup7\n            /* \"#utility.yul\":5033:5050   */\n          add\n            /* \"#utility.yul\":4944:5064   */\n          tag_39\n          jump\t// in\n        tag_119:\n            /* \"#utility.yul\":4935:5064   */\n          swap2\n          pop\n            /* \"#utility.yul\":4758:5070   */\n          pop\n            /* \"#utility.yul\":4655:5070   */\n          swap3\n          swap2\n          pop\n          pop\n          jump\t// out\n            /* \"#utility.yul\":5076:6318   */\n        tag_3:\n            /* \"#utility.yul\":5224:5230   */\n          0x00\n            /* \"#utility.yul\":5232:5238   */\n          dup1\n            /* \"#utility.yul\":5240:5246   */\n          0x00\n            /* \"#utility.yul\":5289:5291   */\n          0x60\n            /* \"#utility.yul\":5277:5286   */\n          dup5\n            /* \"#utility.yul\":5268:5275   */\n          dup7\n            /* \"#utility.yul\":5264:5287   */\n          sub\n            /* \"#utility.yul\":5260:5292   */\n          slt\n            /* \"#utility.yul\":5257:5376   */\n          iszero\n          tag_121\n          jumpi\n            /* \"#utility.yul\":5295:5374   */\n          tag_122\n          tag_20\n          jump\t// in\n        tag_122:\n            /* \"#utility.yul\":5257:5376   */\n        tag_121:\n            /* \"#utility.yul\":5436:5437   */\n          0x00\n            /* \"#utility.yul\":5425:5434   */\n          dup5\n            /* \"#utility.yul\":5421:5438   */\n          add\n            /* \"#utility.yul\":5415:5439   */\n          mload\n            /* \"#utility.yul\":5466:5484   */\n          0xffffffffffffffff\n            /* \"#utility.yul\":5458:5464   */\n          dup2\n            /* \"#utility.yul\":5455:5485   */\n          gt\n            /* \"#utility.yul\":5452:5569   */\n          iszero\n          tag_123\n          jumpi\n            /* \"#utility.yul\":5488:5567   */\n          tag_124\n          tag_21\n          jump\t// in\n        tag_124:\n            /* \"#utility.yul\":5452:5569   */\n        tag_123:\n            /* \"#utility.yul\":5593:5667   */\n          tag_125\n            /* \"#utility.yul\":5659:5666   */\n          dup7\n            /* \"#utility.yul\":5650:5656   */\n          dup3\n            /* \"#utility.yul\":5639:5648   */\n          dup8\n            /* \"#utility.yul\":5635:5657   */\n          add\n            /* \"#utility.yul\":5593:5667   */\n          tag_31\n          jump\t// in\n        tag_125:\n            /* \"#utility.yul\":5583:5667   */\n          swap4\n          pop\n            /* \"#utility.yul\":5386:5677   */\n          pop\n            /* \"#utility.yul\":5737:5739   */\n          0x20\n            /* \"#utility.yul\":5726:5735   */\n          dup5\n            /* \"#utility.yul\":5722:5740   */\n          add\n            /* \"#utility.yul\":5716:5741   */\n          mload\n            /* \"#utility.yul\":5768:5786   */\n          0xffffffffffffffff\n            /* \"#utility.yul\":5760:5766   */\n          dup2\n            /* \"#utility.yul\":5757:5787   */\n          gt\n            /* \"#utility.yul\":5754:5871   */\n          iszero\n          tag_126\n          jumpi\n            /* \"#utility.yul\":5790:5869   */\n          tag_127\n          tag_21\n          jump\t// in\n        tag_127:\n            /* \"#utility.yul\":5754:5871   */\n        tag_126:\n            /* \"#utility.yul\":5895:5969   */\n          tag_128\n            /* \"#utility.yul\":5961:5968   */\n          dup7\n            /* \"#utility.yul\":5952:5958   */\n          dup3\n            /* \"#utility.yul\":5941:5950   */\n          dup8\n            /* \"#utility.yul\":5937:5959   */\n          add\n            /* \"#utility.yul\":5895:5969   */\n          tag_31\n          jump\t// in\n        tag_128:\n            /* \"#utility.yul\":5885:5969   */\n          swap3\n          pop\n            /* \"#utility.yul\":5687:5979   */\n          pop\n            /* \"#utility.yul\":6039:6041   */\n          0x40\n            /* \"#utility.yul\":6028:6037   */\n          dup5\n            /* \"#utility.yul\":6024:6042   */\n          add\n            /* \"#utility.yul\":6018:6043   */\n          mload\n            /* \"#utility.yul\":6070:6088   */\n          0xffffffffffffffff\n            /* \"#utility.yul\":6062:6068   */\n          dup2\n            /* \"#utility.yul\":6059:6089   */\n          gt\n            /* \"#utility.yul\":6056:6173   */\n          iszero\n          tag_129\n          jumpi\n            /* \"#utility.yul\":6092:6171   */\n          tag_130\n          tag_21\n          jump\t// in\n        tag_130:\n            /* \"#utility.yul\":6056:6173   */\n        tag_129:\n            /* \"#utility.yul\":6197:6301   */\n          tag_131\n            /* \"#utility.yul\":6293:6300   */\n          dup7\n            /* \"#utility.yul\":6284:6290   */\n          dup3\n            /* \"#utility.yul\":6273:6282   */\n          dup8\n            /* \"#utility.yul\":6269:6291   */\n          add\n            /* \"#utility.yul\":6197:6301   */\n          tag_40\n          jump\t// in\n        tag_131:\n            /* \"#utility.yul\":6187:6301   */\n          swap2\n          pop\n            /* \"#utility.yul\":5989:6311   */\n          pop\n            /* \"#utility.yul\":5076:6318   */\n          swap3\n          pop\n          swap3\n          pop\n          swap3\n          jump\t// out\n            /* \"#utility.yul\":6324:6423   */\n        tag_41:\n            /* \"#utility.yul\":6376:6382   */\n          0x00\n            /* \"#utility.yul\":6410:6415   */\n          dup2\n            /* \"#utility.yul\":6404:6416   */\n          mload\n            /* \"#utility.yul\":6394:6416   */\n          swap1\n          pop\n            /* \"#utility.yul\":6324:6423   */\n          swap2\n          swap1\n          pop\n          jump\t// out\n            /* \"#utility.yul\":6429:6609   */\n        tag_42:\n            /* \"#utility.yul\":6477:6554   */\n          0x4e487b7100000000000000000000000000000000000000000000000000000000\n            /* \"#utility.yul\":6474:6475   */\n          0x00\n            /* \"#utility.yul\":6467:6555   */\n          mstore\n            /* \"#utility.yul\":6574:6578   */\n          0x22\n            /* \"#utility.yul\":6571:6572   */\n          0x04\n            /* \"#utility.yul\":6564:6579   */\n          mstore\n            /* \"#utility.yul\":6598:6602   */\n          0x24\n            /* \"#utility.yul\":6595:6596   */\n          0x00\n            /* \"#utility.yul\":6588:6603   */\n          revert\n            /* \"#utility.yul\":6615:6935   */\n        tag_43:\n            /* \"#utility.yul\":6659:6665   */\n          0x00\n            /* \"#utility.yul\":6696:6697   */\n          0x02\n            /* \"#utility.yul\":6690:6694   */\n          dup3\n            /* \"#utility.yul\":6686:6698   */\n          div\n            /* \"#utility.yul\":6676:6698   */\n          swap1\n          pop\n            /* \"#utility.yul\":6743:6744   */\n          0x01\n            /* \"#utility.yul\":6737:6741   */\n          dup3\n            /* \"#utility.yul\":6733:6745   */\n          and\n            /* \"#utility.yul\":6764:6782   */\n          dup1\n            /* \"#utility.yul\":6754:6835   */\n          tag_135\n          jumpi\n            /* \"#utility.yul\":6820:6824   */\n          0x7f\n            /* \"#utility.yul\":6812:6818   */\n          dup3\n            /* \"#utility.yul\":6808:6825   */\n          and\n            /* \"#utility.yul\":6798:6825   */\n          swap2\n          pop\n            /* \"#utility.yul\":6754:6835   */\n        tag_135:\n            /* \"#utility.yul\":6882:6884   */\n          0x20\n            /* \"#utility.yul\":6874:6880   */\n          dup3\n            /* \"#utility.yul\":6871:6885   */\n          lt\n            /* \"#utility.yul\":6851:6869   */\n          dup2\n            /* \"#utility.yul\":6848:6886   */\n          sub\n            /* \"#utility.yul\":6845:6929   */\n          tag_136\n          jumpi\n            /* \"#utility.yul\":6901:6919   */\n          tag_137\n          tag_42\n          jump\t// in\n        tag_137:\n            /* \"#utility.yul\":6845:6929   */\n        tag_136:\n            /* \"#utility.yul\":6666:6935   */\n          pop\n            /* \"#utility.yul\":6615:6935   */\n          swap2\n          swap1\n          pop\n          jump\t// out\n            /* \"#utility.yul\":6941:7082   */\n        tag_44:\n            /* \"#utility.yul\":6990:6994   */\n          0x00\n            /* \"#utility.yul\":7013:7016   */\n          dup2\n            /* \"#utility.yul\":7005:7016   */\n          swap1\n          pop\n            /* \"#utility.yul\":7036:7039   */\n          dup2\n            /* \"#utility.yul\":7033:7034   */\n          0x00\n            /* \"#utility.yul\":7026:7040   */\n          mstore\n            /* \"#utility.yul\":7070:7074   */\n          0x20\n            /* \"#utility.yul\":7067:7068   */\n          0x00\n            /* \"#utility.yul\":7057:7075   */\n          keccak256\n            /* \"#utility.yul\":7049:7075   */\n          swap1\n          pop\n            /* \"#utility.yul\":6941:7082   */\n          swap2\n          swap1\n          pop\n          jump\t// out\n            /* \"#utility.yul\":7088:7181   */\n        tag_45:\n            /* \"#utility.yul\":7125:7131   */\n          0x00\n            /* \"#utility.yul\":7172:7174   */\n          0x20\n            /* \"#utility.yul\":7167:7169   */\n          0x1f\n            /* \"#utility.yul\":7160:7165   */\n          dup4\n            /* \"#utility.yul\":7156:7170   */\n          add\n            /* \"#utility.yul\":7152:7175   */\n          div\n            /* \"#utility.yul\":7142:7175   */\n          swap1\n          pop\n            /* \"#utility.yul\":7088:7181   */\n          swap2\n          swap1\n          pop\n          jump\t// out\n            /* \"#utility.yul\":7187:7294   */\n        tag_46:\n            /* \"#utility.yul\":7231:7239   */\n          0x00\n            /* \"#utility.yul\":7281:7286   */\n          dup3\n            /* \"#utility.yul\":7275:7279   */\n          dup3\n            /* \"#utility.yul\":7271:7287   */\n          shl\n            /* \"#utility.yul\":7250:7287   */\n          swap1\n          pop\n            /* \"#utility.yul\":7187:7294   */\n          swap3\n          swap2\n          pop\n          pop\n          jump\t// out\n            /* \"#utility.yul\":7300:7693   */\n        tag_47:\n            /* \"#utility.yul\":7369:7375   */\n          0x00\n            /* \"#utility.yul\":7419:7420   */\n          0x08\n            /* \"#utility.yul\":7407:7417   */\n          dup4\n            /* \"#utility.yul\":7403:7421   */\n          mul\n            /* \"#utility.yul\":7442:7539   */\n          tag_142\n            /* \"#utility.yul\":7472:7538   */\n          0xffffffffffffffffffffffffffffffffffffffffffffffffffffffffffffffff\n            /* \"#utility.yul\":7461:7470   */\n          dup3\n            /* \"#utility.yul\":7442:7539   */\n          tag_46\n          jump\t// in\n        tag_142:\n            /* \"#utility.yul\":7560:7599   */\n          tag_143\n            /* \"#utility.yul\":7590:7598   */\n          dup7\n            /* \"#utility.yul\":7579:7588   */\n          dup4\n            /* \"#utility.yul\":7560:7599   */\n          tag_46\n          jump\t// in\n        tag_143:\n            /* \"#utility.yul\":7548:7599   */\n          swap6\n          pop\n            /* \"#utility.yul\":7632:7636   */\n          dup1\n            /* \"#utility.yul\":7628:7637   */\n          not\n            /* \"#utility.yul\":7621:7626   */\n          dup5\n            /* \"#utility.yul\":7617:7638   */\n          and\n            /* \"#utility.yul\":7608:7638   */\n          swap4\n          pop\n            /* \"#utility.yul\":7681:7685   */\n          dup1\n            /* \"#utility.yul\":7671:7679   */\n          dup7\n            /* \"#utility.yul\":7667:7686   */\n          and\n            /* \"#utility.yul\":7660:7665   */\n          dup5\n            /* \"#utility.yul\":7657:7687   */\n          or\n            /* \"#utility.yul\":7647:7687   */\n          swap3\n          pop\n            /* \"#utility.yul\":7376:7693   */\n          pop\n          pop\n            /* \"#utility.yul\":7300:7693   */\n          swap4\n          swap3\n          pop\n          pop\n          pop\n          jump\t// out\n            /* \"#utility.yul\":7699:7776   */\n        tag_48:\n            /* \"#utility.yul\":7736:7743   */\n          0x00\n            /* \"#utility.yul\":7765:7770   */\n          dup2\n            /* \"#utility.yul\":7754:7770   */\n          swap1\n          pop\n            /* \"#utility.yul\":7699:7776   */\n          swap2\n          swap1\n          pop\n          jump\t// out\n            /* \"#utility.yul\":7782:7842   */\n        tag_49:\n            /* \"#utility.yul\":7810:7813   */\n          0x00\n            /* \"#utility.yul\":7831:7836   */\n          dup2\n            /* \"#utility.yul\":7824:7836   */\n          swap1\n          pop\n            /* \"#utility.yul\":7782:7842   */\n          swap2\n          swap1\n          pop\n          jump\t// out\n            /* \"#utility.yul\":7848:7990   */\n        tag_50:\n            /* \"#utility.yul\":7898:7907   */\n          0x00\n            /* \"#utility.yul\":7931:7984   */\n          tag_147\n            /* \"#utility.yul\":7949:7983   */\n          tag_148\n            /* \"#utility.yul\":7958:7982   */\n          tag_149\n            /* \"#utility.yul\":7976:7981   */\n          dup5\n            /* \"#utility.yul\":7958:7982   */\n          tag_48\n          jump\t// in\n        tag_149:\n            /* \"#utility.yul\":7949:7983   */\n          tag_49\n          jump\t// in\n        tag_148:\n            /* \"#utility.yul\":7931:7984   */\n          tag_48\n          jump\t// in\n        tag_147:\n            /* \"#utility.yul\":7918:7984   */\n          swap1\n          pop\n            /* \"#utility.yul\":7848:7990   */\n          swap2\n          swap1\n          pop\n          jump\t// out\n            /* \"#utility.yul\":7996:8071   */\n        tag_51:\n            /* \"#utility.yul\":8039:8042   */\n          0x00\n            /* \"#utility.yul\":8060:8065   */\n          dup2\n            /* \"#utility.yul\":8053:8065   */\n          swap1\n          pop\n            /* \"#utility.yul\":7996:8071   */\n          swap2\n          swap1\n          pop\n          jump\t// out\n            /* \"#utility.yul\":8077:8346   */\n        tag_52:\n            /* \"#utility.yul\":8187:8226   */\n          tag_152\n            /* \"#utility.yul\":8218:8225   */\n          dup4\n            /* \"#utility.yul\":8187:8226   */\n          tag_50\n          jump\t// in\n        tag_152:\n            /* \"#utility.yul\":8248:8339   */\n          tag_153\n            /* \"#utility.yul\":8297:8338   */\n          tag_154\n            /* \"#utility.yul\":8321:8337   */\n          dup3\n            /* \"#utility.yul\":8297:8338   */\n          tag_51\n          jump\t// in\n        tag_154:\n            /* \"#utility.yul\":8289:8295   */\n          dup5\n            /* \"#utility.yul\":8282:8286   */\n          dup5\n            /* \"#utility.yul\":8276:8287   */\n          sload\n            /* \"#utility.yul\":8248:8339   */\n          tag_47\n          jump\t// in\n        tag_153:\n            /* \"#utility.yul\":8242:8246   */\n          dup3\n            /* \"#utility.yul\":8235:8340   */\n          sstore\n            /* \"#utility.yul\":8153:8346   */\n          pop\n            /* \"#utility.yul\":8077:8346   */\n          pop\n          pop\n          pop\n          jump\t// out\n            /* \"#utility.yul\":8352:8425   */\n        tag_53:\n            /* \"#utility.yul\":8397:8400   */\n          0x00\n            /* \"#utility.yul\":8352:8425   */\n          swap1\n          jump\t// out\n            /* \"#utility.yul\":8431:8620   */\n        tag_54:\n            /* \"#utility.yul\":8508:8540   */\n          tag_157\n          tag_53\n          jump\t// in\n        tag_157:\n            /* \"#utility.yul\":8549:8614   */\n          tag_158\n            /* \"#utility.yul\":8607:8613   */\n          dup2\n            /* \"#utility.yul\":8599:8605   */\n          dup5\n            /* \"#utility.yul\":8593:8597   */\n          dup5\n            /* \"#utility.yul\":8549:8614   */\n          tag_52\n          jump\t// in\n        tag_158:\n            /* \"#utility.yul\":8484:8620   */\n          pop\n            /* \"#utility.yul\":8431:8620   */\n          pop\n          pop\n          jump\t// out\n            /* \"#utility.yul\":8626:8812   */\n        tag_55:\n            /* \"#utility.yul\":8686:8806   */\n        tag_160:\n            /* \"#utility.yul\":8703:8706   */\n          dup2\n            /* \"#utility.yul\":8696:8701   */\n          dup2\n            /* \"#utility.yul\":8693:8707   */\n          lt\n            /* \"#utility.yul\":8686:8806   */\n          iszero\n          tag_162\n          jumpi\n            /* \"#utility.yul\":8757:8796   */\n          tag_163\n            /* \"#utility.yul\":8794:8795   */\n          0x00\n            /* \"#utility.yul\":8787:8792   */\n          dup3\n            /* \"#utility.yul\":8757:8796   */\n          tag_54\n          jump\t// in\n        tag_163:\n            /* \"#utility.yul\":8730:8731   */\n          0x01\n            /* \"#utility.yul\":8723:8728   */\n          dup2\n            /* \"#utility.yul\":8719:8732   */\n          add\n            /* \"#utility.yul\":8710:8732   */\n          swap1\n          pop\n            /* \"#utility.yul\":8686:8806   */\n          jump(tag_160)\n        tag_162:\n            /* \"#utility.yul\":8626:8812   */\n          pop\n          pop\n          jump\t// out\n            /* \"#utility.yul\":8818:9361   */\n        tag_56:\n            /* \"#utility.yul\":8919:8921   */\n          0x1f\n            /* \"#utility.yul\":8914:8917   */\n          dup3\n            /* \"#utility.yul\":8911:8922   */\n          gt\n            /* \"#utility.yul\":8908:9354   */\n          iszero\n          tag_165\n          jumpi\n            /* \"#utility.yul\":8953:8991   */\n          tag_166\n            /* \"#utility.yul\":8985:8990   */\n          dup2\n            /* \"#utility.yul\":8953:8991   */\n          tag_44\n          jump\t// in\n        tag_166:\n            /* \"#utility.yul\":9037:9066   */\n          tag_167\n            /* \"#utility.yul\":9055:9065   */\n          dup5\n            /* \"#utility.yul\":9037:9066   */\n          tag_45\n          jump\t// in\n        tag_167:\n            /* \"#utility.yul\":9027:9035   */\n          dup2\n            /* \"#utility.yul\":9023:9067   */\n          add\n            /* \"#utility.yul\":9220:9222   */\n          0x20\n            /* \"#utility.yul\":9208:9218   */\n          dup6\n            /* \"#utility.yul\":9205:9223   */\n          lt\n            /* \"#utility.yul\":9202:9251   */\n          iszero\n          tag_168\n          jumpi\n            /* \"#utility.yul\":9241:9249   */\n          dup2\n            /* \"#utility.yul\":9226:9249   */\n          swap1\n          pop\n            /* \"#utility.yul\":9202:9251   */\n        tag_168:\n            /* \"#utility.yul\":9264:9344   */\n          tag_169\n            /* \"#utility.yul\":9320:9342   */\n          tag_170\n            /* \"#utility.yul\":9338:9341   */\n          dup6\n            /* \"#utility.yul\":9320:9342   */\n          tag_45\n          jump\t// in\n        tag_170:\n            /* \"#utility.yul\":9310:9318   */\n          dup4\n            /* \"#utility.yul\":9306:9343   */\n          add\n            /* \"#utility.yul\":9293:9304   */\n          dup3\n            /* \"#utility.yul\":9264:9344   */\n          tag_55\n          jump\t// in\n        tag_169:\n            /* \"#utility.yul\":8923:9354   */\n          pop\n          pop\n            /* \"#utility.yul\":8908:9354   */\n        tag_165:\n            /* \"#utility.yul\":8818:9361   */\n          pop\n          pop\n          pop\n          jump\t// out\n            /* \"#utility.yul\":9367:9484   */\n        tag_57:\n            /* \"#utility.yul\":9421:9429   */\n          0x00\n            /* \"#utility.yul\":9471:9476   */\n          dup3\n            /* \"#utility.yul\":9465:9469   */\n          dup3\n            /* \"#utility.yul\":9461:9477   */\n          shr\n            /* \"#utility.yul\":9440:9477   */\n          swap1\n          pop\n            /* \"#utility.yul\":9367:9484   */\n          swap3\n          swap2\n          pop\n          pop\n          jump\t// out\n            /* \"#utility.yul\":9490:9659   */\n        tag_58:\n            /* \"#utility.yul\":9534:9540   */\n          0x00\n            /* \"#utility.yul\":9567:9618   */\n          tag_173\n            /* \"#utility.yul\":9615:9616   */\n          0x00\n            /* \"#utility.yul\":9611:9617   */\n          not\n            /* \"#utility.yul\":9603:9608   */\n          dup5\n            /* \"#utility.yul\":9600:9601   */\n          0x08\n            /* \"#utility.yul\":9596:9609   */\n          mul\n            /* \"#utility.yul\":9567:9618   */\n          tag_57\n          jump\t// in\n        tag_173:\n            /* \"#utility.yul\":9563:9619   */\n          not\n            /* \"#utility.yul\":9648:9652   */\n          dup1\n            /* \"#utility.yul\":9642:9646   */\n          dup4\n            /* \"#utility.yul\":9638:9653   */\n          and\n            /* \"#utility.yul\":9628:9653   */\n          swap2\n          pop\n            /* \"#utility.yul\":9541:9659   */\n          pop\n            /* \"#utility.yul\":9490:9659   */\n          swap3\n          swap2\n          pop\n          pop\n          jump\t// out\n            /* \"#utility.yul\":9664:9959   */\n        tag_59:\n            /* \"#utility.yul\":9740:9744   */\n          0x00\n            /* \"#utility.yul\":9886:9915   */\n          tag_175\n            /* \"#utility.yul\":9911:9914   */\n          dup4\n            /* \"#utility.yul\":9905:9909   */\n          dup4\n            /* \"#utility.yul\":9886:9915   */\n          tag_58\n          jump\t// in\n        tag_175:\n            /* \"#utility.yul\":9878:9915   */\n          swap2\n          pop\n            /* \"#utility.yul\":9948:9951   */\n          dup3\n            /* \"#utility.yul\":9945:9946   */\n          0x02\n            /* \"#utility.yul\":9941:9952   */\n          mul\n            /* \"#utility.yul\":9935:9939   */\n          dup3\n            /* \"#utility.yul\":9932:9953   */\n          or\n            /* \"#utility.yul\":9924:9953   */\n          swap1\n          pop\n            /* \"#utility.yul\":9664:9959   */\n          swap3\n          swap2\n          pop\n          pop\n          jump\t// out\n            /* \"#utility.yul\":9964:11359   */\n        tag_7:\n            /* \"#utility.yul\":10081:10118   */\n          tag_177\n            /* \"#utility.yul\":10114:10117   */\n          dup3\n            /* \"#utility.yul\":10081:10118   */\n          tag_41\n          jump\t// in\n        tag_177:\n            /* \"#utility.yul\":10183:10201   */\n          0xffffffffffffffff\n            /* \"#utility.yul\":10175:10181   */\n          dup2\n            /* \"#utility.yul\":10172:10202   */\n          gt\n            /* \"#utility.yul\":10169:10225   */\n          iszero\n          tag_178\n          jumpi\n            /* \"#utility.yul\":10205:10223   */\n          tag_179\n          tag_25\n          jump\t// in\n        tag_179:\n            /* \"#utility.yul\":10169:10225   */\n        tag_178:\n            /* \"#utility.yul\":10249:10287   */\n          tag_180\n            /* \"#utility.yul\":10281:10285   */\n          dup3\n            /* \"#utility.yul\":10275:10286   */\n          sload\n            /* \"#utility.yul\":10249:10287   */\n          tag_43\n          jump\t// in\n        tag_180:\n            /* \"#utility.yul\":10334:10401   */\n          tag_181\n            /* \"#utility.yul\":10394:10400   */\n          dup3\n            /* \"#utility.yul\":10386:10392   */\n          dup3\n            /* \"#utility.yul\":10380:10384   */\n          dup6\n            /* \"#utility.yul\":10334:10401   */\n          tag_56\n          jump\t// in\n        tag_181:\n            /* \"#utility.yul\":10428:10429   */\n          0x00\n            /* \"#utility.yul\":10452:10456   */\n          0x20\n            /* \"#utility.yul\":10439:10456   */\n          swap1\n          pop\n            /* \"#utility.yul\":10484:10486   */\n          0x1f\n            /* \"#utility.yul\":10476:10482   */\n          dup4\n            /* \"#utility.yul\":10473:10487   */\n          gt\n            /* \"#utility.yul\":10501:10502   */\n          0x01\n            /* \"#utility.yul\":10496:11114   */\n          dup2\n          eq\n          tag_183\n          jumpi\n            /* \"#utility.yul\":11158:11159   */\n          0x00\n            /* \"#utility.yul\":11175:11181   */\n          dup5\n            /* \"#utility.yul\":11172:11249   */\n          iszero\n          tag_184\n          jumpi\n            /* \"#utility.yul\":11224:11233   */\n          dup3\n            /* \"#utility.yul\":11219:11222   */\n          dup8\n            /* \"#utility.yul\":11215:11234   */\n          add\n            /* \"#utility.yul\":11209:11235   */\n          mload\n            /* \"#utility.yul\":11200:11235   */\n          swap1\n          pop\n            /* \"#utility.yul\":11172:11249   */\n        tag_184:\n            /* \"#utility.yul\":11275:11342   */\n          tag_185\n            /* \"#utility.yul\":11335:11341   */\n          dup6\n            /* \"#utility.yul\":11328:11333   */\n          dup3\n            /* \"#utility.yul\":11275:11342   */\n          tag_59\n          jump\t// in\n        tag_185:\n            /* \"#utility.yul\":11269:11273   */\n          dup7\n            /* \"#utility.yul\":11262:11343   */\n          sstore\n            /* \"#utility.yul\":11131:11353   */\n          pop\n            /* \"#utility.yul\":10466:11353   */\n          jump(tag_182)\n            /* \"#utility.yul\":10496:11114   */\n        tag_183:\n            /* \"#utility.yul\":10548:10552   */\n          0x1f\n            /* \"#utility.yul\":10544:10553   */\n          not\n            /* \"#utility.yul\":10536:10542   */\n          dup5\n            /* \"#utility.yul\":10532:10554   */\n          and\n            /* \"#utility.yul\":10582:10619   */\n          tag_186\n            /* \"#utility.yul\":10614:10618   */\n          dup7\n            /* \"#utility.yul\":10582:10619   */\n          tag_44\n          jump\t// in\n        tag_186:\n            /* \"#utility.yul\":10641:10642   */\n          0x00\n            /* \"#utility.yul\":10655:10863   */\n        tag_187:\n            /* \"#utility.yul\":10669:10676   */\n          dup3\n            /* \"#utility.yul\":10666:10667   */\n          dup2\n            /* \"#utility.yul\":10663:10677   */\n          lt\n            /* \"#utility.yul\":10655:10863   */\n          iszero\n          tag_189\n          jumpi\n            /* \"#utility.yul\":10748:10757   */\n          dup5\n            /* \"#utility.yul\":10743:10746   */\n          dup10\n            /* \"#utility.yul\":10739:10758   */\n          add\n            /* \"#utility.yul\":10733:10759   */\n          mload\n            /* \"#utility.yul\":10725:10731   */\n          dup3\n            /* \"#utility.yul\":10718:10760   */\n          sstore\n            /* \"#utility.yul\":10799:10800   */\n          0x01\n            /* \"#utility.yul\":10791:10797   */\n          dup3\n            /* \"#utility.yul\":10787:10801   */\n          add\n            /* \"#utility.yul\":10777:10801   */\n          swap2\n          pop\n            /* \"#utility.yul\":10846:10848   */\n          0x20\n            /* \"#utility.yul\":10835:10844   */\n          dup6\n            /* \"#utility.yul\":10831:10849   */\n          add\n            /* \"#utility.yul\":10818:10849   */\n          swap5\n          pop\n            /* \"#utility.yul\":10692:10696   */\n          0x20\n            /* \"#utility.yul\":10689:10690   */\n          dup2\n            /* \"#utility.yul\":10685:10697   */\n          add\n            /* \"#utility.yul\":10680:10697   */\n          swap1\n          pop\n            /* \"#utility.yul\":10655:10863   */\n          jump(tag_187)\n        tag_189:\n            /* \"#utility.yul\":10891:10897   */\n          dup7\n            /* \"#utility.yul\":10882:10889   */\n          dup4\n            /* \"#utility.yul\":10879:10898   */\n          lt\n            /* \"#utility.yul\":10876:11055   */\n          iszero\n          tag_190\n          jumpi\n            /* \"#utility.yul\":10949:10958   */\n          dup5\n            /* \"#utility.yul\":10944:10947   */\n          dup10\n            /* \"#utility.yul\":10940:10959   */\n          add\n            /* \"#utility.yul\":10934:10960   */\n          mload\n            /* \"#utility.yul\":10992:11040   */\n          tag_191\n            /* \"#utility.yul\":11034:11038   */\n          0x1f\n            /* \"#utility.yul\":11026:11032   */\n          dup10\n            /* \"#utility.yul\":11022:11039   */\n          and\n            /* \"#utility.yul\":11011:11020   */\n          dup3\n            /* \"#utility.yul\":10992:11040   */\n          tag_58\n          jump\t// in\n        tag_191:\n            /* \"#utility.yul\":10984:10990   */\n          dup4\n            /* \"#utility.yul\":10977:11041   */\n          sstore\n            /* \"#utility.yul\":10899:11055   */\n          pop\n            /* \"#utility.yul\":10876:11055   */\n        tag_190:\n            /* \"#utility.yul\":11101:11102   */\n          0x01\n            /* \"#utility.yul\":11097:11098   */\n          0x02\n            /* \"#utility.yul\":11089:11095   */\n          dup9\n            /* \"#utility.yul\":11085:11099   */\n          mul\n            /* \"#utility.yul\":11081:11103   */\n          add\n            /* \"#utility.yul\":11075:11079   */\n          dup9\n            /* \"#utility.yul\":11068:11104   */\n          sstore\n            /* \"#utility.yul\":10503:11114   */\n          pop\n          pop\n          pop\n            /* \"#utility.yul\":10466:11353   */\n        tag_182:\n          pop\n            /* \"#utility.yul\":10056:11359   */\n          pop\n          pop\n          pop\n            /* \"#utility.yul\":9964:11359   */\n          pop\n          pop\n          jump\t// out\n            /* \"BigPicture.sol\":88:402  contract BigPicture {... */\n        tag_11:\n          dataSize(sub_0)\n          dup1\n          dataOffset(sub_0)\n          0x00\n          codecopy\n          0x00\n          return\n        stop\n\n        sub_0: assembly {\n                /* \"BigPicture.sol\":88:402  contract BigPicture {... */\n              mstore(0x40, 0x80)\n              0x00\n              dup1\n              revert\n\n            auxdata: 0xa2646970667358221220956a7e1422ee66ca2c1b760e1bce148fc988e367bc07c0a0fea07bb3c81d9a4e64736f6c63430008140033\n        }\n    }\n\n    auxdata: 0xa2646970667358221220a3ee84696e3ee1fa5c3fdeed245eb5fc3c705b423fdadb928b0a6a1d1f4097fc64736f6c63430008140033\n}\n",
				"bytecode": {
					"linkReferences": {},
					"object": "608060405234801561000f575f80fd5b50610fa88061001d5f395ff3fe608060405234801562000010575f80fd5b506004361062000038575f3560e01c80634eef150d146200003c57806373292fe8146200005e575b5f80fd5b620000466200007e565b604051620000559190620002f6565b60405180910390f35b6200007c6004803603810190620000769190620005ad565b6200010a565b005b60605f8054806020026020016040519081016040528092919081815260200182805480156200010057602002820191905f5260205f20905b815f9054906101000a900473ffffffffffffffffffffffffffffffffffffffff1673ffffffffffffffffffffffffffffffffffffffff1681526020019060010190808311620000b6575b5050505050905090565b5f8383836040516200011c90620001ac565b6200012a93929190620007b1565b604051809103905ff08015801562000144573d5f803e3d5ffd5b5090505f81908060018154018082558091505060019003905f5260205f20015f9091909190916101000a81548173ffffffffffffffffffffffffffffffffffffffff021916908373ffffffffffffffffffffffffffffffffffffffff16021790555050505050565b610771806200080283390190565b5f81519050919050565b5f82825260208201905092915050565b5f819050602082019050919050565b5f73ffffffffffffffffffffffffffffffffffffffff82169050919050565b5f819050919050565b5f6200022b620002256200021f84620001e3565b62000202565b620001e3565b9050919050565b5f6200023e826200020b565b9050919050565b5f620002518262000232565b9050919050565b620002638162000245565b82525050565b5f62000276838362000258565b60208301905092915050565b5f602082019050919050565b5f6200029a82620001ba565b620002a68185620001c4565b9350620002b383620001d4565b805f5b83811015620002e9578151620002cd888262000269565b9750620002da8362000282565b925050600181019050620002b6565b5085935050505092915050565b5f6020820190508181035f8301526200031081846200028e565b905092915050565b5f604051905090565b5f80fd5b5f80fd5b5f80fd5b5f80fd5b5f601f19601f8301169050919050565b7f4e487b71000000000000000000000000000000000000000000000000000000005f52604160045260245ffd5b620003798262000331565b810181811067ffffffffffffffff821117156200039b576200039a62000341565b5b80604052505050565b5f620003af62000318565b9050620003bd82826200036e565b919050565b5f67ffffffffffffffff821115620003df57620003de62000341565b5b620003ea8262000331565b9050602081019050919050565b828183375f83830152505050565b5f6200041b6200041584620003c2565b620003a4565b9050828152602081018484840111156200043a57620004396200032d565b5b62000447848285620003f7565b509392505050565b5f82601f83011262000466576200046562000329565b5b81356200047884826020860162000405565b91505092915050565b5f67ffffffffffffffff8211156200049e576200049d62000341565b5b602082029050602081019050919050565b5f80fd5b5f620004bf82620001e3565b9050919050565b5f620004d282620004b3565b9050919050565b620004e481620004c6565b8114620004ef575f80fd5b50565b5f813590506200050281620004d9565b92915050565b5f6200051e620005188462000481565b620003a4565b90508083825260208201905060208402830185811115620005445762000543620004af565b5b835b818110156200057157806200055c8882620004f2565b84526020840193505060208101905062000546565b5050509392505050565b5f82601f83011262000592576200059162000329565b5b8135620005a484826020860162000508565b91505092915050565b5f805f60608486031215620005c757620005c662000321565b5b5f84013567ffffffffffffffff811115620005e757620005e662000325565b5b620005f5868287016200044f565b935050602084013567ffffffffffffffff81111562000619576200061862000325565b5b62000627868287016200044f565b925050604084013567ffffffffffffffff8111156200064b576200064a62000325565b5b62000659868287016200057b565b9150509250925092565b5f81519050919050565b5f82825260208201905092915050565b5f5b838110156200069c5780820151818401526020810190506200067f565b5f8484015250505050565b5f620006b38262000663565b620006bf81856200066d565b9350620006d18185602086016200067d565b620006dc8162000331565b840191505092915050565b5f81519050919050565b5f819050602082019050919050565b5f6200070c8262000232565b9050919050565b6200071e8162000700565b82525050565b5f62000731838362000713565b60208301905092915050565b5f602082019050919050565b5f6200075582620006e7565b620007618185620001c4565b93506200076e83620006f1565b805f5b83811015620007a457815162000788888262000724565b975062000795836200073d565b92505060018101905062000771565b5085935050505092915050565b5f6060820190508181035f830152620007cb8186620006a7565b90508181036020830152620007e18185620006a7565b90508181036040830152620007f7818462000749565b905094935050505056fe608060405234801561000f575f80fd5b50604051610771380380610771833981810160405281019061003191906103a7565b825f908161003f9190610658565b50816001908161004f9190610658565b50806002908051906020019061006692919061006f565b50505050610727565b828054828255905f5260205f209081019282156100e5579160200282015b828111156100e4578251825f6101000a81548173ffffffffffffffffffffffffffffffffffffffff021916908373ffffffffffffffffffffffffffffffffffffffff1602179055509160200191906001019061008d565b5b5090506100f291906100f6565b5090565b5b8082111561010d575f815f9055506001016100f7565b5090565b5f604051905090565b5f80fd5b5f80fd5b5f80fd5b5f80fd5b5f601f19601f8301169050919050565b7f4e487b71000000000000000000000000000000000000000000000000000000005f52604160045260245ffd5b6101708261012a565b810181811067ffffffffffffffff8211171561018f5761018e61013a565b5b80604052505050565b5f6101a1610111565b90506101ad8282610167565b919050565b5f67ffffffffffffffff8211156101cc576101cb61013a565b5b6101d58261012a565b9050602081019050919050565b5f5b838110156101ff5780820151818401526020810190506101e4565b5f8484015250505050565b5f61021c610217846101b2565b610198565b90508281526020810184848401111561023857610237610126565b5b6102438482856101e2565b509392505050565b5f82601f83011261025f5761025e610122565b5b815161026f84826020860161020a565b91505092915050565b5f67ffffffffffffffff8211156102925761029161013a565b5b602082029050602081019050919050565b5f80fd5b5f73ffffffffffffffffffffffffffffffffffffffff82169050919050565b5f6102d0826102a7565b9050919050565b5f6102e1826102c6565b9050919050565b6102f1816102d7565b81146102fb575f80fd5b50565b5f8151905061030c816102e8565b92915050565b5f61032461031f84610278565b610198565b90508083825260208201905060208402830185811115610347576103466102a3565b5b835b81811015610370578061035c88826102fe565b845260208401935050602081019050610349565b5050509392505050565b5f82601f83011261038e5761038d610122565b5b815161039e848260208601610312565b91505092915050565b5f805f606084860312156103be576103bd61011a565b5b5f84015167ffffffffffffffff8111156103db576103da61011e565b5b6103e78682870161024b565b935050602084015167ffffffffffffffff8111156104085761040761011e565b5b6104148682870161024b565b925050604084015167ffffffffffffffff8111156104355761043461011e565b5b6104418682870161037a565b9150509250925092565b5f81519050919050565b7f4e487b71000000000000000000000000000000000000000000000000000000005f52602260045260245ffd5b5f600282049050600182168061049957607f821691505b6020821081036104ac576104ab610455565b5b50919050565b5f819050815f5260205f209050919050565b5f6020601f8301049050919050565b5f82821b905092915050565b5f6008830261050e7fffffffffffffffffffffffffffffffffffffffffffffffffffffffffffffffff826104d3565b61051886836104d3565b95508019841693508086168417925050509392505050565b5f819050919050565b5f819050919050565b5f61055c61055761055284610530565b610539565b610530565b9050919050565b5f819050919050565b61057583610542565b61058961058182610563565b8484546104df565b825550505050565b5f90565b61059d610591565b6105a881848461056c565b505050565b5b818110156105cb576105c05f82610595565b6001810190506105ae565b5050565b601f821115610610576105e1816104b2565b6105ea846104c4565b810160208510156105f9578190505b61060d610605856104c4565b8301826105ad565b50505b505050565b5f82821c905092915050565b5f6106305f1984600802610615565b1980831691505092915050565b5f6106488383610621565b9150826002028217905092915050565b6106618261044b565b67ffffffffffffffff81111561067a5761067961013a565b5b6106848254610482565b61068f8282856105cf565b5f60209050601f8311600181146106c0575f84156106ae578287015190505b6106b8858261063d565b86555061071f565b601f1984166106ce866104b2565b5f5b828110156106f5578489015182556001820191506020850194506020810190506106d0565b86831015610712578489015161070e601f891682610621565b8355505b6001600288020188555050505b505050505050565b603e806107335f395ff3fe60806040525f80fdfea2646970667358221220956a7e1422ee66ca2c1b760e1bce148fc988e367bc07c0a0fea07bb3c81d9a4e64736f6c63430008140033a2646970667358221220a3ee84696e3ee1fa5c3fdeed245eb5fc3c705b423fdadb928b0a6a1d1f4097fc64736f6c63430008140033",
					"opcodes": "PUSH1 0x80 PUSH1 0x40 MSTORE CALLVALUE DUP1 ISZERO PUSH2 0xF JUMPI PUSH0 DUP1 REVERT JUMPDEST POP PUSH2 0xFA8 DUP1 PUSH2 0x1D PUSH0 CODECOPY PUSH0 RETURN INVALID PUSH1 0x80 PUSH1 0x40 MSTORE CALLVALUE DUP1 ISZERO PUSH3 0x10 JUMPI PUSH0 DUP1 REVERT JUMPDEST POP PUSH1 0x4 CALLDATASIZE LT PUSH3 0x38 JUMPI PUSH0 CALLDATALOAD PUSH1 0xE0 SHR DUP1 PUSH4 0x4EEF150D EQ PUSH3 0x3C JUMPI DUP1 PUSH4 0x73292FE8 EQ PUSH3 0x5E JUMPI JUMPDEST PUSH0 DUP1 REVERT JUMPDEST PUSH3 0x46 PUSH3 0x7E JUMP JUMPDEST PUSH1 0x40 MLOAD PUSH3 0x55 SWAP2 SWAP1 PUSH3 0x2F6 JUMP JUMPDEST PUSH1 0x40 MLOAD DUP1 SWAP2 SUB SWAP1 RETURN JUMPDEST PUSH3 0x7C PUSH1 0x4 DUP1 CALLDATASIZE SUB DUP2 ADD SWAP1 PUSH3 0x76 SWAP2 SWAP1 PUSH3 0x5AD JUMP JUMPDEST PUSH3 0x10A JUMP JUMPDEST STOP JUMPDEST PUSH1 0x60 PUSH0 DUP1 SLOAD DUP1 PUSH1 0x20 MUL PUSH1 0x20 ADD PUSH1 0x40 MLOAD SWAP1 DUP2 ADD PUSH1 0x40 MSTORE DUP1 SWAP3 SWAP2 SWAP1 DUP2 DUP2 MSTORE PUSH1 0x20 ADD DUP3 DUP1 SLOAD DUP1 ISZERO PUSH3 0x100 JUMPI PUSH1 0x20 MUL DUP3 ADD SWAP2 SWAP1 PUSH0 MSTORE PUSH1 0x20 PUSH0 KECCAK256 SWAP1 JUMPDEST DUP2 PUSH0 SWAP1 SLOAD SWAP1 PUSH2 0x100 EXP SWAP1 DIV PUSH20 0xFFFFFFFFFFFFFFFFFFFFFFFFFFFFFFFFFFFFFFFF AND PUSH20 0xFFFFFFFFFFFFFFFFFFFFFFFFFFFFFFFFFFFFFFFF AND DUP2 MSTORE PUSH1 0x20 ADD SWAP1 PUSH1 0x1 ADD SWAP1 DUP1 DUP4 GT PUSH3 0xB6 JUMPI JUMPDEST POP POP POP POP POP SWAP1 POP SWAP1 JUMP JUMPDEST PUSH0 DUP4 DUP4 DUP4 PUSH1 0x40 MLOAD PUSH3 0x11C SWAP1 PUSH3 0x1AC JUMP JUMPDEST PUSH3 0x12A SWAP4 SWAP3 SWAP2 SWAP1 PUSH3 0x7B1 JUMP JUMPDEST PUSH1 0x40 MLOAD DUP1 SWAP2 SUB SWAP1 PUSH0 CREATE DUP1 ISZERO DUP1 ISZERO PUSH3 0x144 JUMPI RETURNDATASIZE PUSH0 DUP1 RETURNDATACOPY RETURNDATASIZE PUSH0 REVERT JUMPDEST POP SWAP1 POP PUSH0 DUP2 SWAP1 DUP1 PUSH1 0x1 DUP2 SLOAD ADD DUP1 DUP3 SSTORE DUP1 SWAP2 POP POP PUSH1 0x1 SWAP1 SUB SWAP1 PUSH0 MSTORE PUSH1 0x20 PUSH0 KECCAK256 ADD PUSH0 SWAP1 SWAP2 SWAP1 SWAP2 SWAP1 SWAP2 PUSH2 0x100 EXP DUP2 SLOAD DUP2 PUSH20 0xFFFFFFFFFFFFFFFFFFFFFFFFFFFFFFFFFFFFFFFF MUL NOT AND SWAP1 DUP4 PUSH20 0xFFFFFFFFFFFFFFFFFFFFFFFFFFFFFFFFFFFFFFFF AND MUL OR SWAP1 SSTORE POP POP POP POP POP JUMP JUMPDEST PUSH2 0x771 DUP1 PUSH3 0x802 DUP4 CODECOPY ADD SWAP1 JUMP JUMPDEST PUSH0 DUP2 MLOAD SWAP1 POP SWAP2 SWAP1 POP JUMP JUMPDEST PUSH0 DUP3 DUP3 MSTORE PUSH1 0x20 DUP3 ADD SWAP1 POP SWAP3 SWAP2 POP POP JUMP JUMPDEST PUSH0 DUP2 SWAP1 POP PUSH1 0x20 DUP3 ADD SWAP1 POP SWAP2 SWAP1 POP JUMP JUMPDEST PUSH0 PUSH20 0xFFFFFFFFFFFFFFFFFFFFFFFFFFFFFFFFFFFFFFFF DUP3 AND SWAP1 POP SWAP2 SWAP1 POP JUMP JUMPDEST PUSH0 DUP2 SWAP1 POP SWAP2 SWAP1 POP JUMP JUMPDEST PUSH0 PUSH3 0x22B PUSH3 0x225 PUSH3 0x21F DUP5 PUSH3 0x1E3 JUMP JUMPDEST PUSH3 0x202 JUMP JUMPDEST PUSH3 0x1E3 JUMP JUMPDEST SWAP1 POP SWAP2 SWAP1 POP JUMP JUMPDEST PUSH0 PUSH3 0x23E DUP3 PUSH3 0x20B JUMP JUMPDEST SWAP1 POP SWAP2 SWAP1 POP JUMP JUMPDEST PUSH0 PUSH3 0x251 DUP3 PUSH3 0x232 JUMP JUMPDEST SWAP1 POP SWAP2 SWAP1 POP JUMP JUMPDEST PUSH3 0x263 DUP2 PUSH3 0x245 JUMP JUMPDEST DUP3 MSTORE POP POP JUMP JUMPDEST PUSH0 PUSH3 0x276 DUP4 DUP4 PUSH3 0x258 JUMP JUMPDEST PUSH1 0x20 DUP4 ADD SWAP1 POP SWAP3 SWAP2 POP POP JUMP JUMPDEST PUSH0 PUSH1 0x20 DUP3 ADD SWAP1 POP SWAP2 SWAP1 POP JUMP JUMPDEST PUSH0 PUSH3 0x29A DUP3 PUSH3 0x1BA JUMP JUMPDEST PUSH3 0x2A6 DUP2 DUP6 PUSH3 0x1C4 JUMP JUMPDEST SWAP4 POP PUSH3 0x2B3 DUP4 PUSH3 0x1D4 JUMP JUMPDEST DUP1 PUSH0 JUMPDEST DUP4 DUP2 LT ISZERO PUSH3 0x2E9 JUMPI DUP2 MLOAD PUSH3 0x2CD DUP9 DUP3 PUSH3 0x269 JUMP JUMPDEST SWAP8 POP PUSH3 0x2DA DUP4 PUSH3 0x282 JUMP JUMPDEST SWAP3 POP POP PUSH1 0x1 DUP2 ADD SWAP1 POP PUSH3 0x2B6 JUMP JUMPDEST POP DUP6 SWAP4 POP POP POP POP SWAP3 SWAP2 POP POP JUMP JUMPDEST PUSH0 PUSH1 0x20 DUP3 ADD SWAP1 POP DUP2 DUP2 SUB PUSH0 DUP4 ADD MSTORE PUSH3 0x310 DUP2 DUP5 PUSH3 0x28E JUMP JUMPDEST SWAP1 POP SWAP3 SWAP2 POP POP JUMP JUMPDEST PUSH0 PUSH1 0x40 MLOAD SWAP1 POP SWAP1 JUMP JUMPDEST PUSH0 DUP1 REVERT JUMPDEST PUSH0 DUP1 REVERT JUMPDEST PUSH0 DUP1 REVERT JUMPDEST PUSH0 DUP1 REVERT JUMPDEST PUSH0 PUSH1 0x1F NOT PUSH1 0x1F DUP4 ADD AND SWAP1 POP SWAP2 SWAP1 POP JUMP JUMPDEST PUSH32 0x4E487B7100000000000000000000000000000000000000000000000000000000 PUSH0 MSTORE PUSH1 0x41 PUSH1 0x4 MSTORE PUSH1 0x24 PUSH0 REVERT JUMPDEST PUSH3 0x379 DUP3 PUSH3 0x331 JUMP JUMPDEST DUP2 ADD DUP2 DUP2 LT PUSH8 0xFFFFFFFFFFFFFFFF DUP3 GT OR ISZERO PUSH3 0x39B JUMPI PUSH3 0x39A PUSH3 0x341 JUMP JUMPDEST JUMPDEST DUP1 PUSH1 0x40 MSTORE POP POP POP JUMP JUMPDEST PUSH0 PUSH3 0x3AF PUSH3 0x318 JUMP JUMPDEST SWAP1 POP PUSH3 0x3BD DUP3 DUP3 PUSH3 0x36E JUMP JUMPDEST SWAP2 SWAP1 POP JUMP JUMPDEST PUSH0 PUSH8 0xFFFFFFFFFFFFFFFF DUP3 GT ISZERO PUSH3 0x3DF JUMPI PUSH3 0x3DE PUSH3 0x341 JUMP JUMPDEST JUMPDEST PUSH3 0x3EA DUP3 PUSH3 0x331 JUMP JUMPDEST SWAP1 POP PUSH1 0x20 DUP2 ADD SWAP1 POP SWAP2 SWAP1 POP JUMP JUMPDEST DUP3 DUP2 DUP4 CALLDATACOPY PUSH0 DUP4 DUP4 ADD MSTORE POP POP POP JUMP JUMPDEST PUSH0 PUSH3 0x41B PUSH3 0x415 DUP5 PUSH3 0x3C2 JUMP JUMPDEST PUSH3 0x3A4 JUMP JUMPDEST SWAP1 POP DUP3 DUP2 MSTORE PUSH1 0x20 DUP2 ADD DUP5 DUP5 DUP5 ADD GT ISZERO PUSH3 0x43A JUMPI PUSH3 0x439 PUSH3 0x32D JUMP JUMPDEST JUMPDEST PUSH3 0x447 DUP5 DUP3 DUP6 PUSH3 0x3F7 JUMP JUMPDEST POP SWAP4 SWAP3 POP POP POP JUMP JUMPDEST PUSH0 DUP3 PUSH1 0x1F DUP4 ADD SLT PUSH3 0x466 JUMPI PUSH3 0x465 PUSH3 0x329 JUMP JUMPDEST JUMPDEST DUP2 CALLDATALOAD PUSH3 0x478 DUP5 DUP3 PUSH1 0x20 DUP7 ADD PUSH3 0x405 JUMP JUMPDEST SWAP2 POP POP SWAP3 SWAP2 POP POP JUMP JUMPDEST PUSH0 PUSH8 0xFFFFFFFFFFFFFFFF DUP3 GT ISZERO PUSH3 0x49E JUMPI PUSH3 0x49D PUSH3 0x341 JUMP JUMPDEST JUMPDEST PUSH1 0x20 DUP3 MUL SWAP1 POP PUSH1 0x20 DUP2 ADD SWAP1 POP SWAP2 SWAP1 POP JUMP JUMPDEST PUSH0 DUP1 REVERT JUMPDEST PUSH0 PUSH3 0x4BF DUP3 PUSH3 0x1E3 JUMP JUMPDEST SWAP1 POP SWAP2 SWAP1 POP JUMP JUMPDEST PUSH0 PUSH3 0x4D2 DUP3 PUSH3 0x4B3 JUMP JUMPDEST SWAP1 POP SWAP2 SWAP1 POP JUMP JUMPDEST PUSH3 0x4E4 DUP2 PUSH3 0x4C6 JUMP JUMPDEST DUP2 EQ PUSH3 0x4EF JUMPI PUSH0 DUP1 REVERT JUMPDEST POP JUMP JUMPDEST PUSH0 DUP2 CALLDATALOAD SWAP1 POP PUSH3 0x502 DUP2 PUSH3 0x4D9 JUMP JUMPDEST SWAP3 SWAP2 POP POP JUMP JUMPDEST PUSH0 PUSH3 0x51E PUSH3 0x518 DUP5 PUSH3 0x481 JUMP JUMPDEST PUSH3 0x3A4 JUMP JUMPDEST SWAP1 POP DUP1 DUP4 DUP3 MSTORE PUSH1 0x20 DUP3 ADD SWAP1 POP PUSH1 0x20 DUP5 MUL DUP4 ADD DUP6 DUP2 GT ISZERO PUSH3 0x544 JUMPI PUSH3 0x543 PUSH3 0x4AF JUMP JUMPDEST JUMPDEST DUP4 JUMPDEST DUP2 DUP2 LT ISZERO PUSH3 0x571 JUMPI DUP1 PUSH3 0x55C DUP9 DUP3 PUSH3 0x4F2 JUMP JUMPDEST DUP5 MSTORE PUSH1 0x20 DUP5 ADD SWAP4 POP POP PUSH1 0x20 DUP2 ADD SWAP1 POP PUSH3 0x546 JUMP JUMPDEST POP POP POP SWAP4 SWAP3 POP POP POP JUMP JUMPDEST PUSH0 DUP3 PUSH1 0x1F DUP4 ADD SLT PUSH3 0x592 JUMPI PUSH3 0x591 PUSH3 0x329 JUMP JUMPDEST JUMPDEST DUP2 CALLDATALOAD PUSH3 0x5A4 DUP5 DUP3 PUSH1 0x20 DUP7 ADD PUSH3 0x508 JUMP JUMPDEST SWAP2 POP POP SWAP3 SWAP2 POP POP JUMP JUMPDEST PUSH0 DUP1 PUSH0 PUSH1 0x60 DUP5 DUP7 SUB SLT ISZERO PUSH3 0x5C7 JUMPI PUSH3 0x5C6 PUSH3 0x321 JUMP JUMPDEST JUMPDEST PUSH0 DUP5 ADD CALLDATALOAD PUSH8 0xFFFFFFFFFFFFFFFF DUP2 GT ISZERO PUSH3 0x5E7 JUMPI PUSH3 0x5E6 PUSH3 0x325 JUMP JUMPDEST JUMPDEST PUSH3 0x5F5 DUP7 DUP3 DUP8 ADD PUSH3 0x44F JUMP JUMPDEST SWAP4 POP POP PUSH1 0x20 DUP5 ADD CALLDATALOAD PUSH8 0xFFFFFFFFFFFFFFFF DUP2 GT ISZERO PUSH3 0x619 JUMPI PUSH3 0x618 PUSH3 0x325 JUMP JUMPDEST JUMPDEST PUSH3 0x627 DUP7 DUP3 DUP8 ADD PUSH3 0x44F JUMP JUMPDEST SWAP3 POP POP PUSH1 0x40 DUP5 ADD CALLDATALOAD PUSH8 0xFFFFFFFFFFFFFFFF DUP2 GT ISZERO PUSH3 0x64B JUMPI PUSH3 0x64A PUSH3 0x325 JUMP JUMPDEST JUMPDEST PUSH3 0x659 DUP7 DUP3 DUP8 ADD PUSH3 0x57B JUMP JUMPDEST SWAP2 POP POP SWAP3 POP SWAP3 POP SWAP3 JUMP JUMPDEST PUSH0 DUP2 MLOAD SWAP1 POP SWAP2 SWAP1 POP JUMP JUMPDEST PUSH0 DUP3 DUP3 MSTORE PUSH1 0x20 DUP3 ADD SWAP1 POP SWAP3 SWAP2 POP POP JUMP JUMPDEST PUSH0 JUMPDEST DUP4 DUP2 LT ISZERO PUSH3 0x69C JUMPI DUP1 DUP3 ADD MLOAD DUP2 DUP5 ADD MSTORE PUSH1 0x20 DUP2 ADD SWAP1 POP PUSH3 0x67F JUMP JUMPDEST PUSH0 DUP5 DUP5 ADD MSTORE POP POP POP POP JUMP JUMPDEST PUSH0 PUSH3 0x6B3 DUP3 PUSH3 0x663 JUMP JUMPDEST PUSH3 0x6BF DUP2 DUP6 PUSH3 0x66D JUMP JUMPDEST SWAP4 POP PUSH3 0x6D1 DUP2 DUP6 PUSH1 0x20 DUP7 ADD PUSH3 0x67D JUMP JUMPDEST PUSH3 0x6DC DUP2 PUSH3 0x331 JUMP JUMPDEST DUP5 ADD SWAP2 POP POP SWAP3 SWAP2 POP POP JUMP JUMPDEST PUSH0 DUP2 MLOAD SWAP1 POP SWAP2 SWAP1 POP JUMP JUMPDEST PUSH0 DUP2 SWAP1 POP PUSH1 0x20 DUP3 ADD SWAP1 POP SWAP2 SWAP1 POP JUMP JUMPDEST PUSH0 PUSH3 0x70C DUP3 PUSH3 0x232 JUMP JUMPDEST SWAP1 POP SWAP2 SWAP1 POP JUMP JUMPDEST PUSH3 0x71E DUP2 PUSH3 0x700 JUMP JUMPDEST DUP3 MSTORE POP POP JUMP JUMPDEST PUSH0 PUSH3 0x731 DUP4 DUP4 PUSH3 0x713 JUMP JUMPDEST PUSH1 0x20 DUP4 ADD SWAP1 POP SWAP3 SWAP2 POP POP JUMP JUMPDEST PUSH0 PUSH1 0x20 DUP3 ADD SWAP1 POP SWAP2 SWAP1 POP JUMP JUMPDEST PUSH0 PUSH3 0x755 DUP3 PUSH3 0x6E7 JUMP JUMPDEST PUSH3 0x761 DUP2 DUP6 PUSH3 0x1C4 JUMP JUMPDEST SWAP4 POP PUSH3 0x76E DUP4 PUSH3 0x6F1 JUMP JUMPDEST DUP1 PUSH0 JUMPDEST DUP4 DUP2 LT ISZERO PUSH3 0x7A4 JUMPI DUP2 MLOAD PUSH3 0x788 DUP9 DUP3 PUSH3 0x724 JUMP JUMPDEST SWAP8 POP PUSH3 0x795 DUP4 PUSH3 0x73D JUMP JUMPDEST SWAP3 POP POP PUSH1 0x1 DUP2 ADD SWAP1 POP PUSH3 0x771 JUMP JUMPDEST POP DUP6 SWAP4 POP POP POP POP SWAP3 SWAP2 POP POP JUMP JUMPDEST PUSH0 PUSH1 0x60 DUP3 ADD SWAP1 POP DUP2 DUP2 SUB PUSH0 DUP4 ADD MSTORE PUSH3 0x7CB DUP2 DUP7 PUSH3 0x6A7 JUMP JUMPDEST SWAP1 POP DUP2 DUP2 SUB PUSH1 0x20 DUP4 ADD MSTORE PUSH3 0x7E1 DUP2 DUP6 PUSH3 0x6A7 JUMP JUMPDEST SWAP1 POP DUP2 DUP2 SUB PUSH1 0x40 DUP4 ADD MSTORE PUSH3 0x7F7 DUP2 DUP5 PUSH3 0x749 JUMP JUMPDEST SWAP1 POP SWAP5 SWAP4 POP POP POP POP JUMP INVALID PUSH1 0x80 PUSH1 0x40 MSTORE CALLVALUE DUP1 ISZERO PUSH2 0xF JUMPI PUSH0 DUP1 REVERT JUMPDEST POP PUSH1 0x40 MLOAD PUSH2 0x771 CODESIZE SUB DUP1 PUSH2 0x771 DUP4 CODECOPY DUP2 DUP2 ADD PUSH1 0x40 MSTORE DUP2 ADD SWAP1 PUSH2 0x31 SWAP2 SWAP1 PUSH2 0x3A7 JUMP JUMPDEST DUP3 PUSH0 SWAP1 DUP2 PUSH2 0x3F SWAP2 SWAP1 PUSH2 0x658 JUMP JUMPDEST POP DUP2 PUSH1 0x1 SWAP1 DUP2 PUSH2 0x4F SWAP2 SWAP1 PUSH2 0x658 JUMP JUMPDEST POP DUP1 PUSH1 0x2 SWAP1 DUP1 MLOAD SWAP1 PUSH1 0x20 ADD SWAP1 PUSH2 0x66 SWAP3 SWAP2 SWAP1 PUSH2 0x6F JUMP JUMPDEST POP POP POP POP PUSH2 0x727 JUMP JUMPDEST DUP3 DUP1 SLOAD DUP3 DUP3 SSTORE SWAP1 PUSH0 MSTORE PUSH1 0x20 PUSH0 KECCAK256 SWAP1 DUP2 ADD SWAP3 DUP3 ISZERO PUSH2 0xE5 JUMPI SWAP2 PUSH1 0x20 MUL DUP3 ADD JUMPDEST DUP3 DUP2 GT ISZERO PUSH2 0xE4 JUMPI DUP3 MLOAD DUP3 PUSH0 PUSH2 0x100 EXP DUP2 SLOAD DUP2 PUSH20 0xFFFFFFFFFFFFFFFFFFFFFFFFFFFFFFFFFFFFFFFF MUL NOT AND SWAP1 DUP4 PUSH20 0xFFFFFFFFFFFFFFFFFFFFFFFFFFFFFFFFFFFFFFFF AND MUL OR SWAP1 SSTORE POP SWAP2 PUSH1 0x20 ADD SWAP2 SWAP1 PUSH1 0x1 ADD SWAP1 PUSH2 0x8D JUMP JUMPDEST JUMPDEST POP SWAP1 POP PUSH2 0xF2 SWAP2 SWAP1 PUSH2 0xF6 JUMP JUMPDEST POP SWAP1 JUMP JUMPDEST JUMPDEST DUP1 DUP3 GT ISZERO PUSH2 0x10D JUMPI PUSH0 DUP2 PUSH0 SWAP1 SSTORE POP PUSH1 0x1 ADD PUSH2 0xF7 JUMP JUMPDEST POP SWAP1 JUMP JUMPDEST PUSH0 PUSH1 0x40 MLOAD SWAP1 POP SWAP1 JUMP JUMPDEST PUSH0 DUP1 REVERT JUMPDEST PUSH0 DUP1 REVERT JUMPDEST PUSH0 DUP1 REVERT JUMPDEST PUSH0 DUP1 REVERT JUMPDEST PUSH0 PUSH1 0x1F NOT PUSH1 0x1F DUP4 ADD AND SWAP1 POP SWAP2 SWAP1 POP JUMP JUMPDEST PUSH32 0x4E487B7100000000000000000000000000000000000000000000000000000000 PUSH0 MSTORE PUSH1 0x41 PUSH1 0x4 MSTORE PUSH1 0x24 PUSH0 REVERT JUMPDEST PUSH2 0x170 DUP3 PUSH2 0x12A JUMP JUMPDEST DUP2 ADD DUP2 DUP2 LT PUSH8 0xFFFFFFFFFFFFFFFF DUP3 GT OR ISZERO PUSH2 0x18F JUMPI PUSH2 0x18E PUSH2 0x13A JUMP JUMPDEST JUMPDEST DUP1 PUSH1 0x40 MSTORE POP POP POP JUMP JUMPDEST PUSH0 PUSH2 0x1A1 PUSH2 0x111 JUMP JUMPDEST SWAP1 POP PUSH2 0x1AD DUP3 DUP3 PUSH2 0x167 JUMP JUMPDEST SWAP2 SWAP1 POP JUMP JUMPDEST PUSH0 PUSH8 0xFFFFFFFFFFFFFFFF DUP3 GT ISZERO PUSH2 0x1CC JUMPI PUSH2 0x1CB PUSH2 0x13A JUMP JUMPDEST JUMPDEST PUSH2 0x1D5 DUP3 PUSH2 0x12A JUMP JUMPDEST SWAP1 POP PUSH1 0x20 DUP2 ADD SWAP1 POP SWAP2 SWAP1 POP JUMP JUMPDEST PUSH0 JUMPDEST DUP4 DUP2 LT ISZERO PUSH2 0x1FF JUMPI DUP1 DUP3 ADD MLOAD DUP2 DUP5 ADD MSTORE PUSH1 0x20 DUP2 ADD SWAP1 POP PUSH2 0x1E4 JUMP JUMPDEST PUSH0 DUP5 DUP5 ADD MSTORE POP POP POP POP JUMP JUMPDEST PUSH0 PUSH2 0x21C PUSH2 0x217 DUP5 PUSH2 0x1B2 JUMP JUMPDEST PUSH2 0x198 JUMP JUMPDEST SWAP1 POP DUP3 DUP2 MSTORE PUSH1 0x20 DUP2 ADD DUP5 DUP5 DUP5 ADD GT ISZERO PUSH2 0x238 JUMPI PUSH2 0x237 PUSH2 0x126 JUMP JUMPDEST JUMPDEST PUSH2 0x243 DUP5 DUP3 DUP6 PUSH2 0x1E2 JUMP JUMPDEST POP SWAP4 SWAP3 POP POP POP JUMP JUMPDEST PUSH0 DUP3 PUSH1 0x1F DUP4 ADD SLT PUSH2 0x25F JUMPI PUSH2 0x25E PUSH2 0x122 JUMP JUMPDEST JUMPDEST DUP2 MLOAD PUSH2 0x26F DUP5 DUP3 PUSH1 0x20 DUP7 ADD PUSH2 0x20A JUMP JUMPDEST SWAP2 POP POP SWAP3 SWAP2 POP POP JUMP JUMPDEST PUSH0 PUSH8 0xFFFFFFFFFFFFFFFF DUP3 GT ISZERO PUSH2 0x292 JUMPI PUSH2 0x291 PUSH2 0x13A JUMP JUMPDEST JUMPDEST PUSH1 0x20 DUP3 MUL SWAP1 POP PUSH1 0x20 DUP2 ADD SWAP1 POP SWAP2 SWAP1 POP JUMP JUMPDEST PUSH0 DUP1 REVERT JUMPDEST PUSH0 PUSH20 0xFFFFFFFFFFFFFFFFFFFFFFFFFFFFFFFFFFFFFFFF DUP3 AND SWAP1 POP SWAP2 SWAP1 POP JUMP JUMPDEST PUSH0 PUSH2 0x2D0 DUP3 PUSH2 0x2A7 JUMP JUMPDEST SWAP1 POP SWAP2 SWAP1 POP JUMP JUMPDEST PUSH0 PUSH2 0x2E1 DUP3 PUSH2 0x2C6 JUMP JUMPDEST SWAP1 POP SWAP2 SWAP1 POP JUMP JUMPDEST PUSH2 0x2F1 DUP2 PUSH2 0x2D7 JUMP JUMPDEST DUP2 EQ PUSH2 0x2FB JUMPI PUSH0 DUP1 REVERT JUMPDEST POP JUMP JUMPDEST PUSH0 DUP2 MLOAD SWAP1 POP PUSH2 0x30C DUP2 PUSH2 0x2E8 JUMP JUMPDEST SWAP3 SWAP2 POP POP JUMP JUMPDEST PUSH0 PUSH2 0x324 PUSH2 0x31F DUP5 PUSH2 0x278 JUMP JUMPDEST PUSH2 0x198 JUMP JUMPDEST SWAP1 POP DUP1 DUP4 DUP3 MSTORE PUSH1 0x20 DUP3 ADD SWAP1 POP PUSH1 0x20 DUP5 MUL DUP4 ADD DUP6 DUP2 GT ISZERO PUSH2 0x347 JUMPI PUSH2 0x346 PUSH2 0x2A3 JUMP JUMPDEST JUMPDEST DUP4 JUMPDEST DUP2 DUP2 LT ISZERO PUSH2 0x370 JUMPI DUP1 PUSH2 0x35C DUP9 DUP3 PUSH2 0x2FE JUMP JUMPDEST DUP5 MSTORE PUSH1 0x20 DUP5 ADD SWAP4 POP POP PUSH1 0x20 DUP2 ADD SWAP1 POP PUSH2 0x349 JUMP JUMPDEST POP POP POP SWAP4 SWAP3 POP POP POP JUMP JUMPDEST PUSH0 DUP3 PUSH1 0x1F DUP4 ADD SLT PUSH2 0x38E JUMPI PUSH2 0x38D PUSH2 0x122 JUMP JUMPDEST JUMPDEST DUP2 MLOAD PUSH2 0x39E DUP5 DUP3 PUSH1 0x20 DUP7 ADD PUSH2 0x312 JUMP JUMPDEST SWAP2 POP POP SWAP3 SWAP2 POP POP JUMP JUMPDEST PUSH0 DUP1 PUSH0 PUSH1 0x60 DUP5 DUP7 SUB SLT ISZERO PUSH2 0x3BE JUMPI PUSH2 0x3BD PUSH2 0x11A JUMP JUMPDEST JUMPDEST PUSH0 DUP5 ADD MLOAD PUSH8 0xFFFFFFFFFFFFFFFF DUP2 GT ISZERO PUSH2 0x3DB JUMPI PUSH2 0x3DA PUSH2 0x11E JUMP JUMPDEST JUMPDEST PUSH2 0x3E7 DUP7 DUP3 DUP8 ADD PUSH2 0x24B JUMP JUMPDEST SWAP4 POP POP PUSH1 0x20 DUP5 ADD MLOAD PUSH8 0xFFFFFFFFFFFFFFFF DUP2 GT ISZERO PUSH2 0x408 JUMPI PUSH2 0x407 PUSH2 0x11E JUMP JUMPDEST JUMPDEST PUSH2 0x414 DUP7 DUP3 DUP8 ADD PUSH2 0x24B JUMP JUMPDEST SWAP3 POP POP PUSH1 0x40 DUP5 ADD MLOAD PUSH8 0xFFFFFFFFFFFFFFFF DUP2 GT ISZERO PUSH2 0x435 JUMPI PUSH2 0x434 PUSH2 0x11E JUMP JUMPDEST JUMPDEST PUSH2 0x441 DUP7 DUP3 DUP8 ADD PUSH2 0x37A JUMP JUMPDEST SWAP2 POP POP SWAP3 POP SWAP3 POP SWAP3 JUMP JUMPDEST PUSH0 DUP2 MLOAD SWAP1 POP SWAP2 SWAP1 POP JUMP JUMPDEST PUSH32 0x4E487B7100000000000000000000000000000000000000000000000000000000 PUSH0 MSTORE PUSH1 0x22 PUSH1 0x4 MSTORE PUSH1 0x24 PUSH0 REVERT JUMPDEST PUSH0 PUSH1 0x2 DUP3 DIV SWAP1 POP PUSH1 0x1 DUP3 AND DUP1 PUSH2 0x499 JUMPI PUSH1 0x7F DUP3 AND SWAP2 POP JUMPDEST PUSH1 0x20 DUP3 LT DUP2 SUB PUSH2 0x4AC JUMPI PUSH2 0x4AB PUSH2 0x455 JUMP JUMPDEST JUMPDEST POP SWAP2 SWAP1 POP JUMP JUMPDEST PUSH0 DUP2 SWAP1 POP DUP2 PUSH0 MSTORE PUSH1 0x20 PUSH0 KECCAK256 SWAP1 POP SWAP2 SWAP1 POP JUMP JUMPDEST PUSH0 PUSH1 0x20 PUSH1 0x1F DUP4 ADD DIV SWAP1 POP SWAP2 SWAP1 POP JUMP JUMPDEST PUSH0 DUP3 DUP3 SHL SWAP1 POP SWAP3 SWAP2 POP POP JUMP JUMPDEST PUSH0 PUSH1 0x8 DUP4 MUL PUSH2 0x50E PUSH32 0xFFFFFFFFFFFFFFFFFFFFFFFFFFFFFFFFFFFFFFFFFFFFFFFFFFFFFFFFFFFFFFFF DUP3 PUSH2 0x4D3 JUMP JUMPDEST PUSH2 0x518 DUP7 DUP4 PUSH2 0x4D3 JUMP JUMPDEST SWAP6 POP DUP1 NOT DUP5 AND SWAP4 POP DUP1 DUP7 AND DUP5 OR SWAP3 POP POP POP SWAP4 SWAP3 POP POP POP JUMP JUMPDEST PUSH0 DUP2 SWAP1 POP SWAP2 SWAP1 POP JUMP JUMPDEST PUSH0 DUP2 SWAP1 POP SWAP2 SWAP1 POP JUMP JUMPDEST PUSH0 PUSH2 0x55C PUSH2 0x557 PUSH2 0x552 DUP5 PUSH2 0x530 JUMP JUMPDEST PUSH2 0x539 JUMP JUMPDEST PUSH2 0x530 JUMP JUMPDEST SWAP1 POP SWAP2 SWAP1 POP JUMP JUMPDEST PUSH0 DUP2 SWAP1 POP SWAP2 SWAP1 POP JUMP JUMPDEST PUSH2 0x575 DUP4 PUSH2 0x542 JUMP JUMPDEST PUSH2 0x589 PUSH2 0x581 DUP3 PUSH2 0x563 JUMP JUMPDEST DUP5 DUP5 SLOAD PUSH2 0x4DF JUMP JUMPDEST DUP3 SSTORE POP POP POP POP JUMP JUMPDEST PUSH0 SWAP1 JUMP JUMPDEST PUSH2 0x59D PUSH2 0x591 JUMP JUMPDEST PUSH2 0x5A8 DUP2 DUP5 DUP5 PUSH2 0x56C JUMP JUMPDEST POP POP POP JUMP JUMPDEST JUMPDEST DUP2 DUP2 LT ISZERO PUSH2 0x5CB JUMPI PUSH2 0x5C0 PUSH0 DUP3 PUSH2 0x595 JUMP JUMPDEST PUSH1 0x1 DUP2 ADD SWAP1 POP PUSH2 0x5AE JUMP JUMPDEST POP POP JUMP JUMPDEST PUSH1 0x1F DUP3 GT ISZERO PUSH2 0x610 JUMPI PUSH2 0x5E1 DUP2 PUSH2 0x4B2 JUMP JUMPDEST PUSH2 0x5EA DUP5 PUSH2 0x4C4 JUMP JUMPDEST DUP2 ADD PUSH1 0x20 DUP6 LT ISZERO PUSH2 0x5F9 JUMPI DUP2 SWAP1 POP JUMPDEST PUSH2 0x60D PUSH2 0x605 DUP6 PUSH2 0x4C4 JUMP JUMPDEST DUP4 ADD DUP3 PUSH2 0x5AD JUMP JUMPDEST POP POP JUMPDEST POP POP POP JUMP JUMPDEST PUSH0 DUP3 DUP3 SHR SWAP1 POP SWAP3 SWAP2 POP POP JUMP JUMPDEST PUSH0 PUSH2 0x630 PUSH0 NOT DUP5 PUSH1 0x8 MUL PUSH2 0x615 JUMP JUMPDEST NOT DUP1 DUP4 AND SWAP2 POP POP SWAP3 SWAP2 POP POP JUMP JUMPDEST PUSH0 PUSH2 0x648 DUP4 DUP4 PUSH2 0x621 JUMP JUMPDEST SWAP2 POP DUP3 PUSH1 0x2 MUL DUP3 OR SWAP1 POP SWAP3 SWAP2 POP POP JUMP JUMPDEST PUSH2 0x661 DUP3 PUSH2 0x44B JUMP JUMPDEST PUSH8 0xFFFFFFFFFFFFFFFF DUP2 GT ISZERO PUSH2 0x67A JUMPI PUSH2 0x679 PUSH2 0x13A JUMP JUMPDEST JUMPDEST PUSH2 0x684 DUP3 SLOAD PUSH2 0x482 JUMP JUMPDEST PUSH2 0x68F DUP3 DUP3 DUP6 PUSH2 0x5CF JUMP JUMPDEST PUSH0 PUSH1 0x20 SWAP1 POP PUSH1 0x1F DUP4 GT PUSH1 0x1 DUP2 EQ PUSH2 0x6C0 JUMPI PUSH0 DUP5 ISZERO PUSH2 0x6AE JUMPI DUP3 DUP8 ADD MLOAD SWAP1 POP JUMPDEST PUSH2 0x6B8 DUP6 DUP3 PUSH2 0x63D JUMP JUMPDEST DUP7 SSTORE POP PUSH2 0x71F JUMP JUMPDEST PUSH1 0x1F NOT DUP5 AND PUSH2 0x6CE DUP7 PUSH2 0x4B2 JUMP JUMPDEST PUSH0 JUMPDEST DUP3 DUP2 LT ISZERO PUSH2 0x6F5 JUMPI DUP5 DUP10 ADD MLOAD DUP3 SSTORE PUSH1 0x1 DUP3 ADD SWAP2 POP PUSH1 0x20 DUP6 ADD SWAP5 POP PUSH1 0x20 DUP2 ADD SWAP1 POP PUSH2 0x6D0 JUMP JUMPDEST DUP7 DUP4 LT ISZERO PUSH2 0x712 JUMPI DUP5 DUP10 ADD MLOAD PUSH2 0x70E PUSH1 0x1F DUP10 AND DUP3 PUSH2 0x621 JUMP JUMPDEST DUP4 SSTORE POP JUMPDEST PUSH1 0x1 PUSH1 0x2 DUP9 MUL ADD DUP9 SSTORE POP POP POP JUMPDEST POP POP POP POP POP POP JUMP JUMPDEST PUSH1 0x3E DUP1 PUSH2 0x733 PUSH0 CODECOPY PUSH0 RETURN INVALID PUSH1 0x80 PUSH1 0x40 MSTORE PUSH0 DUP1 REVERT INVALID LOG2 PUSH5 0x6970667358 0x22 SLT KECCAK256 SWAP6 PUSH11 0x7E1422EE66CA2C1B760E1B 0xCE EQ DUP16 0xC9 DUP9 0xE3 PUSH8 0xBC07C0A0FEA07BB3 0xC8 SAR SWAP11 0x4E PUSH5 0x736F6C6343 STOP ADDMOD EQ STOP CALLER LOG2 PUSH5 0x6970667358 0x22 SLT KECCAK256 LOG3 0xEE DUP5 PUSH10 0x6E3EE1FA5C3FDEED245E 0xB5 0xFC EXTCODECOPY PUSH17 0x5B423FDADB928B0A6A1D1F4097FC64736F PUSH13 0x63430008140033000000000000 "
				},
				"gasEstimates": {
					"creation": {
						"codeDepositCost": "801600",
						"executionCost": "836",
						"totalCost": "802436"
					},
					"external": {
						"createBigPicture(string,string,address[])": "infinite",
						"getAllBigPictures()": "infinite"
					}
				},
				"methodIdentifiers": {
					"createBigPicture(string,string,address[])": "73292fe8",
					"getAllBigPictures()": "4eef150d"
				}
			},
			"storageLayout": {
				"storage": [
					{
						"astId": 43,
						"contract": "BigPictureFactory.sol:BigPictureFactory",
						"label": "allBigPictures",
						"offset": 0,
						"slot": "0",
						"type": "t_array(t_contract(BigPicture)35)dyn_storage"
					}
				],
				"types": {
					"t_array(t_contract(BigPicture)35)dyn_storage": {
						"base": "t_contract(BigPicture)35",
						"encoding": "dynamic_array",
						"label": "contract BigPicture[]",
						"numberOfBytes": "32"
					},
					"t_contract(BigPicture)35": {
						"encoding": "inplace",
						"label": "contract BigPicture",
						"numberOfBytes": "20"
					}
				}
			},
			"userdoc": {
				"kind": "user",
				"methods": {},
				"version": 1
			}
		}
	}
}