{
	"PictureFactory.sol": {
		"BigPictureFactory": {
			"abi": [
				{
					"inputs": [
						{
							"internalType": "string",
							"name": "_name",
							"type": "string"
						},
						{
							"internalType": "string",
							"name": "_image",
							"type": "string"
						}
					],
					"name": "createBigPicture",
					"outputs": [],
					"stateMutability": "nonpayable",
					"type": "function"
				},
				{
					"inputs": [],
					"name": "getDeployedBigPictures",
					"outputs": [
						{
							"internalType": "contract BigPicture[]",
							"name": "",
							"type": "address[]"
						}
					],
					"stateMutability": "view",
					"type": "function"
				}
			],
			"devdoc": {
				"kind": "dev",
				"methods": {},
				"version": 1
			},
			"evm": {
				"assembly": "    /* \"PictureFactory.sol\":91:569  contract BigPictureFactory {... */\n  mstore(0x40, 0x80)\n  callvalue\n  dup1\n  iszero\n  tag_1\n  jumpi\n  0x00\n  dup1\n  revert\ntag_1:\n  pop\n  dataSize(sub_0)\n  dup1\n  dataOffset(sub_0)\n  0x00\n  codecopy\n  0x00\n  return\nstop\n\nsub_0: assembly {\n        /* \"PictureFactory.sol\":91:569  contract BigPictureFactory {... */\n      mstore(0x40, 0x80)\n      callvalue\n      dup1\n      iszero\n      tag_1\n      jumpi\n      0x00\n      dup1\n      revert\n    tag_1:\n      pop\n      jumpi(tag_2, lt(calldatasize, 0x04))\n      shr(0xe0, calldataload(0x00))\n      dup1\n      0x142defed\n      eq\n      tag_3\n      jumpi\n      dup1\n      0x7b4dd5e0\n      eq\n      tag_4\n      jumpi\n    tag_2:\n      0x00\n      dup1\n      revert\n        /* \"PictureFactory.sol\":445:566  function getDeployedBigPictures() public view returns (BigPicture[] memory) {... */\n    tag_3:\n      tag_5\n      tag_6\n      jump\t// in\n    tag_5:\n      mload(0x40)\n      tag_7\n      swap2\n      swap1\n      tag_8\n      jump\t// in\n    tag_7:\n      mload(0x40)\n      dup1\n      swap2\n      sub\n      swap1\n      return\n        /* \"PictureFactory.sol\":174:437  function createBigPicture(... */\n    tag_4:\n      tag_9\n      0x04\n      dup1\n      calldatasize\n      sub\n      dup2\n      add\n      swap1\n      tag_10\n      swap2\n      swap1\n      tag_11\n      jump\t// in\n    tag_10:\n      tag_12\n      jump\t// in\n    tag_9:\n      stop\n        /* \"PictureFactory.sol\":445:566  function getDeployedBigPictures() public view returns (BigPicture[] memory) {... */\n    tag_6:\n        /* \"PictureFactory.sol\":500:519  BigPicture[] memory */\n      0x60\n        /* \"PictureFactory.sol\":539:558  deployedBigPictures */\n      0x00\n        /* \"PictureFactory.sol\":532:558  return deployedBigPictures */\n      dup1\n      sload\n      dup1\n      0x20\n      mul\n      0x20\n      add\n      mload(0x40)\n      swap1\n      dup2\n      add\n      0x40\n      mstore\n      dup1\n      swap3\n      swap2\n      swap1\n      dup2\n      dup2\n      mstore\n      0x20\n      add\n      dup3\n      dup1\n      sload\n      dup1\n      iszero\n      tag_14\n      jumpi\n      0x20\n      mul\n      dup3\n      add\n      swap2\n      swap1\n      0x00\n      mstore\n      keccak256(0x00, 0x20)\n      swap1\n    tag_15:\n      dup2\n      0x00\n      swap1\n      sload\n      swap1\n      0x0100\n      exp\n      swap1\n      div\n      0xffffffffffffffffffffffffffffffffffffffff\n      and\n      0xffffffffffffffffffffffffffffffffffffffff\n      and\n      dup2\n      mstore\n      0x20\n      add\n      swap1\n      0x01\n      add\n      swap1\n      dup1\n      dup4\n      gt\n      tag_15\n      jumpi\n    tag_14:\n      pop\n      pop\n      pop\n      pop\n      pop\n      swap1\n      pop\n        /* \"PictureFactory.sol\":445:566  function getDeployedBigPictures() public view returns (BigPicture[] memory) {... */\n      swap1\n      jump\t// out\n        /* \"PictureFactory.sol\":174:437  function createBigPicture(... */\n    tag_12:\n        /* \"PictureFactory.sol\":286:310  BigPicture newBigPicture */\n      0x00\n        /* \"PictureFactory.sol\":342:347  _name */\n      dup3\n        /* \"PictureFactory.sol\":362:368  _image */\n      dup3\n        /* \"PictureFactory.sol\":313:379  new BigPicture(... */\n      mload(0x40)\n      tag_17\n      swap1\n      tag_18\n      jump\t// in\n    tag_17:\n      tag_19\n      swap3\n      swap2\n      swap1\n      tag_20\n      jump\t// in\n    tag_19:\n      mload(0x40)\n      dup1\n      swap2\n      sub\n      swap1\n      0x00\n      create\n      dup1\n      iszero\n      dup1\n      iszero\n      tag_21\n      jumpi\n      returndatasize\n      0x00\n      dup1\n      returndatacopy\n      revert(0x00, returndatasize)\n    tag_21:\n      pop\n        /* \"PictureFactory.sol\":286:379  BigPicture newBigPicture = new BigPicture(... */\n      swap1\n      pop\n        /* \"PictureFactory.sol\":390:409  deployedBigPictures */\n      0x00\n        /* \"PictureFactory.sol\":415:428  newBigPicture */\n      dup2\n        /* \"PictureFactory.sol\":390:429  deployedBigPictures.push(newBigPicture) */\n      swap1\n      dup1\n      0x01\n      dup2\n      sload\n      add\n      dup1\n      dup3\n      sstore\n      dup1\n      swap2\n      pop\n      pop\n      0x01\n      swap1\n      sub\n      swap1\n      0x00\n      mstore\n      keccak256(0x00, 0x20)\n      add\n      0x00\n      swap1\n      swap2\n      swap1\n      swap2\n      swap1\n      swap2\n      0x0100\n      exp\n      dup2\n      sload\n      dup2\n      0xffffffffffffffffffffffffffffffffffffffff\n      mul\n      not\n      and\n      swap1\n      dup4\n      0xffffffffffffffffffffffffffffffffffffffff\n      and\n      mul\n      or\n      swap1\n      sstore\n      pop\n        /* \"PictureFactory.sol\":275:437  {... */\n      pop\n        /* \"PictureFactory.sol\":174:437  function createBigPicture(... */\n      pop\n      pop\n      jump\t// out\n    tag_18:\n      dataSize(sub_0)\n      dup1\n      dataOffset(sub_0)\n      dup4\n      codecopy\n      add\n      swap1\n      jump\t// out\n        /* \"#utility.yul\":7:138   */\n    tag_23:\n        /* \"#utility.yul\":91:97   */\n      0x00\n        /* \"#utility.yul\":125:130   */\n      dup2\n        /* \"#utility.yul\":119:131   */\n      mload\n        /* \"#utility.yul\":109:131   */\n      swap1\n      pop\n        /* \"#utility.yul\":7:138   */\n      swap2\n      swap1\n      pop\n      jump\t// out\n        /* \"#utility.yul\":144:328   */\n    tag_24:\n        /* \"#utility.yul\":243:254   */\n      0x00\n        /* \"#utility.yul\":277:283   */\n      dup3\n        /* \"#utility.yul\":272:275   */\n      dup3\n        /* \"#utility.yul\":265:284   */\n      mstore\n        /* \"#utility.yul\":317:321   */\n      0x20\n        /* \"#utility.yul\":312:315   */\n      dup3\n        /* \"#utility.yul\":308:322   */\n      add\n        /* \"#utility.yul\":293:322   */\n      swap1\n      pop\n        /* \"#utility.yul\":144:328   */\n      swap3\n      swap2\n      pop\n      pop\n      jump\t// out\n        /* \"#utility.yul\":334:483   */\n    tag_25:\n        /* \"#utility.yul\":418:422   */\n      0x00\n        /* \"#utility.yul\":441:444   */\n      dup2\n        /* \"#utility.yul\":433:444   */\n      swap1\n      pop\n        /* \"#utility.yul\":471:475   */\n      0x20\n        /* \"#utility.yul\":466:469   */\n      dup3\n        /* \"#utility.yul\":462:476   */\n      add\n        /* \"#utility.yul\":454:476   */\n      swap1\n      pop\n        /* \"#utility.yul\":334:483   */\n      swap2\n      swap1\n      pop\n      jump\t// out\n        /* \"#utility.yul\":489:615   */\n    tag_26:\n        /* \"#utility.yul\":526:533   */\n      0x00\n        /* \"#utility.yul\":566:608   */\n      0xffffffffffffffffffffffffffffffffffffffff\n        /* \"#utility.yul\":559:564   */\n      dup3\n        /* \"#utility.yul\":555:609   */\n      and\n        /* \"#utility.yul\":544:609   */\n      swap1\n      pop\n        /* \"#utility.yul\":489:615   */\n      swap2\n      swap1\n      pop\n      jump\t// out\n        /* \"#utility.yul\":621:681   */\n    tag_27:\n        /* \"#utility.yul\":649:652   */\n      0x00\n        /* \"#utility.yul\":670:675   */\n      dup2\n        /* \"#utility.yul\":663:675   */\n      swap1\n      pop\n        /* \"#utility.yul\":621:681   */\n      swap2\n      swap1\n      pop\n      jump\t// out\n        /* \"#utility.yul\":687:829   */\n    tag_28:\n        /* \"#utility.yul\":737:746   */\n      0x00\n        /* \"#utility.yul\":770:823   */\n      tag_59\n        /* \"#utility.yul\":788:822   */\n      tag_60\n        /* \"#utility.yul\":797:821   */\n      tag_61\n        /* \"#utility.yul\":815:820   */\n      dup5\n        /* \"#utility.yul\":797:821   */\n      tag_26\n      jump\t// in\n    tag_61:\n        /* \"#utility.yul\":788:822   */\n      tag_27\n      jump\t// in\n    tag_60:\n        /* \"#utility.yul\":770:823   */\n      tag_26\n      jump\t// in\n    tag_59:\n        /* \"#utility.yul\":757:823   */\n      swap1\n      pop\n        /* \"#utility.yul\":687:829   */\n      swap2\n      swap1\n      pop\n      jump\t// out\n        /* \"#utility.yul\":835:961   */\n    tag_29:\n        /* \"#utility.yul\":885:894   */\n      0x00\n        /* \"#utility.yul\":918:955   */\n      tag_63\n        /* \"#utility.yul\":949:954   */\n      dup3\n        /* \"#utility.yul\":918:955   */\n      tag_28\n      jump\t// in\n    tag_63:\n        /* \"#utility.yul\":905:955   */\n      swap1\n      pop\n        /* \"#utility.yul\":835:961   */\n      swap2\n      swap1\n      pop\n      jump\t// out\n        /* \"#utility.yul\":967:1110   */\n    tag_30:\n        /* \"#utility.yul\":1034:1043   */\n      0x00\n        /* \"#utility.yul\":1067:1104   */\n      tag_65\n        /* \"#utility.yul\":1098:1103   */\n      dup3\n        /* \"#utility.yul\":1067:1104   */\n      tag_29\n      jump\t// in\n    tag_65:\n        /* \"#utility.yul\":1054:1104   */\n      swap1\n      pop\n        /* \"#utility.yul\":967:1110   */\n      swap2\n      swap1\n      pop\n      jump\t// out\n        /* \"#utility.yul\":1116:1271   */\n    tag_31:\n        /* \"#utility.yul\":1210:1264   */\n      tag_67\n        /* \"#utility.yul\":1258:1263   */\n      dup2\n        /* \"#utility.yul\":1210:1264   */\n      tag_30\n      jump\t// in\n    tag_67:\n        /* \"#utility.yul\":1205:1208   */\n      dup3\n        /* \"#utility.yul\":1198:1265   */\n      mstore\n        /* \"#utility.yul\":1116:1271   */\n      pop\n      pop\n      jump\t// out\n        /* \"#utility.yul\":1277:1490   */\n    tag_32:\n        /* \"#utility.yul\":1363:1373   */\n      0x00\n        /* \"#utility.yul\":1384:1447   */\n      tag_69\n        /* \"#utility.yul\":1443:1446   */\n      dup4\n        /* \"#utility.yul\":1435:1441   */\n      dup4\n        /* \"#utility.yul\":1384:1447   */\n      tag_31\n      jump\t// in\n    tag_69:\n        /* \"#utility.yul\":1479:1483   */\n      0x20\n        /* \"#utility.yul\":1474:1477   */\n      dup4\n        /* \"#utility.yul\":1470:1484   */\n      add\n        /* \"#utility.yul\":1456:1484   */\n      swap1\n      pop\n        /* \"#utility.yul\":1277:1490   */\n      swap3\n      swap2\n      pop\n      pop\n      jump\t// out\n        /* \"#utility.yul\":1496:1626   */\n    tag_33:\n        /* \"#utility.yul\":1583:1587   */\n      0x00\n        /* \"#utility.yul\":1615:1619   */\n      0x20\n        /* \"#utility.yul\":1610:1613   */\n      dup3\n        /* \"#utility.yul\":1606:1620   */\n      add\n        /* \"#utility.yul\":1598:1620   */\n      swap1\n      pop\n        /* \"#utility.yul\":1496:1626   */\n      swap2\n      swap1\n      pop\n      jump\t// out\n        /* \"#utility.yul\":1674:2491   */\n    tag_34:\n        /* \"#utility.yul\":1810:1813   */\n      0x00\n        /* \"#utility.yul\":1839:1910   */\n      tag_72\n        /* \"#utility.yul\":1904:1909   */\n      dup3\n        /* \"#utility.yul\":1839:1910   */\n      tag_23\n      jump\t// in\n    tag_72:\n        /* \"#utility.yul\":1926:2012   */\n      tag_73\n        /* \"#utility.yul\":2005:2011   */\n      dup2\n        /* \"#utility.yul\":2000:2003   */\n      dup6\n        /* \"#utility.yul\":1926:2012   */\n      tag_24\n      jump\t// in\n    tag_73:\n        /* \"#utility.yul\":1919:2012   */\n      swap4\n      pop\n        /* \"#utility.yul\":2036:2109   */\n      tag_74\n        /* \"#utility.yul\":2103:2108   */\n      dup4\n        /* \"#utility.yul\":2036:2109   */\n      tag_25\n      jump\t// in\n    tag_74:\n        /* \"#utility.yul\":2132:2139   */\n      dup1\n        /* \"#utility.yul\":2163:2164   */\n      0x00\n        /* \"#utility.yul\":2148:2466   */\n    tag_75:\n        /* \"#utility.yul\":2173:2179   */\n      dup4\n        /* \"#utility.yul\":2170:2171   */\n      dup2\n        /* \"#utility.yul\":2167:2180   */\n      lt\n        /* \"#utility.yul\":2148:2466   */\n      iszero\n      tag_77\n      jumpi\n        /* \"#utility.yul\":2249:2255   */\n      dup2\n        /* \"#utility.yul\":2243:2256   */\n      mload\n        /* \"#utility.yul\":2276:2356   */\n      tag_78\n        /* \"#utility.yul\":2352:2355   */\n      dup9\n        /* \"#utility.yul\":2337:2350   */\n      dup3\n        /* \"#utility.yul\":2276:2356   */\n      tag_32\n      jump\t// in\n    tag_78:\n        /* \"#utility.yul\":2269:2356   */\n      swap8\n      pop\n        /* \"#utility.yul\":2379:2456   */\n      tag_79\n        /* \"#utility.yul\":2449:2455   */\n      dup4\n        /* \"#utility.yul\":2379:2456   */\n      tag_33\n      jump\t// in\n    tag_79:\n        /* \"#utility.yul\":2369:2456   */\n      swap3\n      pop\n        /* \"#utility.yul\":2208:2466   */\n      pop\n        /* \"#utility.yul\":2195:2196   */\n      0x01\n        /* \"#utility.yul\":2192:2193   */\n      dup2\n        /* \"#utility.yul\":2188:2197   */\n      add\n        /* \"#utility.yul\":2183:2197   */\n      swap1\n      pop\n        /* \"#utility.yul\":2148:2466   */\n      jump(tag_75)\n    tag_77:\n        /* \"#utility.yul\":2152:2166   */\n      pop\n        /* \"#utility.yul\":2482:2485   */\n      dup6\n        /* \"#utility.yul\":2475:2485   */\n      swap4\n      pop\n        /* \"#utility.yul\":1815:2491   */\n      pop\n      pop\n      pop\n        /* \"#utility.yul\":1674:2491   */\n      swap3\n      swap2\n      pop\n      pop\n      jump\t// out\n        /* \"#utility.yul\":2497:2904   */\n    tag_8:\n        /* \"#utility.yul\":2657:2661   */\n      0x00\n        /* \"#utility.yul\":2695:2697   */\n      0x20\n        /* \"#utility.yul\":2684:2693   */\n      dup3\n        /* \"#utility.yul\":2680:2698   */\n      add\n        /* \"#utility.yul\":2672:2698   */\n      swap1\n      pop\n        /* \"#utility.yul\":2744:2753   */\n      dup2\n        /* \"#utility.yul\":2738:2742   */\n      dup2\n        /* \"#utility.yul\":2734:2754   */\n      sub\n        /* \"#utility.yul\":2730:2731   */\n      0x00\n        /* \"#utility.yul\":2719:2728   */\n      dup4\n        /* \"#utility.yul\":2715:2732   */\n      add\n        /* \"#utility.yul\":2708:2755   */\n      mstore\n        /* \"#utility.yul\":2772:2897   */\n      tag_81\n        /* \"#utility.yul\":2892:2896   */\n      dup2\n        /* \"#utility.yul\":2883:2889   */\n      dup5\n        /* \"#utility.yul\":2772:2897   */\n      tag_34\n      jump\t// in\n    tag_81:\n        /* \"#utility.yul\":2764:2897   */\n      swap1\n      pop\n        /* \"#utility.yul\":2497:2904   */\n      swap3\n      swap2\n      pop\n      pop\n      jump\t// out\n        /* \"#utility.yul\":2910:2985   */\n    tag_35:\n        /* \"#utility.yul\":2943:2949   */\n      0x00\n        /* \"#utility.yul\":2976:2978   */\n      0x40\n        /* \"#utility.yul\":2970:2979   */\n      mload\n        /* \"#utility.yul\":2960:2979   */\n      swap1\n      pop\n        /* \"#utility.yul\":2910:2985   */\n      swap1\n      jump\t// out\n        /* \"#utility.yul\":2991:3108   */\n    tag_36:\n        /* \"#utility.yul\":3100:3101   */\n      0x00\n        /* \"#utility.yul\":3097:3098   */\n      dup1\n        /* \"#utility.yul\":3090:3102   */\n      revert\n        /* \"#utility.yul\":3114:3231   */\n    tag_37:\n        /* \"#utility.yul\":3223:3224   */\n      0x00\n        /* \"#utility.yul\":3220:3221   */\n      dup1\n        /* \"#utility.yul\":3213:3225   */\n      revert\n        /* \"#utility.yul\":3237:3354   */\n    tag_38:\n        /* \"#utility.yul\":3346:3347   */\n      0x00\n        /* \"#utility.yul\":3343:3344   */\n      dup1\n        /* \"#utility.yul\":3336:3348   */\n      revert\n        /* \"#utility.yul\":3360:3477   */\n    tag_39:\n        /* \"#utility.yul\":3469:3470   */\n      0x00\n        /* \"#utility.yul\":3466:3467   */\n      dup1\n        /* \"#utility.yul\":3459:3471   */\n      revert\n        /* \"#utility.yul\":3483:3585   */\n    tag_40:\n        /* \"#utility.yul\":3524:3530   */\n      0x00\n        /* \"#utility.yul\":3575:3577   */\n      0x1f\n        /* \"#utility.yul\":3571:3578   */\n      not\n        /* \"#utility.yul\":3566:3568   */\n      0x1f\n        /* \"#utility.yul\":3559:3564   */\n      dup4\n        /* \"#utility.yul\":3555:3569   */\n      add\n        /* \"#utility.yul\":3551:3579   */\n      and\n        /* \"#utility.yul\":3541:3579   */\n      swap1\n      pop\n        /* \"#utility.yul\":3483:3585   */\n      swap2\n      swap1\n      pop\n      jump\t// out\n        /* \"#utility.yul\":3591:3771   */\n    tag_41:\n        /* \"#utility.yul\":3639:3716   */\n      0x4e487b7100000000000000000000000000000000000000000000000000000000\n        /* \"#utility.yul\":3636:3637   */\n      0x00\n        /* \"#utility.yul\":3629:3717   */\n      mstore\n        /* \"#utility.yul\":3736:3740   */\n      0x41\n        /* \"#utility.yul\":3733:3734   */\n      0x04\n        /* \"#utility.yul\":3726:3741   */\n      mstore\n        /* \"#utility.yul\":3760:3764   */\n      0x24\n        /* \"#utility.yul\":3757:3758   */\n      0x00\n        /* \"#utility.yul\":3750:3765   */\n      revert\n        /* \"#utility.yul\":3777:4058   */\n    tag_42:\n        /* \"#utility.yul\":3860:3887   */\n      tag_90\n        /* \"#utility.yul\":3882:3886   */\n      dup3\n        /* \"#utility.yul\":3860:3887   */\n      tag_40\n      jump\t// in\n    tag_90:\n        /* \"#utility.yul\":3852:3858   */\n      dup2\n        /* \"#utility.yul\":3848:3888   */\n      add\n        /* \"#utility.yul\":3990:3996   */\n      dup2\n        /* \"#utility.yul\":3978:3988   */\n      dup2\n        /* \"#utility.yul\":3975:3997   */\n      lt\n        /* \"#utility.yul\":3954:3972   */\n      0xffffffffffffffff\n        /* \"#utility.yul\":3942:3952   */\n      dup3\n        /* \"#utility.yul\":3939:3973   */\n      gt\n        /* \"#utility.yul\":3936:3998   */\n      or\n        /* \"#utility.yul\":3933:4021   */\n      iszero\n      tag_91\n      jumpi\n        /* \"#utility.yul\":4001:4019   */\n      tag_92\n      tag_41\n      jump\t// in\n    tag_92:\n        /* \"#utility.yul\":3933:4021   */\n    tag_91:\n        /* \"#utility.yul\":4041:4051   */\n      dup1\n        /* \"#utility.yul\":4037:4039   */\n      0x40\n        /* \"#utility.yul\":4030:4052   */\n      mstore\n        /* \"#utility.yul\":3820:4058   */\n      pop\n        /* \"#utility.yul\":3777:4058   */\n      pop\n      pop\n      jump\t// out\n        /* \"#utility.yul\":4064:4193   */\n    tag_43:\n        /* \"#utility.yul\":4098:4104   */\n      0x00\n        /* \"#utility.yul\":4125:4145   */\n      tag_94\n      tag_35\n      jump\t// in\n    tag_94:\n        /* \"#utility.yul\":4115:4145   */\n      swap1\n      pop\n        /* \"#utility.yul\":4154:4187   */\n      tag_95\n        /* \"#utility.yul\":4182:4186   */\n      dup3\n        /* \"#utility.yul\":4174:4180   */\n      dup3\n        /* \"#utility.yul\":4154:4187   */\n      tag_42\n      jump\t// in\n    tag_95:\n        /* \"#utility.yul\":4064:4193   */\n      swap2\n      swap1\n      pop\n      jump\t// out\n        /* \"#utility.yul\":4199:4507   */\n    tag_44:\n        /* \"#utility.yul\":4261:4265   */\n      0x00\n        /* \"#utility.yul\":4351:4369   */\n      0xffffffffffffffff\n        /* \"#utility.yul\":4343:4349   */\n      dup3\n        /* \"#utility.yul\":4340:4370   */\n      gt\n        /* \"#utility.yul\":4337:4393   */\n      iszero\n      tag_97\n      jumpi\n        /* \"#utility.yul\":4373:4391   */\n      tag_98\n      tag_41\n      jump\t// in\n    tag_98:\n        /* \"#utility.yul\":4337:4393   */\n    tag_97:\n        /* \"#utility.yul\":4411:4440   */\n      tag_99\n        /* \"#utility.yul\":4433:4439   */\n      dup3\n        /* \"#utility.yul\":4411:4440   */\n      tag_40\n      jump\t// in\n    tag_99:\n        /* \"#utility.yul\":4403:4440   */\n      swap1\n      pop\n        /* \"#utility.yul\":4495:4499   */\n      0x20\n        /* \"#utility.yul\":4489:4493   */\n      dup2\n        /* \"#utility.yul\":4485:4500   */\n      add\n        /* \"#utility.yul\":4477:4500   */\n      swap1\n      pop\n        /* \"#utility.yul\":4199:4507   */\n      swap2\n      swap1\n      pop\n      jump\t// out\n        /* \"#utility.yul\":4513:4659   */\n    tag_45:\n        /* \"#utility.yul\":4610:4616   */\n      dup3\n        /* \"#utility.yul\":4605:4608   */\n      dup2\n        /* \"#utility.yul\":4600:4603   */\n      dup4\n        /* \"#utility.yul\":4587:4617   */\n      calldatacopy\n        /* \"#utility.yul\":4651:4652   */\n      0x00\n        /* \"#utility.yul\":4642:4648   */\n      dup4\n        /* \"#utility.yul\":4637:4640   */\n      dup4\n        /* \"#utility.yul\":4633:4649   */\n      add\n        /* \"#utility.yul\":4626:4653   */\n      mstore\n        /* \"#utility.yul\":4513:4659   */\n      pop\n      pop\n      pop\n      jump\t// out\n        /* \"#utility.yul\":4665:5090   */\n    tag_46:\n        /* \"#utility.yul\":4743:4748   */\n      0x00\n        /* \"#utility.yul\":4768:4834   */\n      tag_102\n        /* \"#utility.yul\":4784:4833   */\n      tag_103\n        /* \"#utility.yul\":4826:4832   */\n      dup5\n        /* \"#utility.yul\":4784:4833   */\n      tag_44\n      jump\t// in\n    tag_103:\n        /* \"#utility.yul\":4768:4834   */\n      tag_43\n      jump\t// in\n    tag_102:\n        /* \"#utility.yul\":4759:4834   */\n      swap1\n      pop\n        /* \"#utility.yul\":4857:4863   */\n      dup3\n        /* \"#utility.yul\":4850:4855   */\n      dup2\n        /* \"#utility.yul\":4843:4864   */\n      mstore\n        /* \"#utility.yul\":4895:4899   */\n      0x20\n        /* \"#utility.yul\":4888:4893   */\n      dup2\n        /* \"#utility.yul\":4884:4900   */\n      add\n        /* \"#utility.yul\":4933:4936   */\n      dup5\n        /* \"#utility.yul\":4924:4930   */\n      dup5\n        /* \"#utility.yul\":4919:4922   */\n      dup5\n        /* \"#utility.yul\":4915:4931   */\n      add\n        /* \"#utility.yul\":4912:4937   */\n      gt\n        /* \"#utility.yul\":4909:5021   */\n      iszero\n      tag_104\n      jumpi\n        /* \"#utility.yul\":4940:5019   */\n      tag_105\n      tag_39\n      jump\t// in\n    tag_105:\n        /* \"#utility.yul\":4909:5021   */\n    tag_104:\n        /* \"#utility.yul\":5030:5084   */\n      tag_106\n        /* \"#utility.yul\":5077:5083   */\n      dup5\n        /* \"#utility.yul\":5072:5075   */\n      dup3\n        /* \"#utility.yul\":5067:5070   */\n      dup6\n        /* \"#utility.yul\":5030:5084   */\n      tag_45\n      jump\t// in\n    tag_106:\n        /* \"#utility.yul\":4749:5090   */\n      pop\n        /* \"#utility.yul\":4665:5090   */\n      swap4\n      swap3\n      pop\n      pop\n      pop\n      jump\t// out\n        /* \"#utility.yul\":5110:5450   */\n    tag_47:\n        /* \"#utility.yul\":5166:5171   */\n      0x00\n        /* \"#utility.yul\":5215:5218   */\n      dup3\n        /* \"#utility.yul\":5208:5212   */\n      0x1f\n        /* \"#utility.yul\":5200:5206   */\n      dup4\n        /* \"#utility.yul\":5196:5213   */\n      add\n        /* \"#utility.yul\":5192:5219   */\n      slt\n        /* \"#utility.yul\":5182:5304   */\n      tag_108\n      jumpi\n        /* \"#utility.yul\":5223:5302   */\n      tag_109\n      tag_38\n      jump\t// in\n    tag_109:\n        /* \"#utility.yul\":5182:5304   */\n    tag_108:\n        /* \"#utility.yul\":5340:5346   */\n      dup2\n        /* \"#utility.yul\":5327:5347   */\n      calldataload\n        /* \"#utility.yul\":5365:5444   */\n      tag_110\n        /* \"#utility.yul\":5440:5443   */\n      dup5\n        /* \"#utility.yul\":5432:5438   */\n      dup3\n        /* \"#utility.yul\":5425:5429   */\n      0x20\n        /* \"#utility.yul\":5417:5423   */\n      dup7\n        /* \"#utility.yul\":5413:5430   */\n      add\n        /* \"#utility.yul\":5365:5444   */\n      tag_46\n      jump\t// in\n    tag_110:\n        /* \"#utility.yul\":5356:5444   */\n      swap2\n      pop\n        /* \"#utility.yul\":5172:5450   */\n      pop\n        /* \"#utility.yul\":5110:5450   */\n      swap3\n      swap2\n      pop\n      pop\n      jump\t// out\n        /* \"#utility.yul\":5456:6290   */\n    tag_11:\n        /* \"#utility.yul\":5544:5550   */\n      0x00\n        /* \"#utility.yul\":5552:5558   */\n      dup1\n        /* \"#utility.yul\":5601:5603   */\n      0x40\n        /* \"#utility.yul\":5589:5598   */\n      dup4\n        /* \"#utility.yul\":5580:5587   */\n      dup6\n        /* \"#utility.yul\":5576:5599   */\n      sub\n        /* \"#utility.yul\":5572:5604   */\n      slt\n        /* \"#utility.yul\":5569:5688   */\n      iszero\n      tag_112\n      jumpi\n        /* \"#utility.yul\":5607:5686   */\n      tag_113\n      tag_36\n      jump\t// in\n    tag_113:\n        /* \"#utility.yul\":5569:5688   */\n    tag_112:\n        /* \"#utility.yul\":5755:5756   */\n      0x00\n        /* \"#utility.yul\":5744:5753   */\n      dup4\n        /* \"#utility.yul\":5740:5757   */\n      add\n        /* \"#utility.yul\":5727:5758   */\n      calldataload\n        /* \"#utility.yul\":5785:5803   */\n      0xffffffffffffffff\n        /* \"#utility.yul\":5777:5783   */\n      dup2\n        /* \"#utility.yul\":5774:5804   */\n      gt\n        /* \"#utility.yul\":5771:5888   */\n      iszero\n      tag_114\n      jumpi\n        /* \"#utility.yul\":5807:5886   */\n      tag_115\n      tag_37\n      jump\t// in\n    tag_115:\n        /* \"#utility.yul\":5771:5888   */\n    tag_114:\n        /* \"#utility.yul\":5912:5975   */\n      tag_116\n        /* \"#utility.yul\":5967:5974   */\n      dup6\n        /* \"#utility.yul\":5958:5964   */\n      dup3\n        /* \"#utility.yul\":5947:5956   */\n      dup7\n        /* \"#utility.yul\":5943:5965   */\n      add\n        /* \"#utility.yul\":5912:5975   */\n      tag_47\n      jump\t// in\n    tag_116:\n        /* \"#utility.yul\":5902:5975   */\n      swap3\n      pop\n        /* \"#utility.yul\":5698:5985   */\n      pop\n        /* \"#utility.yul\":6052:6054   */\n      0x20\n        /* \"#utility.yul\":6041:6050   */\n      dup4\n        /* \"#utility.yul\":6037:6055   */\n      add\n        /* \"#utility.yul\":6024:6056   */\n      calldataload\n        /* \"#utility.yul\":6083:6101   */\n      0xffffffffffffffff\n        /* \"#utility.yul\":6075:6081   */\n      dup2\n        /* \"#utility.yul\":6072:6102   */\n      gt\n        /* \"#utility.yul\":6069:6186   */\n      iszero\n      tag_117\n      jumpi\n        /* \"#utility.yul\":6105:6184   */\n      tag_118\n      tag_37\n      jump\t// in\n    tag_118:\n        /* \"#utility.yul\":6069:6186   */\n    tag_117:\n        /* \"#utility.yul\":6210:6273   */\n      tag_119\n        /* \"#utility.yul\":6265:6272   */\n      dup6\n        /* \"#utility.yul\":6256:6262   */\n      dup3\n        /* \"#utility.yul\":6245:6254   */\n      dup7\n        /* \"#utility.yul\":6241:6263   */\n      add\n        /* \"#utility.yul\":6210:6273   */\n      tag_47\n      jump\t// in\n    tag_119:\n        /* \"#utility.yul\":6200:6273   */\n      swap2\n      pop\n        /* \"#utility.yul\":5995:6283   */\n      pop\n        /* \"#utility.yul\":5456:6290   */\n      swap3\n      pop\n      swap3\n      swap1\n      pop\n      jump\t// out\n        /* \"#utility.yul\":6296:6395   */\n    tag_48:\n        /* \"#utility.yul\":6348:6354   */\n      0x00\n        /* \"#utility.yul\":6382:6387   */\n      dup2\n        /* \"#utility.yul\":6376:6388   */\n      mload\n        /* \"#utility.yul\":6366:6388   */\n      swap1\n      pop\n        /* \"#utility.yul\":6296:6395   */\n      swap2\n      swap1\n      pop\n      jump\t// out\n        /* \"#utility.yul\":6401:6570   */\n    tag_49:\n        /* \"#utility.yul\":6485:6496   */\n      0x00\n        /* \"#utility.yul\":6519:6525   */\n      dup3\n        /* \"#utility.yul\":6514:6517   */\n      dup3\n        /* \"#utility.yul\":6507:6526   */\n      mstore\n        /* \"#utility.yul\":6559:6563   */\n      0x20\n        /* \"#utility.yul\":6554:6557   */\n      dup3\n        /* \"#utility.yul\":6550:6564   */\n      add\n        /* \"#utility.yul\":6535:6564   */\n      swap1\n      pop\n        /* \"#utility.yul\":6401:6570   */\n      swap3\n      swap2\n      pop\n      pop\n      jump\t// out\n        /* \"#utility.yul\":6576:6822   */\n    tag_50:\n        /* \"#utility.yul\":6657:6658   */\n      0x00\n        /* \"#utility.yul\":6667:6780   */\n    tag_123:\n        /* \"#utility.yul\":6681:6687   */\n      dup4\n        /* \"#utility.yul\":6678:6679   */\n      dup2\n        /* \"#utility.yul\":6675:6688   */\n      lt\n        /* \"#utility.yul\":6667:6780   */\n      iszero\n      tag_125\n      jumpi\n        /* \"#utility.yul\":6766:6767   */\n      dup1\n        /* \"#utility.yul\":6761:6764   */\n      dup3\n        /* \"#utility.yul\":6757:6768   */\n      add\n        /* \"#utility.yul\":6751:6769   */\n      mload\n        /* \"#utility.yul\":6747:6748   */\n      dup2\n        /* \"#utility.yul\":6742:6745   */\n      dup5\n        /* \"#utility.yul\":6738:6749   */\n      add\n        /* \"#utility.yul\":6731:6770   */\n      mstore\n        /* \"#utility.yul\":6703:6705   */\n      0x20\n        /* \"#utility.yul\":6700:6701   */\n      dup2\n        /* \"#utility.yul\":6696:6706   */\n      add\n        /* \"#utility.yul\":6691:6706   */\n      swap1\n      pop\n        /* \"#utility.yul\":6667:6780   */\n      jump(tag_123)\n    tag_125:\n        /* \"#utility.yul\":6814:6815   */\n      0x00\n        /* \"#utility.yul\":6805:6811   */\n      dup5\n        /* \"#utility.yul\":6800:6803   */\n      dup5\n        /* \"#utility.yul\":6796:6812   */\n      add\n        /* \"#utility.yul\":6789:6816   */\n      mstore\n        /* \"#utility.yul\":6638:6822   */\n      pop\n        /* \"#utility.yul\":6576:6822   */\n      pop\n      pop\n      pop\n      jump\t// out\n        /* \"#utility.yul\":6828:7205   */\n    tag_51:\n        /* \"#utility.yul\":6916:6919   */\n      0x00\n        /* \"#utility.yul\":6944:6983   */\n      tag_127\n        /* \"#utility.yul\":6977:6982   */\n      dup3\n        /* \"#utility.yul\":6944:6983   */\n      tag_48\n      jump\t// in\n    tag_127:\n        /* \"#utility.yul\":6999:7070   */\n      tag_128\n        /* \"#utility.yul\":7063:7069   */\n      dup2\n        /* \"#utility.yul\":7058:7061   */\n      dup6\n        /* \"#utility.yul\":6999:7070   */\n      tag_49\n      jump\t// in\n    tag_128:\n        /* \"#utility.yul\":6992:7070   */\n      swap4\n      pop\n        /* \"#utility.yul\":7079:7144   */\n      tag_129\n        /* \"#utility.yul\":7137:7143   */\n      dup2\n        /* \"#utility.yul\":7132:7135   */\n      dup6\n        /* \"#utility.yul\":7125:7129   */\n      0x20\n        /* \"#utility.yul\":7118:7123   */\n      dup7\n        /* \"#utility.yul\":7114:7130   */\n      add\n        /* \"#utility.yul\":7079:7144   */\n      tag_50\n      jump\t// in\n    tag_129:\n        /* \"#utility.yul\":7169:7198   */\n      tag_130\n        /* \"#utility.yul\":7191:7197   */\n      dup2\n        /* \"#utility.yul\":7169:7198   */\n      tag_40\n      jump\t// in\n    tag_130:\n        /* \"#utility.yul\":7164:7167   */\n      dup5\n        /* \"#utility.yul\":7160:7199   */\n      add\n        /* \"#utility.yul\":7153:7199   */\n      swap2\n      pop\n        /* \"#utility.yul\":6920:7205   */\n      pop\n        /* \"#utility.yul\":6828:7205   */\n      swap3\n      swap2\n      pop\n      pop\n      jump\t// out\n        /* \"#utility.yul\":7211:7725   */\n    tag_20:\n        /* \"#utility.yul\":7372:7376   */\n      0x00\n        /* \"#utility.yul\":7410:7412   */\n      0x40\n        /* \"#utility.yul\":7399:7408   */\n      dup3\n        /* \"#utility.yul\":7395:7413   */\n      add\n        /* \"#utility.yul\":7387:7413   */\n      swap1\n      pop\n        /* \"#utility.yul\":7459:7468   */\n      dup2\n        /* \"#utility.yul\":7453:7457   */\n      dup2\n        /* \"#utility.yul\":7449:7469   */\n      sub\n        /* \"#utility.yul\":7445:7446   */\n      0x00\n        /* \"#utility.yul\":7434:7443   */\n      dup4\n        /* \"#utility.yul\":7430:7447   */\n      add\n        /* \"#utility.yul\":7423:7470   */\n      mstore\n        /* \"#utility.yul\":7487:7565   */\n      tag_132\n        /* \"#utility.yul\":7560:7564   */\n      dup2\n        /* \"#utility.yul\":7551:7557   */\n      dup6\n        /* \"#utility.yul\":7487:7565   */\n      tag_51\n      jump\t// in\n    tag_132:\n        /* \"#utility.yul\":7479:7565   */\n      swap1\n      pop\n        /* \"#utility.yul\":7612:7621   */\n      dup2\n        /* \"#utility.yul\":7606:7610   */\n      dup2\n        /* \"#utility.yul\":7602:7622   */\n      sub\n        /* \"#utility.yul\":7597:7599   */\n      0x20\n        /* \"#utility.yul\":7586:7595   */\n      dup4\n        /* \"#utility.yul\":7582:7600   */\n      add\n        /* \"#utility.yul\":7575:7623   */\n      mstore\n        /* \"#utility.yul\":7640:7718   */\n      tag_133\n        /* \"#utility.yul\":7713:7717   */\n      dup2\n        /* \"#utility.yul\":7704:7710   */\n      dup5\n        /* \"#utility.yul\":7640:7718   */\n      tag_51\n      jump\t// in\n    tag_133:\n        /* \"#utility.yul\":7632:7718   */\n      swap1\n      pop\n        /* \"#utility.yul\":7211:7725   */\n      swap4\n      swap3\n      pop\n      pop\n      pop\n      jump\t// out\n    stop\n\n    sub_0: assembly {\n            /* \"BigPicture.sol\":61:270  contract BigPicture {... */\n          mstore(0x40, 0x80)\n            /* \"BigPicture.sol\":129:265  constructor (... */\n          callvalue\n          dup1\n          iszero\n          tag_1\n          jumpi\n          0x00\n          dup1\n          revert\n        tag_1:\n          pop\n          mload(0x40)\n          sub(codesize, bytecodeSize)\n          dup1\n          bytecodeSize\n          dup4\n          codecopy\n          dup2\n          dup2\n          add\n          0x40\n          mstore\n          dup2\n          add\n          swap1\n          tag_2\n          swap2\n          swap1\n          tag_3\n          jump\t// in\n        tag_2:\n            /* \"BigPicture.sol\":228:233  _name */\n          dup2\n            /* \"BigPicture.sol\":221:225  name */\n          0x00\n            /* \"BigPicture.sol\":221:233  name = _name */\n          swap1\n          dup2\n          tag_6\n          swap2\n          swap1\n          tag_7\n          jump\t// in\n        tag_6:\n          pop\n            /* \"BigPicture.sol\":251:257  _image */\n          dup1\n            /* \"BigPicture.sol\":244:249  image */\n          0x01\n            /* \"BigPicture.sol\":244:257  image= _image */\n          swap1\n          dup2\n          tag_8\n          swap2\n          swap1\n          tag_7\n          jump\t// in\n        tag_8:\n          pop\n            /* \"BigPicture.sol\":129:265  constructor (... */\n          pop\n          pop\n            /* \"BigPicture.sol\":61:270  contract BigPicture {... */\n          jump(tag_9)\n            /* \"#utility.yul\":7:82   */\n        tag_10:\n            /* \"#utility.yul\":40:46   */\n          0x00\n            /* \"#utility.yul\":73:75   */\n          0x40\n            /* \"#utility.yul\":67:76   */\n          mload\n            /* \"#utility.yul\":57:76   */\n          swap1\n          pop\n            /* \"#utility.yul\":7:82   */\n          swap1\n          jump\t// out\n            /* \"#utility.yul\":88:205   */\n        tag_11:\n            /* \"#utility.yul\":197:198   */\n          0x00\n            /* \"#utility.yul\":194:195   */\n          dup1\n            /* \"#utility.yul\":187:199   */\n          revert\n            /* \"#utility.yul\":211:328   */\n        tag_12:\n            /* \"#utility.yul\":320:321   */\n          0x00\n            /* \"#utility.yul\":317:318   */\n          dup1\n            /* \"#utility.yul\":310:322   */\n          revert\n            /* \"#utility.yul\":334:451   */\n        tag_13:\n            /* \"#utility.yul\":443:444   */\n          0x00\n            /* \"#utility.yul\":440:441   */\n          dup1\n            /* \"#utility.yul\":433:445   */\n          revert\n            /* \"#utility.yul\":457:574   */\n        tag_14:\n            /* \"#utility.yul\":566:567   */\n          0x00\n            /* \"#utility.yul\":563:564   */\n          dup1\n            /* \"#utility.yul\":556:568   */\n          revert\n            /* \"#utility.yul\":580:682   */\n        tag_15:\n            /* \"#utility.yul\":621:627   */\n          0x00\n            /* \"#utility.yul\":672:674   */\n          0x1f\n            /* \"#utility.yul\":668:675   */\n          not\n            /* \"#utility.yul\":663:665   */\n          0x1f\n            /* \"#utility.yul\":656:661   */\n          dup4\n            /* \"#utility.yul\":652:666   */\n          add\n            /* \"#utility.yul\":648:676   */\n          and\n            /* \"#utility.yul\":638:676   */\n          swap1\n          pop\n            /* \"#utility.yul\":580:682   */\n          swap2\n          swap1\n          pop\n          jump\t// out\n            /* \"#utility.yul\":688:868   */\n        tag_16:\n            /* \"#utility.yul\":736:813   */\n          0x4e487b7100000000000000000000000000000000000000000000000000000000\n            /* \"#utility.yul\":733:734   */\n          0x00\n            /* \"#utility.yul\":726:814   */\n          mstore\n            /* \"#utility.yul\":833:837   */\n          0x41\n            /* \"#utility.yul\":830:831   */\n          0x04\n            /* \"#utility.yul\":823:838   */\n          mstore\n            /* \"#utility.yul\":857:861   */\n          0x24\n            /* \"#utility.yul\":854:855   */\n          0x00\n            /* \"#utility.yul\":847:862   */\n          revert\n            /* \"#utility.yul\":874:1155   */\n        tag_17:\n            /* \"#utility.yul\":957:984   */\n          tag_51\n            /* \"#utility.yul\":979:983   */\n          dup3\n            /* \"#utility.yul\":957:984   */\n          tag_15\n          jump\t// in\n        tag_51:\n            /* \"#utility.yul\":949:955   */\n          dup2\n            /* \"#utility.yul\":945:985   */\n          add\n            /* \"#utility.yul\":1087:1093   */\n          dup2\n            /* \"#utility.yul\":1075:1085   */\n          dup2\n            /* \"#utility.yul\":1072:1094   */\n          lt\n            /* \"#utility.yul\":1051:1069   */\n          0xffffffffffffffff\n            /* \"#utility.yul\":1039:1049   */\n          dup3\n            /* \"#utility.yul\":1036:1070   */\n          gt\n            /* \"#utility.yul\":1033:1095   */\n          or\n            /* \"#utility.yul\":1030:1118   */\n          iszero\n          tag_52\n          jumpi\n            /* \"#utility.yul\":1098:1116   */\n          tag_53\n          tag_16\n          jump\t// in\n        tag_53:\n            /* \"#utility.yul\":1030:1118   */\n        tag_52:\n            /* \"#utility.yul\":1138:1148   */\n          dup1\n            /* \"#utility.yul\":1134:1136   */\n          0x40\n            /* \"#utility.yul\":1127:1149   */\n          mstore\n            /* \"#utility.yul\":917:1155   */\n          pop\n            /* \"#utility.yul\":874:1155   */\n          pop\n          pop\n          jump\t// out\n            /* \"#utility.yul\":1161:1290   */\n        tag_18:\n            /* \"#utility.yul\":1195:1201   */\n          0x00\n            /* \"#utility.yul\":1222:1242   */\n          tag_55\n          tag_10\n          jump\t// in\n        tag_55:\n            /* \"#utility.yul\":1212:1242   */\n          swap1\n          pop\n            /* \"#utility.yul\":1251:1284   */\n          tag_56\n            /* \"#utility.yul\":1279:1283   */\n          dup3\n            /* \"#utility.yul\":1271:1277   */\n          dup3\n            /* \"#utility.yul\":1251:1284   */\n          tag_17\n          jump\t// in\n        tag_56:\n            /* \"#utility.yul\":1161:1290   */\n          swap2\n          swap1\n          pop\n          jump\t// out\n            /* \"#utility.yul\":1296:1604   */\n        tag_19:\n            /* \"#utility.yul\":1358:1362   */\n          0x00\n            /* \"#utility.yul\":1448:1466   */\n          0xffffffffffffffff\n            /* \"#utility.yul\":1440:1446   */\n          dup3\n            /* \"#utility.yul\":1437:1467   */\n          gt\n            /* \"#utility.yul\":1434:1490   */\n          iszero\n          tag_58\n          jumpi\n            /* \"#utility.yul\":1470:1488   */\n          tag_59\n          tag_16\n          jump\t// in\n        tag_59:\n            /* \"#utility.yul\":1434:1490   */\n        tag_58:\n            /* \"#utility.yul\":1508:1537   */\n          tag_60\n            /* \"#utility.yul\":1530:1536   */\n          dup3\n            /* \"#utility.yul\":1508:1537   */\n          tag_15\n          jump\t// in\n        tag_60:\n            /* \"#utility.yul\":1500:1537   */\n          swap1\n          pop\n            /* \"#utility.yul\":1592:1596   */\n          0x20\n            /* \"#utility.yul\":1586:1590   */\n          dup2\n            /* \"#utility.yul\":1582:1597   */\n          add\n            /* \"#utility.yul\":1574:1597   */\n          swap1\n          pop\n            /* \"#utility.yul\":1296:1604   */\n          swap2\n          swap1\n          pop\n          jump\t// out\n            /* \"#utility.yul\":1610:1856   */\n        tag_20:\n            /* \"#utility.yul\":1691:1692   */\n          0x00\n            /* \"#utility.yul\":1701:1814   */\n        tag_62:\n            /* \"#utility.yul\":1715:1721   */\n          dup4\n            /* \"#utility.yul\":1712:1713   */\n          dup2\n            /* \"#utility.yul\":1709:1722   */\n          lt\n            /* \"#utility.yul\":1701:1814   */\n          iszero\n          tag_64\n          jumpi\n            /* \"#utility.yul\":1800:1801   */\n          dup1\n            /* \"#utility.yul\":1795:1798   */\n          dup3\n            /* \"#utility.yul\":1791:1802   */\n          add\n            /* \"#utility.yul\":1785:1803   */\n          mload\n            /* \"#utility.yul\":1781:1782   */\n          dup2\n            /* \"#utility.yul\":1776:1779   */\n          dup5\n            /* \"#utility.yul\":1772:1783   */\n          add\n            /* \"#utility.yul\":1765:1804   */\n          mstore\n            /* \"#utility.yul\":1737:1739   */\n          0x20\n            /* \"#utility.yul\":1734:1735   */\n          dup2\n            /* \"#utility.yul\":1730:1740   */\n          add\n            /* \"#utility.yul\":1725:1740   */\n          swap1\n          pop\n            /* \"#utility.yul\":1701:1814   */\n          jump(tag_62)\n        tag_64:\n            /* \"#utility.yul\":1848:1849   */\n          0x00\n            /* \"#utility.yul\":1839:1845   */\n          dup5\n            /* \"#utility.yul\":1834:1837   */\n          dup5\n            /* \"#utility.yul\":1830:1846   */\n          add\n            /* \"#utility.yul\":1823:1850   */\n          mstore\n            /* \"#utility.yul\":1672:1856   */\n          pop\n            /* \"#utility.yul\":1610:1856   */\n          pop\n          pop\n          pop\n          jump\t// out\n            /* \"#utility.yul\":1862:2296   */\n        tag_21:\n            /* \"#utility.yul\":1951:1956   */\n          0x00\n            /* \"#utility.yul\":1976:2042   */\n          tag_66\n            /* \"#utility.yul\":1992:2041   */\n          tag_67\n            /* \"#utility.yul\":2034:2040   */\n          dup5\n            /* \"#utility.yul\":1992:2041   */\n          tag_19\n          jump\t// in\n        tag_67:\n            /* \"#utility.yul\":1976:2042   */\n          tag_18\n          jump\t// in\n        tag_66:\n            /* \"#utility.yul\":1967:2042   */\n          swap1\n          pop\n            /* \"#utility.yul\":2065:2071   */\n          dup3\n            /* \"#utility.yul\":2058:2063   */\n          dup2\n            /* \"#utility.yul\":2051:2072   */\n          mstore\n            /* \"#utility.yul\":2103:2107   */\n          0x20\n            /* \"#utility.yul\":2096:2101   */\n          dup2\n            /* \"#utility.yul\":2092:2108   */\n          add\n            /* \"#utility.yul\":2141:2144   */\n          dup5\n            /* \"#utility.yul\":2132:2138   */\n          dup5\n            /* \"#utility.yul\":2127:2130   */\n          dup5\n            /* \"#utility.yul\":2123:2139   */\n          add\n            /* \"#utility.yul\":2120:2145   */\n          gt\n            /* \"#utility.yul\":2117:2229   */\n          iszero\n          tag_68\n          jumpi\n            /* \"#utility.yul\":2148:2227   */\n          tag_69\n          tag_14\n          jump\t// in\n        tag_69:\n            /* \"#utility.yul\":2117:2229   */\n        tag_68:\n            /* \"#utility.yul\":2238:2290   */\n          tag_70\n            /* \"#utility.yul\":2283:2289   */\n          dup5\n            /* \"#utility.yul\":2278:2281   */\n          dup3\n            /* \"#utility.yul\":2273:2276   */\n          dup6\n            /* \"#utility.yul\":2238:2290   */\n          tag_20\n          jump\t// in\n        tag_70:\n            /* \"#utility.yul\":1957:2296   */\n          pop\n            /* \"#utility.yul\":1862:2296   */\n          swap4\n          swap3\n          pop\n          pop\n          pop\n          jump\t// out\n            /* \"#utility.yul\":2316:2671   */\n        tag_22:\n            /* \"#utility.yul\":2383:2388   */\n          0x00\n            /* \"#utility.yul\":2432:2435   */\n          dup3\n            /* \"#utility.yul\":2425:2429   */\n          0x1f\n            /* \"#utility.yul\":2417:2423   */\n          dup4\n            /* \"#utility.yul\":2413:2430   */\n          add\n            /* \"#utility.yul\":2409:2436   */\n          slt\n            /* \"#utility.yul\":2399:2521   */\n          tag_72\n          jumpi\n            /* \"#utility.yul\":2440:2519   */\n          tag_73\n          tag_13\n          jump\t// in\n        tag_73:\n            /* \"#utility.yul\":2399:2521   */\n        tag_72:\n            /* \"#utility.yul\":2550:2556   */\n          dup2\n            /* \"#utility.yul\":2544:2557   */\n          mload\n            /* \"#utility.yul\":2575:2665   */\n          tag_74\n            /* \"#utility.yul\":2661:2664   */\n          dup5\n            /* \"#utility.yul\":2653:2659   */\n          dup3\n            /* \"#utility.yul\":2646:2650   */\n          0x20\n            /* \"#utility.yul\":2638:2644   */\n          dup7\n            /* \"#utility.yul\":2634:2651   */\n          add\n            /* \"#utility.yul\":2575:2665   */\n          tag_21\n          jump\t// in\n        tag_74:\n            /* \"#utility.yul\":2566:2665   */\n          swap2\n          pop\n            /* \"#utility.yul\":2389:2671   */\n          pop\n            /* \"#utility.yul\":2316:2671   */\n          swap3\n          swap2\n          pop\n          pop\n          jump\t// out\n            /* \"#utility.yul\":2677:3530   */\n        tag_3:\n            /* \"#utility.yul\":2776:2782   */\n          0x00\n            /* \"#utility.yul\":2784:2790   */\n          dup1\n            /* \"#utility.yul\":2833:2835   */\n          0x40\n            /* \"#utility.yul\":2821:2830   */\n          dup4\n            /* \"#utility.yul\":2812:2819   */\n          dup6\n            /* \"#utility.yul\":2808:2831   */\n          sub\n            /* \"#utility.yul\":2804:2836   */\n          slt\n            /* \"#utility.yul\":2801:2920   */\n          iszero\n          tag_76\n          jumpi\n            /* \"#utility.yul\":2839:2918   */\n          tag_77\n          tag_11\n          jump\t// in\n        tag_77:\n            /* \"#utility.yul\":2801:2920   */\n        tag_76:\n            /* \"#utility.yul\":2980:2981   */\n          0x00\n            /* \"#utility.yul\":2969:2978   */\n          dup4\n            /* \"#utility.yul\":2965:2982   */\n          add\n            /* \"#utility.yul\":2959:2983   */\n          mload\n            /* \"#utility.yul\":3010:3028   */\n          0xffffffffffffffff\n            /* \"#utility.yul\":3002:3008   */\n          dup2\n            /* \"#utility.yul\":2999:3029   */\n          gt\n            /* \"#utility.yul\":2996:3113   */\n          iszero\n          tag_78\n          jumpi\n            /* \"#utility.yul\":3032:3111   */\n          tag_79\n          tag_12\n          jump\t// in\n        tag_79:\n            /* \"#utility.yul\":2996:3113   */\n        tag_78:\n            /* \"#utility.yul\":3137:3211   */\n          tag_80\n            /* \"#utility.yul\":3203:3210   */\n          dup6\n            /* \"#utility.yul\":3194:3200   */\n          dup3\n            /* \"#utility.yul\":3183:3192   */\n          dup7\n            /* \"#utility.yul\":3179:3201   */\n          add\n            /* \"#utility.yul\":3137:3211   */\n          tag_22\n          jump\t// in\n        tag_80:\n            /* \"#utility.yul\":3127:3211   */\n          swap3\n          pop\n            /* \"#utility.yul\":2930:3221   */\n          pop\n            /* \"#utility.yul\":3281:3283   */\n          0x20\n            /* \"#utility.yul\":3270:3279   */\n          dup4\n            /* \"#utility.yul\":3266:3284   */\n          add\n            /* \"#utility.yul\":3260:3285   */\n          mload\n            /* \"#utility.yul\":3312:3330   */\n          0xffffffffffffffff\n            /* \"#utility.yul\":3304:3310   */\n          dup2\n            /* \"#utility.yul\":3301:3331   */\n          gt\n            /* \"#utility.yul\":3298:3415   */\n          iszero\n          tag_81\n          jumpi\n            /* \"#utility.yul\":3334:3413   */\n          tag_82\n          tag_12\n          jump\t// in\n        tag_82:\n            /* \"#utility.yul\":3298:3415   */\n        tag_81:\n            /* \"#utility.yul\":3439:3513   */\n          tag_83\n            /* \"#utility.yul\":3505:3512   */\n          dup6\n            /* \"#utility.yul\":3496:3502   */\n          dup3\n            /* \"#utility.yul\":3485:3494   */\n          dup7\n            /* \"#utility.yul\":3481:3503   */\n          add\n            /* \"#utility.yul\":3439:3513   */\n          tag_22\n          jump\t// in\n        tag_83:\n            /* \"#utility.yul\":3429:3513   */\n          swap2\n          pop\n            /* \"#utility.yul\":3231:3523   */\n          pop\n            /* \"#utility.yul\":2677:3530   */\n          swap3\n          pop\n          swap3\n          swap1\n          pop\n          jump\t// out\n            /* \"#utility.yul\":3536:3635   */\n        tag_23:\n            /* \"#utility.yul\":3588:3594   */\n          0x00\n            /* \"#utility.yul\":3622:3627   */\n          dup2\n            /* \"#utility.yul\":3616:3628   */\n          mload\n            /* \"#utility.yul\":3606:3628   */\n          swap1\n          pop\n            /* \"#utility.yul\":3536:3635   */\n          swap2\n          swap1\n          pop\n          jump\t// out\n            /* \"#utility.yul\":3641:3821   */\n        tag_24:\n            /* \"#utility.yul\":3689:3766   */\n          0x4e487b7100000000000000000000000000000000000000000000000000000000\n            /* \"#utility.yul\":3686:3687   */\n          0x00\n            /* \"#utility.yul\":3679:3767   */\n          mstore\n            /* \"#utility.yul\":3786:3790   */\n          0x22\n            /* \"#utility.yul\":3783:3784   */\n          0x04\n            /* \"#utility.yul\":3776:3791   */\n          mstore\n            /* \"#utility.yul\":3810:3814   */\n          0x24\n            /* \"#utility.yul\":3807:3808   */\n          0x00\n            /* \"#utility.yul\":3800:3815   */\n          revert\n            /* \"#utility.yul\":3827:4147   */\n        tag_25:\n            /* \"#utility.yul\":3871:3877   */\n          0x00\n            /* \"#utility.yul\":3908:3909   */\n          0x02\n            /* \"#utility.yul\":3902:3906   */\n          dup3\n            /* \"#utility.yul\":3898:3910   */\n          div\n            /* \"#utility.yul\":3888:3910   */\n          swap1\n          pop\n            /* \"#utility.yul\":3955:3956   */\n          0x01\n            /* \"#utility.yul\":3949:3953   */\n          dup3\n            /* \"#utility.yul\":3945:3957   */\n          and\n            /* \"#utility.yul\":3976:3994   */\n          dup1\n            /* \"#utility.yul\":3966:4047   */\n          tag_87\n          jumpi\n            /* \"#utility.yul\":4032:4036   */\n          0x7f\n            /* \"#utility.yul\":4024:4030   */\n          dup3\n            /* \"#utility.yul\":4020:4037   */\n          and\n            /* \"#utility.yul\":4010:4037   */\n          swap2\n          pop\n            /* \"#utility.yul\":3966:4047   */\n        tag_87:\n            /* \"#utility.yul\":4094:4096   */\n          0x20\n            /* \"#utility.yul\":4086:4092   */\n          dup3\n            /* \"#utility.yul\":4083:4097   */\n          lt\n            /* \"#utility.yul\":4063:4081   */\n          dup2\n            /* \"#utility.yul\":4060:4098   */\n          sub\n            /* \"#utility.yul\":4057:4141   */\n          tag_88\n          jumpi\n            /* \"#utility.yul\":4113:4131   */\n          tag_89\n          tag_24\n          jump\t// in\n        tag_89:\n            /* \"#utility.yul\":4057:4141   */\n        tag_88:\n            /* \"#utility.yul\":3878:4147   */\n          pop\n            /* \"#utility.yul\":3827:4147   */\n          swap2\n          swap1\n          pop\n          jump\t// out\n            /* \"#utility.yul\":4153:4294   */\n        tag_26:\n            /* \"#utility.yul\":4202:4206   */\n          0x00\n            /* \"#utility.yul\":4225:4228   */\n          dup2\n            /* \"#utility.yul\":4217:4228   */\n          swap1\n          pop\n            /* \"#utility.yul\":4248:4251   */\n          dup2\n            /* \"#utility.yul\":4245:4246   */\n          0x00\n            /* \"#utility.yul\":4238:4252   */\n          mstore\n            /* \"#utility.yul\":4282:4286   */\n          0x20\n            /* \"#utility.yul\":4279:4280   */\n          0x00\n            /* \"#utility.yul\":4269:4287   */\n          keccak256\n            /* \"#utility.yul\":4261:4287   */\n          swap1\n          pop\n            /* \"#utility.yul\":4153:4294   */\n          swap2\n          swap1\n          pop\n          jump\t// out\n            /* \"#utility.yul\":4300:4393   */\n        tag_27:\n            /* \"#utility.yul\":4337:4343   */\n          0x00\n            /* \"#utility.yul\":4384:4386   */\n          0x20\n            /* \"#utility.yul\":4379:4381   */\n          0x1f\n            /* \"#utility.yul\":4372:4377   */\n          dup4\n            /* \"#utility.yul\":4368:4382   */\n          add\n            /* \"#utility.yul\":4364:4387   */\n          div\n            /* \"#utility.yul\":4354:4387   */\n          swap1\n          pop\n            /* \"#utility.yul\":4300:4393   */\n          swap2\n          swap1\n          pop\n          jump\t// out\n            /* \"#utility.yul\":4399:4506   */\n        tag_28:\n            /* \"#utility.yul\":4443:4451   */\n          0x00\n            /* \"#utility.yul\":4493:4498   */\n          dup3\n            /* \"#utility.yul\":4487:4491   */\n          dup3\n            /* \"#utility.yul\":4483:4499   */\n          shl\n            /* \"#utility.yul\":4462:4499   */\n          swap1\n          pop\n            /* \"#utility.yul\":4399:4506   */\n          swap3\n          swap2\n          pop\n          pop\n          jump\t// out\n            /* \"#utility.yul\":4512:4905   */\n        tag_29:\n            /* \"#utility.yul\":4581:4587   */\n          0x00\n            /* \"#utility.yul\":4631:4632   */\n          0x08\n            /* \"#utility.yul\":4619:4629   */\n          dup4\n            /* \"#utility.yul\":4615:4633   */\n          mul\n            /* \"#utility.yul\":4654:4751   */\n          tag_94\n            /* \"#utility.yul\":4684:4750   */\n          0xffffffffffffffffffffffffffffffffffffffffffffffffffffffffffffffff\n            /* \"#utility.yul\":4673:4682   */\n          dup3\n            /* \"#utility.yul\":4654:4751   */\n          tag_28\n          jump\t// in\n        tag_94:\n            /* \"#utility.yul\":4772:4811   */\n          tag_95\n            /* \"#utility.yul\":4802:4810   */\n          dup7\n            /* \"#utility.yul\":4791:4800   */\n          dup4\n            /* \"#utility.yul\":4772:4811   */\n          tag_28\n          jump\t// in\n        tag_95:\n            /* \"#utility.yul\":4760:4811   */\n          swap6\n          pop\n            /* \"#utility.yul\":4844:4848   */\n          dup1\n            /* \"#utility.yul\":4840:4849   */\n          not\n            /* \"#utility.yul\":4833:4838   */\n          dup5\n            /* \"#utility.yul\":4829:4850   */\n          and\n            /* \"#utility.yul\":4820:4850   */\n          swap4\n          pop\n            /* \"#utility.yul\":4893:4897   */\n          dup1\n            /* \"#utility.yul\":4883:4891   */\n          dup7\n            /* \"#utility.yul\":4879:4898   */\n          and\n            /* \"#utility.yul\":4872:4877   */\n          dup5\n            /* \"#utility.yul\":4869:4899   */\n          or\n            /* \"#utility.yul\":4859:4899   */\n          swap3\n          pop\n            /* \"#utility.yul\":4588:4905   */\n          pop\n          pop\n            /* \"#utility.yul\":4512:4905   */\n          swap4\n          swap3\n          pop\n          pop\n          pop\n          jump\t// out\n            /* \"#utility.yul\":4911:4988   */\n        tag_30:\n            /* \"#utility.yul\":4948:4955   */\n          0x00\n            /* \"#utility.yul\":4977:4982   */\n          dup2\n            /* \"#utility.yul\":4966:4982   */\n          swap1\n          pop\n            /* \"#utility.yul\":4911:4988   */\n          swap2\n          swap1\n          pop\n          jump\t// out\n            /* \"#utility.yul\":4994:5054   */\n        tag_31:\n            /* \"#utility.yul\":5022:5025   */\n          0x00\n            /* \"#utility.yul\":5043:5048   */\n          dup2\n            /* \"#utility.yul\":5036:5048   */\n          swap1\n          pop\n            /* \"#utility.yul\":4994:5054   */\n          swap2\n          swap1\n          pop\n          jump\t// out\n            /* \"#utility.yul\":5060:5202   */\n        tag_32:\n            /* \"#utility.yul\":5110:5119   */\n          0x00\n            /* \"#utility.yul\":5143:5196   */\n          tag_99\n            /* \"#utility.yul\":5161:5195   */\n          tag_100\n            /* \"#utility.yul\":5170:5194   */\n          tag_101\n            /* \"#utility.yul\":5188:5193   */\n          dup5\n            /* \"#utility.yul\":5170:5194   */\n          tag_30\n          jump\t// in\n        tag_101:\n            /* \"#utility.yul\":5161:5195   */\n          tag_31\n          jump\t// in\n        tag_100:\n            /* \"#utility.yul\":5143:5196   */\n          tag_30\n          jump\t// in\n        tag_99:\n            /* \"#utility.yul\":5130:5196   */\n          swap1\n          pop\n            /* \"#utility.yul\":5060:5202   */\n          swap2\n          swap1\n          pop\n          jump\t// out\n            /* \"#utility.yul\":5208:5283   */\n        tag_33:\n            /* \"#utility.yul\":5251:5254   */\n          0x00\n            /* \"#utility.yul\":5272:5277   */\n          dup2\n            /* \"#utility.yul\":5265:5277   */\n          swap1\n          pop\n            /* \"#utility.yul\":5208:5283   */\n          swap2\n          swap1\n          pop\n          jump\t// out\n            /* \"#utility.yul\":5289:5558   */\n        tag_34:\n            /* \"#utility.yul\":5399:5438   */\n          tag_104\n            /* \"#utility.yul\":5430:5437   */\n          dup4\n            /* \"#utility.yul\":5399:5438   */\n          tag_32\n          jump\t// in\n        tag_104:\n            /* \"#utility.yul\":5460:5551   */\n          tag_105\n            /* \"#utility.yul\":5509:5550   */\n          tag_106\n            /* \"#utility.yul\":5533:5549   */\n          dup3\n            /* \"#utility.yul\":5509:5550   */\n          tag_33\n          jump\t// in\n        tag_106:\n            /* \"#utility.yul\":5501:5507   */\n          dup5\n            /* \"#utility.yul\":5494:5498   */\n          dup5\n            /* \"#utility.yul\":5488:5499   */\n          sload\n            /* \"#utility.yul\":5460:5551   */\n          tag_29\n          jump\t// in\n        tag_105:\n            /* \"#utility.yul\":5454:5458   */\n          dup3\n            /* \"#utility.yul\":5447:5552   */\n          sstore\n            /* \"#utility.yul\":5365:5558   */\n          pop\n            /* \"#utility.yul\":5289:5558   */\n          pop\n          pop\n          pop\n          jump\t// out\n            /* \"#utility.yul\":5564:5637   */\n        tag_35:\n            /* \"#utility.yul\":5609:5612   */\n          0x00\n            /* \"#utility.yul\":5564:5637   */\n          swap1\n          jump\t// out\n            /* \"#utility.yul\":5643:5832   */\n        tag_36:\n            /* \"#utility.yul\":5720:5752   */\n          tag_109\n          tag_35\n          jump\t// in\n        tag_109:\n            /* \"#utility.yul\":5761:5826   */\n          tag_110\n            /* \"#utility.yul\":5819:5825   */\n          dup2\n            /* \"#utility.yul\":5811:5817   */\n          dup5\n            /* \"#utility.yul\":5805:5809   */\n          dup5\n            /* \"#utility.yul\":5761:5826   */\n          tag_34\n          jump\t// in\n        tag_110:\n            /* \"#utility.yul\":5696:5832   */\n          pop\n            /* \"#utility.yul\":5643:5832   */\n          pop\n          pop\n          jump\t// out\n            /* \"#utility.yul\":5838:6024   */\n        tag_37:\n            /* \"#utility.yul\":5898:6018   */\n        tag_112:\n            /* \"#utility.yul\":5915:5918   */\n          dup2\n            /* \"#utility.yul\":5908:5913   */\n          dup2\n            /* \"#utility.yul\":5905:5919   */\n          lt\n            /* \"#utility.yul\":5898:6018   */\n          iszero\n          tag_114\n          jumpi\n            /* \"#utility.yul\":5969:6008   */\n          tag_115\n            /* \"#utility.yul\":6006:6007   */\n          0x00\n            /* \"#utility.yul\":5999:6004   */\n          dup3\n            /* \"#utility.yul\":5969:6008   */\n          tag_36\n          jump\t// in\n        tag_115:\n            /* \"#utility.yul\":5942:5943   */\n          0x01\n            /* \"#utility.yul\":5935:5940   */\n          dup2\n            /* \"#utility.yul\":5931:5944   */\n          add\n            /* \"#utility.yul\":5922:5944   */\n          swap1\n          pop\n            /* \"#utility.yul\":5898:6018   */\n          jump(tag_112)\n        tag_114:\n            /* \"#utility.yul\":5838:6024   */\n          pop\n          pop\n          jump\t// out\n            /* \"#utility.yul\":6030:6573   */\n        tag_38:\n            /* \"#utility.yul\":6131:6133   */\n          0x1f\n            /* \"#utility.yul\":6126:6129   */\n          dup3\n            /* \"#utility.yul\":6123:6134   */\n          gt\n            /* \"#utility.yul\":6120:6566   */\n          iszero\n          tag_117\n          jumpi\n            /* \"#utility.yul\":6165:6203   */\n          tag_118\n            /* \"#utility.yul\":6197:6202   */\n          dup2\n            /* \"#utility.yul\":6165:6203   */\n          tag_26\n          jump\t// in\n        tag_118:\n            /* \"#utility.yul\":6249:6278   */\n          tag_119\n            /* \"#utility.yul\":6267:6277   */\n          dup5\n            /* \"#utility.yul\":6249:6278   */\n          tag_27\n          jump\t// in\n        tag_119:\n            /* \"#utility.yul\":6239:6247   */\n          dup2\n            /* \"#utility.yul\":6235:6279   */\n          add\n            /* \"#utility.yul\":6432:6434   */\n          0x20\n            /* \"#utility.yul\":6420:6430   */\n          dup6\n            /* \"#utility.yul\":6417:6435   */\n          lt\n            /* \"#utility.yul\":6414:6463   */\n          iszero\n          tag_120\n          jumpi\n            /* \"#utility.yul\":6453:6461   */\n          dup2\n            /* \"#utility.yul\":6438:6461   */\n          swap1\n          pop\n            /* \"#utility.yul\":6414:6463   */\n        tag_120:\n            /* \"#utility.yul\":6476:6556   */\n          tag_121\n            /* \"#utility.yul\":6532:6554   */\n          tag_122\n            /* \"#utility.yul\":6550:6553   */\n          dup6\n            /* \"#utility.yul\":6532:6554   */\n          tag_27\n          jump\t// in\n        tag_122:\n            /* \"#utility.yul\":6522:6530   */\n          dup4\n            /* \"#utility.yul\":6518:6555   */\n          add\n            /* \"#utility.yul\":6505:6516   */\n          dup3\n            /* \"#utility.yul\":6476:6556   */\n          tag_37\n          jump\t// in\n        tag_121:\n            /* \"#utility.yul\":6135:6566   */\n          pop\n          pop\n            /* \"#utility.yul\":6120:6566   */\n        tag_117:\n            /* \"#utility.yul\":6030:6573   */\n          pop\n          pop\n          pop\n          jump\t// out\n            /* \"#utility.yul\":6579:6696   */\n        tag_39:\n            /* \"#utility.yul\":6633:6641   */\n          0x00\n            /* \"#utility.yul\":6683:6688   */\n          dup3\n            /* \"#utility.yul\":6677:6681   */\n          dup3\n            /* \"#utility.yul\":6673:6689   */\n          shr\n            /* \"#utility.yul\":6652:6689   */\n          swap1\n          pop\n            /* \"#utility.yul\":6579:6696   */\n          swap3\n          swap2\n          pop\n          pop\n          jump\t// out\n            /* \"#utility.yul\":6702:6871   */\n        tag_40:\n            /* \"#utility.yul\":6746:6752   */\n          0x00\n            /* \"#utility.yul\":6779:6830   */\n          tag_125\n            /* \"#utility.yul\":6827:6828   */\n          0x00\n            /* \"#utility.yul\":6823:6829   */\n          not\n            /* \"#utility.yul\":6815:6820   */\n          dup5\n            /* \"#utility.yul\":6812:6813   */\n          0x08\n            /* \"#utility.yul\":6808:6821   */\n          mul\n            /* \"#utility.yul\":6779:6830   */\n          tag_39\n          jump\t// in\n        tag_125:\n            /* \"#utility.yul\":6775:6831   */\n          not\n            /* \"#utility.yul\":6860:6864   */\n          dup1\n            /* \"#utility.yul\":6854:6858   */\n          dup4\n            /* \"#utility.yul\":6850:6865   */\n          and\n            /* \"#utility.yul\":6840:6865   */\n          swap2\n          pop\n            /* \"#utility.yul\":6753:6871   */\n          pop\n            /* \"#utility.yul\":6702:6871   */\n          swap3\n          swap2\n          pop\n          pop\n          jump\t// out\n            /* \"#utility.yul\":6876:7171   */\n        tag_41:\n            /* \"#utility.yul\":6952:6956   */\n          0x00\n            /* \"#utility.yul\":7098:7127   */\n          tag_127\n            /* \"#utility.yul\":7123:7126   */\n          dup4\n            /* \"#utility.yul\":7117:7121   */\n          dup4\n            /* \"#utility.yul\":7098:7127   */\n          tag_40\n          jump\t// in\n        tag_127:\n            /* \"#utility.yul\":7090:7127   */\n          swap2\n          pop\n            /* \"#utility.yul\":7160:7163   */\n          dup3\n            /* \"#utility.yul\":7157:7158   */\n          0x02\n            /* \"#utility.yul\":7153:7164   */\n          mul\n            /* \"#utility.yul\":7147:7151   */\n          dup3\n            /* \"#utility.yul\":7144:7165   */\n          or\n            /* \"#utility.yul\":7136:7165   */\n          swap1\n          pop\n            /* \"#utility.yul\":6876:7171   */\n          swap3\n          swap2\n          pop\n          pop\n          jump\t// out\n            /* \"#utility.yul\":7176:8571   */\n        tag_7:\n            /* \"#utility.yul\":7293:7330   */\n          tag_129\n            /* \"#utility.yul\":7326:7329   */\n          dup3\n            /* \"#utility.yul\":7293:7330   */\n          tag_23\n          jump\t// in\n        tag_129:\n            /* \"#utility.yul\":7395:7413   */\n          0xffffffffffffffff\n            /* \"#utility.yul\":7387:7393   */\n          dup2\n            /* \"#utility.yul\":7384:7414   */\n          gt\n            /* \"#utility.yul\":7381:7437   */\n          iszero\n          tag_130\n          jumpi\n            /* \"#utility.yul\":7417:7435   */\n          tag_131\n          tag_16\n          jump\t// in\n        tag_131:\n            /* \"#utility.yul\":7381:7437   */\n        tag_130:\n            /* \"#utility.yul\":7461:7499   */\n          tag_132\n            /* \"#utility.yul\":7493:7497   */\n          dup3\n            /* \"#utility.yul\":7487:7498   */\n          sload\n            /* \"#utility.yul\":7461:7499   */\n          tag_25\n          jump\t// in\n        tag_132:\n            /* \"#utility.yul\":7546:7613   */\n          tag_133\n            /* \"#utility.yul\":7606:7612   */\n          dup3\n            /* \"#utility.yul\":7598:7604   */\n          dup3\n            /* \"#utility.yul\":7592:7596   */\n          dup6\n            /* \"#utility.yul\":7546:7613   */\n          tag_38\n          jump\t// in\n        tag_133:\n            /* \"#utility.yul\":7640:7641   */\n          0x00\n            /* \"#utility.yul\":7664:7668   */\n          0x20\n            /* \"#utility.yul\":7651:7668   */\n          swap1\n          pop\n            /* \"#utility.yul\":7696:7698   */\n          0x1f\n            /* \"#utility.yul\":7688:7694   */\n          dup4\n            /* \"#utility.yul\":7685:7699   */\n          gt\n            /* \"#utility.yul\":7713:7714   */\n          0x01\n            /* \"#utility.yul\":7708:8326   */\n          dup2\n          eq\n          tag_135\n          jumpi\n            /* \"#utility.yul\":8370:8371   */\n          0x00\n            /* \"#utility.yul\":8387:8393   */\n          dup5\n            /* \"#utility.yul\":8384:8461   */\n          iszero\n          tag_136\n          jumpi\n            /* \"#utility.yul\":8436:8445   */\n          dup3\n            /* \"#utility.yul\":8431:8434   */\n          dup8\n            /* \"#utility.yul\":8427:8446   */\n          add\n            /* \"#utility.yul\":8421:8447   */\n          mload\n            /* \"#utility.yul\":8412:8447   */\n          swap1\n          pop\n            /* \"#utility.yul\":8384:8461   */\n        tag_136:\n            /* \"#utility.yul\":8487:8554   */\n          tag_137\n            /* \"#utility.yul\":8547:8553   */\n          dup6\n            /* \"#utility.yul\":8540:8545   */\n          dup3\n            /* \"#utility.yul\":8487:8554   */\n          tag_41\n          jump\t// in\n        tag_137:\n            /* \"#utility.yul\":8481:8485   */\n          dup7\n            /* \"#utility.yul\":8474:8555   */\n          sstore\n            /* \"#utility.yul\":8343:8565   */\n          pop\n            /* \"#utility.yul\":7678:8565   */\n          jump(tag_134)\n            /* \"#utility.yul\":7708:8326   */\n        tag_135:\n            /* \"#utility.yul\":7760:7764   */\n          0x1f\n            /* \"#utility.yul\":7756:7765   */\n          not\n            /* \"#utility.yul\":7748:7754   */\n          dup5\n            /* \"#utility.yul\":7744:7766   */\n          and\n            /* \"#utility.yul\":7794:7831   */\n          tag_138\n            /* \"#utility.yul\":7826:7830   */\n          dup7\n            /* \"#utility.yul\":7794:7831   */\n          tag_26\n          jump\t// in\n        tag_138:\n            /* \"#utility.yul\":7853:7854   */\n          0x00\n            /* \"#utility.yul\":7867:8075   */\n        tag_139:\n            /* \"#utility.yul\":7881:7888   */\n          dup3\n            /* \"#utility.yul\":7878:7879   */\n          dup2\n            /* \"#utility.yul\":7875:7889   */\n          lt\n            /* \"#utility.yul\":7867:8075   */\n          iszero\n          tag_141\n          jumpi\n            /* \"#utility.yul\":7960:7969   */\n          dup5\n            /* \"#utility.yul\":7955:7958   */\n          dup10\n            /* \"#utility.yul\":7951:7970   */\n          add\n            /* \"#utility.yul\":7945:7971   */\n          mload\n            /* \"#utility.yul\":7937:7943   */\n          dup3\n            /* \"#utility.yul\":7930:7972   */\n          sstore\n            /* \"#utility.yul\":8011:8012   */\n          0x01\n            /* \"#utility.yul\":8003:8009   */\n          dup3\n            /* \"#utility.yul\":7999:8013   */\n          add\n            /* \"#utility.yul\":7989:8013   */\n          swap2\n          pop\n            /* \"#utility.yul\":8058:8060   */\n          0x20\n            /* \"#utility.yul\":8047:8056   */\n          dup6\n            /* \"#utility.yul\":8043:8061   */\n          add\n            /* \"#utility.yul\":8030:8061   */\n          swap5\n          pop\n            /* \"#utility.yul\":7904:7908   */\n          0x20\n            /* \"#utility.yul\":7901:7902   */\n          dup2\n            /* \"#utility.yul\":7897:7909   */\n          add\n            /* \"#utility.yul\":7892:7909   */\n          swap1\n          pop\n            /* \"#utility.yul\":7867:8075   */\n          jump(tag_139)\n        tag_141:\n            /* \"#utility.yul\":8103:8109   */\n          dup7\n            /* \"#utility.yul\":8094:8101   */\n          dup4\n            /* \"#utility.yul\":8091:8110   */\n          lt\n            /* \"#utility.yul\":8088:8267   */\n          iszero\n          tag_142\n          jumpi\n            /* \"#utility.yul\":8161:8170   */\n          dup5\n            /* \"#utility.yul\":8156:8159   */\n          dup10\n            /* \"#utility.yul\":8152:8171   */\n          add\n            /* \"#utility.yul\":8146:8172   */\n          mload\n            /* \"#utility.yul\":8204:8252   */\n          tag_143\n            /* \"#utility.yul\":8246:8250   */\n          0x1f\n            /* \"#utility.yul\":8238:8244   */\n          dup10\n            /* \"#utility.yul\":8234:8251   */\n          and\n            /* \"#utility.yul\":8223:8232   */\n          dup3\n            /* \"#utility.yul\":8204:8252   */\n          tag_40\n          jump\t// in\n        tag_143:\n            /* \"#utility.yul\":8196:8202   */\n          dup4\n            /* \"#utility.yul\":8189:8253   */\n          sstore\n            /* \"#utility.yul\":8111:8267   */\n          pop\n            /* \"#utility.yul\":8088:8267   */\n        tag_142:\n            /* \"#utility.yul\":8313:8314   */\n          0x01\n            /* \"#utility.yul\":8309:8310   */\n          0x02\n            /* \"#utility.yul\":8301:8307   */\n          dup9\n            /* \"#utility.yul\":8297:8311   */\n          mul\n            /* \"#utility.yul\":8293:8315   */\n          add\n            /* \"#utility.yul\":8287:8291   */\n          dup9\n            /* \"#utility.yul\":8280:8316   */\n          sstore\n            /* \"#utility.yul\":7715:8326   */\n          pop\n          pop\n          pop\n            /* \"#utility.yul\":7678:8565   */\n        tag_134:\n          pop\n            /* \"#utility.yul\":7268:8571   */\n          pop\n          pop\n          pop\n            /* \"#utility.yul\":7176:8571   */\n          pop\n          pop\n          jump\t// out\n            /* \"BigPicture.sol\":61:270  contract BigPicture {... */\n        tag_9:\n          dataSize(sub_0)\n          dup1\n          dataOffset(sub_0)\n          0x00\n          codecopy\n          0x00\n          return\n        stop\n\n        sub_0: assembly {\n                /* \"BigPicture.sol\":61:270  contract BigPicture {... */\n              mstore(0x40, 0x80)\n              0x00\n              dup1\n              revert\n\n            auxdata: 0xa264697066735822122071dee26986ca928740f62984ec127d718aed2d352b27bbba9a7b786644187f7864736f6c63430008140033\n        }\n    }\n\n    auxdata: 0xa264697066735822122015f1a19f59f7631e84e876350756bcb8cab4b12b1f806869af93b875f6d9036e64736f6c63430008140033\n}\n",
				"bytecode": {
					"linkReferences": {},
					"object": "608060405234801561000f575f80fd5b50610b4e8061001d5f395ff3fe608060405234801562000010575f80fd5b506004361062000038575f3560e01c8063142defed146200003c5780637b4dd5e0146200005e575b5f80fd5b620000466200007e565b604051620000559190620002f3565b60405180910390f35b6200007c60048036038101906200007691906200047e565b6200010a565b005b60605f8054806020026020016040519081016040528092919081815260200182805480156200010057602002820191905f5260205f20905b815f9054906101000a900473ffffffffffffffffffffffffffffffffffffffff1673ffffffffffffffffffffffffffffffffffffffff1681526020019060010190808311620000b6575b5050505050905090565b5f82826040516200011b90620001a9565b6200012892919062000585565b604051809103905ff08015801562000142573d5f803e3d5ffd5b5090505f81908060018154018082558091505060019003905f5260205f20015f9091909190916101000a81548173ffffffffffffffffffffffffffffffffffffffff021916908373ffffffffffffffffffffffffffffffffffffffff160217905550505050565b61055a80620005bf83390190565b5f81519050919050565b5f82825260208201905092915050565b5f819050602082019050919050565b5f73ffffffffffffffffffffffffffffffffffffffff82169050919050565b5f819050919050565b5f62000228620002226200021c84620001e0565b620001ff565b620001e0565b9050919050565b5f6200023b8262000208565b9050919050565b5f6200024e826200022f565b9050919050565b620002608162000242565b82525050565b5f62000273838362000255565b60208301905092915050565b5f602082019050919050565b5f6200029782620001b7565b620002a38185620001c1565b9350620002b083620001d1565b805f5b83811015620002e6578151620002ca888262000266565b9750620002d7836200027f565b925050600181019050620002b3565b5085935050505092915050565b5f6020820190508181035f8301526200030d81846200028b565b905092915050565b5f604051905090565b5f80fd5b5f80fd5b5f80fd5b5f80fd5b5f601f19601f8301169050919050565b7f4e487b71000000000000000000000000000000000000000000000000000000005f52604160045260245ffd5b62000376826200032e565b810181811067ffffffffffffffff821117156200039857620003976200033e565b5b80604052505050565b5f620003ac62000315565b9050620003ba82826200036b565b919050565b5f67ffffffffffffffff821115620003dc57620003db6200033e565b5b620003e7826200032e565b9050602081019050919050565b828183375f83830152505050565b5f620004186200041284620003bf565b620003a1565b9050828152602081018484840111156200043757620004366200032a565b5b62000444848285620003f4565b509392505050565b5f82601f83011262000463576200046262000326565b5b81356200047584826020860162000402565b91505092915050565b5f80604083850312156200049757620004966200031e565b5b5f83013567ffffffffffffffff811115620004b757620004b662000322565b5b620004c5858286016200044c565b925050602083013567ffffffffffffffff811115620004e957620004e862000322565b5b620004f7858286016200044c565b9150509250929050565b5f81519050919050565b5f82825260208201905092915050565b5f5b838110156200053a5780820151818401526020810190506200051d565b5f8484015250505050565b5f620005518262000501565b6200055d81856200050b565b93506200056f8185602086016200051b565b6200057a816200032e565b840191505092915050565b5f6040820190508181035f8301526200059f818562000545565b90508181036020830152620005b5818462000545565b9050939250505056fe608060405234801561000f575f80fd5b5060405161055a38038061055a833981810160405281019061003191906101be565b815f908161003f9190610441565b50806001908161004f9190610441565b505050610510565b5f604051905090565b5f80fd5b5f80fd5b5f80fd5b5f80fd5b5f601f19601f8301169050919050565b7f4e487b71000000000000000000000000000000000000000000000000000000005f52604160045260245ffd5b6100b682610070565b810181811067ffffffffffffffff821117156100d5576100d4610080565b5b80604052505050565b5f6100e7610057565b90506100f382826100ad565b919050565b5f67ffffffffffffffff82111561011257610111610080565b5b61011b82610070565b9050602081019050919050565b5f5b8381101561014557808201518184015260208101905061012a565b5f8484015250505050565b5f61016261015d846100f8565b6100de565b90508281526020810184848401111561017e5761017d61006c565b5b610189848285610128565b509392505050565b5f82601f8301126101a5576101a4610068565b5b81516101b5848260208601610150565b91505092915050565b5f80604083850312156101d4576101d3610060565b5b5f83015167ffffffffffffffff8111156101f1576101f0610064565b5b6101fd85828601610191565b925050602083015167ffffffffffffffff81111561021e5761021d610064565b5b61022a85828601610191565b9150509250929050565b5f81519050919050565b7f4e487b71000000000000000000000000000000000000000000000000000000005f52602260045260245ffd5b5f600282049050600182168061028257607f821691505b6020821081036102955761029461023e565b5b50919050565b5f819050815f5260205f209050919050565b5f6020601f8301049050919050565b5f82821b905092915050565b5f600883026102f77fffffffffffffffffffffffffffffffffffffffffffffffffffffffffffffffff826102bc565b61030186836102bc565b95508019841693508086168417925050509392505050565b5f819050919050565b5f819050919050565b5f61034561034061033b84610319565b610322565b610319565b9050919050565b5f819050919050565b61035e8361032b565b61037261036a8261034c565b8484546102c8565b825550505050565b5f90565b61038661037a565b610391818484610355565b505050565b5b818110156103b4576103a95f8261037e565b600181019050610397565b5050565b601f8211156103f9576103ca8161029b565b6103d3846102ad565b810160208510156103e2578190505b6103f66103ee856102ad565b830182610396565b50505b505050565b5f82821c905092915050565b5f6104195f19846008026103fe565b1980831691505092915050565b5f610431838361040a565b9150826002028217905092915050565b61044a82610234565b67ffffffffffffffff81111561046357610462610080565b5b61046d825461026b565b6104788282856103b8565b5f60209050601f8311600181146104a9575f8415610497578287015190505b6104a18582610426565b865550610508565b601f1984166104b78661029b565b5f5b828110156104de578489015182556001820191506020850194506020810190506104b9565b868310156104fb57848901516104f7601f89168261040a565b8355505b6001600288020188555050505b505050505050565b603e8061051c5f395ff3fe60806040525f80fdfea264697066735822122071dee26986ca928740f62984ec127d718aed2d352b27bbba9a7b786644187f7864736f6c63430008140033a264697066735822122015f1a19f59f7631e84e876350756bcb8cab4b12b1f806869af93b875f6d9036e64736f6c63430008140033",
					"opcodes": "PUSH1 0x80 PUSH1 0x40 MSTORE CALLVALUE DUP1 ISZERO PUSH2 0xF JUMPI PUSH0 DUP1 REVERT JUMPDEST POP PUSH2 0xB4E DUP1 PUSH2 0x1D PUSH0 CODECOPY PUSH0 RETURN INVALID PUSH1 0x80 PUSH1 0x40 MSTORE CALLVALUE DUP1 ISZERO PUSH3 0x10 JUMPI PUSH0 DUP1 REVERT JUMPDEST POP PUSH1 0x4 CALLDATASIZE LT PUSH3 0x38 JUMPI PUSH0 CALLDATALOAD PUSH1 0xE0 SHR DUP1 PUSH4 0x142DEFED EQ PUSH3 0x3C JUMPI DUP1 PUSH4 0x7B4DD5E0 EQ PUSH3 0x5E JUMPI JUMPDEST PUSH0 DUP1 REVERT JUMPDEST PUSH3 0x46 PUSH3 0x7E JUMP JUMPDEST PUSH1 0x40 MLOAD PUSH3 0x55 SWAP2 SWAP1 PUSH3 0x2F3 JUMP JUMPDEST PUSH1 0x40 MLOAD DUP1 SWAP2 SUB SWAP1 RETURN JUMPDEST PUSH3 0x7C PUSH1 0x4 DUP1 CALLDATASIZE SUB DUP2 ADD SWAP1 PUSH3 0x76 SWAP2 SWAP1 PUSH3 0x47E JUMP JUMPDEST PUSH3 0x10A JUMP JUMPDEST STOP JUMPDEST PUSH1 0x60 PUSH0 DUP1 SLOAD DUP1 PUSH1 0x20 MUL PUSH1 0x20 ADD PUSH1 0x40 MLOAD SWAP1 DUP2 ADD PUSH1 0x40 MSTORE DUP1 SWAP3 SWAP2 SWAP1 DUP2 DUP2 MSTORE PUSH1 0x20 ADD DUP3 DUP1 SLOAD DUP1 ISZERO PUSH3 0x100 JUMPI PUSH1 0x20 MUL DUP3 ADD SWAP2 SWAP1 PUSH0 MSTORE PUSH1 0x20 PUSH0 KECCAK256 SWAP1 JUMPDEST DUP2 PUSH0 SWAP1 SLOAD SWAP1 PUSH2 0x100 EXP SWAP1 DIV PUSH20 0xFFFFFFFFFFFFFFFFFFFFFFFFFFFFFFFFFFFFFFFF AND PUSH20 0xFFFFFFFFFFFFFFFFFFFFFFFFFFFFFFFFFFFFFFFF AND DUP2 MSTORE PUSH1 0x20 ADD SWAP1 PUSH1 0x1 ADD SWAP1 DUP1 DUP4 GT PUSH3 0xB6 JUMPI JUMPDEST POP POP POP POP POP SWAP1 POP SWAP1 JUMP JUMPDEST PUSH0 DUP3 DUP3 PUSH1 0x40 MLOAD PUSH3 0x11B SWAP1 PUSH3 0x1A9 JUMP JUMPDEST PUSH3 0x128 SWAP3 SWAP2 SWAP1 PUSH3 0x585 JUMP JUMPDEST PUSH1 0x40 MLOAD DUP1 SWAP2 SUB SWAP1 PUSH0 CREATE DUP1 ISZERO DUP1 ISZERO PUSH3 0x142 JUMPI RETURNDATASIZE PUSH0 DUP1 RETURNDATACOPY RETURNDATASIZE PUSH0 REVERT JUMPDEST POP SWAP1 POP PUSH0 DUP2 SWAP1 DUP1 PUSH1 0x1 DUP2 SLOAD ADD DUP1 DUP3 SSTORE DUP1 SWAP2 POP POP PUSH1 0x1 SWAP1 SUB SWAP1 PUSH0 MSTORE PUSH1 0x20 PUSH0 KECCAK256 ADD PUSH0 SWAP1 SWAP2 SWAP1 SWAP2 SWAP1 SWAP2 PUSH2 0x100 EXP DUP2 SLOAD DUP2 PUSH20 0xFFFFFFFFFFFFFFFFFFFFFFFFFFFFFFFFFFFFFFFF MUL NOT AND SWAP1 DUP4 PUSH20 0xFFFFFFFFFFFFFFFFFFFFFFFFFFFFFFFFFFFFFFFF AND MUL OR SWAP1 SSTORE POP POP POP POP JUMP JUMPDEST PUSH2 0x55A DUP1 PUSH3 0x5BF DUP4 CODECOPY ADD SWAP1 JUMP JUMPDEST PUSH0 DUP2 MLOAD SWAP1 POP SWAP2 SWAP1 POP JUMP JUMPDEST PUSH0 DUP3 DUP3 MSTORE PUSH1 0x20 DUP3 ADD SWAP1 POP SWAP3 SWAP2 POP POP JUMP JUMPDEST PUSH0 DUP2 SWAP1 POP PUSH1 0x20 DUP3 ADD SWAP1 POP SWAP2 SWAP1 POP JUMP JUMPDEST PUSH0 PUSH20 0xFFFFFFFFFFFFFFFFFFFFFFFFFFFFFFFFFFFFFFFF DUP3 AND SWAP1 POP SWAP2 SWAP1 POP JUMP JUMPDEST PUSH0 DUP2 SWAP1 POP SWAP2 SWAP1 POP JUMP JUMPDEST PUSH0 PUSH3 0x228 PUSH3 0x222 PUSH3 0x21C DUP5 PUSH3 0x1E0 JUMP JUMPDEST PUSH3 0x1FF JUMP JUMPDEST PUSH3 0x1E0 JUMP JUMPDEST SWAP1 POP SWAP2 SWAP1 POP JUMP JUMPDEST PUSH0 PUSH3 0x23B DUP3 PUSH3 0x208 JUMP JUMPDEST SWAP1 POP SWAP2 SWAP1 POP JUMP JUMPDEST PUSH0 PUSH3 0x24E DUP3 PUSH3 0x22F JUMP JUMPDEST SWAP1 POP SWAP2 SWAP1 POP JUMP JUMPDEST PUSH3 0x260 DUP2 PUSH3 0x242 JUMP JUMPDEST DUP3 MSTORE POP POP JUMP JUMPDEST PUSH0 PUSH3 0x273 DUP4 DUP4 PUSH3 0x255 JUMP JUMPDEST PUSH1 0x20 DUP4 ADD SWAP1 POP SWAP3 SWAP2 POP POP JUMP JUMPDEST PUSH0 PUSH1 0x20 DUP3 ADD SWAP1 POP SWAP2 SWAP1 POP JUMP JUMPDEST PUSH0 PUSH3 0x297 DUP3 PUSH3 0x1B7 JUMP JUMPDEST PUSH3 0x2A3 DUP2 DUP6 PUSH3 0x1C1 JUMP JUMPDEST SWAP4 POP PUSH3 0x2B0 DUP4 PUSH3 0x1D1 JUMP JUMPDEST DUP1 PUSH0 JUMPDEST DUP4 DUP2 LT ISZERO PUSH3 0x2E6 JUMPI DUP2 MLOAD PUSH3 0x2CA DUP9 DUP3 PUSH3 0x266 JUMP JUMPDEST SWAP8 POP PUSH3 0x2D7 DUP4 PUSH3 0x27F JUMP JUMPDEST SWAP3 POP POP PUSH1 0x1 DUP2 ADD SWAP1 POP PUSH3 0x2B3 JUMP JUMPDEST POP DUP6 SWAP4 POP POP POP POP SWAP3 SWAP2 POP POP JUMP JUMPDEST PUSH0 PUSH1 0x20 DUP3 ADD SWAP1 POP DUP2 DUP2 SUB PUSH0 DUP4 ADD MSTORE PUSH3 0x30D DUP2 DUP5 PUSH3 0x28B JUMP JUMPDEST SWAP1 POP SWAP3 SWAP2 POP POP JUMP JUMPDEST PUSH0 PUSH1 0x40 MLOAD SWAP1 POP SWAP1 JUMP JUMPDEST PUSH0 DUP1 REVERT JUMPDEST PUSH0 DUP1 REVERT JUMPDEST PUSH0 DUP1 REVERT JUMPDEST PUSH0 DUP1 REVERT JUMPDEST PUSH0 PUSH1 0x1F NOT PUSH1 0x1F DUP4 ADD AND SWAP1 POP SWAP2 SWAP1 POP JUMP JUMPDEST PUSH32 0x4E487B7100000000000000000000000000000000000000000000000000000000 PUSH0 MSTORE PUSH1 0x41 PUSH1 0x4 MSTORE PUSH1 0x24 PUSH0 REVERT JUMPDEST PUSH3 0x376 DUP3 PUSH3 0x32E JUMP JUMPDEST DUP2 ADD DUP2 DUP2 LT PUSH8 0xFFFFFFFFFFFFFFFF DUP3 GT OR ISZERO PUSH3 0x398 JUMPI PUSH3 0x397 PUSH3 0x33E JUMP JUMPDEST JUMPDEST DUP1 PUSH1 0x40 MSTORE POP POP POP JUMP JUMPDEST PUSH0 PUSH3 0x3AC PUSH3 0x315 JUMP JUMPDEST SWAP1 POP PUSH3 0x3BA DUP3 DUP3 PUSH3 0x36B JUMP JUMPDEST SWAP2 SWAP1 POP JUMP JUMPDEST PUSH0 PUSH8 0xFFFFFFFFFFFFFFFF DUP3 GT ISZERO PUSH3 0x3DC JUMPI PUSH3 0x3DB PUSH3 0x33E JUMP JUMPDEST JUMPDEST PUSH3 0x3E7 DUP3 PUSH3 0x32E JUMP JUMPDEST SWAP1 POP PUSH1 0x20 DUP2 ADD SWAP1 POP SWAP2 SWAP1 POP JUMP JUMPDEST DUP3 DUP2 DUP4 CALLDATACOPY PUSH0 DUP4 DUP4 ADD MSTORE POP POP POP JUMP JUMPDEST PUSH0 PUSH3 0x418 PUSH3 0x412 DUP5 PUSH3 0x3BF JUMP JUMPDEST PUSH3 0x3A1 JUMP JUMPDEST SWAP1 POP DUP3 DUP2 MSTORE PUSH1 0x20 DUP2 ADD DUP5 DUP5 DUP5 ADD GT ISZERO PUSH3 0x437 JUMPI PUSH3 0x436 PUSH3 0x32A JUMP JUMPDEST JUMPDEST PUSH3 0x444 DUP5 DUP3 DUP6 PUSH3 0x3F4 JUMP JUMPDEST POP SWAP4 SWAP3 POP POP POP JUMP JUMPDEST PUSH0 DUP3 PUSH1 0x1F DUP4 ADD SLT PUSH3 0x463 JUMPI PUSH3 0x462 PUSH3 0x326 JUMP JUMPDEST JUMPDEST DUP2 CALLDATALOAD PUSH3 0x475 DUP5 DUP3 PUSH1 0x20 DUP7 ADD PUSH3 0x402 JUMP JUMPDEST SWAP2 POP POP SWAP3 SWAP2 POP POP JUMP JUMPDEST PUSH0 DUP1 PUSH1 0x40 DUP4 DUP6 SUB SLT ISZERO PUSH3 0x497 JUMPI PUSH3 0x496 PUSH3 0x31E JUMP JUMPDEST JUMPDEST PUSH0 DUP4 ADD CALLDATALOAD PUSH8 0xFFFFFFFFFFFFFFFF DUP2 GT ISZERO PUSH3 0x4B7 JUMPI PUSH3 0x4B6 PUSH3 0x322 JUMP JUMPDEST JUMPDEST PUSH3 0x4C5 DUP6 DUP3 DUP7 ADD PUSH3 0x44C JUMP JUMPDEST SWAP3 POP POP PUSH1 0x20 DUP4 ADD CALLDATALOAD PUSH8 0xFFFFFFFFFFFFFFFF DUP2 GT ISZERO PUSH3 0x4E9 JUMPI PUSH3 0x4E8 PUSH3 0x322 JUMP JUMPDEST JUMPDEST PUSH3 0x4F7 DUP6 DUP3 DUP7 ADD PUSH3 0x44C JUMP JUMPDEST SWAP2 POP POP SWAP3 POP SWAP3 SWAP1 POP JUMP JUMPDEST PUSH0 DUP2 MLOAD SWAP1 POP SWAP2 SWAP1 POP JUMP JUMPDEST PUSH0 DUP3 DUP3 MSTORE PUSH1 0x20 DUP3 ADD SWAP1 POP SWAP3 SWAP2 POP POP JUMP JUMPDEST PUSH0 JUMPDEST DUP4 DUP2 LT ISZERO PUSH3 0x53A JUMPI DUP1 DUP3 ADD MLOAD DUP2 DUP5 ADD MSTORE PUSH1 0x20 DUP2 ADD SWAP1 POP PUSH3 0x51D JUMP JUMPDEST PUSH0 DUP5 DUP5 ADD MSTORE POP POP POP POP JUMP JUMPDEST PUSH0 PUSH3 0x551 DUP3 PUSH3 0x501 JUMP JUMPDEST PUSH3 0x55D DUP2 DUP6 PUSH3 0x50B JUMP JUMPDEST SWAP4 POP PUSH3 0x56F DUP2 DUP6 PUSH1 0x20 DUP7 ADD PUSH3 0x51B JUMP JUMPDEST PUSH3 0x57A DUP2 PUSH3 0x32E JUMP JUMPDEST DUP5 ADD SWAP2 POP POP SWAP3 SWAP2 POP POP JUMP JUMPDEST PUSH0 PUSH1 0x40 DUP3 ADD SWAP1 POP DUP2 DUP2 SUB PUSH0 DUP4 ADD MSTORE PUSH3 0x59F DUP2 DUP6 PUSH3 0x545 JUMP JUMPDEST SWAP1 POP DUP2 DUP2 SUB PUSH1 0x20 DUP4 ADD MSTORE PUSH3 0x5B5 DUP2 DUP5 PUSH3 0x545 JUMP JUMPDEST SWAP1 POP SWAP4 SWAP3 POP POP POP JUMP INVALID PUSH1 0x80 PUSH1 0x40 MSTORE CALLVALUE DUP1 ISZERO PUSH2 0xF JUMPI PUSH0 DUP1 REVERT JUMPDEST POP PUSH1 0x40 MLOAD PUSH2 0x55A CODESIZE SUB DUP1 PUSH2 0x55A DUP4 CODECOPY DUP2 DUP2 ADD PUSH1 0x40 MSTORE DUP2 ADD SWAP1 PUSH2 0x31 SWAP2 SWAP1 PUSH2 0x1BE JUMP JUMPDEST DUP2 PUSH0 SWAP1 DUP2 PUSH2 0x3F SWAP2 SWAP1 PUSH2 0x441 JUMP JUMPDEST POP DUP1 PUSH1 0x1 SWAP1 DUP2 PUSH2 0x4F SWAP2 SWAP1 PUSH2 0x441 JUMP JUMPDEST POP POP POP PUSH2 0x510 JUMP JUMPDEST PUSH0 PUSH1 0x40 MLOAD SWAP1 POP SWAP1 JUMP JUMPDEST PUSH0 DUP1 REVERT JUMPDEST PUSH0 DUP1 REVERT JUMPDEST PUSH0 DUP1 REVERT JUMPDEST PUSH0 DUP1 REVERT JUMPDEST PUSH0 PUSH1 0x1F NOT PUSH1 0x1F DUP4 ADD AND SWAP1 POP SWAP2 SWAP1 POP JUMP JUMPDEST PUSH32 0x4E487B7100000000000000000000000000000000000000000000000000000000 PUSH0 MSTORE PUSH1 0x41 PUSH1 0x4 MSTORE PUSH1 0x24 PUSH0 REVERT JUMPDEST PUSH2 0xB6 DUP3 PUSH2 0x70 JUMP JUMPDEST DUP2 ADD DUP2 DUP2 LT PUSH8 0xFFFFFFFFFFFFFFFF DUP3 GT OR ISZERO PUSH2 0xD5 JUMPI PUSH2 0xD4 PUSH2 0x80 JUMP JUMPDEST JUMPDEST DUP1 PUSH1 0x40 MSTORE POP POP POP JUMP JUMPDEST PUSH0 PUSH2 0xE7 PUSH2 0x57 JUMP JUMPDEST SWAP1 POP PUSH2 0xF3 DUP3 DUP3 PUSH2 0xAD JUMP JUMPDEST SWAP2 SWAP1 POP JUMP JUMPDEST PUSH0 PUSH8 0xFFFFFFFFFFFFFFFF DUP3 GT ISZERO PUSH2 0x112 JUMPI PUSH2 0x111 PUSH2 0x80 JUMP JUMPDEST JUMPDEST PUSH2 0x11B DUP3 PUSH2 0x70 JUMP JUMPDEST SWAP1 POP PUSH1 0x20 DUP2 ADD SWAP1 POP SWAP2 SWAP1 POP JUMP JUMPDEST PUSH0 JUMPDEST DUP4 DUP2 LT ISZERO PUSH2 0x145 JUMPI DUP1 DUP3 ADD MLOAD DUP2 DUP5 ADD MSTORE PUSH1 0x20 DUP2 ADD SWAP1 POP PUSH2 0x12A JUMP JUMPDEST PUSH0 DUP5 DUP5 ADD MSTORE POP POP POP POP JUMP JUMPDEST PUSH0 PUSH2 0x162 PUSH2 0x15D DUP5 PUSH2 0xF8 JUMP JUMPDEST PUSH2 0xDE JUMP JUMPDEST SWAP1 POP DUP3 DUP2 MSTORE PUSH1 0x20 DUP2 ADD DUP5 DUP5 DUP5 ADD GT ISZERO PUSH2 0x17E JUMPI PUSH2 0x17D PUSH2 0x6C JUMP JUMPDEST JUMPDEST PUSH2 0x189 DUP5 DUP3 DUP6 PUSH2 0x128 JUMP JUMPDEST POP SWAP4 SWAP3 POP POP POP JUMP JUMPDEST PUSH0 DUP3 PUSH1 0x1F DUP4 ADD SLT PUSH2 0x1A5 JUMPI PUSH2 0x1A4 PUSH2 0x68 JUMP JUMPDEST JUMPDEST DUP2 MLOAD PUSH2 0x1B5 DUP5 DUP3 PUSH1 0x20 DUP7 ADD PUSH2 0x150 JUMP JUMPDEST SWAP2 POP POP SWAP3 SWAP2 POP POP JUMP JUMPDEST PUSH0 DUP1 PUSH1 0x40 DUP4 DUP6 SUB SLT ISZERO PUSH2 0x1D4 JUMPI PUSH2 0x1D3 PUSH2 0x60 JUMP JUMPDEST JUMPDEST PUSH0 DUP4 ADD MLOAD PUSH8 0xFFFFFFFFFFFFFFFF DUP2 GT ISZERO PUSH2 0x1F1 JUMPI PUSH2 0x1F0 PUSH2 0x64 JUMP JUMPDEST JUMPDEST PUSH2 0x1FD DUP6 DUP3 DUP7 ADD PUSH2 0x191 JUMP JUMPDEST SWAP3 POP POP PUSH1 0x20 DUP4 ADD MLOAD PUSH8 0xFFFFFFFFFFFFFFFF DUP2 GT ISZERO PUSH2 0x21E JUMPI PUSH2 0x21D PUSH2 0x64 JUMP JUMPDEST JUMPDEST PUSH2 0x22A DUP6 DUP3 DUP7 ADD PUSH2 0x191 JUMP JUMPDEST SWAP2 POP POP SWAP3 POP SWAP3 SWAP1 POP JUMP JUMPDEST PUSH0 DUP2 MLOAD SWAP1 POP SWAP2 SWAP1 POP JUMP JUMPDEST PUSH32 0x4E487B7100000000000000000000000000000000000000000000000000000000 PUSH0 MSTORE PUSH1 0x22 PUSH1 0x4 MSTORE PUSH1 0x24 PUSH0 REVERT JUMPDEST PUSH0 PUSH1 0x2 DUP3 DIV SWAP1 POP PUSH1 0x1 DUP3 AND DUP1 PUSH2 0x282 JUMPI PUSH1 0x7F DUP3 AND SWAP2 POP JUMPDEST PUSH1 0x20 DUP3 LT DUP2 SUB PUSH2 0x295 JUMPI PUSH2 0x294 PUSH2 0x23E JUMP JUMPDEST JUMPDEST POP SWAP2 SWAP1 POP JUMP JUMPDEST PUSH0 DUP2 SWAP1 POP DUP2 PUSH0 MSTORE PUSH1 0x20 PUSH0 KECCAK256 SWAP1 POP SWAP2 SWAP1 POP JUMP JUMPDEST PUSH0 PUSH1 0x20 PUSH1 0x1F DUP4 ADD DIV SWAP1 POP SWAP2 SWAP1 POP JUMP JUMPDEST PUSH0 DUP3 DUP3 SHL SWAP1 POP SWAP3 SWAP2 POP POP JUMP JUMPDEST PUSH0 PUSH1 0x8 DUP4 MUL PUSH2 0x2F7 PUSH32 0xFFFFFFFFFFFFFFFFFFFFFFFFFFFFFFFFFFFFFFFFFFFFFFFFFFFFFFFFFFFFFFFF DUP3 PUSH2 0x2BC JUMP JUMPDEST PUSH2 0x301 DUP7 DUP4 PUSH2 0x2BC JUMP JUMPDEST SWAP6 POP DUP1 NOT DUP5 AND SWAP4 POP DUP1 DUP7 AND DUP5 OR SWAP3 POP POP POP SWAP4 SWAP3 POP POP POP JUMP JUMPDEST PUSH0 DUP2 SWAP1 POP SWAP2 SWAP1 POP JUMP JUMPDEST PUSH0 DUP2 SWAP1 POP SWAP2 SWAP1 POP JUMP JUMPDEST PUSH0 PUSH2 0x345 PUSH2 0x340 PUSH2 0x33B DUP5 PUSH2 0x319 JUMP JUMPDEST PUSH2 0x322 JUMP JUMPDEST PUSH2 0x319 JUMP JUMPDEST SWAP1 POP SWAP2 SWAP1 POP JUMP JUMPDEST PUSH0 DUP2 SWAP1 POP SWAP2 SWAP1 POP JUMP JUMPDEST PUSH2 0x35E DUP4 PUSH2 0x32B JUMP JUMPDEST PUSH2 0x372 PUSH2 0x36A DUP3 PUSH2 0x34C JUMP JUMPDEST DUP5 DUP5 SLOAD PUSH2 0x2C8 JUMP JUMPDEST DUP3 SSTORE POP POP POP POP JUMP JUMPDEST PUSH0 SWAP1 JUMP JUMPDEST PUSH2 0x386 PUSH2 0x37A JUMP JUMPDEST PUSH2 0x391 DUP2 DUP5 DUP5 PUSH2 0x355 JUMP JUMPDEST POP POP POP JUMP JUMPDEST JUMPDEST DUP2 DUP2 LT ISZERO PUSH2 0x3B4 JUMPI PUSH2 0x3A9 PUSH0 DUP3 PUSH2 0x37E JUMP JUMPDEST PUSH1 0x1 DUP2 ADD SWAP1 POP PUSH2 0x397 JUMP JUMPDEST POP POP JUMP JUMPDEST PUSH1 0x1F DUP3 GT ISZERO PUSH2 0x3F9 JUMPI PUSH2 0x3CA DUP2 PUSH2 0x29B JUMP JUMPDEST PUSH2 0x3D3 DUP5 PUSH2 0x2AD JUMP JUMPDEST DUP2 ADD PUSH1 0x20 DUP6 LT ISZERO PUSH2 0x3E2 JUMPI DUP2 SWAP1 POP JUMPDEST PUSH2 0x3F6 PUSH2 0x3EE DUP6 PUSH2 0x2AD JUMP JUMPDEST DUP4 ADD DUP3 PUSH2 0x396 JUMP JUMPDEST POP POP JUMPDEST POP POP POP JUMP JUMPDEST PUSH0 DUP3 DUP3 SHR SWAP1 POP SWAP3 SWAP2 POP POP JUMP JUMPDEST PUSH0 PUSH2 0x419 PUSH0 NOT DUP5 PUSH1 0x8 MUL PUSH2 0x3FE JUMP JUMPDEST NOT DUP1 DUP4 AND SWAP2 POP POP SWAP3 SWAP2 POP POP JUMP JUMPDEST PUSH0 PUSH2 0x431 DUP4 DUP4 PUSH2 0x40A JUMP JUMPDEST SWAP2 POP DUP3 PUSH1 0x2 MUL DUP3 OR SWAP1 POP SWAP3 SWAP2 POP POP JUMP JUMPDEST PUSH2 0x44A DUP3 PUSH2 0x234 JUMP JUMPDEST PUSH8 0xFFFFFFFFFFFFFFFF DUP2 GT ISZERO PUSH2 0x463 JUMPI PUSH2 0x462 PUSH2 0x80 JUMP JUMPDEST JUMPDEST PUSH2 0x46D DUP3 SLOAD PUSH2 0x26B JUMP JUMPDEST PUSH2 0x478 DUP3 DUP3 DUP6 PUSH2 0x3B8 JUMP JUMPDEST PUSH0 PUSH1 0x20 SWAP1 POP PUSH1 0x1F DUP4 GT PUSH1 0x1 DUP2 EQ PUSH2 0x4A9 JUMPI PUSH0 DUP5 ISZERO PUSH2 0x497 JUMPI DUP3 DUP8 ADD MLOAD SWAP1 POP JUMPDEST PUSH2 0x4A1 DUP6 DUP3 PUSH2 0x426 JUMP JUMPDEST DUP7 SSTORE POP PUSH2 0x508 JUMP JUMPDEST PUSH1 0x1F NOT DUP5 AND PUSH2 0x4B7 DUP7 PUSH2 0x29B JUMP JUMPDEST PUSH0 JUMPDEST DUP3 DUP2 LT ISZERO PUSH2 0x4DE JUMPI DUP5 DUP10 ADD MLOAD DUP3 SSTORE PUSH1 0x1 DUP3 ADD SWAP2 POP PUSH1 0x20 DUP6 ADD SWAP5 POP PUSH1 0x20 DUP2 ADD SWAP1 POP PUSH2 0x4B9 JUMP JUMPDEST DUP7 DUP4 LT ISZERO PUSH2 0x4FB JUMPI DUP5 DUP10 ADD MLOAD PUSH2 0x4F7 PUSH1 0x1F DUP10 AND DUP3 PUSH2 0x40A JUMP JUMPDEST DUP4 SSTORE POP JUMPDEST PUSH1 0x1 PUSH1 0x2 DUP9 MUL ADD DUP9 SSTORE POP POP POP JUMPDEST POP POP POP POP POP POP JUMP JUMPDEST PUSH1 0x3E DUP1 PUSH2 0x51C PUSH0 CODECOPY PUSH0 RETURN INVALID PUSH1 0x80 PUSH1 0x40 MSTORE PUSH0 DUP1 REVERT INVALID LOG2 PUSH5 0x6970667358 0x22 SLT KECCAK256 PUSH18 0xDEE26986CA928740F62984EC127D718AED2D CALLDATALOAD 0x2B 0x27 0xBB 0xBA SWAP11 PUSH28 0x786644187F7864736F6C63430008140033A264697066735822122015 CALL LOG1 SWAP16 MSIZE 0xF7 PUSH4 0x1E84E876 CALLDATALOAD SMOD JUMP 0xBC 0xB8 0xCA 0xB4 0xB1 0x2B 0x1F DUP1 PUSH9 0x69AF93B875F6D9036E PUSH5 0x736F6C6343 STOP ADDMOD EQ STOP CALLER "
				},
				"gasEstimates": {
					"creation": {
						"codeDepositCost": "578800",
						"executionCost": "611",
						"totalCost": "579411"
					},
					"external": {
						"createBigPicture(string,string)": "infinite",
						"getDeployedBigPictures()": "infinite"
					}
				},
				"methodIdentifiers": {
					"createBigPicture(string,string)": "7b4dd5e0",
					"getDeployedBigPictures()": "142defed"
				}
			},
			"storageLayout": {
				"storage": [
					{
						"astId": 29,
						"contract": "PictureFactory.sol:BigPictureFactory",
						"label": "deployedBigPictures",
						"offset": 0,
						"slot": "0",
						"type": "t_array(t_contract(BigPicture)22)dyn_storage"
					}
				],
				"types": {
					"t_array(t_contract(BigPicture)22)dyn_storage": {
						"base": "t_contract(BigPicture)22",
						"encoding": "dynamic_array",
						"label": "contract BigPicture[]",
						"numberOfBytes": "32"
					},
					"t_contract(BigPicture)22": {
						"encoding": "inplace",
						"label": "contract BigPicture",
						"numberOfBytes": "20"
					}
				}
			},
			"userdoc": {
				"kind": "user",
				"methods": {},
				"version": 1
			}
		}
	}
}