{
	"PictureToken.sol": {
		"PictureToken": {
			"abi": [
				{
					"inputs": [
						{
							"internalType": "address",
							"name": "initialOwner",
							"type": "address"
						},
						{
							"internalType": "string",
							"name": "_image",
							"type": "string"
						}
					],
					"stateMutability": "nonpayable",
					"type": "constructor"
				},
				{
					"inputs": [
						{
							"internalType": "address",
							"name": "sender",
							"type": "address"
						},
						{
							"internalType": "uint256",
							"name": "tokenId",
							"type": "uint256"
						},
						{
							"internalType": "address",
							"name": "owner",
							"type": "address"
						}
					],
					"name": "ERC721IncorrectOwner",
					"type": "error"
				},
				{
					"inputs": [
						{
							"internalType": "address",
							"name": "operator",
							"type": "address"
						},
						{
							"internalType": "uint256",
							"name": "tokenId",
							"type": "uint256"
						}
					],
					"name": "ERC721InsufficientApproval",
					"type": "error"
				},
				{
					"inputs": [
						{
							"internalType": "address",
							"name": "approver",
							"type": "address"
						}
					],
					"name": "ERC721InvalidApprover",
					"type": "error"
				},
				{
					"inputs": [
						{
							"internalType": "address",
							"name": "operator",
							"type": "address"
						}
					],
					"name": "ERC721InvalidOperator",
					"type": "error"
				},
				{
					"inputs": [
						{
							"internalType": "address",
							"name": "owner",
							"type": "address"
						}
					],
					"name": "ERC721InvalidOwner",
					"type": "error"
				},
				{
					"inputs": [
						{
							"internalType": "address",
							"name": "receiver",
							"type": "address"
						}
					],
					"name": "ERC721InvalidReceiver",
					"type": "error"
				},
				{
					"inputs": [
						{
							"internalType": "address",
							"name": "sender",
							"type": "address"
						}
					],
					"name": "ERC721InvalidSender",
					"type": "error"
				},
				{
					"inputs": [
						{
							"internalType": "uint256",
							"name": "tokenId",
							"type": "uint256"
						}
					],
					"name": "ERC721NonexistentToken",
					"type": "error"
				},
				{
					"inputs": [
						{
							"internalType": "address",
							"name": "owner",
							"type": "address"
						}
					],
					"name": "OwnableInvalidOwner",
					"type": "error"
				},
				{
					"inputs": [
						{
							"internalType": "address",
							"name": "account",
							"type": "address"
						}
					],
					"name": "OwnableUnauthorizedAccount",
					"type": "error"
				},
				{
					"anonymous": false,
					"inputs": [
						{
							"indexed": true,
							"internalType": "address",
							"name": "owner",
							"type": "address"
						},
						{
							"indexed": true,
							"internalType": "address",
							"name": "approved",
							"type": "address"
						},
						{
							"indexed": true,
							"internalType": "uint256",
							"name": "tokenId",
							"type": "uint256"
						}
					],
					"name": "Approval",
					"type": "event"
				},
				{
					"anonymous": false,
					"inputs": [
						{
							"indexed": true,
							"internalType": "address",
							"name": "owner",
							"type": "address"
						},
						{
							"indexed": true,
							"internalType": "address",
							"name": "operator",
							"type": "address"
						},
						{
							"indexed": false,
							"internalType": "bool",
							"name": "approved",
							"type": "bool"
						}
					],
					"name": "ApprovalForAll",
					"type": "event"
				},
				{
					"anonymous": false,
					"inputs": [
						{
							"indexed": true,
							"internalType": "address",
							"name": "previousOwner",
							"type": "address"
						},
						{
							"indexed": true,
							"internalType": "address",
							"name": "newOwner",
							"type": "address"
						}
					],
					"name": "OwnershipTransferred",
					"type": "event"
				},
				{
					"anonymous": false,
					"inputs": [
						{
							"indexed": true,
							"internalType": "address",
							"name": "from",
							"type": "address"
						},
						{
							"indexed": true,
							"internalType": "address",
							"name": "to",
							"type": "address"
						},
						{
							"indexed": true,
							"internalType": "uint256",
							"name": "tokenId",
							"type": "uint256"
						}
					],
					"name": "Transfer",
					"type": "event"
				},
				{
					"inputs": [
						{
							"internalType": "address",
							"name": "to",
							"type": "address"
						},
						{
							"internalType": "uint256",
							"name": "tokenId",
							"type": "uint256"
						}
					],
					"name": "approve",
					"outputs": [],
					"stateMutability": "nonpayable",
					"type": "function"
				},
				{
					"inputs": [
						{
							"internalType": "address",
							"name": "owner",
							"type": "address"
						}
					],
					"name": "balanceOf",
					"outputs": [
						{
							"internalType": "uint256",
							"name": "",
							"type": "uint256"
						}
					],
					"stateMutability": "view",
					"type": "function"
				},
				{
					"inputs": [
						{
							"internalType": "uint256",
							"name": "tokenId",
							"type": "uint256"
						}
					],
					"name": "getApproved",
					"outputs": [
						{
							"internalType": "address",
							"name": "",
							"type": "address"
						}
					],
					"stateMutability": "view",
					"type": "function"
				},
				{
					"inputs": [],
					"name": "getPrice",
					"outputs": [
						{
							"internalType": "uint256",
							"name": "",
							"type": "uint256"
						}
					],
					"stateMutability": "view",
					"type": "function"
				},
				{
					"inputs": [],
					"name": "getSinglePictureToken",
					"outputs": [
						{
							"components": [
								{
									"internalType": "address",
									"name": "ownerAddress",
									"type": "address"
								},
								{
									"internalType": "string",
									"name": "image",
									"type": "string"
								},
								{
									"internalType": "uint256",
									"name": "price",
									"type": "uint256"
								},
								{
									"internalType": "bool",
									"name": "onSale",
									"type": "bool"
								}
							],
							"internalType": "struct tokenData",
							"name": "",
							"type": "tuple"
						}
					],
					"stateMutability": "view",
					"type": "function"
				},
				{
					"inputs": [
						{
							"internalType": "address",
							"name": "owner",
							"type": "address"
						},
						{
							"internalType": "address",
							"name": "operator",
							"type": "address"
						}
					],
					"name": "isApprovedForAll",
					"outputs": [
						{
							"internalType": "bool",
							"name": "",
							"type": "bool"
						}
					],
					"stateMutability": "view",
					"type": "function"
				},
				{
					"inputs": [],
					"name": "name",
					"outputs": [
						{
							"internalType": "string",
							"name": "",
							"type": "string"
						}
					],
					"stateMutability": "view",
					"type": "function"
				},
				{
					"inputs": [],
					"name": "notPutOnSale",
					"outputs": [],
					"stateMutability": "nonpayable",
					"type": "function"
				},
				{
					"inputs": [],
					"name": "owner",
					"outputs": [
						{
							"internalType": "address",
							"name": "",
							"type": "address"
						}
					],
					"stateMutability": "view",
					"type": "function"
				},
				{
					"inputs": [
						{
							"internalType": "uint256",
							"name": "tokenId",
							"type": "uint256"
						}
					],
					"name": "ownerOf",
					"outputs": [
						{
							"internalType": "address",
							"name": "",
							"type": "address"
						}
					],
					"stateMutability": "view",
					"type": "function"
				},
				{
					"inputs": [],
					"name": "price",
					"outputs": [
						{
							"internalType": "uint256",
							"name": "",
							"type": "uint256"
						}
					],
					"stateMutability": "view",
					"type": "function"
				},
				{
					"inputs": [],
					"name": "purchase",
					"outputs": [],
					"stateMutability": "nonpayable",
					"type": "function"
				},
				{
					"inputs": [],
					"name": "putOnSale",
					"outputs": [],
					"stateMutability": "nonpayable",
					"type": "function"
				},
				{
					"inputs": [],
					"name": "renounceOwnership",
					"outputs": [],
					"stateMutability": "nonpayable",
					"type": "function"
				},
				{
					"inputs": [
						{
							"internalType": "address",
							"name": "from",
							"type": "address"
						},
						{
							"internalType": "address",
							"name": "to",
							"type": "address"
						},
						{
							"internalType": "uint256",
							"name": "tokenId",
							"type": "uint256"
						}
					],
					"name": "safeTransferFrom",
					"outputs": [],
					"stateMutability": "nonpayable",
					"type": "function"
				},
				{
					"inputs": [
						{
							"internalType": "address",
							"name": "from",
							"type": "address"
						},
						{
							"internalType": "address",
							"name": "to",
							"type": "address"
						},
						{
							"internalType": "uint256",
							"name": "tokenId",
							"type": "uint256"
						},
						{
							"internalType": "bytes",
							"name": "data",
							"type": "bytes"
						}
					],
					"name": "safeTransferFrom",
					"outputs": [],
					"stateMutability": "nonpayable",
					"type": "function"
				},
				{
					"inputs": [
						{
							"internalType": "address",
							"name": "operator",
							"type": "address"
						},
						{
							"internalType": "bool",
							"name": "approved",
							"type": "bool"
						}
					],
					"name": "setApprovalForAll",
					"outputs": [],
					"stateMutability": "nonpayable",
					"type": "function"
				},
				{
					"inputs": [
						{
							"internalType": "uint256",
							"name": "_price",
							"type": "uint256"
						}
					],
					"name": "setPrice",
					"outputs": [],
					"stateMutability": "nonpayable",
					"type": "function"
				},
				{
					"inputs": [
						{
							"internalType": "bytes4",
							"name": "interfaceId",
							"type": "bytes4"
						}
					],
					"name": "supportsInterface",
					"outputs": [
						{
							"internalType": "bool",
							"name": "",
							"type": "bool"
						}
					],
					"stateMutability": "view",
					"type": "function"
				},
				{
					"inputs": [],
					"name": "symbol",
					"outputs": [
						{
							"internalType": "string",
							"name": "",
							"type": "string"
						}
					],
					"stateMutability": "view",
					"type": "function"
				},
				{
					"inputs": [
						{
							"internalType": "uint256",
							"name": "tokenId",
							"type": "uint256"
						}
					],
					"name": "tokenURI",
					"outputs": [
						{
							"internalType": "string",
							"name": "",
							"type": "string"
						}
					],
					"stateMutability": "view",
					"type": "function"
				},
				{
					"inputs": [
						{
							"internalType": "address",
							"name": "from",
							"type": "address"
						},
						{
							"internalType": "address",
							"name": "to",
							"type": "address"
						},
						{
							"internalType": "uint256",
							"name": "tokenId",
							"type": "uint256"
						}
					],
					"name": "transferFrom",
					"outputs": [],
					"stateMutability": "nonpayable",
					"type": "function"
				},
				{
					"inputs": [
						{
							"internalType": "address",
							"name": "newOwner",
							"type": "address"
						}
					],
					"name": "transferOwnership",
					"outputs": [],
					"stateMutability": "nonpayable",
					"type": "function"
				}
			],
			"devdoc": {
				"errors": {
					"ERC721IncorrectOwner(address,uint256,address)": [
						{
							"details": "Indicates an error related to the ownership over a particular token. Used in transfers.",
							"params": {
								"owner": "Address of the current owner of a token.",
								"sender": "Address whose tokens are being transferred.",
								"tokenId": "Identifier number of a token."
							}
						}
					],
					"ERC721InsufficientApproval(address,uint256)": [
						{
							"details": "Indicates a failure with the `operator`’s approval. Used in transfers.",
							"params": {
								"operator": "Address that may be allowed to operate on tokens without being their owner.",
								"tokenId": "Identifier number of a token."
							}
						}
					],
					"ERC721InvalidApprover(address)": [
						{
							"details": "Indicates a failure with the `approver` of a token to be approved. Used in approvals.",
							"params": {
								"approver": "Address initiating an approval operation."
							}
						}
					],
					"ERC721InvalidOperator(address)": [
						{
							"details": "Indicates a failure with the `operator` to be approved. Used in approvals.",
							"params": {
								"operator": "Address that may be allowed to operate on tokens without being their owner."
							}
						}
					],
					"ERC721InvalidOwner(address)": [
						{
							"details": "Indicates that an address can't be an owner. For example, `address(0)` is a forbidden owner in EIP-20. Used in balance queries.",
							"params": {
								"owner": "Address of the current owner of a token."
							}
						}
					],
					"ERC721InvalidReceiver(address)": [
						{
							"details": "Indicates a failure with the token `receiver`. Used in transfers.",
							"params": {
								"receiver": "Address to which tokens are being transferred."
							}
						}
					],
					"ERC721InvalidSender(address)": [
						{
							"details": "Indicates a failure with the token `sender`. Used in transfers.",
							"params": {
								"sender": "Address whose tokens are being transferred."
							}
						}
					],
					"ERC721NonexistentToken(uint256)": [
						{
							"details": "Indicates a `tokenId` whose `owner` is the zero address.",
							"params": {
								"tokenId": "Identifier number of a token."
							}
						}
					],
					"OwnableInvalidOwner(address)": [
						{
							"details": "The owner is not a valid owner account. (eg. `address(0)`)"
						}
					],
					"OwnableUnauthorizedAccount(address)": [
						{
							"details": "The caller account is not authorized to perform an operation."
						}
					]
				},
				"events": {
					"Approval(address,address,uint256)": {
						"details": "Emitted when `owner` enables `approved` to manage the `tokenId` token."
					},
					"ApprovalForAll(address,address,bool)": {
						"details": "Emitted when `owner` enables or disables (`approved`) `operator` to manage all of its assets."
					},
					"Transfer(address,address,uint256)": {
						"details": "Emitted when `tokenId` token is transferred from `from` to `to`."
					}
				},
				"kind": "dev",
				"methods": {
					"approve(address,uint256)": {
						"details": "See {IERC721-approve}."
					},
					"balanceOf(address)": {
						"details": "See {IERC721-balanceOf}."
					},
					"getApproved(uint256)": {
						"details": "See {IERC721-getApproved}."
					},
					"isApprovedForAll(address,address)": {
						"details": "See {IERC721-isApprovedForAll}."
					},
					"name()": {
						"details": "See {IERC721Metadata-name}."
					},
					"owner()": {
						"details": "Returns the address of the current owner."
					},
					"ownerOf(uint256)": {
						"details": "See {IERC721-ownerOf}."
					},
					"renounceOwnership()": {
						"details": "Leaves the contract without owner. It will not be possible to call `onlyOwner` functions. Can only be called by the current owner. NOTE: Renouncing ownership will leave the contract without an owner, thereby disabling any functionality that is only available to the owner."
					},
					"safeTransferFrom(address,address,uint256)": {
						"details": "See {IERC721-safeTransferFrom}."
					},
					"safeTransferFrom(address,address,uint256,bytes)": {
						"details": "See {IERC721-safeTransferFrom}."
					},
					"setApprovalForAll(address,bool)": {
						"details": "See {IERC721-setApprovalForAll}."
					},
					"supportsInterface(bytes4)": {
						"details": "See {IERC165-supportsInterface}."
					},
					"symbol()": {
						"details": "See {IERC721Metadata-symbol}."
					},
					"tokenURI(uint256)": {
						"details": "See {IERC721Metadata-tokenURI}."
					},
					"transferFrom(address,address,uint256)": {
						"details": "See {IERC721-transferFrom}."
					},
					"transferOwnership(address)": {
						"details": "Transfers ownership of the contract to a new account (`newOwner`). Can only be called by the current owner."
					}
				},
				"version": 1
			},
			"evm": {
				"assembly": "    /* \"PictureToken.sol\":196:1311  contract PictureToken is ERC721, Ownable {... */\n  mstore(0x40, 0x80)\n    /* \"PictureToken.sol\":312:512  constructor(address initialOwner, string memory _image)... */\n  callvalue\n  dup1\n  iszero\n  tag_1\n  jumpi\n  0x00\n  dup1\n  revert\ntag_1:\n  pop\n  mload(0x40)\n  sub(codesize, bytecodeSize)\n  dup1\n  bytecodeSize\n  dup4\n  codecopy\n  dup2\n  add\n  0x40\n  dup2\n  swap1\n  mstore\n  tag_2\n  swap2\n  tag_3\n  jump\t// in\ntag_2:\n    /* \"PictureToken.sol\":415:427  initialOwner */\n  dup2\n    /* \"openzeppelin-contracts/contracts/token/ERC721/ERC721.sol\":1419:1535  constructor(string memory name_, string memory symbol_) {... */\n  mload(0x40)\n  dup1\n  0x40\n  add\n  0x40\n  mstore\n  dup1\n  0x0c\n  dup2\n  mstore\n  0x20\n  add\n  shl(0xa1, 0x2834b1ba3ab932aa37b5b2b7)\n  dup2\n  mstore\n  pop\n  mload(0x40)\n  dup1\n  0x40\n  add\n  0x40\n  mstore\n  dup1\n  0x02\n  dup2\n  mstore\n  0x20\n  add\n  shl(0xf2, 0x1415)\n  dup2\n  mstore\n  pop\n    /* \"openzeppelin-contracts/contracts/token/ERC721/ERC721.sol\":1494:1499  name_ */\n  dup2\n    /* \"openzeppelin-contracts/contracts/token/ERC721/ERC721.sol\":1486:1491  _name */\n  0x00\n    /* \"openzeppelin-contracts/contracts/token/ERC721/ERC721.sol\":1486:1499  _name = name_ */\n  swap1\n  dup2\n  tag_8\n  swap2\n  swap1\n  tag_9\n  jump\t// in\ntag_8:\n  pop\n    /* \"openzeppelin-contracts/contracts/token/ERC721/ERC721.sol\":1510:1517  _symbol */\n  0x01\n    /* \"openzeppelin-contracts/contracts/token/ERC721/ERC721.sol\":1510:1527  _symbol = symbol_ */\n  tag_10\n    /* \"openzeppelin-contracts/contracts/token/ERC721/ERC721.sol\":1520:1527  symbol_ */\n  dup3\n    /* \"openzeppelin-contracts/contracts/token/ERC721/ERC721.sol\":1510:1517  _symbol */\n  dup3\n    /* \"openzeppelin-contracts/contracts/token/ERC721/ERC721.sol\":1510:1527  _symbol = symbol_ */\n  tag_9\n  jump\t// in\ntag_10:\n  pop\n  pop\n  pop\n  sub(shl(0xa0, 0x01), 0x01)\n    /* \"openzeppelin-contracts/contracts/access/Ownable.sol\":1311:1337  initialOwner == address(0) */\n  dup2\n  and\n    /* \"openzeppelin-contracts/contracts/access/Ownable.sol\":1307:1404  if (initialOwner == address(0)) {... */\n  tag_12\n  jumpi\n    /* \"openzeppelin-contracts/contracts/access/Ownable.sol\":1361:1392  OwnableInvalidOwner(address(0)) */\n  mload(0x40)\n  shl(0xe0, 0x1e4fbdf7)\n  dup2\n  mstore\n    /* \"openzeppelin-contracts/contracts/access/Ownable.sol\":1389:1390  0 */\n  0x00\n    /* \"openzeppelin-contracts/contracts/access/Ownable.sol\":1361:1392  OwnableInvalidOwner(address(0)) */\n  0x04\n  dup3\n  add\n    /* \"#utility.yul\":4095:4146   */\n  mstore\n    /* \"#utility.yul\":4068:4086   */\n  0x24\n  add\n    /* \"openzeppelin-contracts/contracts/access/Ownable.sol\":1361:1392  OwnableInvalidOwner(address(0)) */\n  mload(0x40)\n  dup1\n  swap2\n  sub\n  swap1\n  revert\n    /* \"openzeppelin-contracts/contracts/access/Ownable.sol\":1307:1404  if (initialOwner == address(0)) {... */\ntag_12:\n    /* \"openzeppelin-contracts/contracts/access/Ownable.sol\":1414:1446  _transferOwnership(initialOwner) */\n  tag_15\n    /* \"openzeppelin-contracts/contracts/access/Ownable.sol\":1433:1445  initialOwner */\n  dup2\n    /* \"openzeppelin-contracts/contracts/access/Ownable.sol\":1414:1432  _transferOwnership */\n  tag_16\n    /* \"openzeppelin-contracts/contracts/access/Ownable.sol\":1414:1446  _transferOwnership(initialOwner) */\n  jump\t// in\ntag_15:\n  pop\n    /* \"PictureToken.sol\":445:450  image */\n  0x07\n    /* \"PictureToken.sol\":445:459  image = _image */\n  tag_18\n    /* \"PictureToken.sol\":453:459  _image */\n  dup3\n    /* \"PictureToken.sol\":445:450  image */\n  dup3\n    /* \"PictureToken.sol\":445:459  image = _image */\n  tag_9\n  jump\t// in\ntag_18:\n  pop\n  pop\n    /* \"PictureToken.sol\":478:479  0 */\n  0x00\n    /* \"PictureToken.sol\":470:475  price */\n  0x08\n    /* \"PictureToken.sol\":470:479  price = 0 */\n  sstore\n  pop\n    /* \"PictureToken.sol\":490:496  onSale */\n  0x09\n    /* \"PictureToken.sol\":490:504  onSale = false */\n  dup1\n  sload\n  not(0xff)\n  and\n  swap1\n  sstore\n    /* \"PictureToken.sol\":196:1311  contract PictureToken is ERC721, Ownable {... */\n  jump(tag_26)\n    /* \"openzeppelin-contracts/contracts/access/Ownable.sol\":3006:3197  function _transferOwnership(address newOwner) internal virtual {... */\ntag_16:\n    /* \"openzeppelin-contracts/contracts/access/Ownable.sol\":3099:3105  _owner */\n  0x06\n  dup1\n  sload\n  sub(shl(0xa0, 0x01), 0x01)\n    /* \"openzeppelin-contracts/contracts/access/Ownable.sol\":3116:3133  _owner = newOwner */\n  dup4\n  dup2\n  and\n  not(sub(shl(0xa0, 0x01), 0x01))\n  dup4\n  and\n  dup2\n  or\n  swap1\n  swap4\n  sstore\n    /* \"openzeppelin-contracts/contracts/access/Ownable.sol\":3149:3189  OwnershipTransferred(oldOwner, newOwner) */\n  mload(0x40)\n    /* \"openzeppelin-contracts/contracts/access/Ownable.sol\":3099:3105  _owner */\n  swap2\n  and\n  swap2\n    /* \"openzeppelin-contracts/contracts/access/Ownable.sol\":3116:3133  _owner = newOwner */\n  swap1\n    /* \"openzeppelin-contracts/contracts/access/Ownable.sol\":3099:3105  _owner */\n  dup3\n  swap1\n    /* \"openzeppelin-contracts/contracts/access/Ownable.sol\":3149:3189  OwnershipTransferred(oldOwner, newOwner) */\n  0x8be0079c531659141344cd1fd0a4f28419497f9722a3daafe3b4186f6b6457e0\n  swap1\n    /* \"openzeppelin-contracts/contracts/access/Ownable.sol\":3080:3096  address oldOwner */\n  0x00\n  swap1\n    /* \"openzeppelin-contracts/contracts/access/Ownable.sol\":3149:3189  OwnershipTransferred(oldOwner, newOwner) */\n  log3\n    /* \"openzeppelin-contracts/contracts/access/Ownable.sol\":3069:3197  {... */\n  pop\n    /* \"openzeppelin-contracts/contracts/access/Ownable.sol\":3006:3197  function _transferOwnership(address newOwner) internal virtual {... */\n  pop\n  jump\t// out\n    /* \"#utility.yul\":14:141   */\ntag_21:\n    /* \"#utility.yul\":75:85   */\n  0x4e487b71\n    /* \"#utility.yul\":70:73   */\n  0xe0\n    /* \"#utility.yul\":66:86   */\n  shl\n    /* \"#utility.yul\":63:64   */\n  0x00\n    /* \"#utility.yul\":56:87   */\n  mstore\n    /* \"#utility.yul\":106:110   */\n  0x41\n    /* \"#utility.yul\":103:104   */\n  0x04\n    /* \"#utility.yul\":96:111   */\n  mstore\n    /* \"#utility.yul\":130:134   */\n  0x24\n    /* \"#utility.yul\":127:128   */\n  0x00\n    /* \"#utility.yul\":120:135   */\n  revert\n    /* \"#utility.yul\":146:1355   */\ntag_3:\n    /* \"#utility.yul\":235:241   */\n  0x00\n    /* \"#utility.yul\":243:249   */\n  dup1\n    /* \"#utility.yul\":296:298   */\n  0x40\n    /* \"#utility.yul\":284:293   */\n  dup4\n    /* \"#utility.yul\":275:282   */\n  dup6\n    /* \"#utility.yul\":271:294   */\n  sub\n    /* \"#utility.yul\":267:299   */\n  slt\n    /* \"#utility.yul\":264:316   */\n  iszero\n  tag_29\n  jumpi\n    /* \"#utility.yul\":312:313   */\n  0x00\n    /* \"#utility.yul\":309:310   */\n  dup1\n    /* \"#utility.yul\":302:314   */\n  revert\n    /* \"#utility.yul\":264:316   */\ntag_29:\n    /* \"#utility.yul\":338:354   */\n  dup3\n  mload\n  sub(shl(0xa0, 0x01), 0x01)\n    /* \"#utility.yul\":383:414   */\n  dup2\n  and\n    /* \"#utility.yul\":373:415   */\n  dup2\n  eq\n    /* \"#utility.yul\":363:433   */\n  tag_30\n  jumpi\n    /* \"#utility.yul\":429:430   */\n  0x00\n    /* \"#utility.yul\":426:427   */\n  dup1\n    /* \"#utility.yul\":419:431   */\n  revert\n    /* \"#utility.yul\":363:433   */\ntag_30:\n    /* \"#utility.yul\":476:478   */\n  0x20\n    /* \"#utility.yul\":507:525   */\n  dup5\n  dup2\n  add\n    /* \"#utility.yul\":501:526   */\n  mload\n    /* \"#utility.yul\":452:457   */\n  swap2\n  swap4\n  pop\n    /* \"#utility.yul\":476:478   */\n  swap1\n  sub(shl(0x40, 0x01), 0x01)\n    /* \"#utility.yul\":575:589   */\n  dup1\n  dup3\n  gt\n    /* \"#utility.yul\":572:606   */\n  iszero\n  tag_31\n  jumpi\n    /* \"#utility.yul\":602:603   */\n  0x00\n    /* \"#utility.yul\":599:600   */\n  dup1\n    /* \"#utility.yul\":592:604   */\n  revert\n    /* \"#utility.yul\":572:606   */\ntag_31:\n    /* \"#utility.yul\":640:646   */\n  dup2\n    /* \"#utility.yul\":629:638   */\n  dup7\n    /* \"#utility.yul\":625:647   */\n  add\n    /* \"#utility.yul\":615:647   */\n  swap2\n  pop\n    /* \"#utility.yul\":685:692   */\n  dup7\n    /* \"#utility.yul\":678:682   */\n  0x1f\n    /* \"#utility.yul\":674:676   */\n  dup4\n    /* \"#utility.yul\":670:683   */\n  add\n    /* \"#utility.yul\":666:693   */\n  slt\n    /* \"#utility.yul\":656:711   */\n  tag_32\n  jumpi\n    /* \"#utility.yul\":707:708   */\n  0x00\n    /* \"#utility.yul\":704:705   */\n  dup1\n    /* \"#utility.yul\":697:709   */\n  revert\n    /* \"#utility.yul\":656:711   */\ntag_32:\n    /* \"#utility.yul\":736:738   */\n  dup2\n    /* \"#utility.yul\":730:739   */\n  mload\n    /* \"#utility.yul\":758:760   */\n  dup2\n    /* \"#utility.yul\":754:756   */\n  dup2\n    /* \"#utility.yul\":751:761   */\n  gt\n    /* \"#utility.yul\":748:784   */\n  iszero\n  tag_34\n  jumpi\n    /* \"#utility.yul\":764:782   */\n  tag_34\n  tag_21\n  jump\t// in\ntag_34:\n    /* \"#utility.yul\":839:841   */\n  0x40\n    /* \"#utility.yul\":833:842   */\n  mload\n    /* \"#utility.yul\":807:809   */\n  0x1f\n    /* \"#utility.yul\":893:906   */\n  dup3\n  add\n  not(0x1f)\n    /* \"#utility.yul\":889:911   */\n  swap1\n  dup2\n  and\n    /* \"#utility.yul\":913:915   */\n  0x3f\n    /* \"#utility.yul\":885:916   */\n  add\n    /* \"#utility.yul\":881:921   */\n  and\n    /* \"#utility.yul\":869:922   */\n  dup2\n  add\n  swap1\n    /* \"#utility.yul\":937:955   */\n  dup4\n  dup3\n  gt\n    /* \"#utility.yul\":957:979   */\n  dup2\n  dup4\n  lt\n    /* \"#utility.yul\":934:980   */\n  or\n    /* \"#utility.yul\":931:1003   */\n  iszero\n  tag_36\n  jumpi\n    /* \"#utility.yul\":983:1001   */\n  tag_36\n  tag_21\n  jump\t// in\ntag_36:\n    /* \"#utility.yul\":1023:1033   */\n  dup2\n    /* \"#utility.yul\":1019:1021   */\n  0x40\n    /* \"#utility.yul\":1012:1034   */\n  mstore\n    /* \"#utility.yul\":1058:1060   */\n  dup3\n    /* \"#utility.yul\":1050:1056   */\n  dup2\n    /* \"#utility.yul\":1043:1061   */\n  mstore\n    /* \"#utility.yul\":1098:1105   */\n  dup10\n    /* \"#utility.yul\":1093:1095   */\n  dup7\n    /* \"#utility.yul\":1088:1090   */\n  dup5\n    /* \"#utility.yul\":1084:1086   */\n  dup8\n    /* \"#utility.yul\":1080:1091   */\n  add\n    /* \"#utility.yul\":1076:1096   */\n  add\n    /* \"#utility.yul\":1073:1106   */\n  gt\n    /* \"#utility.yul\":1070:1123   */\n  iszero\n  tag_37\n  jumpi\n    /* \"#utility.yul\":1119:1120   */\n  0x00\n    /* \"#utility.yul\":1116:1117   */\n  dup1\n    /* \"#utility.yul\":1109:1121   */\n  revert\n    /* \"#utility.yul\":1070:1123   */\ntag_37:\n    /* \"#utility.yul\":1141:1142   */\n  0x00\n    /* \"#utility.yul\":1132:1142   */\n  swap4\n  pop\n    /* \"#utility.yul\":1151:1280   */\ntag_38:\n    /* \"#utility.yul\":1165:1167   */\n  dup3\n    /* \"#utility.yul\":1162:1163   */\n  dup5\n    /* \"#utility.yul\":1159:1168   */\n  lt\n    /* \"#utility.yul\":1151:1280   */\n  iszero\n  tag_40\n  jumpi\n    /* \"#utility.yul\":1253:1263   */\n  dup5\n  dup5\n  add\n    /* \"#utility.yul\":1249:1268   */\n  dup7\n  add\n    /* \"#utility.yul\":1243:1269   */\n  mload\n    /* \"#utility.yul\":1222:1236   */\n  dup2\n  dup6\n  add\n    /* \"#utility.yul\":1218:1241   */\n  dup8\n  add\n    /* \"#utility.yul\":1211:1270   */\n  mstore\n    /* \"#utility.yul\":1176:1186   */\n  swap3\n  dup6\n  add\n  swap3\n    /* \"#utility.yul\":1151:1280   */\n  jump(tag_38)\ntag_40:\n    /* \"#utility.yul\":1322:1323   */\n  0x00\n    /* \"#utility.yul\":1317:1319   */\n  dup7\n    /* \"#utility.yul\":1312:1314   */\n  dup5\n    /* \"#utility.yul\":1304:1310   */\n  dup4\n    /* \"#utility.yul\":1300:1315   */\n  add\n    /* \"#utility.yul\":1296:1320   */\n  add\n    /* \"#utility.yul\":1289:1324   */\n  mstore\n    /* \"#utility.yul\":1343:1349   */\n  dup1\n    /* \"#utility.yul\":1333:1349   */\n  swap7\n  pop\n  pop\n  pop\n  pop\n  pop\n  pop\n  pop\n    /* \"#utility.yul\":146:1355   */\n  swap3\n  pop\n  swap3\n  swap1\n  pop\n  jump\t// out\n    /* \"#utility.yul\":1360:1740   */\ntag_22:\n    /* \"#utility.yul\":1439:1440   */\n  0x01\n    /* \"#utility.yul\":1435:1447   */\n  dup2\n  dup2\n  shr\n  swap1\n    /* \"#utility.yul\":1482:1494   */\n  dup3\n  and\n  dup1\n    /* \"#utility.yul\":1503:1564   */\n  tag_42\n  jumpi\n    /* \"#utility.yul\":1557:1561   */\n  0x7f\n    /* \"#utility.yul\":1549:1555   */\n  dup3\n    /* \"#utility.yul\":1545:1562   */\n  and\n    /* \"#utility.yul\":1535:1562   */\n  swap2\n  pop\n    /* \"#utility.yul\":1503:1564   */\ntag_42:\n    /* \"#utility.yul\":1610:1612   */\n  0x20\n    /* \"#utility.yul\":1602:1608   */\n  dup3\n    /* \"#utility.yul\":1599:1613   */\n  lt\n    /* \"#utility.yul\":1579:1597   */\n  dup2\n    /* \"#utility.yul\":1576:1614   */\n  sub\n    /* \"#utility.yul\":1573:1734   */\n  tag_43\n  jumpi\n    /* \"#utility.yul\":1656:1666   */\n  0x4e487b71\n    /* \"#utility.yul\":1651:1654   */\n  0xe0\n    /* \"#utility.yul\":1647:1667   */\n  shl\n    /* \"#utility.yul\":1644:1645   */\n  0x00\n    /* \"#utility.yul\":1637:1668   */\n  mstore\n    /* \"#utility.yul\":1691:1695   */\n  0x22\n    /* \"#utility.yul\":1688:1689   */\n  0x04\n    /* \"#utility.yul\":1681:1696   */\n  mstore\n    /* \"#utility.yul\":1719:1723   */\n  0x24\n    /* \"#utility.yul\":1716:1717   */\n  0x00\n    /* \"#utility.yul\":1709:1724   */\n  revert\n    /* \"#utility.yul\":1573:1734   */\ntag_43:\n  pop\n    /* \"#utility.yul\":1360:1740   */\n  swap2\n  swap1\n  pop\n  jump\t// out\n    /* \"#utility.yul\":1871:2416   */\ntag_24:\n    /* \"#utility.yul\":1973:1975   */\n  0x1f\n    /* \"#utility.yul\":1968:1971   */\n  dup3\n    /* \"#utility.yul\":1965:1976   */\n  gt\n    /* \"#utility.yul\":1962:2410   */\n  iszero\n  tag_46\n  jumpi\n    /* \"#utility.yul\":2009:2010   */\n  0x00\n    /* \"#utility.yul\":2034:2039   */\n  dup2\n    /* \"#utility.yul\":2030:2032   */\n  dup2\n    /* \"#utility.yul\":2023:2040   */\n  mstore\n    /* \"#utility.yul\":2079:2083   */\n  0x20\n    /* \"#utility.yul\":2075:2077   */\n  dup2\n    /* \"#utility.yul\":2065:2084   */\n  keccak256\n    /* \"#utility.yul\":2149:2151   */\n  0x1f\n    /* \"#utility.yul\":2137:2147   */\n  dup6\n    /* \"#utility.yul\":2133:2152   */\n  add\n    /* \"#utility.yul\":2130:2131   */\n  0x05\n    /* \"#utility.yul\":2126:2153   */\n  shr\n    /* \"#utility.yul\":2120:2124   */\n  dup2\n    /* \"#utility.yul\":2116:2154   */\n  add\n    /* \"#utility.yul\":2185:2189   */\n  0x20\n    /* \"#utility.yul\":2173:2183   */\n  dup7\n    /* \"#utility.yul\":2170:2190   */\n  lt\n    /* \"#utility.yul\":2167:2214   */\n  iszero\n  tag_47\n  jumpi\n  pop\n    /* \"#utility.yul\":2208:2212   */\n  dup1\n    /* \"#utility.yul\":2167:2214   */\ntag_47:\n    /* \"#utility.yul\":2263:2265   */\n  0x1f\n    /* \"#utility.yul\":2258:2261   */\n  dup6\n    /* \"#utility.yul\":2254:2266   */\n  add\n    /* \"#utility.yul\":2251:2252   */\n  0x05\n    /* \"#utility.yul\":2247:2267   */\n  shr\n    /* \"#utility.yul\":2241:2245   */\n  dup3\n    /* \"#utility.yul\":2237:2268   */\n  add\n    /* \"#utility.yul\":2227:2268   */\n  swap2\n  pop\n    /* \"#utility.yul\":2318:2400   */\ntag_48:\n    /* \"#utility.yul\":2336:2338   */\n  dup2\n    /* \"#utility.yul\":2329:2334   */\n  dup2\n    /* \"#utility.yul\":2326:2339   */\n  lt\n    /* \"#utility.yul\":2318:2400   */\n  iszero\n  tag_50\n  jumpi\n    /* \"#utility.yul\":2381:2398   */\n  dup3\n  dup2\n  sstore\n    /* \"#utility.yul\":2362:2363   */\n  0x01\n    /* \"#utility.yul\":2351:2364   */\n  add\n    /* \"#utility.yul\":2318:2400   */\n  jump(tag_48)\ntag_50:\n    /* \"#utility.yul\":2322:2325   */\n  pop\n  pop\n  pop\n    /* \"#utility.yul\":1962:2410   */\ntag_46:\n    /* \"#utility.yul\":1871:2416   */\n  pop\n  pop\n  pop\n  jump\t// out\n    /* \"#utility.yul\":2592:3944   */\ntag_9:\n    /* \"#utility.yul\":2712:2722   */\n  dup2\n  mload\n  sub(shl(0x40, 0x01), 0x01)\n    /* \"#utility.yul\":2734:2764   */\n  dup2\n  gt\n    /* \"#utility.yul\":2731:2787   */\n  iszero\n  tag_54\n  jumpi\n    /* \"#utility.yul\":2767:2785   */\n  tag_54\n  tag_21\n  jump\t// in\ntag_54:\n    /* \"#utility.yul\":2796:2893   */\n  tag_55\n    /* \"#utility.yul\":2886:2892   */\n  dup2\n    /* \"#utility.yul\":2846:2884   */\n  tag_56\n    /* \"#utility.yul\":2878:2882   */\n  dup5\n    /* \"#utility.yul\":2872:2883   */\n  sload\n    /* \"#utility.yul\":2846:2884   */\n  tag_22\n  jump\t// in\ntag_56:\n    /* \"#utility.yul\":2840:2844   */\n  dup5\n    /* \"#utility.yul\":2796:2893   */\n  tag_24\n  jump\t// in\ntag_55:\n    /* \"#utility.yul\":2948:2952   */\n  0x20\n  dup1\n    /* \"#utility.yul\":3012:3014   */\n  0x1f\n    /* \"#utility.yul\":3001:3015   */\n  dup4\n  gt\n    /* \"#utility.yul\":3029:3030   */\n  0x01\n    /* \"#utility.yul\":3024:3687   */\n  dup2\n  eq\n  tag_58\n  jumpi\n    /* \"#utility.yul\":3731:3732   */\n  0x00\n    /* \"#utility.yul\":3748:3754   */\n  dup5\n    /* \"#utility.yul\":3745:3834   */\n  iszero\n  tag_59\n  jumpi\n  pop\n    /* \"#utility.yul\":3800:3819   */\n  dup6\n  dup4\n  add\n    /* \"#utility.yul\":3794:3820   */\n  mload\n    /* \"#utility.yul\":3745:3834   */\ntag_59:\n  not(0x00)\n    /* \"#utility.yul\":2549:2550   */\n  0x03\n    /* \"#utility.yul\":2545:2556   */\n  dup7\n  swap1\n  shl\n    /* \"#utility.yul\":2541:2565   */\n  shr\n    /* \"#utility.yul\":2537:2566   */\n  not\n    /* \"#utility.yul\":2527:2567   */\n  and\n    /* \"#utility.yul\":2573:2574   */\n  0x01\n    /* \"#utility.yul\":2569:2580   */\n  dup6\n  swap1\n  shl\n    /* \"#utility.yul\":2524:2581   */\n  or\n    /* \"#utility.yul\":3847:3928   */\n  dup6\n  sstore\n    /* \"#utility.yul\":2994:3938   */\n  jump(tag_50)\n    /* \"#utility.yul\":3024:3687   */\ntag_58:\n    /* \"#utility.yul\":1818:1819   */\n  0x00\n    /* \"#utility.yul\":1811:1825   */\n  dup6\n  dup2\n  mstore\n    /* \"#utility.yul\":1855:1859   */\n  0x20\n    /* \"#utility.yul\":1842:1860   */\n  dup2\n  keccak256\n  not(0x1f)\n    /* \"#utility.yul\":3060:3080   */\n  dup7\n  and\n  swap2\n    /* \"#utility.yul\":3178:3414   */\ntag_62:\n    /* \"#utility.yul\":3192:3199   */\n  dup3\n    /* \"#utility.yul\":3189:3190   */\n  dup2\n    /* \"#utility.yul\":3186:3200   */\n  lt\n    /* \"#utility.yul\":3178:3414   */\n  iszero\n  tag_64\n  jumpi\n    /* \"#utility.yul\":3281:3300   */\n  dup9\n  dup7\n  add\n    /* \"#utility.yul\":3275:3301   */\n  mload\n    /* \"#utility.yul\":3260:3302   */\n  dup3\n  sstore\n    /* \"#utility.yul\":3373:3400   */\n  swap5\n  dup5\n  add\n  swap5\n    /* \"#utility.yul\":3341:3342   */\n  0x01\n    /* \"#utility.yul\":3329:3343   */\n  swap1\n  swap2\n  add\n  swap1\n    /* \"#utility.yul\":3208:3227   */\n  dup5\n  add\n    /* \"#utility.yul\":3178:3414   */\n  jump(tag_62)\ntag_64:\n    /* \"#utility.yul\":3182:3185   */\n  pop\n    /* \"#utility.yul\":3442:3448   */\n  dup6\n    /* \"#utility.yul\":3433:3440   */\n  dup3\n    /* \"#utility.yul\":3430:3449   */\n  lt\n    /* \"#utility.yul\":3427:3628   */\n  iszero\n  tag_65\n  jumpi\n    /* \"#utility.yul\":3503:3522   */\n  dup8\n  dup6\n  add\n    /* \"#utility.yul\":3497:3523   */\n  mload\n  not(0x00)\n    /* \"#utility.yul\":3586:3587   */\n  0x03\n    /* \"#utility.yul\":3582:3596   */\n  dup9\n  swap1\n  shl\n    /* \"#utility.yul\":3598:3601   */\n  0xf8\n    /* \"#utility.yul\":3578:3602   */\n  and\n    /* \"#utility.yul\":3574:3611   */\n  shr\n    /* \"#utility.yul\":3570:3612   */\n  not\n    /* \"#utility.yul\":3555:3613   */\n  and\n    /* \"#utility.yul\":3540:3614   */\n  dup2\n  sstore\n    /* \"#utility.yul\":3427:3628   */\ntag_65:\n  pop\n  pop\n  pop\n  pop\n  pop\n    /* \"#utility.yul\":3674:3675   */\n  0x01\n    /* \"#utility.yul\":3658:3672   */\n  swap1\n  dup2\n  shl\n    /* \"#utility.yul\":3654:3676   */\n  add\n    /* \"#utility.yul\":3641:3677   */\n  swap1\n  sstore\n  pop\n    /* \"#utility.yul\":2592:3944   */\n  jump\t// out\n    /* \"#utility.yul\":3949:4152   */\ntag_26:\n    /* \"PictureToken.sol\":196:1311  contract PictureToken is ERC721, Ownable {... */\n  dataSize(sub_0)\n  dup1\n  dataOffset(sub_0)\n  0x00\n  codecopy\n  0x00\n  return\nstop\n\nsub_0: assembly {\n        /* \"PictureToken.sol\":196:1311  contract PictureToken is ERC721, Ownable {... */\n      mstore(0x40, 0x80)\n      callvalue\n      dup1\n      iszero\n      tag_1\n      jumpi\n      0x00\n      dup1\n      revert\n    tag_1:\n      pop\n      jumpi(tag_2, lt(calldatasize, 0x04))\n      shr(0xe0, calldataload(0x00))\n      dup1\n      0x854cbb4a\n      gt\n      tag_26\n      jumpi\n      dup1\n      0xa035b1fe\n      gt\n      tag_27\n      jumpi\n      dup1\n      0xa035b1fe\n      eq\n      tag_20\n      jumpi\n      dup1\n      0xa22cb465\n      eq\n      tag_21\n      jumpi\n      dup1\n      0xb88d4fde\n      eq\n      tag_22\n      jumpi\n      dup1\n      0xc87b56dd\n      eq\n      tag_23\n      jumpi\n      dup1\n      0xe985e9c5\n      eq\n      tag_24\n      jumpi\n      dup1\n      0xf2fde38b\n      eq\n      tag_25\n      jumpi\n      0x00\n      dup1\n      revert\n    tag_27:\n      dup1\n      0x854cbb4a\n      eq\n      tag_14\n      jumpi\n      dup1\n      0x8c2a5bc8\n      eq\n      tag_15\n      jumpi\n      dup1\n      0x8da5cb5b\n      eq\n      tag_16\n      jumpi\n      dup1\n      0x91b7f5ed\n      eq\n      tag_17\n      jumpi\n      dup1\n      0x95d89b41\n      eq\n      tag_18\n      jumpi\n      dup1\n      0x98d5fdca\n      eq\n      tag_19\n      jumpi\n      0x00\n      dup1\n      revert\n    tag_26:\n      dup1\n      0x42842e0e\n      gt\n      tag_28\n      jumpi\n      dup1\n      0x42842e0e\n      eq\n      tag_8\n      jumpi\n      dup1\n      0x5987cc19\n      eq\n      tag_9\n      jumpi\n      dup1\n      0x6352211e\n      eq\n      tag_10\n      jumpi\n      dup1\n      0x64edfbf0\n      eq\n      tag_11\n      jumpi\n      dup1\n      0x70a08231\n      eq\n      tag_12\n      jumpi\n      dup1\n      0x715018a6\n      eq\n      tag_13\n      jumpi\n      0x00\n      dup1\n      revert\n    tag_28:\n      dup1\n      0x01ffc9a7\n      eq\n      tag_3\n      jumpi\n      dup1\n      0x06fdde03\n      eq\n      tag_4\n      jumpi\n      dup1\n      0x081812fc\n      eq\n      tag_5\n      jumpi\n      dup1\n      0x095ea7b3\n      eq\n      tag_6\n      jumpi\n      dup1\n      0x23b872dd\n      eq\n      tag_7\n      jumpi\n    tag_2:\n      0x00\n      dup1\n      revert\n        /* \"openzeppelin-contracts/contracts/token/ERC721/ERC721.sol\":1607:1912  function supportsInterface(bytes4 interfaceId) public view virtual override(ERC165, IERC165) returns (bool) {... */\n    tag_3:\n      tag_29\n      tag_30\n      calldatasize\n      0x04\n      tag_31\n      jump\t// in\n    tag_30:\n      tag_32\n      jump\t// in\n    tag_29:\n      mload(0x40)\n        /* \"#utility.yul\":565:579   */\n      swap1\n      iszero\n        /* \"#utility.yul\":558:580   */\n      iszero\n        /* \"#utility.yul\":540:581   */\n      dup2\n      mstore\n        /* \"#utility.yul\":528:530   */\n      0x20\n        /* \"#utility.yul\":513:531   */\n      add\n        /* \"openzeppelin-contracts/contracts/token/ERC721/ERC721.sol\":1607:1912  function supportsInterface(bytes4 interfaceId) public view virtual override(ERC165, IERC165) returns (bool) {... */\n    tag_33:\n      mload(0x40)\n      dup1\n      swap2\n      sub\n      swap1\n      return\n        /* \"openzeppelin-contracts/contracts/token/ERC721/ERC721.sol\":2438:2529  function name() public view virtual returns (string memory) {... */\n    tag_4:\n      tag_35\n      tag_36\n      jump\t// in\n    tag_35:\n      mload(0x40)\n      tag_33\n      swap2\n      swap1\n      tag_38\n      jump\t// in\n        /* \"openzeppelin-contracts/contracts/token/ERC721/ERC721.sol\":3610:3768  function getApproved(uint256 tokenId) public view virtual returns (address) {... */\n    tag_5:\n      tag_39\n      tag_40\n      calldatasize\n      0x04\n      tag_41\n      jump\t// in\n    tag_40:\n      tag_42\n      jump\t// in\n    tag_39:\n      mload(0x40)\n      sub(shl(0xa0, 0x01), 0x01)\n        /* \"#utility.yul\":1697:1729   */\n      swap1\n      swap2\n      and\n        /* \"#utility.yul\":1679:1730   */\n      dup2\n      mstore\n        /* \"#utility.yul\":1667:1669   */\n      0x20\n        /* \"#utility.yul\":1652:1670   */\n      add\n        /* \"openzeppelin-contracts/contracts/token/ERC721/ERC721.sol\":3610:3768  function getApproved(uint256 tokenId) public view virtual returns (address) {... */\n      tag_33\n        /* \"#utility.yul\":1533:1736   */\n      jump\n        /* \"openzeppelin-contracts/contracts/token/ERC721/ERC721.sol\":3429:3544  function approve(address to, uint256 tokenId) public virtual {... */\n    tag_6:\n      tag_45\n      tag_46\n      calldatasize\n      0x04\n      tag_47\n      jump\t// in\n    tag_46:\n      tag_48\n      jump\t// in\n    tag_45:\n      stop\n        /* \"openzeppelin-contracts/contracts/token/ERC721/ERC721.sol\":4279:4867  function transferFrom(address from, address to, uint256 tokenId) public virtual {... */\n    tag_7:\n      tag_45\n      tag_50\n      calldatasize\n      0x04\n      tag_51\n      jump\t// in\n    tag_50:\n      tag_52\n      jump\t// in\n        /* \"openzeppelin-contracts/contracts/token/ERC721/ERC721.sol\":4938:5072  function safeTransferFrom(address from, address to, uint256 tokenId) public {... */\n    tag_8:\n      tag_45\n      tag_54\n      calldatasize\n      0x04\n      tag_51\n      jump\t// in\n    tag_54:\n      tag_55\n      jump\t// in\n        /* \"PictureToken.sol\":980:1050  function putOnSale() public onlyOwner {... */\n    tag_9:\n      tag_45\n      tag_57\n      jump\t// in\n        /* \"openzeppelin-contracts/contracts/token/ERC721/ERC721.sol\":2251:2371  function ownerOf(uint256 tokenId) public view virtual returns (address) {... */\n    tag_10:\n      tag_39\n      tag_59\n      calldatasize\n      0x04\n      tag_41\n      jump\t// in\n    tag_59:\n      tag_60\n      jump\t// in\n        /* \"PictureToken.sol\":1140:1306  function purchase() public {... */\n    tag_11:\n      tag_45\n      tag_63\n      jump\t// in\n        /* \"openzeppelin-contracts/contracts/token/ERC721/ERC721.sol\":1976:2189  function balanceOf(address owner) public view virtual returns (uint256) {... */\n    tag_12:\n      tag_64\n      tag_65\n      calldatasize\n      0x04\n      tag_66\n      jump\t// in\n    tag_65:\n      tag_67\n      jump\t// in\n    tag_64:\n      mload(0x40)\n        /* \"#utility.yul\":2848:2873   */\n      swap1\n      dup2\n      mstore\n        /* \"#utility.yul\":2836:2838   */\n      0x20\n        /* \"#utility.yul\":2821:2839   */\n      add\n        /* \"openzeppelin-contracts/contracts/token/ERC721/ERC721.sol\":1976:2189  function balanceOf(address owner) public view virtual returns (uint256) {... */\n      tag_33\n        /* \"#utility.yul\":2702:2879   */\n      jump\n        /* \"openzeppelin-contracts/contracts/access/Ownable.sol\":2368:2471  function renounceOwnership() public virtual onlyOwner {... */\n    tag_13:\n      tag_45\n      tag_71\n      jump\t// in\n        /* \"PictureToken.sol\":647:792  function getSinglePictureToken() public view returns(tokenData memory) {... */\n    tag_14:\n      tag_72\n      tag_73\n      jump\t// in\n    tag_72:\n      mload(0x40)\n      tag_33\n      swap2\n      swap1\n      tag_75\n      jump\t// in\n        /* \"PictureToken.sol\":1058:1132  function notPutOnSale() public onlyOwner {... */\n    tag_15:\n      tag_45\n      tag_77\n      jump\t// in\n        /* \"openzeppelin-contracts/contracts/access/Ownable.sol\":1693:1780  function owner() public view virtual returns (address) {... */\n    tag_16:\n        /* \"openzeppelin-contracts/contracts/access/Ownable.sol\":1766:1772  _owner */\n      and(sub(shl(0xa0, 0x01), 0x01), sload(0x06))\n        /* \"openzeppelin-contracts/contracts/access/Ownable.sol\":1693:1780  function owner() public view virtual returns (address) {... */\n      jump(tag_39)\n        /* \"PictureToken.sol\":888:972  function setPrice(uint256 _price) public onlyOwner {... */\n    tag_17:\n      tag_45\n      tag_82\n      calldatasize\n      0x04\n      tag_41\n      jump\t// in\n    tag_82:\n      tag_83\n      jump\t// in\n        /* \"openzeppelin-contracts/contracts/token/ERC721/ERC721.sol\":2598:2693  function symbol() public view virtual returns (string memory) {... */\n    tag_18:\n      tag_35\n      tag_85\n      jump\t// in\n        /* \"PictureToken.sol\":800:880  function getPrice() public view returns(uint256) {... */\n    tag_19:\n        /* \"PictureToken.sol\":867:872  price */\n      sload(0x08)\n        /* \"PictureToken.sol\":800:880  function getPrice() public view returns(uint256) {... */\n      jump(tag_64)\n        /* \"PictureToken.sol\":265:285  uint256 public price */\n    tag_20:\n      tag_64\n      sload(0x08)\n      dup2\n      jump\n        /* \"openzeppelin-contracts/contracts/token/ERC721/ERC721.sol\":3840:3986  function setApprovalForAll(address operator, bool approved) public virtual {... */\n    tag_21:\n      tag_45\n      tag_94\n      calldatasize\n      0x04\n      tag_95\n      jump\t// in\n    tag_94:\n      tag_96\n      jump\t// in\n        /* \"openzeppelin-contracts/contracts/token/ERC721/ERC721.sol\":5143:5354  function safeTransferFrom(address from, address to, uint256 tokenId, bytes memory data) public virtual {... */\n    tag_22:\n      tag_45\n      tag_98\n      calldatasize\n      0x04\n      tag_99\n      jump\t// in\n    tag_98:\n      tag_100\n      jump\t// in\n        /* \"openzeppelin-contracts/contracts/token/ERC721/ERC721.sol\":2764:3024  function tokenURI(uint256 tokenId) public view virtual returns (string memory) {... */\n    tag_23:\n      tag_35\n      tag_102\n      calldatasize\n      0x04\n      tag_41\n      jump\t// in\n    tag_102:\n      tag_103\n      jump\t// in\n        /* \"openzeppelin-contracts/contracts/token/ERC721/ERC721.sol\":4057:4212  function isApprovedForAll(address owner, address operator) public view virtual returns (bool) {... */\n    tag_24:\n      tag_29\n      tag_106\n      calldatasize\n      0x04\n      tag_107\n      jump\t// in\n    tag_106:\n      tag_108\n      jump\t// in\n        /* \"openzeppelin-contracts/contracts/access/Ownable.sol\":2626:2846  function transferOwnership(address newOwner) public virtual onlyOwner {... */\n    tag_25:\n      tag_45\n      tag_111\n      calldatasize\n      0x04\n      tag_66\n      jump\t// in\n    tag_111:\n      tag_112\n      jump\t// in\n        /* \"openzeppelin-contracts/contracts/token/ERC721/ERC721.sol\":1607:1912  function supportsInterface(bytes4 interfaceId) public view virtual override(ERC165, IERC165) returns (bool) {... */\n    tag_32:\n        /* \"openzeppelin-contracts/contracts/token/ERC721/ERC721.sol\":1709:1713  bool */\n      0x00\n      not(sub(shl(0xe0, 0x01), 0x01))\n        /* \"openzeppelin-contracts/contracts/token/ERC721/ERC721.sol\":1746:1786  interfaceId == type(IERC721).interfaceId */\n      dup3\n      and\n      shl(0xe0, 0x80ac58cd)\n      eq\n      dup1\n        /* \"openzeppelin-contracts/contracts/token/ERC721/ERC721.sol\":1746:1851  interfaceId == type(IERC721).interfaceId ||... */\n      tag_114\n      jumpi\n      pop\n      not(sub(shl(0xe0, 0x01), 0x01))\n        /* \"openzeppelin-contracts/contracts/token/ERC721/ERC721.sol\":1803:1851  interfaceId == type(IERC721Metadata).interfaceId */\n      dup3\n      and\n      shl(0xe0, 0x5b5e139f)\n      eq\n        /* \"openzeppelin-contracts/contracts/token/ERC721/ERC721.sol\":1746:1851  interfaceId == type(IERC721).interfaceId ||... */\n    tag_114:\n        /* \"openzeppelin-contracts/contracts/token/ERC721/ERC721.sol\":1746:1904  interfaceId == type(IERC721).interfaceId ||... */\n      dup1\n      tag_116\n      jumpi\n      pop\n      shl(0xe0, 0x01ffc9a7)\n      not(sub(shl(0xe0, 0x01), 0x01))\n        /* \"openzeppelin-contracts/contracts/utils/introspection/ERC165.sol\":885:925  interfaceId == type(IERC165).interfaceId */\n      dup4\n      and\n      eq\n        /* \"openzeppelin-contracts/contracts/token/ERC721/ERC721.sol\":1868:1904  super.supportsInterface(interfaceId) */\n    tag_116:\n        /* \"openzeppelin-contracts/contracts/token/ERC721/ERC721.sol\":1726:1904  return... */\n      swap3\n        /* \"openzeppelin-contracts/contracts/token/ERC721/ERC721.sol\":1607:1912  function supportsInterface(bytes4 interfaceId) public view virtual override(ERC165, IERC165) returns (bool) {... */\n      swap2\n      pop\n      pop\n      jump\t// out\n        /* \"openzeppelin-contracts/contracts/token/ERC721/ERC721.sol\":2438:2529  function name() public view virtual returns (string memory) {... */\n    tag_36:\n        /* \"openzeppelin-contracts/contracts/token/ERC721/ERC721.sol\":2483:2496  string memory */\n      0x60\n        /* \"openzeppelin-contracts/contracts/token/ERC721/ERC721.sol\":2516:2521  _name */\n      0x00\n        /* \"openzeppelin-contracts/contracts/token/ERC721/ERC721.sol\":2509:2521  return _name */\n      dup1\n      sload\n      tag_119\n      swap1\n      tag_120\n      jump\t// in\n    tag_119:\n      dup1\n      0x1f\n      add\n      0x20\n      dup1\n      swap2\n      div\n      mul\n      0x20\n      add\n      mload(0x40)\n      swap1\n      dup2\n      add\n      0x40\n      mstore\n      dup1\n      swap3\n      swap2\n      swap1\n      dup2\n      dup2\n      mstore\n      0x20\n      add\n      dup3\n      dup1\n      sload\n      tag_121\n      swap1\n      tag_120\n      jump\t// in\n    tag_121:\n      dup1\n      iszero\n      tag_122\n      jumpi\n      dup1\n      0x1f\n      lt\n      tag_123\n      jumpi\n      0x0100\n      dup1\n      dup4\n      sload\n      div\n      mul\n      dup4\n      mstore\n      swap2\n      0x20\n      add\n      swap2\n      jump(tag_122)\n    tag_123:\n      dup3\n      add\n      swap2\n      swap1\n      0x00\n      mstore\n      keccak256(0x00, 0x20)\n      swap1\n    tag_124:\n      dup2\n      sload\n      dup2\n      mstore\n      swap1\n      0x01\n      add\n      swap1\n      0x20\n      add\n      dup1\n      dup4\n      gt\n      tag_124\n      jumpi\n      dup3\n      swap1\n      sub\n      0x1f\n      and\n      dup3\n      add\n      swap2\n    tag_122:\n      pop\n      pop\n      pop\n      pop\n      pop\n      swap1\n      pop\n        /* \"openzeppelin-contracts/contracts/token/ERC721/ERC721.sol\":2438:2529  function name() public view virtual returns (string memory) {... */\n      swap1\n      jump\t// out\n        /* \"openzeppelin-contracts/contracts/token/ERC721/ERC721.sol\":3610:3768  function getApproved(uint256 tokenId) public view virtual returns (address) {... */\n    tag_42:\n        /* \"openzeppelin-contracts/contracts/token/ERC721/ERC721.sol\":3677:3684  address */\n      0x00\n        /* \"openzeppelin-contracts/contracts/token/ERC721/ERC721.sol\":3697:3719  _requireOwned(tokenId) */\n      tag_126\n        /* \"openzeppelin-contracts/contracts/token/ERC721/ERC721.sol\":3711:3718  tokenId */\n      dup3\n        /* \"openzeppelin-contracts/contracts/token/ERC721/ERC721.sol\":3697:3710  _requireOwned */\n      tag_127\n        /* \"openzeppelin-contracts/contracts/token/ERC721/ERC721.sol\":3697:3719  _requireOwned(tokenId) */\n      jump\t// in\n    tag_126:\n      pop\n        /* \"openzeppelin-contracts/contracts/token/ERC721/ERC721.sol\":6186:6193  address */\n      0x00\n        /* \"openzeppelin-contracts/contracts/token/ERC721/ERC721.sol\":6213:6237  _tokenApprovals[tokenId] */\n      dup3\n      dup2\n      mstore\n        /* \"openzeppelin-contracts/contracts/token/ERC721/ERC721.sol\":6213:6228  _tokenApprovals */\n      0x04\n        /* \"openzeppelin-contracts/contracts/token/ERC721/ERC721.sol\":6213:6237  _tokenApprovals[tokenId] */\n      0x20\n      mstore\n      0x40\n      swap1\n      keccak256\n      sload\n      sub(shl(0xa0, 0x01), 0x01)\n      and\n        /* \"openzeppelin-contracts/contracts/token/ERC721/ERC721.sol\":3739:3760  _getApproved(tokenId) */\n      tag_116\n        /* \"openzeppelin-contracts/contracts/token/ERC721/ERC721.sol\":6116:6245  function _getApproved(uint256 tokenId) internal view virtual returns (address) {... */\n      jump\n        /* \"openzeppelin-contracts/contracts/token/ERC721/ERC721.sol\":3429:3544  function approve(address to, uint256 tokenId) public virtual {... */\n    tag_48:\n        /* \"openzeppelin-contracts/contracts/token/ERC721/ERC721.sol\":3501:3536  _approve(to, tokenId, _msgSender()) */\n      tag_131\n        /* \"openzeppelin-contracts/contracts/token/ERC721/ERC721.sol\":3510:3512  to */\n      dup3\n        /* \"openzeppelin-contracts/contracts/token/ERC721/ERC721.sol\":3514:3521  tokenId */\n      dup3\n        /* \"openzeppelin-contracts/contracts/utils/Context.sol\":752:762  msg.sender */\n      caller\n        /* \"openzeppelin-contracts/contracts/token/ERC721/ERC721.sol\":3501:3509  _approve */\n      tag_134\n        /* \"openzeppelin-contracts/contracts/token/ERC721/ERC721.sol\":3501:3536  _approve(to, tokenId, _msgSender()) */\n      jump\t// in\n    tag_131:\n        /* \"openzeppelin-contracts/contracts/token/ERC721/ERC721.sol\":3429:3544  function approve(address to, uint256 tokenId) public virtual {... */\n      pop\n      pop\n      jump\t// out\n        /* \"openzeppelin-contracts/contracts/token/ERC721/ERC721.sol\":4279:4867  function transferFrom(address from, address to, uint256 tokenId) public virtual {... */\n    tag_52:\n      sub(shl(0xa0, 0x01), 0x01)\n        /* \"openzeppelin-contracts/contracts/token/ERC721/ERC721.sol\":4374:4390  to == address(0) */\n      dup3\n      and\n        /* \"openzeppelin-contracts/contracts/token/ERC721/ERC721.sol\":4370:4459  if (to == address(0)) {... */\n      tag_136\n      jumpi\n        /* \"openzeppelin-contracts/contracts/token/ERC721/ERC721.sol\":4414:4447  ERC721InvalidReceiver(address(0)) */\n      mload(0x40)\n      shl(0xe1, 0x32505749)\n      dup2\n      mstore\n        /* \"openzeppelin-contracts/contracts/token/ERC721/ERC721.sol\":4444:4445  0 */\n      0x00\n        /* \"openzeppelin-contracts/contracts/token/ERC721/ERC721.sol\":4414:4447  ERC721InvalidReceiver(address(0)) */\n      0x04\n      dup3\n      add\n        /* \"#utility.yul\":1679:1730   */\n      mstore\n        /* \"#utility.yul\":1652:1670   */\n      0x24\n      add\n        /* \"openzeppelin-contracts/contracts/token/ERC721/ERC721.sol\":4414:4447  ERC721InvalidReceiver(address(0)) */\n    tag_137:\n      mload(0x40)\n      dup1\n      swap2\n      sub\n      swap1\n      revert\n        /* \"openzeppelin-contracts/contracts/token/ERC721/ERC721.sol\":4370:4459  if (to == address(0)) {... */\n    tag_136:\n        /* \"openzeppelin-contracts/contracts/token/ERC721/ERC721.sol\":4680:4701  address previousOwner */\n      0x00\n        /* \"openzeppelin-contracts/contracts/token/ERC721/ERC721.sol\":4704:4738  _update(to, tokenId, _msgSender()) */\n      tag_138\n        /* \"openzeppelin-contracts/contracts/token/ERC721/ERC721.sol\":4712:4714  to */\n      dup4\n        /* \"openzeppelin-contracts/contracts/token/ERC721/ERC721.sol\":4716:4723  tokenId */\n      dup4\n        /* \"openzeppelin-contracts/contracts/utils/Context.sol\":752:762  msg.sender */\n      caller\n        /* \"openzeppelin-contracts/contracts/token/ERC721/ERC721.sol\":4704:4711  _update */\n      tag_140\n        /* \"openzeppelin-contracts/contracts/token/ERC721/ERC721.sol\":4704:4738  _update(to, tokenId, _msgSender()) */\n      jump\t// in\n    tag_138:\n        /* \"openzeppelin-contracts/contracts/token/ERC721/ERC721.sol\":4680:4738  address previousOwner = _update(to, tokenId, _msgSender()) */\n      swap1\n      pop\n        /* \"openzeppelin-contracts/contracts/token/ERC721/ERC721.sol\":4770:4774  from */\n      dup4\n      sub(shl(0xa0, 0x01), 0x01)\n        /* \"openzeppelin-contracts/contracts/token/ERC721/ERC721.sol\":4753:4774  previousOwner != from */\n      and\n        /* \"openzeppelin-contracts/contracts/token/ERC721/ERC721.sol\":4753:4766  previousOwner */\n      dup2\n      sub(shl(0xa0, 0x01), 0x01)\n        /* \"openzeppelin-contracts/contracts/token/ERC721/ERC721.sol\":4753:4774  previousOwner != from */\n      and\n      eq\n        /* \"openzeppelin-contracts/contracts/token/ERC721/ERC721.sol\":4749:4860  if (previousOwner != from) {... */\n      tag_141\n      jumpi\n        /* \"openzeppelin-contracts/contracts/token/ERC721/ERC721.sol\":4798:4848  ERC721IncorrectOwner(from, tokenId, previousOwner) */\n      mload(0x40)\n      shl(0xe0, 0x64283d7b)\n      dup2\n      mstore\n      sub(shl(0xa0, 0x01), 0x01)\n        /* \"#utility.yul\":6016:6031   */\n      dup1\n      dup7\n      and\n        /* \"openzeppelin-contracts/contracts/token/ERC721/ERC721.sol\":4798:4848  ERC721IncorrectOwner(from, tokenId, previousOwner) */\n      0x04\n      dup4\n      add\n        /* \"#utility.yul\":5998:6032   */\n      mstore\n        /* \"#utility.yul\":6048:6066   */\n      0x24\n      dup3\n      add\n        /* \"#utility.yul\":6041:6075   */\n      dup5\n      swap1\n      mstore\n        /* \"#utility.yul\":6111:6126   */\n      dup3\n      and\n        /* \"#utility.yul\":6091:6109   */\n      0x44\n      dup3\n      add\n        /* \"#utility.yul\":6084:6127   */\n      mstore\n        /* \"#utility.yul\":5933:5951   */\n      0x64\n      add\n        /* \"openzeppelin-contracts/contracts/token/ERC721/ERC721.sol\":4798:4848  ERC721IncorrectOwner(from, tokenId, previousOwner) */\n      tag_137\n        /* \"#utility.yul\":5758:6133   */\n      jump\n        /* \"openzeppelin-contracts/contracts/token/ERC721/ERC721.sol\":4749:4860  if (previousOwner != from) {... */\n    tag_141:\n        /* \"openzeppelin-contracts/contracts/token/ERC721/ERC721.sol\":4359:4867  {... */\n      pop\n        /* \"openzeppelin-contracts/contracts/token/ERC721/ERC721.sol\":4279:4867  function transferFrom(address from, address to, uint256 tokenId) public virtual {... */\n      pop\n      pop\n      pop\n      jump\t// out\n        /* \"openzeppelin-contracts/contracts/token/ERC721/ERC721.sol\":4938:5072  function safeTransferFrom(address from, address to, uint256 tokenId) public {... */\n    tag_55:\n        /* \"openzeppelin-contracts/contracts/token/ERC721/ERC721.sol\":5025:5064  safeTransferFrom(from, to, tokenId, \"\") */\n      tag_145\n        /* \"openzeppelin-contracts/contracts/token/ERC721/ERC721.sol\":5042:5046  from */\n      dup4\n        /* \"openzeppelin-contracts/contracts/token/ERC721/ERC721.sol\":5048:5050  to */\n      dup4\n        /* \"openzeppelin-contracts/contracts/token/ERC721/ERC721.sol\":5052:5059  tokenId */\n      dup4\n        /* \"openzeppelin-contracts/contracts/token/ERC721/ERC721.sol\":5025:5064  safeTransferFrom(from, to, tokenId, \"\") */\n      mload(0x40)\n      dup1\n      0x20\n      add\n      0x40\n      mstore\n      dup1\n      0x00\n      dup2\n      mstore\n      pop\n        /* \"openzeppelin-contracts/contracts/token/ERC721/ERC721.sol\":5025:5041  safeTransferFrom */\n      tag_100\n        /* \"openzeppelin-contracts/contracts/token/ERC721/ERC721.sol\":5025:5064  safeTransferFrom(from, to, tokenId, \"\") */\n      jump\t// in\n    tag_145:\n        /* \"openzeppelin-contracts/contracts/token/ERC721/ERC721.sol\":4938:5072  function safeTransferFrom(address from, address to, uint256 tokenId) public {... */\n      pop\n      pop\n      pop\n      jump\t// out\n        /* \"PictureToken.sol\":980:1050  function putOnSale() public onlyOwner {... */\n    tag_57:\n        /* \"openzeppelin-contracts/contracts/access/Ownable.sol\":1579:1592  _checkOwner() */\n      tag_147\n        /* \"openzeppelin-contracts/contracts/access/Ownable.sol\":1579:1590  _checkOwner */\n      tag_148\n        /* \"openzeppelin-contracts/contracts/access/Ownable.sol\":1579:1592  _checkOwner() */\n      jump\t// in\n    tag_147:\n        /* \"PictureToken.sol\":1029:1035  onSale */\n      0x09\n        /* \"PictureToken.sol\":1029:1042  onSale = true */\n      dup1\n      sload\n      not(0xff)\n      and\n        /* \"PictureToken.sol\":1038:1042  true */\n      0x01\n        /* \"PictureToken.sol\":1029:1042  onSale = true */\n      or\n      swap1\n      sstore\n        /* \"PictureToken.sol\":980:1050  function putOnSale() public onlyOwner {... */\n      jump\t// out\n        /* \"openzeppelin-contracts/contracts/token/ERC721/ERC721.sol\":2251:2371  function ownerOf(uint256 tokenId) public view virtual returns (address) {... */\n    tag_60:\n        /* \"openzeppelin-contracts/contracts/token/ERC721/ERC721.sol\":2314:2321  address */\n      0x00\n        /* \"openzeppelin-contracts/contracts/token/ERC721/ERC721.sol\":2341:2363  _requireOwned(tokenId) */\n      tag_116\n        /* \"openzeppelin-contracts/contracts/token/ERC721/ERC721.sol\":2355:2362  tokenId */\n      dup3\n        /* \"openzeppelin-contracts/contracts/token/ERC721/ERC721.sol\":2341:2354  _requireOwned */\n      tag_127\n        /* \"openzeppelin-contracts/contracts/token/ERC721/ERC721.sol\":2341:2363  _requireOwned(tokenId) */\n      jump\t// in\n        /* \"PictureToken.sol\":1140:1306  function purchase() public {... */\n    tag_63:\n        /* \"PictureToken.sol\":1207:1212  price */\n      sload(0x08)\n        /* \"PictureToken.sol\":1178:1213  payable(msg.sender).transfer(price) */\n      mload(0x40)\n        /* \"PictureToken.sol\":1186:1196  msg.sender */\n      caller\n      swap2\n        /* \"PictureToken.sol\":1178:1213  payable(msg.sender).transfer(price) */\n      dup1\n      iszero\n      0x08fc\n      mul\n      swap2\n      0x00\n      dup2\n      dup2\n      dup2\n        /* \"PictureToken.sol\":1207:1212  price */\n      dup6\n        /* \"PictureToken.sol\":1186:1196  msg.sender */\n      dup9\n        /* \"PictureToken.sol\":1178:1213  payable(msg.sender).transfer(price) */\n      dup9\n      call\n      swap4\n      pop\n      pop\n      pop\n      pop\n      iszero\n      dup1\n      iszero\n      tag_154\n      jumpi\n      returndatasize\n      0x00\n      dup1\n      returndatacopy\n      revert(0x00, returndatasize)\n    tag_154:\n      pop\n        /* \"PictureToken.sol\":1224:1253  transferOwnership(msg.sender) */\n      tag_155\n        /* \"PictureToken.sol\":1242:1252  msg.sender */\n      caller\n        /* \"PictureToken.sol\":1224:1241  transferOwnership */\n      tag_112\n        /* \"PictureToken.sol\":1224:1253  transferOwnership(msg.sender) */\n      jump\t// in\n    tag_155:\n        /* \"PictureToken.sol\":1272:1273  0 */\n      0x00\n        /* \"PictureToken.sol\":1264:1269  price */\n      0x08\n        /* \"PictureToken.sol\":1264:1273  price = 0 */\n      sstore\n        /* \"PictureToken.sol\":1284:1290  onSale */\n      0x09\n        /* \"PictureToken.sol\":1284:1298  onSale = false */\n      dup1\n      sload\n      not(0xff)\n      and\n      swap1\n      sstore\n        /* \"PictureToken.sol\":1140:1306  function purchase() public {... */\n      jump\t// out\n        /* \"openzeppelin-contracts/contracts/token/ERC721/ERC721.sol\":1976:2189  function balanceOf(address owner) public view virtual returns (uint256) {... */\n    tag_67:\n        /* \"openzeppelin-contracts/contracts/token/ERC721/ERC721.sol\":2039:2046  uint256 */\n      0x00\n      sub(shl(0xa0, 0x01), 0x01)\n        /* \"openzeppelin-contracts/contracts/token/ERC721/ERC721.sol\":2063:2082  owner == address(0) */\n      dup3\n      and\n        /* \"openzeppelin-contracts/contracts/token/ERC721/ERC721.sol\":2059:2148  if (owner == address(0)) {... */\n      tag_157\n      jumpi\n        /* \"openzeppelin-contracts/contracts/token/ERC721/ERC721.sol\":2106:2136  ERC721InvalidOwner(address(0)) */\n      mload(0x40)\n      shl(0xe2, 0x22718ad9)\n      dup2\n      mstore\n        /* \"openzeppelin-contracts/contracts/token/ERC721/ERC721.sol\":2133:2134  0 */\n      0x00\n        /* \"openzeppelin-contracts/contracts/token/ERC721/ERC721.sol\":2106:2136  ERC721InvalidOwner(address(0)) */\n      0x04\n      dup3\n      add\n        /* \"#utility.yul\":1679:1730   */\n      mstore\n        /* \"#utility.yul\":1652:1670   */\n      0x24\n      add\n        /* \"openzeppelin-contracts/contracts/token/ERC721/ERC721.sol\":2106:2136  ERC721InvalidOwner(address(0)) */\n      tag_137\n        /* \"#utility.yul\":1533:1736   */\n      jump\n        /* \"openzeppelin-contracts/contracts/token/ERC721/ERC721.sol\":2059:2148  if (owner == address(0)) {... */\n    tag_157:\n      pop\n      sub(shl(0xa0, 0x01), 0x01)\n        /* \"openzeppelin-contracts/contracts/token/ERC721/ERC721.sol\":2165:2181  _balances[owner] */\n      and\n      0x00\n      swap1\n      dup2\n      mstore\n        /* \"openzeppelin-contracts/contracts/token/ERC721/ERC721.sol\":2165:2174  _balances */\n      0x03\n        /* \"openzeppelin-contracts/contracts/token/ERC721/ERC721.sol\":2165:2181  _balances[owner] */\n      0x20\n      mstore\n      0x40\n      swap1\n      keccak256\n      sload\n      swap1\n        /* \"openzeppelin-contracts/contracts/token/ERC721/ERC721.sol\":1976:2189  function balanceOf(address owner) public view virtual returns (uint256) {... */\n      jump\t// out\n        /* \"openzeppelin-contracts/contracts/access/Ownable.sol\":2368:2471  function renounceOwnership() public virtual onlyOwner {... */\n    tag_71:\n        /* \"openzeppelin-contracts/contracts/access/Ownable.sol\":1579:1592  _checkOwner() */\n      tag_160\n        /* \"openzeppelin-contracts/contracts/access/Ownable.sol\":1579:1590  _checkOwner */\n      tag_148\n        /* \"openzeppelin-contracts/contracts/access/Ownable.sol\":1579:1592  _checkOwner() */\n      jump\t// in\n    tag_160:\n        /* \"openzeppelin-contracts/contracts/access/Ownable.sol\":2433:2463  _transferOwnership(address(0)) */\n      tag_162\n        /* \"openzeppelin-contracts/contracts/access/Ownable.sol\":2460:2461  0 */\n      0x00\n        /* \"openzeppelin-contracts/contracts/access/Ownable.sol\":2433:2451  _transferOwnership */\n      tag_163\n        /* \"openzeppelin-contracts/contracts/access/Ownable.sol\":2433:2463  _transferOwnership(address(0)) */\n      jump\t// in\n    tag_162:\n        /* \"openzeppelin-contracts/contracts/access/Ownable.sol\":2368:2471  function renounceOwnership() public virtual onlyOwner {... */\n      jump\t// out\n        /* \"PictureToken.sol\":647:792  function getSinglePictureToken() public view returns(tokenData memory) {... */\n    tag_73:\n        /* \"PictureToken.sol\":700:716  tokenData memory */\n      tag_164\n      mload(0x40)\n      dup1\n      0x80\n      add\n      0x40\n      mstore\n      dup1\n      and(sub(shl(0xa0, 0x01), 0x01), 0x00)\n      dup2\n      mstore\n      0x20\n      add\n      0x60\n      dup2\n      mstore\n      0x20\n      add\n      0x00\n      dup2\n      mstore\n      0x20\n      add\n      iszero(iszero(0x00))\n      dup2\n      mstore\n      pop\n      swap1\n      jump\n    tag_164:\n        /* \"PictureToken.sol\":736:784  tokenData(Ownable.owner(), image, price, onSale) */\n      mload(0x40)\n      dup1\n      0x80\n      add\n      0x40\n      mstore\n      dup1\n        /* \"PictureToken.sol\":746:761  Ownable.owner() */\n      tag_167\n        /* \"openzeppelin-contracts/contracts/access/Ownable.sol\":1766:1772  _owner */\n      and(sub(shl(0xa0, 0x01), 0x01), sload(0x06))\n      swap1\n        /* \"openzeppelin-contracts/contracts/access/Ownable.sol\":1693:1780  function owner() public view virtual returns (address) {... */\n      jump\n        /* \"PictureToken.sol\":746:761  Ownable.owner() */\n    tag_167:\n      sub(shl(0xa0, 0x01), 0x01)\n        /* \"PictureToken.sol\":736:784  tokenData(Ownable.owner(), image, price, onSale) */\n      and\n      dup2\n      mstore\n      0x20\n      add\n        /* \"PictureToken.sol\":763:768  image */\n      0x07\n        /* \"PictureToken.sol\":736:784  tokenData(Ownable.owner(), image, price, onSale) */\n      dup1\n      sload\n      tag_168\n      swap1\n      tag_120\n      jump\t// in\n    tag_168:\n      dup1\n      0x1f\n      add\n      0x20\n      dup1\n      swap2\n      div\n      mul\n      0x20\n      add\n      mload(0x40)\n      swap1\n      dup2\n      add\n      0x40\n      mstore\n      dup1\n      swap3\n      swap2\n      swap1\n      dup2\n      dup2\n      mstore\n      0x20\n      add\n      dup3\n      dup1\n      sload\n      tag_169\n      swap1\n      tag_120\n      jump\t// in\n    tag_169:\n      dup1\n      iszero\n      tag_170\n      jumpi\n      dup1\n      0x1f\n      lt\n      tag_171\n      jumpi\n      0x0100\n      dup1\n      dup4\n      sload\n      div\n      mul\n      dup4\n      mstore\n      swap2\n      0x20\n      add\n      swap2\n      jump(tag_170)\n    tag_171:\n      dup3\n      add\n      swap2\n      swap1\n      0x00\n      mstore\n      keccak256(0x00, 0x20)\n      swap1\n    tag_172:\n      dup2\n      sload\n      dup2\n      mstore\n      swap1\n      0x01\n      add\n      swap1\n      0x20\n      add\n      dup1\n      dup4\n      gt\n      tag_172\n      jumpi\n      dup3\n      swap1\n      sub\n      0x1f\n      and\n      dup3\n      add\n      swap2\n    tag_170:\n      pop\n      pop\n      pop\n      swap2\n      dup4\n      mstore\n      pop\n      pop\n        /* \"PictureToken.sol\":770:775  price */\n      sload(0x08)\n        /* \"PictureToken.sol\":736:784  tokenData(Ownable.owner(), image, price, onSale) */\n      0x20\n      dup3\n      add\n      mstore\n        /* \"PictureToken.sol\":777:783  onSale */\n      and(0xff, sload(0x09))\n        /* \"PictureToken.sol\":736:784  tokenData(Ownable.owner(), image, price, onSale) */\n      iszero\n      iszero\n      0x40\n      swap1\n      swap2\n      add\n      mstore\n        /* \"PictureToken.sol\":729:784  return tokenData(Ownable.owner(), image, price, onSale) */\n      swap2\n        /* \"PictureToken.sol\":647:792  function getSinglePictureToken() public view returns(tokenData memory) {... */\n      swap1\n      pop\n      jump\t// out\n        /* \"PictureToken.sol\":1058:1132  function notPutOnSale() public onlyOwner {... */\n    tag_77:\n        /* \"openzeppelin-contracts/contracts/access/Ownable.sol\":1579:1592  _checkOwner() */\n      tag_174\n        /* \"openzeppelin-contracts/contracts/access/Ownable.sol\":1579:1590  _checkOwner */\n      tag_148\n        /* \"openzeppelin-contracts/contracts/access/Ownable.sol\":1579:1592  _checkOwner() */\n      jump\t// in\n    tag_174:\n        /* \"PictureToken.sol\":1110:1116  onSale */\n      0x09\n        /* \"PictureToken.sol\":1110:1124  onSale = false */\n      dup1\n      sload\n      not(0xff)\n      and\n      swap1\n      sstore\n        /* \"PictureToken.sol\":1058:1132  function notPutOnSale() public onlyOwner {... */\n      jump\t// out\n        /* \"PictureToken.sol\":888:972  function setPrice(uint256 _price) public onlyOwner {... */\n    tag_83:\n        /* \"openzeppelin-contracts/contracts/access/Ownable.sol\":1579:1592  _checkOwner() */\n      tag_178\n        /* \"openzeppelin-contracts/contracts/access/Ownable.sol\":1579:1590  _checkOwner */\n      tag_148\n        /* \"openzeppelin-contracts/contracts/access/Ownable.sol\":1579:1592  _checkOwner() */\n      jump\t// in\n    tag_178:\n        /* \"PictureToken.sol\":950:955  price */\n      0x08\n        /* \"PictureToken.sol\":950:964  price = _price */\n      sstore\n        /* \"PictureToken.sol\":888:972  function setPrice(uint256 _price) public onlyOwner {... */\n      jump\t// out\n        /* \"openzeppelin-contracts/contracts/token/ERC721/ERC721.sol\":2598:2693  function symbol() public view virtual returns (string memory) {... */\n    tag_85:\n        /* \"openzeppelin-contracts/contracts/token/ERC721/ERC721.sol\":2645:2658  string memory */\n      0x60\n        /* \"openzeppelin-contracts/contracts/token/ERC721/ERC721.sol\":2678:2685  _symbol */\n      0x01\n        /* \"openzeppelin-contracts/contracts/token/ERC721/ERC721.sol\":2671:2685  return _symbol */\n      dup1\n      sload\n      tag_119\n      swap1\n      tag_120\n      jump\t// in\n        /* \"openzeppelin-contracts/contracts/token/ERC721/ERC721.sol\":3840:3986  function setApprovalForAll(address operator, bool approved) public virtual {... */\n    tag_96:\n        /* \"openzeppelin-contracts/contracts/token/ERC721/ERC721.sol\":3926:3978  _setApprovalForAll(_msgSender(), operator, approved) */\n      tag_131\n        /* \"openzeppelin-contracts/contracts/utils/Context.sol\":752:762  msg.sender */\n      caller\n        /* \"openzeppelin-contracts/contracts/token/ERC721/ERC721.sol\":3959:3967  operator */\n      dup4\n        /* \"openzeppelin-contracts/contracts/token/ERC721/ERC721.sol\":3969:3977  approved */\n      dup4\n        /* \"openzeppelin-contracts/contracts/token/ERC721/ERC721.sol\":3926:3944  _setApprovalForAll */\n      tag_190\n        /* \"openzeppelin-contracts/contracts/token/ERC721/ERC721.sol\":3926:3978  _setApprovalForAll(_msgSender(), operator, approved) */\n      jump\t// in\n        /* \"openzeppelin-contracts/contracts/token/ERC721/ERC721.sol\":5143:5354  function safeTransferFrom(address from, address to, uint256 tokenId, bytes memory data) public virtual {... */\n    tag_100:\n        /* \"openzeppelin-contracts/contracts/token/ERC721/ERC721.sol\":5257:5288  transferFrom(from, to, tokenId) */\n      tag_192\n        /* \"openzeppelin-contracts/contracts/token/ERC721/ERC721.sol\":5270:5274  from */\n      dup5\n        /* \"openzeppelin-contracts/contracts/token/ERC721/ERC721.sol\":5276:5278  to */\n      dup5\n        /* \"openzeppelin-contracts/contracts/token/ERC721/ERC721.sol\":5280:5287  tokenId */\n      dup5\n        /* \"openzeppelin-contracts/contracts/token/ERC721/ERC721.sol\":5257:5269  transferFrom */\n      tag_52\n        /* \"openzeppelin-contracts/contracts/token/ERC721/ERC721.sol\":5257:5288  transferFrom(from, to, tokenId) */\n      jump\t// in\n    tag_192:\n        /* \"openzeppelin-contracts/contracts/token/ERC721/ERC721.sol\":5299:5346  _checkOnERC721Received(from, to, tokenId, data) */\n      tag_141\n        /* \"openzeppelin-contracts/contracts/token/ERC721/ERC721.sol\":5322:5326  from */\n      dup5\n        /* \"openzeppelin-contracts/contracts/token/ERC721/ERC721.sol\":5328:5330  to */\n      dup5\n        /* \"openzeppelin-contracts/contracts/token/ERC721/ERC721.sol\":5332:5339  tokenId */\n      dup5\n        /* \"openzeppelin-contracts/contracts/token/ERC721/ERC721.sol\":5341:5345  data */\n      dup5\n        /* \"openzeppelin-contracts/contracts/token/ERC721/ERC721.sol\":5299:5321  _checkOnERC721Received */\n      tag_194\n        /* \"openzeppelin-contracts/contracts/token/ERC721/ERC721.sol\":5299:5346  _checkOnERC721Received(from, to, tokenId, data) */\n      jump\t// in\n        /* \"openzeppelin-contracts/contracts/token/ERC721/ERC721.sol\":2764:3024  function tokenURI(uint256 tokenId) public view virtual returns (string memory) {... */\n    tag_103:\n        /* \"openzeppelin-contracts/contracts/token/ERC721/ERC721.sol\":2828:2841  string memory */\n      0x60\n        /* \"openzeppelin-contracts/contracts/token/ERC721/ERC721.sol\":2854:2876  _requireOwned(tokenId) */\n      tag_196\n        /* \"openzeppelin-contracts/contracts/token/ERC721/ERC721.sol\":2868:2875  tokenId */\n      dup3\n        /* \"openzeppelin-contracts/contracts/token/ERC721/ERC721.sol\":2854:2867  _requireOwned */\n      tag_127\n        /* \"openzeppelin-contracts/contracts/token/ERC721/ERC721.sol\":2854:2876  _requireOwned(tokenId) */\n      jump\t// in\n    tag_196:\n      pop\n        /* \"openzeppelin-contracts/contracts/token/ERC721/ERC721.sol\":2889:2910  string memory baseURI */\n      0x00\n        /* \"openzeppelin-contracts/contracts/token/ERC721/ERC721.sol\":2913:2923  _baseURI() */\n      tag_197\n        /* \"PictureToken.sol\":598:631  return \"ipfs://pieceTokenBaseURI\" */\n      0x40\n      dup1\n      mload\n      dup1\n      dup3\n      add\n      swap1\n      swap2\n      mstore\n      0x18\n      dup2\n      mstore\n      0x697066733a2f2f7069656365546f6b656e426173655552490000000000000000\n      0x20\n      dup3\n      add\n      mstore\n      swap1\n        /* \"PictureToken.sol\":520:639  function _baseURI() internal pure override returns (string memory) {... */\n      jump\n        /* \"openzeppelin-contracts/contracts/token/ERC721/ERC721.sol\":2913:2923  _baseURI() */\n    tag_197:\n        /* \"openzeppelin-contracts/contracts/token/ERC721/ERC721.sol\":2889:2923  string memory baseURI = _baseURI() */\n      swap1\n      pop\n        /* \"openzeppelin-contracts/contracts/token/ERC721/ERC721.sol\":2965:2966  0 */\n      0x00\n        /* \"openzeppelin-contracts/contracts/token/ERC721/ERC721.sol\":2947:2954  baseURI */\n      dup2\n        /* \"openzeppelin-contracts/contracts/token/ERC721/ERC721.sol\":2941:2962  bytes(baseURI).length */\n      mload\n        /* \"openzeppelin-contracts/contracts/token/ERC721/ERC721.sol\":2941:2966  bytes(baseURI).length > 0 */\n      gt\n        /* \"openzeppelin-contracts/contracts/token/ERC721/ERC721.sol\":2941:3016  bytes(baseURI).length > 0 ? string.concat(baseURI, tokenId.toString()) : \"\" */\n      tag_199\n      jumpi\n      mload(0x40)\n      dup1\n      0x20\n      add\n      0x40\n      mstore\n      dup1\n      0x00\n      dup2\n      mstore\n      pop\n      jump(tag_200)\n    tag_199:\n        /* \"openzeppelin-contracts/contracts/token/ERC721/ERC721.sol\":2983:2990  baseURI */\n      dup1\n        /* \"openzeppelin-contracts/contracts/token/ERC721/ERC721.sol\":2992:3010  tokenId.toString() */\n      tag_201\n        /* \"openzeppelin-contracts/contracts/token/ERC721/ERC721.sol\":2992:2999  tokenId */\n      dup5\n        /* \"openzeppelin-contracts/contracts/token/ERC721/ERC721.sol\":2992:3008  tokenId.toString */\n      tag_202\n        /* \"openzeppelin-contracts/contracts/token/ERC721/ERC721.sol\":2992:3010  tokenId.toString() */\n      jump\t// in\n    tag_201:\n        /* \"openzeppelin-contracts/contracts/token/ERC721/ERC721.sol\":2969:3011  string.concat(baseURI, tokenId.toString()) */\n      add(0x20, mload(0x40))\n      tag_203\n      swap3\n      swap2\n      swap1\n      tag_204\n      jump\t// in\n    tag_203:\n      mload(0x40)\n      0x20\n      dup2\n      dup4\n      sub\n      sub\n      dup2\n      mstore\n      swap1\n      0x40\n      mstore\n        /* \"openzeppelin-contracts/contracts/token/ERC721/ERC721.sol\":2941:3016  bytes(baseURI).length > 0 ? string.concat(baseURI, tokenId.toString()) : \"\" */\n    tag_200:\n        /* \"openzeppelin-contracts/contracts/token/ERC721/ERC721.sol\":2934:3016  return bytes(baseURI).length > 0 ? string.concat(baseURI, tokenId.toString()) : \"\" */\n      swap4\n        /* \"openzeppelin-contracts/contracts/token/ERC721/ERC721.sol\":2764:3024  function tokenURI(uint256 tokenId) public view virtual returns (string memory) {... */\n      swap3\n      pop\n      pop\n      pop\n      jump\t// out\n        /* \"openzeppelin-contracts/contracts/token/ERC721/ERC721.sol\":4057:4212  function isApprovedForAll(address owner, address operator) public view virtual returns (bool) {... */\n    tag_108:\n      sub(shl(0xa0, 0x01), 0x01)\n        /* \"openzeppelin-contracts/contracts/token/ERC721/ERC721.sol\":4169:4194  _operatorApprovals[owner] */\n      swap2\n      dup3\n      and\n        /* \"openzeppelin-contracts/contracts/token/ERC721/ERC721.sol\":4145:4149  bool */\n      0x00\n        /* \"openzeppelin-contracts/contracts/token/ERC721/ERC721.sol\":4169:4194  _operatorApprovals[owner] */\n      swap1\n      dup2\n      mstore\n        /* \"openzeppelin-contracts/contracts/token/ERC721/ERC721.sol\":4169:4187  _operatorApprovals */\n      0x05\n        /* \"openzeppelin-contracts/contracts/token/ERC721/ERC721.sol\":4169:4194  _operatorApprovals[owner] */\n      0x20\n      swap1\n      dup2\n      mstore\n      0x40\n      dup1\n      dup4\n      keccak256\n        /* \"openzeppelin-contracts/contracts/token/ERC721/ERC721.sol\":4169:4204  _operatorApprovals[owner][operator] */\n      swap4\n      swap1\n      swap5\n      and\n      dup3\n      mstore\n      swap2\n      swap1\n      swap2\n      mstore\n      keccak256\n      sload\n      0xff\n      and\n      swap1\n        /* \"openzeppelin-contracts/contracts/token/ERC721/ERC721.sol\":4057:4212  function isApprovedForAll(address owner, address operator) public view virtual returns (bool) {... */\n      jump\t// out\n        /* \"openzeppelin-contracts/contracts/access/Ownable.sol\":2626:2846  function transferOwnership(address newOwner) public virtual onlyOwner {... */\n    tag_112:\n        /* \"openzeppelin-contracts/contracts/access/Ownable.sol\":1579:1592  _checkOwner() */\n      tag_207\n        /* \"openzeppelin-contracts/contracts/access/Ownable.sol\":1579:1590  _checkOwner */\n      tag_148\n        /* \"openzeppelin-contracts/contracts/access/Ownable.sol\":1579:1592  _checkOwner() */\n      jump\t// in\n    tag_207:\n      sub(shl(0xa0, 0x01), 0x01)\n        /* \"openzeppelin-contracts/contracts/access/Ownable.sol\":2711:2733  newOwner == address(0) */\n      dup2\n      and\n        /* \"openzeppelin-contracts/contracts/access/Ownable.sol\":2707:2800  if (newOwner == address(0)) {... */\n      tag_209\n      jumpi\n        /* \"openzeppelin-contracts/contracts/access/Ownable.sol\":2757:2788  OwnableInvalidOwner(address(0)) */\n      mload(0x40)\n      shl(0xe0, 0x1e4fbdf7)\n      dup2\n      mstore\n        /* \"openzeppelin-contracts/contracts/access/Ownable.sol\":2785:2786  0 */\n      0x00\n        /* \"openzeppelin-contracts/contracts/access/Ownable.sol\":2757:2788  OwnableInvalidOwner(address(0)) */\n      0x04\n      dup3\n      add\n        /* \"#utility.yul\":1679:1730   */\n      mstore\n        /* \"#utility.yul\":1652:1670   */\n      0x24\n      add\n        /* \"openzeppelin-contracts/contracts/access/Ownable.sol\":2757:2788  OwnableInvalidOwner(address(0)) */\n      tag_137\n        /* \"#utility.yul\":1533:1736   */\n      jump\n        /* \"openzeppelin-contracts/contracts/access/Ownable.sol\":2707:2800  if (newOwner == address(0)) {... */\n    tag_209:\n        /* \"openzeppelin-contracts/contracts/access/Ownable.sol\":2810:2838  _transferOwnership(newOwner) */\n      tag_211\n        /* \"openzeppelin-contracts/contracts/access/Ownable.sol\":2829:2837  newOwner */\n      dup2\n        /* \"openzeppelin-contracts/contracts/access/Ownable.sol\":2810:2828  _transferOwnership */\n      tag_163\n        /* \"openzeppelin-contracts/contracts/access/Ownable.sol\":2810:2838  _transferOwnership(newOwner) */\n      jump\t// in\n    tag_211:\n        /* \"openzeppelin-contracts/contracts/access/Ownable.sol\":2626:2846  function transferOwnership(address newOwner) public virtual onlyOwner {... */\n      pop\n      jump\t// out\n        /* \"openzeppelin-contracts/contracts/token/ERC721/ERC721.sol\":16585:16832  function _requireOwned(uint256 tokenId) internal view returns (address) {... */\n    tag_127:\n        /* \"openzeppelin-contracts/contracts/token/ERC721/ERC721.sol\":16648:16655  address */\n      0x00\n        /* \"openzeppelin-contracts/contracts/token/ERC721/ERC721.sol\":5971:5987  _owners[tokenId] */\n      dup2\n      dup2\n      mstore\n        /* \"openzeppelin-contracts/contracts/token/ERC721/ERC721.sol\":5971:5978  _owners */\n      0x02\n        /* \"openzeppelin-contracts/contracts/token/ERC721/ERC721.sol\":5971:5987  _owners[tokenId] */\n      0x20\n      mstore\n      0x40\n      dup2\n      keccak256\n      sload\n      sub(shl(0xa0, 0x01), 0x01)\n      and\n      dup1\n        /* \"openzeppelin-contracts/contracts/token/ERC721/ERC721.sol\":16712:16802  if (owner == address(0)) {... */\n      tag_116\n      jumpi\n        /* \"openzeppelin-contracts/contracts/token/ERC721/ERC721.sol\":16759:16790  ERC721NonexistentToken(tokenId) */\n      mload(0x40)\n      shl(0xe0, 0x7e273289)\n      dup2\n      mstore\n      0x04\n      dup2\n      add\n        /* \"#utility.yul\":2848:2873   */\n      dup5\n      swap1\n      mstore\n        /* \"#utility.yul\":2821:2839   */\n      0x24\n      add\n        /* \"openzeppelin-contracts/contracts/token/ERC721/ERC721.sol\":16759:16790  ERC721NonexistentToken(tokenId) */\n      tag_137\n        /* \"#utility.yul\":2702:2879   */\n      jump\n        /* \"openzeppelin-contracts/contracts/token/ERC721/ERC721.sol\":14817:14939  function _approve(address to, uint256 tokenId, address auth) internal {... */\n    tag_134:\n        /* \"openzeppelin-contracts/contracts/token/ERC721/ERC721.sol\":14898:14931  _approve(to, tokenId, auth, true) */\n      tag_145\n        /* \"openzeppelin-contracts/contracts/token/ERC721/ERC721.sol\":14907:14909  to */\n      dup4\n        /* \"openzeppelin-contracts/contracts/token/ERC721/ERC721.sol\":14911:14918  tokenId */\n      dup4\n        /* \"openzeppelin-contracts/contracts/token/ERC721/ERC721.sol\":14920:14924  auth */\n      dup4\n        /* \"openzeppelin-contracts/contracts/token/ERC721/ERC721.sol\":14926:14930  true */\n      0x01\n        /* \"openzeppelin-contracts/contracts/token/ERC721/ERC721.sol\":14898:14906  _approve */\n      tag_222\n        /* \"openzeppelin-contracts/contracts/token/ERC721/ERC721.sol\":14898:14931  _approve(to, tokenId, auth, true) */\n      jump\t// in\n        /* \"openzeppelin-contracts/contracts/token/ERC721/ERC721.sol\":9078:9902  function _update(address to, uint256 tokenId, address auth) internal virtual returns (address) {... */\n    tag_140:\n        /* \"openzeppelin-contracts/contracts/token/ERC721/ERC721.sol\":9164:9171  address */\n      0x00\n        /* \"openzeppelin-contracts/contracts/token/ERC721/ERC721.sol\":5971:5987  _owners[tokenId] */\n      dup3\n      dup2\n      mstore\n        /* \"openzeppelin-contracts/contracts/token/ERC721/ERC721.sol\":5971:5978  _owners */\n      0x02\n        /* \"openzeppelin-contracts/contracts/token/ERC721/ERC721.sol\":5971:5987  _owners[tokenId] */\n      0x20\n      mstore\n      0x40\n      dup2\n      keccak256\n      sload\n      sub(shl(0xa0, 0x01), 0x01)\n      swap1\n      dup2\n      and\n      swap1\n        /* \"openzeppelin-contracts/contracts/token/ERC721/ERC721.sol\":9279:9297  auth != address(0) */\n      dup4\n      and\n      iszero\n        /* \"openzeppelin-contracts/contracts/token/ERC721/ERC721.sol\":9275:9363  if (auth != address(0)) {... */\n      tag_226\n      jumpi\n        /* \"openzeppelin-contracts/contracts/token/ERC721/ERC721.sol\":9314:9351  _checkAuthorized(from, auth, tokenId) */\n      tag_226\n        /* \"openzeppelin-contracts/contracts/token/ERC721/ERC721.sol\":9331:9335  from */\n      dup2\n        /* \"openzeppelin-contracts/contracts/token/ERC721/ERC721.sol\":9337:9341  auth */\n      dup5\n        /* \"openzeppelin-contracts/contracts/token/ERC721/ERC721.sol\":9343:9350  tokenId */\n      dup7\n        /* \"openzeppelin-contracts/contracts/token/ERC721/ERC721.sol\":9314:9330  _checkAuthorized */\n      tag_227\n        /* \"openzeppelin-contracts/contracts/token/ERC721/ERC721.sol\":9314:9351  _checkAuthorized(from, auth, tokenId) */\n      jump\t// in\n    tag_226:\n      sub(shl(0xa0, 0x01), 0x01)\n        /* \"openzeppelin-contracts/contracts/token/ERC721/ERC721.sol\":9410:9428  from != address(0) */\n      dup2\n      and\n      iszero\n        /* \"openzeppelin-contracts/contracts/token/ERC721/ERC721.sol\":9406:9669  if (from != address(0)) {... */\n      tag_228\n      jumpi\n        /* \"openzeppelin-contracts/contracts/token/ERC721/ERC721.sol\":9528:9576  _approve(address(0), tokenId, address(0), false) */\n      tag_229\n        /* \"openzeppelin-contracts/contracts/token/ERC721/ERC721.sol\":9545:9546  0 */\n      0x00\n        /* \"openzeppelin-contracts/contracts/token/ERC721/ERC721.sol\":9549:9556  tokenId */\n      dup6\n        /* \"openzeppelin-contracts/contracts/token/ERC721/ERC721.sol\":9566:9567  0 */\n      0x00\n        /* \"openzeppelin-contracts/contracts/token/ERC721/ERC721.sol\":9570:9575  false */\n      dup1\n        /* \"openzeppelin-contracts/contracts/token/ERC721/ERC721.sol\":9528:9536  _approve */\n      tag_222\n        /* \"openzeppelin-contracts/contracts/token/ERC721/ERC721.sol\":9528:9576  _approve(address(0), tokenId, address(0), false) */\n      jump\t// in\n    tag_229:\n      sub(shl(0xa0, 0x01), 0x01)\n        /* \"openzeppelin-contracts/contracts/token/ERC721/ERC721.sol\":9622:9637  _balances[from] */\n      dup2\n      and\n      0x00\n      swap1\n      dup2\n      mstore\n        /* \"openzeppelin-contracts/contracts/token/ERC721/ERC721.sol\":9622:9631  _balances */\n      0x03\n        /* \"openzeppelin-contracts/contracts/token/ERC721/ERC721.sol\":9622:9637  _balances[from] */\n      0x20\n      mstore\n      0x40\n      swap1\n      keccak256\n        /* \"openzeppelin-contracts/contracts/token/ERC721/ERC721.sol\":9622:9642  _balances[from] -= 1 */\n      dup1\n      sload\n      not(0x00)\n      add\n      swap1\n      sstore\n        /* \"openzeppelin-contracts/contracts/token/ERC721/ERC721.sol\":9406:9669  if (from != address(0)) {... */\n    tag_228:\n      sub(shl(0xa0, 0x01), 0x01)\n        /* \"openzeppelin-contracts/contracts/token/ERC721/ERC721.sol\":9685:9701  to != address(0) */\n      dup6\n      and\n      iszero\n        /* \"openzeppelin-contracts/contracts/token/ERC721/ERC721.sol\":9681:9792  if (to != address(0)) {... */\n      tag_230\n      jumpi\n      sub(shl(0xa0, 0x01), 0x01)\n        /* \"openzeppelin-contracts/contracts/token/ERC721/ERC721.sol\":9747:9760  _balances[to] */\n      dup6\n      and\n      0x00\n      swap1\n      dup2\n      mstore\n        /* \"openzeppelin-contracts/contracts/token/ERC721/ERC721.sol\":9747:9756  _balances */\n      0x03\n        /* \"openzeppelin-contracts/contracts/token/ERC721/ERC721.sol\":9747:9760  _balances[to] */\n      0x20\n      mstore\n      0x40\n      swap1\n      keccak256\n        /* \"openzeppelin-contracts/contracts/token/ERC721/ERC721.sol\":9747:9765  _balances[to] += 1 */\n      dup1\n      sload\n        /* \"openzeppelin-contracts/contracts/token/ERC721/ERC721.sol\":9764:9765  1 */\n      0x01\n        /* \"openzeppelin-contracts/contracts/token/ERC721/ERC721.sol\":9747:9765  _balances[to] += 1 */\n      add\n      swap1\n      sstore\n        /* \"openzeppelin-contracts/contracts/token/ERC721/ERC721.sol\":9681:9792  if (to != address(0)) {... */\n    tag_230:\n        /* \"openzeppelin-contracts/contracts/token/ERC721/ERC721.sol\":9804:9820  _owners[tokenId] */\n      0x00\n      dup5\n      dup2\n      mstore\n        /* \"openzeppelin-contracts/contracts/token/ERC721/ERC721.sol\":9804:9811  _owners */\n      0x02\n        /* \"openzeppelin-contracts/contracts/token/ERC721/ERC721.sol\":9804:9820  _owners[tokenId] */\n      0x20\n      mstore\n      0x40\n      dup1\n      dup3\n      keccak256\n        /* \"openzeppelin-contracts/contracts/token/ERC721/ERC721.sol\":9804:9825  _owners[tokenId] = to */\n      dup1\n      sload\n      not(sub(shl(0xa0, 0x01), 0x01))\n      and\n      sub(shl(0xa0, 0x01), 0x01)\n      dup10\n      dup2\n      and\n      swap2\n      dup3\n      or\n      swap1\n      swap3\n      sstore\n        /* \"openzeppelin-contracts/contracts/token/ERC721/ERC721.sol\":9843:9870  Transfer(from, to, tokenId) */\n      swap2\n      mload\n        /* \"openzeppelin-contracts/contracts/token/ERC721/ERC721.sol\":9804:9820  _owners[tokenId] */\n      dup8\n      swap4\n        /* \"openzeppelin-contracts/contracts/token/ERC721/ERC721.sol\":9843:9870  Transfer(from, to, tokenId) */\n      swap2\n      dup6\n      and\n      swap2\n      0xddf252ad1be2c89b69c2b068fc378daa952ba7f163c4a11628f55a4df523b3ef\n      swap2\n      log4\n        /* \"openzeppelin-contracts/contracts/token/ERC721/ERC721.sol\":9890:9894  from */\n      swap5\n        /* \"openzeppelin-contracts/contracts/token/ERC721/ERC721.sol\":9078:9902  function _update(address to, uint256 tokenId, address auth) internal virtual returns (address) {... */\n      swap4\n      pop\n      pop\n      pop\n      pop\n      jump\t// out\n        /* \"openzeppelin-contracts/contracts/access/Ownable.sol\":1858:2024  function _checkOwner() internal view virtual {... */\n    tag_148:\n        /* \"openzeppelin-contracts/contracts/access/Ownable.sol\":1766:1772  _owner */\n      and(sub(shl(0xa0, 0x01), 0x01), sload(0x06))\n        /* \"openzeppelin-contracts/contracts/utils/Context.sol\":752:762  msg.sender */\n      caller\n        /* \"openzeppelin-contracts/contracts/access/Ownable.sol\":1918:1941  owner() != _msgSender() */\n      eq\n        /* \"openzeppelin-contracts/contracts/access/Ownable.sol\":1914:2017  if (owner() != _msgSender()) {... */\n      tag_162\n      jumpi\n        /* \"openzeppelin-contracts/contracts/access/Ownable.sol\":1965:2005  OwnableUnauthorizedAccount(_msgSender()) */\n      mload(0x40)\n      shl(0xe0, 0x118cdaa7)\n      dup2\n      mstore\n        /* \"openzeppelin-contracts/contracts/utils/Context.sol\":752:762  msg.sender */\n      caller\n        /* \"openzeppelin-contracts/contracts/access/Ownable.sol\":1965:2005  OwnableUnauthorizedAccount(_msgSender()) */\n      0x04\n      dup3\n      add\n        /* \"#utility.yul\":1679:1730   */\n      mstore\n        /* \"#utility.yul\":1652:1670   */\n      0x24\n      add\n        /* \"openzeppelin-contracts/contracts/access/Ownable.sol\":1965:2005  OwnableUnauthorizedAccount(_msgSender()) */\n      tag_137\n        /* \"#utility.yul\":1533:1736   */\n      jump\n        /* \"openzeppelin-contracts/contracts/access/Ownable.sol\":3006:3197  function _transferOwnership(address newOwner) internal virtual {... */\n    tag_163:\n        /* \"openzeppelin-contracts/contracts/access/Ownable.sol\":3099:3105  _owner */\n      0x06\n      dup1\n      sload\n      sub(shl(0xa0, 0x01), 0x01)\n        /* \"openzeppelin-contracts/contracts/access/Ownable.sol\":3116:3133  _owner = newOwner */\n      dup4\n      dup2\n      and\n      not(sub(shl(0xa0, 0x01), 0x01))\n      dup4\n      and\n      dup2\n      or\n      swap1\n      swap4\n      sstore\n        /* \"openzeppelin-contracts/contracts/access/Ownable.sol\":3149:3189  OwnershipTransferred(oldOwner, newOwner) */\n      mload(0x40)\n        /* \"openzeppelin-contracts/contracts/access/Ownable.sol\":3099:3105  _owner */\n      swap2\n      and\n      swap2\n        /* \"openzeppelin-contracts/contracts/access/Ownable.sol\":3116:3133  _owner = newOwner */\n      swap1\n        /* \"openzeppelin-contracts/contracts/access/Ownable.sol\":3099:3105  _owner */\n      dup3\n      swap1\n        /* \"openzeppelin-contracts/contracts/access/Ownable.sol\":3149:3189  OwnershipTransferred(oldOwner, newOwner) */\n      0x8be0079c531659141344cd1fd0a4f28419497f9722a3daafe3b4186f6b6457e0\n      swap1\n        /* \"openzeppelin-contracts/contracts/access/Ownable.sol\":3080:3096  address oldOwner */\n      0x00\n      swap1\n        /* \"openzeppelin-contracts/contracts/access/Ownable.sol\":3149:3189  OwnershipTransferred(oldOwner, newOwner) */\n      log3\n        /* \"openzeppelin-contracts/contracts/access/Ownable.sol\":3069:3197  {... */\n      pop\n        /* \"openzeppelin-contracts/contracts/access/Ownable.sol\":3006:3197  function _transferOwnership(address newOwner) internal virtual {... */\n      pop\n      jump\t// out\n        /* \"openzeppelin-contracts/contracts/token/ERC721/ERC721.sol\":16024:16342  function _setApprovalForAll(address owner, address operator, bool approved) internal virtual {... */\n    tag_190:\n      sub(shl(0xa0, 0x01), 0x01)\n        /* \"openzeppelin-contracts/contracts/token/ERC721/ERC721.sol\":16132:16154  operator == address(0) */\n      dup3\n      and\n        /* \"openzeppelin-contracts/contracts/token/ERC721/ERC721.sol\":16128:16221  if (operator == address(0)) {... */\n      tag_239\n      jumpi\n        /* \"openzeppelin-contracts/contracts/token/ERC721/ERC721.sol\":16178:16209  ERC721InvalidOperator(operator) */\n      mload(0x40)\n      shl(0xe3, 0x0b611743)\n      dup2\n      mstore\n      sub(shl(0xa0, 0x01), 0x01)\n        /* \"#utility.yul\":1697:1729   */\n      dup4\n      and\n        /* \"openzeppelin-contracts/contracts/token/ERC721/ERC721.sol\":16178:16209  ERC721InvalidOperator(operator) */\n      0x04\n      dup3\n      add\n        /* \"#utility.yul\":1679:1730   */\n      mstore\n        /* \"#utility.yul\":1652:1670   */\n      0x24\n      add\n        /* \"openzeppelin-contracts/contracts/token/ERC721/ERC721.sol\":16178:16209  ERC721InvalidOperator(operator) */\n      tag_137\n        /* \"#utility.yul\":1533:1736   */\n      jump\n        /* \"openzeppelin-contracts/contracts/token/ERC721/ERC721.sol\":16128:16221  if (operator == address(0)) {... */\n    tag_239:\n      sub(shl(0xa0, 0x01), 0x01)\n        /* \"openzeppelin-contracts/contracts/token/ERC721/ERC721.sol\":16231:16256  _operatorApprovals[owner] */\n      dup4\n      dup2\n      and\n      0x00\n      dup2\n      dup2\n      mstore\n        /* \"openzeppelin-contracts/contracts/token/ERC721/ERC721.sol\":16231:16249  _operatorApprovals */\n      0x05\n        /* \"openzeppelin-contracts/contracts/token/ERC721/ERC721.sol\":16231:16256  _operatorApprovals[owner] */\n      0x20\n      swap1\n      dup2\n      mstore\n      0x40\n      dup1\n      dup4\n      keccak256\n        /* \"openzeppelin-contracts/contracts/token/ERC721/ERC721.sol\":16231:16266  _operatorApprovals[owner][operator] */\n      swap5\n      dup8\n      and\n      dup1\n      dup5\n      mstore\n      swap5\n      dup3\n      mstore\n      swap2\n      dup3\n      swap1\n      keccak256\n        /* \"openzeppelin-contracts/contracts/token/ERC721/ERC721.sol\":16231:16277  _operatorApprovals[owner][operator] = approved */\n      dup1\n      sload\n      not(0xff)\n      and\n      dup7\n      iszero\n      iszero\n      swap1\n      dup2\n      or\n      swap1\n      swap2\n      sstore\n        /* \"openzeppelin-contracts/contracts/token/ERC721/ERC721.sol\":16293:16334  ApprovalForAll(owner, operator, approved) */\n      swap2\n      mload\n        /* \"#utility.yul\":540:581   */\n      swap2\n      dup3\n      mstore\n        /* \"openzeppelin-contracts/contracts/token/ERC721/ERC721.sol\":16293:16334  ApprovalForAll(owner, operator, approved) */\n      0x17307eab39ab6107e8899845ad3d59bd9653f200f220920489ca2b5937696c31\n      swap2\n        /* \"#utility.yul\":513:531   */\n      add\n        /* \"openzeppelin-contracts/contracts/token/ERC721/ERC721.sol\":16293:16334  ApprovalForAll(owner, operator, approved) */\n      mload(0x40)\n      dup1\n      swap2\n      sub\n      swap1\n      log3\n        /* \"openzeppelin-contracts/contracts/token/ERC721/ERC721.sol\":16024:16342  function _setApprovalForAll(address owner, address operator, bool approved) internal virtual {... */\n      pop\n      pop\n      pop\n      jump\t// out\n        /* \"openzeppelin-contracts/contracts/token/ERC721/ERC721.sol\":17382:18181  function _checkOnERC721Received(address from, address to, uint256 tokenId, bytes memory data) private {... */\n    tag_194:\n      sub(shl(0xa0, 0x01), 0x01)\n        /* \"openzeppelin-contracts/contracts/token/ERC721/ERC721.sol\":17499:17513  to.code.length */\n      dup4\n      and\n      extcodesize\n        /* \"openzeppelin-contracts/contracts/token/ERC721/ERC721.sol\":17499:17517  to.code.length > 0 */\n      iszero\n        /* \"openzeppelin-contracts/contracts/token/ERC721/ERC721.sol\":17495:18174  if (to.code.length > 0) {... */\n      tag_141\n      jumpi\n        /* \"openzeppelin-contracts/contracts/token/ERC721/ERC721.sol\":17538:17609  IERC721Receiver(to).onERC721Received(_msgSender(), from, tokenId, data) */\n      mload(0x40)\n      shl(0xe1, 0x0a85bd01)\n      dup2\n      mstore\n      sub(shl(0xa0, 0x01), 0x01)\n        /* \"openzeppelin-contracts/contracts/token/ERC721/ERC721.sol\":17538:17574  IERC721Receiver(to).onERC721Received */\n      dup5\n      and\n      swap1\n      0x150b7a02\n      swap1\n        /* \"openzeppelin-contracts/contracts/token/ERC721/ERC721.sol\":17538:17609  IERC721Receiver(to).onERC721Received(_msgSender(), from, tokenId, data) */\n      tag_245\n      swap1\n        /* \"openzeppelin-contracts/contracts/utils/Context.sol\":752:762  msg.sender */\n      caller\n      swap1\n        /* \"openzeppelin-contracts/contracts/token/ERC721/ERC721.sol\":17589:17593  from */\n      dup9\n      swap1\n        /* \"openzeppelin-contracts/contracts/token/ERC721/ERC721.sol\":17595:17602  tokenId */\n      dup8\n      swap1\n        /* \"openzeppelin-contracts/contracts/token/ERC721/ERC721.sol\":17604:17608  data */\n      dup8\n      swap1\n        /* \"openzeppelin-contracts/contracts/token/ERC721/ERC721.sol\":17538:17609  IERC721Receiver(to).onERC721Received(_msgSender(), from, tokenId, data) */\n      0x04\n      add\n      tag_246\n      jump\t// in\n    tag_245:\n      0x20\n      mload(0x40)\n      dup1\n      dup4\n      sub\n      dup2\n      0x00\n      dup8\n      gas\n      call\n      swap3\n      pop\n      pop\n      pop\n      dup1\n      iszero\n      tag_247\n      jumpi\n      pop\n      0x40\n      dup1\n      mload\n      0x1f\n      returndatasize\n      swap1\n      dup2\n      add\n      not(0x1f)\n      and\n      dup3\n      add\n      swap1\n      swap3\n      mstore\n      tag_248\n      swap2\n      dup2\n      add\n      swap1\n      tag_249\n      jump\t// in\n    tag_248:\n      0x01\n    tag_247:\n        /* \"openzeppelin-contracts/contracts/token/ERC721/ERC721.sol\":17534:18163  try IERC721Receiver(to).onERC721Received(_msgSender(), from, tokenId, data) returns (bytes4 retval) {... */\n      tag_250\n      jumpi\n      returndatasize\n      dup1\n      dup1\n      iszero\n      tag_255\n      jumpi\n      mload(0x40)\n      swap2\n      pop\n      and(add(returndatasize, 0x3f), not(0x1f))\n      dup3\n      add\n      0x40\n      mstore\n      returndatasize\n      dup3\n      mstore\n      returndatasize\n      0x00\n      0x20\n      dup5\n      add\n      returndatacopy\n      jump(tag_254)\n    tag_255:\n      0x60\n      swap2\n      pop\n    tag_254:\n      pop\n        /* \"openzeppelin-contracts/contracts/token/ERC721/ERC721.sol\":17852:17858  reason */\n      dup1\n        /* \"openzeppelin-contracts/contracts/token/ERC721/ERC721.sol\":17852:17865  reason.length */\n      mload\n        /* \"openzeppelin-contracts/contracts/token/ERC721/ERC721.sol\":17869:17870  0 */\n      0x00\n        /* \"openzeppelin-contracts/contracts/token/ERC721/ERC721.sol\":17852:17870  reason.length == 0 */\n      sub\n        /* \"openzeppelin-contracts/contracts/token/ERC721/ERC721.sol\":17848:18148  if (reason.length == 0) {... */\n      tag_256\n      jumpi\n        /* \"openzeppelin-contracts/contracts/token/ERC721/ERC721.sol\":17902:17927  ERC721InvalidReceiver(to) */\n      mload(0x40)\n      shl(0xe1, 0x32505749)\n      dup2\n      mstore\n      sub(shl(0xa0, 0x01), 0x01)\n        /* \"#utility.yul\":1697:1729   */\n      dup6\n      and\n        /* \"openzeppelin-contracts/contracts/token/ERC721/ERC721.sol\":17902:17927  ERC721InvalidReceiver(to) */\n      0x04\n      dup3\n      add\n        /* \"#utility.yul\":1679:1730   */\n      mstore\n        /* \"#utility.yul\":1652:1670   */\n      0x24\n      add\n        /* \"openzeppelin-contracts/contracts/token/ERC721/ERC721.sol\":17902:17927  ERC721InvalidReceiver(to) */\n      tag_137\n        /* \"#utility.yul\":1533:1736   */\n      jump\n        /* \"openzeppelin-contracts/contracts/token/ERC721/ERC721.sol\":17848:18148  if (reason.length == 0) {... */\n    tag_256:\n        /* \"openzeppelin-contracts/contracts/token/ERC721/ERC721.sol\":18098:18104  reason */\n      dup1\n        /* \"openzeppelin-contracts/contracts/token/ERC721/ERC721.sol\":18092:18105  mload(reason) */\n      mload\n        /* \"openzeppelin-contracts/contracts/token/ERC721/ERC721.sol\":18083:18089  reason */\n      dup2\n        /* \"openzeppelin-contracts/contracts/token/ERC721/ERC721.sol\":18079:18081  32 */\n      0x20\n        /* \"openzeppelin-contracts/contracts/token/ERC721/ERC721.sol\":18075:18090  add(32, reason) */\n      add\n        /* \"openzeppelin-contracts/contracts/token/ERC721/ERC721.sol\":18068:18106  revert(add(32, reason), mload(reason)) */\n      revert\n        /* \"openzeppelin-contracts/contracts/token/ERC721/ERC721.sol\":17534:18163  try IERC721Receiver(to).onERC721Received(_msgSender(), from, tokenId, data) returns (bytes4 retval) {... */\n    tag_250:\n      not(sub(shl(0xe0, 0x01), 0x01))\n        /* \"openzeppelin-contracts/contracts/token/ERC721/ERC721.sol\":17657:17708  retval != IERC721Receiver.onERC721Received.selector */\n      dup2\n      and\n      shl(0xe1, 0x0a85bd01)\n      eq\n        /* \"openzeppelin-contracts/contracts/token/ERC721/ERC721.sol\":17653:17785  if (retval != IERC721Receiver.onERC721Received.selector) {... */\n      tag_260\n      jumpi\n        /* \"openzeppelin-contracts/contracts/token/ERC721/ERC721.sol\":17740:17765  ERC721InvalidReceiver(to) */\n      mload(0x40)\n      shl(0xe1, 0x32505749)\n      dup2\n      mstore\n      sub(shl(0xa0, 0x01), 0x01)\n        /* \"#utility.yul\":1697:1729   */\n      dup6\n      and\n        /* \"openzeppelin-contracts/contracts/token/ERC721/ERC721.sol\":17740:17765  ERC721InvalidReceiver(to) */\n      0x04\n      dup3\n      add\n        /* \"#utility.yul\":1679:1730   */\n      mstore\n        /* \"#utility.yul\":1652:1670   */\n      0x24\n      add\n        /* \"openzeppelin-contracts/contracts/token/ERC721/ERC721.sol\":17740:17765  ERC721InvalidReceiver(to) */\n      tag_137\n        /* \"#utility.yul\":1533:1736   */\n      jump\n        /* \"openzeppelin-contracts/contracts/token/ERC721/ERC721.sol\":17653:17785  if (retval != IERC721Receiver.onERC721Received.selector) {... */\n    tag_260:\n        /* \"openzeppelin-contracts/contracts/token/ERC721/ERC721.sol\":17610:17800  returns (bytes4 retval) {... */\n      pop\n        /* \"openzeppelin-contracts/contracts/token/ERC721/ERC721.sol\":17382:18181  function _checkOnERC721Received(address from, address to, uint256 tokenId, bytes memory data) private {... */\n      pop\n      pop\n      pop\n      pop\n      jump\t// out\n        /* \"openzeppelin-contracts/contracts/utils/Strings.sol\":660:1378  function toString(uint256 value) internal pure returns (string memory) {... */\n    tag_202:\n        /* \"openzeppelin-contracts/contracts/utils/Strings.sol\":716:729  string memory */\n      0x60\n        /* \"openzeppelin-contracts/contracts/utils/Strings.sol\":767:781  uint256 length */\n      0x00\n        /* \"openzeppelin-contracts/contracts/utils/Strings.sol\":784:801  Math.log10(value) */\n      tag_264\n        /* \"openzeppelin-contracts/contracts/utils/Strings.sol\":795:800  value */\n      dup4\n        /* \"openzeppelin-contracts/contracts/utils/Strings.sol\":784:794  Math.log10 */\n      tag_265\n        /* \"openzeppelin-contracts/contracts/utils/Strings.sol\":784:801  Math.log10(value) */\n      jump\t// in\n    tag_264:\n        /* \"openzeppelin-contracts/contracts/utils/Strings.sol\":804:805  1 */\n      0x01\n        /* \"openzeppelin-contracts/contracts/utils/Strings.sol\":784:805  Math.log10(value) + 1 */\n      add\n        /* \"openzeppelin-contracts/contracts/utils/Strings.sol\":767:805  uint256 length = Math.log10(value) + 1 */\n      swap1\n      pop\n        /* \"openzeppelin-contracts/contracts/utils/Strings.sol\":820:840  string memory buffer */\n      0x00\n        /* \"openzeppelin-contracts/contracts/utils/Strings.sol\":854:860  length */\n      dup2\n        /* \"openzeppelin-contracts/contracts/utils/Strings.sol\":843:861  new string(length) */\n      0xffffffffffffffff\n      dup2\n      gt\n      iszero\n      tag_267\n      jumpi\n      tag_267\n      tag_268\n      jump\t// in\n    tag_267:\n      mload(0x40)\n      swap1\n      dup1\n      dup3\n      mstore\n      dup1\n      0x1f\n      add\n      not(0x1f)\n      and\n      0x20\n      add\n      dup3\n      add\n      0x40\n      mstore\n      dup1\n      iszero\n      tag_269\n      jumpi\n      0x20\n      dup3\n      add\n      dup2\n      dup1\n      calldatasize\n      dup4\n      calldatacopy\n      add\n      swap1\n      pop\n    tag_269:\n      pop\n        /* \"openzeppelin-contracts/contracts/utils/Strings.sol\":820:861  string memory buffer = new string(length) */\n      swap1\n      pop\n        /* \"openzeppelin-contracts/contracts/utils/Strings.sol\":985:1013  add(buffer, add(32, length)) */\n      dup2\n      dup2\n      add\n        /* \"openzeppelin-contracts/contracts/utils/Strings.sol\":1001:1003  32 */\n      0x20\n        /* \"openzeppelin-contracts/contracts/utils/Strings.sol\":985:1013  add(buffer, add(32, length)) */\n      add\n        /* \"openzeppelin-contracts/contracts/utils/Strings.sol\":1042:1332  while (true) {... */\n    tag_270:\n      not(0x00)\n        /* \"openzeppelin-contracts/contracts/utils/Strings.sol\":1074:1079  ptr-- */\n      add\n      shl(0x81, 0x181899199a1a9b1b9c1cb0b131b232b3)\n        /* \"openzeppelin-contracts/contracts/utils/Strings.sol\":1211:1213  10 */\n      0x0a\n        /* \"openzeppelin-contracts/contracts/utils/Strings.sol\":1200:1214  mod(value, 10) */\n      dup7\n      mod\n        /* \"openzeppelin-contracts/contracts/utils/Strings.sol\":1195:1227  byte(mod(value, 10), HEX_DIGITS) */\n      byte\n        /* \"openzeppelin-contracts/contracts/utils/Strings.sol\":1074:1079  ptr-- */\n      dup2\n        /* \"openzeppelin-contracts/contracts/utils/Strings.sol\":1182:1228  mstore8(ptr, byte(mod(value, 10), HEX_DIGITS)) */\n      mstore8\n        /* \"openzeppelin-contracts/contracts/utils/Strings.sol\":1274:1276  10 */\n      0x0a\n        /* \"openzeppelin-contracts/contracts/utils/Strings.sol\":1265:1276  value /= 10 */\n      dup6\n      div\n      swap5\n      pop\n        /* \"openzeppelin-contracts/contracts/utils/Strings.sol\":1295:1316  if (value == 0) break */\n      dup5\n        /* \"openzeppelin-contracts/contracts/utils/Strings.sol\":1042:1332  while (true) {... */\n      tag_270\n        /* \"openzeppelin-contracts/contracts/utils/Strings.sol\":1295:1316  if (value == 0) break */\n      jumpi\n      pop\n        /* \"openzeppelin-contracts/contracts/utils/Strings.sol\":1353:1359  buffer */\n      swap4\n        /* \"openzeppelin-contracts/contracts/utils/Strings.sol\":660:1378  function toString(uint256 value) internal pure returns (string memory) {... */\n      swap3\n      pop\n      pop\n      pop\n      jump\t// out\n        /* \"openzeppelin-contracts/contracts/token/ERC721/ERC721.sol\":15127:15805  function _approve(address to, uint256 tokenId, address auth, bool emitEvent) internal virtual {... */\n    tag_222:\n        /* \"openzeppelin-contracts/contracts/token/ERC721/ERC721.sol\":15289:15298  emitEvent */\n      dup1\n        /* \"openzeppelin-contracts/contracts/token/ERC721/ERC721.sol\":15289:15320  emitEvent || auth != address(0) */\n      dup1\n      tag_278\n      jumpi\n      pop\n      sub(shl(0xa0, 0x01), 0x01)\n        /* \"openzeppelin-contracts/contracts/token/ERC721/ERC721.sol\":15302:15320  auth != address(0) */\n      dup3\n      and\n      iszero\n      iszero\n        /* \"openzeppelin-contracts/contracts/token/ERC721/ERC721.sol\":15289:15320  emitEvent || auth != address(0) */\n    tag_278:\n        /* \"openzeppelin-contracts/contracts/token/ERC721/ERC721.sol\":15285:15756  if (emitEvent || auth != address(0)) {... */\n      iszero\n      tag_279\n      jumpi\n        /* \"openzeppelin-contracts/contracts/token/ERC721/ERC721.sol\":15337:15350  address owner */\n      0x00\n        /* \"openzeppelin-contracts/contracts/token/ERC721/ERC721.sol\":15353:15375  _requireOwned(tokenId) */\n      tag_280\n        /* \"openzeppelin-contracts/contracts/token/ERC721/ERC721.sol\":15367:15374  tokenId */\n      dup5\n        /* \"openzeppelin-contracts/contracts/token/ERC721/ERC721.sol\":15353:15366  _requireOwned */\n      tag_127\n        /* \"openzeppelin-contracts/contracts/token/ERC721/ERC721.sol\":15353:15375  _requireOwned(tokenId) */\n      jump\t// in\n    tag_280:\n        /* \"openzeppelin-contracts/contracts/token/ERC721/ERC721.sol\":15337:15375  address owner = _requireOwned(tokenId) */\n      swap1\n      pop\n      sub(shl(0xa0, 0x01), 0x01)\n        /* \"openzeppelin-contracts/contracts/token/ERC721/ERC721.sol\":15506:15524  auth != address(0) */\n      dup4\n      and\n      iszero\n      dup1\n      iszero\n      swap1\n        /* \"openzeppelin-contracts/contracts/token/ERC721/ERC721.sol\":15506:15541  auth != address(0) && owner != auth */\n      tag_281\n      jumpi\n      pop\n        /* \"openzeppelin-contracts/contracts/token/ERC721/ERC721.sol\":15537:15541  auth */\n      dup3\n      sub(shl(0xa0, 0x01), 0x01)\n        /* \"openzeppelin-contracts/contracts/token/ERC721/ERC721.sol\":15528:15541  owner != auth */\n      and\n        /* \"openzeppelin-contracts/contracts/token/ERC721/ERC721.sol\":15528:15533  owner */\n      dup2\n      sub(shl(0xa0, 0x01), 0x01)\n        /* \"openzeppelin-contracts/contracts/token/ERC721/ERC721.sol\":15528:15541  owner != auth */\n      and\n      eq\n      iszero\n        /* \"openzeppelin-contracts/contracts/token/ERC721/ERC721.sol\":15506:15541  auth != address(0) && owner != auth */\n    tag_281:\n        /* \"openzeppelin-contracts/contracts/token/ERC721/ERC721.sol\":15506:15575  auth != address(0) && owner != auth && !isApprovedForAll(owner, auth) */\n      dup1\n      iszero\n      tag_282\n      jumpi\n      pop\n        /* \"openzeppelin-contracts/contracts/token/ERC721/ERC721.sol\":15546:15575  isApprovedForAll(owner, auth) */\n      tag_283\n        /* \"openzeppelin-contracts/contracts/token/ERC721/ERC721.sol\":15563:15568  owner */\n      dup2\n        /* \"openzeppelin-contracts/contracts/token/ERC721/ERC721.sol\":15570:15574  auth */\n      dup5\n        /* \"openzeppelin-contracts/contracts/token/ERC721/ERC721.sol\":15546:15562  isApprovedForAll */\n      tag_108\n        /* \"openzeppelin-contracts/contracts/token/ERC721/ERC721.sol\":15546:15575  isApprovedForAll(owner, auth) */\n      jump\t// in\n    tag_283:\n        /* \"openzeppelin-contracts/contracts/token/ERC721/ERC721.sol\":15545:15575  !isApprovedForAll(owner, auth) */\n      iszero\n        /* \"openzeppelin-contracts/contracts/token/ERC721/ERC721.sol\":15506:15575  auth != address(0) && owner != auth && !isApprovedForAll(owner, auth) */\n    tag_282:\n        /* \"openzeppelin-contracts/contracts/token/ERC721/ERC721.sol\":15502:15646  if (auth != address(0) && owner != auth && !isApprovedForAll(owner, auth)) {... */\n      iszero\n      tag_284\n      jumpi\n        /* \"openzeppelin-contracts/contracts/token/ERC721/ERC721.sol\":15603:15630  ERC721InvalidApprover(auth) */\n      mload(0x40)\n      shl(0xe0, 0xa9fbf51f)\n      dup2\n      mstore\n      sub(shl(0xa0, 0x01), 0x01)\n        /* \"#utility.yul\":1697:1729   */\n      dup5\n      and\n        /* \"openzeppelin-contracts/contracts/token/ERC721/ERC721.sol\":15603:15630  ERC721InvalidApprover(auth) */\n      0x04\n      dup3\n      add\n        /* \"#utility.yul\":1679:1730   */\n      mstore\n        /* \"#utility.yul\":1652:1670   */\n      0x24\n      add\n        /* \"openzeppelin-contracts/contracts/token/ERC721/ERC721.sol\":15603:15630  ERC721InvalidApprover(auth) */\n      tag_137\n        /* \"#utility.yul\":1533:1736   */\n      jump\n        /* \"openzeppelin-contracts/contracts/token/ERC721/ERC721.sol\":15502:15646  if (auth != address(0) && owner != auth && !isApprovedForAll(owner, auth)) {... */\n    tag_284:\n        /* \"openzeppelin-contracts/contracts/token/ERC721/ERC721.sol\":15666:15675  emitEvent */\n      dup2\n        /* \"openzeppelin-contracts/contracts/token/ERC721/ERC721.sol\":15662:15745  if (emitEvent) {... */\n      iszero\n      tag_286\n      jumpi\n        /* \"openzeppelin-contracts/contracts/token/ERC721/ERC721.sol\":15721:15728  tokenId */\n      dup4\n        /* \"openzeppelin-contracts/contracts/token/ERC721/ERC721.sol\":15717:15719  to */\n      dup6\n      sub(shl(0xa0, 0x01), 0x01)\n        /* \"openzeppelin-contracts/contracts/token/ERC721/ERC721.sol\":15701:15729  Approval(owner, to, tokenId) */\n      and\n        /* \"openzeppelin-contracts/contracts/token/ERC721/ERC721.sol\":15710:15715  owner */\n      dup3\n      sub(shl(0xa0, 0x01), 0x01)\n        /* \"openzeppelin-contracts/contracts/token/ERC721/ERC721.sol\":15701:15729  Approval(owner, to, tokenId) */\n      and\n      0x8c5be1e5ebec7d5bd14f71427d1e84f3dd0314c0f7b2291e5b200ac8c7c3b925\n      mload(0x40)\n      mload(0x40)\n      dup1\n      swap2\n      sub\n      swap1\n      log4\n        /* \"openzeppelin-contracts/contracts/token/ERC721/ERC721.sol\":15662:15745  if (emitEvent) {... */\n    tag_286:\n        /* \"openzeppelin-contracts/contracts/token/ERC721/ERC721.sol\":15322:15756  {... */\n      pop\n        /* \"openzeppelin-contracts/contracts/token/ERC721/ERC721.sol\":15285:15756  if (emitEvent || auth != address(0)) {... */\n    tag_279:\n      pop\n      pop\n        /* \"openzeppelin-contracts/contracts/token/ERC721/ERC721.sol\":15768:15792  _tokenApprovals[tokenId] */\n      0x00\n      swap1\n      dup2\n      mstore\n        /* \"openzeppelin-contracts/contracts/token/ERC721/ERC721.sol\":15768:15783  _tokenApprovals */\n      0x04\n        /* \"openzeppelin-contracts/contracts/token/ERC721/ERC721.sol\":15768:15792  _tokenApprovals[tokenId] */\n      0x20\n      mstore\n      0x40\n      swap1\n      keccak256\n        /* \"openzeppelin-contracts/contracts/token/ERC721/ERC721.sol\":15768:15797  _tokenApprovals[tokenId] = to */\n      dup1\n      sload\n      not(sub(shl(0xa0, 0x01), 0x01))\n      and\n      sub(shl(0xa0, 0x01), 0x01)\n      swap3\n      swap1\n      swap3\n      and\n      swap2\n      swap1\n      swap2\n      or\n      swap1\n      sstore\n        /* \"openzeppelin-contracts/contracts/token/ERC721/ERC721.sol\":15127:15805  function _approve(address to, uint256 tokenId, address auth, bool emitEvent) internal virtual {... */\n      jump\t// out\n        /* \"openzeppelin-contracts/contracts/token/ERC721/ERC721.sol\":7285:7661  function _checkAuthorized(address owner, address spender, uint256 tokenId) internal view virtual {... */\n    tag_227:\n        /* \"openzeppelin-contracts/contracts/token/ERC721/ERC721.sol\":7398:7436  _isAuthorized(owner, spender, tokenId) */\n      tag_288\n        /* \"openzeppelin-contracts/contracts/token/ERC721/ERC721.sol\":7412:7417  owner */\n      dup4\n        /* \"openzeppelin-contracts/contracts/token/ERC721/ERC721.sol\":7419:7426  spender */\n      dup4\n        /* \"openzeppelin-contracts/contracts/token/ERC721/ERC721.sol\":7428:7435  tokenId */\n      dup4\n        /* \"openzeppelin-contracts/contracts/token/ERC721/ERC721.sol\":7398:7411  _isAuthorized */\n      tag_289\n        /* \"openzeppelin-contracts/contracts/token/ERC721/ERC721.sol\":7398:7436  _isAuthorized(owner, spender, tokenId) */\n      jump\t// in\n    tag_288:\n        /* \"openzeppelin-contracts/contracts/token/ERC721/ERC721.sol\":7393:7654  if (!_isAuthorized(owner, spender, tokenId)) {... */\n      tag_145\n      jumpi\n      sub(shl(0xa0, 0x01), 0x01)\n        /* \"openzeppelin-contracts/contracts/token/ERC721/ERC721.sol\":7457:7476  owner == address(0) */\n      dup4\n      and\n        /* \"openzeppelin-contracts/contracts/token/ERC721/ERC721.sol\":7453:7643  if (owner == address(0)) {... */\n      tag_291\n      jumpi\n        /* \"openzeppelin-contracts/contracts/token/ERC721/ERC721.sol\":7504:7535  ERC721NonexistentToken(tokenId) */\n      mload(0x40)\n      shl(0xe0, 0x7e273289)\n      dup2\n      mstore\n      0x04\n      dup2\n      add\n        /* \"#utility.yul\":2848:2873   */\n      dup3\n      swap1\n      mstore\n        /* \"#utility.yul\":2821:2839   */\n      0x24\n      add\n        /* \"openzeppelin-contracts/contracts/token/ERC721/ERC721.sol\":7504:7535  ERC721NonexistentToken(tokenId) */\n      tag_137\n        /* \"#utility.yul\":2702:2879   */\n      jump\n        /* \"openzeppelin-contracts/contracts/token/ERC721/ERC721.sol\":7453:7643  if (owner == address(0)) {... */\n    tag_291:\n        /* \"openzeppelin-contracts/contracts/token/ERC721/ERC721.sol\":7583:7627  ERC721InsufficientApproval(spender, tokenId) */\n      mload(0x40)\n      shl(0xe0, 0x177e802f)\n      dup2\n      mstore\n      sub(shl(0xa0, 0x01), 0x01)\n        /* \"#utility.yul\":7711:7743   */\n      dup4\n      and\n        /* \"openzeppelin-contracts/contracts/token/ERC721/ERC721.sol\":7583:7627  ERC721InsufficientApproval(spender, tokenId) */\n      0x04\n      dup3\n      add\n        /* \"#utility.yul\":7693:7744   */\n      mstore\n        /* \"#utility.yul\":7760:7778   */\n      0x24\n      dup2\n      add\n        /* \"#utility.yul\":7753:7787   */\n      dup3\n      swap1\n      mstore\n        /* \"#utility.yul\":7666:7684   */\n      0x44\n      add\n        /* \"openzeppelin-contracts/contracts/token/ERC721/ERC721.sol\":7583:7627  ERC721InsufficientApproval(spender, tokenId) */\n      tag_137\n        /* \"#utility.yul\":7519:7793   */\n      jump\n        /* \"openzeppelin-contracts/contracts/utils/math/Math.sol\":12534:13482  function log10(uint256 value) internal pure returns (uint256) {... */\n    tag_265:\n        /* \"openzeppelin-contracts/contracts/utils/math/Math.sol\":12587:12594  uint256 */\n      0x00\n      dup1\n      shl(0x40, 0x184f03e93ff9f4daa797ed6e38ed64bf6a1f01)\n        /* \"openzeppelin-contracts/contracts/utils/math/Math.sol\":12665:12682  value >= 10 ** 64 */\n      dup4\n      lt\n        /* \"openzeppelin-contracts/contracts/utils/math/Math.sol\":12661:12767  if (value >= 10 ** 64) {... */\n      tag_297\n      jumpi\n      shl(0x40, 0x184f03e93ff9f4daa797ed6e38ed64bf6a1f01)\n        /* \"openzeppelin-contracts/contracts/utils/math/Math.sol\":12703:12720  value /= 10 ** 64 */\n      dup4\n      div\n      swap3\n      pop\n        /* \"openzeppelin-contracts/contracts/utils/math/Math.sol\":12749:12751  64 */\n      0x40\n        /* \"openzeppelin-contracts/contracts/utils/math/Math.sol\":12739:12751  result += 64 */\n      add\n        /* \"openzeppelin-contracts/contracts/utils/math/Math.sol\":12661:12767  if (value >= 10 ** 64) {... */\n    tag_297:\n        /* \"openzeppelin-contracts/contracts/utils/math/Math.sol\":12794:12802  10 ** 32 */\n      0x04ee2d6d415b85acef8100000000\n        /* \"openzeppelin-contracts/contracts/utils/math/Math.sol\":12785:12790  value */\n      dup4\n        /* \"openzeppelin-contracts/contracts/utils/math/Math.sol\":12785:12802  value >= 10 ** 32 */\n      lt\n        /* \"openzeppelin-contracts/contracts/utils/math/Math.sol\":12781:12887  if (value >= 10 ** 32) {... */\n      tag_300\n      jumpi\n        /* \"openzeppelin-contracts/contracts/utils/math/Math.sol\":12832:12840  10 ** 32 */\n      0x04ee2d6d415b85acef8100000000\n        /* \"openzeppelin-contracts/contracts/utils/math/Math.sol\":12823:12840  value /= 10 ** 32 */\n      dup4\n      div\n      swap3\n      pop\n        /* \"openzeppelin-contracts/contracts/utils/math/Math.sol\":12869:12871  32 */\n      0x20\n        /* \"openzeppelin-contracts/contracts/utils/math/Math.sol\":12859:12871  result += 32 */\n      add\n        /* \"openzeppelin-contracts/contracts/utils/math/Math.sol\":12781:12887  if (value >= 10 ** 32) {... */\n    tag_300:\n        /* \"openzeppelin-contracts/contracts/utils/math/Math.sol\":12914:12922  10 ** 16 */\n      0x2386f26fc10000\n        /* \"openzeppelin-contracts/contracts/utils/math/Math.sol\":12905:12910  value */\n      dup4\n        /* \"openzeppelin-contracts/contracts/utils/math/Math.sol\":12905:12922  value >= 10 ** 16 */\n      lt\n        /* \"openzeppelin-contracts/contracts/utils/math/Math.sol\":12901:13007  if (value >= 10 ** 16) {... */\n      tag_303\n      jumpi\n        /* \"openzeppelin-contracts/contracts/utils/math/Math.sol\":12952:12960  10 ** 16 */\n      0x2386f26fc10000\n        /* \"openzeppelin-contracts/contracts/utils/math/Math.sol\":12943:12960  value /= 10 ** 16 */\n      dup4\n      div\n      swap3\n      pop\n        /* \"openzeppelin-contracts/contracts/utils/math/Math.sol\":12989:12991  16 */\n      0x10\n        /* \"openzeppelin-contracts/contracts/utils/math/Math.sol\":12979:12991  result += 16 */\n      add\n        /* \"openzeppelin-contracts/contracts/utils/math/Math.sol\":12901:13007  if (value >= 10 ** 16) {... */\n    tag_303:\n        /* \"openzeppelin-contracts/contracts/utils/math/Math.sol\":13034:13041  10 ** 8 */\n      0x05f5e100\n        /* \"openzeppelin-contracts/contracts/utils/math/Math.sol\":13025:13030  value */\n      dup4\n        /* \"openzeppelin-contracts/contracts/utils/math/Math.sol\":13025:13041  value >= 10 ** 8 */\n      lt\n        /* \"openzeppelin-contracts/contracts/utils/math/Math.sol\":13021:13124  if (value >= 10 ** 8) {... */\n      tag_306\n      jumpi\n        /* \"openzeppelin-contracts/contracts/utils/math/Math.sol\":13071:13078  10 ** 8 */\n      0x05f5e100\n        /* \"openzeppelin-contracts/contracts/utils/math/Math.sol\":13062:13078  value /= 10 ** 8 */\n      dup4\n      div\n      swap3\n      pop\n        /* \"openzeppelin-contracts/contracts/utils/math/Math.sol\":13107:13108  8 */\n      0x08\n        /* \"openzeppelin-contracts/contracts/utils/math/Math.sol\":13097:13108  result += 8 */\n      add\n        /* \"openzeppelin-contracts/contracts/utils/math/Math.sol\":13021:13124  if (value >= 10 ** 8) {... */\n    tag_306:\n        /* \"openzeppelin-contracts/contracts/utils/math/Math.sol\":13151:13158  10 ** 4 */\n      0x2710\n        /* \"openzeppelin-contracts/contracts/utils/math/Math.sol\":13142:13147  value */\n      dup4\n        /* \"openzeppelin-contracts/contracts/utils/math/Math.sol\":13142:13158  value >= 10 ** 4 */\n      lt\n        /* \"openzeppelin-contracts/contracts/utils/math/Math.sol\":13138:13241  if (value >= 10 ** 4) {... */\n      tag_309\n      jumpi\n        /* \"openzeppelin-contracts/contracts/utils/math/Math.sol\":13188:13195  10 ** 4 */\n      0x2710\n        /* \"openzeppelin-contracts/contracts/utils/math/Math.sol\":13179:13195  value /= 10 ** 4 */\n      dup4\n      div\n      swap3\n      pop\n        /* \"openzeppelin-contracts/contracts/utils/math/Math.sol\":13224:13225  4 */\n      0x04\n        /* \"openzeppelin-contracts/contracts/utils/math/Math.sol\":13214:13225  result += 4 */\n      add\n        /* \"openzeppelin-contracts/contracts/utils/math/Math.sol\":13138:13241  if (value >= 10 ** 4) {... */\n    tag_309:\n        /* \"openzeppelin-contracts/contracts/utils/math/Math.sol\":13268:13275  10 ** 2 */\n      0x64\n        /* \"openzeppelin-contracts/contracts/utils/math/Math.sol\":13259:13264  value */\n      dup4\n        /* \"openzeppelin-contracts/contracts/utils/math/Math.sol\":13259:13275  value >= 10 ** 2 */\n      lt\n        /* \"openzeppelin-contracts/contracts/utils/math/Math.sol\":13255:13358  if (value >= 10 ** 2) {... */\n      tag_312\n      jumpi\n        /* \"openzeppelin-contracts/contracts/utils/math/Math.sol\":13305:13312  10 ** 2 */\n      0x64\n        /* \"openzeppelin-contracts/contracts/utils/math/Math.sol\":13296:13312  value /= 10 ** 2 */\n      dup4\n      div\n      swap3\n      pop\n        /* \"openzeppelin-contracts/contracts/utils/math/Math.sol\":13341:13342  2 */\n      0x02\n        /* \"openzeppelin-contracts/contracts/utils/math/Math.sol\":13331:13342  result += 2 */\n      add\n        /* \"openzeppelin-contracts/contracts/utils/math/Math.sol\":13255:13358  if (value >= 10 ** 2) {... */\n    tag_312:\n        /* \"openzeppelin-contracts/contracts/utils/math/Math.sol\":13385:13392  10 ** 1 */\n      0x0a\n        /* \"openzeppelin-contracts/contracts/utils/math/Math.sol\":13376:13381  value */\n      dup4\n        /* \"openzeppelin-contracts/contracts/utils/math/Math.sol\":13376:13392  value >= 10 ** 1 */\n      lt\n        /* \"openzeppelin-contracts/contracts/utils/math/Math.sol\":13372:13440  if (value >= 10 ** 1) {... */\n      tag_116\n      jumpi\n        /* \"openzeppelin-contracts/contracts/utils/math/Math.sol\":13423:13424  1 */\n      0x01\n        /* \"openzeppelin-contracts/contracts/utils/math/Math.sol\":13413:13424  result += 1 */\n      add\n        /* \"openzeppelin-contracts/contracts/utils/math/Math.sol\":13468:13474  result */\n      swap3\n        /* \"openzeppelin-contracts/contracts/utils/math/Math.sol\":12534:13482  function log10(uint256 value) internal pure returns (uint256) {... */\n      swap2\n      pop\n      pop\n      jump\t// out\n        /* \"openzeppelin-contracts/contracts/token/ERC721/ERC721.sol\":6565:6841  function _isAuthorized(address owner, address spender, uint256 tokenId) internal view virtual returns (bool) {... */\n    tag_289:\n        /* \"openzeppelin-contracts/contracts/token/ERC721/ERC721.sol\":6668:6672  bool */\n      0x00\n      sub(shl(0xa0, 0x01), 0x01)\n        /* \"openzeppelin-contracts/contracts/token/ERC721/ERC721.sol\":6705:6726  spender != address(0) */\n      dup4\n      and\n      iszero\n      dup1\n      iszero\n      swap1\n        /* \"openzeppelin-contracts/contracts/token/ERC721/ERC721.sol\":6705:6833  spender != address(0) &&... */\n      tag_320\n      jumpi\n      pop\n        /* \"openzeppelin-contracts/contracts/token/ERC721/ERC721.sol\":6753:6760  spender */\n      dup3\n      sub(shl(0xa0, 0x01), 0x01)\n        /* \"openzeppelin-contracts/contracts/token/ERC721/ERC721.sol\":6744:6760  owner == spender */\n      and\n        /* \"openzeppelin-contracts/contracts/token/ERC721/ERC721.sol\":6744:6749  owner */\n      dup5\n      sub(shl(0xa0, 0x01), 0x01)\n        /* \"openzeppelin-contracts/contracts/token/ERC721/ERC721.sol\":6744:6760  owner == spender */\n      and\n      eq\n        /* \"openzeppelin-contracts/contracts/token/ERC721/ERC721.sol\":6744:6796  owner == spender || isApprovedForAll(owner, spender) */\n      dup1\n      tag_319\n      jumpi\n      pop\n        /* \"openzeppelin-contracts/contracts/token/ERC721/ERC721.sol\":6764:6796  isApprovedForAll(owner, spender) */\n      tag_319\n        /* \"openzeppelin-contracts/contracts/token/ERC721/ERC721.sol\":6781:6786  owner */\n      dup5\n        /* \"openzeppelin-contracts/contracts/token/ERC721/ERC721.sol\":6788:6795  spender */\n      dup5\n        /* \"openzeppelin-contracts/contracts/token/ERC721/ERC721.sol\":6764:6780  isApprovedForAll */\n      tag_108\n        /* \"openzeppelin-contracts/contracts/token/ERC721/ERC721.sol\":6764:6796  isApprovedForAll(owner, spender) */\n      jump\t// in\n    tag_319:\n        /* \"openzeppelin-contracts/contracts/token/ERC721/ERC721.sol\":6744:6832  owner == spender || isApprovedForAll(owner, spender) || _getApproved(tokenId) == spender */\n      dup1\n      tag_320\n      jumpi\n      pop\n        /* \"openzeppelin-contracts/contracts/token/ERC721/ERC721.sol\":6186:6193  address */\n      0x00\n        /* \"openzeppelin-contracts/contracts/token/ERC721/ERC721.sol\":6213:6237  _tokenApprovals[tokenId] */\n      dup3\n      dup2\n      mstore\n        /* \"openzeppelin-contracts/contracts/token/ERC721/ERC721.sol\":6213:6228  _tokenApprovals */\n      0x04\n        /* \"openzeppelin-contracts/contracts/token/ERC721/ERC721.sol\":6213:6237  _tokenApprovals[tokenId] */\n      0x20\n      mstore\n      0x40\n      swap1\n      keccak256\n      sload\n      sub(shl(0xa0, 0x01), 0x01)\n        /* \"openzeppelin-contracts/contracts/token/ERC721/ERC721.sol\":6800:6832  _getApproved(tokenId) == spender */\n      dup5\n      dup2\n      and\n        /* \"openzeppelin-contracts/contracts/token/ERC721/ERC721.sol\":6213:6237  _tokenApprovals[tokenId] */\n      swap2\n      and\n        /* \"openzeppelin-contracts/contracts/token/ERC721/ERC721.sol\":6800:6832  _getApproved(tokenId) == spender */\n      eq\n        /* \"openzeppelin-contracts/contracts/token/ERC721/ERC721.sol\":6744:6832  owner == spender || isApprovedForAll(owner, spender) || _getApproved(tokenId) == spender */\n    tag_320:\n        /* \"openzeppelin-contracts/contracts/token/ERC721/ERC721.sol\":6685:6833  return... */\n      swap5\n        /* \"openzeppelin-contracts/contracts/token/ERC721/ERC721.sol\":6565:6841  function _isAuthorized(address owner, address spender, uint256 tokenId) internal view virtual returns (bool) {... */\n      swap4\n      pop\n      pop\n      pop\n      pop\n      jump\t// out\n        /* \"#utility.yul\":14:145   */\n    tag_322:\n      not(sub(shl(0xe0, 0x01), 0x01))\n        /* \"#utility.yul\":88:120   */\n      dup2\n      and\n        /* \"#utility.yul\":78:121   */\n      dup2\n      eq\n        /* \"#utility.yul\":68:139   */\n      tag_211\n      jumpi\n        /* \"#utility.yul\":135:136   */\n      0x00\n        /* \"#utility.yul\":132:133   */\n      dup1\n        /* \"#utility.yul\":125:137   */\n      revert\n        /* \"#utility.yul\":150:395   */\n    tag_31:\n        /* \"#utility.yul\":208:214   */\n      0x00\n        /* \"#utility.yul\":261:263   */\n      0x20\n        /* \"#utility.yul\":249:258   */\n      dup3\n        /* \"#utility.yul\":240:247   */\n      dup5\n        /* \"#utility.yul\":236:259   */\n      sub\n        /* \"#utility.yul\":232:264   */\n      slt\n        /* \"#utility.yul\":229:281   */\n      iszero\n      tag_330\n      jumpi\n        /* \"#utility.yul\":277:278   */\n      0x00\n        /* \"#utility.yul\":274:275   */\n      dup1\n        /* \"#utility.yul\":267:279   */\n      revert\n        /* \"#utility.yul\":229:281   */\n    tag_330:\n        /* \"#utility.yul\":316:325   */\n      dup2\n        /* \"#utility.yul\":303:326   */\n      calldataload\n        /* \"#utility.yul\":335:365   */\n      tag_200\n        /* \"#utility.yul\":359:364   */\n      dup2\n        /* \"#utility.yul\":335:365   */\n      tag_322\n      jump\t// in\n        /* \"#utility.yul\":592:842   */\n    tag_323:\n        /* \"#utility.yul\":677:678   */\n      0x00\n        /* \"#utility.yul\":687:800   */\n    tag_334:\n        /* \"#utility.yul\":701:707   */\n      dup4\n        /* \"#utility.yul\":698:699   */\n      dup2\n        /* \"#utility.yul\":695:708   */\n      lt\n        /* \"#utility.yul\":687:800   */\n      iszero\n      tag_336\n      jumpi\n        /* \"#utility.yul\":777:788   */\n      dup2\n      dup2\n      add\n        /* \"#utility.yul\":771:789   */\n      mload\n        /* \"#utility.yul\":758:769   */\n      dup4\n      dup3\n      add\n        /* \"#utility.yul\":751:790   */\n      mstore\n        /* \"#utility.yul\":723:725   */\n      0x20\n        /* \"#utility.yul\":716:726   */\n      add\n        /* \"#utility.yul\":687:800   */\n      jump(tag_334)\n    tag_336:\n      pop\n      pop\n        /* \"#utility.yul\":834:835   */\n      0x00\n        /* \"#utility.yul\":816:832   */\n      swap2\n      add\n        /* \"#utility.yul\":809:836   */\n      mstore\n        /* \"#utility.yul\":592:842   */\n      jump\t// out\n        /* \"#utility.yul\":847:1118   */\n    tag_324:\n        /* \"#utility.yul\":889:892   */\n      0x00\n        /* \"#utility.yul\":927:932   */\n      dup2\n        /* \"#utility.yul\":921:933   */\n      mload\n        /* \"#utility.yul\":954:960   */\n      dup1\n        /* \"#utility.yul\":949:952   */\n      dup5\n        /* \"#utility.yul\":942:961   */\n      mstore\n        /* \"#utility.yul\":970:1046   */\n      tag_338\n        /* \"#utility.yul\":1039:1045   */\n      dup2\n        /* \"#utility.yul\":1032:1036   */\n      0x20\n        /* \"#utility.yul\":1027:1030   */\n      dup7\n        /* \"#utility.yul\":1023:1037   */\n      add\n        /* \"#utility.yul\":1016:1020   */\n      0x20\n        /* \"#utility.yul\":1009:1014   */\n      dup7\n        /* \"#utility.yul\":1005:1021   */\n      add\n        /* \"#utility.yul\":970:1046   */\n      tag_323\n      jump\t// in\n    tag_338:\n        /* \"#utility.yul\":1100:1102   */\n      0x1f\n        /* \"#utility.yul\":1079:1094   */\n      add\n      not(0x1f)\n        /* \"#utility.yul\":1075:1104   */\n      and\n        /* \"#utility.yul\":1066:1105   */\n      swap3\n      swap1\n      swap3\n      add\n        /* \"#utility.yul\":1107:1111   */\n      0x20\n        /* \"#utility.yul\":1062:1112   */\n      add\n      swap3\n        /* \"#utility.yul\":847:1118   */\n      swap2\n      pop\n      pop\n      jump\t// out\n        /* \"#utility.yul\":1123:1343   */\n    tag_38:\n        /* \"#utility.yul\":1272:1274   */\n      0x20\n        /* \"#utility.yul\":1261:1270   */\n      dup2\n        /* \"#utility.yul\":1254:1275   */\n      mstore\n        /* \"#utility.yul\":1235:1239   */\n      0x00\n        /* \"#utility.yul\":1292:1337   */\n      tag_200\n        /* \"#utility.yul\":1333:1335   */\n      0x20\n        /* \"#utility.yul\":1322:1331   */\n      dup4\n        /* \"#utility.yul\":1318:1336   */\n      add\n        /* \"#utility.yul\":1310:1316   */\n      dup5\n        /* \"#utility.yul\":1292:1337   */\n      tag_324\n      jump\t// in\n        /* \"#utility.yul\":1348:1528   */\n    tag_41:\n        /* \"#utility.yul\":1407:1413   */\n      0x00\n        /* \"#utility.yul\":1460:1462   */\n      0x20\n        /* \"#utility.yul\":1448:1457   */\n      dup3\n        /* \"#utility.yul\":1439:1446   */\n      dup5\n        /* \"#utility.yul\":1435:1458   */\n      sub\n        /* \"#utility.yul\":1431:1463   */\n      slt\n        /* \"#utility.yul\":1428:1480   */\n      iszero\n      tag_342\n      jumpi\n        /* \"#utility.yul\":1476:1477   */\n      0x00\n        /* \"#utility.yul\":1473:1474   */\n      dup1\n        /* \"#utility.yul\":1466:1478   */\n      revert\n        /* \"#utility.yul\":1428:1480   */\n    tag_342:\n      pop\n        /* \"#utility.yul\":1499:1522   */\n      calldataload\n      swap2\n        /* \"#utility.yul\":1348:1528   */\n      swap1\n      pop\n      jump\t// out\n        /* \"#utility.yul\":1741:1914   */\n    tag_325:\n        /* \"#utility.yul\":1809:1829   */\n      dup1\n      calldataload\n      sub(shl(0xa0, 0x01), 0x01)\n        /* \"#utility.yul\":1858:1889   */\n      dup2\n      and\n        /* \"#utility.yul\":1848:1890   */\n      dup2\n      eq\n        /* \"#utility.yul\":1838:1908   */\n      tag_345\n      jumpi\n        /* \"#utility.yul\":1904:1905   */\n      0x00\n        /* \"#utility.yul\":1901:1902   */\n      dup1\n        /* \"#utility.yul\":1894:1906   */\n      revert\n        /* \"#utility.yul\":1838:1908   */\n    tag_345:\n        /* \"#utility.yul\":1741:1914   */\n      swap2\n      swap1\n      pop\n      jump\t// out\n        /* \"#utility.yul\":1919:2173   */\n    tag_47:\n        /* \"#utility.yul\":1987:1993   */\n      0x00\n        /* \"#utility.yul\":1995:2001   */\n      dup1\n        /* \"#utility.yul\":2048:2050   */\n      0x40\n        /* \"#utility.yul\":2036:2045   */\n      dup4\n        /* \"#utility.yul\":2027:2034   */\n      dup6\n        /* \"#utility.yul\":2023:2046   */\n      sub\n        /* \"#utility.yul\":2019:2051   */\n      slt\n        /* \"#utility.yul\":2016:2068   */\n      iszero\n      tag_347\n      jumpi\n        /* \"#utility.yul\":2064:2065   */\n      0x00\n        /* \"#utility.yul\":2061:2062   */\n      dup1\n        /* \"#utility.yul\":2054:2066   */\n      revert\n        /* \"#utility.yul\":2016:2068   */\n    tag_347:\n        /* \"#utility.yul\":2087:2116   */\n      tag_348\n        /* \"#utility.yul\":2106:2115   */\n      dup4\n        /* \"#utility.yul\":2087:2116   */\n      tag_325\n      jump\t// in\n    tag_348:\n        /* \"#utility.yul\":2077:2116   */\n      swap5\n        /* \"#utility.yul\":2163:2165   */\n      0x20\n        /* \"#utility.yul\":2148:2166   */\n      swap4\n      swap1\n      swap4\n      add\n        /* \"#utility.yul\":2135:2167   */\n      calldataload\n      swap4\n      pop\n      pop\n      pop\n        /* \"#utility.yul\":1919:2173   */\n      jump\t// out\n        /* \"#utility.yul\":2178:2506   */\n    tag_51:\n        /* \"#utility.yul\":2255:2261   */\n      0x00\n        /* \"#utility.yul\":2263:2269   */\n      dup1\n        /* \"#utility.yul\":2271:2277   */\n      0x00\n        /* \"#utility.yul\":2324:2326   */\n      0x60\n        /* \"#utility.yul\":2312:2321   */\n      dup5\n        /* \"#utility.yul\":2303:2310   */\n      dup7\n        /* \"#utility.yul\":2299:2322   */\n      sub\n        /* \"#utility.yul\":2295:2327   */\n      slt\n        /* \"#utility.yul\":2292:2344   */\n      iszero\n      tag_350\n      jumpi\n        /* \"#utility.yul\":2340:2341   */\n      0x00\n        /* \"#utility.yul\":2337:2338   */\n      dup1\n        /* \"#utility.yul\":2330:2342   */\n      revert\n        /* \"#utility.yul\":2292:2344   */\n    tag_350:\n        /* \"#utility.yul\":2363:2392   */\n      tag_351\n        /* \"#utility.yul\":2382:2391   */\n      dup5\n        /* \"#utility.yul\":2363:2392   */\n      tag_325\n      jump\t// in\n    tag_351:\n        /* \"#utility.yul\":2353:2392   */\n      swap3\n      pop\n        /* \"#utility.yul\":2411:2449   */\n      tag_352\n        /* \"#utility.yul\":2445:2447   */\n      0x20\n        /* \"#utility.yul\":2434:2443   */\n      dup6\n        /* \"#utility.yul\":2430:2448   */\n      add\n        /* \"#utility.yul\":2411:2449   */\n      tag_325\n      jump\t// in\n    tag_352:\n        /* \"#utility.yul\":2401:2449   */\n      swap2\n      pop\n        /* \"#utility.yul\":2496:2498   */\n      0x40\n        /* \"#utility.yul\":2485:2494   */\n      dup5\n        /* \"#utility.yul\":2481:2499   */\n      add\n        /* \"#utility.yul\":2468:2500   */\n      calldataload\n        /* \"#utility.yul\":2458:2500   */\n      swap1\n      pop\n        /* \"#utility.yul\":2178:2506   */\n      swap3\n      pop\n      swap3\n      pop\n      swap3\n      jump\t// out\n        /* \"#utility.yul\":2511:2697   */\n    tag_66:\n        /* \"#utility.yul\":2570:2576   */\n      0x00\n        /* \"#utility.yul\":2623:2625   */\n      0x20\n        /* \"#utility.yul\":2611:2620   */\n      dup3\n        /* \"#utility.yul\":2602:2609   */\n      dup5\n        /* \"#utility.yul\":2598:2621   */\n      sub\n        /* \"#utility.yul\":2594:2626   */\n      slt\n        /* \"#utility.yul\":2591:2643   */\n      iszero\n      tag_354\n      jumpi\n        /* \"#utility.yul\":2639:2640   */\n      0x00\n        /* \"#utility.yul\":2636:2637   */\n      dup1\n        /* \"#utility.yul\":2629:2641   */\n      revert\n        /* \"#utility.yul\":2591:2643   */\n    tag_354:\n        /* \"#utility.yul\":2662:2691   */\n      tag_200\n        /* \"#utility.yul\":2681:2690   */\n      dup3\n        /* \"#utility.yul\":2662:2691   */\n      tag_325\n      jump\t// in\n        /* \"#utility.yul\":2884:3476   */\n    tag_75:\n        /* \"#utility.yul\":3065:3067   */\n      0x20\n        /* \"#utility.yul\":3047:3068   */\n      dup1\n      dup3\n      mstore\n        /* \"#utility.yul\":3108:3121   */\n      dup3\n      mload\n      sub(shl(0xa0, 0x01), 0x01)\n        /* \"#utility.yul\":3104:3143   */\n      and\n        /* \"#utility.yul\":3084:3102   */\n      dup3\n      dup3\n      add\n        /* \"#utility.yul\":3077:3144   */\n      mstore\n        /* \"#utility.yul\":3179:3194   */\n      dup3\n      add\n        /* \"#utility.yul\":3173:3195   */\n      mload\n        /* \"#utility.yul\":3231:3235   */\n      0x80\n        /* \"#utility.yul\":3226:3228   */\n      0x40\n        /* \"#utility.yul\":3211:3229   */\n      dup4\n      add\n        /* \"#utility.yul\":3204:3236   */\n      mstore\n      0x00\n      swap1\n        /* \"#utility.yul\":3259:3311   */\n      tag_358\n        /* \"#utility.yul\":3131:3134   */\n      0xa0\n        /* \"#utility.yul\":3291:3310   */\n      dup5\n      add\n        /* \"#utility.yul\":3173:3195   */\n      dup3\n        /* \"#utility.yul\":3259:3311   */\n      tag_324\n      jump\t// in\n    tag_358:\n        /* \"#utility.yul\":3245:3311   */\n      swap1\n      pop\n        /* \"#utility.yul\":3365:3367   */\n      0x40\n        /* \"#utility.yul\":3357:3363   */\n      dup5\n        /* \"#utility.yul\":3353:3368   */\n      add\n        /* \"#utility.yul\":3347:3369   */\n      mload\n        /* \"#utility.yul\":3342:3344   */\n      0x60\n        /* \"#utility.yul\":3331:3340   */\n      dup5\n        /* \"#utility.yul\":3327:3345   */\n      add\n        /* \"#utility.yul\":3320:3370   */\n      mstore\n        /* \"#utility.yul\":3440:3442   */\n      0x60\n        /* \"#utility.yul\":3432:3438   */\n      dup5\n        /* \"#utility.yul\":3428:3443   */\n      add\n        /* \"#utility.yul\":3422:3444   */\n      mload\n        /* \"#utility.yul\":3415:3445   */\n      iszero\n        /* \"#utility.yul\":3408:3446   */\n      iszero\n        /* \"#utility.yul\":3401:3405   */\n      0x80\n        /* \"#utility.yul\":3390:3399   */\n      dup5\n        /* \"#utility.yul\":3386:3406   */\n      add\n        /* \"#utility.yul\":3379:3447   */\n      mstore\n        /* \"#utility.yul\":3464:3470   */\n      dup1\n        /* \"#utility.yul\":3456:3470   */\n      swap2\n      pop\n      pop\n        /* \"#utility.yul\":2884:3476   */\n      swap3\n      swap2\n      pop\n      pop\n      jump\t// out\n        /* \"#utility.yul\":3481:3828   */\n    tag_95:\n        /* \"#utility.yul\":3546:3552   */\n      0x00\n        /* \"#utility.yul\":3554:3560   */\n      dup1\n        /* \"#utility.yul\":3607:3609   */\n      0x40\n        /* \"#utility.yul\":3595:3604   */\n      dup4\n        /* \"#utility.yul\":3586:3593   */\n      dup6\n        /* \"#utility.yul\":3582:3605   */\n      sub\n        /* \"#utility.yul\":3578:3610   */\n      slt\n        /* \"#utility.yul\":3575:3627   */\n      iszero\n      tag_360\n      jumpi\n        /* \"#utility.yul\":3623:3624   */\n      0x00\n        /* \"#utility.yul\":3620:3621   */\n      dup1\n        /* \"#utility.yul\":3613:3625   */\n      revert\n        /* \"#utility.yul\":3575:3627   */\n    tag_360:\n        /* \"#utility.yul\":3646:3675   */\n      tag_361\n        /* \"#utility.yul\":3665:3674   */\n      dup4\n        /* \"#utility.yul\":3646:3675   */\n      tag_325\n      jump\t// in\n    tag_361:\n        /* \"#utility.yul\":3636:3675   */\n      swap2\n      pop\n        /* \"#utility.yul\":3725:3727   */\n      0x20\n        /* \"#utility.yul\":3714:3723   */\n      dup4\n        /* \"#utility.yul\":3710:3728   */\n      add\n        /* \"#utility.yul\":3697:3729   */\n      calldataload\n        /* \"#utility.yul\":3772:3777   */\n      dup1\n        /* \"#utility.yul\":3765:3778   */\n      iszero\n        /* \"#utility.yul\":3758:3779   */\n      iszero\n        /* \"#utility.yul\":3751:3756   */\n      dup2\n        /* \"#utility.yul\":3748:3780   */\n      eq\n        /* \"#utility.yul\":3738:3798   */\n      tag_362\n      jumpi\n        /* \"#utility.yul\":3794:3795   */\n      0x00\n        /* \"#utility.yul\":3791:3792   */\n      dup1\n        /* \"#utility.yul\":3784:3796   */\n      revert\n        /* \"#utility.yul\":3738:3798   */\n    tag_362:\n        /* \"#utility.yul\":3817:3822   */\n      dup1\n        /* \"#utility.yul\":3807:3822   */\n      swap2\n      pop\n      pop\n        /* \"#utility.yul\":3481:3828   */\n      swap3\n      pop\n      swap3\n      swap1\n      pop\n      jump\t// out\n        /* \"#utility.yul\":3833:3960   */\n    tag_268:\n        /* \"#utility.yul\":3894:3904   */\n      0x4e487b71\n        /* \"#utility.yul\":3889:3892   */\n      0xe0\n        /* \"#utility.yul\":3885:3905   */\n      shl\n        /* \"#utility.yul\":3882:3883   */\n      0x00\n        /* \"#utility.yul\":3875:3906   */\n      mstore\n        /* \"#utility.yul\":3925:3929   */\n      0x41\n        /* \"#utility.yul\":3922:3923   */\n      0x04\n        /* \"#utility.yul\":3915:3930   */\n      mstore\n        /* \"#utility.yul\":3949:3953   */\n      0x24\n        /* \"#utility.yul\":3946:3947   */\n      0x00\n        /* \"#utility.yul\":3939:3954   */\n      revert\n        /* \"#utility.yul\":3965:5103   */\n    tag_99:\n        /* \"#utility.yul\":4060:4066   */\n      0x00\n        /* \"#utility.yul\":4068:4074   */\n      dup1\n        /* \"#utility.yul\":4076:4082   */\n      0x00\n        /* \"#utility.yul\":4084:4090   */\n      dup1\n        /* \"#utility.yul\":4137:4140   */\n      0x80\n        /* \"#utility.yul\":4125:4134   */\n      dup6\n        /* \"#utility.yul\":4116:4123   */\n      dup8\n        /* \"#utility.yul\":4112:4135   */\n      sub\n        /* \"#utility.yul\":4108:4141   */\n      slt\n        /* \"#utility.yul\":4105:4158   */\n      iszero\n      tag_365\n      jumpi\n        /* \"#utility.yul\":4154:4155   */\n      0x00\n        /* \"#utility.yul\":4151:4152   */\n      dup1\n        /* \"#utility.yul\":4144:4156   */\n      revert\n        /* \"#utility.yul\":4105:4158   */\n    tag_365:\n        /* \"#utility.yul\":4177:4206   */\n      tag_366\n        /* \"#utility.yul\":4196:4205   */\n      dup6\n        /* \"#utility.yul\":4177:4206   */\n      tag_325\n      jump\t// in\n    tag_366:\n        /* \"#utility.yul\":4167:4206   */\n      swap4\n      pop\n        /* \"#utility.yul\":4225:4263   */\n      tag_367\n        /* \"#utility.yul\":4259:4261   */\n      0x20\n        /* \"#utility.yul\":4248:4257   */\n      dup7\n        /* \"#utility.yul\":4244:4262   */\n      add\n        /* \"#utility.yul\":4225:4263   */\n      tag_325\n      jump\t// in\n    tag_367:\n        /* \"#utility.yul\":4215:4263   */\n      swap3\n      pop\n        /* \"#utility.yul\":4310:4312   */\n      0x40\n        /* \"#utility.yul\":4299:4308   */\n      dup6\n        /* \"#utility.yul\":4295:4313   */\n      add\n        /* \"#utility.yul\":4282:4314   */\n      calldataload\n        /* \"#utility.yul\":4272:4314   */\n      swap2\n      pop\n        /* \"#utility.yul\":4365:4367   */\n      0x60\n        /* \"#utility.yul\":4354:4363   */\n      dup6\n        /* \"#utility.yul\":4350:4368   */\n      add\n        /* \"#utility.yul\":4337:4369   */\n      calldataload\n        /* \"#utility.yul\":4388:4406   */\n      0xffffffffffffffff\n        /* \"#utility.yul\":4429:4431   */\n      dup1\n        /* \"#utility.yul\":4421:4427   */\n      dup3\n        /* \"#utility.yul\":4418:4432   */\n      gt\n        /* \"#utility.yul\":4415:4449   */\n      iszero\n      tag_368\n      jumpi\n        /* \"#utility.yul\":4445:4446   */\n      0x00\n        /* \"#utility.yul\":4442:4443   */\n      dup1\n        /* \"#utility.yul\":4435:4447   */\n      revert\n        /* \"#utility.yul\":4415:4449   */\n    tag_368:\n        /* \"#utility.yul\":4483:4489   */\n      dup2\n        /* \"#utility.yul\":4472:4481   */\n      dup8\n        /* \"#utility.yul\":4468:4490   */\n      add\n        /* \"#utility.yul\":4458:4490   */\n      swap2\n      pop\n        /* \"#utility.yul\":4528:4535   */\n      dup8\n        /* \"#utility.yul\":4521:4525   */\n      0x1f\n        /* \"#utility.yul\":4517:4519   */\n      dup4\n        /* \"#utility.yul\":4513:4526   */\n      add\n        /* \"#utility.yul\":4509:4536   */\n      slt\n        /* \"#utility.yul\":4499:4554   */\n      tag_369\n      jumpi\n        /* \"#utility.yul\":4550:4551   */\n      0x00\n        /* \"#utility.yul\":4547:4548   */\n      dup1\n        /* \"#utility.yul\":4540:4552   */\n      revert\n        /* \"#utility.yul\":4499:4554   */\n    tag_369:\n        /* \"#utility.yul\":4586:4588   */\n      dup2\n        /* \"#utility.yul\":4573:4589   */\n      calldataload\n        /* \"#utility.yul\":4608:4610   */\n      dup2\n        /* \"#utility.yul\":4604:4606   */\n      dup2\n        /* \"#utility.yul\":4601:4611   */\n      gt\n        /* \"#utility.yul\":4598:4634   */\n      iszero\n      tag_371\n      jumpi\n        /* \"#utility.yul\":4614:4632   */\n      tag_371\n      tag_268\n      jump\t// in\n    tag_371:\n        /* \"#utility.yul\":4689:4691   */\n      0x40\n        /* \"#utility.yul\":4683:4692   */\n      mload\n        /* \"#utility.yul\":4657:4659   */\n      0x1f\n        /* \"#utility.yul\":4743:4756   */\n      dup3\n      add\n      not(0x1f)\n        /* \"#utility.yul\":4739:4761   */\n      swap1\n      dup2\n      and\n        /* \"#utility.yul\":4763:4765   */\n      0x3f\n        /* \"#utility.yul\":4735:4766   */\n      add\n        /* \"#utility.yul\":4731:4771   */\n      and\n        /* \"#utility.yul\":4719:4772   */\n      dup2\n      add\n      swap1\n        /* \"#utility.yul\":4787:4805   */\n      dup4\n      dup3\n      gt\n        /* \"#utility.yul\":4807:4829   */\n      dup2\n      dup4\n      lt\n        /* \"#utility.yul\":4784:4830   */\n      or\n        /* \"#utility.yul\":4781:4853   */\n      iszero\n      tag_373\n      jumpi\n        /* \"#utility.yul\":4833:4851   */\n      tag_373\n      tag_268\n      jump\t// in\n    tag_373:\n        /* \"#utility.yul\":4873:4883   */\n      dup2\n        /* \"#utility.yul\":4869:4871   */\n      0x40\n        /* \"#utility.yul\":4862:4884   */\n      mstore\n        /* \"#utility.yul\":4908:4910   */\n      dup3\n        /* \"#utility.yul\":4900:4906   */\n      dup2\n        /* \"#utility.yul\":4893:4911   */\n      mstore\n        /* \"#utility.yul\":4948:4955   */\n      dup11\n        /* \"#utility.yul\":4943:4945   */\n      0x20\n        /* \"#utility.yul\":4938:4940   */\n      dup5\n        /* \"#utility.yul\":4934:4936   */\n      dup8\n        /* \"#utility.yul\":4930:4941   */\n      add\n        /* \"#utility.yul\":4926:4946   */\n      add\n        /* \"#utility.yul\":4923:4956   */\n      gt\n        /* \"#utility.yul\":4920:4973   */\n      iszero\n      tag_374\n      jumpi\n        /* \"#utility.yul\":4969:4970   */\n      0x00\n        /* \"#utility.yul\":4966:4967   */\n      dup1\n        /* \"#utility.yul\":4959:4971   */\n      revert\n        /* \"#utility.yul\":4920:4973   */\n    tag_374:\n        /* \"#utility.yul\":5025:5027   */\n      dup3\n        /* \"#utility.yul\":5020:5022   */\n      0x20\n        /* \"#utility.yul\":5016:5018   */\n      dup7\n        /* \"#utility.yul\":5012:5023   */\n      add\n        /* \"#utility.yul\":5007:5009   */\n      0x20\n        /* \"#utility.yul\":4999:5005   */\n      dup4\n        /* \"#utility.yul\":4995:5010   */\n      add\n        /* \"#utility.yul\":4982:5028   */\n      calldatacopy\n        /* \"#utility.yul\":5070:5071   */\n      0x00\n        /* \"#utility.yul\":5065:5067   */\n      0x20\n        /* \"#utility.yul\":5060:5062   */\n      dup5\n        /* \"#utility.yul\":5052:5058   */\n      dup4\n        /* \"#utility.yul\":5048:5063   */\n      add\n        /* \"#utility.yul\":5044:5068   */\n      add\n        /* \"#utility.yul\":5037:5072   */\n      mstore\n        /* \"#utility.yul\":5091:5097   */\n      dup1\n        /* \"#utility.yul\":5081:5097   */\n      swap6\n      pop\n      pop\n      pop\n      pop\n      pop\n      pop\n        /* \"#utility.yul\":3965:5103   */\n      swap3\n      swap6\n      swap2\n      swap5\n      pop\n      swap3\n      pop\n      jump\t// out\n        /* \"#utility.yul\":5108:5368   */\n    tag_107:\n        /* \"#utility.yul\":5176:5182   */\n      0x00\n        /* \"#utility.yul\":5184:5190   */\n      dup1\n        /* \"#utility.yul\":5237:5239   */\n      0x40\n        /* \"#utility.yul\":5225:5234   */\n      dup4\n        /* \"#utility.yul\":5216:5223   */\n      dup6\n        /* \"#utility.yul\":5212:5235   */\n      sub\n        /* \"#utility.yul\":5208:5240   */\n      slt\n        /* \"#utility.yul\":5205:5257   */\n      iszero\n      tag_376\n      jumpi\n        /* \"#utility.yul\":5253:5254   */\n      0x00\n        /* \"#utility.yul\":5250:5251   */\n      dup1\n        /* \"#utility.yul\":5243:5255   */\n      revert\n        /* \"#utility.yul\":5205:5257   */\n    tag_376:\n        /* \"#utility.yul\":5276:5305   */\n      tag_377\n        /* \"#utility.yul\":5295:5304   */\n      dup4\n        /* \"#utility.yul\":5276:5305   */\n      tag_325\n      jump\t// in\n    tag_377:\n        /* \"#utility.yul\":5266:5305   */\n      swap2\n      pop\n        /* \"#utility.yul\":5324:5362   */\n      tag_378\n        /* \"#utility.yul\":5358:5360   */\n      0x20\n        /* \"#utility.yul\":5347:5356   */\n      dup5\n        /* \"#utility.yul\":5343:5361   */\n      add\n        /* \"#utility.yul\":5324:5362   */\n      tag_325\n      jump\t// in\n    tag_378:\n        /* \"#utility.yul\":5314:5362   */\n      swap1\n      pop\n        /* \"#utility.yul\":5108:5368   */\n      swap3\n      pop\n      swap3\n      swap1\n      pop\n      jump\t// out\n        /* \"#utility.yul\":5373:5753   */\n    tag_120:\n        /* \"#utility.yul\":5452:5453   */\n      0x01\n        /* \"#utility.yul\":5448:5460   */\n      dup2\n      dup2\n      shr\n      swap1\n        /* \"#utility.yul\":5495:5507   */\n      dup3\n      and\n      dup1\n        /* \"#utility.yul\":5516:5577   */\n      tag_380\n      jumpi\n        /* \"#utility.yul\":5570:5574   */\n      0x7f\n        /* \"#utility.yul\":5562:5568   */\n      dup3\n        /* \"#utility.yul\":5558:5575   */\n      and\n        /* \"#utility.yul\":5548:5575   */\n      swap2\n      pop\n        /* \"#utility.yul\":5516:5577   */\n    tag_380:\n        /* \"#utility.yul\":5623:5625   */\n      0x20\n        /* \"#utility.yul\":5615:5621   */\n      dup3\n        /* \"#utility.yul\":5612:5626   */\n      lt\n        /* \"#utility.yul\":5592:5610   */\n      dup2\n        /* \"#utility.yul\":5589:5627   */\n      sub\n        /* \"#utility.yul\":5586:5747   */\n      tag_381\n      jumpi\n        /* \"#utility.yul\":5669:5679   */\n      0x4e487b71\n        /* \"#utility.yul\":5664:5667   */\n      0xe0\n        /* \"#utility.yul\":5660:5680   */\n      shl\n        /* \"#utility.yul\":5657:5658   */\n      0x00\n        /* \"#utility.yul\":5650:5681   */\n      mstore\n        /* \"#utility.yul\":5704:5708   */\n      0x22\n        /* \"#utility.yul\":5701:5702   */\n      0x04\n        /* \"#utility.yul\":5694:5709   */\n      mstore\n        /* \"#utility.yul\":5732:5736   */\n      0x24\n        /* \"#utility.yul\":5729:5730   */\n      0x00\n        /* \"#utility.yul\":5722:5737   */\n      revert\n        /* \"#utility.yul\":5586:5747   */\n    tag_381:\n      pop\n        /* \"#utility.yul\":5373:5753   */\n      swap2\n      swap1\n      pop\n      jump\t// out\n        /* \"#utility.yul\":6138:6634   */\n    tag_204:\n        /* \"#utility.yul\":6317:6320   */\n      0x00\n        /* \"#utility.yul\":6355:6361   */\n      dup4\n        /* \"#utility.yul\":6349:6362   */\n      mload\n        /* \"#utility.yul\":6371:6437   */\n      tag_384\n        /* \"#utility.yul\":6430:6436   */\n      dup2\n        /* \"#utility.yul\":6425:6428   */\n      dup5\n        /* \"#utility.yul\":6418:6422   */\n      0x20\n        /* \"#utility.yul\":6410:6416   */\n      dup9\n        /* \"#utility.yul\":6406:6423   */\n      add\n        /* \"#utility.yul\":6371:6437   */\n      tag_323\n      jump\t// in\n    tag_384:\n        /* \"#utility.yul\":6500:6513   */\n      dup4\n      mload\n        /* \"#utility.yul\":6459:6475   */\n      swap1\n      dup4\n      add\n      swap1\n        /* \"#utility.yul\":6522:6592   */\n      tag_385\n        /* \"#utility.yul\":6500:6513   */\n      dup2\n        /* \"#utility.yul\":6459:6475   */\n      dup4\n        /* \"#utility.yul\":6569:6573   */\n      0x20\n        /* \"#utility.yul\":6557:6574   */\n      dup9\n      add\n        /* \"#utility.yul\":6522:6592   */\n      tag_323\n      jump\t// in\n    tag_385:\n        /* \"#utility.yul\":6608:6628   */\n      add\n      swap5\n        /* \"#utility.yul\":6138:6634   */\n      swap4\n      pop\n      pop\n      pop\n      pop\n      jump\t// out\n        /* \"#utility.yul\":6639:7128   */\n    tag_246:\n      sub(shl(0xa0, 0x01), 0x01)\n        /* \"#utility.yul\":6908:6923   */\n      dup6\n      dup2\n      and\n        /* \"#utility.yul\":6890:6924   */\n      dup3\n      mstore\n        /* \"#utility.yul\":6960:6975   */\n      dup5\n      and\n        /* \"#utility.yul\":6955:6957   */\n      0x20\n        /* \"#utility.yul\":6940:6958   */\n      dup3\n      add\n        /* \"#utility.yul\":6933:6976   */\n      mstore\n        /* \"#utility.yul\":7007:7009   */\n      0x40\n        /* \"#utility.yul\":6992:7010   */\n      dup2\n      add\n        /* \"#utility.yul\":6985:7019   */\n      dup4\n      swap1\n      mstore\n        /* \"#utility.yul\":7055:7058   */\n      0x80\n        /* \"#utility.yul\":7050:7052   */\n      0x60\n        /* \"#utility.yul\":7035:7053   */\n      dup3\n      add\n        /* \"#utility.yul\":7028:7059   */\n      dup2\n      swap1\n      mstore\n        /* \"#utility.yul\":6833:6837   */\n      0x00\n      swap1\n        /* \"#utility.yul\":7076:7122   */\n      tag_387\n      swap1\n        /* \"#utility.yul\":7102:7121   */\n      dup4\n      add\n        /* \"#utility.yul\":7094:7100   */\n      dup5\n        /* \"#utility.yul\":7076:7122   */\n      tag_324\n      jump\t// in\n    tag_387:\n        /* \"#utility.yul\":7068:7122   */\n      swap7\n        /* \"#utility.yul\":6639:7128   */\n      swap6\n      pop\n      pop\n      pop\n      pop\n      pop\n      pop\n      jump\t// out\n        /* \"#utility.yul\":7133:7382   */\n    tag_249:\n        /* \"#utility.yul\":7202:7208   */\n      0x00\n        /* \"#utility.yul\":7255:7257   */\n      0x20\n        /* \"#utility.yul\":7243:7252   */\n      dup3\n        /* \"#utility.yul\":7234:7241   */\n      dup5\n        /* \"#utility.yul\":7230:7253   */\n      sub\n        /* \"#utility.yul\":7226:7258   */\n      slt\n        /* \"#utility.yul\":7223:7275   */\n      iszero\n      tag_389\n      jumpi\n        /* \"#utility.yul\":7271:7272   */\n      0x00\n        /* \"#utility.yul\":7268:7269   */\n      dup1\n        /* \"#utility.yul\":7261:7273   */\n      revert\n        /* \"#utility.yul\":7223:7275   */\n    tag_389:\n        /* \"#utility.yul\":7303:7312   */\n      dup2\n        /* \"#utility.yul\":7297:7313   */\n      mload\n        /* \"#utility.yul\":7322:7352   */\n      tag_200\n        /* \"#utility.yul\":7346:7351   */\n      dup2\n        /* \"#utility.yul\":7322:7352   */\n      tag_322\n      jump\t// in\n\n    auxdata: 0xa26469706673582212201c8c174e7c88dfb119f5fd3f9a49e9567e0ac31a44600c86af58e4027c32288464736f6c63430008140033\n}\n",
				"bytecode": {
					"linkReferences": {},
					"object": "608060405234801562000010575f80fd5b50604051620015f3380380620015f383398101604081905262000033916200015a565b816040518060400160405280600c81526020016b2834b1ba3ab932aa37b5b2b760a11b81525060405180604001604052806002815260200161141560f21b815250815f9081620000849190620002d4565b506001620000938282620002d4565b5050506001600160a01b038116620000c457604051631e4fbdf760e01b81525f600482015260240160405180910390fd5b620000cf81620000f5565b506007620000de8282620002d4565b50505f600855506009805460ff191690556200039c565b600680546001600160a01b038381166001600160a01b0319831681179093556040519116919082907f8be0079c531659141344cd1fd0a4f28419497f9722a3daafe3b4186f6b6457e0905f90a35050565b634e487b7160e01b5f52604160045260245ffd5b5f80604083850312156200016c575f80fd5b82516001600160a01b038116811462000183575f80fd5b602084810151919350906001600160401b0380821115620001a2575f80fd5b818601915086601f830112620001b6575f80fd5b815181811115620001cb57620001cb62000146565b604051601f8201601f19908116603f01168101908382118183101715620001f657620001f662000146565b8160405282815289868487010111156200020e575f80fd5b5f93505b8284101562000231578484018601518185018701529285019262000212565b5f8684830101528096505050505050509250929050565b600181811c908216806200025d57607f821691505b6020821081036200027c57634e487b7160e01b5f52602260045260245ffd5b50919050565b601f821115620002cf575f81815260208120601f850160051c81016020861015620002aa5750805b601f850160051c820191505b81811015620002cb57828155600101620002b6565b5050505b505050565b81516001600160401b03811115620002f057620002f062000146565b620003088162000301845462000248565b8462000282565b602080601f8311600181146200033e575f8415620003265750858301515b5f19600386901b1c1916600185901b178555620002cb565b5f85815260208120601f198616915b828110156200036e578886015182559484019460019091019084016200034d565b50858210156200038c57878501515f19600388901b60f8161c191681555b5050505050600190811b01905550565b61124980620003aa5f395ff3fe608060405234801561000f575f80fd5b5060043610610148575f3560e01c8063854cbb4a116100bf578063a035b1fe11610079578063a035b1fe1461028c578063a22cb46514610295578063b88d4fde146102a8578063c87b56dd146102bb578063e985e9c5146102ce578063f2fde38b146102e1575f80fd5b8063854cbb4a1461023b5780638c2a5bc8146102505780638da5cb5b1461025857806391b7f5ed1461026957806395d89b411461027c57806398d5fdca14610284575f80fd5b806342842e0e1161011057806342842e0e146101dc5780635987cc19146101ef5780636352211e146101f757806364edfbf01461020a57806370a0823114610212578063715018a614610233575f80fd5b806301ffc9a71461014c57806306fdde0314610174578063081812fc14610189578063095ea7b3146101b457806323b872dd146101c9575b5f80fd5b61015f61015a366004610e8e565b6102f4565b60405190151581526020015b60405180910390f35b61017c610345565b60405161016b9190610ef6565b61019c610197366004610f08565b6103d4565b6040516001600160a01b03909116815260200161016b565b6101c76101c2366004610f3a565b6103fb565b005b6101c76101d7366004610f62565b61040a565b6101c76101ea366004610f62565b610498565b6101c76104b7565b61019c610205366004610f08565b6104ce565b6101c76104d8565b610225610220366004610f9b565b61051d565b60405190815260200161016b565b6101c7610562565b610243610575565b60405161016b9190610fb4565b6101c761067a565b6006546001600160a01b031661019c565b6101c7610277366004610f08565b61068e565b61017c61069b565b600854610225565b61022560085481565b6101c76102a3366004611003565b6106aa565b6101c76102b6366004611050565b6106b5565b61017c6102c9366004610f08565b6106cc565b61015f6102dc366004611125565b610763565b6101c76102ef366004610f9b565b610790565b5f6001600160e01b031982166380ac58cd60e01b148061032457506001600160e01b03198216635b5e139f60e01b145b8061033f57506301ffc9a760e01b6001600160e01b03198316145b92915050565b60605f805461035390611156565b80601f016020809104026020016040519081016040528092919081815260200182805461037f90611156565b80156103ca5780601f106103a1576101008083540402835291602001916103ca565b820191905f5260205f20905b8154815290600101906020018083116103ad57829003601f168201915b5050505050905090565b5f6103de826107cd565b505f828152600460205260409020546001600160a01b031661033f565b610406828233610805565b5050565b6001600160a01b03821661043857604051633250574960e11b81525f60048201526024015b60405180910390fd5b5f610444838333610812565b9050836001600160a01b0316816001600160a01b031614610492576040516364283d7b60e01b81526001600160a01b038086166004830152602482018490528216604482015260640161042f565b50505050565b6104b283838360405180602001604052805f8152506106b5565b505050565b6104bf610904565b6009805460ff19166001179055565b5f61033f826107cd565b600854604051339180156108fc02915f818181858888f19350505050158015610503573d5f803e3d5ffd5b5061050d33610790565b5f6008556009805460ff19169055565b5f6001600160a01b038216610547576040516322718ad960e21b81525f600482015260240161042f565b506001600160a01b03165f9081526003602052604090205490565b61056a610904565b6105735f610931565b565b6105a860405180608001604052805f6001600160a01b03168152602001606081526020015f81526020015f151581525090565b60405180608001604052806105c56006546001600160a01b031690565b6001600160a01b03168152602001600780546105e090611156565b80601f016020809104026020016040519081016040528092919081815260200182805461060c90611156565b80156106575780601f1061062e57610100808354040283529160200191610657565b820191905f5260205f20905b81548152906001019060200180831161063a57829003601f168201915b5050509183525050600854602082015260095460ff161515604090910152919050565b610682610904565b6009805460ff19169055565b610696610904565b600855565b60606001805461035390611156565b610406338383610982565b6106c084848461040a565b61049284848484610a20565b60606106d7826107cd565b505f61071360408051808201909152601881527f697066733a2f2f7069656365546f6b656e426173655552490000000000000000602082015290565b90505f8151116107315760405180602001604052805f81525061075c565b8061073b84610b46565b60405160200161074c92919061118e565b6040516020818303038152906040525b9392505050565b6001600160a01b039182165f90815260056020908152604080832093909416825291909152205460ff1690565b610798610904565b6001600160a01b0381166107c157604051631e4fbdf760e01b81525f600482015260240161042f565b6107ca81610931565b50565b5f818152600260205260408120546001600160a01b03168061033f57604051637e27328960e01b81526004810184905260240161042f565b6104b28383836001610bd6565b5f828152600260205260408120546001600160a01b039081169083161561083e5761083e818486610cda565b6001600160a01b03811615610878576108595f855f80610bd6565b6001600160a01b0381165f90815260036020526040902080545f190190555b6001600160a01b038516156108a6576001600160a01b0385165f908152600360205260409020805460010190555b5f8481526002602052604080822080546001600160a01b0319166001600160a01b0389811691821790925591518793918516917fddf252ad1be2c89b69c2b068fc378daa952ba7f163c4a11628f55a4df523b3ef91a4949350505050565b6006546001600160a01b031633146105735760405163118cdaa760e01b815233600482015260240161042f565b600680546001600160a01b038381166001600160a01b0319831681179093556040519116919082907f8be0079c531659141344cd1fd0a4f28419497f9722a3daafe3b4186f6b6457e0905f90a35050565b6001600160a01b0382166109b457604051630b61174360e31b81526001600160a01b038316600482015260240161042f565b6001600160a01b038381165f81815260056020908152604080832094871680845294825291829020805460ff191686151590811790915591519182527f17307eab39ab6107e8899845ad3d59bd9653f200f220920489ca2b5937696c31910160405180910390a3505050565b6001600160a01b0383163b1561049257604051630a85bd0160e11b81526001600160a01b0384169063150b7a0290610a629033908890879087906004016111bc565b6020604051808303815f875af1925050508015610a9c575060408051601f3d908101601f19168201909252610a99918101906111f8565b60015b610b03573d808015610ac9576040519150601f19603f3d011682016040523d82523d5f602084013e610ace565b606091505b5080515f03610afb57604051633250574960e11b81526001600160a01b038516600482015260240161042f565b805181602001fd5b6001600160e01b03198116630a85bd0160e11b14610b3f57604051633250574960e11b81526001600160a01b038516600482015260240161042f565b5050505050565b60605f610b5283610d3e565b60010190505f8167ffffffffffffffff811115610b7157610b7161103c565b6040519080825280601f01601f191660200182016040528015610b9b576020820181803683370190505b5090508181016020015b5f19016f181899199a1a9b1b9c1cb0b131b232b360811b600a86061a8153600a8504945084610ba557509392505050565b8080610bea57506001600160a01b03821615155b15610cab575f610bf9846107cd565b90506001600160a01b03831615801590610c255750826001600160a01b0316816001600160a01b031614155b8015610c385750610c368184610763565b155b15610c615760405163a9fbf51f60e01b81526001600160a01b038416600482015260240161042f565b8115610ca95783856001600160a01b0316826001600160a01b03167f8c5be1e5ebec7d5bd14f71427d1e84f3dd0314c0f7b2291e5b200ac8c7c3b92560405160405180910390a45b505b50505f90815260046020526040902080546001600160a01b0319166001600160a01b0392909216919091179055565b610ce5838383610e15565b6104b2576001600160a01b038316610d1357604051637e27328960e01b81526004810182905260240161042f565b60405163177e802f60e01b81526001600160a01b03831660048201526024810182905260440161042f565b5f8072184f03e93ff9f4daa797ed6e38ed64bf6a1f0160401b8310610d7c5772184f03e93ff9f4daa797ed6e38ed64bf6a1f0160401b830492506040015b6d04ee2d6d415b85acef81000000008310610da8576d04ee2d6d415b85acef8100000000830492506020015b662386f26fc100008310610dc657662386f26fc10000830492506010015b6305f5e1008310610dde576305f5e100830492506008015b6127108310610df257612710830492506004015b60648310610e04576064830492506002015b600a831061033f5760010192915050565b5f6001600160a01b03831615801590610e715750826001600160a01b0316846001600160a01b03161480610e4e5750610e4e8484610763565b80610e7157505f828152600460205260409020546001600160a01b038481169116145b949350505050565b6001600160e01b0319811681146107ca575f80fd5b5f60208284031215610e9e575f80fd5b813561075c81610e79565b5f5b83811015610ec3578181015183820152602001610eab565b50505f910152565b5f8151808452610ee2816020860160208601610ea9565b601f01601f19169290920160200192915050565b602081525f61075c6020830184610ecb565b5f60208284031215610f18575f80fd5b5035919050565b80356001600160a01b0381168114610f35575f80fd5b919050565b5f8060408385031215610f4b575f80fd5b610f5483610f1f565b946020939093013593505050565b5f805f60608486031215610f74575f80fd5b610f7d84610f1f565b9250610f8b60208501610f1f565b9150604084013590509250925092565b5f60208284031215610fab575f80fd5b61075c82610f1f565b602080825282516001600160a01b031682820152820151608060408301525f90610fe160a0840182610ecb565b9050604084015160608401526060840151151560808401528091505092915050565b5f8060408385031215611014575f80fd5b61101d83610f1f565b915060208301358015158114611031575f80fd5b809150509250929050565b634e487b7160e01b5f52604160045260245ffd5b5f805f8060808587031215611063575f80fd5b61106c85610f1f565b935061107a60208601610f1f565b925060408501359150606085013567ffffffffffffffff8082111561109d575f80fd5b818701915087601f8301126110b0575f80fd5b8135818111156110c2576110c261103c565b604051601f8201601f19908116603f011681019083821181831017156110ea576110ea61103c565b816040528281528a6020848701011115611102575f80fd5b826020860160208301375f60208483010152809550505050505092959194509250565b5f8060408385031215611136575f80fd5b61113f83610f1f565b915061114d60208401610f1f565b90509250929050565b600181811c9082168061116a57607f821691505b60208210810361118857634e487b7160e01b5f52602260045260245ffd5b50919050565b5f835161119f818460208801610ea9565b8351908301906111b3818360208801610ea9565b01949350505050565b6001600160a01b03858116825284166020820152604081018390526080606082018190525f906111ee90830184610ecb565b9695505050505050565b5f60208284031215611208575f80fd5b815161075c81610e7956fea26469706673582212201c8c174e7c88dfb119f5fd3f9a49e9567e0ac31a44600c86af58e4027c32288464736f6c63430008140033",
					"opcodes": "PUSH1 0x80 PUSH1 0x40 MSTORE CALLVALUE DUP1 ISZERO PUSH3 0x10 JUMPI PUSH0 DUP1 REVERT JUMPDEST POP PUSH1 0x40 MLOAD PUSH3 0x15F3 CODESIZE SUB DUP1 PUSH3 0x15F3 DUP4 CODECOPY DUP2 ADD PUSH1 0x40 DUP2 SWAP1 MSTORE PUSH3 0x33 SWAP2 PUSH3 0x15A JUMP JUMPDEST DUP2 PUSH1 0x40 MLOAD DUP1 PUSH1 0x40 ADD PUSH1 0x40 MSTORE DUP1 PUSH1 0xC DUP2 MSTORE PUSH1 0x20 ADD PUSH12 0x2834B1BA3AB932AA37B5B2B7 PUSH1 0xA1 SHL DUP2 MSTORE POP PUSH1 0x40 MLOAD DUP1 PUSH1 0x40 ADD PUSH1 0x40 MSTORE DUP1 PUSH1 0x2 DUP2 MSTORE PUSH1 0x20 ADD PUSH2 0x1415 PUSH1 0xF2 SHL DUP2 MSTORE POP DUP2 PUSH0 SWAP1 DUP2 PUSH3 0x84 SWAP2 SWAP1 PUSH3 0x2D4 JUMP JUMPDEST POP PUSH1 0x1 PUSH3 0x93 DUP3 DUP3 PUSH3 0x2D4 JUMP JUMPDEST POP POP POP PUSH1 0x1 PUSH1 0x1 PUSH1 0xA0 SHL SUB DUP2 AND PUSH3 0xC4 JUMPI PUSH1 0x40 MLOAD PUSH4 0x1E4FBDF7 PUSH1 0xE0 SHL DUP2 MSTORE PUSH0 PUSH1 0x4 DUP3 ADD MSTORE PUSH1 0x24 ADD PUSH1 0x40 MLOAD DUP1 SWAP2 SUB SWAP1 REVERT JUMPDEST PUSH3 0xCF DUP2 PUSH3 0xF5 JUMP JUMPDEST POP PUSH1 0x7 PUSH3 0xDE DUP3 DUP3 PUSH3 0x2D4 JUMP JUMPDEST POP POP PUSH0 PUSH1 0x8 SSTORE POP PUSH1 0x9 DUP1 SLOAD PUSH1 0xFF NOT AND SWAP1 SSTORE PUSH3 0x39C JUMP JUMPDEST PUSH1 0x6 DUP1 SLOAD PUSH1 0x1 PUSH1 0x1 PUSH1 0xA0 SHL SUB DUP4 DUP2 AND PUSH1 0x1 PUSH1 0x1 PUSH1 0xA0 SHL SUB NOT DUP4 AND DUP2 OR SWAP1 SWAP4 SSTORE PUSH1 0x40 MLOAD SWAP2 AND SWAP2 SWAP1 DUP3 SWAP1 PUSH32 0x8BE0079C531659141344CD1FD0A4F28419497F9722A3DAAFE3B4186F6B6457E0 SWAP1 PUSH0 SWAP1 LOG3 POP POP JUMP JUMPDEST PUSH4 0x4E487B71 PUSH1 0xE0 SHL PUSH0 MSTORE PUSH1 0x41 PUSH1 0x4 MSTORE PUSH1 0x24 PUSH0 REVERT JUMPDEST PUSH0 DUP1 PUSH1 0x40 DUP4 DUP6 SUB SLT ISZERO PUSH3 0x16C JUMPI PUSH0 DUP1 REVERT JUMPDEST DUP3 MLOAD PUSH1 0x1 PUSH1 0x1 PUSH1 0xA0 SHL SUB DUP2 AND DUP2 EQ PUSH3 0x183 JUMPI PUSH0 DUP1 REVERT JUMPDEST PUSH1 0x20 DUP5 DUP2 ADD MLOAD SWAP2 SWAP4 POP SWAP1 PUSH1 0x1 PUSH1 0x1 PUSH1 0x40 SHL SUB DUP1 DUP3 GT ISZERO PUSH3 0x1A2 JUMPI PUSH0 DUP1 REVERT JUMPDEST DUP2 DUP7 ADD SWAP2 POP DUP7 PUSH1 0x1F DUP4 ADD SLT PUSH3 0x1B6 JUMPI PUSH0 DUP1 REVERT JUMPDEST DUP2 MLOAD DUP2 DUP2 GT ISZERO PUSH3 0x1CB JUMPI PUSH3 0x1CB PUSH3 0x146 JUMP JUMPDEST PUSH1 0x40 MLOAD PUSH1 0x1F DUP3 ADD PUSH1 0x1F NOT SWAP1 DUP2 AND PUSH1 0x3F ADD AND DUP2 ADD SWAP1 DUP4 DUP3 GT DUP2 DUP4 LT OR ISZERO PUSH3 0x1F6 JUMPI PUSH3 0x1F6 PUSH3 0x146 JUMP JUMPDEST DUP2 PUSH1 0x40 MSTORE DUP3 DUP2 MSTORE DUP10 DUP7 DUP5 DUP8 ADD ADD GT ISZERO PUSH3 0x20E JUMPI PUSH0 DUP1 REVERT JUMPDEST PUSH0 SWAP4 POP JUMPDEST DUP3 DUP5 LT ISZERO PUSH3 0x231 JUMPI DUP5 DUP5 ADD DUP7 ADD MLOAD DUP2 DUP6 ADD DUP8 ADD MSTORE SWAP3 DUP6 ADD SWAP3 PUSH3 0x212 JUMP JUMPDEST PUSH0 DUP7 DUP5 DUP4 ADD ADD MSTORE DUP1 SWAP7 POP POP POP POP POP POP POP SWAP3 POP SWAP3 SWAP1 POP JUMP JUMPDEST PUSH1 0x1 DUP2 DUP2 SHR SWAP1 DUP3 AND DUP1 PUSH3 0x25D JUMPI PUSH1 0x7F DUP3 AND SWAP2 POP JUMPDEST PUSH1 0x20 DUP3 LT DUP2 SUB PUSH3 0x27C JUMPI PUSH4 0x4E487B71 PUSH1 0xE0 SHL PUSH0 MSTORE PUSH1 0x22 PUSH1 0x4 MSTORE PUSH1 0x24 PUSH0 REVERT JUMPDEST POP SWAP2 SWAP1 POP JUMP JUMPDEST PUSH1 0x1F DUP3 GT ISZERO PUSH3 0x2CF JUMPI PUSH0 DUP2 DUP2 MSTORE PUSH1 0x20 DUP2 KECCAK256 PUSH1 0x1F DUP6 ADD PUSH1 0x5 SHR DUP2 ADD PUSH1 0x20 DUP7 LT ISZERO PUSH3 0x2AA JUMPI POP DUP1 JUMPDEST PUSH1 0x1F DUP6 ADD PUSH1 0x5 SHR DUP3 ADD SWAP2 POP JUMPDEST DUP2 DUP2 LT ISZERO PUSH3 0x2CB JUMPI DUP3 DUP2 SSTORE PUSH1 0x1 ADD PUSH3 0x2B6 JUMP JUMPDEST POP POP POP JUMPDEST POP POP POP JUMP JUMPDEST DUP2 MLOAD PUSH1 0x1 PUSH1 0x1 PUSH1 0x40 SHL SUB DUP2 GT ISZERO PUSH3 0x2F0 JUMPI PUSH3 0x2F0 PUSH3 0x146 JUMP JUMPDEST PUSH3 0x308 DUP2 PUSH3 0x301 DUP5 SLOAD PUSH3 0x248 JUMP JUMPDEST DUP5 PUSH3 0x282 JUMP JUMPDEST PUSH1 0x20 DUP1 PUSH1 0x1F DUP4 GT PUSH1 0x1 DUP2 EQ PUSH3 0x33E JUMPI PUSH0 DUP5 ISZERO PUSH3 0x326 JUMPI POP DUP6 DUP4 ADD MLOAD JUMPDEST PUSH0 NOT PUSH1 0x3 DUP7 SWAP1 SHL SHR NOT AND PUSH1 0x1 DUP6 SWAP1 SHL OR DUP6 SSTORE PUSH3 0x2CB JUMP JUMPDEST PUSH0 DUP6 DUP2 MSTORE PUSH1 0x20 DUP2 KECCAK256 PUSH1 0x1F NOT DUP7 AND SWAP2 JUMPDEST DUP3 DUP2 LT ISZERO PUSH3 0x36E JUMPI DUP9 DUP7 ADD MLOAD DUP3 SSTORE SWAP5 DUP5 ADD SWAP5 PUSH1 0x1 SWAP1 SWAP2 ADD SWAP1 DUP5 ADD PUSH3 0x34D JUMP JUMPDEST POP DUP6 DUP3 LT ISZERO PUSH3 0x38C JUMPI DUP8 DUP6 ADD MLOAD PUSH0 NOT PUSH1 0x3 DUP9 SWAP1 SHL PUSH1 0xF8 AND SHR NOT AND DUP2 SSTORE JUMPDEST POP POP POP POP POP PUSH1 0x1 SWAP1 DUP2 SHL ADD SWAP1 SSTORE POP JUMP JUMPDEST PUSH2 0x1249 DUP1 PUSH3 0x3AA PUSH0 CODECOPY PUSH0 RETURN INVALID PUSH1 0x80 PUSH1 0x40 MSTORE CALLVALUE DUP1 ISZERO PUSH2 0xF JUMPI PUSH0 DUP1 REVERT JUMPDEST POP PUSH1 0x4 CALLDATASIZE LT PUSH2 0x148 JUMPI PUSH0 CALLDATALOAD PUSH1 0xE0 SHR DUP1 PUSH4 0x854CBB4A GT PUSH2 0xBF JUMPI DUP1 PUSH4 0xA035B1FE GT PUSH2 0x79 JUMPI DUP1 PUSH4 0xA035B1FE EQ PUSH2 0x28C JUMPI DUP1 PUSH4 0xA22CB465 EQ PUSH2 0x295 JUMPI DUP1 PUSH4 0xB88D4FDE EQ PUSH2 0x2A8 JUMPI DUP1 PUSH4 0xC87B56DD EQ PUSH2 0x2BB JUMPI DUP1 PUSH4 0xE985E9C5 EQ PUSH2 0x2CE JUMPI DUP1 PUSH4 0xF2FDE38B EQ PUSH2 0x2E1 JUMPI PUSH0 DUP1 REVERT JUMPDEST DUP1 PUSH4 0x854CBB4A EQ PUSH2 0x23B JUMPI DUP1 PUSH4 0x8C2A5BC8 EQ PUSH2 0x250 JUMPI DUP1 PUSH4 0x8DA5CB5B EQ PUSH2 0x258 JUMPI DUP1 PUSH4 0x91B7F5ED EQ PUSH2 0x269 JUMPI DUP1 PUSH4 0x95D89B41 EQ PUSH2 0x27C JUMPI DUP1 PUSH4 0x98D5FDCA EQ PUSH2 0x284 JUMPI PUSH0 DUP1 REVERT JUMPDEST DUP1 PUSH4 0x42842E0E GT PUSH2 0x110 JUMPI DUP1 PUSH4 0x42842E0E EQ PUSH2 0x1DC JUMPI DUP1 PUSH4 0x5987CC19 EQ PUSH2 0x1EF JUMPI DUP1 PUSH4 0x6352211E EQ PUSH2 0x1F7 JUMPI DUP1 PUSH4 0x64EDFBF0 EQ PUSH2 0x20A JUMPI DUP1 PUSH4 0x70A08231 EQ PUSH2 0x212 JUMPI DUP1 PUSH4 0x715018A6 EQ PUSH2 0x233 JUMPI PUSH0 DUP1 REVERT JUMPDEST DUP1 PUSH4 0x1FFC9A7 EQ PUSH2 0x14C JUMPI DUP1 PUSH4 0x6FDDE03 EQ PUSH2 0x174 JUMPI DUP1 PUSH4 0x81812FC EQ PUSH2 0x189 JUMPI DUP1 PUSH4 0x95EA7B3 EQ PUSH2 0x1B4 JUMPI DUP1 PUSH4 0x23B872DD EQ PUSH2 0x1C9 JUMPI JUMPDEST PUSH0 DUP1 REVERT JUMPDEST PUSH2 0x15F PUSH2 0x15A CALLDATASIZE PUSH1 0x4 PUSH2 0xE8E JUMP JUMPDEST PUSH2 0x2F4 JUMP JUMPDEST PUSH1 0x40 MLOAD SWAP1 ISZERO ISZERO DUP2 MSTORE PUSH1 0x20 ADD JUMPDEST PUSH1 0x40 MLOAD DUP1 SWAP2 SUB SWAP1 RETURN JUMPDEST PUSH2 0x17C PUSH2 0x345 JUMP JUMPDEST PUSH1 0x40 MLOAD PUSH2 0x16B SWAP2 SWAP1 PUSH2 0xEF6 JUMP JUMPDEST PUSH2 0x19C PUSH2 0x197 CALLDATASIZE PUSH1 0x4 PUSH2 0xF08 JUMP JUMPDEST PUSH2 0x3D4 JUMP JUMPDEST PUSH1 0x40 MLOAD PUSH1 0x1 PUSH1 0x1 PUSH1 0xA0 SHL SUB SWAP1 SWAP2 AND DUP2 MSTORE PUSH1 0x20 ADD PUSH2 0x16B JUMP JUMPDEST PUSH2 0x1C7 PUSH2 0x1C2 CALLDATASIZE PUSH1 0x4 PUSH2 0xF3A JUMP JUMPDEST PUSH2 0x3FB JUMP JUMPDEST STOP JUMPDEST PUSH2 0x1C7 PUSH2 0x1D7 CALLDATASIZE PUSH1 0x4 PUSH2 0xF62 JUMP JUMPDEST PUSH2 0x40A JUMP JUMPDEST PUSH2 0x1C7 PUSH2 0x1EA CALLDATASIZE PUSH1 0x4 PUSH2 0xF62 JUMP JUMPDEST PUSH2 0x498 JUMP JUMPDEST PUSH2 0x1C7 PUSH2 0x4B7 JUMP JUMPDEST PUSH2 0x19C PUSH2 0x205 CALLDATASIZE PUSH1 0x4 PUSH2 0xF08 JUMP JUMPDEST PUSH2 0x4CE JUMP JUMPDEST PUSH2 0x1C7 PUSH2 0x4D8 JUMP JUMPDEST PUSH2 0x225 PUSH2 0x220 CALLDATASIZE PUSH1 0x4 PUSH2 0xF9B JUMP JUMPDEST PUSH2 0x51D JUMP JUMPDEST PUSH1 0x40 MLOAD SWAP1 DUP2 MSTORE PUSH1 0x20 ADD PUSH2 0x16B JUMP JUMPDEST PUSH2 0x1C7 PUSH2 0x562 JUMP JUMPDEST PUSH2 0x243 PUSH2 0x575 JUMP JUMPDEST PUSH1 0x40 MLOAD PUSH2 0x16B SWAP2 SWAP1 PUSH2 0xFB4 JUMP JUMPDEST PUSH2 0x1C7 PUSH2 0x67A JUMP JUMPDEST PUSH1 0x6 SLOAD PUSH1 0x1 PUSH1 0x1 PUSH1 0xA0 SHL SUB AND PUSH2 0x19C JUMP JUMPDEST PUSH2 0x1C7 PUSH2 0x277 CALLDATASIZE PUSH1 0x4 PUSH2 0xF08 JUMP JUMPDEST PUSH2 0x68E JUMP JUMPDEST PUSH2 0x17C PUSH2 0x69B JUMP JUMPDEST PUSH1 0x8 SLOAD PUSH2 0x225 JUMP JUMPDEST PUSH2 0x225 PUSH1 0x8 SLOAD DUP2 JUMP JUMPDEST PUSH2 0x1C7 PUSH2 0x2A3 CALLDATASIZE PUSH1 0x4 PUSH2 0x1003 JUMP JUMPDEST PUSH2 0x6AA JUMP JUMPDEST PUSH2 0x1C7 PUSH2 0x2B6 CALLDATASIZE PUSH1 0x4 PUSH2 0x1050 JUMP JUMPDEST PUSH2 0x6B5 JUMP JUMPDEST PUSH2 0x17C PUSH2 0x2C9 CALLDATASIZE PUSH1 0x4 PUSH2 0xF08 JUMP JUMPDEST PUSH2 0x6CC JUMP JUMPDEST PUSH2 0x15F PUSH2 0x2DC CALLDATASIZE PUSH1 0x4 PUSH2 0x1125 JUMP JUMPDEST PUSH2 0x763 JUMP JUMPDEST PUSH2 0x1C7 PUSH2 0x2EF CALLDATASIZE PUSH1 0x4 PUSH2 0xF9B JUMP JUMPDEST PUSH2 0x790 JUMP JUMPDEST PUSH0 PUSH1 0x1 PUSH1 0x1 PUSH1 0xE0 SHL SUB NOT DUP3 AND PUSH4 0x80AC58CD PUSH1 0xE0 SHL EQ DUP1 PUSH2 0x324 JUMPI POP PUSH1 0x1 PUSH1 0x1 PUSH1 0xE0 SHL SUB NOT DUP3 AND PUSH4 0x5B5E139F PUSH1 0xE0 SHL EQ JUMPDEST DUP1 PUSH2 0x33F JUMPI POP PUSH4 0x1FFC9A7 PUSH1 0xE0 SHL PUSH1 0x1 PUSH1 0x1 PUSH1 0xE0 SHL SUB NOT DUP4 AND EQ JUMPDEST SWAP3 SWAP2 POP POP JUMP JUMPDEST PUSH1 0x60 PUSH0 DUP1 SLOAD PUSH2 0x353 SWAP1 PUSH2 0x1156 JUMP JUMPDEST DUP1 PUSH1 0x1F ADD PUSH1 0x20 DUP1 SWAP2 DIV MUL PUSH1 0x20 ADD PUSH1 0x40 MLOAD SWAP1 DUP2 ADD PUSH1 0x40 MSTORE DUP1 SWAP3 SWAP2 SWAP1 DUP2 DUP2 MSTORE PUSH1 0x20 ADD DUP3 DUP1 SLOAD PUSH2 0x37F SWAP1 PUSH2 0x1156 JUMP JUMPDEST DUP1 ISZERO PUSH2 0x3CA JUMPI DUP1 PUSH1 0x1F LT PUSH2 0x3A1 JUMPI PUSH2 0x100 DUP1 DUP4 SLOAD DIV MUL DUP4 MSTORE SWAP2 PUSH1 0x20 ADD SWAP2 PUSH2 0x3CA JUMP JUMPDEST DUP3 ADD SWAP2 SWAP1 PUSH0 MSTORE PUSH1 0x20 PUSH0 KECCAK256 SWAP1 JUMPDEST DUP2 SLOAD DUP2 MSTORE SWAP1 PUSH1 0x1 ADD SWAP1 PUSH1 0x20 ADD DUP1 DUP4 GT PUSH2 0x3AD JUMPI DUP3 SWAP1 SUB PUSH1 0x1F AND DUP3 ADD SWAP2 JUMPDEST POP POP POP POP POP SWAP1 POP SWAP1 JUMP JUMPDEST PUSH0 PUSH2 0x3DE DUP3 PUSH2 0x7CD JUMP JUMPDEST POP PUSH0 DUP3 DUP2 MSTORE PUSH1 0x4 PUSH1 0x20 MSTORE PUSH1 0x40 SWAP1 KECCAK256 SLOAD PUSH1 0x1 PUSH1 0x1 PUSH1 0xA0 SHL SUB AND PUSH2 0x33F JUMP JUMPDEST PUSH2 0x406 DUP3 DUP3 CALLER PUSH2 0x805 JUMP JUMPDEST POP POP JUMP JUMPDEST PUSH1 0x1 PUSH1 0x1 PUSH1 0xA0 SHL SUB DUP3 AND PUSH2 0x438 JUMPI PUSH1 0x40 MLOAD PUSH4 0x32505749 PUSH1 0xE1 SHL DUP2 MSTORE PUSH0 PUSH1 0x4 DUP3 ADD MSTORE PUSH1 0x24 ADD JUMPDEST PUSH1 0x40 MLOAD DUP1 SWAP2 SUB SWAP1 REVERT JUMPDEST PUSH0 PUSH2 0x444 DUP4 DUP4 CALLER PUSH2 0x812 JUMP JUMPDEST SWAP1 POP DUP4 PUSH1 0x1 PUSH1 0x1 PUSH1 0xA0 SHL SUB AND DUP2 PUSH1 0x1 PUSH1 0x1 PUSH1 0xA0 SHL SUB AND EQ PUSH2 0x492 JUMPI PUSH1 0x40 MLOAD PUSH4 0x64283D7B PUSH1 0xE0 SHL DUP2 MSTORE PUSH1 0x1 PUSH1 0x1 PUSH1 0xA0 SHL SUB DUP1 DUP7 AND PUSH1 0x4 DUP4 ADD MSTORE PUSH1 0x24 DUP3 ADD DUP5 SWAP1 MSTORE DUP3 AND PUSH1 0x44 DUP3 ADD MSTORE PUSH1 0x64 ADD PUSH2 0x42F JUMP JUMPDEST POP POP POP POP JUMP JUMPDEST PUSH2 0x4B2 DUP4 DUP4 DUP4 PUSH1 0x40 MLOAD DUP1 PUSH1 0x20 ADD PUSH1 0x40 MSTORE DUP1 PUSH0 DUP2 MSTORE POP PUSH2 0x6B5 JUMP JUMPDEST POP POP POP JUMP JUMPDEST PUSH2 0x4BF PUSH2 0x904 JUMP JUMPDEST PUSH1 0x9 DUP1 SLOAD PUSH1 0xFF NOT AND PUSH1 0x1 OR SWAP1 SSTORE JUMP JUMPDEST PUSH0 PUSH2 0x33F DUP3 PUSH2 0x7CD JUMP JUMPDEST PUSH1 0x8 SLOAD PUSH1 0x40 MLOAD CALLER SWAP2 DUP1 ISZERO PUSH2 0x8FC MUL SWAP2 PUSH0 DUP2 DUP2 DUP2 DUP6 DUP9 DUP9 CALL SWAP4 POP POP POP POP ISZERO DUP1 ISZERO PUSH2 0x503 JUMPI RETURNDATASIZE PUSH0 DUP1 RETURNDATACOPY RETURNDATASIZE PUSH0 REVERT JUMPDEST POP PUSH2 0x50D CALLER PUSH2 0x790 JUMP JUMPDEST PUSH0 PUSH1 0x8 SSTORE PUSH1 0x9 DUP1 SLOAD PUSH1 0xFF NOT AND SWAP1 SSTORE JUMP JUMPDEST PUSH0 PUSH1 0x1 PUSH1 0x1 PUSH1 0xA0 SHL SUB DUP3 AND PUSH2 0x547 JUMPI PUSH1 0x40 MLOAD PUSH4 0x22718AD9 PUSH1 0xE2 SHL DUP2 MSTORE PUSH0 PUSH1 0x4 DUP3 ADD MSTORE PUSH1 0x24 ADD PUSH2 0x42F JUMP JUMPDEST POP PUSH1 0x1 PUSH1 0x1 PUSH1 0xA0 SHL SUB AND PUSH0 SWAP1 DUP2 MSTORE PUSH1 0x3 PUSH1 0x20 MSTORE PUSH1 0x40 SWAP1 KECCAK256 SLOAD SWAP1 JUMP JUMPDEST PUSH2 0x56A PUSH2 0x904 JUMP JUMPDEST PUSH2 0x573 PUSH0 PUSH2 0x931 JUMP JUMPDEST JUMP JUMPDEST PUSH2 0x5A8 PUSH1 0x40 MLOAD DUP1 PUSH1 0x80 ADD PUSH1 0x40 MSTORE DUP1 PUSH0 PUSH1 0x1 PUSH1 0x1 PUSH1 0xA0 SHL SUB AND DUP2 MSTORE PUSH1 0x20 ADD PUSH1 0x60 DUP2 MSTORE PUSH1 0x20 ADD PUSH0 DUP2 MSTORE PUSH1 0x20 ADD PUSH0 ISZERO ISZERO DUP2 MSTORE POP SWAP1 JUMP JUMPDEST PUSH1 0x40 MLOAD DUP1 PUSH1 0x80 ADD PUSH1 0x40 MSTORE DUP1 PUSH2 0x5C5 PUSH1 0x6 SLOAD PUSH1 0x1 PUSH1 0x1 PUSH1 0xA0 SHL SUB AND SWAP1 JUMP JUMPDEST PUSH1 0x1 PUSH1 0x1 PUSH1 0xA0 SHL SUB AND DUP2 MSTORE PUSH1 0x20 ADD PUSH1 0x7 DUP1 SLOAD PUSH2 0x5E0 SWAP1 PUSH2 0x1156 JUMP JUMPDEST DUP1 PUSH1 0x1F ADD PUSH1 0x20 DUP1 SWAP2 DIV MUL PUSH1 0x20 ADD PUSH1 0x40 MLOAD SWAP1 DUP2 ADD PUSH1 0x40 MSTORE DUP1 SWAP3 SWAP2 SWAP1 DUP2 DUP2 MSTORE PUSH1 0x20 ADD DUP3 DUP1 SLOAD PUSH2 0x60C SWAP1 PUSH2 0x1156 JUMP JUMPDEST DUP1 ISZERO PUSH2 0x657 JUMPI DUP1 PUSH1 0x1F LT PUSH2 0x62E JUMPI PUSH2 0x100 DUP1 DUP4 SLOAD DIV MUL DUP4 MSTORE SWAP2 PUSH1 0x20 ADD SWAP2 PUSH2 0x657 JUMP JUMPDEST DUP3 ADD SWAP2 SWAP1 PUSH0 MSTORE PUSH1 0x20 PUSH0 KECCAK256 SWAP1 JUMPDEST DUP2 SLOAD DUP2 MSTORE SWAP1 PUSH1 0x1 ADD SWAP1 PUSH1 0x20 ADD DUP1 DUP4 GT PUSH2 0x63A JUMPI DUP3 SWAP1 SUB PUSH1 0x1F AND DUP3 ADD SWAP2 JUMPDEST POP POP POP SWAP2 DUP4 MSTORE POP POP PUSH1 0x8 SLOAD PUSH1 0x20 DUP3 ADD MSTORE PUSH1 0x9 SLOAD PUSH1 0xFF AND ISZERO ISZERO PUSH1 0x40 SWAP1 SWAP2 ADD MSTORE SWAP2 SWAP1 POP JUMP JUMPDEST PUSH2 0x682 PUSH2 0x904 JUMP JUMPDEST PUSH1 0x9 DUP1 SLOAD PUSH1 0xFF NOT AND SWAP1 SSTORE JUMP JUMPDEST PUSH2 0x696 PUSH2 0x904 JUMP JUMPDEST PUSH1 0x8 SSTORE JUMP JUMPDEST PUSH1 0x60 PUSH1 0x1 DUP1 SLOAD PUSH2 0x353 SWAP1 PUSH2 0x1156 JUMP JUMPDEST PUSH2 0x406 CALLER DUP4 DUP4 PUSH2 0x982 JUMP JUMPDEST PUSH2 0x6C0 DUP5 DUP5 DUP5 PUSH2 0x40A JUMP JUMPDEST PUSH2 0x492 DUP5 DUP5 DUP5 DUP5 PUSH2 0xA20 JUMP JUMPDEST PUSH1 0x60 PUSH2 0x6D7 DUP3 PUSH2 0x7CD JUMP JUMPDEST POP PUSH0 PUSH2 0x713 PUSH1 0x40 DUP1 MLOAD DUP1 DUP3 ADD SWAP1 SWAP2 MSTORE PUSH1 0x18 DUP2 MSTORE PUSH32 0x697066733A2F2F7069656365546F6B656E426173655552490000000000000000 PUSH1 0x20 DUP3 ADD MSTORE SWAP1 JUMP JUMPDEST SWAP1 POP PUSH0 DUP2 MLOAD GT PUSH2 0x731 JUMPI PUSH1 0x40 MLOAD DUP1 PUSH1 0x20 ADD PUSH1 0x40 MSTORE DUP1 PUSH0 DUP2 MSTORE POP PUSH2 0x75C JUMP JUMPDEST DUP1 PUSH2 0x73B DUP5 PUSH2 0xB46 JUMP JUMPDEST PUSH1 0x40 MLOAD PUSH1 0x20 ADD PUSH2 0x74C SWAP3 SWAP2 SWAP1 PUSH2 0x118E JUMP JUMPDEST PUSH1 0x40 MLOAD PUSH1 0x20 DUP2 DUP4 SUB SUB DUP2 MSTORE SWAP1 PUSH1 0x40 MSTORE JUMPDEST SWAP4 SWAP3 POP POP POP JUMP JUMPDEST PUSH1 0x1 PUSH1 0x1 PUSH1 0xA0 SHL SUB SWAP2 DUP3 AND PUSH0 SWAP1 DUP2 MSTORE PUSH1 0x5 PUSH1 0x20 SWAP1 DUP2 MSTORE PUSH1 0x40 DUP1 DUP4 KECCAK256 SWAP4 SWAP1 SWAP5 AND DUP3 MSTORE SWAP2 SWAP1 SWAP2 MSTORE KECCAK256 SLOAD PUSH1 0xFF AND SWAP1 JUMP JUMPDEST PUSH2 0x798 PUSH2 0x904 JUMP JUMPDEST PUSH1 0x1 PUSH1 0x1 PUSH1 0xA0 SHL SUB DUP2 AND PUSH2 0x7C1 JUMPI PUSH1 0x40 MLOAD PUSH4 0x1E4FBDF7 PUSH1 0xE0 SHL DUP2 MSTORE PUSH0 PUSH1 0x4 DUP3 ADD MSTORE PUSH1 0x24 ADD PUSH2 0x42F JUMP JUMPDEST PUSH2 0x7CA DUP2 PUSH2 0x931 JUMP JUMPDEST POP JUMP JUMPDEST PUSH0 DUP2 DUP2 MSTORE PUSH1 0x2 PUSH1 0x20 MSTORE PUSH1 0x40 DUP2 KECCAK256 SLOAD PUSH1 0x1 PUSH1 0x1 PUSH1 0xA0 SHL SUB AND DUP1 PUSH2 0x33F JUMPI PUSH1 0x40 MLOAD PUSH4 0x7E273289 PUSH1 0xE0 SHL DUP2 MSTORE PUSH1 0x4 DUP2 ADD DUP5 SWAP1 MSTORE PUSH1 0x24 ADD PUSH2 0x42F JUMP JUMPDEST PUSH2 0x4B2 DUP4 DUP4 DUP4 PUSH1 0x1 PUSH2 0xBD6 JUMP JUMPDEST PUSH0 DUP3 DUP2 MSTORE PUSH1 0x2 PUSH1 0x20 MSTORE PUSH1 0x40 DUP2 KECCAK256 SLOAD PUSH1 0x1 PUSH1 0x1 PUSH1 0xA0 SHL SUB SWAP1 DUP2 AND SWAP1 DUP4 AND ISZERO PUSH2 0x83E JUMPI PUSH2 0x83E DUP2 DUP5 DUP7 PUSH2 0xCDA JUMP JUMPDEST PUSH1 0x1 PUSH1 0x1 PUSH1 0xA0 SHL SUB DUP2 AND ISZERO PUSH2 0x878 JUMPI PUSH2 0x859 PUSH0 DUP6 PUSH0 DUP1 PUSH2 0xBD6 JUMP JUMPDEST PUSH1 0x1 PUSH1 0x1 PUSH1 0xA0 SHL SUB DUP2 AND PUSH0 SWAP1 DUP2 MSTORE PUSH1 0x3 PUSH1 0x20 MSTORE PUSH1 0x40 SWAP1 KECCAK256 DUP1 SLOAD PUSH0 NOT ADD SWAP1 SSTORE JUMPDEST PUSH1 0x1 PUSH1 0x1 PUSH1 0xA0 SHL SUB DUP6 AND ISZERO PUSH2 0x8A6 JUMPI PUSH1 0x1 PUSH1 0x1 PUSH1 0xA0 SHL SUB DUP6 AND PUSH0 SWAP1 DUP2 MSTORE PUSH1 0x3 PUSH1 0x20 MSTORE PUSH1 0x40 SWAP1 KECCAK256 DUP1 SLOAD PUSH1 0x1 ADD SWAP1 SSTORE JUMPDEST PUSH0 DUP5 DUP2 MSTORE PUSH1 0x2 PUSH1 0x20 MSTORE PUSH1 0x40 DUP1 DUP3 KECCAK256 DUP1 SLOAD PUSH1 0x1 PUSH1 0x1 PUSH1 0xA0 SHL SUB NOT AND PUSH1 0x1 PUSH1 0x1 PUSH1 0xA0 SHL SUB DUP10 DUP2 AND SWAP2 DUP3 OR SWAP1 SWAP3 SSTORE SWAP2 MLOAD DUP8 SWAP4 SWAP2 DUP6 AND SWAP2 PUSH32 0xDDF252AD1BE2C89B69C2B068FC378DAA952BA7F163C4A11628F55A4DF523B3EF SWAP2 LOG4 SWAP5 SWAP4 POP POP POP POP JUMP JUMPDEST PUSH1 0x6 SLOAD PUSH1 0x1 PUSH1 0x1 PUSH1 0xA0 SHL SUB AND CALLER EQ PUSH2 0x573 JUMPI PUSH1 0x40 MLOAD PUSH4 0x118CDAA7 PUSH1 0xE0 SHL DUP2 MSTORE CALLER PUSH1 0x4 DUP3 ADD MSTORE PUSH1 0x24 ADD PUSH2 0x42F JUMP JUMPDEST PUSH1 0x6 DUP1 SLOAD PUSH1 0x1 PUSH1 0x1 PUSH1 0xA0 SHL SUB DUP4 DUP2 AND PUSH1 0x1 PUSH1 0x1 PUSH1 0xA0 SHL SUB NOT DUP4 AND DUP2 OR SWAP1 SWAP4 SSTORE PUSH1 0x40 MLOAD SWAP2 AND SWAP2 SWAP1 DUP3 SWAP1 PUSH32 0x8BE0079C531659141344CD1FD0A4F28419497F9722A3DAAFE3B4186F6B6457E0 SWAP1 PUSH0 SWAP1 LOG3 POP POP JUMP JUMPDEST PUSH1 0x1 PUSH1 0x1 PUSH1 0xA0 SHL SUB DUP3 AND PUSH2 0x9B4 JUMPI PUSH1 0x40 MLOAD PUSH4 0xB611743 PUSH1 0xE3 SHL DUP2 MSTORE PUSH1 0x1 PUSH1 0x1 PUSH1 0xA0 SHL SUB DUP4 AND PUSH1 0x4 DUP3 ADD MSTORE PUSH1 0x24 ADD PUSH2 0x42F JUMP JUMPDEST PUSH1 0x1 PUSH1 0x1 PUSH1 0xA0 SHL SUB DUP4 DUP2 AND PUSH0 DUP2 DUP2 MSTORE PUSH1 0x5 PUSH1 0x20 SWAP1 DUP2 MSTORE PUSH1 0x40 DUP1 DUP4 KECCAK256 SWAP5 DUP8 AND DUP1 DUP5 MSTORE SWAP5 DUP3 MSTORE SWAP2 DUP3 SWAP1 KECCAK256 DUP1 SLOAD PUSH1 0xFF NOT AND DUP7 ISZERO ISZERO SWAP1 DUP2 OR SWAP1 SWAP2 SSTORE SWAP2 MLOAD SWAP2 DUP3 MSTORE PUSH32 0x17307EAB39AB6107E8899845AD3D59BD9653F200F220920489CA2B5937696C31 SWAP2 ADD PUSH1 0x40 MLOAD DUP1 SWAP2 SUB SWAP1 LOG3 POP POP POP JUMP JUMPDEST PUSH1 0x1 PUSH1 0x1 PUSH1 0xA0 SHL SUB DUP4 AND EXTCODESIZE ISZERO PUSH2 0x492 JUMPI PUSH1 0x40 MLOAD PUSH4 0xA85BD01 PUSH1 0xE1 SHL DUP2 MSTORE PUSH1 0x1 PUSH1 0x1 PUSH1 0xA0 SHL SUB DUP5 AND SWAP1 PUSH4 0x150B7A02 SWAP1 PUSH2 0xA62 SWAP1 CALLER SWAP1 DUP9 SWAP1 DUP8 SWAP1 DUP8 SWAP1 PUSH1 0x4 ADD PUSH2 0x11BC JUMP JUMPDEST PUSH1 0x20 PUSH1 0x40 MLOAD DUP1 DUP4 SUB DUP2 PUSH0 DUP8 GAS CALL SWAP3 POP POP POP DUP1 ISZERO PUSH2 0xA9C JUMPI POP PUSH1 0x40 DUP1 MLOAD PUSH1 0x1F RETURNDATASIZE SWAP1 DUP2 ADD PUSH1 0x1F NOT AND DUP3 ADD SWAP1 SWAP3 MSTORE PUSH2 0xA99 SWAP2 DUP2 ADD SWAP1 PUSH2 0x11F8 JUMP JUMPDEST PUSH1 0x1 JUMPDEST PUSH2 0xB03 JUMPI RETURNDATASIZE DUP1 DUP1 ISZERO PUSH2 0xAC9 JUMPI PUSH1 0x40 MLOAD SWAP2 POP PUSH1 0x1F NOT PUSH1 0x3F RETURNDATASIZE ADD AND DUP3 ADD PUSH1 0x40 MSTORE RETURNDATASIZE DUP3 MSTORE RETURNDATASIZE PUSH0 PUSH1 0x20 DUP5 ADD RETURNDATACOPY PUSH2 0xACE JUMP JUMPDEST PUSH1 0x60 SWAP2 POP JUMPDEST POP DUP1 MLOAD PUSH0 SUB PUSH2 0xAFB JUMPI PUSH1 0x40 MLOAD PUSH4 0x32505749 PUSH1 0xE1 SHL DUP2 MSTORE PUSH1 0x1 PUSH1 0x1 PUSH1 0xA0 SHL SUB DUP6 AND PUSH1 0x4 DUP3 ADD MSTORE PUSH1 0x24 ADD PUSH2 0x42F JUMP JUMPDEST DUP1 MLOAD DUP2 PUSH1 0x20 ADD REVERT JUMPDEST PUSH1 0x1 PUSH1 0x1 PUSH1 0xE0 SHL SUB NOT DUP2 AND PUSH4 0xA85BD01 PUSH1 0xE1 SHL EQ PUSH2 0xB3F JUMPI PUSH1 0x40 MLOAD PUSH4 0x32505749 PUSH1 0xE1 SHL DUP2 MSTORE PUSH1 0x1 PUSH1 0x1 PUSH1 0xA0 SHL SUB DUP6 AND PUSH1 0x4 DUP3 ADD MSTORE PUSH1 0x24 ADD PUSH2 0x42F JUMP JUMPDEST POP POP POP POP POP JUMP JUMPDEST PUSH1 0x60 PUSH0 PUSH2 0xB52 DUP4 PUSH2 0xD3E JUMP JUMPDEST PUSH1 0x1 ADD SWAP1 POP PUSH0 DUP2 PUSH8 0xFFFFFFFFFFFFFFFF DUP2 GT ISZERO PUSH2 0xB71 JUMPI PUSH2 0xB71 PUSH2 0x103C JUMP JUMPDEST PUSH1 0x40 MLOAD SWAP1 DUP1 DUP3 MSTORE DUP1 PUSH1 0x1F ADD PUSH1 0x1F NOT AND PUSH1 0x20 ADD DUP3 ADD PUSH1 0x40 MSTORE DUP1 ISZERO PUSH2 0xB9B JUMPI PUSH1 0x20 DUP3 ADD DUP2 DUP1 CALLDATASIZE DUP4 CALLDATACOPY ADD SWAP1 POP JUMPDEST POP SWAP1 POP DUP2 DUP2 ADD PUSH1 0x20 ADD JUMPDEST PUSH0 NOT ADD PUSH16 0x181899199A1A9B1B9C1CB0B131B232B3 PUSH1 0x81 SHL PUSH1 0xA DUP7 MOD BYTE DUP2 MSTORE8 PUSH1 0xA DUP6 DIV SWAP5 POP DUP5 PUSH2 0xBA5 JUMPI POP SWAP4 SWAP3 POP POP POP JUMP JUMPDEST DUP1 DUP1 PUSH2 0xBEA JUMPI POP PUSH1 0x1 PUSH1 0x1 PUSH1 0xA0 SHL SUB DUP3 AND ISZERO ISZERO JUMPDEST ISZERO PUSH2 0xCAB JUMPI PUSH0 PUSH2 0xBF9 DUP5 PUSH2 0x7CD JUMP JUMPDEST SWAP1 POP PUSH1 0x1 PUSH1 0x1 PUSH1 0xA0 SHL SUB DUP4 AND ISZERO DUP1 ISZERO SWAP1 PUSH2 0xC25 JUMPI POP DUP3 PUSH1 0x1 PUSH1 0x1 PUSH1 0xA0 SHL SUB AND DUP2 PUSH1 0x1 PUSH1 0x1 PUSH1 0xA0 SHL SUB AND EQ ISZERO JUMPDEST DUP1 ISZERO PUSH2 0xC38 JUMPI POP PUSH2 0xC36 DUP2 DUP5 PUSH2 0x763 JUMP JUMPDEST ISZERO JUMPDEST ISZERO PUSH2 0xC61 JUMPI PUSH1 0x40 MLOAD PUSH4 0xA9FBF51F PUSH1 0xE0 SHL DUP2 MSTORE PUSH1 0x1 PUSH1 0x1 PUSH1 0xA0 SHL SUB DUP5 AND PUSH1 0x4 DUP3 ADD MSTORE PUSH1 0x24 ADD PUSH2 0x42F JUMP JUMPDEST DUP2 ISZERO PUSH2 0xCA9 JUMPI DUP4 DUP6 PUSH1 0x1 PUSH1 0x1 PUSH1 0xA0 SHL SUB AND DUP3 PUSH1 0x1 PUSH1 0x1 PUSH1 0xA0 SHL SUB AND PUSH32 0x8C5BE1E5EBEC7D5BD14F71427D1E84F3DD0314C0F7B2291E5B200AC8C7C3B925 PUSH1 0x40 MLOAD PUSH1 0x40 MLOAD DUP1 SWAP2 SUB SWAP1 LOG4 JUMPDEST POP JUMPDEST POP POP PUSH0 SWAP1 DUP2 MSTORE PUSH1 0x4 PUSH1 0x20 MSTORE PUSH1 0x40 SWAP1 KECCAK256 DUP1 SLOAD PUSH1 0x1 PUSH1 0x1 PUSH1 0xA0 SHL SUB NOT AND PUSH1 0x1 PUSH1 0x1 PUSH1 0xA0 SHL SUB SWAP3 SWAP1 SWAP3 AND SWAP2 SWAP1 SWAP2 OR SWAP1 SSTORE JUMP JUMPDEST PUSH2 0xCE5 DUP4 DUP4 DUP4 PUSH2 0xE15 JUMP JUMPDEST PUSH2 0x4B2 JUMPI PUSH1 0x1 PUSH1 0x1 PUSH1 0xA0 SHL SUB DUP4 AND PUSH2 0xD13 JUMPI PUSH1 0x40 MLOAD PUSH4 0x7E273289 PUSH1 0xE0 SHL DUP2 MSTORE PUSH1 0x4 DUP2 ADD DUP3 SWAP1 MSTORE PUSH1 0x24 ADD PUSH2 0x42F JUMP JUMPDEST PUSH1 0x40 MLOAD PUSH4 0x177E802F PUSH1 0xE0 SHL DUP2 MSTORE PUSH1 0x1 PUSH1 0x1 PUSH1 0xA0 SHL SUB DUP4 AND PUSH1 0x4 DUP3 ADD MSTORE PUSH1 0x24 DUP2 ADD DUP3 SWAP1 MSTORE PUSH1 0x44 ADD PUSH2 0x42F JUMP JUMPDEST PUSH0 DUP1 PUSH19 0x184F03E93FF9F4DAA797ED6E38ED64BF6A1F01 PUSH1 0x40 SHL DUP4 LT PUSH2 0xD7C JUMPI PUSH19 0x184F03E93FF9F4DAA797ED6E38ED64BF6A1F01 PUSH1 0x40 SHL DUP4 DIV SWAP3 POP PUSH1 0x40 ADD JUMPDEST PUSH14 0x4EE2D6D415B85ACEF8100000000 DUP4 LT PUSH2 0xDA8 JUMPI PUSH14 0x4EE2D6D415B85ACEF8100000000 DUP4 DIV SWAP3 POP PUSH1 0x20 ADD JUMPDEST PUSH7 0x2386F26FC10000 DUP4 LT PUSH2 0xDC6 JUMPI PUSH7 0x2386F26FC10000 DUP4 DIV SWAP3 POP PUSH1 0x10 ADD JUMPDEST PUSH4 0x5F5E100 DUP4 LT PUSH2 0xDDE JUMPI PUSH4 0x5F5E100 DUP4 DIV SWAP3 POP PUSH1 0x8 ADD JUMPDEST PUSH2 0x2710 DUP4 LT PUSH2 0xDF2 JUMPI PUSH2 0x2710 DUP4 DIV SWAP3 POP PUSH1 0x4 ADD JUMPDEST PUSH1 0x64 DUP4 LT PUSH2 0xE04 JUMPI PUSH1 0x64 DUP4 DIV SWAP3 POP PUSH1 0x2 ADD JUMPDEST PUSH1 0xA DUP4 LT PUSH2 0x33F JUMPI PUSH1 0x1 ADD SWAP3 SWAP2 POP POP JUMP JUMPDEST PUSH0 PUSH1 0x1 PUSH1 0x1 PUSH1 0xA0 SHL SUB DUP4 AND ISZERO DUP1 ISZERO SWAP1 PUSH2 0xE71 JUMPI POP DUP3 PUSH1 0x1 PUSH1 0x1 PUSH1 0xA0 SHL SUB AND DUP5 PUSH1 0x1 PUSH1 0x1 PUSH1 0xA0 SHL SUB AND EQ DUP1 PUSH2 0xE4E JUMPI POP PUSH2 0xE4E DUP5 DUP5 PUSH2 0x763 JUMP JUMPDEST DUP1 PUSH2 0xE71 JUMPI POP PUSH0 DUP3 DUP2 MSTORE PUSH1 0x4 PUSH1 0x20 MSTORE PUSH1 0x40 SWAP1 KECCAK256 SLOAD PUSH1 0x1 PUSH1 0x1 PUSH1 0xA0 SHL SUB DUP5 DUP2 AND SWAP2 AND EQ JUMPDEST SWAP5 SWAP4 POP POP POP POP JUMP JUMPDEST PUSH1 0x1 PUSH1 0x1 PUSH1 0xE0 SHL SUB NOT DUP2 AND DUP2 EQ PUSH2 0x7CA JUMPI PUSH0 DUP1 REVERT JUMPDEST PUSH0 PUSH1 0x20 DUP3 DUP5 SUB SLT ISZERO PUSH2 0xE9E JUMPI PUSH0 DUP1 REVERT JUMPDEST DUP2 CALLDATALOAD PUSH2 0x75C DUP2 PUSH2 0xE79 JUMP JUMPDEST PUSH0 JUMPDEST DUP4 DUP2 LT ISZERO PUSH2 0xEC3 JUMPI DUP2 DUP2 ADD MLOAD DUP4 DUP3 ADD MSTORE PUSH1 0x20 ADD PUSH2 0xEAB JUMP JUMPDEST POP POP PUSH0 SWAP2 ADD MSTORE JUMP JUMPDEST PUSH0 DUP2 MLOAD DUP1 DUP5 MSTORE PUSH2 0xEE2 DUP2 PUSH1 0x20 DUP7 ADD PUSH1 0x20 DUP7 ADD PUSH2 0xEA9 JUMP JUMPDEST PUSH1 0x1F ADD PUSH1 0x1F NOT AND SWAP3 SWAP1 SWAP3 ADD PUSH1 0x20 ADD SWAP3 SWAP2 POP POP JUMP JUMPDEST PUSH1 0x20 DUP2 MSTORE PUSH0 PUSH2 0x75C PUSH1 0x20 DUP4 ADD DUP5 PUSH2 0xECB JUMP JUMPDEST PUSH0 PUSH1 0x20 DUP3 DUP5 SUB SLT ISZERO PUSH2 0xF18 JUMPI PUSH0 DUP1 REVERT JUMPDEST POP CALLDATALOAD SWAP2 SWAP1 POP JUMP JUMPDEST DUP1 CALLDATALOAD PUSH1 0x1 PUSH1 0x1 PUSH1 0xA0 SHL SUB DUP2 AND DUP2 EQ PUSH2 0xF35 JUMPI PUSH0 DUP1 REVERT JUMPDEST SWAP2 SWAP1 POP JUMP JUMPDEST PUSH0 DUP1 PUSH1 0x40 DUP4 DUP6 SUB SLT ISZERO PUSH2 0xF4B JUMPI PUSH0 DUP1 REVERT JUMPDEST PUSH2 0xF54 DUP4 PUSH2 0xF1F JUMP JUMPDEST SWAP5 PUSH1 0x20 SWAP4 SWAP1 SWAP4 ADD CALLDATALOAD SWAP4 POP POP POP JUMP JUMPDEST PUSH0 DUP1 PUSH0 PUSH1 0x60 DUP5 DUP7 SUB SLT ISZERO PUSH2 0xF74 JUMPI PUSH0 DUP1 REVERT JUMPDEST PUSH2 0xF7D DUP5 PUSH2 0xF1F JUMP JUMPDEST SWAP3 POP PUSH2 0xF8B PUSH1 0x20 DUP6 ADD PUSH2 0xF1F JUMP JUMPDEST SWAP2 POP PUSH1 0x40 DUP5 ADD CALLDATALOAD SWAP1 POP SWAP3 POP SWAP3 POP SWAP3 JUMP JUMPDEST PUSH0 PUSH1 0x20 DUP3 DUP5 SUB SLT ISZERO PUSH2 0xFAB JUMPI PUSH0 DUP1 REVERT JUMPDEST PUSH2 0x75C DUP3 PUSH2 0xF1F JUMP JUMPDEST PUSH1 0x20 DUP1 DUP3 MSTORE DUP3 MLOAD PUSH1 0x1 PUSH1 0x1 PUSH1 0xA0 SHL SUB AND DUP3 DUP3 ADD MSTORE DUP3 ADD MLOAD PUSH1 0x80 PUSH1 0x40 DUP4 ADD MSTORE PUSH0 SWAP1 PUSH2 0xFE1 PUSH1 0xA0 DUP5 ADD DUP3 PUSH2 0xECB JUMP JUMPDEST SWAP1 POP PUSH1 0x40 DUP5 ADD MLOAD PUSH1 0x60 DUP5 ADD MSTORE PUSH1 0x60 DUP5 ADD MLOAD ISZERO ISZERO PUSH1 0x80 DUP5 ADD MSTORE DUP1 SWAP2 POP POP SWAP3 SWAP2 POP POP JUMP JUMPDEST PUSH0 DUP1 PUSH1 0x40 DUP4 DUP6 SUB SLT ISZERO PUSH2 0x1014 JUMPI PUSH0 DUP1 REVERT JUMPDEST PUSH2 0x101D DUP4 PUSH2 0xF1F JUMP JUMPDEST SWAP2 POP PUSH1 0x20 DUP4 ADD CALLDATALOAD DUP1 ISZERO ISZERO DUP2 EQ PUSH2 0x1031 JUMPI PUSH0 DUP1 REVERT JUMPDEST DUP1 SWAP2 POP POP SWAP3 POP SWAP3 SWAP1 POP JUMP JUMPDEST PUSH4 0x4E487B71 PUSH1 0xE0 SHL PUSH0 MSTORE PUSH1 0x41 PUSH1 0x4 MSTORE PUSH1 0x24 PUSH0 REVERT JUMPDEST PUSH0 DUP1 PUSH0 DUP1 PUSH1 0x80 DUP6 DUP8 SUB SLT ISZERO PUSH2 0x1063 JUMPI PUSH0 DUP1 REVERT JUMPDEST PUSH2 0x106C DUP6 PUSH2 0xF1F JUMP JUMPDEST SWAP4 POP PUSH2 0x107A PUSH1 0x20 DUP7 ADD PUSH2 0xF1F JUMP JUMPDEST SWAP3 POP PUSH1 0x40 DUP6 ADD CALLDATALOAD SWAP2 POP PUSH1 0x60 DUP6 ADD CALLDATALOAD PUSH8 0xFFFFFFFFFFFFFFFF DUP1 DUP3 GT ISZERO PUSH2 0x109D JUMPI PUSH0 DUP1 REVERT JUMPDEST DUP2 DUP8 ADD SWAP2 POP DUP8 PUSH1 0x1F DUP4 ADD SLT PUSH2 0x10B0 JUMPI PUSH0 DUP1 REVERT JUMPDEST DUP2 CALLDATALOAD DUP2 DUP2 GT ISZERO PUSH2 0x10C2 JUMPI PUSH2 0x10C2 PUSH2 0x103C JUMP JUMPDEST PUSH1 0x40 MLOAD PUSH1 0x1F DUP3 ADD PUSH1 0x1F NOT SWAP1 DUP2 AND PUSH1 0x3F ADD AND DUP2 ADD SWAP1 DUP4 DUP3 GT DUP2 DUP4 LT OR ISZERO PUSH2 0x10EA JUMPI PUSH2 0x10EA PUSH2 0x103C JUMP JUMPDEST DUP2 PUSH1 0x40 MSTORE DUP3 DUP2 MSTORE DUP11 PUSH1 0x20 DUP5 DUP8 ADD ADD GT ISZERO PUSH2 0x1102 JUMPI PUSH0 DUP1 REVERT JUMPDEST DUP3 PUSH1 0x20 DUP7 ADD PUSH1 0x20 DUP4 ADD CALLDATACOPY PUSH0 PUSH1 0x20 DUP5 DUP4 ADD ADD MSTORE DUP1 SWAP6 POP POP POP POP POP POP SWAP3 SWAP6 SWAP2 SWAP5 POP SWAP3 POP JUMP JUMPDEST PUSH0 DUP1 PUSH1 0x40 DUP4 DUP6 SUB SLT ISZERO PUSH2 0x1136 JUMPI PUSH0 DUP1 REVERT JUMPDEST PUSH2 0x113F DUP4 PUSH2 0xF1F JUMP JUMPDEST SWAP2 POP PUSH2 0x114D PUSH1 0x20 DUP5 ADD PUSH2 0xF1F JUMP JUMPDEST SWAP1 POP SWAP3 POP SWAP3 SWAP1 POP JUMP JUMPDEST PUSH1 0x1 DUP2 DUP2 SHR SWAP1 DUP3 AND DUP1 PUSH2 0x116A JUMPI PUSH1 0x7F DUP3 AND SWAP2 POP JUMPDEST PUSH1 0x20 DUP3 LT DUP2 SUB PUSH2 0x1188 JUMPI PUSH4 0x4E487B71 PUSH1 0xE0 SHL PUSH0 MSTORE PUSH1 0x22 PUSH1 0x4 MSTORE PUSH1 0x24 PUSH0 REVERT JUMPDEST POP SWAP2 SWAP1 POP JUMP JUMPDEST PUSH0 DUP4 MLOAD PUSH2 0x119F DUP2 DUP5 PUSH1 0x20 DUP9 ADD PUSH2 0xEA9 JUMP JUMPDEST DUP4 MLOAD SWAP1 DUP4 ADD SWAP1 PUSH2 0x11B3 DUP2 DUP4 PUSH1 0x20 DUP9 ADD PUSH2 0xEA9 JUMP JUMPDEST ADD SWAP5 SWAP4 POP POP POP POP JUMP JUMPDEST PUSH1 0x1 PUSH1 0x1 PUSH1 0xA0 SHL SUB DUP6 DUP2 AND DUP3 MSTORE DUP5 AND PUSH1 0x20 DUP3 ADD MSTORE PUSH1 0x40 DUP2 ADD DUP4 SWAP1 MSTORE PUSH1 0x80 PUSH1 0x60 DUP3 ADD DUP2 SWAP1 MSTORE PUSH0 SWAP1 PUSH2 0x11EE SWAP1 DUP4 ADD DUP5 PUSH2 0xECB JUMP JUMPDEST SWAP7 SWAP6 POP POP POP POP POP POP JUMP JUMPDEST PUSH0 PUSH1 0x20 DUP3 DUP5 SUB SLT ISZERO PUSH2 0x1208 JUMPI PUSH0 DUP1 REVERT JUMPDEST DUP2 MLOAD PUSH2 0x75C DUP2 PUSH2 0xE79 JUMP INVALID LOG2 PUSH5 0x6970667358 0x22 SLT KECCAK256 SHR DUP13 OR 0x4E PUSH29 0x88DFB119F5FD3F9A49E9567E0AC31A44600C86AF58E4027C3228846473 PUSH16 0x6C634300081400330000000000000000 "
				},
				"gasEstimates": {
					"creation": {
						"codeDepositCost": "936200",
						"executionCost": "infinite",
						"totalCost": "infinite"
					},
					"external": {
						"approve(address,uint256)": "31531",
						"balanceOf(address)": "2696",
						"getApproved(uint256)": "infinite",
						"getPrice()": "2424",
						"getSinglePictureToken()": "infinite",
						"isApprovedForAll(address,address)": "infinite",
						"name()": "infinite",
						"notPutOnSale()": "26570",
						"owner()": "2397",
						"ownerOf(uint256)": "infinite",
						"price()": "2316",
						"purchase()": "infinite",
						"putOnSale()": "26576",
						"renounceOwnership()": "infinite",
						"safeTransferFrom(address,address,uint256)": "infinite",
						"safeTransferFrom(address,address,uint256,bytes)": "infinite",
						"setApprovalForAll(address,bool)": "26700",
						"setPrice(uint256)": "24575",
						"supportsInterface(bytes4)": "531",
						"symbol()": "infinite",
						"tokenURI(uint256)": "infinite",
						"transferFrom(address,address,uint256)": "infinite",
						"transferOwnership(address)": "28465"
					},
					"internal": {
						"_baseURI()": "infinite"
					}
				},
				"methodIdentifiers": {
					"approve(address,uint256)": "095ea7b3",
					"balanceOf(address)": "70a08231",
					"getApproved(uint256)": "081812fc",
					"getPrice()": "98d5fdca",
					"getSinglePictureToken()": "854cbb4a",
					"isApprovedForAll(address,address)": "e985e9c5",
					"name()": "06fdde03",
					"notPutOnSale()": "8c2a5bc8",
					"owner()": "8da5cb5b",
					"ownerOf(uint256)": "6352211e",
					"price()": "a035b1fe",
					"purchase()": "64edfbf0",
					"putOnSale()": "5987cc19",
					"renounceOwnership()": "715018a6",
					"safeTransferFrom(address,address,uint256)": "42842e0e",
					"safeTransferFrom(address,address,uint256,bytes)": "b88d4fde",
					"setApprovalForAll(address,bool)": "a22cb465",
					"setPrice(uint256)": "91b7f5ed",
					"supportsInterface(bytes4)": "01ffc9a7",
					"symbol()": "95d89b41",
					"tokenURI(uint256)": "c87b56dd",
					"transferFrom(address,address,uint256)": "23b872dd",
					"transferOwnership(address)": "f2fde38b"
				}
			},
			"storageLayout": {
				"storage": [
					{
						"astId": 459,
						"contract": "PictureToken.sol:PictureToken",
						"label": "_name",
						"offset": 0,
						"slot": "0",
						"type": "t_string_storage"
					},
					{
						"astId": 461,
						"contract": "PictureToken.sol:PictureToken",
						"label": "_symbol",
						"offset": 0,
						"slot": "1",
						"type": "t_string_storage"
					},
					{
						"astId": 465,
						"contract": "PictureToken.sol:PictureToken",
						"label": "_owners",
						"offset": 0,
						"slot": "2",
						"type": "t_mapping(t_uint256,t_address)"
					},
					{
						"astId": 469,
						"contract": "PictureToken.sol:PictureToken",
						"label": "_balances",
						"offset": 0,
						"slot": "3",
						"type": "t_mapping(t_address,t_uint256)"
					},
					{
						"astId": 473,
						"contract": "PictureToken.sol:PictureToken",
						"label": "_tokenApprovals",
						"offset": 0,
						"slot": "4",
						"type": "t_mapping(t_uint256,t_address)"
					},
					{
						"astId": 479,
						"contract": "PictureToken.sol:PictureToken",
						"label": "_operatorApprovals",
						"offset": 0,
						"slot": "5",
						"type": "t_mapping(t_address,t_mapping(t_address,t_bool))"
					},
					{
						"astId": 150,
						"contract": "PictureToken.sol:PictureToken",
						"label": "_owner",
						"offset": 0,
						"slot": "6",
						"type": "t_address"
					},
					{
						"astId": 9,
						"contract": "PictureToken.sol:PictureToken",
						"label": "image",
						"offset": 0,
						"slot": "7",
						"type": "t_string_storage"
					},
					{
						"astId": 11,
						"contract": "PictureToken.sol:PictureToken",
						"label": "price",
						"offset": 0,
						"slot": "8",
						"type": "t_uint256"
					},
					{
						"astId": 13,
						"contract": "PictureToken.sol:PictureToken",
						"label": "onSale",
						"offset": 0,
						"slot": "9",
						"type": "t_bool"
					}
				],
				"types": {
					"t_address": {
						"encoding": "inplace",
						"label": "address",
						"numberOfBytes": "20"
					},
					"t_bool": {
						"encoding": "inplace",
						"label": "bool",
						"numberOfBytes": "1"
					},
					"t_mapping(t_address,t_bool)": {
						"encoding": "mapping",
						"key": "t_address",
						"label": "mapping(address => bool)",
						"numberOfBytes": "32",
						"value": "t_bool"
					},
					"t_mapping(t_address,t_mapping(t_address,t_bool))": {
						"encoding": "mapping",
						"key": "t_address",
						"label": "mapping(address => mapping(address => bool))",
						"numberOfBytes": "32",
						"value": "t_mapping(t_address,t_bool)"
					},
					"t_mapping(t_address,t_uint256)": {
						"encoding": "mapping",
						"key": "t_address",
						"label": "mapping(address => uint256)",
						"numberOfBytes": "32",
						"value": "t_uint256"
					},
					"t_mapping(t_uint256,t_address)": {
						"encoding": "mapping",
						"key": "t_uint256",
						"label": "mapping(uint256 => address)",
						"numberOfBytes": "32",
						"value": "t_address"
					},
					"t_string_storage": {
						"encoding": "bytes",
						"label": "string",
						"numberOfBytes": "32"
					},
					"t_uint256": {
						"encoding": "inplace",
						"label": "uint256",
						"numberOfBytes": "32"
					}
				}
			},
			"userdoc": {
				"kind": "user",
				"methods": {},
				"version": 1
			}
		}
	}
}