{
	"Pieces.sol": {
		"PieceToken": {
			"abi": [
				{
					"inputs": [
						{
							"internalType": "address",
							"name": "initialOwner",
							"type": "address"
						}
					],
					"stateMutability": "nonpayable",
					"type": "constructor"
				},
				{
					"inputs": [
						{
							"internalType": "address",
							"name": "sender",
							"type": "address"
						},
						{
							"internalType": "uint256",
							"name": "tokenId",
							"type": "uint256"
						},
						{
							"internalType": "address",
							"name": "owner",
							"type": "address"
						}
					],
					"name": "ERC721IncorrectOwner",
					"type": "error"
				},
				{
					"inputs": [
						{
							"internalType": "address",
							"name": "operator",
							"type": "address"
						},
						{
							"internalType": "uint256",
							"name": "tokenId",
							"type": "uint256"
						}
					],
					"name": "ERC721InsufficientApproval",
					"type": "error"
				},
				{
					"inputs": [
						{
							"internalType": "address",
							"name": "approver",
							"type": "address"
						}
					],
					"name": "ERC721InvalidApprover",
					"type": "error"
				},
				{
					"inputs": [
						{
							"internalType": "address",
							"name": "operator",
							"type": "address"
						}
					],
					"name": "ERC721InvalidOperator",
					"type": "error"
				},
				{
					"inputs": [
						{
							"internalType": "address",
							"name": "owner",
							"type": "address"
						}
					],
					"name": "ERC721InvalidOwner",
					"type": "error"
				},
				{
					"inputs": [
						{
							"internalType": "address",
							"name": "receiver",
							"type": "address"
						}
					],
					"name": "ERC721InvalidReceiver",
					"type": "error"
				},
				{
					"inputs": [
						{
							"internalType": "address",
							"name": "sender",
							"type": "address"
						}
					],
					"name": "ERC721InvalidSender",
					"type": "error"
				},
				{
					"inputs": [
						{
							"internalType": "uint256",
							"name": "tokenId",
							"type": "uint256"
						}
					],
					"name": "ERC721NonexistentToken",
					"type": "error"
				},
				{
					"inputs": [
						{
							"internalType": "address",
							"name": "owner",
							"type": "address"
						}
					],
					"name": "OwnableInvalidOwner",
					"type": "error"
				},
				{
					"inputs": [
						{
							"internalType": "address",
							"name": "account",
							"type": "address"
						}
					],
					"name": "OwnableUnauthorizedAccount",
					"type": "error"
				},
				{
					"anonymous": false,
					"inputs": [
						{
							"indexed": true,
							"internalType": "address",
							"name": "owner",
							"type": "address"
						},
						{
							"indexed": true,
							"internalType": "address",
							"name": "approved",
							"type": "address"
						},
						{
							"indexed": true,
							"internalType": "uint256",
							"name": "tokenId",
							"type": "uint256"
						}
					],
					"name": "Approval",
					"type": "event"
				},
				{
					"anonymous": false,
					"inputs": [
						{
							"indexed": true,
							"internalType": "address",
							"name": "owner",
							"type": "address"
						},
						{
							"indexed": true,
							"internalType": "address",
							"name": "operator",
							"type": "address"
						},
						{
							"indexed": false,
							"internalType": "bool",
							"name": "approved",
							"type": "bool"
						}
					],
					"name": "ApprovalForAll",
					"type": "event"
				},
				{
					"anonymous": false,
					"inputs": [
						{
							"indexed": true,
							"internalType": "address",
							"name": "previousOwner",
							"type": "address"
						},
						{
							"indexed": true,
							"internalType": "address",
							"name": "newOwner",
							"type": "address"
						}
					],
					"name": "OwnershipTransferred",
					"type": "event"
				},
				{
					"anonymous": false,
					"inputs": [
						{
							"indexed": true,
							"internalType": "address",
							"name": "from",
							"type": "address"
						},
						{
							"indexed": true,
							"internalType": "address",
							"name": "to",
							"type": "address"
						},
						{
							"indexed": true,
							"internalType": "uint256",
							"name": "tokenId",
							"type": "uint256"
						}
					],
					"name": "Transfer",
					"type": "event"
				},
				{
					"inputs": [
						{
							"internalType": "address",
							"name": "to",
							"type": "address"
						},
						{
							"internalType": "uint256",
							"name": "tokenId",
							"type": "uint256"
						}
					],
					"name": "approve",
					"outputs": [],
					"stateMutability": "nonpayable",
					"type": "function"
				},
				{
					"inputs": [
						{
							"internalType": "address",
							"name": "owner",
							"type": "address"
						}
					],
					"name": "balanceOf",
					"outputs": [
						{
							"internalType": "uint256",
							"name": "",
							"type": "uint256"
						}
					],
					"stateMutability": "view",
					"type": "function"
				},
				{
					"inputs": [
						{
							"internalType": "uint256",
							"name": "tokenId",
							"type": "uint256"
						}
					],
					"name": "getApproved",
					"outputs": [
						{
							"internalType": "address",
							"name": "",
							"type": "address"
						}
					],
					"stateMutability": "view",
					"type": "function"
				},
				{
					"inputs": [
						{
							"internalType": "address",
							"name": "owner",
							"type": "address"
						},
						{
							"internalType": "address",
							"name": "operator",
							"type": "address"
						}
					],
					"name": "isApprovedForAll",
					"outputs": [
						{
							"internalType": "bool",
							"name": "",
							"type": "bool"
						}
					],
					"stateMutability": "view",
					"type": "function"
				},
				{
					"inputs": [],
					"name": "name",
					"outputs": [
						{
							"internalType": "string",
							"name": "",
							"type": "string"
						}
					],
					"stateMutability": "view",
					"type": "function"
				},
				{
					"inputs": [],
					"name": "owner",
					"outputs": [
						{
							"internalType": "address",
							"name": "",
							"type": "address"
						}
					],
					"stateMutability": "view",
					"type": "function"
				},
				{
					"inputs": [
						{
							"internalType": "uint256",
							"name": "tokenId",
							"type": "uint256"
						}
					],
					"name": "ownerOf",
					"outputs": [
						{
							"internalType": "address",
							"name": "",
							"type": "address"
						}
					],
					"stateMutability": "view",
					"type": "function"
				},
				{
					"inputs": [],
					"name": "renounceOwnership",
					"outputs": [],
					"stateMutability": "nonpayable",
					"type": "function"
				},
				{
					"inputs": [
						{
							"internalType": "address",
							"name": "from",
							"type": "address"
						},
						{
							"internalType": "address",
							"name": "to",
							"type": "address"
						},
						{
							"internalType": "uint256",
							"name": "tokenId",
							"type": "uint256"
						}
					],
					"name": "safeTransferFrom",
					"outputs": [],
					"stateMutability": "nonpayable",
					"type": "function"
				},
				{
					"inputs": [
						{
							"internalType": "address",
							"name": "from",
							"type": "address"
						},
						{
							"internalType": "address",
							"name": "to",
							"type": "address"
						},
						{
							"internalType": "uint256",
							"name": "tokenId",
							"type": "uint256"
						},
						{
							"internalType": "bytes",
							"name": "data",
							"type": "bytes"
						}
					],
					"name": "safeTransferFrom",
					"outputs": [],
					"stateMutability": "nonpayable",
					"type": "function"
				},
				{
					"inputs": [
						{
							"internalType": "address",
							"name": "operator",
							"type": "address"
						},
						{
							"internalType": "bool",
							"name": "approved",
							"type": "bool"
						}
					],
					"name": "setApprovalForAll",
					"outputs": [],
					"stateMutability": "nonpayable",
					"type": "function"
				},
				{
					"inputs": [
						{
							"internalType": "bytes4",
							"name": "interfaceId",
							"type": "bytes4"
						}
					],
					"name": "supportsInterface",
					"outputs": [
						{
							"internalType": "bool",
							"name": "",
							"type": "bool"
						}
					],
					"stateMutability": "view",
					"type": "function"
				},
				{
					"inputs": [],
					"name": "symbol",
					"outputs": [
						{
							"internalType": "string",
							"name": "",
							"type": "string"
						}
					],
					"stateMutability": "view",
					"type": "function"
				},
				{
					"inputs": [
						{
							"internalType": "uint256",
							"name": "tokenId",
							"type": "uint256"
						}
					],
					"name": "tokenURI",
					"outputs": [
						{
							"internalType": "string",
							"name": "",
							"type": "string"
						}
					],
					"stateMutability": "view",
					"type": "function"
				},
				{
					"inputs": [
						{
							"internalType": "address",
							"name": "from",
							"type": "address"
						},
						{
							"internalType": "address",
							"name": "to",
							"type": "address"
						},
						{
							"internalType": "uint256",
							"name": "tokenId",
							"type": "uint256"
						}
					],
					"name": "transferFrom",
					"outputs": [],
					"stateMutability": "nonpayable",
					"type": "function"
				},
				{
					"inputs": [
						{
							"internalType": "address",
							"name": "newOwner",
							"type": "address"
						}
					],
					"name": "transferOwnership",
					"outputs": [],
					"stateMutability": "nonpayable",
					"type": "function"
				}
			],
			"devdoc": {
				"errors": {
					"ERC721IncorrectOwner(address,uint256,address)": [
						{
							"details": "Indicates an error related to the ownership over a particular token. Used in transfers.",
							"params": {
								"owner": "Address of the current owner of a token.",
								"sender": "Address whose tokens are being transferred.",
								"tokenId": "Identifier number of a token."
							}
						}
					],
					"ERC721InsufficientApproval(address,uint256)": [
						{
							"details": "Indicates a failure with the `operator`’s approval. Used in transfers.",
							"params": {
								"operator": "Address that may be allowed to operate on tokens without being their owner.",
								"tokenId": "Identifier number of a token."
							}
						}
					],
					"ERC721InvalidApprover(address)": [
						{
							"details": "Indicates a failure with the `approver` of a token to be approved. Used in approvals.",
							"params": {
								"approver": "Address initiating an approval operation."
							}
						}
					],
					"ERC721InvalidOperator(address)": [
						{
							"details": "Indicates a failure with the `operator` to be approved. Used in approvals.",
							"params": {
								"operator": "Address that may be allowed to operate on tokens without being their owner."
							}
						}
					],
					"ERC721InvalidOwner(address)": [
						{
							"details": "Indicates that an address can't be an owner. For example, `address(0)` is a forbidden owner in EIP-20. Used in balance queries.",
							"params": {
								"owner": "Address of the current owner of a token."
							}
						}
					],
					"ERC721InvalidReceiver(address)": [
						{
							"details": "Indicates a failure with the token `receiver`. Used in transfers.",
							"params": {
								"receiver": "Address to which tokens are being transferred."
							}
						}
					],
					"ERC721InvalidSender(address)": [
						{
							"details": "Indicates a failure with the token `sender`. Used in transfers.",
							"params": {
								"sender": "Address whose tokens are being transferred."
							}
						}
					],
					"ERC721NonexistentToken(uint256)": [
						{
							"details": "Indicates a `tokenId` whose `owner` is the zero address.",
							"params": {
								"tokenId": "Identifier number of a token."
							}
						}
					],
					"OwnableInvalidOwner(address)": [
						{
							"details": "The owner is not a valid owner account. (eg. `address(0)`)"
						}
					],
					"OwnableUnauthorizedAccount(address)": [
						{
							"details": "The caller account is not authorized to perform an operation."
						}
					]
				},
				"events": {
					"Approval(address,address,uint256)": {
						"details": "Emitted when `owner` enables `approved` to manage the `tokenId` token."
					},
					"ApprovalForAll(address,address,bool)": {
						"details": "Emitted when `owner` enables or disables (`approved`) `operator` to manage all of its assets."
					},
					"Transfer(address,address,uint256)": {
						"details": "Emitted when `tokenId` token is transferred from `from` to `to`."
					}
				},
				"kind": "dev",
				"methods": {
					"approve(address,uint256)": {
						"details": "See {IERC721-approve}."
					},
					"balanceOf(address)": {
						"details": "See {IERC721-balanceOf}."
					},
					"getApproved(uint256)": {
						"details": "See {IERC721-getApproved}."
					},
					"isApprovedForAll(address,address)": {
						"details": "See {IERC721-isApprovedForAll}."
					},
					"name()": {
						"details": "See {IERC721Metadata-name}."
					},
					"owner()": {
						"details": "Returns the address of the current owner."
					},
					"ownerOf(uint256)": {
						"details": "See {IERC721-ownerOf}."
					},
					"renounceOwnership()": {
						"details": "Leaves the contract without owner. It will not be possible to call `onlyOwner` functions. Can only be called by the current owner. NOTE: Renouncing ownership will leave the contract without an owner, thereby disabling any functionality that is only available to the owner."
					},
					"safeTransferFrom(address,address,uint256)": {
						"details": "See {IERC721-safeTransferFrom}."
					},
					"safeTransferFrom(address,address,uint256,bytes)": {
						"details": "See {IERC721-safeTransferFrom}."
					},
					"setApprovalForAll(address,bool)": {
						"details": "See {IERC721-setApprovalForAll}."
					},
					"supportsInterface(bytes4)": {
						"details": "See {IERC165-supportsInterface}."
					},
					"symbol()": {
						"details": "See {IERC721Metadata-symbol}."
					},
					"tokenURI(uint256)": {
						"details": "See {IERC721Metadata-tokenURI}."
					},
					"transferFrom(address,address,uint256)": {
						"details": "See {IERC721-transferFrom}."
					},
					"transferOwnership(address)": {
						"details": "Transfers ownership of the contract to a new account (`newOwner`). Can only be called by the current owner."
					}
				},
				"version": 1
			},
			"evm": {
				"assembly": "    /* \"Pieces.sol\":194:478  contract PieceToken is ERC721, Ownable {... */\n  mstore(0x40, 0x80)\n    /* \"Pieces.sol\":240:348  constructor(address initialOwner)... */\n  callvalue\n  dup1\n  iszero\n  tag_1\n  jumpi\n  0x00\n  dup1\n  revert\ntag_1:\n  pop\n  mload(0x40)\n  sub(codesize, bytecodeSize)\n  dup1\n  bytecodeSize\n  dup4\n  codecopy\n  dup2\n  dup2\n  add\n  0x40\n  mstore\n  dup2\n  add\n  swap1\n  tag_2\n  swap2\n  swap1\n  tag_3\n  jump\t// in\ntag_2:\n    /* \"Pieces.sol\":327:339  initialOwner */\n  dup1\n    /* \"openzeppelin-contracts/contracts/token/ERC721/ERC721.sol\":1419:1535  constructor(string memory name_, string memory symbol_) {... */\n  mload(0x40)\n  dup1\n  0x40\n  add\n  0x40\n  mstore\n  dup1\n  0x0a\n  dup2\n  mstore\n  0x20\n  add\n  0x5069656365546f6b656e00000000000000000000000000000000000000000000\n  dup2\n  mstore\n  pop\n  mload(0x40)\n  dup1\n  0x40\n  add\n  0x40\n  mstore\n  dup1\n  0x02\n  dup2\n  mstore\n  0x20\n  add\n  0x5054000000000000000000000000000000000000000000000000000000000000\n  dup2\n  mstore\n  pop\n    /* \"openzeppelin-contracts/contracts/token/ERC721/ERC721.sol\":1494:1499  name_ */\n  dup2\n    /* \"openzeppelin-contracts/contracts/token/ERC721/ERC721.sol\":1486:1491  _name */\n  0x00\n    /* \"openzeppelin-contracts/contracts/token/ERC721/ERC721.sol\":1486:1499  _name = name_ */\n  swap1\n  dup2\n  tag_8\n  swap2\n  swap1\n  tag_9\n  jump\t// in\ntag_8:\n  pop\n    /* \"openzeppelin-contracts/contracts/token/ERC721/ERC721.sol\":1520:1527  symbol_ */\n  dup1\n    /* \"openzeppelin-contracts/contracts/token/ERC721/ERC721.sol\":1510:1517  _symbol */\n  0x01\n    /* \"openzeppelin-contracts/contracts/token/ERC721/ERC721.sol\":1510:1527  _symbol = symbol_ */\n  swap1\n  dup2\n  tag_10\n  swap2\n  swap1\n  tag_9\n  jump\t// in\ntag_10:\n  pop\n    /* \"openzeppelin-contracts/contracts/token/ERC721/ERC721.sol\":1419:1535  constructor(string memory name_, string memory symbol_) {... */\n  pop\n  pop\n    /* \"openzeppelin-contracts/contracts/access/Ownable.sol\":1335:1336  0 */\n  0x00\n    /* \"openzeppelin-contracts/contracts/access/Ownable.sol\":1311:1337  initialOwner == address(0) */\n  0xffffffffffffffffffffffffffffffffffffffff\n  and\n    /* \"openzeppelin-contracts/contracts/access/Ownable.sol\":1311:1323  initialOwner */\n  dup2\n    /* \"openzeppelin-contracts/contracts/access/Ownable.sol\":1311:1337  initialOwner == address(0) */\n  0xffffffffffffffffffffffffffffffffffffffff\n  and\n  sub\n    /* \"openzeppelin-contracts/contracts/access/Ownable.sol\":1307:1404  if (initialOwner == address(0)) {... */\n  tag_12\n  jumpi\n    /* \"openzeppelin-contracts/contracts/access/Ownable.sol\":1389:1390  0 */\n  0x00\n    /* \"openzeppelin-contracts/contracts/access/Ownable.sol\":1361:1392  OwnableInvalidOwner(address(0)) */\n  mload(0x40)\n  0x1e4fbdf700000000000000000000000000000000000000000000000000000000\n  dup2\n  mstore\n  0x04\n  add\n  tag_13\n  swap2\n  swap1\n  tag_14\n  jump\t// in\ntag_13:\n  mload(0x40)\n  dup1\n  swap2\n  sub\n  swap1\n  revert\n    /* \"openzeppelin-contracts/contracts/access/Ownable.sol\":1307:1404  if (initialOwner == address(0)) {... */\ntag_12:\n    /* \"openzeppelin-contracts/contracts/access/Ownable.sol\":1414:1446  _transferOwnership(initialOwner) */\n  tag_15\n    /* \"openzeppelin-contracts/contracts/access/Ownable.sol\":1433:1445  initialOwner */\n  dup2\n    /* \"openzeppelin-contracts/contracts/access/Ownable.sol\":1414:1432  _transferOwnership */\n  shl(0x20, tag_16)\n    /* \"openzeppelin-contracts/contracts/access/Ownable.sol\":1414:1446  _transferOwnership(initialOwner) */\n  0x20\n  shr\n  jump\t// in\ntag_15:\n    /* \"openzeppelin-contracts/contracts/access/Ownable.sol\":1262:1454  constructor(address initialOwner) {... */\n  pop\n    /* \"Pieces.sol\":240:348  constructor(address initialOwner)... */\n  pop\n    /* \"Pieces.sol\":194:478  contract PieceToken is ERC721, Ownable {... */\n  jump(tag_18)\n    /* \"openzeppelin-contracts/contracts/access/Ownable.sol\":3006:3197  function _transferOwnership(address newOwner) internal virtual {... */\ntag_16:\n    /* \"openzeppelin-contracts/contracts/access/Ownable.sol\":3080:3096  address oldOwner */\n  0x00\n    /* \"openzeppelin-contracts/contracts/access/Ownable.sol\":3099:3105  _owner */\n  0x06\n  0x00\n  swap1\n  sload\n  swap1\n  0x0100\n  exp\n  swap1\n  div\n  0xffffffffffffffffffffffffffffffffffffffff\n  and\n    /* \"openzeppelin-contracts/contracts/access/Ownable.sol\":3080:3105  address oldOwner = _owner */\n  swap1\n  pop\n    /* \"openzeppelin-contracts/contracts/access/Ownable.sol\":3125:3133  newOwner */\n  dup2\n    /* \"openzeppelin-contracts/contracts/access/Ownable.sol\":3116:3122  _owner */\n  0x06\n  0x00\n    /* \"openzeppelin-contracts/contracts/access/Ownable.sol\":3116:3133  _owner = newOwner */\n  0x0100\n  exp\n  dup2\n  sload\n  dup2\n  0xffffffffffffffffffffffffffffffffffffffff\n  mul\n  not\n  and\n  swap1\n  dup4\n  0xffffffffffffffffffffffffffffffffffffffff\n  and\n  mul\n  or\n  swap1\n  sstore\n  pop\n    /* \"openzeppelin-contracts/contracts/access/Ownable.sol\":3180:3188  newOwner */\n  dup2\n    /* \"openzeppelin-contracts/contracts/access/Ownable.sol\":3149:3189  OwnershipTransferred(oldOwner, newOwner) */\n  0xffffffffffffffffffffffffffffffffffffffff\n  and\n    /* \"openzeppelin-contracts/contracts/access/Ownable.sol\":3170:3178  oldOwner */\n  dup2\n    /* \"openzeppelin-contracts/contracts/access/Ownable.sol\":3149:3189  OwnershipTransferred(oldOwner, newOwner) */\n  0xffffffffffffffffffffffffffffffffffffffff\n  and\n  0x8be0079c531659141344cd1fd0a4f28419497f9722a3daafe3b4186f6b6457e0\n  mload(0x40)\n  mload(0x40)\n  dup1\n  swap2\n  sub\n  swap1\n  log3\n    /* \"openzeppelin-contracts/contracts/access/Ownable.sol\":3069:3197  {... */\n  pop\n    /* \"openzeppelin-contracts/contracts/access/Ownable.sol\":3006:3197  function _transferOwnership(address newOwner) internal virtual {... */\n  pop\n  jump\t// out\n    /* \"#utility.yul\":88:205   */\ntag_21:\n    /* \"#utility.yul\":197:198   */\n  0x00\n    /* \"#utility.yul\":194:195   */\n  dup1\n    /* \"#utility.yul\":187:199   */\n  revert\n    /* \"#utility.yul\":334:460   */\ntag_23:\n    /* \"#utility.yul\":371:378   */\n  0x00\n    /* \"#utility.yul\":411:453   */\n  0xffffffffffffffffffffffffffffffffffffffff\n    /* \"#utility.yul\":404:409   */\n  dup3\n    /* \"#utility.yul\":400:454   */\n  and\n    /* \"#utility.yul\":389:454   */\n  swap1\n  pop\n    /* \"#utility.yul\":334:460   */\n  swap2\n  swap1\n  pop\n  jump\t// out\n    /* \"#utility.yul\":466:562   */\ntag_24:\n    /* \"#utility.yul\":503:510   */\n  0x00\n    /* \"#utility.yul\":532:556   */\n  tag_54\n    /* \"#utility.yul\":550:555   */\n  dup3\n    /* \"#utility.yul\":532:556   */\n  tag_23\n  jump\t// in\ntag_54:\n    /* \"#utility.yul\":521:556   */\n  swap1\n  pop\n    /* \"#utility.yul\":466:562   */\n  swap2\n  swap1\n  pop\n  jump\t// out\n    /* \"#utility.yul\":568:690   */\ntag_25:\n    /* \"#utility.yul\":641:665   */\n  tag_56\n    /* \"#utility.yul\":659:664   */\n  dup2\n    /* \"#utility.yul\":641:665   */\n  tag_24\n  jump\t// in\ntag_56:\n    /* \"#utility.yul\":634:639   */\n  dup2\n    /* \"#utility.yul\":631:666   */\n  eq\n    /* \"#utility.yul\":621:684   */\n  tag_57\n  jumpi\n    /* \"#utility.yul\":680:681   */\n  0x00\n    /* \"#utility.yul\":677:678   */\n  dup1\n    /* \"#utility.yul\":670:682   */\n  revert\n    /* \"#utility.yul\":621:684   */\ntag_57:\n    /* \"#utility.yul\":568:690   */\n  pop\n  jump\t// out\n    /* \"#utility.yul\":696:839   */\ntag_26:\n    /* \"#utility.yul\":753:758   */\n  0x00\n    /* \"#utility.yul\":784:790   */\n  dup2\n    /* \"#utility.yul\":778:791   */\n  mload\n    /* \"#utility.yul\":769:791   */\n  swap1\n  pop\n    /* \"#utility.yul\":800:833   */\n  tag_59\n    /* \"#utility.yul\":827:832   */\n  dup2\n    /* \"#utility.yul\":800:833   */\n  tag_25\n  jump\t// in\ntag_59:\n    /* \"#utility.yul\":696:839   */\n  swap3\n  swap2\n  pop\n  pop\n  jump\t// out\n    /* \"#utility.yul\":845:1196   */\ntag_3:\n    /* \"#utility.yul\":915:921   */\n  0x00\n    /* \"#utility.yul\":964:966   */\n  0x20\n    /* \"#utility.yul\":952:961   */\n  dup3\n    /* \"#utility.yul\":943:950   */\n  dup5\n    /* \"#utility.yul\":939:962   */\n  sub\n    /* \"#utility.yul\":935:967   */\n  slt\n    /* \"#utility.yul\":932:1051   */\n  iszero\n  tag_61\n  jumpi\n    /* \"#utility.yul\":970:1049   */\n  tag_62\n  tag_21\n  jump\t// in\ntag_62:\n    /* \"#utility.yul\":932:1051   */\ntag_61:\n    /* \"#utility.yul\":1090:1091   */\n  0x00\n    /* \"#utility.yul\":1115:1179   */\n  tag_63\n    /* \"#utility.yul\":1171:1178   */\n  dup5\n    /* \"#utility.yul\":1162:1168   */\n  dup3\n    /* \"#utility.yul\":1151:1160   */\n  dup6\n    /* \"#utility.yul\":1147:1169   */\n  add\n    /* \"#utility.yul\":1115:1179   */\n  tag_26\n  jump\t// in\ntag_63:\n    /* \"#utility.yul\":1105:1179   */\n  swap2\n  pop\n    /* \"#utility.yul\":1061:1189   */\n  pop\n    /* \"#utility.yul\":845:1196   */\n  swap3\n  swap2\n  pop\n  pop\n  jump\t// out\n    /* \"#utility.yul\":1202:1301   */\ntag_27:\n    /* \"#utility.yul\":1254:1260   */\n  0x00\n    /* \"#utility.yul\":1288:1293   */\n  dup2\n    /* \"#utility.yul\":1282:1294   */\n  mload\n    /* \"#utility.yul\":1272:1294   */\n  swap1\n  pop\n    /* \"#utility.yul\":1202:1301   */\n  swap2\n  swap1\n  pop\n  jump\t// out\n    /* \"#utility.yul\":1307:1487   */\ntag_28:\n    /* \"#utility.yul\":1355:1432   */\n  0x4e487b7100000000000000000000000000000000000000000000000000000000\n    /* \"#utility.yul\":1352:1353   */\n  0x00\n    /* \"#utility.yul\":1345:1433   */\n  mstore\n    /* \"#utility.yul\":1452:1456   */\n  0x41\n    /* \"#utility.yul\":1449:1450   */\n  0x04\n    /* \"#utility.yul\":1442:1457   */\n  mstore\n    /* \"#utility.yul\":1476:1480   */\n  0x24\n    /* \"#utility.yul\":1473:1474   */\n  0x00\n    /* \"#utility.yul\":1466:1481   */\n  revert\n    /* \"#utility.yul\":1493:1673   */\ntag_29:\n    /* \"#utility.yul\":1541:1618   */\n  0x4e487b7100000000000000000000000000000000000000000000000000000000\n    /* \"#utility.yul\":1538:1539   */\n  0x00\n    /* \"#utility.yul\":1531:1619   */\n  mstore\n    /* \"#utility.yul\":1638:1642   */\n  0x22\n    /* \"#utility.yul\":1635:1636   */\n  0x04\n    /* \"#utility.yul\":1628:1643   */\n  mstore\n    /* \"#utility.yul\":1662:1666   */\n  0x24\n    /* \"#utility.yul\":1659:1660   */\n  0x00\n    /* \"#utility.yul\":1652:1667   */\n  revert\n    /* \"#utility.yul\":1679:1999   */\ntag_30:\n    /* \"#utility.yul\":1723:1729   */\n  0x00\n    /* \"#utility.yul\":1760:1761   */\n  0x02\n    /* \"#utility.yul\":1754:1758   */\n  dup3\n    /* \"#utility.yul\":1750:1762   */\n  div\n    /* \"#utility.yul\":1740:1762   */\n  swap1\n  pop\n    /* \"#utility.yul\":1807:1808   */\n  0x01\n    /* \"#utility.yul\":1801:1805   */\n  dup3\n    /* \"#utility.yul\":1797:1809   */\n  and\n    /* \"#utility.yul\":1828:1846   */\n  dup1\n    /* \"#utility.yul\":1818:1899   */\n  tag_68\n  jumpi\n    /* \"#utility.yul\":1884:1888   */\n  0x7f\n    /* \"#utility.yul\":1876:1882   */\n  dup3\n    /* \"#utility.yul\":1872:1889   */\n  and\n    /* \"#utility.yul\":1862:1889   */\n  swap2\n  pop\n    /* \"#utility.yul\":1818:1899   */\ntag_68:\n    /* \"#utility.yul\":1946:1948   */\n  0x20\n    /* \"#utility.yul\":1938:1944   */\n  dup3\n    /* \"#utility.yul\":1935:1949   */\n  lt\n    /* \"#utility.yul\":1915:1933   */\n  dup2\n    /* \"#utility.yul\":1912:1950   */\n  sub\n    /* \"#utility.yul\":1909:1993   */\n  tag_69\n  jumpi\n    /* \"#utility.yul\":1965:1983   */\n  tag_70\n  tag_29\n  jump\t// in\ntag_70:\n    /* \"#utility.yul\":1909:1993   */\ntag_69:\n    /* \"#utility.yul\":1730:1999   */\n  pop\n    /* \"#utility.yul\":1679:1999   */\n  swap2\n  swap1\n  pop\n  jump\t// out\n    /* \"#utility.yul\":2005:2146   */\ntag_31:\n    /* \"#utility.yul\":2054:2058   */\n  0x00\n    /* \"#utility.yul\":2077:2080   */\n  dup2\n    /* \"#utility.yul\":2069:2080   */\n  swap1\n  pop\n    /* \"#utility.yul\":2100:2103   */\n  dup2\n    /* \"#utility.yul\":2097:2098   */\n  0x00\n    /* \"#utility.yul\":2090:2104   */\n  mstore\n    /* \"#utility.yul\":2134:2138   */\n  0x20\n    /* \"#utility.yul\":2131:2132   */\n  0x00\n    /* \"#utility.yul\":2121:2139   */\n  keccak256\n    /* \"#utility.yul\":2113:2139   */\n  swap1\n  pop\n    /* \"#utility.yul\":2005:2146   */\n  swap2\n  swap1\n  pop\n  jump\t// out\n    /* \"#utility.yul\":2152:2245   */\ntag_32:\n    /* \"#utility.yul\":2189:2195   */\n  0x00\n    /* \"#utility.yul\":2236:2238   */\n  0x20\n    /* \"#utility.yul\":2231:2233   */\n  0x1f\n    /* \"#utility.yul\":2224:2229   */\n  dup4\n    /* \"#utility.yul\":2220:2234   */\n  add\n    /* \"#utility.yul\":2216:2239   */\n  div\n    /* \"#utility.yul\":2206:2239   */\n  swap1\n  pop\n    /* \"#utility.yul\":2152:2245   */\n  swap2\n  swap1\n  pop\n  jump\t// out\n    /* \"#utility.yul\":2251:2358   */\ntag_33:\n    /* \"#utility.yul\":2295:2303   */\n  0x00\n    /* \"#utility.yul\":2345:2350   */\n  dup3\n    /* \"#utility.yul\":2339:2343   */\n  dup3\n    /* \"#utility.yul\":2335:2351   */\n  shl\n    /* \"#utility.yul\":2314:2351   */\n  swap1\n  pop\n    /* \"#utility.yul\":2251:2358   */\n  swap3\n  swap2\n  pop\n  pop\n  jump\t// out\n    /* \"#utility.yul\":2364:2757   */\ntag_34:\n    /* \"#utility.yul\":2433:2439   */\n  0x00\n    /* \"#utility.yul\":2483:2484   */\n  0x08\n    /* \"#utility.yul\":2471:2481   */\n  dup4\n    /* \"#utility.yul\":2467:2485   */\n  mul\n    /* \"#utility.yul\":2506:2603   */\n  tag_75\n    /* \"#utility.yul\":2536:2602   */\n  0xffffffffffffffffffffffffffffffffffffffffffffffffffffffffffffffff\n    /* \"#utility.yul\":2525:2534   */\n  dup3\n    /* \"#utility.yul\":2506:2603   */\n  tag_33\n  jump\t// in\ntag_75:\n    /* \"#utility.yul\":2624:2663   */\n  tag_76\n    /* \"#utility.yul\":2654:2662   */\n  dup7\n    /* \"#utility.yul\":2643:2652   */\n  dup4\n    /* \"#utility.yul\":2624:2663   */\n  tag_33\n  jump\t// in\ntag_76:\n    /* \"#utility.yul\":2612:2663   */\n  swap6\n  pop\n    /* \"#utility.yul\":2696:2700   */\n  dup1\n    /* \"#utility.yul\":2692:2701   */\n  not\n    /* \"#utility.yul\":2685:2690   */\n  dup5\n    /* \"#utility.yul\":2681:2702   */\n  and\n    /* \"#utility.yul\":2672:2702   */\n  swap4\n  pop\n    /* \"#utility.yul\":2745:2749   */\n  dup1\n    /* \"#utility.yul\":2735:2743   */\n  dup7\n    /* \"#utility.yul\":2731:2750   */\n  and\n    /* \"#utility.yul\":2724:2729   */\n  dup5\n    /* \"#utility.yul\":2721:2751   */\n  or\n    /* \"#utility.yul\":2711:2751   */\n  swap3\n  pop\n    /* \"#utility.yul\":2440:2757   */\n  pop\n  pop\n    /* \"#utility.yul\":2364:2757   */\n  swap4\n  swap3\n  pop\n  pop\n  pop\n  jump\t// out\n    /* \"#utility.yul\":2763:2840   */\ntag_35:\n    /* \"#utility.yul\":2800:2807   */\n  0x00\n    /* \"#utility.yul\":2829:2834   */\n  dup2\n    /* \"#utility.yul\":2818:2834   */\n  swap1\n  pop\n    /* \"#utility.yul\":2763:2840   */\n  swap2\n  swap1\n  pop\n  jump\t// out\n    /* \"#utility.yul\":2846:2906   */\ntag_36:\n    /* \"#utility.yul\":2874:2877   */\n  0x00\n    /* \"#utility.yul\":2895:2900   */\n  dup2\n    /* \"#utility.yul\":2888:2900   */\n  swap1\n  pop\n    /* \"#utility.yul\":2846:2906   */\n  swap2\n  swap1\n  pop\n  jump\t// out\n    /* \"#utility.yul\":2912:3054   */\ntag_37:\n    /* \"#utility.yul\":2962:2971   */\n  0x00\n    /* \"#utility.yul\":2995:3048   */\n  tag_80\n    /* \"#utility.yul\":3013:3047   */\n  tag_81\n    /* \"#utility.yul\":3022:3046   */\n  tag_82\n    /* \"#utility.yul\":3040:3045   */\n  dup5\n    /* \"#utility.yul\":3022:3046   */\n  tag_35\n  jump\t// in\ntag_82:\n    /* \"#utility.yul\":3013:3047   */\n  tag_36\n  jump\t// in\ntag_81:\n    /* \"#utility.yul\":2995:3048   */\n  tag_35\n  jump\t// in\ntag_80:\n    /* \"#utility.yul\":2982:3048   */\n  swap1\n  pop\n    /* \"#utility.yul\":2912:3054   */\n  swap2\n  swap1\n  pop\n  jump\t// out\n    /* \"#utility.yul\":3060:3135   */\ntag_38:\n    /* \"#utility.yul\":3103:3106   */\n  0x00\n    /* \"#utility.yul\":3124:3129   */\n  dup2\n    /* \"#utility.yul\":3117:3129   */\n  swap1\n  pop\n    /* \"#utility.yul\":3060:3135   */\n  swap2\n  swap1\n  pop\n  jump\t// out\n    /* \"#utility.yul\":3141:3410   */\ntag_39:\n    /* \"#utility.yul\":3251:3290   */\n  tag_85\n    /* \"#utility.yul\":3282:3289   */\n  dup4\n    /* \"#utility.yul\":3251:3290   */\n  tag_37\n  jump\t// in\ntag_85:\n    /* \"#utility.yul\":3312:3403   */\n  tag_86\n    /* \"#utility.yul\":3361:3402   */\n  tag_87\n    /* \"#utility.yul\":3385:3401   */\n  dup3\n    /* \"#utility.yul\":3361:3402   */\n  tag_38\n  jump\t// in\ntag_87:\n    /* \"#utility.yul\":3353:3359   */\n  dup5\n    /* \"#utility.yul\":3346:3350   */\n  dup5\n    /* \"#utility.yul\":3340:3351   */\n  sload\n    /* \"#utility.yul\":3312:3403   */\n  tag_34\n  jump\t// in\ntag_86:\n    /* \"#utility.yul\":3306:3310   */\n  dup3\n    /* \"#utility.yul\":3299:3404   */\n  sstore\n    /* \"#utility.yul\":3217:3410   */\n  pop\n    /* \"#utility.yul\":3141:3410   */\n  pop\n  pop\n  pop\n  jump\t// out\n    /* \"#utility.yul\":3416:3489   */\ntag_40:\n    /* \"#utility.yul\":3461:3464   */\n  0x00\n    /* \"#utility.yul\":3416:3489   */\n  swap1\n  jump\t// out\n    /* \"#utility.yul\":3495:3684   */\ntag_41:\n    /* \"#utility.yul\":3572:3604   */\n  tag_90\n  tag_40\n  jump\t// in\ntag_90:\n    /* \"#utility.yul\":3613:3678   */\n  tag_91\n    /* \"#utility.yul\":3671:3677   */\n  dup2\n    /* \"#utility.yul\":3663:3669   */\n  dup5\n    /* \"#utility.yul\":3657:3661   */\n  dup5\n    /* \"#utility.yul\":3613:3678   */\n  tag_39\n  jump\t// in\ntag_91:\n    /* \"#utility.yul\":3548:3684   */\n  pop\n    /* \"#utility.yul\":3495:3684   */\n  pop\n  pop\n  jump\t// out\n    /* \"#utility.yul\":3690:3876   */\ntag_42:\n    /* \"#utility.yul\":3750:3870   */\ntag_93:\n    /* \"#utility.yul\":3767:3770   */\n  dup2\n    /* \"#utility.yul\":3760:3765   */\n  dup2\n    /* \"#utility.yul\":3757:3771   */\n  lt\n    /* \"#utility.yul\":3750:3870   */\n  iszero\n  tag_95\n  jumpi\n    /* \"#utility.yul\":3821:3860   */\n  tag_96\n    /* \"#utility.yul\":3858:3859   */\n  0x00\n    /* \"#utility.yul\":3851:3856   */\n  dup3\n    /* \"#utility.yul\":3821:3860   */\n  tag_41\n  jump\t// in\ntag_96:\n    /* \"#utility.yul\":3794:3795   */\n  0x01\n    /* \"#utility.yul\":3787:3792   */\n  dup2\n    /* \"#utility.yul\":3783:3796   */\n  add\n    /* \"#utility.yul\":3774:3796   */\n  swap1\n  pop\n    /* \"#utility.yul\":3750:3870   */\n  jump(tag_93)\ntag_95:\n    /* \"#utility.yul\":3690:3876   */\n  pop\n  pop\n  jump\t// out\n    /* \"#utility.yul\":3882:4425   */\ntag_43:\n    /* \"#utility.yul\":3983:3985   */\n  0x1f\n    /* \"#utility.yul\":3978:3981   */\n  dup3\n    /* \"#utility.yul\":3975:3986   */\n  gt\n    /* \"#utility.yul\":3972:4418   */\n  iszero\n  tag_98\n  jumpi\n    /* \"#utility.yul\":4017:4055   */\n  tag_99\n    /* \"#utility.yul\":4049:4054   */\n  dup2\n    /* \"#utility.yul\":4017:4055   */\n  tag_31\n  jump\t// in\ntag_99:\n    /* \"#utility.yul\":4101:4130   */\n  tag_100\n    /* \"#utility.yul\":4119:4129   */\n  dup5\n    /* \"#utility.yul\":4101:4130   */\n  tag_32\n  jump\t// in\ntag_100:\n    /* \"#utility.yul\":4091:4099   */\n  dup2\n    /* \"#utility.yul\":4087:4131   */\n  add\n    /* \"#utility.yul\":4284:4286   */\n  0x20\n    /* \"#utility.yul\":4272:4282   */\n  dup6\n    /* \"#utility.yul\":4269:4287   */\n  lt\n    /* \"#utility.yul\":4266:4315   */\n  iszero\n  tag_101\n  jumpi\n    /* \"#utility.yul\":4305:4313   */\n  dup2\n    /* \"#utility.yul\":4290:4313   */\n  swap1\n  pop\n    /* \"#utility.yul\":4266:4315   */\ntag_101:\n    /* \"#utility.yul\":4328:4408   */\n  tag_102\n    /* \"#utility.yul\":4384:4406   */\n  tag_103\n    /* \"#utility.yul\":4402:4405   */\n  dup6\n    /* \"#utility.yul\":4384:4406   */\n  tag_32\n  jump\t// in\ntag_103:\n    /* \"#utility.yul\":4374:4382   */\n  dup4\n    /* \"#utility.yul\":4370:4407   */\n  add\n    /* \"#utility.yul\":4357:4368   */\n  dup3\n    /* \"#utility.yul\":4328:4408   */\n  tag_42\n  jump\t// in\ntag_102:\n    /* \"#utility.yul\":3987:4418   */\n  pop\n  pop\n    /* \"#utility.yul\":3972:4418   */\ntag_98:\n    /* \"#utility.yul\":3882:4425   */\n  pop\n  pop\n  pop\n  jump\t// out\n    /* \"#utility.yul\":4431:4548   */\ntag_44:\n    /* \"#utility.yul\":4485:4493   */\n  0x00\n    /* \"#utility.yul\":4535:4540   */\n  dup3\n    /* \"#utility.yul\":4529:4533   */\n  dup3\n    /* \"#utility.yul\":4525:4541   */\n  shr\n    /* \"#utility.yul\":4504:4541   */\n  swap1\n  pop\n    /* \"#utility.yul\":4431:4548   */\n  swap3\n  swap2\n  pop\n  pop\n  jump\t// out\n    /* \"#utility.yul\":4554:4723   */\ntag_45:\n    /* \"#utility.yul\":4598:4604   */\n  0x00\n    /* \"#utility.yul\":4631:4682   */\n  tag_106\n    /* \"#utility.yul\":4679:4680   */\n  0x00\n    /* \"#utility.yul\":4675:4681   */\n  not\n    /* \"#utility.yul\":4667:4672   */\n  dup5\n    /* \"#utility.yul\":4664:4665   */\n  0x08\n    /* \"#utility.yul\":4660:4673   */\n  mul\n    /* \"#utility.yul\":4631:4682   */\n  tag_44\n  jump\t// in\ntag_106:\n    /* \"#utility.yul\":4627:4683   */\n  not\n    /* \"#utility.yul\":4712:4716   */\n  dup1\n    /* \"#utility.yul\":4706:4710   */\n  dup4\n    /* \"#utility.yul\":4702:4717   */\n  and\n    /* \"#utility.yul\":4692:4717   */\n  swap2\n  pop\n    /* \"#utility.yul\":4605:4723   */\n  pop\n    /* \"#utility.yul\":4554:4723   */\n  swap3\n  swap2\n  pop\n  pop\n  jump\t// out\n    /* \"#utility.yul\":4728:5023   */\ntag_46:\n    /* \"#utility.yul\":4804:4808   */\n  0x00\n    /* \"#utility.yul\":4950:4979   */\n  tag_108\n    /* \"#utility.yul\":4975:4978   */\n  dup4\n    /* \"#utility.yul\":4969:4973   */\n  dup4\n    /* \"#utility.yul\":4950:4979   */\n  tag_45\n  jump\t// in\ntag_108:\n    /* \"#utility.yul\":4942:4979   */\n  swap2\n  pop\n    /* \"#utility.yul\":5012:5015   */\n  dup3\n    /* \"#utility.yul\":5009:5010   */\n  0x02\n    /* \"#utility.yul\":5005:5016   */\n  mul\n    /* \"#utility.yul\":4999:5003   */\n  dup3\n    /* \"#utility.yul\":4996:5017   */\n  or\n    /* \"#utility.yul\":4988:5017   */\n  swap1\n  pop\n    /* \"#utility.yul\":4728:5023   */\n  swap3\n  swap2\n  pop\n  pop\n  jump\t// out\n    /* \"#utility.yul\":5028:6423   */\ntag_9:\n    /* \"#utility.yul\":5145:5182   */\n  tag_110\n    /* \"#utility.yul\":5178:5181   */\n  dup3\n    /* \"#utility.yul\":5145:5182   */\n  tag_27\n  jump\t// in\ntag_110:\n    /* \"#utility.yul\":5247:5265   */\n  0xffffffffffffffff\n    /* \"#utility.yul\":5239:5245   */\n  dup2\n    /* \"#utility.yul\":5236:5266   */\n  gt\n    /* \"#utility.yul\":5233:5289   */\n  iszero\n  tag_111\n  jumpi\n    /* \"#utility.yul\":5269:5287   */\n  tag_112\n  tag_28\n  jump\t// in\ntag_112:\n    /* \"#utility.yul\":5233:5289   */\ntag_111:\n    /* \"#utility.yul\":5313:5351   */\n  tag_113\n    /* \"#utility.yul\":5345:5349   */\n  dup3\n    /* \"#utility.yul\":5339:5350   */\n  sload\n    /* \"#utility.yul\":5313:5351   */\n  tag_30\n  jump\t// in\ntag_113:\n    /* \"#utility.yul\":5398:5465   */\n  tag_114\n    /* \"#utility.yul\":5458:5464   */\n  dup3\n    /* \"#utility.yul\":5450:5456   */\n  dup3\n    /* \"#utility.yul\":5444:5448   */\n  dup6\n    /* \"#utility.yul\":5398:5465   */\n  tag_43\n  jump\t// in\ntag_114:\n    /* \"#utility.yul\":5492:5493   */\n  0x00\n    /* \"#utility.yul\":5516:5520   */\n  0x20\n    /* \"#utility.yul\":5503:5520   */\n  swap1\n  pop\n    /* \"#utility.yul\":5548:5550   */\n  0x1f\n    /* \"#utility.yul\":5540:5546   */\n  dup4\n    /* \"#utility.yul\":5537:5551   */\n  gt\n    /* \"#utility.yul\":5565:5566   */\n  0x01\n    /* \"#utility.yul\":5560:6178   */\n  dup2\n  eq\n  tag_116\n  jumpi\n    /* \"#utility.yul\":6222:6223   */\n  0x00\n    /* \"#utility.yul\":6239:6245   */\n  dup5\n    /* \"#utility.yul\":6236:6313   */\n  iszero\n  tag_117\n  jumpi\n    /* \"#utility.yul\":6288:6297   */\n  dup3\n    /* \"#utility.yul\":6283:6286   */\n  dup8\n    /* \"#utility.yul\":6279:6298   */\n  add\n    /* \"#utility.yul\":6273:6299   */\n  mload\n    /* \"#utility.yul\":6264:6299   */\n  swap1\n  pop\n    /* \"#utility.yul\":6236:6313   */\ntag_117:\n    /* \"#utility.yul\":6339:6406   */\n  tag_118\n    /* \"#utility.yul\":6399:6405   */\n  dup6\n    /* \"#utility.yul\":6392:6397   */\n  dup3\n    /* \"#utility.yul\":6339:6406   */\n  tag_46\n  jump\t// in\ntag_118:\n    /* \"#utility.yul\":6333:6337   */\n  dup7\n    /* \"#utility.yul\":6326:6407   */\n  sstore\n    /* \"#utility.yul\":6195:6417   */\n  pop\n    /* \"#utility.yul\":5530:6417   */\n  jump(tag_115)\n    /* \"#utility.yul\":5560:6178   */\ntag_116:\n    /* \"#utility.yul\":5612:5616   */\n  0x1f\n    /* \"#utility.yul\":5608:5617   */\n  not\n    /* \"#utility.yul\":5600:5606   */\n  dup5\n    /* \"#utility.yul\":5596:5618   */\n  and\n    /* \"#utility.yul\":5646:5683   */\n  tag_119\n    /* \"#utility.yul\":5678:5682   */\n  dup7\n    /* \"#utility.yul\":5646:5683   */\n  tag_31\n  jump\t// in\ntag_119:\n    /* \"#utility.yul\":5705:5706   */\n  0x00\n    /* \"#utility.yul\":5719:5927   */\ntag_120:\n    /* \"#utility.yul\":5733:5740   */\n  dup3\n    /* \"#utility.yul\":5730:5731   */\n  dup2\n    /* \"#utility.yul\":5727:5741   */\n  lt\n    /* \"#utility.yul\":5719:5927   */\n  iszero\n  tag_122\n  jumpi\n    /* \"#utility.yul\":5812:5821   */\n  dup5\n    /* \"#utility.yul\":5807:5810   */\n  dup10\n    /* \"#utility.yul\":5803:5822   */\n  add\n    /* \"#utility.yul\":5797:5823   */\n  mload\n    /* \"#utility.yul\":5789:5795   */\n  dup3\n    /* \"#utility.yul\":5782:5824   */\n  sstore\n    /* \"#utility.yul\":5863:5864   */\n  0x01\n    /* \"#utility.yul\":5855:5861   */\n  dup3\n    /* \"#utility.yul\":5851:5865   */\n  add\n    /* \"#utility.yul\":5841:5865   */\n  swap2\n  pop\n    /* \"#utility.yul\":5910:5912   */\n  0x20\n    /* \"#utility.yul\":5899:5908   */\n  dup6\n    /* \"#utility.yul\":5895:5913   */\n  add\n    /* \"#utility.yul\":5882:5913   */\n  swap5\n  pop\n    /* \"#utility.yul\":5756:5760   */\n  0x20\n    /* \"#utility.yul\":5753:5754   */\n  dup2\n    /* \"#utility.yul\":5749:5761   */\n  add\n    /* \"#utility.yul\":5744:5761   */\n  swap1\n  pop\n    /* \"#utility.yul\":5719:5927   */\n  jump(tag_120)\ntag_122:\n    /* \"#utility.yul\":5955:5961   */\n  dup7\n    /* \"#utility.yul\":5946:5953   */\n  dup4\n    /* \"#utility.yul\":5943:5962   */\n  lt\n    /* \"#utility.yul\":5940:6119   */\n  iszero\n  tag_123\n  jumpi\n    /* \"#utility.yul\":6013:6022   */\n  dup5\n    /* \"#utility.yul\":6008:6011   */\n  dup10\n    /* \"#utility.yul\":6004:6023   */\n  add\n    /* \"#utility.yul\":5998:6024   */\n  mload\n    /* \"#utility.yul\":6056:6104   */\n  tag_124\n    /* \"#utility.yul\":6098:6102   */\n  0x1f\n    /* \"#utility.yul\":6090:6096   */\n  dup10\n    /* \"#utility.yul\":6086:6103   */\n  and\n    /* \"#utility.yul\":6075:6084   */\n  dup3\n    /* \"#utility.yul\":6056:6104   */\n  tag_45\n  jump\t// in\ntag_124:\n    /* \"#utility.yul\":6048:6054   */\n  dup4\n    /* \"#utility.yul\":6041:6105   */\n  sstore\n    /* \"#utility.yul\":5963:6119   */\n  pop\n    /* \"#utility.yul\":5940:6119   */\ntag_123:\n    /* \"#utility.yul\":6165:6166   */\n  0x01\n    /* \"#utility.yul\":6161:6162   */\n  0x02\n    /* \"#utility.yul\":6153:6159   */\n  dup9\n    /* \"#utility.yul\":6149:6163   */\n  mul\n    /* \"#utility.yul\":6145:6167   */\n  add\n    /* \"#utility.yul\":6139:6143   */\n  dup9\n    /* \"#utility.yul\":6132:6168   */\n  sstore\n    /* \"#utility.yul\":5567:6178   */\n  pop\n  pop\n  pop\n    /* \"#utility.yul\":5530:6417   */\ntag_115:\n  pop\n    /* \"#utility.yul\":5120:6423   */\n  pop\n  pop\n  pop\n    /* \"#utility.yul\":5028:6423   */\n  pop\n  pop\n  jump\t// out\n    /* \"#utility.yul\":6429:6547   */\ntag_47:\n    /* \"#utility.yul\":6516:6540   */\n  tag_126\n    /* \"#utility.yul\":6534:6539   */\n  dup2\n    /* \"#utility.yul\":6516:6540   */\n  tag_24\n  jump\t// in\ntag_126:\n    /* \"#utility.yul\":6511:6514   */\n  dup3\n    /* \"#utility.yul\":6504:6541   */\n  mstore\n    /* \"#utility.yul\":6429:6547   */\n  pop\n  pop\n  jump\t// out\n    /* \"#utility.yul\":6553:6775   */\ntag_14:\n    /* \"#utility.yul\":6646:6650   */\n  0x00\n    /* \"#utility.yul\":6684:6686   */\n  0x20\n    /* \"#utility.yul\":6673:6682   */\n  dup3\n    /* \"#utility.yul\":6669:6687   */\n  add\n    /* \"#utility.yul\":6661:6687   */\n  swap1\n  pop\n    /* \"#utility.yul\":6697:6768   */\n  tag_128\n    /* \"#utility.yul\":6765:6766   */\n  0x00\n    /* \"#utility.yul\":6754:6763   */\n  dup4\n    /* \"#utility.yul\":6750:6767   */\n  add\n    /* \"#utility.yul\":6741:6747   */\n  dup5\n    /* \"#utility.yul\":6697:6768   */\n  tag_47\n  jump\t// in\ntag_128:\n    /* \"#utility.yul\":6553:6775   */\n  swap3\n  swap2\n  pop\n  pop\n  jump\t// out\n    /* \"Pieces.sol\":194:478  contract PieceToken is ERC721, Ownable {... */\ntag_18:\n  dataSize(sub_0)\n  dup1\n  dataOffset(sub_0)\n  0x00\n  codecopy\n  0x00\n  return\nstop\n\nsub_0: assembly {\n        /* \"Pieces.sol\":194:478  contract PieceToken is ERC721, Ownable {... */\n      mstore(0x40, 0x80)\n      callvalue\n      dup1\n      iszero\n      tag_1\n      jumpi\n      0x00\n      dup1\n      revert\n    tag_1:\n      pop\n      jumpi(tag_2, lt(calldatasize, 0x04))\n      shr(0xe0, calldataload(0x00))\n      dup1\n      0x715018a6\n      gt\n      tag_19\n      jumpi\n      dup1\n      0xb88d4fde\n      gt\n      tag_20\n      jumpi\n      dup1\n      0xb88d4fde\n      eq\n      tag_15\n      jumpi\n      dup1\n      0xc87b56dd\n      eq\n      tag_16\n      jumpi\n      dup1\n      0xe985e9c5\n      eq\n      tag_17\n      jumpi\n      dup1\n      0xf2fde38b\n      eq\n      tag_18\n      jumpi\n      jump(tag_2)\n    tag_20:\n      dup1\n      0x715018a6\n      eq\n      tag_11\n      jumpi\n      dup1\n      0x8da5cb5b\n      eq\n      tag_12\n      jumpi\n      dup1\n      0x95d89b41\n      eq\n      tag_13\n      jumpi\n      dup1\n      0xa22cb465\n      eq\n      tag_14\n      jumpi\n      jump(tag_2)\n    tag_19:\n      dup1\n      0x23b872dd\n      gt\n      tag_21\n      jumpi\n      dup1\n      0x23b872dd\n      eq\n      tag_7\n      jumpi\n      dup1\n      0x42842e0e\n      eq\n      tag_8\n      jumpi\n      dup1\n      0x6352211e\n      eq\n      tag_9\n      jumpi\n      dup1\n      0x70a08231\n      eq\n      tag_10\n      jumpi\n      jump(tag_2)\n    tag_21:\n      dup1\n      0x01ffc9a7\n      eq\n      tag_3\n      jumpi\n      dup1\n      0x06fdde03\n      eq\n      tag_4\n      jumpi\n      dup1\n      0x081812fc\n      eq\n      tag_5\n      jumpi\n      dup1\n      0x095ea7b3\n      eq\n      tag_6\n      jumpi\n    tag_2:\n      0x00\n      dup1\n      revert\n        /* \"openzeppelin-contracts/contracts/token/ERC721/ERC721.sol\":1607:1912  function supportsInterface(bytes4 interfaceId) public view virtual override(ERC165, IERC165) returns (bool) {... */\n    tag_3:\n      tag_22\n      0x04\n      dup1\n      calldatasize\n      sub\n      dup2\n      add\n      swap1\n      tag_23\n      swap2\n      swap1\n      tag_24\n      jump\t// in\n    tag_23:\n      tag_25\n      jump\t// in\n    tag_22:\n      mload(0x40)\n      tag_26\n      swap2\n      swap1\n      tag_27\n      jump\t// in\n    tag_26:\n      mload(0x40)\n      dup1\n      swap2\n      sub\n      swap1\n      return\n        /* \"openzeppelin-contracts/contracts/token/ERC721/ERC721.sol\":2438:2529  function name() public view virtual returns (string memory) {... */\n    tag_4:\n      tag_28\n      tag_29\n      jump\t// in\n    tag_28:\n      mload(0x40)\n      tag_30\n      swap2\n      swap1\n      tag_31\n      jump\t// in\n    tag_30:\n      mload(0x40)\n      dup1\n      swap2\n      sub\n      swap1\n      return\n        /* \"openzeppelin-contracts/contracts/token/ERC721/ERC721.sol\":3610:3768  function getApproved(uint256 tokenId) public view virtual returns (address) {... */\n    tag_5:\n      tag_32\n      0x04\n      dup1\n      calldatasize\n      sub\n      dup2\n      add\n      swap1\n      tag_33\n      swap2\n      swap1\n      tag_34\n      jump\t// in\n    tag_33:\n      tag_35\n      jump\t// in\n    tag_32:\n      mload(0x40)\n      tag_36\n      swap2\n      swap1\n      tag_37\n      jump\t// in\n    tag_36:\n      mload(0x40)\n      dup1\n      swap2\n      sub\n      swap1\n      return\n        /* \"openzeppelin-contracts/contracts/token/ERC721/ERC721.sol\":3429:3544  function approve(address to, uint256 tokenId) public virtual {... */\n    tag_6:\n      tag_38\n      0x04\n      dup1\n      calldatasize\n      sub\n      dup2\n      add\n      swap1\n      tag_39\n      swap2\n      swap1\n      tag_40\n      jump\t// in\n    tag_39:\n      tag_41\n      jump\t// in\n    tag_38:\n      stop\n        /* \"openzeppelin-contracts/contracts/token/ERC721/ERC721.sol\":4279:4867  function transferFrom(address from, address to, uint256 tokenId) public virtual {... */\n    tag_7:\n      tag_42\n      0x04\n      dup1\n      calldatasize\n      sub\n      dup2\n      add\n      swap1\n      tag_43\n      swap2\n      swap1\n      tag_44\n      jump\t// in\n    tag_43:\n      tag_45\n      jump\t// in\n    tag_42:\n      stop\n        /* \"openzeppelin-contracts/contracts/token/ERC721/ERC721.sol\":4938:5072  function safeTransferFrom(address from, address to, uint256 tokenId) public {... */\n    tag_8:\n      tag_46\n      0x04\n      dup1\n      calldatasize\n      sub\n      dup2\n      add\n      swap1\n      tag_47\n      swap2\n      swap1\n      tag_44\n      jump\t// in\n    tag_47:\n      tag_48\n      jump\t// in\n    tag_46:\n      stop\n        /* \"openzeppelin-contracts/contracts/token/ERC721/ERC721.sol\":2251:2371  function ownerOf(uint256 tokenId) public view virtual returns (address) {... */\n    tag_9:\n      tag_49\n      0x04\n      dup1\n      calldatasize\n      sub\n      dup2\n      add\n      swap1\n      tag_50\n      swap2\n      swap1\n      tag_34\n      jump\t// in\n    tag_50:\n      tag_51\n      jump\t// in\n    tag_49:\n      mload(0x40)\n      tag_52\n      swap2\n      swap1\n      tag_37\n      jump\t// in\n    tag_52:\n      mload(0x40)\n      dup1\n      swap2\n      sub\n      swap1\n      return\n        /* \"openzeppelin-contracts/contracts/token/ERC721/ERC721.sol\":1976:2189  function balanceOf(address owner) public view virtual returns (uint256) {... */\n    tag_10:\n      tag_53\n      0x04\n      dup1\n      calldatasize\n      sub\n      dup2\n      add\n      swap1\n      tag_54\n      swap2\n      swap1\n      tag_55\n      jump\t// in\n    tag_54:\n      tag_56\n      jump\t// in\n    tag_53:\n      mload(0x40)\n      tag_57\n      swap2\n      swap1\n      tag_58\n      jump\t// in\n    tag_57:\n      mload(0x40)\n      dup1\n      swap2\n      sub\n      swap1\n      return\n        /* \"openzeppelin-contracts/contracts/access/Ownable.sol\":2368:2471  function renounceOwnership() public virtual onlyOwner {... */\n    tag_11:\n      tag_59\n      tag_60\n      jump\t// in\n    tag_59:\n      stop\n        /* \"openzeppelin-contracts/contracts/access/Ownable.sol\":1693:1780  function owner() public view virtual returns (address) {... */\n    tag_12:\n      tag_61\n      tag_62\n      jump\t// in\n    tag_61:\n      mload(0x40)\n      tag_63\n      swap2\n      swap1\n      tag_37\n      jump\t// in\n    tag_63:\n      mload(0x40)\n      dup1\n      swap2\n      sub\n      swap1\n      return\n        /* \"openzeppelin-contracts/contracts/token/ERC721/ERC721.sol\":2598:2693  function symbol() public view virtual returns (string memory) {... */\n    tag_13:\n      tag_64\n      tag_65\n      jump\t// in\n    tag_64:\n      mload(0x40)\n      tag_66\n      swap2\n      swap1\n      tag_31\n      jump\t// in\n    tag_66:\n      mload(0x40)\n      dup1\n      swap2\n      sub\n      swap1\n      return\n        /* \"openzeppelin-contracts/contracts/token/ERC721/ERC721.sol\":3840:3986  function setApprovalForAll(address operator, bool approved) public virtual {... */\n    tag_14:\n      tag_67\n      0x04\n      dup1\n      calldatasize\n      sub\n      dup2\n      add\n      swap1\n      tag_68\n      swap2\n      swap1\n      tag_69\n      jump\t// in\n    tag_68:\n      tag_70\n      jump\t// in\n    tag_67:\n      stop\n        /* \"openzeppelin-contracts/contracts/token/ERC721/ERC721.sol\":5143:5354  function safeTransferFrom(address from, address to, uint256 tokenId, bytes memory data) public virtual {... */\n    tag_15:\n      tag_71\n      0x04\n      dup1\n      calldatasize\n      sub\n      dup2\n      add\n      swap1\n      tag_72\n      swap2\n      swap1\n      tag_73\n      jump\t// in\n    tag_72:\n      tag_74\n      jump\t// in\n    tag_71:\n      stop\n        /* \"openzeppelin-contracts/contracts/token/ERC721/ERC721.sol\":2764:3024  function tokenURI(uint256 tokenId) public view virtual returns (string memory) {... */\n    tag_16:\n      tag_75\n      0x04\n      dup1\n      calldatasize\n      sub\n      dup2\n      add\n      swap1\n      tag_76\n      swap2\n      swap1\n      tag_34\n      jump\t// in\n    tag_76:\n      tag_77\n      jump\t// in\n    tag_75:\n      mload(0x40)\n      tag_78\n      swap2\n      swap1\n      tag_31\n      jump\t// in\n    tag_78:\n      mload(0x40)\n      dup1\n      swap2\n      sub\n      swap1\n      return\n        /* \"openzeppelin-contracts/contracts/token/ERC721/ERC721.sol\":4057:4212  function isApprovedForAll(address owner, address operator) public view virtual returns (bool) {... */\n    tag_17:\n      tag_79\n      0x04\n      dup1\n      calldatasize\n      sub\n      dup2\n      add\n      swap1\n      tag_80\n      swap2\n      swap1\n      tag_81\n      jump\t// in\n    tag_80:\n      tag_82\n      jump\t// in\n    tag_79:\n      mload(0x40)\n      tag_83\n      swap2\n      swap1\n      tag_27\n      jump\t// in\n    tag_83:\n      mload(0x40)\n      dup1\n      swap2\n      sub\n      swap1\n      return\n        /* \"openzeppelin-contracts/contracts/access/Ownable.sol\":2626:2846  function transferOwnership(address newOwner) public virtual onlyOwner {... */\n    tag_18:\n      tag_84\n      0x04\n      dup1\n      calldatasize\n      sub\n      dup2\n      add\n      swap1\n      tag_85\n      swap2\n      swap1\n      tag_55\n      jump\t// in\n    tag_85:\n      tag_86\n      jump\t// in\n    tag_84:\n      stop\n        /* \"openzeppelin-contracts/contracts/token/ERC721/ERC721.sol\":1607:1912  function supportsInterface(bytes4 interfaceId) public view virtual override(ERC165, IERC165) returns (bool) {... */\n    tag_25:\n        /* \"openzeppelin-contracts/contracts/token/ERC721/ERC721.sol\":1709:1713  bool */\n      0x00\n        /* \"openzeppelin-contracts/contracts/token/ERC721/ERC721.sol\":1761:1786  type(IERC721).interfaceId */\n      0x80ac58cd00000000000000000000000000000000000000000000000000000000\n        /* \"openzeppelin-contracts/contracts/token/ERC721/ERC721.sol\":1746:1786  interfaceId == type(IERC721).interfaceId */\n      not(0xffffffffffffffffffffffffffffffffffffffffffffffffffffffff)\n      and\n        /* \"openzeppelin-contracts/contracts/token/ERC721/ERC721.sol\":1746:1757  interfaceId */\n      dup3\n        /* \"openzeppelin-contracts/contracts/token/ERC721/ERC721.sol\":1746:1786  interfaceId == type(IERC721).interfaceId */\n      not(0xffffffffffffffffffffffffffffffffffffffffffffffffffffffff)\n      and\n      eq\n        /* \"openzeppelin-contracts/contracts/token/ERC721/ERC721.sol\":1746:1851  interfaceId == type(IERC721).interfaceId ||... */\n      dup1\n      tag_88\n      jumpi\n      pop\n        /* \"openzeppelin-contracts/contracts/token/ERC721/ERC721.sol\":1818:1851  type(IERC721Metadata).interfaceId */\n      0x5b5e139f00000000000000000000000000000000000000000000000000000000\n        /* \"openzeppelin-contracts/contracts/token/ERC721/ERC721.sol\":1803:1851  interfaceId == type(IERC721Metadata).interfaceId */\n      not(0xffffffffffffffffffffffffffffffffffffffffffffffffffffffff)\n      and\n        /* \"openzeppelin-contracts/contracts/token/ERC721/ERC721.sol\":1803:1814  interfaceId */\n      dup3\n        /* \"openzeppelin-contracts/contracts/token/ERC721/ERC721.sol\":1803:1851  interfaceId == type(IERC721Metadata).interfaceId */\n      not(0xffffffffffffffffffffffffffffffffffffffffffffffffffffffff)\n      and\n      eq\n        /* \"openzeppelin-contracts/contracts/token/ERC721/ERC721.sol\":1746:1851  interfaceId == type(IERC721).interfaceId ||... */\n    tag_88:\n        /* \"openzeppelin-contracts/contracts/token/ERC721/ERC721.sol\":1746:1904  interfaceId == type(IERC721).interfaceId ||... */\n      dup1\n      tag_89\n      jumpi\n      pop\n        /* \"openzeppelin-contracts/contracts/token/ERC721/ERC721.sol\":1868:1904  super.supportsInterface(interfaceId) */\n      tag_90\n        /* \"openzeppelin-contracts/contracts/token/ERC721/ERC721.sol\":1892:1903  interfaceId */\n      dup3\n        /* \"openzeppelin-contracts/contracts/token/ERC721/ERC721.sol\":1868:1891  super.supportsInterface */\n      tag_91\n        /* \"openzeppelin-contracts/contracts/token/ERC721/ERC721.sol\":1868:1904  super.supportsInterface(interfaceId) */\n      jump\t// in\n    tag_90:\n        /* \"openzeppelin-contracts/contracts/token/ERC721/ERC721.sol\":1746:1904  interfaceId == type(IERC721).interfaceId ||... */\n    tag_89:\n        /* \"openzeppelin-contracts/contracts/token/ERC721/ERC721.sol\":1726:1904  return... */\n      swap1\n      pop\n        /* \"openzeppelin-contracts/contracts/token/ERC721/ERC721.sol\":1607:1912  function supportsInterface(bytes4 interfaceId) public view virtual override(ERC165, IERC165) returns (bool) {... */\n      swap2\n      swap1\n      pop\n      jump\t// out\n        /* \"openzeppelin-contracts/contracts/token/ERC721/ERC721.sol\":2438:2529  function name() public view virtual returns (string memory) {... */\n    tag_29:\n        /* \"openzeppelin-contracts/contracts/token/ERC721/ERC721.sol\":2483:2496  string memory */\n      0x60\n        /* \"openzeppelin-contracts/contracts/token/ERC721/ERC721.sol\":2516:2521  _name */\n      0x00\n        /* \"openzeppelin-contracts/contracts/token/ERC721/ERC721.sol\":2509:2521  return _name */\n      dup1\n      sload\n      tag_93\n      swap1\n      tag_94\n      jump\t// in\n    tag_93:\n      dup1\n      0x1f\n      add\n      0x20\n      dup1\n      swap2\n      div\n      mul\n      0x20\n      add\n      mload(0x40)\n      swap1\n      dup2\n      add\n      0x40\n      mstore\n      dup1\n      swap3\n      swap2\n      swap1\n      dup2\n      dup2\n      mstore\n      0x20\n      add\n      dup3\n      dup1\n      sload\n      tag_95\n      swap1\n      tag_94\n      jump\t// in\n    tag_95:\n      dup1\n      iszero\n      tag_96\n      jumpi\n      dup1\n      0x1f\n      lt\n      tag_97\n      jumpi\n      0x0100\n      dup1\n      dup4\n      sload\n      div\n      mul\n      dup4\n      mstore\n      swap2\n      0x20\n      add\n      swap2\n      jump(tag_96)\n    tag_97:\n      dup3\n      add\n      swap2\n      swap1\n      0x00\n      mstore\n      keccak256(0x00, 0x20)\n      swap1\n    tag_98:\n      dup2\n      sload\n      dup2\n      mstore\n      swap1\n      0x01\n      add\n      swap1\n      0x20\n      add\n      dup1\n      dup4\n      gt\n      tag_98\n      jumpi\n      dup3\n      swap1\n      sub\n      0x1f\n      and\n      dup3\n      add\n      swap2\n    tag_96:\n      pop\n      pop\n      pop\n      pop\n      pop\n      swap1\n      pop\n        /* \"openzeppelin-contracts/contracts/token/ERC721/ERC721.sol\":2438:2529  function name() public view virtual returns (string memory) {... */\n      swap1\n      jump\t// out\n        /* \"openzeppelin-contracts/contracts/token/ERC721/ERC721.sol\":3610:3768  function getApproved(uint256 tokenId) public view virtual returns (address) {... */\n    tag_35:\n        /* \"openzeppelin-contracts/contracts/token/ERC721/ERC721.sol\":3677:3684  address */\n      0x00\n        /* \"openzeppelin-contracts/contracts/token/ERC721/ERC721.sol\":3697:3719  _requireOwned(tokenId) */\n      tag_100\n        /* \"openzeppelin-contracts/contracts/token/ERC721/ERC721.sol\":3711:3718  tokenId */\n      dup3\n        /* \"openzeppelin-contracts/contracts/token/ERC721/ERC721.sol\":3697:3710  _requireOwned */\n      tag_101\n        /* \"openzeppelin-contracts/contracts/token/ERC721/ERC721.sol\":3697:3719  _requireOwned(tokenId) */\n      jump\t// in\n    tag_100:\n      pop\n        /* \"openzeppelin-contracts/contracts/token/ERC721/ERC721.sol\":3739:3760  _getApproved(tokenId) */\n      tag_102\n        /* \"openzeppelin-contracts/contracts/token/ERC721/ERC721.sol\":3752:3759  tokenId */\n      dup3\n        /* \"openzeppelin-contracts/contracts/token/ERC721/ERC721.sol\":3739:3751  _getApproved */\n      tag_103\n        /* \"openzeppelin-contracts/contracts/token/ERC721/ERC721.sol\":3739:3760  _getApproved(tokenId) */\n      jump\t// in\n    tag_102:\n        /* \"openzeppelin-contracts/contracts/token/ERC721/ERC721.sol\":3732:3760  return _getApproved(tokenId) */\n      swap1\n      pop\n        /* \"openzeppelin-contracts/contracts/token/ERC721/ERC721.sol\":3610:3768  function getApproved(uint256 tokenId) public view virtual returns (address) {... */\n      swap2\n      swap1\n      pop\n      jump\t// out\n        /* \"openzeppelin-contracts/contracts/token/ERC721/ERC721.sol\":3429:3544  function approve(address to, uint256 tokenId) public virtual {... */\n    tag_41:\n        /* \"openzeppelin-contracts/contracts/token/ERC721/ERC721.sol\":3501:3536  _approve(to, tokenId, _msgSender()) */\n      tag_105\n        /* \"openzeppelin-contracts/contracts/token/ERC721/ERC721.sol\":3510:3512  to */\n      dup3\n        /* \"openzeppelin-contracts/contracts/token/ERC721/ERC721.sol\":3514:3521  tokenId */\n      dup3\n        /* \"openzeppelin-contracts/contracts/token/ERC721/ERC721.sol\":3523:3535  _msgSender() */\n      tag_106\n        /* \"openzeppelin-contracts/contracts/token/ERC721/ERC721.sol\":3523:3533  _msgSender */\n      tag_107\n        /* \"openzeppelin-contracts/contracts/token/ERC721/ERC721.sol\":3523:3535  _msgSender() */\n      jump\t// in\n    tag_106:\n        /* \"openzeppelin-contracts/contracts/token/ERC721/ERC721.sol\":3501:3509  _approve */\n      tag_108\n        /* \"openzeppelin-contracts/contracts/token/ERC721/ERC721.sol\":3501:3536  _approve(to, tokenId, _msgSender()) */\n      jump\t// in\n    tag_105:\n        /* \"openzeppelin-contracts/contracts/token/ERC721/ERC721.sol\":3429:3544  function approve(address to, uint256 tokenId) public virtual {... */\n      pop\n      pop\n      jump\t// out\n        /* \"openzeppelin-contracts/contracts/token/ERC721/ERC721.sol\":4279:4867  function transferFrom(address from, address to, uint256 tokenId) public virtual {... */\n    tag_45:\n        /* \"openzeppelin-contracts/contracts/token/ERC721/ERC721.sol\":4388:4389  0 */\n      0x00\n        /* \"openzeppelin-contracts/contracts/token/ERC721/ERC721.sol\":4374:4390  to == address(0) */\n      0xffffffffffffffffffffffffffffffffffffffff\n      and\n        /* \"openzeppelin-contracts/contracts/token/ERC721/ERC721.sol\":4374:4376  to */\n      dup3\n        /* \"openzeppelin-contracts/contracts/token/ERC721/ERC721.sol\":4374:4390  to == address(0) */\n      0xffffffffffffffffffffffffffffffffffffffff\n      and\n      sub\n        /* \"openzeppelin-contracts/contracts/token/ERC721/ERC721.sol\":4370:4459  if (to == address(0)) {... */\n      tag_110\n      jumpi\n        /* \"openzeppelin-contracts/contracts/token/ERC721/ERC721.sol\":4444:4445  0 */\n      0x00\n        /* \"openzeppelin-contracts/contracts/token/ERC721/ERC721.sol\":4414:4447  ERC721InvalidReceiver(address(0)) */\n      mload(0x40)\n      0x64a0ae9200000000000000000000000000000000000000000000000000000000\n      dup2\n      mstore\n      0x04\n      add\n      tag_111\n      swap2\n      swap1\n      tag_37\n      jump\t// in\n    tag_111:\n      mload(0x40)\n      dup1\n      swap2\n      sub\n      swap1\n      revert\n        /* \"openzeppelin-contracts/contracts/token/ERC721/ERC721.sol\":4370:4459  if (to == address(0)) {... */\n    tag_110:\n        /* \"openzeppelin-contracts/contracts/token/ERC721/ERC721.sol\":4680:4701  address previousOwner */\n      0x00\n        /* \"openzeppelin-contracts/contracts/token/ERC721/ERC721.sol\":4704:4738  _update(to, tokenId, _msgSender()) */\n      tag_112\n        /* \"openzeppelin-contracts/contracts/token/ERC721/ERC721.sol\":4712:4714  to */\n      dup4\n        /* \"openzeppelin-contracts/contracts/token/ERC721/ERC721.sol\":4716:4723  tokenId */\n      dup4\n        /* \"openzeppelin-contracts/contracts/token/ERC721/ERC721.sol\":4725:4737  _msgSender() */\n      tag_113\n        /* \"openzeppelin-contracts/contracts/token/ERC721/ERC721.sol\":4725:4735  _msgSender */\n      tag_107\n        /* \"openzeppelin-contracts/contracts/token/ERC721/ERC721.sol\":4725:4737  _msgSender() */\n      jump\t// in\n    tag_113:\n        /* \"openzeppelin-contracts/contracts/token/ERC721/ERC721.sol\":4704:4711  _update */\n      tag_114\n        /* \"openzeppelin-contracts/contracts/token/ERC721/ERC721.sol\":4704:4738  _update(to, tokenId, _msgSender()) */\n      jump\t// in\n    tag_112:\n        /* \"openzeppelin-contracts/contracts/token/ERC721/ERC721.sol\":4680:4738  address previousOwner = _update(to, tokenId, _msgSender()) */\n      swap1\n      pop\n        /* \"openzeppelin-contracts/contracts/token/ERC721/ERC721.sol\":4770:4774  from */\n      dup4\n        /* \"openzeppelin-contracts/contracts/token/ERC721/ERC721.sol\":4753:4774  previousOwner != from */\n      0xffffffffffffffffffffffffffffffffffffffff\n      and\n        /* \"openzeppelin-contracts/contracts/token/ERC721/ERC721.sol\":4753:4766  previousOwner */\n      dup2\n        /* \"openzeppelin-contracts/contracts/token/ERC721/ERC721.sol\":4753:4774  previousOwner != from */\n      0xffffffffffffffffffffffffffffffffffffffff\n      and\n      eq\n        /* \"openzeppelin-contracts/contracts/token/ERC721/ERC721.sol\":4749:4860  if (previousOwner != from) {... */\n      tag_115\n      jumpi\n        /* \"openzeppelin-contracts/contracts/token/ERC721/ERC721.sol\":4819:4823  from */\n      dup4\n        /* \"openzeppelin-contracts/contracts/token/ERC721/ERC721.sol\":4825:4832  tokenId */\n      dup3\n        /* \"openzeppelin-contracts/contracts/token/ERC721/ERC721.sol\":4834:4847  previousOwner */\n      dup3\n        /* \"openzeppelin-contracts/contracts/token/ERC721/ERC721.sol\":4798:4848  ERC721IncorrectOwner(from, tokenId, previousOwner) */\n      mload(0x40)\n      0x64283d7b00000000000000000000000000000000000000000000000000000000\n      dup2\n      mstore\n      0x04\n      add\n      tag_116\n      swap4\n      swap3\n      swap2\n      swap1\n      tag_117\n      jump\t// in\n    tag_116:\n      mload(0x40)\n      dup1\n      swap2\n      sub\n      swap1\n      revert\n        /* \"openzeppelin-contracts/contracts/token/ERC721/ERC721.sol\":4749:4860  if (previousOwner != from) {... */\n    tag_115:\n        /* \"openzeppelin-contracts/contracts/token/ERC721/ERC721.sol\":4359:4867  {... */\n      pop\n        /* \"openzeppelin-contracts/contracts/token/ERC721/ERC721.sol\":4279:4867  function transferFrom(address from, address to, uint256 tokenId) public virtual {... */\n      pop\n      pop\n      pop\n      jump\t// out\n        /* \"openzeppelin-contracts/contracts/token/ERC721/ERC721.sol\":4938:5072  function safeTransferFrom(address from, address to, uint256 tokenId) public {... */\n    tag_48:\n        /* \"openzeppelin-contracts/contracts/token/ERC721/ERC721.sol\":5025:5064  safeTransferFrom(from, to, tokenId, \"\") */\n      tag_119\n        /* \"openzeppelin-contracts/contracts/token/ERC721/ERC721.sol\":5042:5046  from */\n      dup4\n        /* \"openzeppelin-contracts/contracts/token/ERC721/ERC721.sol\":5048:5050  to */\n      dup4\n        /* \"openzeppelin-contracts/contracts/token/ERC721/ERC721.sol\":5052:5059  tokenId */\n      dup4\n        /* \"openzeppelin-contracts/contracts/token/ERC721/ERC721.sol\":5025:5064  safeTransferFrom(from, to, tokenId, \"\") */\n      mload(0x40)\n      dup1\n      0x20\n      add\n      0x40\n      mstore\n      dup1\n      0x00\n      dup2\n      mstore\n      pop\n        /* \"openzeppelin-contracts/contracts/token/ERC721/ERC721.sol\":5025:5041  safeTransferFrom */\n      tag_74\n        /* \"openzeppelin-contracts/contracts/token/ERC721/ERC721.sol\":5025:5064  safeTransferFrom(from, to, tokenId, \"\") */\n      jump\t// in\n    tag_119:\n        /* \"openzeppelin-contracts/contracts/token/ERC721/ERC721.sol\":4938:5072  function safeTransferFrom(address from, address to, uint256 tokenId) public {... */\n      pop\n      pop\n      pop\n      jump\t// out\n        /* \"openzeppelin-contracts/contracts/token/ERC721/ERC721.sol\":2251:2371  function ownerOf(uint256 tokenId) public view virtual returns (address) {... */\n    tag_51:\n        /* \"openzeppelin-contracts/contracts/token/ERC721/ERC721.sol\":2314:2321  address */\n      0x00\n        /* \"openzeppelin-contracts/contracts/token/ERC721/ERC721.sol\":2341:2363  _requireOwned(tokenId) */\n      tag_121\n        /* \"openzeppelin-contracts/contracts/token/ERC721/ERC721.sol\":2355:2362  tokenId */\n      dup3\n        /* \"openzeppelin-contracts/contracts/token/ERC721/ERC721.sol\":2341:2354  _requireOwned */\n      tag_101\n        /* \"openzeppelin-contracts/contracts/token/ERC721/ERC721.sol\":2341:2363  _requireOwned(tokenId) */\n      jump\t// in\n    tag_121:\n        /* \"openzeppelin-contracts/contracts/token/ERC721/ERC721.sol\":2334:2363  return _requireOwned(tokenId) */\n      swap1\n      pop\n        /* \"openzeppelin-contracts/contracts/token/ERC721/ERC721.sol\":2251:2371  function ownerOf(uint256 tokenId) public view virtual returns (address) {... */\n      swap2\n      swap1\n      pop\n      jump\t// out\n        /* \"openzeppelin-contracts/contracts/token/ERC721/ERC721.sol\":1976:2189  function balanceOf(address owner) public view virtual returns (uint256) {... */\n    tag_56:\n        /* \"openzeppelin-contracts/contracts/token/ERC721/ERC721.sol\":2039:2046  uint256 */\n      0x00\n        /* \"openzeppelin-contracts/contracts/token/ERC721/ERC721.sol\":2080:2081  0 */\n      dup1\n        /* \"openzeppelin-contracts/contracts/token/ERC721/ERC721.sol\":2063:2082  owner == address(0) */\n      0xffffffffffffffffffffffffffffffffffffffff\n      and\n        /* \"openzeppelin-contracts/contracts/token/ERC721/ERC721.sol\":2063:2068  owner */\n      dup3\n        /* \"openzeppelin-contracts/contracts/token/ERC721/ERC721.sol\":2063:2082  owner == address(0) */\n      0xffffffffffffffffffffffffffffffffffffffff\n      and\n      sub\n        /* \"openzeppelin-contracts/contracts/token/ERC721/ERC721.sol\":2059:2148  if (owner == address(0)) {... */\n      tag_123\n      jumpi\n        /* \"openzeppelin-contracts/contracts/token/ERC721/ERC721.sol\":2133:2134  0 */\n      0x00\n        /* \"openzeppelin-contracts/contracts/token/ERC721/ERC721.sol\":2106:2136  ERC721InvalidOwner(address(0)) */\n      mload(0x40)\n      0x89c62b6400000000000000000000000000000000000000000000000000000000\n      dup2\n      mstore\n      0x04\n      add\n      tag_124\n      swap2\n      swap1\n      tag_37\n      jump\t// in\n    tag_124:\n      mload(0x40)\n      dup1\n      swap2\n      sub\n      swap1\n      revert\n        /* \"openzeppelin-contracts/contracts/token/ERC721/ERC721.sol\":2059:2148  if (owner == address(0)) {... */\n    tag_123:\n        /* \"openzeppelin-contracts/contracts/token/ERC721/ERC721.sol\":2165:2174  _balances */\n      0x03\n        /* \"openzeppelin-contracts/contracts/token/ERC721/ERC721.sol\":2165:2181  _balances[owner] */\n      0x00\n        /* \"openzeppelin-contracts/contracts/token/ERC721/ERC721.sol\":2175:2180  owner */\n      dup4\n        /* \"openzeppelin-contracts/contracts/token/ERC721/ERC721.sol\":2165:2181  _balances[owner] */\n      0xffffffffffffffffffffffffffffffffffffffff\n      and\n      0xffffffffffffffffffffffffffffffffffffffff\n      and\n      dup2\n      mstore\n      0x20\n      add\n      swap1\n      dup2\n      mstore\n      0x20\n      add\n      0x00\n      keccak256\n      sload\n        /* \"openzeppelin-contracts/contracts/token/ERC721/ERC721.sol\":2158:2181  return _balances[owner] */\n      swap1\n      pop\n        /* \"openzeppelin-contracts/contracts/token/ERC721/ERC721.sol\":1976:2189  function balanceOf(address owner) public view virtual returns (uint256) {... */\n      swap2\n      swap1\n      pop\n      jump\t// out\n        /* \"openzeppelin-contracts/contracts/access/Ownable.sol\":2368:2471  function renounceOwnership() public virtual onlyOwner {... */\n    tag_60:\n        /* \"openzeppelin-contracts/contracts/access/Ownable.sol\":1579:1592  _checkOwner() */\n      tag_126\n        /* \"openzeppelin-contracts/contracts/access/Ownable.sol\":1579:1590  _checkOwner */\n      tag_127\n        /* \"openzeppelin-contracts/contracts/access/Ownable.sol\":1579:1592  _checkOwner() */\n      jump\t// in\n    tag_126:\n        /* \"openzeppelin-contracts/contracts/access/Ownable.sol\":2433:2463  _transferOwnership(address(0)) */\n      tag_129\n        /* \"openzeppelin-contracts/contracts/access/Ownable.sol\":2460:2461  0 */\n      0x00\n        /* \"openzeppelin-contracts/contracts/access/Ownable.sol\":2433:2451  _transferOwnership */\n      tag_130\n        /* \"openzeppelin-contracts/contracts/access/Ownable.sol\":2433:2463  _transferOwnership(address(0)) */\n      jump\t// in\n    tag_129:\n        /* \"openzeppelin-contracts/contracts/access/Ownable.sol\":2368:2471  function renounceOwnership() public virtual onlyOwner {... */\n      jump\t// out\n        /* \"openzeppelin-contracts/contracts/access/Ownable.sol\":1693:1780  function owner() public view virtual returns (address) {... */\n    tag_62:\n        /* \"openzeppelin-contracts/contracts/access/Ownable.sol\":1739:1746  address */\n      0x00\n        /* \"openzeppelin-contracts/contracts/access/Ownable.sol\":1766:1772  _owner */\n      0x06\n      0x00\n      swap1\n      sload\n      swap1\n      0x0100\n      exp\n      swap1\n      div\n      0xffffffffffffffffffffffffffffffffffffffff\n      and\n        /* \"openzeppelin-contracts/contracts/access/Ownable.sol\":1759:1772  return _owner */\n      swap1\n      pop\n        /* \"openzeppelin-contracts/contracts/access/Ownable.sol\":1693:1780  function owner() public view virtual returns (address) {... */\n      swap1\n      jump\t// out\n        /* \"openzeppelin-contracts/contracts/token/ERC721/ERC721.sol\":2598:2693  function symbol() public view virtual returns (string memory) {... */\n    tag_65:\n        /* \"openzeppelin-contracts/contracts/token/ERC721/ERC721.sol\":2645:2658  string memory */\n      0x60\n        /* \"openzeppelin-contracts/contracts/token/ERC721/ERC721.sol\":2678:2685  _symbol */\n      0x01\n        /* \"openzeppelin-contracts/contracts/token/ERC721/ERC721.sol\":2671:2685  return _symbol */\n      dup1\n      sload\n      tag_133\n      swap1\n      tag_94\n      jump\t// in\n    tag_133:\n      dup1\n      0x1f\n      add\n      0x20\n      dup1\n      swap2\n      div\n      mul\n      0x20\n      add\n      mload(0x40)\n      swap1\n      dup2\n      add\n      0x40\n      mstore\n      dup1\n      swap3\n      swap2\n      swap1\n      dup2\n      dup2\n      mstore\n      0x20\n      add\n      dup3\n      dup1\n      sload\n      tag_134\n      swap1\n      tag_94\n      jump\t// in\n    tag_134:\n      dup1\n      iszero\n      tag_135\n      jumpi\n      dup1\n      0x1f\n      lt\n      tag_136\n      jumpi\n      0x0100\n      dup1\n      dup4\n      sload\n      div\n      mul\n      dup4\n      mstore\n      swap2\n      0x20\n      add\n      swap2\n      jump(tag_135)\n    tag_136:\n      dup3\n      add\n      swap2\n      swap1\n      0x00\n      mstore\n      keccak256(0x00, 0x20)\n      swap1\n    tag_137:\n      dup2\n      sload\n      dup2\n      mstore\n      swap1\n      0x01\n      add\n      swap1\n      0x20\n      add\n      dup1\n      dup4\n      gt\n      tag_137\n      jumpi\n      dup3\n      swap1\n      sub\n      0x1f\n      and\n      dup3\n      add\n      swap2\n    tag_135:\n      pop\n      pop\n      pop\n      pop\n      pop\n      swap1\n      pop\n        /* \"openzeppelin-contracts/contracts/token/ERC721/ERC721.sol\":2598:2693  function symbol() public view virtual returns (string memory) {... */\n      swap1\n      jump\t// out\n        /* \"openzeppelin-contracts/contracts/token/ERC721/ERC721.sol\":3840:3986  function setApprovalForAll(address operator, bool approved) public virtual {... */\n    tag_70:\n        /* \"openzeppelin-contracts/contracts/token/ERC721/ERC721.sol\":3926:3978  _setApprovalForAll(_msgSender(), operator, approved) */\n      tag_139\n        /* \"openzeppelin-contracts/contracts/token/ERC721/ERC721.sol\":3945:3957  _msgSender() */\n      tag_140\n        /* \"openzeppelin-contracts/contracts/token/ERC721/ERC721.sol\":3945:3955  _msgSender */\n      tag_107\n        /* \"openzeppelin-contracts/contracts/token/ERC721/ERC721.sol\":3945:3957  _msgSender() */\n      jump\t// in\n    tag_140:\n        /* \"openzeppelin-contracts/contracts/token/ERC721/ERC721.sol\":3959:3967  operator */\n      dup4\n        /* \"openzeppelin-contracts/contracts/token/ERC721/ERC721.sol\":3969:3977  approved */\n      dup4\n        /* \"openzeppelin-contracts/contracts/token/ERC721/ERC721.sol\":3926:3944  _setApprovalForAll */\n      tag_141\n        /* \"openzeppelin-contracts/contracts/token/ERC721/ERC721.sol\":3926:3978  _setApprovalForAll(_msgSender(), operator, approved) */\n      jump\t// in\n    tag_139:\n        /* \"openzeppelin-contracts/contracts/token/ERC721/ERC721.sol\":3840:3986  function setApprovalForAll(address operator, bool approved) public virtual {... */\n      pop\n      pop\n      jump\t// out\n        /* \"openzeppelin-contracts/contracts/token/ERC721/ERC721.sol\":5143:5354  function safeTransferFrom(address from, address to, uint256 tokenId, bytes memory data) public virtual {... */\n    tag_74:\n        /* \"openzeppelin-contracts/contracts/token/ERC721/ERC721.sol\":5257:5288  transferFrom(from, to, tokenId) */\n      tag_143\n        /* \"openzeppelin-contracts/contracts/token/ERC721/ERC721.sol\":5270:5274  from */\n      dup5\n        /* \"openzeppelin-contracts/contracts/token/ERC721/ERC721.sol\":5276:5278  to */\n      dup5\n        /* \"openzeppelin-contracts/contracts/token/ERC721/ERC721.sol\":5280:5287  tokenId */\n      dup5\n        /* \"openzeppelin-contracts/contracts/token/ERC721/ERC721.sol\":5257:5269  transferFrom */\n      tag_45\n        /* \"openzeppelin-contracts/contracts/token/ERC721/ERC721.sol\":5257:5288  transferFrom(from, to, tokenId) */\n      jump\t// in\n    tag_143:\n        /* \"openzeppelin-contracts/contracts/token/ERC721/ERC721.sol\":5299:5346  _checkOnERC721Received(from, to, tokenId, data) */\n      tag_144\n        /* \"openzeppelin-contracts/contracts/token/ERC721/ERC721.sol\":5322:5326  from */\n      dup5\n        /* \"openzeppelin-contracts/contracts/token/ERC721/ERC721.sol\":5328:5330  to */\n      dup5\n        /* \"openzeppelin-contracts/contracts/token/ERC721/ERC721.sol\":5332:5339  tokenId */\n      dup5\n        /* \"openzeppelin-contracts/contracts/token/ERC721/ERC721.sol\":5341:5345  data */\n      dup5\n        /* \"openzeppelin-contracts/contracts/token/ERC721/ERC721.sol\":5299:5321  _checkOnERC721Received */\n      tag_145\n        /* \"openzeppelin-contracts/contracts/token/ERC721/ERC721.sol\":5299:5346  _checkOnERC721Received(from, to, tokenId, data) */\n      jump\t// in\n    tag_144:\n        /* \"openzeppelin-contracts/contracts/token/ERC721/ERC721.sol\":5143:5354  function safeTransferFrom(address from, address to, uint256 tokenId, bytes memory data) public virtual {... */\n      pop\n      pop\n      pop\n      pop\n      jump\t// out\n        /* \"openzeppelin-contracts/contracts/token/ERC721/ERC721.sol\":2764:3024  function tokenURI(uint256 tokenId) public view virtual returns (string memory) {... */\n    tag_77:\n        /* \"openzeppelin-contracts/contracts/token/ERC721/ERC721.sol\":2828:2841  string memory */\n      0x60\n        /* \"openzeppelin-contracts/contracts/token/ERC721/ERC721.sol\":2854:2876  _requireOwned(tokenId) */\n      tag_147\n        /* \"openzeppelin-contracts/contracts/token/ERC721/ERC721.sol\":2868:2875  tokenId */\n      dup3\n        /* \"openzeppelin-contracts/contracts/token/ERC721/ERC721.sol\":2854:2867  _requireOwned */\n      tag_101\n        /* \"openzeppelin-contracts/contracts/token/ERC721/ERC721.sol\":2854:2876  _requireOwned(tokenId) */\n      jump\t// in\n    tag_147:\n      pop\n        /* \"openzeppelin-contracts/contracts/token/ERC721/ERC721.sol\":2889:2910  string memory baseURI */\n      0x00\n        /* \"openzeppelin-contracts/contracts/token/ERC721/ERC721.sol\":2913:2923  _baseURI() */\n      tag_148\n        /* \"openzeppelin-contracts/contracts/token/ERC721/ERC721.sol\":2913:2921  _baseURI */\n      tag_149\n        /* \"openzeppelin-contracts/contracts/token/ERC721/ERC721.sol\":2913:2923  _baseURI() */\n      jump\t// in\n    tag_148:\n        /* \"openzeppelin-contracts/contracts/token/ERC721/ERC721.sol\":2889:2923  string memory baseURI = _baseURI() */\n      swap1\n      pop\n        /* \"openzeppelin-contracts/contracts/token/ERC721/ERC721.sol\":2965:2966  0 */\n      0x00\n        /* \"openzeppelin-contracts/contracts/token/ERC721/ERC721.sol\":2947:2954  baseURI */\n      dup2\n        /* \"openzeppelin-contracts/contracts/token/ERC721/ERC721.sol\":2941:2962  bytes(baseURI).length */\n      mload\n        /* \"openzeppelin-contracts/contracts/token/ERC721/ERC721.sol\":2941:2966  bytes(baseURI).length > 0 */\n      gt\n        /* \"openzeppelin-contracts/contracts/token/ERC721/ERC721.sol\":2941:3016  bytes(baseURI).length > 0 ? string.concat(baseURI, tokenId.toString()) : \"\" */\n      tag_150\n      jumpi\n      mload(0x40)\n      dup1\n      0x20\n      add\n      0x40\n      mstore\n      dup1\n      0x00\n      dup2\n      mstore\n      pop\n      jump(tag_151)\n    tag_150:\n        /* \"openzeppelin-contracts/contracts/token/ERC721/ERC721.sol\":2983:2990  baseURI */\n      dup1\n        /* \"openzeppelin-contracts/contracts/token/ERC721/ERC721.sol\":2992:3010  tokenId.toString() */\n      tag_152\n        /* \"openzeppelin-contracts/contracts/token/ERC721/ERC721.sol\":2992:2999  tokenId */\n      dup5\n        /* \"openzeppelin-contracts/contracts/token/ERC721/ERC721.sol\":2992:3008  tokenId.toString */\n      tag_153\n        /* \"openzeppelin-contracts/contracts/token/ERC721/ERC721.sol\":2992:3010  tokenId.toString() */\n      jump\t// in\n    tag_152:\n        /* \"openzeppelin-contracts/contracts/token/ERC721/ERC721.sol\":2969:3011  string.concat(baseURI, tokenId.toString()) */\n      add(0x20, mload(0x40))\n      tag_154\n      swap3\n      swap2\n      swap1\n      tag_155\n      jump\t// in\n    tag_154:\n      mload(0x40)\n      0x20\n      dup2\n      dup4\n      sub\n      sub\n      dup2\n      mstore\n      swap1\n      0x40\n      mstore\n        /* \"openzeppelin-contracts/contracts/token/ERC721/ERC721.sol\":2941:3016  bytes(baseURI).length > 0 ? string.concat(baseURI, tokenId.toString()) : \"\" */\n    tag_151:\n        /* \"openzeppelin-contracts/contracts/token/ERC721/ERC721.sol\":2934:3016  return bytes(baseURI).length > 0 ? string.concat(baseURI, tokenId.toString()) : \"\" */\n      swap2\n      pop\n      pop\n        /* \"openzeppelin-contracts/contracts/token/ERC721/ERC721.sol\":2764:3024  function tokenURI(uint256 tokenId) public view virtual returns (string memory) {... */\n      swap2\n      swap1\n      pop\n      jump\t// out\n        /* \"openzeppelin-contracts/contracts/token/ERC721/ERC721.sol\":4057:4212  function isApprovedForAll(address owner, address operator) public view virtual returns (bool) {... */\n    tag_82:\n        /* \"openzeppelin-contracts/contracts/token/ERC721/ERC721.sol\":4145:4149  bool */\n      0x00\n        /* \"openzeppelin-contracts/contracts/token/ERC721/ERC721.sol\":4169:4187  _operatorApprovals */\n      0x05\n        /* \"openzeppelin-contracts/contracts/token/ERC721/ERC721.sol\":4169:4194  _operatorApprovals[owner] */\n      0x00\n        /* \"openzeppelin-contracts/contracts/token/ERC721/ERC721.sol\":4188:4193  owner */\n      dup5\n        /* \"openzeppelin-contracts/contracts/token/ERC721/ERC721.sol\":4169:4194  _operatorApprovals[owner] */\n      0xffffffffffffffffffffffffffffffffffffffff\n      and\n      0xffffffffffffffffffffffffffffffffffffffff\n      and\n      dup2\n      mstore\n      0x20\n      add\n      swap1\n      dup2\n      mstore\n      0x20\n      add\n      0x00\n      keccak256\n        /* \"openzeppelin-contracts/contracts/token/ERC721/ERC721.sol\":4169:4204  _operatorApprovals[owner][operator] */\n      0x00\n        /* \"openzeppelin-contracts/contracts/token/ERC721/ERC721.sol\":4195:4203  operator */\n      dup4\n        /* \"openzeppelin-contracts/contracts/token/ERC721/ERC721.sol\":4169:4204  _operatorApprovals[owner][operator] */\n      0xffffffffffffffffffffffffffffffffffffffff\n      and\n      0xffffffffffffffffffffffffffffffffffffffff\n      and\n      dup2\n      mstore\n      0x20\n      add\n      swap1\n      dup2\n      mstore\n      0x20\n      add\n      0x00\n      keccak256\n      0x00\n      swap1\n      sload\n      swap1\n      0x0100\n      exp\n      swap1\n      div\n      0xff\n      and\n        /* \"openzeppelin-contracts/contracts/token/ERC721/ERC721.sol\":4162:4204  return _operatorApprovals[owner][operator] */\n      swap1\n      pop\n        /* \"openzeppelin-contracts/contracts/token/ERC721/ERC721.sol\":4057:4212  function isApprovedForAll(address owner, address operator) public view virtual returns (bool) {... */\n      swap3\n      swap2\n      pop\n      pop\n      jump\t// out\n        /* \"openzeppelin-contracts/contracts/access/Ownable.sol\":2626:2846  function transferOwnership(address newOwner) public virtual onlyOwner {... */\n    tag_86:\n        /* \"openzeppelin-contracts/contracts/access/Ownable.sol\":1579:1592  _checkOwner() */\n      tag_158\n        /* \"openzeppelin-contracts/contracts/access/Ownable.sol\":1579:1590  _checkOwner */\n      tag_127\n        /* \"openzeppelin-contracts/contracts/access/Ownable.sol\":1579:1592  _checkOwner() */\n      jump\t// in\n    tag_158:\n        /* \"openzeppelin-contracts/contracts/access/Ownable.sol\":2731:2732  0 */\n      0x00\n        /* \"openzeppelin-contracts/contracts/access/Ownable.sol\":2711:2733  newOwner == address(0) */\n      0xffffffffffffffffffffffffffffffffffffffff\n      and\n        /* \"openzeppelin-contracts/contracts/access/Ownable.sol\":2711:2719  newOwner */\n      dup2\n        /* \"openzeppelin-contracts/contracts/access/Ownable.sol\":2711:2733  newOwner == address(0) */\n      0xffffffffffffffffffffffffffffffffffffffff\n      and\n      sub\n        /* \"openzeppelin-contracts/contracts/access/Ownable.sol\":2707:2800  if (newOwner == address(0)) {... */\n      tag_160\n      jumpi\n        /* \"openzeppelin-contracts/contracts/access/Ownable.sol\":2785:2786  0 */\n      0x00\n        /* \"openzeppelin-contracts/contracts/access/Ownable.sol\":2757:2788  OwnableInvalidOwner(address(0)) */\n      mload(0x40)\n      0x1e4fbdf700000000000000000000000000000000000000000000000000000000\n      dup2\n      mstore\n      0x04\n      add\n      tag_161\n      swap2\n      swap1\n      tag_37\n      jump\t// in\n    tag_161:\n      mload(0x40)\n      dup1\n      swap2\n      sub\n      swap1\n      revert\n        /* \"openzeppelin-contracts/contracts/access/Ownable.sol\":2707:2800  if (newOwner == address(0)) {... */\n    tag_160:\n        /* \"openzeppelin-contracts/contracts/access/Ownable.sol\":2810:2838  _transferOwnership(newOwner) */\n      tag_162\n        /* \"openzeppelin-contracts/contracts/access/Ownable.sol\":2829:2837  newOwner */\n      dup2\n        /* \"openzeppelin-contracts/contracts/access/Ownable.sol\":2810:2828  _transferOwnership */\n      tag_130\n        /* \"openzeppelin-contracts/contracts/access/Ownable.sol\":2810:2838  _transferOwnership(newOwner) */\n      jump\t// in\n    tag_162:\n        /* \"openzeppelin-contracts/contracts/access/Ownable.sol\":2626:2846  function transferOwnership(address newOwner) public virtual onlyOwner {... */\n      pop\n      jump\t// out\n        /* \"openzeppelin-contracts/contracts/utils/introspection/ERC165.sol\":785:933  function supportsInterface(bytes4 interfaceId) public view virtual returns (bool) {... */\n    tag_91:\n        /* \"openzeppelin-contracts/contracts/utils/introspection/ERC165.sol\":861:865  bool */\n      0x00\n        /* \"openzeppelin-contracts/contracts/utils/introspection/ERC165.sol\":900:925  type(IERC165).interfaceId */\n      0x01ffc9a700000000000000000000000000000000000000000000000000000000\n        /* \"openzeppelin-contracts/contracts/utils/introspection/ERC165.sol\":885:925  interfaceId == type(IERC165).interfaceId */\n      not(0xffffffffffffffffffffffffffffffffffffffffffffffffffffffff)\n      and\n        /* \"openzeppelin-contracts/contracts/utils/introspection/ERC165.sol\":885:896  interfaceId */\n      dup3\n        /* \"openzeppelin-contracts/contracts/utils/introspection/ERC165.sol\":885:925  interfaceId == type(IERC165).interfaceId */\n      not(0xffffffffffffffffffffffffffffffffffffffffffffffffffffffff)\n      and\n      eq\n        /* \"openzeppelin-contracts/contracts/utils/introspection/ERC165.sol\":878:925  return interfaceId == type(IERC165).interfaceId */\n      swap1\n      pop\n        /* \"openzeppelin-contracts/contracts/utils/introspection/ERC165.sol\":785:933  function supportsInterface(bytes4 interfaceId) public view virtual returns (bool) {... */\n      swap2\n      swap1\n      pop\n      jump\t// out\n        /* \"openzeppelin-contracts/contracts/token/ERC721/ERC721.sol\":16585:16832  function _requireOwned(uint256 tokenId) internal view returns (address) {... */\n    tag_101:\n        /* \"openzeppelin-contracts/contracts/token/ERC721/ERC721.sol\":16648:16655  address */\n      0x00\n        /* \"openzeppelin-contracts/contracts/token/ERC721/ERC721.sol\":16668:16681  address owner */\n      dup1\n        /* \"openzeppelin-contracts/contracts/token/ERC721/ERC721.sol\":16684:16701  _ownerOf(tokenId) */\n      tag_165\n        /* \"openzeppelin-contracts/contracts/token/ERC721/ERC721.sol\":16693:16700  tokenId */\n      dup4\n        /* \"openzeppelin-contracts/contracts/token/ERC721/ERC721.sol\":16684:16692  _ownerOf */\n      tag_166\n        /* \"openzeppelin-contracts/contracts/token/ERC721/ERC721.sol\":16684:16701  _ownerOf(tokenId) */\n      jump\t// in\n    tag_165:\n        /* \"openzeppelin-contracts/contracts/token/ERC721/ERC721.sol\":16668:16701  address owner = _ownerOf(tokenId) */\n      swap1\n      pop\n        /* \"openzeppelin-contracts/contracts/token/ERC721/ERC721.sol\":16733:16734  0 */\n      0x00\n        /* \"openzeppelin-contracts/contracts/token/ERC721/ERC721.sol\":16716:16735  owner == address(0) */\n      0xffffffffffffffffffffffffffffffffffffffff\n      and\n        /* \"openzeppelin-contracts/contracts/token/ERC721/ERC721.sol\":16716:16721  owner */\n      dup2\n        /* \"openzeppelin-contracts/contracts/token/ERC721/ERC721.sol\":16716:16735  owner == address(0) */\n      0xffffffffffffffffffffffffffffffffffffffff\n      and\n      sub\n        /* \"openzeppelin-contracts/contracts/token/ERC721/ERC721.sol\":16712:16802  if (owner == address(0)) {... */\n      tag_167\n      jumpi\n        /* \"openzeppelin-contracts/contracts/token/ERC721/ERC721.sol\":16782:16789  tokenId */\n      dup3\n        /* \"openzeppelin-contracts/contracts/token/ERC721/ERC721.sol\":16759:16790  ERC721NonexistentToken(tokenId) */\n      mload(0x40)\n      0x7e27328900000000000000000000000000000000000000000000000000000000\n      dup2\n      mstore\n      0x04\n      add\n      tag_168\n      swap2\n      swap1\n      tag_58\n      jump\t// in\n    tag_168:\n      mload(0x40)\n      dup1\n      swap2\n      sub\n      swap1\n      revert\n        /* \"openzeppelin-contracts/contracts/token/ERC721/ERC721.sol\":16712:16802  if (owner == address(0)) {... */\n    tag_167:\n        /* \"openzeppelin-contracts/contracts/token/ERC721/ERC721.sol\":16819:16824  owner */\n      dup1\n        /* \"openzeppelin-contracts/contracts/token/ERC721/ERC721.sol\":16812:16824  return owner */\n      swap2\n      pop\n      pop\n        /* \"openzeppelin-contracts/contracts/token/ERC721/ERC721.sol\":16585:16832  function _requireOwned(uint256 tokenId) internal view returns (address) {... */\n      swap2\n      swap1\n      pop\n      jump\t// out\n        /* \"openzeppelin-contracts/contracts/token/ERC721/ERC721.sol\":6116:6245  function _getApproved(uint256 tokenId) internal view virtual returns (address) {... */\n    tag_103:\n        /* \"openzeppelin-contracts/contracts/token/ERC721/ERC721.sol\":6186:6193  address */\n      0x00\n        /* \"openzeppelin-contracts/contracts/token/ERC721/ERC721.sol\":6213:6228  _tokenApprovals */\n      0x04\n        /* \"openzeppelin-contracts/contracts/token/ERC721/ERC721.sol\":6213:6237  _tokenApprovals[tokenId] */\n      0x00\n        /* \"openzeppelin-contracts/contracts/token/ERC721/ERC721.sol\":6229:6236  tokenId */\n      dup4\n        /* \"openzeppelin-contracts/contracts/token/ERC721/ERC721.sol\":6213:6237  _tokenApprovals[tokenId] */\n      dup2\n      mstore\n      0x20\n      add\n      swap1\n      dup2\n      mstore\n      0x20\n      add\n      0x00\n      keccak256\n      0x00\n      swap1\n      sload\n      swap1\n      0x0100\n      exp\n      swap1\n      div\n      0xffffffffffffffffffffffffffffffffffffffff\n      and\n        /* \"openzeppelin-contracts/contracts/token/ERC721/ERC721.sol\":6206:6237  return _tokenApprovals[tokenId] */\n      swap1\n      pop\n        /* \"openzeppelin-contracts/contracts/token/ERC721/ERC721.sol\":6116:6245  function _getApproved(uint256 tokenId) internal view virtual returns (address) {... */\n      swap2\n      swap1\n      pop\n      jump\t// out\n        /* \"openzeppelin-contracts/contracts/utils/Context.sol\":672:770  function _msgSender() internal view virtual returns (address) {... */\n    tag_107:\n        /* \"openzeppelin-contracts/contracts/utils/Context.sol\":725:732  address */\n      0x00\n        /* \"openzeppelin-contracts/contracts/utils/Context.sol\":752:762  msg.sender */\n      caller\n        /* \"openzeppelin-contracts/contracts/utils/Context.sol\":745:762  return msg.sender */\n      swap1\n      pop\n        /* \"openzeppelin-contracts/contracts/utils/Context.sol\":672:770  function _msgSender() internal view virtual returns (address) {... */\n      swap1\n      jump\t// out\n        /* \"openzeppelin-contracts/contracts/token/ERC721/ERC721.sol\":14817:14939  function _approve(address to, uint256 tokenId, address auth) internal {... */\n    tag_108:\n        /* \"openzeppelin-contracts/contracts/token/ERC721/ERC721.sol\":14898:14931  _approve(to, tokenId, auth, true) */\n      tag_172\n        /* \"openzeppelin-contracts/contracts/token/ERC721/ERC721.sol\":14907:14909  to */\n      dup4\n        /* \"openzeppelin-contracts/contracts/token/ERC721/ERC721.sol\":14911:14918  tokenId */\n      dup4\n        /* \"openzeppelin-contracts/contracts/token/ERC721/ERC721.sol\":14920:14924  auth */\n      dup4\n        /* \"openzeppelin-contracts/contracts/token/ERC721/ERC721.sol\":14926:14930  true */\n      0x01\n        /* \"openzeppelin-contracts/contracts/token/ERC721/ERC721.sol\":14898:14906  _approve */\n      tag_173\n        /* \"openzeppelin-contracts/contracts/token/ERC721/ERC721.sol\":14898:14931  _approve(to, tokenId, auth, true) */\n      jump\t// in\n    tag_172:\n        /* \"openzeppelin-contracts/contracts/token/ERC721/ERC721.sol\":14817:14939  function _approve(address to, uint256 tokenId, address auth) internal {... */\n      pop\n      pop\n      pop\n      jump\t// out\n        /* \"openzeppelin-contracts/contracts/token/ERC721/ERC721.sol\":9078:9902  function _update(address to, uint256 tokenId, address auth) internal virtual returns (address) {... */\n    tag_114:\n        /* \"openzeppelin-contracts/contracts/token/ERC721/ERC721.sol\":9164:9171  address */\n      0x00\n        /* \"openzeppelin-contracts/contracts/token/ERC721/ERC721.sol\":9184:9196  address from */\n      dup1\n        /* \"openzeppelin-contracts/contracts/token/ERC721/ERC721.sol\":9199:9216  _ownerOf(tokenId) */\n      tag_175\n        /* \"openzeppelin-contracts/contracts/token/ERC721/ERC721.sol\":9208:9215  tokenId */\n      dup5\n        /* \"openzeppelin-contracts/contracts/token/ERC721/ERC721.sol\":9199:9207  _ownerOf */\n      tag_166\n        /* \"openzeppelin-contracts/contracts/token/ERC721/ERC721.sol\":9199:9216  _ownerOf(tokenId) */\n      jump\t// in\n    tag_175:\n        /* \"openzeppelin-contracts/contracts/token/ERC721/ERC721.sol\":9184:9216  address from = _ownerOf(tokenId) */\n      swap1\n      pop\n        /* \"openzeppelin-contracts/contracts/token/ERC721/ERC721.sol\":9295:9296  0 */\n      0x00\n        /* \"openzeppelin-contracts/contracts/token/ERC721/ERC721.sol\":9279:9297  auth != address(0) */\n      0xffffffffffffffffffffffffffffffffffffffff\n      and\n        /* \"openzeppelin-contracts/contracts/token/ERC721/ERC721.sol\":9279:9283  auth */\n      dup4\n        /* \"openzeppelin-contracts/contracts/token/ERC721/ERC721.sol\":9279:9297  auth != address(0) */\n      0xffffffffffffffffffffffffffffffffffffffff\n      and\n      eq\n        /* \"openzeppelin-contracts/contracts/token/ERC721/ERC721.sol\":9275:9363  if (auth != address(0)) {... */\n      tag_176\n      jumpi\n        /* \"openzeppelin-contracts/contracts/token/ERC721/ERC721.sol\":9314:9351  _checkAuthorized(from, auth, tokenId) */\n      tag_177\n        /* \"openzeppelin-contracts/contracts/token/ERC721/ERC721.sol\":9331:9335  from */\n      dup2\n        /* \"openzeppelin-contracts/contracts/token/ERC721/ERC721.sol\":9337:9341  auth */\n      dup5\n        /* \"openzeppelin-contracts/contracts/token/ERC721/ERC721.sol\":9343:9350  tokenId */\n      dup7\n        /* \"openzeppelin-contracts/contracts/token/ERC721/ERC721.sol\":9314:9330  _checkAuthorized */\n      tag_178\n        /* \"openzeppelin-contracts/contracts/token/ERC721/ERC721.sol\":9314:9351  _checkAuthorized(from, auth, tokenId) */\n      jump\t// in\n    tag_177:\n        /* \"openzeppelin-contracts/contracts/token/ERC721/ERC721.sol\":9275:9363  if (auth != address(0)) {... */\n    tag_176:\n        /* \"openzeppelin-contracts/contracts/token/ERC721/ERC721.sol\":9426:9427  0 */\n      0x00\n        /* \"openzeppelin-contracts/contracts/token/ERC721/ERC721.sol\":9410:9428  from != address(0) */\n      0xffffffffffffffffffffffffffffffffffffffff\n      and\n        /* \"openzeppelin-contracts/contracts/token/ERC721/ERC721.sol\":9410:9414  from */\n      dup2\n        /* \"openzeppelin-contracts/contracts/token/ERC721/ERC721.sol\":9410:9428  from != address(0) */\n      0xffffffffffffffffffffffffffffffffffffffff\n      and\n      eq\n        /* \"openzeppelin-contracts/contracts/token/ERC721/ERC721.sol\":9406:9669  if (from != address(0)) {... */\n      tag_179\n      jumpi\n        /* \"openzeppelin-contracts/contracts/token/ERC721/ERC721.sol\":9528:9576  _approve(address(0), tokenId, address(0), false) */\n      tag_180\n        /* \"openzeppelin-contracts/contracts/token/ERC721/ERC721.sol\":9545:9546  0 */\n      0x00\n        /* \"openzeppelin-contracts/contracts/token/ERC721/ERC721.sol\":9549:9556  tokenId */\n      dup6\n        /* \"openzeppelin-contracts/contracts/token/ERC721/ERC721.sol\":9566:9567  0 */\n      0x00\n        /* \"openzeppelin-contracts/contracts/token/ERC721/ERC721.sol\":9570:9575  false */\n      dup1\n        /* \"openzeppelin-contracts/contracts/token/ERC721/ERC721.sol\":9528:9536  _approve */\n      tag_173\n        /* \"openzeppelin-contracts/contracts/token/ERC721/ERC721.sol\":9528:9576  _approve(address(0), tokenId, address(0), false) */\n      jump\t// in\n    tag_180:\n        /* \"openzeppelin-contracts/contracts/token/ERC721/ERC721.sol\":9641:9642  1 */\n      0x01\n        /* \"openzeppelin-contracts/contracts/token/ERC721/ERC721.sol\":9622:9631  _balances */\n      0x03\n        /* \"openzeppelin-contracts/contracts/token/ERC721/ERC721.sol\":9622:9637  _balances[from] */\n      0x00\n        /* \"openzeppelin-contracts/contracts/token/ERC721/ERC721.sol\":9632:9636  from */\n      dup4\n        /* \"openzeppelin-contracts/contracts/token/ERC721/ERC721.sol\":9622:9637  _balances[from] */\n      0xffffffffffffffffffffffffffffffffffffffff\n      and\n      0xffffffffffffffffffffffffffffffffffffffff\n      and\n      dup2\n      mstore\n      0x20\n      add\n      swap1\n      dup2\n      mstore\n      0x20\n      add\n      0x00\n      keccak256\n      0x00\n        /* \"openzeppelin-contracts/contracts/token/ERC721/ERC721.sol\":9622:9642  _balances[from] -= 1 */\n      dup3\n      dup3\n      sload\n      sub\n      swap3\n      pop\n      pop\n      dup2\n      swap1\n      sstore\n      pop\n        /* \"openzeppelin-contracts/contracts/token/ERC721/ERC721.sol\":9406:9669  if (from != address(0)) {... */\n    tag_179:\n        /* \"openzeppelin-contracts/contracts/token/ERC721/ERC721.sol\":9699:9700  0 */\n      0x00\n        /* \"openzeppelin-contracts/contracts/token/ERC721/ERC721.sol\":9685:9701  to != address(0) */\n      0xffffffffffffffffffffffffffffffffffffffff\n      and\n        /* \"openzeppelin-contracts/contracts/token/ERC721/ERC721.sol\":9685:9687  to */\n      dup6\n        /* \"openzeppelin-contracts/contracts/token/ERC721/ERC721.sol\":9685:9701  to != address(0) */\n      0xffffffffffffffffffffffffffffffffffffffff\n      and\n      eq\n        /* \"openzeppelin-contracts/contracts/token/ERC721/ERC721.sol\":9681:9792  if (to != address(0)) {... */\n      tag_181\n      jumpi\n        /* \"openzeppelin-contracts/contracts/token/ERC721/ERC721.sol\":9764:9765  1 */\n      0x01\n        /* \"openzeppelin-contracts/contracts/token/ERC721/ERC721.sol\":9747:9756  _balances */\n      0x03\n        /* \"openzeppelin-contracts/contracts/token/ERC721/ERC721.sol\":9747:9760  _balances[to] */\n      0x00\n        /* \"openzeppelin-contracts/contracts/token/ERC721/ERC721.sol\":9757:9759  to */\n      dup8\n        /* \"openzeppelin-contracts/contracts/token/ERC721/ERC721.sol\":9747:9760  _balances[to] */\n      0xffffffffffffffffffffffffffffffffffffffff\n      and\n      0xffffffffffffffffffffffffffffffffffffffff\n      and\n      dup2\n      mstore\n      0x20\n      add\n      swap1\n      dup2\n      mstore\n      0x20\n      add\n      0x00\n      keccak256\n      0x00\n        /* \"openzeppelin-contracts/contracts/token/ERC721/ERC721.sol\":9747:9765  _balances[to] += 1 */\n      dup3\n      dup3\n      sload\n      add\n      swap3\n      pop\n      pop\n      dup2\n      swap1\n      sstore\n      pop\n        /* \"openzeppelin-contracts/contracts/token/ERC721/ERC721.sol\":9681:9792  if (to != address(0)) {... */\n    tag_181:\n        /* \"openzeppelin-contracts/contracts/token/ERC721/ERC721.sol\":9823:9825  to */\n      dup5\n        /* \"openzeppelin-contracts/contracts/token/ERC721/ERC721.sol\":9804:9811  _owners */\n      0x02\n        /* \"openzeppelin-contracts/contracts/token/ERC721/ERC721.sol\":9804:9820  _owners[tokenId] */\n      0x00\n        /* \"openzeppelin-contracts/contracts/token/ERC721/ERC721.sol\":9812:9819  tokenId */\n      dup7\n        /* \"openzeppelin-contracts/contracts/token/ERC721/ERC721.sol\":9804:9820  _owners[tokenId] */\n      dup2\n      mstore\n      0x20\n      add\n      swap1\n      dup2\n      mstore\n      0x20\n      add\n      0x00\n      keccak256\n      0x00\n        /* \"openzeppelin-contracts/contracts/token/ERC721/ERC721.sol\":9804:9825  _owners[tokenId] = to */\n      0x0100\n      exp\n      dup2\n      sload\n      dup2\n      0xffffffffffffffffffffffffffffffffffffffff\n      mul\n      not\n      and\n      swap1\n      dup4\n      0xffffffffffffffffffffffffffffffffffffffff\n      and\n      mul\n      or\n      swap1\n      sstore\n      pop\n        /* \"openzeppelin-contracts/contracts/token/ERC721/ERC721.sol\":9862:9869  tokenId */\n      dup4\n        /* \"openzeppelin-contracts/contracts/token/ERC721/ERC721.sol\":9858:9860  to */\n      dup6\n        /* \"openzeppelin-contracts/contracts/token/ERC721/ERC721.sol\":9843:9870  Transfer(from, to, tokenId) */\n      0xffffffffffffffffffffffffffffffffffffffff\n      and\n        /* \"openzeppelin-contracts/contracts/token/ERC721/ERC721.sol\":9852:9856  from */\n      dup3\n        /* \"openzeppelin-contracts/contracts/token/ERC721/ERC721.sol\":9843:9870  Transfer(from, to, tokenId) */\n      0xffffffffffffffffffffffffffffffffffffffff\n      and\n      0xddf252ad1be2c89b69c2b068fc378daa952ba7f163c4a11628f55a4df523b3ef\n      mload(0x40)\n      mload(0x40)\n      dup1\n      swap2\n      sub\n      swap1\n      log4\n        /* \"openzeppelin-contracts/contracts/token/ERC721/ERC721.sol\":9890:9894  from */\n      dup1\n        /* \"openzeppelin-contracts/contracts/token/ERC721/ERC721.sol\":9883:9894  return from */\n      swap2\n      pop\n      pop\n        /* \"openzeppelin-contracts/contracts/token/ERC721/ERC721.sol\":9078:9902  function _update(address to, uint256 tokenId, address auth) internal virtual returns (address) {... */\n      swap4\n      swap3\n      pop\n      pop\n      pop\n      jump\t// out\n        /* \"openzeppelin-contracts/contracts/access/Ownable.sol\":1858:2024  function _checkOwner() internal view virtual {... */\n    tag_127:\n        /* \"openzeppelin-contracts/contracts/access/Ownable.sol\":1929:1941  _msgSender() */\n      tag_183\n        /* \"openzeppelin-contracts/contracts/access/Ownable.sol\":1929:1939  _msgSender */\n      tag_107\n        /* \"openzeppelin-contracts/contracts/access/Ownable.sol\":1929:1941  _msgSender() */\n      jump\t// in\n    tag_183:\n        /* \"openzeppelin-contracts/contracts/access/Ownable.sol\":1918:1941  owner() != _msgSender() */\n      0xffffffffffffffffffffffffffffffffffffffff\n      and\n        /* \"openzeppelin-contracts/contracts/access/Ownable.sol\":1918:1925  owner() */\n      tag_184\n        /* \"openzeppelin-contracts/contracts/access/Ownable.sol\":1918:1923  owner */\n      tag_62\n        /* \"openzeppelin-contracts/contracts/access/Ownable.sol\":1918:1925  owner() */\n      jump\t// in\n    tag_184:\n        /* \"openzeppelin-contracts/contracts/access/Ownable.sol\":1918:1941  owner() != _msgSender() */\n      0xffffffffffffffffffffffffffffffffffffffff\n      and\n      eq\n        /* \"openzeppelin-contracts/contracts/access/Ownable.sol\":1914:2017  if (owner() != _msgSender()) {... */\n      tag_185\n      jumpi\n        /* \"openzeppelin-contracts/contracts/access/Ownable.sol\":1992:2004  _msgSender() */\n      tag_186\n        /* \"openzeppelin-contracts/contracts/access/Ownable.sol\":1992:2002  _msgSender */\n      tag_107\n        /* \"openzeppelin-contracts/contracts/access/Ownable.sol\":1992:2004  _msgSender() */\n      jump\t// in\n    tag_186:\n        /* \"openzeppelin-contracts/contracts/access/Ownable.sol\":1965:2005  OwnableUnauthorizedAccount(_msgSender()) */\n      mload(0x40)\n      0x118cdaa700000000000000000000000000000000000000000000000000000000\n      dup2\n      mstore\n      0x04\n      add\n      tag_187\n      swap2\n      swap1\n      tag_37\n      jump\t// in\n    tag_187:\n      mload(0x40)\n      dup1\n      swap2\n      sub\n      swap1\n      revert\n        /* \"openzeppelin-contracts/contracts/access/Ownable.sol\":1914:2017  if (owner() != _msgSender()) {... */\n    tag_185:\n        /* \"openzeppelin-contracts/contracts/access/Ownable.sol\":1858:2024  function _checkOwner() internal view virtual {... */\n      jump\t// out\n        /* \"openzeppelin-contracts/contracts/access/Ownable.sol\":3006:3197  function _transferOwnership(address newOwner) internal virtual {... */\n    tag_130:\n        /* \"openzeppelin-contracts/contracts/access/Ownable.sol\":3080:3096  address oldOwner */\n      0x00\n        /* \"openzeppelin-contracts/contracts/access/Ownable.sol\":3099:3105  _owner */\n      0x06\n      0x00\n      swap1\n      sload\n      swap1\n      0x0100\n      exp\n      swap1\n      div\n      0xffffffffffffffffffffffffffffffffffffffff\n      and\n        /* \"openzeppelin-contracts/contracts/access/Ownable.sol\":3080:3105  address oldOwner = _owner */\n      swap1\n      pop\n        /* \"openzeppelin-contracts/contracts/access/Ownable.sol\":3125:3133  newOwner */\n      dup2\n        /* \"openzeppelin-contracts/contracts/access/Ownable.sol\":3116:3122  _owner */\n      0x06\n      0x00\n        /* \"openzeppelin-contracts/contracts/access/Ownable.sol\":3116:3133  _owner = newOwner */\n      0x0100\n      exp\n      dup2\n      sload\n      dup2\n      0xffffffffffffffffffffffffffffffffffffffff\n      mul\n      not\n      and\n      swap1\n      dup4\n      0xffffffffffffffffffffffffffffffffffffffff\n      and\n      mul\n      or\n      swap1\n      sstore\n      pop\n        /* \"openzeppelin-contracts/contracts/access/Ownable.sol\":3180:3188  newOwner */\n      dup2\n        /* \"openzeppelin-contracts/contracts/access/Ownable.sol\":3149:3189  OwnershipTransferred(oldOwner, newOwner) */\n      0xffffffffffffffffffffffffffffffffffffffff\n      and\n        /* \"openzeppelin-contracts/contracts/access/Ownable.sol\":3170:3178  oldOwner */\n      dup2\n        /* \"openzeppelin-contracts/contracts/access/Ownable.sol\":3149:3189  OwnershipTransferred(oldOwner, newOwner) */\n      0xffffffffffffffffffffffffffffffffffffffff\n      and\n      0x8be0079c531659141344cd1fd0a4f28419497f9722a3daafe3b4186f6b6457e0\n      mload(0x40)\n      mload(0x40)\n      dup1\n      swap2\n      sub\n      swap1\n      log3\n        /* \"openzeppelin-contracts/contracts/access/Ownable.sol\":3069:3197  {... */\n      pop\n        /* \"openzeppelin-contracts/contracts/access/Ownable.sol\":3006:3197  function _transferOwnership(address newOwner) internal virtual {... */\n      pop\n      jump\t// out\n        /* \"openzeppelin-contracts/contracts/token/ERC721/ERC721.sol\":16024:16342  function _setApprovalForAll(address owner, address operator, bool approved) internal virtual {... */\n    tag_141:\n        /* \"openzeppelin-contracts/contracts/token/ERC721/ERC721.sol\":16152:16153  0 */\n      0x00\n        /* \"openzeppelin-contracts/contracts/token/ERC721/ERC721.sol\":16132:16154  operator == address(0) */\n      0xffffffffffffffffffffffffffffffffffffffff\n      and\n        /* \"openzeppelin-contracts/contracts/token/ERC721/ERC721.sol\":16132:16140  operator */\n      dup3\n        /* \"openzeppelin-contracts/contracts/token/ERC721/ERC721.sol\":16132:16154  operator == address(0) */\n      0xffffffffffffffffffffffffffffffffffffffff\n      and\n      sub\n        /* \"openzeppelin-contracts/contracts/token/ERC721/ERC721.sol\":16128:16221  if (operator == address(0)) {... */\n      tag_190\n      jumpi\n        /* \"openzeppelin-contracts/contracts/token/ERC721/ERC721.sol\":16200:16208  operator */\n      dup2\n        /* \"openzeppelin-contracts/contracts/token/ERC721/ERC721.sol\":16178:16209  ERC721InvalidOperator(operator) */\n      mload(0x40)\n      0x5b08ba1800000000000000000000000000000000000000000000000000000000\n      dup2\n      mstore\n      0x04\n      add\n      tag_191\n      swap2\n      swap1\n      tag_37\n      jump\t// in\n    tag_191:\n      mload(0x40)\n      dup1\n      swap2\n      sub\n      swap1\n      revert\n        /* \"openzeppelin-contracts/contracts/token/ERC721/ERC721.sol\":16128:16221  if (operator == address(0)) {... */\n    tag_190:\n        /* \"openzeppelin-contracts/contracts/token/ERC721/ERC721.sol\":16269:16277  approved */\n      dup1\n        /* \"openzeppelin-contracts/contracts/token/ERC721/ERC721.sol\":16231:16249  _operatorApprovals */\n      0x05\n        /* \"openzeppelin-contracts/contracts/token/ERC721/ERC721.sol\":16231:16256  _operatorApprovals[owner] */\n      0x00\n        /* \"openzeppelin-contracts/contracts/token/ERC721/ERC721.sol\":16250:16255  owner */\n      dup6\n        /* \"openzeppelin-contracts/contracts/token/ERC721/ERC721.sol\":16231:16256  _operatorApprovals[owner] */\n      0xffffffffffffffffffffffffffffffffffffffff\n      and\n      0xffffffffffffffffffffffffffffffffffffffff\n      and\n      dup2\n      mstore\n      0x20\n      add\n      swap1\n      dup2\n      mstore\n      0x20\n      add\n      0x00\n      keccak256\n        /* \"openzeppelin-contracts/contracts/token/ERC721/ERC721.sol\":16231:16266  _operatorApprovals[owner][operator] */\n      0x00\n        /* \"openzeppelin-contracts/contracts/token/ERC721/ERC721.sol\":16257:16265  operator */\n      dup5\n        /* \"openzeppelin-contracts/contracts/token/ERC721/ERC721.sol\":16231:16266  _operatorApprovals[owner][operator] */\n      0xffffffffffffffffffffffffffffffffffffffff\n      and\n      0xffffffffffffffffffffffffffffffffffffffff\n      and\n      dup2\n      mstore\n      0x20\n      add\n      swap1\n      dup2\n      mstore\n      0x20\n      add\n      0x00\n      keccak256\n      0x00\n        /* \"openzeppelin-contracts/contracts/token/ERC721/ERC721.sol\":16231:16277  _operatorApprovals[owner][operator] = approved */\n      0x0100\n      exp\n      dup2\n      sload\n      dup2\n      0xff\n      mul\n      not\n      and\n      swap1\n      dup4\n      iszero\n      iszero\n      mul\n      or\n      swap1\n      sstore\n      pop\n        /* \"openzeppelin-contracts/contracts/token/ERC721/ERC721.sol\":16315:16323  operator */\n      dup2\n        /* \"openzeppelin-contracts/contracts/token/ERC721/ERC721.sol\":16293:16334  ApprovalForAll(owner, operator, approved) */\n      0xffffffffffffffffffffffffffffffffffffffff\n      and\n        /* \"openzeppelin-contracts/contracts/token/ERC721/ERC721.sol\":16308:16313  owner */\n      dup4\n        /* \"openzeppelin-contracts/contracts/token/ERC721/ERC721.sol\":16293:16334  ApprovalForAll(owner, operator, approved) */\n      0xffffffffffffffffffffffffffffffffffffffff\n      and\n      0x17307eab39ab6107e8899845ad3d59bd9653f200f220920489ca2b5937696c31\n        /* \"openzeppelin-contracts/contracts/token/ERC721/ERC721.sol\":16325:16333  approved */\n      dup4\n        /* \"openzeppelin-contracts/contracts/token/ERC721/ERC721.sol\":16293:16334  ApprovalForAll(owner, operator, approved) */\n      mload(0x40)\n      tag_192\n      swap2\n      swap1\n      tag_27\n      jump\t// in\n    tag_192:\n      mload(0x40)\n      dup1\n      swap2\n      sub\n      swap1\n      log3\n        /* \"openzeppelin-contracts/contracts/token/ERC721/ERC721.sol\":16024:16342  function _setApprovalForAll(address owner, address operator, bool approved) internal virtual {... */\n      pop\n      pop\n      pop\n      jump\t// out\n        /* \"openzeppelin-contracts/contracts/token/ERC721/ERC721.sol\":17382:18181  function _checkOnERC721Received(address from, address to, uint256 tokenId, bytes memory data) private {... */\n    tag_145:\n        /* \"openzeppelin-contracts/contracts/token/ERC721/ERC721.sol\":17516:17517  0 */\n      0x00\n        /* \"openzeppelin-contracts/contracts/token/ERC721/ERC721.sol\":17499:17501  to */\n      dup4\n        /* \"openzeppelin-contracts/contracts/token/ERC721/ERC721.sol\":17499:17513  to.code.length */\n      0xffffffffffffffffffffffffffffffffffffffff\n      and\n      extcodesize\n        /* \"openzeppelin-contracts/contracts/token/ERC721/ERC721.sol\":17499:17517  to.code.length > 0 */\n      gt\n        /* \"openzeppelin-contracts/contracts/token/ERC721/ERC721.sol\":17495:18174  if (to.code.length > 0) {... */\n      iszero\n      tag_194\n      jumpi\n        /* \"openzeppelin-contracts/contracts/token/ERC721/ERC721.sol\":17554:17556  to */\n      dup3\n        /* \"openzeppelin-contracts/contracts/token/ERC721/ERC721.sol\":17538:17574  IERC721Receiver(to).onERC721Received */\n      0xffffffffffffffffffffffffffffffffffffffff\n      and\n      0x150b7a02\n        /* \"openzeppelin-contracts/contracts/token/ERC721/ERC721.sol\":17575:17587  _msgSender() */\n      tag_195\n        /* \"openzeppelin-contracts/contracts/token/ERC721/ERC721.sol\":17575:17585  _msgSender */\n      tag_107\n        /* \"openzeppelin-contracts/contracts/token/ERC721/ERC721.sol\":17575:17587  _msgSender() */\n      jump\t// in\n    tag_195:\n        /* \"openzeppelin-contracts/contracts/token/ERC721/ERC721.sol\":17589:17593  from */\n      dup7\n        /* \"openzeppelin-contracts/contracts/token/ERC721/ERC721.sol\":17595:17602  tokenId */\n      dup6\n        /* \"openzeppelin-contracts/contracts/token/ERC721/ERC721.sol\":17604:17608  data */\n      dup6\n        /* \"openzeppelin-contracts/contracts/token/ERC721/ERC721.sol\":17538:17609  IERC721Receiver(to).onERC721Received(_msgSender(), from, tokenId, data) */\n      mload(0x40)\n      dup6\n      0xffffffff\n      and\n      0xe0\n      shl\n      dup2\n      mstore\n      0x04\n      add\n      tag_196\n      swap5\n      swap4\n      swap3\n      swap2\n      swap1\n      tag_197\n      jump\t// in\n    tag_196:\n      0x20\n      mload(0x40)\n      dup1\n      dup4\n      sub\n      dup2\n      0x00\n      dup8\n      gas\n      call\n      swap3\n      pop\n      pop\n      pop\n      dup1\n      iszero\n      tag_198\n      jumpi\n      pop\n      mload(0x40)\n      returndatasize\n      not(0x1f)\n      0x1f\n      dup3\n      add\n      and\n      dup3\n      add\n      dup1\n      0x40\n      mstore\n      pop\n      dup2\n      add\n      swap1\n      tag_199\n      swap2\n      swap1\n      tag_200\n      jump\t// in\n    tag_199:\n      0x01\n    tag_198:\n        /* \"openzeppelin-contracts/contracts/token/ERC721/ERC721.sol\":17534:18163  try IERC721Receiver(to).onERC721Received(_msgSender(), from, tokenId, data) returns (bytes4 retval) {... */\n      tag_201\n      jumpi\n      returndatasize\n      dup1\n      0x00\n      dup2\n      eq\n      tag_206\n      jumpi\n      mload(0x40)\n      swap2\n      pop\n      and(add(returndatasize, 0x3f), not(0x1f))\n      dup3\n      add\n      0x40\n      mstore\n      returndatasize\n      dup3\n      mstore\n      returndatasize\n      0x00\n      0x20\n      dup5\n      add\n      returndatacopy\n      jump(tag_205)\n    tag_206:\n      0x60\n      swap2\n      pop\n    tag_205:\n      pop\n        /* \"openzeppelin-contracts/contracts/token/ERC721/ERC721.sol\":17869:17870  0 */\n      0x00\n        /* \"openzeppelin-contracts/contracts/token/ERC721/ERC721.sol\":17852:17858  reason */\n      dup2\n        /* \"openzeppelin-contracts/contracts/token/ERC721/ERC721.sol\":17852:17865  reason.length */\n      mload\n        /* \"openzeppelin-contracts/contracts/token/ERC721/ERC721.sol\":17852:17870  reason.length == 0 */\n      sub\n        /* \"openzeppelin-contracts/contracts/token/ERC721/ERC721.sol\":17848:18148  if (reason.length == 0) {... */\n      tag_207\n      jumpi\n        /* \"openzeppelin-contracts/contracts/token/ERC721/ERC721.sol\":17924:17926  to */\n      dup4\n        /* \"openzeppelin-contracts/contracts/token/ERC721/ERC721.sol\":17902:17927  ERC721InvalidReceiver(to) */\n      mload(0x40)\n      0x64a0ae9200000000000000000000000000000000000000000000000000000000\n      dup2\n      mstore\n      0x04\n      add\n      tag_208\n      swap2\n      swap1\n      tag_37\n      jump\t// in\n    tag_208:\n      mload(0x40)\n      dup1\n      swap2\n      sub\n      swap1\n      revert\n        /* \"openzeppelin-contracts/contracts/token/ERC721/ERC721.sol\":17848:18148  if (reason.length == 0) {... */\n    tag_207:\n        /* \"openzeppelin-contracts/contracts/token/ERC721/ERC721.sol\":18098:18104  reason */\n      dup1\n        /* \"openzeppelin-contracts/contracts/token/ERC721/ERC721.sol\":18092:18105  mload(reason) */\n      mload\n        /* \"openzeppelin-contracts/contracts/token/ERC721/ERC721.sol\":18083:18089  reason */\n      dup2\n        /* \"openzeppelin-contracts/contracts/token/ERC721/ERC721.sol\":18079:18081  32 */\n      0x20\n        /* \"openzeppelin-contracts/contracts/token/ERC721/ERC721.sol\":18075:18090  add(32, reason) */\n      add\n        /* \"openzeppelin-contracts/contracts/token/ERC721/ERC721.sol\":18068:18106  revert(add(32, reason), mload(reason)) */\n      revert\n        /* \"openzeppelin-contracts/contracts/token/ERC721/ERC721.sol\":17534:18163  try IERC721Receiver(to).onERC721Received(_msgSender(), from, tokenId, data) returns (bytes4 retval) {... */\n    tag_201:\n        /* \"openzeppelin-contracts/contracts/token/ERC721/ERC721.sol\":17667:17708  IERC721Receiver.onERC721Received.selector */\n      shl(0xe0, 0x150b7a02)\n        /* \"openzeppelin-contracts/contracts/token/ERC721/ERC721.sol\":17657:17708  retval != IERC721Receiver.onERC721Received.selector */\n      not(0xffffffffffffffffffffffffffffffffffffffffffffffffffffffff)\n      and\n        /* \"openzeppelin-contracts/contracts/token/ERC721/ERC721.sol\":17657:17663  retval */\n      dup2\n        /* \"openzeppelin-contracts/contracts/token/ERC721/ERC721.sol\":17657:17708  retval != IERC721Receiver.onERC721Received.selector */\n      not(0xffffffffffffffffffffffffffffffffffffffffffffffffffffffff)\n      and\n      eq\n        /* \"openzeppelin-contracts/contracts/token/ERC721/ERC721.sol\":17653:17785  if (retval != IERC721Receiver.onERC721Received.selector) {... */\n      tag_211\n      jumpi\n        /* \"openzeppelin-contracts/contracts/token/ERC721/ERC721.sol\":17762:17764  to */\n      dup4\n        /* \"openzeppelin-contracts/contracts/token/ERC721/ERC721.sol\":17740:17765  ERC721InvalidReceiver(to) */\n      mload(0x40)\n      0x64a0ae9200000000000000000000000000000000000000000000000000000000\n      dup2\n      mstore\n      0x04\n      add\n      tag_212\n      swap2\n      swap1\n      tag_37\n      jump\t// in\n    tag_212:\n      mload(0x40)\n      dup1\n      swap2\n      sub\n      swap1\n      revert\n        /* \"openzeppelin-contracts/contracts/token/ERC721/ERC721.sol\":17653:17785  if (retval != IERC721Receiver.onERC721Received.selector) {... */\n    tag_211:\n        /* \"openzeppelin-contracts/contracts/token/ERC721/ERC721.sol\":17610:17800  returns (bytes4 retval) {... */\n      pop\n        /* \"openzeppelin-contracts/contracts/token/ERC721/ERC721.sol\":17495:18174  if (to.code.length > 0) {... */\n    tag_194:\n        /* \"openzeppelin-contracts/contracts/token/ERC721/ERC721.sol\":17382:18181  function _checkOnERC721Received(address from, address to, uint256 tokenId, bytes memory data) private {... */\n      pop\n      pop\n      pop\n      pop\n      jump\t// out\n        /* \"Pieces.sol\":356:475  function _baseURI() internal pure override returns (string memory) {... */\n    tag_149:\n        /* \"Pieces.sol\":408:421  string memory */\n      0x60\n        /* \"Pieces.sol\":434:467  return \"ipfs://pieceTokenBaseURI\" */\n      mload(0x40)\n      dup1\n      0x40\n      add\n      0x40\n      mstore\n      dup1\n      0x18\n      dup2\n      mstore\n      0x20\n      add\n      0x697066733a2f2f7069656365546f6b656e426173655552490000000000000000\n      dup2\n      mstore\n      pop\n      swap1\n      pop\n        /* \"Pieces.sol\":356:475  function _baseURI() internal pure override returns (string memory) {... */\n      swap1\n      jump\t// out\n        /* \"openzeppelin-contracts/contracts/utils/Strings.sol\":660:1378  function toString(uint256 value) internal pure returns (string memory) {... */\n    tag_153:\n        /* \"openzeppelin-contracts/contracts/utils/Strings.sol\":716:729  string memory */\n      0x60\n        /* \"openzeppelin-contracts/contracts/utils/Strings.sol\":767:781  uint256 length */\n      0x00\n        /* \"openzeppelin-contracts/contracts/utils/Strings.sol\":804:805  1 */\n      0x01\n        /* \"openzeppelin-contracts/contracts/utils/Strings.sol\":784:801  Math.log10(value) */\n      tag_215\n        /* \"openzeppelin-contracts/contracts/utils/Strings.sol\":795:800  value */\n      dup5\n        /* \"openzeppelin-contracts/contracts/utils/Strings.sol\":784:794  Math.log10 */\n      tag_216\n        /* \"openzeppelin-contracts/contracts/utils/Strings.sol\":784:801  Math.log10(value) */\n      jump\t// in\n    tag_215:\n        /* \"openzeppelin-contracts/contracts/utils/Strings.sol\":784:805  Math.log10(value) + 1 */\n      add\n        /* \"openzeppelin-contracts/contracts/utils/Strings.sol\":767:805  uint256 length = Math.log10(value) + 1 */\n      swap1\n      pop\n        /* \"openzeppelin-contracts/contracts/utils/Strings.sol\":820:840  string memory buffer */\n      0x00\n        /* \"openzeppelin-contracts/contracts/utils/Strings.sol\":854:860  length */\n      dup2\n        /* \"openzeppelin-contracts/contracts/utils/Strings.sol\":843:861  new string(length) */\n      0xffffffffffffffff\n      dup2\n      gt\n      iszero\n      tag_217\n      jumpi\n      tag_218\n      tag_219\n      jump\t// in\n    tag_218:\n    tag_217:\n      mload(0x40)\n      swap1\n      dup1\n      dup3\n      mstore\n      dup1\n      0x1f\n      add\n      not(0x1f)\n      and\n      0x20\n      add\n      dup3\n      add\n      0x40\n      mstore\n      dup1\n      iszero\n      tag_220\n      jumpi\n      dup2\n      0x20\n      add\n      0x01\n      dup3\n      mul\n      dup1\n      calldatasize\n      dup4\n      calldatacopy\n      dup1\n      dup3\n      add\n      swap2\n      pop\n      pop\n      swap1\n      pop\n    tag_220:\n      pop\n        /* \"openzeppelin-contracts/contracts/utils/Strings.sol\":820:861  string memory buffer = new string(length) */\n      swap1\n      pop\n        /* \"openzeppelin-contracts/contracts/utils/Strings.sol\":876:887  uint256 ptr */\n      0x00\n        /* \"openzeppelin-contracts/contracts/utils/Strings.sol\":1005:1011  length */\n      dup3\n        /* \"openzeppelin-contracts/contracts/utils/Strings.sol\":1001:1003  32 */\n      0x20\n        /* \"openzeppelin-contracts/contracts/utils/Strings.sol\":997:1012  add(32, length) */\n      add\n        /* \"openzeppelin-contracts/contracts/utils/Strings.sol\":989:995  buffer */\n      dup3\n        /* \"openzeppelin-contracts/contracts/utils/Strings.sol\":985:1013  add(buffer, add(32, length)) */\n      add\n        /* \"openzeppelin-contracts/contracts/utils/Strings.sol\":978:1013  ptr := add(buffer, add(32, length)) */\n      swap1\n      pop\n        /* \"openzeppelin-contracts/contracts/utils/Strings.sol\":1042:1332  while (true) {... */\n    tag_221:\n        /* \"openzeppelin-contracts/contracts/utils/Strings.sol\":1049:1053  true */\n      0x01\n        /* \"openzeppelin-contracts/contracts/utils/Strings.sol\":1042:1332  while (true) {... */\n      iszero\n      tag_222\n      jumpi\n        /* \"openzeppelin-contracts/contracts/utils/Strings.sol\":1074:1079  ptr-- */\n      dup1\n      dup1\n      0x01\n      swap1\n      sub\n      swap2\n      pop\n      pop\n        /* \"openzeppelin-contracts/contracts/utils/Strings.sol\":1216:1226  HEX_DIGITS */\n      0x3031323334353637383961626364656600000000000000000000000000000000\n        /* \"openzeppelin-contracts/contracts/utils/Strings.sol\":1211:1213  10 */\n      0x0a\n        /* \"openzeppelin-contracts/contracts/utils/Strings.sol\":1204:1209  value */\n      dup7\n        /* \"openzeppelin-contracts/contracts/utils/Strings.sol\":1200:1214  mod(value, 10) */\n      mod\n        /* \"openzeppelin-contracts/contracts/utils/Strings.sol\":1195:1227  byte(mod(value, 10), HEX_DIGITS) */\n      byte\n        /* \"openzeppelin-contracts/contracts/utils/Strings.sol\":1190:1193  ptr */\n      dup2\n        /* \"openzeppelin-contracts/contracts/utils/Strings.sol\":1182:1228  mstore8(ptr, byte(mod(value, 10), HEX_DIGITS)) */\n      mstore8\n        /* \"openzeppelin-contracts/contracts/utils/Strings.sol\":1274:1276  10 */\n      0x0a\n        /* \"openzeppelin-contracts/contracts/utils/Strings.sol\":1265:1276  value /= 10 */\n      dup6\n      dup2\n      tag_223\n      jumpi\n      tag_224\n      tag_225\n      jump\t// in\n    tag_224:\n    tag_223:\n      div\n      swap5\n      pop\n        /* \"openzeppelin-contracts/contracts/utils/Strings.sol\":1308:1309  0 */\n      0x00\n        /* \"openzeppelin-contracts/contracts/utils/Strings.sol\":1299:1304  value */\n      dup6\n        /* \"openzeppelin-contracts/contracts/utils/Strings.sol\":1299:1309  value == 0 */\n      sub\n        /* \"openzeppelin-contracts/contracts/utils/Strings.sol\":1042:1332  while (true) {... */\n      tag_221\n        /* \"openzeppelin-contracts/contracts/utils/Strings.sol\":1295:1316  if (value == 0) break */\n      jumpi\n        /* \"openzeppelin-contracts/contracts/utils/Strings.sol\":1042:1332  while (true) {... */\n    tag_222:\n        /* \"openzeppelin-contracts/contracts/utils/Strings.sol\":1353:1359  buffer */\n      dup2\n        /* \"openzeppelin-contracts/contracts/utils/Strings.sol\":1346:1359  return buffer */\n      swap4\n      pop\n      pop\n      pop\n      pop\n        /* \"openzeppelin-contracts/contracts/utils/Strings.sol\":660:1378  function toString(uint256 value) internal pure returns (string memory) {... */\n      swap2\n      swap1\n      pop\n      jump\t// out\n        /* \"openzeppelin-contracts/contracts/token/ERC721/ERC721.sol\":5878:5995  function _ownerOf(uint256 tokenId) internal view virtual returns (address) {... */\n    tag_166:\n        /* \"openzeppelin-contracts/contracts/token/ERC721/ERC721.sol\":5944:5951  address */\n      0x00\n        /* \"openzeppelin-contracts/contracts/token/ERC721/ERC721.sol\":5971:5978  _owners */\n      0x02\n        /* \"openzeppelin-contracts/contracts/token/ERC721/ERC721.sol\":5971:5987  _owners[tokenId] */\n      0x00\n        /* \"openzeppelin-contracts/contracts/token/ERC721/ERC721.sol\":5979:5986  tokenId */\n      dup4\n        /* \"openzeppelin-contracts/contracts/token/ERC721/ERC721.sol\":5971:5987  _owners[tokenId] */\n      dup2\n      mstore\n      0x20\n      add\n      swap1\n      dup2\n      mstore\n      0x20\n      add\n      0x00\n      keccak256\n      0x00\n      swap1\n      sload\n      swap1\n      0x0100\n      exp\n      swap1\n      div\n      0xffffffffffffffffffffffffffffffffffffffff\n      and\n        /* \"openzeppelin-contracts/contracts/token/ERC721/ERC721.sol\":5964:5987  return _owners[tokenId] */\n      swap1\n      pop\n        /* \"openzeppelin-contracts/contracts/token/ERC721/ERC721.sol\":5878:5995  function _ownerOf(uint256 tokenId) internal view virtual returns (address) {... */\n      swap2\n      swap1\n      pop\n      jump\t// out\n        /* \"openzeppelin-contracts/contracts/token/ERC721/ERC721.sol\":15127:15805  function _approve(address to, uint256 tokenId, address auth, bool emitEvent) internal virtual {... */\n    tag_173:\n        /* \"openzeppelin-contracts/contracts/token/ERC721/ERC721.sol\":15289:15298  emitEvent */\n      dup1\n        /* \"openzeppelin-contracts/contracts/token/ERC721/ERC721.sol\":15289:15320  emitEvent || auth != address(0) */\n      dup1\n      tag_229\n      jumpi\n      pop\n        /* \"openzeppelin-contracts/contracts/token/ERC721/ERC721.sol\":15318:15319  0 */\n      0x00\n        /* \"openzeppelin-contracts/contracts/token/ERC721/ERC721.sol\":15302:15320  auth != address(0) */\n      0xffffffffffffffffffffffffffffffffffffffff\n      and\n        /* \"openzeppelin-contracts/contracts/token/ERC721/ERC721.sol\":15302:15306  auth */\n      dup3\n        /* \"openzeppelin-contracts/contracts/token/ERC721/ERC721.sol\":15302:15320  auth != address(0) */\n      0xffffffffffffffffffffffffffffffffffffffff\n      and\n      eq\n      iszero\n        /* \"openzeppelin-contracts/contracts/token/ERC721/ERC721.sol\":15289:15320  emitEvent || auth != address(0) */\n    tag_229:\n        /* \"openzeppelin-contracts/contracts/token/ERC721/ERC721.sol\":15285:15756  if (emitEvent || auth != address(0)) {... */\n      iszero\n      tag_230\n      jumpi\n        /* \"openzeppelin-contracts/contracts/token/ERC721/ERC721.sol\":15337:15350  address owner */\n      0x00\n        /* \"openzeppelin-contracts/contracts/token/ERC721/ERC721.sol\":15353:15375  _requireOwned(tokenId) */\n      tag_231\n        /* \"openzeppelin-contracts/contracts/token/ERC721/ERC721.sol\":15367:15374  tokenId */\n      dup5\n        /* \"openzeppelin-contracts/contracts/token/ERC721/ERC721.sol\":15353:15366  _requireOwned */\n      tag_101\n        /* \"openzeppelin-contracts/contracts/token/ERC721/ERC721.sol\":15353:15375  _requireOwned(tokenId) */\n      jump\t// in\n    tag_231:\n        /* \"openzeppelin-contracts/contracts/token/ERC721/ERC721.sol\":15337:15375  address owner = _requireOwned(tokenId) */\n      swap1\n      pop\n        /* \"openzeppelin-contracts/contracts/token/ERC721/ERC721.sol\":15522:15523  0 */\n      0x00\n        /* \"openzeppelin-contracts/contracts/token/ERC721/ERC721.sol\":15506:15524  auth != address(0) */\n      0xffffffffffffffffffffffffffffffffffffffff\n      and\n        /* \"openzeppelin-contracts/contracts/token/ERC721/ERC721.sol\":15506:15510  auth */\n      dup4\n        /* \"openzeppelin-contracts/contracts/token/ERC721/ERC721.sol\":15506:15524  auth != address(0) */\n      0xffffffffffffffffffffffffffffffffffffffff\n      and\n      eq\n      iszero\n        /* \"openzeppelin-contracts/contracts/token/ERC721/ERC721.sol\":15506:15541  auth != address(0) && owner != auth */\n      dup1\n      iszero\n      tag_232\n      jumpi\n      pop\n        /* \"openzeppelin-contracts/contracts/token/ERC721/ERC721.sol\":15537:15541  auth */\n      dup3\n        /* \"openzeppelin-contracts/contracts/token/ERC721/ERC721.sol\":15528:15541  owner != auth */\n      0xffffffffffffffffffffffffffffffffffffffff\n      and\n        /* \"openzeppelin-contracts/contracts/token/ERC721/ERC721.sol\":15528:15533  owner */\n      dup2\n        /* \"openzeppelin-contracts/contracts/token/ERC721/ERC721.sol\":15528:15541  owner != auth */\n      0xffffffffffffffffffffffffffffffffffffffff\n      and\n      eq\n      iszero\n        /* \"openzeppelin-contracts/contracts/token/ERC721/ERC721.sol\":15506:15541  auth != address(0) && owner != auth */\n    tag_232:\n        /* \"openzeppelin-contracts/contracts/token/ERC721/ERC721.sol\":15506:15575  auth != address(0) && owner != auth && !isApprovedForAll(owner, auth) */\n      dup1\n      iszero\n      tag_233\n      jumpi\n      pop\n        /* \"openzeppelin-contracts/contracts/token/ERC721/ERC721.sol\":15546:15575  isApprovedForAll(owner, auth) */\n      tag_234\n        /* \"openzeppelin-contracts/contracts/token/ERC721/ERC721.sol\":15563:15568  owner */\n      dup2\n        /* \"openzeppelin-contracts/contracts/token/ERC721/ERC721.sol\":15570:15574  auth */\n      dup5\n        /* \"openzeppelin-contracts/contracts/token/ERC721/ERC721.sol\":15546:15562  isApprovedForAll */\n      tag_82\n        /* \"openzeppelin-contracts/contracts/token/ERC721/ERC721.sol\":15546:15575  isApprovedForAll(owner, auth) */\n      jump\t// in\n    tag_234:\n        /* \"openzeppelin-contracts/contracts/token/ERC721/ERC721.sol\":15545:15575  !isApprovedForAll(owner, auth) */\n      iszero\n        /* \"openzeppelin-contracts/contracts/token/ERC721/ERC721.sol\":15506:15575  auth != address(0) && owner != auth && !isApprovedForAll(owner, auth) */\n    tag_233:\n        /* \"openzeppelin-contracts/contracts/token/ERC721/ERC721.sol\":15502:15646  if (auth != address(0) && owner != auth && !isApprovedForAll(owner, auth)) {... */\n      iszero\n      tag_235\n      jumpi\n        /* \"openzeppelin-contracts/contracts/token/ERC721/ERC721.sol\":15625:15629  auth */\n      dup3\n        /* \"openzeppelin-contracts/contracts/token/ERC721/ERC721.sol\":15603:15630  ERC721InvalidApprover(auth) */\n      mload(0x40)\n      0xa9fbf51f00000000000000000000000000000000000000000000000000000000\n      dup2\n      mstore\n      0x04\n      add\n      tag_236\n      swap2\n      swap1\n      tag_37\n      jump\t// in\n    tag_236:\n      mload(0x40)\n      dup1\n      swap2\n      sub\n      swap1\n      revert\n        /* \"openzeppelin-contracts/contracts/token/ERC721/ERC721.sol\":15502:15646  if (auth != address(0) && owner != auth && !isApprovedForAll(owner, auth)) {... */\n    tag_235:\n        /* \"openzeppelin-contracts/contracts/token/ERC721/ERC721.sol\":15666:15675  emitEvent */\n      dup2\n        /* \"openzeppelin-contracts/contracts/token/ERC721/ERC721.sol\":15662:15745  if (emitEvent) {... */\n      iszero\n      tag_237\n      jumpi\n        /* \"openzeppelin-contracts/contracts/token/ERC721/ERC721.sol\":15721:15728  tokenId */\n      dup4\n        /* \"openzeppelin-contracts/contracts/token/ERC721/ERC721.sol\":15717:15719  to */\n      dup6\n        /* \"openzeppelin-contracts/contracts/token/ERC721/ERC721.sol\":15701:15729  Approval(owner, to, tokenId) */\n      0xffffffffffffffffffffffffffffffffffffffff\n      and\n        /* \"openzeppelin-contracts/contracts/token/ERC721/ERC721.sol\":15710:15715  owner */\n      dup3\n        /* \"openzeppelin-contracts/contracts/token/ERC721/ERC721.sol\":15701:15729  Approval(owner, to, tokenId) */\n      0xffffffffffffffffffffffffffffffffffffffff\n      and\n      0x8c5be1e5ebec7d5bd14f71427d1e84f3dd0314c0f7b2291e5b200ac8c7c3b925\n      mload(0x40)\n      mload(0x40)\n      dup1\n      swap2\n      sub\n      swap1\n      log4\n        /* \"openzeppelin-contracts/contracts/token/ERC721/ERC721.sol\":15662:15745  if (emitEvent) {... */\n    tag_237:\n        /* \"openzeppelin-contracts/contracts/token/ERC721/ERC721.sol\":15322:15756  {... */\n      pop\n        /* \"openzeppelin-contracts/contracts/token/ERC721/ERC721.sol\":15285:15756  if (emitEvent || auth != address(0)) {... */\n    tag_230:\n        /* \"openzeppelin-contracts/contracts/token/ERC721/ERC721.sol\":15795:15797  to */\n      dup4\n        /* \"openzeppelin-contracts/contracts/token/ERC721/ERC721.sol\":15768:15783  _tokenApprovals */\n      0x04\n        /* \"openzeppelin-contracts/contracts/token/ERC721/ERC721.sol\":15768:15792  _tokenApprovals[tokenId] */\n      0x00\n        /* \"openzeppelin-contracts/contracts/token/ERC721/ERC721.sol\":15784:15791  tokenId */\n      dup6\n        /* \"openzeppelin-contracts/contracts/token/ERC721/ERC721.sol\":15768:15792  _tokenApprovals[tokenId] */\n      dup2\n      mstore\n      0x20\n      add\n      swap1\n      dup2\n      mstore\n      0x20\n      add\n      0x00\n      keccak256\n      0x00\n        /* \"openzeppelin-contracts/contracts/token/ERC721/ERC721.sol\":15768:15797  _tokenApprovals[tokenId] = to */\n      0x0100\n      exp\n      dup2\n      sload\n      dup2\n      0xffffffffffffffffffffffffffffffffffffffff\n      mul\n      not\n      and\n      swap1\n      dup4\n      0xffffffffffffffffffffffffffffffffffffffff\n      and\n      mul\n      or\n      swap1\n      sstore\n      pop\n        /* \"openzeppelin-contracts/contracts/token/ERC721/ERC721.sol\":15127:15805  function _approve(address to, uint256 tokenId, address auth, bool emitEvent) internal virtual {... */\n      pop\n      pop\n      pop\n      pop\n      jump\t// out\n        /* \"openzeppelin-contracts/contracts/token/ERC721/ERC721.sol\":7285:7661  function _checkAuthorized(address owner, address spender, uint256 tokenId) internal view virtual {... */\n    tag_178:\n        /* \"openzeppelin-contracts/contracts/token/ERC721/ERC721.sol\":7398:7436  _isAuthorized(owner, spender, tokenId) */\n      tag_239\n        /* \"openzeppelin-contracts/contracts/token/ERC721/ERC721.sol\":7412:7417  owner */\n      dup4\n        /* \"openzeppelin-contracts/contracts/token/ERC721/ERC721.sol\":7419:7426  spender */\n      dup4\n        /* \"openzeppelin-contracts/contracts/token/ERC721/ERC721.sol\":7428:7435  tokenId */\n      dup4\n        /* \"openzeppelin-contracts/contracts/token/ERC721/ERC721.sol\":7398:7411  _isAuthorized */\n      tag_240\n        /* \"openzeppelin-contracts/contracts/token/ERC721/ERC721.sol\":7398:7436  _isAuthorized(owner, spender, tokenId) */\n      jump\t// in\n    tag_239:\n        /* \"openzeppelin-contracts/contracts/token/ERC721/ERC721.sol\":7393:7654  if (!_isAuthorized(owner, spender, tokenId)) {... */\n      tag_241\n      jumpi\n        /* \"openzeppelin-contracts/contracts/token/ERC721/ERC721.sol\":7474:7475  0 */\n      0x00\n        /* \"openzeppelin-contracts/contracts/token/ERC721/ERC721.sol\":7457:7476  owner == address(0) */\n      0xffffffffffffffffffffffffffffffffffffffff\n      and\n        /* \"openzeppelin-contracts/contracts/token/ERC721/ERC721.sol\":7457:7462  owner */\n      dup4\n        /* \"openzeppelin-contracts/contracts/token/ERC721/ERC721.sol\":7457:7476  owner == address(0) */\n      0xffffffffffffffffffffffffffffffffffffffff\n      and\n      sub\n        /* \"openzeppelin-contracts/contracts/token/ERC721/ERC721.sol\":7453:7643  if (owner == address(0)) {... */\n      tag_242\n      jumpi\n        /* \"openzeppelin-contracts/contracts/token/ERC721/ERC721.sol\":7527:7534  tokenId */\n      dup1\n        /* \"openzeppelin-contracts/contracts/token/ERC721/ERC721.sol\":7504:7535  ERC721NonexistentToken(tokenId) */\n      mload(0x40)\n      0x7e27328900000000000000000000000000000000000000000000000000000000\n      dup2\n      mstore\n      0x04\n      add\n      tag_243\n      swap2\n      swap1\n      tag_58\n      jump\t// in\n    tag_243:\n      mload(0x40)\n      dup1\n      swap2\n      sub\n      swap1\n      revert\n        /* \"openzeppelin-contracts/contracts/token/ERC721/ERC721.sol\":7453:7643  if (owner == address(0)) {... */\n    tag_242:\n        /* \"openzeppelin-contracts/contracts/token/ERC721/ERC721.sol\":7610:7617  spender */\n      dup2\n        /* \"openzeppelin-contracts/contracts/token/ERC721/ERC721.sol\":7619:7626  tokenId */\n      dup2\n        /* \"openzeppelin-contracts/contracts/token/ERC721/ERC721.sol\":7583:7627  ERC721InsufficientApproval(spender, tokenId) */\n      mload(0x40)\n      0x177e802f00000000000000000000000000000000000000000000000000000000\n      dup2\n      mstore\n      0x04\n      add\n      tag_245\n      swap3\n      swap2\n      swap1\n      tag_246\n      jump\t// in\n    tag_245:\n      mload(0x40)\n      dup1\n      swap2\n      sub\n      swap1\n      revert\n        /* \"openzeppelin-contracts/contracts/token/ERC721/ERC721.sol\":7393:7654  if (!_isAuthorized(owner, spender, tokenId)) {... */\n    tag_241:\n        /* \"openzeppelin-contracts/contracts/token/ERC721/ERC721.sol\":7285:7661  function _checkAuthorized(address owner, address spender, uint256 tokenId) internal view virtual {... */\n      pop\n      pop\n      pop\n      jump\t// out\n        /* \"openzeppelin-contracts/contracts/utils/math/Math.sol\":12534:13482  function log10(uint256 value) internal pure returns (uint256) {... */\n    tag_216:\n        /* \"openzeppelin-contracts/contracts/utils/math/Math.sol\":12587:12594  uint256 */\n      0x00\n        /* \"openzeppelin-contracts/contracts/utils/math/Math.sol\":12607:12621  uint256 result */\n      dup1\n        /* \"openzeppelin-contracts/contracts/utils/math/Math.sol\":12624:12625  0 */\n      0x00\n        /* \"openzeppelin-contracts/contracts/utils/math/Math.sol\":12607:12625  uint256 result = 0 */\n      swap1\n      pop\n        /* \"openzeppelin-contracts/contracts/utils/math/Math.sol\":12674:12682  10 ** 64 */\n      0x184f03e93ff9f4daa797ed6e38ed64bf6a1f010000000000000000\n        /* \"openzeppelin-contracts/contracts/utils/math/Math.sol\":12665:12670  value */\n      dup4\n        /* \"openzeppelin-contracts/contracts/utils/math/Math.sol\":12665:12682  value >= 10 ** 64 */\n      lt\n        /* \"openzeppelin-contracts/contracts/utils/math/Math.sol\":12661:12767  if (value >= 10 ** 64) {... */\n      tag_248\n      jumpi\n        /* \"openzeppelin-contracts/contracts/utils/math/Math.sol\":12712:12720  10 ** 64 */\n      0x184f03e93ff9f4daa797ed6e38ed64bf6a1f010000000000000000\n        /* \"openzeppelin-contracts/contracts/utils/math/Math.sol\":12703:12720  value /= 10 ** 64 */\n      dup4\n      dup2\n      tag_249\n      jumpi\n      tag_250\n      tag_225\n      jump\t// in\n    tag_250:\n    tag_249:\n      div\n      swap3\n      pop\n        /* \"openzeppelin-contracts/contracts/utils/math/Math.sol\":12749:12751  64 */\n      0x40\n        /* \"openzeppelin-contracts/contracts/utils/math/Math.sol\":12739:12751  result += 64 */\n      dup2\n      add\n      swap1\n      pop\n        /* \"openzeppelin-contracts/contracts/utils/math/Math.sol\":12661:12767  if (value >= 10 ** 64) {... */\n    tag_248:\n        /* \"openzeppelin-contracts/contracts/utils/math/Math.sol\":12794:12802  10 ** 32 */\n      0x04ee2d6d415b85acef8100000000\n        /* \"openzeppelin-contracts/contracts/utils/math/Math.sol\":12785:12790  value */\n      dup4\n        /* \"openzeppelin-contracts/contracts/utils/math/Math.sol\":12785:12802  value >= 10 ** 32 */\n      lt\n        /* \"openzeppelin-contracts/contracts/utils/math/Math.sol\":12781:12887  if (value >= 10 ** 32) {... */\n      tag_251\n      jumpi\n        /* \"openzeppelin-contracts/contracts/utils/math/Math.sol\":12832:12840  10 ** 32 */\n      0x04ee2d6d415b85acef8100000000\n        /* \"openzeppelin-contracts/contracts/utils/math/Math.sol\":12823:12840  value /= 10 ** 32 */\n      dup4\n      dup2\n      tag_252\n      jumpi\n      tag_253\n      tag_225\n      jump\t// in\n    tag_253:\n    tag_252:\n      div\n      swap3\n      pop\n        /* \"openzeppelin-contracts/contracts/utils/math/Math.sol\":12869:12871  32 */\n      0x20\n        /* \"openzeppelin-contracts/contracts/utils/math/Math.sol\":12859:12871  result += 32 */\n      dup2\n      add\n      swap1\n      pop\n        /* \"openzeppelin-contracts/contracts/utils/math/Math.sol\":12781:12887  if (value >= 10 ** 32) {... */\n    tag_251:\n        /* \"openzeppelin-contracts/contracts/utils/math/Math.sol\":12914:12922  10 ** 16 */\n      0x2386f26fc10000\n        /* \"openzeppelin-contracts/contracts/utils/math/Math.sol\":12905:12910  value */\n      dup4\n        /* \"openzeppelin-contracts/contracts/utils/math/Math.sol\":12905:12922  value >= 10 ** 16 */\n      lt\n        /* \"openzeppelin-contracts/contracts/utils/math/Math.sol\":12901:13007  if (value >= 10 ** 16) {... */\n      tag_254\n      jumpi\n        /* \"openzeppelin-contracts/contracts/utils/math/Math.sol\":12952:12960  10 ** 16 */\n      0x2386f26fc10000\n        /* \"openzeppelin-contracts/contracts/utils/math/Math.sol\":12943:12960  value /= 10 ** 16 */\n      dup4\n      dup2\n      tag_255\n      jumpi\n      tag_256\n      tag_225\n      jump\t// in\n    tag_256:\n    tag_255:\n      div\n      swap3\n      pop\n        /* \"openzeppelin-contracts/contracts/utils/math/Math.sol\":12989:12991  16 */\n      0x10\n        /* \"openzeppelin-contracts/contracts/utils/math/Math.sol\":12979:12991  result += 16 */\n      dup2\n      add\n      swap1\n      pop\n        /* \"openzeppelin-contracts/contracts/utils/math/Math.sol\":12901:13007  if (value >= 10 ** 16) {... */\n    tag_254:\n        /* \"openzeppelin-contracts/contracts/utils/math/Math.sol\":13034:13041  10 ** 8 */\n      0x05f5e100\n        /* \"openzeppelin-contracts/contracts/utils/math/Math.sol\":13025:13030  value */\n      dup4\n        /* \"openzeppelin-contracts/contracts/utils/math/Math.sol\":13025:13041  value >= 10 ** 8 */\n      lt\n        /* \"openzeppelin-contracts/contracts/utils/math/Math.sol\":13021:13124  if (value >= 10 ** 8) {... */\n      tag_257\n      jumpi\n        /* \"openzeppelin-contracts/contracts/utils/math/Math.sol\":13071:13078  10 ** 8 */\n      0x05f5e100\n        /* \"openzeppelin-contracts/contracts/utils/math/Math.sol\":13062:13078  value /= 10 ** 8 */\n      dup4\n      dup2\n      tag_258\n      jumpi\n      tag_259\n      tag_225\n      jump\t// in\n    tag_259:\n    tag_258:\n      div\n      swap3\n      pop\n        /* \"openzeppelin-contracts/contracts/utils/math/Math.sol\":13107:13108  8 */\n      0x08\n        /* \"openzeppelin-contracts/contracts/utils/math/Math.sol\":13097:13108  result += 8 */\n      dup2\n      add\n      swap1\n      pop\n        /* \"openzeppelin-contracts/contracts/utils/math/Math.sol\":13021:13124  if (value >= 10 ** 8) {... */\n    tag_257:\n        /* \"openzeppelin-contracts/contracts/utils/math/Math.sol\":13151:13158  10 ** 4 */\n      0x2710\n        /* \"openzeppelin-contracts/contracts/utils/math/Math.sol\":13142:13147  value */\n      dup4\n        /* \"openzeppelin-contracts/contracts/utils/math/Math.sol\":13142:13158  value >= 10 ** 4 */\n      lt\n        /* \"openzeppelin-contracts/contracts/utils/math/Math.sol\":13138:13241  if (value >= 10 ** 4) {... */\n      tag_260\n      jumpi\n        /* \"openzeppelin-contracts/contracts/utils/math/Math.sol\":13188:13195  10 ** 4 */\n      0x2710\n        /* \"openzeppelin-contracts/contracts/utils/math/Math.sol\":13179:13195  value /= 10 ** 4 */\n      dup4\n      dup2\n      tag_261\n      jumpi\n      tag_262\n      tag_225\n      jump\t// in\n    tag_262:\n    tag_261:\n      div\n      swap3\n      pop\n        /* \"openzeppelin-contracts/contracts/utils/math/Math.sol\":13224:13225  4 */\n      0x04\n        /* \"openzeppelin-contracts/contracts/utils/math/Math.sol\":13214:13225  result += 4 */\n      dup2\n      add\n      swap1\n      pop\n        /* \"openzeppelin-contracts/contracts/utils/math/Math.sol\":13138:13241  if (value >= 10 ** 4) {... */\n    tag_260:\n        /* \"openzeppelin-contracts/contracts/utils/math/Math.sol\":13268:13275  10 ** 2 */\n      0x64\n        /* \"openzeppelin-contracts/contracts/utils/math/Math.sol\":13259:13264  value */\n      dup4\n        /* \"openzeppelin-contracts/contracts/utils/math/Math.sol\":13259:13275  value >= 10 ** 2 */\n      lt\n        /* \"openzeppelin-contracts/contracts/utils/math/Math.sol\":13255:13358  if (value >= 10 ** 2) {... */\n      tag_263\n      jumpi\n        /* \"openzeppelin-contracts/contracts/utils/math/Math.sol\":13305:13312  10 ** 2 */\n      0x64\n        /* \"openzeppelin-contracts/contracts/utils/math/Math.sol\":13296:13312  value /= 10 ** 2 */\n      dup4\n      dup2\n      tag_264\n      jumpi\n      tag_265\n      tag_225\n      jump\t// in\n    tag_265:\n    tag_264:\n      div\n      swap3\n      pop\n        /* \"openzeppelin-contracts/contracts/utils/math/Math.sol\":13341:13342  2 */\n      0x02\n        /* \"openzeppelin-contracts/contracts/utils/math/Math.sol\":13331:13342  result += 2 */\n      dup2\n      add\n      swap1\n      pop\n        /* \"openzeppelin-contracts/contracts/utils/math/Math.sol\":13255:13358  if (value >= 10 ** 2) {... */\n    tag_263:\n        /* \"openzeppelin-contracts/contracts/utils/math/Math.sol\":13385:13392  10 ** 1 */\n      0x0a\n        /* \"openzeppelin-contracts/contracts/utils/math/Math.sol\":13376:13381  value */\n      dup4\n        /* \"openzeppelin-contracts/contracts/utils/math/Math.sol\":13376:13392  value >= 10 ** 1 */\n      lt\n        /* \"openzeppelin-contracts/contracts/utils/math/Math.sol\":13372:13440  if (value >= 10 ** 1) {... */\n      tag_266\n      jumpi\n        /* \"openzeppelin-contracts/contracts/utils/math/Math.sol\":13423:13424  1 */\n      0x01\n        /* \"openzeppelin-contracts/contracts/utils/math/Math.sol\":13413:13424  result += 1 */\n      dup2\n      add\n      swap1\n      pop\n        /* \"openzeppelin-contracts/contracts/utils/math/Math.sol\":13372:13440  if (value >= 10 ** 1) {... */\n    tag_266:\n        /* \"openzeppelin-contracts/contracts/utils/math/Math.sol\":13468:13474  result */\n      dup1\n        /* \"openzeppelin-contracts/contracts/utils/math/Math.sol\":13461:13474  return result */\n      swap2\n      pop\n      pop\n        /* \"openzeppelin-contracts/contracts/utils/math/Math.sol\":12534:13482  function log10(uint256 value) internal pure returns (uint256) {... */\n      swap2\n      swap1\n      pop\n      jump\t// out\n        /* \"openzeppelin-contracts/contracts/token/ERC721/ERC721.sol\":6565:6841  function _isAuthorized(address owner, address spender, uint256 tokenId) internal view virtual returns (bool) {... */\n    tag_240:\n        /* \"openzeppelin-contracts/contracts/token/ERC721/ERC721.sol\":6668:6672  bool */\n      0x00\n        /* \"openzeppelin-contracts/contracts/token/ERC721/ERC721.sol\":6724:6725  0 */\n      dup1\n        /* \"openzeppelin-contracts/contracts/token/ERC721/ERC721.sol\":6705:6726  spender != address(0) */\n      0xffffffffffffffffffffffffffffffffffffffff\n      and\n        /* \"openzeppelin-contracts/contracts/token/ERC721/ERC721.sol\":6705:6712  spender */\n      dup4\n        /* \"openzeppelin-contracts/contracts/token/ERC721/ERC721.sol\":6705:6726  spender != address(0) */\n      0xffffffffffffffffffffffffffffffffffffffff\n      and\n      eq\n      iszero\n        /* \"openzeppelin-contracts/contracts/token/ERC721/ERC721.sol\":6705:6833  spender != address(0) &&... */\n      dup1\n      iszero\n      tag_268\n      jumpi\n      pop\n        /* \"openzeppelin-contracts/contracts/token/ERC721/ERC721.sol\":6753:6760  spender */\n      dup3\n        /* \"openzeppelin-contracts/contracts/token/ERC721/ERC721.sol\":6744:6760  owner == spender */\n      0xffffffffffffffffffffffffffffffffffffffff\n      and\n        /* \"openzeppelin-contracts/contracts/token/ERC721/ERC721.sol\":6744:6749  owner */\n      dup5\n        /* \"openzeppelin-contracts/contracts/token/ERC721/ERC721.sol\":6744:6760  owner == spender */\n      0xffffffffffffffffffffffffffffffffffffffff\n      and\n      eq\n        /* \"openzeppelin-contracts/contracts/token/ERC721/ERC721.sol\":6744:6796  owner == spender || isApprovedForAll(owner, spender) */\n      dup1\n      tag_269\n      jumpi\n      pop\n        /* \"openzeppelin-contracts/contracts/token/ERC721/ERC721.sol\":6764:6796  isApprovedForAll(owner, spender) */\n      tag_270\n        /* \"openzeppelin-contracts/contracts/token/ERC721/ERC721.sol\":6781:6786  owner */\n      dup5\n        /* \"openzeppelin-contracts/contracts/token/ERC721/ERC721.sol\":6788:6795  spender */\n      dup5\n        /* \"openzeppelin-contracts/contracts/token/ERC721/ERC721.sol\":6764:6780  isApprovedForAll */\n      tag_82\n        /* \"openzeppelin-contracts/contracts/token/ERC721/ERC721.sol\":6764:6796  isApprovedForAll(owner, spender) */\n      jump\t// in\n    tag_270:\n        /* \"openzeppelin-contracts/contracts/token/ERC721/ERC721.sol\":6744:6796  owner == spender || isApprovedForAll(owner, spender) */\n    tag_269:\n        /* \"openzeppelin-contracts/contracts/token/ERC721/ERC721.sol\":6744:6832  owner == spender || isApprovedForAll(owner, spender) || _getApproved(tokenId) == spender */\n      dup1\n      tag_271\n      jumpi\n      pop\n        /* \"openzeppelin-contracts/contracts/token/ERC721/ERC721.sol\":6825:6832  spender */\n      dup3\n        /* \"openzeppelin-contracts/contracts/token/ERC721/ERC721.sol\":6800:6832  _getApproved(tokenId) == spender */\n      0xffffffffffffffffffffffffffffffffffffffff\n      and\n        /* \"openzeppelin-contracts/contracts/token/ERC721/ERC721.sol\":6800:6821  _getApproved(tokenId) */\n      tag_272\n        /* \"openzeppelin-contracts/contracts/token/ERC721/ERC721.sol\":6813:6820  tokenId */\n      dup4\n        /* \"openzeppelin-contracts/contracts/token/ERC721/ERC721.sol\":6800:6812  _getApproved */\n      tag_103\n        /* \"openzeppelin-contracts/contracts/token/ERC721/ERC721.sol\":6800:6821  _getApproved(tokenId) */\n      jump\t// in\n    tag_272:\n        /* \"openzeppelin-contracts/contracts/token/ERC721/ERC721.sol\":6800:6832  _getApproved(tokenId) == spender */\n      0xffffffffffffffffffffffffffffffffffffffff\n      and\n      eq\n        /* \"openzeppelin-contracts/contracts/token/ERC721/ERC721.sol\":6744:6832  owner == spender || isApprovedForAll(owner, spender) || _getApproved(tokenId) == spender */\n    tag_271:\n        /* \"openzeppelin-contracts/contracts/token/ERC721/ERC721.sol\":6705:6833  spender != address(0) &&... */\n    tag_268:\n        /* \"openzeppelin-contracts/contracts/token/ERC721/ERC721.sol\":6685:6833  return... */\n      swap1\n      pop\n        /* \"openzeppelin-contracts/contracts/token/ERC721/ERC721.sol\":6565:6841  function _isAuthorized(address owner, address spender, uint256 tokenId) internal view virtual returns (bool) {... */\n      swap4\n      swap3\n      pop\n      pop\n      pop\n      jump\t// out\n        /* \"#utility.yul\":7:82   */\n    tag_273:\n        /* \"#utility.yul\":40:46   */\n      0x00\n        /* \"#utility.yul\":73:75   */\n      0x40\n        /* \"#utility.yul\":67:76   */\n      mload\n        /* \"#utility.yul\":57:76   */\n      swap1\n      pop\n        /* \"#utility.yul\":7:82   */\n      swap1\n      jump\t// out\n        /* \"#utility.yul\":88:205   */\n    tag_274:\n        /* \"#utility.yul\":197:198   */\n      0x00\n        /* \"#utility.yul\":194:195   */\n      dup1\n        /* \"#utility.yul\":187:199   */\n      revert\n        /* \"#utility.yul\":211:328   */\n    tag_275:\n        /* \"#utility.yul\":320:321   */\n      0x00\n        /* \"#utility.yul\":317:318   */\n      dup1\n        /* \"#utility.yul\":310:322   */\n      revert\n        /* \"#utility.yul\":334:483   */\n    tag_276:\n        /* \"#utility.yul\":370:377   */\n      0x00\n        /* \"#utility.yul\":410:476   */\n      0xffffffff00000000000000000000000000000000000000000000000000000000\n        /* \"#utility.yul\":403:408   */\n      dup3\n        /* \"#utility.yul\":399:477   */\n      and\n        /* \"#utility.yul\":388:477   */\n      swap1\n      pop\n        /* \"#utility.yul\":334:483   */\n      swap2\n      swap1\n      pop\n      jump\t// out\n        /* \"#utility.yul\":489:609   */\n    tag_277:\n        /* \"#utility.yul\":561:584   */\n      tag_318\n        /* \"#utility.yul\":578:583   */\n      dup2\n        /* \"#utility.yul\":561:584   */\n      tag_276\n      jump\t// in\n    tag_318:\n        /* \"#utility.yul\":554:559   */\n      dup2\n        /* \"#utility.yul\":551:585   */\n      eq\n        /* \"#utility.yul\":541:603   */\n      tag_319\n      jumpi\n        /* \"#utility.yul\":599:600   */\n      0x00\n        /* \"#utility.yul\":596:597   */\n      dup1\n        /* \"#utility.yul\":589:601   */\n      revert\n        /* \"#utility.yul\":541:603   */\n    tag_319:\n        /* \"#utility.yul\":489:609   */\n      pop\n      jump\t// out\n        /* \"#utility.yul\":615:752   */\n    tag_278:\n        /* \"#utility.yul\":660:665   */\n      0x00\n        /* \"#utility.yul\":698:704   */\n      dup2\n        /* \"#utility.yul\":685:705   */\n      calldataload\n        /* \"#utility.yul\":676:705   */\n      swap1\n      pop\n        /* \"#utility.yul\":714:746   */\n      tag_321\n        /* \"#utility.yul\":740:745   */\n      dup2\n        /* \"#utility.yul\":714:746   */\n      tag_277\n      jump\t// in\n    tag_321:\n        /* \"#utility.yul\":615:752   */\n      swap3\n      swap2\n      pop\n      pop\n      jump\t// out\n        /* \"#utility.yul\":758:1085   */\n    tag_24:\n        /* \"#utility.yul\":816:822   */\n      0x00\n        /* \"#utility.yul\":865:867   */\n      0x20\n        /* \"#utility.yul\":853:862   */\n      dup3\n        /* \"#utility.yul\":844:851   */\n      dup5\n        /* \"#utility.yul\":840:863   */\n      sub\n        /* \"#utility.yul\":836:868   */\n      slt\n        /* \"#utility.yul\":833:952   */\n      iszero\n      tag_323\n      jumpi\n        /* \"#utility.yul\":871:950   */\n      tag_324\n      tag_274\n      jump\t// in\n    tag_324:\n        /* \"#utility.yul\":833:952   */\n    tag_323:\n        /* \"#utility.yul\":991:992   */\n      0x00\n        /* \"#utility.yul\":1016:1068   */\n      tag_325\n        /* \"#utility.yul\":1060:1067   */\n      dup5\n        /* \"#utility.yul\":1051:1057   */\n      dup3\n        /* \"#utility.yul\":1040:1049   */\n      dup6\n        /* \"#utility.yul\":1036:1058   */\n      add\n        /* \"#utility.yul\":1016:1068   */\n      tag_278\n      jump\t// in\n    tag_325:\n        /* \"#utility.yul\":1006:1068   */\n      swap2\n      pop\n        /* \"#utility.yul\":962:1078   */\n      pop\n        /* \"#utility.yul\":758:1085   */\n      swap3\n      swap2\n      pop\n      pop\n      jump\t// out\n        /* \"#utility.yul\":1091:1181   */\n    tag_279:\n        /* \"#utility.yul\":1125:1132   */\n      0x00\n        /* \"#utility.yul\":1168:1173   */\n      dup2\n        /* \"#utility.yul\":1161:1174   */\n      iszero\n        /* \"#utility.yul\":1154:1175   */\n      iszero\n        /* \"#utility.yul\":1143:1175   */\n      swap1\n      pop\n        /* \"#utility.yul\":1091:1181   */\n      swap2\n      swap1\n      pop\n      jump\t// out\n        /* \"#utility.yul\":1187:1296   */\n    tag_280:\n        /* \"#utility.yul\":1268:1289   */\n      tag_328\n        /* \"#utility.yul\":1283:1288   */\n      dup2\n        /* \"#utility.yul\":1268:1289   */\n      tag_279\n      jump\t// in\n    tag_328:\n        /* \"#utility.yul\":1263:1266   */\n      dup3\n        /* \"#utility.yul\":1256:1290   */\n      mstore\n        /* \"#utility.yul\":1187:1296   */\n      pop\n      pop\n      jump\t// out\n        /* \"#utility.yul\":1302:1512   */\n    tag_27:\n        /* \"#utility.yul\":1389:1393   */\n      0x00\n        /* \"#utility.yul\":1427:1429   */\n      0x20\n        /* \"#utility.yul\":1416:1425   */\n      dup3\n        /* \"#utility.yul\":1412:1430   */\n      add\n        /* \"#utility.yul\":1404:1430   */\n      swap1\n      pop\n        /* \"#utility.yul\":1440:1505   */\n      tag_330\n        /* \"#utility.yul\":1502:1503   */\n      0x00\n        /* \"#utility.yul\":1491:1500   */\n      dup4\n        /* \"#utility.yul\":1487:1504   */\n      add\n        /* \"#utility.yul\":1478:1484   */\n      dup5\n        /* \"#utility.yul\":1440:1505   */\n      tag_280\n      jump\t// in\n    tag_330:\n        /* \"#utility.yul\":1302:1512   */\n      swap3\n      swap2\n      pop\n      pop\n      jump\t// out\n        /* \"#utility.yul\":1518:1617   */\n    tag_281:\n        /* \"#utility.yul\":1570:1576   */\n      0x00\n        /* \"#utility.yul\":1604:1609   */\n      dup2\n        /* \"#utility.yul\":1598:1610   */\n      mload\n        /* \"#utility.yul\":1588:1610   */\n      swap1\n      pop\n        /* \"#utility.yul\":1518:1617   */\n      swap2\n      swap1\n      pop\n      jump\t// out\n        /* \"#utility.yul\":1623:1792   */\n    tag_282:\n        /* \"#utility.yul\":1707:1718   */\n      0x00\n        /* \"#utility.yul\":1741:1747   */\n      dup3\n        /* \"#utility.yul\":1736:1739   */\n      dup3\n        /* \"#utility.yul\":1729:1748   */\n      mstore\n        /* \"#utility.yul\":1781:1785   */\n      0x20\n        /* \"#utility.yul\":1776:1779   */\n      dup3\n        /* \"#utility.yul\":1772:1786   */\n      add\n        /* \"#utility.yul\":1757:1786   */\n      swap1\n      pop\n        /* \"#utility.yul\":1623:1792   */\n      swap3\n      swap2\n      pop\n      pop\n      jump\t// out\n        /* \"#utility.yul\":1798:2044   */\n    tag_283:\n        /* \"#utility.yul\":1879:1880   */\n      0x00\n        /* \"#utility.yul\":1889:2002   */\n    tag_334:\n        /* \"#utility.yul\":1903:1909   */\n      dup4\n        /* \"#utility.yul\":1900:1901   */\n      dup2\n        /* \"#utility.yul\":1897:1910   */\n      lt\n        /* \"#utility.yul\":1889:2002   */\n      iszero\n      tag_336\n      jumpi\n        /* \"#utility.yul\":1988:1989   */\n      dup1\n        /* \"#utility.yul\":1983:1986   */\n      dup3\n        /* \"#utility.yul\":1979:1990   */\n      add\n        /* \"#utility.yul\":1973:1991   */\n      mload\n        /* \"#utility.yul\":1969:1970   */\n      dup2\n        /* \"#utility.yul\":1964:1967   */\n      dup5\n        /* \"#utility.yul\":1960:1971   */\n      add\n        /* \"#utility.yul\":1953:1992   */\n      mstore\n        /* \"#utility.yul\":1925:1927   */\n      0x20\n        /* \"#utility.yul\":1922:1923   */\n      dup2\n        /* \"#utility.yul\":1918:1928   */\n      add\n        /* \"#utility.yul\":1913:1928   */\n      swap1\n      pop\n        /* \"#utility.yul\":1889:2002   */\n      jump(tag_334)\n    tag_336:\n        /* \"#utility.yul\":2036:2037   */\n      0x00\n        /* \"#utility.yul\":2027:2033   */\n      dup5\n        /* \"#utility.yul\":2022:2025   */\n      dup5\n        /* \"#utility.yul\":2018:2034   */\n      add\n        /* \"#utility.yul\":2011:2038   */\n      mstore\n        /* \"#utility.yul\":1860:2044   */\n      pop\n        /* \"#utility.yul\":1798:2044   */\n      pop\n      pop\n      pop\n      jump\t// out\n        /* \"#utility.yul\":2050:2152   */\n    tag_284:\n        /* \"#utility.yul\":2091:2097   */\n      0x00\n        /* \"#utility.yul\":2142:2144   */\n      0x1f\n        /* \"#utility.yul\":2138:2145   */\n      not\n        /* \"#utility.yul\":2133:2135   */\n      0x1f\n        /* \"#utility.yul\":2126:2131   */\n      dup4\n        /* \"#utility.yul\":2122:2136   */\n      add\n        /* \"#utility.yul\":2118:2146   */\n      and\n        /* \"#utility.yul\":2108:2146   */\n      swap1\n      pop\n        /* \"#utility.yul\":2050:2152   */\n      swap2\n      swap1\n      pop\n      jump\t// out\n        /* \"#utility.yul\":2158:2535   */\n    tag_285:\n        /* \"#utility.yul\":2246:2249   */\n      0x00\n        /* \"#utility.yul\":2274:2313   */\n      tag_339\n        /* \"#utility.yul\":2307:2312   */\n      dup3\n        /* \"#utility.yul\":2274:2313   */\n      tag_281\n      jump\t// in\n    tag_339:\n        /* \"#utility.yul\":2329:2400   */\n      tag_340\n        /* \"#utility.yul\":2393:2399   */\n      dup2\n        /* \"#utility.yul\":2388:2391   */\n      dup6\n        /* \"#utility.yul\":2329:2400   */\n      tag_282\n      jump\t// in\n    tag_340:\n        /* \"#utility.yul\":2322:2400   */\n      swap4\n      pop\n        /* \"#utility.yul\":2409:2474   */\n      tag_341\n        /* \"#utility.yul\":2467:2473   */\n      dup2\n        /* \"#utility.yul\":2462:2465   */\n      dup6\n        /* \"#utility.yul\":2455:2459   */\n      0x20\n        /* \"#utility.yul\":2448:2453   */\n      dup7\n        /* \"#utility.yul\":2444:2460   */\n      add\n        /* \"#utility.yul\":2409:2474   */\n      tag_283\n      jump\t// in\n    tag_341:\n        /* \"#utility.yul\":2499:2528   */\n      tag_342\n        /* \"#utility.yul\":2521:2527   */\n      dup2\n        /* \"#utility.yul\":2499:2528   */\n      tag_284\n      jump\t// in\n    tag_342:\n        /* \"#utility.yul\":2494:2497   */\n      dup5\n        /* \"#utility.yul\":2490:2529   */\n      add\n        /* \"#utility.yul\":2483:2529   */\n      swap2\n      pop\n        /* \"#utility.yul\":2250:2535   */\n      pop\n        /* \"#utility.yul\":2158:2535   */\n      swap3\n      swap2\n      pop\n      pop\n      jump\t// out\n        /* \"#utility.yul\":2541:2854   */\n    tag_31:\n        /* \"#utility.yul\":2654:2658   */\n      0x00\n        /* \"#utility.yul\":2692:2694   */\n      0x20\n        /* \"#utility.yul\":2681:2690   */\n      dup3\n        /* \"#utility.yul\":2677:2695   */\n      add\n        /* \"#utility.yul\":2669:2695   */\n      swap1\n      pop\n        /* \"#utility.yul\":2741:2750   */\n      dup2\n        /* \"#utility.yul\":2735:2739   */\n      dup2\n        /* \"#utility.yul\":2731:2751   */\n      sub\n        /* \"#utility.yul\":2727:2728   */\n      0x00\n        /* \"#utility.yul\":2716:2725   */\n      dup4\n        /* \"#utility.yul\":2712:2729   */\n      add\n        /* \"#utility.yul\":2705:2752   */\n      mstore\n        /* \"#utility.yul\":2769:2847   */\n      tag_344\n        /* \"#utility.yul\":2842:2846   */\n      dup2\n        /* \"#utility.yul\":2833:2839   */\n      dup5\n        /* \"#utility.yul\":2769:2847   */\n      tag_285\n      jump\t// in\n    tag_344:\n        /* \"#utility.yul\":2761:2847   */\n      swap1\n      pop\n        /* \"#utility.yul\":2541:2854   */\n      swap3\n      swap2\n      pop\n      pop\n      jump\t// out\n        /* \"#utility.yul\":2860:2937   */\n    tag_286:\n        /* \"#utility.yul\":2897:2904   */\n      0x00\n        /* \"#utility.yul\":2926:2931   */\n      dup2\n        /* \"#utility.yul\":2915:2931   */\n      swap1\n      pop\n        /* \"#utility.yul\":2860:2937   */\n      swap2\n      swap1\n      pop\n      jump\t// out\n        /* \"#utility.yul\":2943:3065   */\n    tag_287:\n        /* \"#utility.yul\":3016:3040   */\n      tag_347\n        /* \"#utility.yul\":3034:3039   */\n      dup2\n        /* \"#utility.yul\":3016:3040   */\n      tag_286\n      jump\t// in\n    tag_347:\n        /* \"#utility.yul\":3009:3014   */\n      dup2\n        /* \"#utility.yul\":3006:3041   */\n      eq\n        /* \"#utility.yul\":2996:3059   */\n      tag_348\n      jumpi\n        /* \"#utility.yul\":3055:3056   */\n      0x00\n        /* \"#utility.yul\":3052:3053   */\n      dup1\n        /* \"#utility.yul\":3045:3057   */\n      revert\n        /* \"#utility.yul\":2996:3059   */\n    tag_348:\n        /* \"#utility.yul\":2943:3065   */\n      pop\n      jump\t// out\n        /* \"#utility.yul\":3071:3210   */\n    tag_288:\n        /* \"#utility.yul\":3117:3122   */\n      0x00\n        /* \"#utility.yul\":3155:3161   */\n      dup2\n        /* \"#utility.yul\":3142:3162   */\n      calldataload\n        /* \"#utility.yul\":3133:3162   */\n      swap1\n      pop\n        /* \"#utility.yul\":3171:3204   */\n      tag_350\n        /* \"#utility.yul\":3198:3203   */\n      dup2\n        /* \"#utility.yul\":3171:3204   */\n      tag_287\n      jump\t// in\n    tag_350:\n        /* \"#utility.yul\":3071:3210   */\n      swap3\n      swap2\n      pop\n      pop\n      jump\t// out\n        /* \"#utility.yul\":3216:3545   */\n    tag_34:\n        /* \"#utility.yul\":3275:3281   */\n      0x00\n        /* \"#utility.yul\":3324:3326   */\n      0x20\n        /* \"#utility.yul\":3312:3321   */\n      dup3\n        /* \"#utility.yul\":3303:3310   */\n      dup5\n        /* \"#utility.yul\":3299:3322   */\n      sub\n        /* \"#utility.yul\":3295:3327   */\n      slt\n        /* \"#utility.yul\":3292:3411   */\n      iszero\n      tag_352\n      jumpi\n        /* \"#utility.yul\":3330:3409   */\n      tag_353\n      tag_274\n      jump\t// in\n    tag_353:\n        /* \"#utility.yul\":3292:3411   */\n    tag_352:\n        /* \"#utility.yul\":3450:3451   */\n      0x00\n        /* \"#utility.yul\":3475:3528   */\n      tag_354\n        /* \"#utility.yul\":3520:3527   */\n      dup5\n        /* \"#utility.yul\":3511:3517   */\n      dup3\n        /* \"#utility.yul\":3500:3509   */\n      dup6\n        /* \"#utility.yul\":3496:3518   */\n      add\n        /* \"#utility.yul\":3475:3528   */\n      tag_288\n      jump\t// in\n    tag_354:\n        /* \"#utility.yul\":3465:3528   */\n      swap2\n      pop\n        /* \"#utility.yul\":3421:3538   */\n      pop\n        /* \"#utility.yul\":3216:3545   */\n      swap3\n      swap2\n      pop\n      pop\n      jump\t// out\n        /* \"#utility.yul\":3551:3677   */\n    tag_289:\n        /* \"#utility.yul\":3588:3595   */\n      0x00\n        /* \"#utility.yul\":3628:3670   */\n      0xffffffffffffffffffffffffffffffffffffffff\n        /* \"#utility.yul\":3621:3626   */\n      dup3\n        /* \"#utility.yul\":3617:3671   */\n      and\n        /* \"#utility.yul\":3606:3671   */\n      swap1\n      pop\n        /* \"#utility.yul\":3551:3677   */\n      swap2\n      swap1\n      pop\n      jump\t// out\n        /* \"#utility.yul\":3683:3779   */\n    tag_290:\n        /* \"#utility.yul\":3720:3727   */\n      0x00\n        /* \"#utility.yul\":3749:3773   */\n      tag_357\n        /* \"#utility.yul\":3767:3772   */\n      dup3\n        /* \"#utility.yul\":3749:3773   */\n      tag_289\n      jump\t// in\n    tag_357:\n        /* \"#utility.yul\":3738:3773   */\n      swap1\n      pop\n        /* \"#utility.yul\":3683:3779   */\n      swap2\n      swap1\n      pop\n      jump\t// out\n        /* \"#utility.yul\":3785:3903   */\n    tag_291:\n        /* \"#utility.yul\":3872:3896   */\n      tag_359\n        /* \"#utility.yul\":3890:3895   */\n      dup2\n        /* \"#utility.yul\":3872:3896   */\n      tag_290\n      jump\t// in\n    tag_359:\n        /* \"#utility.yul\":3867:3870   */\n      dup3\n        /* \"#utility.yul\":3860:3897   */\n      mstore\n        /* \"#utility.yul\":3785:3903   */\n      pop\n      pop\n      jump\t// out\n        /* \"#utility.yul\":3909:4131   */\n    tag_37:\n        /* \"#utility.yul\":4002:4006   */\n      0x00\n        /* \"#utility.yul\":4040:4042   */\n      0x20\n        /* \"#utility.yul\":4029:4038   */\n      dup3\n        /* \"#utility.yul\":4025:4043   */\n      add\n        /* \"#utility.yul\":4017:4043   */\n      swap1\n      pop\n        /* \"#utility.yul\":4053:4124   */\n      tag_361\n        /* \"#utility.yul\":4121:4122   */\n      0x00\n        /* \"#utility.yul\":4110:4119   */\n      dup4\n        /* \"#utility.yul\":4106:4123   */\n      add\n        /* \"#utility.yul\":4097:4103   */\n      dup5\n        /* \"#utility.yul\":4053:4124   */\n      tag_291\n      jump\t// in\n    tag_361:\n        /* \"#utility.yul\":3909:4131   */\n      swap3\n      swap2\n      pop\n      pop\n      jump\t// out\n        /* \"#utility.yul\":4137:4259   */\n    tag_292:\n        /* \"#utility.yul\":4210:4234   */\n      tag_363\n        /* \"#utility.yul\":4228:4233   */\n      dup2\n        /* \"#utility.yul\":4210:4234   */\n      tag_290\n      jump\t// in\n    tag_363:\n        /* \"#utility.yul\":4203:4208   */\n      dup2\n        /* \"#utility.yul\":4200:4235   */\n      eq\n        /* \"#utility.yul\":4190:4253   */\n      tag_364\n      jumpi\n        /* \"#utility.yul\":4249:4250   */\n      0x00\n        /* \"#utility.yul\":4246:4247   */\n      dup1\n        /* \"#utility.yul\":4239:4251   */\n      revert\n        /* \"#utility.yul\":4190:4253   */\n    tag_364:\n        /* \"#utility.yul\":4137:4259   */\n      pop\n      jump\t// out\n        /* \"#utility.yul\":4265:4404   */\n    tag_293:\n        /* \"#utility.yul\":4311:4316   */\n      0x00\n        /* \"#utility.yul\":4349:4355   */\n      dup2\n        /* \"#utility.yul\":4336:4356   */\n      calldataload\n        /* \"#utility.yul\":4327:4356   */\n      swap1\n      pop\n        /* \"#utility.yul\":4365:4398   */\n      tag_366\n        /* \"#utility.yul\":4392:4397   */\n      dup2\n        /* \"#utility.yul\":4365:4398   */\n      tag_292\n      jump\t// in\n    tag_366:\n        /* \"#utility.yul\":4265:4404   */\n      swap3\n      swap2\n      pop\n      pop\n      jump\t// out\n        /* \"#utility.yul\":4410:4884   */\n    tag_40:\n        /* \"#utility.yul\":4478:4484   */\n      0x00\n        /* \"#utility.yul\":4486:4492   */\n      dup1\n        /* \"#utility.yul\":4535:4537   */\n      0x40\n        /* \"#utility.yul\":4523:4532   */\n      dup4\n        /* \"#utility.yul\":4514:4521   */\n      dup6\n        /* \"#utility.yul\":4510:4533   */\n      sub\n        /* \"#utility.yul\":4506:4538   */\n      slt\n        /* \"#utility.yul\":4503:4622   */\n      iszero\n      tag_368\n      jumpi\n        /* \"#utility.yul\":4541:4620   */\n      tag_369\n      tag_274\n      jump\t// in\n    tag_369:\n        /* \"#utility.yul\":4503:4622   */\n    tag_368:\n        /* \"#utility.yul\":4661:4662   */\n      0x00\n        /* \"#utility.yul\":4686:4739   */\n      tag_370\n        /* \"#utility.yul\":4731:4738   */\n      dup6\n        /* \"#utility.yul\":4722:4728   */\n      dup3\n        /* \"#utility.yul\":4711:4720   */\n      dup7\n        /* \"#utility.yul\":4707:4729   */\n      add\n        /* \"#utility.yul\":4686:4739   */\n      tag_293\n      jump\t// in\n    tag_370:\n        /* \"#utility.yul\":4676:4739   */\n      swap3\n      pop\n        /* \"#utility.yul\":4632:4749   */\n      pop\n        /* \"#utility.yul\":4788:4790   */\n      0x20\n        /* \"#utility.yul\":4814:4867   */\n      tag_371\n        /* \"#utility.yul\":4859:4866   */\n      dup6\n        /* \"#utility.yul\":4850:4856   */\n      dup3\n        /* \"#utility.yul\":4839:4848   */\n      dup7\n        /* \"#utility.yul\":4835:4857   */\n      add\n        /* \"#utility.yul\":4814:4867   */\n      tag_288\n      jump\t// in\n    tag_371:\n        /* \"#utility.yul\":4804:4867   */\n      swap2\n      pop\n        /* \"#utility.yul\":4759:4877   */\n      pop\n        /* \"#utility.yul\":4410:4884   */\n      swap3\n      pop\n      swap3\n      swap1\n      pop\n      jump\t// out\n        /* \"#utility.yul\":4890:5509   */\n    tag_44:\n        /* \"#utility.yul\":4967:4973   */\n      0x00\n        /* \"#utility.yul\":4975:4981   */\n      dup1\n        /* \"#utility.yul\":4983:4989   */\n      0x00\n        /* \"#utility.yul\":5032:5034   */\n      0x60\n        /* \"#utility.yul\":5020:5029   */\n      dup5\n        /* \"#utility.yul\":5011:5018   */\n      dup7\n        /* \"#utility.yul\":5007:5030   */\n      sub\n        /* \"#utility.yul\":5003:5035   */\n      slt\n        /* \"#utility.yul\":5000:5119   */\n      iszero\n      tag_373\n      jumpi\n        /* \"#utility.yul\":5038:5117   */\n      tag_374\n      tag_274\n      jump\t// in\n    tag_374:\n        /* \"#utility.yul\":5000:5119   */\n    tag_373:\n        /* \"#utility.yul\":5158:5159   */\n      0x00\n        /* \"#utility.yul\":5183:5236   */\n      tag_375\n        /* \"#utility.yul\":5228:5235   */\n      dup7\n        /* \"#utility.yul\":5219:5225   */\n      dup3\n        /* \"#utility.yul\":5208:5217   */\n      dup8\n        /* \"#utility.yul\":5204:5226   */\n      add\n        /* \"#utility.yul\":5183:5236   */\n      tag_293\n      jump\t// in\n    tag_375:\n        /* \"#utility.yul\":5173:5236   */\n      swap4\n      pop\n        /* \"#utility.yul\":5129:5246   */\n      pop\n        /* \"#utility.yul\":5285:5287   */\n      0x20\n        /* \"#utility.yul\":5311:5364   */\n      tag_376\n        /* \"#utility.yul\":5356:5363   */\n      dup7\n        /* \"#utility.yul\":5347:5353   */\n      dup3\n        /* \"#utility.yul\":5336:5345   */\n      dup8\n        /* \"#utility.yul\":5332:5354   */\n      add\n        /* \"#utility.yul\":5311:5364   */\n      tag_293\n      jump\t// in\n    tag_376:\n        /* \"#utility.yul\":5301:5364   */\n      swap3\n      pop\n        /* \"#utility.yul\":5256:5374   */\n      pop\n        /* \"#utility.yul\":5413:5415   */\n      0x40\n        /* \"#utility.yul\":5439:5492   */\n      tag_377\n        /* \"#utility.yul\":5484:5491   */\n      dup7\n        /* \"#utility.yul\":5475:5481   */\n      dup3\n        /* \"#utility.yul\":5464:5473   */\n      dup8\n        /* \"#utility.yul\":5460:5482   */\n      add\n        /* \"#utility.yul\":5439:5492   */\n      tag_288\n      jump\t// in\n    tag_377:\n        /* \"#utility.yul\":5429:5492   */\n      swap2\n      pop\n        /* \"#utility.yul\":5384:5502   */\n      pop\n        /* \"#utility.yul\":4890:5509   */\n      swap3\n      pop\n      swap3\n      pop\n      swap3\n      jump\t// out\n        /* \"#utility.yul\":5515:5844   */\n    tag_55:\n        /* \"#utility.yul\":5574:5580   */\n      0x00\n        /* \"#utility.yul\":5623:5625   */\n      0x20\n        /* \"#utility.yul\":5611:5620   */\n      dup3\n        /* \"#utility.yul\":5602:5609   */\n      dup5\n        /* \"#utility.yul\":5598:5621   */\n      sub\n        /* \"#utility.yul\":5594:5626   */\n      slt\n        /* \"#utility.yul\":5591:5710   */\n      iszero\n      tag_379\n      jumpi\n        /* \"#utility.yul\":5629:5708   */\n      tag_380\n      tag_274\n      jump\t// in\n    tag_380:\n        /* \"#utility.yul\":5591:5710   */\n    tag_379:\n        /* \"#utility.yul\":5749:5750   */\n      0x00\n        /* \"#utility.yul\":5774:5827   */\n      tag_381\n        /* \"#utility.yul\":5819:5826   */\n      dup5\n        /* \"#utility.yul\":5810:5816   */\n      dup3\n        /* \"#utility.yul\":5799:5808   */\n      dup6\n        /* \"#utility.yul\":5795:5817   */\n      add\n        /* \"#utility.yul\":5774:5827   */\n      tag_293\n      jump\t// in\n    tag_381:\n        /* \"#utility.yul\":5764:5827   */\n      swap2\n      pop\n        /* \"#utility.yul\":5720:5837   */\n      pop\n        /* \"#utility.yul\":5515:5844   */\n      swap3\n      swap2\n      pop\n      pop\n      jump\t// out\n        /* \"#utility.yul\":5850:5968   */\n    tag_294:\n        /* \"#utility.yul\":5937:5961   */\n      tag_383\n        /* \"#utility.yul\":5955:5960   */\n      dup2\n        /* \"#utility.yul\":5937:5961   */\n      tag_286\n      jump\t// in\n    tag_383:\n        /* \"#utility.yul\":5932:5935   */\n      dup3\n        /* \"#utility.yul\":5925:5962   */\n      mstore\n        /* \"#utility.yul\":5850:5968   */\n      pop\n      pop\n      jump\t// out\n        /* \"#utility.yul\":5974:6196   */\n    tag_58:\n        /* \"#utility.yul\":6067:6071   */\n      0x00\n        /* \"#utility.yul\":6105:6107   */\n      0x20\n        /* \"#utility.yul\":6094:6103   */\n      dup3\n        /* \"#utility.yul\":6090:6108   */\n      add\n        /* \"#utility.yul\":6082:6108   */\n      swap1\n      pop\n        /* \"#utility.yul\":6118:6189   */\n      tag_385\n        /* \"#utility.yul\":6186:6187   */\n      0x00\n        /* \"#utility.yul\":6175:6184   */\n      dup4\n        /* \"#utility.yul\":6171:6188   */\n      add\n        /* \"#utility.yul\":6162:6168   */\n      dup5\n        /* \"#utility.yul\":6118:6189   */\n      tag_294\n      jump\t// in\n    tag_385:\n        /* \"#utility.yul\":5974:6196   */\n      swap3\n      swap2\n      pop\n      pop\n      jump\t// out\n        /* \"#utility.yul\":6202:6318   */\n    tag_295:\n        /* \"#utility.yul\":6272:6293   */\n      tag_387\n        /* \"#utility.yul\":6287:6292   */\n      dup2\n        /* \"#utility.yul\":6272:6293   */\n      tag_279\n      jump\t// in\n    tag_387:\n        /* \"#utility.yul\":6265:6270   */\n      dup2\n        /* \"#utility.yul\":6262:6294   */\n      eq\n        /* \"#utility.yul\":6252:6312   */\n      tag_388\n      jumpi\n        /* \"#utility.yul\":6308:6309   */\n      0x00\n        /* \"#utility.yul\":6305:6306   */\n      dup1\n        /* \"#utility.yul\":6298:6310   */\n      revert\n        /* \"#utility.yul\":6252:6312   */\n    tag_388:\n        /* \"#utility.yul\":6202:6318   */\n      pop\n      jump\t// out\n        /* \"#utility.yul\":6324:6457   */\n    tag_296:\n        /* \"#utility.yul\":6367:6372   */\n      0x00\n        /* \"#utility.yul\":6405:6411   */\n      dup2\n        /* \"#utility.yul\":6392:6412   */\n      calldataload\n        /* \"#utility.yul\":6383:6412   */\n      swap1\n      pop\n        /* \"#utility.yul\":6421:6451   */\n      tag_390\n        /* \"#utility.yul\":6445:6450   */\n      dup2\n        /* \"#utility.yul\":6421:6451   */\n      tag_295\n      jump\t// in\n    tag_390:\n        /* \"#utility.yul\":6324:6457   */\n      swap3\n      swap2\n      pop\n      pop\n      jump\t// out\n        /* \"#utility.yul\":6463:6931   */\n    tag_69:\n        /* \"#utility.yul\":6528:6534   */\n      0x00\n        /* \"#utility.yul\":6536:6542   */\n      dup1\n        /* \"#utility.yul\":6585:6587   */\n      0x40\n        /* \"#utility.yul\":6573:6582   */\n      dup4\n        /* \"#utility.yul\":6564:6571   */\n      dup6\n        /* \"#utility.yul\":6560:6583   */\n      sub\n        /* \"#utility.yul\":6556:6588   */\n      slt\n        /* \"#utility.yul\":6553:6672   */\n      iszero\n      tag_392\n      jumpi\n        /* \"#utility.yul\":6591:6670   */\n      tag_393\n      tag_274\n      jump\t// in\n    tag_393:\n        /* \"#utility.yul\":6553:6672   */\n    tag_392:\n        /* \"#utility.yul\":6711:6712   */\n      0x00\n        /* \"#utility.yul\":6736:6789   */\n      tag_394\n        /* \"#utility.yul\":6781:6788   */\n      dup6\n        /* \"#utility.yul\":6772:6778   */\n      dup3\n        /* \"#utility.yul\":6761:6770   */\n      dup7\n        /* \"#utility.yul\":6757:6779   */\n      add\n        /* \"#utility.yul\":6736:6789   */\n      tag_293\n      jump\t// in\n    tag_394:\n        /* \"#utility.yul\":6726:6789   */\n      swap3\n      pop\n        /* \"#utility.yul\":6682:6799   */\n      pop\n        /* \"#utility.yul\":6838:6840   */\n      0x20\n        /* \"#utility.yul\":6864:6914   */\n      tag_395\n        /* \"#utility.yul\":6906:6913   */\n      dup6\n        /* \"#utility.yul\":6897:6903   */\n      dup3\n        /* \"#utility.yul\":6886:6895   */\n      dup7\n        /* \"#utility.yul\":6882:6904   */\n      add\n        /* \"#utility.yul\":6864:6914   */\n      tag_296\n      jump\t// in\n    tag_395:\n        /* \"#utility.yul\":6854:6914   */\n      swap2\n      pop\n        /* \"#utility.yul\":6809:6924   */\n      pop\n        /* \"#utility.yul\":6463:6931   */\n      swap3\n      pop\n      swap3\n      swap1\n      pop\n      jump\t// out\n        /* \"#utility.yul\":6937:7054   */\n    tag_297:\n        /* \"#utility.yul\":7046:7047   */\n      0x00\n        /* \"#utility.yul\":7043:7044   */\n      dup1\n        /* \"#utility.yul\":7036:7048   */\n      revert\n        /* \"#utility.yul\":7060:7177   */\n    tag_298:\n        /* \"#utility.yul\":7169:7170   */\n      0x00\n        /* \"#utility.yul\":7166:7167   */\n      dup1\n        /* \"#utility.yul\":7159:7171   */\n      revert\n        /* \"#utility.yul\":7183:7363   */\n    tag_219:\n        /* \"#utility.yul\":7231:7308   */\n      0x4e487b7100000000000000000000000000000000000000000000000000000000\n        /* \"#utility.yul\":7228:7229   */\n      0x00\n        /* \"#utility.yul\":7221:7309   */\n      mstore\n        /* \"#utility.yul\":7328:7332   */\n      0x41\n        /* \"#utility.yul\":7325:7326   */\n      0x04\n        /* \"#utility.yul\":7318:7333   */\n      mstore\n        /* \"#utility.yul\":7352:7356   */\n      0x24\n        /* \"#utility.yul\":7349:7350   */\n      0x00\n        /* \"#utility.yul\":7342:7357   */\n      revert\n        /* \"#utility.yul\":7369:7650   */\n    tag_299:\n        /* \"#utility.yul\":7452:7479   */\n      tag_400\n        /* \"#utility.yul\":7474:7478   */\n      dup3\n        /* \"#utility.yul\":7452:7479   */\n      tag_284\n      jump\t// in\n    tag_400:\n        /* \"#utility.yul\":7444:7450   */\n      dup2\n        /* \"#utility.yul\":7440:7480   */\n      add\n        /* \"#utility.yul\":7582:7588   */\n      dup2\n        /* \"#utility.yul\":7570:7580   */\n      dup2\n        /* \"#utility.yul\":7567:7589   */\n      lt\n        /* \"#utility.yul\":7546:7564   */\n      0xffffffffffffffff\n        /* \"#utility.yul\":7534:7544   */\n      dup3\n        /* \"#utility.yul\":7531:7565   */\n      gt\n        /* \"#utility.yul\":7528:7590   */\n      or\n        /* \"#utility.yul\":7525:7613   */\n      iszero\n      tag_401\n      jumpi\n        /* \"#utility.yul\":7593:7611   */\n      tag_402\n      tag_219\n      jump\t// in\n    tag_402:\n        /* \"#utility.yul\":7525:7613   */\n    tag_401:\n        /* \"#utility.yul\":7633:7643   */\n      dup1\n        /* \"#utility.yul\":7629:7631   */\n      0x40\n        /* \"#utility.yul\":7622:7644   */\n      mstore\n        /* \"#utility.yul\":7412:7650   */\n      pop\n        /* \"#utility.yul\":7369:7650   */\n      pop\n      pop\n      jump\t// out\n        /* \"#utility.yul\":7656:7785   */\n    tag_300:\n        /* \"#utility.yul\":7690:7696   */\n      0x00\n        /* \"#utility.yul\":7717:7737   */\n      tag_404\n      tag_273\n      jump\t// in\n    tag_404:\n        /* \"#utility.yul\":7707:7737   */\n      swap1\n      pop\n        /* \"#utility.yul\":7746:7779   */\n      tag_405\n        /* \"#utility.yul\":7774:7778   */\n      dup3\n        /* \"#utility.yul\":7766:7772   */\n      dup3\n        /* \"#utility.yul\":7746:7779   */\n      tag_299\n      jump\t// in\n    tag_405:\n        /* \"#utility.yul\":7656:7785   */\n      swap2\n      swap1\n      pop\n      jump\t// out\n        /* \"#utility.yul\":7791:8098   */\n    tag_301:\n        /* \"#utility.yul\":7852:7856   */\n      0x00\n        /* \"#utility.yul\":7942:7960   */\n      0xffffffffffffffff\n        /* \"#utility.yul\":7934:7940   */\n      dup3\n        /* \"#utility.yul\":7931:7961   */\n      gt\n        /* \"#utility.yul\":7928:7984   */\n      iszero\n      tag_407\n      jumpi\n        /* \"#utility.yul\":7964:7982   */\n      tag_408\n      tag_219\n      jump\t// in\n    tag_408:\n        /* \"#utility.yul\":7928:7984   */\n    tag_407:\n        /* \"#utility.yul\":8002:8031   */\n      tag_409\n        /* \"#utility.yul\":8024:8030   */\n      dup3\n        /* \"#utility.yul\":8002:8031   */\n      tag_284\n      jump\t// in\n    tag_409:\n        /* \"#utility.yul\":7994:8031   */\n      swap1\n      pop\n        /* \"#utility.yul\":8086:8090   */\n      0x20\n        /* \"#utility.yul\":8080:8084   */\n      dup2\n        /* \"#utility.yul\":8076:8091   */\n      add\n        /* \"#utility.yul\":8068:8091   */\n      swap1\n      pop\n        /* \"#utility.yul\":7791:8098   */\n      swap2\n      swap1\n      pop\n      jump\t// out\n        /* \"#utility.yul\":8104:8250   */\n    tag_302:\n        /* \"#utility.yul\":8201:8207   */\n      dup3\n        /* \"#utility.yul\":8196:8199   */\n      dup2\n        /* \"#utility.yul\":8191:8194   */\n      dup4\n        /* \"#utility.yul\":8178:8208   */\n      calldatacopy\n        /* \"#utility.yul\":8242:8243   */\n      0x00\n        /* \"#utility.yul\":8233:8239   */\n      dup4\n        /* \"#utility.yul\":8228:8231   */\n      dup4\n        /* \"#utility.yul\":8224:8240   */\n      add\n        /* \"#utility.yul\":8217:8244   */\n      mstore\n        /* \"#utility.yul\":8104:8250   */\n      pop\n      pop\n      pop\n      jump\t// out\n        /* \"#utility.yul\":8256:8679   */\n    tag_303:\n        /* \"#utility.yul\":8333:8338   */\n      0x00\n        /* \"#utility.yul\":8358:8423   */\n      tag_412\n        /* \"#utility.yul\":8374:8422   */\n      tag_413\n        /* \"#utility.yul\":8415:8421   */\n      dup5\n        /* \"#utility.yul\":8374:8422   */\n      tag_301\n      jump\t// in\n    tag_413:\n        /* \"#utility.yul\":8358:8423   */\n      tag_300\n      jump\t// in\n    tag_412:\n        /* \"#utility.yul\":8349:8423   */\n      swap1\n      pop\n        /* \"#utility.yul\":8446:8452   */\n      dup3\n        /* \"#utility.yul\":8439:8444   */\n      dup2\n        /* \"#utility.yul\":8432:8453   */\n      mstore\n        /* \"#utility.yul\":8484:8488   */\n      0x20\n        /* \"#utility.yul\":8477:8482   */\n      dup2\n        /* \"#utility.yul\":8473:8489   */\n      add\n        /* \"#utility.yul\":8522:8525   */\n      dup5\n        /* \"#utility.yul\":8513:8519   */\n      dup5\n        /* \"#utility.yul\":8508:8511   */\n      dup5\n        /* \"#utility.yul\":8504:8520   */\n      add\n        /* \"#utility.yul\":8501:8526   */\n      gt\n        /* \"#utility.yul\":8498:8610   */\n      iszero\n      tag_414\n      jumpi\n        /* \"#utility.yul\":8529:8608   */\n      tag_415\n      tag_298\n      jump\t// in\n    tag_415:\n        /* \"#utility.yul\":8498:8610   */\n    tag_414:\n        /* \"#utility.yul\":8619:8673   */\n      tag_416\n        /* \"#utility.yul\":8666:8672   */\n      dup5\n        /* \"#utility.yul\":8661:8664   */\n      dup3\n        /* \"#utility.yul\":8656:8659   */\n      dup6\n        /* \"#utility.yul\":8619:8673   */\n      tag_302\n      jump\t// in\n    tag_416:\n        /* \"#utility.yul\":8339:8679   */\n      pop\n        /* \"#utility.yul\":8256:8679   */\n      swap4\n      swap3\n      pop\n      pop\n      pop\n      jump\t// out\n        /* \"#utility.yul\":8698:9036   */\n    tag_304:\n        /* \"#utility.yul\":8753:8758   */\n      0x00\n        /* \"#utility.yul\":8802:8805   */\n      dup3\n        /* \"#utility.yul\":8795:8799   */\n      0x1f\n        /* \"#utility.yul\":8787:8793   */\n      dup4\n        /* \"#utility.yul\":8783:8800   */\n      add\n        /* \"#utility.yul\":8779:8806   */\n      slt\n        /* \"#utility.yul\":8769:8891   */\n      tag_418\n      jumpi\n        /* \"#utility.yul\":8810:8889   */\n      tag_419\n      tag_297\n      jump\t// in\n    tag_419:\n        /* \"#utility.yul\":8769:8891   */\n    tag_418:\n        /* \"#utility.yul\":8927:8933   */\n      dup2\n        /* \"#utility.yul\":8914:8934   */\n      calldataload\n        /* \"#utility.yul\":8952:9030   */\n      tag_420\n        /* \"#utility.yul\":9026:9029   */\n      dup5\n        /* \"#utility.yul\":9018:9024   */\n      dup3\n        /* \"#utility.yul\":9011:9015   */\n      0x20\n        /* \"#utility.yul\":9003:9009   */\n      dup7\n        /* \"#utility.yul\":8999:9016   */\n      add\n        /* \"#utility.yul\":8952:9030   */\n      tag_303\n      jump\t// in\n    tag_420:\n        /* \"#utility.yul\":8943:9030   */\n      swap2\n      pop\n        /* \"#utility.yul\":8759:9036   */\n      pop\n        /* \"#utility.yul\":8698:9036   */\n      swap3\n      swap2\n      pop\n      pop\n      jump\t// out\n        /* \"#utility.yul\":9042:9985   */\n    tag_73:\n        /* \"#utility.yul\":9137:9143   */\n      0x00\n        /* \"#utility.yul\":9145:9151   */\n      dup1\n        /* \"#utility.yul\":9153:9159   */\n      0x00\n        /* \"#utility.yul\":9161:9167   */\n      dup1\n        /* \"#utility.yul\":9210:9213   */\n      0x80\n        /* \"#utility.yul\":9198:9207   */\n      dup6\n        /* \"#utility.yul\":9189:9196   */\n      dup8\n        /* \"#utility.yul\":9185:9208   */\n      sub\n        /* \"#utility.yul\":9181:9214   */\n      slt\n        /* \"#utility.yul\":9178:9298   */\n      iszero\n      tag_422\n      jumpi\n        /* \"#utility.yul\":9217:9296   */\n      tag_423\n      tag_274\n      jump\t// in\n    tag_423:\n        /* \"#utility.yul\":9178:9298   */\n    tag_422:\n        /* \"#utility.yul\":9337:9338   */\n      0x00\n        /* \"#utility.yul\":9362:9415   */\n      tag_424\n        /* \"#utility.yul\":9407:9414   */\n      dup8\n        /* \"#utility.yul\":9398:9404   */\n      dup3\n        /* \"#utility.yul\":9387:9396   */\n      dup9\n        /* \"#utility.yul\":9383:9405   */\n      add\n        /* \"#utility.yul\":9362:9415   */\n      tag_293\n      jump\t// in\n    tag_424:\n        /* \"#utility.yul\":9352:9415   */\n      swap5\n      pop\n        /* \"#utility.yul\":9308:9425   */\n      pop\n        /* \"#utility.yul\":9464:9466   */\n      0x20\n        /* \"#utility.yul\":9490:9543   */\n      tag_425\n        /* \"#utility.yul\":9535:9542   */\n      dup8\n        /* \"#utility.yul\":9526:9532   */\n      dup3\n        /* \"#utility.yul\":9515:9524   */\n      dup9\n        /* \"#utility.yul\":9511:9533   */\n      add\n        /* \"#utility.yul\":9490:9543   */\n      tag_293\n      jump\t// in\n    tag_425:\n        /* \"#utility.yul\":9480:9543   */\n      swap4\n      pop\n        /* \"#utility.yul\":9435:9553   */\n      pop\n        /* \"#utility.yul\":9592:9594   */\n      0x40\n        /* \"#utility.yul\":9618:9671   */\n      tag_426\n        /* \"#utility.yul\":9663:9670   */\n      dup8\n        /* \"#utility.yul\":9654:9660   */\n      dup3\n        /* \"#utility.yul\":9643:9652   */\n      dup9\n        /* \"#utility.yul\":9639:9661   */\n      add\n        /* \"#utility.yul\":9618:9671   */\n      tag_288\n      jump\t// in\n    tag_426:\n        /* \"#utility.yul\":9608:9671   */\n      swap3\n      pop\n        /* \"#utility.yul\":9563:9681   */\n      pop\n        /* \"#utility.yul\":9748:9750   */\n      0x60\n        /* \"#utility.yul\":9737:9746   */\n      dup6\n        /* \"#utility.yul\":9733:9751   */\n      add\n        /* \"#utility.yul\":9720:9752   */\n      calldataload\n        /* \"#utility.yul\":9779:9797   */\n      0xffffffffffffffff\n        /* \"#utility.yul\":9771:9777   */\n      dup2\n        /* \"#utility.yul\":9768:9798   */\n      gt\n        /* \"#utility.yul\":9765:9882   */\n      iszero\n      tag_427\n      jumpi\n        /* \"#utility.yul\":9801:9880   */\n      tag_428\n      tag_275\n      jump\t// in\n    tag_428:\n        /* \"#utility.yul\":9765:9882   */\n    tag_427:\n        /* \"#utility.yul\":9906:9968   */\n      tag_429\n        /* \"#utility.yul\":9960:9967   */\n      dup8\n        /* \"#utility.yul\":9951:9957   */\n      dup3\n        /* \"#utility.yul\":9940:9949   */\n      dup9\n        /* \"#utility.yul\":9936:9958   */\n      add\n        /* \"#utility.yul\":9906:9968   */\n      tag_304\n      jump\t// in\n    tag_429:\n        /* \"#utility.yul\":9896:9968   */\n      swap2\n      pop\n        /* \"#utility.yul\":9691:9978   */\n      pop\n        /* \"#utility.yul\":9042:9985   */\n      swap3\n      swap6\n      swap2\n      swap5\n      pop\n      swap3\n      pop\n      jump\t// out\n        /* \"#utility.yul\":9991:10465   */\n    tag_81:\n        /* \"#utility.yul\":10059:10065   */\n      0x00\n        /* \"#utility.yul\":10067:10073   */\n      dup1\n        /* \"#utility.yul\":10116:10118   */\n      0x40\n        /* \"#utility.yul\":10104:10113   */\n      dup4\n        /* \"#utility.yul\":10095:10102   */\n      dup6\n        /* \"#utility.yul\":10091:10114   */\n      sub\n        /* \"#utility.yul\":10087:10119   */\n      slt\n        /* \"#utility.yul\":10084:10203   */\n      iszero\n      tag_431\n      jumpi\n        /* \"#utility.yul\":10122:10201   */\n      tag_432\n      tag_274\n      jump\t// in\n    tag_432:\n        /* \"#utility.yul\":10084:10203   */\n    tag_431:\n        /* \"#utility.yul\":10242:10243   */\n      0x00\n        /* \"#utility.yul\":10267:10320   */\n      tag_433\n        /* \"#utility.yul\":10312:10319   */\n      dup6\n        /* \"#utility.yul\":10303:10309   */\n      dup3\n        /* \"#utility.yul\":10292:10301   */\n      dup7\n        /* \"#utility.yul\":10288:10310   */\n      add\n        /* \"#utility.yul\":10267:10320   */\n      tag_293\n      jump\t// in\n    tag_433:\n        /* \"#utility.yul\":10257:10320   */\n      swap3\n      pop\n        /* \"#utility.yul\":10213:10330   */\n      pop\n        /* \"#utility.yul\":10369:10371   */\n      0x20\n        /* \"#utility.yul\":10395:10448   */\n      tag_434\n        /* \"#utility.yul\":10440:10447   */\n      dup6\n        /* \"#utility.yul\":10431:10437   */\n      dup3\n        /* \"#utility.yul\":10420:10429   */\n      dup7\n        /* \"#utility.yul\":10416:10438   */\n      add\n        /* \"#utility.yul\":10395:10448   */\n      tag_293\n      jump\t// in\n    tag_434:\n        /* \"#utility.yul\":10385:10448   */\n      swap2\n      pop\n        /* \"#utility.yul\":10340:10458   */\n      pop\n        /* \"#utility.yul\":9991:10465   */\n      swap3\n      pop\n      swap3\n      swap1\n      pop\n      jump\t// out\n        /* \"#utility.yul\":10471:10651   */\n    tag_305:\n        /* \"#utility.yul\":10519:10596   */\n      0x4e487b7100000000000000000000000000000000000000000000000000000000\n        /* \"#utility.yul\":10516:10517   */\n      0x00\n        /* \"#utility.yul\":10509:10597   */\n      mstore\n        /* \"#utility.yul\":10616:10620   */\n      0x22\n        /* \"#utility.yul\":10613:10614   */\n      0x04\n        /* \"#utility.yul\":10606:10621   */\n      mstore\n        /* \"#utility.yul\":10640:10644   */\n      0x24\n        /* \"#utility.yul\":10637:10638   */\n      0x00\n        /* \"#utility.yul\":10630:10645   */\n      revert\n        /* \"#utility.yul\":10657:10977   */\n    tag_94:\n        /* \"#utility.yul\":10701:10707   */\n      0x00\n        /* \"#utility.yul\":10738:10739   */\n      0x02\n        /* \"#utility.yul\":10732:10736   */\n      dup3\n        /* \"#utility.yul\":10728:10740   */\n      div\n        /* \"#utility.yul\":10718:10740   */\n      swap1\n      pop\n        /* \"#utility.yul\":10785:10786   */\n      0x01\n        /* \"#utility.yul\":10779:10783   */\n      dup3\n        /* \"#utility.yul\":10775:10787   */\n      and\n        /* \"#utility.yul\":10806:10824   */\n      dup1\n        /* \"#utility.yul\":10796:10877   */\n      tag_437\n      jumpi\n        /* \"#utility.yul\":10862:10866   */\n      0x7f\n        /* \"#utility.yul\":10854:10860   */\n      dup3\n        /* \"#utility.yul\":10850:10867   */\n      and\n        /* \"#utility.yul\":10840:10867   */\n      swap2\n      pop\n        /* \"#utility.yul\":10796:10877   */\n    tag_437:\n        /* \"#utility.yul\":10924:10926   */\n      0x20\n        /* \"#utility.yul\":10916:10922   */\n      dup3\n        /* \"#utility.yul\":10913:10927   */\n      lt\n        /* \"#utility.yul\":10893:10911   */\n      dup2\n        /* \"#utility.yul\":10890:10928   */\n      sub\n        /* \"#utility.yul\":10887:10971   */\n      tag_438\n      jumpi\n        /* \"#utility.yul\":10943:10961   */\n      tag_439\n      tag_305\n      jump\t// in\n    tag_439:\n        /* \"#utility.yul\":10887:10971   */\n    tag_438:\n        /* \"#utility.yul\":10708:10977   */\n      pop\n        /* \"#utility.yul\":10657:10977   */\n      swap2\n      swap1\n      pop\n      jump\t// out\n        /* \"#utility.yul\":10983:11425   */\n    tag_117:\n        /* \"#utility.yul\":11132:11136   */\n      0x00\n        /* \"#utility.yul\":11170:11172   */\n      0x60\n        /* \"#utility.yul\":11159:11168   */\n      dup3\n        /* \"#utility.yul\":11155:11173   */\n      add\n        /* \"#utility.yul\":11147:11173   */\n      swap1\n      pop\n        /* \"#utility.yul\":11183:11254   */\n      tag_441\n        /* \"#utility.yul\":11251:11252   */\n      0x00\n        /* \"#utility.yul\":11240:11249   */\n      dup4\n        /* \"#utility.yul\":11236:11253   */\n      add\n        /* \"#utility.yul\":11227:11233   */\n      dup7\n        /* \"#utility.yul\":11183:11254   */\n      tag_291\n      jump\t// in\n    tag_441:\n        /* \"#utility.yul\":11264:11336   */\n      tag_442\n        /* \"#utility.yul\":11332:11334   */\n      0x20\n        /* \"#utility.yul\":11321:11330   */\n      dup4\n        /* \"#utility.yul\":11317:11335   */\n      add\n        /* \"#utility.yul\":11308:11314   */\n      dup6\n        /* \"#utility.yul\":11264:11336   */\n      tag_294\n      jump\t// in\n    tag_442:\n        /* \"#utility.yul\":11346:11418   */\n      tag_443\n        /* \"#utility.yul\":11414:11416   */\n      0x40\n        /* \"#utility.yul\":11403:11412   */\n      dup4\n        /* \"#utility.yul\":11399:11417   */\n      add\n        /* \"#utility.yul\":11390:11396   */\n      dup5\n        /* \"#utility.yul\":11346:11418   */\n      tag_291\n      jump\t// in\n    tag_443:\n        /* \"#utility.yul\":10983:11425   */\n      swap5\n      swap4\n      pop\n      pop\n      pop\n      pop\n      jump\t// out\n        /* \"#utility.yul\":11431:11579   */\n    tag_306:\n        /* \"#utility.yul\":11533:11544   */\n      0x00\n        /* \"#utility.yul\":11570:11573   */\n      dup2\n        /* \"#utility.yul\":11555:11573   */\n      swap1\n      pop\n        /* \"#utility.yul\":11431:11579   */\n      swap3\n      swap2\n      pop\n      pop\n      jump\t// out\n        /* \"#utility.yul\":11585:11975   */\n    tag_307:\n        /* \"#utility.yul\":11691:11694   */\n      0x00\n        /* \"#utility.yul\":11719:11758   */\n      tag_446\n        /* \"#utility.yul\":11752:11757   */\n      dup3\n        /* \"#utility.yul\":11719:11758   */\n      tag_281\n      jump\t// in\n    tag_446:\n        /* \"#utility.yul\":11774:11863   */\n      tag_447\n        /* \"#utility.yul\":11856:11862   */\n      dup2\n        /* \"#utility.yul\":11851:11854   */\n      dup6\n        /* \"#utility.yul\":11774:11863   */\n      tag_306\n      jump\t// in\n    tag_447:\n        /* \"#utility.yul\":11767:11863   */\n      swap4\n      pop\n        /* \"#utility.yul\":11872:11937   */\n      tag_448\n        /* \"#utility.yul\":11930:11936   */\n      dup2\n        /* \"#utility.yul\":11925:11928   */\n      dup6\n        /* \"#utility.yul\":11918:11922   */\n      0x20\n        /* \"#utility.yul\":11911:11916   */\n      dup7\n        /* \"#utility.yul\":11907:11923   */\n      add\n        /* \"#utility.yul\":11872:11937   */\n      tag_283\n      jump\t// in\n    tag_448:\n        /* \"#utility.yul\":11962:11968   */\n      dup1\n        /* \"#utility.yul\":11957:11960   */\n      dup5\n        /* \"#utility.yul\":11953:11969   */\n      add\n        /* \"#utility.yul\":11946:11969   */\n      swap2\n      pop\n        /* \"#utility.yul\":11695:11975   */\n      pop\n        /* \"#utility.yul\":11585:11975   */\n      swap3\n      swap2\n      pop\n      pop\n      jump\t// out\n        /* \"#utility.yul\":11981:12416   */\n    tag_155:\n        /* \"#utility.yul\":12161:12164   */\n      0x00\n        /* \"#utility.yul\":12183:12278   */\n      tag_450\n        /* \"#utility.yul\":12274:12277   */\n      dup3\n        /* \"#utility.yul\":12265:12271   */\n      dup6\n        /* \"#utility.yul\":12183:12278   */\n      tag_307\n      jump\t// in\n    tag_450:\n        /* \"#utility.yul\":12176:12278   */\n      swap2\n      pop\n        /* \"#utility.yul\":12295:12390   */\n      tag_451\n        /* \"#utility.yul\":12386:12389   */\n      dup3\n        /* \"#utility.yul\":12377:12383   */\n      dup5\n        /* \"#utility.yul\":12295:12390   */\n      tag_307\n      jump\t// in\n    tag_451:\n        /* \"#utility.yul\":12288:12390   */\n      swap2\n      pop\n        /* \"#utility.yul\":12407:12410   */\n      dup2\n        /* \"#utility.yul\":12400:12410   */\n      swap1\n      pop\n        /* \"#utility.yul\":11981:12416   */\n      swap4\n      swap3\n      pop\n      pop\n      pop\n      jump\t// out\n        /* \"#utility.yul\":12422:12520   */\n    tag_308:\n        /* \"#utility.yul\":12473:12479   */\n      0x00\n        /* \"#utility.yul\":12507:12512   */\n      dup2\n        /* \"#utility.yul\":12501:12513   */\n      mload\n        /* \"#utility.yul\":12491:12513   */\n      swap1\n      pop\n        /* \"#utility.yul\":12422:12520   */\n      swap2\n      swap1\n      pop\n      jump\t// out\n        /* \"#utility.yul\":12526:12694   */\n    tag_309:\n        /* \"#utility.yul\":12609:12620   */\n      0x00\n        /* \"#utility.yul\":12643:12649   */\n      dup3\n        /* \"#utility.yul\":12638:12641   */\n      dup3\n        /* \"#utility.yul\":12631:12650   */\n      mstore\n        /* \"#utility.yul\":12683:12687   */\n      0x20\n        /* \"#utility.yul\":12678:12681   */\n      dup3\n        /* \"#utility.yul\":12674:12688   */\n      add\n        /* \"#utility.yul\":12659:12688   */\n      swap1\n      pop\n        /* \"#utility.yul\":12526:12694   */\n      swap3\n      swap2\n      pop\n      pop\n      jump\t// out\n        /* \"#utility.yul\":12700:13073   */\n    tag_310:\n        /* \"#utility.yul\":12786:12789   */\n      0x00\n        /* \"#utility.yul\":12814:12852   */\n      tag_455\n        /* \"#utility.yul\":12846:12851   */\n      dup3\n        /* \"#utility.yul\":12814:12852   */\n      tag_308\n      jump\t// in\n    tag_455:\n        /* \"#utility.yul\":12868:12938   */\n      tag_456\n        /* \"#utility.yul\":12931:12937   */\n      dup2\n        /* \"#utility.yul\":12926:12929   */\n      dup6\n        /* \"#utility.yul\":12868:12938   */\n      tag_309\n      jump\t// in\n    tag_456:\n        /* \"#utility.yul\":12861:12938   */\n      swap4\n      pop\n        /* \"#utility.yul\":12947:13012   */\n      tag_457\n        /* \"#utility.yul\":13005:13011   */\n      dup2\n        /* \"#utility.yul\":13000:13003   */\n      dup6\n        /* \"#utility.yul\":12993:12997   */\n      0x20\n        /* \"#utility.yul\":12986:12991   */\n      dup7\n        /* \"#utility.yul\":12982:12998   */\n      add\n        /* \"#utility.yul\":12947:13012   */\n      tag_283\n      jump\t// in\n    tag_457:\n        /* \"#utility.yul\":13037:13066   */\n      tag_458\n        /* \"#utility.yul\":13059:13065   */\n      dup2\n        /* \"#utility.yul\":13037:13066   */\n      tag_284\n      jump\t// in\n    tag_458:\n        /* \"#utility.yul\":13032:13035   */\n      dup5\n        /* \"#utility.yul\":13028:13067   */\n      add\n        /* \"#utility.yul\":13021:13067   */\n      swap2\n      pop\n        /* \"#utility.yul\":12790:13073   */\n      pop\n        /* \"#utility.yul\":12700:13073   */\n      swap3\n      swap2\n      pop\n      pop\n      jump\t// out\n        /* \"#utility.yul\":13079:13719   */\n    tag_197:\n        /* \"#utility.yul\":13274:13278   */\n      0x00\n        /* \"#utility.yul\":13312:13315   */\n      0x80\n        /* \"#utility.yul\":13301:13310   */\n      dup3\n        /* \"#utility.yul\":13297:13316   */\n      add\n        /* \"#utility.yul\":13289:13316   */\n      swap1\n      pop\n        /* \"#utility.yul\":13326:13397   */\n      tag_460\n        /* \"#utility.yul\":13394:13395   */\n      0x00\n        /* \"#utility.yul\":13383:13392   */\n      dup4\n        /* \"#utility.yul\":13379:13396   */\n      add\n        /* \"#utility.yul\":13370:13376   */\n      dup8\n        /* \"#utility.yul\":13326:13397   */\n      tag_291\n      jump\t// in\n    tag_460:\n        /* \"#utility.yul\":13407:13479   */\n      tag_461\n        /* \"#utility.yul\":13475:13477   */\n      0x20\n        /* \"#utility.yul\":13464:13473   */\n      dup4\n        /* \"#utility.yul\":13460:13478   */\n      add\n        /* \"#utility.yul\":13451:13457   */\n      dup7\n        /* \"#utility.yul\":13407:13479   */\n      tag_291\n      jump\t// in\n    tag_461:\n        /* \"#utility.yul\":13489:13561   */\n      tag_462\n        /* \"#utility.yul\":13557:13559   */\n      0x40\n        /* \"#utility.yul\":13546:13555   */\n      dup4\n        /* \"#utility.yul\":13542:13560   */\n      add\n        /* \"#utility.yul\":13533:13539   */\n      dup6\n        /* \"#utility.yul\":13489:13561   */\n      tag_294\n      jump\t// in\n    tag_462:\n        /* \"#utility.yul\":13608:13617   */\n      dup2\n        /* \"#utility.yul\":13602:13606   */\n      dup2\n        /* \"#utility.yul\":13598:13618   */\n      sub\n        /* \"#utility.yul\":13593:13595   */\n      0x60\n        /* \"#utility.yul\":13582:13591   */\n      dup4\n        /* \"#utility.yul\":13578:13596   */\n      add\n        /* \"#utility.yul\":13571:13619   */\n      mstore\n        /* \"#utility.yul\":13636:13712   */\n      tag_463\n        /* \"#utility.yul\":13707:13711   */\n      dup2\n        /* \"#utility.yul\":13698:13704   */\n      dup5\n        /* \"#utility.yul\":13636:13712   */\n      tag_310\n      jump\t// in\n    tag_463:\n        /* \"#utility.yul\":13628:13712   */\n      swap1\n      pop\n        /* \"#utility.yul\":13079:13719   */\n      swap6\n      swap5\n      pop\n      pop\n      pop\n      pop\n      pop\n      jump\t// out\n        /* \"#utility.yul\":13725:13866   */\n    tag_311:\n        /* \"#utility.yul\":13781:13786   */\n      0x00\n        /* \"#utility.yul\":13812:13818   */\n      dup2\n        /* \"#utility.yul\":13806:13819   */\n      mload\n        /* \"#utility.yul\":13797:13819   */\n      swap1\n      pop\n        /* \"#utility.yul\":13828:13860   */\n      tag_465\n        /* \"#utility.yul\":13854:13859   */\n      dup2\n        /* \"#utility.yul\":13828:13860   */\n      tag_277\n      jump\t// in\n    tag_465:\n        /* \"#utility.yul\":13725:13866   */\n      swap3\n      swap2\n      pop\n      pop\n      jump\t// out\n        /* \"#utility.yul\":13872:14221   */\n    tag_200:\n        /* \"#utility.yul\":13941:13947   */\n      0x00\n        /* \"#utility.yul\":13990:13992   */\n      0x20\n        /* \"#utility.yul\":13978:13987   */\n      dup3\n        /* \"#utility.yul\":13969:13976   */\n      dup5\n        /* \"#utility.yul\":13965:13988   */\n      sub\n        /* \"#utility.yul\":13961:13993   */\n      slt\n        /* \"#utility.yul\":13958:14077   */\n      iszero\n      tag_467\n      jumpi\n        /* \"#utility.yul\":13996:14075   */\n      tag_468\n      tag_274\n      jump\t// in\n    tag_468:\n        /* \"#utility.yul\":13958:14077   */\n    tag_467:\n        /* \"#utility.yul\":14116:14117   */\n      0x00\n        /* \"#utility.yul\":14141:14204   */\n      tag_469\n        /* \"#utility.yul\":14196:14203   */\n      dup5\n        /* \"#utility.yul\":14187:14193   */\n      dup3\n        /* \"#utility.yul\":14176:14185   */\n      dup6\n        /* \"#utility.yul\":14172:14194   */\n      add\n        /* \"#utility.yul\":14141:14204   */\n      tag_311\n      jump\t// in\n    tag_469:\n        /* \"#utility.yul\":14131:14204   */\n      swap2\n      pop\n        /* \"#utility.yul\":14087:14214   */\n      pop\n        /* \"#utility.yul\":13872:14221   */\n      swap3\n      swap2\n      pop\n      pop\n      jump\t// out\n        /* \"#utility.yul\":14227:14407   */\n    tag_225:\n        /* \"#utility.yul\":14275:14352   */\n      0x4e487b7100000000000000000000000000000000000000000000000000000000\n        /* \"#utility.yul\":14272:14273   */\n      0x00\n        /* \"#utility.yul\":14265:14353   */\n      mstore\n        /* \"#utility.yul\":14372:14376   */\n      0x12\n        /* \"#utility.yul\":14369:14370   */\n      0x04\n        /* \"#utility.yul\":14362:14377   */\n      mstore\n        /* \"#utility.yul\":14396:14400   */\n      0x24\n        /* \"#utility.yul\":14393:14394   */\n      0x00\n        /* \"#utility.yul\":14386:14401   */\n      revert\n        /* \"#utility.yul\":14413:14745   */\n    tag_246:\n        /* \"#utility.yul\":14534:14538   */\n      0x00\n        /* \"#utility.yul\":14572:14574   */\n      0x40\n        /* \"#utility.yul\":14561:14570   */\n      dup3\n        /* \"#utility.yul\":14557:14575   */\n      add\n        /* \"#utility.yul\":14549:14575   */\n      swap1\n      pop\n        /* \"#utility.yul\":14585:14656   */\n      tag_472\n        /* \"#utility.yul\":14653:14654   */\n      0x00\n        /* \"#utility.yul\":14642:14651   */\n      dup4\n        /* \"#utility.yul\":14638:14655   */\n      add\n        /* \"#utility.yul\":14629:14635   */\n      dup6\n        /* \"#utility.yul\":14585:14656   */\n      tag_291\n      jump\t// in\n    tag_472:\n        /* \"#utility.yul\":14666:14738   */\n      tag_473\n        /* \"#utility.yul\":14734:14736   */\n      0x20\n        /* \"#utility.yul\":14723:14732   */\n      dup4\n        /* \"#utility.yul\":14719:14737   */\n      add\n        /* \"#utility.yul\":14710:14716   */\n      dup5\n        /* \"#utility.yul\":14666:14738   */\n      tag_294\n      jump\t// in\n    tag_473:\n        /* \"#utility.yul\":14413:14745   */\n      swap4\n      swap3\n      pop\n      pop\n      pop\n      jump\t// out\n\n    auxdata: 0xa2646970667358221220da6d6383eaacb1b73a342b983ed753475b1d37c3682ac3f70960e4bf25b1f99064736f6c63430008140033\n}\n",
				"bytecode": {
					"linkReferences": {},
					"object": "608060405234801562000010575f80fd5b50604051620024b1380380620024b183398181016040528101906200003691906200027c565b806040518060400160405280600a81526020017f5069656365546f6b656e000000000000000000000000000000000000000000008152506040518060400160405280600281526020017f5054000000000000000000000000000000000000000000000000000000000000815250815f9081620000b3919062000510565b508060019081620000c5919062000510565b5050505f73ffffffffffffffffffffffffffffffffffffffff168173ffffffffffffffffffffffffffffffffffffffff16036200013b575f6040517f1e4fbdf700000000000000000000000000000000000000000000000000000000815260040162000132919062000605565b60405180910390fd5b6200014c816200015460201b60201c565b505062000620565b5f60065f9054906101000a900473ffffffffffffffffffffffffffffffffffffffff1690508160065f6101000a81548173ffffffffffffffffffffffffffffffffffffffff021916908373ffffffffffffffffffffffffffffffffffffffff1602179055508173ffffffffffffffffffffffffffffffffffffffff168173ffffffffffffffffffffffffffffffffffffffff167f8be0079c531659141344cd1fd0a4f28419497f9722a3daafe3b4186f6b6457e060405160405180910390a35050565b5f80fd5b5f73ffffffffffffffffffffffffffffffffffffffff82169050919050565b5f62000246826200021b565b9050919050565b62000258816200023a565b811462000263575f80fd5b50565b5f8151905062000276816200024d565b92915050565b5f6020828403121562000294576200029362000217565b5b5f620002a38482850162000266565b91505092915050565b5f81519050919050565b7f4e487b71000000000000000000000000000000000000000000000000000000005f52604160045260245ffd5b7f4e487b71000000000000000000000000000000000000000000000000000000005f52602260045260245ffd5b5f60028204905060018216806200032857607f821691505b6020821081036200033e576200033d620002e3565b5b50919050565b5f819050815f5260205f209050919050565b5f6020601f8301049050919050565b5f82821b905092915050565b5f60088302620003a27fffffffffffffffffffffffffffffffffffffffffffffffffffffffffffffffff8262000365565b620003ae868362000365565b95508019841693508086168417925050509392505050565b5f819050919050565b5f819050919050565b5f620003f8620003f2620003ec84620003c6565b620003cf565b620003c6565b9050919050565b5f819050919050565b6200041383620003d8565b6200042b6200042282620003ff565b84845462000371565b825550505050565b5f90565b6200044162000433565b6200044e81848462000408565b505050565b5b818110156200047557620004695f8262000437565b60018101905062000454565b5050565b601f821115620004c4576200048e8162000344565b620004998462000356565b81016020851015620004a9578190505b620004c1620004b88562000356565b83018262000453565b50505b505050565b5f82821c905092915050565b5f620004e65f1984600802620004c9565b1980831691505092915050565b5f620005008383620004d5565b9150826002028217905092915050565b6200051b82620002ac565b67ffffffffffffffff811115620005375762000536620002b6565b5b62000543825462000310565b6200055082828562000479565b5f60209050601f83116001811462000586575f841562000571578287015190505b6200057d8582620004f3565b865550620005ec565b601f198416620005968662000344565b5f5b82811015620005bf5784890151825560018201915060208501945060208101905062000598565b86831015620005df5784890151620005db601f891682620004d5565b8355505b6001600288020188555050505b505050505050565b620005ff816200023a565b82525050565b5f6020820190506200061a5f830184620005f4565b92915050565b611e83806200062e5f395ff3fe608060405234801561000f575f80fd5b50600436106100fe575f3560e01c8063715018a611610095578063b88d4fde11610064578063b88d4fde14610296578063c87b56dd146102b2578063e985e9c5146102e2578063f2fde38b14610312576100fe565b8063715018a6146102345780638da5cb5b1461023e57806395d89b411461025c578063a22cb4651461027a576100fe565b806323b872dd116100d157806323b872dd1461019c57806342842e0e146101b85780636352211e146101d457806370a0823114610204576100fe565b806301ffc9a71461010257806306fdde0314610132578063081812fc14610150578063095ea7b314610180575b5f80fd5b61011c60048036038101906101179190611714565b61032e565b6040516101299190611759565b60405180910390f35b61013a61040f565b60405161014791906117fc565b60405180910390f35b61016a6004803603810190610165919061184f565b61049e565b60405161017791906118b9565b60405180910390f35b61019a600480360381019061019591906118fc565b6104b9565b005b6101b660048036038101906101b1919061193a565b6104cf565b005b6101d260048036038101906101cd919061193a565b6105ce565b005b6101ee60048036038101906101e9919061184f565b6105ed565b6040516101fb91906118b9565b60405180910390f35b61021e6004803603810190610219919061198a565b6105fe565b60405161022b91906119c4565b60405180910390f35b61023c6106b4565b005b6102466106c7565b60405161025391906118b9565b60405180910390f35b6102646106ef565b60405161027191906117fc565b60405180910390f35b610294600480360381019061028f9190611a07565b61077f565b005b6102b060048036038101906102ab9190611b71565b610795565b005b6102cc60048036038101906102c7919061184f565b6107b2565b6040516102d991906117fc565b60405180910390f35b6102fc60048036038101906102f79190611bf1565b610818565b6040516103099190611759565b60405180910390f35b61032c6004803603810190610327919061198a565b6108a6565b005b5f7f80ac58cd000000000000000000000000000000000000000000000000000000007bffffffffffffffffffffffffffffffffffffffffffffffffffffffff1916827bffffffffffffffffffffffffffffffffffffffffffffffffffffffff191614806103f857507f5b5e139f000000000000000000000000000000000000000000000000000000007bffffffffffffffffffffffffffffffffffffffffffffffffffffffff1916827bffffffffffffffffffffffffffffffffffffffffffffffffffffffff1916145b8061040857506104078261092a565b5b9050919050565b60605f805461041d90611c5c565b80601f016020809104026020016040519081016040528092919081815260200182805461044990611c5c565b80156104945780601f1061046b57610100808354040283529160200191610494565b820191905f5260205f20905b81548152906001019060200180831161047757829003601f168201915b5050505050905090565b5f6104a882610993565b506104b282610a19565b9050919050565b6104cb82826104c6610a52565b610a59565b5050565b5f73ffffffffffffffffffffffffffffffffffffffff168273ffffffffffffffffffffffffffffffffffffffff160361053f575f6040517f64a0ae9200000000000000000000000000000000000000000000000000000000815260040161053691906118b9565b60405180910390fd5b5f610552838361054d610a52565b610a6b565b90508373ffffffffffffffffffffffffffffffffffffffff168173ffffffffffffffffffffffffffffffffffffffff16146105c8578382826040517f64283d7b0000000000000000000000000000000000000000000000000000000081526004016105bf93929190611c8c565b60405180910390fd5b50505050565b6105e883838360405180602001604052805f815250610795565b505050565b5f6105f782610993565b9050919050565b5f8073ffffffffffffffffffffffffffffffffffffffff168273ffffffffffffffffffffffffffffffffffffffff160361066f575f6040517f89c62b6400000000000000000000000000000000000000000000000000000000815260040161066691906118b9565b60405180910390fd5b60035f8373ffffffffffffffffffffffffffffffffffffffff1673ffffffffffffffffffffffffffffffffffffffff1681526020019081526020015f20549050919050565b6106bc610c76565b6106c55f610cfd565b565b5f60065f9054906101000a900473ffffffffffffffffffffffffffffffffffffffff16905090565b6060600180546106fe90611c5c565b80601f016020809104026020016040519081016040528092919081815260200182805461072a90611c5c565b80156107755780601f1061074c57610100808354040283529160200191610775565b820191905f5260205f20905b81548152906001019060200180831161075857829003601f168201915b5050505050905090565b61079161078a610a52565b8383610dc0565b5050565b6107a08484846104cf565b6107ac84848484610f29565b50505050565b60606107bd82610993565b505f6107c76110db565b90505f8151116107e55760405180602001604052805f815250610810565b806107ef84611118565b604051602001610800929190611cfb565b6040516020818303038152906040525b915050919050565b5f60055f8473ffffffffffffffffffffffffffffffffffffffff1673ffffffffffffffffffffffffffffffffffffffff1681526020019081526020015f205f8373ffffffffffffffffffffffffffffffffffffffff1673ffffffffffffffffffffffffffffffffffffffff1681526020019081526020015f205f9054906101000a900460ff16905092915050565b6108ae610c76565b5f73ffffffffffffffffffffffffffffffffffffffff168173ffffffffffffffffffffffffffffffffffffffff160361091e575f6040517f1e4fbdf700000000000000000000000000000000000000000000000000000000815260040161091591906118b9565b60405180910390fd5b61092781610cfd565b50565b5f7f01ffc9a7000000000000000000000000000000000000000000000000000000007bffffffffffffffffffffffffffffffffffffffffffffffffffffffff1916827bffffffffffffffffffffffffffffffffffffffffffffffffffffffff1916149050919050565b5f8061099e836111e2565b90505f73ffffffffffffffffffffffffffffffffffffffff168173ffffffffffffffffffffffffffffffffffffffff1603610a1057826040517f7e273289000000000000000000000000000000000000000000000000000000008152600401610a0791906119c4565b60405180910390fd5b80915050919050565b5f60045f8381526020019081526020015f205f9054906101000a900473ffffffffffffffffffffffffffffffffffffffff169050919050565b5f33905090565b610a66838383600161121b565b505050565b5f80610a76846111e2565b90505f73ffffffffffffffffffffffffffffffffffffffff168373ffffffffffffffffffffffffffffffffffffffff1614610ab757610ab68184866113da565b5b5f73ffffffffffffffffffffffffffffffffffffffff168173ffffffffffffffffffffffffffffffffffffffff1614610b4257610af65f855f8061121b565b600160035f8373ffffffffffffffffffffffffffffffffffffffff1673ffffffffffffffffffffffffffffffffffffffff1681526020019081526020015f205f82825403925050819055505b5f73ffffffffffffffffffffffffffffffffffffffff168573ffffffffffffffffffffffffffffffffffffffff1614610bc157600160035f8773ffffffffffffffffffffffffffffffffffffffff1673ffffffffffffffffffffffffffffffffffffffff1681526020019081526020015f205f82825401925050819055505b8460025f8681526020019081526020015f205f6101000a81548173ffffffffffffffffffffffffffffffffffffffff021916908373ffffffffffffffffffffffffffffffffffffffff160217905550838573ffffffffffffffffffffffffffffffffffffffff168273ffffffffffffffffffffffffffffffffffffffff167fddf252ad1be2c89b69c2b068fc378daa952ba7f163c4a11628f55a4df523b3ef60405160405180910390a4809150509392505050565b610c7e610a52565b73ffffffffffffffffffffffffffffffffffffffff16610c9c6106c7565b73ffffffffffffffffffffffffffffffffffffffff1614610cfb57610cbf610a52565b6040517f118cdaa7000000000000000000000000000000000000000000000000000000008152600401610cf291906118b9565b60405180910390fd5b565b5f60065f9054906101000a900473ffffffffffffffffffffffffffffffffffffffff1690508160065f6101000a81548173ffffffffffffffffffffffffffffffffffffffff021916908373ffffffffffffffffffffffffffffffffffffffff1602179055508173ffffffffffffffffffffffffffffffffffffffff168173ffffffffffffffffffffffffffffffffffffffff167f8be0079c531659141344cd1fd0a4f28419497f9722a3daafe3b4186f6b6457e060405160405180910390a35050565b5f73ffffffffffffffffffffffffffffffffffffffff168273ffffffffffffffffffffffffffffffffffffffff1603610e3057816040517f5b08ba18000000000000000000000000000000000000000000000000000000008152600401610e2791906118b9565b60405180910390fd5b8060055f8573ffffffffffffffffffffffffffffffffffffffff1673ffffffffffffffffffffffffffffffffffffffff1681526020019081526020015f205f8473ffffffffffffffffffffffffffffffffffffffff1673ffffffffffffffffffffffffffffffffffffffff1681526020019081526020015f205f6101000a81548160ff0219169083151502179055508173ffffffffffffffffffffffffffffffffffffffff168373ffffffffffffffffffffffffffffffffffffffff167f17307eab39ab6107e8899845ad3d59bd9653f200f220920489ca2b5937696c3183604051610f1c9190611759565b60405180910390a3505050565b5f8373ffffffffffffffffffffffffffffffffffffffff163b11156110d5578273ffffffffffffffffffffffffffffffffffffffff1663150b7a02610f6c610a52565b8685856040518563ffffffff1660e01b8152600401610f8e9493929190611d70565b6020604051808303815f875af1925050508015610fc957506040513d601f19601f82011682018060405250810190610fc69190611dce565b60015b61104a573d805f8114610ff7576040519150601f19603f3d011682016040523d82523d5f602084013e610ffc565b606091505b505f81510361104257836040517f64a0ae9200000000000000000000000000000000000000000000000000000000815260040161103991906118b9565b60405180910390fd5b805181602001fd5b63150b7a0260e01b7bffffffffffffffffffffffffffffffffffffffffffffffffffffffff1916817bffffffffffffffffffffffffffffffffffffffffffffffffffffffff1916146110d357836040517f64a0ae920000000000000000000000000000000000000000000000000000000081526004016110ca91906118b9565b60405180910390fd5b505b50505050565b60606040518060400160405280601881526020017f697066733a2f2f7069656365546f6b656e426173655552490000000000000000815250905090565b60605f60016111268461149d565b0190505f8167ffffffffffffffff81111561114457611143611a4d565b5b6040519080825280601f01601f1916602001820160405280156111765781602001600182028036833780820191505090505b5090505f82602001820190505b6001156111d7578080600190039150507f3031323334353637383961626364656600000000000000000000000000000000600a86061a8153600a85816111cc576111cb611df9565b5b0494505f8503611183575b819350505050919050565b5f60025f8381526020019081526020015f205f9054906101000a900473ffffffffffffffffffffffffffffffffffffffff169050919050565b808061125357505f73ffffffffffffffffffffffffffffffffffffffff168273ffffffffffffffffffffffffffffffffffffffff1614155b15611385575f61126284610993565b90505f73ffffffffffffffffffffffffffffffffffffffff168373ffffffffffffffffffffffffffffffffffffffff16141580156112cc57508273ffffffffffffffffffffffffffffffffffffffff168173ffffffffffffffffffffffffffffffffffffffff1614155b80156112df57506112dd8184610818565b155b1561132157826040517fa9fbf51f00000000000000000000000000000000000000000000000000000000815260040161131891906118b9565b60405180910390fd5b811561138357838573ffffffffffffffffffffffffffffffffffffffff168273ffffffffffffffffffffffffffffffffffffffff167f8c5be1e5ebec7d5bd14f71427d1e84f3dd0314c0f7b2291e5b200ac8c7c3b92560405160405180910390a45b505b8360045f8581526020019081526020015f205f6101000a81548173ffffffffffffffffffffffffffffffffffffffff021916908373ffffffffffffffffffffffffffffffffffffffff16021790555050505050565b6113e58383836115ee565b611498575f73ffffffffffffffffffffffffffffffffffffffff168373ffffffffffffffffffffffffffffffffffffffff160361145957806040517f7e27328900000000000000000000000000000000000000000000000000000000815260040161145091906119c4565b60405180910390fd5b81816040517f177e802f00000000000000000000000000000000000000000000000000000000815260040161148f929190611e26565b60405180910390fd5b505050565b5f805f90507a184f03e93ff9f4daa797ed6e38ed64bf6a1f01000000000000000083106114f9577a184f03e93ff9f4daa797ed6e38ed64bf6a1f01000000000000000083816114ef576114ee611df9565b5b0492506040810190505b6d04ee2d6d415b85acef81000000008310611536576d04ee2d6d415b85acef8100000000838161152c5761152b611df9565b5b0492506020810190505b662386f26fc10000831061156557662386f26fc10000838161155b5761155a611df9565b5b0492506010810190505b6305f5e100831061158e576305f5e100838161158457611583611df9565b5b0492506008810190505b61271083106115b35761271083816115a9576115a8611df9565b5b0492506004810190505b606483106115d657606483816115cc576115cb611df9565b5b0492506002810190505b600a83106115e5576001810190505b80915050919050565b5f8073ffffffffffffffffffffffffffffffffffffffff168373ffffffffffffffffffffffffffffffffffffffff16141580156116a557508273ffffffffffffffffffffffffffffffffffffffff168473ffffffffffffffffffffffffffffffffffffffff16148061166657506116658484610818565b5b806116a457508273ffffffffffffffffffffffffffffffffffffffff1661168c83610a19565b73ffffffffffffffffffffffffffffffffffffffff16145b5b90509392505050565b5f604051905090565b5f80fd5b5f80fd5b5f7fffffffff0000000000000000000000000000000000000000000000000000000082169050919050565b6116f3816116bf565b81146116fd575f80fd5b50565b5f8135905061170e816116ea565b92915050565b5f60208284031215611729576117286116b7565b5b5f61173684828501611700565b91505092915050565b5f8115159050919050565b6117538161173f565b82525050565b5f60208201905061176c5f83018461174a565b92915050565b5f81519050919050565b5f82825260208201905092915050565b5f5b838110156117a957808201518184015260208101905061178e565b5f8484015250505050565b5f601f19601f8301169050919050565b5f6117ce82611772565b6117d8818561177c565b93506117e881856020860161178c565b6117f1816117b4565b840191505092915050565b5f6020820190508181035f83015261181481846117c4565b905092915050565b5f819050919050565b61182e8161181c565b8114611838575f80fd5b50565b5f8135905061184981611825565b92915050565b5f60208284031215611864576118636116b7565b5b5f6118718482850161183b565b91505092915050565b5f73ffffffffffffffffffffffffffffffffffffffff82169050919050565b5f6118a38261187a565b9050919050565b6118b381611899565b82525050565b5f6020820190506118cc5f8301846118aa565b92915050565b6118db81611899565b81146118e5575f80fd5b50565b5f813590506118f6816118d2565b92915050565b5f8060408385031215611912576119116116b7565b5b5f61191f858286016118e8565b92505060206119308582860161183b565b9150509250929050565b5f805f60608486031215611951576119506116b7565b5b5f61195e868287016118e8565b935050602061196f868287016118e8565b92505060406119808682870161183b565b9150509250925092565b5f6020828403121561199f5761199e6116b7565b5b5f6119ac848285016118e8565b91505092915050565b6119be8161181c565b82525050565b5f6020820190506119d75f8301846119b5565b92915050565b6119e68161173f565b81146119f0575f80fd5b50565b5f81359050611a01816119dd565b92915050565b5f8060408385031215611a1d57611a1c6116b7565b5b5f611a2a858286016118e8565b9250506020611a3b858286016119f3565b9150509250929050565b5f80fd5b5f80fd5b7f4e487b71000000000000000000000000000000000000000000000000000000005f52604160045260245ffd5b611a83826117b4565b810181811067ffffffffffffffff82111715611aa257611aa1611a4d565b5b80604052505050565b5f611ab46116ae565b9050611ac08282611a7a565b919050565b5f67ffffffffffffffff821115611adf57611ade611a4d565b5b611ae8826117b4565b9050602081019050919050565b828183375f83830152505050565b5f611b15611b1084611ac5565b611aab565b905082815260208101848484011115611b3157611b30611a49565b5b611b3c848285611af5565b509392505050565b5f82601f830112611b5857611b57611a45565b5b8135611b68848260208601611b03565b91505092915050565b5f805f8060808587031215611b8957611b886116b7565b5b5f611b96878288016118e8565b9450506020611ba7878288016118e8565b9350506040611bb88782880161183b565b925050606085013567ffffffffffffffff811115611bd957611bd86116bb565b5b611be587828801611b44565b91505092959194509250565b5f8060408385031215611c0757611c066116b7565b5b5f611c14858286016118e8565b9250506020611c25858286016118e8565b9150509250929050565b7f4e487b71000000000000000000000000000000000000000000000000000000005f52602260045260245ffd5b5f6002820490506001821680611c7357607f821691505b602082108103611c8657611c85611c2f565b5b50919050565b5f606082019050611c9f5f8301866118aa565b611cac60208301856119b5565b611cb960408301846118aa565b949350505050565b5f81905092915050565b5f611cd582611772565b611cdf8185611cc1565b9350611cef81856020860161178c565b80840191505092915050565b5f611d068285611ccb565b9150611d128284611ccb565b91508190509392505050565b5f81519050919050565b5f82825260208201905092915050565b5f611d4282611d1e565b611d4c8185611d28565b9350611d5c81856020860161178c565b611d65816117b4565b840191505092915050565b5f608082019050611d835f8301876118aa565b611d9060208301866118aa565b611d9d60408301856119b5565b8181036060830152611daf8184611d38565b905095945050505050565b5f81519050611dc8816116ea565b92915050565b5f60208284031215611de357611de26116b7565b5b5f611df084828501611dba565b91505092915050565b7f4e487b71000000000000000000000000000000000000000000000000000000005f52601260045260245ffd5b5f604082019050611e395f8301856118aa565b611e4660208301846119b5565b939250505056fea2646970667358221220da6d6383eaacb1b73a342b983ed753475b1d37c3682ac3f70960e4bf25b1f99064736f6c63430008140033",
					"opcodes": "PUSH1 0x80 PUSH1 0x40 MSTORE CALLVALUE DUP1 ISZERO PUSH3 0x10 JUMPI PUSH0 DUP1 REVERT JUMPDEST POP PUSH1 0x40 MLOAD PUSH3 0x24B1 CODESIZE SUB DUP1 PUSH3 0x24B1 DUP4 CODECOPY DUP2 DUP2 ADD PUSH1 0x40 MSTORE DUP2 ADD SWAP1 PUSH3 0x36 SWAP2 SWAP1 PUSH3 0x27C JUMP JUMPDEST DUP1 PUSH1 0x40 MLOAD DUP1 PUSH1 0x40 ADD PUSH1 0x40 MSTORE DUP1 PUSH1 0xA DUP2 MSTORE PUSH1 0x20 ADD PUSH32 0x5069656365546F6B656E00000000000000000000000000000000000000000000 DUP2 MSTORE POP PUSH1 0x40 MLOAD DUP1 PUSH1 0x40 ADD PUSH1 0x40 MSTORE DUP1 PUSH1 0x2 DUP2 MSTORE PUSH1 0x20 ADD PUSH32 0x5054000000000000000000000000000000000000000000000000000000000000 DUP2 MSTORE POP DUP2 PUSH0 SWAP1 DUP2 PUSH3 0xB3 SWAP2 SWAP1 PUSH3 0x510 JUMP JUMPDEST POP DUP1 PUSH1 0x1 SWAP1 DUP2 PUSH3 0xC5 SWAP2 SWAP1 PUSH3 0x510 JUMP JUMPDEST POP POP POP PUSH0 PUSH20 0xFFFFFFFFFFFFFFFFFFFFFFFFFFFFFFFFFFFFFFFF AND DUP2 PUSH20 0xFFFFFFFFFFFFFFFFFFFFFFFFFFFFFFFFFFFFFFFF AND SUB PUSH3 0x13B JUMPI PUSH0 PUSH1 0x40 MLOAD PUSH32 0x1E4FBDF700000000000000000000000000000000000000000000000000000000 DUP2 MSTORE PUSH1 0x4 ADD PUSH3 0x132 SWAP2 SWAP1 PUSH3 0x605 JUMP JUMPDEST PUSH1 0x40 MLOAD DUP1 SWAP2 SUB SWAP1 REVERT JUMPDEST PUSH3 0x14C DUP2 PUSH3 0x154 PUSH1 0x20 SHL PUSH1 0x20 SHR JUMP JUMPDEST POP POP PUSH3 0x620 JUMP JUMPDEST PUSH0 PUSH1 0x6 PUSH0 SWAP1 SLOAD SWAP1 PUSH2 0x100 EXP SWAP1 DIV PUSH20 0xFFFFFFFFFFFFFFFFFFFFFFFFFFFFFFFFFFFFFFFF AND SWAP1 POP DUP2 PUSH1 0x6 PUSH0 PUSH2 0x100 EXP DUP2 SLOAD DUP2 PUSH20 0xFFFFFFFFFFFFFFFFFFFFFFFFFFFFFFFFFFFFFFFF MUL NOT AND SWAP1 DUP4 PUSH20 0xFFFFFFFFFFFFFFFFFFFFFFFFFFFFFFFFFFFFFFFF AND MUL OR SWAP1 SSTORE POP DUP2 PUSH20 0xFFFFFFFFFFFFFFFFFFFFFFFFFFFFFFFFFFFFFFFF AND DUP2 PUSH20 0xFFFFFFFFFFFFFFFFFFFFFFFFFFFFFFFFFFFFFFFF AND PUSH32 0x8BE0079C531659141344CD1FD0A4F28419497F9722A3DAAFE3B4186F6B6457E0 PUSH1 0x40 MLOAD PUSH1 0x40 MLOAD DUP1 SWAP2 SUB SWAP1 LOG3 POP POP JUMP JUMPDEST PUSH0 DUP1 REVERT JUMPDEST PUSH0 PUSH20 0xFFFFFFFFFFFFFFFFFFFFFFFFFFFFFFFFFFFFFFFF DUP3 AND SWAP1 POP SWAP2 SWAP1 POP JUMP JUMPDEST PUSH0 PUSH3 0x246 DUP3 PUSH3 0x21B JUMP JUMPDEST SWAP1 POP SWAP2 SWAP1 POP JUMP JUMPDEST PUSH3 0x258 DUP2 PUSH3 0x23A JUMP JUMPDEST DUP2 EQ PUSH3 0x263 JUMPI PUSH0 DUP1 REVERT JUMPDEST POP JUMP JUMPDEST PUSH0 DUP2 MLOAD SWAP1 POP PUSH3 0x276 DUP2 PUSH3 0x24D JUMP JUMPDEST SWAP3 SWAP2 POP POP JUMP JUMPDEST PUSH0 PUSH1 0x20 DUP3 DUP5 SUB SLT ISZERO PUSH3 0x294 JUMPI PUSH3 0x293 PUSH3 0x217 JUMP JUMPDEST JUMPDEST PUSH0 PUSH3 0x2A3 DUP5 DUP3 DUP6 ADD PUSH3 0x266 JUMP JUMPDEST SWAP2 POP POP SWAP3 SWAP2 POP POP JUMP JUMPDEST PUSH0 DUP2 MLOAD SWAP1 POP SWAP2 SWAP1 POP JUMP JUMPDEST PUSH32 0x4E487B7100000000000000000000000000000000000000000000000000000000 PUSH0 MSTORE PUSH1 0x41 PUSH1 0x4 MSTORE PUSH1 0x24 PUSH0 REVERT JUMPDEST PUSH32 0x4E487B7100000000000000000000000000000000000000000000000000000000 PUSH0 MSTORE PUSH1 0x22 PUSH1 0x4 MSTORE PUSH1 0x24 PUSH0 REVERT JUMPDEST PUSH0 PUSH1 0x2 DUP3 DIV SWAP1 POP PUSH1 0x1 DUP3 AND DUP1 PUSH3 0x328 JUMPI PUSH1 0x7F DUP3 AND SWAP2 POP JUMPDEST PUSH1 0x20 DUP3 LT DUP2 SUB PUSH3 0x33E JUMPI PUSH3 0x33D PUSH3 0x2E3 JUMP JUMPDEST JUMPDEST POP SWAP2 SWAP1 POP JUMP JUMPDEST PUSH0 DUP2 SWAP1 POP DUP2 PUSH0 MSTORE PUSH1 0x20 PUSH0 KECCAK256 SWAP1 POP SWAP2 SWAP1 POP JUMP JUMPDEST PUSH0 PUSH1 0x20 PUSH1 0x1F DUP4 ADD DIV SWAP1 POP SWAP2 SWAP1 POP JUMP JUMPDEST PUSH0 DUP3 DUP3 SHL SWAP1 POP SWAP3 SWAP2 POP POP JUMP JUMPDEST PUSH0 PUSH1 0x8 DUP4 MUL PUSH3 0x3A2 PUSH32 0xFFFFFFFFFFFFFFFFFFFFFFFFFFFFFFFFFFFFFFFFFFFFFFFFFFFFFFFFFFFFFFFF DUP3 PUSH3 0x365 JUMP JUMPDEST PUSH3 0x3AE DUP7 DUP4 PUSH3 0x365 JUMP JUMPDEST SWAP6 POP DUP1 NOT DUP5 AND SWAP4 POP DUP1 DUP7 AND DUP5 OR SWAP3 POP POP POP SWAP4 SWAP3 POP POP POP JUMP JUMPDEST PUSH0 DUP2 SWAP1 POP SWAP2 SWAP1 POP JUMP JUMPDEST PUSH0 DUP2 SWAP1 POP SWAP2 SWAP1 POP JUMP JUMPDEST PUSH0 PUSH3 0x3F8 PUSH3 0x3F2 PUSH3 0x3EC DUP5 PUSH3 0x3C6 JUMP JUMPDEST PUSH3 0x3CF JUMP JUMPDEST PUSH3 0x3C6 JUMP JUMPDEST SWAP1 POP SWAP2 SWAP1 POP JUMP JUMPDEST PUSH0 DUP2 SWAP1 POP SWAP2 SWAP1 POP JUMP JUMPDEST PUSH3 0x413 DUP4 PUSH3 0x3D8 JUMP JUMPDEST PUSH3 0x42B PUSH3 0x422 DUP3 PUSH3 0x3FF JUMP JUMPDEST DUP5 DUP5 SLOAD PUSH3 0x371 JUMP JUMPDEST DUP3 SSTORE POP POP POP POP JUMP JUMPDEST PUSH0 SWAP1 JUMP JUMPDEST PUSH3 0x441 PUSH3 0x433 JUMP JUMPDEST PUSH3 0x44E DUP2 DUP5 DUP5 PUSH3 0x408 JUMP JUMPDEST POP POP POP JUMP JUMPDEST JUMPDEST DUP2 DUP2 LT ISZERO PUSH3 0x475 JUMPI PUSH3 0x469 PUSH0 DUP3 PUSH3 0x437 JUMP JUMPDEST PUSH1 0x1 DUP2 ADD SWAP1 POP PUSH3 0x454 JUMP JUMPDEST POP POP JUMP JUMPDEST PUSH1 0x1F DUP3 GT ISZERO PUSH3 0x4C4 JUMPI PUSH3 0x48E DUP2 PUSH3 0x344 JUMP JUMPDEST PUSH3 0x499 DUP5 PUSH3 0x356 JUMP JUMPDEST DUP2 ADD PUSH1 0x20 DUP6 LT ISZERO PUSH3 0x4A9 JUMPI DUP2 SWAP1 POP JUMPDEST PUSH3 0x4C1 PUSH3 0x4B8 DUP6 PUSH3 0x356 JUMP JUMPDEST DUP4 ADD DUP3 PUSH3 0x453 JUMP JUMPDEST POP POP JUMPDEST POP POP POP JUMP JUMPDEST PUSH0 DUP3 DUP3 SHR SWAP1 POP SWAP3 SWAP2 POP POP JUMP JUMPDEST PUSH0 PUSH3 0x4E6 PUSH0 NOT DUP5 PUSH1 0x8 MUL PUSH3 0x4C9 JUMP JUMPDEST NOT DUP1 DUP4 AND SWAP2 POP POP SWAP3 SWAP2 POP POP JUMP JUMPDEST PUSH0 PUSH3 0x500 DUP4 DUP4 PUSH3 0x4D5 JUMP JUMPDEST SWAP2 POP DUP3 PUSH1 0x2 MUL DUP3 OR SWAP1 POP SWAP3 SWAP2 POP POP JUMP JUMPDEST PUSH3 0x51B DUP3 PUSH3 0x2AC JUMP JUMPDEST PUSH8 0xFFFFFFFFFFFFFFFF DUP2 GT ISZERO PUSH3 0x537 JUMPI PUSH3 0x536 PUSH3 0x2B6 JUMP JUMPDEST JUMPDEST PUSH3 0x543 DUP3 SLOAD PUSH3 0x310 JUMP JUMPDEST PUSH3 0x550 DUP3 DUP3 DUP6 PUSH3 0x479 JUMP JUMPDEST PUSH0 PUSH1 0x20 SWAP1 POP PUSH1 0x1F DUP4 GT PUSH1 0x1 DUP2 EQ PUSH3 0x586 JUMPI PUSH0 DUP5 ISZERO PUSH3 0x571 JUMPI DUP3 DUP8 ADD MLOAD SWAP1 POP JUMPDEST PUSH3 0x57D DUP6 DUP3 PUSH3 0x4F3 JUMP JUMPDEST DUP7 SSTORE POP PUSH3 0x5EC JUMP JUMPDEST PUSH1 0x1F NOT DUP5 AND PUSH3 0x596 DUP7 PUSH3 0x344 JUMP JUMPDEST PUSH0 JUMPDEST DUP3 DUP2 LT ISZERO PUSH3 0x5BF JUMPI DUP5 DUP10 ADD MLOAD DUP3 SSTORE PUSH1 0x1 DUP3 ADD SWAP2 POP PUSH1 0x20 DUP6 ADD SWAP5 POP PUSH1 0x20 DUP2 ADD SWAP1 POP PUSH3 0x598 JUMP JUMPDEST DUP7 DUP4 LT ISZERO PUSH3 0x5DF JUMPI DUP5 DUP10 ADD MLOAD PUSH3 0x5DB PUSH1 0x1F DUP10 AND DUP3 PUSH3 0x4D5 JUMP JUMPDEST DUP4 SSTORE POP JUMPDEST PUSH1 0x1 PUSH1 0x2 DUP9 MUL ADD DUP9 SSTORE POP POP POP JUMPDEST POP POP POP POP POP POP JUMP JUMPDEST PUSH3 0x5FF DUP2 PUSH3 0x23A JUMP JUMPDEST DUP3 MSTORE POP POP JUMP JUMPDEST PUSH0 PUSH1 0x20 DUP3 ADD SWAP1 POP PUSH3 0x61A PUSH0 DUP4 ADD DUP5 PUSH3 0x5F4 JUMP JUMPDEST SWAP3 SWAP2 POP POP JUMP JUMPDEST PUSH2 0x1E83 DUP1 PUSH3 0x62E PUSH0 CODECOPY PUSH0 RETURN INVALID PUSH1 0x80 PUSH1 0x40 MSTORE CALLVALUE DUP1 ISZERO PUSH2 0xF JUMPI PUSH0 DUP1 REVERT JUMPDEST POP PUSH1 0x4 CALLDATASIZE LT PUSH2 0xFE JUMPI PUSH0 CALLDATALOAD PUSH1 0xE0 SHR DUP1 PUSH4 0x715018A6 GT PUSH2 0x95 JUMPI DUP1 PUSH4 0xB88D4FDE GT PUSH2 0x64 JUMPI DUP1 PUSH4 0xB88D4FDE EQ PUSH2 0x296 JUMPI DUP1 PUSH4 0xC87B56DD EQ PUSH2 0x2B2 JUMPI DUP1 PUSH4 0xE985E9C5 EQ PUSH2 0x2E2 JUMPI DUP1 PUSH4 0xF2FDE38B EQ PUSH2 0x312 JUMPI PUSH2 0xFE JUMP JUMPDEST DUP1 PUSH4 0x715018A6 EQ PUSH2 0x234 JUMPI DUP1 PUSH4 0x8DA5CB5B EQ PUSH2 0x23E JUMPI DUP1 PUSH4 0x95D89B41 EQ PUSH2 0x25C JUMPI DUP1 PUSH4 0xA22CB465 EQ PUSH2 0x27A JUMPI PUSH2 0xFE JUMP JUMPDEST DUP1 PUSH4 0x23B872DD GT PUSH2 0xD1 JUMPI DUP1 PUSH4 0x23B872DD EQ PUSH2 0x19C JUMPI DUP1 PUSH4 0x42842E0E EQ PUSH2 0x1B8 JUMPI DUP1 PUSH4 0x6352211E EQ PUSH2 0x1D4 JUMPI DUP1 PUSH4 0x70A08231 EQ PUSH2 0x204 JUMPI PUSH2 0xFE JUMP JUMPDEST DUP1 PUSH4 0x1FFC9A7 EQ PUSH2 0x102 JUMPI DUP1 PUSH4 0x6FDDE03 EQ PUSH2 0x132 JUMPI DUP1 PUSH4 0x81812FC EQ PUSH2 0x150 JUMPI DUP1 PUSH4 0x95EA7B3 EQ PUSH2 0x180 JUMPI JUMPDEST PUSH0 DUP1 REVERT JUMPDEST PUSH2 0x11C PUSH1 0x4 DUP1 CALLDATASIZE SUB DUP2 ADD SWAP1 PUSH2 0x117 SWAP2 SWAP1 PUSH2 0x1714 JUMP JUMPDEST PUSH2 0x32E JUMP JUMPDEST PUSH1 0x40 MLOAD PUSH2 0x129 SWAP2 SWAP1 PUSH2 0x1759 JUMP JUMPDEST PUSH1 0x40 MLOAD DUP1 SWAP2 SUB SWAP1 RETURN JUMPDEST PUSH2 0x13A PUSH2 0x40F JUMP JUMPDEST PUSH1 0x40 MLOAD PUSH2 0x147 SWAP2 SWAP1 PUSH2 0x17FC JUMP JUMPDEST PUSH1 0x40 MLOAD DUP1 SWAP2 SUB SWAP1 RETURN JUMPDEST PUSH2 0x16A PUSH1 0x4 DUP1 CALLDATASIZE SUB DUP2 ADD SWAP1 PUSH2 0x165 SWAP2 SWAP1 PUSH2 0x184F JUMP JUMPDEST PUSH2 0x49E JUMP JUMPDEST PUSH1 0x40 MLOAD PUSH2 0x177 SWAP2 SWAP1 PUSH2 0x18B9 JUMP JUMPDEST PUSH1 0x40 MLOAD DUP1 SWAP2 SUB SWAP1 RETURN JUMPDEST PUSH2 0x19A PUSH1 0x4 DUP1 CALLDATASIZE SUB DUP2 ADD SWAP1 PUSH2 0x195 SWAP2 SWAP1 PUSH2 0x18FC JUMP JUMPDEST PUSH2 0x4B9 JUMP JUMPDEST STOP JUMPDEST PUSH2 0x1B6 PUSH1 0x4 DUP1 CALLDATASIZE SUB DUP2 ADD SWAP1 PUSH2 0x1B1 SWAP2 SWAP1 PUSH2 0x193A JUMP JUMPDEST PUSH2 0x4CF JUMP JUMPDEST STOP JUMPDEST PUSH2 0x1D2 PUSH1 0x4 DUP1 CALLDATASIZE SUB DUP2 ADD SWAP1 PUSH2 0x1CD SWAP2 SWAP1 PUSH2 0x193A JUMP JUMPDEST PUSH2 0x5CE JUMP JUMPDEST STOP JUMPDEST PUSH2 0x1EE PUSH1 0x4 DUP1 CALLDATASIZE SUB DUP2 ADD SWAP1 PUSH2 0x1E9 SWAP2 SWAP1 PUSH2 0x184F JUMP JUMPDEST PUSH2 0x5ED JUMP JUMPDEST PUSH1 0x40 MLOAD PUSH2 0x1FB SWAP2 SWAP1 PUSH2 0x18B9 JUMP JUMPDEST PUSH1 0x40 MLOAD DUP1 SWAP2 SUB SWAP1 RETURN JUMPDEST PUSH2 0x21E PUSH1 0x4 DUP1 CALLDATASIZE SUB DUP2 ADD SWAP1 PUSH2 0x219 SWAP2 SWAP1 PUSH2 0x198A JUMP JUMPDEST PUSH2 0x5FE JUMP JUMPDEST PUSH1 0x40 MLOAD PUSH2 0x22B SWAP2 SWAP1 PUSH2 0x19C4 JUMP JUMPDEST PUSH1 0x40 MLOAD DUP1 SWAP2 SUB SWAP1 RETURN JUMPDEST PUSH2 0x23C PUSH2 0x6B4 JUMP JUMPDEST STOP JUMPDEST PUSH2 0x246 PUSH2 0x6C7 JUMP JUMPDEST PUSH1 0x40 MLOAD PUSH2 0x253 SWAP2 SWAP1 PUSH2 0x18B9 JUMP JUMPDEST PUSH1 0x40 MLOAD DUP1 SWAP2 SUB SWAP1 RETURN JUMPDEST PUSH2 0x264 PUSH2 0x6EF JUMP JUMPDEST PUSH1 0x40 MLOAD PUSH2 0x271 SWAP2 SWAP1 PUSH2 0x17FC JUMP JUMPDEST PUSH1 0x40 MLOAD DUP1 SWAP2 SUB SWAP1 RETURN JUMPDEST PUSH2 0x294 PUSH1 0x4 DUP1 CALLDATASIZE SUB DUP2 ADD SWAP1 PUSH2 0x28F SWAP2 SWAP1 PUSH2 0x1A07 JUMP JUMPDEST PUSH2 0x77F JUMP JUMPDEST STOP JUMPDEST PUSH2 0x2B0 PUSH1 0x4 DUP1 CALLDATASIZE SUB DUP2 ADD SWAP1 PUSH2 0x2AB SWAP2 SWAP1 PUSH2 0x1B71 JUMP JUMPDEST PUSH2 0x795 JUMP JUMPDEST STOP JUMPDEST PUSH2 0x2CC PUSH1 0x4 DUP1 CALLDATASIZE SUB DUP2 ADD SWAP1 PUSH2 0x2C7 SWAP2 SWAP1 PUSH2 0x184F JUMP JUMPDEST PUSH2 0x7B2 JUMP JUMPDEST PUSH1 0x40 MLOAD PUSH2 0x2D9 SWAP2 SWAP1 PUSH2 0x17FC JUMP JUMPDEST PUSH1 0x40 MLOAD DUP1 SWAP2 SUB SWAP1 RETURN JUMPDEST PUSH2 0x2FC PUSH1 0x4 DUP1 CALLDATASIZE SUB DUP2 ADD SWAP1 PUSH2 0x2F7 SWAP2 SWAP1 PUSH2 0x1BF1 JUMP JUMPDEST PUSH2 0x818 JUMP JUMPDEST PUSH1 0x40 MLOAD PUSH2 0x309 SWAP2 SWAP1 PUSH2 0x1759 JUMP JUMPDEST PUSH1 0x40 MLOAD DUP1 SWAP2 SUB SWAP1 RETURN JUMPDEST PUSH2 0x32C PUSH1 0x4 DUP1 CALLDATASIZE SUB DUP2 ADD SWAP1 PUSH2 0x327 SWAP2 SWAP1 PUSH2 0x198A JUMP JUMPDEST PUSH2 0x8A6 JUMP JUMPDEST STOP JUMPDEST PUSH0 PUSH32 0x80AC58CD00000000000000000000000000000000000000000000000000000000 PUSH28 0xFFFFFFFFFFFFFFFFFFFFFFFFFFFFFFFFFFFFFFFFFFFFFFFFFFFFFFFF NOT AND DUP3 PUSH28 0xFFFFFFFFFFFFFFFFFFFFFFFFFFFFFFFFFFFFFFFFFFFFFFFFFFFFFFFF NOT AND EQ DUP1 PUSH2 0x3F8 JUMPI POP PUSH32 0x5B5E139F00000000000000000000000000000000000000000000000000000000 PUSH28 0xFFFFFFFFFFFFFFFFFFFFFFFFFFFFFFFFFFFFFFFFFFFFFFFFFFFFFFFF NOT AND DUP3 PUSH28 0xFFFFFFFFFFFFFFFFFFFFFFFFFFFFFFFFFFFFFFFFFFFFFFFFFFFFFFFF NOT AND EQ JUMPDEST DUP1 PUSH2 0x408 JUMPI POP PUSH2 0x407 DUP3 PUSH2 0x92A JUMP JUMPDEST JUMPDEST SWAP1 POP SWAP2 SWAP1 POP JUMP JUMPDEST PUSH1 0x60 PUSH0 DUP1 SLOAD PUSH2 0x41D SWAP1 PUSH2 0x1C5C JUMP JUMPDEST DUP1 PUSH1 0x1F ADD PUSH1 0x20 DUP1 SWAP2 DIV MUL PUSH1 0x20 ADD PUSH1 0x40 MLOAD SWAP1 DUP2 ADD PUSH1 0x40 MSTORE DUP1 SWAP3 SWAP2 SWAP1 DUP2 DUP2 MSTORE PUSH1 0x20 ADD DUP3 DUP1 SLOAD PUSH2 0x449 SWAP1 PUSH2 0x1C5C JUMP JUMPDEST DUP1 ISZERO PUSH2 0x494 JUMPI DUP1 PUSH1 0x1F LT PUSH2 0x46B JUMPI PUSH2 0x100 DUP1 DUP4 SLOAD DIV MUL DUP4 MSTORE SWAP2 PUSH1 0x20 ADD SWAP2 PUSH2 0x494 JUMP JUMPDEST DUP3 ADD SWAP2 SWAP1 PUSH0 MSTORE PUSH1 0x20 PUSH0 KECCAK256 SWAP1 JUMPDEST DUP2 SLOAD DUP2 MSTORE SWAP1 PUSH1 0x1 ADD SWAP1 PUSH1 0x20 ADD DUP1 DUP4 GT PUSH2 0x477 JUMPI DUP3 SWAP1 SUB PUSH1 0x1F AND DUP3 ADD SWAP2 JUMPDEST POP POP POP POP POP SWAP1 POP SWAP1 JUMP JUMPDEST PUSH0 PUSH2 0x4A8 DUP3 PUSH2 0x993 JUMP JUMPDEST POP PUSH2 0x4B2 DUP3 PUSH2 0xA19 JUMP JUMPDEST SWAP1 POP SWAP2 SWAP1 POP JUMP JUMPDEST PUSH2 0x4CB DUP3 DUP3 PUSH2 0x4C6 PUSH2 0xA52 JUMP JUMPDEST PUSH2 0xA59 JUMP JUMPDEST POP POP JUMP JUMPDEST PUSH0 PUSH20 0xFFFFFFFFFFFFFFFFFFFFFFFFFFFFFFFFFFFFFFFF AND DUP3 PUSH20 0xFFFFFFFFFFFFFFFFFFFFFFFFFFFFFFFFFFFFFFFF AND SUB PUSH2 0x53F JUMPI PUSH0 PUSH1 0x40 MLOAD PUSH32 0x64A0AE9200000000000000000000000000000000000000000000000000000000 DUP2 MSTORE PUSH1 0x4 ADD PUSH2 0x536 SWAP2 SWAP1 PUSH2 0x18B9 JUMP JUMPDEST PUSH1 0x40 MLOAD DUP1 SWAP2 SUB SWAP1 REVERT JUMPDEST PUSH0 PUSH2 0x552 DUP4 DUP4 PUSH2 0x54D PUSH2 0xA52 JUMP JUMPDEST PUSH2 0xA6B JUMP JUMPDEST SWAP1 POP DUP4 PUSH20 0xFFFFFFFFFFFFFFFFFFFFFFFFFFFFFFFFFFFFFFFF AND DUP2 PUSH20 0xFFFFFFFFFFFFFFFFFFFFFFFFFFFFFFFFFFFFFFFF AND EQ PUSH2 0x5C8 JUMPI DUP4 DUP3 DUP3 PUSH1 0x40 MLOAD PUSH32 0x64283D7B00000000000000000000000000000000000000000000000000000000 DUP2 MSTORE PUSH1 0x4 ADD PUSH2 0x5BF SWAP4 SWAP3 SWAP2 SWAP1 PUSH2 0x1C8C JUMP JUMPDEST PUSH1 0x40 MLOAD DUP1 SWAP2 SUB SWAP1 REVERT JUMPDEST POP POP POP POP JUMP JUMPDEST PUSH2 0x5E8 DUP4 DUP4 DUP4 PUSH1 0x40 MLOAD DUP1 PUSH1 0x20 ADD PUSH1 0x40 MSTORE DUP1 PUSH0 DUP2 MSTORE POP PUSH2 0x795 JUMP JUMPDEST POP POP POP JUMP JUMPDEST PUSH0 PUSH2 0x5F7 DUP3 PUSH2 0x993 JUMP JUMPDEST SWAP1 POP SWAP2 SWAP1 POP JUMP JUMPDEST PUSH0 DUP1 PUSH20 0xFFFFFFFFFFFFFFFFFFFFFFFFFFFFFFFFFFFFFFFF AND DUP3 PUSH20 0xFFFFFFFFFFFFFFFFFFFFFFFFFFFFFFFFFFFFFFFF AND SUB PUSH2 0x66F JUMPI PUSH0 PUSH1 0x40 MLOAD PUSH32 0x89C62B6400000000000000000000000000000000000000000000000000000000 DUP2 MSTORE PUSH1 0x4 ADD PUSH2 0x666 SWAP2 SWAP1 PUSH2 0x18B9 JUMP JUMPDEST PUSH1 0x40 MLOAD DUP1 SWAP2 SUB SWAP1 REVERT JUMPDEST PUSH1 0x3 PUSH0 DUP4 PUSH20 0xFFFFFFFFFFFFFFFFFFFFFFFFFFFFFFFFFFFFFFFF AND PUSH20 0xFFFFFFFFFFFFFFFFFFFFFFFFFFFFFFFFFFFFFFFF AND DUP2 MSTORE PUSH1 0x20 ADD SWAP1 DUP2 MSTORE PUSH1 0x20 ADD PUSH0 KECCAK256 SLOAD SWAP1 POP SWAP2 SWAP1 POP JUMP JUMPDEST PUSH2 0x6BC PUSH2 0xC76 JUMP JUMPDEST PUSH2 0x6C5 PUSH0 PUSH2 0xCFD JUMP JUMPDEST JUMP JUMPDEST PUSH0 PUSH1 0x6 PUSH0 SWAP1 SLOAD SWAP1 PUSH2 0x100 EXP SWAP1 DIV PUSH20 0xFFFFFFFFFFFFFFFFFFFFFFFFFFFFFFFFFFFFFFFF AND SWAP1 POP SWAP1 JUMP JUMPDEST PUSH1 0x60 PUSH1 0x1 DUP1 SLOAD PUSH2 0x6FE SWAP1 PUSH2 0x1C5C JUMP JUMPDEST DUP1 PUSH1 0x1F ADD PUSH1 0x20 DUP1 SWAP2 DIV MUL PUSH1 0x20 ADD PUSH1 0x40 MLOAD SWAP1 DUP2 ADD PUSH1 0x40 MSTORE DUP1 SWAP3 SWAP2 SWAP1 DUP2 DUP2 MSTORE PUSH1 0x20 ADD DUP3 DUP1 SLOAD PUSH2 0x72A SWAP1 PUSH2 0x1C5C JUMP JUMPDEST DUP1 ISZERO PUSH2 0x775 JUMPI DUP1 PUSH1 0x1F LT PUSH2 0x74C JUMPI PUSH2 0x100 DUP1 DUP4 SLOAD DIV MUL DUP4 MSTORE SWAP2 PUSH1 0x20 ADD SWAP2 PUSH2 0x775 JUMP JUMPDEST DUP3 ADD SWAP2 SWAP1 PUSH0 MSTORE PUSH1 0x20 PUSH0 KECCAK256 SWAP1 JUMPDEST DUP2 SLOAD DUP2 MSTORE SWAP1 PUSH1 0x1 ADD SWAP1 PUSH1 0x20 ADD DUP1 DUP4 GT PUSH2 0x758 JUMPI DUP3 SWAP1 SUB PUSH1 0x1F AND DUP3 ADD SWAP2 JUMPDEST POP POP POP POP POP SWAP1 POP SWAP1 JUMP JUMPDEST PUSH2 0x791 PUSH2 0x78A PUSH2 0xA52 JUMP JUMPDEST DUP4 DUP4 PUSH2 0xDC0 JUMP JUMPDEST POP POP JUMP JUMPDEST PUSH2 0x7A0 DUP5 DUP5 DUP5 PUSH2 0x4CF JUMP JUMPDEST PUSH2 0x7AC DUP5 DUP5 DUP5 DUP5 PUSH2 0xF29 JUMP JUMPDEST POP POP POP POP JUMP JUMPDEST PUSH1 0x60 PUSH2 0x7BD DUP3 PUSH2 0x993 JUMP JUMPDEST POP PUSH0 PUSH2 0x7C7 PUSH2 0x10DB JUMP JUMPDEST SWAP1 POP PUSH0 DUP2 MLOAD GT PUSH2 0x7E5 JUMPI PUSH1 0x40 MLOAD DUP1 PUSH1 0x20 ADD PUSH1 0x40 MSTORE DUP1 PUSH0 DUP2 MSTORE POP PUSH2 0x810 JUMP JUMPDEST DUP1 PUSH2 0x7EF DUP5 PUSH2 0x1118 JUMP JUMPDEST PUSH1 0x40 MLOAD PUSH1 0x20 ADD PUSH2 0x800 SWAP3 SWAP2 SWAP1 PUSH2 0x1CFB JUMP JUMPDEST PUSH1 0x40 MLOAD PUSH1 0x20 DUP2 DUP4 SUB SUB DUP2 MSTORE SWAP1 PUSH1 0x40 MSTORE JUMPDEST SWAP2 POP POP SWAP2 SWAP1 POP JUMP JUMPDEST PUSH0 PUSH1 0x5 PUSH0 DUP5 PUSH20 0xFFFFFFFFFFFFFFFFFFFFFFFFFFFFFFFFFFFFFFFF AND PUSH20 0xFFFFFFFFFFFFFFFFFFFFFFFFFFFFFFFFFFFFFFFF AND DUP2 MSTORE PUSH1 0x20 ADD SWAP1 DUP2 MSTORE PUSH1 0x20 ADD PUSH0 KECCAK256 PUSH0 DUP4 PUSH20 0xFFFFFFFFFFFFFFFFFFFFFFFFFFFFFFFFFFFFFFFF AND PUSH20 0xFFFFFFFFFFFFFFFFFFFFFFFFFFFFFFFFFFFFFFFF AND DUP2 MSTORE PUSH1 0x20 ADD SWAP1 DUP2 MSTORE PUSH1 0x20 ADD PUSH0 KECCAK256 PUSH0 SWAP1 SLOAD SWAP1 PUSH2 0x100 EXP SWAP1 DIV PUSH1 0xFF AND SWAP1 POP SWAP3 SWAP2 POP POP JUMP JUMPDEST PUSH2 0x8AE PUSH2 0xC76 JUMP JUMPDEST PUSH0 PUSH20 0xFFFFFFFFFFFFFFFFFFFFFFFFFFFFFFFFFFFFFFFF AND DUP2 PUSH20 0xFFFFFFFFFFFFFFFFFFFFFFFFFFFFFFFFFFFFFFFF AND SUB PUSH2 0x91E JUMPI PUSH0 PUSH1 0x40 MLOAD PUSH32 0x1E4FBDF700000000000000000000000000000000000000000000000000000000 DUP2 MSTORE PUSH1 0x4 ADD PUSH2 0x915 SWAP2 SWAP1 PUSH2 0x18B9 JUMP JUMPDEST PUSH1 0x40 MLOAD DUP1 SWAP2 SUB SWAP1 REVERT JUMPDEST PUSH2 0x927 DUP2 PUSH2 0xCFD JUMP JUMPDEST POP JUMP JUMPDEST PUSH0 PUSH32 0x1FFC9A700000000000000000000000000000000000000000000000000000000 PUSH28 0xFFFFFFFFFFFFFFFFFFFFFFFFFFFFFFFFFFFFFFFFFFFFFFFFFFFFFFFF NOT AND DUP3 PUSH28 0xFFFFFFFFFFFFFFFFFFFFFFFFFFFFFFFFFFFFFFFFFFFFFFFFFFFFFFFF NOT AND EQ SWAP1 POP SWAP2 SWAP1 POP JUMP JUMPDEST PUSH0 DUP1 PUSH2 0x99E DUP4 PUSH2 0x11E2 JUMP JUMPDEST SWAP1 POP PUSH0 PUSH20 0xFFFFFFFFFFFFFFFFFFFFFFFFFFFFFFFFFFFFFFFF AND DUP2 PUSH20 0xFFFFFFFFFFFFFFFFFFFFFFFFFFFFFFFFFFFFFFFF AND SUB PUSH2 0xA10 JUMPI DUP3 PUSH1 0x40 MLOAD PUSH32 0x7E27328900000000000000000000000000000000000000000000000000000000 DUP2 MSTORE PUSH1 0x4 ADD PUSH2 0xA07 SWAP2 SWAP1 PUSH2 0x19C4 JUMP JUMPDEST PUSH1 0x40 MLOAD DUP1 SWAP2 SUB SWAP1 REVERT JUMPDEST DUP1 SWAP2 POP POP SWAP2 SWAP1 POP JUMP JUMPDEST PUSH0 PUSH1 0x4 PUSH0 DUP4 DUP2 MSTORE PUSH1 0x20 ADD SWAP1 DUP2 MSTORE PUSH1 0x20 ADD PUSH0 KECCAK256 PUSH0 SWAP1 SLOAD SWAP1 PUSH2 0x100 EXP SWAP1 DIV PUSH20 0xFFFFFFFFFFFFFFFFFFFFFFFFFFFFFFFFFFFFFFFF AND SWAP1 POP SWAP2 SWAP1 POP JUMP JUMPDEST PUSH0 CALLER SWAP1 POP SWAP1 JUMP JUMPDEST PUSH2 0xA66 DUP4 DUP4 DUP4 PUSH1 0x1 PUSH2 0x121B JUMP JUMPDEST POP POP POP JUMP JUMPDEST PUSH0 DUP1 PUSH2 0xA76 DUP5 PUSH2 0x11E2 JUMP JUMPDEST SWAP1 POP PUSH0 PUSH20 0xFFFFFFFFFFFFFFFFFFFFFFFFFFFFFFFFFFFFFFFF AND DUP4 PUSH20 0xFFFFFFFFFFFFFFFFFFFFFFFFFFFFFFFFFFFFFFFF AND EQ PUSH2 0xAB7 JUMPI PUSH2 0xAB6 DUP2 DUP5 DUP7 PUSH2 0x13DA JUMP JUMPDEST JUMPDEST PUSH0 PUSH20 0xFFFFFFFFFFFFFFFFFFFFFFFFFFFFFFFFFFFFFFFF AND DUP2 PUSH20 0xFFFFFFFFFFFFFFFFFFFFFFFFFFFFFFFFFFFFFFFF AND EQ PUSH2 0xB42 JUMPI PUSH2 0xAF6 PUSH0 DUP6 PUSH0 DUP1 PUSH2 0x121B JUMP JUMPDEST PUSH1 0x1 PUSH1 0x3 PUSH0 DUP4 PUSH20 0xFFFFFFFFFFFFFFFFFFFFFFFFFFFFFFFFFFFFFFFF AND PUSH20 0xFFFFFFFFFFFFFFFFFFFFFFFFFFFFFFFFFFFFFFFF AND DUP2 MSTORE PUSH1 0x20 ADD SWAP1 DUP2 MSTORE PUSH1 0x20 ADD PUSH0 KECCAK256 PUSH0 DUP3 DUP3 SLOAD SUB SWAP3 POP POP DUP2 SWAP1 SSTORE POP JUMPDEST PUSH0 PUSH20 0xFFFFFFFFFFFFFFFFFFFFFFFFFFFFFFFFFFFFFFFF AND DUP6 PUSH20 0xFFFFFFFFFFFFFFFFFFFFFFFFFFFFFFFFFFFFFFFF AND EQ PUSH2 0xBC1 JUMPI PUSH1 0x1 PUSH1 0x3 PUSH0 DUP8 PUSH20 0xFFFFFFFFFFFFFFFFFFFFFFFFFFFFFFFFFFFFFFFF AND PUSH20 0xFFFFFFFFFFFFFFFFFFFFFFFFFFFFFFFFFFFFFFFF AND DUP2 MSTORE PUSH1 0x20 ADD SWAP1 DUP2 MSTORE PUSH1 0x20 ADD PUSH0 KECCAK256 PUSH0 DUP3 DUP3 SLOAD ADD SWAP3 POP POP DUP2 SWAP1 SSTORE POP JUMPDEST DUP5 PUSH1 0x2 PUSH0 DUP7 DUP2 MSTORE PUSH1 0x20 ADD SWAP1 DUP2 MSTORE PUSH1 0x20 ADD PUSH0 KECCAK256 PUSH0 PUSH2 0x100 EXP DUP2 SLOAD DUP2 PUSH20 0xFFFFFFFFFFFFFFFFFFFFFFFFFFFFFFFFFFFFFFFF MUL NOT AND SWAP1 DUP4 PUSH20 0xFFFFFFFFFFFFFFFFFFFFFFFFFFFFFFFFFFFFFFFF AND MUL OR SWAP1 SSTORE POP DUP4 DUP6 PUSH20 0xFFFFFFFFFFFFFFFFFFFFFFFFFFFFFFFFFFFFFFFF AND DUP3 PUSH20 0xFFFFFFFFFFFFFFFFFFFFFFFFFFFFFFFFFFFFFFFF AND PUSH32 0xDDF252AD1BE2C89B69C2B068FC378DAA952BA7F163C4A11628F55A4DF523B3EF PUSH1 0x40 MLOAD PUSH1 0x40 MLOAD DUP1 SWAP2 SUB SWAP1 LOG4 DUP1 SWAP2 POP POP SWAP4 SWAP3 POP POP POP JUMP JUMPDEST PUSH2 0xC7E PUSH2 0xA52 JUMP JUMPDEST PUSH20 0xFFFFFFFFFFFFFFFFFFFFFFFFFFFFFFFFFFFFFFFF AND PUSH2 0xC9C PUSH2 0x6C7 JUMP JUMPDEST PUSH20 0xFFFFFFFFFFFFFFFFFFFFFFFFFFFFFFFFFFFFFFFF AND EQ PUSH2 0xCFB JUMPI PUSH2 0xCBF PUSH2 0xA52 JUMP JUMPDEST PUSH1 0x40 MLOAD PUSH32 0x118CDAA700000000000000000000000000000000000000000000000000000000 DUP2 MSTORE PUSH1 0x4 ADD PUSH2 0xCF2 SWAP2 SWAP1 PUSH2 0x18B9 JUMP JUMPDEST PUSH1 0x40 MLOAD DUP1 SWAP2 SUB SWAP1 REVERT JUMPDEST JUMP JUMPDEST PUSH0 PUSH1 0x6 PUSH0 SWAP1 SLOAD SWAP1 PUSH2 0x100 EXP SWAP1 DIV PUSH20 0xFFFFFFFFFFFFFFFFFFFFFFFFFFFFFFFFFFFFFFFF AND SWAP1 POP DUP2 PUSH1 0x6 PUSH0 PUSH2 0x100 EXP DUP2 SLOAD DUP2 PUSH20 0xFFFFFFFFFFFFFFFFFFFFFFFFFFFFFFFFFFFFFFFF MUL NOT AND SWAP1 DUP4 PUSH20 0xFFFFFFFFFFFFFFFFFFFFFFFFFFFFFFFFFFFFFFFF AND MUL OR SWAP1 SSTORE POP DUP2 PUSH20 0xFFFFFFFFFFFFFFFFFFFFFFFFFFFFFFFFFFFFFFFF AND DUP2 PUSH20 0xFFFFFFFFFFFFFFFFFFFFFFFFFFFFFFFFFFFFFFFF AND PUSH32 0x8BE0079C531659141344CD1FD0A4F28419497F9722A3DAAFE3B4186F6B6457E0 PUSH1 0x40 MLOAD PUSH1 0x40 MLOAD DUP1 SWAP2 SUB SWAP1 LOG3 POP POP JUMP JUMPDEST PUSH0 PUSH20 0xFFFFFFFFFFFFFFFFFFFFFFFFFFFFFFFFFFFFFFFF AND DUP3 PUSH20 0xFFFFFFFFFFFFFFFFFFFFFFFFFFFFFFFFFFFFFFFF AND SUB PUSH2 0xE30 JUMPI DUP2 PUSH1 0x40 MLOAD PUSH32 0x5B08BA1800000000000000000000000000000000000000000000000000000000 DUP2 MSTORE PUSH1 0x4 ADD PUSH2 0xE27 SWAP2 SWAP1 PUSH2 0x18B9 JUMP JUMPDEST PUSH1 0x40 MLOAD DUP1 SWAP2 SUB SWAP1 REVERT JUMPDEST DUP1 PUSH1 0x5 PUSH0 DUP6 PUSH20 0xFFFFFFFFFFFFFFFFFFFFFFFFFFFFFFFFFFFFFFFF AND PUSH20 0xFFFFFFFFFFFFFFFFFFFFFFFFFFFFFFFFFFFFFFFF AND DUP2 MSTORE PUSH1 0x20 ADD SWAP1 DUP2 MSTORE PUSH1 0x20 ADD PUSH0 KECCAK256 PUSH0 DUP5 PUSH20 0xFFFFFFFFFFFFFFFFFFFFFFFFFFFFFFFFFFFFFFFF AND PUSH20 0xFFFFFFFFFFFFFFFFFFFFFFFFFFFFFFFFFFFFFFFF AND DUP2 MSTORE PUSH1 0x20 ADD SWAP1 DUP2 MSTORE PUSH1 0x20 ADD PUSH0 KECCAK256 PUSH0 PUSH2 0x100 EXP DUP2 SLOAD DUP2 PUSH1 0xFF MUL NOT AND SWAP1 DUP4 ISZERO ISZERO MUL OR SWAP1 SSTORE POP DUP2 PUSH20 0xFFFFFFFFFFFFFFFFFFFFFFFFFFFFFFFFFFFFFFFF AND DUP4 PUSH20 0xFFFFFFFFFFFFFFFFFFFFFFFFFFFFFFFFFFFFFFFF AND PUSH32 0x17307EAB39AB6107E8899845AD3D59BD9653F200F220920489CA2B5937696C31 DUP4 PUSH1 0x40 MLOAD PUSH2 0xF1C SWAP2 SWAP1 PUSH2 0x1759 JUMP JUMPDEST PUSH1 0x40 MLOAD DUP1 SWAP2 SUB SWAP1 LOG3 POP POP POP JUMP JUMPDEST PUSH0 DUP4 PUSH20 0xFFFFFFFFFFFFFFFFFFFFFFFFFFFFFFFFFFFFFFFF AND EXTCODESIZE GT ISZERO PUSH2 0x10D5 JUMPI DUP3 PUSH20 0xFFFFFFFFFFFFFFFFFFFFFFFFFFFFFFFFFFFFFFFF AND PUSH4 0x150B7A02 PUSH2 0xF6C PUSH2 0xA52 JUMP JUMPDEST DUP7 DUP6 DUP6 PUSH1 0x40 MLOAD DUP6 PUSH4 0xFFFFFFFF AND PUSH1 0xE0 SHL DUP2 MSTORE PUSH1 0x4 ADD PUSH2 0xF8E SWAP5 SWAP4 SWAP3 SWAP2 SWAP1 PUSH2 0x1D70 JUMP JUMPDEST PUSH1 0x20 PUSH1 0x40 MLOAD DUP1 DUP4 SUB DUP2 PUSH0 DUP8 GAS CALL SWAP3 POP POP POP DUP1 ISZERO PUSH2 0xFC9 JUMPI POP PUSH1 0x40 MLOAD RETURNDATASIZE PUSH1 0x1F NOT PUSH1 0x1F DUP3 ADD AND DUP3 ADD DUP1 PUSH1 0x40 MSTORE POP DUP2 ADD SWAP1 PUSH2 0xFC6 SWAP2 SWAP1 PUSH2 0x1DCE JUMP JUMPDEST PUSH1 0x1 JUMPDEST PUSH2 0x104A JUMPI RETURNDATASIZE DUP1 PUSH0 DUP2 EQ PUSH2 0xFF7 JUMPI PUSH1 0x40 MLOAD SWAP2 POP PUSH1 0x1F NOT PUSH1 0x3F RETURNDATASIZE ADD AND DUP3 ADD PUSH1 0x40 MSTORE RETURNDATASIZE DUP3 MSTORE RETURNDATASIZE PUSH0 PUSH1 0x20 DUP5 ADD RETURNDATACOPY PUSH2 0xFFC JUMP JUMPDEST PUSH1 0x60 SWAP2 POP JUMPDEST POP PUSH0 DUP2 MLOAD SUB PUSH2 0x1042 JUMPI DUP4 PUSH1 0x40 MLOAD PUSH32 0x64A0AE9200000000000000000000000000000000000000000000000000000000 DUP2 MSTORE PUSH1 0x4 ADD PUSH2 0x1039 SWAP2 SWAP1 PUSH2 0x18B9 JUMP JUMPDEST PUSH1 0x40 MLOAD DUP1 SWAP2 SUB SWAP1 REVERT JUMPDEST DUP1 MLOAD DUP2 PUSH1 0x20 ADD REVERT JUMPDEST PUSH4 0x150B7A02 PUSH1 0xE0 SHL PUSH28 0xFFFFFFFFFFFFFFFFFFFFFFFFFFFFFFFFFFFFFFFFFFFFFFFFFFFFFFFF NOT AND DUP2 PUSH28 0xFFFFFFFFFFFFFFFFFFFFFFFFFFFFFFFFFFFFFFFFFFFFFFFFFFFFFFFF NOT AND EQ PUSH2 0x10D3 JUMPI DUP4 PUSH1 0x40 MLOAD PUSH32 0x64A0AE9200000000000000000000000000000000000000000000000000000000 DUP2 MSTORE PUSH1 0x4 ADD PUSH2 0x10CA SWAP2 SWAP1 PUSH2 0x18B9 JUMP JUMPDEST PUSH1 0x40 MLOAD DUP1 SWAP2 SUB SWAP1 REVERT JUMPDEST POP JUMPDEST POP POP POP POP JUMP JUMPDEST PUSH1 0x60 PUSH1 0x40 MLOAD DUP1 PUSH1 0x40 ADD PUSH1 0x40 MSTORE DUP1 PUSH1 0x18 DUP2 MSTORE PUSH1 0x20 ADD PUSH32 0x697066733A2F2F7069656365546F6B656E426173655552490000000000000000 DUP2 MSTORE POP SWAP1 POP SWAP1 JUMP JUMPDEST PUSH1 0x60 PUSH0 PUSH1 0x1 PUSH2 0x1126 DUP5 PUSH2 0x149D JUMP JUMPDEST ADD SWAP1 POP PUSH0 DUP2 PUSH8 0xFFFFFFFFFFFFFFFF DUP2 GT ISZERO PUSH2 0x1144 JUMPI PUSH2 0x1143 PUSH2 0x1A4D JUMP JUMPDEST JUMPDEST PUSH1 0x40 MLOAD SWAP1 DUP1 DUP3 MSTORE DUP1 PUSH1 0x1F ADD PUSH1 0x1F NOT AND PUSH1 0x20 ADD DUP3 ADD PUSH1 0x40 MSTORE DUP1 ISZERO PUSH2 0x1176 JUMPI DUP2 PUSH1 0x20 ADD PUSH1 0x1 DUP3 MUL DUP1 CALLDATASIZE DUP4 CALLDATACOPY DUP1 DUP3 ADD SWAP2 POP POP SWAP1 POP JUMPDEST POP SWAP1 POP PUSH0 DUP3 PUSH1 0x20 ADD DUP3 ADD SWAP1 POP JUMPDEST PUSH1 0x1 ISZERO PUSH2 0x11D7 JUMPI DUP1 DUP1 PUSH1 0x1 SWAP1 SUB SWAP2 POP POP PUSH32 0x3031323334353637383961626364656600000000000000000000000000000000 PUSH1 0xA DUP7 MOD BYTE DUP2 MSTORE8 PUSH1 0xA DUP6 DUP2 PUSH2 0x11CC JUMPI PUSH2 0x11CB PUSH2 0x1DF9 JUMP JUMPDEST JUMPDEST DIV SWAP5 POP PUSH0 DUP6 SUB PUSH2 0x1183 JUMPI JUMPDEST DUP2 SWAP4 POP POP POP POP SWAP2 SWAP1 POP JUMP JUMPDEST PUSH0 PUSH1 0x2 PUSH0 DUP4 DUP2 MSTORE PUSH1 0x20 ADD SWAP1 DUP2 MSTORE PUSH1 0x20 ADD PUSH0 KECCAK256 PUSH0 SWAP1 SLOAD SWAP1 PUSH2 0x100 EXP SWAP1 DIV PUSH20 0xFFFFFFFFFFFFFFFFFFFFFFFFFFFFFFFFFFFFFFFF AND SWAP1 POP SWAP2 SWAP1 POP JUMP JUMPDEST DUP1 DUP1 PUSH2 0x1253 JUMPI POP PUSH0 PUSH20 0xFFFFFFFFFFFFFFFFFFFFFFFFFFFFFFFFFFFFFFFF AND DUP3 PUSH20 0xFFFFFFFFFFFFFFFFFFFFFFFFFFFFFFFFFFFFFFFF AND EQ ISZERO JUMPDEST ISZERO PUSH2 0x1385 JUMPI PUSH0 PUSH2 0x1262 DUP5 PUSH2 0x993 JUMP JUMPDEST SWAP1 POP PUSH0 PUSH20 0xFFFFFFFFFFFFFFFFFFFFFFFFFFFFFFFFFFFFFFFF AND DUP4 PUSH20 0xFFFFFFFFFFFFFFFFFFFFFFFFFFFFFFFFFFFFFFFF AND EQ ISZERO DUP1 ISZERO PUSH2 0x12CC JUMPI POP DUP3 PUSH20 0xFFFFFFFFFFFFFFFFFFFFFFFFFFFFFFFFFFFFFFFF AND DUP2 PUSH20 0xFFFFFFFFFFFFFFFFFFFFFFFFFFFFFFFFFFFFFFFF AND EQ ISZERO JUMPDEST DUP1 ISZERO PUSH2 0x12DF JUMPI POP PUSH2 0x12DD DUP2 DUP5 PUSH2 0x818 JUMP JUMPDEST ISZERO JUMPDEST ISZERO PUSH2 0x1321 JUMPI DUP3 PUSH1 0x40 MLOAD PUSH32 0xA9FBF51F00000000000000000000000000000000000000000000000000000000 DUP2 MSTORE PUSH1 0x4 ADD PUSH2 0x1318 SWAP2 SWAP1 PUSH2 0x18B9 JUMP JUMPDEST PUSH1 0x40 MLOAD DUP1 SWAP2 SUB SWAP1 REVERT JUMPDEST DUP2 ISZERO PUSH2 0x1383 JUMPI DUP4 DUP6 PUSH20 0xFFFFFFFFFFFFFFFFFFFFFFFFFFFFFFFFFFFFFFFF AND DUP3 PUSH20 0xFFFFFFFFFFFFFFFFFFFFFFFFFFFFFFFFFFFFFFFF AND PUSH32 0x8C5BE1E5EBEC7D5BD14F71427D1E84F3DD0314C0F7B2291E5B200AC8C7C3B925 PUSH1 0x40 MLOAD PUSH1 0x40 MLOAD DUP1 SWAP2 SUB SWAP1 LOG4 JUMPDEST POP JUMPDEST DUP4 PUSH1 0x4 PUSH0 DUP6 DUP2 MSTORE PUSH1 0x20 ADD SWAP1 DUP2 MSTORE PUSH1 0x20 ADD PUSH0 KECCAK256 PUSH0 PUSH2 0x100 EXP DUP2 SLOAD DUP2 PUSH20 0xFFFFFFFFFFFFFFFFFFFFFFFFFFFFFFFFFFFFFFFF MUL NOT AND SWAP1 DUP4 PUSH20 0xFFFFFFFFFFFFFFFFFFFFFFFFFFFFFFFFFFFFFFFF AND MUL OR SWAP1 SSTORE POP POP POP POP POP JUMP JUMPDEST PUSH2 0x13E5 DUP4 DUP4 DUP4 PUSH2 0x15EE JUMP JUMPDEST PUSH2 0x1498 JUMPI PUSH0 PUSH20 0xFFFFFFFFFFFFFFFFFFFFFFFFFFFFFFFFFFFFFFFF AND DUP4 PUSH20 0xFFFFFFFFFFFFFFFFFFFFFFFFFFFFFFFFFFFFFFFF AND SUB PUSH2 0x1459 JUMPI DUP1 PUSH1 0x40 MLOAD PUSH32 0x7E27328900000000000000000000000000000000000000000000000000000000 DUP2 MSTORE PUSH1 0x4 ADD PUSH2 0x1450 SWAP2 SWAP1 PUSH2 0x19C4 JUMP JUMPDEST PUSH1 0x40 MLOAD DUP1 SWAP2 SUB SWAP1 REVERT JUMPDEST DUP2 DUP2 PUSH1 0x40 MLOAD PUSH32 0x177E802F00000000000000000000000000000000000000000000000000000000 DUP2 MSTORE PUSH1 0x4 ADD PUSH2 0x148F SWAP3 SWAP2 SWAP1 PUSH2 0x1E26 JUMP JUMPDEST PUSH1 0x40 MLOAD DUP1 SWAP2 SUB SWAP1 REVERT JUMPDEST POP POP POP JUMP JUMPDEST PUSH0 DUP1 PUSH0 SWAP1 POP PUSH27 0x184F03E93FF9F4DAA797ED6E38ED64BF6A1F010000000000000000 DUP4 LT PUSH2 0x14F9 JUMPI PUSH27 0x184F03E93FF9F4DAA797ED6E38ED64BF6A1F010000000000000000 DUP4 DUP2 PUSH2 0x14EF JUMPI PUSH2 0x14EE PUSH2 0x1DF9 JUMP JUMPDEST JUMPDEST DIV SWAP3 POP PUSH1 0x40 DUP2 ADD SWAP1 POP JUMPDEST PUSH14 0x4EE2D6D415B85ACEF8100000000 DUP4 LT PUSH2 0x1536 JUMPI PUSH14 0x4EE2D6D415B85ACEF8100000000 DUP4 DUP2 PUSH2 0x152C JUMPI PUSH2 0x152B PUSH2 0x1DF9 JUMP JUMPDEST JUMPDEST DIV SWAP3 POP PUSH1 0x20 DUP2 ADD SWAP1 POP JUMPDEST PUSH7 0x2386F26FC10000 DUP4 LT PUSH2 0x1565 JUMPI PUSH7 0x2386F26FC10000 DUP4 DUP2 PUSH2 0x155B JUMPI PUSH2 0x155A PUSH2 0x1DF9 JUMP JUMPDEST JUMPDEST DIV SWAP3 POP PUSH1 0x10 DUP2 ADD SWAP1 POP JUMPDEST PUSH4 0x5F5E100 DUP4 LT PUSH2 0x158E JUMPI PUSH4 0x5F5E100 DUP4 DUP2 PUSH2 0x1584 JUMPI PUSH2 0x1583 PUSH2 0x1DF9 JUMP JUMPDEST JUMPDEST DIV SWAP3 POP PUSH1 0x8 DUP2 ADD SWAP1 POP JUMPDEST PUSH2 0x2710 DUP4 LT PUSH2 0x15B3 JUMPI PUSH2 0x2710 DUP4 DUP2 PUSH2 0x15A9 JUMPI PUSH2 0x15A8 PUSH2 0x1DF9 JUMP JUMPDEST JUMPDEST DIV SWAP3 POP PUSH1 0x4 DUP2 ADD SWAP1 POP JUMPDEST PUSH1 0x64 DUP4 LT PUSH2 0x15D6 JUMPI PUSH1 0x64 DUP4 DUP2 PUSH2 0x15CC JUMPI PUSH2 0x15CB PUSH2 0x1DF9 JUMP JUMPDEST JUMPDEST DIV SWAP3 POP PUSH1 0x2 DUP2 ADD SWAP1 POP JUMPDEST PUSH1 0xA DUP4 LT PUSH2 0x15E5 JUMPI PUSH1 0x1 DUP2 ADD SWAP1 POP JUMPDEST DUP1 SWAP2 POP POP SWAP2 SWAP1 POP JUMP JUMPDEST PUSH0 DUP1 PUSH20 0xFFFFFFFFFFFFFFFFFFFFFFFFFFFFFFFFFFFFFFFF AND DUP4 PUSH20 0xFFFFFFFFFFFFFFFFFFFFFFFFFFFFFFFFFFFFFFFF AND EQ ISZERO DUP1 ISZERO PUSH2 0x16A5 JUMPI POP DUP3 PUSH20 0xFFFFFFFFFFFFFFFFFFFFFFFFFFFFFFFFFFFFFFFF AND DUP5 PUSH20 0xFFFFFFFFFFFFFFFFFFFFFFFFFFFFFFFFFFFFFFFF AND EQ DUP1 PUSH2 0x1666 JUMPI POP PUSH2 0x1665 DUP5 DUP5 PUSH2 0x818 JUMP JUMPDEST JUMPDEST DUP1 PUSH2 0x16A4 JUMPI POP DUP3 PUSH20 0xFFFFFFFFFFFFFFFFFFFFFFFFFFFFFFFFFFFFFFFF AND PUSH2 0x168C DUP4 PUSH2 0xA19 JUMP JUMPDEST PUSH20 0xFFFFFFFFFFFFFFFFFFFFFFFFFFFFFFFFFFFFFFFF AND EQ JUMPDEST JUMPDEST SWAP1 POP SWAP4 SWAP3 POP POP POP JUMP JUMPDEST PUSH0 PUSH1 0x40 MLOAD SWAP1 POP SWAP1 JUMP JUMPDEST PUSH0 DUP1 REVERT JUMPDEST PUSH0 DUP1 REVERT JUMPDEST PUSH0 PUSH32 0xFFFFFFFF00000000000000000000000000000000000000000000000000000000 DUP3 AND SWAP1 POP SWAP2 SWAP1 POP JUMP JUMPDEST PUSH2 0x16F3 DUP2 PUSH2 0x16BF JUMP JUMPDEST DUP2 EQ PUSH2 0x16FD JUMPI PUSH0 DUP1 REVERT JUMPDEST POP JUMP JUMPDEST PUSH0 DUP2 CALLDATALOAD SWAP1 POP PUSH2 0x170E DUP2 PUSH2 0x16EA JUMP JUMPDEST SWAP3 SWAP2 POP POP JUMP JUMPDEST PUSH0 PUSH1 0x20 DUP3 DUP5 SUB SLT ISZERO PUSH2 0x1729 JUMPI PUSH2 0x1728 PUSH2 0x16B7 JUMP JUMPDEST JUMPDEST PUSH0 PUSH2 0x1736 DUP5 DUP3 DUP6 ADD PUSH2 0x1700 JUMP JUMPDEST SWAP2 POP POP SWAP3 SWAP2 POP POP JUMP JUMPDEST PUSH0 DUP2 ISZERO ISZERO SWAP1 POP SWAP2 SWAP1 POP JUMP JUMPDEST PUSH2 0x1753 DUP2 PUSH2 0x173F JUMP JUMPDEST DUP3 MSTORE POP POP JUMP JUMPDEST PUSH0 PUSH1 0x20 DUP3 ADD SWAP1 POP PUSH2 0x176C PUSH0 DUP4 ADD DUP5 PUSH2 0x174A JUMP JUMPDEST SWAP3 SWAP2 POP POP JUMP JUMPDEST PUSH0 DUP2 MLOAD SWAP1 POP SWAP2 SWAP1 POP JUMP JUMPDEST PUSH0 DUP3 DUP3 MSTORE PUSH1 0x20 DUP3 ADD SWAP1 POP SWAP3 SWAP2 POP POP JUMP JUMPDEST PUSH0 JUMPDEST DUP4 DUP2 LT ISZERO PUSH2 0x17A9 JUMPI DUP1 DUP3 ADD MLOAD DUP2 DUP5 ADD MSTORE PUSH1 0x20 DUP2 ADD SWAP1 POP PUSH2 0x178E JUMP JUMPDEST PUSH0 DUP5 DUP5 ADD MSTORE POP POP POP POP JUMP JUMPDEST PUSH0 PUSH1 0x1F NOT PUSH1 0x1F DUP4 ADD AND SWAP1 POP SWAP2 SWAP1 POP JUMP JUMPDEST PUSH0 PUSH2 0x17CE DUP3 PUSH2 0x1772 JUMP JUMPDEST PUSH2 0x17D8 DUP2 DUP6 PUSH2 0x177C JUMP JUMPDEST SWAP4 POP PUSH2 0x17E8 DUP2 DUP6 PUSH1 0x20 DUP7 ADD PUSH2 0x178C JUMP JUMPDEST PUSH2 0x17F1 DUP2 PUSH2 0x17B4 JUMP JUMPDEST DUP5 ADD SWAP2 POP POP SWAP3 SWAP2 POP POP JUMP JUMPDEST PUSH0 PUSH1 0x20 DUP3 ADD SWAP1 POP DUP2 DUP2 SUB PUSH0 DUP4 ADD MSTORE PUSH2 0x1814 DUP2 DUP5 PUSH2 0x17C4 JUMP JUMPDEST SWAP1 POP SWAP3 SWAP2 POP POP JUMP JUMPDEST PUSH0 DUP2 SWAP1 POP SWAP2 SWAP1 POP JUMP JUMPDEST PUSH2 0x182E DUP2 PUSH2 0x181C JUMP JUMPDEST DUP2 EQ PUSH2 0x1838 JUMPI PUSH0 DUP1 REVERT JUMPDEST POP JUMP JUMPDEST PUSH0 DUP2 CALLDATALOAD SWAP1 POP PUSH2 0x1849 DUP2 PUSH2 0x1825 JUMP JUMPDEST SWAP3 SWAP2 POP POP JUMP JUMPDEST PUSH0 PUSH1 0x20 DUP3 DUP5 SUB SLT ISZERO PUSH2 0x1864 JUMPI PUSH2 0x1863 PUSH2 0x16B7 JUMP JUMPDEST JUMPDEST PUSH0 PUSH2 0x1871 DUP5 DUP3 DUP6 ADD PUSH2 0x183B JUMP JUMPDEST SWAP2 POP POP SWAP3 SWAP2 POP POP JUMP JUMPDEST PUSH0 PUSH20 0xFFFFFFFFFFFFFFFFFFFFFFFFFFFFFFFFFFFFFFFF DUP3 AND SWAP1 POP SWAP2 SWAP1 POP JUMP JUMPDEST PUSH0 PUSH2 0x18A3 DUP3 PUSH2 0x187A JUMP JUMPDEST SWAP1 POP SWAP2 SWAP1 POP JUMP JUMPDEST PUSH2 0x18B3 DUP2 PUSH2 0x1899 JUMP JUMPDEST DUP3 MSTORE POP POP JUMP JUMPDEST PUSH0 PUSH1 0x20 DUP3 ADD SWAP1 POP PUSH2 0x18CC PUSH0 DUP4 ADD DUP5 PUSH2 0x18AA JUMP JUMPDEST SWAP3 SWAP2 POP POP JUMP JUMPDEST PUSH2 0x18DB DUP2 PUSH2 0x1899 JUMP JUMPDEST DUP2 EQ PUSH2 0x18E5 JUMPI PUSH0 DUP1 REVERT JUMPDEST POP JUMP JUMPDEST PUSH0 DUP2 CALLDATALOAD SWAP1 POP PUSH2 0x18F6 DUP2 PUSH2 0x18D2 JUMP JUMPDEST SWAP3 SWAP2 POP POP JUMP JUMPDEST PUSH0 DUP1 PUSH1 0x40 DUP4 DUP6 SUB SLT ISZERO PUSH2 0x1912 JUMPI PUSH2 0x1911 PUSH2 0x16B7 JUMP JUMPDEST JUMPDEST PUSH0 PUSH2 0x191F DUP6 DUP3 DUP7 ADD PUSH2 0x18E8 JUMP JUMPDEST SWAP3 POP POP PUSH1 0x20 PUSH2 0x1930 DUP6 DUP3 DUP7 ADD PUSH2 0x183B JUMP JUMPDEST SWAP2 POP POP SWAP3 POP SWAP3 SWAP1 POP JUMP JUMPDEST PUSH0 DUP1 PUSH0 PUSH1 0x60 DUP5 DUP7 SUB SLT ISZERO PUSH2 0x1951 JUMPI PUSH2 0x1950 PUSH2 0x16B7 JUMP JUMPDEST JUMPDEST PUSH0 PUSH2 0x195E DUP7 DUP3 DUP8 ADD PUSH2 0x18E8 JUMP JUMPDEST SWAP4 POP POP PUSH1 0x20 PUSH2 0x196F DUP7 DUP3 DUP8 ADD PUSH2 0x18E8 JUMP JUMPDEST SWAP3 POP POP PUSH1 0x40 PUSH2 0x1980 DUP7 DUP3 DUP8 ADD PUSH2 0x183B JUMP JUMPDEST SWAP2 POP POP SWAP3 POP SWAP3 POP SWAP3 JUMP JUMPDEST PUSH0 PUSH1 0x20 DUP3 DUP5 SUB SLT ISZERO PUSH2 0x199F JUMPI PUSH2 0x199E PUSH2 0x16B7 JUMP JUMPDEST JUMPDEST PUSH0 PUSH2 0x19AC DUP5 DUP3 DUP6 ADD PUSH2 0x18E8 JUMP JUMPDEST SWAP2 POP POP SWAP3 SWAP2 POP POP JUMP JUMPDEST PUSH2 0x19BE DUP2 PUSH2 0x181C JUMP JUMPDEST DUP3 MSTORE POP POP JUMP JUMPDEST PUSH0 PUSH1 0x20 DUP3 ADD SWAP1 POP PUSH2 0x19D7 PUSH0 DUP4 ADD DUP5 PUSH2 0x19B5 JUMP JUMPDEST SWAP3 SWAP2 POP POP JUMP JUMPDEST PUSH2 0x19E6 DUP2 PUSH2 0x173F JUMP JUMPDEST DUP2 EQ PUSH2 0x19F0 JUMPI PUSH0 DUP1 REVERT JUMPDEST POP JUMP JUMPDEST PUSH0 DUP2 CALLDATALOAD SWAP1 POP PUSH2 0x1A01 DUP2 PUSH2 0x19DD JUMP JUMPDEST SWAP3 SWAP2 POP POP JUMP JUMPDEST PUSH0 DUP1 PUSH1 0x40 DUP4 DUP6 SUB SLT ISZERO PUSH2 0x1A1D JUMPI PUSH2 0x1A1C PUSH2 0x16B7 JUMP JUMPDEST JUMPDEST PUSH0 PUSH2 0x1A2A DUP6 DUP3 DUP7 ADD PUSH2 0x18E8 JUMP JUMPDEST SWAP3 POP POP PUSH1 0x20 PUSH2 0x1A3B DUP6 DUP3 DUP7 ADD PUSH2 0x19F3 JUMP JUMPDEST SWAP2 POP POP SWAP3 POP SWAP3 SWAP1 POP JUMP JUMPDEST PUSH0 DUP1 REVERT JUMPDEST PUSH0 DUP1 REVERT JUMPDEST PUSH32 0x4E487B7100000000000000000000000000000000000000000000000000000000 PUSH0 MSTORE PUSH1 0x41 PUSH1 0x4 MSTORE PUSH1 0x24 PUSH0 REVERT JUMPDEST PUSH2 0x1A83 DUP3 PUSH2 0x17B4 JUMP JUMPDEST DUP2 ADD DUP2 DUP2 LT PUSH8 0xFFFFFFFFFFFFFFFF DUP3 GT OR ISZERO PUSH2 0x1AA2 JUMPI PUSH2 0x1AA1 PUSH2 0x1A4D JUMP JUMPDEST JUMPDEST DUP1 PUSH1 0x40 MSTORE POP POP POP JUMP JUMPDEST PUSH0 PUSH2 0x1AB4 PUSH2 0x16AE JUMP JUMPDEST SWAP1 POP PUSH2 0x1AC0 DUP3 DUP3 PUSH2 0x1A7A JUMP JUMPDEST SWAP2 SWAP1 POP JUMP JUMPDEST PUSH0 PUSH8 0xFFFFFFFFFFFFFFFF DUP3 GT ISZERO PUSH2 0x1ADF JUMPI PUSH2 0x1ADE PUSH2 0x1A4D JUMP JUMPDEST JUMPDEST PUSH2 0x1AE8 DUP3 PUSH2 0x17B4 JUMP JUMPDEST SWAP1 POP PUSH1 0x20 DUP2 ADD SWAP1 POP SWAP2 SWAP1 POP JUMP JUMPDEST DUP3 DUP2 DUP4 CALLDATACOPY PUSH0 DUP4 DUP4 ADD MSTORE POP POP POP JUMP JUMPDEST PUSH0 PUSH2 0x1B15 PUSH2 0x1B10 DUP5 PUSH2 0x1AC5 JUMP JUMPDEST PUSH2 0x1AAB JUMP JUMPDEST SWAP1 POP DUP3 DUP2 MSTORE PUSH1 0x20 DUP2 ADD DUP5 DUP5 DUP5 ADD GT ISZERO PUSH2 0x1B31 JUMPI PUSH2 0x1B30 PUSH2 0x1A49 JUMP JUMPDEST JUMPDEST PUSH2 0x1B3C DUP5 DUP3 DUP6 PUSH2 0x1AF5 JUMP JUMPDEST POP SWAP4 SWAP3 POP POP POP JUMP JUMPDEST PUSH0 DUP3 PUSH1 0x1F DUP4 ADD SLT PUSH2 0x1B58 JUMPI PUSH2 0x1B57 PUSH2 0x1A45 JUMP JUMPDEST JUMPDEST DUP2 CALLDATALOAD PUSH2 0x1B68 DUP5 DUP3 PUSH1 0x20 DUP7 ADD PUSH2 0x1B03 JUMP JUMPDEST SWAP2 POP POP SWAP3 SWAP2 POP POP JUMP JUMPDEST PUSH0 DUP1 PUSH0 DUP1 PUSH1 0x80 DUP6 DUP8 SUB SLT ISZERO PUSH2 0x1B89 JUMPI PUSH2 0x1B88 PUSH2 0x16B7 JUMP JUMPDEST JUMPDEST PUSH0 PUSH2 0x1B96 DUP8 DUP3 DUP9 ADD PUSH2 0x18E8 JUMP JUMPDEST SWAP5 POP POP PUSH1 0x20 PUSH2 0x1BA7 DUP8 DUP3 DUP9 ADD PUSH2 0x18E8 JUMP JUMPDEST SWAP4 POP POP PUSH1 0x40 PUSH2 0x1BB8 DUP8 DUP3 DUP9 ADD PUSH2 0x183B JUMP JUMPDEST SWAP3 POP POP PUSH1 0x60 DUP6 ADD CALLDATALOAD PUSH8 0xFFFFFFFFFFFFFFFF DUP2 GT ISZERO PUSH2 0x1BD9 JUMPI PUSH2 0x1BD8 PUSH2 0x16BB JUMP JUMPDEST JUMPDEST PUSH2 0x1BE5 DUP8 DUP3 DUP9 ADD PUSH2 0x1B44 JUMP JUMPDEST SWAP2 POP POP SWAP3 SWAP6 SWAP2 SWAP5 POP SWAP3 POP JUMP JUMPDEST PUSH0 DUP1 PUSH1 0x40 DUP4 DUP6 SUB SLT ISZERO PUSH2 0x1C07 JUMPI PUSH2 0x1C06 PUSH2 0x16B7 JUMP JUMPDEST JUMPDEST PUSH0 PUSH2 0x1C14 DUP6 DUP3 DUP7 ADD PUSH2 0x18E8 JUMP JUMPDEST SWAP3 POP POP PUSH1 0x20 PUSH2 0x1C25 DUP6 DUP3 DUP7 ADD PUSH2 0x18E8 JUMP JUMPDEST SWAP2 POP POP SWAP3 POP SWAP3 SWAP1 POP JUMP JUMPDEST PUSH32 0x4E487B7100000000000000000000000000000000000000000000000000000000 PUSH0 MSTORE PUSH1 0x22 PUSH1 0x4 MSTORE PUSH1 0x24 PUSH0 REVERT JUMPDEST PUSH0 PUSH1 0x2 DUP3 DIV SWAP1 POP PUSH1 0x1 DUP3 AND DUP1 PUSH2 0x1C73 JUMPI PUSH1 0x7F DUP3 AND SWAP2 POP JUMPDEST PUSH1 0x20 DUP3 LT DUP2 SUB PUSH2 0x1C86 JUMPI PUSH2 0x1C85 PUSH2 0x1C2F JUMP JUMPDEST JUMPDEST POP SWAP2 SWAP1 POP JUMP JUMPDEST PUSH0 PUSH1 0x60 DUP3 ADD SWAP1 POP PUSH2 0x1C9F PUSH0 DUP4 ADD DUP7 PUSH2 0x18AA JUMP JUMPDEST PUSH2 0x1CAC PUSH1 0x20 DUP4 ADD DUP6 PUSH2 0x19B5 JUMP JUMPDEST PUSH2 0x1CB9 PUSH1 0x40 DUP4 ADD DUP5 PUSH2 0x18AA JUMP JUMPDEST SWAP5 SWAP4 POP POP POP POP JUMP JUMPDEST PUSH0 DUP2 SWAP1 POP SWAP3 SWAP2 POP POP JUMP JUMPDEST PUSH0 PUSH2 0x1CD5 DUP3 PUSH2 0x1772 JUMP JUMPDEST PUSH2 0x1CDF DUP2 DUP6 PUSH2 0x1CC1 JUMP JUMPDEST SWAP4 POP PUSH2 0x1CEF DUP2 DUP6 PUSH1 0x20 DUP7 ADD PUSH2 0x178C JUMP JUMPDEST DUP1 DUP5 ADD SWAP2 POP POP SWAP3 SWAP2 POP POP JUMP JUMPDEST PUSH0 PUSH2 0x1D06 DUP3 DUP6 PUSH2 0x1CCB JUMP JUMPDEST SWAP2 POP PUSH2 0x1D12 DUP3 DUP5 PUSH2 0x1CCB JUMP JUMPDEST SWAP2 POP DUP2 SWAP1 POP SWAP4 SWAP3 POP POP POP JUMP JUMPDEST PUSH0 DUP2 MLOAD SWAP1 POP SWAP2 SWAP1 POP JUMP JUMPDEST PUSH0 DUP3 DUP3 MSTORE PUSH1 0x20 DUP3 ADD SWAP1 POP SWAP3 SWAP2 POP POP JUMP JUMPDEST PUSH0 PUSH2 0x1D42 DUP3 PUSH2 0x1D1E JUMP JUMPDEST PUSH2 0x1D4C DUP2 DUP6 PUSH2 0x1D28 JUMP JUMPDEST SWAP4 POP PUSH2 0x1D5C DUP2 DUP6 PUSH1 0x20 DUP7 ADD PUSH2 0x178C JUMP JUMPDEST PUSH2 0x1D65 DUP2 PUSH2 0x17B4 JUMP JUMPDEST DUP5 ADD SWAP2 POP POP SWAP3 SWAP2 POP POP JUMP JUMPDEST PUSH0 PUSH1 0x80 DUP3 ADD SWAP1 POP PUSH2 0x1D83 PUSH0 DUP4 ADD DUP8 PUSH2 0x18AA JUMP JUMPDEST PUSH2 0x1D90 PUSH1 0x20 DUP4 ADD DUP7 PUSH2 0x18AA JUMP JUMPDEST PUSH2 0x1D9D PUSH1 0x40 DUP4 ADD DUP6 PUSH2 0x19B5 JUMP JUMPDEST DUP2 DUP2 SUB PUSH1 0x60 DUP4 ADD MSTORE PUSH2 0x1DAF DUP2 DUP5 PUSH2 0x1D38 JUMP JUMPDEST SWAP1 POP SWAP6 SWAP5 POP POP POP POP POP JUMP JUMPDEST PUSH0 DUP2 MLOAD SWAP1 POP PUSH2 0x1DC8 DUP2 PUSH2 0x16EA JUMP JUMPDEST SWAP3 SWAP2 POP POP JUMP JUMPDEST PUSH0 PUSH1 0x20 DUP3 DUP5 SUB SLT ISZERO PUSH2 0x1DE3 JUMPI PUSH2 0x1DE2 PUSH2 0x16B7 JUMP JUMPDEST JUMPDEST PUSH0 PUSH2 0x1DF0 DUP5 DUP3 DUP6 ADD PUSH2 0x1DBA JUMP JUMPDEST SWAP2 POP POP SWAP3 SWAP2 POP POP JUMP JUMPDEST PUSH32 0x4E487B7100000000000000000000000000000000000000000000000000000000 PUSH0 MSTORE PUSH1 0x12 PUSH1 0x4 MSTORE PUSH1 0x24 PUSH0 REVERT JUMPDEST PUSH0 PUSH1 0x40 DUP3 ADD SWAP1 POP PUSH2 0x1E39 PUSH0 DUP4 ADD DUP6 PUSH2 0x18AA JUMP JUMPDEST PUSH2 0x1E46 PUSH1 0x20 DUP4 ADD DUP5 PUSH2 0x19B5 JUMP JUMPDEST SWAP4 SWAP3 POP POP POP JUMP INVALID LOG2 PUSH5 0x6970667358 0x22 SLT KECCAK256 0xDA PUSH14 0x6383EAACB1B73A342B983ED75347 JUMPDEST SAR CALLDATACOPY 0xC3 PUSH9 0x2AC3F70960E4BF25B1 0xF9 SWAP1 PUSH5 0x736F6C6343 STOP ADDMOD EQ STOP CALLER "
				},
				"gasEstimates": {
					"creation": {
						"codeDepositCost": "1562200",
						"executionCost": "infinite",
						"totalCost": "infinite"
					},
					"external": {
						"approve(address,uint256)": "infinite",
						"balanceOf(address)": "infinite",
						"getApproved(uint256)": "infinite",
						"isApprovedForAll(address,address)": "infinite",
						"name()": "infinite",
						"owner()": "2560",
						"ownerOf(uint256)": "infinite",
						"renounceOwnership()": "infinite",
						"safeTransferFrom(address,address,uint256)": "infinite",
						"safeTransferFrom(address,address,uint256,bytes)": "infinite",
						"setApprovalForAll(address,bool)": "infinite",
						"supportsInterface(bytes4)": "787",
						"symbol()": "infinite",
						"tokenURI(uint256)": "infinite",
						"transferFrom(address,address,uint256)": "infinite",
						"transferOwnership(address)": "infinite"
					},
					"internal": {
						"_baseURI()": "infinite"
					}
				},
				"methodIdentifiers": {
					"approve(address,uint256)": "095ea7b3",
					"balanceOf(address)": "70a08231",
					"getApproved(uint256)": "081812fc",
					"isApprovedForAll(address,address)": "e985e9c5",
					"name()": "06fdde03",
					"owner()": "8da5cb5b",
					"ownerOf(uint256)": "6352211e",
					"renounceOwnership()": "715018a6",
					"safeTransferFrom(address,address,uint256)": "42842e0e",
					"safeTransferFrom(address,address,uint256,bytes)": "b88d4fde",
					"setApprovalForAll(address,bool)": "a22cb465",
					"supportsInterface(bytes4)": "01ffc9a7",
					"symbol()": "95d89b41",
					"tokenURI(uint256)": "c87b56dd",
					"transferFrom(address,address,uint256)": "23b872dd",
					"transferOwnership(address)": "f2fde38b"
				}
			},
			"storageLayout": {
				"storage": [
					{
						"astId": 348,
						"contract": "Pieces.sol:PieceToken",
						"label": "_name",
						"offset": 0,
						"slot": "0",
						"type": "t_string_storage"
					},
					{
						"astId": 350,
						"contract": "Pieces.sol:PieceToken",
						"label": "_symbol",
						"offset": 0,
						"slot": "1",
						"type": "t_string_storage"
					},
					{
						"astId": 354,
						"contract": "Pieces.sol:PieceToken",
						"label": "_owners",
						"offset": 0,
						"slot": "2",
						"type": "t_mapping(t_uint256,t_address)"
					},
					{
						"astId": 358,
						"contract": "Pieces.sol:PieceToken",
						"label": "_balances",
						"offset": 0,
						"slot": "3",
						"type": "t_mapping(t_address,t_uint256)"
					},
					{
						"astId": 362,
						"contract": "Pieces.sol:PieceToken",
						"label": "_tokenApprovals",
						"offset": 0,
						"slot": "4",
						"type": "t_mapping(t_uint256,t_address)"
					},
					{
						"astId": 368,
						"contract": "Pieces.sol:PieceToken",
						"label": "_operatorApprovals",
						"offset": 0,
						"slot": "5",
						"type": "t_mapping(t_address,t_mapping(t_address,t_bool))"
					},
					{
						"astId": 39,
						"contract": "Pieces.sol:PieceToken",
						"label": "_owner",
						"offset": 0,
						"slot": "6",
						"type": "t_address"
					}
				],
				"types": {
					"t_address": {
						"encoding": "inplace",
						"label": "address",
						"numberOfBytes": "20"
					},
					"t_bool": {
						"encoding": "inplace",
						"label": "bool",
						"numberOfBytes": "1"
					},
					"t_mapping(t_address,t_bool)": {
						"encoding": "mapping",
						"key": "t_address",
						"label": "mapping(address => bool)",
						"numberOfBytes": "32",
						"value": "t_bool"
					},
					"t_mapping(t_address,t_mapping(t_address,t_bool))": {
						"encoding": "mapping",
						"key": "t_address",
						"label": "mapping(address => mapping(address => bool))",
						"numberOfBytes": "32",
						"value": "t_mapping(t_address,t_bool)"
					},
					"t_mapping(t_address,t_uint256)": {
						"encoding": "mapping",
						"key": "t_address",
						"label": "mapping(address => uint256)",
						"numberOfBytes": "32",
						"value": "t_uint256"
					},
					"t_mapping(t_uint256,t_address)": {
						"encoding": "mapping",
						"key": "t_uint256",
						"label": "mapping(uint256 => address)",
						"numberOfBytes": "32",
						"value": "t_address"
					},
					"t_string_storage": {
						"encoding": "bytes",
						"label": "string",
						"numberOfBytes": "32"
					},
					"t_uint256": {
						"encoding": "inplace",
						"label": "uint256",
						"numberOfBytes": "32"
					}
				}
			},
			"userdoc": {
				"kind": "user",
				"methods": {},
				"version": 1
			}
		}
	}
}