{
	"PictureTokenFactory.sol": {
		"PictureTokenFactory": {
			"abi": [
				{
					"inputs": [
						{
							"internalType": "contract Picture",
							"name": "_props",
							"type": "address"
						}
					],
					"name": "createPictureToken",
					"outputs": [],
					"stateMutability": "nonpayable",
					"type": "function"
				}
			],
			"devdoc": {
				"kind": "dev",
				"methods": {},
				"version": 1
			},
			"evm": {
				"assembly": "    /* \"PictureTokenFactory.sol\":183:444  contract PictureTokenFactory {... */\n  mstore(0x40, 0x80)\n  callvalue\n  dup1\n  iszero\n  tag_1\n  jumpi\n  0x00\n  dup1\n  revert\ntag_1:\n  pop\n  dataSize(sub_0)\n  dup1\n  dataOffset(sub_0)\n  0x00\n  codecopy\n  0x00\n  return\nstop\n\nsub_0: assembly {\n        /* \"PictureTokenFactory.sol\":183:444  contract PictureTokenFactory {... */\n      mstore(0x40, 0x80)\n      callvalue\n      dup1\n      iszero\n      tag_1\n      jumpi\n      0x00\n      dup1\n      revert\n    tag_1:\n      pop\n      jumpi(tag_2, lt(calldatasize, 0x04))\n      shr(0xe0, calldataload(0x00))\n      dup1\n      0xa4bcab2c\n      eq\n      tag_3\n      jumpi\n    tag_2:\n      0x00\n      dup1\n      revert\n        /* \"PictureTokenFactory.sol\":243:441  function createPictureToken (... */\n    tag_3:\n      tag_4\n      0x04\n      dup1\n      calldatasize\n      sub\n      dup2\n      add\n      swap1\n      tag_5\n      swap2\n      swap1\n      tag_6\n      jump\t// in\n    tag_5:\n      tag_7\n      jump\t// in\n    tag_4:\n      stop\n    tag_7:\n        /* \"PictureTokenFactory.sol\":329:357  PictureToken newPictureToken */\n      0x00\n        /* \"PictureTokenFactory.sol\":391:401  msg.sender */\n      caller\n        /* \"PictureTokenFactory.sol\":416:422  _props */\n      dup3\n        /* \"PictureTokenFactory.sol\":360:433  new PictureToken(... */\n      mload(0x40)\n      tag_9\n      swap1\n      tag_10\n      jump\t// in\n    tag_9:\n      tag_11\n      swap3\n      swap2\n      swap1\n      tag_12\n      jump\t// in\n    tag_11:\n      mload(0x40)\n      dup1\n      swap2\n      sub\n      swap1\n      0x00\n      create\n      dup1\n      iszero\n      dup1\n      iszero\n      tag_13\n      jumpi\n      returndatasize\n      0x00\n      dup1\n      returndatacopy\n      revert(0x00, returndatasize)\n    tag_13:\n      pop\n        /* \"PictureTokenFactory.sol\":329:433  PictureToken newPictureToken = new PictureToken(... */\n      swap1\n      pop\n        /* \"PictureTokenFactory.sol\":311:441  {       ... */\n      pop\n        /* \"PictureTokenFactory.sol\":243:441  function createPictureToken (... */\n      pop\n      jump\t// out\n    tag_10:\n      dataSize(sub_0)\n      dup1\n      dataOffset(sub_0)\n      dup4\n      codecopy\n      add\n      swap1\n      jump\t// out\n        /* \"#utility.yul\":88:205   */\n    tag_15:\n        /* \"#utility.yul\":197:198   */\n      0x00\n        /* \"#utility.yul\":194:195   */\n      dup1\n        /* \"#utility.yul\":187:199   */\n      revert\n        /* \"#utility.yul\":334:460   */\n    tag_17:\n        /* \"#utility.yul\":371:378   */\n      0x00\n        /* \"#utility.yul\":411:453   */\n      0xffffffffffffffffffffffffffffffffffffffff\n        /* \"#utility.yul\":404:409   */\n      dup3\n        /* \"#utility.yul\":400:454   */\n      and\n        /* \"#utility.yul\":389:454   */\n      swap1\n      pop\n        /* \"#utility.yul\":334:460   */\n      swap2\n      swap1\n      pop\n      jump\t// out\n        /* \"#utility.yul\":466:562   */\n    tag_18:\n        /* \"#utility.yul\":503:510   */\n      0x00\n        /* \"#utility.yul\":532:556   */\n      tag_34\n        /* \"#utility.yul\":550:555   */\n      dup3\n        /* \"#utility.yul\":532:556   */\n      tag_17\n      jump\t// in\n    tag_34:\n        /* \"#utility.yul\":521:556   */\n      swap1\n      pop\n        /* \"#utility.yul\":466:562   */\n      swap2\n      swap1\n      pop\n      jump\t// out\n        /* \"#utility.yul\":568:678   */\n    tag_19:\n        /* \"#utility.yul\":619:626   */\n      0x00\n        /* \"#utility.yul\":648:672   */\n      tag_36\n        /* \"#utility.yul\":666:671   */\n      dup3\n        /* \"#utility.yul\":648:672   */\n      tag_18\n      jump\t// in\n    tag_36:\n        /* \"#utility.yul\":637:672   */\n      swap1\n      pop\n        /* \"#utility.yul\":568:678   */\n      swap2\n      swap1\n      pop\n      jump\t// out\n        /* \"#utility.yul\":684:834   */\n    tag_20:\n        /* \"#utility.yul\":771:809   */\n      tag_38\n        /* \"#utility.yul\":803:808   */\n      dup2\n        /* \"#utility.yul\":771:809   */\n      tag_19\n      jump\t// in\n    tag_38:\n        /* \"#utility.yul\":764:769   */\n      dup2\n        /* \"#utility.yul\":761:810   */\n      eq\n        /* \"#utility.yul\":751:828   */\n      tag_39\n      jumpi\n        /* \"#utility.yul\":824:825   */\n      0x00\n        /* \"#utility.yul\":821:822   */\n      dup1\n        /* \"#utility.yul\":814:826   */\n      revert\n        /* \"#utility.yul\":751:828   */\n    tag_39:\n        /* \"#utility.yul\":684:834   */\n      pop\n      jump\t// out\n        /* \"#utility.yul\":840:1007   */\n    tag_21:\n        /* \"#utility.yul\":900:905   */\n      0x00\n        /* \"#utility.yul\":938:944   */\n      dup2\n        /* \"#utility.yul\":925:945   */\n      calldataload\n        /* \"#utility.yul\":916:945   */\n      swap1\n      pop\n        /* \"#utility.yul\":954:1001   */\n      tag_41\n        /* \"#utility.yul\":995:1000   */\n      dup2\n        /* \"#utility.yul\":954:1001   */\n      tag_20\n      jump\t// in\n    tag_41:\n        /* \"#utility.yul\":840:1007   */\n      swap3\n      swap2\n      pop\n      pop\n      jump\t// out\n        /* \"#utility.yul\":1013:1370   */\n    tag_6:\n        /* \"#utility.yul\":1086:1092   */\n      0x00\n        /* \"#utility.yul\":1135:1137   */\n      0x20\n        /* \"#utility.yul\":1123:1132   */\n      dup3\n        /* \"#utility.yul\":1114:1121   */\n      dup5\n        /* \"#utility.yul\":1110:1133   */\n      sub\n        /* \"#utility.yul\":1106:1138   */\n      slt\n        /* \"#utility.yul\":1103:1222   */\n      iszero\n      tag_43\n      jumpi\n        /* \"#utility.yul\":1141:1220   */\n      tag_44\n      tag_15\n      jump\t// in\n    tag_44:\n        /* \"#utility.yul\":1103:1222   */\n    tag_43:\n        /* \"#utility.yul\":1261:1262   */\n      0x00\n        /* \"#utility.yul\":1286:1353   */\n      tag_45\n        /* \"#utility.yul\":1345:1352   */\n      dup5\n        /* \"#utility.yul\":1336:1342   */\n      dup3\n        /* \"#utility.yul\":1325:1334   */\n      dup6\n        /* \"#utility.yul\":1321:1343   */\n      add\n        /* \"#utility.yul\":1286:1353   */\n      tag_21\n      jump\t// in\n    tag_45:\n        /* \"#utility.yul\":1276:1353   */\n      swap2\n      pop\n        /* \"#utility.yul\":1232:1363   */\n      pop\n        /* \"#utility.yul\":1013:1370   */\n      swap3\n      swap2\n      pop\n      pop\n      jump\t// out\n        /* \"#utility.yul\":1376:1494   */\n    tag_22:\n        /* \"#utility.yul\":1463:1487   */\n      tag_47\n        /* \"#utility.yul\":1481:1486   */\n      dup2\n        /* \"#utility.yul\":1463:1487   */\n      tag_18\n      jump\t// in\n    tag_47:\n        /* \"#utility.yul\":1458:1461   */\n      dup3\n        /* \"#utility.yul\":1451:1488   */\n      mstore\n        /* \"#utility.yul\":1376:1494   */\n      pop\n      pop\n      jump\t// out\n        /* \"#utility.yul\":1500:1560   */\n    tag_23:\n        /* \"#utility.yul\":1528:1531   */\n      0x00\n        /* \"#utility.yul\":1549:1554   */\n      dup2\n        /* \"#utility.yul\":1542:1554   */\n      swap1\n      pop\n        /* \"#utility.yul\":1500:1560   */\n      swap2\n      swap1\n      pop\n      jump\t// out\n        /* \"#utility.yul\":1566:1708   */\n    tag_24:\n        /* \"#utility.yul\":1616:1625   */\n      0x00\n        /* \"#utility.yul\":1649:1702   */\n      tag_50\n        /* \"#utility.yul\":1667:1701   */\n      tag_51\n        /* \"#utility.yul\":1676:1700   */\n      tag_52\n        /* \"#utility.yul\":1694:1699   */\n      dup5\n        /* \"#utility.yul\":1676:1700   */\n      tag_17\n      jump\t// in\n    tag_52:\n        /* \"#utility.yul\":1667:1701   */\n      tag_23\n      jump\t// in\n    tag_51:\n        /* \"#utility.yul\":1649:1702   */\n      tag_17\n      jump\t// in\n    tag_50:\n        /* \"#utility.yul\":1636:1702   */\n      swap1\n      pop\n        /* \"#utility.yul\":1566:1708   */\n      swap2\n      swap1\n      pop\n      jump\t// out\n        /* \"#utility.yul\":1714:1840   */\n    tag_25:\n        /* \"#utility.yul\":1764:1773   */\n      0x00\n        /* \"#utility.yul\":1797:1834   */\n      tag_54\n        /* \"#utility.yul\":1828:1833   */\n      dup3\n        /* \"#utility.yul\":1797:1834   */\n      tag_24\n      jump\t// in\n    tag_54:\n        /* \"#utility.yul\":1784:1834   */\n      swap1\n      pop\n        /* \"#utility.yul\":1714:1840   */\n      swap2\n      swap1\n      pop\n      jump\t// out\n        /* \"#utility.yul\":1846:1986   */\n    tag_26:\n        /* \"#utility.yul\":1910:1919   */\n      0x00\n        /* \"#utility.yul\":1943:1980   */\n      tag_56\n        /* \"#utility.yul\":1974:1979   */\n      dup3\n        /* \"#utility.yul\":1943:1980   */\n      tag_25\n      jump\t// in\n    tag_56:\n        /* \"#utility.yul\":1930:1980   */\n      swap1\n      pop\n        /* \"#utility.yul\":1846:1986   */\n      swap2\n      swap1\n      pop\n      jump\t// out\n        /* \"#utility.yul\":1992:2151   */\n    tag_27:\n        /* \"#utility.yul\":2093:2144   */\n      tag_58\n        /* \"#utility.yul\":2138:2143   */\n      dup2\n        /* \"#utility.yul\":2093:2144   */\n      tag_26\n      jump\t// in\n    tag_58:\n        /* \"#utility.yul\":2088:2091   */\n      dup3\n        /* \"#utility.yul\":2081:2145   */\n      mstore\n        /* \"#utility.yul\":1992:2151   */\n      pop\n      pop\n      jump\t// out\n        /* \"#utility.yul\":2157:2517   */\n    tag_12:\n        /* \"#utility.yul\":2292:2296   */\n      0x00\n        /* \"#utility.yul\":2330:2332   */\n      0x40\n        /* \"#utility.yul\":2319:2328   */\n      dup3\n        /* \"#utility.yul\":2315:2333   */\n      add\n        /* \"#utility.yul\":2307:2333   */\n      swap1\n      pop\n        /* \"#utility.yul\":2343:2414   */\n      tag_60\n        /* \"#utility.yul\":2411:2412   */\n      0x00\n        /* \"#utility.yul\":2400:2409   */\n      dup4\n        /* \"#utility.yul\":2396:2413   */\n      add\n        /* \"#utility.yul\":2387:2393   */\n      dup6\n        /* \"#utility.yul\":2343:2414   */\n      tag_22\n      jump\t// in\n    tag_60:\n        /* \"#utility.yul\":2424:2510   */\n      tag_61\n        /* \"#utility.yul\":2506:2508   */\n      0x20\n        /* \"#utility.yul\":2495:2504   */\n      dup4\n        /* \"#utility.yul\":2491:2509   */\n      add\n        /* \"#utility.yul\":2482:2488   */\n      dup5\n        /* \"#utility.yul\":2424:2510   */\n      tag_27\n      jump\t// in\n    tag_61:\n        /* \"#utility.yul\":2157:2517   */\n      swap4\n      swap3\n      pop\n      pop\n      pop\n      jump\t// out\n    stop\n\n    sub_0: assembly {\n            /* \"PictureToken.sol\":153:370  contract PictureToken is Ownable {... */\n          mstore(0x40, 0x80)\n            /* \"PictureToken.sol\":217:365  constructor(... */\n          callvalue\n          dup1\n          iszero\n          tag_1\n          jumpi\n          0x00\n          dup1\n          revert\n        tag_1:\n          pop\n          mload(0x40)\n          sub(codesize, bytecodeSize)\n          dup1\n          bytecodeSize\n          dup4\n          codecopy\n          dup2\n          dup2\n          add\n          0x40\n          mstore\n          dup2\n          add\n          swap1\n          tag_2\n          swap2\n          swap1\n          tag_3\n          jump\t// in\n        tag_2:\n            /* \"PictureToken.sol\":313:325  initialOwner */\n          dup2\n            /* \"openzeppelin-contracts/contracts/access/Ownable.sol\":1335:1336  0 */\n          0x00\n            /* \"openzeppelin-contracts/contracts/access/Ownable.sol\":1311:1337  initialOwner == address(0) */\n          0xffffffffffffffffffffffffffffffffffffffff\n          and\n            /* \"openzeppelin-contracts/contracts/access/Ownable.sol\":1311:1323  initialOwner */\n          dup2\n            /* \"openzeppelin-contracts/contracts/access/Ownable.sol\":1311:1337  initialOwner == address(0) */\n          0xffffffffffffffffffffffffffffffffffffffff\n          and\n          sub\n            /* \"openzeppelin-contracts/contracts/access/Ownable.sol\":1307:1404  if (initialOwner == address(0)) {... */\n          tag_7\n          jumpi\n            /* \"openzeppelin-contracts/contracts/access/Ownable.sol\":1389:1390  0 */\n          0x00\n            /* \"openzeppelin-contracts/contracts/access/Ownable.sol\":1361:1392  OwnableInvalidOwner(address(0)) */\n          mload(0x40)\n          0x1e4fbdf700000000000000000000000000000000000000000000000000000000\n          dup2\n          mstore\n          0x04\n          add\n          tag_8\n          swap2\n          swap1\n          tag_9\n          jump\t// in\n        tag_8:\n          mload(0x40)\n          dup1\n          swap2\n          sub\n          swap1\n          revert\n            /* \"openzeppelin-contracts/contracts/access/Ownable.sol\":1307:1404  if (initialOwner == address(0)) {... */\n        tag_7:\n            /* \"openzeppelin-contracts/contracts/access/Ownable.sol\":1414:1446  _transferOwnership(initialOwner) */\n          tag_10\n            /* \"openzeppelin-contracts/contracts/access/Ownable.sol\":1433:1445  initialOwner */\n          dup2\n            /* \"openzeppelin-contracts/contracts/access/Ownable.sol\":1414:1432  _transferOwnership */\n          shl(0x20, tag_11)\n            /* \"openzeppelin-contracts/contracts/access/Ownable.sol\":1414:1446  _transferOwnership(initialOwner) */\n          0x20\n          shr\n          jump\t// in\n        tag_10:\n            /* \"openzeppelin-contracts/contracts/access/Ownable.sol\":1262:1454  constructor(address initialOwner) {... */\n          pop\n            /* \"PictureToken.sol\":351:357  _props */\n          dup1\n            /* \"PictureToken.sol\":343:348  props */\n          0x01\n          0x00\n            /* \"PictureToken.sol\":343:357  props = _props */\n          0x0100\n          exp\n          dup2\n          sload\n          dup2\n          0xffffffffffffffffffffffffffffffffffffffff\n          mul\n          not\n          and\n          swap1\n          dup4\n          0xffffffffffffffffffffffffffffffffffffffff\n          and\n          mul\n          or\n          swap1\n          sstore\n          pop\n            /* \"PictureToken.sol\":217:365  constructor(... */\n          pop\n          pop\n            /* \"PictureToken.sol\":153:370  contract PictureToken is Ownable {... */\n          jump(tag_13)\n            /* \"openzeppelin-contracts/contracts/access/Ownable.sol\":3006:3197  function _transferOwnership(address newOwner) internal virtual {... */\n        tag_11:\n            /* \"openzeppelin-contracts/contracts/access/Ownable.sol\":3080:3096  address oldOwner */\n          0x00\n            /* \"openzeppelin-contracts/contracts/access/Ownable.sol\":3099:3105  _owner */\n          dup1\n          0x00\n          swap1\n          sload\n          swap1\n          0x0100\n          exp\n          swap1\n          div\n          0xffffffffffffffffffffffffffffffffffffffff\n          and\n            /* \"openzeppelin-contracts/contracts/access/Ownable.sol\":3080:3105  address oldOwner = _owner */\n          swap1\n          pop\n            /* \"openzeppelin-contracts/contracts/access/Ownable.sol\":3125:3133  newOwner */\n          dup2\n            /* \"openzeppelin-contracts/contracts/access/Ownable.sol\":3116:3122  _owner */\n          0x00\n          dup1\n            /* \"openzeppelin-contracts/contracts/access/Ownable.sol\":3116:3133  _owner = newOwner */\n          0x0100\n          exp\n          dup2\n          sload\n          dup2\n          0xffffffffffffffffffffffffffffffffffffffff\n          mul\n          not\n          and\n          swap1\n          dup4\n          0xffffffffffffffffffffffffffffffffffffffff\n          and\n          mul\n          or\n          swap1\n          sstore\n          pop\n            /* \"openzeppelin-contracts/contracts/access/Ownable.sol\":3180:3188  newOwner */\n          dup2\n            /* \"openzeppelin-contracts/contracts/access/Ownable.sol\":3149:3189  OwnershipTransferred(oldOwner, newOwner) */\n          0xffffffffffffffffffffffffffffffffffffffff\n          and\n            /* \"openzeppelin-contracts/contracts/access/Ownable.sol\":3170:3178  oldOwner */\n          dup2\n            /* \"openzeppelin-contracts/contracts/access/Ownable.sol\":3149:3189  OwnershipTransferred(oldOwner, newOwner) */\n          0xffffffffffffffffffffffffffffffffffffffff\n          and\n          0x8be0079c531659141344cd1fd0a4f28419497f9722a3daafe3b4186f6b6457e0\n          mload(0x40)\n          mload(0x40)\n          dup1\n          swap2\n          sub\n          swap1\n          log3\n            /* \"openzeppelin-contracts/contracts/access/Ownable.sol\":3069:3197  {... */\n          pop\n            /* \"openzeppelin-contracts/contracts/access/Ownable.sol\":3006:3197  function _transferOwnership(address newOwner) internal virtual {... */\n          pop\n          jump\t// out\n            /* \"#utility.yul\":88:205   */\n        tag_16:\n            /* \"#utility.yul\":197:198   */\n          0x00\n            /* \"#utility.yul\":194:195   */\n          dup1\n            /* \"#utility.yul\":187:199   */\n          revert\n            /* \"#utility.yul\":334:460   */\n        tag_18:\n            /* \"#utility.yul\":371:378   */\n          0x00\n            /* \"#utility.yul\":411:453   */\n          0xffffffffffffffffffffffffffffffffffffffff\n            /* \"#utility.yul\":404:409   */\n          dup3\n            /* \"#utility.yul\":400:454   */\n          and\n            /* \"#utility.yul\":389:454   */\n          swap1\n          pop\n            /* \"#utility.yul\":334:460   */\n          swap2\n          swap1\n          pop\n          jump\t// out\n            /* \"#utility.yul\":466:562   */\n        tag_19:\n            /* \"#utility.yul\":503:510   */\n          0x00\n            /* \"#utility.yul\":532:556   */\n          tag_32\n            /* \"#utility.yul\":550:555   */\n          dup3\n            /* \"#utility.yul\":532:556   */\n          tag_18\n          jump\t// in\n        tag_32:\n            /* \"#utility.yul\":521:556   */\n          swap1\n          pop\n            /* \"#utility.yul\":466:562   */\n          swap2\n          swap1\n          pop\n          jump\t// out\n            /* \"#utility.yul\":568:690   */\n        tag_20:\n            /* \"#utility.yul\":641:665   */\n          tag_34\n            /* \"#utility.yul\":659:664   */\n          dup2\n            /* \"#utility.yul\":641:665   */\n          tag_19\n          jump\t// in\n        tag_34:\n            /* \"#utility.yul\":634:639   */\n          dup2\n            /* \"#utility.yul\":631:666   */\n          eq\n            /* \"#utility.yul\":621:684   */\n          tag_35\n          jumpi\n            /* \"#utility.yul\":680:681   */\n          0x00\n            /* \"#utility.yul\":677:678   */\n          dup1\n            /* \"#utility.yul\":670:682   */\n          revert\n            /* \"#utility.yul\":621:684   */\n        tag_35:\n            /* \"#utility.yul\":568:690   */\n          pop\n          jump\t// out\n            /* \"#utility.yul\":696:839   */\n        tag_21:\n            /* \"#utility.yul\":753:758   */\n          0x00\n            /* \"#utility.yul\":784:790   */\n          dup2\n            /* \"#utility.yul\":778:791   */\n          mload\n            /* \"#utility.yul\":769:791   */\n          swap1\n          pop\n            /* \"#utility.yul\":800:833   */\n          tag_37\n            /* \"#utility.yul\":827:832   */\n          dup2\n            /* \"#utility.yul\":800:833   */\n          tag_20\n          jump\t// in\n        tag_37:\n            /* \"#utility.yul\":696:839   */\n          swap3\n          swap2\n          pop\n          pop\n          jump\t// out\n            /* \"#utility.yul\":845:955   */\n        tag_22:\n            /* \"#utility.yul\":896:903   */\n          0x00\n            /* \"#utility.yul\":925:949   */\n          tag_39\n            /* \"#utility.yul\":943:948   */\n          dup3\n            /* \"#utility.yul\":925:949   */\n          tag_19\n          jump\t// in\n        tag_39:\n            /* \"#utility.yul\":914:949   */\n          swap1\n          pop\n            /* \"#utility.yul\":845:955   */\n          swap2\n          swap1\n          pop\n          jump\t// out\n            /* \"#utility.yul\":961:1111   */\n        tag_23:\n            /* \"#utility.yul\":1048:1086   */\n          tag_41\n            /* \"#utility.yul\":1080:1085   */\n          dup2\n            /* \"#utility.yul\":1048:1086   */\n          tag_22\n          jump\t// in\n        tag_41:\n            /* \"#utility.yul\":1041:1046   */\n          dup2\n            /* \"#utility.yul\":1038:1087   */\n          eq\n            /* \"#utility.yul\":1028:1105   */\n          tag_42\n          jumpi\n            /* \"#utility.yul\":1101:1102   */\n          0x00\n            /* \"#utility.yul\":1098:1099   */\n          dup1\n            /* \"#utility.yul\":1091:1103   */\n          revert\n            /* \"#utility.yul\":1028:1105   */\n        tag_42:\n            /* \"#utility.yul\":961:1111   */\n          pop\n          jump\t// out\n            /* \"#utility.yul\":1117:1288   */\n        tag_24:\n            /* \"#utility.yul\":1188:1193   */\n          0x00\n            /* \"#utility.yul\":1219:1225   */\n          dup2\n            /* \"#utility.yul\":1213:1226   */\n          mload\n            /* \"#utility.yul\":1204:1226   */\n          swap1\n          pop\n            /* \"#utility.yul\":1235:1282   */\n          tag_44\n            /* \"#utility.yul\":1276:1281   */\n          dup2\n            /* \"#utility.yul\":1235:1282   */\n          tag_23\n          jump\t// in\n        tag_44:\n            /* \"#utility.yul\":1117:1288   */\n          swap3\n          swap2\n          pop\n          pop\n          jump\t// out\n            /* \"#utility.yul\":1294:1829   */\n        tag_3:\n            /* \"#utility.yul\":1387:1393   */\n          0x00\n            /* \"#utility.yul\":1395:1401   */\n          dup1\n            /* \"#utility.yul\":1444:1446   */\n          0x40\n            /* \"#utility.yul\":1432:1441   */\n          dup4\n            /* \"#utility.yul\":1423:1430   */\n          dup6\n            /* \"#utility.yul\":1419:1442   */\n          sub\n            /* \"#utility.yul\":1415:1447   */\n          slt\n            /* \"#utility.yul\":1412:1531   */\n          iszero\n          tag_46\n          jumpi\n            /* \"#utility.yul\":1450:1529   */\n          tag_47\n          tag_16\n          jump\t// in\n        tag_47:\n            /* \"#utility.yul\":1412:1531   */\n        tag_46:\n            /* \"#utility.yul\":1570:1571   */\n          0x00\n            /* \"#utility.yul\":1595:1659   */\n          tag_48\n            /* \"#utility.yul\":1651:1658   */\n          dup6\n            /* \"#utility.yul\":1642:1648   */\n          dup3\n            /* \"#utility.yul\":1631:1640   */\n          dup7\n            /* \"#utility.yul\":1627:1649   */\n          add\n            /* \"#utility.yul\":1595:1659   */\n          tag_21\n          jump\t// in\n        tag_48:\n            /* \"#utility.yul\":1585:1659   */\n          swap3\n          pop\n            /* \"#utility.yul\":1541:1669   */\n          pop\n            /* \"#utility.yul\":1708:1710   */\n          0x20\n            /* \"#utility.yul\":1734:1812   */\n          tag_49\n            /* \"#utility.yul\":1804:1811   */\n          dup6\n            /* \"#utility.yul\":1795:1801   */\n          dup3\n            /* \"#utility.yul\":1784:1793   */\n          dup7\n            /* \"#utility.yul\":1780:1802   */\n          add\n            /* \"#utility.yul\":1734:1812   */\n          tag_24\n          jump\t// in\n        tag_49:\n            /* \"#utility.yul\":1724:1812   */\n          swap2\n          pop\n            /* \"#utility.yul\":1679:1822   */\n          pop\n            /* \"#utility.yul\":1294:1829   */\n          swap3\n          pop\n          swap3\n          swap1\n          pop\n          jump\t// out\n            /* \"#utility.yul\":1835:1953   */\n        tag_25:\n            /* \"#utility.yul\":1922:1946   */\n          tag_51\n            /* \"#utility.yul\":1940:1945   */\n          dup2\n            /* \"#utility.yul\":1922:1946   */\n          tag_19\n          jump\t// in\n        tag_51:\n            /* \"#utility.yul\":1917:1920   */\n          dup3\n            /* \"#utility.yul\":1910:1947   */\n          mstore\n            /* \"#utility.yul\":1835:1953   */\n          pop\n          pop\n          jump\t// out\n            /* \"#utility.yul\":1959:2181   */\n        tag_9:\n            /* \"#utility.yul\":2052:2056   */\n          0x00\n            /* \"#utility.yul\":2090:2092   */\n          0x20\n            /* \"#utility.yul\":2079:2088   */\n          dup3\n            /* \"#utility.yul\":2075:2093   */\n          add\n            /* \"#utility.yul\":2067:2093   */\n          swap1\n          pop\n            /* \"#utility.yul\":2103:2174   */\n          tag_53\n            /* \"#utility.yul\":2171:2172   */\n          0x00\n            /* \"#utility.yul\":2160:2169   */\n          dup4\n            /* \"#utility.yul\":2156:2173   */\n          add\n            /* \"#utility.yul\":2147:2153   */\n          dup5\n            /* \"#utility.yul\":2103:2174   */\n          tag_25\n          jump\t// in\n        tag_53:\n            /* \"#utility.yul\":1959:2181   */\n          swap3\n          swap2\n          pop\n          pop\n          jump\t// out\n            /* \"PictureToken.sol\":153:370  contract PictureToken is Ownable {... */\n        tag_13:\n          dataSize(sub_0)\n          dup1\n          dataOffset(sub_0)\n          0x00\n          codecopy\n          0x00\n          return\n        stop\n\n        sub_0: assembly {\n                /* \"PictureToken.sol\":153:370  contract PictureToken is Ownable {... */\n              mstore(0x40, 0x80)\n              callvalue\n              dup1\n              iszero\n              tag_1\n              jumpi\n              0x00\n              dup1\n              revert\n            tag_1:\n              pop\n              jumpi(tag_2, lt(calldatasize, 0x04))\n              shr(0xe0, calldataload(0x00))\n              dup1\n              0x715018a6\n              eq\n              tag_3\n              jumpi\n              dup1\n              0x8da5cb5b\n              eq\n              tag_4\n              jumpi\n              dup1\n              0xf2fde38b\n              eq\n              tag_5\n              jumpi\n            tag_2:\n              0x00\n              dup1\n              revert\n                /* \"openzeppelin-contracts/contracts/access/Ownable.sol\":2368:2471  function renounceOwnership() public virtual onlyOwner {... */\n            tag_3:\n              tag_6\n              tag_7\n              jump\t// in\n            tag_6:\n              stop\n                /* \"openzeppelin-contracts/contracts/access/Ownable.sol\":1693:1780  function owner() public view virtual returns (address) {... */\n            tag_4:\n              tag_8\n              tag_9\n              jump\t// in\n            tag_8:\n              mload(0x40)\n              tag_10\n              swap2\n              swap1\n              tag_11\n              jump\t// in\n            tag_10:\n              mload(0x40)\n              dup1\n              swap2\n              sub\n              swap1\n              return\n                /* \"openzeppelin-contracts/contracts/access/Ownable.sol\":2626:2846  function transferOwnership(address newOwner) public virtual onlyOwner {... */\n            tag_5:\n              tag_12\n              0x04\n              dup1\n              calldatasize\n              sub\n              dup2\n              add\n              swap1\n              tag_13\n              swap2\n              swap1\n              tag_14\n              jump\t// in\n            tag_13:\n              tag_15\n              jump\t// in\n            tag_12:\n              stop\n                /* \"openzeppelin-contracts/contracts/access/Ownable.sol\":2368:2471  function renounceOwnership() public virtual onlyOwner {... */\n            tag_7:\n                /* \"openzeppelin-contracts/contracts/access/Ownable.sol\":1579:1592  _checkOwner() */\n              tag_17\n                /* \"openzeppelin-contracts/contracts/access/Ownable.sol\":1579:1590  _checkOwner */\n              tag_18\n                /* \"openzeppelin-contracts/contracts/access/Ownable.sol\":1579:1592  _checkOwner() */\n              jump\t// in\n            tag_17:\n                /* \"openzeppelin-contracts/contracts/access/Ownable.sol\":2433:2463  _transferOwnership(address(0)) */\n              tag_20\n                /* \"openzeppelin-contracts/contracts/access/Ownable.sol\":2460:2461  0 */\n              0x00\n                /* \"openzeppelin-contracts/contracts/access/Ownable.sol\":2433:2451  _transferOwnership */\n              tag_21\n                /* \"openzeppelin-contracts/contracts/access/Ownable.sol\":2433:2463  _transferOwnership(address(0)) */\n              jump\t// in\n            tag_20:\n                /* \"openzeppelin-contracts/contracts/access/Ownable.sol\":2368:2471  function renounceOwnership() public virtual onlyOwner {... */\n              jump\t// out\n                /* \"openzeppelin-contracts/contracts/access/Ownable.sol\":1693:1780  function owner() public view virtual returns (address) {... */\n            tag_9:\n                /* \"openzeppelin-contracts/contracts/access/Ownable.sol\":1739:1746  address */\n              0x00\n                /* \"openzeppelin-contracts/contracts/access/Ownable.sol\":1766:1772  _owner */\n              dup1\n              0x00\n              swap1\n              sload\n              swap1\n              0x0100\n              exp\n              swap1\n              div\n              0xffffffffffffffffffffffffffffffffffffffff\n              and\n                /* \"openzeppelin-contracts/contracts/access/Ownable.sol\":1759:1772  return _owner */\n              swap1\n              pop\n                /* \"openzeppelin-contracts/contracts/access/Ownable.sol\":1693:1780  function owner() public view virtual returns (address) {... */\n              swap1\n              jump\t// out\n                /* \"openzeppelin-contracts/contracts/access/Ownable.sol\":2626:2846  function transferOwnership(address newOwner) public virtual onlyOwner {... */\n            tag_15:\n                /* \"openzeppelin-contracts/contracts/access/Ownable.sol\":1579:1592  _checkOwner() */\n              tag_24\n                /* \"openzeppelin-contracts/contracts/access/Ownable.sol\":1579:1590  _checkOwner */\n              tag_18\n                /* \"openzeppelin-contracts/contracts/access/Ownable.sol\":1579:1592  _checkOwner() */\n              jump\t// in\n            tag_24:\n                /* \"openzeppelin-contracts/contracts/access/Ownable.sol\":2731:2732  0 */\n              0x00\n                /* \"openzeppelin-contracts/contracts/access/Ownable.sol\":2711:2733  newOwner == address(0) */\n              0xffffffffffffffffffffffffffffffffffffffff\n              and\n                /* \"openzeppelin-contracts/contracts/access/Ownable.sol\":2711:2719  newOwner */\n              dup2\n                /* \"openzeppelin-contracts/contracts/access/Ownable.sol\":2711:2733  newOwner == address(0) */\n              0xffffffffffffffffffffffffffffffffffffffff\n              and\n              sub\n                /* \"openzeppelin-contracts/contracts/access/Ownable.sol\":2707:2800  if (newOwner == address(0)) {... */\n              tag_26\n              jumpi\n                /* \"openzeppelin-contracts/contracts/access/Ownable.sol\":2785:2786  0 */\n              0x00\n                /* \"openzeppelin-contracts/contracts/access/Ownable.sol\":2757:2788  OwnableInvalidOwner(address(0)) */\n              mload(0x40)\n              0x1e4fbdf700000000000000000000000000000000000000000000000000000000\n              dup2\n              mstore\n              0x04\n              add\n              tag_27\n              swap2\n              swap1\n              tag_11\n              jump\t// in\n            tag_27:\n              mload(0x40)\n              dup1\n              swap2\n              sub\n              swap1\n              revert\n                /* \"openzeppelin-contracts/contracts/access/Ownable.sol\":2707:2800  if (newOwner == address(0)) {... */\n            tag_26:\n                /* \"openzeppelin-contracts/contracts/access/Ownable.sol\":2810:2838  _transferOwnership(newOwner) */\n              tag_28\n                /* \"openzeppelin-contracts/contracts/access/Ownable.sol\":2829:2837  newOwner */\n              dup2\n                /* \"openzeppelin-contracts/contracts/access/Ownable.sol\":2810:2828  _transferOwnership */\n              tag_21\n                /* \"openzeppelin-contracts/contracts/access/Ownable.sol\":2810:2838  _transferOwnership(newOwner) */\n              jump\t// in\n            tag_28:\n                /* \"openzeppelin-contracts/contracts/access/Ownable.sol\":2626:2846  function transferOwnership(address newOwner) public virtual onlyOwner {... */\n              pop\n              jump\t// out\n                /* \"openzeppelin-contracts/contracts/access/Ownable.sol\":1858:2024  function _checkOwner() internal view virtual {... */\n            tag_18:\n                /* \"openzeppelin-contracts/contracts/access/Ownable.sol\":1929:1941  _msgSender() */\n              tag_30\n                /* \"openzeppelin-contracts/contracts/access/Ownable.sol\":1929:1939  _msgSender */\n              tag_31\n                /* \"openzeppelin-contracts/contracts/access/Ownable.sol\":1929:1941  _msgSender() */\n              jump\t// in\n            tag_30:\n                /* \"openzeppelin-contracts/contracts/access/Ownable.sol\":1918:1941  owner() != _msgSender() */\n              0xffffffffffffffffffffffffffffffffffffffff\n              and\n                /* \"openzeppelin-contracts/contracts/access/Ownable.sol\":1918:1925  owner() */\n              tag_32\n                /* \"openzeppelin-contracts/contracts/access/Ownable.sol\":1918:1923  owner */\n              tag_9\n                /* \"openzeppelin-contracts/contracts/access/Ownable.sol\":1918:1925  owner() */\n              jump\t// in\n            tag_32:\n                /* \"openzeppelin-contracts/contracts/access/Ownable.sol\":1918:1941  owner() != _msgSender() */\n              0xffffffffffffffffffffffffffffffffffffffff\n              and\n              eq\n                /* \"openzeppelin-contracts/contracts/access/Ownable.sol\":1914:2017  if (owner() != _msgSender()) {... */\n              tag_33\n              jumpi\n                /* \"openzeppelin-contracts/contracts/access/Ownable.sol\":1992:2004  _msgSender() */\n              tag_34\n                /* \"openzeppelin-contracts/contracts/access/Ownable.sol\":1992:2002  _msgSender */\n              tag_31\n                /* \"openzeppelin-contracts/contracts/access/Ownable.sol\":1992:2004  _msgSender() */\n              jump\t// in\n            tag_34:\n                /* \"openzeppelin-contracts/contracts/access/Ownable.sol\":1965:2005  OwnableUnauthorizedAccount(_msgSender()) */\n              mload(0x40)\n              0x118cdaa700000000000000000000000000000000000000000000000000000000\n              dup2\n              mstore\n              0x04\n              add\n              tag_35\n              swap2\n              swap1\n              tag_11\n              jump\t// in\n            tag_35:\n              mload(0x40)\n              dup1\n              swap2\n              sub\n              swap1\n              revert\n                /* \"openzeppelin-contracts/contracts/access/Ownable.sol\":1914:2017  if (owner() != _msgSender()) {... */\n            tag_33:\n                /* \"openzeppelin-contracts/contracts/access/Ownable.sol\":1858:2024  function _checkOwner() internal view virtual {... */\n              jump\t// out\n                /* \"openzeppelin-contracts/contracts/access/Ownable.sol\":3006:3197  function _transferOwnership(address newOwner) internal virtual {... */\n            tag_21:\n                /* \"openzeppelin-contracts/contracts/access/Ownable.sol\":3080:3096  address oldOwner */\n              0x00\n                /* \"openzeppelin-contracts/contracts/access/Ownable.sol\":3099:3105  _owner */\n              dup1\n              0x00\n              swap1\n              sload\n              swap1\n              0x0100\n              exp\n              swap1\n              div\n              0xffffffffffffffffffffffffffffffffffffffff\n              and\n                /* \"openzeppelin-contracts/contracts/access/Ownable.sol\":3080:3105  address oldOwner = _owner */\n              swap1\n              pop\n                /* \"openzeppelin-contracts/contracts/access/Ownable.sol\":3125:3133  newOwner */\n              dup2\n                /* \"openzeppelin-contracts/contracts/access/Ownable.sol\":3116:3122  _owner */\n              0x00\n              dup1\n                /* \"openzeppelin-contracts/contracts/access/Ownable.sol\":3116:3133  _owner = newOwner */\n              0x0100\n              exp\n              dup2\n              sload\n              dup2\n              0xffffffffffffffffffffffffffffffffffffffff\n              mul\n              not\n              and\n              swap1\n              dup4\n              0xffffffffffffffffffffffffffffffffffffffff\n              and\n              mul\n              or\n              swap1\n              sstore\n              pop\n                /* \"openzeppelin-contracts/contracts/access/Ownable.sol\":3180:3188  newOwner */\n              dup2\n                /* \"openzeppelin-contracts/contracts/access/Ownable.sol\":3149:3189  OwnershipTransferred(oldOwner, newOwner) */\n              0xffffffffffffffffffffffffffffffffffffffff\n              and\n                /* \"openzeppelin-contracts/contracts/access/Ownable.sol\":3170:3178  oldOwner */\n              dup2\n                /* \"openzeppelin-contracts/contracts/access/Ownable.sol\":3149:3189  OwnershipTransferred(oldOwner, newOwner) */\n              0xffffffffffffffffffffffffffffffffffffffff\n              and\n              0x8be0079c531659141344cd1fd0a4f28419497f9722a3daafe3b4186f6b6457e0\n              mload(0x40)\n              mload(0x40)\n              dup1\n              swap2\n              sub\n              swap1\n              log3\n                /* \"openzeppelin-contracts/contracts/access/Ownable.sol\":3069:3197  {... */\n              pop\n                /* \"openzeppelin-contracts/contracts/access/Ownable.sol\":3006:3197  function _transferOwnership(address newOwner) internal virtual {... */\n              pop\n              jump\t// out\n                /* \"openzeppelin-contracts/contracts/utils/Context.sol\":672:770  function _msgSender() internal view virtual returns (address) {... */\n            tag_31:\n                /* \"openzeppelin-contracts/contracts/utils/Context.sol\":725:732  address */\n              0x00\n                /* \"openzeppelin-contracts/contracts/utils/Context.sol\":752:762  msg.sender */\n              caller\n                /* \"openzeppelin-contracts/contracts/utils/Context.sol\":745:762  return msg.sender */\n              swap1\n              pop\n                /* \"openzeppelin-contracts/contracts/utils/Context.sol\":672:770  function _msgSender() internal view virtual returns (address) {... */\n              swap1\n              jump\t// out\n                /* \"#utility.yul\":7:133   */\n            tag_38:\n                /* \"#utility.yul\":44:51   */\n              0x00\n                /* \"#utility.yul\":84:126   */\n              0xffffffffffffffffffffffffffffffffffffffff\n                /* \"#utility.yul\":77:82   */\n              dup3\n                /* \"#utility.yul\":73:127   */\n              and\n                /* \"#utility.yul\":62:127   */\n              swap1\n              pop\n                /* \"#utility.yul\":7:133   */\n              swap2\n              swap1\n              pop\n              jump\t// out\n                /* \"#utility.yul\":139:235   */\n            tag_39:\n                /* \"#utility.yul\":176:183   */\n              0x00\n                /* \"#utility.yul\":205:229   */\n              tag_49\n                /* \"#utility.yul\":223:228   */\n              dup3\n                /* \"#utility.yul\":205:229   */\n              tag_38\n              jump\t// in\n            tag_49:\n                /* \"#utility.yul\":194:229   */\n              swap1\n              pop\n                /* \"#utility.yul\":139:235   */\n              swap2\n              swap1\n              pop\n              jump\t// out\n                /* \"#utility.yul\":241:359   */\n            tag_40:\n                /* \"#utility.yul\":328:352   */\n              tag_51\n                /* \"#utility.yul\":346:351   */\n              dup2\n                /* \"#utility.yul\":328:352   */\n              tag_39\n              jump\t// in\n            tag_51:\n                /* \"#utility.yul\":323:326   */\n              dup3\n                /* \"#utility.yul\":316:353   */\n              mstore\n                /* \"#utility.yul\":241:359   */\n              pop\n              pop\n              jump\t// out\n                /* \"#utility.yul\":365:587   */\n            tag_11:\n                /* \"#utility.yul\":458:462   */\n              0x00\n                /* \"#utility.yul\":496:498   */\n              0x20\n                /* \"#utility.yul\":485:494   */\n              dup3\n                /* \"#utility.yul\":481:499   */\n              add\n                /* \"#utility.yul\":473:499   */\n              swap1\n              pop\n                /* \"#utility.yul\":509:580   */\n              tag_53\n                /* \"#utility.yul\":577:578   */\n              0x00\n                /* \"#utility.yul\":566:575   */\n              dup4\n                /* \"#utility.yul\":562:579   */\n              add\n                /* \"#utility.yul\":553:559   */\n              dup5\n                /* \"#utility.yul\":509:580   */\n              tag_40\n              jump\t// in\n            tag_53:\n                /* \"#utility.yul\":365:587   */\n              swap3\n              swap2\n              pop\n              pop\n              jump\t// out\n                /* \"#utility.yul\":674:791   */\n            tag_42:\n                /* \"#utility.yul\":783:784   */\n              0x00\n                /* \"#utility.yul\":780:781   */\n              dup1\n                /* \"#utility.yul\":773:785   */\n              revert\n                /* \"#utility.yul\":920:1042   */\n            tag_44:\n                /* \"#utility.yul\":993:1017   */\n              tag_58\n                /* \"#utility.yul\":1011:1016   */\n              dup2\n                /* \"#utility.yul\":993:1017   */\n              tag_39\n              jump\t// in\n            tag_58:\n                /* \"#utility.yul\":986:991   */\n              dup2\n                /* \"#utility.yul\":983:1018   */\n              eq\n                /* \"#utility.yul\":973:1036   */\n              tag_59\n              jumpi\n                /* \"#utility.yul\":1032:1033   */\n              0x00\n                /* \"#utility.yul\":1029:1030   */\n              dup1\n                /* \"#utility.yul\":1022:1034   */\n              revert\n                /* \"#utility.yul\":973:1036   */\n            tag_59:\n                /* \"#utility.yul\":920:1042   */\n              pop\n              jump\t// out\n                /* \"#utility.yul\":1048:1187   */\n            tag_45:\n                /* \"#utility.yul\":1094:1099   */\n              0x00\n                /* \"#utility.yul\":1132:1138   */\n              dup2\n                /* \"#utility.yul\":1119:1139   */\n              calldataload\n                /* \"#utility.yul\":1110:1139   */\n              swap1\n              pop\n                /* \"#utility.yul\":1148:1181   */\n              tag_61\n                /* \"#utility.yul\":1175:1180   */\n              dup2\n                /* \"#utility.yul\":1148:1181   */\n              tag_44\n              jump\t// in\n            tag_61:\n                /* \"#utility.yul\":1048:1187   */\n              swap3\n              swap2\n              pop\n              pop\n              jump\t// out\n                /* \"#utility.yul\":1193:1522   */\n            tag_14:\n                /* \"#utility.yul\":1252:1258   */\n              0x00\n                /* \"#utility.yul\":1301:1303   */\n              0x20\n                /* \"#utility.yul\":1289:1298   */\n              dup3\n                /* \"#utility.yul\":1280:1287   */\n              dup5\n                /* \"#utility.yul\":1276:1299   */\n              sub\n                /* \"#utility.yul\":1272:1304   */\n              slt\n                /* \"#utility.yul\":1269:1388   */\n              iszero\n              tag_63\n              jumpi\n                /* \"#utility.yul\":1307:1386   */\n              tag_64\n              tag_42\n              jump\t// in\n            tag_64:\n                /* \"#utility.yul\":1269:1388   */\n            tag_63:\n                /* \"#utility.yul\":1427:1428   */\n              0x00\n                /* \"#utility.yul\":1452:1505   */\n              tag_65\n                /* \"#utility.yul\":1497:1504   */\n              dup5\n                /* \"#utility.yul\":1488:1494   */\n              dup3\n                /* \"#utility.yul\":1477:1486   */\n              dup6\n                /* \"#utility.yul\":1473:1495   */\n              add\n                /* \"#utility.yul\":1452:1505   */\n              tag_45\n              jump\t// in\n            tag_65:\n                /* \"#utility.yul\":1442:1505   */\n              swap2\n              pop\n                /* \"#utility.yul\":1398:1515   */\n              pop\n                /* \"#utility.yul\":1193:1522   */\n              swap3\n              swap2\n              pop\n              pop\n              jump\t// out\n\n            auxdata: 0xa2646970667358221220eff0ba843b9a542198f91cc683ca7d3a99f43830a9f0df43eb6735ba3d157a2c64736f6c63430008140033\n        }\n    }\n\n    auxdata: 0xa2646970667358221220e85de7ecece8546252352d41ca4d4bbe67e59cca5763003d8f228df6959894de64736f6c63430008140033\n}\n",
				"bytecode": {
					"linkReferences": {},
					"object": "608060405234801561000f575f80fd5b506108328061001d5f395ff3fe608060405234801561000f575f80fd5b5060043610610029575f3560e01c8063a4bcab2c1461002d575b5f80fd5b610047600480360381019061004291906100ff565b610049565b005b5f338260405161005890610083565b610063929190610194565b604051809103905ff08015801561007c573d5f803e3d5ffd5b5090505050565b610641806101bc83390190565b5f80fd5b5f73ffffffffffffffffffffffffffffffffffffffff82169050919050565b5f6100bd82610094565b9050919050565b5f6100ce826100b3565b9050919050565b6100de816100c4565b81146100e8575f80fd5b50565b5f813590506100f9816100d5565b92915050565b5f6020828403121561011457610113610090565b5b5f610121848285016100eb565b91505092915050565b610133816100b3565b82525050565b5f819050919050565b5f61015c61015761015284610094565b610139565b610094565b9050919050565b5f61016d82610142565b9050919050565b5f61017e82610163565b9050919050565b61018e81610174565b82525050565b5f6040820190506101a75f83018561012a565b6101b46020830184610185565b939250505056fe608060405234801561000f575f80fd5b5060405161064138038061064183398181016040528101906100319190610253565b815f73ffffffffffffffffffffffffffffffffffffffff168173ffffffffffffffffffffffffffffffffffffffff16036100a2575f6040517f1e4fbdf700000000000000000000000000000000000000000000000000000000815260040161009991906102a0565b60405180910390fd5b6100b1816100f960201b60201c565b508060015f6101000a81548173ffffffffffffffffffffffffffffffffffffffff021916908373ffffffffffffffffffffffffffffffffffffffff16021790555050506102b9565b5f805f9054906101000a900473ffffffffffffffffffffffffffffffffffffffff169050815f806101000a81548173ffffffffffffffffffffffffffffffffffffffff021916908373ffffffffffffffffffffffffffffffffffffffff1602179055508173ffffffffffffffffffffffffffffffffffffffff168173ffffffffffffffffffffffffffffffffffffffff167f8be0079c531659141344cd1fd0a4f28419497f9722a3daafe3b4186f6b6457e060405160405180910390a35050565b5f80fd5b5f73ffffffffffffffffffffffffffffffffffffffff82169050919050565b5f6101e7826101be565b9050919050565b6101f7816101dd565b8114610201575f80fd5b50565b5f81519050610212816101ee565b92915050565b5f610222826101dd565b9050919050565b61023281610218565b811461023c575f80fd5b50565b5f8151905061024d81610229565b92915050565b5f8060408385031215610269576102686101ba565b5b5f61027685828601610204565b92505060206102878582860161023f565b9150509250929050565b61029a816101dd565b82525050565b5f6020820190506102b35f830184610291565b92915050565b61037b806102c65f395ff3fe608060405234801561000f575f80fd5b506004361061003f575f3560e01c8063715018a6146100435780638da5cb5b1461004d578063f2fde38b1461006b575b5f80fd5b61004b610087565b005b61005561009a565b60405161006291906102d3565b60405180910390f35b6100856004803603810190610080919061031a565b6100c1565b005b61008f610145565b6100985f6101cc565b565b5f805f9054906101000a900473ffffffffffffffffffffffffffffffffffffffff16905090565b6100c9610145565b5f73ffffffffffffffffffffffffffffffffffffffff168173ffffffffffffffffffffffffffffffffffffffff1603610139575f6040517f1e4fbdf700000000000000000000000000000000000000000000000000000000815260040161013091906102d3565b60405180910390fd5b610142816101cc565b50565b61014d61028d565b73ffffffffffffffffffffffffffffffffffffffff1661016b61009a565b73ffffffffffffffffffffffffffffffffffffffff16146101ca5761018e61028d565b6040517f118cdaa70000000000000000000000000000000000000000000000000000000081526004016101c191906102d3565b60405180910390fd5b565b5f805f9054906101000a900473ffffffffffffffffffffffffffffffffffffffff169050815f806101000a81548173ffffffffffffffffffffffffffffffffffffffff021916908373ffffffffffffffffffffffffffffffffffffffff1602179055508173ffffffffffffffffffffffffffffffffffffffff168173ffffffffffffffffffffffffffffffffffffffff167f8be0079c531659141344cd1fd0a4f28419497f9722a3daafe3b4186f6b6457e060405160405180910390a35050565b5f33905090565b5f73ffffffffffffffffffffffffffffffffffffffff82169050919050565b5f6102bd82610294565b9050919050565b6102cd816102b3565b82525050565b5f6020820190506102e65f8301846102c4565b92915050565b5f80fd5b6102f9816102b3565b8114610303575f80fd5b50565b5f81359050610314816102f0565b92915050565b5f6020828403121561032f5761032e6102ec565b5b5f61033c84828501610306565b9150509291505056fea2646970667358221220eff0ba843b9a542198f91cc683ca7d3a99f43830a9f0df43eb6735ba3d157a2c64736f6c63430008140033a2646970667358221220e85de7ecece8546252352d41ca4d4bbe67e59cca5763003d8f228df6959894de64736f6c63430008140033",
					"opcodes": "PUSH1 0x80 PUSH1 0x40 MSTORE CALLVALUE DUP1 ISZERO PUSH2 0xF JUMPI PUSH0 DUP1 REVERT JUMPDEST POP PUSH2 0x832 DUP1 PUSH2 0x1D PUSH0 CODECOPY PUSH0 RETURN INVALID PUSH1 0x80 PUSH1 0x40 MSTORE CALLVALUE DUP1 ISZERO PUSH2 0xF JUMPI PUSH0 DUP1 REVERT JUMPDEST POP PUSH1 0x4 CALLDATASIZE LT PUSH2 0x29 JUMPI PUSH0 CALLDATALOAD PUSH1 0xE0 SHR DUP1 PUSH4 0xA4BCAB2C EQ PUSH2 0x2D JUMPI JUMPDEST PUSH0 DUP1 REVERT JUMPDEST PUSH2 0x47 PUSH1 0x4 DUP1 CALLDATASIZE SUB DUP2 ADD SWAP1 PUSH2 0x42 SWAP2 SWAP1 PUSH2 0xFF JUMP JUMPDEST PUSH2 0x49 JUMP JUMPDEST STOP JUMPDEST PUSH0 CALLER DUP3 PUSH1 0x40 MLOAD PUSH2 0x58 SWAP1 PUSH2 0x83 JUMP JUMPDEST PUSH2 0x63 SWAP3 SWAP2 SWAP1 PUSH2 0x194 JUMP JUMPDEST PUSH1 0x40 MLOAD DUP1 SWAP2 SUB SWAP1 PUSH0 CREATE DUP1 ISZERO DUP1 ISZERO PUSH2 0x7C JUMPI RETURNDATASIZE PUSH0 DUP1 RETURNDATACOPY RETURNDATASIZE PUSH0 REVERT JUMPDEST POP SWAP1 POP POP POP JUMP JUMPDEST PUSH2 0x641 DUP1 PUSH2 0x1BC DUP4 CODECOPY ADD SWAP1 JUMP JUMPDEST PUSH0 DUP1 REVERT JUMPDEST PUSH0 PUSH20 0xFFFFFFFFFFFFFFFFFFFFFFFFFFFFFFFFFFFFFFFF DUP3 AND SWAP1 POP SWAP2 SWAP1 POP JUMP JUMPDEST PUSH0 PUSH2 0xBD DUP3 PUSH2 0x94 JUMP JUMPDEST SWAP1 POP SWAP2 SWAP1 POP JUMP JUMPDEST PUSH0 PUSH2 0xCE DUP3 PUSH2 0xB3 JUMP JUMPDEST SWAP1 POP SWAP2 SWAP1 POP JUMP JUMPDEST PUSH2 0xDE DUP2 PUSH2 0xC4 JUMP JUMPDEST DUP2 EQ PUSH2 0xE8 JUMPI PUSH0 DUP1 REVERT JUMPDEST POP JUMP JUMPDEST PUSH0 DUP2 CALLDATALOAD SWAP1 POP PUSH2 0xF9 DUP2 PUSH2 0xD5 JUMP JUMPDEST SWAP3 SWAP2 POP POP JUMP JUMPDEST PUSH0 PUSH1 0x20 DUP3 DUP5 SUB SLT ISZERO PUSH2 0x114 JUMPI PUSH2 0x113 PUSH2 0x90 JUMP JUMPDEST JUMPDEST PUSH0 PUSH2 0x121 DUP5 DUP3 DUP6 ADD PUSH2 0xEB JUMP JUMPDEST SWAP2 POP POP SWAP3 SWAP2 POP POP JUMP JUMPDEST PUSH2 0x133 DUP2 PUSH2 0xB3 JUMP JUMPDEST DUP3 MSTORE POP POP JUMP JUMPDEST PUSH0 DUP2 SWAP1 POP SWAP2 SWAP1 POP JUMP JUMPDEST PUSH0 PUSH2 0x15C PUSH2 0x157 PUSH2 0x152 DUP5 PUSH2 0x94 JUMP JUMPDEST PUSH2 0x139 JUMP JUMPDEST PUSH2 0x94 JUMP JUMPDEST SWAP1 POP SWAP2 SWAP1 POP JUMP JUMPDEST PUSH0 PUSH2 0x16D DUP3 PUSH2 0x142 JUMP JUMPDEST SWAP1 POP SWAP2 SWAP1 POP JUMP JUMPDEST PUSH0 PUSH2 0x17E DUP3 PUSH2 0x163 JUMP JUMPDEST SWAP1 POP SWAP2 SWAP1 POP JUMP JUMPDEST PUSH2 0x18E DUP2 PUSH2 0x174 JUMP JUMPDEST DUP3 MSTORE POP POP JUMP JUMPDEST PUSH0 PUSH1 0x40 DUP3 ADD SWAP1 POP PUSH2 0x1A7 PUSH0 DUP4 ADD DUP6 PUSH2 0x12A JUMP JUMPDEST PUSH2 0x1B4 PUSH1 0x20 DUP4 ADD DUP5 PUSH2 0x185 JUMP JUMPDEST SWAP4 SWAP3 POP POP POP JUMP INVALID PUSH1 0x80 PUSH1 0x40 MSTORE CALLVALUE DUP1 ISZERO PUSH2 0xF JUMPI PUSH0 DUP1 REVERT JUMPDEST POP PUSH1 0x40 MLOAD PUSH2 0x641 CODESIZE SUB DUP1 PUSH2 0x641 DUP4 CODECOPY DUP2 DUP2 ADD PUSH1 0x40 MSTORE DUP2 ADD SWAP1 PUSH2 0x31 SWAP2 SWAP1 PUSH2 0x253 JUMP JUMPDEST DUP2 PUSH0 PUSH20 0xFFFFFFFFFFFFFFFFFFFFFFFFFFFFFFFFFFFFFFFF AND DUP2 PUSH20 0xFFFFFFFFFFFFFFFFFFFFFFFFFFFFFFFFFFFFFFFF AND SUB PUSH2 0xA2 JUMPI PUSH0 PUSH1 0x40 MLOAD PUSH32 0x1E4FBDF700000000000000000000000000000000000000000000000000000000 DUP2 MSTORE PUSH1 0x4 ADD PUSH2 0x99 SWAP2 SWAP1 PUSH2 0x2A0 JUMP JUMPDEST PUSH1 0x40 MLOAD DUP1 SWAP2 SUB SWAP1 REVERT JUMPDEST PUSH2 0xB1 DUP2 PUSH2 0xF9 PUSH1 0x20 SHL PUSH1 0x20 SHR JUMP JUMPDEST POP DUP1 PUSH1 0x1 PUSH0 PUSH2 0x100 EXP DUP2 SLOAD DUP2 PUSH20 0xFFFFFFFFFFFFFFFFFFFFFFFFFFFFFFFFFFFFFFFF MUL NOT AND SWAP1 DUP4 PUSH20 0xFFFFFFFFFFFFFFFFFFFFFFFFFFFFFFFFFFFFFFFF AND MUL OR SWAP1 SSTORE POP POP POP PUSH2 0x2B9 JUMP JUMPDEST PUSH0 DUP1 PUSH0 SWAP1 SLOAD SWAP1 PUSH2 0x100 EXP SWAP1 DIV PUSH20 0xFFFFFFFFFFFFFFFFFFFFFFFFFFFFFFFFFFFFFFFF AND SWAP1 POP DUP2 PUSH0 DUP1 PUSH2 0x100 EXP DUP2 SLOAD DUP2 PUSH20 0xFFFFFFFFFFFFFFFFFFFFFFFFFFFFFFFFFFFFFFFF MUL NOT AND SWAP1 DUP4 PUSH20 0xFFFFFFFFFFFFFFFFFFFFFFFFFFFFFFFFFFFFFFFF AND MUL OR SWAP1 SSTORE POP DUP2 PUSH20 0xFFFFFFFFFFFFFFFFFFFFFFFFFFFFFFFFFFFFFFFF AND DUP2 PUSH20 0xFFFFFFFFFFFFFFFFFFFFFFFFFFFFFFFFFFFFFFFF AND PUSH32 0x8BE0079C531659141344CD1FD0A4F28419497F9722A3DAAFE3B4186F6B6457E0 PUSH1 0x40 MLOAD PUSH1 0x40 MLOAD DUP1 SWAP2 SUB SWAP1 LOG3 POP POP JUMP JUMPDEST PUSH0 DUP1 REVERT JUMPDEST PUSH0 PUSH20 0xFFFFFFFFFFFFFFFFFFFFFFFFFFFFFFFFFFFFFFFF DUP3 AND SWAP1 POP SWAP2 SWAP1 POP JUMP JUMPDEST PUSH0 PUSH2 0x1E7 DUP3 PUSH2 0x1BE JUMP JUMPDEST SWAP1 POP SWAP2 SWAP1 POP JUMP JUMPDEST PUSH2 0x1F7 DUP2 PUSH2 0x1DD JUMP JUMPDEST DUP2 EQ PUSH2 0x201 JUMPI PUSH0 DUP1 REVERT JUMPDEST POP JUMP JUMPDEST PUSH0 DUP2 MLOAD SWAP1 POP PUSH2 0x212 DUP2 PUSH2 0x1EE JUMP JUMPDEST SWAP3 SWAP2 POP POP JUMP JUMPDEST PUSH0 PUSH2 0x222 DUP3 PUSH2 0x1DD JUMP JUMPDEST SWAP1 POP SWAP2 SWAP1 POP JUMP JUMPDEST PUSH2 0x232 DUP2 PUSH2 0x218 JUMP JUMPDEST DUP2 EQ PUSH2 0x23C JUMPI PUSH0 DUP1 REVERT JUMPDEST POP JUMP JUMPDEST PUSH0 DUP2 MLOAD SWAP1 POP PUSH2 0x24D DUP2 PUSH2 0x229 JUMP JUMPDEST SWAP3 SWAP2 POP POP JUMP JUMPDEST PUSH0 DUP1 PUSH1 0x40 DUP4 DUP6 SUB SLT ISZERO PUSH2 0x269 JUMPI PUSH2 0x268 PUSH2 0x1BA JUMP JUMPDEST JUMPDEST PUSH0 PUSH2 0x276 DUP6 DUP3 DUP7 ADD PUSH2 0x204 JUMP JUMPDEST SWAP3 POP POP PUSH1 0x20 PUSH2 0x287 DUP6 DUP3 DUP7 ADD PUSH2 0x23F JUMP JUMPDEST SWAP2 POP POP SWAP3 POP SWAP3 SWAP1 POP JUMP JUMPDEST PUSH2 0x29A DUP2 PUSH2 0x1DD JUMP JUMPDEST DUP3 MSTORE POP POP JUMP JUMPDEST PUSH0 PUSH1 0x20 DUP3 ADD SWAP1 POP PUSH2 0x2B3 PUSH0 DUP4 ADD DUP5 PUSH2 0x291 JUMP JUMPDEST SWAP3 SWAP2 POP POP JUMP JUMPDEST PUSH2 0x37B DUP1 PUSH2 0x2C6 PUSH0 CODECOPY PUSH0 RETURN INVALID PUSH1 0x80 PUSH1 0x40 MSTORE CALLVALUE DUP1 ISZERO PUSH2 0xF JUMPI PUSH0 DUP1 REVERT JUMPDEST POP PUSH1 0x4 CALLDATASIZE LT PUSH2 0x3F JUMPI PUSH0 CALLDATALOAD PUSH1 0xE0 SHR DUP1 PUSH4 0x715018A6 EQ PUSH2 0x43 JUMPI DUP1 PUSH4 0x8DA5CB5B EQ PUSH2 0x4D JUMPI DUP1 PUSH4 0xF2FDE38B EQ PUSH2 0x6B JUMPI JUMPDEST PUSH0 DUP1 REVERT JUMPDEST PUSH2 0x4B PUSH2 0x87 JUMP JUMPDEST STOP JUMPDEST PUSH2 0x55 PUSH2 0x9A JUMP JUMPDEST PUSH1 0x40 MLOAD PUSH2 0x62 SWAP2 SWAP1 PUSH2 0x2D3 JUMP JUMPDEST PUSH1 0x40 MLOAD DUP1 SWAP2 SUB SWAP1 RETURN JUMPDEST PUSH2 0x85 PUSH1 0x4 DUP1 CALLDATASIZE SUB DUP2 ADD SWAP1 PUSH2 0x80 SWAP2 SWAP1 PUSH2 0x31A JUMP JUMPDEST PUSH2 0xC1 JUMP JUMPDEST STOP JUMPDEST PUSH2 0x8F PUSH2 0x145 JUMP JUMPDEST PUSH2 0x98 PUSH0 PUSH2 0x1CC JUMP JUMPDEST JUMP JUMPDEST PUSH0 DUP1 PUSH0 SWAP1 SLOAD SWAP1 PUSH2 0x100 EXP SWAP1 DIV PUSH20 0xFFFFFFFFFFFFFFFFFFFFFFFFFFFFFFFFFFFFFFFF AND SWAP1 POP SWAP1 JUMP JUMPDEST PUSH2 0xC9 PUSH2 0x145 JUMP JUMPDEST PUSH0 PUSH20 0xFFFFFFFFFFFFFFFFFFFFFFFFFFFFFFFFFFFFFFFF AND DUP2 PUSH20 0xFFFFFFFFFFFFFFFFFFFFFFFFFFFFFFFFFFFFFFFF AND SUB PUSH2 0x139 JUMPI PUSH0 PUSH1 0x40 MLOAD PUSH32 0x1E4FBDF700000000000000000000000000000000000000000000000000000000 DUP2 MSTORE PUSH1 0x4 ADD PUSH2 0x130 SWAP2 SWAP1 PUSH2 0x2D3 JUMP JUMPDEST PUSH1 0x40 MLOAD DUP1 SWAP2 SUB SWAP1 REVERT JUMPDEST PUSH2 0x142 DUP2 PUSH2 0x1CC JUMP JUMPDEST POP JUMP JUMPDEST PUSH2 0x14D PUSH2 0x28D JUMP JUMPDEST PUSH20 0xFFFFFFFFFFFFFFFFFFFFFFFFFFFFFFFFFFFFFFFF AND PUSH2 0x16B PUSH2 0x9A JUMP JUMPDEST PUSH20 0xFFFFFFFFFFFFFFFFFFFFFFFFFFFFFFFFFFFFFFFF AND EQ PUSH2 0x1CA JUMPI PUSH2 0x18E PUSH2 0x28D JUMP JUMPDEST PUSH1 0x40 MLOAD PUSH32 0x118CDAA700000000000000000000000000000000000000000000000000000000 DUP2 MSTORE PUSH1 0x4 ADD PUSH2 0x1C1 SWAP2 SWAP1 PUSH2 0x2D3 JUMP JUMPDEST PUSH1 0x40 MLOAD DUP1 SWAP2 SUB SWAP1 REVERT JUMPDEST JUMP JUMPDEST PUSH0 DUP1 PUSH0 SWAP1 SLOAD SWAP1 PUSH2 0x100 EXP SWAP1 DIV PUSH20 0xFFFFFFFFFFFFFFFFFFFFFFFFFFFFFFFFFFFFFFFF AND SWAP1 POP DUP2 PUSH0 DUP1 PUSH2 0x100 EXP DUP2 SLOAD DUP2 PUSH20 0xFFFFFFFFFFFFFFFFFFFFFFFFFFFFFFFFFFFFFFFF MUL NOT AND SWAP1 DUP4 PUSH20 0xFFFFFFFFFFFFFFFFFFFFFFFFFFFFFFFFFFFFFFFF AND MUL OR SWAP1 SSTORE POP DUP2 PUSH20 0xFFFFFFFFFFFFFFFFFFFFFFFFFFFFFFFFFFFFFFFF AND DUP2 PUSH20 0xFFFFFFFFFFFFFFFFFFFFFFFFFFFFFFFFFFFFFFFF AND PUSH32 0x8BE0079C531659141344CD1FD0A4F28419497F9722A3DAAFE3B4186F6B6457E0 PUSH1 0x40 MLOAD PUSH1 0x40 MLOAD DUP1 SWAP2 SUB SWAP1 LOG3 POP POP JUMP JUMPDEST PUSH0 CALLER SWAP1 POP SWAP1 JUMP JUMPDEST PUSH0 PUSH20 0xFFFFFFFFFFFFFFFFFFFFFFFFFFFFFFFFFFFFFFFF DUP3 AND SWAP1 POP SWAP2 SWAP1 POP JUMP JUMPDEST PUSH0 PUSH2 0x2BD DUP3 PUSH2 0x294 JUMP JUMPDEST SWAP1 POP SWAP2 SWAP1 POP JUMP JUMPDEST PUSH2 0x2CD DUP2 PUSH2 0x2B3 JUMP JUMPDEST DUP3 MSTORE POP POP JUMP JUMPDEST PUSH0 PUSH1 0x20 DUP3 ADD SWAP1 POP PUSH2 0x2E6 PUSH0 DUP4 ADD DUP5 PUSH2 0x2C4 JUMP JUMPDEST SWAP3 SWAP2 POP POP JUMP JUMPDEST PUSH0 DUP1 REVERT JUMPDEST PUSH2 0x2F9 DUP2 PUSH2 0x2B3 JUMP JUMPDEST DUP2 EQ PUSH2 0x303 JUMPI PUSH0 DUP1 REVERT JUMPDEST POP JUMP JUMPDEST PUSH0 DUP2 CALLDATALOAD SWAP1 POP PUSH2 0x314 DUP2 PUSH2 0x2F0 JUMP JUMPDEST SWAP3 SWAP2 POP POP JUMP JUMPDEST PUSH0 PUSH1 0x20 DUP3 DUP5 SUB SLT ISZERO PUSH2 0x32F JUMPI PUSH2 0x32E PUSH2 0x2EC JUMP JUMPDEST JUMPDEST PUSH0 PUSH2 0x33C DUP5 DUP3 DUP6 ADD PUSH2 0x306 JUMP JUMPDEST SWAP2 POP POP SWAP3 SWAP2 POP POP JUMP INVALID LOG2 PUSH5 0x6970667358 0x22 SLT KECCAK256 0xEF CREATE 0xBA DUP5 EXTCODESIZE SWAP11 SLOAD 0x21 SWAP9 0xF9 SHR 0xC6 DUP4 0xCA PUSH30 0x3A99F43830A9F0DF43EB6735BA3D157A2C64736F6C63430008140033A264 PUSH10 0x70667358221220E85DE7 0xEC 0xEC 0xE8 SLOAD PUSH3 0x52352D COINBASE 0xCA 0x4D 0x4B 0xBE PUSH8 0xE59CCA5763003D8F 0x22 DUP14 0xF6 SWAP6 SWAP9 SWAP5 0xDE PUSH5 0x736F6C6343 STOP ADDMOD EQ STOP CALLER "
				},
				"gasEstimates": {
					"creation": {
						"codeDepositCost": "419600",
						"executionCost": "453",
						"totalCost": "420053"
					},
					"external": {
						"createPictureToken(address)": "infinite"
					}
				},
				"methodIdentifiers": {
					"createPictureToken(address)": "a4bcab2c"
				}
			},
			"storageLayout": {
				"storage": [
					{
						"astId": 64,
						"contract": "PictureTokenFactory.sol:PictureTokenFactory",
						"label": "props",
						"offset": 0,
						"slot": "0",
						"type": "t_contract(Picture)30"
					}
				],
				"types": {
					"t_contract(Picture)30": {
						"encoding": "inplace",
						"label": "contract Picture",
						"numberOfBytes": "20"
					}
				}
			},
			"userdoc": {
				"kind": "user",
				"methods": {},
				"version": 1
			}
		}
	}
}