{
	"data": {
		"bytecode": {
			"linkReferences": {},
			"object": "608060405234801562000010575f80fd5b5060405162000cb338038062000cb38339818101604052810190620000369190620003f4565b825f9081620000469190620006e1565b508160019081620000589190620006e1565b508060029080519060200190620000719291906200007b565b50505050620007c5565b828054828255905f5260205f20908101928215620000f4579160200282015b82811115620000f3578251825f6101000a81548173ffffffffffffffffffffffffffffffffffffffff021916908373ffffffffffffffffffffffffffffffffffffffff160217905550916020019190600101906200009a565b5b50905062000103919062000107565b5090565b5b8082111562000120575f815f90555060010162000108565b5090565b5f604051905090565b5f80fd5b5f80fd5b5f80fd5b5f80fd5b5f601f19601f8301169050919050565b7f4e487b71000000000000000000000000000000000000000000000000000000005f52604160045260245ffd5b62000185826200013d565b810181811067ffffffffffffffff82111715620001a757620001a66200014d565b5b80604052505050565b5f620001bb62000124565b9050620001c982826200017a565b919050565b5f67ffffffffffffffff821115620001eb57620001ea6200014d565b5b620001f6826200013d565b9050602081019050919050565b5f5b838110156200022257808201518184015260208101905062000205565b5f8484015250505050565b5f620002436200023d84620001ce565b620001b0565b90508281526020810184848401111562000262576200026162000139565b5b6200026f84828562000203565b509392505050565b5f82601f8301126200028e576200028d62000135565b5b8151620002a08482602086016200022d565b91505092915050565b5f67ffffffffffffffff821115620002c657620002c56200014d565b5b602082029050602081019050919050565b5f80fd5b5f73ffffffffffffffffffffffffffffffffffffffff82169050919050565b5f6200030682620002db565b9050919050565b5f6200031982620002fa565b9050919050565b6200032b816200030d565b811462000336575f80fd5b50565b5f81519050620003498162000320565b92915050565b5f620003656200035f84620002a9565b620001b0565b905080838252602082019050602084028301858111156200038b576200038a620002d7565b5b835b81811015620003b85780620003a3888262000339565b8452602084019350506020810190506200038d565b5050509392505050565b5f82601f830112620003d957620003d862000135565b5b8151620003eb8482602086016200034f565b91505092915050565b5f805f606084860312156200040e576200040d6200012d565b5b5f84015167ffffffffffffffff8111156200042e576200042d62000131565b5b6200043c8682870162000277565b935050602084015167ffffffffffffffff81111562000460576200045f62000131565b5b6200046e8682870162000277565b925050604084015167ffffffffffffffff81111562000492576200049162000131565b5b620004a086828701620003c2565b9150509250925092565b5f81519050919050565b7f4e487b71000000000000000000000000000000000000000000000000000000005f52602260045260245ffd5b5f6002820490506001821680620004f957607f821691505b6020821081036200050f576200050e620004b4565b5b50919050565b5f819050815f5260205f209050919050565b5f6020601f8301049050919050565b5f82821b905092915050565b5f60088302620005737fffffffffffffffffffffffffffffffffffffffffffffffffffffffffffffffff8262000536565b6200057f868362000536565b95508019841693508086168417925050509392505050565b5f819050919050565b5f819050919050565b5f620005c9620005c3620005bd8462000597565b620005a0565b62000597565b9050919050565b5f819050919050565b620005e483620005a9565b620005fc620005f382620005d0565b84845462000542565b825550505050565b5f90565b6200061262000604565b6200061f818484620005d9565b505050565b5b8181101562000646576200063a5f8262000608565b60018101905062000625565b5050565b601f82111562000695576200065f8162000515565b6200066a8462000527565b810160208510156200067a578190505b62000692620006898562000527565b83018262000624565b50505b505050565b5f82821c905092915050565b5f620006b75f19846008026200069a565b1980831691505092915050565b5f620006d18383620006a6565b9150826002028217905092915050565b620006ec82620004aa565b67ffffffffffffffff8111156200070857620007076200014d565b5b620007148254620004e1565b620007218282856200064a565b5f60209050601f83116001811462000757575f841562000742578287015190505b6200074e8582620006c4565b865550620007bd565b601f198416620007678662000515565b5f5b82811015620007905784890151825560018201915060208501945060208101905062000769565b86831015620007b05784890151620007ac601f891682620006a6565b8355505b6001600288020188555050505b505050505050565b6104e080620007d35f395ff3fe608060405234801561000f575f80fd5b5060043610610029575f3560e01c8063db65dbbb1461002d575b5f80fd5b61003561004b565b604051610042919061042d565b60405180910390f35b610053610205565b60405180606001604052805f805461006a9061047a565b80601f01602080910402602001604051908101604052809291908181526020018280546100969061047a565b80156100e15780601f106100b8576101008083540402835291602001916100e1565b820191905f5260205f20905b8154815290600101906020018083116100c457829003601f168201915b50505050508152602001600180546100f89061047a565b80601f01602080910402602001604051908101604052809291908181526020018280546101249061047a565b801561016f5780601f106101465761010080835404028352916020019161016f565b820191905f5260205f20905b81548152906001019060200180831161015257829003601f168201915b5050505050815260200160028054806020026020016040519081016040528092919081815260200182805480156101f857602002820191905f5260205f20905b815f9054906101000a900473ffffffffffffffffffffffffffffffffffffffff1673ffffffffffffffffffffffffffffffffffffffff16815260200190600101908083116101af575b5050505050815250905090565b60405180606001604052806060815260200160608152602001606081525090565b5f81519050919050565b5f82825260208201905092915050565b5f5b8381101561025d578082015181840152602081019050610242565b5f8484015250505050565b5f601f19601f8301169050919050565b5f61028282610226565b61028c8185610230565b935061029c818560208601610240565b6102a581610268565b840191505092915050565b5f81519050919050565b5f82825260208201905092915050565b5f819050602082019050919050565b5f73ffffffffffffffffffffffffffffffffffffffff82169050919050565b5f819050919050565b5f61031b610316610311846102d9565b6102f8565b6102d9565b9050919050565b5f61032c82610301565b9050919050565b5f61033d82610322565b9050919050565b61034d81610333565b82525050565b5f61035e8383610344565b60208301905092915050565b5f602082019050919050565b5f610380826102b0565b61038a81856102ba565b9350610395836102ca565b805f5b838110156103c55781516103ac8882610353565b97506103b78361036a565b925050600181019050610398565b5085935050505092915050565b5f606083015f8301518482035f8601526103ec8282610278565b915050602083015184820360208601526104068282610278565b915050604083015184820360408601526104208282610376565b9150508091505092915050565b5f6020820190508181035f83015261044581846103d2565b905092915050565b7f4e487b71000000000000000000000000000000000000000000000000000000005f52602260045260245ffd5b5f600282049050600182168061049157607f821691505b6020821081036104a4576104a361044d565b5b5091905056fea2646970667358221220ff0a1c3218113b7415f9a5b20401758725338a78f3b7e144ba79704517ed794764736f6c63430008140033",
			"opcodes": "PUSH1 0x80 PUSH1 0x40 MSTORE CALLVALUE DUP1 ISZERO PUSH3 0x10 JUMPI PUSH0 DUP1 REVERT JUMPDEST POP PUSH1 0x40 MLOAD PUSH3 0xCB3 CODESIZE SUB DUP1 PUSH3 0xCB3 DUP4 CODECOPY DUP2 DUP2 ADD PUSH1 0x40 MSTORE DUP2 ADD SWAP1 PUSH3 0x36 SWAP2 SWAP1 PUSH3 0x3F4 JUMP JUMPDEST DUP3 PUSH0 SWAP1 DUP2 PUSH3 0x46 SWAP2 SWAP1 PUSH3 0x6E1 JUMP JUMPDEST POP DUP2 PUSH1 0x1 SWAP1 DUP2 PUSH3 0x58 SWAP2 SWAP1 PUSH3 0x6E1 JUMP JUMPDEST POP DUP1 PUSH1 0x2 SWAP1 DUP1 MLOAD SWAP1 PUSH1 0x20 ADD SWAP1 PUSH3 0x71 SWAP3 SWAP2 SWAP1 PUSH3 0x7B JUMP JUMPDEST POP POP POP POP PUSH3 0x7C5 JUMP JUMPDEST DUP3 DUP1 SLOAD DUP3 DUP3 SSTORE SWAP1 PUSH0 MSTORE PUSH1 0x20 PUSH0 KECCAK256 SWAP1 DUP2 ADD SWAP3 DUP3 ISZERO PUSH3 0xF4 JUMPI SWAP2 PUSH1 0x20 MUL DUP3 ADD JUMPDEST DUP3 DUP2 GT ISZERO PUSH3 0xF3 JUMPI DUP3 MLOAD DUP3 PUSH0 PUSH2 0x100 EXP DUP2 SLOAD DUP2 PUSH20 0xFFFFFFFFFFFFFFFFFFFFFFFFFFFFFFFFFFFFFFFF MUL NOT AND SWAP1 DUP4 PUSH20 0xFFFFFFFFFFFFFFFFFFFFFFFFFFFFFFFFFFFFFFFF AND MUL OR SWAP1 SSTORE POP SWAP2 PUSH1 0x20 ADD SWAP2 SWAP1 PUSH1 0x1 ADD SWAP1 PUSH3 0x9A JUMP JUMPDEST JUMPDEST POP SWAP1 POP PUSH3 0x103 SWAP2 SWAP1 PUSH3 0x107 JUMP JUMPDEST POP SWAP1 JUMP JUMPDEST JUMPDEST DUP1 DUP3 GT ISZERO PUSH3 0x120 JUMPI PUSH0 DUP2 PUSH0 SWAP1 SSTORE POP PUSH1 0x1 ADD PUSH3 0x108 JUMP JUMPDEST POP SWAP1 JUMP JUMPDEST PUSH0 PUSH1 0x40 MLOAD SWAP1 POP SWAP1 JUMP JUMPDEST PUSH0 DUP1 REVERT JUMPDEST PUSH0 DUP1 REVERT JUMPDEST PUSH0 DUP1 REVERT JUMPDEST PUSH0 DUP1 REVERT JUMPDEST PUSH0 PUSH1 0x1F NOT PUSH1 0x1F DUP4 ADD AND SWAP1 POP SWAP2 SWAP1 POP JUMP JUMPDEST PUSH32 0x4E487B7100000000000000000000000000000000000000000000000000000000 PUSH0 MSTORE PUSH1 0x41 PUSH1 0x4 MSTORE PUSH1 0x24 PUSH0 REVERT JUMPDEST PUSH3 0x185 DUP3 PUSH3 0x13D JUMP JUMPDEST DUP2 ADD DUP2 DUP2 LT PUSH8 0xFFFFFFFFFFFFFFFF DUP3 GT OR ISZERO PUSH3 0x1A7 JUMPI PUSH3 0x1A6 PUSH3 0x14D JUMP JUMPDEST JUMPDEST DUP1 PUSH1 0x40 MSTORE POP POP POP JUMP JUMPDEST PUSH0 PUSH3 0x1BB PUSH3 0x124 JUMP JUMPDEST SWAP1 POP PUSH3 0x1C9 DUP3 DUP3 PUSH3 0x17A JUMP JUMPDEST SWAP2 SWAP1 POP JUMP JUMPDEST PUSH0 PUSH8 0xFFFFFFFFFFFFFFFF DUP3 GT ISZERO PUSH3 0x1EB JUMPI PUSH3 0x1EA PUSH3 0x14D JUMP JUMPDEST JUMPDEST PUSH3 0x1F6 DUP3 PUSH3 0x13D JUMP JUMPDEST SWAP1 POP PUSH1 0x20 DUP2 ADD SWAP1 POP SWAP2 SWAP1 POP JUMP JUMPDEST PUSH0 JUMPDEST DUP4 DUP2 LT ISZERO PUSH3 0x222 JUMPI DUP1 DUP3 ADD MLOAD DUP2 DUP5 ADD MSTORE PUSH1 0x20 DUP2 ADD SWAP1 POP PUSH3 0x205 JUMP JUMPDEST PUSH0 DUP5 DUP5 ADD MSTORE POP POP POP POP JUMP JUMPDEST PUSH0 PUSH3 0x243 PUSH3 0x23D DUP5 PUSH3 0x1CE JUMP JUMPDEST PUSH3 0x1B0 JUMP JUMPDEST SWAP1 POP DUP3 DUP2 MSTORE PUSH1 0x20 DUP2 ADD DUP5 DUP5 DUP5 ADD GT ISZERO PUSH3 0x262 JUMPI PUSH3 0x261 PUSH3 0x139 JUMP JUMPDEST JUMPDEST PUSH3 0x26F DUP5 DUP3 DUP6 PUSH3 0x203 JUMP JUMPDEST POP SWAP4 SWAP3 POP POP POP JUMP JUMPDEST PUSH0 DUP3 PUSH1 0x1F DUP4 ADD SLT PUSH3 0x28E JUMPI PUSH3 0x28D PUSH3 0x135 JUMP JUMPDEST JUMPDEST DUP2 MLOAD PUSH3 0x2A0 DUP5 DUP3 PUSH1 0x20 DUP7 ADD PUSH3 0x22D JUMP JUMPDEST SWAP2 POP POP SWAP3 SWAP2 POP POP JUMP JUMPDEST PUSH0 PUSH8 0xFFFFFFFFFFFFFFFF DUP3 GT ISZERO PUSH3 0x2C6 JUMPI PUSH3 0x2C5 PUSH3 0x14D JUMP JUMPDEST JUMPDEST PUSH1 0x20 DUP3 MUL SWAP1 POP PUSH1 0x20 DUP2 ADD SWAP1 POP SWAP2 SWAP1 POP JUMP JUMPDEST PUSH0 DUP1 REVERT JUMPDEST PUSH0 PUSH20 0xFFFFFFFFFFFFFFFFFFFFFFFFFFFFFFFFFFFFFFFF DUP3 AND SWAP1 POP SWAP2 SWAP1 POP JUMP JUMPDEST PUSH0 PUSH3 0x306 DUP3 PUSH3 0x2DB JUMP JUMPDEST SWAP1 POP SWAP2 SWAP1 POP JUMP JUMPDEST PUSH0 PUSH3 0x319 DUP3 PUSH3 0x2FA JUMP JUMPDEST SWAP1 POP SWAP2 SWAP1 POP JUMP JUMPDEST PUSH3 0x32B DUP2 PUSH3 0x30D JUMP JUMPDEST DUP2 EQ PUSH3 0x336 JUMPI PUSH0 DUP1 REVERT JUMPDEST POP JUMP JUMPDEST PUSH0 DUP2 MLOAD SWAP1 POP PUSH3 0x349 DUP2 PUSH3 0x320 JUMP JUMPDEST SWAP3 SWAP2 POP POP JUMP JUMPDEST PUSH0 PUSH3 0x365 PUSH3 0x35F DUP5 PUSH3 0x2A9 JUMP JUMPDEST PUSH3 0x1B0 JUMP JUMPDEST SWAP1 POP DUP1 DUP4 DUP3 MSTORE PUSH1 0x20 DUP3 ADD SWAP1 POP PUSH1 0x20 DUP5 MUL DUP4 ADD DUP6 DUP2 GT ISZERO PUSH3 0x38B JUMPI PUSH3 0x38A PUSH3 0x2D7 JUMP JUMPDEST JUMPDEST DUP4 JUMPDEST DUP2 DUP2 LT ISZERO PUSH3 0x3B8 JUMPI DUP1 PUSH3 0x3A3 DUP9 DUP3 PUSH3 0x339 JUMP JUMPDEST DUP5 MSTORE PUSH1 0x20 DUP5 ADD SWAP4 POP POP PUSH1 0x20 DUP2 ADD SWAP1 POP PUSH3 0x38D JUMP JUMPDEST POP POP POP SWAP4 SWAP3 POP POP POP JUMP JUMPDEST PUSH0 DUP3 PUSH1 0x1F DUP4 ADD SLT PUSH3 0x3D9 JUMPI PUSH3 0x3D8 PUSH3 0x135 JUMP JUMPDEST JUMPDEST DUP2 MLOAD PUSH3 0x3EB DUP5 DUP3 PUSH1 0x20 DUP7 ADD PUSH3 0x34F JUMP JUMPDEST SWAP2 POP POP SWAP3 SWAP2 POP POP JUMP JUMPDEST PUSH0 DUP1 PUSH0 PUSH1 0x60 DUP5 DUP7 SUB SLT ISZERO PUSH3 0x40E JUMPI PUSH3 0x40D PUSH3 0x12D JUMP JUMPDEST JUMPDEST PUSH0 DUP5 ADD MLOAD PUSH8 0xFFFFFFFFFFFFFFFF DUP2 GT ISZERO PUSH3 0x42E JUMPI PUSH3 0x42D PUSH3 0x131 JUMP JUMPDEST JUMPDEST PUSH3 0x43C DUP7 DUP3 DUP8 ADD PUSH3 0x277 JUMP JUMPDEST SWAP4 POP POP PUSH1 0x20 DUP5 ADD MLOAD PUSH8 0xFFFFFFFFFFFFFFFF DUP2 GT ISZERO PUSH3 0x460 JUMPI PUSH3 0x45F PUSH3 0x131 JUMP JUMPDEST JUMPDEST PUSH3 0x46E DUP7 DUP3 DUP8 ADD PUSH3 0x277 JUMP JUMPDEST SWAP3 POP POP PUSH1 0x40 DUP5 ADD MLOAD PUSH8 0xFFFFFFFFFFFFFFFF DUP2 GT ISZERO PUSH3 0x492 JUMPI PUSH3 0x491 PUSH3 0x131 JUMP JUMPDEST JUMPDEST PUSH3 0x4A0 DUP7 DUP3 DUP8 ADD PUSH3 0x3C2 JUMP JUMPDEST SWAP2 POP POP SWAP3 POP SWAP3 POP SWAP3 JUMP JUMPDEST PUSH0 DUP2 MLOAD SWAP1 POP SWAP2 SWAP1 POP JUMP JUMPDEST PUSH32 0x4E487B7100000000000000000000000000000000000000000000000000000000 PUSH0 MSTORE PUSH1 0x22 PUSH1 0x4 MSTORE PUSH1 0x24 PUSH0 REVERT JUMPDEST PUSH0 PUSH1 0x2 DUP3 DIV SWAP1 POP PUSH1 0x1 DUP3 AND DUP1 PUSH3 0x4F9 JUMPI PUSH1 0x7F DUP3 AND SWAP2 POP JUMPDEST PUSH1 0x20 DUP3 LT DUP2 SUB PUSH3 0x50F JUMPI PUSH3 0x50E PUSH3 0x4B4 JUMP JUMPDEST JUMPDEST POP SWAP2 SWAP1 POP JUMP JUMPDEST PUSH0 DUP2 SWAP1 POP DUP2 PUSH0 MSTORE PUSH1 0x20 PUSH0 KECCAK256 SWAP1 POP SWAP2 SWAP1 POP JUMP JUMPDEST PUSH0 PUSH1 0x20 PUSH1 0x1F DUP4 ADD DIV SWAP1 POP SWAP2 SWAP1 POP JUMP JUMPDEST PUSH0 DUP3 DUP3 SHL SWAP1 POP SWAP3 SWAP2 POP POP JUMP JUMPDEST PUSH0 PUSH1 0x8 DUP4 MUL PUSH3 0x573 PUSH32 0xFFFFFFFFFFFFFFFFFFFFFFFFFFFFFFFFFFFFFFFFFFFFFFFFFFFFFFFFFFFFFFFF DUP3 PUSH3 0x536 JUMP JUMPDEST PUSH3 0x57F DUP7 DUP4 PUSH3 0x536 JUMP JUMPDEST SWAP6 POP DUP1 NOT DUP5 AND SWAP4 POP DUP1 DUP7 AND DUP5 OR SWAP3 POP POP POP SWAP4 SWAP3 POP POP POP JUMP JUMPDEST PUSH0 DUP2 SWAP1 POP SWAP2 SWAP1 POP JUMP JUMPDEST PUSH0 DUP2 SWAP1 POP SWAP2 SWAP1 POP JUMP JUMPDEST PUSH0 PUSH3 0x5C9 PUSH3 0x5C3 PUSH3 0x5BD DUP5 PUSH3 0x597 JUMP JUMPDEST PUSH3 0x5A0 JUMP JUMPDEST PUSH3 0x597 JUMP JUMPDEST SWAP1 POP SWAP2 SWAP1 POP JUMP JUMPDEST PUSH0 DUP2 SWAP1 POP SWAP2 SWAP1 POP JUMP JUMPDEST PUSH3 0x5E4 DUP4 PUSH3 0x5A9 JUMP JUMPDEST PUSH3 0x5FC PUSH3 0x5F3 DUP3 PUSH3 0x5D0 JUMP JUMPDEST DUP5 DUP5 SLOAD PUSH3 0x542 JUMP JUMPDEST DUP3 SSTORE POP POP POP POP JUMP JUMPDEST PUSH0 SWAP1 JUMP JUMPDEST PUSH3 0x612 PUSH3 0x604 JUMP JUMPDEST PUSH3 0x61F DUP2 DUP5 DUP5 PUSH3 0x5D9 JUMP JUMPDEST POP POP POP JUMP JUMPDEST JUMPDEST DUP2 DUP2 LT ISZERO PUSH3 0x646 JUMPI PUSH3 0x63A PUSH0 DUP3 PUSH3 0x608 JUMP JUMPDEST PUSH1 0x1 DUP2 ADD SWAP1 POP PUSH3 0x625 JUMP JUMPDEST POP POP JUMP JUMPDEST PUSH1 0x1F DUP3 GT ISZERO PUSH3 0x695 JUMPI PUSH3 0x65F DUP2 PUSH3 0x515 JUMP JUMPDEST PUSH3 0x66A DUP5 PUSH3 0x527 JUMP JUMPDEST DUP2 ADD PUSH1 0x20 DUP6 LT ISZERO PUSH3 0x67A JUMPI DUP2 SWAP1 POP JUMPDEST PUSH3 0x692 PUSH3 0x689 DUP6 PUSH3 0x527 JUMP JUMPDEST DUP4 ADD DUP3 PUSH3 0x624 JUMP JUMPDEST POP POP JUMPDEST POP POP POP JUMP JUMPDEST PUSH0 DUP3 DUP3 SHR SWAP1 POP SWAP3 SWAP2 POP POP JUMP JUMPDEST PUSH0 PUSH3 0x6B7 PUSH0 NOT DUP5 PUSH1 0x8 MUL PUSH3 0x69A JUMP JUMPDEST NOT DUP1 DUP4 AND SWAP2 POP POP SWAP3 SWAP2 POP POP JUMP JUMPDEST PUSH0 PUSH3 0x6D1 DUP4 DUP4 PUSH3 0x6A6 JUMP JUMPDEST SWAP2 POP DUP3 PUSH1 0x2 MUL DUP3 OR SWAP1 POP SWAP3 SWAP2 POP POP JUMP JUMPDEST PUSH3 0x6EC DUP3 PUSH3 0x4AA JUMP JUMPDEST PUSH8 0xFFFFFFFFFFFFFFFF DUP2 GT ISZERO PUSH3 0x708 JUMPI PUSH3 0x707 PUSH3 0x14D JUMP JUMPDEST JUMPDEST PUSH3 0x714 DUP3 SLOAD PUSH3 0x4E1 JUMP JUMPDEST PUSH3 0x721 DUP3 DUP3 DUP6 PUSH3 0x64A JUMP JUMPDEST PUSH0 PUSH1 0x20 SWAP1 POP PUSH1 0x1F DUP4 GT PUSH1 0x1 DUP2 EQ PUSH3 0x757 JUMPI PUSH0 DUP5 ISZERO PUSH3 0x742 JUMPI DUP3 DUP8 ADD MLOAD SWAP1 POP JUMPDEST PUSH3 0x74E DUP6 DUP3 PUSH3 0x6C4 JUMP JUMPDEST DUP7 SSTORE POP PUSH3 0x7BD JUMP JUMPDEST PUSH1 0x1F NOT DUP5 AND PUSH3 0x767 DUP7 PUSH3 0x515 JUMP JUMPDEST PUSH0 JUMPDEST DUP3 DUP2 LT ISZERO PUSH3 0x790 JUMPI DUP5 DUP10 ADD MLOAD DUP3 SSTORE PUSH1 0x1 DUP3 ADD SWAP2 POP PUSH1 0x20 DUP6 ADD SWAP5 POP PUSH1 0x20 DUP2 ADD SWAP1 POP PUSH3 0x769 JUMP JUMPDEST DUP7 DUP4 LT ISZERO PUSH3 0x7B0 JUMPI DUP5 DUP10 ADD MLOAD PUSH3 0x7AC PUSH1 0x1F DUP10 AND DUP3 PUSH3 0x6A6 JUMP JUMPDEST DUP4 SSTORE POP JUMPDEST PUSH1 0x1 PUSH1 0x2 DUP9 MUL ADD DUP9 SSTORE POP POP POP JUMPDEST POP POP POP POP POP POP JUMP JUMPDEST PUSH2 0x4E0 DUP1 PUSH3 0x7D3 PUSH0 CODECOPY PUSH0 RETURN INVALID PUSH1 0x80 PUSH1 0x40 MSTORE CALLVALUE DUP1 ISZERO PUSH2 0xF JUMPI PUSH0 DUP1 REVERT JUMPDEST POP PUSH1 0x4 CALLDATASIZE LT PUSH2 0x29 JUMPI PUSH0 CALLDATALOAD PUSH1 0xE0 SHR DUP1 PUSH4 0xDB65DBBB EQ PUSH2 0x2D JUMPI JUMPDEST PUSH0 DUP1 REVERT JUMPDEST PUSH2 0x35 PUSH2 0x4B JUMP JUMPDEST PUSH1 0x40 MLOAD PUSH2 0x42 SWAP2 SWAP1 PUSH2 0x42D JUMP JUMPDEST PUSH1 0x40 MLOAD DUP1 SWAP2 SUB SWAP1 RETURN JUMPDEST PUSH2 0x53 PUSH2 0x205 JUMP JUMPDEST PUSH1 0x40 MLOAD DUP1 PUSH1 0x60 ADD PUSH1 0x40 MSTORE DUP1 PUSH0 DUP1 SLOAD PUSH2 0x6A SWAP1 PUSH2 0x47A JUMP JUMPDEST DUP1 PUSH1 0x1F ADD PUSH1 0x20 DUP1 SWAP2 DIV MUL PUSH1 0x20 ADD PUSH1 0x40 MLOAD SWAP1 DUP2 ADD PUSH1 0x40 MSTORE DUP1 SWAP3 SWAP2 SWAP1 DUP2 DUP2 MSTORE PUSH1 0x20 ADD DUP3 DUP1 SLOAD PUSH2 0x96 SWAP1 PUSH2 0x47A JUMP JUMPDEST DUP1 ISZERO PUSH2 0xE1 JUMPI DUP1 PUSH1 0x1F LT PUSH2 0xB8 JUMPI PUSH2 0x100 DUP1 DUP4 SLOAD DIV MUL DUP4 MSTORE SWAP2 PUSH1 0x20 ADD SWAP2 PUSH2 0xE1 JUMP JUMPDEST DUP3 ADD SWAP2 SWAP1 PUSH0 MSTORE PUSH1 0x20 PUSH0 KECCAK256 SWAP1 JUMPDEST DUP2 SLOAD DUP2 MSTORE SWAP1 PUSH1 0x1 ADD SWAP1 PUSH1 0x20 ADD DUP1 DUP4 GT PUSH2 0xC4 JUMPI DUP3 SWAP1 SUB PUSH1 0x1F AND DUP3 ADD SWAP2 JUMPDEST POP POP POP POP POP DUP2 MSTORE PUSH1 0x20 ADD PUSH1 0x1 DUP1 SLOAD PUSH2 0xF8 SWAP1 PUSH2 0x47A JUMP JUMPDEST DUP1 PUSH1 0x1F ADD PUSH1 0x20 DUP1 SWAP2 DIV MUL PUSH1 0x20 ADD PUSH1 0x40 MLOAD SWAP1 DUP2 ADD PUSH1 0x40 MSTORE DUP1 SWAP3 SWAP2 SWAP1 DUP2 DUP2 MSTORE PUSH1 0x20 ADD DUP3 DUP1 SLOAD PUSH2 0x124 SWAP1 PUSH2 0x47A JUMP JUMPDEST DUP1 ISZERO PUSH2 0x16F JUMPI DUP1 PUSH1 0x1F LT PUSH2 0x146 JUMPI PUSH2 0x100 DUP1 DUP4 SLOAD DIV MUL DUP4 MSTORE SWAP2 PUSH1 0x20 ADD SWAP2 PUSH2 0x16F JUMP JUMPDEST DUP3 ADD SWAP2 SWAP1 PUSH0 MSTORE PUSH1 0x20 PUSH0 KECCAK256 SWAP1 JUMPDEST DUP2 SLOAD DUP2 MSTORE SWAP1 PUSH1 0x1 ADD SWAP1 PUSH1 0x20 ADD DUP1 DUP4 GT PUSH2 0x152 JUMPI DUP3 SWAP1 SUB PUSH1 0x1F AND DUP3 ADD SWAP2 JUMPDEST POP POP POP POP POP DUP2 MSTORE PUSH1 0x20 ADD PUSH1 0x2 DUP1 SLOAD DUP1 PUSH1 0x20 MUL PUSH1 0x20 ADD PUSH1 0x40 MLOAD SWAP1 DUP2 ADD PUSH1 0x40 MSTORE DUP1 SWAP3 SWAP2 SWAP1 DUP2 DUP2 MSTORE PUSH1 0x20 ADD DUP3 DUP1 SLOAD DUP1 ISZERO PUSH2 0x1F8 JUMPI PUSH1 0x20 MUL DUP3 ADD SWAP2 SWAP1 PUSH0 MSTORE PUSH1 0x20 PUSH0 KECCAK256 SWAP1 JUMPDEST DUP2 PUSH0 SWAP1 SLOAD SWAP1 PUSH2 0x100 EXP SWAP1 DIV PUSH20 0xFFFFFFFFFFFFFFFFFFFFFFFFFFFFFFFFFFFFFFFF AND PUSH20 0xFFFFFFFFFFFFFFFFFFFFFFFFFFFFFFFFFFFFFFFF AND DUP2 MSTORE PUSH1 0x20 ADD SWAP1 PUSH1 0x1 ADD SWAP1 DUP1 DUP4 GT PUSH2 0x1AF JUMPI JUMPDEST POP POP POP POP POP DUP2 MSTORE POP SWAP1 POP SWAP1 JUMP JUMPDEST PUSH1 0x40 MLOAD DUP1 PUSH1 0x60 ADD PUSH1 0x40 MSTORE DUP1 PUSH1 0x60 DUP2 MSTORE PUSH1 0x20 ADD PUSH1 0x60 DUP2 MSTORE PUSH1 0x20 ADD PUSH1 0x60 DUP2 MSTORE POP SWAP1 JUMP JUMPDEST PUSH0 DUP2 MLOAD SWAP1 POP SWAP2 SWAP1 POP JUMP JUMPDEST PUSH0 DUP3 DUP3 MSTORE PUSH1 0x20 DUP3 ADD SWAP1 POP SWAP3 SWAP2 POP POP JUMP JUMPDEST PUSH0 JUMPDEST DUP4 DUP2 LT ISZERO PUSH2 0x25D JUMPI DUP1 DUP3 ADD MLOAD DUP2 DUP5 ADD MSTORE PUSH1 0x20 DUP2 ADD SWAP1 POP PUSH2 0x242 JUMP JUMPDEST PUSH0 DUP5 DUP5 ADD MSTORE POP POP POP POP JUMP JUMPDEST PUSH0 PUSH1 0x1F NOT PUSH1 0x1F DUP4 ADD AND SWAP1 POP SWAP2 SWAP1 POP JUMP JUMPDEST PUSH0 PUSH2 0x282 DUP3 PUSH2 0x226 JUMP JUMPDEST PUSH2 0x28C DUP2 DUP6 PUSH2 0x230 JUMP JUMPDEST SWAP4 POP PUSH2 0x29C DUP2 DUP6 PUSH1 0x20 DUP7 ADD PUSH2 0x240 JUMP JUMPDEST PUSH2 0x2A5 DUP2 PUSH2 0x268 JUMP JUMPDEST DUP5 ADD SWAP2 POP POP SWAP3 SWAP2 POP POP JUMP JUMPDEST PUSH0 DUP2 MLOAD SWAP1 POP SWAP2 SWAP1 POP JUMP JUMPDEST PUSH0 DUP3 DUP3 MSTORE PUSH1 0x20 DUP3 ADD SWAP1 POP SWAP3 SWAP2 POP POP JUMP JUMPDEST PUSH0 DUP2 SWAP1 POP PUSH1 0x20 DUP3 ADD SWAP1 POP SWAP2 SWAP1 POP JUMP JUMPDEST PUSH0 PUSH20 0xFFFFFFFFFFFFFFFFFFFFFFFFFFFFFFFFFFFFFFFF DUP3 AND SWAP1 POP SWAP2 SWAP1 POP JUMP JUMPDEST PUSH0 DUP2 SWAP1 POP SWAP2 SWAP1 POP JUMP JUMPDEST PUSH0 PUSH2 0x31B PUSH2 0x316 PUSH2 0x311 DUP5 PUSH2 0x2D9 JUMP JUMPDEST PUSH2 0x2F8 JUMP JUMPDEST PUSH2 0x2D9 JUMP JUMPDEST SWAP1 POP SWAP2 SWAP1 POP JUMP JUMPDEST PUSH0 PUSH2 0x32C DUP3 PUSH2 0x301 JUMP JUMPDEST SWAP1 POP SWAP2 SWAP1 POP JUMP JUMPDEST PUSH0 PUSH2 0x33D DUP3 PUSH2 0x322 JUMP JUMPDEST SWAP1 POP SWAP2 SWAP1 POP JUMP JUMPDEST PUSH2 0x34D DUP2 PUSH2 0x333 JUMP JUMPDEST DUP3 MSTORE POP POP JUMP JUMPDEST PUSH0 PUSH2 0x35E DUP4 DUP4 PUSH2 0x344 JUMP JUMPDEST PUSH1 0x20 DUP4 ADD SWAP1 POP SWAP3 SWAP2 POP POP JUMP JUMPDEST PUSH0 PUSH1 0x20 DUP3 ADD SWAP1 POP SWAP2 SWAP1 POP JUMP JUMPDEST PUSH0 PUSH2 0x380 DUP3 PUSH2 0x2B0 JUMP JUMPDEST PUSH2 0x38A DUP2 DUP6 PUSH2 0x2BA JUMP JUMPDEST SWAP4 POP PUSH2 0x395 DUP4 PUSH2 0x2CA JUMP JUMPDEST DUP1 PUSH0 JUMPDEST DUP4 DUP2 LT ISZERO PUSH2 0x3C5 JUMPI DUP2 MLOAD PUSH2 0x3AC DUP9 DUP3 PUSH2 0x353 JUMP JUMPDEST SWAP8 POP PUSH2 0x3B7 DUP4 PUSH2 0x36A JUMP JUMPDEST SWAP3 POP POP PUSH1 0x1 DUP2 ADD SWAP1 POP PUSH2 0x398 JUMP JUMPDEST POP DUP6 SWAP4 POP POP POP POP SWAP3 SWAP2 POP POP JUMP JUMPDEST PUSH0 PUSH1 0x60 DUP4 ADD PUSH0 DUP4 ADD MLOAD DUP5 DUP3 SUB PUSH0 DUP7 ADD MSTORE PUSH2 0x3EC DUP3 DUP3 PUSH2 0x278 JUMP JUMPDEST SWAP2 POP POP PUSH1 0x20 DUP4 ADD MLOAD DUP5 DUP3 SUB PUSH1 0x20 DUP7 ADD MSTORE PUSH2 0x406 DUP3 DUP3 PUSH2 0x278 JUMP JUMPDEST SWAP2 POP POP PUSH1 0x40 DUP4 ADD MLOAD DUP5 DUP3 SUB PUSH1 0x40 DUP7 ADD MSTORE PUSH2 0x420 DUP3 DUP3 PUSH2 0x376 JUMP JUMPDEST SWAP2 POP POP DUP1 SWAP2 POP POP SWAP3 SWAP2 POP POP JUMP JUMPDEST PUSH0 PUSH1 0x20 DUP3 ADD SWAP1 POP DUP2 DUP2 SUB PUSH0 DUP4 ADD MSTORE PUSH2 0x445 DUP2 DUP5 PUSH2 0x3D2 JUMP JUMPDEST SWAP1 POP SWAP3 SWAP2 POP POP JUMP JUMPDEST PUSH32 0x4E487B7100000000000000000000000000000000000000000000000000000000 PUSH0 MSTORE PUSH1 0x22 PUSH1 0x4 MSTORE PUSH1 0x24 PUSH0 REVERT JUMPDEST PUSH0 PUSH1 0x2 DUP3 DIV SWAP1 POP PUSH1 0x1 DUP3 AND DUP1 PUSH2 0x491 JUMPI PUSH1 0x7F DUP3 AND SWAP2 POP JUMPDEST PUSH1 0x20 DUP3 LT DUP2 SUB PUSH2 0x4A4 JUMPI PUSH2 0x4A3 PUSH2 0x44D JUMP JUMPDEST JUMPDEST POP SWAP2 SWAP1 POP JUMP INVALID LOG2 PUSH5 0x6970667358 0x22 SLT KECCAK256 SELFDESTRUCT EXP SHR ORIGIN XOR GT EXTCODESIZE PUSH21 0x15F9A5B20401758725338A78F3B7E144BA79704517 0xED PUSH26 0x4764736F6C634300081400330000000000000000000000000000 "
		},
		"gasEstimates": {
			"creation": {
				"codeDepositCost": "249600",
				"executionCost": "infinite",
				"totalCost": "infinite"
			},
			"external": {
				"getSingleBigPicture()": "infinite"
			}
		},
		"methodIdentifiers": {
			"getSingleBigPicture()": "db65dbbb"
		}
	},
	"abi": [
		{
			"inputs": [
				{
					"internalType": "string",
					"name": "_name",
					"type": "string"
				},
				{
					"internalType": "string",
					"name": "_image",
					"type": "string"
				},
				{
					"internalType": "contract Picture[]",
					"name": "_picturePart",
					"type": "address[]"
				}
			],
			"stateMutability": "nonpayable",
			"type": "constructor"
		},
		{
			"inputs": [],
			"name": "getSingleBigPicture",
			"outputs": [
				{
					"components": [
						{
							"internalType": "string",
							"name": "name",
							"type": "string"
						},
						{
							"internalType": "string",
							"name": "image",
							"type": "string"
						},
						{
							"internalType": "contract Picture[]",
							"name": "picturePart",
							"type": "address[]"
						}
					],
					"internalType": "struct BigPictureData",
					"name": "",
					"type": "tuple"
				}
			],
			"stateMutability": "view",
			"type": "function"
		}
	]
}