{
	"data": {
		"bytecode": {
			"linkReferences": {},
			"object": "60a0604052600a80546001600160401b0319166401000493e017905534801562000027575f80fd5b5060405162002e1838038062002e188339810160408190526200004a916200040f565b604080518082018252601281527121b7b63632b1ba26b0b9ba32b92a37b5b2b760711b6020808301919091528251808401909352600383526210d35560ea1b9083015273da8c0a00a372503aa6ec80f9b29cc97c454be49960805233915f620000b48382620005d9565b506001620000c38282620005d9565b5050506001600160a01b038116620000f457604051631e4fbdf760e01b81525f600482015260240160405180910390fd5b620000ff8162000203565b50600880546001600160e01b0319167486da8c0a00a372503aa6ec80f9b29cc97c454be4991790557fd9af33106d664a53cb9946df5cd81a30695f5b72224ee64e798b278af812779c600955600f620001598782620005d9565b506010620001688682620005d9565b5083516200017e90601190602087019062000254565b5060128390556013829055601480546001600160a01b0319166001600160a01b0383169081179091556040516362b706ef60e11b815230600482015263c56e0dde906024015f604051808303815f87803b158015620001db575f80fd5b505af1158015620001ee573d5f803e3d5ffd5b50505f600b5550620006a59650505050505050565b600780546001600160a01b038381166001600160a01b0319831681179093556040519116919082907f8be0079c531659141344cd1fd0a4f28419497f9722a3daafe3b4186f6b6457e0905f90a35050565b828054828255905f5260205f209081019282156200029d579160200282015b828111156200029d57825182906200028c9082620005d9565b509160200191906001019062000273565b50620002ab929150620002af565b5090565b80821115620002ab575f620002c58282620002cf565b50600101620002af565b508054620002dd906200054f565b5f825580601f10620002ed575050565b601f0160209004905f5260205f20908101906200030b91906200030e565b50565b5b80821115620002ab575f81556001016200030f565b634e487b7160e01b5f52604160045260245ffd5b604051601f8201601f191681016001600160401b038111828210171562000363576200036362000324565b604052919050565b5f82601f8301126200037b575f80fd5b81516001600160401b0381111562000397576200039762000324565b6020620003ad601f8301601f1916820162000338565b8281528582848701011115620003c1575f80fd5b5f5b83811015620003e0578581018301518282018401528201620003c3565b505f928101909101919091529392505050565b80516001600160a01b03811681146200040a575f80fd5b919050565b5f805f805f8060c0878903121562000425575f80fd5b86516001600160401b03808211156200043c575f80fd5b6200044a8a838b016200036b565b9750602089015191508082111562000460575f80fd5b6200046e8a838b016200036b565b9650604089015191508082111562000484575f80fd5b818901915089601f83011262000498575f80fd5b815181811115620004ad57620004ad62000324565b8060051b620004bf6020820162000338565b9182526020818501810192908101908d841115620004db575f80fd5b6020860192505b838310156200051e57825185811115620004fa575f80fd5b6200050b8f6020838a01016200036b565b83525060209283019290910190620004e2565b80995050505050505060608701519250608087015191506200054360a08801620003f3565b90509295509295509295565b600181811c908216806200056457607f821691505b6020821081036200058357634e487b7160e01b5f52602260045260245ffd5b50919050565b601f821115620005d457805f5260205f20601f840160051c81016020851015620005b05750805b601f840160051c820191505b81811015620005d1575f8155600101620005bc565b50505b505050565b81516001600160401b03811115620005f557620005f562000324565b6200060d816200060684546200054f565b8462000589565b602080601f83116001811462000643575f84156200062b5750858301515b5f19600386901b1c1916600185901b1785556200069d565b5f85815260208120601f198616915b82811015620006735788860151825594840194600190910190840162000652565b50858210156200069157878501515f19600388901b60f8161c191681555b505060018460011b0185555b505050505050565b608051612753620006c55f395f8181610841015261088301526127535ff3fe608060405260043610610235575f3560e01c8063818e9be011610129578063c87b56dd116100a8578063dc2337e21161006d578063dc2337e214610683578063e0c8628914610698578063e985e9c5146106ac578063f2fde38b146106cb578063f3ccaac0146106ea575f80fd5b8063c87b56dd146105f1578063cb3cbb4614610610578063cc3bbb201461062f578063d4ddce8a14610637578063db65dbbb14610662575f80fd5b8063b43a76f1116100ee578063b43a76f114610553578063b88d4fde14610581578063bd81093a146105a0578063c2db2c42146105bf578063c45a0155146105d2575f80fd5b8063818e9be0146104cf5780638da5cb5b146104e457806395d89b4114610501578063a22cb46514610515578063ae9d010c14610534575f80fd5b806342842e0e116101b55780636817c76c1161017a5780636817c76c1461044757806370a082311461045c578063715018a61461047b57806379b52af01461048f5780637b9120e8146104b0575f80fd5b806342842e0e146103925780634a60f620146103b157806357ad8071146103d45780636352211e146103e857806365af379814610407575f80fd5b80631fe543e3116101fb5780631fe543e3146102f557806322c5dec71461031457806323b872dd14610333578063293d35e2146103525780633afc58a614610371575f80fd5b8062c0e60a1461024057806301ffc9a71461024a57806306fdde031461027e578063081812fc1461029f578063095ea7b3146102d6575f80fd5b3661023c57005b5f80fd5b6102486106fe565b005b348015610255575f80fd5b50610269610264366004611e8d565b610747565b60405190151581526020015b60405180910390f35b348015610289575f80fd5b50610292610771565b6040516102759190611ef5565b3480156102aa575f80fd5b506102be6102b9366004611f07565b610800565b6040516001600160a01b039091168152602001610275565b3480156102e1575f80fd5b506102486102f0366004611f39565b610827565b348015610300575f80fd5b5061024861030f366004611ff2565b610836565b34801561031f575f80fd5b506015546102be906001600160a01b031681565b34801561033e575f80fd5b5061024861034d36600461208f565b6108bf565b34801561035d575f80fd5b5061024861036c3660046120c8565b610948565b34801561037c575f80fd5b5061038561097c565b60405161027591906120e1565b34801561039d575f80fd5b506102486103ac36600461208f565b610a44565b3480156103bc575f80fd5b506103c6600c5481565b604051908152602001610275565b3480156103df575f80fd5b50610292610a63565b3480156103f3575f80fd5b506102be610402366004611f07565b610aef565b348015610412575f80fd5b5061024861042136600461218e565b5f918252600d60209081526040808420805460ff19166001179055600e90915290912055565b348015610452575f80fd5b506103c660135481565b348015610467575f80fd5b506103c66104763660046120c8565b610af9565b348015610486575f80fd5b50610248610b3e565b34801561049a575f80fd5b506104a3610b51565b60405161027591906121ae565b3480156104bb575f80fd5b506102be6104ca366004611f07565b610c96565b3480156104da575f80fd5b506103c660125481565b3480156104ef575f80fd5b506007546001600160a01b03166102be565b34801561050c575f80fd5b50610292610cc3565b348015610520575f80fd5b5061024861052f36600461222d565b610cd2565b34801561053f575f80fd5b506104a361054e3660046120c8565b610cdd565b34801561055e575f80fd5b5061026961056d366004611f07565b600d6020525f908152604090205460ff1681565b34801561058c575f80fd5b5061024861059b366004612266565b610e0c565b3480156105ab575f80fd5b506102926105ba366004611f07565b610e23565b6102486105cd366004611f07565b610e4a565b3480156105dd575f80fd5b506014546102be906001600160a01b031681565b3480156105fc575f80fd5b5061029261060b366004611f07565b610ef6565b34801561061b575f80fd5b5061024861062a36600461231f565b611001565b610248611092565b348015610642575f80fd5b506103c6610651366004611f07565b600e6020525f908152604090205481565b34801561066d575f80fd5b506106766111dc565b60405161027591906123f5565b34801561068e575f80fd5b506103c6600b5481565b3480156106a3575f80fd5b506103c6611436565b3480156106b7575f80fd5b506102696106c63660046124bd565b6114e0565b3480156106d6575f80fd5b506102486106e53660046120c8565b61150d565b3480156106f5575f80fd5b50610292611547565b601580546001600160a01b03191633179055601354604051309180156108fc02915f818181858888f1935050505015801561073b573d5f803e3d5ffd5b50610744611436565b50565b5f6001600160e01b03198216632483248360e11b148061076b575061076b82611554565b92915050565b60605f805461077f906124ee565b80601f01602080910402602001604051908101604052809291908181526020018280546107ab906124ee565b80156107f65780601f106107cd576101008083540402835291602001916107f6565b820191905f5260205f20905b8154815290600101906020018083116107d957829003601f168201915b5050505050905090565b5f61080a826115a3565b505f828152600460205260409020546001600160a01b031661076b565b6108328282336115db565b5050565b336001600160a01b037f000000000000000000000000000000000000000000000000000000000000000016146108b55760405163073e64fd60e21b81523360048201526001600160a01b037f00000000000000000000000000000000000000000000000000000000000000001660248201526044015b60405180910390fd5b61083282826115e8565b6001600160a01b0382166108e857604051633250574960e11b81525f60048201526024016108ac565b5f6108f483833361167c565b9050836001600160a01b0316816001600160a01b031614610942576040516364283d7b60e01b81526001600160a01b03808616600483015260248201849052821660448201526064016108ac565b50505050565b6012546040516001600160a01b0383169180156108fc02915f818181858888f19350505050158015610832573d5f803e3d5ffd5b60606016805480602002602001604051908101604052809291908181526020015f905b82821015610a3b575f8481526020908190206040805180820182526002860290920180546001600160a01b03168352600181018054835181870281018701909452808452939491938583019392830182828015610a2357602002820191905f5260205f20905b81546001600160a01b03168152600190910190602001808311610a05575b5050505050815250508152602001906001019061099f565b50505050905090565b610a5e83838360405180602001604052805f815250610e0c565b505050565b600f8054610a70906124ee565b80601f0160208091040260200160405190810160405280929190818152602001828054610a9c906124ee565b8015610ae75780601f10610abe57610100808354040283529160200191610ae7565b820191905f5260205f20905b815481529060010190602001808311610aca57829003601f168201915b505050505081565b5f61076b826115a3565b5f6001600160a01b038216610b23576040516322718ad960e21b81525f60048201526024016108ac565b506001600160a01b03165f9081526003602052604090205490565b610b4661176e565b610b4f5f61179b565b565b60605f600c5467ffffffffffffffff811115610b6f57610b6f611f61565b604051908082528060200260200182016040528015610bca57816020015b610bb760405180608001604052805f8152602001606081526020015f151581526020015f81525090565b815260200190600190039081610b8d5790505b5090505f805b600c54811015610c8e575f818152600d602052604090205460ff1615156001148015610c0d575033610c0182610aef565b6001600160a01b031614155b15610c86576040518060800160405280828152602001610c2c83610ef6565b81525f838152600d602090815260408083205460ff16151582850152858352600e90915290819020549101528351849084908110610c6c57610c6c612526565b60200260200101819052508180610c829061253a565b9250505b600101610bd0565b508152919050565b60168181548110610ca5575f80fd5b5f9182526020909120600290910201546001600160a01b0316905081565b60606001805461077f906124ee565b6108323383836117ec565b60605f600c5467ffffffffffffffff811115610cfb57610cfb611f61565b604051908082528060200260200182016040528015610d5657816020015b610d4360405180608001604052805f8152602001606081526020015f151581526020015f81525090565b815260200190600190039081610d195790505b5090505f805b600c54811015610e0357846001600160a01b0316610d7982610aef565b6001600160a01b031603610dfb576040518060800160405280828152602001610da183610ef6565b81525f838152600d602090815260408083205460ff16151582850152858352600e90915290819020549101528351849084908110610de157610de1612526565b60200260200101819052508180610df79061253a565b9250505b600101610d5c565b50815292915050565b610e178484846108bf565b6109428484848461188a565b60118181548110610e32575f80fd5b905f5260205f20015f915090508054610a70906124ee565b5f818152600e6020526040808220549051339282156108fc02929190818181858888f19350505050158015610e81573d5f803e3d5ffd5b50610e8b81610aef565b5f828152600e60205260408082205490516001600160a01b03939093169281156108fc0292818181858888f19350505050158015610ecb573d5f803e3d5ffd5b50610edf33610ed983610aef565b836108bf565b5f908152600d60205260409020805460ff19169055565b6060610f01826115a3565b505f8281526006602052604081208054610f1a906124ee565b80601f0160208091040260200160405190810160405280929190818152602001828054610f46906124ee565b8015610f915780601f10610f6857610100808354040283529160200191610f91565b820191905f5260205f20905b815481529060010190602001808311610f7457829003601f168201915b505050505090505f610fad60408051602081019091525f815290565b905080515f03610fbe575092915050565b815115610ff0578082604051602001610fd892919061255e565b60405160208183030381529060405292505050919050565b610ff9846119b0565b949350505050565b601680546001810182555f9190915281517fd833147d7dc355ba459fc788f669e58cfaf9dc25ddcd0702e87d69c7b5124289600290920291820180546001600160a01b0319166001600160a01b0390921691909117815560208084015180518594610942937fd833147d7dc355ba459fc788f669e58cfaf9dc25ddcd0702e87d69c7b512428a909101920190611e01565b601580546001600160a01b03191633179055601354604051309180156108fc02915f818181858888f193505050501580156110cf573d5f803e3d5ffd5b505f5b60115481101561074457600c80545f91826110ec8361253a565b90915550601554909150611109906001600160a01b031682611a21565b6111b4816011848154811061112057611120612526565b905f5260205f20018054611133906124ee565b80601f016020809104026020016040519081016040528092919081815260200182805461115f906124ee565b80156111aa5780601f10611181576101008083540402835291602001916111aa565b820191905f5260205f20905b81548152906001019060200180831161118d57829003601f168201915b5050505050611a82565b5f908152600d60209081526040808320805460ff19169055600e9091528120556001016110d2565b61121b6040518060c001604052805f6001600160a01b031681526020016060815260200160608152602001606081526020015f81526020015f81525090565b6040518060c00160405280306001600160a01b03168152602001600f8054611242906124ee565b80601f016020809104026020016040519081016040528092919081815260200182805461126e906124ee565b80156112b95780601f10611290576101008083540402835291602001916112b9565b820191905f5260205f20905b81548152906001019060200180831161129c57829003601f168201915b50505050508152602001601080546112d0906124ee565b80601f01602080910402602001604051908101604052809291908181526020018280546112fc906124ee565b80156113475780601f1061131e57610100808354040283529160200191611347565b820191905f5260205f20905b81548152906001019060200180831161132a57829003601f168201915b505050505081526020016011805480602002602001604051908101604052809291908181526020015f905b8282101561141a578382905f5260205f2001805461138f906124ee565b80601f01602080910402602001604051908101604052809291908181526020018280546113bb906124ee565b80156114065780601f106113dd57610100808354040283529160200191611406565b820191905f5260205f20905b8154815290600101906020018083116113e957829003601f168201915b505050505081526020019060010190611372565b5050505081526020016012548152602001601354815250905090565b600854600954600a54604051632f34077b60e01b81526004810192909252600160a01b830467ffffffffffffffff16602483015263ffffffff80821660448401526401000000009091041660648201525f916001600160a01b031690632f34077b906084016020604051808303815f875af11580156114b7573d5f803e3d5ffd5b505050506040513d601f19601f820116820180604052508101906114db919061258c565b905090565b6001600160a01b039182165f90815260056020908152604080832093909416825291909152205460ff1690565b61151561176e565b6001600160a01b03811661153e57604051631e4fbdf760e01b81525f60048201526024016108ac565b6107448161179b565b60108054610a70906124ee565b5f6001600160e01b031982166380ac58cd60e01b148061158457506001600160e01b03198216635b5e139f60e01b145b8061076b57506301ffc9a760e01b6001600160e01b031983161461076b565b5f818152600260205260408120546001600160a01b03168061076b57604051637e27328960e01b8152600481018490526024016108ac565b610a5e8383836001611ad1565b601154815182905f906115fd576115fd612526565b602002602001015161160f91906125a3565b600b55600c80545f91826116228361253a565b9091555060155490915061163f906001600160a01b031682611a21565b611658816011600b548154811061112057611120612526565b5f908152600d60209081526040808320805460ff19169055600e9091528120555050565b5f828152600260205260408120546001600160a01b03908116908316156116a8576116a8818486611bd5565b6001600160a01b038116156116e2576116c35f855f80611ad1565b6001600160a01b0381165f90815260036020526040902080545f190190555b6001600160a01b03851615611710576001600160a01b0385165f908152600360205260409020805460010190555b5f8481526002602052604080822080546001600160a01b0319166001600160a01b0389811691821790925591518793918516917fddf252ad1be2c89b69c2b068fc378daa952ba7f163c4a11628f55a4df523b3ef91a4949350505050565b6007546001600160a01b03163314610b4f5760405163118cdaa760e01b81523360048201526024016108ac565b600780546001600160a01b038381166001600160a01b0319831681179093556040519116919082907f8be0079c531659141344cd1fd0a4f28419497f9722a3daafe3b4186f6b6457e0905f90a35050565b6001600160a01b03821661181e57604051630b61174360e31b81526001600160a01b03831660048201526024016108ac565b6001600160a01b038381165f81815260056020908152604080832094871680845294825291829020805460ff191686151590811790915591519182527f17307eab39ab6107e8899845ad3d59bd9653f200f220920489ca2b5937696c31910160405180910390a3505050565b6001600160a01b0383163b1561094257604051630a85bd0160e11b81526001600160a01b0384169063150b7a02906118cc9033908890879087906004016125c2565b6020604051808303815f875af1925050508015611906575060408051601f3d908101601f19168201909252611903918101906125fe565b60015b61196d573d808015611933576040519150601f19603f3d011682016040523d82523d5f602084013e611938565b606091505b5080515f0361196557604051633250574960e11b81526001600160a01b03851660048201526024016108ac565b805181602001fd5b6001600160e01b03198116630a85bd0160e11b146119a957604051633250574960e11b81526001600160a01b03851660048201526024016108ac565b5050505050565b60606119bb826115a3565b505f6119d160408051602081019091525f815290565b90505f8151116119ef5760405180602001604052805f815250611a1a565b806119f984611c39565b604051602001611a0a92919061255e565b6040516020818303038152906040525b9392505050565b6001600160a01b038216611a4a57604051633250574960e11b81525f60048201526024016108ac565b5f611a5683835f61167c565b90506001600160a01b03811615610a5e576040516339e3563760e11b81525f60048201526024016108ac565b5f828152600660205260409020611a99828261265d565b506040518281527ff8e1a15aba9398e019f0b49df1a4fde98ee17ae345cb5f6b5e2c27f5033e8ce79060200160405180910390a15050565b8080611ae557506001600160a01b03821615155b15611ba6575f611af4846115a3565b90506001600160a01b03831615801590611b205750826001600160a01b0316816001600160a01b031614155b8015611b335750611b3181846114e0565b155b15611b5c5760405163a9fbf51f60e01b81526001600160a01b03841660048201526024016108ac565b8115611ba45783856001600160a01b0316826001600160a01b03167f8c5be1e5ebec7d5bd14f71427d1e84f3dd0314c0f7b2291e5b200ac8c7c3b92560405160405180910390a45b505b50505f90815260046020526040902080546001600160a01b0319166001600160a01b0392909216919091179055565b611be0838383611cc9565b610a5e576001600160a01b038316611c0e57604051637e27328960e01b8152600481018290526024016108ac565b60405163177e802f60e01b81526001600160a01b0383166004820152602481018290526044016108ac565b60605f611c4583611d2a565b60010190505f8167ffffffffffffffff811115611c6457611c64611f61565b6040519080825280601f01601f191660200182016040528015611c8e576020820181803683370190505b5090508181016020015b5f19016f181899199a1a9b1b9c1cb0b131b232b360811b600a86061a8153600a8504945084611c9857509392505050565b5f6001600160a01b03831615801590610ff95750826001600160a01b0316846001600160a01b03161480611d025750611d0284846114e0565b80610ff95750505f908152600460205260409020546001600160a01b03908116911614919050565b5f8072184f03e93ff9f4daa797ed6e38ed64bf6a1f0160401b8310611d685772184f03e93ff9f4daa797ed6e38ed64bf6a1f0160401b830492506040015b6d04ee2d6d415b85acef81000000008310611d94576d04ee2d6d415b85acef8100000000830492506020015b662386f26fc100008310611db257662386f26fc10000830492506010015b6305f5e1008310611dca576305f5e100830492506008015b6127108310611dde57612710830492506004015b60648310611df0576064830492506002015b600a831061076b5760010192915050565b828054828255905f5260205f20908101928215611e54579160200282015b82811115611e5457825182546001600160a01b0319166001600160a01b03909116178255602090920191600190910190611e1f565b50611e60929150611e64565b5090565b5b80821115611e60575f8155600101611e65565b6001600160e01b031981168114610744575f80fd5b5f60208284031215611e9d575f80fd5b8135611a1a81611e78565b5f5b83811015611ec2578181015183820152602001611eaa565b50505f910152565b5f8151808452611ee1816020860160208601611ea8565b601f01601f19169290920160200192915050565b602081525f611a1a6020830184611eca565b5f60208284031215611f17575f80fd5b5035919050565b80356001600160a01b0381168114611f34575f80fd5b919050565b5f8060408385031215611f4a575f80fd5b611f5383611f1e565b946020939093013593505050565b634e487b7160e01b5f52604160045260245ffd5b6040805190810167ffffffffffffffff81118282101715611f9857611f98611f61565b60405290565b604051601f8201601f1916810167ffffffffffffffff81118282101715611fc757611fc7611f61565b604052919050565b5f67ffffffffffffffff821115611fe857611fe8611f61565b5060051b60200190565b5f8060408385031215612003575f80fd5b8235915060208084013567ffffffffffffffff811115612021575f80fd5b8401601f81018613612031575f80fd5b803561204461203f82611fcf565b611f9e565b81815260059190911b82018301908381019088831115612062575f80fd5b928401925b8284101561208057833582529284019290840190612067565b80955050505050509250929050565b5f805f606084860312156120a1575f80fd5b6120aa84611f1e565b92506120b860208501611f1e565b9150604084013590509250925092565b5f602082840312156120d8575f80fd5b611a1a82611f1e565b5f60208083018184528085518083526040925060408601915060408160051b8701018488015f5b8381101561218057888303603f19018552815180516001600160a01b039081168552908801518885018890528051888601819052908901915f9160608701905b8084101561216a57845183168252938b019360019390930192908b0190612148565b50978a0197955050509187019150600101612108565b509098975050505050505050565b5f806040838503121561219f575f80fd5b50508035926020909101359150565b5f60208083018184528085518083526040925060408601915060408160051b8701018488015f5b8381101561218057603f19898403018552815160808151855288820151818a87015261220382870182611eca565b838a01511515878b01526060938401519390960192909252505093860193908601906001016121d5565b5f806040838503121561223e575f80fd5b61224783611f1e565b91506020830135801515811461225b575f80fd5b809150509250929050565b5f805f8060808587031215612279575f80fd5b61228285611f1e565b93506020612291818701611f1e565b935060408601359250606086013567ffffffffffffffff808211156122b4575f80fd5b818801915088601f8301126122c7575f80fd5b8135818111156122d9576122d9611f61565b6122eb601f8201601f19168501611f9e565b91508082528984828501011115612300575f80fd5b80848401858401375f8482840101525080935050505092959194509250565b5f6020808385031215612330575f80fd5b823567ffffffffffffffff80821115612347575f80fd5b908401906040828703121561235a575f80fd5b612362611f75565b61236b83611f1e565b8152838301358281111561237d575f80fd5b80840193505086601f840112612391575f80fd5b823591506123a161203f83611fcf565b82815260059290921b830184019184810190888411156123bf575f80fd5b938501935b838510156123e4576123d585611f1e565b825293850193908501906123c4565b948201949094529695505050505050565b602080825282516001600160a01b0316828201528281015160c060408401525f919061242460e0850182611eca565b90506040850151601f19808684030160608701526124428383611eca565b60608801518782038301608089015280518083529194508501925084840190600581901b850186015f5b828110156124985784878303018452612486828751611eca565b9588019593880193915060010161246c565b5060808a015160a08a015260a08a015160c08a01528097505050505050505092915050565b5f80604083850312156124ce575f80fd5b6124d783611f1e565b91506124e560208401611f1e565b90509250929050565b600181811c9082168061250257607f821691505b60208210810361252057634e487b7160e01b5f52602260045260245ffd5b50919050565b634e487b7160e01b5f52603260045260245ffd5b5f6001820161255757634e487b7160e01b5f52601160045260245ffd5b5060010190565b5f835161256f818460208801611ea8565b835190830190612583818360208801611ea8565b01949350505050565b5f6020828403121561259c575f80fd5b5051919050565b5f826125bd57634e487b7160e01b5f52601260045260245ffd5b500690565b6001600160a01b03858116825284166020820152604081018390526080606082018190525f906125f490830184611eca565b9695505050505050565b5f6020828403121561260e575f80fd5b8151611a1a81611e78565b601f821115610a5e57805f5260205f20601f840160051c8101602085101561263e5750805b601f840160051c820191505b818110156119a9575f815560010161264a565b815167ffffffffffffffff81111561267757612677611f61565b61268b8161268584546124ee565b84612619565b602080601f8311600181146126be575f84156126a75750858301515b5f19600386901b1c1916600185901b178555612715565b5f85815260208120601f198616915b828110156126ec578886015182559484019460019091019084016126cd565b508582101561270957878501515f19600388901b60f8161c191681555b505060018460011b0185555b50505050505056fea264697066735822122070a4652a1c297045e723b1d49fd6c9e83fa0d0ca8c71e4498ef0dc2391b7ba3764736f6c63430008160033",
			"opcodes": "PUSH1 0xA0 PUSH1 0x40 MSTORE PUSH1 0xA DUP1 SLOAD PUSH1 0x1 PUSH1 0x1 PUSH1 0x40 SHL SUB NOT AND PUSH5 0x1000493E0 OR SWAP1 SSTORE CALLVALUE DUP1 ISZERO PUSH3 0x27 JUMPI PUSH0 DUP1 REVERT JUMPDEST POP PUSH1 0x40 MLOAD PUSH3 0x2E18 CODESIZE SUB DUP1 PUSH3 0x2E18 DUP4 CODECOPY DUP2 ADD PUSH1 0x40 DUP2 SWAP1 MSTORE PUSH3 0x4A SWAP2 PUSH3 0x40F JUMP JUMPDEST PUSH1 0x40 DUP1 MLOAD DUP1 DUP3 ADD DUP3 MSTORE PUSH1 0x12 DUP2 MSTORE PUSH18 0x21B7B63632B1BA26B0B9BA32B92A37B5B2B7 PUSH1 0x71 SHL PUSH1 0x20 DUP1 DUP4 ADD SWAP2 SWAP1 SWAP2 MSTORE DUP3 MLOAD DUP1 DUP5 ADD SWAP1 SWAP4 MSTORE PUSH1 0x3 DUP4 MSTORE PUSH3 0x10D355 PUSH1 0xEA SHL SWAP1 DUP4 ADD MSTORE PUSH20 0xDA8C0A00A372503AA6EC80F9B29CC97C454BE499 PUSH1 0x80 MSTORE CALLER SWAP2 PUSH0 PUSH3 0xB4 DUP4 DUP3 PUSH3 0x5D9 JUMP JUMPDEST POP PUSH1 0x1 PUSH3 0xC3 DUP3 DUP3 PUSH3 0x5D9 JUMP JUMPDEST POP POP POP PUSH1 0x1 PUSH1 0x1 PUSH1 0xA0 SHL SUB DUP2 AND PUSH3 0xF4 JUMPI PUSH1 0x40 MLOAD PUSH4 0x1E4FBDF7 PUSH1 0xE0 SHL DUP2 MSTORE PUSH0 PUSH1 0x4 DUP3 ADD MSTORE PUSH1 0x24 ADD PUSH1 0x40 MLOAD DUP1 SWAP2 SUB SWAP1 REVERT JUMPDEST PUSH3 0xFF DUP2 PUSH3 0x203 JUMP JUMPDEST POP PUSH1 0x8 DUP1 SLOAD PUSH1 0x1 PUSH1 0x1 PUSH1 0xE0 SHL SUB NOT AND PUSH21 0x86DA8C0A00A372503AA6EC80F9B29CC97C454BE499 OR SWAP1 SSTORE PUSH32 0xD9AF33106D664A53CB9946DF5CD81A30695F5B72224EE64E798B278AF812779C PUSH1 0x9 SSTORE PUSH1 0xF PUSH3 0x159 DUP8 DUP3 PUSH3 0x5D9 JUMP JUMPDEST POP PUSH1 0x10 PUSH3 0x168 DUP7 DUP3 PUSH3 0x5D9 JUMP JUMPDEST POP DUP4 MLOAD PUSH3 0x17E SWAP1 PUSH1 0x11 SWAP1 PUSH1 0x20 DUP8 ADD SWAP1 PUSH3 0x254 JUMP JUMPDEST POP PUSH1 0x12 DUP4 SWAP1 SSTORE PUSH1 0x13 DUP3 SWAP1 SSTORE PUSH1 0x14 DUP1 SLOAD PUSH1 0x1 PUSH1 0x1 PUSH1 0xA0 SHL SUB NOT AND PUSH1 0x1 PUSH1 0x1 PUSH1 0xA0 SHL SUB DUP4 AND SWAP1 DUP2 OR SWAP1 SWAP2 SSTORE PUSH1 0x40 MLOAD PUSH4 0x62B706EF PUSH1 0xE1 SHL DUP2 MSTORE ADDRESS PUSH1 0x4 DUP3 ADD MSTORE PUSH4 0xC56E0DDE SWAP1 PUSH1 0x24 ADD PUSH0 PUSH1 0x40 MLOAD DUP1 DUP4 SUB DUP2 PUSH0 DUP8 DUP1 EXTCODESIZE ISZERO DUP1 ISZERO PUSH3 0x1DB JUMPI PUSH0 DUP1 REVERT JUMPDEST POP GAS CALL ISZERO DUP1 ISZERO PUSH3 0x1EE JUMPI RETURNDATASIZE PUSH0 DUP1 RETURNDATACOPY RETURNDATASIZE PUSH0 REVERT JUMPDEST POP POP PUSH0 PUSH1 0xB SSTORE POP PUSH3 0x6A5 SWAP7 POP POP POP POP POP POP POP JUMP JUMPDEST PUSH1 0x7 DUP1 SLOAD PUSH1 0x1 PUSH1 0x1 PUSH1 0xA0 SHL SUB DUP4 DUP2 AND PUSH1 0x1 PUSH1 0x1 PUSH1 0xA0 SHL SUB NOT DUP4 AND DUP2 OR SWAP1 SWAP4 SSTORE PUSH1 0x40 MLOAD SWAP2 AND SWAP2 SWAP1 DUP3 SWAP1 PUSH32 0x8BE0079C531659141344CD1FD0A4F28419497F9722A3DAAFE3B4186F6B6457E0 SWAP1 PUSH0 SWAP1 LOG3 POP POP JUMP JUMPDEST DUP3 DUP1 SLOAD DUP3 DUP3 SSTORE SWAP1 PUSH0 MSTORE PUSH1 0x20 PUSH0 KECCAK256 SWAP1 DUP2 ADD SWAP3 DUP3 ISZERO PUSH3 0x29D JUMPI SWAP2 PUSH1 0x20 MUL DUP3 ADD JUMPDEST DUP3 DUP2 GT ISZERO PUSH3 0x29D JUMPI DUP3 MLOAD DUP3 SWAP1 PUSH3 0x28C SWAP1 DUP3 PUSH3 0x5D9 JUMP JUMPDEST POP SWAP2 PUSH1 0x20 ADD SWAP2 SWAP1 PUSH1 0x1 ADD SWAP1 PUSH3 0x273 JUMP JUMPDEST POP PUSH3 0x2AB SWAP3 SWAP2 POP PUSH3 0x2AF JUMP JUMPDEST POP SWAP1 JUMP JUMPDEST DUP1 DUP3 GT ISZERO PUSH3 0x2AB JUMPI PUSH0 PUSH3 0x2C5 DUP3 DUP3 PUSH3 0x2CF JUMP JUMPDEST POP PUSH1 0x1 ADD PUSH3 0x2AF JUMP JUMPDEST POP DUP1 SLOAD PUSH3 0x2DD SWAP1 PUSH3 0x54F JUMP JUMPDEST PUSH0 DUP3 SSTORE DUP1 PUSH1 0x1F LT PUSH3 0x2ED JUMPI POP POP JUMP JUMPDEST PUSH1 0x1F ADD PUSH1 0x20 SWAP1 DIV SWAP1 PUSH0 MSTORE PUSH1 0x20 PUSH0 KECCAK256 SWAP1 DUP2 ADD SWAP1 PUSH3 0x30B SWAP2 SWAP1 PUSH3 0x30E JUMP JUMPDEST POP JUMP JUMPDEST JUMPDEST DUP1 DUP3 GT ISZERO PUSH3 0x2AB JUMPI PUSH0 DUP2 SSTORE PUSH1 0x1 ADD PUSH3 0x30F JUMP JUMPDEST PUSH4 0x4E487B71 PUSH1 0xE0 SHL PUSH0 MSTORE PUSH1 0x41 PUSH1 0x4 MSTORE PUSH1 0x24 PUSH0 REVERT JUMPDEST PUSH1 0x40 MLOAD PUSH1 0x1F DUP3 ADD PUSH1 0x1F NOT AND DUP2 ADD PUSH1 0x1 PUSH1 0x1 PUSH1 0x40 SHL SUB DUP2 GT DUP3 DUP3 LT OR ISZERO PUSH3 0x363 JUMPI PUSH3 0x363 PUSH3 0x324 JUMP JUMPDEST PUSH1 0x40 MSTORE SWAP2 SWAP1 POP JUMP JUMPDEST PUSH0 DUP3 PUSH1 0x1F DUP4 ADD SLT PUSH3 0x37B JUMPI PUSH0 DUP1 REVERT JUMPDEST DUP2 MLOAD PUSH1 0x1 PUSH1 0x1 PUSH1 0x40 SHL SUB DUP2 GT ISZERO PUSH3 0x397 JUMPI PUSH3 0x397 PUSH3 0x324 JUMP JUMPDEST PUSH1 0x20 PUSH3 0x3AD PUSH1 0x1F DUP4 ADD PUSH1 0x1F NOT AND DUP3 ADD PUSH3 0x338 JUMP JUMPDEST DUP3 DUP2 MSTORE DUP6 DUP3 DUP5 DUP8 ADD ADD GT ISZERO PUSH3 0x3C1 JUMPI PUSH0 DUP1 REVERT JUMPDEST PUSH0 JUMPDEST DUP4 DUP2 LT ISZERO PUSH3 0x3E0 JUMPI DUP6 DUP2 ADD DUP4 ADD MLOAD DUP3 DUP3 ADD DUP5 ADD MSTORE DUP3 ADD PUSH3 0x3C3 JUMP JUMPDEST POP PUSH0 SWAP3 DUP2 ADD SWAP1 SWAP2 ADD SWAP2 SWAP1 SWAP2 MSTORE SWAP4 SWAP3 POP POP POP JUMP JUMPDEST DUP1 MLOAD PUSH1 0x1 PUSH1 0x1 PUSH1 0xA0 SHL SUB DUP2 AND DUP2 EQ PUSH3 0x40A JUMPI PUSH0 DUP1 REVERT JUMPDEST SWAP2 SWAP1 POP JUMP JUMPDEST PUSH0 DUP1 PUSH0 DUP1 PUSH0 DUP1 PUSH1 0xC0 DUP8 DUP10 SUB SLT ISZERO PUSH3 0x425 JUMPI PUSH0 DUP1 REVERT JUMPDEST DUP7 MLOAD PUSH1 0x1 PUSH1 0x1 PUSH1 0x40 SHL SUB DUP1 DUP3 GT ISZERO PUSH3 0x43C JUMPI PUSH0 DUP1 REVERT JUMPDEST PUSH3 0x44A DUP11 DUP4 DUP12 ADD PUSH3 0x36B JUMP JUMPDEST SWAP8 POP PUSH1 0x20 DUP10 ADD MLOAD SWAP2 POP DUP1 DUP3 GT ISZERO PUSH3 0x460 JUMPI PUSH0 DUP1 REVERT JUMPDEST PUSH3 0x46E DUP11 DUP4 DUP12 ADD PUSH3 0x36B JUMP JUMPDEST SWAP7 POP PUSH1 0x40 DUP10 ADD MLOAD SWAP2 POP DUP1 DUP3 GT ISZERO PUSH3 0x484 JUMPI PUSH0 DUP1 REVERT JUMPDEST DUP2 DUP10 ADD SWAP2 POP DUP10 PUSH1 0x1F DUP4 ADD SLT PUSH3 0x498 JUMPI PUSH0 DUP1 REVERT JUMPDEST DUP2 MLOAD DUP2 DUP2 GT ISZERO PUSH3 0x4AD JUMPI PUSH3 0x4AD PUSH3 0x324 JUMP JUMPDEST DUP1 PUSH1 0x5 SHL PUSH3 0x4BF PUSH1 0x20 DUP3 ADD PUSH3 0x338 JUMP JUMPDEST SWAP2 DUP3 MSTORE PUSH1 0x20 DUP2 DUP6 ADD DUP2 ADD SWAP3 SWAP1 DUP2 ADD SWAP1 DUP14 DUP5 GT ISZERO PUSH3 0x4DB JUMPI PUSH0 DUP1 REVERT JUMPDEST PUSH1 0x20 DUP7 ADD SWAP3 POP JUMPDEST DUP4 DUP4 LT ISZERO PUSH3 0x51E JUMPI DUP3 MLOAD DUP6 DUP2 GT ISZERO PUSH3 0x4FA JUMPI PUSH0 DUP1 REVERT JUMPDEST PUSH3 0x50B DUP16 PUSH1 0x20 DUP4 DUP11 ADD ADD PUSH3 0x36B JUMP JUMPDEST DUP4 MSTORE POP PUSH1 0x20 SWAP3 DUP4 ADD SWAP3 SWAP1 SWAP2 ADD SWAP1 PUSH3 0x4E2 JUMP JUMPDEST DUP1 SWAP10 POP POP POP POP POP POP POP PUSH1 0x60 DUP8 ADD MLOAD SWAP3 POP PUSH1 0x80 DUP8 ADD MLOAD SWAP2 POP PUSH3 0x543 PUSH1 0xA0 DUP9 ADD PUSH3 0x3F3 JUMP JUMPDEST SWAP1 POP SWAP3 SWAP6 POP SWAP3 SWAP6 POP SWAP3 SWAP6 JUMP JUMPDEST PUSH1 0x1 DUP2 DUP2 SHR SWAP1 DUP3 AND DUP1 PUSH3 0x564 JUMPI PUSH1 0x7F DUP3 AND SWAP2 POP JUMPDEST PUSH1 0x20 DUP3 LT DUP2 SUB PUSH3 0x583 JUMPI PUSH4 0x4E487B71 PUSH1 0xE0 SHL PUSH0 MSTORE PUSH1 0x22 PUSH1 0x4 MSTORE PUSH1 0x24 PUSH0 REVERT JUMPDEST POP SWAP2 SWAP1 POP JUMP JUMPDEST PUSH1 0x1F DUP3 GT ISZERO PUSH3 0x5D4 JUMPI DUP1 PUSH0 MSTORE PUSH1 0x20 PUSH0 KECCAK256 PUSH1 0x1F DUP5 ADD PUSH1 0x5 SHR DUP2 ADD PUSH1 0x20 DUP6 LT ISZERO PUSH3 0x5B0 JUMPI POP DUP1 JUMPDEST PUSH1 0x1F DUP5 ADD PUSH1 0x5 SHR DUP3 ADD SWAP2 POP JUMPDEST DUP2 DUP2 LT ISZERO PUSH3 0x5D1 JUMPI PUSH0 DUP2 SSTORE PUSH1 0x1 ADD PUSH3 0x5BC JUMP JUMPDEST POP POP JUMPDEST POP POP POP JUMP JUMPDEST DUP2 MLOAD PUSH1 0x1 PUSH1 0x1 PUSH1 0x40 SHL SUB DUP2 GT ISZERO PUSH3 0x5F5 JUMPI PUSH3 0x5F5 PUSH3 0x324 JUMP JUMPDEST PUSH3 0x60D DUP2 PUSH3 0x606 DUP5 SLOAD PUSH3 0x54F JUMP JUMPDEST DUP5 PUSH3 0x589 JUMP JUMPDEST PUSH1 0x20 DUP1 PUSH1 0x1F DUP4 GT PUSH1 0x1 DUP2 EQ PUSH3 0x643 JUMPI PUSH0 DUP5 ISZERO PUSH3 0x62B JUMPI POP DUP6 DUP4 ADD MLOAD JUMPDEST PUSH0 NOT PUSH1 0x3 DUP7 SWAP1 SHL SHR NOT AND PUSH1 0x1 DUP6 SWAP1 SHL OR DUP6 SSTORE PUSH3 0x69D JUMP JUMPDEST PUSH0 DUP6 DUP2 MSTORE PUSH1 0x20 DUP2 KECCAK256 PUSH1 0x1F NOT DUP7 AND SWAP2 JUMPDEST DUP3 DUP2 LT ISZERO PUSH3 0x673 JUMPI DUP9 DUP7 ADD MLOAD DUP3 SSTORE SWAP5 DUP5 ADD SWAP5 PUSH1 0x1 SWAP1 SWAP2 ADD SWAP1 DUP5 ADD PUSH3 0x652 JUMP JUMPDEST POP DUP6 DUP3 LT ISZERO PUSH3 0x691 JUMPI DUP8 DUP6 ADD MLOAD PUSH0 NOT PUSH1 0x3 DUP9 SWAP1 SHL PUSH1 0xF8 AND SHR NOT AND DUP2 SSTORE JUMPDEST POP POP PUSH1 0x1 DUP5 PUSH1 0x1 SHL ADD DUP6 SSTORE JUMPDEST POP POP POP POP POP POP JUMP JUMPDEST PUSH1 0x80 MLOAD PUSH2 0x2753 PUSH3 0x6C5 PUSH0 CODECOPY PUSH0 DUP2 DUP2 PUSH2 0x841 ADD MSTORE PUSH2 0x883 ADD MSTORE PUSH2 0x2753 PUSH0 RETURN INVALID PUSH1 0x80 PUSH1 0x40 MSTORE PUSH1 0x4 CALLDATASIZE LT PUSH2 0x235 JUMPI PUSH0 CALLDATALOAD PUSH1 0xE0 SHR DUP1 PUSH4 0x818E9BE0 GT PUSH2 0x129 JUMPI DUP1 PUSH4 0xC87B56DD GT PUSH2 0xA8 JUMPI DUP1 PUSH4 0xDC2337E2 GT PUSH2 0x6D JUMPI DUP1 PUSH4 0xDC2337E2 EQ PUSH2 0x683 JUMPI DUP1 PUSH4 0xE0C86289 EQ PUSH2 0x698 JUMPI DUP1 PUSH4 0xE985E9C5 EQ PUSH2 0x6AC JUMPI DUP1 PUSH4 0xF2FDE38B EQ PUSH2 0x6CB JUMPI DUP1 PUSH4 0xF3CCAAC0 EQ PUSH2 0x6EA JUMPI PUSH0 DUP1 REVERT JUMPDEST DUP1 PUSH4 0xC87B56DD EQ PUSH2 0x5F1 JUMPI DUP1 PUSH4 0xCB3CBB46 EQ PUSH2 0x610 JUMPI DUP1 PUSH4 0xCC3BBB20 EQ PUSH2 0x62F JUMPI DUP1 PUSH4 0xD4DDCE8A EQ PUSH2 0x637 JUMPI DUP1 PUSH4 0xDB65DBBB EQ PUSH2 0x662 JUMPI PUSH0 DUP1 REVERT JUMPDEST DUP1 PUSH4 0xB43A76F1 GT PUSH2 0xEE JUMPI DUP1 PUSH4 0xB43A76F1 EQ PUSH2 0x553 JUMPI DUP1 PUSH4 0xB88D4FDE EQ PUSH2 0x581 JUMPI DUP1 PUSH4 0xBD81093A EQ PUSH2 0x5A0 JUMPI DUP1 PUSH4 0xC2DB2C42 EQ PUSH2 0x5BF JUMPI DUP1 PUSH4 0xC45A0155 EQ PUSH2 0x5D2 JUMPI PUSH0 DUP1 REVERT JUMPDEST DUP1 PUSH4 0x818E9BE0 EQ PUSH2 0x4CF JUMPI DUP1 PUSH4 0x8DA5CB5B EQ PUSH2 0x4E4 JUMPI DUP1 PUSH4 0x95D89B41 EQ PUSH2 0x501 JUMPI DUP1 PUSH4 0xA22CB465 EQ PUSH2 0x515 JUMPI DUP1 PUSH4 0xAE9D010C EQ PUSH2 0x534 JUMPI PUSH0 DUP1 REVERT JUMPDEST DUP1 PUSH4 0x42842E0E GT PUSH2 0x1B5 JUMPI DUP1 PUSH4 0x6817C76C GT PUSH2 0x17A JUMPI DUP1 PUSH4 0x6817C76C EQ PUSH2 0x447 JUMPI DUP1 PUSH4 0x70A08231 EQ PUSH2 0x45C JUMPI DUP1 PUSH4 0x715018A6 EQ PUSH2 0x47B JUMPI DUP1 PUSH4 0x79B52AF0 EQ PUSH2 0x48F JUMPI DUP1 PUSH4 0x7B9120E8 EQ PUSH2 0x4B0 JUMPI PUSH0 DUP1 REVERT JUMPDEST DUP1 PUSH4 0x42842E0E EQ PUSH2 0x392 JUMPI DUP1 PUSH4 0x4A60F620 EQ PUSH2 0x3B1 JUMPI DUP1 PUSH4 0x57AD8071 EQ PUSH2 0x3D4 JUMPI DUP1 PUSH4 0x6352211E EQ PUSH2 0x3E8 JUMPI DUP1 PUSH4 0x65AF3798 EQ PUSH2 0x407 JUMPI PUSH0 DUP1 REVERT JUMPDEST DUP1 PUSH4 0x1FE543E3 GT PUSH2 0x1FB JUMPI DUP1 PUSH4 0x1FE543E3 EQ PUSH2 0x2F5 JUMPI DUP1 PUSH4 0x22C5DEC7 EQ PUSH2 0x314 JUMPI DUP1 PUSH4 0x23B872DD EQ PUSH2 0x333 JUMPI DUP1 PUSH4 0x293D35E2 EQ PUSH2 0x352 JUMPI DUP1 PUSH4 0x3AFC58A6 EQ PUSH2 0x371 JUMPI PUSH0 DUP1 REVERT JUMPDEST DUP1 PUSH3 0xC0E60A EQ PUSH2 0x240 JUMPI DUP1 PUSH4 0x1FFC9A7 EQ PUSH2 0x24A JUMPI DUP1 PUSH4 0x6FDDE03 EQ PUSH2 0x27E JUMPI DUP1 PUSH4 0x81812FC EQ PUSH2 0x29F JUMPI DUP1 PUSH4 0x95EA7B3 EQ PUSH2 0x2D6 JUMPI PUSH0 DUP1 REVERT JUMPDEST CALLDATASIZE PUSH2 0x23C JUMPI STOP JUMPDEST PUSH0 DUP1 REVERT JUMPDEST PUSH2 0x248 PUSH2 0x6FE JUMP JUMPDEST STOP JUMPDEST CALLVALUE DUP1 ISZERO PUSH2 0x255 JUMPI PUSH0 DUP1 REVERT JUMPDEST POP PUSH2 0x269 PUSH2 0x264 CALLDATASIZE PUSH1 0x4 PUSH2 0x1E8D JUMP JUMPDEST PUSH2 0x747 JUMP JUMPDEST PUSH1 0x40 MLOAD SWAP1 ISZERO ISZERO DUP2 MSTORE PUSH1 0x20 ADD JUMPDEST PUSH1 0x40 MLOAD DUP1 SWAP2 SUB SWAP1 RETURN JUMPDEST CALLVALUE DUP1 ISZERO PUSH2 0x289 JUMPI PUSH0 DUP1 REVERT JUMPDEST POP PUSH2 0x292 PUSH2 0x771 JUMP JUMPDEST PUSH1 0x40 MLOAD PUSH2 0x275 SWAP2 SWAP1 PUSH2 0x1EF5 JUMP JUMPDEST CALLVALUE DUP1 ISZERO PUSH2 0x2AA JUMPI PUSH0 DUP1 REVERT JUMPDEST POP PUSH2 0x2BE PUSH2 0x2B9 CALLDATASIZE PUSH1 0x4 PUSH2 0x1F07 JUMP JUMPDEST PUSH2 0x800 JUMP JUMPDEST PUSH1 0x40 MLOAD PUSH1 0x1 PUSH1 0x1 PUSH1 0xA0 SHL SUB SWAP1 SWAP2 AND DUP2 MSTORE PUSH1 0x20 ADD PUSH2 0x275 JUMP JUMPDEST CALLVALUE DUP1 ISZERO PUSH2 0x2E1 JUMPI PUSH0 DUP1 REVERT JUMPDEST POP PUSH2 0x248 PUSH2 0x2F0 CALLDATASIZE PUSH1 0x4 PUSH2 0x1F39 JUMP JUMPDEST PUSH2 0x827 JUMP JUMPDEST CALLVALUE DUP1 ISZERO PUSH2 0x300 JUMPI PUSH0 DUP1 REVERT JUMPDEST POP PUSH2 0x248 PUSH2 0x30F CALLDATASIZE PUSH1 0x4 PUSH2 0x1FF2 JUMP JUMPDEST PUSH2 0x836 JUMP JUMPDEST CALLVALUE DUP1 ISZERO PUSH2 0x31F JUMPI PUSH0 DUP1 REVERT JUMPDEST POP PUSH1 0x15 SLOAD PUSH2 0x2BE SWAP1 PUSH1 0x1 PUSH1 0x1 PUSH1 0xA0 SHL SUB AND DUP2 JUMP JUMPDEST CALLVALUE DUP1 ISZERO PUSH2 0x33E JUMPI PUSH0 DUP1 REVERT JUMPDEST POP PUSH2 0x248 PUSH2 0x34D CALLDATASIZE PUSH1 0x4 PUSH2 0x208F JUMP JUMPDEST PUSH2 0x8BF JUMP JUMPDEST CALLVALUE DUP1 ISZERO PUSH2 0x35D JUMPI PUSH0 DUP1 REVERT JUMPDEST POP PUSH2 0x248 PUSH2 0x36C CALLDATASIZE PUSH1 0x4 PUSH2 0x20C8 JUMP JUMPDEST PUSH2 0x948 JUMP JUMPDEST CALLVALUE DUP1 ISZERO PUSH2 0x37C JUMPI PUSH0 DUP1 REVERT JUMPDEST POP PUSH2 0x385 PUSH2 0x97C JUMP JUMPDEST PUSH1 0x40 MLOAD PUSH2 0x275 SWAP2 SWAP1 PUSH2 0x20E1 JUMP JUMPDEST CALLVALUE DUP1 ISZERO PUSH2 0x39D JUMPI PUSH0 DUP1 REVERT JUMPDEST POP PUSH2 0x248 PUSH2 0x3AC CALLDATASIZE PUSH1 0x4 PUSH2 0x208F JUMP JUMPDEST PUSH2 0xA44 JUMP JUMPDEST CALLVALUE DUP1 ISZERO PUSH2 0x3BC JUMPI PUSH0 DUP1 REVERT JUMPDEST POP PUSH2 0x3C6 PUSH1 0xC SLOAD DUP2 JUMP JUMPDEST PUSH1 0x40 MLOAD SWAP1 DUP2 MSTORE PUSH1 0x20 ADD PUSH2 0x275 JUMP JUMPDEST CALLVALUE DUP1 ISZERO PUSH2 0x3DF JUMPI PUSH0 DUP1 REVERT JUMPDEST POP PUSH2 0x292 PUSH2 0xA63 JUMP JUMPDEST CALLVALUE DUP1 ISZERO PUSH2 0x3F3 JUMPI PUSH0 DUP1 REVERT JUMPDEST POP PUSH2 0x2BE PUSH2 0x402 CALLDATASIZE PUSH1 0x4 PUSH2 0x1F07 JUMP JUMPDEST PUSH2 0xAEF JUMP JUMPDEST CALLVALUE DUP1 ISZERO PUSH2 0x412 JUMPI PUSH0 DUP1 REVERT JUMPDEST POP PUSH2 0x248 PUSH2 0x421 CALLDATASIZE PUSH1 0x4 PUSH2 0x218E JUMP JUMPDEST PUSH0 SWAP2 DUP3 MSTORE PUSH1 0xD PUSH1 0x20 SWAP1 DUP2 MSTORE PUSH1 0x40 DUP1 DUP5 KECCAK256 DUP1 SLOAD PUSH1 0xFF NOT AND PUSH1 0x1 OR SWAP1 SSTORE PUSH1 0xE SWAP1 SWAP2 MSTORE SWAP1 SWAP2 KECCAK256 SSTORE JUMP JUMPDEST CALLVALUE DUP1 ISZERO PUSH2 0x452 JUMPI PUSH0 DUP1 REVERT JUMPDEST POP PUSH2 0x3C6 PUSH1 0x13 SLOAD DUP2 JUMP JUMPDEST CALLVALUE DUP1 ISZERO PUSH2 0x467 JUMPI PUSH0 DUP1 REVERT JUMPDEST POP PUSH2 0x3C6 PUSH2 0x476 CALLDATASIZE PUSH1 0x4 PUSH2 0x20C8 JUMP JUMPDEST PUSH2 0xAF9 JUMP JUMPDEST CALLVALUE DUP1 ISZERO PUSH2 0x486 JUMPI PUSH0 DUP1 REVERT JUMPDEST POP PUSH2 0x248 PUSH2 0xB3E JUMP JUMPDEST CALLVALUE DUP1 ISZERO PUSH2 0x49A JUMPI PUSH0 DUP1 REVERT JUMPDEST POP PUSH2 0x4A3 PUSH2 0xB51 JUMP JUMPDEST PUSH1 0x40 MLOAD PUSH2 0x275 SWAP2 SWAP1 PUSH2 0x21AE JUMP JUMPDEST CALLVALUE DUP1 ISZERO PUSH2 0x4BB JUMPI PUSH0 DUP1 REVERT JUMPDEST POP PUSH2 0x2BE PUSH2 0x4CA CALLDATASIZE PUSH1 0x4 PUSH2 0x1F07 JUMP JUMPDEST PUSH2 0xC96 JUMP JUMPDEST CALLVALUE DUP1 ISZERO PUSH2 0x4DA JUMPI PUSH0 DUP1 REVERT JUMPDEST POP PUSH2 0x3C6 PUSH1 0x12 SLOAD DUP2 JUMP JUMPDEST CALLVALUE DUP1 ISZERO PUSH2 0x4EF JUMPI PUSH0 DUP1 REVERT JUMPDEST POP PUSH1 0x7 SLOAD PUSH1 0x1 PUSH1 0x1 PUSH1 0xA0 SHL SUB AND PUSH2 0x2BE JUMP JUMPDEST CALLVALUE DUP1 ISZERO PUSH2 0x50C JUMPI PUSH0 DUP1 REVERT JUMPDEST POP PUSH2 0x292 PUSH2 0xCC3 JUMP JUMPDEST CALLVALUE DUP1 ISZERO PUSH2 0x520 JUMPI PUSH0 DUP1 REVERT JUMPDEST POP PUSH2 0x248 PUSH2 0x52F CALLDATASIZE PUSH1 0x4 PUSH2 0x222D JUMP JUMPDEST PUSH2 0xCD2 JUMP JUMPDEST CALLVALUE DUP1 ISZERO PUSH2 0x53F JUMPI PUSH0 DUP1 REVERT JUMPDEST POP PUSH2 0x4A3 PUSH2 0x54E CALLDATASIZE PUSH1 0x4 PUSH2 0x20C8 JUMP JUMPDEST PUSH2 0xCDD JUMP JUMPDEST CALLVALUE DUP1 ISZERO PUSH2 0x55E JUMPI PUSH0 DUP1 REVERT JUMPDEST POP PUSH2 0x269 PUSH2 0x56D CALLDATASIZE PUSH1 0x4 PUSH2 0x1F07 JUMP JUMPDEST PUSH1 0xD PUSH1 0x20 MSTORE PUSH0 SWAP1 DUP2 MSTORE PUSH1 0x40 SWAP1 KECCAK256 SLOAD PUSH1 0xFF AND DUP2 JUMP JUMPDEST CALLVALUE DUP1 ISZERO PUSH2 0x58C JUMPI PUSH0 DUP1 REVERT JUMPDEST POP PUSH2 0x248 PUSH2 0x59B CALLDATASIZE PUSH1 0x4 PUSH2 0x2266 JUMP JUMPDEST PUSH2 0xE0C JUMP JUMPDEST CALLVALUE DUP1 ISZERO PUSH2 0x5AB JUMPI PUSH0 DUP1 REVERT JUMPDEST POP PUSH2 0x292 PUSH2 0x5BA CALLDATASIZE PUSH1 0x4 PUSH2 0x1F07 JUMP JUMPDEST PUSH2 0xE23 JUMP JUMPDEST PUSH2 0x248 PUSH2 0x5CD CALLDATASIZE PUSH1 0x4 PUSH2 0x1F07 JUMP JUMPDEST PUSH2 0xE4A JUMP JUMPDEST CALLVALUE DUP1 ISZERO PUSH2 0x5DD JUMPI PUSH0 DUP1 REVERT JUMPDEST POP PUSH1 0x14 SLOAD PUSH2 0x2BE SWAP1 PUSH1 0x1 PUSH1 0x1 PUSH1 0xA0 SHL SUB AND DUP2 JUMP JUMPDEST CALLVALUE DUP1 ISZERO PUSH2 0x5FC JUMPI PUSH0 DUP1 REVERT JUMPDEST POP PUSH2 0x292 PUSH2 0x60B CALLDATASIZE PUSH1 0x4 PUSH2 0x1F07 JUMP JUMPDEST PUSH2 0xEF6 JUMP JUMPDEST CALLVALUE DUP1 ISZERO PUSH2 0x61B JUMPI PUSH0 DUP1 REVERT JUMPDEST POP PUSH2 0x248 PUSH2 0x62A CALLDATASIZE PUSH1 0x4 PUSH2 0x231F JUMP JUMPDEST PUSH2 0x1001 JUMP JUMPDEST PUSH2 0x248 PUSH2 0x1092 JUMP JUMPDEST CALLVALUE DUP1 ISZERO PUSH2 0x642 JUMPI PUSH0 DUP1 REVERT JUMPDEST POP PUSH2 0x3C6 PUSH2 0x651 CALLDATASIZE PUSH1 0x4 PUSH2 0x1F07 JUMP JUMPDEST PUSH1 0xE PUSH1 0x20 MSTORE PUSH0 SWAP1 DUP2 MSTORE PUSH1 0x40 SWAP1 KECCAK256 SLOAD DUP2 JUMP JUMPDEST CALLVALUE DUP1 ISZERO PUSH2 0x66D JUMPI PUSH0 DUP1 REVERT JUMPDEST POP PUSH2 0x676 PUSH2 0x11DC JUMP JUMPDEST PUSH1 0x40 MLOAD PUSH2 0x275 SWAP2 SWAP1 PUSH2 0x23F5 JUMP JUMPDEST CALLVALUE DUP1 ISZERO PUSH2 0x68E JUMPI PUSH0 DUP1 REVERT JUMPDEST POP PUSH2 0x3C6 PUSH1 0xB SLOAD DUP2 JUMP JUMPDEST CALLVALUE DUP1 ISZERO PUSH2 0x6A3 JUMPI PUSH0 DUP1 REVERT JUMPDEST POP PUSH2 0x3C6 PUSH2 0x1436 JUMP JUMPDEST CALLVALUE DUP1 ISZERO PUSH2 0x6B7 JUMPI PUSH0 DUP1 REVERT JUMPDEST POP PUSH2 0x269 PUSH2 0x6C6 CALLDATASIZE PUSH1 0x4 PUSH2 0x24BD JUMP JUMPDEST PUSH2 0x14E0 JUMP JUMPDEST CALLVALUE DUP1 ISZERO PUSH2 0x6D6 JUMPI PUSH0 DUP1 REVERT JUMPDEST POP PUSH2 0x248 PUSH2 0x6E5 CALLDATASIZE PUSH1 0x4 PUSH2 0x20C8 JUMP JUMPDEST PUSH2 0x150D JUMP JUMPDEST CALLVALUE DUP1 ISZERO PUSH2 0x6F5 JUMPI PUSH0 DUP1 REVERT JUMPDEST POP PUSH2 0x292 PUSH2 0x1547 JUMP JUMPDEST PUSH1 0x15 DUP1 SLOAD PUSH1 0x1 PUSH1 0x1 PUSH1 0xA0 SHL SUB NOT AND CALLER OR SWAP1 SSTORE PUSH1 0x13 SLOAD PUSH1 0x40 MLOAD ADDRESS SWAP2 DUP1 ISZERO PUSH2 0x8FC MUL SWAP2 PUSH0 DUP2 DUP2 DUP2 DUP6 DUP9 DUP9 CALL SWAP4 POP POP POP POP ISZERO DUP1 ISZERO PUSH2 0x73B JUMPI RETURNDATASIZE PUSH0 DUP1 RETURNDATACOPY RETURNDATASIZE PUSH0 REVERT JUMPDEST POP PUSH2 0x744 PUSH2 0x1436 JUMP JUMPDEST POP JUMP JUMPDEST PUSH0 PUSH1 0x1 PUSH1 0x1 PUSH1 0xE0 SHL SUB NOT DUP3 AND PUSH4 0x24832483 PUSH1 0xE1 SHL EQ DUP1 PUSH2 0x76B JUMPI POP PUSH2 0x76B DUP3 PUSH2 0x1554 JUMP JUMPDEST SWAP3 SWAP2 POP POP JUMP JUMPDEST PUSH1 0x60 PUSH0 DUP1 SLOAD PUSH2 0x77F SWAP1 PUSH2 0x24EE JUMP JUMPDEST DUP1 PUSH1 0x1F ADD PUSH1 0x20 DUP1 SWAP2 DIV MUL PUSH1 0x20 ADD PUSH1 0x40 MLOAD SWAP1 DUP2 ADD PUSH1 0x40 MSTORE DUP1 SWAP3 SWAP2 SWAP1 DUP2 DUP2 MSTORE PUSH1 0x20 ADD DUP3 DUP1 SLOAD PUSH2 0x7AB SWAP1 PUSH2 0x24EE JUMP JUMPDEST DUP1 ISZERO PUSH2 0x7F6 JUMPI DUP1 PUSH1 0x1F LT PUSH2 0x7CD JUMPI PUSH2 0x100 DUP1 DUP4 SLOAD DIV MUL DUP4 MSTORE SWAP2 PUSH1 0x20 ADD SWAP2 PUSH2 0x7F6 JUMP JUMPDEST DUP3 ADD SWAP2 SWAP1 PUSH0 MSTORE PUSH1 0x20 PUSH0 KECCAK256 SWAP1 JUMPDEST DUP2 SLOAD DUP2 MSTORE SWAP1 PUSH1 0x1 ADD SWAP1 PUSH1 0x20 ADD DUP1 DUP4 GT PUSH2 0x7D9 JUMPI DUP3 SWAP1 SUB PUSH1 0x1F AND DUP3 ADD SWAP2 JUMPDEST POP POP POP POP POP SWAP1 POP SWAP1 JUMP JUMPDEST PUSH0 PUSH2 0x80A DUP3 PUSH2 0x15A3 JUMP JUMPDEST POP PUSH0 DUP3 DUP2 MSTORE PUSH1 0x4 PUSH1 0x20 MSTORE PUSH1 0x40 SWAP1 KECCAK256 SLOAD PUSH1 0x1 PUSH1 0x1 PUSH1 0xA0 SHL SUB AND PUSH2 0x76B JUMP JUMPDEST PUSH2 0x832 DUP3 DUP3 CALLER PUSH2 0x15DB JUMP JUMPDEST POP POP JUMP JUMPDEST CALLER PUSH1 0x1 PUSH1 0x1 PUSH1 0xA0 SHL SUB PUSH32 0x0 AND EQ PUSH2 0x8B5 JUMPI PUSH1 0x40 MLOAD PUSH4 0x73E64FD PUSH1 0xE2 SHL DUP2 MSTORE CALLER PUSH1 0x4 DUP3 ADD MSTORE PUSH1 0x1 PUSH1 0x1 PUSH1 0xA0 SHL SUB PUSH32 0x0 AND PUSH1 0x24 DUP3 ADD MSTORE PUSH1 0x44 ADD JUMPDEST PUSH1 0x40 MLOAD DUP1 SWAP2 SUB SWAP1 REVERT JUMPDEST PUSH2 0x832 DUP3 DUP3 PUSH2 0x15E8 JUMP JUMPDEST PUSH1 0x1 PUSH1 0x1 PUSH1 0xA0 SHL SUB DUP3 AND PUSH2 0x8E8 JUMPI PUSH1 0x40 MLOAD PUSH4 0x32505749 PUSH1 0xE1 SHL DUP2 MSTORE PUSH0 PUSH1 0x4 DUP3 ADD MSTORE PUSH1 0x24 ADD PUSH2 0x8AC JUMP JUMPDEST PUSH0 PUSH2 0x8F4 DUP4 DUP4 CALLER PUSH2 0x167C JUMP JUMPDEST SWAP1 POP DUP4 PUSH1 0x1 PUSH1 0x1 PUSH1 0xA0 SHL SUB AND DUP2 PUSH1 0x1 PUSH1 0x1 PUSH1 0xA0 SHL SUB AND EQ PUSH2 0x942 JUMPI PUSH1 0x40 MLOAD PUSH4 0x64283D7B PUSH1 0xE0 SHL DUP2 MSTORE PUSH1 0x1 PUSH1 0x1 PUSH1 0xA0 SHL SUB DUP1 DUP7 AND PUSH1 0x4 DUP4 ADD MSTORE PUSH1 0x24 DUP3 ADD DUP5 SWAP1 MSTORE DUP3 AND PUSH1 0x44 DUP3 ADD MSTORE PUSH1 0x64 ADD PUSH2 0x8AC JUMP JUMPDEST POP POP POP POP JUMP JUMPDEST PUSH1 0x12 SLOAD PUSH1 0x40 MLOAD PUSH1 0x1 PUSH1 0x1 PUSH1 0xA0 SHL SUB DUP4 AND SWAP2 DUP1 ISZERO PUSH2 0x8FC MUL SWAP2 PUSH0 DUP2 DUP2 DUP2 DUP6 DUP9 DUP9 CALL SWAP4 POP POP POP POP ISZERO DUP1 ISZERO PUSH2 0x832 JUMPI RETURNDATASIZE PUSH0 DUP1 RETURNDATACOPY RETURNDATASIZE PUSH0 REVERT JUMPDEST PUSH1 0x60 PUSH1 0x16 DUP1 SLOAD DUP1 PUSH1 0x20 MUL PUSH1 0x20 ADD PUSH1 0x40 MLOAD SWAP1 DUP2 ADD PUSH1 0x40 MSTORE DUP1 SWAP3 SWAP2 SWAP1 DUP2 DUP2 MSTORE PUSH1 0x20 ADD PUSH0 SWAP1 JUMPDEST DUP3 DUP3 LT ISZERO PUSH2 0xA3B JUMPI PUSH0 DUP5 DUP2 MSTORE PUSH1 0x20 SWAP1 DUP2 SWAP1 KECCAK256 PUSH1 0x40 DUP1 MLOAD DUP1 DUP3 ADD DUP3 MSTORE PUSH1 0x2 DUP7 MUL SWAP1 SWAP3 ADD DUP1 SLOAD PUSH1 0x1 PUSH1 0x1 PUSH1 0xA0 SHL SUB AND DUP4 MSTORE PUSH1 0x1 DUP2 ADD DUP1 SLOAD DUP4 MLOAD DUP2 DUP8 MUL DUP2 ADD DUP8 ADD SWAP1 SWAP5 MSTORE DUP1 DUP5 MSTORE SWAP4 SWAP5 SWAP2 SWAP4 DUP6 DUP4 ADD SWAP4 SWAP3 DUP4 ADD DUP3 DUP3 DUP1 ISZERO PUSH2 0xA23 JUMPI PUSH1 0x20 MUL DUP3 ADD SWAP2 SWAP1 PUSH0 MSTORE PUSH1 0x20 PUSH0 KECCAK256 SWAP1 JUMPDEST DUP2 SLOAD PUSH1 0x1 PUSH1 0x1 PUSH1 0xA0 SHL SUB AND DUP2 MSTORE PUSH1 0x1 SWAP1 SWAP2 ADD SWAP1 PUSH1 0x20 ADD DUP1 DUP4 GT PUSH2 0xA05 JUMPI JUMPDEST POP POP POP POP POP DUP2 MSTORE POP POP DUP2 MSTORE PUSH1 0x20 ADD SWAP1 PUSH1 0x1 ADD SWAP1 PUSH2 0x99F JUMP JUMPDEST POP POP POP POP SWAP1 POP SWAP1 JUMP JUMPDEST PUSH2 0xA5E DUP4 DUP4 DUP4 PUSH1 0x40 MLOAD DUP1 PUSH1 0x20 ADD PUSH1 0x40 MSTORE DUP1 PUSH0 DUP2 MSTORE POP PUSH2 0xE0C JUMP JUMPDEST POP POP POP JUMP JUMPDEST PUSH1 0xF DUP1 SLOAD PUSH2 0xA70 SWAP1 PUSH2 0x24EE JUMP JUMPDEST DUP1 PUSH1 0x1F ADD PUSH1 0x20 DUP1 SWAP2 DIV MUL PUSH1 0x20 ADD PUSH1 0x40 MLOAD SWAP1 DUP2 ADD PUSH1 0x40 MSTORE DUP1 SWAP3 SWAP2 SWAP1 DUP2 DUP2 MSTORE PUSH1 0x20 ADD DUP3 DUP1 SLOAD PUSH2 0xA9C SWAP1 PUSH2 0x24EE JUMP JUMPDEST DUP1 ISZERO PUSH2 0xAE7 JUMPI DUP1 PUSH1 0x1F LT PUSH2 0xABE JUMPI PUSH2 0x100 DUP1 DUP4 SLOAD DIV MUL DUP4 MSTORE SWAP2 PUSH1 0x20 ADD SWAP2 PUSH2 0xAE7 JUMP JUMPDEST DUP3 ADD SWAP2 SWAP1 PUSH0 MSTORE PUSH1 0x20 PUSH0 KECCAK256 SWAP1 JUMPDEST DUP2 SLOAD DUP2 MSTORE SWAP1 PUSH1 0x1 ADD SWAP1 PUSH1 0x20 ADD DUP1 DUP4 GT PUSH2 0xACA JUMPI DUP3 SWAP1 SUB PUSH1 0x1F AND DUP3 ADD SWAP2 JUMPDEST POP POP POP POP POP DUP2 JUMP JUMPDEST PUSH0 PUSH2 0x76B DUP3 PUSH2 0x15A3 JUMP JUMPDEST PUSH0 PUSH1 0x1 PUSH1 0x1 PUSH1 0xA0 SHL SUB DUP3 AND PUSH2 0xB23 JUMPI PUSH1 0x40 MLOAD PUSH4 0x22718AD9 PUSH1 0xE2 SHL DUP2 MSTORE PUSH0 PUSH1 0x4 DUP3 ADD MSTORE PUSH1 0x24 ADD PUSH2 0x8AC JUMP JUMPDEST POP PUSH1 0x1 PUSH1 0x1 PUSH1 0xA0 SHL SUB AND PUSH0 SWAP1 DUP2 MSTORE PUSH1 0x3 PUSH1 0x20 MSTORE PUSH1 0x40 SWAP1 KECCAK256 SLOAD SWAP1 JUMP JUMPDEST PUSH2 0xB46 PUSH2 0x176E JUMP JUMPDEST PUSH2 0xB4F PUSH0 PUSH2 0x179B JUMP JUMPDEST JUMP JUMPDEST PUSH1 0x60 PUSH0 PUSH1 0xC SLOAD PUSH8 0xFFFFFFFFFFFFFFFF DUP2 GT ISZERO PUSH2 0xB6F JUMPI PUSH2 0xB6F PUSH2 0x1F61 JUMP JUMPDEST PUSH1 0x40 MLOAD SWAP1 DUP1 DUP3 MSTORE DUP1 PUSH1 0x20 MUL PUSH1 0x20 ADD DUP3 ADD PUSH1 0x40 MSTORE DUP1 ISZERO PUSH2 0xBCA JUMPI DUP2 PUSH1 0x20 ADD JUMPDEST PUSH2 0xBB7 PUSH1 0x40 MLOAD DUP1 PUSH1 0x80 ADD PUSH1 0x40 MSTORE DUP1 PUSH0 DUP2 MSTORE PUSH1 0x20 ADD PUSH1 0x60 DUP2 MSTORE PUSH1 0x20 ADD PUSH0 ISZERO ISZERO DUP2 MSTORE PUSH1 0x20 ADD PUSH0 DUP2 MSTORE POP SWAP1 JUMP JUMPDEST DUP2 MSTORE PUSH1 0x20 ADD SWAP1 PUSH1 0x1 SWAP1 SUB SWAP1 DUP2 PUSH2 0xB8D JUMPI SWAP1 POP JUMPDEST POP SWAP1 POP PUSH0 DUP1 JUMPDEST PUSH1 0xC SLOAD DUP2 LT ISZERO PUSH2 0xC8E JUMPI PUSH0 DUP2 DUP2 MSTORE PUSH1 0xD PUSH1 0x20 MSTORE PUSH1 0x40 SWAP1 KECCAK256 SLOAD PUSH1 0xFF AND ISZERO ISZERO PUSH1 0x1 EQ DUP1 ISZERO PUSH2 0xC0D JUMPI POP CALLER PUSH2 0xC01 DUP3 PUSH2 0xAEF JUMP JUMPDEST PUSH1 0x1 PUSH1 0x1 PUSH1 0xA0 SHL SUB AND EQ ISZERO JUMPDEST ISZERO PUSH2 0xC86 JUMPI PUSH1 0x40 MLOAD DUP1 PUSH1 0x80 ADD PUSH1 0x40 MSTORE DUP1 DUP3 DUP2 MSTORE PUSH1 0x20 ADD PUSH2 0xC2C DUP4 PUSH2 0xEF6 JUMP JUMPDEST DUP2 MSTORE PUSH0 DUP4 DUP2 MSTORE PUSH1 0xD PUSH1 0x20 SWAP1 DUP2 MSTORE PUSH1 0x40 DUP1 DUP4 KECCAK256 SLOAD PUSH1 0xFF AND ISZERO ISZERO DUP3 DUP6 ADD MSTORE DUP6 DUP4 MSTORE PUSH1 0xE SWAP1 SWAP2 MSTORE SWAP1 DUP2 SWAP1 KECCAK256 SLOAD SWAP2 ADD MSTORE DUP4 MLOAD DUP5 SWAP1 DUP5 SWAP1 DUP2 LT PUSH2 0xC6C JUMPI PUSH2 0xC6C PUSH2 0x2526 JUMP JUMPDEST PUSH1 0x20 MUL PUSH1 0x20 ADD ADD DUP2 SWAP1 MSTORE POP DUP2 DUP1 PUSH2 0xC82 SWAP1 PUSH2 0x253A JUMP JUMPDEST SWAP3 POP POP JUMPDEST PUSH1 0x1 ADD PUSH2 0xBD0 JUMP JUMPDEST POP DUP2 MSTORE SWAP2 SWAP1 POP JUMP JUMPDEST PUSH1 0x16 DUP2 DUP2 SLOAD DUP2 LT PUSH2 0xCA5 JUMPI PUSH0 DUP1 REVERT JUMPDEST PUSH0 SWAP2 DUP3 MSTORE PUSH1 0x20 SWAP1 SWAP2 KECCAK256 PUSH1 0x2 SWAP1 SWAP2 MUL ADD SLOAD PUSH1 0x1 PUSH1 0x1 PUSH1 0xA0 SHL SUB AND SWAP1 POP DUP2 JUMP JUMPDEST PUSH1 0x60 PUSH1 0x1 DUP1 SLOAD PUSH2 0x77F SWAP1 PUSH2 0x24EE JUMP JUMPDEST PUSH2 0x832 CALLER DUP4 DUP4 PUSH2 0x17EC JUMP JUMPDEST PUSH1 0x60 PUSH0 PUSH1 0xC SLOAD PUSH8 0xFFFFFFFFFFFFFFFF DUP2 GT ISZERO PUSH2 0xCFB JUMPI PUSH2 0xCFB PUSH2 0x1F61 JUMP JUMPDEST PUSH1 0x40 MLOAD SWAP1 DUP1 DUP3 MSTORE DUP1 PUSH1 0x20 MUL PUSH1 0x20 ADD DUP3 ADD PUSH1 0x40 MSTORE DUP1 ISZERO PUSH2 0xD56 JUMPI DUP2 PUSH1 0x20 ADD JUMPDEST PUSH2 0xD43 PUSH1 0x40 MLOAD DUP1 PUSH1 0x80 ADD PUSH1 0x40 MSTORE DUP1 PUSH0 DUP2 MSTORE PUSH1 0x20 ADD PUSH1 0x60 DUP2 MSTORE PUSH1 0x20 ADD PUSH0 ISZERO ISZERO DUP2 MSTORE PUSH1 0x20 ADD PUSH0 DUP2 MSTORE POP SWAP1 JUMP JUMPDEST DUP2 MSTORE PUSH1 0x20 ADD SWAP1 PUSH1 0x1 SWAP1 SUB SWAP1 DUP2 PUSH2 0xD19 JUMPI SWAP1 POP JUMPDEST POP SWAP1 POP PUSH0 DUP1 JUMPDEST PUSH1 0xC SLOAD DUP2 LT ISZERO PUSH2 0xE03 JUMPI DUP5 PUSH1 0x1 PUSH1 0x1 PUSH1 0xA0 SHL SUB AND PUSH2 0xD79 DUP3 PUSH2 0xAEF JUMP JUMPDEST PUSH1 0x1 PUSH1 0x1 PUSH1 0xA0 SHL SUB AND SUB PUSH2 0xDFB JUMPI PUSH1 0x40 MLOAD DUP1 PUSH1 0x80 ADD PUSH1 0x40 MSTORE DUP1 DUP3 DUP2 MSTORE PUSH1 0x20 ADD PUSH2 0xDA1 DUP4 PUSH2 0xEF6 JUMP JUMPDEST DUP2 MSTORE PUSH0 DUP4 DUP2 MSTORE PUSH1 0xD PUSH1 0x20 SWAP1 DUP2 MSTORE PUSH1 0x40 DUP1 DUP4 KECCAK256 SLOAD PUSH1 0xFF AND ISZERO ISZERO DUP3 DUP6 ADD MSTORE DUP6 DUP4 MSTORE PUSH1 0xE SWAP1 SWAP2 MSTORE SWAP1 DUP2 SWAP1 KECCAK256 SLOAD SWAP2 ADD MSTORE DUP4 MLOAD DUP5 SWAP1 DUP5 SWAP1 DUP2 LT PUSH2 0xDE1 JUMPI PUSH2 0xDE1 PUSH2 0x2526 JUMP JUMPDEST PUSH1 0x20 MUL PUSH1 0x20 ADD ADD DUP2 SWAP1 MSTORE POP DUP2 DUP1 PUSH2 0xDF7 SWAP1 PUSH2 0x253A JUMP JUMPDEST SWAP3 POP POP JUMPDEST PUSH1 0x1 ADD PUSH2 0xD5C JUMP JUMPDEST POP DUP2 MSTORE SWAP3 SWAP2 POP POP JUMP JUMPDEST PUSH2 0xE17 DUP5 DUP5 DUP5 PUSH2 0x8BF JUMP JUMPDEST PUSH2 0x942 DUP5 DUP5 DUP5 DUP5 PUSH2 0x188A JUMP JUMPDEST PUSH1 0x11 DUP2 DUP2 SLOAD DUP2 LT PUSH2 0xE32 JUMPI PUSH0 DUP1 REVERT JUMPDEST SWAP1 PUSH0 MSTORE PUSH1 0x20 PUSH0 KECCAK256 ADD PUSH0 SWAP2 POP SWAP1 POP DUP1 SLOAD PUSH2 0xA70 SWAP1 PUSH2 0x24EE JUMP JUMPDEST PUSH0 DUP2 DUP2 MSTORE PUSH1 0xE PUSH1 0x20 MSTORE PUSH1 0x40 DUP1 DUP3 KECCAK256 SLOAD SWAP1 MLOAD CALLER SWAP3 DUP3 ISZERO PUSH2 0x8FC MUL SWAP3 SWAP2 SWAP1 DUP2 DUP2 DUP2 DUP6 DUP9 DUP9 CALL SWAP4 POP POP POP POP ISZERO DUP1 ISZERO PUSH2 0xE81 JUMPI RETURNDATASIZE PUSH0 DUP1 RETURNDATACOPY RETURNDATASIZE PUSH0 REVERT JUMPDEST POP PUSH2 0xE8B DUP2 PUSH2 0xAEF JUMP JUMPDEST PUSH0 DUP3 DUP2 MSTORE PUSH1 0xE PUSH1 0x20 MSTORE PUSH1 0x40 DUP1 DUP3 KECCAK256 SLOAD SWAP1 MLOAD PUSH1 0x1 PUSH1 0x1 PUSH1 0xA0 SHL SUB SWAP4 SWAP1 SWAP4 AND SWAP3 DUP2 ISZERO PUSH2 0x8FC MUL SWAP3 DUP2 DUP2 DUP2 DUP6 DUP9 DUP9 CALL SWAP4 POP POP POP POP ISZERO DUP1 ISZERO PUSH2 0xECB JUMPI RETURNDATASIZE PUSH0 DUP1 RETURNDATACOPY RETURNDATASIZE PUSH0 REVERT JUMPDEST POP PUSH2 0xEDF CALLER PUSH2 0xED9 DUP4 PUSH2 0xAEF JUMP JUMPDEST DUP4 PUSH2 0x8BF JUMP JUMPDEST PUSH0 SWAP1 DUP2 MSTORE PUSH1 0xD PUSH1 0x20 MSTORE PUSH1 0x40 SWAP1 KECCAK256 DUP1 SLOAD PUSH1 0xFF NOT AND SWAP1 SSTORE JUMP JUMPDEST PUSH1 0x60 PUSH2 0xF01 DUP3 PUSH2 0x15A3 JUMP JUMPDEST POP PUSH0 DUP3 DUP2 MSTORE PUSH1 0x6 PUSH1 0x20 MSTORE PUSH1 0x40 DUP2 KECCAK256 DUP1 SLOAD PUSH2 0xF1A SWAP1 PUSH2 0x24EE JUMP JUMPDEST DUP1 PUSH1 0x1F ADD PUSH1 0x20 DUP1 SWAP2 DIV MUL PUSH1 0x20 ADD PUSH1 0x40 MLOAD SWAP1 DUP2 ADD PUSH1 0x40 MSTORE DUP1 SWAP3 SWAP2 SWAP1 DUP2 DUP2 MSTORE PUSH1 0x20 ADD DUP3 DUP1 SLOAD PUSH2 0xF46 SWAP1 PUSH2 0x24EE JUMP JUMPDEST DUP1 ISZERO PUSH2 0xF91 JUMPI DUP1 PUSH1 0x1F LT PUSH2 0xF68 JUMPI PUSH2 0x100 DUP1 DUP4 SLOAD DIV MUL DUP4 MSTORE SWAP2 PUSH1 0x20 ADD SWAP2 PUSH2 0xF91 JUMP JUMPDEST DUP3 ADD SWAP2 SWAP1 PUSH0 MSTORE PUSH1 0x20 PUSH0 KECCAK256 SWAP1 JUMPDEST DUP2 SLOAD DUP2 MSTORE SWAP1 PUSH1 0x1 ADD SWAP1 PUSH1 0x20 ADD DUP1 DUP4 GT PUSH2 0xF74 JUMPI DUP3 SWAP1 SUB PUSH1 0x1F AND DUP3 ADD SWAP2 JUMPDEST POP POP POP POP POP SWAP1 POP PUSH0 PUSH2 0xFAD PUSH1 0x40 DUP1 MLOAD PUSH1 0x20 DUP2 ADD SWAP1 SWAP2 MSTORE PUSH0 DUP2 MSTORE SWAP1 JUMP JUMPDEST SWAP1 POP DUP1 MLOAD PUSH0 SUB PUSH2 0xFBE JUMPI POP SWAP3 SWAP2 POP POP JUMP JUMPDEST DUP2 MLOAD ISZERO PUSH2 0xFF0 JUMPI DUP1 DUP3 PUSH1 0x40 MLOAD PUSH1 0x20 ADD PUSH2 0xFD8 SWAP3 SWAP2 SWAP1 PUSH2 0x255E JUMP JUMPDEST PUSH1 0x40 MLOAD PUSH1 0x20 DUP2 DUP4 SUB SUB DUP2 MSTORE SWAP1 PUSH1 0x40 MSTORE SWAP3 POP POP POP SWAP2 SWAP1 POP JUMP JUMPDEST PUSH2 0xFF9 DUP5 PUSH2 0x19B0 JUMP JUMPDEST SWAP5 SWAP4 POP POP POP POP JUMP JUMPDEST PUSH1 0x16 DUP1 SLOAD PUSH1 0x1 DUP2 ADD DUP3 SSTORE PUSH0 SWAP2 SWAP1 SWAP2 MSTORE DUP2 MLOAD PUSH32 0xD833147D7DC355BA459FC788F669E58CFAF9DC25DDCD0702E87D69C7B5124289 PUSH1 0x2 SWAP1 SWAP3 MUL SWAP2 DUP3 ADD DUP1 SLOAD PUSH1 0x1 PUSH1 0x1 PUSH1 0xA0 SHL SUB NOT AND PUSH1 0x1 PUSH1 0x1 PUSH1 0xA0 SHL SUB SWAP1 SWAP3 AND SWAP2 SWAP1 SWAP2 OR DUP2 SSTORE PUSH1 0x20 DUP1 DUP5 ADD MLOAD DUP1 MLOAD DUP6 SWAP5 PUSH2 0x942 SWAP4 PUSH32 0xD833147D7DC355BA459FC788F669E58CFAF9DC25DDCD0702E87D69C7B512428A SWAP1 SWAP2 ADD SWAP3 ADD SWAP1 PUSH2 0x1E01 JUMP JUMPDEST PUSH1 0x15 DUP1 SLOAD PUSH1 0x1 PUSH1 0x1 PUSH1 0xA0 SHL SUB NOT AND CALLER OR SWAP1 SSTORE PUSH1 0x13 SLOAD PUSH1 0x40 MLOAD ADDRESS SWAP2 DUP1 ISZERO PUSH2 0x8FC MUL SWAP2 PUSH0 DUP2 DUP2 DUP2 DUP6 DUP9 DUP9 CALL SWAP4 POP POP POP POP ISZERO DUP1 ISZERO PUSH2 0x10CF JUMPI RETURNDATASIZE PUSH0 DUP1 RETURNDATACOPY RETURNDATASIZE PUSH0 REVERT JUMPDEST POP PUSH0 JUMPDEST PUSH1 0x11 SLOAD DUP2 LT ISZERO PUSH2 0x744 JUMPI PUSH1 0xC DUP1 SLOAD PUSH0 SWAP2 DUP3 PUSH2 0x10EC DUP4 PUSH2 0x253A JUMP JUMPDEST SWAP1 SWAP2 SSTORE POP PUSH1 0x15 SLOAD SWAP1 SWAP2 POP PUSH2 0x1109 SWAP1 PUSH1 0x1 PUSH1 0x1 PUSH1 0xA0 SHL SUB AND DUP3 PUSH2 0x1A21 JUMP JUMPDEST PUSH2 0x11B4 DUP2 PUSH1 0x11 DUP5 DUP2 SLOAD DUP2 LT PUSH2 0x1120 JUMPI PUSH2 0x1120 PUSH2 0x2526 JUMP JUMPDEST SWAP1 PUSH0 MSTORE PUSH1 0x20 PUSH0 KECCAK256 ADD DUP1 SLOAD PUSH2 0x1133 SWAP1 PUSH2 0x24EE JUMP JUMPDEST DUP1 PUSH1 0x1F ADD PUSH1 0x20 DUP1 SWAP2 DIV MUL PUSH1 0x20 ADD PUSH1 0x40 MLOAD SWAP1 DUP2 ADD PUSH1 0x40 MSTORE DUP1 SWAP3 SWAP2 SWAP1 DUP2 DUP2 MSTORE PUSH1 0x20 ADD DUP3 DUP1 SLOAD PUSH2 0x115F SWAP1 PUSH2 0x24EE JUMP JUMPDEST DUP1 ISZERO PUSH2 0x11AA JUMPI DUP1 PUSH1 0x1F LT PUSH2 0x1181 JUMPI PUSH2 0x100 DUP1 DUP4 SLOAD DIV MUL DUP4 MSTORE SWAP2 PUSH1 0x20 ADD SWAP2 PUSH2 0x11AA JUMP JUMPDEST DUP3 ADD SWAP2 SWAP1 PUSH0 MSTORE PUSH1 0x20 PUSH0 KECCAK256 SWAP1 JUMPDEST DUP2 SLOAD DUP2 MSTORE SWAP1 PUSH1 0x1 ADD SWAP1 PUSH1 0x20 ADD DUP1 DUP4 GT PUSH2 0x118D JUMPI DUP3 SWAP1 SUB PUSH1 0x1F AND DUP3 ADD SWAP2 JUMPDEST POP POP POP POP POP PUSH2 0x1A82 JUMP JUMPDEST PUSH0 SWAP1 DUP2 MSTORE PUSH1 0xD PUSH1 0x20 SWAP1 DUP2 MSTORE PUSH1 0x40 DUP1 DUP4 KECCAK256 DUP1 SLOAD PUSH1 0xFF NOT AND SWAP1 SSTORE PUSH1 0xE SWAP1 SWAP2 MSTORE DUP2 KECCAK256 SSTORE PUSH1 0x1 ADD PUSH2 0x10D2 JUMP JUMPDEST PUSH2 0x121B PUSH1 0x40 MLOAD DUP1 PUSH1 0xC0 ADD PUSH1 0x40 MSTORE DUP1 PUSH0 PUSH1 0x1 PUSH1 0x1 PUSH1 0xA0 SHL SUB AND DUP2 MSTORE PUSH1 0x20 ADD PUSH1 0x60 DUP2 MSTORE PUSH1 0x20 ADD PUSH1 0x60 DUP2 MSTORE PUSH1 0x20 ADD PUSH1 0x60 DUP2 MSTORE PUSH1 0x20 ADD PUSH0 DUP2 MSTORE PUSH1 0x20 ADD PUSH0 DUP2 MSTORE POP SWAP1 JUMP JUMPDEST PUSH1 0x40 MLOAD DUP1 PUSH1 0xC0 ADD PUSH1 0x40 MSTORE DUP1 ADDRESS PUSH1 0x1 PUSH1 0x1 PUSH1 0xA0 SHL SUB AND DUP2 MSTORE PUSH1 0x20 ADD PUSH1 0xF DUP1 SLOAD PUSH2 0x1242 SWAP1 PUSH2 0x24EE JUMP JUMPDEST DUP1 PUSH1 0x1F ADD PUSH1 0x20 DUP1 SWAP2 DIV MUL PUSH1 0x20 ADD PUSH1 0x40 MLOAD SWAP1 DUP2 ADD PUSH1 0x40 MSTORE DUP1 SWAP3 SWAP2 SWAP1 DUP2 DUP2 MSTORE PUSH1 0x20 ADD DUP3 DUP1 SLOAD PUSH2 0x126E SWAP1 PUSH2 0x24EE JUMP JUMPDEST DUP1 ISZERO PUSH2 0x12B9 JUMPI DUP1 PUSH1 0x1F LT PUSH2 0x1290 JUMPI PUSH2 0x100 DUP1 DUP4 SLOAD DIV MUL DUP4 MSTORE SWAP2 PUSH1 0x20 ADD SWAP2 PUSH2 0x12B9 JUMP JUMPDEST DUP3 ADD SWAP2 SWAP1 PUSH0 MSTORE PUSH1 0x20 PUSH0 KECCAK256 SWAP1 JUMPDEST DUP2 SLOAD DUP2 MSTORE SWAP1 PUSH1 0x1 ADD SWAP1 PUSH1 0x20 ADD DUP1 DUP4 GT PUSH2 0x129C JUMPI DUP3 SWAP1 SUB PUSH1 0x1F AND DUP3 ADD SWAP2 JUMPDEST POP POP POP POP POP DUP2 MSTORE PUSH1 0x20 ADD PUSH1 0x10 DUP1 SLOAD PUSH2 0x12D0 SWAP1 PUSH2 0x24EE JUMP JUMPDEST DUP1 PUSH1 0x1F ADD PUSH1 0x20 DUP1 SWAP2 DIV MUL PUSH1 0x20 ADD PUSH1 0x40 MLOAD SWAP1 DUP2 ADD PUSH1 0x40 MSTORE DUP1 SWAP3 SWAP2 SWAP1 DUP2 DUP2 MSTORE PUSH1 0x20 ADD DUP3 DUP1 SLOAD PUSH2 0x12FC SWAP1 PUSH2 0x24EE JUMP JUMPDEST DUP1 ISZERO PUSH2 0x1347 JUMPI DUP1 PUSH1 0x1F LT PUSH2 0x131E JUMPI PUSH2 0x100 DUP1 DUP4 SLOAD DIV MUL DUP4 MSTORE SWAP2 PUSH1 0x20 ADD SWAP2 PUSH2 0x1347 JUMP JUMPDEST DUP3 ADD SWAP2 SWAP1 PUSH0 MSTORE PUSH1 0x20 PUSH0 KECCAK256 SWAP1 JUMPDEST DUP2 SLOAD DUP2 MSTORE SWAP1 PUSH1 0x1 ADD SWAP1 PUSH1 0x20 ADD DUP1 DUP4 GT PUSH2 0x132A JUMPI DUP3 SWAP1 SUB PUSH1 0x1F AND DUP3 ADD SWAP2 JUMPDEST POP POP POP POP POP DUP2 MSTORE PUSH1 0x20 ADD PUSH1 0x11 DUP1 SLOAD DUP1 PUSH1 0x20 MUL PUSH1 0x20 ADD PUSH1 0x40 MLOAD SWAP1 DUP2 ADD PUSH1 0x40 MSTORE DUP1 SWAP3 SWAP2 SWAP1 DUP2 DUP2 MSTORE PUSH1 0x20 ADD PUSH0 SWAP1 JUMPDEST DUP3 DUP3 LT ISZERO PUSH2 0x141A JUMPI DUP4 DUP3 SWAP1 PUSH0 MSTORE PUSH1 0x20 PUSH0 KECCAK256 ADD DUP1 SLOAD PUSH2 0x138F SWAP1 PUSH2 0x24EE JUMP JUMPDEST DUP1 PUSH1 0x1F ADD PUSH1 0x20 DUP1 SWAP2 DIV MUL PUSH1 0x20 ADD PUSH1 0x40 MLOAD SWAP1 DUP2 ADD PUSH1 0x40 MSTORE DUP1 SWAP3 SWAP2 SWAP1 DUP2 DUP2 MSTORE PUSH1 0x20 ADD DUP3 DUP1 SLOAD PUSH2 0x13BB SWAP1 PUSH2 0x24EE JUMP JUMPDEST DUP1 ISZERO PUSH2 0x1406 JUMPI DUP1 PUSH1 0x1F LT PUSH2 0x13DD JUMPI PUSH2 0x100 DUP1 DUP4 SLOAD DIV MUL DUP4 MSTORE SWAP2 PUSH1 0x20 ADD SWAP2 PUSH2 0x1406 JUMP JUMPDEST DUP3 ADD SWAP2 SWAP1 PUSH0 MSTORE PUSH1 0x20 PUSH0 KECCAK256 SWAP1 JUMPDEST DUP2 SLOAD DUP2 MSTORE SWAP1 PUSH1 0x1 ADD SWAP1 PUSH1 0x20 ADD DUP1 DUP4 GT PUSH2 0x13E9 JUMPI DUP3 SWAP1 SUB PUSH1 0x1F AND DUP3 ADD SWAP2 JUMPDEST POP POP POP POP POP DUP2 MSTORE PUSH1 0x20 ADD SWAP1 PUSH1 0x1 ADD SWAP1 PUSH2 0x1372 JUMP JUMPDEST POP POP POP POP DUP2 MSTORE PUSH1 0x20 ADD PUSH1 0x12 SLOAD DUP2 MSTORE PUSH1 0x20 ADD PUSH1 0x13 SLOAD DUP2 MSTORE POP SWAP1 POP SWAP1 JUMP JUMPDEST PUSH1 0x8 SLOAD PUSH1 0x9 SLOAD PUSH1 0xA SLOAD PUSH1 0x40 MLOAD PUSH4 0x2F34077B PUSH1 0xE0 SHL DUP2 MSTORE PUSH1 0x4 DUP2 ADD SWAP3 SWAP1 SWAP3 MSTORE PUSH1 0x1 PUSH1 0xA0 SHL DUP4 DIV PUSH8 0xFFFFFFFFFFFFFFFF AND PUSH1 0x24 DUP4 ADD MSTORE PUSH4 0xFFFFFFFF DUP1 DUP3 AND PUSH1 0x44 DUP5 ADD MSTORE PUSH5 0x100000000 SWAP1 SWAP2 DIV AND PUSH1 0x64 DUP3 ADD MSTORE PUSH0 SWAP2 PUSH1 0x1 PUSH1 0x1 PUSH1 0xA0 SHL SUB AND SWAP1 PUSH4 0x2F34077B SWAP1 PUSH1 0x84 ADD PUSH1 0x20 PUSH1 0x40 MLOAD DUP1 DUP4 SUB DUP2 PUSH0 DUP8 GAS CALL ISZERO DUP1 ISZERO PUSH2 0x14B7 JUMPI RETURNDATASIZE PUSH0 DUP1 RETURNDATACOPY RETURNDATASIZE PUSH0 REVERT JUMPDEST POP POP POP POP PUSH1 0x40 MLOAD RETURNDATASIZE PUSH1 0x1F NOT PUSH1 0x1F DUP3 ADD AND DUP3 ADD DUP1 PUSH1 0x40 MSTORE POP DUP2 ADD SWAP1 PUSH2 0x14DB SWAP2 SWAP1 PUSH2 0x258C JUMP JUMPDEST SWAP1 POP SWAP1 JUMP JUMPDEST PUSH1 0x1 PUSH1 0x1 PUSH1 0xA0 SHL SUB SWAP2 DUP3 AND PUSH0 SWAP1 DUP2 MSTORE PUSH1 0x5 PUSH1 0x20 SWAP1 DUP2 MSTORE PUSH1 0x40 DUP1 DUP4 KECCAK256 SWAP4 SWAP1 SWAP5 AND DUP3 MSTORE SWAP2 SWAP1 SWAP2 MSTORE KECCAK256 SLOAD PUSH1 0xFF AND SWAP1 JUMP JUMPDEST PUSH2 0x1515 PUSH2 0x176E JUMP JUMPDEST PUSH1 0x1 PUSH1 0x1 PUSH1 0xA0 SHL SUB DUP2 AND PUSH2 0x153E JUMPI PUSH1 0x40 MLOAD PUSH4 0x1E4FBDF7 PUSH1 0xE0 SHL DUP2 MSTORE PUSH0 PUSH1 0x4 DUP3 ADD MSTORE PUSH1 0x24 ADD PUSH2 0x8AC JUMP JUMPDEST PUSH2 0x744 DUP2 PUSH2 0x179B JUMP JUMPDEST PUSH1 0x10 DUP1 SLOAD PUSH2 0xA70 SWAP1 PUSH2 0x24EE JUMP JUMPDEST PUSH0 PUSH1 0x1 PUSH1 0x1 PUSH1 0xE0 SHL SUB NOT DUP3 AND PUSH4 0x80AC58CD PUSH1 0xE0 SHL EQ DUP1 PUSH2 0x1584 JUMPI POP PUSH1 0x1 PUSH1 0x1 PUSH1 0xE0 SHL SUB NOT DUP3 AND PUSH4 0x5B5E139F PUSH1 0xE0 SHL EQ JUMPDEST DUP1 PUSH2 0x76B JUMPI POP PUSH4 0x1FFC9A7 PUSH1 0xE0 SHL PUSH1 0x1 PUSH1 0x1 PUSH1 0xE0 SHL SUB NOT DUP4 AND EQ PUSH2 0x76B JUMP JUMPDEST PUSH0 DUP2 DUP2 MSTORE PUSH1 0x2 PUSH1 0x20 MSTORE PUSH1 0x40 DUP2 KECCAK256 SLOAD PUSH1 0x1 PUSH1 0x1 PUSH1 0xA0 SHL SUB AND DUP1 PUSH2 0x76B JUMPI PUSH1 0x40 MLOAD PUSH4 0x7E273289 PUSH1 0xE0 SHL DUP2 MSTORE PUSH1 0x4 DUP2 ADD DUP5 SWAP1 MSTORE PUSH1 0x24 ADD PUSH2 0x8AC JUMP JUMPDEST PUSH2 0xA5E DUP4 DUP4 DUP4 PUSH1 0x1 PUSH2 0x1AD1 JUMP JUMPDEST PUSH1 0x11 SLOAD DUP2 MLOAD DUP3 SWAP1 PUSH0 SWAP1 PUSH2 0x15FD JUMPI PUSH2 0x15FD PUSH2 0x2526 JUMP JUMPDEST PUSH1 0x20 MUL PUSH1 0x20 ADD ADD MLOAD PUSH2 0x160F SWAP2 SWAP1 PUSH2 0x25A3 JUMP JUMPDEST PUSH1 0xB SSTORE PUSH1 0xC DUP1 SLOAD PUSH0 SWAP2 DUP3 PUSH2 0x1622 DUP4 PUSH2 0x253A JUMP JUMPDEST SWAP1 SWAP2 SSTORE POP PUSH1 0x15 SLOAD SWAP1 SWAP2 POP PUSH2 0x163F SWAP1 PUSH1 0x1 PUSH1 0x1 PUSH1 0xA0 SHL SUB AND DUP3 PUSH2 0x1A21 JUMP JUMPDEST PUSH2 0x1658 DUP2 PUSH1 0x11 PUSH1 0xB SLOAD DUP2 SLOAD DUP2 LT PUSH2 0x1120 JUMPI PUSH2 0x1120 PUSH2 0x2526 JUMP JUMPDEST PUSH0 SWAP1 DUP2 MSTORE PUSH1 0xD PUSH1 0x20 SWAP1 DUP2 MSTORE PUSH1 0x40 DUP1 DUP4 KECCAK256 DUP1 SLOAD PUSH1 0xFF NOT AND SWAP1 SSTORE PUSH1 0xE SWAP1 SWAP2 MSTORE DUP2 KECCAK256 SSTORE POP POP JUMP JUMPDEST PUSH0 DUP3 DUP2 MSTORE PUSH1 0x2 PUSH1 0x20 MSTORE PUSH1 0x40 DUP2 KECCAK256 SLOAD PUSH1 0x1 PUSH1 0x1 PUSH1 0xA0 SHL SUB SWAP1 DUP2 AND SWAP1 DUP4 AND ISZERO PUSH2 0x16A8 JUMPI PUSH2 0x16A8 DUP2 DUP5 DUP7 PUSH2 0x1BD5 JUMP JUMPDEST PUSH1 0x1 PUSH1 0x1 PUSH1 0xA0 SHL SUB DUP2 AND ISZERO PUSH2 0x16E2 JUMPI PUSH2 0x16C3 PUSH0 DUP6 PUSH0 DUP1 PUSH2 0x1AD1 JUMP JUMPDEST PUSH1 0x1 PUSH1 0x1 PUSH1 0xA0 SHL SUB DUP2 AND PUSH0 SWAP1 DUP2 MSTORE PUSH1 0x3 PUSH1 0x20 MSTORE PUSH1 0x40 SWAP1 KECCAK256 DUP1 SLOAD PUSH0 NOT ADD SWAP1 SSTORE JUMPDEST PUSH1 0x1 PUSH1 0x1 PUSH1 0xA0 SHL SUB DUP6 AND ISZERO PUSH2 0x1710 JUMPI PUSH1 0x1 PUSH1 0x1 PUSH1 0xA0 SHL SUB DUP6 AND PUSH0 SWAP1 DUP2 MSTORE PUSH1 0x3 PUSH1 0x20 MSTORE PUSH1 0x40 SWAP1 KECCAK256 DUP1 SLOAD PUSH1 0x1 ADD SWAP1 SSTORE JUMPDEST PUSH0 DUP5 DUP2 MSTORE PUSH1 0x2 PUSH1 0x20 MSTORE PUSH1 0x40 DUP1 DUP3 KECCAK256 DUP1 SLOAD PUSH1 0x1 PUSH1 0x1 PUSH1 0xA0 SHL SUB NOT AND PUSH1 0x1 PUSH1 0x1 PUSH1 0xA0 SHL SUB DUP10 DUP2 AND SWAP2 DUP3 OR SWAP1 SWAP3 SSTORE SWAP2 MLOAD DUP8 SWAP4 SWAP2 DUP6 AND SWAP2 PUSH32 0xDDF252AD1BE2C89B69C2B068FC378DAA952BA7F163C4A11628F55A4DF523B3EF SWAP2 LOG4 SWAP5 SWAP4 POP POP POP POP JUMP JUMPDEST PUSH1 0x7 SLOAD PUSH1 0x1 PUSH1 0x1 PUSH1 0xA0 SHL SUB AND CALLER EQ PUSH2 0xB4F JUMPI PUSH1 0x40 MLOAD PUSH4 0x118CDAA7 PUSH1 0xE0 SHL DUP2 MSTORE CALLER PUSH1 0x4 DUP3 ADD MSTORE PUSH1 0x24 ADD PUSH2 0x8AC JUMP JUMPDEST PUSH1 0x7 DUP1 SLOAD PUSH1 0x1 PUSH1 0x1 PUSH1 0xA0 SHL SUB DUP4 DUP2 AND PUSH1 0x1 PUSH1 0x1 PUSH1 0xA0 SHL SUB NOT DUP4 AND DUP2 OR SWAP1 SWAP4 SSTORE PUSH1 0x40 MLOAD SWAP2 AND SWAP2 SWAP1 DUP3 SWAP1 PUSH32 0x8BE0079C531659141344CD1FD0A4F28419497F9722A3DAAFE3B4186F6B6457E0 SWAP1 PUSH0 SWAP1 LOG3 POP POP JUMP JUMPDEST PUSH1 0x1 PUSH1 0x1 PUSH1 0xA0 SHL SUB DUP3 AND PUSH2 0x181E JUMPI PUSH1 0x40 MLOAD PUSH4 0xB611743 PUSH1 0xE3 SHL DUP2 MSTORE PUSH1 0x1 PUSH1 0x1 PUSH1 0xA0 SHL SUB DUP4 AND PUSH1 0x4 DUP3 ADD MSTORE PUSH1 0x24 ADD PUSH2 0x8AC JUMP JUMPDEST PUSH1 0x1 PUSH1 0x1 PUSH1 0xA0 SHL SUB DUP4 DUP2 AND PUSH0 DUP2 DUP2 MSTORE PUSH1 0x5 PUSH1 0x20 SWAP1 DUP2 MSTORE PUSH1 0x40 DUP1 DUP4 KECCAK256 SWAP5 DUP8 AND DUP1 DUP5 MSTORE SWAP5 DUP3 MSTORE SWAP2 DUP3 SWAP1 KECCAK256 DUP1 SLOAD PUSH1 0xFF NOT AND DUP7 ISZERO ISZERO SWAP1 DUP2 OR SWAP1 SWAP2 SSTORE SWAP2 MLOAD SWAP2 DUP3 MSTORE PUSH32 0x17307EAB39AB6107E8899845AD3D59BD9653F200F220920489CA2B5937696C31 SWAP2 ADD PUSH1 0x40 MLOAD DUP1 SWAP2 SUB SWAP1 LOG3 POP POP POP JUMP JUMPDEST PUSH1 0x1 PUSH1 0x1 PUSH1 0xA0 SHL SUB DUP4 AND EXTCODESIZE ISZERO PUSH2 0x942 JUMPI PUSH1 0x40 MLOAD PUSH4 0xA85BD01 PUSH1 0xE1 SHL DUP2 MSTORE PUSH1 0x1 PUSH1 0x1 PUSH1 0xA0 SHL SUB DUP5 AND SWAP1 PUSH4 0x150B7A02 SWAP1 PUSH2 0x18CC SWAP1 CALLER SWAP1 DUP9 SWAP1 DUP8 SWAP1 DUP8 SWAP1 PUSH1 0x4 ADD PUSH2 0x25C2 JUMP JUMPDEST PUSH1 0x20 PUSH1 0x40 MLOAD DUP1 DUP4 SUB DUP2 PUSH0 DUP8 GAS CALL SWAP3 POP POP POP DUP1 ISZERO PUSH2 0x1906 JUMPI POP PUSH1 0x40 DUP1 MLOAD PUSH1 0x1F RETURNDATASIZE SWAP1 DUP2 ADD PUSH1 0x1F NOT AND DUP3 ADD SWAP1 SWAP3 MSTORE PUSH2 0x1903 SWAP2 DUP2 ADD SWAP1 PUSH2 0x25FE JUMP JUMPDEST PUSH1 0x1 JUMPDEST PUSH2 0x196D JUMPI RETURNDATASIZE DUP1 DUP1 ISZERO PUSH2 0x1933 JUMPI PUSH1 0x40 MLOAD SWAP2 POP PUSH1 0x1F NOT PUSH1 0x3F RETURNDATASIZE ADD AND DUP3 ADD PUSH1 0x40 MSTORE RETURNDATASIZE DUP3 MSTORE RETURNDATASIZE PUSH0 PUSH1 0x20 DUP5 ADD RETURNDATACOPY PUSH2 0x1938 JUMP JUMPDEST PUSH1 0x60 SWAP2 POP JUMPDEST POP DUP1 MLOAD PUSH0 SUB PUSH2 0x1965 JUMPI PUSH1 0x40 MLOAD PUSH4 0x32505749 PUSH1 0xE1 SHL DUP2 MSTORE PUSH1 0x1 PUSH1 0x1 PUSH1 0xA0 SHL SUB DUP6 AND PUSH1 0x4 DUP3 ADD MSTORE PUSH1 0x24 ADD PUSH2 0x8AC JUMP JUMPDEST DUP1 MLOAD DUP2 PUSH1 0x20 ADD REVERT JUMPDEST PUSH1 0x1 PUSH1 0x1 PUSH1 0xE0 SHL SUB NOT DUP2 AND PUSH4 0xA85BD01 PUSH1 0xE1 SHL EQ PUSH2 0x19A9 JUMPI PUSH1 0x40 MLOAD PUSH4 0x32505749 PUSH1 0xE1 SHL DUP2 MSTORE PUSH1 0x1 PUSH1 0x1 PUSH1 0xA0 SHL SUB DUP6 AND PUSH1 0x4 DUP3 ADD MSTORE PUSH1 0x24 ADD PUSH2 0x8AC JUMP JUMPDEST POP POP POP POP POP JUMP JUMPDEST PUSH1 0x60 PUSH2 0x19BB DUP3 PUSH2 0x15A3 JUMP JUMPDEST POP PUSH0 PUSH2 0x19D1 PUSH1 0x40 DUP1 MLOAD PUSH1 0x20 DUP2 ADD SWAP1 SWAP2 MSTORE PUSH0 DUP2 MSTORE SWAP1 JUMP JUMPDEST SWAP1 POP PUSH0 DUP2 MLOAD GT PUSH2 0x19EF JUMPI PUSH1 0x40 MLOAD DUP1 PUSH1 0x20 ADD PUSH1 0x40 MSTORE DUP1 PUSH0 DUP2 MSTORE POP PUSH2 0x1A1A JUMP JUMPDEST DUP1 PUSH2 0x19F9 DUP5 PUSH2 0x1C39 JUMP JUMPDEST PUSH1 0x40 MLOAD PUSH1 0x20 ADD PUSH2 0x1A0A SWAP3 SWAP2 SWAP1 PUSH2 0x255E JUMP JUMPDEST PUSH1 0x40 MLOAD PUSH1 0x20 DUP2 DUP4 SUB SUB DUP2 MSTORE SWAP1 PUSH1 0x40 MSTORE JUMPDEST SWAP4 SWAP3 POP POP POP JUMP JUMPDEST PUSH1 0x1 PUSH1 0x1 PUSH1 0xA0 SHL SUB DUP3 AND PUSH2 0x1A4A JUMPI PUSH1 0x40 MLOAD PUSH4 0x32505749 PUSH1 0xE1 SHL DUP2 MSTORE PUSH0 PUSH1 0x4 DUP3 ADD MSTORE PUSH1 0x24 ADD PUSH2 0x8AC JUMP JUMPDEST PUSH0 PUSH2 0x1A56 DUP4 DUP4 PUSH0 PUSH2 0x167C JUMP JUMPDEST SWAP1 POP PUSH1 0x1 PUSH1 0x1 PUSH1 0xA0 SHL SUB DUP2 AND ISZERO PUSH2 0xA5E JUMPI PUSH1 0x40 MLOAD PUSH4 0x39E35637 PUSH1 0xE1 SHL DUP2 MSTORE PUSH0 PUSH1 0x4 DUP3 ADD MSTORE PUSH1 0x24 ADD PUSH2 0x8AC JUMP JUMPDEST PUSH0 DUP3 DUP2 MSTORE PUSH1 0x6 PUSH1 0x20 MSTORE PUSH1 0x40 SWAP1 KECCAK256 PUSH2 0x1A99 DUP3 DUP3 PUSH2 0x265D JUMP JUMPDEST POP PUSH1 0x40 MLOAD DUP3 DUP2 MSTORE PUSH32 0xF8E1A15ABA9398E019F0B49DF1A4FDE98EE17AE345CB5F6B5E2C27F5033E8CE7 SWAP1 PUSH1 0x20 ADD PUSH1 0x40 MLOAD DUP1 SWAP2 SUB SWAP1 LOG1 POP POP JUMP JUMPDEST DUP1 DUP1 PUSH2 0x1AE5 JUMPI POP PUSH1 0x1 PUSH1 0x1 PUSH1 0xA0 SHL SUB DUP3 AND ISZERO ISZERO JUMPDEST ISZERO PUSH2 0x1BA6 JUMPI PUSH0 PUSH2 0x1AF4 DUP5 PUSH2 0x15A3 JUMP JUMPDEST SWAP1 POP PUSH1 0x1 PUSH1 0x1 PUSH1 0xA0 SHL SUB DUP4 AND ISZERO DUP1 ISZERO SWAP1 PUSH2 0x1B20 JUMPI POP DUP3 PUSH1 0x1 PUSH1 0x1 PUSH1 0xA0 SHL SUB AND DUP2 PUSH1 0x1 PUSH1 0x1 PUSH1 0xA0 SHL SUB AND EQ ISZERO JUMPDEST DUP1 ISZERO PUSH2 0x1B33 JUMPI POP PUSH2 0x1B31 DUP2 DUP5 PUSH2 0x14E0 JUMP JUMPDEST ISZERO JUMPDEST ISZERO PUSH2 0x1B5C JUMPI PUSH1 0x40 MLOAD PUSH4 0xA9FBF51F PUSH1 0xE0 SHL DUP2 MSTORE PUSH1 0x1 PUSH1 0x1 PUSH1 0xA0 SHL SUB DUP5 AND PUSH1 0x4 DUP3 ADD MSTORE PUSH1 0x24 ADD PUSH2 0x8AC JUMP JUMPDEST DUP2 ISZERO PUSH2 0x1BA4 JUMPI DUP4 DUP6 PUSH1 0x1 PUSH1 0x1 PUSH1 0xA0 SHL SUB AND DUP3 PUSH1 0x1 PUSH1 0x1 PUSH1 0xA0 SHL SUB AND PUSH32 0x8C5BE1E5EBEC7D5BD14F71427D1E84F3DD0314C0F7B2291E5B200AC8C7C3B925 PUSH1 0x40 MLOAD PUSH1 0x40 MLOAD DUP1 SWAP2 SUB SWAP1 LOG4 JUMPDEST POP JUMPDEST POP POP PUSH0 SWAP1 DUP2 MSTORE PUSH1 0x4 PUSH1 0x20 MSTORE PUSH1 0x40 SWAP1 KECCAK256 DUP1 SLOAD PUSH1 0x1 PUSH1 0x1 PUSH1 0xA0 SHL SUB NOT AND PUSH1 0x1 PUSH1 0x1 PUSH1 0xA0 SHL SUB SWAP3 SWAP1 SWAP3 AND SWAP2 SWAP1 SWAP2 OR SWAP1 SSTORE JUMP JUMPDEST PUSH2 0x1BE0 DUP4 DUP4 DUP4 PUSH2 0x1CC9 JUMP JUMPDEST PUSH2 0xA5E JUMPI PUSH1 0x1 PUSH1 0x1 PUSH1 0xA0 SHL SUB DUP4 AND PUSH2 0x1C0E JUMPI PUSH1 0x40 MLOAD PUSH4 0x7E273289 PUSH1 0xE0 SHL DUP2 MSTORE PUSH1 0x4 DUP2 ADD DUP3 SWAP1 MSTORE PUSH1 0x24 ADD PUSH2 0x8AC JUMP JUMPDEST PUSH1 0x40 MLOAD PUSH4 0x177E802F PUSH1 0xE0 SHL DUP2 MSTORE PUSH1 0x1 PUSH1 0x1 PUSH1 0xA0 SHL SUB DUP4 AND PUSH1 0x4 DUP3 ADD MSTORE PUSH1 0x24 DUP2 ADD DUP3 SWAP1 MSTORE PUSH1 0x44 ADD PUSH2 0x8AC JUMP JUMPDEST PUSH1 0x60 PUSH0 PUSH2 0x1C45 DUP4 PUSH2 0x1D2A JUMP JUMPDEST PUSH1 0x1 ADD SWAP1 POP PUSH0 DUP2 PUSH8 0xFFFFFFFFFFFFFFFF DUP2 GT ISZERO PUSH2 0x1C64 JUMPI PUSH2 0x1C64 PUSH2 0x1F61 JUMP JUMPDEST PUSH1 0x40 MLOAD SWAP1 DUP1 DUP3 MSTORE DUP1 PUSH1 0x1F ADD PUSH1 0x1F NOT AND PUSH1 0x20 ADD DUP3 ADD PUSH1 0x40 MSTORE DUP1 ISZERO PUSH2 0x1C8E JUMPI PUSH1 0x20 DUP3 ADD DUP2 DUP1 CALLDATASIZE DUP4 CALLDATACOPY ADD SWAP1 POP JUMPDEST POP SWAP1 POP DUP2 DUP2 ADD PUSH1 0x20 ADD JUMPDEST PUSH0 NOT ADD PUSH16 0x181899199A1A9B1B9C1CB0B131B232B3 PUSH1 0x81 SHL PUSH1 0xA DUP7 MOD BYTE DUP2 MSTORE8 PUSH1 0xA DUP6 DIV SWAP5 POP DUP5 PUSH2 0x1C98 JUMPI POP SWAP4 SWAP3 POP POP POP JUMP JUMPDEST PUSH0 PUSH1 0x1 PUSH1 0x1 PUSH1 0xA0 SHL SUB DUP4 AND ISZERO DUP1 ISZERO SWAP1 PUSH2 0xFF9 JUMPI POP DUP3 PUSH1 0x1 PUSH1 0x1 PUSH1 0xA0 SHL SUB AND DUP5 PUSH1 0x1 PUSH1 0x1 PUSH1 0xA0 SHL SUB AND EQ DUP1 PUSH2 0x1D02 JUMPI POP PUSH2 0x1D02 DUP5 DUP5 PUSH2 0x14E0 JUMP JUMPDEST DUP1 PUSH2 0xFF9 JUMPI POP POP PUSH0 SWAP1 DUP2 MSTORE PUSH1 0x4 PUSH1 0x20 MSTORE PUSH1 0x40 SWAP1 KECCAK256 SLOAD PUSH1 0x1 PUSH1 0x1 PUSH1 0xA0 SHL SUB SWAP1 DUP2 AND SWAP2 AND EQ SWAP2 SWAP1 POP JUMP JUMPDEST PUSH0 DUP1 PUSH19 0x184F03E93FF9F4DAA797ED6E38ED64BF6A1F01 PUSH1 0x40 SHL DUP4 LT PUSH2 0x1D68 JUMPI PUSH19 0x184F03E93FF9F4DAA797ED6E38ED64BF6A1F01 PUSH1 0x40 SHL DUP4 DIV SWAP3 POP PUSH1 0x40 ADD JUMPDEST PUSH14 0x4EE2D6D415B85ACEF8100000000 DUP4 LT PUSH2 0x1D94 JUMPI PUSH14 0x4EE2D6D415B85ACEF8100000000 DUP4 DIV SWAP3 POP PUSH1 0x20 ADD JUMPDEST PUSH7 0x2386F26FC10000 DUP4 LT PUSH2 0x1DB2 JUMPI PUSH7 0x2386F26FC10000 DUP4 DIV SWAP3 POP PUSH1 0x10 ADD JUMPDEST PUSH4 0x5F5E100 DUP4 LT PUSH2 0x1DCA JUMPI PUSH4 0x5F5E100 DUP4 DIV SWAP3 POP PUSH1 0x8 ADD JUMPDEST PUSH2 0x2710 DUP4 LT PUSH2 0x1DDE JUMPI PUSH2 0x2710 DUP4 DIV SWAP3 POP PUSH1 0x4 ADD JUMPDEST PUSH1 0x64 DUP4 LT PUSH2 0x1DF0 JUMPI PUSH1 0x64 DUP4 DIV SWAP3 POP PUSH1 0x2 ADD JUMPDEST PUSH1 0xA DUP4 LT PUSH2 0x76B JUMPI PUSH1 0x1 ADD SWAP3 SWAP2 POP POP JUMP JUMPDEST DUP3 DUP1 SLOAD DUP3 DUP3 SSTORE SWAP1 PUSH0 MSTORE PUSH1 0x20 PUSH0 KECCAK256 SWAP1 DUP2 ADD SWAP3 DUP3 ISZERO PUSH2 0x1E54 JUMPI SWAP2 PUSH1 0x20 MUL DUP3 ADD JUMPDEST DUP3 DUP2 GT ISZERO PUSH2 0x1E54 JUMPI DUP3 MLOAD DUP3 SLOAD PUSH1 0x1 PUSH1 0x1 PUSH1 0xA0 SHL SUB NOT AND PUSH1 0x1 PUSH1 0x1 PUSH1 0xA0 SHL SUB SWAP1 SWAP2 AND OR DUP3 SSTORE PUSH1 0x20 SWAP1 SWAP3 ADD SWAP2 PUSH1 0x1 SWAP1 SWAP2 ADD SWAP1 PUSH2 0x1E1F JUMP JUMPDEST POP PUSH2 0x1E60 SWAP3 SWAP2 POP PUSH2 0x1E64 JUMP JUMPDEST POP SWAP1 JUMP JUMPDEST JUMPDEST DUP1 DUP3 GT ISZERO PUSH2 0x1E60 JUMPI PUSH0 DUP2 SSTORE PUSH1 0x1 ADD PUSH2 0x1E65 JUMP JUMPDEST PUSH1 0x1 PUSH1 0x1 PUSH1 0xE0 SHL SUB NOT DUP2 AND DUP2 EQ PUSH2 0x744 JUMPI PUSH0 DUP1 REVERT JUMPDEST PUSH0 PUSH1 0x20 DUP3 DUP5 SUB SLT ISZERO PUSH2 0x1E9D JUMPI PUSH0 DUP1 REVERT JUMPDEST DUP2 CALLDATALOAD PUSH2 0x1A1A DUP2 PUSH2 0x1E78 JUMP JUMPDEST PUSH0 JUMPDEST DUP4 DUP2 LT ISZERO PUSH2 0x1EC2 JUMPI DUP2 DUP2 ADD MLOAD DUP4 DUP3 ADD MSTORE PUSH1 0x20 ADD PUSH2 0x1EAA JUMP JUMPDEST POP POP PUSH0 SWAP2 ADD MSTORE JUMP JUMPDEST PUSH0 DUP2 MLOAD DUP1 DUP5 MSTORE PUSH2 0x1EE1 DUP2 PUSH1 0x20 DUP7 ADD PUSH1 0x20 DUP7 ADD PUSH2 0x1EA8 JUMP JUMPDEST PUSH1 0x1F ADD PUSH1 0x1F NOT AND SWAP3 SWAP1 SWAP3 ADD PUSH1 0x20 ADD SWAP3 SWAP2 POP POP JUMP JUMPDEST PUSH1 0x20 DUP2 MSTORE PUSH0 PUSH2 0x1A1A PUSH1 0x20 DUP4 ADD DUP5 PUSH2 0x1ECA JUMP JUMPDEST PUSH0 PUSH1 0x20 DUP3 DUP5 SUB SLT ISZERO PUSH2 0x1F17 JUMPI PUSH0 DUP1 REVERT JUMPDEST POP CALLDATALOAD SWAP2 SWAP1 POP JUMP JUMPDEST DUP1 CALLDATALOAD PUSH1 0x1 PUSH1 0x1 PUSH1 0xA0 SHL SUB DUP2 AND DUP2 EQ PUSH2 0x1F34 JUMPI PUSH0 DUP1 REVERT JUMPDEST SWAP2 SWAP1 POP JUMP JUMPDEST PUSH0 DUP1 PUSH1 0x40 DUP4 DUP6 SUB SLT ISZERO PUSH2 0x1F4A JUMPI PUSH0 DUP1 REVERT JUMPDEST PUSH2 0x1F53 DUP4 PUSH2 0x1F1E JUMP JUMPDEST SWAP5 PUSH1 0x20 SWAP4 SWAP1 SWAP4 ADD CALLDATALOAD SWAP4 POP POP POP JUMP JUMPDEST PUSH4 0x4E487B71 PUSH1 0xE0 SHL PUSH0 MSTORE PUSH1 0x41 PUSH1 0x4 MSTORE PUSH1 0x24 PUSH0 REVERT JUMPDEST PUSH1 0x40 DUP1 MLOAD SWAP1 DUP2 ADD PUSH8 0xFFFFFFFFFFFFFFFF DUP2 GT DUP3 DUP3 LT OR ISZERO PUSH2 0x1F98 JUMPI PUSH2 0x1F98 PUSH2 0x1F61 JUMP JUMPDEST PUSH1 0x40 MSTORE SWAP1 JUMP JUMPDEST PUSH1 0x40 MLOAD PUSH1 0x1F DUP3 ADD PUSH1 0x1F NOT AND DUP2 ADD PUSH8 0xFFFFFFFFFFFFFFFF DUP2 GT DUP3 DUP3 LT OR ISZERO PUSH2 0x1FC7 JUMPI PUSH2 0x1FC7 PUSH2 0x1F61 JUMP JUMPDEST PUSH1 0x40 MSTORE SWAP2 SWAP1 POP JUMP JUMPDEST PUSH0 PUSH8 0xFFFFFFFFFFFFFFFF DUP3 GT ISZERO PUSH2 0x1FE8 JUMPI PUSH2 0x1FE8 PUSH2 0x1F61 JUMP JUMPDEST POP PUSH1 0x5 SHL PUSH1 0x20 ADD SWAP1 JUMP JUMPDEST PUSH0 DUP1 PUSH1 0x40 DUP4 DUP6 SUB SLT ISZERO PUSH2 0x2003 JUMPI PUSH0 DUP1 REVERT JUMPDEST DUP3 CALLDATALOAD SWAP2 POP PUSH1 0x20 DUP1 DUP5 ADD CALLDATALOAD PUSH8 0xFFFFFFFFFFFFFFFF DUP2 GT ISZERO PUSH2 0x2021 JUMPI PUSH0 DUP1 REVERT JUMPDEST DUP5 ADD PUSH1 0x1F DUP2 ADD DUP7 SGT PUSH2 0x2031 JUMPI PUSH0 DUP1 REVERT JUMPDEST DUP1 CALLDATALOAD PUSH2 0x2044 PUSH2 0x203F DUP3 PUSH2 0x1FCF JUMP JUMPDEST PUSH2 0x1F9E JUMP JUMPDEST DUP2 DUP2 MSTORE PUSH1 0x5 SWAP2 SWAP1 SWAP2 SHL DUP3 ADD DUP4 ADD SWAP1 DUP4 DUP2 ADD SWAP1 DUP9 DUP4 GT ISZERO PUSH2 0x2062 JUMPI PUSH0 DUP1 REVERT JUMPDEST SWAP3 DUP5 ADD SWAP3 JUMPDEST DUP3 DUP5 LT ISZERO PUSH2 0x2080 JUMPI DUP4 CALLDATALOAD DUP3 MSTORE SWAP3 DUP5 ADD SWAP3 SWAP1 DUP5 ADD SWAP1 PUSH2 0x2067 JUMP JUMPDEST DUP1 SWAP6 POP POP POP POP POP POP SWAP3 POP SWAP3 SWAP1 POP JUMP JUMPDEST PUSH0 DUP1 PUSH0 PUSH1 0x60 DUP5 DUP7 SUB SLT ISZERO PUSH2 0x20A1 JUMPI PUSH0 DUP1 REVERT JUMPDEST PUSH2 0x20AA DUP5 PUSH2 0x1F1E JUMP JUMPDEST SWAP3 POP PUSH2 0x20B8 PUSH1 0x20 DUP6 ADD PUSH2 0x1F1E JUMP JUMPDEST SWAP2 POP PUSH1 0x40 DUP5 ADD CALLDATALOAD SWAP1 POP SWAP3 POP SWAP3 POP SWAP3 JUMP JUMPDEST PUSH0 PUSH1 0x20 DUP3 DUP5 SUB SLT ISZERO PUSH2 0x20D8 JUMPI PUSH0 DUP1 REVERT JUMPDEST PUSH2 0x1A1A DUP3 PUSH2 0x1F1E JUMP JUMPDEST PUSH0 PUSH1 0x20 DUP1 DUP4 ADD DUP2 DUP5 MSTORE DUP1 DUP6 MLOAD DUP1 DUP4 MSTORE PUSH1 0x40 SWAP3 POP PUSH1 0x40 DUP7 ADD SWAP2 POP PUSH1 0x40 DUP2 PUSH1 0x5 SHL DUP8 ADD ADD DUP5 DUP9 ADD PUSH0 JUMPDEST DUP4 DUP2 LT ISZERO PUSH2 0x2180 JUMPI DUP9 DUP4 SUB PUSH1 0x3F NOT ADD DUP6 MSTORE DUP2 MLOAD DUP1 MLOAD PUSH1 0x1 PUSH1 0x1 PUSH1 0xA0 SHL SUB SWAP1 DUP2 AND DUP6 MSTORE SWAP1 DUP9 ADD MLOAD DUP9 DUP6 ADD DUP9 SWAP1 MSTORE DUP1 MLOAD DUP9 DUP7 ADD DUP2 SWAP1 MSTORE SWAP1 DUP10 ADD SWAP2 PUSH0 SWAP2 PUSH1 0x60 DUP8 ADD SWAP1 JUMPDEST DUP1 DUP5 LT ISZERO PUSH2 0x216A JUMPI DUP5 MLOAD DUP4 AND DUP3 MSTORE SWAP4 DUP12 ADD SWAP4 PUSH1 0x1 SWAP4 SWAP1 SWAP4 ADD SWAP3 SWAP1 DUP12 ADD SWAP1 PUSH2 0x2148 JUMP JUMPDEST POP SWAP8 DUP11 ADD SWAP8 SWAP6 POP POP POP SWAP2 DUP8 ADD SWAP2 POP PUSH1 0x1 ADD PUSH2 0x2108 JUMP JUMPDEST POP SWAP1 SWAP9 SWAP8 POP POP POP POP POP POP POP POP JUMP JUMPDEST PUSH0 DUP1 PUSH1 0x40 DUP4 DUP6 SUB SLT ISZERO PUSH2 0x219F JUMPI PUSH0 DUP1 REVERT JUMPDEST POP POP DUP1 CALLDATALOAD SWAP3 PUSH1 0x20 SWAP1 SWAP2 ADD CALLDATALOAD SWAP2 POP JUMP JUMPDEST PUSH0 PUSH1 0x20 DUP1 DUP4 ADD DUP2 DUP5 MSTORE DUP1 DUP6 MLOAD DUP1 DUP4 MSTORE PUSH1 0x40 SWAP3 POP PUSH1 0x40 DUP7 ADD SWAP2 POP PUSH1 0x40 DUP2 PUSH1 0x5 SHL DUP8 ADD ADD DUP5 DUP9 ADD PUSH0 JUMPDEST DUP4 DUP2 LT ISZERO PUSH2 0x2180 JUMPI PUSH1 0x3F NOT DUP10 DUP5 SUB ADD DUP6 MSTORE DUP2 MLOAD PUSH1 0x80 DUP2 MLOAD DUP6 MSTORE DUP9 DUP3 ADD MLOAD DUP2 DUP11 DUP8 ADD MSTORE PUSH2 0x2203 DUP3 DUP8 ADD DUP3 PUSH2 0x1ECA JUMP JUMPDEST DUP4 DUP11 ADD MLOAD ISZERO ISZERO DUP8 DUP12 ADD MSTORE PUSH1 0x60 SWAP4 DUP5 ADD MLOAD SWAP4 SWAP1 SWAP7 ADD SWAP3 SWAP1 SWAP3 MSTORE POP POP SWAP4 DUP7 ADD SWAP4 SWAP1 DUP7 ADD SWAP1 PUSH1 0x1 ADD PUSH2 0x21D5 JUMP JUMPDEST PUSH0 DUP1 PUSH1 0x40 DUP4 DUP6 SUB SLT ISZERO PUSH2 0x223E JUMPI PUSH0 DUP1 REVERT JUMPDEST PUSH2 0x2247 DUP4 PUSH2 0x1F1E JUMP JUMPDEST SWAP2 POP PUSH1 0x20 DUP4 ADD CALLDATALOAD DUP1 ISZERO ISZERO DUP2 EQ PUSH2 0x225B JUMPI PUSH0 DUP1 REVERT JUMPDEST DUP1 SWAP2 POP POP SWAP3 POP SWAP3 SWAP1 POP JUMP JUMPDEST PUSH0 DUP1 PUSH0 DUP1 PUSH1 0x80 DUP6 DUP8 SUB SLT ISZERO PUSH2 0x2279 JUMPI PUSH0 DUP1 REVERT JUMPDEST PUSH2 0x2282 DUP6 PUSH2 0x1F1E JUMP JUMPDEST SWAP4 POP PUSH1 0x20 PUSH2 0x2291 DUP2 DUP8 ADD PUSH2 0x1F1E JUMP JUMPDEST SWAP4 POP PUSH1 0x40 DUP7 ADD CALLDATALOAD SWAP3 POP PUSH1 0x60 DUP7 ADD CALLDATALOAD PUSH8 0xFFFFFFFFFFFFFFFF DUP1 DUP3 GT ISZERO PUSH2 0x22B4 JUMPI PUSH0 DUP1 REVERT JUMPDEST DUP2 DUP9 ADD SWAP2 POP DUP9 PUSH1 0x1F DUP4 ADD SLT PUSH2 0x22C7 JUMPI PUSH0 DUP1 REVERT JUMPDEST DUP2 CALLDATALOAD DUP2 DUP2 GT ISZERO PUSH2 0x22D9 JUMPI PUSH2 0x22D9 PUSH2 0x1F61 JUMP JUMPDEST PUSH2 0x22EB PUSH1 0x1F DUP3 ADD PUSH1 0x1F NOT AND DUP6 ADD PUSH2 0x1F9E JUMP JUMPDEST SWAP2 POP DUP1 DUP3 MSTORE DUP10 DUP5 DUP3 DUP6 ADD ADD GT ISZERO PUSH2 0x2300 JUMPI PUSH0 DUP1 REVERT JUMPDEST DUP1 DUP5 DUP5 ADD DUP6 DUP5 ADD CALLDATACOPY PUSH0 DUP5 DUP3 DUP5 ADD ADD MSTORE POP DUP1 SWAP4 POP POP POP POP SWAP3 SWAP6 SWAP2 SWAP5 POP SWAP3 POP JUMP JUMPDEST PUSH0 PUSH1 0x20 DUP1 DUP4 DUP6 SUB SLT ISZERO PUSH2 0x2330 JUMPI PUSH0 DUP1 REVERT JUMPDEST DUP3 CALLDATALOAD PUSH8 0xFFFFFFFFFFFFFFFF DUP1 DUP3 GT ISZERO PUSH2 0x2347 JUMPI PUSH0 DUP1 REVERT JUMPDEST SWAP1 DUP5 ADD SWAP1 PUSH1 0x40 DUP3 DUP8 SUB SLT ISZERO PUSH2 0x235A JUMPI PUSH0 DUP1 REVERT JUMPDEST PUSH2 0x2362 PUSH2 0x1F75 JUMP JUMPDEST PUSH2 0x236B DUP4 PUSH2 0x1F1E JUMP JUMPDEST DUP2 MSTORE DUP4 DUP4 ADD CALLDATALOAD DUP3 DUP2 GT ISZERO PUSH2 0x237D JUMPI PUSH0 DUP1 REVERT JUMPDEST DUP1 DUP5 ADD SWAP4 POP POP DUP7 PUSH1 0x1F DUP5 ADD SLT PUSH2 0x2391 JUMPI PUSH0 DUP1 REVERT JUMPDEST DUP3 CALLDATALOAD SWAP2 POP PUSH2 0x23A1 PUSH2 0x203F DUP4 PUSH2 0x1FCF JUMP JUMPDEST DUP3 DUP2 MSTORE PUSH1 0x5 SWAP3 SWAP1 SWAP3 SHL DUP4 ADD DUP5 ADD SWAP2 DUP5 DUP2 ADD SWAP1 DUP9 DUP5 GT ISZERO PUSH2 0x23BF JUMPI PUSH0 DUP1 REVERT JUMPDEST SWAP4 DUP6 ADD SWAP4 JUMPDEST DUP4 DUP6 LT ISZERO PUSH2 0x23E4 JUMPI PUSH2 0x23D5 DUP6 PUSH2 0x1F1E JUMP JUMPDEST DUP3 MSTORE SWAP4 DUP6 ADD SWAP4 SWAP1 DUP6 ADD SWAP1 PUSH2 0x23C4 JUMP JUMPDEST SWAP5 DUP3 ADD SWAP5 SWAP1 SWAP5 MSTORE SWAP7 SWAP6 POP POP POP POP POP POP JUMP JUMPDEST PUSH1 0x20 DUP1 DUP3 MSTORE DUP3 MLOAD PUSH1 0x1 PUSH1 0x1 PUSH1 0xA0 SHL SUB AND DUP3 DUP3 ADD MSTORE DUP3 DUP2 ADD MLOAD PUSH1 0xC0 PUSH1 0x40 DUP5 ADD MSTORE PUSH0 SWAP2 SWAP1 PUSH2 0x2424 PUSH1 0xE0 DUP6 ADD DUP3 PUSH2 0x1ECA JUMP JUMPDEST SWAP1 POP PUSH1 0x40 DUP6 ADD MLOAD PUSH1 0x1F NOT DUP1 DUP7 DUP5 SUB ADD PUSH1 0x60 DUP8 ADD MSTORE PUSH2 0x2442 DUP4 DUP4 PUSH2 0x1ECA JUMP JUMPDEST PUSH1 0x60 DUP9 ADD MLOAD DUP8 DUP3 SUB DUP4 ADD PUSH1 0x80 DUP10 ADD MSTORE DUP1 MLOAD DUP1 DUP4 MSTORE SWAP2 SWAP5 POP DUP6 ADD SWAP3 POP DUP5 DUP5 ADD SWAP1 PUSH1 0x5 DUP2 SWAP1 SHL DUP6 ADD DUP7 ADD PUSH0 JUMPDEST DUP3 DUP2 LT ISZERO PUSH2 0x2498 JUMPI DUP5 DUP8 DUP4 SUB ADD DUP5 MSTORE PUSH2 0x2486 DUP3 DUP8 MLOAD PUSH2 0x1ECA JUMP JUMPDEST SWAP6 DUP9 ADD SWAP6 SWAP4 DUP9 ADD SWAP4 SWAP2 POP PUSH1 0x1 ADD PUSH2 0x246C JUMP JUMPDEST POP PUSH1 0x80 DUP11 ADD MLOAD PUSH1 0xA0 DUP11 ADD MSTORE PUSH1 0xA0 DUP11 ADD MLOAD PUSH1 0xC0 DUP11 ADD MSTORE DUP1 SWAP8 POP POP POP POP POP POP POP POP SWAP3 SWAP2 POP POP JUMP JUMPDEST PUSH0 DUP1 PUSH1 0x40 DUP4 DUP6 SUB SLT ISZERO PUSH2 0x24CE JUMPI PUSH0 DUP1 REVERT JUMPDEST PUSH2 0x24D7 DUP4 PUSH2 0x1F1E JUMP JUMPDEST SWAP2 POP PUSH2 0x24E5 PUSH1 0x20 DUP5 ADD PUSH2 0x1F1E JUMP JUMPDEST SWAP1 POP SWAP3 POP SWAP3 SWAP1 POP JUMP JUMPDEST PUSH1 0x1 DUP2 DUP2 SHR SWAP1 DUP3 AND DUP1 PUSH2 0x2502 JUMPI PUSH1 0x7F DUP3 AND SWAP2 POP JUMPDEST PUSH1 0x20 DUP3 LT DUP2 SUB PUSH2 0x2520 JUMPI PUSH4 0x4E487B71 PUSH1 0xE0 SHL PUSH0 MSTORE PUSH1 0x22 PUSH1 0x4 MSTORE PUSH1 0x24 PUSH0 REVERT JUMPDEST POP SWAP2 SWAP1 POP JUMP JUMPDEST PUSH4 0x4E487B71 PUSH1 0xE0 SHL PUSH0 MSTORE PUSH1 0x32 PUSH1 0x4 MSTORE PUSH1 0x24 PUSH0 REVERT JUMPDEST PUSH0 PUSH1 0x1 DUP3 ADD PUSH2 0x2557 JUMPI PUSH4 0x4E487B71 PUSH1 0xE0 SHL PUSH0 MSTORE PUSH1 0x11 PUSH1 0x4 MSTORE PUSH1 0x24 PUSH0 REVERT JUMPDEST POP PUSH1 0x1 ADD SWAP1 JUMP JUMPDEST PUSH0 DUP4 MLOAD PUSH2 0x256F DUP2 DUP5 PUSH1 0x20 DUP9 ADD PUSH2 0x1EA8 JUMP JUMPDEST DUP4 MLOAD SWAP1 DUP4 ADD SWAP1 PUSH2 0x2583 DUP2 DUP4 PUSH1 0x20 DUP9 ADD PUSH2 0x1EA8 JUMP JUMPDEST ADD SWAP5 SWAP4 POP POP POP POP JUMP JUMPDEST PUSH0 PUSH1 0x20 DUP3 DUP5 SUB SLT ISZERO PUSH2 0x259C JUMPI PUSH0 DUP1 REVERT JUMPDEST POP MLOAD SWAP2 SWAP1 POP JUMP JUMPDEST PUSH0 DUP3 PUSH2 0x25BD JUMPI PUSH4 0x4E487B71 PUSH1 0xE0 SHL PUSH0 MSTORE PUSH1 0x12 PUSH1 0x4 MSTORE PUSH1 0x24 PUSH0 REVERT JUMPDEST POP MOD SWAP1 JUMP JUMPDEST PUSH1 0x1 PUSH1 0x1 PUSH1 0xA0 SHL SUB DUP6 DUP2 AND DUP3 MSTORE DUP5 AND PUSH1 0x20 DUP3 ADD MSTORE PUSH1 0x40 DUP2 ADD DUP4 SWAP1 MSTORE PUSH1 0x80 PUSH1 0x60 DUP3 ADD DUP2 SWAP1 MSTORE PUSH0 SWAP1 PUSH2 0x25F4 SWAP1 DUP4 ADD DUP5 PUSH2 0x1ECA JUMP JUMPDEST SWAP7 SWAP6 POP POP POP POP POP POP JUMP JUMPDEST PUSH0 PUSH1 0x20 DUP3 DUP5 SUB SLT ISZERO PUSH2 0x260E JUMPI PUSH0 DUP1 REVERT JUMPDEST DUP2 MLOAD PUSH2 0x1A1A DUP2 PUSH2 0x1E78 JUMP JUMPDEST PUSH1 0x1F DUP3 GT ISZERO PUSH2 0xA5E JUMPI DUP1 PUSH0 MSTORE PUSH1 0x20 PUSH0 KECCAK256 PUSH1 0x1F DUP5 ADD PUSH1 0x5 SHR DUP2 ADD PUSH1 0x20 DUP6 LT ISZERO PUSH2 0x263E JUMPI POP DUP1 JUMPDEST PUSH1 0x1F DUP5 ADD PUSH1 0x5 SHR DUP3 ADD SWAP2 POP JUMPDEST DUP2 DUP2 LT ISZERO PUSH2 0x19A9 JUMPI PUSH0 DUP2 SSTORE PUSH1 0x1 ADD PUSH2 0x264A JUMP JUMPDEST DUP2 MLOAD PUSH8 0xFFFFFFFFFFFFFFFF DUP2 GT ISZERO PUSH2 0x2677 JUMPI PUSH2 0x2677 PUSH2 0x1F61 JUMP JUMPDEST PUSH2 0x268B DUP2 PUSH2 0x2685 DUP5 SLOAD PUSH2 0x24EE JUMP JUMPDEST DUP5 PUSH2 0x2619 JUMP JUMPDEST PUSH1 0x20 DUP1 PUSH1 0x1F DUP4 GT PUSH1 0x1 DUP2 EQ PUSH2 0x26BE JUMPI PUSH0 DUP5 ISZERO PUSH2 0x26A7 JUMPI POP DUP6 DUP4 ADD MLOAD JUMPDEST PUSH0 NOT PUSH1 0x3 DUP7 SWAP1 SHL SHR NOT AND PUSH1 0x1 DUP6 SWAP1 SHL OR DUP6 SSTORE PUSH2 0x2715 JUMP JUMPDEST PUSH0 DUP6 DUP2 MSTORE PUSH1 0x20 DUP2 KECCAK256 PUSH1 0x1F NOT DUP7 AND SWAP2 JUMPDEST DUP3 DUP2 LT ISZERO PUSH2 0x26EC JUMPI DUP9 DUP7 ADD MLOAD DUP3 SSTORE SWAP5 DUP5 ADD SWAP5 PUSH1 0x1 SWAP1 SWAP2 ADD SWAP1 DUP5 ADD PUSH2 0x26CD JUMP JUMPDEST POP DUP6 DUP3 LT ISZERO PUSH2 0x2709 JUMPI DUP8 DUP6 ADD MLOAD PUSH0 NOT PUSH1 0x3 DUP9 SWAP1 SHL PUSH1 0xF8 AND SHR NOT AND DUP2 SSTORE JUMPDEST POP POP PUSH1 0x1 DUP5 PUSH1 0x1 SHL ADD DUP6 SSTORE JUMPDEST POP POP POP POP POP POP JUMP INVALID LOG2 PUSH5 0x6970667358 0x22 SLT KECCAK256 PUSH17 0xA4652A1C297045E723B1D49FD6C9E83FA0 0xD0 0xCA DUP13 PUSH18 0xE4498EF0DC2391B7BA3764736F6C63430008 AND STOP CALLER "
		},
		"gasEstimates": {
			"creation": {
				"codeDepositCost": "2013400",
				"executionCost": "infinite",
				"totalCost": "infinite"
			},
			"external": {
				"_nextTokenId()": "2362",
				"approve(address,uint256)": "31576",
				"balanceOf(address)": "2652",
				"bigPictureName()": "infinite",
				"factory()": "2469",
				"getApproved(uint256)": "infinite",
				"getSingleBigPicture()": "infinite",
				"getSubmittedList()": "infinite",
				"getTokensOnSale()": "infinite",
				"getYourTokens(address)": "infinite",
				"image()": "infinite",
				"isApprovedForAll(address,address)": "infinite",
				"mintCMT()": "infinite",
				"mintCMTDemo()": "infinite",
				"mintPrice()": "2339",
				"name()": "infinite",
				"onSale(uint256)": "2481",
				"owner()": "2398",
				"ownerOf(uint256)": "infinite",
				"picturePieces(uint256)": "infinite",
				"purchaseToken(uint256)": "infinite",
				"putTokenOnSale(uint256,uint256)": "46822",
				"randomIndex()": "2338",
				"rawFulfillRandomWords(uint256,uint256[])": "infinite",
				"renounceOwnership()": "infinite",
				"requestRandomWords()": "infinite",
				"rewardPrice()": "2340",
				"safeTransferFrom(address,address,uint256)": "infinite",
				"safeTransferFrom(address,address,uint256,bytes)": "infinite",
				"setApprovalForAll(address,bool)": "26768",
				"submitList(uint256)": "4758",
				"submitTokens((address,address[]))": "infinite",
				"supportsInterface(bytes4)": "infinite",
				"symbol()": "infinite",
				"tempAddress()": "2404",
				"tokenPrice(uint256)": "2546",
				"tokenURI(uint256)": "infinite",
				"tranferRewardToWinner(address)": "infinite",
				"transferFrom(address,address,uint256)": "infinite",
				"transferOwnership(address)": "28443"
			},
			"internal": {
				"fulfillRandomWords(uint256,uint256[] memory)": "infinite"
			}
		},
		"methodIdentifiers": {
			"_nextTokenId()": "4a60f620",
			"approve(address,uint256)": "095ea7b3",
			"balanceOf(address)": "70a08231",
			"bigPictureName()": "57ad8071",
			"factory()": "c45a0155",
			"getApproved(uint256)": "081812fc",
			"getSingleBigPicture()": "db65dbbb",
			"getSubmittedList()": "3afc58a6",
			"getTokensOnSale()": "79b52af0",
			"getYourTokens(address)": "ae9d010c",
			"image()": "f3ccaac0",
			"isApprovedForAll(address,address)": "e985e9c5",
			"mintCMT()": "00c0e60a",
			"mintCMTDemo()": "cc3bbb20",
			"mintPrice()": "6817c76c",
			"name()": "06fdde03",
			"onSale(uint256)": "b43a76f1",
			"owner()": "8da5cb5b",
			"ownerOf(uint256)": "6352211e",
			"picturePieces(uint256)": "bd81093a",
			"purchaseToken(uint256)": "c2db2c42",
			"putTokenOnSale(uint256,uint256)": "65af3798",
			"randomIndex()": "dc2337e2",
			"rawFulfillRandomWords(uint256,uint256[])": "1fe543e3",
			"renounceOwnership()": "715018a6",
			"requestRandomWords()": "e0c86289",
			"rewardPrice()": "818e9be0",
			"safeTransferFrom(address,address,uint256)": "42842e0e",
			"safeTransferFrom(address,address,uint256,bytes)": "b88d4fde",
			"setApprovalForAll(address,bool)": "a22cb465",
			"submitList(uint256)": "7b9120e8",
			"submitTokens((address,address[]))": "cb3cbb46",
			"supportsInterface(bytes4)": "01ffc9a7",
			"symbol()": "95d89b41",
			"tempAddress()": "22c5dec7",
			"tokenPrice(uint256)": "d4ddce8a",
			"tokenURI(uint256)": "c87b56dd",
			"tranferRewardToWinner(address)": "293d35e2",
			"transferFrom(address,address,uint256)": "23b872dd",
			"transferOwnership(address)": "f2fde38b"
		}
	},
	"abi": [
		{
			"inputs": [
				{
					"internalType": "string",
					"name": "_name",
					"type": "string"
				},
				{
					"internalType": "string",
					"name": "_image",
					"type": "string"
				},
				{
					"internalType": "string[]",
					"name": "_picturePieces",
					"type": "string[]"
				},
				{
					"internalType": "uint256",
					"name": "_rewardPrice",
					"type": "uint256"
				},
				{
					"internalType": "uint256",
					"name": "_mintPrice",
					"type": "uint256"
				},
				{
					"internalType": "address",
					"name": "_factoryAddress",
					"type": "address"
				}
			],
			"stateMutability": "nonpayable",
			"type": "constructor"
		},
		{
			"inputs": [
				{
					"internalType": "address",
					"name": "sender",
					"type": "address"
				},
				{
					"internalType": "uint256",
					"name": "tokenId",
					"type": "uint256"
				},
				{
					"internalType": "address",
					"name": "owner",
					"type": "address"
				}
			],
			"name": "ERC721IncorrectOwner",
			"type": "error"
		},
		{
			"inputs": [
				{
					"internalType": "address",
					"name": "operator",
					"type": "address"
				},
				{
					"internalType": "uint256",
					"name": "tokenId",
					"type": "uint256"
				}
			],
			"name": "ERC721InsufficientApproval",
			"type": "error"
		},
		{
			"inputs": [
				{
					"internalType": "address",
					"name": "approver",
					"type": "address"
				}
			],
			"name": "ERC721InvalidApprover",
			"type": "error"
		},
		{
			"inputs": [
				{
					"internalType": "address",
					"name": "operator",
					"type": "address"
				}
			],
			"name": "ERC721InvalidOperator",
			"type": "error"
		},
		{
			"inputs": [
				{
					"internalType": "address",
					"name": "owner",
					"type": "address"
				}
			],
			"name": "ERC721InvalidOwner",
			"type": "error"
		},
		{
			"inputs": [
				{
					"internalType": "address",
					"name": "receiver",
					"type": "address"
				}
			],
			"name": "ERC721InvalidReceiver",
			"type": "error"
		},
		{
			"inputs": [
				{
					"internalType": "address",
					"name": "sender",
					"type": "address"
				}
			],
			"name": "ERC721InvalidSender",
			"type": "error"
		},
		{
			"inputs": [
				{
					"internalType": "uint256",
					"name": "tokenId",
					"type": "uint256"
				}
			],
			"name": "ERC721NonexistentToken",
			"type": "error"
		},
		{
			"inputs": [
				{
					"internalType": "address",
					"name": "have",
					"type": "address"
				},
				{
					"internalType": "address",
					"name": "want",
					"type": "address"
				}
			],
			"name": "OnlyCoordinatorCanFulfill",
			"type": "error"
		},
		{
			"inputs": [
				{
					"internalType": "address",
					"name": "owner",
					"type": "address"
				}
			],
			"name": "OwnableInvalidOwner",
			"type": "error"
		},
		{
			"inputs": [
				{
					"internalType": "address",
					"name": "account",
					"type": "address"
				}
			],
			"name": "OwnableUnauthorizedAccount",
			"type": "error"
		},
		{
			"anonymous": false,
			"inputs": [
				{
					"indexed": true,
					"internalType": "address",
					"name": "owner",
					"type": "address"
				},
				{
					"indexed": true,
					"internalType": "address",
					"name": "approved",
					"type": "address"
				},
				{
					"indexed": true,
					"internalType": "uint256",
					"name": "tokenId",
					"type": "uint256"
				}
			],
			"name": "Approval",
			"type": "event"
		},
		{
			"anonymous": false,
			"inputs": [
				{
					"indexed": true,
					"internalType": "address",
					"name": "owner",
					"type": "address"
				},
				{
					"indexed": true,
					"internalType": "address",
					"name": "operator",
					"type": "address"
				},
				{
					"indexed": false,
					"internalType": "bool",
					"name": "approved",
					"type": "bool"
				}
			],
			"name": "ApprovalForAll",
			"type": "event"
		},
		{
			"anonymous": false,
			"inputs": [
				{
					"indexed": false,
					"internalType": "uint256",
					"name": "_fromTokenId",
					"type": "uint256"
				},
				{
					"indexed": false,
					"internalType": "uint256",
					"name": "_toTokenId",
					"type": "uint256"
				}
			],
			"name": "BatchMetadataUpdate",
			"type": "event"
		},
		{
			"anonymous": false,
			"inputs": [
				{
					"indexed": false,
					"internalType": "uint256",
					"name": "_tokenId",
					"type": "uint256"
				}
			],
			"name": "MetadataUpdate",
			"type": "event"
		},
		{
			"anonymous": false,
			"inputs": [
				{
					"indexed": true,
					"internalType": "address",
					"name": "previousOwner",
					"type": "address"
				},
				{
					"indexed": true,
					"internalType": "address",
					"name": "newOwner",
					"type": "address"
				}
			],
			"name": "OwnershipTransferred",
			"type": "event"
		},
		{
			"anonymous": false,
			"inputs": [
				{
					"indexed": true,
					"internalType": "address",
					"name": "from",
					"type": "address"
				},
				{
					"indexed": true,
					"internalType": "address",
					"name": "to",
					"type": "address"
				},
				{
					"indexed": true,
					"internalType": "uint256",
					"name": "tokenId",
					"type": "uint256"
				}
			],
			"name": "Transfer",
			"type": "event"
		},
		{
			"inputs": [],
			"name": "_nextTokenId",
			"outputs": [
				{
					"internalType": "uint256",
					"name": "",
					"type": "uint256"
				}
			],
			"stateMutability": "view",
			"type": "function"
		},
		{
			"inputs": [
				{
					"internalType": "address",
					"name": "to",
					"type": "address"
				},
				{
					"internalType": "uint256",
					"name": "tokenId",
					"type": "uint256"
				}
			],
			"name": "approve",
			"outputs": [],
			"stateMutability": "nonpayable",
			"type": "function"
		},
		{
			"inputs": [
				{
					"internalType": "address",
					"name": "owner",
					"type": "address"
				}
			],
			"name": "balanceOf",
			"outputs": [
				{
					"internalType": "uint256",
					"name": "",
					"type": "uint256"
				}
			],
			"stateMutability": "view",
			"type": "function"
		},
		{
			"inputs": [],
			"name": "bigPictureName",
			"outputs": [
				{
					"internalType": "string",
					"name": "",
					"type": "string"
				}
			],
			"stateMutability": "view",
			"type": "function"
		},
		{
			"inputs": [],
			"name": "factory",
			"outputs": [
				{
					"internalType": "contract BigPictureFactory",
					"name": "",
					"type": "address"
				}
			],
			"stateMutability": "view",
			"type": "function"
		},
		{
			"inputs": [
				{
					"internalType": "uint256",
					"name": "tokenId",
					"type": "uint256"
				}
			],
			"name": "getApproved",
			"outputs": [
				{
					"internalType": "address",
					"name": "",
					"type": "address"
				}
			],
			"stateMutability": "view",
			"type": "function"
		},
		{
			"inputs": [],
			"name": "getSingleBigPicture",
			"outputs": [
				{
					"components": [
						{
							"internalType": "address",
							"name": "bigPictureAddress",
							"type": "address"
						},
						{
							"internalType": "string",
							"name": "name",
							"type": "string"
						},
						{
							"internalType": "string",
							"name": "image",
							"type": "string"
						},
						{
							"internalType": "string[]",
							"name": "picturePieces",
							"type": "string[]"
						},
						{
							"internalType": "uint256",
							"name": "rewardPrice",
							"type": "uint256"
						},
						{
							"internalType": "uint256",
							"name": "mintPrice",
							"type": "uint256"
						}
					],
					"internalType": "struct BigPictureData",
					"name": "",
					"type": "tuple"
				}
			],
			"stateMutability": "view",
			"type": "function"
		},
		{
			"inputs": [],
			"name": "getSubmittedList",
			"outputs": [
				{
					"components": [
						{
							"internalType": "address",
							"name": "owner",
							"type": "address"
						},
						{
							"internalType": "address[]",
							"name": "tokenList",
							"type": "address[]"
						}
					],
					"internalType": "struct SubmittedInfo[]",
					"name": "",
					"type": "tuple[]"
				}
			],
			"stateMutability": "view",
			"type": "function"
		},
		{
			"inputs": [],
			"name": "getTokensOnSale",
			"outputs": [
				{
					"components": [
						{
							"internalType": "uint256",
							"name": "id",
							"type": "uint256"
						},
						{
							"internalType": "string",
							"name": "image",
							"type": "string"
						},
						{
							"internalType": "bool",
							"name": "onSale",
							"type": "bool"
						},
						{
							"internalType": "uint256",
							"name": "tokenPrice",
							"type": "uint256"
						}
					],
					"internalType": "struct TokenData[]",
					"name": "",
					"type": "tuple[]"
				}
			],
			"stateMutability": "view",
			"type": "function"
		},
		{
			"inputs": [
				{
					"internalType": "address",
					"name": "owner",
					"type": "address"
				}
			],
			"name": "getYourTokens",
			"outputs": [
				{
					"components": [
						{
							"internalType": "uint256",
							"name": "id",
							"type": "uint256"
						},
						{
							"internalType": "string",
							"name": "image",
							"type": "string"
						},
						{
							"internalType": "bool",
							"name": "onSale",
							"type": "bool"
						},
						{
							"internalType": "uint256",
							"name": "tokenPrice",
							"type": "uint256"
						}
					],
					"internalType": "struct TokenData[]",
					"name": "",
					"type": "tuple[]"
				}
			],
			"stateMutability": "view",
			"type": "function"
		},
		{
			"inputs": [],
			"name": "image",
			"outputs": [
				{
					"internalType": "string",
					"name": "",
					"type": "string"
				}
			],
			"stateMutability": "view",
			"type": "function"
		},
		{
			"inputs": [
				{
					"internalType": "address",
					"name": "owner",
					"type": "address"
				},
				{
					"internalType": "address",
					"name": "operator",
					"type": "address"
				}
			],
			"name": "isApprovedForAll",
			"outputs": [
				{
					"internalType": "bool",
					"name": "",
					"type": "bool"
				}
			],
			"stateMutability": "view",
			"type": "function"
		},
		{
			"inputs": [],
			"name": "mintCMT",
			"outputs": [],
			"stateMutability": "payable",
			"type": "function"
		},
		{
			"inputs": [],
			"name": "mintCMTDemo",
			"outputs": [],
			"stateMutability": "payable",
			"type": "function"
		},
		{
			"inputs": [],
			"name": "mintPrice",
			"outputs": [
				{
					"internalType": "uint256",
					"name": "",
					"type": "uint256"
				}
			],
			"stateMutability": "view",
			"type": "function"
		},
		{
			"inputs": [],
			"name": "name",
			"outputs": [
				{
					"internalType": "string",
					"name": "",
					"type": "string"
				}
			],
			"stateMutability": "view",
			"type": "function"
		},
		{
			"inputs": [
				{
					"internalType": "uint256",
					"name": "",
					"type": "uint256"
				}
			],
			"name": "onSale",
			"outputs": [
				{
					"internalType": "bool",
					"name": "",
					"type": "bool"
				}
			],
			"stateMutability": "view",
			"type": "function"
		},
		{
			"inputs": [],
			"name": "owner",
			"outputs": [
				{
					"internalType": "address",
					"name": "",
					"type": "address"
				}
			],
			"stateMutability": "view",
			"type": "function"
		},
		{
			"inputs": [
				{
					"internalType": "uint256",
					"name": "tokenId",
					"type": "uint256"
				}
			],
			"name": "ownerOf",
			"outputs": [
				{
					"internalType": "address",
					"name": "",
					"type": "address"
				}
			],
			"stateMutability": "view",
			"type": "function"
		},
		{
			"inputs": [
				{
					"internalType": "uint256",
					"name": "",
					"type": "uint256"
				}
			],
			"name": "picturePieces",
			"outputs": [
				{
					"internalType": "string",
					"name": "",
					"type": "string"
				}
			],
			"stateMutability": "view",
			"type": "function"
		},
		{
			"inputs": [
				{
					"internalType": "uint256",
					"name": "tokenId",
					"type": "uint256"
				}
			],
			"name": "purchaseToken",
			"outputs": [],
			"stateMutability": "payable",
			"type": "function"
		},
		{
			"inputs": [
				{
					"internalType": "uint256",
					"name": "id",
					"type": "uint256"
				},
				{
					"internalType": "uint256",
					"name": "price",
					"type": "uint256"
				}
			],
			"name": "putTokenOnSale",
			"outputs": [],
			"stateMutability": "nonpayable",
			"type": "function"
		},
		{
			"inputs": [],
			"name": "randomIndex",
			"outputs": [
				{
					"internalType": "uint256",
					"name": "",
					"type": "uint256"
				}
			],
			"stateMutability": "view",
			"type": "function"
		},
		{
			"inputs": [
				{
					"internalType": "uint256",
					"name": "requestId",
					"type": "uint256"
				},
				{
					"internalType": "uint256[]",
					"name": "randomWords",
					"type": "uint256[]"
				}
			],
			"name": "rawFulfillRandomWords",
			"outputs": [],
			"stateMutability": "nonpayable",
			"type": "function"
		},
		{
			"inputs": [],
			"name": "renounceOwnership",
			"outputs": [],
			"stateMutability": "nonpayable",
			"type": "function"
		},
		{
			"inputs": [],
			"name": "requestRandomWords",
			"outputs": [
				{
					"internalType": "uint256",
					"name": "requestId",
					"type": "uint256"
				}
			],
			"stateMutability": "nonpayable",
			"type": "function"
		},
		{
			"inputs": [],
			"name": "rewardPrice",
			"outputs": [
				{
					"internalType": "uint256",
					"name": "",
					"type": "uint256"
				}
			],
			"stateMutability": "view",
			"type": "function"
		},
		{
			"inputs": [
				{
					"internalType": "address",
					"name": "from",
					"type": "address"
				},
				{
					"internalType": "address",
					"name": "to",
					"type": "address"
				},
				{
					"internalType": "uint256",
					"name": "tokenId",
					"type": "uint256"
				}
			],
			"name": "safeTransferFrom",
			"outputs": [],
			"stateMutability": "nonpayable",
			"type": "function"
		},
		{
			"inputs": [
				{
					"internalType": "address",
					"name": "from",
					"type": "address"
				},
				{
					"internalType": "address",
					"name": "to",
					"type": "address"
				},
				{
					"internalType": "uint256",
					"name": "tokenId",
					"type": "uint256"
				},
				{
					"internalType": "bytes",
					"name": "data",
					"type": "bytes"
				}
			],
			"name": "safeTransferFrom",
			"outputs": [],
			"stateMutability": "nonpayable",
			"type": "function"
		},
		{
			"inputs": [
				{
					"internalType": "address",
					"name": "operator",
					"type": "address"
				},
				{
					"internalType": "bool",
					"name": "approved",
					"type": "bool"
				}
			],
			"name": "setApprovalForAll",
			"outputs": [],
			"stateMutability": "nonpayable",
			"type": "function"
		},
		{
			"inputs": [
				{
					"internalType": "uint256",
					"name": "",
					"type": "uint256"
				}
			],
			"name": "submitList",
			"outputs": [
				{
					"internalType": "address",
					"name": "owner",
					"type": "address"
				}
			],
			"stateMutability": "view",
			"type": "function"
		},
		{
			"inputs": [
				{
					"components": [
						{
							"internalType": "address",
							"name": "owner",
							"type": "address"
						},
						{
							"internalType": "address[]",
							"name": "tokenList",
							"type": "address[]"
						}
					],
					"internalType": "struct SubmittedInfo",
					"name": "submittedItem",
					"type": "tuple"
				}
			],
			"name": "submitTokens",
			"outputs": [],
			"stateMutability": "nonpayable",
			"type": "function"
		},
		{
			"inputs": [
				{
					"internalType": "bytes4",
					"name": "interfaceId",
					"type": "bytes4"
				}
			],
			"name": "supportsInterface",
			"outputs": [
				{
					"internalType": "bool",
					"name": "",
					"type": "bool"
				}
			],
			"stateMutability": "view",
			"type": "function"
		},
		{
			"inputs": [],
			"name": "symbol",
			"outputs": [
				{
					"internalType": "string",
					"name": "",
					"type": "string"
				}
			],
			"stateMutability": "view",
			"type": "function"
		},
		{
			"inputs": [],
			"name": "tempAddress",
			"outputs": [
				{
					"internalType": "address",
					"name": "",
					"type": "address"
				}
			],
			"stateMutability": "view",
			"type": "function"
		},
		{
			"inputs": [
				{
					"internalType": "uint256",
					"name": "",
					"type": "uint256"
				}
			],
			"name": "tokenPrice",
			"outputs": [
				{
					"internalType": "uint256",
					"name": "",
					"type": "uint256"
				}
			],
			"stateMutability": "view",
			"type": "function"
		},
		{
			"inputs": [
				{
					"internalType": "uint256",
					"name": "tokenId",
					"type": "uint256"
				}
			],
			"name": "tokenURI",
			"outputs": [
				{
					"internalType": "string",
					"name": "",
					"type": "string"
				}
			],
			"stateMutability": "view",
			"type": "function"
		},
		{
			"inputs": [
				{
					"internalType": "address",
					"name": "winnerAddress",
					"type": "address"
				}
			],
			"name": "tranferRewardToWinner",
			"outputs": [],
			"stateMutability": "nonpayable",
			"type": "function"
		},
		{
			"inputs": [
				{
					"internalType": "address",
					"name": "from",
					"type": "address"
				},
				{
					"internalType": "address",
					"name": "to",
					"type": "address"
				},
				{
					"internalType": "uint256",
					"name": "tokenId",
					"type": "uint256"
				}
			],
			"name": "transferFrom",
			"outputs": [],
			"stateMutability": "nonpayable",
			"type": "function"
		},
		{
			"inputs": [
				{
					"internalType": "address",
					"name": "newOwner",
					"type": "address"
				}
			],
			"name": "transferOwnership",
			"outputs": [],
			"stateMutability": "nonpayable",
			"type": "function"
		},
		{
			"stateMutability": "payable",
			"type": "receive"
		}
	]
}