{
	"data": {
		"bytecode": {
			"linkReferences": {},
			"object": "608060405234801561000f575f80fd5b50338061003557604051631e4fbdf760e01b81525f600482015260240160405180910390fd5b61003e81610044565b50610093565b5f80546001600160a01b038381166001600160a01b0319831681178455604051919092169283917f8be0079c531659141344cd1fd0a4f28419497f9722a3daafe3b4186f6b6457e09190a35050565b613974806100a05f395ff3fe608060405234801562000010575f80fd5b506004361062000090575f3560e01c80638da5cb5b116200005f5780638da5cb5b1462000104578063c56e0dde1462000115578063d7f07bdf1462000176578063f2fde38b146200018f575f80fd5b80634026b3b714620000945780634c57515414620000c85780634eef150d14620000e1578063715018a614620000fa575b5f80fd5b620000ab620000a5366004620004c0565b620001a6565b6040516001600160a01b0390911681526020015b60405180910390f35b620000df620000d9366004620005f4565b620001cf565b005b620000eb62000217565b604051620000bf919062000703565b620000df62000279565b5f546001600160a01b0316620000ab565b620000df6200012636600462000766565b6001805480820182555f919091527fb10e2d527612073b26eecdfd717e6a320cf44b4afac2b0732d9fcbe2b7fa0cf60180546001600160a01b0319166001600160a01b0392909216919091179055565b6200018062000290565b604051620000bf919062000838565b620000df620001a036600462000766565b620003ee565b60018181548110620001b6575f80fd5b5f918252602090912001546001600160a01b0316905081565b848484848430604051620001e390620004b2565b620001f4969594939291906200090b565b604051809103905ff0801580156200020e573d5f803e3d5ffd5b50505050505050565b606060018054806020026020016040519081016040528092919081815260200182805480156200026f57602002820191905f5260205f20905b81546001600160a01b0316815260019091019060200180831162000250575b5050505050905090565b6200028362000435565b6200028e5f62000463565b565b6001546060905f9067ffffffffffffffff811115620002b357620002b3620004d8565b6040519080825280602002602001820160405280156200032657816020015b620003126040518060c001604052805f6001600160a01b031681526020016060815260200160608152602001606081526020015f81526020015f81525090565b815260200190600190039081620002d25790505b5090505f5b600154811015620003e857600181815481106200034c576200034c62000971565b5f9182526020822001546040805163db65dbbb60e01b815290516001600160a01b039092169263db65dbbb926004808401938290030181865afa15801562000396573d5f803e3d5ffd5b505050506040513d5f823e601f3d908101601f19168201604052620003bf919081019062000a78565b828281518110620003d457620003d462000971565b60209081029190910101526001016200032b565b50919050565b620003f862000435565b6001600160a01b0381166200042757604051631e4fbdf760e01b81525f60048201526024015b60405180910390fd5b620004328162000463565b50565b5f546001600160a01b031633146200028e5760405163118cdaa760e01b81523360048201526024016200041e565b5f80546001600160a01b038381166001600160a01b0319831681178455604051919092169283917f8be0079c531659141344cd1fd0a4f28419497f9722a3daafe3b4186f6b6457e09190a35050565b612de08062000b5f83390190565b5f60208284031215620004d1575f80fd5b5035919050565b634e487b7160e01b5f52604160045260245ffd5b60405160c0810167ffffffffffffffff81118282101715620005125762000512620004d8565b60405290565b604051601f8201601f1916810167ffffffffffffffff81118282101715620005445762000544620004d8565b604052919050565b5f67ffffffffffffffff821115620005685762000568620004d8565b50601f01601f191660200190565b5f82601f83011262000586575f80fd5b81356200059d62000597826200054c565b62000518565b818152846020838601011115620005b2575f80fd5b816020850160208301375f918101602001919091529392505050565b5f67ffffffffffffffff821115620005ea57620005ea620004d8565b5060051b60200190565b5f805f805f60a0868803121562000609575f80fd5b853567ffffffffffffffff8082111562000621575f80fd5b6200062f89838a0162000576565b965060209150818801358181111562000646575f80fd5b620006548a828b0162000576565b96505060408801358181111562000669575f80fd5b8801601f81018a136200067a575f80fd5b80356200068b6200059782620005ce565b81815260059190911b8201840190848101908c831115620006aa575f80fd5b8584015b83811015620006e557803586811115620006c6575f80fd5b620006d68f898389010162000576565b845250918601918601620006ae565b50999c989b5098996060810135995060800135979650505050505050565b602080825282518282018190525f9190848201906040850190845b81811015620007455783516001600160a01b0316835292840192918401916001016200071e565b50909695505050505050565b6001600160a01b038116811462000432575f80fd5b5f6020828403121562000777575f80fd5b8135620007848162000751565b9392505050565b5f5b83811015620007a75781810151838201526020016200078d565b50505f910152565b5f8151808452620007c88160208601602086016200078b565b601f01601f19169290920160200192915050565b5f8282518085526020808601955060208260051b840101602086015f5b848110156200082b57601f1986840301895262000818838351620007af565b98840198925090830190600101620007f9565b5090979650505050505050565b5f60208083018184528085518083526040925060408601915060408160051b8701018488015f5b83811015620008fd57888303603f19018552815180516001600160a01b031684528781015160c0898601819052906200089b82870182620007af565b9150508782015185820389870152620008b58282620007af565b91505060608083015186830382880152620008d18382620007dc565b6080858101519089015260a094850151949097019390935250505093860193908601906001016200085f565b509098975050505050505050565b60c081525f6200091f60c0830189620007af565b8281036020840152620009338189620007af565b90508281036040840152620009498188620007dc565b6060840196909652505060808101929092526001600160a01b031660a0909101529392505050565b634e487b7160e01b5f52603260045260245ffd5b8051620009928162000751565b919050565b5f82601f830112620009a7575f80fd5b8151620009b862000597826200054c565b818152846020838601011115620009cd575f80fd5b620009e08260208301602087016200078b565b949350505050565b5f82601f830112620009f8575f80fd5b8151602062000a0b6200059783620005ce565b82815260059290921b8401810191818101908684111562000a2a575f80fd5b8286015b8481101562000a6d57805167ffffffffffffffff81111562000a4e575f80fd5b62000a5e8986838b010162000997565b84525091830191830162000a2e565b509695505050505050565b5f6020828403121562000a89575f80fd5b815167ffffffffffffffff8082111562000aa1575f80fd5b9083019060c0828603121562000ab5575f80fd5b62000abf620004ec565b62000aca8362000985565b815260208301518281111562000ade575f80fd5b62000aec8782860162000997565b60208301525060408301518281111562000b04575f80fd5b62000b128782860162000997565b60408301525060608301518281111562000b2a575f80fd5b62000b3887828601620009e8565b6060830152506080830151608082015260a083015160a08201528093505050509291505056fe60a0604052600a80546001600160401b0319166401000493e017905534801562000027575f80fd5b5060405162002de038038062002de08339810160408190526200004a916200040f565b604080518082018252601281527121b7b63632b1ba26b0b9ba32b92a37b5b2b760711b6020808301919091528251808401909352600383526210d35560ea1b9083015273da8c0a00a372503aa6ec80f9b29cc97c454be49960805233915f620000b48382620005d9565b506001620000c38282620005d9565b5050506001600160a01b038116620000f457604051631e4fbdf760e01b81525f600482015260240160405180910390fd5b620000ff8162000203565b50600880546001600160e01b0319167486da8c0a00a372503aa6ec80f9b29cc97c454be4991790557fd9af33106d664a53cb9946df5cd81a30695f5b72224ee64e798b278af812779c600955600f620001598782620005d9565b506010620001688682620005d9565b5083516200017e90601190602087019062000254565b5060128390556013829055601480546001600160a01b0319166001600160a01b0383169081179091556040516362b706ef60e11b815230600482015263c56e0dde906024015f604051808303815f87803b158015620001db575f80fd5b505af1158015620001ee573d5f803e3d5ffd5b50505f600b5550620006a59650505050505050565b600780546001600160a01b038381166001600160a01b0319831681179093556040519116919082907f8be0079c531659141344cd1fd0a4f28419497f9722a3daafe3b4186f6b6457e0905f90a35050565b828054828255905f5260205f209081019282156200029d579160200282015b828111156200029d57825182906200028c9082620005d9565b509160200191906001019062000273565b50620002ab929150620002af565b5090565b80821115620002ab575f620002c58282620002cf565b50600101620002af565b508054620002dd906200054f565b5f825580601f10620002ed575050565b601f0160209004905f5260205f20908101906200030b91906200030e565b50565b5b80821115620002ab575f81556001016200030f565b634e487b7160e01b5f52604160045260245ffd5b604051601f8201601f191681016001600160401b038111828210171562000363576200036362000324565b604052919050565b5f82601f8301126200037b575f80fd5b81516001600160401b0381111562000397576200039762000324565b6020620003ad601f8301601f1916820162000338565b8281528582848701011115620003c1575f80fd5b5f5b83811015620003e0578581018301518282018401528201620003c3565b505f928101909101919091529392505050565b80516001600160a01b03811681146200040a575f80fd5b919050565b5f805f805f8060c0878903121562000425575f80fd5b86516001600160401b03808211156200043c575f80fd5b6200044a8a838b016200036b565b9750602089015191508082111562000460575f80fd5b6200046e8a838b016200036b565b9650604089015191508082111562000484575f80fd5b818901915089601f83011262000498575f80fd5b815181811115620004ad57620004ad62000324565b8060051b620004bf6020820162000338565b9182526020818501810192908101908d841115620004db575f80fd5b6020860192505b838310156200051e57825185811115620004fa575f80fd5b6200050b8f6020838a01016200036b565b83525060209283019290910190620004e2565b80995050505050505060608701519250608087015191506200054360a08801620003f3565b90509295509295509295565b600181811c908216806200056457607f821691505b6020821081036200058357634e487b7160e01b5f52602260045260245ffd5b50919050565b601f821115620005d457805f5260205f20601f840160051c81016020851015620005b05750805b601f840160051c820191505b81811015620005d1575f8155600101620005bc565b50505b505050565b81516001600160401b03811115620005f557620005f562000324565b6200060d816200060684546200054f565b8462000589565b602080601f83116001811462000643575f84156200062b5750858301515b5f19600386901b1c1916600185901b1785556200069d565b5f85815260208120601f198616915b82811015620006735788860151825594840194600190910190840162000652565b50858210156200069157878501515f19600388901b60f8161c191681555b505060018460011b0185555b505050505050565b60805161271b620006c55f395f81816108410152610883015261271b5ff3fe608060405260043610610235575f3560e01c8063818e9be011610129578063c87b56dd116100a8578063dc2337e21161006d578063dc2337e214610683578063e0c8628914610698578063e985e9c5146106ac578063f2fde38b146106cb578063f3ccaac0146106ea575f80fd5b8063c87b56dd146105f1578063cb3cbb4614610610578063cc3bbb201461062f578063d4ddce8a14610637578063db65dbbb14610662575f80fd5b8063b43a76f1116100ee578063b43a76f114610553578063b88d4fde14610581578063bd81093a146105a0578063c2db2c42146105bf578063c45a0155146105d2575f80fd5b8063818e9be0146104cf5780638da5cb5b146104e457806395d89b4114610501578063a22cb46514610515578063ae9d010c14610534575f80fd5b806342842e0e116101b55780636817c76c1161017a5780636817c76c1461044757806370a082311461045c578063715018a61461047b57806379b52af01461048f5780637b9120e8146104b0575f80fd5b806342842e0e146103925780634a60f620146103b157806357ad8071146103d45780636352211e146103e857806365af379814610407575f80fd5b80631fe543e3116101fb5780631fe543e3146102f557806322c5dec71461031457806323b872dd14610333578063293d35e2146103525780633afc58a614610371575f80fd5b8062c0e60a1461024057806301ffc9a71461024a57806306fdde031461027e578063081812fc1461029f578063095ea7b3146102d6575f80fd5b3661023c57005b5f80fd5b6102486106fe565b005b348015610255575f80fd5b50610269610264366004611e55565b610747565b60405190151581526020015b60405180910390f35b348015610289575f80fd5b50610292610771565b6040516102759190611ebd565b3480156102aa575f80fd5b506102be6102b9366004611ecf565b610800565b6040516001600160a01b039091168152602001610275565b3480156102e1575f80fd5b506102486102f0366004611f01565b610827565b348015610300575f80fd5b5061024861030f366004611fba565b610836565b34801561031f575f80fd5b506015546102be906001600160a01b031681565b34801561033e575f80fd5b5061024861034d366004612057565b6108bf565b34801561035d575f80fd5b5061024861036c366004612090565b610948565b34801561037c575f80fd5b5061038561097c565b60405161027591906120a9565b34801561039d575f80fd5b506102486103ac366004612057565b610a44565b3480156103bc575f80fd5b506103c6600c5481565b604051908152602001610275565b3480156103df575f80fd5b50610292610a63565b3480156103f3575f80fd5b506102be610402366004611ecf565b610aef565b348015610412575f80fd5b50610248610421366004612156565b5f918252600d60209081526040808420805460ff19166001179055600e90915290912055565b348015610452575f80fd5b506103c660135481565b348015610467575f80fd5b506103c6610476366004612090565b610af9565b348015610486575f80fd5b50610248610b3e565b34801561049a575f80fd5b506104a3610b51565b6040516102759190612176565b3480156104bb575f80fd5b506102be6104ca366004611ecf565b610c96565b3480156104da575f80fd5b506103c660125481565b3480156104ef575f80fd5b506007546001600160a01b03166102be565b34801561050c575f80fd5b50610292610cc3565b348015610520575f80fd5b5061024861052f3660046121f5565b610cd2565b34801561053f575f80fd5b506104a361054e366004612090565b610cdd565b34801561055e575f80fd5b5061026961056d366004611ecf565b600d6020525f908152604090205460ff1681565b34801561058c575f80fd5b5061024861059b36600461222e565b610e0c565b3480156105ab575f80fd5b506102926105ba366004611ecf565b610e23565b6102486105cd366004611ecf565b610e4a565b3480156105dd575f80fd5b506014546102be906001600160a01b031681565b3480156105fc575f80fd5b5061029261060b366004611ecf565b610ebe565b34801561061b575f80fd5b5061024861062a3660046122e7565b610fc9565b61024861105a565b348015610642575f80fd5b506103c6610651366004611ecf565b600e6020525f908152604090205481565b34801561066d575f80fd5b506106766111a4565b60405161027591906123bd565b34801561068e575f80fd5b506103c6600b5481565b3480156106a3575f80fd5b506103c66113fe565b3480156106b7575f80fd5b506102696106c6366004612485565b6114a8565b3480156106d6575f80fd5b506102486106e5366004612090565b6114d5565b3480156106f5575f80fd5b5061029261150f565b601580546001600160a01b03191633179055601354604051309180156108fc02915f818181858888f1935050505015801561073b573d5f803e3d5ffd5b506107446113fe565b50565b5f6001600160e01b03198216632483248360e11b148061076b575061076b8261151c565b92915050565b60605f805461077f906124b6565b80601f01602080910402602001604051908101604052809291908181526020018280546107ab906124b6565b80156107f65780601f106107cd576101008083540402835291602001916107f6565b820191905f5260205f20905b8154815290600101906020018083116107d957829003601f168201915b5050505050905090565b5f61080a8261156b565b505f828152600460205260409020546001600160a01b031661076b565b6108328282336115a3565b5050565b336001600160a01b037f000000000000000000000000000000000000000000000000000000000000000016146108b55760405163073e64fd60e21b81523360048201526001600160a01b037f00000000000000000000000000000000000000000000000000000000000000001660248201526044015b60405180910390fd5b61083282826115b0565b6001600160a01b0382166108e857604051633250574960e11b81525f60048201526024016108ac565b5f6108f4838333611644565b9050836001600160a01b0316816001600160a01b031614610942576040516364283d7b60e01b81526001600160a01b03808616600483015260248201849052821660448201526064016108ac565b50505050565b6012546040516001600160a01b0383169180156108fc02915f818181858888f19350505050158015610832573d5f803e3d5ffd5b60606016805480602002602001604051908101604052809291908181526020015f905b82821015610a3b575f8481526020908190206040805180820182526002860290920180546001600160a01b03168352600181018054835181870281018701909452808452939491938583019392830182828015610a2357602002820191905f5260205f20905b81546001600160a01b03168152600190910190602001808311610a05575b5050505050815250508152602001906001019061099f565b50505050905090565b610a5e83838360405180602001604052805f815250610e0c565b505050565b600f8054610a70906124b6565b80601f0160208091040260200160405190810160405280929190818152602001828054610a9c906124b6565b8015610ae75780601f10610abe57610100808354040283529160200191610ae7565b820191905f5260205f20905b815481529060010190602001808311610aca57829003601f168201915b505050505081565b5f61076b8261156b565b5f6001600160a01b038216610b23576040516322718ad960e21b81525f60048201526024016108ac565b506001600160a01b03165f9081526003602052604090205490565b610b46611736565b610b4f5f611763565b565b60605f600c5467ffffffffffffffff811115610b6f57610b6f611f29565b604051908082528060200260200182016040528015610bca57816020015b610bb760405180608001604052805f8152602001606081526020015f151581526020015f81525090565b815260200190600190039081610b8d5790505b5090505f805b600c54811015610c8e575f818152600d602052604090205460ff1615156001148015610c0d575033610c0182610aef565b6001600160a01b031614155b15610c86576040518060800160405280828152602001610c2c83610ebe565b81525f838152600d602090815260408083205460ff16151582850152858352600e90915290819020549101528351849084908110610c6c57610c6c6124ee565b60200260200101819052508180610c8290612502565b9250505b600101610bd0565b508152919050565b60168181548110610ca5575f80fd5b5f9182526020909120600290910201546001600160a01b0316905081565b60606001805461077f906124b6565b6108323383836117b4565b60605f600c5467ffffffffffffffff811115610cfb57610cfb611f29565b604051908082528060200260200182016040528015610d5657816020015b610d4360405180608001604052805f8152602001606081526020015f151581526020015f81525090565b815260200190600190039081610d195790505b5090505f805b600c54811015610e0357846001600160a01b0316610d7982610aef565b6001600160a01b031603610dfb576040518060800160405280828152602001610da183610ebe565b81525f838152600d602090815260408083205460ff16151582850152858352600e90915290819020549101528351849084908110610de157610de16124ee565b60200260200101819052508180610df790612502565b9250505b600101610d5c565b50815292915050565b610e178484846108bf565b61094284848484611852565b60118181548110610e32575f80fd5b905f5260205f20015f915090508054610a70906124b6565b610e5381610aef565b5f828152600e60205260408082205490516001600160a01b03939093169281156108fc0292818181858888f19350505050158015610e93573d5f803e3d5ffd5b50610ea733610ea183610aef565b836108bf565b5f908152600d60205260409020805460ff19169055565b6060610ec98261156b565b505f8281526006602052604081208054610ee2906124b6565b80601f0160208091040260200160405190810160405280929190818152602001828054610f0e906124b6565b8015610f595780601f10610f3057610100808354040283529160200191610f59565b820191905f5260205f20905b815481529060010190602001808311610f3c57829003601f168201915b505050505090505f610f7560408051602081019091525f815290565b905080515f03610f86575092915050565b815115610fb8578082604051602001610fa0929190612526565b60405160208183030381529060405292505050919050565b610fc184611978565b949350505050565b601680546001810182555f9190915281517fd833147d7dc355ba459fc788f669e58cfaf9dc25ddcd0702e87d69c7b5124289600290920291820180546001600160a01b0319166001600160a01b0390921691909117815560208084015180518594610942937fd833147d7dc355ba459fc788f669e58cfaf9dc25ddcd0702e87d69c7b512428a909101920190611dc9565b601580546001600160a01b03191633179055601354604051309180156108fc02915f818181858888f19350505050158015611097573d5f803e3d5ffd5b505f5b60115481101561074457600c80545f91826110b483612502565b909155506015549091506110d1906001600160a01b0316826119e9565b61117c81601184815481106110e8576110e86124ee565b905f5260205f200180546110fb906124b6565b80601f0160208091040260200160405190810160405280929190818152602001828054611127906124b6565b80156111725780601f1061114957610100808354040283529160200191611172565b820191905f5260205f20905b81548152906001019060200180831161115557829003601f168201915b5050505050611a4a565b5f908152600d60209081526040808320805460ff19169055600e90915281205560010161109a565b6111e36040518060c001604052805f6001600160a01b031681526020016060815260200160608152602001606081526020015f81526020015f81525090565b6040518060c00160405280306001600160a01b03168152602001600f805461120a906124b6565b80601f0160208091040260200160405190810160405280929190818152602001828054611236906124b6565b80156112815780601f1061125857610100808354040283529160200191611281565b820191905f5260205f20905b81548152906001019060200180831161126457829003601f168201915b5050505050815260200160108054611298906124b6565b80601f01602080910402602001604051908101604052809291908181526020018280546112c4906124b6565b801561130f5780601f106112e65761010080835404028352916020019161130f565b820191905f5260205f20905b8154815290600101906020018083116112f257829003601f168201915b505050505081526020016011805480602002602001604051908101604052809291908181526020015f905b828210156113e2578382905f5260205f20018054611357906124b6565b80601f0160208091040260200160405190810160405280929190818152602001828054611383906124b6565b80156113ce5780601f106113a5576101008083540402835291602001916113ce565b820191905f5260205f20905b8154815290600101906020018083116113b157829003601f168201915b50505050508152602001906001019061133a565b5050505081526020016012548152602001601354815250905090565b600854600954600a54604051632f34077b60e01b81526004810192909252600160a01b830467ffffffffffffffff16602483015263ffffffff80821660448401526401000000009091041660648201525f916001600160a01b031690632f34077b906084016020604051808303815f875af115801561147f573d5f803e3d5ffd5b505050506040513d601f19601f820116820180604052508101906114a39190612554565b905090565b6001600160a01b039182165f90815260056020908152604080832093909416825291909152205460ff1690565b6114dd611736565b6001600160a01b03811661150657604051631e4fbdf760e01b81525f60048201526024016108ac565b61074481611763565b60108054610a70906124b6565b5f6001600160e01b031982166380ac58cd60e01b148061154c57506001600160e01b03198216635b5e139f60e01b145b8061076b57506301ffc9a760e01b6001600160e01b031983161461076b565b5f818152600260205260408120546001600160a01b03168061076b57604051637e27328960e01b8152600481018490526024016108ac565b610a5e8383836001611a99565b601154815182905f906115c5576115c56124ee565b60200260200101516115d7919061256b565b600b55600c80545f91826115ea83612502565b90915550601554909150611607906001600160a01b0316826119e9565b611620816011600b54815481106110e8576110e86124ee565b5f908152600d60209081526040808320805460ff19169055600e9091528120555050565b5f828152600260205260408120546001600160a01b039081169083161561167057611670818486611b9d565b6001600160a01b038116156116aa5761168b5f855f80611a99565b6001600160a01b0381165f90815260036020526040902080545f190190555b6001600160a01b038516156116d8576001600160a01b0385165f908152600360205260409020805460010190555b5f8481526002602052604080822080546001600160a01b0319166001600160a01b0389811691821790925591518793918516917fddf252ad1be2c89b69c2b068fc378daa952ba7f163c4a11628f55a4df523b3ef91a4949350505050565b6007546001600160a01b03163314610b4f5760405163118cdaa760e01b81523360048201526024016108ac565b600780546001600160a01b038381166001600160a01b0319831681179093556040519116919082907f8be0079c531659141344cd1fd0a4f28419497f9722a3daafe3b4186f6b6457e0905f90a35050565b6001600160a01b0382166117e657604051630b61174360e31b81526001600160a01b03831660048201526024016108ac565b6001600160a01b038381165f81815260056020908152604080832094871680845294825291829020805460ff191686151590811790915591519182527f17307eab39ab6107e8899845ad3d59bd9653f200f220920489ca2b5937696c31910160405180910390a3505050565b6001600160a01b0383163b1561094257604051630a85bd0160e11b81526001600160a01b0384169063150b7a029061189490339088908790879060040161258a565b6020604051808303815f875af19250505080156118ce575060408051601f3d908101601f191682019092526118cb918101906125c6565b60015b611935573d8080156118fb576040519150601f19603f3d011682016040523d82523d5f602084013e611900565b606091505b5080515f0361192d57604051633250574960e11b81526001600160a01b03851660048201526024016108ac565b805181602001fd5b6001600160e01b03198116630a85bd0160e11b1461197157604051633250574960e11b81526001600160a01b03851660048201526024016108ac565b5050505050565b60606119838261156b565b505f61199960408051602081019091525f815290565b90505f8151116119b75760405180602001604052805f8152506119e2565b806119c184611c01565b6040516020016119d2929190612526565b6040516020818303038152906040525b9392505050565b6001600160a01b038216611a1257604051633250574960e11b81525f60048201526024016108ac565b5f611a1e83835f611644565b90506001600160a01b03811615610a5e576040516339e3563760e11b81525f60048201526024016108ac565b5f828152600660205260409020611a618282612625565b506040518281527ff8e1a15aba9398e019f0b49df1a4fde98ee17ae345cb5f6b5e2c27f5033e8ce79060200160405180910390a15050565b8080611aad57506001600160a01b03821615155b15611b6e575f611abc8461156b565b90506001600160a01b03831615801590611ae85750826001600160a01b0316816001600160a01b031614155b8015611afb5750611af981846114a8565b155b15611b245760405163a9fbf51f60e01b81526001600160a01b03841660048201526024016108ac565b8115611b6c5783856001600160a01b0316826001600160a01b03167f8c5be1e5ebec7d5bd14f71427d1e84f3dd0314c0f7b2291e5b200ac8c7c3b92560405160405180910390a45b505b50505f90815260046020526040902080546001600160a01b0319166001600160a01b0392909216919091179055565b611ba8838383611c91565b610a5e576001600160a01b038316611bd657604051637e27328960e01b8152600481018290526024016108ac565b60405163177e802f60e01b81526001600160a01b0383166004820152602481018290526044016108ac565b60605f611c0d83611cf2565b60010190505f8167ffffffffffffffff811115611c2c57611c2c611f29565b6040519080825280601f01601f191660200182016040528015611c56576020820181803683370190505b5090508181016020015b5f19016f181899199a1a9b1b9c1cb0b131b232b360811b600a86061a8153600a8504945084611c6057509392505050565b5f6001600160a01b03831615801590610fc15750826001600160a01b0316846001600160a01b03161480611cca5750611cca84846114a8565b80610fc15750505f908152600460205260409020546001600160a01b03908116911614919050565b5f8072184f03e93ff9f4daa797ed6e38ed64bf6a1f0160401b8310611d305772184f03e93ff9f4daa797ed6e38ed64bf6a1f0160401b830492506040015b6d04ee2d6d415b85acef81000000008310611d5c576d04ee2d6d415b85acef8100000000830492506020015b662386f26fc100008310611d7a57662386f26fc10000830492506010015b6305f5e1008310611d92576305f5e100830492506008015b6127108310611da657612710830492506004015b60648310611db8576064830492506002015b600a831061076b5760010192915050565b828054828255905f5260205f20908101928215611e1c579160200282015b82811115611e1c57825182546001600160a01b0319166001600160a01b03909116178255602090920191600190910190611de7565b50611e28929150611e2c565b5090565b5b80821115611e28575f8155600101611e2d565b6001600160e01b031981168114610744575f80fd5b5f60208284031215611e65575f80fd5b81356119e281611e40565b5f5b83811015611e8a578181015183820152602001611e72565b50505f910152565b5f8151808452611ea9816020860160208601611e70565b601f01601f19169290920160200192915050565b602081525f6119e26020830184611e92565b5f60208284031215611edf575f80fd5b5035919050565b80356001600160a01b0381168114611efc575f80fd5b919050565b5f8060408385031215611f12575f80fd5b611f1b83611ee6565b946020939093013593505050565b634e487b7160e01b5f52604160045260245ffd5b6040805190810167ffffffffffffffff81118282101715611f6057611f60611f29565b60405290565b604051601f8201601f1916810167ffffffffffffffff81118282101715611f8f57611f8f611f29565b604052919050565b5f67ffffffffffffffff821115611fb057611fb0611f29565b5060051b60200190565b5f8060408385031215611fcb575f80fd5b8235915060208084013567ffffffffffffffff811115611fe9575f80fd5b8401601f81018613611ff9575f80fd5b803561200c61200782611f97565b611f66565b81815260059190911b8201830190838101908883111561202a575f80fd5b928401925b828410156120485783358252928401929084019061202f565b80955050505050509250929050565b5f805f60608486031215612069575f80fd5b61207284611ee6565b925061208060208501611ee6565b9150604084013590509250925092565b5f602082840312156120a0575f80fd5b6119e282611ee6565b5f60208083018184528085518083526040925060408601915060408160051b8701018488015f5b8381101561214857888303603f19018552815180516001600160a01b039081168552908801518885018890528051888601819052908901915f9160608701905b8084101561213257845183168252938b019360019390930192908b0190612110565b50978a01979550505091870191506001016120d0565b509098975050505050505050565b5f8060408385031215612167575f80fd5b50508035926020909101359150565b5f60208083018184528085518083526040925060408601915060408160051b8701018488015f5b8381101561214857603f19898403018552815160808151855288820151818a8701526121cb82870182611e92565b838a01511515878b015260609384015193909601929092525050938601939086019060010161219d565b5f8060408385031215612206575f80fd5b61220f83611ee6565b915060208301358015158114612223575f80fd5b809150509250929050565b5f805f8060808587031215612241575f80fd5b61224a85611ee6565b93506020612259818701611ee6565b935060408601359250606086013567ffffffffffffffff8082111561227c575f80fd5b818801915088601f83011261228f575f80fd5b8135818111156122a1576122a1611f29565b6122b3601f8201601f19168501611f66565b915080825289848285010111156122c8575f80fd5b80848401858401375f8482840101525080935050505092959194509250565b5f60208083850312156122f8575f80fd5b823567ffffffffffffffff8082111561230f575f80fd5b9084019060408287031215612322575f80fd5b61232a611f3d565b61233383611ee6565b81528383013582811115612345575f80fd5b80840193505086601f840112612359575f80fd5b8235915061236961200783611f97565b82815260059290921b83018401918481019088841115612387575f80fd5b938501935b838510156123ac5761239d85611ee6565b8252938501939085019061238c565b948201949094529695505050505050565b602080825282516001600160a01b0316828201528281015160c060408401525f91906123ec60e0850182611e92565b90506040850151601f198086840301606087015261240a8383611e92565b60608801518782038301608089015280518083529194508501925084840190600581901b850186015f5b82811015612460578487830301845261244e828751611e92565b95880195938801939150600101612434565b5060808a015160a08a015260a08a015160c08a01528097505050505050505092915050565b5f8060408385031215612496575f80fd5b61249f83611ee6565b91506124ad60208401611ee6565b90509250929050565b600181811c908216806124ca57607f821691505b6020821081036124e857634e487b7160e01b5f52602260045260245ffd5b50919050565b634e487b7160e01b5f52603260045260245ffd5b5f6001820161251f57634e487b7160e01b5f52601160045260245ffd5b5060010190565b5f8351612537818460208801611e70565b83519083019061254b818360208801611e70565b01949350505050565b5f60208284031215612564575f80fd5b5051919050565b5f8261258557634e487b7160e01b5f52601260045260245ffd5b500690565b6001600160a01b03858116825284166020820152604081018390526080606082018190525f906125bc90830184611e92565b9695505050505050565b5f602082840312156125d6575f80fd5b81516119e281611e40565b601f821115610a5e57805f5260205f20601f840160051c810160208510156126065750805b601f840160051c820191505b81811015611971575f8155600101612612565b815167ffffffffffffffff81111561263f5761263f611f29565b6126538161264d84546124b6565b846125e1565b602080601f831160018114612686575f841561266f5750858301515b5f19600386901b1c1916600185901b1785556126dd565b5f85815260208120601f198616915b828110156126b457888601518255948401946001909101908401612695565b50858210156126d157878501515f19600388901b60f8161c191681555b505060018460011b0185555b50505050505056fea2646970667358221220babf0d5ada6fd33184323f79f42369520c674f2f963b45cc9c02de957628ff4864736f6c63430008160033a26469706673582212205e1768e41debf934a9268a0845c210d03ecb0ab4cf4b0579a02d7802ed22cbc764736f6c63430008160033",
			"opcodes": "PUSH1 0x80 PUSH1 0x40 MSTORE CALLVALUE DUP1 ISZERO PUSH2 0xF JUMPI PUSH0 DUP1 REVERT JUMPDEST POP CALLER DUP1 PUSH2 0x35 JUMPI PUSH1 0x40 MLOAD PUSH4 0x1E4FBDF7 PUSH1 0xE0 SHL DUP2 MSTORE PUSH0 PUSH1 0x4 DUP3 ADD MSTORE PUSH1 0x24 ADD PUSH1 0x40 MLOAD DUP1 SWAP2 SUB SWAP1 REVERT JUMPDEST PUSH2 0x3E DUP2 PUSH2 0x44 JUMP JUMPDEST POP PUSH2 0x93 JUMP JUMPDEST PUSH0 DUP1 SLOAD PUSH1 0x1 PUSH1 0x1 PUSH1 0xA0 SHL SUB DUP4 DUP2 AND PUSH1 0x1 PUSH1 0x1 PUSH1 0xA0 SHL SUB NOT DUP4 AND DUP2 OR DUP5 SSTORE PUSH1 0x40 MLOAD SWAP2 SWAP1 SWAP3 AND SWAP3 DUP4 SWAP2 PUSH32 0x8BE0079C531659141344CD1FD0A4F28419497F9722A3DAAFE3B4186F6B6457E0 SWAP2 SWAP1 LOG3 POP POP JUMP JUMPDEST PUSH2 0x3974 DUP1 PUSH2 0xA0 PUSH0 CODECOPY PUSH0 RETURN INVALID PUSH1 0x80 PUSH1 0x40 MSTORE CALLVALUE DUP1 ISZERO PUSH3 0x10 JUMPI PUSH0 DUP1 REVERT JUMPDEST POP PUSH1 0x4 CALLDATASIZE LT PUSH3 0x90 JUMPI PUSH0 CALLDATALOAD PUSH1 0xE0 SHR DUP1 PUSH4 0x8DA5CB5B GT PUSH3 0x5F JUMPI DUP1 PUSH4 0x8DA5CB5B EQ PUSH3 0x104 JUMPI DUP1 PUSH4 0xC56E0DDE EQ PUSH3 0x115 JUMPI DUP1 PUSH4 0xD7F07BDF EQ PUSH3 0x176 JUMPI DUP1 PUSH4 0xF2FDE38B EQ PUSH3 0x18F JUMPI PUSH0 DUP1 REVERT JUMPDEST DUP1 PUSH4 0x4026B3B7 EQ PUSH3 0x94 JUMPI DUP1 PUSH4 0x4C575154 EQ PUSH3 0xC8 JUMPI DUP1 PUSH4 0x4EEF150D EQ PUSH3 0xE1 JUMPI DUP1 PUSH4 0x715018A6 EQ PUSH3 0xFA JUMPI JUMPDEST PUSH0 DUP1 REVERT JUMPDEST PUSH3 0xAB PUSH3 0xA5 CALLDATASIZE PUSH1 0x4 PUSH3 0x4C0 JUMP JUMPDEST PUSH3 0x1A6 JUMP JUMPDEST PUSH1 0x40 MLOAD PUSH1 0x1 PUSH1 0x1 PUSH1 0xA0 SHL SUB SWAP1 SWAP2 AND DUP2 MSTORE PUSH1 0x20 ADD JUMPDEST PUSH1 0x40 MLOAD DUP1 SWAP2 SUB SWAP1 RETURN JUMPDEST PUSH3 0xDF PUSH3 0xD9 CALLDATASIZE PUSH1 0x4 PUSH3 0x5F4 JUMP JUMPDEST PUSH3 0x1CF JUMP JUMPDEST STOP JUMPDEST PUSH3 0xEB PUSH3 0x217 JUMP JUMPDEST PUSH1 0x40 MLOAD PUSH3 0xBF SWAP2 SWAP1 PUSH3 0x703 JUMP JUMPDEST PUSH3 0xDF PUSH3 0x279 JUMP JUMPDEST PUSH0 SLOAD PUSH1 0x1 PUSH1 0x1 PUSH1 0xA0 SHL SUB AND PUSH3 0xAB JUMP JUMPDEST PUSH3 0xDF PUSH3 0x126 CALLDATASIZE PUSH1 0x4 PUSH3 0x766 JUMP JUMPDEST PUSH1 0x1 DUP1 SLOAD DUP1 DUP3 ADD DUP3 SSTORE PUSH0 SWAP2 SWAP1 SWAP2 MSTORE PUSH32 0xB10E2D527612073B26EECDFD717E6A320CF44B4AFAC2B0732D9FCBE2B7FA0CF6 ADD DUP1 SLOAD PUSH1 0x1 PUSH1 0x1 PUSH1 0xA0 SHL SUB NOT AND PUSH1 0x1 PUSH1 0x1 PUSH1 0xA0 SHL SUB SWAP3 SWAP1 SWAP3 AND SWAP2 SWAP1 SWAP2 OR SWAP1 SSTORE JUMP JUMPDEST PUSH3 0x180 PUSH3 0x290 JUMP JUMPDEST PUSH1 0x40 MLOAD PUSH3 0xBF SWAP2 SWAP1 PUSH3 0x838 JUMP JUMPDEST PUSH3 0xDF PUSH3 0x1A0 CALLDATASIZE PUSH1 0x4 PUSH3 0x766 JUMP JUMPDEST PUSH3 0x3EE JUMP JUMPDEST PUSH1 0x1 DUP2 DUP2 SLOAD DUP2 LT PUSH3 0x1B6 JUMPI PUSH0 DUP1 REVERT JUMPDEST PUSH0 SWAP2 DUP3 MSTORE PUSH1 0x20 SWAP1 SWAP2 KECCAK256 ADD SLOAD PUSH1 0x1 PUSH1 0x1 PUSH1 0xA0 SHL SUB AND SWAP1 POP DUP2 JUMP JUMPDEST DUP5 DUP5 DUP5 DUP5 DUP5 ADDRESS PUSH1 0x40 MLOAD PUSH3 0x1E3 SWAP1 PUSH3 0x4B2 JUMP JUMPDEST PUSH3 0x1F4 SWAP7 SWAP6 SWAP5 SWAP4 SWAP3 SWAP2 SWAP1 PUSH3 0x90B JUMP JUMPDEST PUSH1 0x40 MLOAD DUP1 SWAP2 SUB SWAP1 PUSH0 CREATE DUP1 ISZERO DUP1 ISZERO PUSH3 0x20E JUMPI RETURNDATASIZE PUSH0 DUP1 RETURNDATACOPY RETURNDATASIZE PUSH0 REVERT JUMPDEST POP POP POP POP POP POP POP JUMP JUMPDEST PUSH1 0x60 PUSH1 0x1 DUP1 SLOAD DUP1 PUSH1 0x20 MUL PUSH1 0x20 ADD PUSH1 0x40 MLOAD SWAP1 DUP2 ADD PUSH1 0x40 MSTORE DUP1 SWAP3 SWAP2 SWAP1 DUP2 DUP2 MSTORE PUSH1 0x20 ADD DUP3 DUP1 SLOAD DUP1 ISZERO PUSH3 0x26F JUMPI PUSH1 0x20 MUL DUP3 ADD SWAP2 SWAP1 PUSH0 MSTORE PUSH1 0x20 PUSH0 KECCAK256 SWAP1 JUMPDEST DUP2 SLOAD PUSH1 0x1 PUSH1 0x1 PUSH1 0xA0 SHL SUB AND DUP2 MSTORE PUSH1 0x1 SWAP1 SWAP2 ADD SWAP1 PUSH1 0x20 ADD DUP1 DUP4 GT PUSH3 0x250 JUMPI JUMPDEST POP POP POP POP POP SWAP1 POP SWAP1 JUMP JUMPDEST PUSH3 0x283 PUSH3 0x435 JUMP JUMPDEST PUSH3 0x28E PUSH0 PUSH3 0x463 JUMP JUMPDEST JUMP JUMPDEST PUSH1 0x1 SLOAD PUSH1 0x60 SWAP1 PUSH0 SWAP1 PUSH8 0xFFFFFFFFFFFFFFFF DUP2 GT ISZERO PUSH3 0x2B3 JUMPI PUSH3 0x2B3 PUSH3 0x4D8 JUMP JUMPDEST PUSH1 0x40 MLOAD SWAP1 DUP1 DUP3 MSTORE DUP1 PUSH1 0x20 MUL PUSH1 0x20 ADD DUP3 ADD PUSH1 0x40 MSTORE DUP1 ISZERO PUSH3 0x326 JUMPI DUP2 PUSH1 0x20 ADD JUMPDEST PUSH3 0x312 PUSH1 0x40 MLOAD DUP1 PUSH1 0xC0 ADD PUSH1 0x40 MSTORE DUP1 PUSH0 PUSH1 0x1 PUSH1 0x1 PUSH1 0xA0 SHL SUB AND DUP2 MSTORE PUSH1 0x20 ADD PUSH1 0x60 DUP2 MSTORE PUSH1 0x20 ADD PUSH1 0x60 DUP2 MSTORE PUSH1 0x20 ADD PUSH1 0x60 DUP2 MSTORE PUSH1 0x20 ADD PUSH0 DUP2 MSTORE PUSH1 0x20 ADD PUSH0 DUP2 MSTORE POP SWAP1 JUMP JUMPDEST DUP2 MSTORE PUSH1 0x20 ADD SWAP1 PUSH1 0x1 SWAP1 SUB SWAP1 DUP2 PUSH3 0x2D2 JUMPI SWAP1 POP JUMPDEST POP SWAP1 POP PUSH0 JUMPDEST PUSH1 0x1 SLOAD DUP2 LT ISZERO PUSH3 0x3E8 JUMPI PUSH1 0x1 DUP2 DUP2 SLOAD DUP2 LT PUSH3 0x34C JUMPI PUSH3 0x34C PUSH3 0x971 JUMP JUMPDEST PUSH0 SWAP2 DUP3 MSTORE PUSH1 0x20 DUP3 KECCAK256 ADD SLOAD PUSH1 0x40 DUP1 MLOAD PUSH4 0xDB65DBBB PUSH1 0xE0 SHL DUP2 MSTORE SWAP1 MLOAD PUSH1 0x1 PUSH1 0x1 PUSH1 0xA0 SHL SUB SWAP1 SWAP3 AND SWAP3 PUSH4 0xDB65DBBB SWAP3 PUSH1 0x4 DUP1 DUP5 ADD SWAP4 DUP3 SWAP1 SUB ADD DUP2 DUP7 GAS STATICCALL ISZERO DUP1 ISZERO PUSH3 0x396 JUMPI RETURNDATASIZE PUSH0 DUP1 RETURNDATACOPY RETURNDATASIZE PUSH0 REVERT JUMPDEST POP POP POP POP PUSH1 0x40 MLOAD RETURNDATASIZE PUSH0 DUP3 RETURNDATACOPY PUSH1 0x1F RETURNDATASIZE SWAP1 DUP2 ADD PUSH1 0x1F NOT AND DUP3 ADD PUSH1 0x40 MSTORE PUSH3 0x3BF SWAP2 SWAP1 DUP2 ADD SWAP1 PUSH3 0xA78 JUMP JUMPDEST DUP3 DUP3 DUP2 MLOAD DUP2 LT PUSH3 0x3D4 JUMPI PUSH3 0x3D4 PUSH3 0x971 JUMP JUMPDEST PUSH1 0x20 SWAP1 DUP2 MUL SWAP2 SWAP1 SWAP2 ADD ADD MSTORE PUSH1 0x1 ADD PUSH3 0x32B JUMP JUMPDEST POP SWAP2 SWAP1 POP JUMP JUMPDEST PUSH3 0x3F8 PUSH3 0x435 JUMP JUMPDEST PUSH1 0x1 PUSH1 0x1 PUSH1 0xA0 SHL SUB DUP2 AND PUSH3 0x427 JUMPI PUSH1 0x40 MLOAD PUSH4 0x1E4FBDF7 PUSH1 0xE0 SHL DUP2 MSTORE PUSH0 PUSH1 0x4 DUP3 ADD MSTORE PUSH1 0x24 ADD JUMPDEST PUSH1 0x40 MLOAD DUP1 SWAP2 SUB SWAP1 REVERT JUMPDEST PUSH3 0x432 DUP2 PUSH3 0x463 JUMP JUMPDEST POP JUMP JUMPDEST PUSH0 SLOAD PUSH1 0x1 PUSH1 0x1 PUSH1 0xA0 SHL SUB AND CALLER EQ PUSH3 0x28E JUMPI PUSH1 0x40 MLOAD PUSH4 0x118CDAA7 PUSH1 0xE0 SHL DUP2 MSTORE CALLER PUSH1 0x4 DUP3 ADD MSTORE PUSH1 0x24 ADD PUSH3 0x41E JUMP JUMPDEST PUSH0 DUP1 SLOAD PUSH1 0x1 PUSH1 0x1 PUSH1 0xA0 SHL SUB DUP4 DUP2 AND PUSH1 0x1 PUSH1 0x1 PUSH1 0xA0 SHL SUB NOT DUP4 AND DUP2 OR DUP5 SSTORE PUSH1 0x40 MLOAD SWAP2 SWAP1 SWAP3 AND SWAP3 DUP4 SWAP2 PUSH32 0x8BE0079C531659141344CD1FD0A4F28419497F9722A3DAAFE3B4186F6B6457E0 SWAP2 SWAP1 LOG3 POP POP JUMP JUMPDEST PUSH2 0x2DE0 DUP1 PUSH3 0xB5F DUP4 CODECOPY ADD SWAP1 JUMP JUMPDEST PUSH0 PUSH1 0x20 DUP3 DUP5 SUB SLT ISZERO PUSH3 0x4D1 JUMPI PUSH0 DUP1 REVERT JUMPDEST POP CALLDATALOAD SWAP2 SWAP1 POP JUMP JUMPDEST PUSH4 0x4E487B71 PUSH1 0xE0 SHL PUSH0 MSTORE PUSH1 0x41 PUSH1 0x4 MSTORE PUSH1 0x24 PUSH0 REVERT JUMPDEST PUSH1 0x40 MLOAD PUSH1 0xC0 DUP2 ADD PUSH8 0xFFFFFFFFFFFFFFFF DUP2 GT DUP3 DUP3 LT OR ISZERO PUSH3 0x512 JUMPI PUSH3 0x512 PUSH3 0x4D8 JUMP JUMPDEST PUSH1 0x40 MSTORE SWAP1 JUMP JUMPDEST PUSH1 0x40 MLOAD PUSH1 0x1F DUP3 ADD PUSH1 0x1F NOT AND DUP2 ADD PUSH8 0xFFFFFFFFFFFFFFFF DUP2 GT DUP3 DUP3 LT OR ISZERO PUSH3 0x544 JUMPI PUSH3 0x544 PUSH3 0x4D8 JUMP JUMPDEST PUSH1 0x40 MSTORE SWAP2 SWAP1 POP JUMP JUMPDEST PUSH0 PUSH8 0xFFFFFFFFFFFFFFFF DUP3 GT ISZERO PUSH3 0x568 JUMPI PUSH3 0x568 PUSH3 0x4D8 JUMP JUMPDEST POP PUSH1 0x1F ADD PUSH1 0x1F NOT AND PUSH1 0x20 ADD SWAP1 JUMP JUMPDEST PUSH0 DUP3 PUSH1 0x1F DUP4 ADD SLT PUSH3 0x586 JUMPI PUSH0 DUP1 REVERT JUMPDEST DUP2 CALLDATALOAD PUSH3 0x59D PUSH3 0x597 DUP3 PUSH3 0x54C JUMP JUMPDEST PUSH3 0x518 JUMP JUMPDEST DUP2 DUP2 MSTORE DUP5 PUSH1 0x20 DUP4 DUP7 ADD ADD GT ISZERO PUSH3 0x5B2 JUMPI PUSH0 DUP1 REVERT JUMPDEST DUP2 PUSH1 0x20 DUP6 ADD PUSH1 0x20 DUP4 ADD CALLDATACOPY PUSH0 SWAP2 DUP2 ADD PUSH1 0x20 ADD SWAP2 SWAP1 SWAP2 MSTORE SWAP4 SWAP3 POP POP POP JUMP JUMPDEST PUSH0 PUSH8 0xFFFFFFFFFFFFFFFF DUP3 GT ISZERO PUSH3 0x5EA JUMPI PUSH3 0x5EA PUSH3 0x4D8 JUMP JUMPDEST POP PUSH1 0x5 SHL PUSH1 0x20 ADD SWAP1 JUMP JUMPDEST PUSH0 DUP1 PUSH0 DUP1 PUSH0 PUSH1 0xA0 DUP7 DUP9 SUB SLT ISZERO PUSH3 0x609 JUMPI PUSH0 DUP1 REVERT JUMPDEST DUP6 CALLDATALOAD PUSH8 0xFFFFFFFFFFFFFFFF DUP1 DUP3 GT ISZERO PUSH3 0x621 JUMPI PUSH0 DUP1 REVERT JUMPDEST PUSH3 0x62F DUP10 DUP4 DUP11 ADD PUSH3 0x576 JUMP JUMPDEST SWAP7 POP PUSH1 0x20 SWAP2 POP DUP2 DUP9 ADD CALLDATALOAD DUP2 DUP2 GT ISZERO PUSH3 0x646 JUMPI PUSH0 DUP1 REVERT JUMPDEST PUSH3 0x654 DUP11 DUP3 DUP12 ADD PUSH3 0x576 JUMP JUMPDEST SWAP7 POP POP PUSH1 0x40 DUP9 ADD CALLDATALOAD DUP2 DUP2 GT ISZERO PUSH3 0x669 JUMPI PUSH0 DUP1 REVERT JUMPDEST DUP9 ADD PUSH1 0x1F DUP2 ADD DUP11 SGT PUSH3 0x67A JUMPI PUSH0 DUP1 REVERT JUMPDEST DUP1 CALLDATALOAD PUSH3 0x68B PUSH3 0x597 DUP3 PUSH3 0x5CE JUMP JUMPDEST DUP2 DUP2 MSTORE PUSH1 0x5 SWAP2 SWAP1 SWAP2 SHL DUP3 ADD DUP5 ADD SWAP1 DUP5 DUP2 ADD SWAP1 DUP13 DUP4 GT ISZERO PUSH3 0x6AA JUMPI PUSH0 DUP1 REVERT JUMPDEST DUP6 DUP5 ADD JUMPDEST DUP4 DUP2 LT ISZERO PUSH3 0x6E5 JUMPI DUP1 CALLDATALOAD DUP7 DUP2 GT ISZERO PUSH3 0x6C6 JUMPI PUSH0 DUP1 REVERT JUMPDEST PUSH3 0x6D6 DUP16 DUP10 DUP4 DUP10 ADD ADD PUSH3 0x576 JUMP JUMPDEST DUP5 MSTORE POP SWAP2 DUP7 ADD SWAP2 DUP7 ADD PUSH3 0x6AE JUMP JUMPDEST POP SWAP10 SWAP13 SWAP9 SWAP12 POP SWAP9 SWAP10 PUSH1 0x60 DUP2 ADD CALLDATALOAD SWAP10 POP PUSH1 0x80 ADD CALLDATALOAD SWAP8 SWAP7 POP POP POP POP POP POP POP JUMP JUMPDEST PUSH1 0x20 DUP1 DUP3 MSTORE DUP3 MLOAD DUP3 DUP3 ADD DUP2 SWAP1 MSTORE PUSH0 SWAP2 SWAP1 DUP5 DUP3 ADD SWAP1 PUSH1 0x40 DUP6 ADD SWAP1 DUP5 JUMPDEST DUP2 DUP2 LT ISZERO PUSH3 0x745 JUMPI DUP4 MLOAD PUSH1 0x1 PUSH1 0x1 PUSH1 0xA0 SHL SUB AND DUP4 MSTORE SWAP3 DUP5 ADD SWAP3 SWAP2 DUP5 ADD SWAP2 PUSH1 0x1 ADD PUSH3 0x71E JUMP JUMPDEST POP SWAP1 SWAP7 SWAP6 POP POP POP POP POP POP JUMP JUMPDEST PUSH1 0x1 PUSH1 0x1 PUSH1 0xA0 SHL SUB DUP2 AND DUP2 EQ PUSH3 0x432 JUMPI PUSH0 DUP1 REVERT JUMPDEST PUSH0 PUSH1 0x20 DUP3 DUP5 SUB SLT ISZERO PUSH3 0x777 JUMPI PUSH0 DUP1 REVERT JUMPDEST DUP2 CALLDATALOAD PUSH3 0x784 DUP2 PUSH3 0x751 JUMP JUMPDEST SWAP4 SWAP3 POP POP POP JUMP JUMPDEST PUSH0 JUMPDEST DUP4 DUP2 LT ISZERO PUSH3 0x7A7 JUMPI DUP2 DUP2 ADD MLOAD DUP4 DUP3 ADD MSTORE PUSH1 0x20 ADD PUSH3 0x78D JUMP JUMPDEST POP POP PUSH0 SWAP2 ADD MSTORE JUMP JUMPDEST PUSH0 DUP2 MLOAD DUP1 DUP5 MSTORE PUSH3 0x7C8 DUP2 PUSH1 0x20 DUP7 ADD PUSH1 0x20 DUP7 ADD PUSH3 0x78B JUMP JUMPDEST PUSH1 0x1F ADD PUSH1 0x1F NOT AND SWAP3 SWAP1 SWAP3 ADD PUSH1 0x20 ADD SWAP3 SWAP2 POP POP JUMP JUMPDEST PUSH0 DUP3 DUP3 MLOAD DUP1 DUP6 MSTORE PUSH1 0x20 DUP1 DUP7 ADD SWAP6 POP PUSH1 0x20 DUP3 PUSH1 0x5 SHL DUP5 ADD ADD PUSH1 0x20 DUP7 ADD PUSH0 JUMPDEST DUP5 DUP2 LT ISZERO PUSH3 0x82B JUMPI PUSH1 0x1F NOT DUP7 DUP5 SUB ADD DUP10 MSTORE PUSH3 0x818 DUP4 DUP4 MLOAD PUSH3 0x7AF JUMP JUMPDEST SWAP9 DUP5 ADD SWAP9 SWAP3 POP SWAP1 DUP4 ADD SWAP1 PUSH1 0x1 ADD PUSH3 0x7F9 JUMP JUMPDEST POP SWAP1 SWAP8 SWAP7 POP POP POP POP POP POP POP JUMP JUMPDEST PUSH0 PUSH1 0x20 DUP1 DUP4 ADD DUP2 DUP5 MSTORE DUP1 DUP6 MLOAD DUP1 DUP4 MSTORE PUSH1 0x40 SWAP3 POP PUSH1 0x40 DUP7 ADD SWAP2 POP PUSH1 0x40 DUP2 PUSH1 0x5 SHL DUP8 ADD ADD DUP5 DUP9 ADD PUSH0 JUMPDEST DUP4 DUP2 LT ISZERO PUSH3 0x8FD JUMPI DUP9 DUP4 SUB PUSH1 0x3F NOT ADD DUP6 MSTORE DUP2 MLOAD DUP1 MLOAD PUSH1 0x1 PUSH1 0x1 PUSH1 0xA0 SHL SUB AND DUP5 MSTORE DUP8 DUP2 ADD MLOAD PUSH1 0xC0 DUP10 DUP7 ADD DUP2 SWAP1 MSTORE SWAP1 PUSH3 0x89B DUP3 DUP8 ADD DUP3 PUSH3 0x7AF JUMP JUMPDEST SWAP2 POP POP DUP8 DUP3 ADD MLOAD DUP6 DUP3 SUB DUP10 DUP8 ADD MSTORE PUSH3 0x8B5 DUP3 DUP3 PUSH3 0x7AF JUMP JUMPDEST SWAP2 POP POP PUSH1 0x60 DUP1 DUP4 ADD MLOAD DUP7 DUP4 SUB DUP3 DUP9 ADD MSTORE PUSH3 0x8D1 DUP4 DUP3 PUSH3 0x7DC JUMP JUMPDEST PUSH1 0x80 DUP6 DUP2 ADD MLOAD SWAP1 DUP10 ADD MSTORE PUSH1 0xA0 SWAP5 DUP6 ADD MLOAD SWAP5 SWAP1 SWAP8 ADD SWAP4 SWAP1 SWAP4 MSTORE POP POP POP SWAP4 DUP7 ADD SWAP4 SWAP1 DUP7 ADD SWAP1 PUSH1 0x1 ADD PUSH3 0x85F JUMP JUMPDEST POP SWAP1 SWAP9 SWAP8 POP POP POP POP POP POP POP POP JUMP JUMPDEST PUSH1 0xC0 DUP2 MSTORE PUSH0 PUSH3 0x91F PUSH1 0xC0 DUP4 ADD DUP10 PUSH3 0x7AF JUMP JUMPDEST DUP3 DUP2 SUB PUSH1 0x20 DUP5 ADD MSTORE PUSH3 0x933 DUP2 DUP10 PUSH3 0x7AF JUMP JUMPDEST SWAP1 POP DUP3 DUP2 SUB PUSH1 0x40 DUP5 ADD MSTORE PUSH3 0x949 DUP2 DUP9 PUSH3 0x7DC JUMP JUMPDEST PUSH1 0x60 DUP5 ADD SWAP7 SWAP1 SWAP7 MSTORE POP POP PUSH1 0x80 DUP2 ADD SWAP3 SWAP1 SWAP3 MSTORE PUSH1 0x1 PUSH1 0x1 PUSH1 0xA0 SHL SUB AND PUSH1 0xA0 SWAP1 SWAP2 ADD MSTORE SWAP4 SWAP3 POP POP POP JUMP JUMPDEST PUSH4 0x4E487B71 PUSH1 0xE0 SHL PUSH0 MSTORE PUSH1 0x32 PUSH1 0x4 MSTORE PUSH1 0x24 PUSH0 REVERT JUMPDEST DUP1 MLOAD PUSH3 0x992 DUP2 PUSH3 0x751 JUMP JUMPDEST SWAP2 SWAP1 POP JUMP JUMPDEST PUSH0 DUP3 PUSH1 0x1F DUP4 ADD SLT PUSH3 0x9A7 JUMPI PUSH0 DUP1 REVERT JUMPDEST DUP2 MLOAD PUSH3 0x9B8 PUSH3 0x597 DUP3 PUSH3 0x54C JUMP JUMPDEST DUP2 DUP2 MSTORE DUP5 PUSH1 0x20 DUP4 DUP7 ADD ADD GT ISZERO PUSH3 0x9CD JUMPI PUSH0 DUP1 REVERT JUMPDEST PUSH3 0x9E0 DUP3 PUSH1 0x20 DUP4 ADD PUSH1 0x20 DUP8 ADD PUSH3 0x78B JUMP JUMPDEST SWAP5 SWAP4 POP POP POP POP JUMP JUMPDEST PUSH0 DUP3 PUSH1 0x1F DUP4 ADD SLT PUSH3 0x9F8 JUMPI PUSH0 DUP1 REVERT JUMPDEST DUP2 MLOAD PUSH1 0x20 PUSH3 0xA0B PUSH3 0x597 DUP4 PUSH3 0x5CE JUMP JUMPDEST DUP3 DUP2 MSTORE PUSH1 0x5 SWAP3 SWAP1 SWAP3 SHL DUP5 ADD DUP2 ADD SWAP2 DUP2 DUP2 ADD SWAP1 DUP7 DUP5 GT ISZERO PUSH3 0xA2A JUMPI PUSH0 DUP1 REVERT JUMPDEST DUP3 DUP7 ADD JUMPDEST DUP5 DUP2 LT ISZERO PUSH3 0xA6D JUMPI DUP1 MLOAD PUSH8 0xFFFFFFFFFFFFFFFF DUP2 GT ISZERO PUSH3 0xA4E JUMPI PUSH0 DUP1 REVERT JUMPDEST PUSH3 0xA5E DUP10 DUP7 DUP4 DUP12 ADD ADD PUSH3 0x997 JUMP JUMPDEST DUP5 MSTORE POP SWAP2 DUP4 ADD SWAP2 DUP4 ADD PUSH3 0xA2E JUMP JUMPDEST POP SWAP7 SWAP6 POP POP POP POP POP POP JUMP JUMPDEST PUSH0 PUSH1 0x20 DUP3 DUP5 SUB SLT ISZERO PUSH3 0xA89 JUMPI PUSH0 DUP1 REVERT JUMPDEST DUP2 MLOAD PUSH8 0xFFFFFFFFFFFFFFFF DUP1 DUP3 GT ISZERO PUSH3 0xAA1 JUMPI PUSH0 DUP1 REVERT JUMPDEST SWAP1 DUP4 ADD SWAP1 PUSH1 0xC0 DUP3 DUP7 SUB SLT ISZERO PUSH3 0xAB5 JUMPI PUSH0 DUP1 REVERT JUMPDEST PUSH3 0xABF PUSH3 0x4EC JUMP JUMPDEST PUSH3 0xACA DUP4 PUSH3 0x985 JUMP JUMPDEST DUP2 MSTORE PUSH1 0x20 DUP4 ADD MLOAD DUP3 DUP2 GT ISZERO PUSH3 0xADE JUMPI PUSH0 DUP1 REVERT JUMPDEST PUSH3 0xAEC DUP8 DUP3 DUP7 ADD PUSH3 0x997 JUMP JUMPDEST PUSH1 0x20 DUP4 ADD MSTORE POP PUSH1 0x40 DUP4 ADD MLOAD DUP3 DUP2 GT ISZERO PUSH3 0xB04 JUMPI PUSH0 DUP1 REVERT JUMPDEST PUSH3 0xB12 DUP8 DUP3 DUP7 ADD PUSH3 0x997 JUMP JUMPDEST PUSH1 0x40 DUP4 ADD MSTORE POP PUSH1 0x60 DUP4 ADD MLOAD DUP3 DUP2 GT ISZERO PUSH3 0xB2A JUMPI PUSH0 DUP1 REVERT JUMPDEST PUSH3 0xB38 DUP8 DUP3 DUP7 ADD PUSH3 0x9E8 JUMP JUMPDEST PUSH1 0x60 DUP4 ADD MSTORE POP PUSH1 0x80 DUP4 ADD MLOAD PUSH1 0x80 DUP3 ADD MSTORE PUSH1 0xA0 DUP4 ADD MLOAD PUSH1 0xA0 DUP3 ADD MSTORE DUP1 SWAP4 POP POP POP POP SWAP3 SWAP2 POP POP JUMP INVALID PUSH1 0xA0 PUSH1 0x40 MSTORE PUSH1 0xA DUP1 SLOAD PUSH1 0x1 PUSH1 0x1 PUSH1 0x40 SHL SUB NOT AND PUSH5 0x1000493E0 OR SWAP1 SSTORE CALLVALUE DUP1 ISZERO PUSH3 0x27 JUMPI PUSH0 DUP1 REVERT JUMPDEST POP PUSH1 0x40 MLOAD PUSH3 0x2DE0 CODESIZE SUB DUP1 PUSH3 0x2DE0 DUP4 CODECOPY DUP2 ADD PUSH1 0x40 DUP2 SWAP1 MSTORE PUSH3 0x4A SWAP2 PUSH3 0x40F JUMP JUMPDEST PUSH1 0x40 DUP1 MLOAD DUP1 DUP3 ADD DUP3 MSTORE PUSH1 0x12 DUP2 MSTORE PUSH18 0x21B7B63632B1BA26B0B9BA32B92A37B5B2B7 PUSH1 0x71 SHL PUSH1 0x20 DUP1 DUP4 ADD SWAP2 SWAP1 SWAP2 MSTORE DUP3 MLOAD DUP1 DUP5 ADD SWAP1 SWAP4 MSTORE PUSH1 0x3 DUP4 MSTORE PUSH3 0x10D355 PUSH1 0xEA SHL SWAP1 DUP4 ADD MSTORE PUSH20 0xDA8C0A00A372503AA6EC80F9B29CC97C454BE499 PUSH1 0x80 MSTORE CALLER SWAP2 PUSH0 PUSH3 0xB4 DUP4 DUP3 PUSH3 0x5D9 JUMP JUMPDEST POP PUSH1 0x1 PUSH3 0xC3 DUP3 DUP3 PUSH3 0x5D9 JUMP JUMPDEST POP POP POP PUSH1 0x1 PUSH1 0x1 PUSH1 0xA0 SHL SUB DUP2 AND PUSH3 0xF4 JUMPI PUSH1 0x40 MLOAD PUSH4 0x1E4FBDF7 PUSH1 0xE0 SHL DUP2 MSTORE PUSH0 PUSH1 0x4 DUP3 ADD MSTORE PUSH1 0x24 ADD PUSH1 0x40 MLOAD DUP1 SWAP2 SUB SWAP1 REVERT JUMPDEST PUSH3 0xFF DUP2 PUSH3 0x203 JUMP JUMPDEST POP PUSH1 0x8 DUP1 SLOAD PUSH1 0x1 PUSH1 0x1 PUSH1 0xE0 SHL SUB NOT AND PUSH21 0x86DA8C0A00A372503AA6EC80F9B29CC97C454BE499 OR SWAP1 SSTORE PUSH32 0xD9AF33106D664A53CB9946DF5CD81A30695F5B72224EE64E798B278AF812779C PUSH1 0x9 SSTORE PUSH1 0xF PUSH3 0x159 DUP8 DUP3 PUSH3 0x5D9 JUMP JUMPDEST POP PUSH1 0x10 PUSH3 0x168 DUP7 DUP3 PUSH3 0x5D9 JUMP JUMPDEST POP DUP4 MLOAD PUSH3 0x17E SWAP1 PUSH1 0x11 SWAP1 PUSH1 0x20 DUP8 ADD SWAP1 PUSH3 0x254 JUMP JUMPDEST POP PUSH1 0x12 DUP4 SWAP1 SSTORE PUSH1 0x13 DUP3 SWAP1 SSTORE PUSH1 0x14 DUP1 SLOAD PUSH1 0x1 PUSH1 0x1 PUSH1 0xA0 SHL SUB NOT AND PUSH1 0x1 PUSH1 0x1 PUSH1 0xA0 SHL SUB DUP4 AND SWAP1 DUP2 OR SWAP1 SWAP2 SSTORE PUSH1 0x40 MLOAD PUSH4 0x62B706EF PUSH1 0xE1 SHL DUP2 MSTORE ADDRESS PUSH1 0x4 DUP3 ADD MSTORE PUSH4 0xC56E0DDE SWAP1 PUSH1 0x24 ADD PUSH0 PUSH1 0x40 MLOAD DUP1 DUP4 SUB DUP2 PUSH0 DUP8 DUP1 EXTCODESIZE ISZERO DUP1 ISZERO PUSH3 0x1DB JUMPI PUSH0 DUP1 REVERT JUMPDEST POP GAS CALL ISZERO DUP1 ISZERO PUSH3 0x1EE JUMPI RETURNDATASIZE PUSH0 DUP1 RETURNDATACOPY RETURNDATASIZE PUSH0 REVERT JUMPDEST POP POP PUSH0 PUSH1 0xB SSTORE POP PUSH3 0x6A5 SWAP7 POP POP POP POP POP POP POP JUMP JUMPDEST PUSH1 0x7 DUP1 SLOAD PUSH1 0x1 PUSH1 0x1 PUSH1 0xA0 SHL SUB DUP4 DUP2 AND PUSH1 0x1 PUSH1 0x1 PUSH1 0xA0 SHL SUB NOT DUP4 AND DUP2 OR SWAP1 SWAP4 SSTORE PUSH1 0x40 MLOAD SWAP2 AND SWAP2 SWAP1 DUP3 SWAP1 PUSH32 0x8BE0079C531659141344CD1FD0A4F28419497F9722A3DAAFE3B4186F6B6457E0 SWAP1 PUSH0 SWAP1 LOG3 POP POP JUMP JUMPDEST DUP3 DUP1 SLOAD DUP3 DUP3 SSTORE SWAP1 PUSH0 MSTORE PUSH1 0x20 PUSH0 KECCAK256 SWAP1 DUP2 ADD SWAP3 DUP3 ISZERO PUSH3 0x29D JUMPI SWAP2 PUSH1 0x20 MUL DUP3 ADD JUMPDEST DUP3 DUP2 GT ISZERO PUSH3 0x29D JUMPI DUP3 MLOAD DUP3 SWAP1 PUSH3 0x28C SWAP1 DUP3 PUSH3 0x5D9 JUMP JUMPDEST POP SWAP2 PUSH1 0x20 ADD SWAP2 SWAP1 PUSH1 0x1 ADD SWAP1 PUSH3 0x273 JUMP JUMPDEST POP PUSH3 0x2AB SWAP3 SWAP2 POP PUSH3 0x2AF JUMP JUMPDEST POP SWAP1 JUMP JUMPDEST DUP1 DUP3 GT ISZERO PUSH3 0x2AB JUMPI PUSH0 PUSH3 0x2C5 DUP3 DUP3 PUSH3 0x2CF JUMP JUMPDEST POP PUSH1 0x1 ADD PUSH3 0x2AF JUMP JUMPDEST POP DUP1 SLOAD PUSH3 0x2DD SWAP1 PUSH3 0x54F JUMP JUMPDEST PUSH0 DUP3 SSTORE DUP1 PUSH1 0x1F LT PUSH3 0x2ED JUMPI POP POP JUMP JUMPDEST PUSH1 0x1F ADD PUSH1 0x20 SWAP1 DIV SWAP1 PUSH0 MSTORE PUSH1 0x20 PUSH0 KECCAK256 SWAP1 DUP2 ADD SWAP1 PUSH3 0x30B SWAP2 SWAP1 PUSH3 0x30E JUMP JUMPDEST POP JUMP JUMPDEST JUMPDEST DUP1 DUP3 GT ISZERO PUSH3 0x2AB JUMPI PUSH0 DUP2 SSTORE PUSH1 0x1 ADD PUSH3 0x30F JUMP JUMPDEST PUSH4 0x4E487B71 PUSH1 0xE0 SHL PUSH0 MSTORE PUSH1 0x41 PUSH1 0x4 MSTORE PUSH1 0x24 PUSH0 REVERT JUMPDEST PUSH1 0x40 MLOAD PUSH1 0x1F DUP3 ADD PUSH1 0x1F NOT AND DUP2 ADD PUSH1 0x1 PUSH1 0x1 PUSH1 0x40 SHL SUB DUP2 GT DUP3 DUP3 LT OR ISZERO PUSH3 0x363 JUMPI PUSH3 0x363 PUSH3 0x324 JUMP JUMPDEST PUSH1 0x40 MSTORE SWAP2 SWAP1 POP JUMP JUMPDEST PUSH0 DUP3 PUSH1 0x1F DUP4 ADD SLT PUSH3 0x37B JUMPI PUSH0 DUP1 REVERT JUMPDEST DUP2 MLOAD PUSH1 0x1 PUSH1 0x1 PUSH1 0x40 SHL SUB DUP2 GT ISZERO PUSH3 0x397 JUMPI PUSH3 0x397 PUSH3 0x324 JUMP JUMPDEST PUSH1 0x20 PUSH3 0x3AD PUSH1 0x1F DUP4 ADD PUSH1 0x1F NOT AND DUP3 ADD PUSH3 0x338 JUMP JUMPDEST DUP3 DUP2 MSTORE DUP6 DUP3 DUP5 DUP8 ADD ADD GT ISZERO PUSH3 0x3C1 JUMPI PUSH0 DUP1 REVERT JUMPDEST PUSH0 JUMPDEST DUP4 DUP2 LT ISZERO PUSH3 0x3E0 JUMPI DUP6 DUP2 ADD DUP4 ADD MLOAD DUP3 DUP3 ADD DUP5 ADD MSTORE DUP3 ADD PUSH3 0x3C3 JUMP JUMPDEST POP PUSH0 SWAP3 DUP2 ADD SWAP1 SWAP2 ADD SWAP2 SWAP1 SWAP2 MSTORE SWAP4 SWAP3 POP POP POP JUMP JUMPDEST DUP1 MLOAD PUSH1 0x1 PUSH1 0x1 PUSH1 0xA0 SHL SUB DUP2 AND DUP2 EQ PUSH3 0x40A JUMPI PUSH0 DUP1 REVERT JUMPDEST SWAP2 SWAP1 POP JUMP JUMPDEST PUSH0 DUP1 PUSH0 DUP1 PUSH0 DUP1 PUSH1 0xC0 DUP8 DUP10 SUB SLT ISZERO PUSH3 0x425 JUMPI PUSH0 DUP1 REVERT JUMPDEST DUP7 MLOAD PUSH1 0x1 PUSH1 0x1 PUSH1 0x40 SHL SUB DUP1 DUP3 GT ISZERO PUSH3 0x43C JUMPI PUSH0 DUP1 REVERT JUMPDEST PUSH3 0x44A DUP11 DUP4 DUP12 ADD PUSH3 0x36B JUMP JUMPDEST SWAP8 POP PUSH1 0x20 DUP10 ADD MLOAD SWAP2 POP DUP1 DUP3 GT ISZERO PUSH3 0x460 JUMPI PUSH0 DUP1 REVERT JUMPDEST PUSH3 0x46E DUP11 DUP4 DUP12 ADD PUSH3 0x36B JUMP JUMPDEST SWAP7 POP PUSH1 0x40 DUP10 ADD MLOAD SWAP2 POP DUP1 DUP3 GT ISZERO PUSH3 0x484 JUMPI PUSH0 DUP1 REVERT JUMPDEST DUP2 DUP10 ADD SWAP2 POP DUP10 PUSH1 0x1F DUP4 ADD SLT PUSH3 0x498 JUMPI PUSH0 DUP1 REVERT JUMPDEST DUP2 MLOAD DUP2 DUP2 GT ISZERO PUSH3 0x4AD JUMPI PUSH3 0x4AD PUSH3 0x324 JUMP JUMPDEST DUP1 PUSH1 0x5 SHL PUSH3 0x4BF PUSH1 0x20 DUP3 ADD PUSH3 0x338 JUMP JUMPDEST SWAP2 DUP3 MSTORE PUSH1 0x20 DUP2 DUP6 ADD DUP2 ADD SWAP3 SWAP1 DUP2 ADD SWAP1 DUP14 DUP5 GT ISZERO PUSH3 0x4DB JUMPI PUSH0 DUP1 REVERT JUMPDEST PUSH1 0x20 DUP7 ADD SWAP3 POP JUMPDEST DUP4 DUP4 LT ISZERO PUSH3 0x51E JUMPI DUP3 MLOAD DUP6 DUP2 GT ISZERO PUSH3 0x4FA JUMPI PUSH0 DUP1 REVERT JUMPDEST PUSH3 0x50B DUP16 PUSH1 0x20 DUP4 DUP11 ADD ADD PUSH3 0x36B JUMP JUMPDEST DUP4 MSTORE POP PUSH1 0x20 SWAP3 DUP4 ADD SWAP3 SWAP1 SWAP2 ADD SWAP1 PUSH3 0x4E2 JUMP JUMPDEST DUP1 SWAP10 POP POP POP POP POP POP POP PUSH1 0x60 DUP8 ADD MLOAD SWAP3 POP PUSH1 0x80 DUP8 ADD MLOAD SWAP2 POP PUSH3 0x543 PUSH1 0xA0 DUP9 ADD PUSH3 0x3F3 JUMP JUMPDEST SWAP1 POP SWAP3 SWAP6 POP SWAP3 SWAP6 POP SWAP3 SWAP6 JUMP JUMPDEST PUSH1 0x1 DUP2 DUP2 SHR SWAP1 DUP3 AND DUP1 PUSH3 0x564 JUMPI PUSH1 0x7F DUP3 AND SWAP2 POP JUMPDEST PUSH1 0x20 DUP3 LT DUP2 SUB PUSH3 0x583 JUMPI PUSH4 0x4E487B71 PUSH1 0xE0 SHL PUSH0 MSTORE PUSH1 0x22 PUSH1 0x4 MSTORE PUSH1 0x24 PUSH0 REVERT JUMPDEST POP SWAP2 SWAP1 POP JUMP JUMPDEST PUSH1 0x1F DUP3 GT ISZERO PUSH3 0x5D4 JUMPI DUP1 PUSH0 MSTORE PUSH1 0x20 PUSH0 KECCAK256 PUSH1 0x1F DUP5 ADD PUSH1 0x5 SHR DUP2 ADD PUSH1 0x20 DUP6 LT ISZERO PUSH3 0x5B0 JUMPI POP DUP1 JUMPDEST PUSH1 0x1F DUP5 ADD PUSH1 0x5 SHR DUP3 ADD SWAP2 POP JUMPDEST DUP2 DUP2 LT ISZERO PUSH3 0x5D1 JUMPI PUSH0 DUP2 SSTORE PUSH1 0x1 ADD PUSH3 0x5BC JUMP JUMPDEST POP POP JUMPDEST POP POP POP JUMP JUMPDEST DUP2 MLOAD PUSH1 0x1 PUSH1 0x1 PUSH1 0x40 SHL SUB DUP2 GT ISZERO PUSH3 0x5F5 JUMPI PUSH3 0x5F5 PUSH3 0x324 JUMP JUMPDEST PUSH3 0x60D DUP2 PUSH3 0x606 DUP5 SLOAD PUSH3 0x54F JUMP JUMPDEST DUP5 PUSH3 0x589 JUMP JUMPDEST PUSH1 0x20 DUP1 PUSH1 0x1F DUP4 GT PUSH1 0x1 DUP2 EQ PUSH3 0x643 JUMPI PUSH0 DUP5 ISZERO PUSH3 0x62B JUMPI POP DUP6 DUP4 ADD MLOAD JUMPDEST PUSH0 NOT PUSH1 0x3 DUP7 SWAP1 SHL SHR NOT AND PUSH1 0x1 DUP6 SWAP1 SHL OR DUP6 SSTORE PUSH3 0x69D JUMP JUMPDEST PUSH0 DUP6 DUP2 MSTORE PUSH1 0x20 DUP2 KECCAK256 PUSH1 0x1F NOT DUP7 AND SWAP2 JUMPDEST DUP3 DUP2 LT ISZERO PUSH3 0x673 JUMPI DUP9 DUP7 ADD MLOAD DUP3 SSTORE SWAP5 DUP5 ADD SWAP5 PUSH1 0x1 SWAP1 SWAP2 ADD SWAP1 DUP5 ADD PUSH3 0x652 JUMP JUMPDEST POP DUP6 DUP3 LT ISZERO PUSH3 0x691 JUMPI DUP8 DUP6 ADD MLOAD PUSH0 NOT PUSH1 0x3 DUP9 SWAP1 SHL PUSH1 0xF8 AND SHR NOT AND DUP2 SSTORE JUMPDEST POP POP PUSH1 0x1 DUP5 PUSH1 0x1 SHL ADD DUP6 SSTORE JUMPDEST POP POP POP POP POP POP JUMP JUMPDEST PUSH1 0x80 MLOAD PUSH2 0x271B PUSH3 0x6C5 PUSH0 CODECOPY PUSH0 DUP2 DUP2 PUSH2 0x841 ADD MSTORE PUSH2 0x883 ADD MSTORE PUSH2 0x271B PUSH0 RETURN INVALID PUSH1 0x80 PUSH1 0x40 MSTORE PUSH1 0x4 CALLDATASIZE LT PUSH2 0x235 JUMPI PUSH0 CALLDATALOAD PUSH1 0xE0 SHR DUP1 PUSH4 0x818E9BE0 GT PUSH2 0x129 JUMPI DUP1 PUSH4 0xC87B56DD GT PUSH2 0xA8 JUMPI DUP1 PUSH4 0xDC2337E2 GT PUSH2 0x6D JUMPI DUP1 PUSH4 0xDC2337E2 EQ PUSH2 0x683 JUMPI DUP1 PUSH4 0xE0C86289 EQ PUSH2 0x698 JUMPI DUP1 PUSH4 0xE985E9C5 EQ PUSH2 0x6AC JUMPI DUP1 PUSH4 0xF2FDE38B EQ PUSH2 0x6CB JUMPI DUP1 PUSH4 0xF3CCAAC0 EQ PUSH2 0x6EA JUMPI PUSH0 DUP1 REVERT JUMPDEST DUP1 PUSH4 0xC87B56DD EQ PUSH2 0x5F1 JUMPI DUP1 PUSH4 0xCB3CBB46 EQ PUSH2 0x610 JUMPI DUP1 PUSH4 0xCC3BBB20 EQ PUSH2 0x62F JUMPI DUP1 PUSH4 0xD4DDCE8A EQ PUSH2 0x637 JUMPI DUP1 PUSH4 0xDB65DBBB EQ PUSH2 0x662 JUMPI PUSH0 DUP1 REVERT JUMPDEST DUP1 PUSH4 0xB43A76F1 GT PUSH2 0xEE JUMPI DUP1 PUSH4 0xB43A76F1 EQ PUSH2 0x553 JUMPI DUP1 PUSH4 0xB88D4FDE EQ PUSH2 0x581 JUMPI DUP1 PUSH4 0xBD81093A EQ PUSH2 0x5A0 JUMPI DUP1 PUSH4 0xC2DB2C42 EQ PUSH2 0x5BF JUMPI DUP1 PUSH4 0xC45A0155 EQ PUSH2 0x5D2 JUMPI PUSH0 DUP1 REVERT JUMPDEST DUP1 PUSH4 0x818E9BE0 EQ PUSH2 0x4CF JUMPI DUP1 PUSH4 0x8DA5CB5B EQ PUSH2 0x4E4 JUMPI DUP1 PUSH4 0x95D89B41 EQ PUSH2 0x501 JUMPI DUP1 PUSH4 0xA22CB465 EQ PUSH2 0x515 JUMPI DUP1 PUSH4 0xAE9D010C EQ PUSH2 0x534 JUMPI PUSH0 DUP1 REVERT JUMPDEST DUP1 PUSH4 0x42842E0E GT PUSH2 0x1B5 JUMPI DUP1 PUSH4 0x6817C76C GT PUSH2 0x17A JUMPI DUP1 PUSH4 0x6817C76C EQ PUSH2 0x447 JUMPI DUP1 PUSH4 0x70A08231 EQ PUSH2 0x45C JUMPI DUP1 PUSH4 0x715018A6 EQ PUSH2 0x47B JUMPI DUP1 PUSH4 0x79B52AF0 EQ PUSH2 0x48F JUMPI DUP1 PUSH4 0x7B9120E8 EQ PUSH2 0x4B0 JUMPI PUSH0 DUP1 REVERT JUMPDEST DUP1 PUSH4 0x42842E0E EQ PUSH2 0x392 JUMPI DUP1 PUSH4 0x4A60F620 EQ PUSH2 0x3B1 JUMPI DUP1 PUSH4 0x57AD8071 EQ PUSH2 0x3D4 JUMPI DUP1 PUSH4 0x6352211E EQ PUSH2 0x3E8 JUMPI DUP1 PUSH4 0x65AF3798 EQ PUSH2 0x407 JUMPI PUSH0 DUP1 REVERT JUMPDEST DUP1 PUSH4 0x1FE543E3 GT PUSH2 0x1FB JUMPI DUP1 PUSH4 0x1FE543E3 EQ PUSH2 0x2F5 JUMPI DUP1 PUSH4 0x22C5DEC7 EQ PUSH2 0x314 JUMPI DUP1 PUSH4 0x23B872DD EQ PUSH2 0x333 JUMPI DUP1 PUSH4 0x293D35E2 EQ PUSH2 0x352 JUMPI DUP1 PUSH4 0x3AFC58A6 EQ PUSH2 0x371 JUMPI PUSH0 DUP1 REVERT JUMPDEST DUP1 PUSH3 0xC0E60A EQ PUSH2 0x240 JUMPI DUP1 PUSH4 0x1FFC9A7 EQ PUSH2 0x24A JUMPI DUP1 PUSH4 0x6FDDE03 EQ PUSH2 0x27E JUMPI DUP1 PUSH4 0x81812FC EQ PUSH2 0x29F JUMPI DUP1 PUSH4 0x95EA7B3 EQ PUSH2 0x2D6 JUMPI PUSH0 DUP1 REVERT JUMPDEST CALLDATASIZE PUSH2 0x23C JUMPI STOP JUMPDEST PUSH0 DUP1 REVERT JUMPDEST PUSH2 0x248 PUSH2 0x6FE JUMP JUMPDEST STOP JUMPDEST CALLVALUE DUP1 ISZERO PUSH2 0x255 JUMPI PUSH0 DUP1 REVERT JUMPDEST POP PUSH2 0x269 PUSH2 0x264 CALLDATASIZE PUSH1 0x4 PUSH2 0x1E55 JUMP JUMPDEST PUSH2 0x747 JUMP JUMPDEST PUSH1 0x40 MLOAD SWAP1 ISZERO ISZERO DUP2 MSTORE PUSH1 0x20 ADD JUMPDEST PUSH1 0x40 MLOAD DUP1 SWAP2 SUB SWAP1 RETURN JUMPDEST CALLVALUE DUP1 ISZERO PUSH2 0x289 JUMPI PUSH0 DUP1 REVERT JUMPDEST POP PUSH2 0x292 PUSH2 0x771 JUMP JUMPDEST PUSH1 0x40 MLOAD PUSH2 0x275 SWAP2 SWAP1 PUSH2 0x1EBD JUMP JUMPDEST CALLVALUE DUP1 ISZERO PUSH2 0x2AA JUMPI PUSH0 DUP1 REVERT JUMPDEST POP PUSH2 0x2BE PUSH2 0x2B9 CALLDATASIZE PUSH1 0x4 PUSH2 0x1ECF JUMP JUMPDEST PUSH2 0x800 JUMP JUMPDEST PUSH1 0x40 MLOAD PUSH1 0x1 PUSH1 0x1 PUSH1 0xA0 SHL SUB SWAP1 SWAP2 AND DUP2 MSTORE PUSH1 0x20 ADD PUSH2 0x275 JUMP JUMPDEST CALLVALUE DUP1 ISZERO PUSH2 0x2E1 JUMPI PUSH0 DUP1 REVERT JUMPDEST POP PUSH2 0x248 PUSH2 0x2F0 CALLDATASIZE PUSH1 0x4 PUSH2 0x1F01 JUMP JUMPDEST PUSH2 0x827 JUMP JUMPDEST CALLVALUE DUP1 ISZERO PUSH2 0x300 JUMPI PUSH0 DUP1 REVERT JUMPDEST POP PUSH2 0x248 PUSH2 0x30F CALLDATASIZE PUSH1 0x4 PUSH2 0x1FBA JUMP JUMPDEST PUSH2 0x836 JUMP JUMPDEST CALLVALUE DUP1 ISZERO PUSH2 0x31F JUMPI PUSH0 DUP1 REVERT JUMPDEST POP PUSH1 0x15 SLOAD PUSH2 0x2BE SWAP1 PUSH1 0x1 PUSH1 0x1 PUSH1 0xA0 SHL SUB AND DUP2 JUMP JUMPDEST CALLVALUE DUP1 ISZERO PUSH2 0x33E JUMPI PUSH0 DUP1 REVERT JUMPDEST POP PUSH2 0x248 PUSH2 0x34D CALLDATASIZE PUSH1 0x4 PUSH2 0x2057 JUMP JUMPDEST PUSH2 0x8BF JUMP JUMPDEST CALLVALUE DUP1 ISZERO PUSH2 0x35D JUMPI PUSH0 DUP1 REVERT JUMPDEST POP PUSH2 0x248 PUSH2 0x36C CALLDATASIZE PUSH1 0x4 PUSH2 0x2090 JUMP JUMPDEST PUSH2 0x948 JUMP JUMPDEST CALLVALUE DUP1 ISZERO PUSH2 0x37C JUMPI PUSH0 DUP1 REVERT JUMPDEST POP PUSH2 0x385 PUSH2 0x97C JUMP JUMPDEST PUSH1 0x40 MLOAD PUSH2 0x275 SWAP2 SWAP1 PUSH2 0x20A9 JUMP JUMPDEST CALLVALUE DUP1 ISZERO PUSH2 0x39D JUMPI PUSH0 DUP1 REVERT JUMPDEST POP PUSH2 0x248 PUSH2 0x3AC CALLDATASIZE PUSH1 0x4 PUSH2 0x2057 JUMP JUMPDEST PUSH2 0xA44 JUMP JUMPDEST CALLVALUE DUP1 ISZERO PUSH2 0x3BC JUMPI PUSH0 DUP1 REVERT JUMPDEST POP PUSH2 0x3C6 PUSH1 0xC SLOAD DUP2 JUMP JUMPDEST PUSH1 0x40 MLOAD SWAP1 DUP2 MSTORE PUSH1 0x20 ADD PUSH2 0x275 JUMP JUMPDEST CALLVALUE DUP1 ISZERO PUSH2 0x3DF JUMPI PUSH0 DUP1 REVERT JUMPDEST POP PUSH2 0x292 PUSH2 0xA63 JUMP JUMPDEST CALLVALUE DUP1 ISZERO PUSH2 0x3F3 JUMPI PUSH0 DUP1 REVERT JUMPDEST POP PUSH2 0x2BE PUSH2 0x402 CALLDATASIZE PUSH1 0x4 PUSH2 0x1ECF JUMP JUMPDEST PUSH2 0xAEF JUMP JUMPDEST CALLVALUE DUP1 ISZERO PUSH2 0x412 JUMPI PUSH0 DUP1 REVERT JUMPDEST POP PUSH2 0x248 PUSH2 0x421 CALLDATASIZE PUSH1 0x4 PUSH2 0x2156 JUMP JUMPDEST PUSH0 SWAP2 DUP3 MSTORE PUSH1 0xD PUSH1 0x20 SWAP1 DUP2 MSTORE PUSH1 0x40 DUP1 DUP5 KECCAK256 DUP1 SLOAD PUSH1 0xFF NOT AND PUSH1 0x1 OR SWAP1 SSTORE PUSH1 0xE SWAP1 SWAP2 MSTORE SWAP1 SWAP2 KECCAK256 SSTORE JUMP JUMPDEST CALLVALUE DUP1 ISZERO PUSH2 0x452 JUMPI PUSH0 DUP1 REVERT JUMPDEST POP PUSH2 0x3C6 PUSH1 0x13 SLOAD DUP2 JUMP JUMPDEST CALLVALUE DUP1 ISZERO PUSH2 0x467 JUMPI PUSH0 DUP1 REVERT JUMPDEST POP PUSH2 0x3C6 PUSH2 0x476 CALLDATASIZE PUSH1 0x4 PUSH2 0x2090 JUMP JUMPDEST PUSH2 0xAF9 JUMP JUMPDEST CALLVALUE DUP1 ISZERO PUSH2 0x486 JUMPI PUSH0 DUP1 REVERT JUMPDEST POP PUSH2 0x248 PUSH2 0xB3E JUMP JUMPDEST CALLVALUE DUP1 ISZERO PUSH2 0x49A JUMPI PUSH0 DUP1 REVERT JUMPDEST POP PUSH2 0x4A3 PUSH2 0xB51 JUMP JUMPDEST PUSH1 0x40 MLOAD PUSH2 0x275 SWAP2 SWAP1 PUSH2 0x2176 JUMP JUMPDEST CALLVALUE DUP1 ISZERO PUSH2 0x4BB JUMPI PUSH0 DUP1 REVERT JUMPDEST POP PUSH2 0x2BE PUSH2 0x4CA CALLDATASIZE PUSH1 0x4 PUSH2 0x1ECF JUMP JUMPDEST PUSH2 0xC96 JUMP JUMPDEST CALLVALUE DUP1 ISZERO PUSH2 0x4DA JUMPI PUSH0 DUP1 REVERT JUMPDEST POP PUSH2 0x3C6 PUSH1 0x12 SLOAD DUP2 JUMP JUMPDEST CALLVALUE DUP1 ISZERO PUSH2 0x4EF JUMPI PUSH0 DUP1 REVERT JUMPDEST POP PUSH1 0x7 SLOAD PUSH1 0x1 PUSH1 0x1 PUSH1 0xA0 SHL SUB AND PUSH2 0x2BE JUMP JUMPDEST CALLVALUE DUP1 ISZERO PUSH2 0x50C JUMPI PUSH0 DUP1 REVERT JUMPDEST POP PUSH2 0x292 PUSH2 0xCC3 JUMP JUMPDEST CALLVALUE DUP1 ISZERO PUSH2 0x520 JUMPI PUSH0 DUP1 REVERT JUMPDEST POP PUSH2 0x248 PUSH2 0x52F CALLDATASIZE PUSH1 0x4 PUSH2 0x21F5 JUMP JUMPDEST PUSH2 0xCD2 JUMP JUMPDEST CALLVALUE DUP1 ISZERO PUSH2 0x53F JUMPI PUSH0 DUP1 REVERT JUMPDEST POP PUSH2 0x4A3 PUSH2 0x54E CALLDATASIZE PUSH1 0x4 PUSH2 0x2090 JUMP JUMPDEST PUSH2 0xCDD JUMP JUMPDEST CALLVALUE DUP1 ISZERO PUSH2 0x55E JUMPI PUSH0 DUP1 REVERT JUMPDEST POP PUSH2 0x269 PUSH2 0x56D CALLDATASIZE PUSH1 0x4 PUSH2 0x1ECF JUMP JUMPDEST PUSH1 0xD PUSH1 0x20 MSTORE PUSH0 SWAP1 DUP2 MSTORE PUSH1 0x40 SWAP1 KECCAK256 SLOAD PUSH1 0xFF AND DUP2 JUMP JUMPDEST CALLVALUE DUP1 ISZERO PUSH2 0x58C JUMPI PUSH0 DUP1 REVERT JUMPDEST POP PUSH2 0x248 PUSH2 0x59B CALLDATASIZE PUSH1 0x4 PUSH2 0x222E JUMP JUMPDEST PUSH2 0xE0C JUMP JUMPDEST CALLVALUE DUP1 ISZERO PUSH2 0x5AB JUMPI PUSH0 DUP1 REVERT JUMPDEST POP PUSH2 0x292 PUSH2 0x5BA CALLDATASIZE PUSH1 0x4 PUSH2 0x1ECF JUMP JUMPDEST PUSH2 0xE23 JUMP JUMPDEST PUSH2 0x248 PUSH2 0x5CD CALLDATASIZE PUSH1 0x4 PUSH2 0x1ECF JUMP JUMPDEST PUSH2 0xE4A JUMP JUMPDEST CALLVALUE DUP1 ISZERO PUSH2 0x5DD JUMPI PUSH0 DUP1 REVERT JUMPDEST POP PUSH1 0x14 SLOAD PUSH2 0x2BE SWAP1 PUSH1 0x1 PUSH1 0x1 PUSH1 0xA0 SHL SUB AND DUP2 JUMP JUMPDEST CALLVALUE DUP1 ISZERO PUSH2 0x5FC JUMPI PUSH0 DUP1 REVERT JUMPDEST POP PUSH2 0x292 PUSH2 0x60B CALLDATASIZE PUSH1 0x4 PUSH2 0x1ECF JUMP JUMPDEST PUSH2 0xEBE JUMP JUMPDEST CALLVALUE DUP1 ISZERO PUSH2 0x61B JUMPI PUSH0 DUP1 REVERT JUMPDEST POP PUSH2 0x248 PUSH2 0x62A CALLDATASIZE PUSH1 0x4 PUSH2 0x22E7 JUMP JUMPDEST PUSH2 0xFC9 JUMP JUMPDEST PUSH2 0x248 PUSH2 0x105A JUMP JUMPDEST CALLVALUE DUP1 ISZERO PUSH2 0x642 JUMPI PUSH0 DUP1 REVERT JUMPDEST POP PUSH2 0x3C6 PUSH2 0x651 CALLDATASIZE PUSH1 0x4 PUSH2 0x1ECF JUMP JUMPDEST PUSH1 0xE PUSH1 0x20 MSTORE PUSH0 SWAP1 DUP2 MSTORE PUSH1 0x40 SWAP1 KECCAK256 SLOAD DUP2 JUMP JUMPDEST CALLVALUE DUP1 ISZERO PUSH2 0x66D JUMPI PUSH0 DUP1 REVERT JUMPDEST POP PUSH2 0x676 PUSH2 0x11A4 JUMP JUMPDEST PUSH1 0x40 MLOAD PUSH2 0x275 SWAP2 SWAP1 PUSH2 0x23BD JUMP JUMPDEST CALLVALUE DUP1 ISZERO PUSH2 0x68E JUMPI PUSH0 DUP1 REVERT JUMPDEST POP PUSH2 0x3C6 PUSH1 0xB SLOAD DUP2 JUMP JUMPDEST CALLVALUE DUP1 ISZERO PUSH2 0x6A3 JUMPI PUSH0 DUP1 REVERT JUMPDEST POP PUSH2 0x3C6 PUSH2 0x13FE JUMP JUMPDEST CALLVALUE DUP1 ISZERO PUSH2 0x6B7 JUMPI PUSH0 DUP1 REVERT JUMPDEST POP PUSH2 0x269 PUSH2 0x6C6 CALLDATASIZE PUSH1 0x4 PUSH2 0x2485 JUMP JUMPDEST PUSH2 0x14A8 JUMP JUMPDEST CALLVALUE DUP1 ISZERO PUSH2 0x6D6 JUMPI PUSH0 DUP1 REVERT JUMPDEST POP PUSH2 0x248 PUSH2 0x6E5 CALLDATASIZE PUSH1 0x4 PUSH2 0x2090 JUMP JUMPDEST PUSH2 0x14D5 JUMP JUMPDEST CALLVALUE DUP1 ISZERO PUSH2 0x6F5 JUMPI PUSH0 DUP1 REVERT JUMPDEST POP PUSH2 0x292 PUSH2 0x150F JUMP JUMPDEST PUSH1 0x15 DUP1 SLOAD PUSH1 0x1 PUSH1 0x1 PUSH1 0xA0 SHL SUB NOT AND CALLER OR SWAP1 SSTORE PUSH1 0x13 SLOAD PUSH1 0x40 MLOAD ADDRESS SWAP2 DUP1 ISZERO PUSH2 0x8FC MUL SWAP2 PUSH0 DUP2 DUP2 DUP2 DUP6 DUP9 DUP9 CALL SWAP4 POP POP POP POP ISZERO DUP1 ISZERO PUSH2 0x73B JUMPI RETURNDATASIZE PUSH0 DUP1 RETURNDATACOPY RETURNDATASIZE PUSH0 REVERT JUMPDEST POP PUSH2 0x744 PUSH2 0x13FE JUMP JUMPDEST POP JUMP JUMPDEST PUSH0 PUSH1 0x1 PUSH1 0x1 PUSH1 0xE0 SHL SUB NOT DUP3 AND PUSH4 0x24832483 PUSH1 0xE1 SHL EQ DUP1 PUSH2 0x76B JUMPI POP PUSH2 0x76B DUP3 PUSH2 0x151C JUMP JUMPDEST SWAP3 SWAP2 POP POP JUMP JUMPDEST PUSH1 0x60 PUSH0 DUP1 SLOAD PUSH2 0x77F SWAP1 PUSH2 0x24B6 JUMP JUMPDEST DUP1 PUSH1 0x1F ADD PUSH1 0x20 DUP1 SWAP2 DIV MUL PUSH1 0x20 ADD PUSH1 0x40 MLOAD SWAP1 DUP2 ADD PUSH1 0x40 MSTORE DUP1 SWAP3 SWAP2 SWAP1 DUP2 DUP2 MSTORE PUSH1 0x20 ADD DUP3 DUP1 SLOAD PUSH2 0x7AB SWAP1 PUSH2 0x24B6 JUMP JUMPDEST DUP1 ISZERO PUSH2 0x7F6 JUMPI DUP1 PUSH1 0x1F LT PUSH2 0x7CD JUMPI PUSH2 0x100 DUP1 DUP4 SLOAD DIV MUL DUP4 MSTORE SWAP2 PUSH1 0x20 ADD SWAP2 PUSH2 0x7F6 JUMP JUMPDEST DUP3 ADD SWAP2 SWAP1 PUSH0 MSTORE PUSH1 0x20 PUSH0 KECCAK256 SWAP1 JUMPDEST DUP2 SLOAD DUP2 MSTORE SWAP1 PUSH1 0x1 ADD SWAP1 PUSH1 0x20 ADD DUP1 DUP4 GT PUSH2 0x7D9 JUMPI DUP3 SWAP1 SUB PUSH1 0x1F AND DUP3 ADD SWAP2 JUMPDEST POP POP POP POP POP SWAP1 POP SWAP1 JUMP JUMPDEST PUSH0 PUSH2 0x80A DUP3 PUSH2 0x156B JUMP JUMPDEST POP PUSH0 DUP3 DUP2 MSTORE PUSH1 0x4 PUSH1 0x20 MSTORE PUSH1 0x40 SWAP1 KECCAK256 SLOAD PUSH1 0x1 PUSH1 0x1 PUSH1 0xA0 SHL SUB AND PUSH2 0x76B JUMP JUMPDEST PUSH2 0x832 DUP3 DUP3 CALLER PUSH2 0x15A3 JUMP JUMPDEST POP POP JUMP JUMPDEST CALLER PUSH1 0x1 PUSH1 0x1 PUSH1 0xA0 SHL SUB PUSH32 0x0 AND EQ PUSH2 0x8B5 JUMPI PUSH1 0x40 MLOAD PUSH4 0x73E64FD PUSH1 0xE2 SHL DUP2 MSTORE CALLER PUSH1 0x4 DUP3 ADD MSTORE PUSH1 0x1 PUSH1 0x1 PUSH1 0xA0 SHL SUB PUSH32 0x0 AND PUSH1 0x24 DUP3 ADD MSTORE PUSH1 0x44 ADD JUMPDEST PUSH1 0x40 MLOAD DUP1 SWAP2 SUB SWAP1 REVERT JUMPDEST PUSH2 0x832 DUP3 DUP3 PUSH2 0x15B0 JUMP JUMPDEST PUSH1 0x1 PUSH1 0x1 PUSH1 0xA0 SHL SUB DUP3 AND PUSH2 0x8E8 JUMPI PUSH1 0x40 MLOAD PUSH4 0x32505749 PUSH1 0xE1 SHL DUP2 MSTORE PUSH0 PUSH1 0x4 DUP3 ADD MSTORE PUSH1 0x24 ADD PUSH2 0x8AC JUMP JUMPDEST PUSH0 PUSH2 0x8F4 DUP4 DUP4 CALLER PUSH2 0x1644 JUMP JUMPDEST SWAP1 POP DUP4 PUSH1 0x1 PUSH1 0x1 PUSH1 0xA0 SHL SUB AND DUP2 PUSH1 0x1 PUSH1 0x1 PUSH1 0xA0 SHL SUB AND EQ PUSH2 0x942 JUMPI PUSH1 0x40 MLOAD PUSH4 0x64283D7B PUSH1 0xE0 SHL DUP2 MSTORE PUSH1 0x1 PUSH1 0x1 PUSH1 0xA0 SHL SUB DUP1 DUP7 AND PUSH1 0x4 DUP4 ADD MSTORE PUSH1 0x24 DUP3 ADD DUP5 SWAP1 MSTORE DUP3 AND PUSH1 0x44 DUP3 ADD MSTORE PUSH1 0x64 ADD PUSH2 0x8AC JUMP JUMPDEST POP POP POP POP JUMP JUMPDEST PUSH1 0x12 SLOAD PUSH1 0x40 MLOAD PUSH1 0x1 PUSH1 0x1 PUSH1 0xA0 SHL SUB DUP4 AND SWAP2 DUP1 ISZERO PUSH2 0x8FC MUL SWAP2 PUSH0 DUP2 DUP2 DUP2 DUP6 DUP9 DUP9 CALL SWAP4 POP POP POP POP ISZERO DUP1 ISZERO PUSH2 0x832 JUMPI RETURNDATASIZE PUSH0 DUP1 RETURNDATACOPY RETURNDATASIZE PUSH0 REVERT JUMPDEST PUSH1 0x60 PUSH1 0x16 DUP1 SLOAD DUP1 PUSH1 0x20 MUL PUSH1 0x20 ADD PUSH1 0x40 MLOAD SWAP1 DUP2 ADD PUSH1 0x40 MSTORE DUP1 SWAP3 SWAP2 SWAP1 DUP2 DUP2 MSTORE PUSH1 0x20 ADD PUSH0 SWAP1 JUMPDEST DUP3 DUP3 LT ISZERO PUSH2 0xA3B JUMPI PUSH0 DUP5 DUP2 MSTORE PUSH1 0x20 SWAP1 DUP2 SWAP1 KECCAK256 PUSH1 0x40 DUP1 MLOAD DUP1 DUP3 ADD DUP3 MSTORE PUSH1 0x2 DUP7 MUL SWAP1 SWAP3 ADD DUP1 SLOAD PUSH1 0x1 PUSH1 0x1 PUSH1 0xA0 SHL SUB AND DUP4 MSTORE PUSH1 0x1 DUP2 ADD DUP1 SLOAD DUP4 MLOAD DUP2 DUP8 MUL DUP2 ADD DUP8 ADD SWAP1 SWAP5 MSTORE DUP1 DUP5 MSTORE SWAP4 SWAP5 SWAP2 SWAP4 DUP6 DUP4 ADD SWAP4 SWAP3 DUP4 ADD DUP3 DUP3 DUP1 ISZERO PUSH2 0xA23 JUMPI PUSH1 0x20 MUL DUP3 ADD SWAP2 SWAP1 PUSH0 MSTORE PUSH1 0x20 PUSH0 KECCAK256 SWAP1 JUMPDEST DUP2 SLOAD PUSH1 0x1 PUSH1 0x1 PUSH1 0xA0 SHL SUB AND DUP2 MSTORE PUSH1 0x1 SWAP1 SWAP2 ADD SWAP1 PUSH1 0x20 ADD DUP1 DUP4 GT PUSH2 0xA05 JUMPI JUMPDEST POP POP POP POP POP DUP2 MSTORE POP POP DUP2 MSTORE PUSH1 0x20 ADD SWAP1 PUSH1 0x1 ADD SWAP1 PUSH2 0x99F JUMP JUMPDEST POP POP POP POP SWAP1 POP SWAP1 JUMP JUMPDEST PUSH2 0xA5E DUP4 DUP4 DUP4 PUSH1 0x40 MLOAD DUP1 PUSH1 0x20 ADD PUSH1 0x40 MSTORE DUP1 PUSH0 DUP2 MSTORE POP PUSH2 0xE0C JUMP JUMPDEST POP POP POP JUMP JUMPDEST PUSH1 0xF DUP1 SLOAD PUSH2 0xA70 SWAP1 PUSH2 0x24B6 JUMP JUMPDEST DUP1 PUSH1 0x1F ADD PUSH1 0x20 DUP1 SWAP2 DIV MUL PUSH1 0x20 ADD PUSH1 0x40 MLOAD SWAP1 DUP2 ADD PUSH1 0x40 MSTORE DUP1 SWAP3 SWAP2 SWAP1 DUP2 DUP2 MSTORE PUSH1 0x20 ADD DUP3 DUP1 SLOAD PUSH2 0xA9C SWAP1 PUSH2 0x24B6 JUMP JUMPDEST DUP1 ISZERO PUSH2 0xAE7 JUMPI DUP1 PUSH1 0x1F LT PUSH2 0xABE JUMPI PUSH2 0x100 DUP1 DUP4 SLOAD DIV MUL DUP4 MSTORE SWAP2 PUSH1 0x20 ADD SWAP2 PUSH2 0xAE7 JUMP JUMPDEST DUP3 ADD SWAP2 SWAP1 PUSH0 MSTORE PUSH1 0x20 PUSH0 KECCAK256 SWAP1 JUMPDEST DUP2 SLOAD DUP2 MSTORE SWAP1 PUSH1 0x1 ADD SWAP1 PUSH1 0x20 ADD DUP1 DUP4 GT PUSH2 0xACA JUMPI DUP3 SWAP1 SUB PUSH1 0x1F AND DUP3 ADD SWAP2 JUMPDEST POP POP POP POP POP DUP2 JUMP JUMPDEST PUSH0 PUSH2 0x76B DUP3 PUSH2 0x156B JUMP JUMPDEST PUSH0 PUSH1 0x1 PUSH1 0x1 PUSH1 0xA0 SHL SUB DUP3 AND PUSH2 0xB23 JUMPI PUSH1 0x40 MLOAD PUSH4 0x22718AD9 PUSH1 0xE2 SHL DUP2 MSTORE PUSH0 PUSH1 0x4 DUP3 ADD MSTORE PUSH1 0x24 ADD PUSH2 0x8AC JUMP JUMPDEST POP PUSH1 0x1 PUSH1 0x1 PUSH1 0xA0 SHL SUB AND PUSH0 SWAP1 DUP2 MSTORE PUSH1 0x3 PUSH1 0x20 MSTORE PUSH1 0x40 SWAP1 KECCAK256 SLOAD SWAP1 JUMP JUMPDEST PUSH2 0xB46 PUSH2 0x1736 JUMP JUMPDEST PUSH2 0xB4F PUSH0 PUSH2 0x1763 JUMP JUMPDEST JUMP JUMPDEST PUSH1 0x60 PUSH0 PUSH1 0xC SLOAD PUSH8 0xFFFFFFFFFFFFFFFF DUP2 GT ISZERO PUSH2 0xB6F JUMPI PUSH2 0xB6F PUSH2 0x1F29 JUMP JUMPDEST PUSH1 0x40 MLOAD SWAP1 DUP1 DUP3 MSTORE DUP1 PUSH1 0x20 MUL PUSH1 0x20 ADD DUP3 ADD PUSH1 0x40 MSTORE DUP1 ISZERO PUSH2 0xBCA JUMPI DUP2 PUSH1 0x20 ADD JUMPDEST PUSH2 0xBB7 PUSH1 0x40 MLOAD DUP1 PUSH1 0x80 ADD PUSH1 0x40 MSTORE DUP1 PUSH0 DUP2 MSTORE PUSH1 0x20 ADD PUSH1 0x60 DUP2 MSTORE PUSH1 0x20 ADD PUSH0 ISZERO ISZERO DUP2 MSTORE PUSH1 0x20 ADD PUSH0 DUP2 MSTORE POP SWAP1 JUMP JUMPDEST DUP2 MSTORE PUSH1 0x20 ADD SWAP1 PUSH1 0x1 SWAP1 SUB SWAP1 DUP2 PUSH2 0xB8D JUMPI SWAP1 POP JUMPDEST POP SWAP1 POP PUSH0 DUP1 JUMPDEST PUSH1 0xC SLOAD DUP2 LT ISZERO PUSH2 0xC8E JUMPI PUSH0 DUP2 DUP2 MSTORE PUSH1 0xD PUSH1 0x20 MSTORE PUSH1 0x40 SWAP1 KECCAK256 SLOAD PUSH1 0xFF AND ISZERO ISZERO PUSH1 0x1 EQ DUP1 ISZERO PUSH2 0xC0D JUMPI POP CALLER PUSH2 0xC01 DUP3 PUSH2 0xAEF JUMP JUMPDEST PUSH1 0x1 PUSH1 0x1 PUSH1 0xA0 SHL SUB AND EQ ISZERO JUMPDEST ISZERO PUSH2 0xC86 JUMPI PUSH1 0x40 MLOAD DUP1 PUSH1 0x80 ADD PUSH1 0x40 MSTORE DUP1 DUP3 DUP2 MSTORE PUSH1 0x20 ADD PUSH2 0xC2C DUP4 PUSH2 0xEBE JUMP JUMPDEST DUP2 MSTORE PUSH0 DUP4 DUP2 MSTORE PUSH1 0xD PUSH1 0x20 SWAP1 DUP2 MSTORE PUSH1 0x40 DUP1 DUP4 KECCAK256 SLOAD PUSH1 0xFF AND ISZERO ISZERO DUP3 DUP6 ADD MSTORE DUP6 DUP4 MSTORE PUSH1 0xE SWAP1 SWAP2 MSTORE SWAP1 DUP2 SWAP1 KECCAK256 SLOAD SWAP2 ADD MSTORE DUP4 MLOAD DUP5 SWAP1 DUP5 SWAP1 DUP2 LT PUSH2 0xC6C JUMPI PUSH2 0xC6C PUSH2 0x24EE JUMP JUMPDEST PUSH1 0x20 MUL PUSH1 0x20 ADD ADD DUP2 SWAP1 MSTORE POP DUP2 DUP1 PUSH2 0xC82 SWAP1 PUSH2 0x2502 JUMP JUMPDEST SWAP3 POP POP JUMPDEST PUSH1 0x1 ADD PUSH2 0xBD0 JUMP JUMPDEST POP DUP2 MSTORE SWAP2 SWAP1 POP JUMP JUMPDEST PUSH1 0x16 DUP2 DUP2 SLOAD DUP2 LT PUSH2 0xCA5 JUMPI PUSH0 DUP1 REVERT JUMPDEST PUSH0 SWAP2 DUP3 MSTORE PUSH1 0x20 SWAP1 SWAP2 KECCAK256 PUSH1 0x2 SWAP1 SWAP2 MUL ADD SLOAD PUSH1 0x1 PUSH1 0x1 PUSH1 0xA0 SHL SUB AND SWAP1 POP DUP2 JUMP JUMPDEST PUSH1 0x60 PUSH1 0x1 DUP1 SLOAD PUSH2 0x77F SWAP1 PUSH2 0x24B6 JUMP JUMPDEST PUSH2 0x832 CALLER DUP4 DUP4 PUSH2 0x17B4 JUMP JUMPDEST PUSH1 0x60 PUSH0 PUSH1 0xC SLOAD PUSH8 0xFFFFFFFFFFFFFFFF DUP2 GT ISZERO PUSH2 0xCFB JUMPI PUSH2 0xCFB PUSH2 0x1F29 JUMP JUMPDEST PUSH1 0x40 MLOAD SWAP1 DUP1 DUP3 MSTORE DUP1 PUSH1 0x20 MUL PUSH1 0x20 ADD DUP3 ADD PUSH1 0x40 MSTORE DUP1 ISZERO PUSH2 0xD56 JUMPI DUP2 PUSH1 0x20 ADD JUMPDEST PUSH2 0xD43 PUSH1 0x40 MLOAD DUP1 PUSH1 0x80 ADD PUSH1 0x40 MSTORE DUP1 PUSH0 DUP2 MSTORE PUSH1 0x20 ADD PUSH1 0x60 DUP2 MSTORE PUSH1 0x20 ADD PUSH0 ISZERO ISZERO DUP2 MSTORE PUSH1 0x20 ADD PUSH0 DUP2 MSTORE POP SWAP1 JUMP JUMPDEST DUP2 MSTORE PUSH1 0x20 ADD SWAP1 PUSH1 0x1 SWAP1 SUB SWAP1 DUP2 PUSH2 0xD19 JUMPI SWAP1 POP JUMPDEST POP SWAP1 POP PUSH0 DUP1 JUMPDEST PUSH1 0xC SLOAD DUP2 LT ISZERO PUSH2 0xE03 JUMPI DUP5 PUSH1 0x1 PUSH1 0x1 PUSH1 0xA0 SHL SUB AND PUSH2 0xD79 DUP3 PUSH2 0xAEF JUMP JUMPDEST PUSH1 0x1 PUSH1 0x1 PUSH1 0xA0 SHL SUB AND SUB PUSH2 0xDFB JUMPI PUSH1 0x40 MLOAD DUP1 PUSH1 0x80 ADD PUSH1 0x40 MSTORE DUP1 DUP3 DUP2 MSTORE PUSH1 0x20 ADD PUSH2 0xDA1 DUP4 PUSH2 0xEBE JUMP JUMPDEST DUP2 MSTORE PUSH0 DUP4 DUP2 MSTORE PUSH1 0xD PUSH1 0x20 SWAP1 DUP2 MSTORE PUSH1 0x40 DUP1 DUP4 KECCAK256 SLOAD PUSH1 0xFF AND ISZERO ISZERO DUP3 DUP6 ADD MSTORE DUP6 DUP4 MSTORE PUSH1 0xE SWAP1 SWAP2 MSTORE SWAP1 DUP2 SWAP1 KECCAK256 SLOAD SWAP2 ADD MSTORE DUP4 MLOAD DUP5 SWAP1 DUP5 SWAP1 DUP2 LT PUSH2 0xDE1 JUMPI PUSH2 0xDE1 PUSH2 0x24EE JUMP JUMPDEST PUSH1 0x20 MUL PUSH1 0x20 ADD ADD DUP2 SWAP1 MSTORE POP DUP2 DUP1 PUSH2 0xDF7 SWAP1 PUSH2 0x2502 JUMP JUMPDEST SWAP3 POP POP JUMPDEST PUSH1 0x1 ADD PUSH2 0xD5C JUMP JUMPDEST POP DUP2 MSTORE SWAP3 SWAP2 POP POP JUMP JUMPDEST PUSH2 0xE17 DUP5 DUP5 DUP5 PUSH2 0x8BF JUMP JUMPDEST PUSH2 0x942 DUP5 DUP5 DUP5 DUP5 PUSH2 0x1852 JUMP JUMPDEST PUSH1 0x11 DUP2 DUP2 SLOAD DUP2 LT PUSH2 0xE32 JUMPI PUSH0 DUP1 REVERT JUMPDEST SWAP1 PUSH0 MSTORE PUSH1 0x20 PUSH0 KECCAK256 ADD PUSH0 SWAP2 POP SWAP1 POP DUP1 SLOAD PUSH2 0xA70 SWAP1 PUSH2 0x24B6 JUMP JUMPDEST PUSH2 0xE53 DUP2 PUSH2 0xAEF JUMP JUMPDEST PUSH0 DUP3 DUP2 MSTORE PUSH1 0xE PUSH1 0x20 MSTORE PUSH1 0x40 DUP1 DUP3 KECCAK256 SLOAD SWAP1 MLOAD PUSH1 0x1 PUSH1 0x1 PUSH1 0xA0 SHL SUB SWAP4 SWAP1 SWAP4 AND SWAP3 DUP2 ISZERO PUSH2 0x8FC MUL SWAP3 DUP2 DUP2 DUP2 DUP6 DUP9 DUP9 CALL SWAP4 POP POP POP POP ISZERO DUP1 ISZERO PUSH2 0xE93 JUMPI RETURNDATASIZE PUSH0 DUP1 RETURNDATACOPY RETURNDATASIZE PUSH0 REVERT JUMPDEST POP PUSH2 0xEA7 CALLER PUSH2 0xEA1 DUP4 PUSH2 0xAEF JUMP JUMPDEST DUP4 PUSH2 0x8BF JUMP JUMPDEST PUSH0 SWAP1 DUP2 MSTORE PUSH1 0xD PUSH1 0x20 MSTORE PUSH1 0x40 SWAP1 KECCAK256 DUP1 SLOAD PUSH1 0xFF NOT AND SWAP1 SSTORE JUMP JUMPDEST PUSH1 0x60 PUSH2 0xEC9 DUP3 PUSH2 0x156B JUMP JUMPDEST POP PUSH0 DUP3 DUP2 MSTORE PUSH1 0x6 PUSH1 0x20 MSTORE PUSH1 0x40 DUP2 KECCAK256 DUP1 SLOAD PUSH2 0xEE2 SWAP1 PUSH2 0x24B6 JUMP JUMPDEST DUP1 PUSH1 0x1F ADD PUSH1 0x20 DUP1 SWAP2 DIV MUL PUSH1 0x20 ADD PUSH1 0x40 MLOAD SWAP1 DUP2 ADD PUSH1 0x40 MSTORE DUP1 SWAP3 SWAP2 SWAP1 DUP2 DUP2 MSTORE PUSH1 0x20 ADD DUP3 DUP1 SLOAD PUSH2 0xF0E SWAP1 PUSH2 0x24B6 JUMP JUMPDEST DUP1 ISZERO PUSH2 0xF59 JUMPI DUP1 PUSH1 0x1F LT PUSH2 0xF30 JUMPI PUSH2 0x100 DUP1 DUP4 SLOAD DIV MUL DUP4 MSTORE SWAP2 PUSH1 0x20 ADD SWAP2 PUSH2 0xF59 JUMP JUMPDEST DUP3 ADD SWAP2 SWAP1 PUSH0 MSTORE PUSH1 0x20 PUSH0 KECCAK256 SWAP1 JUMPDEST DUP2 SLOAD DUP2 MSTORE SWAP1 PUSH1 0x1 ADD SWAP1 PUSH1 0x20 ADD DUP1 DUP4 GT PUSH2 0xF3C JUMPI DUP3 SWAP1 SUB PUSH1 0x1F AND DUP3 ADD SWAP2 JUMPDEST POP POP POP POP POP SWAP1 POP PUSH0 PUSH2 0xF75 PUSH1 0x40 DUP1 MLOAD PUSH1 0x20 DUP2 ADD SWAP1 SWAP2 MSTORE PUSH0 DUP2 MSTORE SWAP1 JUMP JUMPDEST SWAP1 POP DUP1 MLOAD PUSH0 SUB PUSH2 0xF86 JUMPI POP SWAP3 SWAP2 POP POP JUMP JUMPDEST DUP2 MLOAD ISZERO PUSH2 0xFB8 JUMPI DUP1 DUP3 PUSH1 0x40 MLOAD PUSH1 0x20 ADD PUSH2 0xFA0 SWAP3 SWAP2 SWAP1 PUSH2 0x2526 JUMP JUMPDEST PUSH1 0x40 MLOAD PUSH1 0x20 DUP2 DUP4 SUB SUB DUP2 MSTORE SWAP1 PUSH1 0x40 MSTORE SWAP3 POP POP POP SWAP2 SWAP1 POP JUMP JUMPDEST PUSH2 0xFC1 DUP5 PUSH2 0x1978 JUMP JUMPDEST SWAP5 SWAP4 POP POP POP POP JUMP JUMPDEST PUSH1 0x16 DUP1 SLOAD PUSH1 0x1 DUP2 ADD DUP3 SSTORE PUSH0 SWAP2 SWAP1 SWAP2 MSTORE DUP2 MLOAD PUSH32 0xD833147D7DC355BA459FC788F669E58CFAF9DC25DDCD0702E87D69C7B5124289 PUSH1 0x2 SWAP1 SWAP3 MUL SWAP2 DUP3 ADD DUP1 SLOAD PUSH1 0x1 PUSH1 0x1 PUSH1 0xA0 SHL SUB NOT AND PUSH1 0x1 PUSH1 0x1 PUSH1 0xA0 SHL SUB SWAP1 SWAP3 AND SWAP2 SWAP1 SWAP2 OR DUP2 SSTORE PUSH1 0x20 DUP1 DUP5 ADD MLOAD DUP1 MLOAD DUP6 SWAP5 PUSH2 0x942 SWAP4 PUSH32 0xD833147D7DC355BA459FC788F669E58CFAF9DC25DDCD0702E87D69C7B512428A SWAP1 SWAP2 ADD SWAP3 ADD SWAP1 PUSH2 0x1DC9 JUMP JUMPDEST PUSH1 0x15 DUP1 SLOAD PUSH1 0x1 PUSH1 0x1 PUSH1 0xA0 SHL SUB NOT AND CALLER OR SWAP1 SSTORE PUSH1 0x13 SLOAD PUSH1 0x40 MLOAD ADDRESS SWAP2 DUP1 ISZERO PUSH2 0x8FC MUL SWAP2 PUSH0 DUP2 DUP2 DUP2 DUP6 DUP9 DUP9 CALL SWAP4 POP POP POP POP ISZERO DUP1 ISZERO PUSH2 0x1097 JUMPI RETURNDATASIZE PUSH0 DUP1 RETURNDATACOPY RETURNDATASIZE PUSH0 REVERT JUMPDEST POP PUSH0 JUMPDEST PUSH1 0x11 SLOAD DUP2 LT ISZERO PUSH2 0x744 JUMPI PUSH1 0xC DUP1 SLOAD PUSH0 SWAP2 DUP3 PUSH2 0x10B4 DUP4 PUSH2 0x2502 JUMP JUMPDEST SWAP1 SWAP2 SSTORE POP PUSH1 0x15 SLOAD SWAP1 SWAP2 POP PUSH2 0x10D1 SWAP1 PUSH1 0x1 PUSH1 0x1 PUSH1 0xA0 SHL SUB AND DUP3 PUSH2 0x19E9 JUMP JUMPDEST PUSH2 0x117C DUP2 PUSH1 0x11 DUP5 DUP2 SLOAD DUP2 LT PUSH2 0x10E8 JUMPI PUSH2 0x10E8 PUSH2 0x24EE JUMP JUMPDEST SWAP1 PUSH0 MSTORE PUSH1 0x20 PUSH0 KECCAK256 ADD DUP1 SLOAD PUSH2 0x10FB SWAP1 PUSH2 0x24B6 JUMP JUMPDEST DUP1 PUSH1 0x1F ADD PUSH1 0x20 DUP1 SWAP2 DIV MUL PUSH1 0x20 ADD PUSH1 0x40 MLOAD SWAP1 DUP2 ADD PUSH1 0x40 MSTORE DUP1 SWAP3 SWAP2 SWAP1 DUP2 DUP2 MSTORE PUSH1 0x20 ADD DUP3 DUP1 SLOAD PUSH2 0x1127 SWAP1 PUSH2 0x24B6 JUMP JUMPDEST DUP1 ISZERO PUSH2 0x1172 JUMPI DUP1 PUSH1 0x1F LT PUSH2 0x1149 JUMPI PUSH2 0x100 DUP1 DUP4 SLOAD DIV MUL DUP4 MSTORE SWAP2 PUSH1 0x20 ADD SWAP2 PUSH2 0x1172 JUMP JUMPDEST DUP3 ADD SWAP2 SWAP1 PUSH0 MSTORE PUSH1 0x20 PUSH0 KECCAK256 SWAP1 JUMPDEST DUP2 SLOAD DUP2 MSTORE SWAP1 PUSH1 0x1 ADD SWAP1 PUSH1 0x20 ADD DUP1 DUP4 GT PUSH2 0x1155 JUMPI DUP3 SWAP1 SUB PUSH1 0x1F AND DUP3 ADD SWAP2 JUMPDEST POP POP POP POP POP PUSH2 0x1A4A JUMP JUMPDEST PUSH0 SWAP1 DUP2 MSTORE PUSH1 0xD PUSH1 0x20 SWAP1 DUP2 MSTORE PUSH1 0x40 DUP1 DUP4 KECCAK256 DUP1 SLOAD PUSH1 0xFF NOT AND SWAP1 SSTORE PUSH1 0xE SWAP1 SWAP2 MSTORE DUP2 KECCAK256 SSTORE PUSH1 0x1 ADD PUSH2 0x109A JUMP JUMPDEST PUSH2 0x11E3 PUSH1 0x40 MLOAD DUP1 PUSH1 0xC0 ADD PUSH1 0x40 MSTORE DUP1 PUSH0 PUSH1 0x1 PUSH1 0x1 PUSH1 0xA0 SHL SUB AND DUP2 MSTORE PUSH1 0x20 ADD PUSH1 0x60 DUP2 MSTORE PUSH1 0x20 ADD PUSH1 0x60 DUP2 MSTORE PUSH1 0x20 ADD PUSH1 0x60 DUP2 MSTORE PUSH1 0x20 ADD PUSH0 DUP2 MSTORE PUSH1 0x20 ADD PUSH0 DUP2 MSTORE POP SWAP1 JUMP JUMPDEST PUSH1 0x40 MLOAD DUP1 PUSH1 0xC0 ADD PUSH1 0x40 MSTORE DUP1 ADDRESS PUSH1 0x1 PUSH1 0x1 PUSH1 0xA0 SHL SUB AND DUP2 MSTORE PUSH1 0x20 ADD PUSH1 0xF DUP1 SLOAD PUSH2 0x120A SWAP1 PUSH2 0x24B6 JUMP JUMPDEST DUP1 PUSH1 0x1F ADD PUSH1 0x20 DUP1 SWAP2 DIV MUL PUSH1 0x20 ADD PUSH1 0x40 MLOAD SWAP1 DUP2 ADD PUSH1 0x40 MSTORE DUP1 SWAP3 SWAP2 SWAP1 DUP2 DUP2 MSTORE PUSH1 0x20 ADD DUP3 DUP1 SLOAD PUSH2 0x1236 SWAP1 PUSH2 0x24B6 JUMP JUMPDEST DUP1 ISZERO PUSH2 0x1281 JUMPI DUP1 PUSH1 0x1F LT PUSH2 0x1258 JUMPI PUSH2 0x100 DUP1 DUP4 SLOAD DIV MUL DUP4 MSTORE SWAP2 PUSH1 0x20 ADD SWAP2 PUSH2 0x1281 JUMP JUMPDEST DUP3 ADD SWAP2 SWAP1 PUSH0 MSTORE PUSH1 0x20 PUSH0 KECCAK256 SWAP1 JUMPDEST DUP2 SLOAD DUP2 MSTORE SWAP1 PUSH1 0x1 ADD SWAP1 PUSH1 0x20 ADD DUP1 DUP4 GT PUSH2 0x1264 JUMPI DUP3 SWAP1 SUB PUSH1 0x1F AND DUP3 ADD SWAP2 JUMPDEST POP POP POP POP POP DUP2 MSTORE PUSH1 0x20 ADD PUSH1 0x10 DUP1 SLOAD PUSH2 0x1298 SWAP1 PUSH2 0x24B6 JUMP JUMPDEST DUP1 PUSH1 0x1F ADD PUSH1 0x20 DUP1 SWAP2 DIV MUL PUSH1 0x20 ADD PUSH1 0x40 MLOAD SWAP1 DUP2 ADD PUSH1 0x40 MSTORE DUP1 SWAP3 SWAP2 SWAP1 DUP2 DUP2 MSTORE PUSH1 0x20 ADD DUP3 DUP1 SLOAD PUSH2 0x12C4 SWAP1 PUSH2 0x24B6 JUMP JUMPDEST DUP1 ISZERO PUSH2 0x130F JUMPI DUP1 PUSH1 0x1F LT PUSH2 0x12E6 JUMPI PUSH2 0x100 DUP1 DUP4 SLOAD DIV MUL DUP4 MSTORE SWAP2 PUSH1 0x20 ADD SWAP2 PUSH2 0x130F JUMP JUMPDEST DUP3 ADD SWAP2 SWAP1 PUSH0 MSTORE PUSH1 0x20 PUSH0 KECCAK256 SWAP1 JUMPDEST DUP2 SLOAD DUP2 MSTORE SWAP1 PUSH1 0x1 ADD SWAP1 PUSH1 0x20 ADD DUP1 DUP4 GT PUSH2 0x12F2 JUMPI DUP3 SWAP1 SUB PUSH1 0x1F AND DUP3 ADD SWAP2 JUMPDEST POP POP POP POP POP DUP2 MSTORE PUSH1 0x20 ADD PUSH1 0x11 DUP1 SLOAD DUP1 PUSH1 0x20 MUL PUSH1 0x20 ADD PUSH1 0x40 MLOAD SWAP1 DUP2 ADD PUSH1 0x40 MSTORE DUP1 SWAP3 SWAP2 SWAP1 DUP2 DUP2 MSTORE PUSH1 0x20 ADD PUSH0 SWAP1 JUMPDEST DUP3 DUP3 LT ISZERO PUSH2 0x13E2 JUMPI DUP4 DUP3 SWAP1 PUSH0 MSTORE PUSH1 0x20 PUSH0 KECCAK256 ADD DUP1 SLOAD PUSH2 0x1357 SWAP1 PUSH2 0x24B6 JUMP JUMPDEST DUP1 PUSH1 0x1F ADD PUSH1 0x20 DUP1 SWAP2 DIV MUL PUSH1 0x20 ADD PUSH1 0x40 MLOAD SWAP1 DUP2 ADD PUSH1 0x40 MSTORE DUP1 SWAP3 SWAP2 SWAP1 DUP2 DUP2 MSTORE PUSH1 0x20 ADD DUP3 DUP1 SLOAD PUSH2 0x1383 SWAP1 PUSH2 0x24B6 JUMP JUMPDEST DUP1 ISZERO PUSH2 0x13CE JUMPI DUP1 PUSH1 0x1F LT PUSH2 0x13A5 JUMPI PUSH2 0x100 DUP1 DUP4 SLOAD DIV MUL DUP4 MSTORE SWAP2 PUSH1 0x20 ADD SWAP2 PUSH2 0x13CE JUMP JUMPDEST DUP3 ADD SWAP2 SWAP1 PUSH0 MSTORE PUSH1 0x20 PUSH0 KECCAK256 SWAP1 JUMPDEST DUP2 SLOAD DUP2 MSTORE SWAP1 PUSH1 0x1 ADD SWAP1 PUSH1 0x20 ADD DUP1 DUP4 GT PUSH2 0x13B1 JUMPI DUP3 SWAP1 SUB PUSH1 0x1F AND DUP3 ADD SWAP2 JUMPDEST POP POP POP POP POP DUP2 MSTORE PUSH1 0x20 ADD SWAP1 PUSH1 0x1 ADD SWAP1 PUSH2 0x133A JUMP JUMPDEST POP POP POP POP DUP2 MSTORE PUSH1 0x20 ADD PUSH1 0x12 SLOAD DUP2 MSTORE PUSH1 0x20 ADD PUSH1 0x13 SLOAD DUP2 MSTORE POP SWAP1 POP SWAP1 JUMP JUMPDEST PUSH1 0x8 SLOAD PUSH1 0x9 SLOAD PUSH1 0xA SLOAD PUSH1 0x40 MLOAD PUSH4 0x2F34077B PUSH1 0xE0 SHL DUP2 MSTORE PUSH1 0x4 DUP2 ADD SWAP3 SWAP1 SWAP3 MSTORE PUSH1 0x1 PUSH1 0xA0 SHL DUP4 DIV PUSH8 0xFFFFFFFFFFFFFFFF AND PUSH1 0x24 DUP4 ADD MSTORE PUSH4 0xFFFFFFFF DUP1 DUP3 AND PUSH1 0x44 DUP5 ADD MSTORE PUSH5 0x100000000 SWAP1 SWAP2 DIV AND PUSH1 0x64 DUP3 ADD MSTORE PUSH0 SWAP2 PUSH1 0x1 PUSH1 0x1 PUSH1 0xA0 SHL SUB AND SWAP1 PUSH4 0x2F34077B SWAP1 PUSH1 0x84 ADD PUSH1 0x20 PUSH1 0x40 MLOAD DUP1 DUP4 SUB DUP2 PUSH0 DUP8 GAS CALL ISZERO DUP1 ISZERO PUSH2 0x147F JUMPI RETURNDATASIZE PUSH0 DUP1 RETURNDATACOPY RETURNDATASIZE PUSH0 REVERT JUMPDEST POP POP POP POP PUSH1 0x40 MLOAD RETURNDATASIZE PUSH1 0x1F NOT PUSH1 0x1F DUP3 ADD AND DUP3 ADD DUP1 PUSH1 0x40 MSTORE POP DUP2 ADD SWAP1 PUSH2 0x14A3 SWAP2 SWAP1 PUSH2 0x2554 JUMP JUMPDEST SWAP1 POP SWAP1 JUMP JUMPDEST PUSH1 0x1 PUSH1 0x1 PUSH1 0xA0 SHL SUB SWAP2 DUP3 AND PUSH0 SWAP1 DUP2 MSTORE PUSH1 0x5 PUSH1 0x20 SWAP1 DUP2 MSTORE PUSH1 0x40 DUP1 DUP4 KECCAK256 SWAP4 SWAP1 SWAP5 AND DUP3 MSTORE SWAP2 SWAP1 SWAP2 MSTORE KECCAK256 SLOAD PUSH1 0xFF AND SWAP1 JUMP JUMPDEST PUSH2 0x14DD PUSH2 0x1736 JUMP JUMPDEST PUSH1 0x1 PUSH1 0x1 PUSH1 0xA0 SHL SUB DUP2 AND PUSH2 0x1506 JUMPI PUSH1 0x40 MLOAD PUSH4 0x1E4FBDF7 PUSH1 0xE0 SHL DUP2 MSTORE PUSH0 PUSH1 0x4 DUP3 ADD MSTORE PUSH1 0x24 ADD PUSH2 0x8AC JUMP JUMPDEST PUSH2 0x744 DUP2 PUSH2 0x1763 JUMP JUMPDEST PUSH1 0x10 DUP1 SLOAD PUSH2 0xA70 SWAP1 PUSH2 0x24B6 JUMP JUMPDEST PUSH0 PUSH1 0x1 PUSH1 0x1 PUSH1 0xE0 SHL SUB NOT DUP3 AND PUSH4 0x80AC58CD PUSH1 0xE0 SHL EQ DUP1 PUSH2 0x154C JUMPI POP PUSH1 0x1 PUSH1 0x1 PUSH1 0xE0 SHL SUB NOT DUP3 AND PUSH4 0x5B5E139F PUSH1 0xE0 SHL EQ JUMPDEST DUP1 PUSH2 0x76B JUMPI POP PUSH4 0x1FFC9A7 PUSH1 0xE0 SHL PUSH1 0x1 PUSH1 0x1 PUSH1 0xE0 SHL SUB NOT DUP4 AND EQ PUSH2 0x76B JUMP JUMPDEST PUSH0 DUP2 DUP2 MSTORE PUSH1 0x2 PUSH1 0x20 MSTORE PUSH1 0x40 DUP2 KECCAK256 SLOAD PUSH1 0x1 PUSH1 0x1 PUSH1 0xA0 SHL SUB AND DUP1 PUSH2 0x76B JUMPI PUSH1 0x40 MLOAD PUSH4 0x7E273289 PUSH1 0xE0 SHL DUP2 MSTORE PUSH1 0x4 DUP2 ADD DUP5 SWAP1 MSTORE PUSH1 0x24 ADD PUSH2 0x8AC JUMP JUMPDEST PUSH2 0xA5E DUP4 DUP4 DUP4 PUSH1 0x1 PUSH2 0x1A99 JUMP JUMPDEST PUSH1 0x11 SLOAD DUP2 MLOAD DUP3 SWAP1 PUSH0 SWAP1 PUSH2 0x15C5 JUMPI PUSH2 0x15C5 PUSH2 0x24EE JUMP JUMPDEST PUSH1 0x20 MUL PUSH1 0x20 ADD ADD MLOAD PUSH2 0x15D7 SWAP2 SWAP1 PUSH2 0x256B JUMP JUMPDEST PUSH1 0xB SSTORE PUSH1 0xC DUP1 SLOAD PUSH0 SWAP2 DUP3 PUSH2 0x15EA DUP4 PUSH2 0x2502 JUMP JUMPDEST SWAP1 SWAP2 SSTORE POP PUSH1 0x15 SLOAD SWAP1 SWAP2 POP PUSH2 0x1607 SWAP1 PUSH1 0x1 PUSH1 0x1 PUSH1 0xA0 SHL SUB AND DUP3 PUSH2 0x19E9 JUMP JUMPDEST PUSH2 0x1620 DUP2 PUSH1 0x11 PUSH1 0xB SLOAD DUP2 SLOAD DUP2 LT PUSH2 0x10E8 JUMPI PUSH2 0x10E8 PUSH2 0x24EE JUMP JUMPDEST PUSH0 SWAP1 DUP2 MSTORE PUSH1 0xD PUSH1 0x20 SWAP1 DUP2 MSTORE PUSH1 0x40 DUP1 DUP4 KECCAK256 DUP1 SLOAD PUSH1 0xFF NOT AND SWAP1 SSTORE PUSH1 0xE SWAP1 SWAP2 MSTORE DUP2 KECCAK256 SSTORE POP POP JUMP JUMPDEST PUSH0 DUP3 DUP2 MSTORE PUSH1 0x2 PUSH1 0x20 MSTORE PUSH1 0x40 DUP2 KECCAK256 SLOAD PUSH1 0x1 PUSH1 0x1 PUSH1 0xA0 SHL SUB SWAP1 DUP2 AND SWAP1 DUP4 AND ISZERO PUSH2 0x1670 JUMPI PUSH2 0x1670 DUP2 DUP5 DUP7 PUSH2 0x1B9D JUMP JUMPDEST PUSH1 0x1 PUSH1 0x1 PUSH1 0xA0 SHL SUB DUP2 AND ISZERO PUSH2 0x16AA JUMPI PUSH2 0x168B PUSH0 DUP6 PUSH0 DUP1 PUSH2 0x1A99 JUMP JUMPDEST PUSH1 0x1 PUSH1 0x1 PUSH1 0xA0 SHL SUB DUP2 AND PUSH0 SWAP1 DUP2 MSTORE PUSH1 0x3 PUSH1 0x20 MSTORE PUSH1 0x40 SWAP1 KECCAK256 DUP1 SLOAD PUSH0 NOT ADD SWAP1 SSTORE JUMPDEST PUSH1 0x1 PUSH1 0x1 PUSH1 0xA0 SHL SUB DUP6 AND ISZERO PUSH2 0x16D8 JUMPI PUSH1 0x1 PUSH1 0x1 PUSH1 0xA0 SHL SUB DUP6 AND PUSH0 SWAP1 DUP2 MSTORE PUSH1 0x3 PUSH1 0x20 MSTORE PUSH1 0x40 SWAP1 KECCAK256 DUP1 SLOAD PUSH1 0x1 ADD SWAP1 SSTORE JUMPDEST PUSH0 DUP5 DUP2 MSTORE PUSH1 0x2 PUSH1 0x20 MSTORE PUSH1 0x40 DUP1 DUP3 KECCAK256 DUP1 SLOAD PUSH1 0x1 PUSH1 0x1 PUSH1 0xA0 SHL SUB NOT AND PUSH1 0x1 PUSH1 0x1 PUSH1 0xA0 SHL SUB DUP10 DUP2 AND SWAP2 DUP3 OR SWAP1 SWAP3 SSTORE SWAP2 MLOAD DUP8 SWAP4 SWAP2 DUP6 AND SWAP2 PUSH32 0xDDF252AD1BE2C89B69C2B068FC378DAA952BA7F163C4A11628F55A4DF523B3EF SWAP2 LOG4 SWAP5 SWAP4 POP POP POP POP JUMP JUMPDEST PUSH1 0x7 SLOAD PUSH1 0x1 PUSH1 0x1 PUSH1 0xA0 SHL SUB AND CALLER EQ PUSH2 0xB4F JUMPI PUSH1 0x40 MLOAD PUSH4 0x118CDAA7 PUSH1 0xE0 SHL DUP2 MSTORE CALLER PUSH1 0x4 DUP3 ADD MSTORE PUSH1 0x24 ADD PUSH2 0x8AC JUMP JUMPDEST PUSH1 0x7 DUP1 SLOAD PUSH1 0x1 PUSH1 0x1 PUSH1 0xA0 SHL SUB DUP4 DUP2 AND PUSH1 0x1 PUSH1 0x1 PUSH1 0xA0 SHL SUB NOT DUP4 AND DUP2 OR SWAP1 SWAP4 SSTORE PUSH1 0x40 MLOAD SWAP2 AND SWAP2 SWAP1 DUP3 SWAP1 PUSH32 0x8BE0079C531659141344CD1FD0A4F28419497F9722A3DAAFE3B4186F6B6457E0 SWAP1 PUSH0 SWAP1 LOG3 POP POP JUMP JUMPDEST PUSH1 0x1 PUSH1 0x1 PUSH1 0xA0 SHL SUB DUP3 AND PUSH2 0x17E6 JUMPI PUSH1 0x40 MLOAD PUSH4 0xB611743 PUSH1 0xE3 SHL DUP2 MSTORE PUSH1 0x1 PUSH1 0x1 PUSH1 0xA0 SHL SUB DUP4 AND PUSH1 0x4 DUP3 ADD MSTORE PUSH1 0x24 ADD PUSH2 0x8AC JUMP JUMPDEST PUSH1 0x1 PUSH1 0x1 PUSH1 0xA0 SHL SUB DUP4 DUP2 AND PUSH0 DUP2 DUP2 MSTORE PUSH1 0x5 PUSH1 0x20 SWAP1 DUP2 MSTORE PUSH1 0x40 DUP1 DUP4 KECCAK256 SWAP5 DUP8 AND DUP1 DUP5 MSTORE SWAP5 DUP3 MSTORE SWAP2 DUP3 SWAP1 KECCAK256 DUP1 SLOAD PUSH1 0xFF NOT AND DUP7 ISZERO ISZERO SWAP1 DUP2 OR SWAP1 SWAP2 SSTORE SWAP2 MLOAD SWAP2 DUP3 MSTORE PUSH32 0x17307EAB39AB6107E8899845AD3D59BD9653F200F220920489CA2B5937696C31 SWAP2 ADD PUSH1 0x40 MLOAD DUP1 SWAP2 SUB SWAP1 LOG3 POP POP POP JUMP JUMPDEST PUSH1 0x1 PUSH1 0x1 PUSH1 0xA0 SHL SUB DUP4 AND EXTCODESIZE ISZERO PUSH2 0x942 JUMPI PUSH1 0x40 MLOAD PUSH4 0xA85BD01 PUSH1 0xE1 SHL DUP2 MSTORE PUSH1 0x1 PUSH1 0x1 PUSH1 0xA0 SHL SUB DUP5 AND SWAP1 PUSH4 0x150B7A02 SWAP1 PUSH2 0x1894 SWAP1 CALLER SWAP1 DUP9 SWAP1 DUP8 SWAP1 DUP8 SWAP1 PUSH1 0x4 ADD PUSH2 0x258A JUMP JUMPDEST PUSH1 0x20 PUSH1 0x40 MLOAD DUP1 DUP4 SUB DUP2 PUSH0 DUP8 GAS CALL SWAP3 POP POP POP DUP1 ISZERO PUSH2 0x18CE JUMPI POP PUSH1 0x40 DUP1 MLOAD PUSH1 0x1F RETURNDATASIZE SWAP1 DUP2 ADD PUSH1 0x1F NOT AND DUP3 ADD SWAP1 SWAP3 MSTORE PUSH2 0x18CB SWAP2 DUP2 ADD SWAP1 PUSH2 0x25C6 JUMP JUMPDEST PUSH1 0x1 JUMPDEST PUSH2 0x1935 JUMPI RETURNDATASIZE DUP1 DUP1 ISZERO PUSH2 0x18FB JUMPI PUSH1 0x40 MLOAD SWAP2 POP PUSH1 0x1F NOT PUSH1 0x3F RETURNDATASIZE ADD AND DUP3 ADD PUSH1 0x40 MSTORE RETURNDATASIZE DUP3 MSTORE RETURNDATASIZE PUSH0 PUSH1 0x20 DUP5 ADD RETURNDATACOPY PUSH2 0x1900 JUMP JUMPDEST PUSH1 0x60 SWAP2 POP JUMPDEST POP DUP1 MLOAD PUSH0 SUB PUSH2 0x192D JUMPI PUSH1 0x40 MLOAD PUSH4 0x32505749 PUSH1 0xE1 SHL DUP2 MSTORE PUSH1 0x1 PUSH1 0x1 PUSH1 0xA0 SHL SUB DUP6 AND PUSH1 0x4 DUP3 ADD MSTORE PUSH1 0x24 ADD PUSH2 0x8AC JUMP JUMPDEST DUP1 MLOAD DUP2 PUSH1 0x20 ADD REVERT JUMPDEST PUSH1 0x1 PUSH1 0x1 PUSH1 0xE0 SHL SUB NOT DUP2 AND PUSH4 0xA85BD01 PUSH1 0xE1 SHL EQ PUSH2 0x1971 JUMPI PUSH1 0x40 MLOAD PUSH4 0x32505749 PUSH1 0xE1 SHL DUP2 MSTORE PUSH1 0x1 PUSH1 0x1 PUSH1 0xA0 SHL SUB DUP6 AND PUSH1 0x4 DUP3 ADD MSTORE PUSH1 0x24 ADD PUSH2 0x8AC JUMP JUMPDEST POP POP POP POP POP JUMP JUMPDEST PUSH1 0x60 PUSH2 0x1983 DUP3 PUSH2 0x156B JUMP JUMPDEST POP PUSH0 PUSH2 0x1999 PUSH1 0x40 DUP1 MLOAD PUSH1 0x20 DUP2 ADD SWAP1 SWAP2 MSTORE PUSH0 DUP2 MSTORE SWAP1 JUMP JUMPDEST SWAP1 POP PUSH0 DUP2 MLOAD GT PUSH2 0x19B7 JUMPI PUSH1 0x40 MLOAD DUP1 PUSH1 0x20 ADD PUSH1 0x40 MSTORE DUP1 PUSH0 DUP2 MSTORE POP PUSH2 0x19E2 JUMP JUMPDEST DUP1 PUSH2 0x19C1 DUP5 PUSH2 0x1C01 JUMP JUMPDEST PUSH1 0x40 MLOAD PUSH1 0x20 ADD PUSH2 0x19D2 SWAP3 SWAP2 SWAP1 PUSH2 0x2526 JUMP JUMPDEST PUSH1 0x40 MLOAD PUSH1 0x20 DUP2 DUP4 SUB SUB DUP2 MSTORE SWAP1 PUSH1 0x40 MSTORE JUMPDEST SWAP4 SWAP3 POP POP POP JUMP JUMPDEST PUSH1 0x1 PUSH1 0x1 PUSH1 0xA0 SHL SUB DUP3 AND PUSH2 0x1A12 JUMPI PUSH1 0x40 MLOAD PUSH4 0x32505749 PUSH1 0xE1 SHL DUP2 MSTORE PUSH0 PUSH1 0x4 DUP3 ADD MSTORE PUSH1 0x24 ADD PUSH2 0x8AC JUMP JUMPDEST PUSH0 PUSH2 0x1A1E DUP4 DUP4 PUSH0 PUSH2 0x1644 JUMP JUMPDEST SWAP1 POP PUSH1 0x1 PUSH1 0x1 PUSH1 0xA0 SHL SUB DUP2 AND ISZERO PUSH2 0xA5E JUMPI PUSH1 0x40 MLOAD PUSH4 0x39E35637 PUSH1 0xE1 SHL DUP2 MSTORE PUSH0 PUSH1 0x4 DUP3 ADD MSTORE PUSH1 0x24 ADD PUSH2 0x8AC JUMP JUMPDEST PUSH0 DUP3 DUP2 MSTORE PUSH1 0x6 PUSH1 0x20 MSTORE PUSH1 0x40 SWAP1 KECCAK256 PUSH2 0x1A61 DUP3 DUP3 PUSH2 0x2625 JUMP JUMPDEST POP PUSH1 0x40 MLOAD DUP3 DUP2 MSTORE PUSH32 0xF8E1A15ABA9398E019F0B49DF1A4FDE98EE17AE345CB5F6B5E2C27F5033E8CE7 SWAP1 PUSH1 0x20 ADD PUSH1 0x40 MLOAD DUP1 SWAP2 SUB SWAP1 LOG1 POP POP JUMP JUMPDEST DUP1 DUP1 PUSH2 0x1AAD JUMPI POP PUSH1 0x1 PUSH1 0x1 PUSH1 0xA0 SHL SUB DUP3 AND ISZERO ISZERO JUMPDEST ISZERO PUSH2 0x1B6E JUMPI PUSH0 PUSH2 0x1ABC DUP5 PUSH2 0x156B JUMP JUMPDEST SWAP1 POP PUSH1 0x1 PUSH1 0x1 PUSH1 0xA0 SHL SUB DUP4 AND ISZERO DUP1 ISZERO SWAP1 PUSH2 0x1AE8 JUMPI POP DUP3 PUSH1 0x1 PUSH1 0x1 PUSH1 0xA0 SHL SUB AND DUP2 PUSH1 0x1 PUSH1 0x1 PUSH1 0xA0 SHL SUB AND EQ ISZERO JUMPDEST DUP1 ISZERO PUSH2 0x1AFB JUMPI POP PUSH2 0x1AF9 DUP2 DUP5 PUSH2 0x14A8 JUMP JUMPDEST ISZERO JUMPDEST ISZERO PUSH2 0x1B24 JUMPI PUSH1 0x40 MLOAD PUSH4 0xA9FBF51F PUSH1 0xE0 SHL DUP2 MSTORE PUSH1 0x1 PUSH1 0x1 PUSH1 0xA0 SHL SUB DUP5 AND PUSH1 0x4 DUP3 ADD MSTORE PUSH1 0x24 ADD PUSH2 0x8AC JUMP JUMPDEST DUP2 ISZERO PUSH2 0x1B6C JUMPI DUP4 DUP6 PUSH1 0x1 PUSH1 0x1 PUSH1 0xA0 SHL SUB AND DUP3 PUSH1 0x1 PUSH1 0x1 PUSH1 0xA0 SHL SUB AND PUSH32 0x8C5BE1E5EBEC7D5BD14F71427D1E84F3DD0314C0F7B2291E5B200AC8C7C3B925 PUSH1 0x40 MLOAD PUSH1 0x40 MLOAD DUP1 SWAP2 SUB SWAP1 LOG4 JUMPDEST POP JUMPDEST POP POP PUSH0 SWAP1 DUP2 MSTORE PUSH1 0x4 PUSH1 0x20 MSTORE PUSH1 0x40 SWAP1 KECCAK256 DUP1 SLOAD PUSH1 0x1 PUSH1 0x1 PUSH1 0xA0 SHL SUB NOT AND PUSH1 0x1 PUSH1 0x1 PUSH1 0xA0 SHL SUB SWAP3 SWAP1 SWAP3 AND SWAP2 SWAP1 SWAP2 OR SWAP1 SSTORE JUMP JUMPDEST PUSH2 0x1BA8 DUP4 DUP4 DUP4 PUSH2 0x1C91 JUMP JUMPDEST PUSH2 0xA5E JUMPI PUSH1 0x1 PUSH1 0x1 PUSH1 0xA0 SHL SUB DUP4 AND PUSH2 0x1BD6 JUMPI PUSH1 0x40 MLOAD PUSH4 0x7E273289 PUSH1 0xE0 SHL DUP2 MSTORE PUSH1 0x4 DUP2 ADD DUP3 SWAP1 MSTORE PUSH1 0x24 ADD PUSH2 0x8AC JUMP JUMPDEST PUSH1 0x40 MLOAD PUSH4 0x177E802F PUSH1 0xE0 SHL DUP2 MSTORE PUSH1 0x1 PUSH1 0x1 PUSH1 0xA0 SHL SUB DUP4 AND PUSH1 0x4 DUP3 ADD MSTORE PUSH1 0x24 DUP2 ADD DUP3 SWAP1 MSTORE PUSH1 0x44 ADD PUSH2 0x8AC JUMP JUMPDEST PUSH1 0x60 PUSH0 PUSH2 0x1C0D DUP4 PUSH2 0x1CF2 JUMP JUMPDEST PUSH1 0x1 ADD SWAP1 POP PUSH0 DUP2 PUSH8 0xFFFFFFFFFFFFFFFF DUP2 GT ISZERO PUSH2 0x1C2C JUMPI PUSH2 0x1C2C PUSH2 0x1F29 JUMP JUMPDEST PUSH1 0x40 MLOAD SWAP1 DUP1 DUP3 MSTORE DUP1 PUSH1 0x1F ADD PUSH1 0x1F NOT AND PUSH1 0x20 ADD DUP3 ADD PUSH1 0x40 MSTORE DUP1 ISZERO PUSH2 0x1C56 JUMPI PUSH1 0x20 DUP3 ADD DUP2 DUP1 CALLDATASIZE DUP4 CALLDATACOPY ADD SWAP1 POP JUMPDEST POP SWAP1 POP DUP2 DUP2 ADD PUSH1 0x20 ADD JUMPDEST PUSH0 NOT ADD PUSH16 0x181899199A1A9B1B9C1CB0B131B232B3 PUSH1 0x81 SHL PUSH1 0xA DUP7 MOD BYTE DUP2 MSTORE8 PUSH1 0xA DUP6 DIV SWAP5 POP DUP5 PUSH2 0x1C60 JUMPI POP SWAP4 SWAP3 POP POP POP JUMP JUMPDEST PUSH0 PUSH1 0x1 PUSH1 0x1 PUSH1 0xA0 SHL SUB DUP4 AND ISZERO DUP1 ISZERO SWAP1 PUSH2 0xFC1 JUMPI POP DUP3 PUSH1 0x1 PUSH1 0x1 PUSH1 0xA0 SHL SUB AND DUP5 PUSH1 0x1 PUSH1 0x1 PUSH1 0xA0 SHL SUB AND EQ DUP1 PUSH2 0x1CCA JUMPI POP PUSH2 0x1CCA DUP5 DUP5 PUSH2 0x14A8 JUMP JUMPDEST DUP1 PUSH2 0xFC1 JUMPI POP POP PUSH0 SWAP1 DUP2 MSTORE PUSH1 0x4 PUSH1 0x20 MSTORE PUSH1 0x40 SWAP1 KECCAK256 SLOAD PUSH1 0x1 PUSH1 0x1 PUSH1 0xA0 SHL SUB SWAP1 DUP2 AND SWAP2 AND EQ SWAP2 SWAP1 POP JUMP JUMPDEST PUSH0 DUP1 PUSH19 0x184F03E93FF9F4DAA797ED6E38ED64BF6A1F01 PUSH1 0x40 SHL DUP4 LT PUSH2 0x1D30 JUMPI PUSH19 0x184F03E93FF9F4DAA797ED6E38ED64BF6A1F01 PUSH1 0x40 SHL DUP4 DIV SWAP3 POP PUSH1 0x40 ADD JUMPDEST PUSH14 0x4EE2D6D415B85ACEF8100000000 DUP4 LT PUSH2 0x1D5C JUMPI PUSH14 0x4EE2D6D415B85ACEF8100000000 DUP4 DIV SWAP3 POP PUSH1 0x20 ADD JUMPDEST PUSH7 0x2386F26FC10000 DUP4 LT PUSH2 0x1D7A JUMPI PUSH7 0x2386F26FC10000 DUP4 DIV SWAP3 POP PUSH1 0x10 ADD JUMPDEST PUSH4 0x5F5E100 DUP4 LT PUSH2 0x1D92 JUMPI PUSH4 0x5F5E100 DUP4 DIV SWAP3 POP PUSH1 0x8 ADD JUMPDEST PUSH2 0x2710 DUP4 LT PUSH2 0x1DA6 JUMPI PUSH2 0x2710 DUP4 DIV SWAP3 POP PUSH1 0x4 ADD JUMPDEST PUSH1 0x64 DUP4 LT PUSH2 0x1DB8 JUMPI PUSH1 0x64 DUP4 DIV SWAP3 POP PUSH1 0x2 ADD JUMPDEST PUSH1 0xA DUP4 LT PUSH2 0x76B JUMPI PUSH1 0x1 ADD SWAP3 SWAP2 POP POP JUMP JUMPDEST DUP3 DUP1 SLOAD DUP3 DUP3 SSTORE SWAP1 PUSH0 MSTORE PUSH1 0x20 PUSH0 KECCAK256 SWAP1 DUP2 ADD SWAP3 DUP3 ISZERO PUSH2 0x1E1C JUMPI SWAP2 PUSH1 0x20 MUL DUP3 ADD JUMPDEST DUP3 DUP2 GT ISZERO PUSH2 0x1E1C JUMPI DUP3 MLOAD DUP3 SLOAD PUSH1 0x1 PUSH1 0x1 PUSH1 0xA0 SHL SUB NOT AND PUSH1 0x1 PUSH1 0x1 PUSH1 0xA0 SHL SUB SWAP1 SWAP2 AND OR DUP3 SSTORE PUSH1 0x20 SWAP1 SWAP3 ADD SWAP2 PUSH1 0x1 SWAP1 SWAP2 ADD SWAP1 PUSH2 0x1DE7 JUMP JUMPDEST POP PUSH2 0x1E28 SWAP3 SWAP2 POP PUSH2 0x1E2C JUMP JUMPDEST POP SWAP1 JUMP JUMPDEST JUMPDEST DUP1 DUP3 GT ISZERO PUSH2 0x1E28 JUMPI PUSH0 DUP2 SSTORE PUSH1 0x1 ADD PUSH2 0x1E2D JUMP JUMPDEST PUSH1 0x1 PUSH1 0x1 PUSH1 0xE0 SHL SUB NOT DUP2 AND DUP2 EQ PUSH2 0x744 JUMPI PUSH0 DUP1 REVERT JUMPDEST PUSH0 PUSH1 0x20 DUP3 DUP5 SUB SLT ISZERO PUSH2 0x1E65 JUMPI PUSH0 DUP1 REVERT JUMPDEST DUP2 CALLDATALOAD PUSH2 0x19E2 DUP2 PUSH2 0x1E40 JUMP JUMPDEST PUSH0 JUMPDEST DUP4 DUP2 LT ISZERO PUSH2 0x1E8A JUMPI DUP2 DUP2 ADD MLOAD DUP4 DUP3 ADD MSTORE PUSH1 0x20 ADD PUSH2 0x1E72 JUMP JUMPDEST POP POP PUSH0 SWAP2 ADD MSTORE JUMP JUMPDEST PUSH0 DUP2 MLOAD DUP1 DUP5 MSTORE PUSH2 0x1EA9 DUP2 PUSH1 0x20 DUP7 ADD PUSH1 0x20 DUP7 ADD PUSH2 0x1E70 JUMP JUMPDEST PUSH1 0x1F ADD PUSH1 0x1F NOT AND SWAP3 SWAP1 SWAP3 ADD PUSH1 0x20 ADD SWAP3 SWAP2 POP POP JUMP JUMPDEST PUSH1 0x20 DUP2 MSTORE PUSH0 PUSH2 0x19E2 PUSH1 0x20 DUP4 ADD DUP5 PUSH2 0x1E92 JUMP JUMPDEST PUSH0 PUSH1 0x20 DUP3 DUP5 SUB SLT ISZERO PUSH2 0x1EDF JUMPI PUSH0 DUP1 REVERT JUMPDEST POP CALLDATALOAD SWAP2 SWAP1 POP JUMP JUMPDEST DUP1 CALLDATALOAD PUSH1 0x1 PUSH1 0x1 PUSH1 0xA0 SHL SUB DUP2 AND DUP2 EQ PUSH2 0x1EFC JUMPI PUSH0 DUP1 REVERT JUMPDEST SWAP2 SWAP1 POP JUMP JUMPDEST PUSH0 DUP1 PUSH1 0x40 DUP4 DUP6 SUB SLT ISZERO PUSH2 0x1F12 JUMPI PUSH0 DUP1 REVERT JUMPDEST PUSH2 0x1F1B DUP4 PUSH2 0x1EE6 JUMP JUMPDEST SWAP5 PUSH1 0x20 SWAP4 SWAP1 SWAP4 ADD CALLDATALOAD SWAP4 POP POP POP JUMP JUMPDEST PUSH4 0x4E487B71 PUSH1 0xE0 SHL PUSH0 MSTORE PUSH1 0x41 PUSH1 0x4 MSTORE PUSH1 0x24 PUSH0 REVERT JUMPDEST PUSH1 0x40 DUP1 MLOAD SWAP1 DUP2 ADD PUSH8 0xFFFFFFFFFFFFFFFF DUP2 GT DUP3 DUP3 LT OR ISZERO PUSH2 0x1F60 JUMPI PUSH2 0x1F60 PUSH2 0x1F29 JUMP JUMPDEST PUSH1 0x40 MSTORE SWAP1 JUMP JUMPDEST PUSH1 0x40 MLOAD PUSH1 0x1F DUP3 ADD PUSH1 0x1F NOT AND DUP2 ADD PUSH8 0xFFFFFFFFFFFFFFFF DUP2 GT DUP3 DUP3 LT OR ISZERO PUSH2 0x1F8F JUMPI PUSH2 0x1F8F PUSH2 0x1F29 JUMP JUMPDEST PUSH1 0x40 MSTORE SWAP2 SWAP1 POP JUMP JUMPDEST PUSH0 PUSH8 0xFFFFFFFFFFFFFFFF DUP3 GT ISZERO PUSH2 0x1FB0 JUMPI PUSH2 0x1FB0 PUSH2 0x1F29 JUMP JUMPDEST POP PUSH1 0x5 SHL PUSH1 0x20 ADD SWAP1 JUMP JUMPDEST PUSH0 DUP1 PUSH1 0x40 DUP4 DUP6 SUB SLT ISZERO PUSH2 0x1FCB JUMPI PUSH0 DUP1 REVERT JUMPDEST DUP3 CALLDATALOAD SWAP2 POP PUSH1 0x20 DUP1 DUP5 ADD CALLDATALOAD PUSH8 0xFFFFFFFFFFFFFFFF DUP2 GT ISZERO PUSH2 0x1FE9 JUMPI PUSH0 DUP1 REVERT JUMPDEST DUP5 ADD PUSH1 0x1F DUP2 ADD DUP7 SGT PUSH2 0x1FF9 JUMPI PUSH0 DUP1 REVERT JUMPDEST DUP1 CALLDATALOAD PUSH2 0x200C PUSH2 0x2007 DUP3 PUSH2 0x1F97 JUMP JUMPDEST PUSH2 0x1F66 JUMP JUMPDEST DUP2 DUP2 MSTORE PUSH1 0x5 SWAP2 SWAP1 SWAP2 SHL DUP3 ADD DUP4 ADD SWAP1 DUP4 DUP2 ADD SWAP1 DUP9 DUP4 GT ISZERO PUSH2 0x202A JUMPI PUSH0 DUP1 REVERT JUMPDEST SWAP3 DUP5 ADD SWAP3 JUMPDEST DUP3 DUP5 LT ISZERO PUSH2 0x2048 JUMPI DUP4 CALLDATALOAD DUP3 MSTORE SWAP3 DUP5 ADD SWAP3 SWAP1 DUP5 ADD SWAP1 PUSH2 0x202F JUMP JUMPDEST DUP1 SWAP6 POP POP POP POP POP POP SWAP3 POP SWAP3 SWAP1 POP JUMP JUMPDEST PUSH0 DUP1 PUSH0 PUSH1 0x60 DUP5 DUP7 SUB SLT ISZERO PUSH2 0x2069 JUMPI PUSH0 DUP1 REVERT JUMPDEST PUSH2 0x2072 DUP5 PUSH2 0x1EE6 JUMP JUMPDEST SWAP3 POP PUSH2 0x2080 PUSH1 0x20 DUP6 ADD PUSH2 0x1EE6 JUMP JUMPDEST SWAP2 POP PUSH1 0x40 DUP5 ADD CALLDATALOAD SWAP1 POP SWAP3 POP SWAP3 POP SWAP3 JUMP JUMPDEST PUSH0 PUSH1 0x20 DUP3 DUP5 SUB SLT ISZERO PUSH2 0x20A0 JUMPI PUSH0 DUP1 REVERT JUMPDEST PUSH2 0x19E2 DUP3 PUSH2 0x1EE6 JUMP JUMPDEST PUSH0 PUSH1 0x20 DUP1 DUP4 ADD DUP2 DUP5 MSTORE DUP1 DUP6 MLOAD DUP1 DUP4 MSTORE PUSH1 0x40 SWAP3 POP PUSH1 0x40 DUP7 ADD SWAP2 POP PUSH1 0x40 DUP2 PUSH1 0x5 SHL DUP8 ADD ADD DUP5 DUP9 ADD PUSH0 JUMPDEST DUP4 DUP2 LT ISZERO PUSH2 0x2148 JUMPI DUP9 DUP4 SUB PUSH1 0x3F NOT ADD DUP6 MSTORE DUP2 MLOAD DUP1 MLOAD PUSH1 0x1 PUSH1 0x1 PUSH1 0xA0 SHL SUB SWAP1 DUP2 AND DUP6 MSTORE SWAP1 DUP9 ADD MLOAD DUP9 DUP6 ADD DUP9 SWAP1 MSTORE DUP1 MLOAD DUP9 DUP7 ADD DUP2 SWAP1 MSTORE SWAP1 DUP10 ADD SWAP2 PUSH0 SWAP2 PUSH1 0x60 DUP8 ADD SWAP1 JUMPDEST DUP1 DUP5 LT ISZERO PUSH2 0x2132 JUMPI DUP5 MLOAD DUP4 AND DUP3 MSTORE SWAP4 DUP12 ADD SWAP4 PUSH1 0x1 SWAP4 SWAP1 SWAP4 ADD SWAP3 SWAP1 DUP12 ADD SWAP1 PUSH2 0x2110 JUMP JUMPDEST POP SWAP8 DUP11 ADD SWAP8 SWAP6 POP POP POP SWAP2 DUP8 ADD SWAP2 POP PUSH1 0x1 ADD PUSH2 0x20D0 JUMP JUMPDEST POP SWAP1 SWAP9 SWAP8 POP POP POP POP POP POP POP POP JUMP JUMPDEST PUSH0 DUP1 PUSH1 0x40 DUP4 DUP6 SUB SLT ISZERO PUSH2 0x2167 JUMPI PUSH0 DUP1 REVERT JUMPDEST POP POP DUP1 CALLDATALOAD SWAP3 PUSH1 0x20 SWAP1 SWAP2 ADD CALLDATALOAD SWAP2 POP JUMP JUMPDEST PUSH0 PUSH1 0x20 DUP1 DUP4 ADD DUP2 DUP5 MSTORE DUP1 DUP6 MLOAD DUP1 DUP4 MSTORE PUSH1 0x40 SWAP3 POP PUSH1 0x40 DUP7 ADD SWAP2 POP PUSH1 0x40 DUP2 PUSH1 0x5 SHL DUP8 ADD ADD DUP5 DUP9 ADD PUSH0 JUMPDEST DUP4 DUP2 LT ISZERO PUSH2 0x2148 JUMPI PUSH1 0x3F NOT DUP10 DUP5 SUB ADD DUP6 MSTORE DUP2 MLOAD PUSH1 0x80 DUP2 MLOAD DUP6 MSTORE DUP9 DUP3 ADD MLOAD DUP2 DUP11 DUP8 ADD MSTORE PUSH2 0x21CB DUP3 DUP8 ADD DUP3 PUSH2 0x1E92 JUMP JUMPDEST DUP4 DUP11 ADD MLOAD ISZERO ISZERO DUP8 DUP12 ADD MSTORE PUSH1 0x60 SWAP4 DUP5 ADD MLOAD SWAP4 SWAP1 SWAP7 ADD SWAP3 SWAP1 SWAP3 MSTORE POP POP SWAP4 DUP7 ADD SWAP4 SWAP1 DUP7 ADD SWAP1 PUSH1 0x1 ADD PUSH2 0x219D JUMP JUMPDEST PUSH0 DUP1 PUSH1 0x40 DUP4 DUP6 SUB SLT ISZERO PUSH2 0x2206 JUMPI PUSH0 DUP1 REVERT JUMPDEST PUSH2 0x220F DUP4 PUSH2 0x1EE6 JUMP JUMPDEST SWAP2 POP PUSH1 0x20 DUP4 ADD CALLDATALOAD DUP1 ISZERO ISZERO DUP2 EQ PUSH2 0x2223 JUMPI PUSH0 DUP1 REVERT JUMPDEST DUP1 SWAP2 POP POP SWAP3 POP SWAP3 SWAP1 POP JUMP JUMPDEST PUSH0 DUP1 PUSH0 DUP1 PUSH1 0x80 DUP6 DUP8 SUB SLT ISZERO PUSH2 0x2241 JUMPI PUSH0 DUP1 REVERT JUMPDEST PUSH2 0x224A DUP6 PUSH2 0x1EE6 JUMP JUMPDEST SWAP4 POP PUSH1 0x20 PUSH2 0x2259 DUP2 DUP8 ADD PUSH2 0x1EE6 JUMP JUMPDEST SWAP4 POP PUSH1 0x40 DUP7 ADD CALLDATALOAD SWAP3 POP PUSH1 0x60 DUP7 ADD CALLDATALOAD PUSH8 0xFFFFFFFFFFFFFFFF DUP1 DUP3 GT ISZERO PUSH2 0x227C JUMPI PUSH0 DUP1 REVERT JUMPDEST DUP2 DUP9 ADD SWAP2 POP DUP9 PUSH1 0x1F DUP4 ADD SLT PUSH2 0x228F JUMPI PUSH0 DUP1 REVERT JUMPDEST DUP2 CALLDATALOAD DUP2 DUP2 GT ISZERO PUSH2 0x22A1 JUMPI PUSH2 0x22A1 PUSH2 0x1F29 JUMP JUMPDEST PUSH2 0x22B3 PUSH1 0x1F DUP3 ADD PUSH1 0x1F NOT AND DUP6 ADD PUSH2 0x1F66 JUMP JUMPDEST SWAP2 POP DUP1 DUP3 MSTORE DUP10 DUP5 DUP3 DUP6 ADD ADD GT ISZERO PUSH2 0x22C8 JUMPI PUSH0 DUP1 REVERT JUMPDEST DUP1 DUP5 DUP5 ADD DUP6 DUP5 ADD CALLDATACOPY PUSH0 DUP5 DUP3 DUP5 ADD ADD MSTORE POP DUP1 SWAP4 POP POP POP POP SWAP3 SWAP6 SWAP2 SWAP5 POP SWAP3 POP JUMP JUMPDEST PUSH0 PUSH1 0x20 DUP1 DUP4 DUP6 SUB SLT ISZERO PUSH2 0x22F8 JUMPI PUSH0 DUP1 REVERT JUMPDEST DUP3 CALLDATALOAD PUSH8 0xFFFFFFFFFFFFFFFF DUP1 DUP3 GT ISZERO PUSH2 0x230F JUMPI PUSH0 DUP1 REVERT JUMPDEST SWAP1 DUP5 ADD SWAP1 PUSH1 0x40 DUP3 DUP8 SUB SLT ISZERO PUSH2 0x2322 JUMPI PUSH0 DUP1 REVERT JUMPDEST PUSH2 0x232A PUSH2 0x1F3D JUMP JUMPDEST PUSH2 0x2333 DUP4 PUSH2 0x1EE6 JUMP JUMPDEST DUP2 MSTORE DUP4 DUP4 ADD CALLDATALOAD DUP3 DUP2 GT ISZERO PUSH2 0x2345 JUMPI PUSH0 DUP1 REVERT JUMPDEST DUP1 DUP5 ADD SWAP4 POP POP DUP7 PUSH1 0x1F DUP5 ADD SLT PUSH2 0x2359 JUMPI PUSH0 DUP1 REVERT JUMPDEST DUP3 CALLDATALOAD SWAP2 POP PUSH2 0x2369 PUSH2 0x2007 DUP4 PUSH2 0x1F97 JUMP JUMPDEST DUP3 DUP2 MSTORE PUSH1 0x5 SWAP3 SWAP1 SWAP3 SHL DUP4 ADD DUP5 ADD SWAP2 DUP5 DUP2 ADD SWAP1 DUP9 DUP5 GT ISZERO PUSH2 0x2387 JUMPI PUSH0 DUP1 REVERT JUMPDEST SWAP4 DUP6 ADD SWAP4 JUMPDEST DUP4 DUP6 LT ISZERO PUSH2 0x23AC JUMPI PUSH2 0x239D DUP6 PUSH2 0x1EE6 JUMP JUMPDEST DUP3 MSTORE SWAP4 DUP6 ADD SWAP4 SWAP1 DUP6 ADD SWAP1 PUSH2 0x238C JUMP JUMPDEST SWAP5 DUP3 ADD SWAP5 SWAP1 SWAP5 MSTORE SWAP7 SWAP6 POP POP POP POP POP POP JUMP JUMPDEST PUSH1 0x20 DUP1 DUP3 MSTORE DUP3 MLOAD PUSH1 0x1 PUSH1 0x1 PUSH1 0xA0 SHL SUB AND DUP3 DUP3 ADD MSTORE DUP3 DUP2 ADD MLOAD PUSH1 0xC0 PUSH1 0x40 DUP5 ADD MSTORE PUSH0 SWAP2 SWAP1 PUSH2 0x23EC PUSH1 0xE0 DUP6 ADD DUP3 PUSH2 0x1E92 JUMP JUMPDEST SWAP1 POP PUSH1 0x40 DUP6 ADD MLOAD PUSH1 0x1F NOT DUP1 DUP7 DUP5 SUB ADD PUSH1 0x60 DUP8 ADD MSTORE PUSH2 0x240A DUP4 DUP4 PUSH2 0x1E92 JUMP JUMPDEST PUSH1 0x60 DUP9 ADD MLOAD DUP8 DUP3 SUB DUP4 ADD PUSH1 0x80 DUP10 ADD MSTORE DUP1 MLOAD DUP1 DUP4 MSTORE SWAP2 SWAP5 POP DUP6 ADD SWAP3 POP DUP5 DUP5 ADD SWAP1 PUSH1 0x5 DUP2 SWAP1 SHL DUP6 ADD DUP7 ADD PUSH0 JUMPDEST DUP3 DUP2 LT ISZERO PUSH2 0x2460 JUMPI DUP5 DUP8 DUP4 SUB ADD DUP5 MSTORE PUSH2 0x244E DUP3 DUP8 MLOAD PUSH2 0x1E92 JUMP JUMPDEST SWAP6 DUP9 ADD SWAP6 SWAP4 DUP9 ADD SWAP4 SWAP2 POP PUSH1 0x1 ADD PUSH2 0x2434 JUMP JUMPDEST POP PUSH1 0x80 DUP11 ADD MLOAD PUSH1 0xA0 DUP11 ADD MSTORE PUSH1 0xA0 DUP11 ADD MLOAD PUSH1 0xC0 DUP11 ADD MSTORE DUP1 SWAP8 POP POP POP POP POP POP POP POP SWAP3 SWAP2 POP POP JUMP JUMPDEST PUSH0 DUP1 PUSH1 0x40 DUP4 DUP6 SUB SLT ISZERO PUSH2 0x2496 JUMPI PUSH0 DUP1 REVERT JUMPDEST PUSH2 0x249F DUP4 PUSH2 0x1EE6 JUMP JUMPDEST SWAP2 POP PUSH2 0x24AD PUSH1 0x20 DUP5 ADD PUSH2 0x1EE6 JUMP JUMPDEST SWAP1 POP SWAP3 POP SWAP3 SWAP1 POP JUMP JUMPDEST PUSH1 0x1 DUP2 DUP2 SHR SWAP1 DUP3 AND DUP1 PUSH2 0x24CA JUMPI PUSH1 0x7F DUP3 AND SWAP2 POP JUMPDEST PUSH1 0x20 DUP3 LT DUP2 SUB PUSH2 0x24E8 JUMPI PUSH4 0x4E487B71 PUSH1 0xE0 SHL PUSH0 MSTORE PUSH1 0x22 PUSH1 0x4 MSTORE PUSH1 0x24 PUSH0 REVERT JUMPDEST POP SWAP2 SWAP1 POP JUMP JUMPDEST PUSH4 0x4E487B71 PUSH1 0xE0 SHL PUSH0 MSTORE PUSH1 0x32 PUSH1 0x4 MSTORE PUSH1 0x24 PUSH0 REVERT JUMPDEST PUSH0 PUSH1 0x1 DUP3 ADD PUSH2 0x251F JUMPI PUSH4 0x4E487B71 PUSH1 0xE0 SHL PUSH0 MSTORE PUSH1 0x11 PUSH1 0x4 MSTORE PUSH1 0x24 PUSH0 REVERT JUMPDEST POP PUSH1 0x1 ADD SWAP1 JUMP JUMPDEST PUSH0 DUP4 MLOAD PUSH2 0x2537 DUP2 DUP5 PUSH1 0x20 DUP9 ADD PUSH2 0x1E70 JUMP JUMPDEST DUP4 MLOAD SWAP1 DUP4 ADD SWAP1 PUSH2 0x254B DUP2 DUP4 PUSH1 0x20 DUP9 ADD PUSH2 0x1E70 JUMP JUMPDEST ADD SWAP5 SWAP4 POP POP POP POP JUMP JUMPDEST PUSH0 PUSH1 0x20 DUP3 DUP5 SUB SLT ISZERO PUSH2 0x2564 JUMPI PUSH0 DUP1 REVERT JUMPDEST POP MLOAD SWAP2 SWAP1 POP JUMP JUMPDEST PUSH0 DUP3 PUSH2 0x2585 JUMPI PUSH4 0x4E487B71 PUSH1 0xE0 SHL PUSH0 MSTORE PUSH1 0x12 PUSH1 0x4 MSTORE PUSH1 0x24 PUSH0 REVERT JUMPDEST POP MOD SWAP1 JUMP JUMPDEST PUSH1 0x1 PUSH1 0x1 PUSH1 0xA0 SHL SUB DUP6 DUP2 AND DUP3 MSTORE DUP5 AND PUSH1 0x20 DUP3 ADD MSTORE PUSH1 0x40 DUP2 ADD DUP4 SWAP1 MSTORE PUSH1 0x80 PUSH1 0x60 DUP3 ADD DUP2 SWAP1 MSTORE PUSH0 SWAP1 PUSH2 0x25BC SWAP1 DUP4 ADD DUP5 PUSH2 0x1E92 JUMP JUMPDEST SWAP7 SWAP6 POP POP POP POP POP POP JUMP JUMPDEST PUSH0 PUSH1 0x20 DUP3 DUP5 SUB SLT ISZERO PUSH2 0x25D6 JUMPI PUSH0 DUP1 REVERT JUMPDEST DUP2 MLOAD PUSH2 0x19E2 DUP2 PUSH2 0x1E40 JUMP JUMPDEST PUSH1 0x1F DUP3 GT ISZERO PUSH2 0xA5E JUMPI DUP1 PUSH0 MSTORE PUSH1 0x20 PUSH0 KECCAK256 PUSH1 0x1F DUP5 ADD PUSH1 0x5 SHR DUP2 ADD PUSH1 0x20 DUP6 LT ISZERO PUSH2 0x2606 JUMPI POP DUP1 JUMPDEST PUSH1 0x1F DUP5 ADD PUSH1 0x5 SHR DUP3 ADD SWAP2 POP JUMPDEST DUP2 DUP2 LT ISZERO PUSH2 0x1971 JUMPI PUSH0 DUP2 SSTORE PUSH1 0x1 ADD PUSH2 0x2612 JUMP JUMPDEST DUP2 MLOAD PUSH8 0xFFFFFFFFFFFFFFFF DUP2 GT ISZERO PUSH2 0x263F JUMPI PUSH2 0x263F PUSH2 0x1F29 JUMP JUMPDEST PUSH2 0x2653 DUP2 PUSH2 0x264D DUP5 SLOAD PUSH2 0x24B6 JUMP JUMPDEST DUP5 PUSH2 0x25E1 JUMP JUMPDEST PUSH1 0x20 DUP1 PUSH1 0x1F DUP4 GT PUSH1 0x1 DUP2 EQ PUSH2 0x2686 JUMPI PUSH0 DUP5 ISZERO PUSH2 0x266F JUMPI POP DUP6 DUP4 ADD MLOAD JUMPDEST PUSH0 NOT PUSH1 0x3 DUP7 SWAP1 SHL SHR NOT AND PUSH1 0x1 DUP6 SWAP1 SHL OR DUP6 SSTORE PUSH2 0x26DD JUMP JUMPDEST PUSH0 DUP6 DUP2 MSTORE PUSH1 0x20 DUP2 KECCAK256 PUSH1 0x1F NOT DUP7 AND SWAP2 JUMPDEST DUP3 DUP2 LT ISZERO PUSH2 0x26B4 JUMPI DUP9 DUP7 ADD MLOAD DUP3 SSTORE SWAP5 DUP5 ADD SWAP5 PUSH1 0x1 SWAP1 SWAP2 ADD SWAP1 DUP5 ADD PUSH2 0x2695 JUMP JUMPDEST POP DUP6 DUP3 LT ISZERO PUSH2 0x26D1 JUMPI DUP8 DUP6 ADD MLOAD PUSH0 NOT PUSH1 0x3 DUP9 SWAP1 SHL PUSH1 0xF8 AND SHR NOT AND DUP2 SSTORE JUMPDEST POP POP PUSH1 0x1 DUP5 PUSH1 0x1 SHL ADD DUP6 SSTORE JUMPDEST POP POP POP POP POP POP JUMP INVALID LOG2 PUSH5 0x6970667358 0x22 SLT KECCAK256 0xBA 0xBF 0xD GAS 0xDA PUSH16 0xD33184323F79F42369520C674F2F963B GASLIMIT 0xCC SWAP13 MUL 0xDE SWAP6 PUSH23 0x28FF4864736F6C63430008160033A26469706673582212 KECCAK256 0x5E OR PUSH9 0xE41DEBF934A9268A08 GASLIMIT 0xC2 LT 0xD0 RETURNDATACOPY 0xCB EXP 0xB4 0xCF 0x4B SDIV PUSH26 0xA02D7802ED22CBC764736F6C6343000816003300000000000000 "
		},
		"gasEstimates": {
			"creation": {
				"codeDepositCost": "2941600",
				"executionCost": "29084",
				"totalCost": "2970684"
			},
			"external": {
				"addBigPicture(address)": "48808",
				"allBigPictures(uint256)": "4601",
				"createBigPicture(string,string,string[],uint256,uint256)": "infinite",
				"getAllBigPictureDatas()": "infinite",
				"getAllBigPictures()": "infinite",
				"owner()": "2318",
				"renounceOwnership()": "infinite",
				"transferOwnership(address)": "infinite"
			}
		},
		"methodIdentifiers": {
			"addBigPicture(address)": "c56e0dde",
			"allBigPictures(uint256)": "4026b3b7",
			"createBigPicture(string,string,string[],uint256,uint256)": "4c575154",
			"getAllBigPictureDatas()": "d7f07bdf",
			"getAllBigPictures()": "4eef150d",
			"owner()": "8da5cb5b",
			"renounceOwnership()": "715018a6",
			"transferOwnership(address)": "f2fde38b"
		}
	},
	"abi": [
		{
			"inputs": [],
			"stateMutability": "nonpayable",
			"type": "constructor"
		},
		{
			"inputs": [
				{
					"internalType": "address",
					"name": "owner",
					"type": "address"
				}
			],
			"name": "OwnableInvalidOwner",
			"type": "error"
		},
		{
			"inputs": [
				{
					"internalType": "address",
					"name": "account",
					"type": "address"
				}
			],
			"name": "OwnableUnauthorizedAccount",
			"type": "error"
		},
		{
			"anonymous": false,
			"inputs": [
				{
					"indexed": true,
					"internalType": "address",
					"name": "previousOwner",
					"type": "address"
				},
				{
					"indexed": true,
					"internalType": "address",
					"name": "newOwner",
					"type": "address"
				}
			],
			"name": "OwnershipTransferred",
			"type": "event"
		},
		{
			"inputs": [
				{
					"internalType": "contract BigPicture",
					"name": "bigPicture",
					"type": "address"
				}
			],
			"name": "addBigPicture",
			"outputs": [],
			"stateMutability": "nonpayable",
			"type": "function"
		},
		{
			"inputs": [
				{
					"internalType": "uint256",
					"name": "",
					"type": "uint256"
				}
			],
			"name": "allBigPictures",
			"outputs": [
				{
					"internalType": "contract BigPicture",
					"name": "",
					"type": "address"
				}
			],
			"stateMutability": "view",
			"type": "function"
		},
		{
			"inputs": [
				{
					"internalType": "string",
					"name": "_name",
					"type": "string"
				},
				{
					"internalType": "string",
					"name": "_image",
					"type": "string"
				},
				{
					"internalType": "string[]",
					"name": "_picturePart",
					"type": "string[]"
				},
				{
					"internalType": "uint256",
					"name": "_rewardPrice",
					"type": "uint256"
				},
				{
					"internalType": "uint256",
					"name": "_mintPrice",
					"type": "uint256"
				}
			],
			"name": "createBigPicture",
			"outputs": [],
			"stateMutability": "nonpayable",
			"type": "function"
		},
		{
			"inputs": [],
			"name": "getAllBigPictureDatas",
			"outputs": [
				{
					"components": [
						{
							"internalType": "address",
							"name": "bigPictureAddress",
							"type": "address"
						},
						{
							"internalType": "string",
							"name": "name",
							"type": "string"
						},
						{
							"internalType": "string",
							"name": "image",
							"type": "string"
						},
						{
							"internalType": "string[]",
							"name": "picturePieces",
							"type": "string[]"
						},
						{
							"internalType": "uint256",
							"name": "rewardPrice",
							"type": "uint256"
						},
						{
							"internalType": "uint256",
							"name": "mintPrice",
							"type": "uint256"
						}
					],
					"internalType": "struct BigPictureData[]",
					"name": "",
					"type": "tuple[]"
				}
			],
			"stateMutability": "view",
			"type": "function"
		},
		{
			"inputs": [],
			"name": "getAllBigPictures",
			"outputs": [
				{
					"internalType": "contract BigPicture[]",
					"name": "",
					"type": "address[]"
				}
			],
			"stateMutability": "view",
			"type": "function"
		},
		{
			"inputs": [],
			"name": "owner",
			"outputs": [
				{
					"internalType": "address",
					"name": "",
					"type": "address"
				}
			],
			"stateMutability": "view",
			"type": "function"
		},
		{
			"inputs": [],
			"name": "renounceOwnership",
			"outputs": [],
			"stateMutability": "nonpayable",
			"type": "function"
		},
		{
			"inputs": [
				{
					"internalType": "address",
					"name": "newOwner",
					"type": "address"
				}
			],
			"name": "transferOwnership",
			"outputs": [],
			"stateMutability": "nonpayable",
			"type": "function"
		}
	]
}