{
	"data": {
		"bytecode": {
			"linkReferences": {},
			"object": "608060405234801561000f575f80fd5b50614e8f8061001d5f395ff3fe608060405234801562000010575f80fd5b506004361062000092575f3560e01c80638c57a24e11620000615780638c57a24e1462000146578063c56e0dde146200017c578063efac2ae5146200019c578063fe9e90d614620001bc5762000092565b80634026b3b714620000965780634eef150d14620000cc5780635eb4a02b14620000ee578063722b6f801462000110575b5f80fd5b620000b46004803603810190620000ae9190620006fd565b620001dc565b604051620000c39190620007b3565b60405180910390f35b620000d662000217565b604051620000e5919062000895565b60405180910390f35b620000f8620002a3565b60405162000107919062000981565b60405180910390f35b6200012e6004803603810190620001289190620006fd565b62000330565b6040516200013d9190620009b4565b60405180910390f35b6200016460048036038101906200015e919062000a11565b6200036c565b60405162000173919062000981565b60405180910390f35b6200019a600480360381019062000194919062000a83565b6200058e565b005b620001ba6004803603810190620001b4919062000d24565b620005f0565b005b620001da6004803603810190620001d4919062000e32565b62000643565b005b5f8181548110620001eb575f80fd5b905f5260205f20015f915054906101000a900473ffffffffffffffffffffffffffffffffffffffff1681565b60605f8054806020026020016040519081016040528092919081815260200182805480156200029957602002820191905f5260205f20905b815f9054906101000a900473ffffffffffffffffffffffffffffffffffffffff1673ffffffffffffffffffffffffffffffffffffffff16815260200190600101908083116200024f575b5050505050905090565b606060018054806020026020016040519081016040528092919081815260200182805480156200032657602002820191905f5260205f20905b815f9054906101000a900473ffffffffffffffffffffffffffffffffffffffff1673ffffffffffffffffffffffffffffffffffffffff1681526020019060010190808311620002dc575b5050505050905090565b6001818154811062000340575f80fd5b905f5260205f20015f915054906101000a900473ffffffffffffffffffffffffffffffffffffffff1681565b60605f60018054905067ffffffffffffffff81111562000391576200039062000acb565b5b604051908082528060200260200182016040528015620003c05781602001602082028036833780820191505090505b5090505f805b6001805490508163ffffffff16101562000583578473ffffffffffffffffffffffffffffffffffffffff1660018263ffffffff16815481106200040e576200040d62000e62565b5b905f5260205f20015f9054906101000a900473ffffffffffffffffffffffffffffffffffffffff1673ffffffffffffffffffffffffffffffffffffffff16638da5cb5b6040518163ffffffff1660e01b8152600401602060405180830381865afa1580156200047f573d5f803e3d5ffd5b505050506040513d601f19601f82011682018060405250810190620004a5919062000ea5565b73ffffffffffffffffffffffffffffffffffffffff16036200056d5760018163ffffffff1681548110620004de57620004dd62000e62565b5b905f5260205f20015f9054906101000a900473ffffffffffffffffffffffffffffffffffffffff16838363ffffffff168151811062000522576200052162000e62565b5b602002602001019073ffffffffffffffffffffffffffffffffffffffff16908173ffffffffffffffffffffffffffffffffffffffff16815250508180620005699062000f11565b9250505b80806200057a9062000f11565b915050620003c6565b508192505050919050565b5f81908060018154018082558091505060019003905f5260205f20015f9091909190916101000a81548173ffffffffffffffffffffffffffffffffffffffff021916908373ffffffffffffffffffffffffffffffffffffffff16021790555050565b5f84848484306040516200060490620006a6565b62000614959493929190620010b1565b604051809103905ff0801580156200062e573d5f803e3d5ffd5b5090506200063c816200058e565b5050505050565b600181908060018154018082558091505060019003905f5260205f20015f9091909190916101000a81548173ffffffffffffffffffffffffffffffffffffffff021916908373ffffffffffffffffffffffffffffffffffffffff16021790555050565b613d38806200112283390190565b5f604051905090565b5f80fd5b5f80fd5b5f819050919050565b620006d981620006c5565b8114620006e4575f80fd5b50565b5f81359050620006f781620006ce565b92915050565b5f60208284031215620007155762000714620006bd565b5b5f6200072484828501620006e7565b91505092915050565b5f73ffffffffffffffffffffffffffffffffffffffff82169050919050565b5f819050919050565b5f620007756200076f62000769846200072d565b6200074c565b6200072d565b9050919050565b5f620007888262000755565b9050919050565b5f6200079b826200077c565b9050919050565b620007ad816200078f565b82525050565b5f602082019050620007c85f830184620007a2565b92915050565b5f81519050919050565b5f82825260208201905092915050565b5f819050602082019050919050565b62000802816200078f565b82525050565b5f620008158383620007f7565b60208301905092915050565b5f602082019050919050565b5f6200083982620007ce565b620008458185620007d8565b93506200085283620007e8565b805f5b83811015620008885781516200086c888262000808565b9750620008798362000821565b92505060018101905062000855565b5085935050505092915050565b5f6020820190508181035f830152620008af81846200082d565b905092915050565b5f81519050919050565b5f819050602082019050919050565b5f620008dc826200077c565b9050919050565b620008ee81620008d0565b82525050565b5f620009018383620008e3565b60208301905092915050565b5f602082019050919050565b5f6200092582620008b7565b620009318185620007d8565b93506200093e83620008c1565b805f5b8381101562000974578151620009588882620008f4565b975062000965836200090d565b92505060018101905062000941565b5085935050505092915050565b5f6020820190508181035f8301526200099b818462000919565b905092915050565b620009ae81620008d0565b82525050565b5f602082019050620009c95f830184620009a3565b92915050565b5f620009db826200072d565b9050919050565b620009ed81620009cf565b8114620009f8575f80fd5b50565b5f8135905062000a0b81620009e2565b92915050565b5f6020828403121562000a295762000a28620006bd565b5b5f62000a3884828501620009fb565b91505092915050565b5f62000a4d82620009cf565b9050919050565b62000a5f8162000a41565b811462000a6a575f80fd5b50565b5f8135905062000a7d8162000a54565b92915050565b5f6020828403121562000a9b5762000a9a620006bd565b5b5f62000aaa8482850162000a6d565b91505092915050565b5f80fd5b5f80fd5b5f601f19601f8301169050919050565b7f4e487b71000000000000000000000000000000000000000000000000000000005f52604160045260245ffd5b62000b038262000abb565b810181811067ffffffffffffffff8211171562000b255762000b2462000acb565b5b80604052505050565b5f62000b39620006b4565b905062000b47828262000af8565b919050565b5f67ffffffffffffffff82111562000b695762000b6862000acb565b5b62000b748262000abb565b9050602081019050919050565b828183375f83830152505050565b5f62000ba562000b9f8462000b4c565b62000b2e565b90508281526020810184848401111562000bc45762000bc362000ab7565b5b62000bd184828562000b81565b509392505050565b5f82601f83011262000bf05762000bef62000ab3565b5b813562000c0284826020860162000b8f565b91505092915050565b5f67ffffffffffffffff82111562000c285762000c2762000acb565b5b602082029050602081019050919050565b5f80fd5b5f62000c4982620009cf565b9050919050565b62000c5b8162000c3d565b811462000c66575f80fd5b50565b5f8135905062000c798162000c50565b92915050565b5f62000c9562000c8f8462000c0b565b62000b2e565b9050808382526020820190506020840283018581111562000cbb5762000cba62000c39565b5b835b8181101562000ce8578062000cd3888262000c69565b84526020840193505060208101905062000cbd565b5050509392505050565b5f82601f83011262000d095762000d0862000ab3565b5b813562000d1b84826020860162000c7f565b91505092915050565b5f805f806080858703121562000d3f5762000d3e620006bd565b5b5f85013567ffffffffffffffff81111562000d5f5762000d5e620006c1565b5b62000d6d8782880162000bd9565b945050602085013567ffffffffffffffff81111562000d915762000d90620006c1565b5b62000d9f8782880162000bd9565b935050604085013567ffffffffffffffff81111562000dc35762000dc2620006c1565b5b62000dd18782880162000cf2565b925050606062000de487828801620006e7565b91505092959194509250565b5f62000dfc82620009cf565b9050919050565b62000e0e8162000df0565b811462000e19575f80fd5b50565b5f8135905062000e2c8162000e03565b92915050565b5f6020828403121562000e4a5762000e49620006bd565b5b5f62000e598482850162000e1c565b91505092915050565b7f4e487b71000000000000000000000000000000000000000000000000000000005f52603260045260245ffd5b5f8151905062000e9f81620009e2565b92915050565b5f6020828403121562000ebd5762000ebc620006bd565b5b5f62000ecc8482850162000e8f565b91505092915050565b7f4e487b71000000000000000000000000000000000000000000000000000000005f52601160045260245ffd5b5f63ffffffff82169050919050565b5f62000f1d8262000f02565b915063ffffffff820362000f365762000f3562000ed5565b5b600182019050919050565b5f81519050919050565b5f82825260208201905092915050565b5f5b8381101562000f7a57808201518184015260208101905062000f5d565b5f8484015250505050565b5f62000f918262000f41565b62000f9d818562000f4b565b935062000faf81856020860162000f5b565b62000fba8162000abb565b840191505092915050565b5f81519050919050565b5f819050602082019050919050565b5f62000fea826200077c565b9050919050565b62000ffc8162000fde565b82525050565b5f6200100f838362000ff1565b60208301905092915050565b5f602082019050919050565b5f620010338262000fc5565b6200103f8185620007d8565b93506200104c8362000fcf565b805f5b838110156200108257815162001066888262001002565b975062001073836200101b565b9250506001810190506200104f565b5085935050505092915050565b6200109a81620006c5565b82525050565b620010ab81620009cf565b82525050565b5f60a0820190508181035f830152620010cb818862000f85565b90508181036020830152620010e1818762000f85565b90508181036040830152620010f7818662001027565b90506200110860608301856200108f565b620011176080830184620010a0565b969550505050505056fe608060405234801562000010575f80fd5b5060405162003d3838038062003d3883398181016040528101906200003691906200052f565b845f90816200004691906200083e565b5083600190816200005891906200083e565b508260029080519060200190620000719291906200014f565b50816003819055508060045f6101000a81548173ffffffffffffffffffffffffffffffffffffffff021916908373ffffffffffffffffffffffffffffffffffffffff16021790555060045f9054906101000a900473ffffffffffffffffffffffffffffffffffffffff1673ffffffffffffffffffffffffffffffffffffffff1663c56e0dde306040518263ffffffff1660e01b815260040162000115919062000980565b5f604051808303815f87803b1580156200012d575f80fd5b505af115801562000140573d5f803e3d5ffd5b5050505050505050506200099b565b828054828255905f5260205f20908101928215620001c8579160200282015b82811115620001c7578251825f6101000a81548173ffffffffffffffffffffffffffffffffffffffff021916908373ffffffffffffffffffffffffffffffffffffffff160217905550916020019190600101906200016e565b5b509050620001d79190620001db565b5090565b5b80821115620001f4575f815f905550600101620001dc565b5090565b5f604051905090565b5f80fd5b5f80fd5b5f80fd5b5f80fd5b5f601f19601f8301169050919050565b7f4e487b71000000000000000000000000000000000000000000000000000000005f52604160045260245ffd5b620002598262000211565b810181811067ffffffffffffffff821117156200027b576200027a62000221565b5b80604052505050565b5f6200028f620001f8565b90506200029d82826200024e565b919050565b5f67ffffffffffffffff821115620002bf57620002be62000221565b5b620002ca8262000211565b9050602081019050919050565b5f5b83811015620002f6578082015181840152602081019050620002d9565b5f8484015250505050565b5f620003176200031184620002a2565b62000284565b9050828152602081018484840111156200033657620003356200020d565b5b62000343848285620002d7565b509392505050565b5f82601f83011262000362576200036162000209565b5b81516200037484826020860162000301565b91505092915050565b5f67ffffffffffffffff8211156200039a576200039962000221565b5b602082029050602081019050919050565b5f80fd5b5f73ffffffffffffffffffffffffffffffffffffffff82169050919050565b5f620003da82620003af565b9050919050565b5f620003ed82620003ce565b9050919050565b620003ff81620003e1565b81146200040a575f80fd5b50565b5f815190506200041d81620003f4565b92915050565b5f6200043962000433846200037d565b62000284565b905080838252602082019050602084028301858111156200045f576200045e620003ab565b5b835b818110156200048c57806200047788826200040d565b84526020840193505060208101905062000461565b5050509392505050565b5f82601f830112620004ad57620004ac62000209565b5b8151620004bf84826020860162000423565b91505092915050565b5f819050919050565b620004dc81620004c8565b8114620004e7575f80fd5b50565b5f81519050620004fa81620004d1565b92915050565b6200050b81620003ce565b811462000516575f80fd5b50565b5f81519050620005298162000500565b92915050565b5f805f805f60a086880312156200054b576200054a62000201565b5b5f86015167ffffffffffffffff8111156200056b576200056a62000205565b5b62000579888289016200034b565b955050602086015167ffffffffffffffff8111156200059d576200059c62000205565b5b620005ab888289016200034b565b945050604086015167ffffffffffffffff811115620005cf57620005ce62000205565b5b620005dd8882890162000496565b9350506060620005f088828901620004ea565b9250506080620006038882890162000519565b9150509295509295909350565b5f81519050919050565b7f4e487b71000000000000000000000000000000000000000000000000000000005f52602260045260245ffd5b5f60028204905060018216806200065f57607f821691505b6020821081036200067557620006746200061a565b5b50919050565b5f819050815f5260205f209050919050565b5f6020601f8301049050919050565b5f82821b905092915050565b5f60088302620006d97fffffffffffffffffffffffffffffffffffffffffffffffffffffffffffffffff826200069c565b620006e586836200069c565b95508019841693508086168417925050509392505050565b5f819050919050565b5f62000726620007206200071a84620004c8565b620006fd565b620004c8565b9050919050565b5f819050919050565b620007418362000706565b6200075962000750826200072d565b848454620006a8565b825550505050565b5f90565b6200076f62000761565b6200077c81848462000736565b505050565b5b81811015620007a357620007975f8262000765565b60018101905062000782565b5050565b601f821115620007f257620007bc816200067b565b620007c7846200068d565b81016020851015620007d7578190505b620007ef620007e6856200068d565b83018262000781565b50505b505050565b5f82821c905092915050565b5f620008145f1984600802620007f7565b1980831691505092915050565b5f6200082e838362000803565b9150826002028217905092915050565b620008498262000610565b67ffffffffffffffff81111562000865576200086462000221565b5b62000871825462000647565b6200087e828285620007a7565b5f60209050601f831160018114620008b4575f84156200089f578287015190505b620008ab858262000821565b8655506200091a565b601f198416620008c4866200067b565b5f5b82811015620008ed57848901518255600182019150602085019450602081019050620008c6565b868310156200090d578489015162000909601f89168262000803565b8355505b6001600288020188555050505b505050505050565b5f620009426200093c6200093684620003af565b620006fd565b620003af565b9050919050565b5f620009558262000922565b9050919050565b5f620009688262000949565b9050919050565b6200097a816200095c565b82525050565b5f602082019050620009955f8301846200096f565b92915050565b61338f80620009a95f395ff3fe608060405234801562000010575f80fd5b506004361062000044575f3560e01c806305d1f9b6146200004857806361ed7fce1462000054578063db65dbbb1462000076575b5f80fd5b6200005262000098565b005b6200005e62000249565b6040516200006d91906200060f565b60405180910390f35b62000080620002d6565b6040516200008f919062000800565b60405180910390f35b5f6002805490504233600280549050604051602001620000bb93929190620008af565b604051602081830303815290604052805190602001205f1c620000df91906200091e565b90505f3360028381548110620000fa57620000f962000955565b5b905f5260205f20015f9054906101000a900473ffffffffffffffffffffffffffffffffffffffff166040516200013090620004a4565b6200013d929190620009a4565b604051809103905ff08015801562000157573d5f803e3d5ffd5b50905060045f9054906101000a900473ffffffffffffffffffffffffffffffffffffffff1673ffffffffffffffffffffffffffffffffffffffff1663fe9e90d6826040518263ffffffff1660e01b8152600401620001b69190620009e0565b5f604051808303815f87803b158015620001ce575f80fd5b505af1158015620001e1573d5f803e3d5ffd5b50505050600581908060018154018082558091505060019003905f5260205f20015f9091909190916101000a81548173ffffffffffffffffffffffffffffffffffffffff021916908373ffffffffffffffffffffffffffffffffffffffff1602179055505050565b60606005805480602002602001604051908101604052809291908181526020018280548015620002cc57602002820191905f5260205f20905b815f9054906101000a900473ffffffffffffffffffffffffffffffffffffffff1673ffffffffffffffffffffffffffffffffffffffff168152602001906001019080831162000282575b5050505050905090565b620002e0620004b2565b60405180606001604052805f8054620002f99062000a28565b80601f0160208091040260200160405190810160405280929190818152602001828054620003279062000a28565b8015620003765780601f106200034c5761010080835404028352916020019162000376565b820191905f5260205f20905b8154815290600101906020018083116200035857829003601f168201915b50505050508152602001600180546200038f9062000a28565b80601f0160208091040260200160405190810160405280929190818152602001828054620003bd9062000a28565b80156200040c5780601f10620003e2576101008083540402835291602001916200040c565b820191905f5260205f20905b815481529060010190602001808311620003ee57829003601f168201915b5050505050815260200160028054806020026020016040519081016040528092919081815260200182805480156200049757602002820191905f5260205f20905b815f9054906101000a900473ffffffffffffffffffffffffffffffffffffffff1673ffffffffffffffffffffffffffffffffffffffff16815260200190600101908083116200044d575b5050505050815250905090565b6128fd8062000a5d83390190565b60405180606001604052806060815260200160608152602001606081525090565b5f81519050919050565b5f82825260208201905092915050565b5f819050602082019050919050565b5f73ffffffffffffffffffffffffffffffffffffffff82169050919050565b5f819050919050565b5f620005446200053e6200053884620004fc565b6200051b565b620004fc565b9050919050565b5f620005578262000524565b9050919050565b5f6200056a826200054b565b9050919050565b6200057c816200055e565b82525050565b5f6200058f838362000571565b60208301905092915050565b5f602082019050919050565b5f620005b382620004d3565b620005bf8185620004dd565b9350620005cc83620004ed565b805f5b8381101562000602578151620005e6888262000582565b9750620005f3836200059b565b925050600181019050620005cf565b5085935050505092915050565b5f6020820190508181035f830152620006298184620005a7565b905092915050565b5f81519050919050565b5f82825260208201905092915050565b5f5b838110156200066a5780820151818401526020810190506200064d565b5f8484015250505050565b5f601f19601f8301169050919050565b5f620006918262000631565b6200069d81856200063b565b9350620006af8185602086016200064b565b620006ba8162000675565b840191505092915050565b5f81519050919050565b5f82825260208201905092915050565b5f819050602082019050919050565b5f620006fa826200054b565b9050919050565b6200070c81620006ee565b82525050565b5f6200071f838362000701565b60208301905092915050565b5f602082019050919050565b5f6200074382620006c5565b6200074f8185620006cf565b93506200075c83620006df565b805f5b838110156200079257815162000776888262000712565b975062000783836200072b565b9250506001810190506200075f565b5085935050505092915050565b5f606083015f8301518482035f860152620007bb828262000685565b91505060208301518482036020860152620007d7828262000685565b91505060408301518482036040860152620007f3828262000737565b9150508091505092915050565b5f6020820190508181035f8301526200081a81846200079f565b905092915050565b5f819050919050565b5f819050919050565b62000849620008438262000822565b6200082b565b82525050565b5f6200085b82620004fc565b9050919050565b5f8160601b9050919050565b5f6200087a8262000862565b9050919050565b5f6200088d826200086e565b9050919050565b620008a9620008a3826200084f565b62000881565b82525050565b5f620008bc828662000834565b602082019150620008ce828562000894565b601482019150620008e0828462000834565b602082019150819050949350505050565b7f4e487b71000000000000000000000000000000000000000000000000000000005f52601260045260245ffd5b5f6200092a8262000822565b9150620009378362000822565b9250826200094a5762000949620008f1565b5b828206905092915050565b7f4e487b71000000000000000000000000000000000000000000000000000000005f52603260045260245ffd5b6200098d816200084f565b82525050565b6200099e81620006ee565b82525050565b5f604082019050620009b95f83018562000982565b620009c8602083018462000993565b9392505050565b620009da816200055e565b82525050565b5f602082019050620009f55f830184620009cf565b92915050565b7f4e487b71000000000000000000000000000000000000000000000000000000005f52602260045260245ffd5b5f600282049050600182168062000a4057607f821691505b60208210810362000a565762000a55620009fb565b5b5091905056fe608060405234801562000010575f80fd5b50604051620028fd380380620028fd83398181016040528101906200003691906200031f565b816040518060400160405280600c81526020017f50696374757265546f6b656e00000000000000000000000000000000000000008152506040518060400160405280600281526020017f5054000000000000000000000000000000000000000000000000000000000000815250815f9081620000b39190620005c8565b508060019081620000c59190620005c8565b5050505f73ffffffffffffffffffffffffffffffffffffffff168173ffffffffffffffffffffffffffffffffffffffff16036200013b575f6040517f1e4fbdf7000000000000000000000000000000000000000000000000000000008152600401620001329190620006bd565b60405180910390fd5b6200014c81620001b560201b60201c565b508060075f6101000a81548173ffffffffffffffffffffffffffffffffffffffff021916908373ffffffffffffffffffffffffffffffffffffffff1602179055505f6008819055505f60095f6101000a81548160ff0219169083151502179055505050620006d8565b5f60065f9054906101000a900473ffffffffffffffffffffffffffffffffffffffff1690508160065f6101000a81548173ffffffffffffffffffffffffffffffffffffffff021916908373ffffffffffffffffffffffffffffffffffffffff1602179055508173ffffffffffffffffffffffffffffffffffffffff168173ffffffffffffffffffffffffffffffffffffffff167f8be0079c531659141344cd1fd0a4f28419497f9722a3daafe3b4186f6b6457e060405160405180910390a35050565b5f80fd5b5f73ffffffffffffffffffffffffffffffffffffffff82169050919050565b5f620002a7826200027c565b9050919050565b620002b9816200029b565b8114620002c4575f80fd5b50565b5f81519050620002d781620002ae565b92915050565b5f620002e9826200029b565b9050919050565b620002fb81620002dd565b811462000306575f80fd5b50565b5f815190506200031981620002f0565b92915050565b5f806040838503121562000338576200033762000278565b5b5f6200034785828601620002c7565b92505060206200035a8582860162000309565b9150509250929050565b5f81519050919050565b7f4e487b71000000000000000000000000000000000000000000000000000000005f52604160045260245ffd5b7f4e487b71000000000000000000000000000000000000000000000000000000005f52602260045260245ffd5b5f6002820490506001821680620003e057607f821691505b602082108103620003f657620003f56200039b565b5b50919050565b5f819050815f5260205f209050919050565b5f6020601f8301049050919050565b5f82821b905092915050565b5f600883026200045a7fffffffffffffffffffffffffffffffffffffffffffffffffffffffffffffffff826200041d565b6200046686836200041d565b95508019841693508086168417925050509392505050565b5f819050919050565b5f819050919050565b5f620004b0620004aa620004a4846200047e565b62000487565b6200047e565b9050919050565b5f819050919050565b620004cb8362000490565b620004e3620004da82620004b7565b84845462000429565b825550505050565b5f90565b620004f9620004eb565b62000506818484620004c0565b505050565b5b818110156200052d57620005215f82620004ef565b6001810190506200050c565b5050565b601f8211156200057c576200054681620003fc565b62000551846200040e565b8101602085101562000561578190505b6200057962000570856200040e565b8301826200050b565b50505b505050565b5f82821c905092915050565b5f6200059e5f198460080262000581565b1980831691505092915050565b5f620005b883836200058d565b9150826002028217905092915050565b620005d38262000364565b67ffffffffffffffff811115620005ef57620005ee6200036e565b5b620005fb8254620003c8565b6200060882828562000531565b5f60209050601f8311600181146200063e575f841562000629578287015190505b620006358582620005ab565b865550620006a4565b601f1984166200064e86620003fc565b5f5b82811015620006775784890151825560018201915060208501945060208101905062000650565b8683101562000697578489015162000693601f8916826200058d565b8355505b6001600288020188555050505b505050505050565b620006b7816200029b565b82525050565b5f602082019050620006d25f830184620006ac565b92915050565b61221780620006e65f395ff3fe608060405234801561000f575f80fd5b506004361061014b575f3560e01c8063854cbb4a116100c1578063a035b1fe1161007a578063a035b1fe1461033d578063a22cb4651461035b578063b88d4fde14610377578063c87b56dd14610393578063e985e9c5146103c3578063f2fde38b146103f35761014b565b8063854cbb4a1461029f5780638c2a5bc8146102bd5780638da5cb5b146102c757806391b7f5ed146102e557806395d89b411461030157806398d5fdca1461031f5761014b565b806342842e0e1161011357806342842e0e146102055780635987cc19146102215780636352211e1461022b57806364edfbf01461025b57806370a0823114610265578063715018a6146102955761014b565b806301ffc9a71461014f57806306fdde031461017f578063081812fc1461019d578063095ea7b3146101cd57806323b872dd146101e9575b5f80fd5b610169600480360381019061016491906119b4565b61040f565b60405161017691906119f9565b60405180910390f35b6101876104f0565b6040516101949190611a9c565b60405180910390f35b6101b760048036038101906101b29190611aef565b61057f565b6040516101c49190611b59565b60405180910390f35b6101e760048036038101906101e29190611b9c565b61059a565b005b61020360048036038101906101fe9190611bda565b6105b0565b005b61021f600480360381019061021a9190611bda565b6106af565b005b6102296106ce565b005b61024560048036038101906102409190611aef565b6106f2565b6040516102529190611b59565b60405180910390f35b610263610703565b005b61027f600480360381019061027a9190611c2a565b610774565b60405161028c9190611c64565b60405180910390f35b61029d61082a565b005b6102a761083d565b6040516102b49190611d58565b60405180910390f35b6102c56108d1565b005b6102cf6108f4565b6040516102dc9190611b59565b60405180910390f35b6102ff60048036038101906102fa9190611aef565b61091c565b005b61030961092e565b6040516103169190611a9c565b60405180910390f35b6103276109be565b6040516103349190611c64565b60405180910390f35b6103456109c7565b6040516103529190611c64565b60405180910390f35b61037560048036038101906103709190611d9b565b6109cd565b005b610391600480360381019061038c9190611f05565b6109e3565b005b6103ad60048036038101906103a89190611aef565b610a00565b6040516103ba9190611a9c565b60405180910390f35b6103dd60048036038101906103d89190611f85565b610a66565b6040516103ea91906119f9565b60405180910390f35b61040d60048036038101906104089190611c2a565b610af4565b005b5f7f80ac58cd000000000000000000000000000000000000000000000000000000007bffffffffffffffffffffffffffffffffffffffffffffffffffffffff1916827bffffffffffffffffffffffffffffffffffffffffffffffffffffffff191614806104d957507f5b5e139f000000000000000000000000000000000000000000000000000000007bffffffffffffffffffffffffffffffffffffffffffffffffffffffff1916827bffffffffffffffffffffffffffffffffffffffffffffffffffffffff1916145b806104e957506104e882610b78565b5b9050919050565b60605f80546104fe90611ff0565b80601f016020809104026020016040519081016040528092919081815260200182805461052a90611ff0565b80156105755780601f1061054c57610100808354040283529160200191610575565b820191905f5260205f20905b81548152906001019060200180831161055857829003601f168201915b5050505050905090565b5f61058982610be1565b5061059382610c67565b9050919050565b6105ac82826105a7610ca0565b610ca7565b5050565b5f73ffffffffffffffffffffffffffffffffffffffff168273ffffffffffffffffffffffffffffffffffffffff1603610620575f6040517f64a0ae920000000000000000000000000000000000000000000000000000000081526004016106179190611b59565b60405180910390fd5b5f610633838361062e610ca0565b610cb9565b90508373ffffffffffffffffffffffffffffffffffffffff168173ffffffffffffffffffffffffffffffffffffffff16146106a9578382826040517f64283d7b0000000000000000000000000000000000000000000000000000000081526004016106a093929190612020565b60405180910390fd5b50505050565b6106c983838360405180602001604052805f8152506109e3565b505050565b6106d6610ec4565b600160095f6101000a81548160ff021916908315150217905550565b5f6106fc82610be1565b9050919050565b3373ffffffffffffffffffffffffffffffffffffffff166108fc60085490811502906040515f60405180830381858888f19350505050158015610748573d5f803e3d5ffd5b5061075233610af4565b5f6008819055505f60095f6101000a81548160ff021916908315150217905550565b5f8073ffffffffffffffffffffffffffffffffffffffff168273ffffffffffffffffffffffffffffffffffffffff16036107e5575f6040517f89c62b640000000000000000000000000000000000000000000000000000000081526004016107dc9190611b59565b60405180910390fd5b60035f8373ffffffffffffffffffffffffffffffffffffffff1673ffffffffffffffffffffffffffffffffffffffff1681526020019081526020015f20549050919050565b610832610ec4565b61083b5f610f4b565b565b6108456118fc565b60405180608001604052806108586108f4565b73ffffffffffffffffffffffffffffffffffffffff16815260200160075f9054906101000a900473ffffffffffffffffffffffffffffffffffffffff1673ffffffffffffffffffffffffffffffffffffffff168152602001600854815260200160095f9054906101000a900460ff161515815250905090565b6108d9610ec4565b5f60095f6101000a81548160ff021916908315150217905550565b5f60065f9054906101000a900473ffffffffffffffffffffffffffffffffffffffff16905090565b610924610ec4565b8060088190555050565b60606001805461093d90611ff0565b80601f016020809104026020016040519081016040528092919081815260200182805461096990611ff0565b80156109b45780601f1061098b576101008083540402835291602001916109b4565b820191905f5260205f20905b81548152906001019060200180831161099757829003601f168201915b5050505050905090565b5f600854905090565b60085481565b6109df6109d8610ca0565b838361100e565b5050565b6109ee8484846105b0565b6109fa84848484611177565b50505050565b6060610a0b82610be1565b505f610a15611329565b90505f815111610a335760405180602001604052805f815250610a5e565b80610a3d84611366565b604051602001610a4e92919061208f565b6040516020818303038152906040525b915050919050565b5f60055f8473ffffffffffffffffffffffffffffffffffffffff1673ffffffffffffffffffffffffffffffffffffffff1681526020019081526020015f205f8373ffffffffffffffffffffffffffffffffffffffff1673ffffffffffffffffffffffffffffffffffffffff1681526020019081526020015f205f9054906101000a900460ff16905092915050565b610afc610ec4565b5f73ffffffffffffffffffffffffffffffffffffffff168173ffffffffffffffffffffffffffffffffffffffff1603610b6c575f6040517f1e4fbdf7000000000000000000000000000000000000000000000000000000008152600401610b639190611b59565b60405180910390fd5b610b7581610f4b565b50565b5f7f01ffc9a7000000000000000000000000000000000000000000000000000000007bffffffffffffffffffffffffffffffffffffffffffffffffffffffff1916827bffffffffffffffffffffffffffffffffffffffffffffffffffffffff1916149050919050565b5f80610bec83611430565b90505f73ffffffffffffffffffffffffffffffffffffffff168173ffffffffffffffffffffffffffffffffffffffff1603610c5e57826040517f7e273289000000000000000000000000000000000000000000000000000000008152600401610c559190611c64565b60405180910390fd5b80915050919050565b5f60045f8381526020019081526020015f205f9054906101000a900473ffffffffffffffffffffffffffffffffffffffff169050919050565b5f33905090565b610cb48383836001611469565b505050565b5f80610cc484611430565b90505f73ffffffffffffffffffffffffffffffffffffffff168373ffffffffffffffffffffffffffffffffffffffff1614610d0557610d04818486611628565b5b5f73ffffffffffffffffffffffffffffffffffffffff168173ffffffffffffffffffffffffffffffffffffffff1614610d9057610d445f855f80611469565b600160035f8373ffffffffffffffffffffffffffffffffffffffff1673ffffffffffffffffffffffffffffffffffffffff1681526020019081526020015f205f82825403925050819055505b5f73ffffffffffffffffffffffffffffffffffffffff168573ffffffffffffffffffffffffffffffffffffffff1614610e0f57600160035f8773ffffffffffffffffffffffffffffffffffffffff1673ffffffffffffffffffffffffffffffffffffffff1681526020019081526020015f205f82825401925050819055505b8460025f8681526020019081526020015f205f6101000a81548173ffffffffffffffffffffffffffffffffffffffff021916908373ffffffffffffffffffffffffffffffffffffffff160217905550838573ffffffffffffffffffffffffffffffffffffffff168273ffffffffffffffffffffffffffffffffffffffff167fddf252ad1be2c89b69c2b068fc378daa952ba7f163c4a11628f55a4df523b3ef60405160405180910390a4809150509392505050565b610ecc610ca0565b73ffffffffffffffffffffffffffffffffffffffff16610eea6108f4565b73ffffffffffffffffffffffffffffffffffffffff1614610f4957610f0d610ca0565b6040517f118cdaa7000000000000000000000000000000000000000000000000000000008152600401610f409190611b59565b60405180910390fd5b565b5f60065f9054906101000a900473ffffffffffffffffffffffffffffffffffffffff1690508160065f6101000a81548173ffffffffffffffffffffffffffffffffffffffff021916908373ffffffffffffffffffffffffffffffffffffffff1602179055508173ffffffffffffffffffffffffffffffffffffffff168173ffffffffffffffffffffffffffffffffffffffff167f8be0079c531659141344cd1fd0a4f28419497f9722a3daafe3b4186f6b6457e060405160405180910390a35050565b5f73ffffffffffffffffffffffffffffffffffffffff168273ffffffffffffffffffffffffffffffffffffffff160361107e57816040517f5b08ba180000000000000000000000000000000000000000000000000000000081526004016110759190611b59565b60405180910390fd5b8060055f8573ffffffffffffffffffffffffffffffffffffffff1673ffffffffffffffffffffffffffffffffffffffff1681526020019081526020015f205f8473ffffffffffffffffffffffffffffffffffffffff1673ffffffffffffffffffffffffffffffffffffffff1681526020019081526020015f205f6101000a81548160ff0219169083151502179055508173ffffffffffffffffffffffffffffffffffffffff168373ffffffffffffffffffffffffffffffffffffffff167f17307eab39ab6107e8899845ad3d59bd9653f200f220920489ca2b5937696c318360405161116a91906119f9565b60405180910390a3505050565b5f8373ffffffffffffffffffffffffffffffffffffffff163b1115611323578273ffffffffffffffffffffffffffffffffffffffff1663150b7a026111ba610ca0565b8685856040518563ffffffff1660e01b81526004016111dc9493929190612104565b6020604051808303815f875af192505050801561121757506040513d601f19601f820116820180604052508101906112149190612162565b60015b611298573d805f8114611245576040519150601f19603f3d011682016040523d82523d5f602084013e61124a565b606091505b505f81510361129057836040517f64a0ae920000000000000000000000000000000000000000000000000000000081526004016112879190611b59565b60405180910390fd5b805181602001fd5b63150b7a0260e01b7bffffffffffffffffffffffffffffffffffffffffffffffffffffffff1916817bffffffffffffffffffffffffffffffffffffffffffffffffffffffff19161461132157836040517f64a0ae920000000000000000000000000000000000000000000000000000000081526004016113189190611b59565b60405180910390fd5b505b50505050565b60606040518060400160405280601881526020017f697066733a2f2f7069656365546f6b656e426173655552490000000000000000815250905090565b60605f6001611374846116eb565b0190505f8167ffffffffffffffff81111561139257611391611de1565b5b6040519080825280601f01601f1916602001820160405280156113c45781602001600182028036833780820191505090505b5090505f82602001820190505b600115611425578080600190039150507f3031323334353637383961626364656600000000000000000000000000000000600a86061a8153600a858161141a5761141961218d565b5b0494505f85036113d1575b819350505050919050565b5f60025f8381526020019081526020015f205f9054906101000a900473ffffffffffffffffffffffffffffffffffffffff169050919050565b80806114a157505f73ffffffffffffffffffffffffffffffffffffffff168273ffffffffffffffffffffffffffffffffffffffff1614155b156115d3575f6114b084610be1565b90505f73ffffffffffffffffffffffffffffffffffffffff168373ffffffffffffffffffffffffffffffffffffffff161415801561151a57508273ffffffffffffffffffffffffffffffffffffffff168173ffffffffffffffffffffffffffffffffffffffff1614155b801561152d575061152b8184610a66565b155b1561156f57826040517fa9fbf51f0000000000000000000000000000000000000000000000000000000081526004016115669190611b59565b60405180910390fd5b81156115d157838573ffffffffffffffffffffffffffffffffffffffff168273ffffffffffffffffffffffffffffffffffffffff167f8c5be1e5ebec7d5bd14f71427d1e84f3dd0314c0f7b2291e5b200ac8c7c3b92560405160405180910390a45b505b8360045f8581526020019081526020015f205f6101000a81548173ffffffffffffffffffffffffffffffffffffffff021916908373ffffffffffffffffffffffffffffffffffffffff16021790555050505050565b61163383838361183c565b6116e6575f73ffffffffffffffffffffffffffffffffffffffff168373ffffffffffffffffffffffffffffffffffffffff16036116a757806040517f7e27328900000000000000000000000000000000000000000000000000000000815260040161169e9190611c64565b60405180910390fd5b81816040517f177e802f0000000000000000000000000000000000000000000000000000000081526004016116dd9291906121ba565b60405180910390fd5b505050565b5f805f90507a184f03e93ff9f4daa797ed6e38ed64bf6a1f0100000000000000008310611747577a184f03e93ff9f4daa797ed6e38ed64bf6a1f010000000000000000838161173d5761173c61218d565b5b0492506040810190505b6d04ee2d6d415b85acef81000000008310611784576d04ee2d6d415b85acef8100000000838161177a5761177961218d565b5b0492506020810190505b662386f26fc1000083106117b357662386f26fc1000083816117a9576117a861218d565b5b0492506010810190505b6305f5e10083106117dc576305f5e10083816117d2576117d161218d565b5b0492506008810190505b61271083106118015761271083816117f7576117f661218d565b5b0492506004810190505b60648310611824576064838161181a5761181961218d565b5b0492506002810190505b600a8310611833576001810190505b80915050919050565b5f8073ffffffffffffffffffffffffffffffffffffffff168373ffffffffffffffffffffffffffffffffffffffff16141580156118f357508273ffffffffffffffffffffffffffffffffffffffff168473ffffffffffffffffffffffffffffffffffffffff1614806118b457506118b38484610a66565b5b806118f257508273ffffffffffffffffffffffffffffffffffffffff166118da83610c67565b73ffffffffffffffffffffffffffffffffffffffff16145b5b90509392505050565b60405180608001604052805f73ffffffffffffffffffffffffffffffffffffffff1681526020015f73ffffffffffffffffffffffffffffffffffffffff1681526020015f81526020015f151581525090565b5f604051905090565b5f80fd5b5f80fd5b5f7fffffffff0000000000000000000000000000000000000000000000000000000082169050919050565b6119938161195f565b811461199d575f80fd5b50565b5f813590506119ae8161198a565b92915050565b5f602082840312156119c9576119c8611957565b5b5f6119d6848285016119a0565b91505092915050565b5f8115159050919050565b6119f3816119df565b82525050565b5f602082019050611a0c5f8301846119ea565b92915050565b5f81519050919050565b5f82825260208201905092915050565b5f5b83811015611a49578082015181840152602081019050611a2e565b5f8484015250505050565b5f601f19601f8301169050919050565b5f611a6e82611a12565b611a788185611a1c565b9350611a88818560208601611a2c565b611a9181611a54565b840191505092915050565b5f6020820190508181035f830152611ab48184611a64565b905092915050565b5f819050919050565b611ace81611abc565b8114611ad8575f80fd5b50565b5f81359050611ae981611ac5565b92915050565b5f60208284031215611b0457611b03611957565b5b5f611b1184828501611adb565b91505092915050565b5f73ffffffffffffffffffffffffffffffffffffffff82169050919050565b5f611b4382611b1a565b9050919050565b611b5381611b39565b82525050565b5f602082019050611b6c5f830184611b4a565b92915050565b611b7b81611b39565b8114611b85575f80fd5b50565b5f81359050611b9681611b72565b92915050565b5f8060408385031215611bb257611bb1611957565b5b5f611bbf85828601611b88565b9250506020611bd085828601611adb565b9150509250929050565b5f805f60608486031215611bf157611bf0611957565b5b5f611bfe86828701611b88565b9350506020611c0f86828701611b88565b9250506040611c2086828701611adb565b9150509250925092565b5f60208284031215611c3f57611c3e611957565b5b5f611c4c84828501611b88565b91505092915050565b611c5e81611abc565b82525050565b5f602082019050611c775f830184611c55565b92915050565b611c8681611b39565b82525050565b5f819050919050565b5f611caf611caa611ca584611b1a565b611c8c565b611b1a565b9050919050565b5f611cc082611c95565b9050919050565b5f611cd182611cb6565b9050919050565b611ce181611cc7565b82525050565b611cf081611abc565b82525050565b611cff816119df565b82525050565b608082015f820151611d195f850182611c7d565b506020820151611d2c6020850182611cd8565b506040820151611d3f6040850182611ce7565b506060820151611d526060850182611cf6565b50505050565b5f608082019050611d6b5f830184611d05565b92915050565b611d7a816119df565b8114611d84575f80fd5b50565b5f81359050611d9581611d71565b92915050565b5f8060408385031215611db157611db0611957565b5b5f611dbe85828601611b88565b9250506020611dcf85828601611d87565b9150509250929050565b5f80fd5b5f80fd5b7f4e487b71000000000000000000000000000000000000000000000000000000005f52604160045260245ffd5b611e1782611a54565b810181811067ffffffffffffffff82111715611e3657611e35611de1565b5b80604052505050565b5f611e4861194e565b9050611e548282611e0e565b919050565b5f67ffffffffffffffff821115611e7357611e72611de1565b5b611e7c82611a54565b9050602081019050919050565b828183375f83830152505050565b5f611ea9611ea484611e59565b611e3f565b905082815260208101848484011115611ec557611ec4611ddd565b5b611ed0848285611e89565b509392505050565b5f82601f830112611eec57611eeb611dd9565b5b8135611efc848260208601611e97565b91505092915050565b5f805f8060808587031215611f1d57611f1c611957565b5b5f611f2a87828801611b88565b9450506020611f3b87828801611b88565b9350506040611f4c87828801611adb565b925050606085013567ffffffffffffffff811115611f6d57611f6c61195b565b5b611f7987828801611ed8565b91505092959194509250565b5f8060408385031215611f9b57611f9a611957565b5b5f611fa885828601611b88565b9250506020611fb985828601611b88565b9150509250929050565b7f4e487b71000000000000000000000000000000000000000000000000000000005f52602260045260245ffd5b5f600282049050600182168061200757607f821691505b60208210810361201a57612019611fc3565b5b50919050565b5f6060820190506120335f830186611b4a565b6120406020830185611c55565b61204d6040830184611b4a565b949350505050565b5f81905092915050565b5f61206982611a12565b6120738185612055565b9350612083818560208601611a2c565b80840191505092915050565b5f61209a828561205f565b91506120a6828461205f565b91508190509392505050565b5f81519050919050565b5f82825260208201905092915050565b5f6120d6826120b2565b6120e081856120bc565b93506120f0818560208601611a2c565b6120f981611a54565b840191505092915050565b5f6080820190506121175f830187611b4a565b6121246020830186611b4a565b6121316040830185611c55565b818103606083015261214381846120cc565b905095945050505050565b5f8151905061215c8161198a565b92915050565b5f6020828403121561217757612176611957565b5b5f6121848482850161214e565b91505092915050565b7f4e487b71000000000000000000000000000000000000000000000000000000005f52601260045260245ffd5b5f6040820190506121cd5f830185611b4a565b6121da6020830184611c55565b939250505056fea2646970667358221220038e326ee7ea47c0d58867f51e45bfa898c556b0a05c25707ca4d4572479c82f64736f6c63430008140033a264697066735822122000eb4e1a0d93295035e9366f3c700f705693678fa25352601df569208f087d4964736f6c63430008140033a2646970667358221220e6598e095cc9a7f56e020bbd024bef20ba006aca39d7f41b34b99c0cf7f72cbf64736f6c63430008140033",
			"opcodes": "PUSH1 0x80 PUSH1 0x40 MSTORE CALLVALUE DUP1 ISZERO PUSH2 0xF JUMPI PUSH0 DUP1 REVERT JUMPDEST POP PUSH2 0x4E8F DUP1 PUSH2 0x1D PUSH0 CODECOPY PUSH0 RETURN INVALID PUSH1 0x80 PUSH1 0x40 MSTORE CALLVALUE DUP1 ISZERO PUSH3 0x10 JUMPI PUSH0 DUP1 REVERT JUMPDEST POP PUSH1 0x4 CALLDATASIZE LT PUSH3 0x92 JUMPI PUSH0 CALLDATALOAD PUSH1 0xE0 SHR DUP1 PUSH4 0x8C57A24E GT PUSH3 0x61 JUMPI DUP1 PUSH4 0x8C57A24E EQ PUSH3 0x146 JUMPI DUP1 PUSH4 0xC56E0DDE EQ PUSH3 0x17C JUMPI DUP1 PUSH4 0xEFAC2AE5 EQ PUSH3 0x19C JUMPI DUP1 PUSH4 0xFE9E90D6 EQ PUSH3 0x1BC JUMPI PUSH3 0x92 JUMP JUMPDEST DUP1 PUSH4 0x4026B3B7 EQ PUSH3 0x96 JUMPI DUP1 PUSH4 0x4EEF150D EQ PUSH3 0xCC JUMPI DUP1 PUSH4 0x5EB4A02B EQ PUSH3 0xEE JUMPI DUP1 PUSH4 0x722B6F80 EQ PUSH3 0x110 JUMPI JUMPDEST PUSH0 DUP1 REVERT JUMPDEST PUSH3 0xB4 PUSH1 0x4 DUP1 CALLDATASIZE SUB DUP2 ADD SWAP1 PUSH3 0xAE SWAP2 SWAP1 PUSH3 0x6FD JUMP JUMPDEST PUSH3 0x1DC JUMP JUMPDEST PUSH1 0x40 MLOAD PUSH3 0xC3 SWAP2 SWAP1 PUSH3 0x7B3 JUMP JUMPDEST PUSH1 0x40 MLOAD DUP1 SWAP2 SUB SWAP1 RETURN JUMPDEST PUSH3 0xD6 PUSH3 0x217 JUMP JUMPDEST PUSH1 0x40 MLOAD PUSH3 0xE5 SWAP2 SWAP1 PUSH3 0x895 JUMP JUMPDEST PUSH1 0x40 MLOAD DUP1 SWAP2 SUB SWAP1 RETURN JUMPDEST PUSH3 0xF8 PUSH3 0x2A3 JUMP JUMPDEST PUSH1 0x40 MLOAD PUSH3 0x107 SWAP2 SWAP1 PUSH3 0x981 JUMP JUMPDEST PUSH1 0x40 MLOAD DUP1 SWAP2 SUB SWAP1 RETURN JUMPDEST PUSH3 0x12E PUSH1 0x4 DUP1 CALLDATASIZE SUB DUP2 ADD SWAP1 PUSH3 0x128 SWAP2 SWAP1 PUSH3 0x6FD JUMP JUMPDEST PUSH3 0x330 JUMP JUMPDEST PUSH1 0x40 MLOAD PUSH3 0x13D SWAP2 SWAP1 PUSH3 0x9B4 JUMP JUMPDEST PUSH1 0x40 MLOAD DUP1 SWAP2 SUB SWAP1 RETURN JUMPDEST PUSH3 0x164 PUSH1 0x4 DUP1 CALLDATASIZE SUB DUP2 ADD SWAP1 PUSH3 0x15E SWAP2 SWAP1 PUSH3 0xA11 JUMP JUMPDEST PUSH3 0x36C JUMP JUMPDEST PUSH1 0x40 MLOAD PUSH3 0x173 SWAP2 SWAP1 PUSH3 0x981 JUMP JUMPDEST PUSH1 0x40 MLOAD DUP1 SWAP2 SUB SWAP1 RETURN JUMPDEST PUSH3 0x19A PUSH1 0x4 DUP1 CALLDATASIZE SUB DUP2 ADD SWAP1 PUSH3 0x194 SWAP2 SWAP1 PUSH3 0xA83 JUMP JUMPDEST PUSH3 0x58E JUMP JUMPDEST STOP JUMPDEST PUSH3 0x1BA PUSH1 0x4 DUP1 CALLDATASIZE SUB DUP2 ADD SWAP1 PUSH3 0x1B4 SWAP2 SWAP1 PUSH3 0xD24 JUMP JUMPDEST PUSH3 0x5F0 JUMP JUMPDEST STOP JUMPDEST PUSH3 0x1DA PUSH1 0x4 DUP1 CALLDATASIZE SUB DUP2 ADD SWAP1 PUSH3 0x1D4 SWAP2 SWAP1 PUSH3 0xE32 JUMP JUMPDEST PUSH3 0x643 JUMP JUMPDEST STOP JUMPDEST PUSH0 DUP2 DUP2 SLOAD DUP2 LT PUSH3 0x1EB JUMPI PUSH0 DUP1 REVERT JUMPDEST SWAP1 PUSH0 MSTORE PUSH1 0x20 PUSH0 KECCAK256 ADD PUSH0 SWAP2 POP SLOAD SWAP1 PUSH2 0x100 EXP SWAP1 DIV PUSH20 0xFFFFFFFFFFFFFFFFFFFFFFFFFFFFFFFFFFFFFFFF AND DUP2 JUMP JUMPDEST PUSH1 0x60 PUSH0 DUP1 SLOAD DUP1 PUSH1 0x20 MUL PUSH1 0x20 ADD PUSH1 0x40 MLOAD SWAP1 DUP2 ADD PUSH1 0x40 MSTORE DUP1 SWAP3 SWAP2 SWAP1 DUP2 DUP2 MSTORE PUSH1 0x20 ADD DUP3 DUP1 SLOAD DUP1 ISZERO PUSH3 0x299 JUMPI PUSH1 0x20 MUL DUP3 ADD SWAP2 SWAP1 PUSH0 MSTORE PUSH1 0x20 PUSH0 KECCAK256 SWAP1 JUMPDEST DUP2 PUSH0 SWAP1 SLOAD SWAP1 PUSH2 0x100 EXP SWAP1 DIV PUSH20 0xFFFFFFFFFFFFFFFFFFFFFFFFFFFFFFFFFFFFFFFF AND PUSH20 0xFFFFFFFFFFFFFFFFFFFFFFFFFFFFFFFFFFFFFFFF AND DUP2 MSTORE PUSH1 0x20 ADD SWAP1 PUSH1 0x1 ADD SWAP1 DUP1 DUP4 GT PUSH3 0x24F JUMPI JUMPDEST POP POP POP POP POP SWAP1 POP SWAP1 JUMP JUMPDEST PUSH1 0x60 PUSH1 0x1 DUP1 SLOAD DUP1 PUSH1 0x20 MUL PUSH1 0x20 ADD PUSH1 0x40 MLOAD SWAP1 DUP2 ADD PUSH1 0x40 MSTORE DUP1 SWAP3 SWAP2 SWAP1 DUP2 DUP2 MSTORE PUSH1 0x20 ADD DUP3 DUP1 SLOAD DUP1 ISZERO PUSH3 0x326 JUMPI PUSH1 0x20 MUL DUP3 ADD SWAP2 SWAP1 PUSH0 MSTORE PUSH1 0x20 PUSH0 KECCAK256 SWAP1 JUMPDEST DUP2 PUSH0 SWAP1 SLOAD SWAP1 PUSH2 0x100 EXP SWAP1 DIV PUSH20 0xFFFFFFFFFFFFFFFFFFFFFFFFFFFFFFFFFFFFFFFF AND PUSH20 0xFFFFFFFFFFFFFFFFFFFFFFFFFFFFFFFFFFFFFFFF AND DUP2 MSTORE PUSH1 0x20 ADD SWAP1 PUSH1 0x1 ADD SWAP1 DUP1 DUP4 GT PUSH3 0x2DC JUMPI JUMPDEST POP POP POP POP POP SWAP1 POP SWAP1 JUMP JUMPDEST PUSH1 0x1 DUP2 DUP2 SLOAD DUP2 LT PUSH3 0x340 JUMPI PUSH0 DUP1 REVERT JUMPDEST SWAP1 PUSH0 MSTORE PUSH1 0x20 PUSH0 KECCAK256 ADD PUSH0 SWAP2 POP SLOAD SWAP1 PUSH2 0x100 EXP SWAP1 DIV PUSH20 0xFFFFFFFFFFFFFFFFFFFFFFFFFFFFFFFFFFFFFFFF AND DUP2 JUMP JUMPDEST PUSH1 0x60 PUSH0 PUSH1 0x1 DUP1 SLOAD SWAP1 POP PUSH8 0xFFFFFFFFFFFFFFFF DUP2 GT ISZERO PUSH3 0x391 JUMPI PUSH3 0x390 PUSH3 0xACB JUMP JUMPDEST JUMPDEST PUSH1 0x40 MLOAD SWAP1 DUP1 DUP3 MSTORE DUP1 PUSH1 0x20 MUL PUSH1 0x20 ADD DUP3 ADD PUSH1 0x40 MSTORE DUP1 ISZERO PUSH3 0x3C0 JUMPI DUP2 PUSH1 0x20 ADD PUSH1 0x20 DUP3 MUL DUP1 CALLDATASIZE DUP4 CALLDATACOPY DUP1 DUP3 ADD SWAP2 POP POP SWAP1 POP JUMPDEST POP SWAP1 POP PUSH0 DUP1 JUMPDEST PUSH1 0x1 DUP1 SLOAD SWAP1 POP DUP2 PUSH4 0xFFFFFFFF AND LT ISZERO PUSH3 0x583 JUMPI DUP5 PUSH20 0xFFFFFFFFFFFFFFFFFFFFFFFFFFFFFFFFFFFFFFFF AND PUSH1 0x1 DUP3 PUSH4 0xFFFFFFFF AND DUP2 SLOAD DUP2 LT PUSH3 0x40E JUMPI PUSH3 0x40D PUSH3 0xE62 JUMP JUMPDEST JUMPDEST SWAP1 PUSH0 MSTORE PUSH1 0x20 PUSH0 KECCAK256 ADD PUSH0 SWAP1 SLOAD SWAP1 PUSH2 0x100 EXP SWAP1 DIV PUSH20 0xFFFFFFFFFFFFFFFFFFFFFFFFFFFFFFFFFFFFFFFF AND PUSH20 0xFFFFFFFFFFFFFFFFFFFFFFFFFFFFFFFFFFFFFFFF AND PUSH4 0x8DA5CB5B PUSH1 0x40 MLOAD DUP2 PUSH4 0xFFFFFFFF AND PUSH1 0xE0 SHL DUP2 MSTORE PUSH1 0x4 ADD PUSH1 0x20 PUSH1 0x40 MLOAD DUP1 DUP4 SUB DUP2 DUP7 GAS STATICCALL ISZERO DUP1 ISZERO PUSH3 0x47F JUMPI RETURNDATASIZE PUSH0 DUP1 RETURNDATACOPY RETURNDATASIZE PUSH0 REVERT JUMPDEST POP POP POP POP PUSH1 0x40 MLOAD RETURNDATASIZE PUSH1 0x1F NOT PUSH1 0x1F DUP3 ADD AND DUP3 ADD DUP1 PUSH1 0x40 MSTORE POP DUP2 ADD SWAP1 PUSH3 0x4A5 SWAP2 SWAP1 PUSH3 0xEA5 JUMP JUMPDEST PUSH20 0xFFFFFFFFFFFFFFFFFFFFFFFFFFFFFFFFFFFFFFFF AND SUB PUSH3 0x56D JUMPI PUSH1 0x1 DUP2 PUSH4 0xFFFFFFFF AND DUP2 SLOAD DUP2 LT PUSH3 0x4DE JUMPI PUSH3 0x4DD PUSH3 0xE62 JUMP JUMPDEST JUMPDEST SWAP1 PUSH0 MSTORE PUSH1 0x20 PUSH0 KECCAK256 ADD PUSH0 SWAP1 SLOAD SWAP1 PUSH2 0x100 EXP SWAP1 DIV PUSH20 0xFFFFFFFFFFFFFFFFFFFFFFFFFFFFFFFFFFFFFFFF AND DUP4 DUP4 PUSH4 0xFFFFFFFF AND DUP2 MLOAD DUP2 LT PUSH3 0x522 JUMPI PUSH3 0x521 PUSH3 0xE62 JUMP JUMPDEST JUMPDEST PUSH1 0x20 MUL PUSH1 0x20 ADD ADD SWAP1 PUSH20 0xFFFFFFFFFFFFFFFFFFFFFFFFFFFFFFFFFFFFFFFF AND SWAP1 DUP2 PUSH20 0xFFFFFFFFFFFFFFFFFFFFFFFFFFFFFFFFFFFFFFFF AND DUP2 MSTORE POP POP DUP2 DUP1 PUSH3 0x569 SWAP1 PUSH3 0xF11 JUMP JUMPDEST SWAP3 POP POP JUMPDEST DUP1 DUP1 PUSH3 0x57A SWAP1 PUSH3 0xF11 JUMP JUMPDEST SWAP2 POP POP PUSH3 0x3C6 JUMP JUMPDEST POP DUP2 SWAP3 POP POP POP SWAP2 SWAP1 POP JUMP JUMPDEST PUSH0 DUP2 SWAP1 DUP1 PUSH1 0x1 DUP2 SLOAD ADD DUP1 DUP3 SSTORE DUP1 SWAP2 POP POP PUSH1 0x1 SWAP1 SUB SWAP1 PUSH0 MSTORE PUSH1 0x20 PUSH0 KECCAK256 ADD PUSH0 SWAP1 SWAP2 SWAP1 SWAP2 SWAP1 SWAP2 PUSH2 0x100 EXP DUP2 SLOAD DUP2 PUSH20 0xFFFFFFFFFFFFFFFFFFFFFFFFFFFFFFFFFFFFFFFF MUL NOT AND SWAP1 DUP4 PUSH20 0xFFFFFFFFFFFFFFFFFFFFFFFFFFFFFFFFFFFFFFFF AND MUL OR SWAP1 SSTORE POP POP JUMP JUMPDEST PUSH0 DUP5 DUP5 DUP5 DUP5 ADDRESS PUSH1 0x40 MLOAD PUSH3 0x604 SWAP1 PUSH3 0x6A6 JUMP JUMPDEST PUSH3 0x614 SWAP6 SWAP5 SWAP4 SWAP3 SWAP2 SWAP1 PUSH3 0x10B1 JUMP JUMPDEST PUSH1 0x40 MLOAD DUP1 SWAP2 SUB SWAP1 PUSH0 CREATE DUP1 ISZERO DUP1 ISZERO PUSH3 0x62E JUMPI RETURNDATASIZE PUSH0 DUP1 RETURNDATACOPY RETURNDATASIZE PUSH0 REVERT JUMPDEST POP SWAP1 POP PUSH3 0x63C DUP2 PUSH3 0x58E JUMP JUMPDEST POP POP POP POP POP JUMP JUMPDEST PUSH1 0x1 DUP2 SWAP1 DUP1 PUSH1 0x1 DUP2 SLOAD ADD DUP1 DUP3 SSTORE DUP1 SWAP2 POP POP PUSH1 0x1 SWAP1 SUB SWAP1 PUSH0 MSTORE PUSH1 0x20 PUSH0 KECCAK256 ADD PUSH0 SWAP1 SWAP2 SWAP1 SWAP2 SWAP1 SWAP2 PUSH2 0x100 EXP DUP2 SLOAD DUP2 PUSH20 0xFFFFFFFFFFFFFFFFFFFFFFFFFFFFFFFFFFFFFFFF MUL NOT AND SWAP1 DUP4 PUSH20 0xFFFFFFFFFFFFFFFFFFFFFFFFFFFFFFFFFFFFFFFF AND MUL OR SWAP1 SSTORE POP POP JUMP JUMPDEST PUSH2 0x3D38 DUP1 PUSH3 0x1122 DUP4 CODECOPY ADD SWAP1 JUMP JUMPDEST PUSH0 PUSH1 0x40 MLOAD SWAP1 POP SWAP1 JUMP JUMPDEST PUSH0 DUP1 REVERT JUMPDEST PUSH0 DUP1 REVERT JUMPDEST PUSH0 DUP2 SWAP1 POP SWAP2 SWAP1 POP JUMP JUMPDEST PUSH3 0x6D9 DUP2 PUSH3 0x6C5 JUMP JUMPDEST DUP2 EQ PUSH3 0x6E4 JUMPI PUSH0 DUP1 REVERT JUMPDEST POP JUMP JUMPDEST PUSH0 DUP2 CALLDATALOAD SWAP1 POP PUSH3 0x6F7 DUP2 PUSH3 0x6CE JUMP JUMPDEST SWAP3 SWAP2 POP POP JUMP JUMPDEST PUSH0 PUSH1 0x20 DUP3 DUP5 SUB SLT ISZERO PUSH3 0x715 JUMPI PUSH3 0x714 PUSH3 0x6BD JUMP JUMPDEST JUMPDEST PUSH0 PUSH3 0x724 DUP5 DUP3 DUP6 ADD PUSH3 0x6E7 JUMP JUMPDEST SWAP2 POP POP SWAP3 SWAP2 POP POP JUMP JUMPDEST PUSH0 PUSH20 0xFFFFFFFFFFFFFFFFFFFFFFFFFFFFFFFFFFFFFFFF DUP3 AND SWAP1 POP SWAP2 SWAP1 POP JUMP JUMPDEST PUSH0 DUP2 SWAP1 POP SWAP2 SWAP1 POP JUMP JUMPDEST PUSH0 PUSH3 0x775 PUSH3 0x76F PUSH3 0x769 DUP5 PUSH3 0x72D JUMP JUMPDEST PUSH3 0x74C JUMP JUMPDEST PUSH3 0x72D JUMP JUMPDEST SWAP1 POP SWAP2 SWAP1 POP JUMP JUMPDEST PUSH0 PUSH3 0x788 DUP3 PUSH3 0x755 JUMP JUMPDEST SWAP1 POP SWAP2 SWAP1 POP JUMP JUMPDEST PUSH0 PUSH3 0x79B DUP3 PUSH3 0x77C JUMP JUMPDEST SWAP1 POP SWAP2 SWAP1 POP JUMP JUMPDEST PUSH3 0x7AD DUP2 PUSH3 0x78F JUMP JUMPDEST DUP3 MSTORE POP POP JUMP JUMPDEST PUSH0 PUSH1 0x20 DUP3 ADD SWAP1 POP PUSH3 0x7C8 PUSH0 DUP4 ADD DUP5 PUSH3 0x7A2 JUMP JUMPDEST SWAP3 SWAP2 POP POP JUMP JUMPDEST PUSH0 DUP2 MLOAD SWAP1 POP SWAP2 SWAP1 POP JUMP JUMPDEST PUSH0 DUP3 DUP3 MSTORE PUSH1 0x20 DUP3 ADD SWAP1 POP SWAP3 SWAP2 POP POP JUMP JUMPDEST PUSH0 DUP2 SWAP1 POP PUSH1 0x20 DUP3 ADD SWAP1 POP SWAP2 SWAP1 POP JUMP JUMPDEST PUSH3 0x802 DUP2 PUSH3 0x78F JUMP JUMPDEST DUP3 MSTORE POP POP JUMP JUMPDEST PUSH0 PUSH3 0x815 DUP4 DUP4 PUSH3 0x7F7 JUMP JUMPDEST PUSH1 0x20 DUP4 ADD SWAP1 POP SWAP3 SWAP2 POP POP JUMP JUMPDEST PUSH0 PUSH1 0x20 DUP3 ADD SWAP1 POP SWAP2 SWAP1 POP JUMP JUMPDEST PUSH0 PUSH3 0x839 DUP3 PUSH3 0x7CE JUMP JUMPDEST PUSH3 0x845 DUP2 DUP6 PUSH3 0x7D8 JUMP JUMPDEST SWAP4 POP PUSH3 0x852 DUP4 PUSH3 0x7E8 JUMP JUMPDEST DUP1 PUSH0 JUMPDEST DUP4 DUP2 LT ISZERO PUSH3 0x888 JUMPI DUP2 MLOAD PUSH3 0x86C DUP9 DUP3 PUSH3 0x808 JUMP JUMPDEST SWAP8 POP PUSH3 0x879 DUP4 PUSH3 0x821 JUMP JUMPDEST SWAP3 POP POP PUSH1 0x1 DUP2 ADD SWAP1 POP PUSH3 0x855 JUMP JUMPDEST POP DUP6 SWAP4 POP POP POP POP SWAP3 SWAP2 POP POP JUMP JUMPDEST PUSH0 PUSH1 0x20 DUP3 ADD SWAP1 POP DUP2 DUP2 SUB PUSH0 DUP4 ADD MSTORE PUSH3 0x8AF DUP2 DUP5 PUSH3 0x82D JUMP JUMPDEST SWAP1 POP SWAP3 SWAP2 POP POP JUMP JUMPDEST PUSH0 DUP2 MLOAD SWAP1 POP SWAP2 SWAP1 POP JUMP JUMPDEST PUSH0 DUP2 SWAP1 POP PUSH1 0x20 DUP3 ADD SWAP1 POP SWAP2 SWAP1 POP JUMP JUMPDEST PUSH0 PUSH3 0x8DC DUP3 PUSH3 0x77C JUMP JUMPDEST SWAP1 POP SWAP2 SWAP1 POP JUMP JUMPDEST PUSH3 0x8EE DUP2 PUSH3 0x8D0 JUMP JUMPDEST DUP3 MSTORE POP POP JUMP JUMPDEST PUSH0 PUSH3 0x901 DUP4 DUP4 PUSH3 0x8E3 JUMP JUMPDEST PUSH1 0x20 DUP4 ADD SWAP1 POP SWAP3 SWAP2 POP POP JUMP JUMPDEST PUSH0 PUSH1 0x20 DUP3 ADD SWAP1 POP SWAP2 SWAP1 POP JUMP JUMPDEST PUSH0 PUSH3 0x925 DUP3 PUSH3 0x8B7 JUMP JUMPDEST PUSH3 0x931 DUP2 DUP6 PUSH3 0x7D8 JUMP JUMPDEST SWAP4 POP PUSH3 0x93E DUP4 PUSH3 0x8C1 JUMP JUMPDEST DUP1 PUSH0 JUMPDEST DUP4 DUP2 LT ISZERO PUSH3 0x974 JUMPI DUP2 MLOAD PUSH3 0x958 DUP9 DUP3 PUSH3 0x8F4 JUMP JUMPDEST SWAP8 POP PUSH3 0x965 DUP4 PUSH3 0x90D JUMP JUMPDEST SWAP3 POP POP PUSH1 0x1 DUP2 ADD SWAP1 POP PUSH3 0x941 JUMP JUMPDEST POP DUP6 SWAP4 POP POP POP POP SWAP3 SWAP2 POP POP JUMP JUMPDEST PUSH0 PUSH1 0x20 DUP3 ADD SWAP1 POP DUP2 DUP2 SUB PUSH0 DUP4 ADD MSTORE PUSH3 0x99B DUP2 DUP5 PUSH3 0x919 JUMP JUMPDEST SWAP1 POP SWAP3 SWAP2 POP POP JUMP JUMPDEST PUSH3 0x9AE DUP2 PUSH3 0x8D0 JUMP JUMPDEST DUP3 MSTORE POP POP JUMP JUMPDEST PUSH0 PUSH1 0x20 DUP3 ADD SWAP1 POP PUSH3 0x9C9 PUSH0 DUP4 ADD DUP5 PUSH3 0x9A3 JUMP JUMPDEST SWAP3 SWAP2 POP POP JUMP JUMPDEST PUSH0 PUSH3 0x9DB DUP3 PUSH3 0x72D JUMP JUMPDEST SWAP1 POP SWAP2 SWAP1 POP JUMP JUMPDEST PUSH3 0x9ED DUP2 PUSH3 0x9CF JUMP JUMPDEST DUP2 EQ PUSH3 0x9F8 JUMPI PUSH0 DUP1 REVERT JUMPDEST POP JUMP JUMPDEST PUSH0 DUP2 CALLDATALOAD SWAP1 POP PUSH3 0xA0B DUP2 PUSH3 0x9E2 JUMP JUMPDEST SWAP3 SWAP2 POP POP JUMP JUMPDEST PUSH0 PUSH1 0x20 DUP3 DUP5 SUB SLT ISZERO PUSH3 0xA29 JUMPI PUSH3 0xA28 PUSH3 0x6BD JUMP JUMPDEST JUMPDEST PUSH0 PUSH3 0xA38 DUP5 DUP3 DUP6 ADD PUSH3 0x9FB JUMP JUMPDEST SWAP2 POP POP SWAP3 SWAP2 POP POP JUMP JUMPDEST PUSH0 PUSH3 0xA4D DUP3 PUSH3 0x9CF JUMP JUMPDEST SWAP1 POP SWAP2 SWAP1 POP JUMP JUMPDEST PUSH3 0xA5F DUP2 PUSH3 0xA41 JUMP JUMPDEST DUP2 EQ PUSH3 0xA6A JUMPI PUSH0 DUP1 REVERT JUMPDEST POP JUMP JUMPDEST PUSH0 DUP2 CALLDATALOAD SWAP1 POP PUSH3 0xA7D DUP2 PUSH3 0xA54 JUMP JUMPDEST SWAP3 SWAP2 POP POP JUMP JUMPDEST PUSH0 PUSH1 0x20 DUP3 DUP5 SUB SLT ISZERO PUSH3 0xA9B JUMPI PUSH3 0xA9A PUSH3 0x6BD JUMP JUMPDEST JUMPDEST PUSH0 PUSH3 0xAAA DUP5 DUP3 DUP6 ADD PUSH3 0xA6D JUMP JUMPDEST SWAP2 POP POP SWAP3 SWAP2 POP POP JUMP JUMPDEST PUSH0 DUP1 REVERT JUMPDEST PUSH0 DUP1 REVERT JUMPDEST PUSH0 PUSH1 0x1F NOT PUSH1 0x1F DUP4 ADD AND SWAP1 POP SWAP2 SWAP1 POP JUMP JUMPDEST PUSH32 0x4E487B7100000000000000000000000000000000000000000000000000000000 PUSH0 MSTORE PUSH1 0x41 PUSH1 0x4 MSTORE PUSH1 0x24 PUSH0 REVERT JUMPDEST PUSH3 0xB03 DUP3 PUSH3 0xABB JUMP JUMPDEST DUP2 ADD DUP2 DUP2 LT PUSH8 0xFFFFFFFFFFFFFFFF DUP3 GT OR ISZERO PUSH3 0xB25 JUMPI PUSH3 0xB24 PUSH3 0xACB JUMP JUMPDEST JUMPDEST DUP1 PUSH1 0x40 MSTORE POP POP POP JUMP JUMPDEST PUSH0 PUSH3 0xB39 PUSH3 0x6B4 JUMP JUMPDEST SWAP1 POP PUSH3 0xB47 DUP3 DUP3 PUSH3 0xAF8 JUMP JUMPDEST SWAP2 SWAP1 POP JUMP JUMPDEST PUSH0 PUSH8 0xFFFFFFFFFFFFFFFF DUP3 GT ISZERO PUSH3 0xB69 JUMPI PUSH3 0xB68 PUSH3 0xACB JUMP JUMPDEST JUMPDEST PUSH3 0xB74 DUP3 PUSH3 0xABB JUMP JUMPDEST SWAP1 POP PUSH1 0x20 DUP2 ADD SWAP1 POP SWAP2 SWAP1 POP JUMP JUMPDEST DUP3 DUP2 DUP4 CALLDATACOPY PUSH0 DUP4 DUP4 ADD MSTORE POP POP POP JUMP JUMPDEST PUSH0 PUSH3 0xBA5 PUSH3 0xB9F DUP5 PUSH3 0xB4C JUMP JUMPDEST PUSH3 0xB2E JUMP JUMPDEST SWAP1 POP DUP3 DUP2 MSTORE PUSH1 0x20 DUP2 ADD DUP5 DUP5 DUP5 ADD GT ISZERO PUSH3 0xBC4 JUMPI PUSH3 0xBC3 PUSH3 0xAB7 JUMP JUMPDEST JUMPDEST PUSH3 0xBD1 DUP5 DUP3 DUP6 PUSH3 0xB81 JUMP JUMPDEST POP SWAP4 SWAP3 POP POP POP JUMP JUMPDEST PUSH0 DUP3 PUSH1 0x1F DUP4 ADD SLT PUSH3 0xBF0 JUMPI PUSH3 0xBEF PUSH3 0xAB3 JUMP JUMPDEST JUMPDEST DUP2 CALLDATALOAD PUSH3 0xC02 DUP5 DUP3 PUSH1 0x20 DUP7 ADD PUSH3 0xB8F JUMP JUMPDEST SWAP2 POP POP SWAP3 SWAP2 POP POP JUMP JUMPDEST PUSH0 PUSH8 0xFFFFFFFFFFFFFFFF DUP3 GT ISZERO PUSH3 0xC28 JUMPI PUSH3 0xC27 PUSH3 0xACB JUMP JUMPDEST JUMPDEST PUSH1 0x20 DUP3 MUL SWAP1 POP PUSH1 0x20 DUP2 ADD SWAP1 POP SWAP2 SWAP1 POP JUMP JUMPDEST PUSH0 DUP1 REVERT JUMPDEST PUSH0 PUSH3 0xC49 DUP3 PUSH3 0x9CF JUMP JUMPDEST SWAP1 POP SWAP2 SWAP1 POP JUMP JUMPDEST PUSH3 0xC5B DUP2 PUSH3 0xC3D JUMP JUMPDEST DUP2 EQ PUSH3 0xC66 JUMPI PUSH0 DUP1 REVERT JUMPDEST POP JUMP JUMPDEST PUSH0 DUP2 CALLDATALOAD SWAP1 POP PUSH3 0xC79 DUP2 PUSH3 0xC50 JUMP JUMPDEST SWAP3 SWAP2 POP POP JUMP JUMPDEST PUSH0 PUSH3 0xC95 PUSH3 0xC8F DUP5 PUSH3 0xC0B JUMP JUMPDEST PUSH3 0xB2E JUMP JUMPDEST SWAP1 POP DUP1 DUP4 DUP3 MSTORE PUSH1 0x20 DUP3 ADD SWAP1 POP PUSH1 0x20 DUP5 MUL DUP4 ADD DUP6 DUP2 GT ISZERO PUSH3 0xCBB JUMPI PUSH3 0xCBA PUSH3 0xC39 JUMP JUMPDEST JUMPDEST DUP4 JUMPDEST DUP2 DUP2 LT ISZERO PUSH3 0xCE8 JUMPI DUP1 PUSH3 0xCD3 DUP9 DUP3 PUSH3 0xC69 JUMP JUMPDEST DUP5 MSTORE PUSH1 0x20 DUP5 ADD SWAP4 POP POP PUSH1 0x20 DUP2 ADD SWAP1 POP PUSH3 0xCBD JUMP JUMPDEST POP POP POP SWAP4 SWAP3 POP POP POP JUMP JUMPDEST PUSH0 DUP3 PUSH1 0x1F DUP4 ADD SLT PUSH3 0xD09 JUMPI PUSH3 0xD08 PUSH3 0xAB3 JUMP JUMPDEST JUMPDEST DUP2 CALLDATALOAD PUSH3 0xD1B DUP5 DUP3 PUSH1 0x20 DUP7 ADD PUSH3 0xC7F JUMP JUMPDEST SWAP2 POP POP SWAP3 SWAP2 POP POP JUMP JUMPDEST PUSH0 DUP1 PUSH0 DUP1 PUSH1 0x80 DUP6 DUP8 SUB SLT ISZERO PUSH3 0xD3F JUMPI PUSH3 0xD3E PUSH3 0x6BD JUMP JUMPDEST JUMPDEST PUSH0 DUP6 ADD CALLDATALOAD PUSH8 0xFFFFFFFFFFFFFFFF DUP2 GT ISZERO PUSH3 0xD5F JUMPI PUSH3 0xD5E PUSH3 0x6C1 JUMP JUMPDEST JUMPDEST PUSH3 0xD6D DUP8 DUP3 DUP9 ADD PUSH3 0xBD9 JUMP JUMPDEST SWAP5 POP POP PUSH1 0x20 DUP6 ADD CALLDATALOAD PUSH8 0xFFFFFFFFFFFFFFFF DUP2 GT ISZERO PUSH3 0xD91 JUMPI PUSH3 0xD90 PUSH3 0x6C1 JUMP JUMPDEST JUMPDEST PUSH3 0xD9F DUP8 DUP3 DUP9 ADD PUSH3 0xBD9 JUMP JUMPDEST SWAP4 POP POP PUSH1 0x40 DUP6 ADD CALLDATALOAD PUSH8 0xFFFFFFFFFFFFFFFF DUP2 GT ISZERO PUSH3 0xDC3 JUMPI PUSH3 0xDC2 PUSH3 0x6C1 JUMP JUMPDEST JUMPDEST PUSH3 0xDD1 DUP8 DUP3 DUP9 ADD PUSH3 0xCF2 JUMP JUMPDEST SWAP3 POP POP PUSH1 0x60 PUSH3 0xDE4 DUP8 DUP3 DUP9 ADD PUSH3 0x6E7 JUMP JUMPDEST SWAP2 POP POP SWAP3 SWAP6 SWAP2 SWAP5 POP SWAP3 POP JUMP JUMPDEST PUSH0 PUSH3 0xDFC DUP3 PUSH3 0x9CF JUMP JUMPDEST SWAP1 POP SWAP2 SWAP1 POP JUMP JUMPDEST PUSH3 0xE0E DUP2 PUSH3 0xDF0 JUMP JUMPDEST DUP2 EQ PUSH3 0xE19 JUMPI PUSH0 DUP1 REVERT JUMPDEST POP JUMP JUMPDEST PUSH0 DUP2 CALLDATALOAD SWAP1 POP PUSH3 0xE2C DUP2 PUSH3 0xE03 JUMP JUMPDEST SWAP3 SWAP2 POP POP JUMP JUMPDEST PUSH0 PUSH1 0x20 DUP3 DUP5 SUB SLT ISZERO PUSH3 0xE4A JUMPI PUSH3 0xE49 PUSH3 0x6BD JUMP JUMPDEST JUMPDEST PUSH0 PUSH3 0xE59 DUP5 DUP3 DUP6 ADD PUSH3 0xE1C JUMP JUMPDEST SWAP2 POP POP SWAP3 SWAP2 POP POP JUMP JUMPDEST PUSH32 0x4E487B7100000000000000000000000000000000000000000000000000000000 PUSH0 MSTORE PUSH1 0x32 PUSH1 0x4 MSTORE PUSH1 0x24 PUSH0 REVERT JUMPDEST PUSH0 DUP2 MLOAD SWAP1 POP PUSH3 0xE9F DUP2 PUSH3 0x9E2 JUMP JUMPDEST SWAP3 SWAP2 POP POP JUMP JUMPDEST PUSH0 PUSH1 0x20 DUP3 DUP5 SUB SLT ISZERO PUSH3 0xEBD JUMPI PUSH3 0xEBC PUSH3 0x6BD JUMP JUMPDEST JUMPDEST PUSH0 PUSH3 0xECC DUP5 DUP3 DUP6 ADD PUSH3 0xE8F JUMP JUMPDEST SWAP2 POP POP SWAP3 SWAP2 POP POP JUMP JUMPDEST PUSH32 0x4E487B7100000000000000000000000000000000000000000000000000000000 PUSH0 MSTORE PUSH1 0x11 PUSH1 0x4 MSTORE PUSH1 0x24 PUSH0 REVERT JUMPDEST PUSH0 PUSH4 0xFFFFFFFF DUP3 AND SWAP1 POP SWAP2 SWAP1 POP JUMP JUMPDEST PUSH0 PUSH3 0xF1D DUP3 PUSH3 0xF02 JUMP JUMPDEST SWAP2 POP PUSH4 0xFFFFFFFF DUP3 SUB PUSH3 0xF36 JUMPI PUSH3 0xF35 PUSH3 0xED5 JUMP JUMPDEST JUMPDEST PUSH1 0x1 DUP3 ADD SWAP1 POP SWAP2 SWAP1 POP JUMP JUMPDEST PUSH0 DUP2 MLOAD SWAP1 POP SWAP2 SWAP1 POP JUMP JUMPDEST PUSH0 DUP3 DUP3 MSTORE PUSH1 0x20 DUP3 ADD SWAP1 POP SWAP3 SWAP2 POP POP JUMP JUMPDEST PUSH0 JUMPDEST DUP4 DUP2 LT ISZERO PUSH3 0xF7A JUMPI DUP1 DUP3 ADD MLOAD DUP2 DUP5 ADD MSTORE PUSH1 0x20 DUP2 ADD SWAP1 POP PUSH3 0xF5D JUMP JUMPDEST PUSH0 DUP5 DUP5 ADD MSTORE POP POP POP POP JUMP JUMPDEST PUSH0 PUSH3 0xF91 DUP3 PUSH3 0xF41 JUMP JUMPDEST PUSH3 0xF9D DUP2 DUP6 PUSH3 0xF4B JUMP JUMPDEST SWAP4 POP PUSH3 0xFAF DUP2 DUP6 PUSH1 0x20 DUP7 ADD PUSH3 0xF5B JUMP JUMPDEST PUSH3 0xFBA DUP2 PUSH3 0xABB JUMP JUMPDEST DUP5 ADD SWAP2 POP POP SWAP3 SWAP2 POP POP JUMP JUMPDEST PUSH0 DUP2 MLOAD SWAP1 POP SWAP2 SWAP1 POP JUMP JUMPDEST PUSH0 DUP2 SWAP1 POP PUSH1 0x20 DUP3 ADD SWAP1 POP SWAP2 SWAP1 POP JUMP JUMPDEST PUSH0 PUSH3 0xFEA DUP3 PUSH3 0x77C JUMP JUMPDEST SWAP1 POP SWAP2 SWAP1 POP JUMP JUMPDEST PUSH3 0xFFC DUP2 PUSH3 0xFDE JUMP JUMPDEST DUP3 MSTORE POP POP JUMP JUMPDEST PUSH0 PUSH3 0x100F DUP4 DUP4 PUSH3 0xFF1 JUMP JUMPDEST PUSH1 0x20 DUP4 ADD SWAP1 POP SWAP3 SWAP2 POP POP JUMP JUMPDEST PUSH0 PUSH1 0x20 DUP3 ADD SWAP1 POP SWAP2 SWAP1 POP JUMP JUMPDEST PUSH0 PUSH3 0x1033 DUP3 PUSH3 0xFC5 JUMP JUMPDEST PUSH3 0x103F DUP2 DUP6 PUSH3 0x7D8 JUMP JUMPDEST SWAP4 POP PUSH3 0x104C DUP4 PUSH3 0xFCF JUMP JUMPDEST DUP1 PUSH0 JUMPDEST DUP4 DUP2 LT ISZERO PUSH3 0x1082 JUMPI DUP2 MLOAD PUSH3 0x1066 DUP9 DUP3 PUSH3 0x1002 JUMP JUMPDEST SWAP8 POP PUSH3 0x1073 DUP4 PUSH3 0x101B JUMP JUMPDEST SWAP3 POP POP PUSH1 0x1 DUP2 ADD SWAP1 POP PUSH3 0x104F JUMP JUMPDEST POP DUP6 SWAP4 POP POP POP POP SWAP3 SWAP2 POP POP JUMP JUMPDEST PUSH3 0x109A DUP2 PUSH3 0x6C5 JUMP JUMPDEST DUP3 MSTORE POP POP JUMP JUMPDEST PUSH3 0x10AB DUP2 PUSH3 0x9CF JUMP JUMPDEST DUP3 MSTORE POP POP JUMP JUMPDEST PUSH0 PUSH1 0xA0 DUP3 ADD SWAP1 POP DUP2 DUP2 SUB PUSH0 DUP4 ADD MSTORE PUSH3 0x10CB DUP2 DUP9 PUSH3 0xF85 JUMP JUMPDEST SWAP1 POP DUP2 DUP2 SUB PUSH1 0x20 DUP4 ADD MSTORE PUSH3 0x10E1 DUP2 DUP8 PUSH3 0xF85 JUMP JUMPDEST SWAP1 POP DUP2 DUP2 SUB PUSH1 0x40 DUP4 ADD MSTORE PUSH3 0x10F7 DUP2 DUP7 PUSH3 0x1027 JUMP JUMPDEST SWAP1 POP PUSH3 0x1108 PUSH1 0x60 DUP4 ADD DUP6 PUSH3 0x108F JUMP JUMPDEST PUSH3 0x1117 PUSH1 0x80 DUP4 ADD DUP5 PUSH3 0x10A0 JUMP JUMPDEST SWAP7 SWAP6 POP POP POP POP POP POP JUMP INVALID PUSH1 0x80 PUSH1 0x40 MSTORE CALLVALUE DUP1 ISZERO PUSH3 0x10 JUMPI PUSH0 DUP1 REVERT JUMPDEST POP PUSH1 0x40 MLOAD PUSH3 0x3D38 CODESIZE SUB DUP1 PUSH3 0x3D38 DUP4 CODECOPY DUP2 DUP2 ADD PUSH1 0x40 MSTORE DUP2 ADD SWAP1 PUSH3 0x36 SWAP2 SWAP1 PUSH3 0x52F JUMP JUMPDEST DUP5 PUSH0 SWAP1 DUP2 PUSH3 0x46 SWAP2 SWAP1 PUSH3 0x83E JUMP JUMPDEST POP DUP4 PUSH1 0x1 SWAP1 DUP2 PUSH3 0x58 SWAP2 SWAP1 PUSH3 0x83E JUMP JUMPDEST POP DUP3 PUSH1 0x2 SWAP1 DUP1 MLOAD SWAP1 PUSH1 0x20 ADD SWAP1 PUSH3 0x71 SWAP3 SWAP2 SWAP1 PUSH3 0x14F JUMP JUMPDEST POP DUP2 PUSH1 0x3 DUP2 SWAP1 SSTORE POP DUP1 PUSH1 0x4 PUSH0 PUSH2 0x100 EXP DUP2 SLOAD DUP2 PUSH20 0xFFFFFFFFFFFFFFFFFFFFFFFFFFFFFFFFFFFFFFFF MUL NOT AND SWAP1 DUP4 PUSH20 0xFFFFFFFFFFFFFFFFFFFFFFFFFFFFFFFFFFFFFFFF AND MUL OR SWAP1 SSTORE POP PUSH1 0x4 PUSH0 SWAP1 SLOAD SWAP1 PUSH2 0x100 EXP SWAP1 DIV PUSH20 0xFFFFFFFFFFFFFFFFFFFFFFFFFFFFFFFFFFFFFFFF AND PUSH20 0xFFFFFFFFFFFFFFFFFFFFFFFFFFFFFFFFFFFFFFFF AND PUSH4 0xC56E0DDE ADDRESS PUSH1 0x40 MLOAD DUP3 PUSH4 0xFFFFFFFF AND PUSH1 0xE0 SHL DUP2 MSTORE PUSH1 0x4 ADD PUSH3 0x115 SWAP2 SWAP1 PUSH3 0x980 JUMP JUMPDEST PUSH0 PUSH1 0x40 MLOAD DUP1 DUP4 SUB DUP2 PUSH0 DUP8 DUP1 EXTCODESIZE ISZERO DUP1 ISZERO PUSH3 0x12D JUMPI PUSH0 DUP1 REVERT JUMPDEST POP GAS CALL ISZERO DUP1 ISZERO PUSH3 0x140 JUMPI RETURNDATASIZE PUSH0 DUP1 RETURNDATACOPY RETURNDATASIZE PUSH0 REVERT JUMPDEST POP POP POP POP POP POP POP POP POP PUSH3 0x99B JUMP JUMPDEST DUP3 DUP1 SLOAD DUP3 DUP3 SSTORE SWAP1 PUSH0 MSTORE PUSH1 0x20 PUSH0 KECCAK256 SWAP1 DUP2 ADD SWAP3 DUP3 ISZERO PUSH3 0x1C8 JUMPI SWAP2 PUSH1 0x20 MUL DUP3 ADD JUMPDEST DUP3 DUP2 GT ISZERO PUSH3 0x1C7 JUMPI DUP3 MLOAD DUP3 PUSH0 PUSH2 0x100 EXP DUP2 SLOAD DUP2 PUSH20 0xFFFFFFFFFFFFFFFFFFFFFFFFFFFFFFFFFFFFFFFF MUL NOT AND SWAP1 DUP4 PUSH20 0xFFFFFFFFFFFFFFFFFFFFFFFFFFFFFFFFFFFFFFFF AND MUL OR SWAP1 SSTORE POP SWAP2 PUSH1 0x20 ADD SWAP2 SWAP1 PUSH1 0x1 ADD SWAP1 PUSH3 0x16E JUMP JUMPDEST JUMPDEST POP SWAP1 POP PUSH3 0x1D7 SWAP2 SWAP1 PUSH3 0x1DB JUMP JUMPDEST POP SWAP1 JUMP JUMPDEST JUMPDEST DUP1 DUP3 GT ISZERO PUSH3 0x1F4 JUMPI PUSH0 DUP2 PUSH0 SWAP1 SSTORE POP PUSH1 0x1 ADD PUSH3 0x1DC JUMP JUMPDEST POP SWAP1 JUMP JUMPDEST PUSH0 PUSH1 0x40 MLOAD SWAP1 POP SWAP1 JUMP JUMPDEST PUSH0 DUP1 REVERT JUMPDEST PUSH0 DUP1 REVERT JUMPDEST PUSH0 DUP1 REVERT JUMPDEST PUSH0 DUP1 REVERT JUMPDEST PUSH0 PUSH1 0x1F NOT PUSH1 0x1F DUP4 ADD AND SWAP1 POP SWAP2 SWAP1 POP JUMP JUMPDEST PUSH32 0x4E487B7100000000000000000000000000000000000000000000000000000000 PUSH0 MSTORE PUSH1 0x41 PUSH1 0x4 MSTORE PUSH1 0x24 PUSH0 REVERT JUMPDEST PUSH3 0x259 DUP3 PUSH3 0x211 JUMP JUMPDEST DUP2 ADD DUP2 DUP2 LT PUSH8 0xFFFFFFFFFFFFFFFF DUP3 GT OR ISZERO PUSH3 0x27B JUMPI PUSH3 0x27A PUSH3 0x221 JUMP JUMPDEST JUMPDEST DUP1 PUSH1 0x40 MSTORE POP POP POP JUMP JUMPDEST PUSH0 PUSH3 0x28F PUSH3 0x1F8 JUMP JUMPDEST SWAP1 POP PUSH3 0x29D DUP3 DUP3 PUSH3 0x24E JUMP JUMPDEST SWAP2 SWAP1 POP JUMP JUMPDEST PUSH0 PUSH8 0xFFFFFFFFFFFFFFFF DUP3 GT ISZERO PUSH3 0x2BF JUMPI PUSH3 0x2BE PUSH3 0x221 JUMP JUMPDEST JUMPDEST PUSH3 0x2CA DUP3 PUSH3 0x211 JUMP JUMPDEST SWAP1 POP PUSH1 0x20 DUP2 ADD SWAP1 POP SWAP2 SWAP1 POP JUMP JUMPDEST PUSH0 JUMPDEST DUP4 DUP2 LT ISZERO PUSH3 0x2F6 JUMPI DUP1 DUP3 ADD MLOAD DUP2 DUP5 ADD MSTORE PUSH1 0x20 DUP2 ADD SWAP1 POP PUSH3 0x2D9 JUMP JUMPDEST PUSH0 DUP5 DUP5 ADD MSTORE POP POP POP POP JUMP JUMPDEST PUSH0 PUSH3 0x317 PUSH3 0x311 DUP5 PUSH3 0x2A2 JUMP JUMPDEST PUSH3 0x284 JUMP JUMPDEST SWAP1 POP DUP3 DUP2 MSTORE PUSH1 0x20 DUP2 ADD DUP5 DUP5 DUP5 ADD GT ISZERO PUSH3 0x336 JUMPI PUSH3 0x335 PUSH3 0x20D JUMP JUMPDEST JUMPDEST PUSH3 0x343 DUP5 DUP3 DUP6 PUSH3 0x2D7 JUMP JUMPDEST POP SWAP4 SWAP3 POP POP POP JUMP JUMPDEST PUSH0 DUP3 PUSH1 0x1F DUP4 ADD SLT PUSH3 0x362 JUMPI PUSH3 0x361 PUSH3 0x209 JUMP JUMPDEST JUMPDEST DUP2 MLOAD PUSH3 0x374 DUP5 DUP3 PUSH1 0x20 DUP7 ADD PUSH3 0x301 JUMP JUMPDEST SWAP2 POP POP SWAP3 SWAP2 POP POP JUMP JUMPDEST PUSH0 PUSH8 0xFFFFFFFFFFFFFFFF DUP3 GT ISZERO PUSH3 0x39A JUMPI PUSH3 0x399 PUSH3 0x221 JUMP JUMPDEST JUMPDEST PUSH1 0x20 DUP3 MUL SWAP1 POP PUSH1 0x20 DUP2 ADD SWAP1 POP SWAP2 SWAP1 POP JUMP JUMPDEST PUSH0 DUP1 REVERT JUMPDEST PUSH0 PUSH20 0xFFFFFFFFFFFFFFFFFFFFFFFFFFFFFFFFFFFFFFFF DUP3 AND SWAP1 POP SWAP2 SWAP1 POP JUMP JUMPDEST PUSH0 PUSH3 0x3DA DUP3 PUSH3 0x3AF JUMP JUMPDEST SWAP1 POP SWAP2 SWAP1 POP JUMP JUMPDEST PUSH0 PUSH3 0x3ED DUP3 PUSH3 0x3CE JUMP JUMPDEST SWAP1 POP SWAP2 SWAP1 POP JUMP JUMPDEST PUSH3 0x3FF DUP2 PUSH3 0x3E1 JUMP JUMPDEST DUP2 EQ PUSH3 0x40A JUMPI PUSH0 DUP1 REVERT JUMPDEST POP JUMP JUMPDEST PUSH0 DUP2 MLOAD SWAP1 POP PUSH3 0x41D DUP2 PUSH3 0x3F4 JUMP JUMPDEST SWAP3 SWAP2 POP POP JUMP JUMPDEST PUSH0 PUSH3 0x439 PUSH3 0x433 DUP5 PUSH3 0x37D JUMP JUMPDEST PUSH3 0x284 JUMP JUMPDEST SWAP1 POP DUP1 DUP4 DUP3 MSTORE PUSH1 0x20 DUP3 ADD SWAP1 POP PUSH1 0x20 DUP5 MUL DUP4 ADD DUP6 DUP2 GT ISZERO PUSH3 0x45F JUMPI PUSH3 0x45E PUSH3 0x3AB JUMP JUMPDEST JUMPDEST DUP4 JUMPDEST DUP2 DUP2 LT ISZERO PUSH3 0x48C JUMPI DUP1 PUSH3 0x477 DUP9 DUP3 PUSH3 0x40D JUMP JUMPDEST DUP5 MSTORE PUSH1 0x20 DUP5 ADD SWAP4 POP POP PUSH1 0x20 DUP2 ADD SWAP1 POP PUSH3 0x461 JUMP JUMPDEST POP POP POP SWAP4 SWAP3 POP POP POP JUMP JUMPDEST PUSH0 DUP3 PUSH1 0x1F DUP4 ADD SLT PUSH3 0x4AD JUMPI PUSH3 0x4AC PUSH3 0x209 JUMP JUMPDEST JUMPDEST DUP2 MLOAD PUSH3 0x4BF DUP5 DUP3 PUSH1 0x20 DUP7 ADD PUSH3 0x423 JUMP JUMPDEST SWAP2 POP POP SWAP3 SWAP2 POP POP JUMP JUMPDEST PUSH0 DUP2 SWAP1 POP SWAP2 SWAP1 POP JUMP JUMPDEST PUSH3 0x4DC DUP2 PUSH3 0x4C8 JUMP JUMPDEST DUP2 EQ PUSH3 0x4E7 JUMPI PUSH0 DUP1 REVERT JUMPDEST POP JUMP JUMPDEST PUSH0 DUP2 MLOAD SWAP1 POP PUSH3 0x4FA DUP2 PUSH3 0x4D1 JUMP JUMPDEST SWAP3 SWAP2 POP POP JUMP JUMPDEST PUSH3 0x50B DUP2 PUSH3 0x3CE JUMP JUMPDEST DUP2 EQ PUSH3 0x516 JUMPI PUSH0 DUP1 REVERT JUMPDEST POP JUMP JUMPDEST PUSH0 DUP2 MLOAD SWAP1 POP PUSH3 0x529 DUP2 PUSH3 0x500 JUMP JUMPDEST SWAP3 SWAP2 POP POP JUMP JUMPDEST PUSH0 DUP1 PUSH0 DUP1 PUSH0 PUSH1 0xA0 DUP7 DUP9 SUB SLT ISZERO PUSH3 0x54B JUMPI PUSH3 0x54A PUSH3 0x201 JUMP JUMPDEST JUMPDEST PUSH0 DUP7 ADD MLOAD PUSH8 0xFFFFFFFFFFFFFFFF DUP2 GT ISZERO PUSH3 0x56B JUMPI PUSH3 0x56A PUSH3 0x205 JUMP JUMPDEST JUMPDEST PUSH3 0x579 DUP9 DUP3 DUP10 ADD PUSH3 0x34B JUMP JUMPDEST SWAP6 POP POP PUSH1 0x20 DUP7 ADD MLOAD PUSH8 0xFFFFFFFFFFFFFFFF DUP2 GT ISZERO PUSH3 0x59D JUMPI PUSH3 0x59C PUSH3 0x205 JUMP JUMPDEST JUMPDEST PUSH3 0x5AB DUP9 DUP3 DUP10 ADD PUSH3 0x34B JUMP JUMPDEST SWAP5 POP POP PUSH1 0x40 DUP7 ADD MLOAD PUSH8 0xFFFFFFFFFFFFFFFF DUP2 GT ISZERO PUSH3 0x5CF JUMPI PUSH3 0x5CE PUSH3 0x205 JUMP JUMPDEST JUMPDEST PUSH3 0x5DD DUP9 DUP3 DUP10 ADD PUSH3 0x496 JUMP JUMPDEST SWAP4 POP POP PUSH1 0x60 PUSH3 0x5F0 DUP9 DUP3 DUP10 ADD PUSH3 0x4EA JUMP JUMPDEST SWAP3 POP POP PUSH1 0x80 PUSH3 0x603 DUP9 DUP3 DUP10 ADD PUSH3 0x519 JUMP JUMPDEST SWAP2 POP POP SWAP3 SWAP6 POP SWAP3 SWAP6 SWAP1 SWAP4 POP JUMP JUMPDEST PUSH0 DUP2 MLOAD SWAP1 POP SWAP2 SWAP1 POP JUMP JUMPDEST PUSH32 0x4E487B7100000000000000000000000000000000000000000000000000000000 PUSH0 MSTORE PUSH1 0x22 PUSH1 0x4 MSTORE PUSH1 0x24 PUSH0 REVERT JUMPDEST PUSH0 PUSH1 0x2 DUP3 DIV SWAP1 POP PUSH1 0x1 DUP3 AND DUP1 PUSH3 0x65F JUMPI PUSH1 0x7F DUP3 AND SWAP2 POP JUMPDEST PUSH1 0x20 DUP3 LT DUP2 SUB PUSH3 0x675 JUMPI PUSH3 0x674 PUSH3 0x61A JUMP JUMPDEST JUMPDEST POP SWAP2 SWAP1 POP JUMP JUMPDEST PUSH0 DUP2 SWAP1 POP DUP2 PUSH0 MSTORE PUSH1 0x20 PUSH0 KECCAK256 SWAP1 POP SWAP2 SWAP1 POP JUMP JUMPDEST PUSH0 PUSH1 0x20 PUSH1 0x1F DUP4 ADD DIV SWAP1 POP SWAP2 SWAP1 POP JUMP JUMPDEST PUSH0 DUP3 DUP3 SHL SWAP1 POP SWAP3 SWAP2 POP POP JUMP JUMPDEST PUSH0 PUSH1 0x8 DUP4 MUL PUSH3 0x6D9 PUSH32 0xFFFFFFFFFFFFFFFFFFFFFFFFFFFFFFFFFFFFFFFFFFFFFFFFFFFFFFFFFFFFFFFF DUP3 PUSH3 0x69C JUMP JUMPDEST PUSH3 0x6E5 DUP7 DUP4 PUSH3 0x69C JUMP JUMPDEST SWAP6 POP DUP1 NOT DUP5 AND SWAP4 POP DUP1 DUP7 AND DUP5 OR SWAP3 POP POP POP SWAP4 SWAP3 POP POP POP JUMP JUMPDEST PUSH0 DUP2 SWAP1 POP SWAP2 SWAP1 POP JUMP JUMPDEST PUSH0 PUSH3 0x726 PUSH3 0x720 PUSH3 0x71A DUP5 PUSH3 0x4C8 JUMP JUMPDEST PUSH3 0x6FD JUMP JUMPDEST PUSH3 0x4C8 JUMP JUMPDEST SWAP1 POP SWAP2 SWAP1 POP JUMP JUMPDEST PUSH0 DUP2 SWAP1 POP SWAP2 SWAP1 POP JUMP JUMPDEST PUSH3 0x741 DUP4 PUSH3 0x706 JUMP JUMPDEST PUSH3 0x759 PUSH3 0x750 DUP3 PUSH3 0x72D JUMP JUMPDEST DUP5 DUP5 SLOAD PUSH3 0x6A8 JUMP JUMPDEST DUP3 SSTORE POP POP POP POP JUMP JUMPDEST PUSH0 SWAP1 JUMP JUMPDEST PUSH3 0x76F PUSH3 0x761 JUMP JUMPDEST PUSH3 0x77C DUP2 DUP5 DUP5 PUSH3 0x736 JUMP JUMPDEST POP POP POP JUMP JUMPDEST JUMPDEST DUP2 DUP2 LT ISZERO PUSH3 0x7A3 JUMPI PUSH3 0x797 PUSH0 DUP3 PUSH3 0x765 JUMP JUMPDEST PUSH1 0x1 DUP2 ADD SWAP1 POP PUSH3 0x782 JUMP JUMPDEST POP POP JUMP JUMPDEST PUSH1 0x1F DUP3 GT ISZERO PUSH3 0x7F2 JUMPI PUSH3 0x7BC DUP2 PUSH3 0x67B JUMP JUMPDEST PUSH3 0x7C7 DUP5 PUSH3 0x68D JUMP JUMPDEST DUP2 ADD PUSH1 0x20 DUP6 LT ISZERO PUSH3 0x7D7 JUMPI DUP2 SWAP1 POP JUMPDEST PUSH3 0x7EF PUSH3 0x7E6 DUP6 PUSH3 0x68D JUMP JUMPDEST DUP4 ADD DUP3 PUSH3 0x781 JUMP JUMPDEST POP POP JUMPDEST POP POP POP JUMP JUMPDEST PUSH0 DUP3 DUP3 SHR SWAP1 POP SWAP3 SWAP2 POP POP JUMP JUMPDEST PUSH0 PUSH3 0x814 PUSH0 NOT DUP5 PUSH1 0x8 MUL PUSH3 0x7F7 JUMP JUMPDEST NOT DUP1 DUP4 AND SWAP2 POP POP SWAP3 SWAP2 POP POP JUMP JUMPDEST PUSH0 PUSH3 0x82E DUP4 DUP4 PUSH3 0x803 JUMP JUMPDEST SWAP2 POP DUP3 PUSH1 0x2 MUL DUP3 OR SWAP1 POP SWAP3 SWAP2 POP POP JUMP JUMPDEST PUSH3 0x849 DUP3 PUSH3 0x610 JUMP JUMPDEST PUSH8 0xFFFFFFFFFFFFFFFF DUP2 GT ISZERO PUSH3 0x865 JUMPI PUSH3 0x864 PUSH3 0x221 JUMP JUMPDEST JUMPDEST PUSH3 0x871 DUP3 SLOAD PUSH3 0x647 JUMP JUMPDEST PUSH3 0x87E DUP3 DUP3 DUP6 PUSH3 0x7A7 JUMP JUMPDEST PUSH0 PUSH1 0x20 SWAP1 POP PUSH1 0x1F DUP4 GT PUSH1 0x1 DUP2 EQ PUSH3 0x8B4 JUMPI PUSH0 DUP5 ISZERO PUSH3 0x89F JUMPI DUP3 DUP8 ADD MLOAD SWAP1 POP JUMPDEST PUSH3 0x8AB DUP6 DUP3 PUSH3 0x821 JUMP JUMPDEST DUP7 SSTORE POP PUSH3 0x91A JUMP JUMPDEST PUSH1 0x1F NOT DUP5 AND PUSH3 0x8C4 DUP7 PUSH3 0x67B JUMP JUMPDEST PUSH0 JUMPDEST DUP3 DUP2 LT ISZERO PUSH3 0x8ED JUMPI DUP5 DUP10 ADD MLOAD DUP3 SSTORE PUSH1 0x1 DUP3 ADD SWAP2 POP PUSH1 0x20 DUP6 ADD SWAP5 POP PUSH1 0x20 DUP2 ADD SWAP1 POP PUSH3 0x8C6 JUMP JUMPDEST DUP7 DUP4 LT ISZERO PUSH3 0x90D JUMPI DUP5 DUP10 ADD MLOAD PUSH3 0x909 PUSH1 0x1F DUP10 AND DUP3 PUSH3 0x803 JUMP JUMPDEST DUP4 SSTORE POP JUMPDEST PUSH1 0x1 PUSH1 0x2 DUP9 MUL ADD DUP9 SSTORE POP POP POP JUMPDEST POP POP POP POP POP POP JUMP JUMPDEST PUSH0 PUSH3 0x942 PUSH3 0x93C PUSH3 0x936 DUP5 PUSH3 0x3AF JUMP JUMPDEST PUSH3 0x6FD JUMP JUMPDEST PUSH3 0x3AF JUMP JUMPDEST SWAP1 POP SWAP2 SWAP1 POP JUMP JUMPDEST PUSH0 PUSH3 0x955 DUP3 PUSH3 0x922 JUMP JUMPDEST SWAP1 POP SWAP2 SWAP1 POP JUMP JUMPDEST PUSH0 PUSH3 0x968 DUP3 PUSH3 0x949 JUMP JUMPDEST SWAP1 POP SWAP2 SWAP1 POP JUMP JUMPDEST PUSH3 0x97A DUP2 PUSH3 0x95C JUMP JUMPDEST DUP3 MSTORE POP POP JUMP JUMPDEST PUSH0 PUSH1 0x20 DUP3 ADD SWAP1 POP PUSH3 0x995 PUSH0 DUP4 ADD DUP5 PUSH3 0x96F JUMP JUMPDEST SWAP3 SWAP2 POP POP JUMP JUMPDEST PUSH2 0x338F DUP1 PUSH3 0x9A9 PUSH0 CODECOPY PUSH0 RETURN INVALID PUSH1 0x80 PUSH1 0x40 MSTORE CALLVALUE DUP1 ISZERO PUSH3 0x10 JUMPI PUSH0 DUP1 REVERT JUMPDEST POP PUSH1 0x4 CALLDATASIZE LT PUSH3 0x44 JUMPI PUSH0 CALLDATALOAD PUSH1 0xE0 SHR DUP1 PUSH4 0x5D1F9B6 EQ PUSH3 0x48 JUMPI DUP1 PUSH4 0x61ED7FCE EQ PUSH3 0x54 JUMPI DUP1 PUSH4 0xDB65DBBB EQ PUSH3 0x76 JUMPI JUMPDEST PUSH0 DUP1 REVERT JUMPDEST PUSH3 0x52 PUSH3 0x98 JUMP JUMPDEST STOP JUMPDEST PUSH3 0x5E PUSH3 0x249 JUMP JUMPDEST PUSH1 0x40 MLOAD PUSH3 0x6D SWAP2 SWAP1 PUSH3 0x60F JUMP JUMPDEST PUSH1 0x40 MLOAD DUP1 SWAP2 SUB SWAP1 RETURN JUMPDEST PUSH3 0x80 PUSH3 0x2D6 JUMP JUMPDEST PUSH1 0x40 MLOAD PUSH3 0x8F SWAP2 SWAP1 PUSH3 0x800 JUMP JUMPDEST PUSH1 0x40 MLOAD DUP1 SWAP2 SUB SWAP1 RETURN JUMPDEST PUSH0 PUSH1 0x2 DUP1 SLOAD SWAP1 POP TIMESTAMP CALLER PUSH1 0x2 DUP1 SLOAD SWAP1 POP PUSH1 0x40 MLOAD PUSH1 0x20 ADD PUSH3 0xBB SWAP4 SWAP3 SWAP2 SWAP1 PUSH3 0x8AF JUMP JUMPDEST PUSH1 0x40 MLOAD PUSH1 0x20 DUP2 DUP4 SUB SUB DUP2 MSTORE SWAP1 PUSH1 0x40 MSTORE DUP1 MLOAD SWAP1 PUSH1 0x20 ADD KECCAK256 PUSH0 SHR PUSH3 0xDF SWAP2 SWAP1 PUSH3 0x91E JUMP JUMPDEST SWAP1 POP PUSH0 CALLER PUSH1 0x2 DUP4 DUP2 SLOAD DUP2 LT PUSH3 0xFA JUMPI PUSH3 0xF9 PUSH3 0x955 JUMP JUMPDEST JUMPDEST SWAP1 PUSH0 MSTORE PUSH1 0x20 PUSH0 KECCAK256 ADD PUSH0 SWAP1 SLOAD SWAP1 PUSH2 0x100 EXP SWAP1 DIV PUSH20 0xFFFFFFFFFFFFFFFFFFFFFFFFFFFFFFFFFFFFFFFF AND PUSH1 0x40 MLOAD PUSH3 0x130 SWAP1 PUSH3 0x4A4 JUMP JUMPDEST PUSH3 0x13D SWAP3 SWAP2 SWAP1 PUSH3 0x9A4 JUMP JUMPDEST PUSH1 0x40 MLOAD DUP1 SWAP2 SUB SWAP1 PUSH0 CREATE DUP1 ISZERO DUP1 ISZERO PUSH3 0x157 JUMPI RETURNDATASIZE PUSH0 DUP1 RETURNDATACOPY RETURNDATASIZE PUSH0 REVERT JUMPDEST POP SWAP1 POP PUSH1 0x4 PUSH0 SWAP1 SLOAD SWAP1 PUSH2 0x100 EXP SWAP1 DIV PUSH20 0xFFFFFFFFFFFFFFFFFFFFFFFFFFFFFFFFFFFFFFFF AND PUSH20 0xFFFFFFFFFFFFFFFFFFFFFFFFFFFFFFFFFFFFFFFF AND PUSH4 0xFE9E90D6 DUP3 PUSH1 0x40 MLOAD DUP3 PUSH4 0xFFFFFFFF AND PUSH1 0xE0 SHL DUP2 MSTORE PUSH1 0x4 ADD PUSH3 0x1B6 SWAP2 SWAP1 PUSH3 0x9E0 JUMP JUMPDEST PUSH0 PUSH1 0x40 MLOAD DUP1 DUP4 SUB DUP2 PUSH0 DUP8 DUP1 EXTCODESIZE ISZERO DUP1 ISZERO PUSH3 0x1CE JUMPI PUSH0 DUP1 REVERT JUMPDEST POP GAS CALL ISZERO DUP1 ISZERO PUSH3 0x1E1 JUMPI RETURNDATASIZE PUSH0 DUP1 RETURNDATACOPY RETURNDATASIZE PUSH0 REVERT JUMPDEST POP POP POP POP PUSH1 0x5 DUP2 SWAP1 DUP1 PUSH1 0x1 DUP2 SLOAD ADD DUP1 DUP3 SSTORE DUP1 SWAP2 POP POP PUSH1 0x1 SWAP1 SUB SWAP1 PUSH0 MSTORE PUSH1 0x20 PUSH0 KECCAK256 ADD PUSH0 SWAP1 SWAP2 SWAP1 SWAP2 SWAP1 SWAP2 PUSH2 0x100 EXP DUP2 SLOAD DUP2 PUSH20 0xFFFFFFFFFFFFFFFFFFFFFFFFFFFFFFFFFFFFFFFF MUL NOT AND SWAP1 DUP4 PUSH20 0xFFFFFFFFFFFFFFFFFFFFFFFFFFFFFFFFFFFFFFFF AND MUL OR SWAP1 SSTORE POP POP POP JUMP JUMPDEST PUSH1 0x60 PUSH1 0x5 DUP1 SLOAD DUP1 PUSH1 0x20 MUL PUSH1 0x20 ADD PUSH1 0x40 MLOAD SWAP1 DUP2 ADD PUSH1 0x40 MSTORE DUP1 SWAP3 SWAP2 SWAP1 DUP2 DUP2 MSTORE PUSH1 0x20 ADD DUP3 DUP1 SLOAD DUP1 ISZERO PUSH3 0x2CC JUMPI PUSH1 0x20 MUL DUP3 ADD SWAP2 SWAP1 PUSH0 MSTORE PUSH1 0x20 PUSH0 KECCAK256 SWAP1 JUMPDEST DUP2 PUSH0 SWAP1 SLOAD SWAP1 PUSH2 0x100 EXP SWAP1 DIV PUSH20 0xFFFFFFFFFFFFFFFFFFFFFFFFFFFFFFFFFFFFFFFF AND PUSH20 0xFFFFFFFFFFFFFFFFFFFFFFFFFFFFFFFFFFFFFFFF AND DUP2 MSTORE PUSH1 0x20 ADD SWAP1 PUSH1 0x1 ADD SWAP1 DUP1 DUP4 GT PUSH3 0x282 JUMPI JUMPDEST POP POP POP POP POP SWAP1 POP SWAP1 JUMP JUMPDEST PUSH3 0x2E0 PUSH3 0x4B2 JUMP JUMPDEST PUSH1 0x40 MLOAD DUP1 PUSH1 0x60 ADD PUSH1 0x40 MSTORE DUP1 PUSH0 DUP1 SLOAD PUSH3 0x2F9 SWAP1 PUSH3 0xA28 JUMP JUMPDEST DUP1 PUSH1 0x1F ADD PUSH1 0x20 DUP1 SWAP2 DIV MUL PUSH1 0x20 ADD PUSH1 0x40 MLOAD SWAP1 DUP2 ADD PUSH1 0x40 MSTORE DUP1 SWAP3 SWAP2 SWAP1 DUP2 DUP2 MSTORE PUSH1 0x20 ADD DUP3 DUP1 SLOAD PUSH3 0x327 SWAP1 PUSH3 0xA28 JUMP JUMPDEST DUP1 ISZERO PUSH3 0x376 JUMPI DUP1 PUSH1 0x1F LT PUSH3 0x34C JUMPI PUSH2 0x100 DUP1 DUP4 SLOAD DIV MUL DUP4 MSTORE SWAP2 PUSH1 0x20 ADD SWAP2 PUSH3 0x376 JUMP JUMPDEST DUP3 ADD SWAP2 SWAP1 PUSH0 MSTORE PUSH1 0x20 PUSH0 KECCAK256 SWAP1 JUMPDEST DUP2 SLOAD DUP2 MSTORE SWAP1 PUSH1 0x1 ADD SWAP1 PUSH1 0x20 ADD DUP1 DUP4 GT PUSH3 0x358 JUMPI DUP3 SWAP1 SUB PUSH1 0x1F AND DUP3 ADD SWAP2 JUMPDEST POP POP POP POP POP DUP2 MSTORE PUSH1 0x20 ADD PUSH1 0x1 DUP1 SLOAD PUSH3 0x38F SWAP1 PUSH3 0xA28 JUMP JUMPDEST DUP1 PUSH1 0x1F ADD PUSH1 0x20 DUP1 SWAP2 DIV MUL PUSH1 0x20 ADD PUSH1 0x40 MLOAD SWAP1 DUP2 ADD PUSH1 0x40 MSTORE DUP1 SWAP3 SWAP2 SWAP1 DUP2 DUP2 MSTORE PUSH1 0x20 ADD DUP3 DUP1 SLOAD PUSH3 0x3BD SWAP1 PUSH3 0xA28 JUMP JUMPDEST DUP1 ISZERO PUSH3 0x40C JUMPI DUP1 PUSH1 0x1F LT PUSH3 0x3E2 JUMPI PUSH2 0x100 DUP1 DUP4 SLOAD DIV MUL DUP4 MSTORE SWAP2 PUSH1 0x20 ADD SWAP2 PUSH3 0x40C JUMP JUMPDEST DUP3 ADD SWAP2 SWAP1 PUSH0 MSTORE PUSH1 0x20 PUSH0 KECCAK256 SWAP1 JUMPDEST DUP2 SLOAD DUP2 MSTORE SWAP1 PUSH1 0x1 ADD SWAP1 PUSH1 0x20 ADD DUP1 DUP4 GT PUSH3 0x3EE JUMPI DUP3 SWAP1 SUB PUSH1 0x1F AND DUP3 ADD SWAP2 JUMPDEST POP POP POP POP POP DUP2 MSTORE PUSH1 0x20 ADD PUSH1 0x2 DUP1 SLOAD DUP1 PUSH1 0x20 MUL PUSH1 0x20 ADD PUSH1 0x40 MLOAD SWAP1 DUP2 ADD PUSH1 0x40 MSTORE DUP1 SWAP3 SWAP2 SWAP1 DUP2 DUP2 MSTORE PUSH1 0x20 ADD DUP3 DUP1 SLOAD DUP1 ISZERO PUSH3 0x497 JUMPI PUSH1 0x20 MUL DUP3 ADD SWAP2 SWAP1 PUSH0 MSTORE PUSH1 0x20 PUSH0 KECCAK256 SWAP1 JUMPDEST DUP2 PUSH0 SWAP1 SLOAD SWAP1 PUSH2 0x100 EXP SWAP1 DIV PUSH20 0xFFFFFFFFFFFFFFFFFFFFFFFFFFFFFFFFFFFFFFFF AND PUSH20 0xFFFFFFFFFFFFFFFFFFFFFFFFFFFFFFFFFFFFFFFF AND DUP2 MSTORE PUSH1 0x20 ADD SWAP1 PUSH1 0x1 ADD SWAP1 DUP1 DUP4 GT PUSH3 0x44D JUMPI JUMPDEST POP POP POP POP POP DUP2 MSTORE POP SWAP1 POP SWAP1 JUMP JUMPDEST PUSH2 0x28FD DUP1 PUSH3 0xA5D DUP4 CODECOPY ADD SWAP1 JUMP JUMPDEST PUSH1 0x40 MLOAD DUP1 PUSH1 0x60 ADD PUSH1 0x40 MSTORE DUP1 PUSH1 0x60 DUP2 MSTORE PUSH1 0x20 ADD PUSH1 0x60 DUP2 MSTORE PUSH1 0x20 ADD PUSH1 0x60 DUP2 MSTORE POP SWAP1 JUMP JUMPDEST PUSH0 DUP2 MLOAD SWAP1 POP SWAP2 SWAP1 POP JUMP JUMPDEST PUSH0 DUP3 DUP3 MSTORE PUSH1 0x20 DUP3 ADD SWAP1 POP SWAP3 SWAP2 POP POP JUMP JUMPDEST PUSH0 DUP2 SWAP1 POP PUSH1 0x20 DUP3 ADD SWAP1 POP SWAP2 SWAP1 POP JUMP JUMPDEST PUSH0 PUSH20 0xFFFFFFFFFFFFFFFFFFFFFFFFFFFFFFFFFFFFFFFF DUP3 AND SWAP1 POP SWAP2 SWAP1 POP JUMP JUMPDEST PUSH0 DUP2 SWAP1 POP SWAP2 SWAP1 POP JUMP JUMPDEST PUSH0 PUSH3 0x544 PUSH3 0x53E PUSH3 0x538 DUP5 PUSH3 0x4FC JUMP JUMPDEST PUSH3 0x51B JUMP JUMPDEST PUSH3 0x4FC JUMP JUMPDEST SWAP1 POP SWAP2 SWAP1 POP JUMP JUMPDEST PUSH0 PUSH3 0x557 DUP3 PUSH3 0x524 JUMP JUMPDEST SWAP1 POP SWAP2 SWAP1 POP JUMP JUMPDEST PUSH0 PUSH3 0x56A DUP3 PUSH3 0x54B JUMP JUMPDEST SWAP1 POP SWAP2 SWAP1 POP JUMP JUMPDEST PUSH3 0x57C DUP2 PUSH3 0x55E JUMP JUMPDEST DUP3 MSTORE POP POP JUMP JUMPDEST PUSH0 PUSH3 0x58F DUP4 DUP4 PUSH3 0x571 JUMP JUMPDEST PUSH1 0x20 DUP4 ADD SWAP1 POP SWAP3 SWAP2 POP POP JUMP JUMPDEST PUSH0 PUSH1 0x20 DUP3 ADD SWAP1 POP SWAP2 SWAP1 POP JUMP JUMPDEST PUSH0 PUSH3 0x5B3 DUP3 PUSH3 0x4D3 JUMP JUMPDEST PUSH3 0x5BF DUP2 DUP6 PUSH3 0x4DD JUMP JUMPDEST SWAP4 POP PUSH3 0x5CC DUP4 PUSH3 0x4ED JUMP JUMPDEST DUP1 PUSH0 JUMPDEST DUP4 DUP2 LT ISZERO PUSH3 0x602 JUMPI DUP2 MLOAD PUSH3 0x5E6 DUP9 DUP3 PUSH3 0x582 JUMP JUMPDEST SWAP8 POP PUSH3 0x5F3 DUP4 PUSH3 0x59B JUMP JUMPDEST SWAP3 POP POP PUSH1 0x1 DUP2 ADD SWAP1 POP PUSH3 0x5CF JUMP JUMPDEST POP DUP6 SWAP4 POP POP POP POP SWAP3 SWAP2 POP POP JUMP JUMPDEST PUSH0 PUSH1 0x20 DUP3 ADD SWAP1 POP DUP2 DUP2 SUB PUSH0 DUP4 ADD MSTORE PUSH3 0x629 DUP2 DUP5 PUSH3 0x5A7 JUMP JUMPDEST SWAP1 POP SWAP3 SWAP2 POP POP JUMP JUMPDEST PUSH0 DUP2 MLOAD SWAP1 POP SWAP2 SWAP1 POP JUMP JUMPDEST PUSH0 DUP3 DUP3 MSTORE PUSH1 0x20 DUP3 ADD SWAP1 POP SWAP3 SWAP2 POP POP JUMP JUMPDEST PUSH0 JUMPDEST DUP4 DUP2 LT ISZERO PUSH3 0x66A JUMPI DUP1 DUP3 ADD MLOAD DUP2 DUP5 ADD MSTORE PUSH1 0x20 DUP2 ADD SWAP1 POP PUSH3 0x64D JUMP JUMPDEST PUSH0 DUP5 DUP5 ADD MSTORE POP POP POP POP JUMP JUMPDEST PUSH0 PUSH1 0x1F NOT PUSH1 0x1F DUP4 ADD AND SWAP1 POP SWAP2 SWAP1 POP JUMP JUMPDEST PUSH0 PUSH3 0x691 DUP3 PUSH3 0x631 JUMP JUMPDEST PUSH3 0x69D DUP2 DUP6 PUSH3 0x63B JUMP JUMPDEST SWAP4 POP PUSH3 0x6AF DUP2 DUP6 PUSH1 0x20 DUP7 ADD PUSH3 0x64B JUMP JUMPDEST PUSH3 0x6BA DUP2 PUSH3 0x675 JUMP JUMPDEST DUP5 ADD SWAP2 POP POP SWAP3 SWAP2 POP POP JUMP JUMPDEST PUSH0 DUP2 MLOAD SWAP1 POP SWAP2 SWAP1 POP JUMP JUMPDEST PUSH0 DUP3 DUP3 MSTORE PUSH1 0x20 DUP3 ADD SWAP1 POP SWAP3 SWAP2 POP POP JUMP JUMPDEST PUSH0 DUP2 SWAP1 POP PUSH1 0x20 DUP3 ADD SWAP1 POP SWAP2 SWAP1 POP JUMP JUMPDEST PUSH0 PUSH3 0x6FA DUP3 PUSH3 0x54B JUMP JUMPDEST SWAP1 POP SWAP2 SWAP1 POP JUMP JUMPDEST PUSH3 0x70C DUP2 PUSH3 0x6EE JUMP JUMPDEST DUP3 MSTORE POP POP JUMP JUMPDEST PUSH0 PUSH3 0x71F DUP4 DUP4 PUSH3 0x701 JUMP JUMPDEST PUSH1 0x20 DUP4 ADD SWAP1 POP SWAP3 SWAP2 POP POP JUMP JUMPDEST PUSH0 PUSH1 0x20 DUP3 ADD SWAP1 POP SWAP2 SWAP1 POP JUMP JUMPDEST PUSH0 PUSH3 0x743 DUP3 PUSH3 0x6C5 JUMP JUMPDEST PUSH3 0x74F DUP2 DUP6 PUSH3 0x6CF JUMP JUMPDEST SWAP4 POP PUSH3 0x75C DUP4 PUSH3 0x6DF JUMP JUMPDEST DUP1 PUSH0 JUMPDEST DUP4 DUP2 LT ISZERO PUSH3 0x792 JUMPI DUP2 MLOAD PUSH3 0x776 DUP9 DUP3 PUSH3 0x712 JUMP JUMPDEST SWAP8 POP PUSH3 0x783 DUP4 PUSH3 0x72B JUMP JUMPDEST SWAP3 POP POP PUSH1 0x1 DUP2 ADD SWAP1 POP PUSH3 0x75F JUMP JUMPDEST POP DUP6 SWAP4 POP POP POP POP SWAP3 SWAP2 POP POP JUMP JUMPDEST PUSH0 PUSH1 0x60 DUP4 ADD PUSH0 DUP4 ADD MLOAD DUP5 DUP3 SUB PUSH0 DUP7 ADD MSTORE PUSH3 0x7BB DUP3 DUP3 PUSH3 0x685 JUMP JUMPDEST SWAP2 POP POP PUSH1 0x20 DUP4 ADD MLOAD DUP5 DUP3 SUB PUSH1 0x20 DUP7 ADD MSTORE PUSH3 0x7D7 DUP3 DUP3 PUSH3 0x685 JUMP JUMPDEST SWAP2 POP POP PUSH1 0x40 DUP4 ADD MLOAD DUP5 DUP3 SUB PUSH1 0x40 DUP7 ADD MSTORE PUSH3 0x7F3 DUP3 DUP3 PUSH3 0x737 JUMP JUMPDEST SWAP2 POP POP DUP1 SWAP2 POP POP SWAP3 SWAP2 POP POP JUMP JUMPDEST PUSH0 PUSH1 0x20 DUP3 ADD SWAP1 POP DUP2 DUP2 SUB PUSH0 DUP4 ADD MSTORE PUSH3 0x81A DUP2 DUP5 PUSH3 0x79F JUMP JUMPDEST SWAP1 POP SWAP3 SWAP2 POP POP JUMP JUMPDEST PUSH0 DUP2 SWAP1 POP SWAP2 SWAP1 POP JUMP JUMPDEST PUSH0 DUP2 SWAP1 POP SWAP2 SWAP1 POP JUMP JUMPDEST PUSH3 0x849 PUSH3 0x843 DUP3 PUSH3 0x822 JUMP JUMPDEST PUSH3 0x82B JUMP JUMPDEST DUP3 MSTORE POP POP JUMP JUMPDEST PUSH0 PUSH3 0x85B DUP3 PUSH3 0x4FC JUMP JUMPDEST SWAP1 POP SWAP2 SWAP1 POP JUMP JUMPDEST PUSH0 DUP2 PUSH1 0x60 SHL SWAP1 POP SWAP2 SWAP1 POP JUMP JUMPDEST PUSH0 PUSH3 0x87A DUP3 PUSH3 0x862 JUMP JUMPDEST SWAP1 POP SWAP2 SWAP1 POP JUMP JUMPDEST PUSH0 PUSH3 0x88D DUP3 PUSH3 0x86E JUMP JUMPDEST SWAP1 POP SWAP2 SWAP1 POP JUMP JUMPDEST PUSH3 0x8A9 PUSH3 0x8A3 DUP3 PUSH3 0x84F JUMP JUMPDEST PUSH3 0x881 JUMP JUMPDEST DUP3 MSTORE POP POP JUMP JUMPDEST PUSH0 PUSH3 0x8BC DUP3 DUP7 PUSH3 0x834 JUMP JUMPDEST PUSH1 0x20 DUP3 ADD SWAP2 POP PUSH3 0x8CE DUP3 DUP6 PUSH3 0x894 JUMP JUMPDEST PUSH1 0x14 DUP3 ADD SWAP2 POP PUSH3 0x8E0 DUP3 DUP5 PUSH3 0x834 JUMP JUMPDEST PUSH1 0x20 DUP3 ADD SWAP2 POP DUP2 SWAP1 POP SWAP5 SWAP4 POP POP POP POP JUMP JUMPDEST PUSH32 0x4E487B7100000000000000000000000000000000000000000000000000000000 PUSH0 MSTORE PUSH1 0x12 PUSH1 0x4 MSTORE PUSH1 0x24 PUSH0 REVERT JUMPDEST PUSH0 PUSH3 0x92A DUP3 PUSH3 0x822 JUMP JUMPDEST SWAP2 POP PUSH3 0x937 DUP4 PUSH3 0x822 JUMP JUMPDEST SWAP3 POP DUP3 PUSH3 0x94A JUMPI PUSH3 0x949 PUSH3 0x8F1 JUMP JUMPDEST JUMPDEST DUP3 DUP3 MOD SWAP1 POP SWAP3 SWAP2 POP POP JUMP JUMPDEST PUSH32 0x4E487B7100000000000000000000000000000000000000000000000000000000 PUSH0 MSTORE PUSH1 0x32 PUSH1 0x4 MSTORE PUSH1 0x24 PUSH0 REVERT JUMPDEST PUSH3 0x98D DUP2 PUSH3 0x84F JUMP JUMPDEST DUP3 MSTORE POP POP JUMP JUMPDEST PUSH3 0x99E DUP2 PUSH3 0x6EE JUMP JUMPDEST DUP3 MSTORE POP POP JUMP JUMPDEST PUSH0 PUSH1 0x40 DUP3 ADD SWAP1 POP PUSH3 0x9B9 PUSH0 DUP4 ADD DUP6 PUSH3 0x982 JUMP JUMPDEST PUSH3 0x9C8 PUSH1 0x20 DUP4 ADD DUP5 PUSH3 0x993 JUMP JUMPDEST SWAP4 SWAP3 POP POP POP JUMP JUMPDEST PUSH3 0x9DA DUP2 PUSH3 0x55E JUMP JUMPDEST DUP3 MSTORE POP POP JUMP JUMPDEST PUSH0 PUSH1 0x20 DUP3 ADD SWAP1 POP PUSH3 0x9F5 PUSH0 DUP4 ADD DUP5 PUSH3 0x9CF JUMP JUMPDEST SWAP3 SWAP2 POP POP JUMP JUMPDEST PUSH32 0x4E487B7100000000000000000000000000000000000000000000000000000000 PUSH0 MSTORE PUSH1 0x22 PUSH1 0x4 MSTORE PUSH1 0x24 PUSH0 REVERT JUMPDEST PUSH0 PUSH1 0x2 DUP3 DIV SWAP1 POP PUSH1 0x1 DUP3 AND DUP1 PUSH3 0xA40 JUMPI PUSH1 0x7F DUP3 AND SWAP2 POP JUMPDEST PUSH1 0x20 DUP3 LT DUP2 SUB PUSH3 0xA56 JUMPI PUSH3 0xA55 PUSH3 0x9FB JUMP JUMPDEST JUMPDEST POP SWAP2 SWAP1 POP JUMP INVALID PUSH1 0x80 PUSH1 0x40 MSTORE CALLVALUE DUP1 ISZERO PUSH3 0x10 JUMPI PUSH0 DUP1 REVERT JUMPDEST POP PUSH1 0x40 MLOAD PUSH3 0x28FD CODESIZE SUB DUP1 PUSH3 0x28FD DUP4 CODECOPY DUP2 DUP2 ADD PUSH1 0x40 MSTORE DUP2 ADD SWAP1 PUSH3 0x36 SWAP2 SWAP1 PUSH3 0x31F JUMP JUMPDEST DUP2 PUSH1 0x40 MLOAD DUP1 PUSH1 0x40 ADD PUSH1 0x40 MSTORE DUP1 PUSH1 0xC DUP2 MSTORE PUSH1 0x20 ADD PUSH32 0x50696374757265546F6B656E0000000000000000000000000000000000000000 DUP2 MSTORE POP PUSH1 0x40 MLOAD DUP1 PUSH1 0x40 ADD PUSH1 0x40 MSTORE DUP1 PUSH1 0x2 DUP2 MSTORE PUSH1 0x20 ADD PUSH32 0x5054000000000000000000000000000000000000000000000000000000000000 DUP2 MSTORE POP DUP2 PUSH0 SWAP1 DUP2 PUSH3 0xB3 SWAP2 SWAP1 PUSH3 0x5C8 JUMP JUMPDEST POP DUP1 PUSH1 0x1 SWAP1 DUP2 PUSH3 0xC5 SWAP2 SWAP1 PUSH3 0x5C8 JUMP JUMPDEST POP POP POP PUSH0 PUSH20 0xFFFFFFFFFFFFFFFFFFFFFFFFFFFFFFFFFFFFFFFF AND DUP2 PUSH20 0xFFFFFFFFFFFFFFFFFFFFFFFFFFFFFFFFFFFFFFFF AND SUB PUSH3 0x13B JUMPI PUSH0 PUSH1 0x40 MLOAD PUSH32 0x1E4FBDF700000000000000000000000000000000000000000000000000000000 DUP2 MSTORE PUSH1 0x4 ADD PUSH3 0x132 SWAP2 SWAP1 PUSH3 0x6BD JUMP JUMPDEST PUSH1 0x40 MLOAD DUP1 SWAP2 SUB SWAP1 REVERT JUMPDEST PUSH3 0x14C DUP2 PUSH3 0x1B5 PUSH1 0x20 SHL PUSH1 0x20 SHR JUMP JUMPDEST POP DUP1 PUSH1 0x7 PUSH0 PUSH2 0x100 EXP DUP2 SLOAD DUP2 PUSH20 0xFFFFFFFFFFFFFFFFFFFFFFFFFFFFFFFFFFFFFFFF MUL NOT AND SWAP1 DUP4 PUSH20 0xFFFFFFFFFFFFFFFFFFFFFFFFFFFFFFFFFFFFFFFF AND MUL OR SWAP1 SSTORE POP PUSH0 PUSH1 0x8 DUP2 SWAP1 SSTORE POP PUSH0 PUSH1 0x9 PUSH0 PUSH2 0x100 EXP DUP2 SLOAD DUP2 PUSH1 0xFF MUL NOT AND SWAP1 DUP4 ISZERO ISZERO MUL OR SWAP1 SSTORE POP POP POP PUSH3 0x6D8 JUMP JUMPDEST PUSH0 PUSH1 0x6 PUSH0 SWAP1 SLOAD SWAP1 PUSH2 0x100 EXP SWAP1 DIV PUSH20 0xFFFFFFFFFFFFFFFFFFFFFFFFFFFFFFFFFFFFFFFF AND SWAP1 POP DUP2 PUSH1 0x6 PUSH0 PUSH2 0x100 EXP DUP2 SLOAD DUP2 PUSH20 0xFFFFFFFFFFFFFFFFFFFFFFFFFFFFFFFFFFFFFFFF MUL NOT AND SWAP1 DUP4 PUSH20 0xFFFFFFFFFFFFFFFFFFFFFFFFFFFFFFFFFFFFFFFF AND MUL OR SWAP1 SSTORE POP DUP2 PUSH20 0xFFFFFFFFFFFFFFFFFFFFFFFFFFFFFFFFFFFFFFFF AND DUP2 PUSH20 0xFFFFFFFFFFFFFFFFFFFFFFFFFFFFFFFFFFFFFFFF AND PUSH32 0x8BE0079C531659141344CD1FD0A4F28419497F9722A3DAAFE3B4186F6B6457E0 PUSH1 0x40 MLOAD PUSH1 0x40 MLOAD DUP1 SWAP2 SUB SWAP1 LOG3 POP POP JUMP JUMPDEST PUSH0 DUP1 REVERT JUMPDEST PUSH0 PUSH20 0xFFFFFFFFFFFFFFFFFFFFFFFFFFFFFFFFFFFFFFFF DUP3 AND SWAP1 POP SWAP2 SWAP1 POP JUMP JUMPDEST PUSH0 PUSH3 0x2A7 DUP3 PUSH3 0x27C JUMP JUMPDEST SWAP1 POP SWAP2 SWAP1 POP JUMP JUMPDEST PUSH3 0x2B9 DUP2 PUSH3 0x29B JUMP JUMPDEST DUP2 EQ PUSH3 0x2C4 JUMPI PUSH0 DUP1 REVERT JUMPDEST POP JUMP JUMPDEST PUSH0 DUP2 MLOAD SWAP1 POP PUSH3 0x2D7 DUP2 PUSH3 0x2AE JUMP JUMPDEST SWAP3 SWAP2 POP POP JUMP JUMPDEST PUSH0 PUSH3 0x2E9 DUP3 PUSH3 0x29B JUMP JUMPDEST SWAP1 POP SWAP2 SWAP1 POP JUMP JUMPDEST PUSH3 0x2FB DUP2 PUSH3 0x2DD JUMP JUMPDEST DUP2 EQ PUSH3 0x306 JUMPI PUSH0 DUP1 REVERT JUMPDEST POP JUMP JUMPDEST PUSH0 DUP2 MLOAD SWAP1 POP PUSH3 0x319 DUP2 PUSH3 0x2F0 JUMP JUMPDEST SWAP3 SWAP2 POP POP JUMP JUMPDEST PUSH0 DUP1 PUSH1 0x40 DUP4 DUP6 SUB SLT ISZERO PUSH3 0x338 JUMPI PUSH3 0x337 PUSH3 0x278 JUMP JUMPDEST JUMPDEST PUSH0 PUSH3 0x347 DUP6 DUP3 DUP7 ADD PUSH3 0x2C7 JUMP JUMPDEST SWAP3 POP POP PUSH1 0x20 PUSH3 0x35A DUP6 DUP3 DUP7 ADD PUSH3 0x309 JUMP JUMPDEST SWAP2 POP POP SWAP3 POP SWAP3 SWAP1 POP JUMP JUMPDEST PUSH0 DUP2 MLOAD SWAP1 POP SWAP2 SWAP1 POP JUMP JUMPDEST PUSH32 0x4E487B7100000000000000000000000000000000000000000000000000000000 PUSH0 MSTORE PUSH1 0x41 PUSH1 0x4 MSTORE PUSH1 0x24 PUSH0 REVERT JUMPDEST PUSH32 0x4E487B7100000000000000000000000000000000000000000000000000000000 PUSH0 MSTORE PUSH1 0x22 PUSH1 0x4 MSTORE PUSH1 0x24 PUSH0 REVERT JUMPDEST PUSH0 PUSH1 0x2 DUP3 DIV SWAP1 POP PUSH1 0x1 DUP3 AND DUP1 PUSH3 0x3E0 JUMPI PUSH1 0x7F DUP3 AND SWAP2 POP JUMPDEST PUSH1 0x20 DUP3 LT DUP2 SUB PUSH3 0x3F6 JUMPI PUSH3 0x3F5 PUSH3 0x39B JUMP JUMPDEST JUMPDEST POP SWAP2 SWAP1 POP JUMP JUMPDEST PUSH0 DUP2 SWAP1 POP DUP2 PUSH0 MSTORE PUSH1 0x20 PUSH0 KECCAK256 SWAP1 POP SWAP2 SWAP1 POP JUMP JUMPDEST PUSH0 PUSH1 0x20 PUSH1 0x1F DUP4 ADD DIV SWAP1 POP SWAP2 SWAP1 POP JUMP JUMPDEST PUSH0 DUP3 DUP3 SHL SWAP1 POP SWAP3 SWAP2 POP POP JUMP JUMPDEST PUSH0 PUSH1 0x8 DUP4 MUL PUSH3 0x45A PUSH32 0xFFFFFFFFFFFFFFFFFFFFFFFFFFFFFFFFFFFFFFFFFFFFFFFFFFFFFFFFFFFFFFFF DUP3 PUSH3 0x41D JUMP JUMPDEST PUSH3 0x466 DUP7 DUP4 PUSH3 0x41D JUMP JUMPDEST SWAP6 POP DUP1 NOT DUP5 AND SWAP4 POP DUP1 DUP7 AND DUP5 OR SWAP3 POP POP POP SWAP4 SWAP3 POP POP POP JUMP JUMPDEST PUSH0 DUP2 SWAP1 POP SWAP2 SWAP1 POP JUMP JUMPDEST PUSH0 DUP2 SWAP1 POP SWAP2 SWAP1 POP JUMP JUMPDEST PUSH0 PUSH3 0x4B0 PUSH3 0x4AA PUSH3 0x4A4 DUP5 PUSH3 0x47E JUMP JUMPDEST PUSH3 0x487 JUMP JUMPDEST PUSH3 0x47E JUMP JUMPDEST SWAP1 POP SWAP2 SWAP1 POP JUMP JUMPDEST PUSH0 DUP2 SWAP1 POP SWAP2 SWAP1 POP JUMP JUMPDEST PUSH3 0x4CB DUP4 PUSH3 0x490 JUMP JUMPDEST PUSH3 0x4E3 PUSH3 0x4DA DUP3 PUSH3 0x4B7 JUMP JUMPDEST DUP5 DUP5 SLOAD PUSH3 0x429 JUMP JUMPDEST DUP3 SSTORE POP POP POP POP JUMP JUMPDEST PUSH0 SWAP1 JUMP JUMPDEST PUSH3 0x4F9 PUSH3 0x4EB JUMP JUMPDEST PUSH3 0x506 DUP2 DUP5 DUP5 PUSH3 0x4C0 JUMP JUMPDEST POP POP POP JUMP JUMPDEST JUMPDEST DUP2 DUP2 LT ISZERO PUSH3 0x52D JUMPI PUSH3 0x521 PUSH0 DUP3 PUSH3 0x4EF JUMP JUMPDEST PUSH1 0x1 DUP2 ADD SWAP1 POP PUSH3 0x50C JUMP JUMPDEST POP POP JUMP JUMPDEST PUSH1 0x1F DUP3 GT ISZERO PUSH3 0x57C JUMPI PUSH3 0x546 DUP2 PUSH3 0x3FC JUMP JUMPDEST PUSH3 0x551 DUP5 PUSH3 0x40E JUMP JUMPDEST DUP2 ADD PUSH1 0x20 DUP6 LT ISZERO PUSH3 0x561 JUMPI DUP2 SWAP1 POP JUMPDEST PUSH3 0x579 PUSH3 0x570 DUP6 PUSH3 0x40E JUMP JUMPDEST DUP4 ADD DUP3 PUSH3 0x50B JUMP JUMPDEST POP POP JUMPDEST POP POP POP JUMP JUMPDEST PUSH0 DUP3 DUP3 SHR SWAP1 POP SWAP3 SWAP2 POP POP JUMP JUMPDEST PUSH0 PUSH3 0x59E PUSH0 NOT DUP5 PUSH1 0x8 MUL PUSH3 0x581 JUMP JUMPDEST NOT DUP1 DUP4 AND SWAP2 POP POP SWAP3 SWAP2 POP POP JUMP JUMPDEST PUSH0 PUSH3 0x5B8 DUP4 DUP4 PUSH3 0x58D JUMP JUMPDEST SWAP2 POP DUP3 PUSH1 0x2 MUL DUP3 OR SWAP1 POP SWAP3 SWAP2 POP POP JUMP JUMPDEST PUSH3 0x5D3 DUP3 PUSH3 0x364 JUMP JUMPDEST PUSH8 0xFFFFFFFFFFFFFFFF DUP2 GT ISZERO PUSH3 0x5EF JUMPI PUSH3 0x5EE PUSH3 0x36E JUMP JUMPDEST JUMPDEST PUSH3 0x5FB DUP3 SLOAD PUSH3 0x3C8 JUMP JUMPDEST PUSH3 0x608 DUP3 DUP3 DUP6 PUSH3 0x531 JUMP JUMPDEST PUSH0 PUSH1 0x20 SWAP1 POP PUSH1 0x1F DUP4 GT PUSH1 0x1 DUP2 EQ PUSH3 0x63E JUMPI PUSH0 DUP5 ISZERO PUSH3 0x629 JUMPI DUP3 DUP8 ADD MLOAD SWAP1 POP JUMPDEST PUSH3 0x635 DUP6 DUP3 PUSH3 0x5AB JUMP JUMPDEST DUP7 SSTORE POP PUSH3 0x6A4 JUMP JUMPDEST PUSH1 0x1F NOT DUP5 AND PUSH3 0x64E DUP7 PUSH3 0x3FC JUMP JUMPDEST PUSH0 JUMPDEST DUP3 DUP2 LT ISZERO PUSH3 0x677 JUMPI DUP5 DUP10 ADD MLOAD DUP3 SSTORE PUSH1 0x1 DUP3 ADD SWAP2 POP PUSH1 0x20 DUP6 ADD SWAP5 POP PUSH1 0x20 DUP2 ADD SWAP1 POP PUSH3 0x650 JUMP JUMPDEST DUP7 DUP4 LT ISZERO PUSH3 0x697 JUMPI DUP5 DUP10 ADD MLOAD PUSH3 0x693 PUSH1 0x1F DUP10 AND DUP3 PUSH3 0x58D JUMP JUMPDEST DUP4 SSTORE POP JUMPDEST PUSH1 0x1 PUSH1 0x2 DUP9 MUL ADD DUP9 SSTORE POP POP POP JUMPDEST POP POP POP POP POP POP JUMP JUMPDEST PUSH3 0x6B7 DUP2 PUSH3 0x29B JUMP JUMPDEST DUP3 MSTORE POP POP JUMP JUMPDEST PUSH0 PUSH1 0x20 DUP3 ADD SWAP1 POP PUSH3 0x6D2 PUSH0 DUP4 ADD DUP5 PUSH3 0x6AC JUMP JUMPDEST SWAP3 SWAP2 POP POP JUMP JUMPDEST PUSH2 0x2217 DUP1 PUSH3 0x6E6 PUSH0 CODECOPY PUSH0 RETURN INVALID PUSH1 0x80 PUSH1 0x40 MSTORE CALLVALUE DUP1 ISZERO PUSH2 0xF JUMPI PUSH0 DUP1 REVERT JUMPDEST POP PUSH1 0x4 CALLDATASIZE LT PUSH2 0x14B JUMPI PUSH0 CALLDATALOAD PUSH1 0xE0 SHR DUP1 PUSH4 0x854CBB4A GT PUSH2 0xC1 JUMPI DUP1 PUSH4 0xA035B1FE GT PUSH2 0x7A JUMPI DUP1 PUSH4 0xA035B1FE EQ PUSH2 0x33D JUMPI DUP1 PUSH4 0xA22CB465 EQ PUSH2 0x35B JUMPI DUP1 PUSH4 0xB88D4FDE EQ PUSH2 0x377 JUMPI DUP1 PUSH4 0xC87B56DD EQ PUSH2 0x393 JUMPI DUP1 PUSH4 0xE985E9C5 EQ PUSH2 0x3C3 JUMPI DUP1 PUSH4 0xF2FDE38B EQ PUSH2 0x3F3 JUMPI PUSH2 0x14B JUMP JUMPDEST DUP1 PUSH4 0x854CBB4A EQ PUSH2 0x29F JUMPI DUP1 PUSH4 0x8C2A5BC8 EQ PUSH2 0x2BD JUMPI DUP1 PUSH4 0x8DA5CB5B EQ PUSH2 0x2C7 JUMPI DUP1 PUSH4 0x91B7F5ED EQ PUSH2 0x2E5 JUMPI DUP1 PUSH4 0x95D89B41 EQ PUSH2 0x301 JUMPI DUP1 PUSH4 0x98D5FDCA EQ PUSH2 0x31F JUMPI PUSH2 0x14B JUMP JUMPDEST DUP1 PUSH4 0x42842E0E GT PUSH2 0x113 JUMPI DUP1 PUSH4 0x42842E0E EQ PUSH2 0x205 JUMPI DUP1 PUSH4 0x5987CC19 EQ PUSH2 0x221 JUMPI DUP1 PUSH4 0x6352211E EQ PUSH2 0x22B JUMPI DUP1 PUSH4 0x64EDFBF0 EQ PUSH2 0x25B JUMPI DUP1 PUSH4 0x70A08231 EQ PUSH2 0x265 JUMPI DUP1 PUSH4 0x715018A6 EQ PUSH2 0x295 JUMPI PUSH2 0x14B JUMP JUMPDEST DUP1 PUSH4 0x1FFC9A7 EQ PUSH2 0x14F JUMPI DUP1 PUSH4 0x6FDDE03 EQ PUSH2 0x17F JUMPI DUP1 PUSH4 0x81812FC EQ PUSH2 0x19D JUMPI DUP1 PUSH4 0x95EA7B3 EQ PUSH2 0x1CD JUMPI DUP1 PUSH4 0x23B872DD EQ PUSH2 0x1E9 JUMPI JUMPDEST PUSH0 DUP1 REVERT JUMPDEST PUSH2 0x169 PUSH1 0x4 DUP1 CALLDATASIZE SUB DUP2 ADD SWAP1 PUSH2 0x164 SWAP2 SWAP1 PUSH2 0x19B4 JUMP JUMPDEST PUSH2 0x40F JUMP JUMPDEST PUSH1 0x40 MLOAD PUSH2 0x176 SWAP2 SWAP1 PUSH2 0x19F9 JUMP JUMPDEST PUSH1 0x40 MLOAD DUP1 SWAP2 SUB SWAP1 RETURN JUMPDEST PUSH2 0x187 PUSH2 0x4F0 JUMP JUMPDEST PUSH1 0x40 MLOAD PUSH2 0x194 SWAP2 SWAP1 PUSH2 0x1A9C JUMP JUMPDEST PUSH1 0x40 MLOAD DUP1 SWAP2 SUB SWAP1 RETURN JUMPDEST PUSH2 0x1B7 PUSH1 0x4 DUP1 CALLDATASIZE SUB DUP2 ADD SWAP1 PUSH2 0x1B2 SWAP2 SWAP1 PUSH2 0x1AEF JUMP JUMPDEST PUSH2 0x57F JUMP JUMPDEST PUSH1 0x40 MLOAD PUSH2 0x1C4 SWAP2 SWAP1 PUSH2 0x1B59 JUMP JUMPDEST PUSH1 0x40 MLOAD DUP1 SWAP2 SUB SWAP1 RETURN JUMPDEST PUSH2 0x1E7 PUSH1 0x4 DUP1 CALLDATASIZE SUB DUP2 ADD SWAP1 PUSH2 0x1E2 SWAP2 SWAP1 PUSH2 0x1B9C JUMP JUMPDEST PUSH2 0x59A JUMP JUMPDEST STOP JUMPDEST PUSH2 0x203 PUSH1 0x4 DUP1 CALLDATASIZE SUB DUP2 ADD SWAP1 PUSH2 0x1FE SWAP2 SWAP1 PUSH2 0x1BDA JUMP JUMPDEST PUSH2 0x5B0 JUMP JUMPDEST STOP JUMPDEST PUSH2 0x21F PUSH1 0x4 DUP1 CALLDATASIZE SUB DUP2 ADD SWAP1 PUSH2 0x21A SWAP2 SWAP1 PUSH2 0x1BDA JUMP JUMPDEST PUSH2 0x6AF JUMP JUMPDEST STOP JUMPDEST PUSH2 0x229 PUSH2 0x6CE JUMP JUMPDEST STOP JUMPDEST PUSH2 0x245 PUSH1 0x4 DUP1 CALLDATASIZE SUB DUP2 ADD SWAP1 PUSH2 0x240 SWAP2 SWAP1 PUSH2 0x1AEF JUMP JUMPDEST PUSH2 0x6F2 JUMP JUMPDEST PUSH1 0x40 MLOAD PUSH2 0x252 SWAP2 SWAP1 PUSH2 0x1B59 JUMP JUMPDEST PUSH1 0x40 MLOAD DUP1 SWAP2 SUB SWAP1 RETURN JUMPDEST PUSH2 0x263 PUSH2 0x703 JUMP JUMPDEST STOP JUMPDEST PUSH2 0x27F PUSH1 0x4 DUP1 CALLDATASIZE SUB DUP2 ADD SWAP1 PUSH2 0x27A SWAP2 SWAP1 PUSH2 0x1C2A JUMP JUMPDEST PUSH2 0x774 JUMP JUMPDEST PUSH1 0x40 MLOAD PUSH2 0x28C SWAP2 SWAP1 PUSH2 0x1C64 JUMP JUMPDEST PUSH1 0x40 MLOAD DUP1 SWAP2 SUB SWAP1 RETURN JUMPDEST PUSH2 0x29D PUSH2 0x82A JUMP JUMPDEST STOP JUMPDEST PUSH2 0x2A7 PUSH2 0x83D JUMP JUMPDEST PUSH1 0x40 MLOAD PUSH2 0x2B4 SWAP2 SWAP1 PUSH2 0x1D58 JUMP JUMPDEST PUSH1 0x40 MLOAD DUP1 SWAP2 SUB SWAP1 RETURN JUMPDEST PUSH2 0x2C5 PUSH2 0x8D1 JUMP JUMPDEST STOP JUMPDEST PUSH2 0x2CF PUSH2 0x8F4 JUMP JUMPDEST PUSH1 0x40 MLOAD PUSH2 0x2DC SWAP2 SWAP1 PUSH2 0x1B59 JUMP JUMPDEST PUSH1 0x40 MLOAD DUP1 SWAP2 SUB SWAP1 RETURN JUMPDEST PUSH2 0x2FF PUSH1 0x4 DUP1 CALLDATASIZE SUB DUP2 ADD SWAP1 PUSH2 0x2FA SWAP2 SWAP1 PUSH2 0x1AEF JUMP JUMPDEST PUSH2 0x91C JUMP JUMPDEST STOP JUMPDEST PUSH2 0x309 PUSH2 0x92E JUMP JUMPDEST PUSH1 0x40 MLOAD PUSH2 0x316 SWAP2 SWAP1 PUSH2 0x1A9C JUMP JUMPDEST PUSH1 0x40 MLOAD DUP1 SWAP2 SUB SWAP1 RETURN JUMPDEST PUSH2 0x327 PUSH2 0x9BE JUMP JUMPDEST PUSH1 0x40 MLOAD PUSH2 0x334 SWAP2 SWAP1 PUSH2 0x1C64 JUMP JUMPDEST PUSH1 0x40 MLOAD DUP1 SWAP2 SUB SWAP1 RETURN JUMPDEST PUSH2 0x345 PUSH2 0x9C7 JUMP JUMPDEST PUSH1 0x40 MLOAD PUSH2 0x352 SWAP2 SWAP1 PUSH2 0x1C64 JUMP JUMPDEST PUSH1 0x40 MLOAD DUP1 SWAP2 SUB SWAP1 RETURN JUMPDEST PUSH2 0x375 PUSH1 0x4 DUP1 CALLDATASIZE SUB DUP2 ADD SWAP1 PUSH2 0x370 SWAP2 SWAP1 PUSH2 0x1D9B JUMP JUMPDEST PUSH2 0x9CD JUMP JUMPDEST STOP JUMPDEST PUSH2 0x391 PUSH1 0x4 DUP1 CALLDATASIZE SUB DUP2 ADD SWAP1 PUSH2 0x38C SWAP2 SWAP1 PUSH2 0x1F05 JUMP JUMPDEST PUSH2 0x9E3 JUMP JUMPDEST STOP JUMPDEST PUSH2 0x3AD PUSH1 0x4 DUP1 CALLDATASIZE SUB DUP2 ADD SWAP1 PUSH2 0x3A8 SWAP2 SWAP1 PUSH2 0x1AEF JUMP JUMPDEST PUSH2 0xA00 JUMP JUMPDEST PUSH1 0x40 MLOAD PUSH2 0x3BA SWAP2 SWAP1 PUSH2 0x1A9C JUMP JUMPDEST PUSH1 0x40 MLOAD DUP1 SWAP2 SUB SWAP1 RETURN JUMPDEST PUSH2 0x3DD PUSH1 0x4 DUP1 CALLDATASIZE SUB DUP2 ADD SWAP1 PUSH2 0x3D8 SWAP2 SWAP1 PUSH2 0x1F85 JUMP JUMPDEST PUSH2 0xA66 JUMP JUMPDEST PUSH1 0x40 MLOAD PUSH2 0x3EA SWAP2 SWAP1 PUSH2 0x19F9 JUMP JUMPDEST PUSH1 0x40 MLOAD DUP1 SWAP2 SUB SWAP1 RETURN JUMPDEST PUSH2 0x40D PUSH1 0x4 DUP1 CALLDATASIZE SUB DUP2 ADD SWAP1 PUSH2 0x408 SWAP2 SWAP1 PUSH2 0x1C2A JUMP JUMPDEST PUSH2 0xAF4 JUMP JUMPDEST STOP JUMPDEST PUSH0 PUSH32 0x80AC58CD00000000000000000000000000000000000000000000000000000000 PUSH28 0xFFFFFFFFFFFFFFFFFFFFFFFFFFFFFFFFFFFFFFFFFFFFFFFFFFFFFFFF NOT AND DUP3 PUSH28 0xFFFFFFFFFFFFFFFFFFFFFFFFFFFFFFFFFFFFFFFFFFFFFFFFFFFFFFFF NOT AND EQ DUP1 PUSH2 0x4D9 JUMPI POP PUSH32 0x5B5E139F00000000000000000000000000000000000000000000000000000000 PUSH28 0xFFFFFFFFFFFFFFFFFFFFFFFFFFFFFFFFFFFFFFFFFFFFFFFFFFFFFFFF NOT AND DUP3 PUSH28 0xFFFFFFFFFFFFFFFFFFFFFFFFFFFFFFFFFFFFFFFFFFFFFFFFFFFFFFFF NOT AND EQ JUMPDEST DUP1 PUSH2 0x4E9 JUMPI POP PUSH2 0x4E8 DUP3 PUSH2 0xB78 JUMP JUMPDEST JUMPDEST SWAP1 POP SWAP2 SWAP1 POP JUMP JUMPDEST PUSH1 0x60 PUSH0 DUP1 SLOAD PUSH2 0x4FE SWAP1 PUSH2 0x1FF0 JUMP JUMPDEST DUP1 PUSH1 0x1F ADD PUSH1 0x20 DUP1 SWAP2 DIV MUL PUSH1 0x20 ADD PUSH1 0x40 MLOAD SWAP1 DUP2 ADD PUSH1 0x40 MSTORE DUP1 SWAP3 SWAP2 SWAP1 DUP2 DUP2 MSTORE PUSH1 0x20 ADD DUP3 DUP1 SLOAD PUSH2 0x52A SWAP1 PUSH2 0x1FF0 JUMP JUMPDEST DUP1 ISZERO PUSH2 0x575 JUMPI DUP1 PUSH1 0x1F LT PUSH2 0x54C JUMPI PUSH2 0x100 DUP1 DUP4 SLOAD DIV MUL DUP4 MSTORE SWAP2 PUSH1 0x20 ADD SWAP2 PUSH2 0x575 JUMP JUMPDEST DUP3 ADD SWAP2 SWAP1 PUSH0 MSTORE PUSH1 0x20 PUSH0 KECCAK256 SWAP1 JUMPDEST DUP2 SLOAD DUP2 MSTORE SWAP1 PUSH1 0x1 ADD SWAP1 PUSH1 0x20 ADD DUP1 DUP4 GT PUSH2 0x558 JUMPI DUP3 SWAP1 SUB PUSH1 0x1F AND DUP3 ADD SWAP2 JUMPDEST POP POP POP POP POP SWAP1 POP SWAP1 JUMP JUMPDEST PUSH0 PUSH2 0x589 DUP3 PUSH2 0xBE1 JUMP JUMPDEST POP PUSH2 0x593 DUP3 PUSH2 0xC67 JUMP JUMPDEST SWAP1 POP SWAP2 SWAP1 POP JUMP JUMPDEST PUSH2 0x5AC DUP3 DUP3 PUSH2 0x5A7 PUSH2 0xCA0 JUMP JUMPDEST PUSH2 0xCA7 JUMP JUMPDEST POP POP JUMP JUMPDEST PUSH0 PUSH20 0xFFFFFFFFFFFFFFFFFFFFFFFFFFFFFFFFFFFFFFFF AND DUP3 PUSH20 0xFFFFFFFFFFFFFFFFFFFFFFFFFFFFFFFFFFFFFFFF AND SUB PUSH2 0x620 JUMPI PUSH0 PUSH1 0x40 MLOAD PUSH32 0x64A0AE9200000000000000000000000000000000000000000000000000000000 DUP2 MSTORE PUSH1 0x4 ADD PUSH2 0x617 SWAP2 SWAP1 PUSH2 0x1B59 JUMP JUMPDEST PUSH1 0x40 MLOAD DUP1 SWAP2 SUB SWAP1 REVERT JUMPDEST PUSH0 PUSH2 0x633 DUP4 DUP4 PUSH2 0x62E PUSH2 0xCA0 JUMP JUMPDEST PUSH2 0xCB9 JUMP JUMPDEST SWAP1 POP DUP4 PUSH20 0xFFFFFFFFFFFFFFFFFFFFFFFFFFFFFFFFFFFFFFFF AND DUP2 PUSH20 0xFFFFFFFFFFFFFFFFFFFFFFFFFFFFFFFFFFFFFFFF AND EQ PUSH2 0x6A9 JUMPI DUP4 DUP3 DUP3 PUSH1 0x40 MLOAD PUSH32 0x64283D7B00000000000000000000000000000000000000000000000000000000 DUP2 MSTORE PUSH1 0x4 ADD PUSH2 0x6A0 SWAP4 SWAP3 SWAP2 SWAP1 PUSH2 0x2020 JUMP JUMPDEST PUSH1 0x40 MLOAD DUP1 SWAP2 SUB SWAP1 REVERT JUMPDEST POP POP POP POP JUMP JUMPDEST PUSH2 0x6C9 DUP4 DUP4 DUP4 PUSH1 0x40 MLOAD DUP1 PUSH1 0x20 ADD PUSH1 0x40 MSTORE DUP1 PUSH0 DUP2 MSTORE POP PUSH2 0x9E3 JUMP JUMPDEST POP POP POP JUMP JUMPDEST PUSH2 0x6D6 PUSH2 0xEC4 JUMP JUMPDEST PUSH1 0x1 PUSH1 0x9 PUSH0 PUSH2 0x100 EXP DUP2 SLOAD DUP2 PUSH1 0xFF MUL NOT AND SWAP1 DUP4 ISZERO ISZERO MUL OR SWAP1 SSTORE POP JUMP JUMPDEST PUSH0 PUSH2 0x6FC DUP3 PUSH2 0xBE1 JUMP JUMPDEST SWAP1 POP SWAP2 SWAP1 POP JUMP JUMPDEST CALLER PUSH20 0xFFFFFFFFFFFFFFFFFFFFFFFFFFFFFFFFFFFFFFFF AND PUSH2 0x8FC PUSH1 0x8 SLOAD SWAP1 DUP2 ISZERO MUL SWAP1 PUSH1 0x40 MLOAD PUSH0 PUSH1 0x40 MLOAD DUP1 DUP4 SUB DUP2 DUP6 DUP9 DUP9 CALL SWAP4 POP POP POP POP ISZERO DUP1 ISZERO PUSH2 0x748 JUMPI RETURNDATASIZE PUSH0 DUP1 RETURNDATACOPY RETURNDATASIZE PUSH0 REVERT JUMPDEST POP PUSH2 0x752 CALLER PUSH2 0xAF4 JUMP JUMPDEST PUSH0 PUSH1 0x8 DUP2 SWAP1 SSTORE POP PUSH0 PUSH1 0x9 PUSH0 PUSH2 0x100 EXP DUP2 SLOAD DUP2 PUSH1 0xFF MUL NOT AND SWAP1 DUP4 ISZERO ISZERO MUL OR SWAP1 SSTORE POP JUMP JUMPDEST PUSH0 DUP1 PUSH20 0xFFFFFFFFFFFFFFFFFFFFFFFFFFFFFFFFFFFFFFFF AND DUP3 PUSH20 0xFFFFFFFFFFFFFFFFFFFFFFFFFFFFFFFFFFFFFFFF AND SUB PUSH2 0x7E5 JUMPI PUSH0 PUSH1 0x40 MLOAD PUSH32 0x89C62B6400000000000000000000000000000000000000000000000000000000 DUP2 MSTORE PUSH1 0x4 ADD PUSH2 0x7DC SWAP2 SWAP1 PUSH2 0x1B59 JUMP JUMPDEST PUSH1 0x40 MLOAD DUP1 SWAP2 SUB SWAP1 REVERT JUMPDEST PUSH1 0x3 PUSH0 DUP4 PUSH20 0xFFFFFFFFFFFFFFFFFFFFFFFFFFFFFFFFFFFFFFFF AND PUSH20 0xFFFFFFFFFFFFFFFFFFFFFFFFFFFFFFFFFFFFFFFF AND DUP2 MSTORE PUSH1 0x20 ADD SWAP1 DUP2 MSTORE PUSH1 0x20 ADD PUSH0 KECCAK256 SLOAD SWAP1 POP SWAP2 SWAP1 POP JUMP JUMPDEST PUSH2 0x832 PUSH2 0xEC4 JUMP JUMPDEST PUSH2 0x83B PUSH0 PUSH2 0xF4B JUMP JUMPDEST JUMP JUMPDEST PUSH2 0x845 PUSH2 0x18FC JUMP JUMPDEST PUSH1 0x40 MLOAD DUP1 PUSH1 0x80 ADD PUSH1 0x40 MSTORE DUP1 PUSH2 0x858 PUSH2 0x8F4 JUMP JUMPDEST PUSH20 0xFFFFFFFFFFFFFFFFFFFFFFFFFFFFFFFFFFFFFFFF AND DUP2 MSTORE PUSH1 0x20 ADD PUSH1 0x7 PUSH0 SWAP1 SLOAD SWAP1 PUSH2 0x100 EXP SWAP1 DIV PUSH20 0xFFFFFFFFFFFFFFFFFFFFFFFFFFFFFFFFFFFFFFFF AND PUSH20 0xFFFFFFFFFFFFFFFFFFFFFFFFFFFFFFFFFFFFFFFF AND DUP2 MSTORE PUSH1 0x20 ADD PUSH1 0x8 SLOAD DUP2 MSTORE PUSH1 0x20 ADD PUSH1 0x9 PUSH0 SWAP1 SLOAD SWAP1 PUSH2 0x100 EXP SWAP1 DIV PUSH1 0xFF AND ISZERO ISZERO DUP2 MSTORE POP SWAP1 POP SWAP1 JUMP JUMPDEST PUSH2 0x8D9 PUSH2 0xEC4 JUMP JUMPDEST PUSH0 PUSH1 0x9 PUSH0 PUSH2 0x100 EXP DUP2 SLOAD DUP2 PUSH1 0xFF MUL NOT AND SWAP1 DUP4 ISZERO ISZERO MUL OR SWAP1 SSTORE POP JUMP JUMPDEST PUSH0 PUSH1 0x6 PUSH0 SWAP1 SLOAD SWAP1 PUSH2 0x100 EXP SWAP1 DIV PUSH20 0xFFFFFFFFFFFFFFFFFFFFFFFFFFFFFFFFFFFFFFFF AND SWAP1 POP SWAP1 JUMP JUMPDEST PUSH2 0x924 PUSH2 0xEC4 JUMP JUMPDEST DUP1 PUSH1 0x8 DUP2 SWAP1 SSTORE POP POP JUMP JUMPDEST PUSH1 0x60 PUSH1 0x1 DUP1 SLOAD PUSH2 0x93D SWAP1 PUSH2 0x1FF0 JUMP JUMPDEST DUP1 PUSH1 0x1F ADD PUSH1 0x20 DUP1 SWAP2 DIV MUL PUSH1 0x20 ADD PUSH1 0x40 MLOAD SWAP1 DUP2 ADD PUSH1 0x40 MSTORE DUP1 SWAP3 SWAP2 SWAP1 DUP2 DUP2 MSTORE PUSH1 0x20 ADD DUP3 DUP1 SLOAD PUSH2 0x969 SWAP1 PUSH2 0x1FF0 JUMP JUMPDEST DUP1 ISZERO PUSH2 0x9B4 JUMPI DUP1 PUSH1 0x1F LT PUSH2 0x98B JUMPI PUSH2 0x100 DUP1 DUP4 SLOAD DIV MUL DUP4 MSTORE SWAP2 PUSH1 0x20 ADD SWAP2 PUSH2 0x9B4 JUMP JUMPDEST DUP3 ADD SWAP2 SWAP1 PUSH0 MSTORE PUSH1 0x20 PUSH0 KECCAK256 SWAP1 JUMPDEST DUP2 SLOAD DUP2 MSTORE SWAP1 PUSH1 0x1 ADD SWAP1 PUSH1 0x20 ADD DUP1 DUP4 GT PUSH2 0x997 JUMPI DUP3 SWAP1 SUB PUSH1 0x1F AND DUP3 ADD SWAP2 JUMPDEST POP POP POP POP POP SWAP1 POP SWAP1 JUMP JUMPDEST PUSH0 PUSH1 0x8 SLOAD SWAP1 POP SWAP1 JUMP JUMPDEST PUSH1 0x8 SLOAD DUP2 JUMP JUMPDEST PUSH2 0x9DF PUSH2 0x9D8 PUSH2 0xCA0 JUMP JUMPDEST DUP4 DUP4 PUSH2 0x100E JUMP JUMPDEST POP POP JUMP JUMPDEST PUSH2 0x9EE DUP5 DUP5 DUP5 PUSH2 0x5B0 JUMP JUMPDEST PUSH2 0x9FA DUP5 DUP5 DUP5 DUP5 PUSH2 0x1177 JUMP JUMPDEST POP POP POP POP JUMP JUMPDEST PUSH1 0x60 PUSH2 0xA0B DUP3 PUSH2 0xBE1 JUMP JUMPDEST POP PUSH0 PUSH2 0xA15 PUSH2 0x1329 JUMP JUMPDEST SWAP1 POP PUSH0 DUP2 MLOAD GT PUSH2 0xA33 JUMPI PUSH1 0x40 MLOAD DUP1 PUSH1 0x20 ADD PUSH1 0x40 MSTORE DUP1 PUSH0 DUP2 MSTORE POP PUSH2 0xA5E JUMP JUMPDEST DUP1 PUSH2 0xA3D DUP5 PUSH2 0x1366 JUMP JUMPDEST PUSH1 0x40 MLOAD PUSH1 0x20 ADD PUSH2 0xA4E SWAP3 SWAP2 SWAP1 PUSH2 0x208F JUMP JUMPDEST PUSH1 0x40 MLOAD PUSH1 0x20 DUP2 DUP4 SUB SUB DUP2 MSTORE SWAP1 PUSH1 0x40 MSTORE JUMPDEST SWAP2 POP POP SWAP2 SWAP1 POP JUMP JUMPDEST PUSH0 PUSH1 0x5 PUSH0 DUP5 PUSH20 0xFFFFFFFFFFFFFFFFFFFFFFFFFFFFFFFFFFFFFFFF AND PUSH20 0xFFFFFFFFFFFFFFFFFFFFFFFFFFFFFFFFFFFFFFFF AND DUP2 MSTORE PUSH1 0x20 ADD SWAP1 DUP2 MSTORE PUSH1 0x20 ADD PUSH0 KECCAK256 PUSH0 DUP4 PUSH20 0xFFFFFFFFFFFFFFFFFFFFFFFFFFFFFFFFFFFFFFFF AND PUSH20 0xFFFFFFFFFFFFFFFFFFFFFFFFFFFFFFFFFFFFFFFF AND DUP2 MSTORE PUSH1 0x20 ADD SWAP1 DUP2 MSTORE PUSH1 0x20 ADD PUSH0 KECCAK256 PUSH0 SWAP1 SLOAD SWAP1 PUSH2 0x100 EXP SWAP1 DIV PUSH1 0xFF AND SWAP1 POP SWAP3 SWAP2 POP POP JUMP JUMPDEST PUSH2 0xAFC PUSH2 0xEC4 JUMP JUMPDEST PUSH0 PUSH20 0xFFFFFFFFFFFFFFFFFFFFFFFFFFFFFFFFFFFFFFFF AND DUP2 PUSH20 0xFFFFFFFFFFFFFFFFFFFFFFFFFFFFFFFFFFFFFFFF AND SUB PUSH2 0xB6C JUMPI PUSH0 PUSH1 0x40 MLOAD PUSH32 0x1E4FBDF700000000000000000000000000000000000000000000000000000000 DUP2 MSTORE PUSH1 0x4 ADD PUSH2 0xB63 SWAP2 SWAP1 PUSH2 0x1B59 JUMP JUMPDEST PUSH1 0x40 MLOAD DUP1 SWAP2 SUB SWAP1 REVERT JUMPDEST PUSH2 0xB75 DUP2 PUSH2 0xF4B JUMP JUMPDEST POP JUMP JUMPDEST PUSH0 PUSH32 0x1FFC9A700000000000000000000000000000000000000000000000000000000 PUSH28 0xFFFFFFFFFFFFFFFFFFFFFFFFFFFFFFFFFFFFFFFFFFFFFFFFFFFFFFFF NOT AND DUP3 PUSH28 0xFFFFFFFFFFFFFFFFFFFFFFFFFFFFFFFFFFFFFFFFFFFFFFFFFFFFFFFF NOT AND EQ SWAP1 POP SWAP2 SWAP1 POP JUMP JUMPDEST PUSH0 DUP1 PUSH2 0xBEC DUP4 PUSH2 0x1430 JUMP JUMPDEST SWAP1 POP PUSH0 PUSH20 0xFFFFFFFFFFFFFFFFFFFFFFFFFFFFFFFFFFFFFFFF AND DUP2 PUSH20 0xFFFFFFFFFFFFFFFFFFFFFFFFFFFFFFFFFFFFFFFF AND SUB PUSH2 0xC5E JUMPI DUP3 PUSH1 0x40 MLOAD PUSH32 0x7E27328900000000000000000000000000000000000000000000000000000000 DUP2 MSTORE PUSH1 0x4 ADD PUSH2 0xC55 SWAP2 SWAP1 PUSH2 0x1C64 JUMP JUMPDEST PUSH1 0x40 MLOAD DUP1 SWAP2 SUB SWAP1 REVERT JUMPDEST DUP1 SWAP2 POP POP SWAP2 SWAP1 POP JUMP JUMPDEST PUSH0 PUSH1 0x4 PUSH0 DUP4 DUP2 MSTORE PUSH1 0x20 ADD SWAP1 DUP2 MSTORE PUSH1 0x20 ADD PUSH0 KECCAK256 PUSH0 SWAP1 SLOAD SWAP1 PUSH2 0x100 EXP SWAP1 DIV PUSH20 0xFFFFFFFFFFFFFFFFFFFFFFFFFFFFFFFFFFFFFFFF AND SWAP1 POP SWAP2 SWAP1 POP JUMP JUMPDEST PUSH0 CALLER SWAP1 POP SWAP1 JUMP JUMPDEST PUSH2 0xCB4 DUP4 DUP4 DUP4 PUSH1 0x1 PUSH2 0x1469 JUMP JUMPDEST POP POP POP JUMP JUMPDEST PUSH0 DUP1 PUSH2 0xCC4 DUP5 PUSH2 0x1430 JUMP JUMPDEST SWAP1 POP PUSH0 PUSH20 0xFFFFFFFFFFFFFFFFFFFFFFFFFFFFFFFFFFFFFFFF AND DUP4 PUSH20 0xFFFFFFFFFFFFFFFFFFFFFFFFFFFFFFFFFFFFFFFF AND EQ PUSH2 0xD05 JUMPI PUSH2 0xD04 DUP2 DUP5 DUP7 PUSH2 0x1628 JUMP JUMPDEST JUMPDEST PUSH0 PUSH20 0xFFFFFFFFFFFFFFFFFFFFFFFFFFFFFFFFFFFFFFFF AND DUP2 PUSH20 0xFFFFFFFFFFFFFFFFFFFFFFFFFFFFFFFFFFFFFFFF AND EQ PUSH2 0xD90 JUMPI PUSH2 0xD44 PUSH0 DUP6 PUSH0 DUP1 PUSH2 0x1469 JUMP JUMPDEST PUSH1 0x1 PUSH1 0x3 PUSH0 DUP4 PUSH20 0xFFFFFFFFFFFFFFFFFFFFFFFFFFFFFFFFFFFFFFFF AND PUSH20 0xFFFFFFFFFFFFFFFFFFFFFFFFFFFFFFFFFFFFFFFF AND DUP2 MSTORE PUSH1 0x20 ADD SWAP1 DUP2 MSTORE PUSH1 0x20 ADD PUSH0 KECCAK256 PUSH0 DUP3 DUP3 SLOAD SUB SWAP3 POP POP DUP2 SWAP1 SSTORE POP JUMPDEST PUSH0 PUSH20 0xFFFFFFFFFFFFFFFFFFFFFFFFFFFFFFFFFFFFFFFF AND DUP6 PUSH20 0xFFFFFFFFFFFFFFFFFFFFFFFFFFFFFFFFFFFFFFFF AND EQ PUSH2 0xE0F JUMPI PUSH1 0x1 PUSH1 0x3 PUSH0 DUP8 PUSH20 0xFFFFFFFFFFFFFFFFFFFFFFFFFFFFFFFFFFFFFFFF AND PUSH20 0xFFFFFFFFFFFFFFFFFFFFFFFFFFFFFFFFFFFFFFFF AND DUP2 MSTORE PUSH1 0x20 ADD SWAP1 DUP2 MSTORE PUSH1 0x20 ADD PUSH0 KECCAK256 PUSH0 DUP3 DUP3 SLOAD ADD SWAP3 POP POP DUP2 SWAP1 SSTORE POP JUMPDEST DUP5 PUSH1 0x2 PUSH0 DUP7 DUP2 MSTORE PUSH1 0x20 ADD SWAP1 DUP2 MSTORE PUSH1 0x20 ADD PUSH0 KECCAK256 PUSH0 PUSH2 0x100 EXP DUP2 SLOAD DUP2 PUSH20 0xFFFFFFFFFFFFFFFFFFFFFFFFFFFFFFFFFFFFFFFF MUL NOT AND SWAP1 DUP4 PUSH20 0xFFFFFFFFFFFFFFFFFFFFFFFFFFFFFFFFFFFFFFFF AND MUL OR SWAP1 SSTORE POP DUP4 DUP6 PUSH20 0xFFFFFFFFFFFFFFFFFFFFFFFFFFFFFFFFFFFFFFFF AND DUP3 PUSH20 0xFFFFFFFFFFFFFFFFFFFFFFFFFFFFFFFFFFFFFFFF AND PUSH32 0xDDF252AD1BE2C89B69C2B068FC378DAA952BA7F163C4A11628F55A4DF523B3EF PUSH1 0x40 MLOAD PUSH1 0x40 MLOAD DUP1 SWAP2 SUB SWAP1 LOG4 DUP1 SWAP2 POP POP SWAP4 SWAP3 POP POP POP JUMP JUMPDEST PUSH2 0xECC PUSH2 0xCA0 JUMP JUMPDEST PUSH20 0xFFFFFFFFFFFFFFFFFFFFFFFFFFFFFFFFFFFFFFFF AND PUSH2 0xEEA PUSH2 0x8F4 JUMP JUMPDEST PUSH20 0xFFFFFFFFFFFFFFFFFFFFFFFFFFFFFFFFFFFFFFFF AND EQ PUSH2 0xF49 JUMPI PUSH2 0xF0D PUSH2 0xCA0 JUMP JUMPDEST PUSH1 0x40 MLOAD PUSH32 0x118CDAA700000000000000000000000000000000000000000000000000000000 DUP2 MSTORE PUSH1 0x4 ADD PUSH2 0xF40 SWAP2 SWAP1 PUSH2 0x1B59 JUMP JUMPDEST PUSH1 0x40 MLOAD DUP1 SWAP2 SUB SWAP1 REVERT JUMPDEST JUMP JUMPDEST PUSH0 PUSH1 0x6 PUSH0 SWAP1 SLOAD SWAP1 PUSH2 0x100 EXP SWAP1 DIV PUSH20 0xFFFFFFFFFFFFFFFFFFFFFFFFFFFFFFFFFFFFFFFF AND SWAP1 POP DUP2 PUSH1 0x6 PUSH0 PUSH2 0x100 EXP DUP2 SLOAD DUP2 PUSH20 0xFFFFFFFFFFFFFFFFFFFFFFFFFFFFFFFFFFFFFFFF MUL NOT AND SWAP1 DUP4 PUSH20 0xFFFFFFFFFFFFFFFFFFFFFFFFFFFFFFFFFFFFFFFF AND MUL OR SWAP1 SSTORE POP DUP2 PUSH20 0xFFFFFFFFFFFFFFFFFFFFFFFFFFFFFFFFFFFFFFFF AND DUP2 PUSH20 0xFFFFFFFFFFFFFFFFFFFFFFFFFFFFFFFFFFFFFFFF AND PUSH32 0x8BE0079C531659141344CD1FD0A4F28419497F9722A3DAAFE3B4186F6B6457E0 PUSH1 0x40 MLOAD PUSH1 0x40 MLOAD DUP1 SWAP2 SUB SWAP1 LOG3 POP POP JUMP JUMPDEST PUSH0 PUSH20 0xFFFFFFFFFFFFFFFFFFFFFFFFFFFFFFFFFFFFFFFF AND DUP3 PUSH20 0xFFFFFFFFFFFFFFFFFFFFFFFFFFFFFFFFFFFFFFFF AND SUB PUSH2 0x107E JUMPI DUP2 PUSH1 0x40 MLOAD PUSH32 0x5B08BA1800000000000000000000000000000000000000000000000000000000 DUP2 MSTORE PUSH1 0x4 ADD PUSH2 0x1075 SWAP2 SWAP1 PUSH2 0x1B59 JUMP JUMPDEST PUSH1 0x40 MLOAD DUP1 SWAP2 SUB SWAP1 REVERT JUMPDEST DUP1 PUSH1 0x5 PUSH0 DUP6 PUSH20 0xFFFFFFFFFFFFFFFFFFFFFFFFFFFFFFFFFFFFFFFF AND PUSH20 0xFFFFFFFFFFFFFFFFFFFFFFFFFFFFFFFFFFFFFFFF AND DUP2 MSTORE PUSH1 0x20 ADD SWAP1 DUP2 MSTORE PUSH1 0x20 ADD PUSH0 KECCAK256 PUSH0 DUP5 PUSH20 0xFFFFFFFFFFFFFFFFFFFFFFFFFFFFFFFFFFFFFFFF AND PUSH20 0xFFFFFFFFFFFFFFFFFFFFFFFFFFFFFFFFFFFFFFFF AND DUP2 MSTORE PUSH1 0x20 ADD SWAP1 DUP2 MSTORE PUSH1 0x20 ADD PUSH0 KECCAK256 PUSH0 PUSH2 0x100 EXP DUP2 SLOAD DUP2 PUSH1 0xFF MUL NOT AND SWAP1 DUP4 ISZERO ISZERO MUL OR SWAP1 SSTORE POP DUP2 PUSH20 0xFFFFFFFFFFFFFFFFFFFFFFFFFFFFFFFFFFFFFFFF AND DUP4 PUSH20 0xFFFFFFFFFFFFFFFFFFFFFFFFFFFFFFFFFFFFFFFF AND PUSH32 0x17307EAB39AB6107E8899845AD3D59BD9653F200F220920489CA2B5937696C31 DUP4 PUSH1 0x40 MLOAD PUSH2 0x116A SWAP2 SWAP1 PUSH2 0x19F9 JUMP JUMPDEST PUSH1 0x40 MLOAD DUP1 SWAP2 SUB SWAP1 LOG3 POP POP POP JUMP JUMPDEST PUSH0 DUP4 PUSH20 0xFFFFFFFFFFFFFFFFFFFFFFFFFFFFFFFFFFFFFFFF AND EXTCODESIZE GT ISZERO PUSH2 0x1323 JUMPI DUP3 PUSH20 0xFFFFFFFFFFFFFFFFFFFFFFFFFFFFFFFFFFFFFFFF AND PUSH4 0x150B7A02 PUSH2 0x11BA PUSH2 0xCA0 JUMP JUMPDEST DUP7 DUP6 DUP6 PUSH1 0x40 MLOAD DUP6 PUSH4 0xFFFFFFFF AND PUSH1 0xE0 SHL DUP2 MSTORE PUSH1 0x4 ADD PUSH2 0x11DC SWAP5 SWAP4 SWAP3 SWAP2 SWAP1 PUSH2 0x2104 JUMP JUMPDEST PUSH1 0x20 PUSH1 0x40 MLOAD DUP1 DUP4 SUB DUP2 PUSH0 DUP8 GAS CALL SWAP3 POP POP POP DUP1 ISZERO PUSH2 0x1217 JUMPI POP PUSH1 0x40 MLOAD RETURNDATASIZE PUSH1 0x1F NOT PUSH1 0x1F DUP3 ADD AND DUP3 ADD DUP1 PUSH1 0x40 MSTORE POP DUP2 ADD SWAP1 PUSH2 0x1214 SWAP2 SWAP1 PUSH2 0x2162 JUMP JUMPDEST PUSH1 0x1 JUMPDEST PUSH2 0x1298 JUMPI RETURNDATASIZE DUP1 PUSH0 DUP2 EQ PUSH2 0x1245 JUMPI PUSH1 0x40 MLOAD SWAP2 POP PUSH1 0x1F NOT PUSH1 0x3F RETURNDATASIZE ADD AND DUP3 ADD PUSH1 0x40 MSTORE RETURNDATASIZE DUP3 MSTORE RETURNDATASIZE PUSH0 PUSH1 0x20 DUP5 ADD RETURNDATACOPY PUSH2 0x124A JUMP JUMPDEST PUSH1 0x60 SWAP2 POP JUMPDEST POP PUSH0 DUP2 MLOAD SUB PUSH2 0x1290 JUMPI DUP4 PUSH1 0x40 MLOAD PUSH32 0x64A0AE9200000000000000000000000000000000000000000000000000000000 DUP2 MSTORE PUSH1 0x4 ADD PUSH2 0x1287 SWAP2 SWAP1 PUSH2 0x1B59 JUMP JUMPDEST PUSH1 0x40 MLOAD DUP1 SWAP2 SUB SWAP1 REVERT JUMPDEST DUP1 MLOAD DUP2 PUSH1 0x20 ADD REVERT JUMPDEST PUSH4 0x150B7A02 PUSH1 0xE0 SHL PUSH28 0xFFFFFFFFFFFFFFFFFFFFFFFFFFFFFFFFFFFFFFFFFFFFFFFFFFFFFFFF NOT AND DUP2 PUSH28 0xFFFFFFFFFFFFFFFFFFFFFFFFFFFFFFFFFFFFFFFFFFFFFFFFFFFFFFFF NOT AND EQ PUSH2 0x1321 JUMPI DUP4 PUSH1 0x40 MLOAD PUSH32 0x64A0AE9200000000000000000000000000000000000000000000000000000000 DUP2 MSTORE PUSH1 0x4 ADD PUSH2 0x1318 SWAP2 SWAP1 PUSH2 0x1B59 JUMP JUMPDEST PUSH1 0x40 MLOAD DUP1 SWAP2 SUB SWAP1 REVERT JUMPDEST POP JUMPDEST POP POP POP POP JUMP JUMPDEST PUSH1 0x60 PUSH1 0x40 MLOAD DUP1 PUSH1 0x40 ADD PUSH1 0x40 MSTORE DUP1 PUSH1 0x18 DUP2 MSTORE PUSH1 0x20 ADD PUSH32 0x697066733A2F2F7069656365546F6B656E426173655552490000000000000000 DUP2 MSTORE POP SWAP1 POP SWAP1 JUMP JUMPDEST PUSH1 0x60 PUSH0 PUSH1 0x1 PUSH2 0x1374 DUP5 PUSH2 0x16EB JUMP JUMPDEST ADD SWAP1 POP PUSH0 DUP2 PUSH8 0xFFFFFFFFFFFFFFFF DUP2 GT ISZERO PUSH2 0x1392 JUMPI PUSH2 0x1391 PUSH2 0x1DE1 JUMP JUMPDEST JUMPDEST PUSH1 0x40 MLOAD SWAP1 DUP1 DUP3 MSTORE DUP1 PUSH1 0x1F ADD PUSH1 0x1F NOT AND PUSH1 0x20 ADD DUP3 ADD PUSH1 0x40 MSTORE DUP1 ISZERO PUSH2 0x13C4 JUMPI DUP2 PUSH1 0x20 ADD PUSH1 0x1 DUP3 MUL DUP1 CALLDATASIZE DUP4 CALLDATACOPY DUP1 DUP3 ADD SWAP2 POP POP SWAP1 POP JUMPDEST POP SWAP1 POP PUSH0 DUP3 PUSH1 0x20 ADD DUP3 ADD SWAP1 POP JUMPDEST PUSH1 0x1 ISZERO PUSH2 0x1425 JUMPI DUP1 DUP1 PUSH1 0x1 SWAP1 SUB SWAP2 POP POP PUSH32 0x3031323334353637383961626364656600000000000000000000000000000000 PUSH1 0xA DUP7 MOD BYTE DUP2 MSTORE8 PUSH1 0xA DUP6 DUP2 PUSH2 0x141A JUMPI PUSH2 0x1419 PUSH2 0x218D JUMP JUMPDEST JUMPDEST DIV SWAP5 POP PUSH0 DUP6 SUB PUSH2 0x13D1 JUMPI JUMPDEST DUP2 SWAP4 POP POP POP POP SWAP2 SWAP1 POP JUMP JUMPDEST PUSH0 PUSH1 0x2 PUSH0 DUP4 DUP2 MSTORE PUSH1 0x20 ADD SWAP1 DUP2 MSTORE PUSH1 0x20 ADD PUSH0 KECCAK256 PUSH0 SWAP1 SLOAD SWAP1 PUSH2 0x100 EXP SWAP1 DIV PUSH20 0xFFFFFFFFFFFFFFFFFFFFFFFFFFFFFFFFFFFFFFFF AND SWAP1 POP SWAP2 SWAP1 POP JUMP JUMPDEST DUP1 DUP1 PUSH2 0x14A1 JUMPI POP PUSH0 PUSH20 0xFFFFFFFFFFFFFFFFFFFFFFFFFFFFFFFFFFFFFFFF AND DUP3 PUSH20 0xFFFFFFFFFFFFFFFFFFFFFFFFFFFFFFFFFFFFFFFF AND EQ ISZERO JUMPDEST ISZERO PUSH2 0x15D3 JUMPI PUSH0 PUSH2 0x14B0 DUP5 PUSH2 0xBE1 JUMP JUMPDEST SWAP1 POP PUSH0 PUSH20 0xFFFFFFFFFFFFFFFFFFFFFFFFFFFFFFFFFFFFFFFF AND DUP4 PUSH20 0xFFFFFFFFFFFFFFFFFFFFFFFFFFFFFFFFFFFFFFFF AND EQ ISZERO DUP1 ISZERO PUSH2 0x151A JUMPI POP DUP3 PUSH20 0xFFFFFFFFFFFFFFFFFFFFFFFFFFFFFFFFFFFFFFFF AND DUP2 PUSH20 0xFFFFFFFFFFFFFFFFFFFFFFFFFFFFFFFFFFFFFFFF AND EQ ISZERO JUMPDEST DUP1 ISZERO PUSH2 0x152D JUMPI POP PUSH2 0x152B DUP2 DUP5 PUSH2 0xA66 JUMP JUMPDEST ISZERO JUMPDEST ISZERO PUSH2 0x156F JUMPI DUP3 PUSH1 0x40 MLOAD PUSH32 0xA9FBF51F00000000000000000000000000000000000000000000000000000000 DUP2 MSTORE PUSH1 0x4 ADD PUSH2 0x1566 SWAP2 SWAP1 PUSH2 0x1B59 JUMP JUMPDEST PUSH1 0x40 MLOAD DUP1 SWAP2 SUB SWAP1 REVERT JUMPDEST DUP2 ISZERO PUSH2 0x15D1 JUMPI DUP4 DUP6 PUSH20 0xFFFFFFFFFFFFFFFFFFFFFFFFFFFFFFFFFFFFFFFF AND DUP3 PUSH20 0xFFFFFFFFFFFFFFFFFFFFFFFFFFFFFFFFFFFFFFFF AND PUSH32 0x8C5BE1E5EBEC7D5BD14F71427D1E84F3DD0314C0F7B2291E5B200AC8C7C3B925 PUSH1 0x40 MLOAD PUSH1 0x40 MLOAD DUP1 SWAP2 SUB SWAP1 LOG4 JUMPDEST POP JUMPDEST DUP4 PUSH1 0x4 PUSH0 DUP6 DUP2 MSTORE PUSH1 0x20 ADD SWAP1 DUP2 MSTORE PUSH1 0x20 ADD PUSH0 KECCAK256 PUSH0 PUSH2 0x100 EXP DUP2 SLOAD DUP2 PUSH20 0xFFFFFFFFFFFFFFFFFFFFFFFFFFFFFFFFFFFFFFFF MUL NOT AND SWAP1 DUP4 PUSH20 0xFFFFFFFFFFFFFFFFFFFFFFFFFFFFFFFFFFFFFFFF AND MUL OR SWAP1 SSTORE POP POP POP POP POP JUMP JUMPDEST PUSH2 0x1633 DUP4 DUP4 DUP4 PUSH2 0x183C JUMP JUMPDEST PUSH2 0x16E6 JUMPI PUSH0 PUSH20 0xFFFFFFFFFFFFFFFFFFFFFFFFFFFFFFFFFFFFFFFF AND DUP4 PUSH20 0xFFFFFFFFFFFFFFFFFFFFFFFFFFFFFFFFFFFFFFFF AND SUB PUSH2 0x16A7 JUMPI DUP1 PUSH1 0x40 MLOAD PUSH32 0x7E27328900000000000000000000000000000000000000000000000000000000 DUP2 MSTORE PUSH1 0x4 ADD PUSH2 0x169E SWAP2 SWAP1 PUSH2 0x1C64 JUMP JUMPDEST PUSH1 0x40 MLOAD DUP1 SWAP2 SUB SWAP1 REVERT JUMPDEST DUP2 DUP2 PUSH1 0x40 MLOAD PUSH32 0x177E802F00000000000000000000000000000000000000000000000000000000 DUP2 MSTORE PUSH1 0x4 ADD PUSH2 0x16DD SWAP3 SWAP2 SWAP1 PUSH2 0x21BA JUMP JUMPDEST PUSH1 0x40 MLOAD DUP1 SWAP2 SUB SWAP1 REVERT JUMPDEST POP POP POP JUMP JUMPDEST PUSH0 DUP1 PUSH0 SWAP1 POP PUSH27 0x184F03E93FF9F4DAA797ED6E38ED64BF6A1F010000000000000000 DUP4 LT PUSH2 0x1747 JUMPI PUSH27 0x184F03E93FF9F4DAA797ED6E38ED64BF6A1F010000000000000000 DUP4 DUP2 PUSH2 0x173D JUMPI PUSH2 0x173C PUSH2 0x218D JUMP JUMPDEST JUMPDEST DIV SWAP3 POP PUSH1 0x40 DUP2 ADD SWAP1 POP JUMPDEST PUSH14 0x4EE2D6D415B85ACEF8100000000 DUP4 LT PUSH2 0x1784 JUMPI PUSH14 0x4EE2D6D415B85ACEF8100000000 DUP4 DUP2 PUSH2 0x177A JUMPI PUSH2 0x1779 PUSH2 0x218D JUMP JUMPDEST JUMPDEST DIV SWAP3 POP PUSH1 0x20 DUP2 ADD SWAP1 POP JUMPDEST PUSH7 0x2386F26FC10000 DUP4 LT PUSH2 0x17B3 JUMPI PUSH7 0x2386F26FC10000 DUP4 DUP2 PUSH2 0x17A9 JUMPI PUSH2 0x17A8 PUSH2 0x218D JUMP JUMPDEST JUMPDEST DIV SWAP3 POP PUSH1 0x10 DUP2 ADD SWAP1 POP JUMPDEST PUSH4 0x5F5E100 DUP4 LT PUSH2 0x17DC JUMPI PUSH4 0x5F5E100 DUP4 DUP2 PUSH2 0x17D2 JUMPI PUSH2 0x17D1 PUSH2 0x218D JUMP JUMPDEST JUMPDEST DIV SWAP3 POP PUSH1 0x8 DUP2 ADD SWAP1 POP JUMPDEST PUSH2 0x2710 DUP4 LT PUSH2 0x1801 JUMPI PUSH2 0x2710 DUP4 DUP2 PUSH2 0x17F7 JUMPI PUSH2 0x17F6 PUSH2 0x218D JUMP JUMPDEST JUMPDEST DIV SWAP3 POP PUSH1 0x4 DUP2 ADD SWAP1 POP JUMPDEST PUSH1 0x64 DUP4 LT PUSH2 0x1824 JUMPI PUSH1 0x64 DUP4 DUP2 PUSH2 0x181A JUMPI PUSH2 0x1819 PUSH2 0x218D JUMP JUMPDEST JUMPDEST DIV SWAP3 POP PUSH1 0x2 DUP2 ADD SWAP1 POP JUMPDEST PUSH1 0xA DUP4 LT PUSH2 0x1833 JUMPI PUSH1 0x1 DUP2 ADD SWAP1 POP JUMPDEST DUP1 SWAP2 POP POP SWAP2 SWAP1 POP JUMP JUMPDEST PUSH0 DUP1 PUSH20 0xFFFFFFFFFFFFFFFFFFFFFFFFFFFFFFFFFFFFFFFF AND DUP4 PUSH20 0xFFFFFFFFFFFFFFFFFFFFFFFFFFFFFFFFFFFFFFFF AND EQ ISZERO DUP1 ISZERO PUSH2 0x18F3 JUMPI POP DUP3 PUSH20 0xFFFFFFFFFFFFFFFFFFFFFFFFFFFFFFFFFFFFFFFF AND DUP5 PUSH20 0xFFFFFFFFFFFFFFFFFFFFFFFFFFFFFFFFFFFFFFFF AND EQ DUP1 PUSH2 0x18B4 JUMPI POP PUSH2 0x18B3 DUP5 DUP5 PUSH2 0xA66 JUMP JUMPDEST JUMPDEST DUP1 PUSH2 0x18F2 JUMPI POP DUP3 PUSH20 0xFFFFFFFFFFFFFFFFFFFFFFFFFFFFFFFFFFFFFFFF AND PUSH2 0x18DA DUP4 PUSH2 0xC67 JUMP JUMPDEST PUSH20 0xFFFFFFFFFFFFFFFFFFFFFFFFFFFFFFFFFFFFFFFF AND EQ JUMPDEST JUMPDEST SWAP1 POP SWAP4 SWAP3 POP POP POP JUMP JUMPDEST PUSH1 0x40 MLOAD DUP1 PUSH1 0x80 ADD PUSH1 0x40 MSTORE DUP1 PUSH0 PUSH20 0xFFFFFFFFFFFFFFFFFFFFFFFFFFFFFFFFFFFFFFFF AND DUP2 MSTORE PUSH1 0x20 ADD PUSH0 PUSH20 0xFFFFFFFFFFFFFFFFFFFFFFFFFFFFFFFFFFFFFFFF AND DUP2 MSTORE PUSH1 0x20 ADD PUSH0 DUP2 MSTORE PUSH1 0x20 ADD PUSH0 ISZERO ISZERO DUP2 MSTORE POP SWAP1 JUMP JUMPDEST PUSH0 PUSH1 0x40 MLOAD SWAP1 POP SWAP1 JUMP JUMPDEST PUSH0 DUP1 REVERT JUMPDEST PUSH0 DUP1 REVERT JUMPDEST PUSH0 PUSH32 0xFFFFFFFF00000000000000000000000000000000000000000000000000000000 DUP3 AND SWAP1 POP SWAP2 SWAP1 POP JUMP JUMPDEST PUSH2 0x1993 DUP2 PUSH2 0x195F JUMP JUMPDEST DUP2 EQ PUSH2 0x199D JUMPI PUSH0 DUP1 REVERT JUMPDEST POP JUMP JUMPDEST PUSH0 DUP2 CALLDATALOAD SWAP1 POP PUSH2 0x19AE DUP2 PUSH2 0x198A JUMP JUMPDEST SWAP3 SWAP2 POP POP JUMP JUMPDEST PUSH0 PUSH1 0x20 DUP3 DUP5 SUB SLT ISZERO PUSH2 0x19C9 JUMPI PUSH2 0x19C8 PUSH2 0x1957 JUMP JUMPDEST JUMPDEST PUSH0 PUSH2 0x19D6 DUP5 DUP3 DUP6 ADD PUSH2 0x19A0 JUMP JUMPDEST SWAP2 POP POP SWAP3 SWAP2 POP POP JUMP JUMPDEST PUSH0 DUP2 ISZERO ISZERO SWAP1 POP SWAP2 SWAP1 POP JUMP JUMPDEST PUSH2 0x19F3 DUP2 PUSH2 0x19DF JUMP JUMPDEST DUP3 MSTORE POP POP JUMP JUMPDEST PUSH0 PUSH1 0x20 DUP3 ADD SWAP1 POP PUSH2 0x1A0C PUSH0 DUP4 ADD DUP5 PUSH2 0x19EA JUMP JUMPDEST SWAP3 SWAP2 POP POP JUMP JUMPDEST PUSH0 DUP2 MLOAD SWAP1 POP SWAP2 SWAP1 POP JUMP JUMPDEST PUSH0 DUP3 DUP3 MSTORE PUSH1 0x20 DUP3 ADD SWAP1 POP SWAP3 SWAP2 POP POP JUMP JUMPDEST PUSH0 JUMPDEST DUP4 DUP2 LT ISZERO PUSH2 0x1A49 JUMPI DUP1 DUP3 ADD MLOAD DUP2 DUP5 ADD MSTORE PUSH1 0x20 DUP2 ADD SWAP1 POP PUSH2 0x1A2E JUMP JUMPDEST PUSH0 DUP5 DUP5 ADD MSTORE POP POP POP POP JUMP JUMPDEST PUSH0 PUSH1 0x1F NOT PUSH1 0x1F DUP4 ADD AND SWAP1 POP SWAP2 SWAP1 POP JUMP JUMPDEST PUSH0 PUSH2 0x1A6E DUP3 PUSH2 0x1A12 JUMP JUMPDEST PUSH2 0x1A78 DUP2 DUP6 PUSH2 0x1A1C JUMP JUMPDEST SWAP4 POP PUSH2 0x1A88 DUP2 DUP6 PUSH1 0x20 DUP7 ADD PUSH2 0x1A2C JUMP JUMPDEST PUSH2 0x1A91 DUP2 PUSH2 0x1A54 JUMP JUMPDEST DUP5 ADD SWAP2 POP POP SWAP3 SWAP2 POP POP JUMP JUMPDEST PUSH0 PUSH1 0x20 DUP3 ADD SWAP1 POP DUP2 DUP2 SUB PUSH0 DUP4 ADD MSTORE PUSH2 0x1AB4 DUP2 DUP5 PUSH2 0x1A64 JUMP JUMPDEST SWAP1 POP SWAP3 SWAP2 POP POP JUMP JUMPDEST PUSH0 DUP2 SWAP1 POP SWAP2 SWAP1 POP JUMP JUMPDEST PUSH2 0x1ACE DUP2 PUSH2 0x1ABC JUMP JUMPDEST DUP2 EQ PUSH2 0x1AD8 JUMPI PUSH0 DUP1 REVERT JUMPDEST POP JUMP JUMPDEST PUSH0 DUP2 CALLDATALOAD SWAP1 POP PUSH2 0x1AE9 DUP2 PUSH2 0x1AC5 JUMP JUMPDEST SWAP3 SWAP2 POP POP JUMP JUMPDEST PUSH0 PUSH1 0x20 DUP3 DUP5 SUB SLT ISZERO PUSH2 0x1B04 JUMPI PUSH2 0x1B03 PUSH2 0x1957 JUMP JUMPDEST JUMPDEST PUSH0 PUSH2 0x1B11 DUP5 DUP3 DUP6 ADD PUSH2 0x1ADB JUMP JUMPDEST SWAP2 POP POP SWAP3 SWAP2 POP POP JUMP JUMPDEST PUSH0 PUSH20 0xFFFFFFFFFFFFFFFFFFFFFFFFFFFFFFFFFFFFFFFF DUP3 AND SWAP1 POP SWAP2 SWAP1 POP JUMP JUMPDEST PUSH0 PUSH2 0x1B43 DUP3 PUSH2 0x1B1A JUMP JUMPDEST SWAP1 POP SWAP2 SWAP1 POP JUMP JUMPDEST PUSH2 0x1B53 DUP2 PUSH2 0x1B39 JUMP JUMPDEST DUP3 MSTORE POP POP JUMP JUMPDEST PUSH0 PUSH1 0x20 DUP3 ADD SWAP1 POP PUSH2 0x1B6C PUSH0 DUP4 ADD DUP5 PUSH2 0x1B4A JUMP JUMPDEST SWAP3 SWAP2 POP POP JUMP JUMPDEST PUSH2 0x1B7B DUP2 PUSH2 0x1B39 JUMP JUMPDEST DUP2 EQ PUSH2 0x1B85 JUMPI PUSH0 DUP1 REVERT JUMPDEST POP JUMP JUMPDEST PUSH0 DUP2 CALLDATALOAD SWAP1 POP PUSH2 0x1B96 DUP2 PUSH2 0x1B72 JUMP JUMPDEST SWAP3 SWAP2 POP POP JUMP JUMPDEST PUSH0 DUP1 PUSH1 0x40 DUP4 DUP6 SUB SLT ISZERO PUSH2 0x1BB2 JUMPI PUSH2 0x1BB1 PUSH2 0x1957 JUMP JUMPDEST JUMPDEST PUSH0 PUSH2 0x1BBF DUP6 DUP3 DUP7 ADD PUSH2 0x1B88 JUMP JUMPDEST SWAP3 POP POP PUSH1 0x20 PUSH2 0x1BD0 DUP6 DUP3 DUP7 ADD PUSH2 0x1ADB JUMP JUMPDEST SWAP2 POP POP SWAP3 POP SWAP3 SWAP1 POP JUMP JUMPDEST PUSH0 DUP1 PUSH0 PUSH1 0x60 DUP5 DUP7 SUB SLT ISZERO PUSH2 0x1BF1 JUMPI PUSH2 0x1BF0 PUSH2 0x1957 JUMP JUMPDEST JUMPDEST PUSH0 PUSH2 0x1BFE DUP7 DUP3 DUP8 ADD PUSH2 0x1B88 JUMP JUMPDEST SWAP4 POP POP PUSH1 0x20 PUSH2 0x1C0F DUP7 DUP3 DUP8 ADD PUSH2 0x1B88 JUMP JUMPDEST SWAP3 POP POP PUSH1 0x40 PUSH2 0x1C20 DUP7 DUP3 DUP8 ADD PUSH2 0x1ADB JUMP JUMPDEST SWAP2 POP POP SWAP3 POP SWAP3 POP SWAP3 JUMP JUMPDEST PUSH0 PUSH1 0x20 DUP3 DUP5 SUB SLT ISZERO PUSH2 0x1C3F JUMPI PUSH2 0x1C3E PUSH2 0x1957 JUMP JUMPDEST JUMPDEST PUSH0 PUSH2 0x1C4C DUP5 DUP3 DUP6 ADD PUSH2 0x1B88 JUMP JUMPDEST SWAP2 POP POP SWAP3 SWAP2 POP POP JUMP JUMPDEST PUSH2 0x1C5E DUP2 PUSH2 0x1ABC JUMP JUMPDEST DUP3 MSTORE POP POP JUMP JUMPDEST PUSH0 PUSH1 0x20 DUP3 ADD SWAP1 POP PUSH2 0x1C77 PUSH0 DUP4 ADD DUP5 PUSH2 0x1C55 JUMP JUMPDEST SWAP3 SWAP2 POP POP JUMP JUMPDEST PUSH2 0x1C86 DUP2 PUSH2 0x1B39 JUMP JUMPDEST DUP3 MSTORE POP POP JUMP JUMPDEST PUSH0 DUP2 SWAP1 POP SWAP2 SWAP1 POP JUMP JUMPDEST PUSH0 PUSH2 0x1CAF PUSH2 0x1CAA PUSH2 0x1CA5 DUP5 PUSH2 0x1B1A JUMP JUMPDEST PUSH2 0x1C8C JUMP JUMPDEST PUSH2 0x1B1A JUMP JUMPDEST SWAP1 POP SWAP2 SWAP1 POP JUMP JUMPDEST PUSH0 PUSH2 0x1CC0 DUP3 PUSH2 0x1C95 JUMP JUMPDEST SWAP1 POP SWAP2 SWAP1 POP JUMP JUMPDEST PUSH0 PUSH2 0x1CD1 DUP3 PUSH2 0x1CB6 JUMP JUMPDEST SWAP1 POP SWAP2 SWAP1 POP JUMP JUMPDEST PUSH2 0x1CE1 DUP2 PUSH2 0x1CC7 JUMP JUMPDEST DUP3 MSTORE POP POP JUMP JUMPDEST PUSH2 0x1CF0 DUP2 PUSH2 0x1ABC JUMP JUMPDEST DUP3 MSTORE POP POP JUMP JUMPDEST PUSH2 0x1CFF DUP2 PUSH2 0x19DF JUMP JUMPDEST DUP3 MSTORE POP POP JUMP JUMPDEST PUSH1 0x80 DUP3 ADD PUSH0 DUP3 ADD MLOAD PUSH2 0x1D19 PUSH0 DUP6 ADD DUP3 PUSH2 0x1C7D JUMP JUMPDEST POP PUSH1 0x20 DUP3 ADD MLOAD PUSH2 0x1D2C PUSH1 0x20 DUP6 ADD DUP3 PUSH2 0x1CD8 JUMP JUMPDEST POP PUSH1 0x40 DUP3 ADD MLOAD PUSH2 0x1D3F PUSH1 0x40 DUP6 ADD DUP3 PUSH2 0x1CE7 JUMP JUMPDEST POP PUSH1 0x60 DUP3 ADD MLOAD PUSH2 0x1D52 PUSH1 0x60 DUP6 ADD DUP3 PUSH2 0x1CF6 JUMP JUMPDEST POP POP POP POP JUMP JUMPDEST PUSH0 PUSH1 0x80 DUP3 ADD SWAP1 POP PUSH2 0x1D6B PUSH0 DUP4 ADD DUP5 PUSH2 0x1D05 JUMP JUMPDEST SWAP3 SWAP2 POP POP JUMP JUMPDEST PUSH2 0x1D7A DUP2 PUSH2 0x19DF JUMP JUMPDEST DUP2 EQ PUSH2 0x1D84 JUMPI PUSH0 DUP1 REVERT JUMPDEST POP JUMP JUMPDEST PUSH0 DUP2 CALLDATALOAD SWAP1 POP PUSH2 0x1D95 DUP2 PUSH2 0x1D71 JUMP JUMPDEST SWAP3 SWAP2 POP POP JUMP JUMPDEST PUSH0 DUP1 PUSH1 0x40 DUP4 DUP6 SUB SLT ISZERO PUSH2 0x1DB1 JUMPI PUSH2 0x1DB0 PUSH2 0x1957 JUMP JUMPDEST JUMPDEST PUSH0 PUSH2 0x1DBE DUP6 DUP3 DUP7 ADD PUSH2 0x1B88 JUMP JUMPDEST SWAP3 POP POP PUSH1 0x20 PUSH2 0x1DCF DUP6 DUP3 DUP7 ADD PUSH2 0x1D87 JUMP JUMPDEST SWAP2 POP POP SWAP3 POP SWAP3 SWAP1 POP JUMP JUMPDEST PUSH0 DUP1 REVERT JUMPDEST PUSH0 DUP1 REVERT JUMPDEST PUSH32 0x4E487B7100000000000000000000000000000000000000000000000000000000 PUSH0 MSTORE PUSH1 0x41 PUSH1 0x4 MSTORE PUSH1 0x24 PUSH0 REVERT JUMPDEST PUSH2 0x1E17 DUP3 PUSH2 0x1A54 JUMP JUMPDEST DUP2 ADD DUP2 DUP2 LT PUSH8 0xFFFFFFFFFFFFFFFF DUP3 GT OR ISZERO PUSH2 0x1E36 JUMPI PUSH2 0x1E35 PUSH2 0x1DE1 JUMP JUMPDEST JUMPDEST DUP1 PUSH1 0x40 MSTORE POP POP POP JUMP JUMPDEST PUSH0 PUSH2 0x1E48 PUSH2 0x194E JUMP JUMPDEST SWAP1 POP PUSH2 0x1E54 DUP3 DUP3 PUSH2 0x1E0E JUMP JUMPDEST SWAP2 SWAP1 POP JUMP JUMPDEST PUSH0 PUSH8 0xFFFFFFFFFFFFFFFF DUP3 GT ISZERO PUSH2 0x1E73 JUMPI PUSH2 0x1E72 PUSH2 0x1DE1 JUMP JUMPDEST JUMPDEST PUSH2 0x1E7C DUP3 PUSH2 0x1A54 JUMP JUMPDEST SWAP1 POP PUSH1 0x20 DUP2 ADD SWAP1 POP SWAP2 SWAP1 POP JUMP JUMPDEST DUP3 DUP2 DUP4 CALLDATACOPY PUSH0 DUP4 DUP4 ADD MSTORE POP POP POP JUMP JUMPDEST PUSH0 PUSH2 0x1EA9 PUSH2 0x1EA4 DUP5 PUSH2 0x1E59 JUMP JUMPDEST PUSH2 0x1E3F JUMP JUMPDEST SWAP1 POP DUP3 DUP2 MSTORE PUSH1 0x20 DUP2 ADD DUP5 DUP5 DUP5 ADD GT ISZERO PUSH2 0x1EC5 JUMPI PUSH2 0x1EC4 PUSH2 0x1DDD JUMP JUMPDEST JUMPDEST PUSH2 0x1ED0 DUP5 DUP3 DUP6 PUSH2 0x1E89 JUMP JUMPDEST POP SWAP4 SWAP3 POP POP POP JUMP JUMPDEST PUSH0 DUP3 PUSH1 0x1F DUP4 ADD SLT PUSH2 0x1EEC JUMPI PUSH2 0x1EEB PUSH2 0x1DD9 JUMP JUMPDEST JUMPDEST DUP2 CALLDATALOAD PUSH2 0x1EFC DUP5 DUP3 PUSH1 0x20 DUP7 ADD PUSH2 0x1E97 JUMP JUMPDEST SWAP2 POP POP SWAP3 SWAP2 POP POP JUMP JUMPDEST PUSH0 DUP1 PUSH0 DUP1 PUSH1 0x80 DUP6 DUP8 SUB SLT ISZERO PUSH2 0x1F1D JUMPI PUSH2 0x1F1C PUSH2 0x1957 JUMP JUMPDEST JUMPDEST PUSH0 PUSH2 0x1F2A DUP8 DUP3 DUP9 ADD PUSH2 0x1B88 JUMP JUMPDEST SWAP5 POP POP PUSH1 0x20 PUSH2 0x1F3B DUP8 DUP3 DUP9 ADD PUSH2 0x1B88 JUMP JUMPDEST SWAP4 POP POP PUSH1 0x40 PUSH2 0x1F4C DUP8 DUP3 DUP9 ADD PUSH2 0x1ADB JUMP JUMPDEST SWAP3 POP POP PUSH1 0x60 DUP6 ADD CALLDATALOAD PUSH8 0xFFFFFFFFFFFFFFFF DUP2 GT ISZERO PUSH2 0x1F6D JUMPI PUSH2 0x1F6C PUSH2 0x195B JUMP JUMPDEST JUMPDEST PUSH2 0x1F79 DUP8 DUP3 DUP9 ADD PUSH2 0x1ED8 JUMP JUMPDEST SWAP2 POP POP SWAP3 SWAP6 SWAP2 SWAP5 POP SWAP3 POP JUMP JUMPDEST PUSH0 DUP1 PUSH1 0x40 DUP4 DUP6 SUB SLT ISZERO PUSH2 0x1F9B JUMPI PUSH2 0x1F9A PUSH2 0x1957 JUMP JUMPDEST JUMPDEST PUSH0 PUSH2 0x1FA8 DUP6 DUP3 DUP7 ADD PUSH2 0x1B88 JUMP JUMPDEST SWAP3 POP POP PUSH1 0x20 PUSH2 0x1FB9 DUP6 DUP3 DUP7 ADD PUSH2 0x1B88 JUMP JUMPDEST SWAP2 POP POP SWAP3 POP SWAP3 SWAP1 POP JUMP JUMPDEST PUSH32 0x4E487B7100000000000000000000000000000000000000000000000000000000 PUSH0 MSTORE PUSH1 0x22 PUSH1 0x4 MSTORE PUSH1 0x24 PUSH0 REVERT JUMPDEST PUSH0 PUSH1 0x2 DUP3 DIV SWAP1 POP PUSH1 0x1 DUP3 AND DUP1 PUSH2 0x2007 JUMPI PUSH1 0x7F DUP3 AND SWAP2 POP JUMPDEST PUSH1 0x20 DUP3 LT DUP2 SUB PUSH2 0x201A JUMPI PUSH2 0x2019 PUSH2 0x1FC3 JUMP JUMPDEST JUMPDEST POP SWAP2 SWAP1 POP JUMP JUMPDEST PUSH0 PUSH1 0x60 DUP3 ADD SWAP1 POP PUSH2 0x2033 PUSH0 DUP4 ADD DUP7 PUSH2 0x1B4A JUMP JUMPDEST PUSH2 0x2040 PUSH1 0x20 DUP4 ADD DUP6 PUSH2 0x1C55 JUMP JUMPDEST PUSH2 0x204D PUSH1 0x40 DUP4 ADD DUP5 PUSH2 0x1B4A JUMP JUMPDEST SWAP5 SWAP4 POP POP POP POP JUMP JUMPDEST PUSH0 DUP2 SWAP1 POP SWAP3 SWAP2 POP POP JUMP JUMPDEST PUSH0 PUSH2 0x2069 DUP3 PUSH2 0x1A12 JUMP JUMPDEST PUSH2 0x2073 DUP2 DUP6 PUSH2 0x2055 JUMP JUMPDEST SWAP4 POP PUSH2 0x2083 DUP2 DUP6 PUSH1 0x20 DUP7 ADD PUSH2 0x1A2C JUMP JUMPDEST DUP1 DUP5 ADD SWAP2 POP POP SWAP3 SWAP2 POP POP JUMP JUMPDEST PUSH0 PUSH2 0x209A DUP3 DUP6 PUSH2 0x205F JUMP JUMPDEST SWAP2 POP PUSH2 0x20A6 DUP3 DUP5 PUSH2 0x205F JUMP JUMPDEST SWAP2 POP DUP2 SWAP1 POP SWAP4 SWAP3 POP POP POP JUMP JUMPDEST PUSH0 DUP2 MLOAD SWAP1 POP SWAP2 SWAP1 POP JUMP JUMPDEST PUSH0 DUP3 DUP3 MSTORE PUSH1 0x20 DUP3 ADD SWAP1 POP SWAP3 SWAP2 POP POP JUMP JUMPDEST PUSH0 PUSH2 0x20D6 DUP3 PUSH2 0x20B2 JUMP JUMPDEST PUSH2 0x20E0 DUP2 DUP6 PUSH2 0x20BC JUMP JUMPDEST SWAP4 POP PUSH2 0x20F0 DUP2 DUP6 PUSH1 0x20 DUP7 ADD PUSH2 0x1A2C JUMP JUMPDEST PUSH2 0x20F9 DUP2 PUSH2 0x1A54 JUMP JUMPDEST DUP5 ADD SWAP2 POP POP SWAP3 SWAP2 POP POP JUMP JUMPDEST PUSH0 PUSH1 0x80 DUP3 ADD SWAP1 POP PUSH2 0x2117 PUSH0 DUP4 ADD DUP8 PUSH2 0x1B4A JUMP JUMPDEST PUSH2 0x2124 PUSH1 0x20 DUP4 ADD DUP7 PUSH2 0x1B4A JUMP JUMPDEST PUSH2 0x2131 PUSH1 0x40 DUP4 ADD DUP6 PUSH2 0x1C55 JUMP JUMPDEST DUP2 DUP2 SUB PUSH1 0x60 DUP4 ADD MSTORE PUSH2 0x2143 DUP2 DUP5 PUSH2 0x20CC JUMP JUMPDEST SWAP1 POP SWAP6 SWAP5 POP POP POP POP POP JUMP JUMPDEST PUSH0 DUP2 MLOAD SWAP1 POP PUSH2 0x215C DUP2 PUSH2 0x198A JUMP JUMPDEST SWAP3 SWAP2 POP POP JUMP JUMPDEST PUSH0 PUSH1 0x20 DUP3 DUP5 SUB SLT ISZERO PUSH2 0x2177 JUMPI PUSH2 0x2176 PUSH2 0x1957 JUMP JUMPDEST JUMPDEST PUSH0 PUSH2 0x2184 DUP5 DUP3 DUP6 ADD PUSH2 0x214E JUMP JUMPDEST SWAP2 POP POP SWAP3 SWAP2 POP POP JUMP JUMPDEST PUSH32 0x4E487B7100000000000000000000000000000000000000000000000000000000 PUSH0 MSTORE PUSH1 0x12 PUSH1 0x4 MSTORE PUSH1 0x24 PUSH0 REVERT JUMPDEST PUSH0 PUSH1 0x40 DUP3 ADD SWAP1 POP PUSH2 0x21CD PUSH0 DUP4 ADD DUP6 PUSH2 0x1B4A JUMP JUMPDEST PUSH2 0x21DA PUSH1 0x20 DUP4 ADD DUP5 PUSH2 0x1C55 JUMP JUMPDEST SWAP4 SWAP3 POP POP POP JUMP INVALID LOG2 PUSH5 0x6970667358 0x22 SLT KECCAK256 SUB DUP15 ORIGIN PUSH15 0xE7EA47C0D58867F51E45BFA898C556 0xB0 LOG0 0x5C 0x25 PUSH17 0x7CA4D4572479C82F64736F6C6343000814 STOP CALLER LOG2 PUSH5 0x6970667358 0x22 SLT KECCAK256 STOP 0xEB 0x4E BYTE 0xD SWAP4 0x29 POP CALLDATALOAD 0xE9 CALLDATASIZE PUSH16 0x3C700F705693678FA25352601DF56920 DUP16 ADDMOD PUSH30 0x4964736F6C63430008140033A2646970667358221220E6598E095CC9A7F5 PUSH15 0x20BBD024BEF20BA006ACA39D7F41B CALLVALUE 0xB9 SWAP13 0xC 0xF7 0xF7 0x2C 0xBF PUSH5 0x736F6C6343 STOP ADDMOD EQ STOP CALLER "
		},
		"gasEstimates": {
			"creation": {
				"codeDepositCost": "4022200",
				"executionCost": "4595",
				"totalCost": "4026795"
			},
			"external": {
				"addBigPicture(address)": "49088",
				"addPictureToken(address)": "49133",
				"allBigPictures(uint256)": "infinite",
				"allPictureTokens(uint256)": "infinite",
				"createBigPicture(string,string,address[],uint256)": "infinite",
				"getAllBigPictures()": "infinite",
				"getAllPictureTokens()": "infinite",
				"getAllYourPictureTokens(address)": "infinite"
			}
		},
		"methodIdentifiers": {
			"addBigPicture(address)": "c56e0dde",
			"addPictureToken(address)": "fe9e90d6",
			"allBigPictures(uint256)": "4026b3b7",
			"allPictureTokens(uint256)": "722b6f80",
			"createBigPicture(string,string,address[],uint256)": "efac2ae5",
			"getAllBigPictures()": "4eef150d",
			"getAllPictureTokens()": "5eb4a02b",
			"getAllYourPictureTokens(address)": "8c57a24e"
		}
	},
	"abi": [
		{
			"inputs": [
				{
					"internalType": "contract BigPicture",
					"name": "bigPicture",
					"type": "address"
				}
			],
			"name": "addBigPicture",
			"outputs": [],
			"stateMutability": "nonpayable",
			"type": "function"
		},
		{
			"inputs": [
				{
					"internalType": "contract PictureToken",
					"name": "token",
					"type": "address"
				}
			],
			"name": "addPictureToken",
			"outputs": [],
			"stateMutability": "nonpayable",
			"type": "function"
		},
		{
			"inputs": [
				{
					"internalType": "uint256",
					"name": "",
					"type": "uint256"
				}
			],
			"name": "allBigPictures",
			"outputs": [
				{
					"internalType": "contract BigPicture",
					"name": "",
					"type": "address"
				}
			],
			"stateMutability": "view",
			"type": "function"
		},
		{
			"inputs": [
				{
					"internalType": "uint256",
					"name": "",
					"type": "uint256"
				}
			],
			"name": "allPictureTokens",
			"outputs": [
				{
					"internalType": "contract PictureToken",
					"name": "",
					"type": "address"
				}
			],
			"stateMutability": "view",
			"type": "function"
		},
		{
			"inputs": [
				{
					"internalType": "string",
					"name": "_name",
					"type": "string"
				},
				{
					"internalType": "string",
					"name": "_image",
					"type": "string"
				},
				{
					"internalType": "contract Picture[]",
					"name": "_picturePart",
					"type": "address[]"
				},
				{
					"internalType": "uint256",
					"name": "_rewardPrice",
					"type": "uint256"
				}
			],
			"name": "createBigPicture",
			"outputs": [],
			"stateMutability": "nonpayable",
			"type": "function"
		},
		{
			"inputs": [],
			"name": "getAllBigPictures",
			"outputs": [
				{
					"internalType": "contract BigPicture[]",
					"name": "",
					"type": "address[]"
				}
			],
			"stateMutability": "view",
			"type": "function"
		},
		{
			"inputs": [],
			"name": "getAllPictureTokens",
			"outputs": [
				{
					"internalType": "contract PictureToken[]",
					"name": "",
					"type": "address[]"
				}
			],
			"stateMutability": "view",
			"type": "function"
		},
		{
			"inputs": [
				{
					"internalType": "address",
					"name": "yourAddress",
					"type": "address"
				}
			],
			"name": "getAllYourPictureTokens",
			"outputs": [
				{
					"internalType": "contract PictureToken[]",
					"name": "",
					"type": "address[]"
				}
			],
			"stateMutability": "view",
			"type": "function"
		}
	]
}