{
	"data": {
		"bytecode": {
			"linkReferences": {},
			"object": "60a0604052620493e0600a5f6101000a81548163ffffffff021916908363ffffffff1602179055506001600a60046101000a81548163ffffffff021916908363ffffffff16021790555034801562000055575f80fd5b50604051620051193803806200511983398181016040528101906200007b9190620008af565b336040518060400160405280601281526020017f436f6c6c6563744d6173746572546f6b656e00000000000000000000000000008152506040518060400160405280600381526020017f434d54000000000000000000000000000000000000000000000000000000000081525073da8c0a00a372503aa6ec80f9b29cc97c454be4998073ffffffffffffffffffffffffffffffffffffffff1660808173ffffffffffffffffffffffffffffffffffffffff168152505050815f908162000142919062000bd2565b50806001908162000154919062000bd2565b5050505f73ffffffffffffffffffffffffffffffffffffffff168173ffffffffffffffffffffffffffffffffffffffff1603620001ca575f6040517f1e4fbdf7000000000000000000000000000000000000000000000000000000008152600401620001c1919062000cc7565b60405180910390fd5b620001db81620003f160201b60201c565b5073da8c0a00a372503aa6ec80f9b29cc97c454be49960085f6101000a81548173ffffffffffffffffffffffffffffffffffffffff021916908373ffffffffffffffffffffffffffffffffffffffff1602179055506086600860146101000a81548167ffffffffffffffff021916908367ffffffffffffffff1602179055507fd9af33106d664a53cb9946df5cd81a30695f5b72224ee64e798b278af812779c5f1b60098190555085600f908162000294919062000bd2565b508460109081620002a6919062000bd2565b508360119080519060200190620002bf929190620004b4565b5082601281905550816013819055508060145f6101000a81548173ffffffffffffffffffffffffffffffffffffffff021916908373ffffffffffffffffffffffffffffffffffffffff16021790555060145f9054906101000a900473ffffffffffffffffffffffffffffffffffffffff1673ffffffffffffffffffffffffffffffffffffffff1663c56e0dde306040518263ffffffff1660e01b81526004016200036a919062000d40565b5f604051808303815f87803b15801562000382575f80fd5b505af115801562000395573d5f803e3d5ffd5b505050505f600b819055503073ffffffffffffffffffffffffffffffffffffffff166108fc8490811502906040515f60405180830381858888f19350505050158015620003e4573d5f803e3d5ffd5b5050505050505062000d5b565b5f60075f9054906101000a900473ffffffffffffffffffffffffffffffffffffffff1690508160075f6101000a81548173ffffffffffffffffffffffffffffffffffffffff021916908373ffffffffffffffffffffffffffffffffffffffff1602179055508173ffffffffffffffffffffffffffffffffffffffff168173ffffffffffffffffffffffffffffffffffffffff167f8be0079c531659141344cd1fd0a4f28419497f9722a3daafe3b4186f6b6457e060405160405180910390a35050565b828054828255905f5260205f20908101928215620004ff579160200282015b82811115620004fe578251829081620004ed919062000bd2565b5091602001919060010190620004d3565b5b5090506200050e919062000512565b5090565b5b8082111562000535575f81816200052b919062000539565b5060010162000513565b5090565b5080546200054790620009db565b5f825580601f106200055a575062000579565b601f0160209004905f5260205f20908101906200057891906200057c565b5b50565b5b8082111562000595575f815f9055506001016200057d565b5090565b5f604051905090565b5f80fd5b5f80fd5b5f80fd5b5f80fd5b5f601f19601f8301169050919050565b7f4e487b71000000000000000000000000000000000000000000000000000000005f52604160045260245ffd5b620005fa82620005b2565b810181811067ffffffffffffffff821117156200061c576200061b620005c2565b5b80604052505050565b5f6200063062000599565b90506200063e8282620005ef565b919050565b5f67ffffffffffffffff82111562000660576200065f620005c2565b5b6200066b82620005b2565b9050602081019050919050565b5f5b83811015620006975780820151818401526020810190506200067a565b5f8484015250505050565b5f620006b8620006b28462000643565b62000625565b905082815260208101848484011115620006d757620006d6620005ae565b5b620006e484828562000678565b509392505050565b5f82601f830112620007035762000702620005aa565b5b815162000715848260208601620006a2565b91505092915050565b5f67ffffffffffffffff8211156200073b576200073a620005c2565b5b602082029050602081019050919050565b5f80fd5b5f6200076662000760846200071e565b62000625565b905080838252602082019050602084028301858111156200078c576200078b6200074c565b5b835b81811015620007da57805167ffffffffffffffff811115620007b557620007b4620005aa565b5b808601620007c48982620006ec565b855260208501945050506020810190506200078e565b5050509392505050565b5f82601f830112620007fb57620007fa620005aa565b5b81516200080d84826020860162000750565b91505092915050565b5f819050919050565b6200082a8162000816565b811462000835575f80fd5b50565b5f8151905062000848816200081f565b92915050565b5f73ffffffffffffffffffffffffffffffffffffffff82169050919050565b5f62000879826200084e565b9050919050565b6200088b816200086d565b811462000896575f80fd5b50565b5f81519050620008a98162000880565b92915050565b5f805f805f8060c08789031215620008cc57620008cb620005a2565b5b5f87015167ffffffffffffffff811115620008ec57620008eb620005a6565b5b620008fa89828a01620006ec565b965050602087015167ffffffffffffffff8111156200091e576200091d620005a6565b5b6200092c89828a01620006ec565b955050604087015167ffffffffffffffff81111562000950576200094f620005a6565b5b6200095e89828a01620007e4565b94505060606200097189828a0162000838565b93505060806200098489828a0162000838565b92505060a06200099789828a0162000899565b9150509295509295509295565b5f81519050919050565b7f4e487b71000000000000000000000000000000000000000000000000000000005f52602260045260245ffd5b5f6002820490506001821680620009f357607f821691505b60208210810362000a095762000a08620009ae565b5b50919050565b5f819050815f5260205f209050919050565b5f6020601f8301049050919050565b5f82821b905092915050565b5f6008830262000a6d7fffffffffffffffffffffffffffffffffffffffffffffffffffffffffffffffff8262000a30565b62000a79868362000a30565b95508019841693508086168417925050509392505050565b5f819050919050565b5f62000aba62000ab462000aae8462000816565b62000a91565b62000816565b9050919050565b5f819050919050565b62000ad58362000a9a565b62000aed62000ae48262000ac1565b84845462000a3c565b825550505050565b5f90565b62000b0362000af5565b62000b1081848462000aca565b505050565b5b8181101562000b375762000b2b5f8262000af9565b60018101905062000b16565b5050565b601f82111562000b865762000b508162000a0f565b62000b5b8462000a21565b8101602085101562000b6b578190505b62000b8362000b7a8562000a21565b83018262000b15565b50505b505050565b5f82821c905092915050565b5f62000ba85f198460080262000b8b565b1980831691505092915050565b5f62000bc2838362000b97565b9150826002028217905092915050565b62000bdd82620009a4565b67ffffffffffffffff81111562000bf95762000bf8620005c2565b5b62000c058254620009db565b62000c1282828562000b3b565b5f60209050601f83116001811462000c48575f841562000c33578287015190505b62000c3f858262000bb5565b86555062000cae565b601f19841662000c588662000a0f565b5f5b8281101562000c815784890151825560018201915060208501945060208101905062000c5a565b8683101562000ca1578489015162000c9d601f89168262000b97565b8355505b6001600288020188555050505b505050505050565b62000cc1816200086d565b82525050565b5f60208201905062000cdc5f83018462000cb6565b92915050565b5f62000d0262000cfc62000cf6846200084e565b62000a91565b6200084e565b9050919050565b5f62000d158262000ce2565b9050919050565b5f62000d288262000d09565b9050919050565b62000d3a8162000d1c565b82525050565b5f60208201905062000d555f83018462000d2f565b92915050565b60805161439e62000d7b5f395f8181610afd0152610b51015261439e5ff3fe608060405260043610610227575f3560e01c806395d89b4111610122578063c45a0155116100aa578063dc2337e21161006e578063dc2337e2146107ca578063e0c86289146107f4578063e985e9c51461081e578063f2fde38b1461085a578063f3ccaac0146108825761022e565b8063c45a0155146106f4578063c87b56dd1461071e578063cc3bbb201461075a578063d4ddce8a14610764578063db65dbbb146107a05761022e565b8063b43a76f1116100f1578063b43a76f114610622578063b88a802f1461065e578063b88d4fde14610674578063bd81093a1461069c578063c2db2c42146106d85761022e565b806395d89b41146105585780639bbba3a814610582578063a22cb465146105be578063ae9d010c146105e65761022e565b806342842e0e116101b05780636817c76c116101745780636817c76c1461048857806370a08231146104b2578063715018a6146104ee578063818e9be0146105045780638da5cb5b1461052e5761022e565b806342842e0e146103a85780634a60f620146103d057806357ad8071146103fa5780636352211e1461042457806365af3798146104605761022e565b8063095ea7b3116101f7578063095ea7b3146102de5780631fe543e31461030657806322c5dec71461032e57806323b872dd14610358578063410ffd29146103805761022e565b8062c0e60a1461023257806301ffc9a71461023c57806306fdde0314610278578063081812fc146102a25761022e565b3661022e57005b5f80fd5b61023a6108ac565b005b348015610247575f80fd5b50610262600480360381019061025d91906130a8565b6109db565b60405161026f91906130ed565b60405180910390f35b348015610283575f80fd5b5061028c610a3b565b6040516102999190613190565b60405180910390f35b3480156102ad575f80fd5b506102c860048036038101906102c391906131e3565b610aca565b6040516102d5919061324d565b60405180910390f35b3480156102e9575f80fd5b5061030460048036038101906102ff9190613290565b610ae5565b005b348015610311575f80fd5b5061032c6004803603810190610327919061340e565b610afb565b005b348015610339575f80fd5b50610342610bbb565b60405161034f919061324d565b60405180910390f35b348015610363575f80fd5b5061037e60048036038101906103799190613468565b610be0565b005b34801561038b575f80fd5b506103a660048036038101906103a191906131e3565b610cdf565b005b3480156103b3575f80fd5b506103ce60048036038101906103c99190613468565b610d96565b005b3480156103db575f80fd5b506103e4610db5565b6040516103f191906134c7565b60405180910390f35b348015610405575f80fd5b5061040e610dbb565b60405161041b9190613190565b60405180910390f35b34801561042f575f80fd5b5061044a600480360381019061044591906131e3565b610e47565b604051610457919061324d565b60405180910390f35b34801561046b575f80fd5b50610486600480360381019061048191906134e0565b610e58565b005b348015610493575f80fd5b5061049c610f1b565b6040516104a991906134c7565b60405180910390f35b3480156104bd575f80fd5b506104d860048036038101906104d3919061351e565b610f21565b6040516104e591906134c7565b60405180910390f35b3480156104f9575f80fd5b50610502610fd7565b005b34801561050f575f80fd5b50610518610fea565b60405161052591906134c7565b60405180910390f35b348015610539575f80fd5b50610542610ff0565b60405161054f919061324d565b60405180910390f35b348015610563575f80fd5b5061056c611018565b6040516105799190613190565b60405180910390f35b34801561058d575f80fd5b506105a860048036038101906105a3919061351e565b6110a8565b6040516105b591906136ca565b60405180910390f35b3480156105c9575f80fd5b506105e460048036038101906105df9190613714565b61121b565b005b3480156105f1575f80fd5b5061060c6004803603810190610607919061351e565b611231565b60405161061991906136ca565b60405180910390f35b34801561062d575f80fd5b50610648600480360381019061064391906131e3565b611375565b60405161065591906130ed565b60405180910390f35b348015610669575f80fd5b50610672611392565b005b34801561067f575f80fd5b5061069a60048036038101906106959190613802565b611394565b005b3480156106a7575f80fd5b506106c260048036038101906106bd91906131e3565b6113b1565b6040516106cf9190613190565b60405180910390f35b6106f260048036038101906106ed91906131e3565b611457565b005b3480156106ff575f80fd5b50610708611610565b60405161071591906138dd565b60405180910390f35b348015610729575f80fd5b50610744600480360381019061073f91906131e3565b611635565b6040516107519190613190565b60405180910390f35b610762611740565b005b34801561076f575f80fd5b5061078a600480360381019061078591906131e3565b6119b1565b60405161079791906134c7565b60405180910390f35b3480156107ab575f80fd5b506107b46119c6565b6040516107c19190613a54565b60405180910390f35b3480156107d5575f80fd5b506107de611bf6565b6040516107eb91906134c7565b60405180910390f35b3480156107ff575f80fd5b50610808611bfc565b60405161081591906134c7565b60405180910390f35b348015610829575f80fd5b50610844600480360381019061083f9190613a74565b611cdd565b60405161085191906130ed565b60405180910390f35b348015610865575f80fd5b50610880600480360381019061087b919061351e565b611d6b565b005b34801561088d575f80fd5b50610896611def565b6040516108a39190613190565b60405180910390f35b6013543373ffffffffffffffffffffffffffffffffffffffff16311015610908576040517f08c379a00000000000000000000000000000000000000000000000000000000081526004016108ff90613afc565b60405180910390fd5b601354341461094c576040517f08c379a000000000000000000000000000000000000000000000000000000000815260040161094390613b64565b60405180910390fd5b3360155f6101000a81548173ffffffffffffffffffffffffffffffffffffffff021916908373ffffffffffffffffffffffffffffffffffffffff1602179055503073ffffffffffffffffffffffffffffffffffffffff166108fc3490811502906040515f60405180830381858888f193505050501580156109cf573d5f803e3d5ffd5b506109d8611bfc565b50565b5f634906490660e01b7bffffffffffffffffffffffffffffffffffffffffffffffffffffffff1916827bffffffffffffffffffffffffffffffffffffffffffffffffffffffff19161480610a345750610a3382611e7b565b5b9050919050565b60605f8054610a4990613baf565b80601f0160208091040260200160405190810160405280929190818152602001828054610a7590613baf565b8015610ac05780601f10610a9757610100808354040283529160200191610ac0565b820191905f5260205f20905b815481529060010190602001808311610aa357829003601f168201915b5050505050905090565b5f610ad482611f5c565b50610ade82611fe2565b9050919050565b610af78282610af261201b565b612022565b5050565b7f000000000000000000000000000000000000000000000000000000000000000073ffffffffffffffffffffffffffffffffffffffff163373ffffffffffffffffffffffffffffffffffffffff1614610bad57337f00000000000000000000000000000000000000000000000000000000000000006040517f1cf993f4000000000000000000000000000000000000000000000000000000008152600401610ba4929190613bdf565b60405180910390fd5b610bb78282612034565b5050565b60155f9054906101000a900473ffffffffffffffffffffffffffffffffffffffff1681565b5f73ffffffffffffffffffffffffffffffffffffffff168273ffffffffffffffffffffffffffffffffffffffff1603610c50575f6040517f64a0ae92000000000000000000000000000000000000000000000000000000008152600401610c47919061324d565b60405180910390fd5b5f610c638383610c5e61201b565b61219a565b90508373ffffffffffffffffffffffffffffffffffffffff168173ffffffffffffffffffffffffffffffffffffffff1614610cd9578382826040517f64283d7b000000000000000000000000000000000000000000000000000000008152600401610cd093929190613c06565b60405180910390fd5b50505050565b610ce881610e47565b73ffffffffffffffffffffffffffffffffffffffff163373ffffffffffffffffffffffffffffffffffffffff1614610d55576040517f08c379a0000000000000000000000000000000000000000000000000000000008152600401610d4c90613c85565b60405180910390fd5b5f600d5f8381526020019081526020015f205f6101000a81548160ff0219169083151502179055505f600e5f8381526020019081526020015f208190555050565b610db083838360405180602001604052805f815250611394565b505050565b600c5481565b600f8054610dc890613baf565b80601f0160208091040260200160405190810160405280929190818152602001828054610df490613baf565b8015610e3f5780601f10610e1657610100808354040283529160200191610e3f565b820191905f5260205f20905b815481529060010190602001808311610e2257829003601f168201915b505050505081565b5f610e5182611f5c565b9050919050565b610e6182610e47565b73ffffffffffffffffffffffffffffffffffffffff163373ffffffffffffffffffffffffffffffffffffffff1614610ece576040517f08c379a0000000000000000000000000000000000000000000000000000000008152600401610ec590613c85565b60405180910390fd5b6001600d5f8481526020019081526020015f205f6101000a81548160ff02191690831515021790555080600e5f8481526020019081526020015f2081905550610f173083610ae5565b5050565b60135481565b5f8073ffffffffffffffffffffffffffffffffffffffff168273ffffffffffffffffffffffffffffffffffffffff1603610f92575f6040517f89c62b64000000000000000000000000000000000000000000000000000000008152600401610f89919061324d565b60405180910390fd5b60035f8373ffffffffffffffffffffffffffffffffffffffff1673ffffffffffffffffffffffffffffffffffffffff1681526020019081526020015f20549050919050565b610fdf6123a5565b610fe85f61242c565b565b60125481565b5f60075f9054906101000a900473ffffffffffffffffffffffffffffffffffffffff16905090565b60606001805461102790613baf565b80601f016020809104026020016040519081016040528092919081815260200182805461105390613baf565b801561109e5780601f106110755761010080835404028352916020019161109e565b820191905f5260205f20905b81548152906001019060200180831161108157829003601f168201915b5050505050905090565b60605f600c5467ffffffffffffffff8111156110c7576110c66132d2565b5b60405190808252806020026020018201604052801561110057816020015b6110ed612fd2565b8152602001906001900390816110e55790505b5090505f805b600c5481101561120d5760011515600d5f8381526020019081526020015f205f9054906101000a900460ff16151514801561117557508473ffffffffffffffffffffffffffffffffffffffff1661115c82610e47565b73ffffffffffffffffffffffffffffffffffffffff1614155b1561120057604051806080016040528082815260200161119483611635565b8152602001600d5f8481526020019081526020015f205f9054906101000a900460ff1615158152602001600e5f8481526020019081526020015f20548152508383815181106111e6576111e5613ca3565b5b602002602001018190525081806111fc90613cfd565b9250505b8080600101915050611106565b508082528192505050919050565b61122d61122661201b565b83836124ef565b5050565b60605f600c5467ffffffffffffffff8111156112505761124f6132d2565b5b60405190808252806020026020018201604052801561128957816020015b611276612fd2565b81526020019060019003908161126e5790505b5090505f805b600c54811015611367578473ffffffffffffffffffffffffffffffffffffffff166112b982610e47565b73ffffffffffffffffffffffffffffffffffffffff160361135a5760405180608001604052808281526020016112ee83611635565b8152602001600d5f8481526020019081526020015f205f9054906101000a900460ff1615158152602001600e5f8481526020019081526020015f20548152508383815181106113405761133f613ca3565b5b6020026020010181905250818061135690613cfd565b9250505b808060010191505061128f565b508082528192505050919050565b600d602052805f5260405f205f915054906101000a900460ff1681565b565b61139f848484610be0565b6113ab84848484612658565b50505050565b601181815481106113c0575f80fd5b905f5260205f20015f9150905080546113d890613baf565b80601f016020809104026020016040519081016040528092919081815260200182805461140490613baf565b801561144f5780601f106114265761010080835404028352916020019161144f565b820191905f5260205f20905b81548152906001019060200180831161143257829003601f168201915b505050505081565b600e5f8281526020019081526020015f20543373ffffffffffffffffffffffffffffffffffffffff1631116114c1576040517f08c379a00000000000000000000000000000000000000000000000000000000081526004016114b890613afc565b60405180910390fd5b600e5f8281526020019081526020015f20543414611514576040517f08c379a000000000000000000000000000000000000000000000000000000000815260040161150b90613db4565b60405180910390fd5b5f61151e82610e47565b90508073ffffffffffffffffffffffffffffffffffffffff166108fc3490811502906040515f60405180830381858888f19350505050158015611563573d5f803e3d5ffd5b503073ffffffffffffffffffffffffffffffffffffffff166323b872dd8233856040518463ffffffff1660e01b81526004016115a193929190613dd2565b5f604051808303815f87803b1580156115b8575f80fd5b505af11580156115ca573d5f803e3d5ffd5b505050505f600d5f8481526020019081526020015f205f6101000a81548160ff0219169083151502179055505f600e5f8481526020019081526020015f20819055505050565b60145f9054906101000a900473ffffffffffffffffffffffffffffffffffffffff1681565b606061164082611f5c565b505f60065f8481526020019081526020015f20805461165e90613baf565b80601f016020809104026020016040519081016040528092919081815260200182805461168a90613baf565b80156116d55780601f106116ac576101008083540402835291602001916116d5565b820191905f5260205f20905b8154815290600101906020018083116116b857829003601f168201915b505050505090505f6116e561280a565b90505f8151036116f957819250505061173b565b5f8251111561172d578082604051602001611715929190613e41565b6040516020818303038152906040529250505061173b565b61173684612820565b925050505b919050565b6013543373ffffffffffffffffffffffffffffffffffffffff16311161179b576040517f08c379a000000000000000000000000000000000000000000000000000000000815260040161179290613afc565b60405180910390fd5b60135434146117df576040517f08c379a00000000000000000000000000000000000000000000000000000000081526004016117d690613eae565b60405180910390fd5b3360155f6101000a81548173ffffffffffffffffffffffffffffffffffffffff021916908373ffffffffffffffffffffffffffffffffffffffff1602179055503073ffffffffffffffffffffffffffffffffffffffff166108fc3490811502906040515f60405180830381858888f19350505050158015611862573d5f803e3d5ffd5b505f5b6011805490508110156119ae575f600c5f81548092919061188590613cfd565b9190505590506118b660155f9054906101000a900473ffffffffffffffffffffffffffffffffffffffff1682612886565b61196281601184815481106118ce576118cd613ca3565b5b905f5260205f200180546118e190613baf565b80601f016020809104026020016040519081016040528092919081815260200182805461190d90613baf565b80156119585780601f1061192f57610100808354040283529160200191611958565b820191905f5260205f20905b81548152906001019060200180831161193b57829003601f168201915b5050505050612979565b5f600d5f8381526020019081526020015f205f6101000a81548160ff0219169083151502179055505f600e5f8381526020019081526020015f2081905550508080600101915050611865565b50565b600e602052805f5260405f205f915090505481565b6119ce612ff9565b6040518060c001604052803073ffffffffffffffffffffffffffffffffffffffff168152602001600f8054611a0290613baf565b80601f0160208091040260200160405190810160405280929190818152602001828054611a2e90613baf565b8015611a795780601f10611a5057610100808354040283529160200191611a79565b820191905f5260205f20905b815481529060010190602001808311611a5c57829003601f168201915b5050505050815260200160108054611a9090613baf565b80601f0160208091040260200160405190810160405280929190818152602001828054611abc90613baf565b8015611b075780601f10611ade57610100808354040283529160200191611b07565b820191905f5260205f20905b815481529060010190602001808311611aea57829003601f168201915b505050505081526020016011805480602002602001604051908101604052809291908181526020015f905b82821015611bda578382905f5260205f20018054611b4f90613baf565b80601f0160208091040260200160405190810160405280929190818152602001828054611b7b90613baf565b8015611bc65780601f10611b9d57610100808354040283529160200191611bc6565b820191905f5260205f20905b815481529060010190602001808311611ba957829003601f168201915b505050505081526020019060010190611b32565b5050505081526020016012548152602001601354815250905090565b600b5481565b5f60085f9054906101000a900473ffffffffffffffffffffffffffffffffffffffff1673ffffffffffffffffffffffffffffffffffffffff16632f34077b600954600860149054906101000a900467ffffffffffffffff16600a5f9054906101000a900463ffffffff16600a60049054906101000a900463ffffffff166040518563ffffffff1660e01b8152600401611c989493929190613f24565b6020604051808303815f875af1158015611cb4573d5f803e3d5ffd5b505050506040513d601f19601f82011682018060405250810190611cd89190613f7b565b905090565b5f60055f8473ffffffffffffffffffffffffffffffffffffffff1673ffffffffffffffffffffffffffffffffffffffff1681526020019081526020015f205f8373ffffffffffffffffffffffffffffffffffffffff1673ffffffffffffffffffffffffffffffffffffffff1681526020019081526020015f205f9054906101000a900460ff16905092915050565b611d736123a5565b5f73ffffffffffffffffffffffffffffffffffffffff168173ffffffffffffffffffffffffffffffffffffffff1603611de3575f6040517f1e4fbdf7000000000000000000000000000000000000000000000000000000008152600401611dda919061324d565b60405180910390fd5b611dec8161242c565b50565b60108054611dfc90613baf565b80601f0160208091040260200160405190810160405280929190818152602001828054611e2890613baf565b8015611e735780601f10611e4a57610100808354040283529160200191611e73565b820191905f5260205f20905b815481529060010190602001808311611e5657829003601f168201915b505050505081565b5f7f80ac58cd000000000000000000000000000000000000000000000000000000007bffffffffffffffffffffffffffffffffffffffffffffffffffffffff1916827bffffffffffffffffffffffffffffffffffffffffffffffffffffffff19161480611f4557507f5b5e139f000000000000000000000000000000000000000000000000000000007bffffffffffffffffffffffffffffffffffffffffffffffffffffffff1916827bffffffffffffffffffffffffffffffffffffffffffffffffffffffff1916145b80611f555750611f54826129d3565b5b9050919050565b5f80611f6783612a3c565b90505f73ffffffffffffffffffffffffffffffffffffffff168173ffffffffffffffffffffffffffffffffffffffff1603611fd957826040517f7e273289000000000000000000000000000000000000000000000000000000008152600401611fd091906134c7565b60405180910390fd5b80915050919050565b5f60045f8381526020019081526020015f205f9054906101000a900473ffffffffffffffffffffffffffffffffffffffff169050919050565b5f33905090565b61202f8383836001612a75565b505050565b601180549050815f8151811061204d5761204c613ca3565b5b602002602001015161205f9190613fd3565b600b819055505f600c5f81548092919061207890613cfd565b9190505590506120a960155f9054906101000a900473ffffffffffffffffffffffffffffffffffffffff1682612886565b612157816011600b54815481106120c3576120c2613ca3565b5b905f5260205f200180546120d690613baf565b80601f016020809104026020016040519081016040528092919081815260200182805461210290613baf565b801561214d5780601f106121245761010080835404028352916020019161214d565b820191905f5260205f20905b81548152906001019060200180831161213057829003601f168201915b5050505050612979565b5f600d5f8381526020019081526020015f205f6101000a81548160ff0219169083151502179055505f600e5f8381526020019081526020015f2081905550505050565b5f806121a584612a3c565b90505f73ffffffffffffffffffffffffffffffffffffffff168373ffffffffffffffffffffffffffffffffffffffff16146121e6576121e5818486612c34565b5b5f73ffffffffffffffffffffffffffffffffffffffff168173ffffffffffffffffffffffffffffffffffffffff1614612271576122255f855f80612a75565b600160035f8373ffffffffffffffffffffffffffffffffffffffff1673ffffffffffffffffffffffffffffffffffffffff1681526020019081526020015f205f82825403925050819055505b5f73ffffffffffffffffffffffffffffffffffffffff168573ffffffffffffffffffffffffffffffffffffffff16146122f057600160035f8773ffffffffffffffffffffffffffffffffffffffff1673ffffffffffffffffffffffffffffffffffffffff1681526020019081526020015f205f82825401925050819055505b8460025f8681526020019081526020015f205f6101000a81548173ffffffffffffffffffffffffffffffffffffffff021916908373ffffffffffffffffffffffffffffffffffffffff160217905550838573ffffffffffffffffffffffffffffffffffffffff168273ffffffffffffffffffffffffffffffffffffffff167fddf252ad1be2c89b69c2b068fc378daa952ba7f163c4a11628f55a4df523b3ef60405160405180910390a4809150509392505050565b6123ad61201b565b73ffffffffffffffffffffffffffffffffffffffff166123cb610ff0565b73ffffffffffffffffffffffffffffffffffffffff161461242a576123ee61201b565b6040517f118cdaa7000000000000000000000000000000000000000000000000000000008152600401612421919061324d565b60405180910390fd5b565b5f60075f9054906101000a900473ffffffffffffffffffffffffffffffffffffffff1690508160075f6101000a81548173ffffffffffffffffffffffffffffffffffffffff021916908373ffffffffffffffffffffffffffffffffffffffff1602179055508173ffffffffffffffffffffffffffffffffffffffff168173ffffffffffffffffffffffffffffffffffffffff167f8be0079c531659141344cd1fd0a4f28419497f9722a3daafe3b4186f6b6457e060405160405180910390a35050565b5f73ffffffffffffffffffffffffffffffffffffffff168273ffffffffffffffffffffffffffffffffffffffff160361255f57816040517f5b08ba18000000000000000000000000000000000000000000000000000000008152600401612556919061324d565b60405180910390fd5b8060055f8573ffffffffffffffffffffffffffffffffffffffff1673ffffffffffffffffffffffffffffffffffffffff1681526020019081526020015f205f8473ffffffffffffffffffffffffffffffffffffffff1673ffffffffffffffffffffffffffffffffffffffff1681526020019081526020015f205f6101000a81548160ff0219169083151502179055508173ffffffffffffffffffffffffffffffffffffffff168373ffffffffffffffffffffffffffffffffffffffff167f17307eab39ab6107e8899845ad3d59bd9653f200f220920489ca2b5937696c318360405161264b91906130ed565b60405180910390a3505050565b5f8373ffffffffffffffffffffffffffffffffffffffff163b1115612804578273ffffffffffffffffffffffffffffffffffffffff1663150b7a0261269b61201b565b8685856040518563ffffffff1660e01b81526004016126bd9493929190614055565b6020604051808303815f875af19250505080156126f857506040513d601f19601f820116820180604052508101906126f591906140b3565b60015b612779573d805f8114612726576040519150601f19603f3d011682016040523d82523d5f602084013e61272b565b606091505b505f81510361277157836040517f64a0ae92000000000000000000000000000000000000000000000000000000008152600401612768919061324d565b60405180910390fd5b805181602001fd5b63150b7a0260e01b7bffffffffffffffffffffffffffffffffffffffffffffffffffffffff1916817bffffffffffffffffffffffffffffffffffffffffffffffffffffffff19161461280257836040517f64a0ae920000000000000000000000000000000000000000000000000000000081526004016127f9919061324d565b60405180910390fd5b505b50505050565b606060405180602001604052805f815250905090565b606061282b82611f5c565b505f61283561280a565b90505f8151116128535760405180602001604052805f81525061287e565b8061285d84612cf7565b60405160200161286e929190613e41565b6040516020818303038152906040525b915050919050565b5f73ffffffffffffffffffffffffffffffffffffffff168273ffffffffffffffffffffffffffffffffffffffff16036128f6575f6040517f64a0ae920000000000000000000000000000000000000000000000000000000081526004016128ed919061324d565b60405180910390fd5b5f61290283835f61219a565b90505f73ffffffffffffffffffffffffffffffffffffffff168173ffffffffffffffffffffffffffffffffffffffff1614612974575f6040517f73c6ac6e00000000000000000000000000000000000000000000000000000000815260040161296b919061324d565b60405180910390fd5b505050565b8060065f8481526020019081526020015f2090816129979190614272565b507ff8e1a15aba9398e019f0b49df1a4fde98ee17ae345cb5f6b5e2c27f5033e8ce7826040516129c791906134c7565b60405180910390a15050565b5f7f01ffc9a7000000000000000000000000000000000000000000000000000000007bffffffffffffffffffffffffffffffffffffffffffffffffffffffff1916827bffffffffffffffffffffffffffffffffffffffffffffffffffffffff1916149050919050565b5f60025f8381526020019081526020015f205f9054906101000a900473ffffffffffffffffffffffffffffffffffffffff169050919050565b8080612aad57505f73ffffffffffffffffffffffffffffffffffffffff168273ffffffffffffffffffffffffffffffffffffffff1614155b15612bdf575f612abc84611f5c565b90505f73ffffffffffffffffffffffffffffffffffffffff168373ffffffffffffffffffffffffffffffffffffffff1614158015612b2657508273ffffffffffffffffffffffffffffffffffffffff168173ffffffffffffffffffffffffffffffffffffffff1614155b8015612b395750612b378184611cdd565b155b15612b7b57826040517fa9fbf51f000000000000000000000000000000000000000000000000000000008152600401612b72919061324d565b60405180910390fd5b8115612bdd57838573ffffffffffffffffffffffffffffffffffffffff168273ffffffffffffffffffffffffffffffffffffffff167f8c5be1e5ebec7d5bd14f71427d1e84f3dd0314c0f7b2291e5b200ac8c7c3b92560405160405180910390a45b505b8360045f8581526020019081526020015f205f6101000a81548173ffffffffffffffffffffffffffffffffffffffff021916908373ffffffffffffffffffffffffffffffffffffffff16021790555050505050565b612c3f838383612dc1565b612cf2575f73ffffffffffffffffffffffffffffffffffffffff168373ffffffffffffffffffffffffffffffffffffffff1603612cb357806040517f7e273289000000000000000000000000000000000000000000000000000000008152600401612caa91906134c7565b60405180910390fd5b81816040517f177e802f000000000000000000000000000000000000000000000000000000008152600401612ce9929190614341565b60405180910390fd5b505050565b60605f6001612d0584612e81565b0190505f8167ffffffffffffffff811115612d2357612d226132d2565b5b6040519080825280601f01601f191660200182016040528015612d555781602001600182028036833780820191505090505b5090505f82602001820190505b600115612db6578080600190039150507f3031323334353637383961626364656600000000000000000000000000000000600a86061a8153600a8581612dab57612daa613fa6565b5b0494505f8503612d62575b819350505050919050565b5f8073ffffffffffffffffffffffffffffffffffffffff168373ffffffffffffffffffffffffffffffffffffffff1614158015612e7857508273ffffffffffffffffffffffffffffffffffffffff168473ffffffffffffffffffffffffffffffffffffffff161480612e395750612e388484611cdd565b5b80612e7757508273ffffffffffffffffffffffffffffffffffffffff16612e5f83611fe2565b73ffffffffffffffffffffffffffffffffffffffff16145b5b90509392505050565b5f805f90507a184f03e93ff9f4daa797ed6e38ed64bf6a1f0100000000000000008310612edd577a184f03e93ff9f4daa797ed6e38ed64bf6a1f0100000000000000008381612ed357612ed2613fa6565b5b0492506040810190505b6d04ee2d6d415b85acef81000000008310612f1a576d04ee2d6d415b85acef81000000008381612f1057612f0f613fa6565b5b0492506020810190505b662386f26fc100008310612f4957662386f26fc100008381612f3f57612f3e613fa6565b5b0492506010810190505b6305f5e1008310612f72576305f5e1008381612f6857612f67613fa6565b5b0492506008810190505b6127108310612f97576127108381612f8d57612f8c613fa6565b5b0492506004810190505b60648310612fba5760648381612fb057612faf613fa6565b5b0492506002810190505b600a8310612fc9576001810190505b80915050919050565b60405180608001604052805f8152602001606081526020015f151581526020015f81525090565b6040518060c001604052805f73ffffffffffffffffffffffffffffffffffffffff1681526020016060815260200160608152602001606081526020015f81526020015f81525090565b5f604051905090565b5f80fd5b5f80fd5b5f7fffffffff0000000000000000000000000000000000000000000000000000000082169050919050565b61308781613053565b8114613091575f80fd5b50565b5f813590506130a28161307e565b92915050565b5f602082840312156130bd576130bc61304b565b5b5f6130ca84828501613094565b91505092915050565b5f8115159050919050565b6130e7816130d3565b82525050565b5f6020820190506131005f8301846130de565b92915050565b5f81519050919050565b5f82825260208201905092915050565b5f5b8381101561313d578082015181840152602081019050613122565b5f8484015250505050565b5f601f19601f8301169050919050565b5f61316282613106565b61316c8185613110565b935061317c818560208601613120565b61318581613148565b840191505092915050565b5f6020820190508181035f8301526131a88184613158565b905092915050565b5f819050919050565b6131c2816131b0565b81146131cc575f80fd5b50565b5f813590506131dd816131b9565b92915050565b5f602082840312156131f8576131f761304b565b5b5f613205848285016131cf565b91505092915050565b5f73ffffffffffffffffffffffffffffffffffffffff82169050919050565b5f6132378261320e565b9050919050565b6132478161322d565b82525050565b5f6020820190506132605f83018461323e565b92915050565b61326f8161322d565b8114613279575f80fd5b50565b5f8135905061328a81613266565b92915050565b5f80604083850312156132a6576132a561304b565b5b5f6132b38582860161327c565b92505060206132c4858286016131cf565b9150509250929050565b5f80fd5b7f4e487b71000000000000000000000000000000000000000000000000000000005f52604160045260245ffd5b61330882613148565b810181811067ffffffffffffffff82111715613327576133266132d2565b5b80604052505050565b5f613339613042565b905061334582826132ff565b919050565b5f67ffffffffffffffff821115613364576133636132d2565b5b602082029050602081019050919050565b5f80fd5b5f61338b6133868461334a565b613330565b905080838252602082019050602084028301858111156133ae576133ad613375565b5b835b818110156133d757806133c388826131cf565b8452602084019350506020810190506133b0565b5050509392505050565b5f82601f8301126133f5576133f46132ce565b5b8135613405848260208601613379565b91505092915050565b5f80604083850312156134245761342361304b565b5b5f613431858286016131cf565b925050602083013567ffffffffffffffff8111156134525761345161304f565b5b61345e858286016133e1565b9150509250929050565b5f805f6060848603121561347f5761347e61304b565b5b5f61348c8682870161327c565b935050602061349d8682870161327c565b92505060406134ae868287016131cf565b9150509250925092565b6134c1816131b0565b82525050565b5f6020820190506134da5f8301846134b8565b92915050565b5f80604083850312156134f6576134f561304b565b5b5f613503858286016131cf565b9250506020613514858286016131cf565b9150509250929050565b5f602082840312156135335761353261304b565b5b5f6135408482850161327c565b91505092915050565b5f81519050919050565b5f82825260208201905092915050565b5f819050602082019050919050565b61357b816131b0565b82525050565b5f82825260208201905092915050565b5f61359b82613106565b6135a58185613581565b93506135b5818560208601613120565b6135be81613148565b840191505092915050565b6135d2816130d3565b82525050565b5f608083015f8301516135ed5f860182613572565b50602083015184820360208601526136058282613591565b915050604083015161361a60408601826135c9565b50606083015161362d6060860182613572565b508091505092915050565b5f61364383836135d8565b905092915050565b5f602082019050919050565b5f61366182613549565b61366b8185613553565b93508360208202850161367d85613563565b805f5b858110156136b857848403895281516136998582613638565b94506136a48361364b565b925060208a01995050600181019050613680565b50829750879550505050505092915050565b5f6020820190508181035f8301526136e28184613657565b905092915050565b6136f3816130d3565b81146136fd575f80fd5b50565b5f8135905061370e816136ea565b92915050565b5f806040838503121561372a5761372961304b565b5b5f6137378582860161327c565b925050602061374885828601613700565b9150509250929050565b5f80fd5b5f67ffffffffffffffff8211156137705761376f6132d2565b5b61377982613148565b9050602081019050919050565b828183375f83830152505050565b5f6137a66137a184613756565b613330565b9050828152602081018484840111156137c2576137c1613752565b5b6137cd848285613786565b509392505050565b5f82601f8301126137e9576137e86132ce565b5b81356137f9848260208601613794565b91505092915050565b5f805f806080858703121561381a5761381961304b565b5b5f6138278782880161327c565b94505060206138388782880161327c565b9350506040613849878288016131cf565b925050606085013567ffffffffffffffff81111561386a5761386961304f565b5b613876878288016137d5565b91505092959194509250565b5f819050919050565b5f6138a56138a061389b8461320e565b613882565b61320e565b9050919050565b5f6138b68261388b565b9050919050565b5f6138c7826138ac565b9050919050565b6138d7816138bd565b82525050565b5f6020820190506138f05f8301846138ce565b92915050565b6138ff8161322d565b82525050565b5f81519050919050565b5f82825260208201905092915050565b5f819050602082019050919050565b5f6139398383613591565b905092915050565b5f602082019050919050565b5f61395782613905565b613961818561390f565b9350836020820285016139738561391f565b805f5b858110156139ae578484038952815161398f858261392e565b945061399a83613941565b925060208a01995050600181019050613976565b50829750879550505050505092915050565b5f60c083015f8301516139d55f8601826138f6565b50602083015184820360208601526139ed8282613591565b91505060408301518482036040860152613a078282613591565b91505060608301518482036060860152613a21828261394d565b9150506080830151613a366080860182613572565b5060a0830151613a4960a0860182613572565b508091505092915050565b5f6020820190508181035f830152613a6c81846139c0565b905092915050565b5f8060408385031215613a8a57613a8961304b565b5b5f613a978582860161327c565b9250506020613aa88582860161327c565b9150509250929050565b7f42616c616e6365206973206e6f7420656e6f75676821000000000000000000005f82015250565b5f613ae6601683613110565b9150613af182613ab2565b602082019050919050565b5f6020820190508181035f830152613b1381613ada565b9050919050565b7f56616c7565206d75737420626520657175616c204d696e7420507269636521005f82015250565b5f613b4e601f83613110565b9150613b5982613b1a565b602082019050919050565b5f6020820190508181035f830152613b7b81613b42565b9050919050565b7f4e487b71000000000000000000000000000000000000000000000000000000005f52602260045260245ffd5b5f6002820490506001821680613bc657607f821691505b602082108103613bd957613bd8613b82565b5b50919050565b5f604082019050613bf25f83018561323e565b613bff602083018461323e565b9392505050565b5f606082019050613c195f83018661323e565b613c2660208301856134b8565b613c33604083018461323e565b949350505050565b7f596f75206d7573742062652074686520746f6b656e2773206f776e65722100005f82015250565b5f613c6f601e83613110565b9150613c7a82613c3b565b602082019050919050565b5f6020820190508181035f830152613c9c81613c63565b9050919050565b7f4e487b71000000000000000000000000000000000000000000000000000000005f52603260045260245ffd5b7f4e487b71000000000000000000000000000000000000000000000000000000005f52601160045260245ffd5b5f613d07826131b0565b91507fffffffffffffffffffffffffffffffffffffffffffffffffffffffffffffffff8203613d3957613d38613cd0565b5b600182019050919050565b7f56616c7565206d75737420657175616c20746f2053656c6c696e6720507269635f8201527f6521000000000000000000000000000000000000000000000000000000000000602082015250565b5f613d9e602283613110565b9150613da982613d44565b604082019050919050565b5f6020820190508181035f830152613dcb81613d92565b9050919050565b5f606082019050613de55f83018661323e565b613df2602083018561323e565b613dff60408301846134b8565b949350505050565b5f81905092915050565b5f613e1b82613106565b613e258185613e07565b9350613e35818560208601613120565b80840191505092915050565b5f613e4c8285613e11565b9150613e588284613e11565b91508190509392505050565b7f56616c7565206d75737420657175616c20746f204d696e7420507269636521005f82015250565b5f613e98601f83613110565b9150613ea382613e64565b602082019050919050565b5f6020820190508181035f830152613ec581613e8c565b9050919050565b5f819050919050565b613ede81613ecc565b82525050565b5f67ffffffffffffffff82169050919050565b613f0081613ee4565b82525050565b5f63ffffffff82169050919050565b613f1e81613f06565b82525050565b5f608082019050613f375f830187613ed5565b613f446020830186613ef7565b613f516040830185613f15565b613f5e6060830184613f15565b95945050505050565b5f81519050613f75816131b9565b92915050565b5f60208284031215613f9057613f8f61304b565b5b5f613f9d84828501613f67565b91505092915050565b7f4e487b71000000000000000000000000000000000000000000000000000000005f52601260045260245ffd5b5f613fdd826131b0565b9150613fe8836131b0565b925082613ff857613ff7613fa6565b5b828206905092915050565b5f81519050919050565b5f82825260208201905092915050565b5f61402782614003565b614031818561400d565b9350614041818560208601613120565b61404a81613148565b840191505092915050565b5f6080820190506140685f83018761323e565b614075602083018661323e565b61408260408301856134b8565b8181036060830152614094818461401d565b905095945050505050565b5f815190506140ad8161307e565b92915050565b5f602082840312156140c8576140c761304b565b5b5f6140d58482850161409f565b91505092915050565b5f819050815f5260205f209050919050565b5f6020601f8301049050919050565b5f82821b905092915050565b5f6008830261413a7fffffffffffffffffffffffffffffffffffffffffffffffffffffffffffffffff826140ff565b61414486836140ff565b95508019841693508086168417925050509392505050565b5f61417661417161416c846131b0565b613882565b6131b0565b9050919050565b5f819050919050565b61418f8361415c565b6141a361419b8261417d565b84845461410b565b825550505050565b5f90565b6141b76141ab565b6141c2818484614186565b505050565b5b818110156141e5576141da5f826141af565b6001810190506141c8565b5050565b601f82111561422a576141fb816140de565b614204846140f0565b81016020851015614213578190505b61422761421f856140f0565b8301826141c7565b50505b505050565b5f82821c905092915050565b5f61424a5f198460080261422f565b1980831691505092915050565b5f614262838361423b565b9150826002028217905092915050565b61427b82613106565b67ffffffffffffffff811115614294576142936132d2565b5b61429e8254613baf565b6142a98282856141e9565b5f60209050601f8311600181146142da575f84156142c8578287015190505b6142d28582614257565b865550614339565b601f1984166142e8866140de565b5f5b8281101561430f578489015182556001820191506020850194506020810190506142ea565b8683101561432c5784890151614328601f89168261423b565b8355505b6001600288020188555050505b505050505050565b5f6040820190506143545f83018561323e565b61436160208301846134b8565b939250505056fea2646970667358221220513dfff97fb253ee4f9cc35aa6335a4f8a2538389ec972c002726b8fd156196264736f6c63430008160033",
			"opcodes": "PUSH1 0xA0 PUSH1 0x40 MSTORE PUSH3 0x493E0 PUSH1 0xA PUSH0 PUSH2 0x100 EXP DUP2 SLOAD DUP2 PUSH4 0xFFFFFFFF MUL NOT AND SWAP1 DUP4 PUSH4 0xFFFFFFFF AND MUL OR SWAP1 SSTORE POP PUSH1 0x1 PUSH1 0xA PUSH1 0x4 PUSH2 0x100 EXP DUP2 SLOAD DUP2 PUSH4 0xFFFFFFFF MUL NOT AND SWAP1 DUP4 PUSH4 0xFFFFFFFF AND MUL OR SWAP1 SSTORE POP CALLVALUE DUP1 ISZERO PUSH3 0x55 JUMPI PUSH0 DUP1 REVERT JUMPDEST POP PUSH1 0x40 MLOAD PUSH3 0x5119 CODESIZE SUB DUP1 PUSH3 0x5119 DUP4 CODECOPY DUP2 DUP2 ADD PUSH1 0x40 MSTORE DUP2 ADD SWAP1 PUSH3 0x7B SWAP2 SWAP1 PUSH3 0x8AF JUMP JUMPDEST CALLER PUSH1 0x40 MLOAD DUP1 PUSH1 0x40 ADD PUSH1 0x40 MSTORE DUP1 PUSH1 0x12 DUP2 MSTORE PUSH1 0x20 ADD PUSH32 0x436F6C6C6563744D6173746572546F6B656E0000000000000000000000000000 DUP2 MSTORE POP PUSH1 0x40 MLOAD DUP1 PUSH1 0x40 ADD PUSH1 0x40 MSTORE DUP1 PUSH1 0x3 DUP2 MSTORE PUSH1 0x20 ADD PUSH32 0x434D540000000000000000000000000000000000000000000000000000000000 DUP2 MSTORE POP PUSH20 0xDA8C0A00A372503AA6EC80F9B29CC97C454BE499 DUP1 PUSH20 0xFFFFFFFFFFFFFFFFFFFFFFFFFFFFFFFFFFFFFFFF AND PUSH1 0x80 DUP2 PUSH20 0xFFFFFFFFFFFFFFFFFFFFFFFFFFFFFFFFFFFFFFFF AND DUP2 MSTORE POP POP POP DUP2 PUSH0 SWAP1 DUP2 PUSH3 0x142 SWAP2 SWAP1 PUSH3 0xBD2 JUMP JUMPDEST POP DUP1 PUSH1 0x1 SWAP1 DUP2 PUSH3 0x154 SWAP2 SWAP1 PUSH3 0xBD2 JUMP JUMPDEST POP POP POP PUSH0 PUSH20 0xFFFFFFFFFFFFFFFFFFFFFFFFFFFFFFFFFFFFFFFF AND DUP2 PUSH20 0xFFFFFFFFFFFFFFFFFFFFFFFFFFFFFFFFFFFFFFFF AND SUB PUSH3 0x1CA JUMPI PUSH0 PUSH1 0x40 MLOAD PUSH32 0x1E4FBDF700000000000000000000000000000000000000000000000000000000 DUP2 MSTORE PUSH1 0x4 ADD PUSH3 0x1C1 SWAP2 SWAP1 PUSH3 0xCC7 JUMP JUMPDEST PUSH1 0x40 MLOAD DUP1 SWAP2 SUB SWAP1 REVERT JUMPDEST PUSH3 0x1DB DUP2 PUSH3 0x3F1 PUSH1 0x20 SHL PUSH1 0x20 SHR JUMP JUMPDEST POP PUSH20 0xDA8C0A00A372503AA6EC80F9B29CC97C454BE499 PUSH1 0x8 PUSH0 PUSH2 0x100 EXP DUP2 SLOAD DUP2 PUSH20 0xFFFFFFFFFFFFFFFFFFFFFFFFFFFFFFFFFFFFFFFF MUL NOT AND SWAP1 DUP4 PUSH20 0xFFFFFFFFFFFFFFFFFFFFFFFFFFFFFFFFFFFFFFFF AND MUL OR SWAP1 SSTORE POP PUSH1 0x86 PUSH1 0x8 PUSH1 0x14 PUSH2 0x100 EXP DUP2 SLOAD DUP2 PUSH8 0xFFFFFFFFFFFFFFFF MUL NOT AND SWAP1 DUP4 PUSH8 0xFFFFFFFFFFFFFFFF AND MUL OR SWAP1 SSTORE POP PUSH32 0xD9AF33106D664A53CB9946DF5CD81A30695F5B72224EE64E798B278AF812779C PUSH0 SHL PUSH1 0x9 DUP2 SWAP1 SSTORE POP DUP6 PUSH1 0xF SWAP1 DUP2 PUSH3 0x294 SWAP2 SWAP1 PUSH3 0xBD2 JUMP JUMPDEST POP DUP5 PUSH1 0x10 SWAP1 DUP2 PUSH3 0x2A6 SWAP2 SWAP1 PUSH3 0xBD2 JUMP JUMPDEST POP DUP4 PUSH1 0x11 SWAP1 DUP1 MLOAD SWAP1 PUSH1 0x20 ADD SWAP1 PUSH3 0x2BF SWAP3 SWAP2 SWAP1 PUSH3 0x4B4 JUMP JUMPDEST POP DUP3 PUSH1 0x12 DUP2 SWAP1 SSTORE POP DUP2 PUSH1 0x13 DUP2 SWAP1 SSTORE POP DUP1 PUSH1 0x14 PUSH0 PUSH2 0x100 EXP DUP2 SLOAD DUP2 PUSH20 0xFFFFFFFFFFFFFFFFFFFFFFFFFFFFFFFFFFFFFFFF MUL NOT AND SWAP1 DUP4 PUSH20 0xFFFFFFFFFFFFFFFFFFFFFFFFFFFFFFFFFFFFFFFF AND MUL OR SWAP1 SSTORE POP PUSH1 0x14 PUSH0 SWAP1 SLOAD SWAP1 PUSH2 0x100 EXP SWAP1 DIV PUSH20 0xFFFFFFFFFFFFFFFFFFFFFFFFFFFFFFFFFFFFFFFF AND PUSH20 0xFFFFFFFFFFFFFFFFFFFFFFFFFFFFFFFFFFFFFFFF AND PUSH4 0xC56E0DDE ADDRESS PUSH1 0x40 MLOAD DUP3 PUSH4 0xFFFFFFFF AND PUSH1 0xE0 SHL DUP2 MSTORE PUSH1 0x4 ADD PUSH3 0x36A SWAP2 SWAP1 PUSH3 0xD40 JUMP JUMPDEST PUSH0 PUSH1 0x40 MLOAD DUP1 DUP4 SUB DUP2 PUSH0 DUP8 DUP1 EXTCODESIZE ISZERO DUP1 ISZERO PUSH3 0x382 JUMPI PUSH0 DUP1 REVERT JUMPDEST POP GAS CALL ISZERO DUP1 ISZERO PUSH3 0x395 JUMPI RETURNDATASIZE PUSH0 DUP1 RETURNDATACOPY RETURNDATASIZE PUSH0 REVERT JUMPDEST POP POP POP POP PUSH0 PUSH1 0xB DUP2 SWAP1 SSTORE POP ADDRESS PUSH20 0xFFFFFFFFFFFFFFFFFFFFFFFFFFFFFFFFFFFFFFFF AND PUSH2 0x8FC DUP5 SWAP1 DUP2 ISZERO MUL SWAP1 PUSH1 0x40 MLOAD PUSH0 PUSH1 0x40 MLOAD DUP1 DUP4 SUB DUP2 DUP6 DUP9 DUP9 CALL SWAP4 POP POP POP POP ISZERO DUP1 ISZERO PUSH3 0x3E4 JUMPI RETURNDATASIZE PUSH0 DUP1 RETURNDATACOPY RETURNDATASIZE PUSH0 REVERT JUMPDEST POP POP POP POP POP POP POP PUSH3 0xD5B JUMP JUMPDEST PUSH0 PUSH1 0x7 PUSH0 SWAP1 SLOAD SWAP1 PUSH2 0x100 EXP SWAP1 DIV PUSH20 0xFFFFFFFFFFFFFFFFFFFFFFFFFFFFFFFFFFFFFFFF AND SWAP1 POP DUP2 PUSH1 0x7 PUSH0 PUSH2 0x100 EXP DUP2 SLOAD DUP2 PUSH20 0xFFFFFFFFFFFFFFFFFFFFFFFFFFFFFFFFFFFFFFFF MUL NOT AND SWAP1 DUP4 PUSH20 0xFFFFFFFFFFFFFFFFFFFFFFFFFFFFFFFFFFFFFFFF AND MUL OR SWAP1 SSTORE POP DUP2 PUSH20 0xFFFFFFFFFFFFFFFFFFFFFFFFFFFFFFFFFFFFFFFF AND DUP2 PUSH20 0xFFFFFFFFFFFFFFFFFFFFFFFFFFFFFFFFFFFFFFFF AND PUSH32 0x8BE0079C531659141344CD1FD0A4F28419497F9722A3DAAFE3B4186F6B6457E0 PUSH1 0x40 MLOAD PUSH1 0x40 MLOAD DUP1 SWAP2 SUB SWAP1 LOG3 POP POP JUMP JUMPDEST DUP3 DUP1 SLOAD DUP3 DUP3 SSTORE SWAP1 PUSH0 MSTORE PUSH1 0x20 PUSH0 KECCAK256 SWAP1 DUP2 ADD SWAP3 DUP3 ISZERO PUSH3 0x4FF JUMPI SWAP2 PUSH1 0x20 MUL DUP3 ADD JUMPDEST DUP3 DUP2 GT ISZERO PUSH3 0x4FE JUMPI DUP3 MLOAD DUP3 SWAP1 DUP2 PUSH3 0x4ED SWAP2 SWAP1 PUSH3 0xBD2 JUMP JUMPDEST POP SWAP2 PUSH1 0x20 ADD SWAP2 SWAP1 PUSH1 0x1 ADD SWAP1 PUSH3 0x4D3 JUMP JUMPDEST JUMPDEST POP SWAP1 POP PUSH3 0x50E SWAP2 SWAP1 PUSH3 0x512 JUMP JUMPDEST POP SWAP1 JUMP JUMPDEST JUMPDEST DUP1 DUP3 GT ISZERO PUSH3 0x535 JUMPI PUSH0 DUP2 DUP2 PUSH3 0x52B SWAP2 SWAP1 PUSH3 0x539 JUMP JUMPDEST POP PUSH1 0x1 ADD PUSH3 0x513 JUMP JUMPDEST POP SWAP1 JUMP JUMPDEST POP DUP1 SLOAD PUSH3 0x547 SWAP1 PUSH3 0x9DB JUMP JUMPDEST PUSH0 DUP3 SSTORE DUP1 PUSH1 0x1F LT PUSH3 0x55A JUMPI POP PUSH3 0x579 JUMP JUMPDEST PUSH1 0x1F ADD PUSH1 0x20 SWAP1 DIV SWAP1 PUSH0 MSTORE PUSH1 0x20 PUSH0 KECCAK256 SWAP1 DUP2 ADD SWAP1 PUSH3 0x578 SWAP2 SWAP1 PUSH3 0x57C JUMP JUMPDEST JUMPDEST POP JUMP JUMPDEST JUMPDEST DUP1 DUP3 GT ISZERO PUSH3 0x595 JUMPI PUSH0 DUP2 PUSH0 SWAP1 SSTORE POP PUSH1 0x1 ADD PUSH3 0x57D JUMP JUMPDEST POP SWAP1 JUMP JUMPDEST PUSH0 PUSH1 0x40 MLOAD SWAP1 POP SWAP1 JUMP JUMPDEST PUSH0 DUP1 REVERT JUMPDEST PUSH0 DUP1 REVERT JUMPDEST PUSH0 DUP1 REVERT JUMPDEST PUSH0 DUP1 REVERT JUMPDEST PUSH0 PUSH1 0x1F NOT PUSH1 0x1F DUP4 ADD AND SWAP1 POP SWAP2 SWAP1 POP JUMP JUMPDEST PUSH32 0x4E487B7100000000000000000000000000000000000000000000000000000000 PUSH0 MSTORE PUSH1 0x41 PUSH1 0x4 MSTORE PUSH1 0x24 PUSH0 REVERT JUMPDEST PUSH3 0x5FA DUP3 PUSH3 0x5B2 JUMP JUMPDEST DUP2 ADD DUP2 DUP2 LT PUSH8 0xFFFFFFFFFFFFFFFF DUP3 GT OR ISZERO PUSH3 0x61C JUMPI PUSH3 0x61B PUSH3 0x5C2 JUMP JUMPDEST JUMPDEST DUP1 PUSH1 0x40 MSTORE POP POP POP JUMP JUMPDEST PUSH0 PUSH3 0x630 PUSH3 0x599 JUMP JUMPDEST SWAP1 POP PUSH3 0x63E DUP3 DUP3 PUSH3 0x5EF JUMP JUMPDEST SWAP2 SWAP1 POP JUMP JUMPDEST PUSH0 PUSH8 0xFFFFFFFFFFFFFFFF DUP3 GT ISZERO PUSH3 0x660 JUMPI PUSH3 0x65F PUSH3 0x5C2 JUMP JUMPDEST JUMPDEST PUSH3 0x66B DUP3 PUSH3 0x5B2 JUMP JUMPDEST SWAP1 POP PUSH1 0x20 DUP2 ADD SWAP1 POP SWAP2 SWAP1 POP JUMP JUMPDEST PUSH0 JUMPDEST DUP4 DUP2 LT ISZERO PUSH3 0x697 JUMPI DUP1 DUP3 ADD MLOAD DUP2 DUP5 ADD MSTORE PUSH1 0x20 DUP2 ADD SWAP1 POP PUSH3 0x67A JUMP JUMPDEST PUSH0 DUP5 DUP5 ADD MSTORE POP POP POP POP JUMP JUMPDEST PUSH0 PUSH3 0x6B8 PUSH3 0x6B2 DUP5 PUSH3 0x643 JUMP JUMPDEST PUSH3 0x625 JUMP JUMPDEST SWAP1 POP DUP3 DUP2 MSTORE PUSH1 0x20 DUP2 ADD DUP5 DUP5 DUP5 ADD GT ISZERO PUSH3 0x6D7 JUMPI PUSH3 0x6D6 PUSH3 0x5AE JUMP JUMPDEST JUMPDEST PUSH3 0x6E4 DUP5 DUP3 DUP6 PUSH3 0x678 JUMP JUMPDEST POP SWAP4 SWAP3 POP POP POP JUMP JUMPDEST PUSH0 DUP3 PUSH1 0x1F DUP4 ADD SLT PUSH3 0x703 JUMPI PUSH3 0x702 PUSH3 0x5AA JUMP JUMPDEST JUMPDEST DUP2 MLOAD PUSH3 0x715 DUP5 DUP3 PUSH1 0x20 DUP7 ADD PUSH3 0x6A2 JUMP JUMPDEST SWAP2 POP POP SWAP3 SWAP2 POP POP JUMP JUMPDEST PUSH0 PUSH8 0xFFFFFFFFFFFFFFFF DUP3 GT ISZERO PUSH3 0x73B JUMPI PUSH3 0x73A PUSH3 0x5C2 JUMP JUMPDEST JUMPDEST PUSH1 0x20 DUP3 MUL SWAP1 POP PUSH1 0x20 DUP2 ADD SWAP1 POP SWAP2 SWAP1 POP JUMP JUMPDEST PUSH0 DUP1 REVERT JUMPDEST PUSH0 PUSH3 0x766 PUSH3 0x760 DUP5 PUSH3 0x71E JUMP JUMPDEST PUSH3 0x625 JUMP JUMPDEST SWAP1 POP DUP1 DUP4 DUP3 MSTORE PUSH1 0x20 DUP3 ADD SWAP1 POP PUSH1 0x20 DUP5 MUL DUP4 ADD DUP6 DUP2 GT ISZERO PUSH3 0x78C JUMPI PUSH3 0x78B PUSH3 0x74C JUMP JUMPDEST JUMPDEST DUP4 JUMPDEST DUP2 DUP2 LT ISZERO PUSH3 0x7DA JUMPI DUP1 MLOAD PUSH8 0xFFFFFFFFFFFFFFFF DUP2 GT ISZERO PUSH3 0x7B5 JUMPI PUSH3 0x7B4 PUSH3 0x5AA JUMP JUMPDEST JUMPDEST DUP1 DUP7 ADD PUSH3 0x7C4 DUP10 DUP3 PUSH3 0x6EC JUMP JUMPDEST DUP6 MSTORE PUSH1 0x20 DUP6 ADD SWAP5 POP POP POP PUSH1 0x20 DUP2 ADD SWAP1 POP PUSH3 0x78E JUMP JUMPDEST POP POP POP SWAP4 SWAP3 POP POP POP JUMP JUMPDEST PUSH0 DUP3 PUSH1 0x1F DUP4 ADD SLT PUSH3 0x7FB JUMPI PUSH3 0x7FA PUSH3 0x5AA JUMP JUMPDEST JUMPDEST DUP2 MLOAD PUSH3 0x80D DUP5 DUP3 PUSH1 0x20 DUP7 ADD PUSH3 0x750 JUMP JUMPDEST SWAP2 POP POP SWAP3 SWAP2 POP POP JUMP JUMPDEST PUSH0 DUP2 SWAP1 POP SWAP2 SWAP1 POP JUMP JUMPDEST PUSH3 0x82A DUP2 PUSH3 0x816 JUMP JUMPDEST DUP2 EQ PUSH3 0x835 JUMPI PUSH0 DUP1 REVERT JUMPDEST POP JUMP JUMPDEST PUSH0 DUP2 MLOAD SWAP1 POP PUSH3 0x848 DUP2 PUSH3 0x81F JUMP JUMPDEST SWAP3 SWAP2 POP POP JUMP JUMPDEST PUSH0 PUSH20 0xFFFFFFFFFFFFFFFFFFFFFFFFFFFFFFFFFFFFFFFF DUP3 AND SWAP1 POP SWAP2 SWAP1 POP JUMP JUMPDEST PUSH0 PUSH3 0x879 DUP3 PUSH3 0x84E JUMP JUMPDEST SWAP1 POP SWAP2 SWAP1 POP JUMP JUMPDEST PUSH3 0x88B DUP2 PUSH3 0x86D JUMP JUMPDEST DUP2 EQ PUSH3 0x896 JUMPI PUSH0 DUP1 REVERT JUMPDEST POP JUMP JUMPDEST PUSH0 DUP2 MLOAD SWAP1 POP PUSH3 0x8A9 DUP2 PUSH3 0x880 JUMP JUMPDEST SWAP3 SWAP2 POP POP JUMP JUMPDEST PUSH0 DUP1 PUSH0 DUP1 PUSH0 DUP1 PUSH1 0xC0 DUP8 DUP10 SUB SLT ISZERO PUSH3 0x8CC JUMPI PUSH3 0x8CB PUSH3 0x5A2 JUMP JUMPDEST JUMPDEST PUSH0 DUP8 ADD MLOAD PUSH8 0xFFFFFFFFFFFFFFFF DUP2 GT ISZERO PUSH3 0x8EC JUMPI PUSH3 0x8EB PUSH3 0x5A6 JUMP JUMPDEST JUMPDEST PUSH3 0x8FA DUP10 DUP3 DUP11 ADD PUSH3 0x6EC JUMP JUMPDEST SWAP7 POP POP PUSH1 0x20 DUP8 ADD MLOAD PUSH8 0xFFFFFFFFFFFFFFFF DUP2 GT ISZERO PUSH3 0x91E JUMPI PUSH3 0x91D PUSH3 0x5A6 JUMP JUMPDEST JUMPDEST PUSH3 0x92C DUP10 DUP3 DUP11 ADD PUSH3 0x6EC JUMP JUMPDEST SWAP6 POP POP PUSH1 0x40 DUP8 ADD MLOAD PUSH8 0xFFFFFFFFFFFFFFFF DUP2 GT ISZERO PUSH3 0x950 JUMPI PUSH3 0x94F PUSH3 0x5A6 JUMP JUMPDEST JUMPDEST PUSH3 0x95E DUP10 DUP3 DUP11 ADD PUSH3 0x7E4 JUMP JUMPDEST SWAP5 POP POP PUSH1 0x60 PUSH3 0x971 DUP10 DUP3 DUP11 ADD PUSH3 0x838 JUMP JUMPDEST SWAP4 POP POP PUSH1 0x80 PUSH3 0x984 DUP10 DUP3 DUP11 ADD PUSH3 0x838 JUMP JUMPDEST SWAP3 POP POP PUSH1 0xA0 PUSH3 0x997 DUP10 DUP3 DUP11 ADD PUSH3 0x899 JUMP JUMPDEST SWAP2 POP POP SWAP3 SWAP6 POP SWAP3 SWAP6 POP SWAP3 SWAP6 JUMP JUMPDEST PUSH0 DUP2 MLOAD SWAP1 POP SWAP2 SWAP1 POP JUMP JUMPDEST PUSH32 0x4E487B7100000000000000000000000000000000000000000000000000000000 PUSH0 MSTORE PUSH1 0x22 PUSH1 0x4 MSTORE PUSH1 0x24 PUSH0 REVERT JUMPDEST PUSH0 PUSH1 0x2 DUP3 DIV SWAP1 POP PUSH1 0x1 DUP3 AND DUP1 PUSH3 0x9F3 JUMPI PUSH1 0x7F DUP3 AND SWAP2 POP JUMPDEST PUSH1 0x20 DUP3 LT DUP2 SUB PUSH3 0xA09 JUMPI PUSH3 0xA08 PUSH3 0x9AE JUMP JUMPDEST JUMPDEST POP SWAP2 SWAP1 POP JUMP JUMPDEST PUSH0 DUP2 SWAP1 POP DUP2 PUSH0 MSTORE PUSH1 0x20 PUSH0 KECCAK256 SWAP1 POP SWAP2 SWAP1 POP JUMP JUMPDEST PUSH0 PUSH1 0x20 PUSH1 0x1F DUP4 ADD DIV SWAP1 POP SWAP2 SWAP1 POP JUMP JUMPDEST PUSH0 DUP3 DUP3 SHL SWAP1 POP SWAP3 SWAP2 POP POP JUMP JUMPDEST PUSH0 PUSH1 0x8 DUP4 MUL PUSH3 0xA6D PUSH32 0xFFFFFFFFFFFFFFFFFFFFFFFFFFFFFFFFFFFFFFFFFFFFFFFFFFFFFFFFFFFFFFFF DUP3 PUSH3 0xA30 JUMP JUMPDEST PUSH3 0xA79 DUP7 DUP4 PUSH3 0xA30 JUMP JUMPDEST SWAP6 POP DUP1 NOT DUP5 AND SWAP4 POP DUP1 DUP7 AND DUP5 OR SWAP3 POP POP POP SWAP4 SWAP3 POP POP POP JUMP JUMPDEST PUSH0 DUP2 SWAP1 POP SWAP2 SWAP1 POP JUMP JUMPDEST PUSH0 PUSH3 0xABA PUSH3 0xAB4 PUSH3 0xAAE DUP5 PUSH3 0x816 JUMP JUMPDEST PUSH3 0xA91 JUMP JUMPDEST PUSH3 0x816 JUMP JUMPDEST SWAP1 POP SWAP2 SWAP1 POP JUMP JUMPDEST PUSH0 DUP2 SWAP1 POP SWAP2 SWAP1 POP JUMP JUMPDEST PUSH3 0xAD5 DUP4 PUSH3 0xA9A JUMP JUMPDEST PUSH3 0xAED PUSH3 0xAE4 DUP3 PUSH3 0xAC1 JUMP JUMPDEST DUP5 DUP5 SLOAD PUSH3 0xA3C JUMP JUMPDEST DUP3 SSTORE POP POP POP POP JUMP JUMPDEST PUSH0 SWAP1 JUMP JUMPDEST PUSH3 0xB03 PUSH3 0xAF5 JUMP JUMPDEST PUSH3 0xB10 DUP2 DUP5 DUP5 PUSH3 0xACA JUMP JUMPDEST POP POP POP JUMP JUMPDEST JUMPDEST DUP2 DUP2 LT ISZERO PUSH3 0xB37 JUMPI PUSH3 0xB2B PUSH0 DUP3 PUSH3 0xAF9 JUMP JUMPDEST PUSH1 0x1 DUP2 ADD SWAP1 POP PUSH3 0xB16 JUMP JUMPDEST POP POP JUMP JUMPDEST PUSH1 0x1F DUP3 GT ISZERO PUSH3 0xB86 JUMPI PUSH3 0xB50 DUP2 PUSH3 0xA0F JUMP JUMPDEST PUSH3 0xB5B DUP5 PUSH3 0xA21 JUMP JUMPDEST DUP2 ADD PUSH1 0x20 DUP6 LT ISZERO PUSH3 0xB6B JUMPI DUP2 SWAP1 POP JUMPDEST PUSH3 0xB83 PUSH3 0xB7A DUP6 PUSH3 0xA21 JUMP JUMPDEST DUP4 ADD DUP3 PUSH3 0xB15 JUMP JUMPDEST POP POP JUMPDEST POP POP POP JUMP JUMPDEST PUSH0 DUP3 DUP3 SHR SWAP1 POP SWAP3 SWAP2 POP POP JUMP JUMPDEST PUSH0 PUSH3 0xBA8 PUSH0 NOT DUP5 PUSH1 0x8 MUL PUSH3 0xB8B JUMP JUMPDEST NOT DUP1 DUP4 AND SWAP2 POP POP SWAP3 SWAP2 POP POP JUMP JUMPDEST PUSH0 PUSH3 0xBC2 DUP4 DUP4 PUSH3 0xB97 JUMP JUMPDEST SWAP2 POP DUP3 PUSH1 0x2 MUL DUP3 OR SWAP1 POP SWAP3 SWAP2 POP POP JUMP JUMPDEST PUSH3 0xBDD DUP3 PUSH3 0x9A4 JUMP JUMPDEST PUSH8 0xFFFFFFFFFFFFFFFF DUP2 GT ISZERO PUSH3 0xBF9 JUMPI PUSH3 0xBF8 PUSH3 0x5C2 JUMP JUMPDEST JUMPDEST PUSH3 0xC05 DUP3 SLOAD PUSH3 0x9DB JUMP JUMPDEST PUSH3 0xC12 DUP3 DUP3 DUP6 PUSH3 0xB3B JUMP JUMPDEST PUSH0 PUSH1 0x20 SWAP1 POP PUSH1 0x1F DUP4 GT PUSH1 0x1 DUP2 EQ PUSH3 0xC48 JUMPI PUSH0 DUP5 ISZERO PUSH3 0xC33 JUMPI DUP3 DUP8 ADD MLOAD SWAP1 POP JUMPDEST PUSH3 0xC3F DUP6 DUP3 PUSH3 0xBB5 JUMP JUMPDEST DUP7 SSTORE POP PUSH3 0xCAE JUMP JUMPDEST PUSH1 0x1F NOT DUP5 AND PUSH3 0xC58 DUP7 PUSH3 0xA0F JUMP JUMPDEST PUSH0 JUMPDEST DUP3 DUP2 LT ISZERO PUSH3 0xC81 JUMPI DUP5 DUP10 ADD MLOAD DUP3 SSTORE PUSH1 0x1 DUP3 ADD SWAP2 POP PUSH1 0x20 DUP6 ADD SWAP5 POP PUSH1 0x20 DUP2 ADD SWAP1 POP PUSH3 0xC5A JUMP JUMPDEST DUP7 DUP4 LT ISZERO PUSH3 0xCA1 JUMPI DUP5 DUP10 ADD MLOAD PUSH3 0xC9D PUSH1 0x1F DUP10 AND DUP3 PUSH3 0xB97 JUMP JUMPDEST DUP4 SSTORE POP JUMPDEST PUSH1 0x1 PUSH1 0x2 DUP9 MUL ADD DUP9 SSTORE POP POP POP JUMPDEST POP POP POP POP POP POP JUMP JUMPDEST PUSH3 0xCC1 DUP2 PUSH3 0x86D JUMP JUMPDEST DUP3 MSTORE POP POP JUMP JUMPDEST PUSH0 PUSH1 0x20 DUP3 ADD SWAP1 POP PUSH3 0xCDC PUSH0 DUP4 ADD DUP5 PUSH3 0xCB6 JUMP JUMPDEST SWAP3 SWAP2 POP POP JUMP JUMPDEST PUSH0 PUSH3 0xD02 PUSH3 0xCFC PUSH3 0xCF6 DUP5 PUSH3 0x84E JUMP JUMPDEST PUSH3 0xA91 JUMP JUMPDEST PUSH3 0x84E JUMP JUMPDEST SWAP1 POP SWAP2 SWAP1 POP JUMP JUMPDEST PUSH0 PUSH3 0xD15 DUP3 PUSH3 0xCE2 JUMP JUMPDEST SWAP1 POP SWAP2 SWAP1 POP JUMP JUMPDEST PUSH0 PUSH3 0xD28 DUP3 PUSH3 0xD09 JUMP JUMPDEST SWAP1 POP SWAP2 SWAP1 POP JUMP JUMPDEST PUSH3 0xD3A DUP2 PUSH3 0xD1C JUMP JUMPDEST DUP3 MSTORE POP POP JUMP JUMPDEST PUSH0 PUSH1 0x20 DUP3 ADD SWAP1 POP PUSH3 0xD55 PUSH0 DUP4 ADD DUP5 PUSH3 0xD2F JUMP JUMPDEST SWAP3 SWAP2 POP POP JUMP JUMPDEST PUSH1 0x80 MLOAD PUSH2 0x439E PUSH3 0xD7B PUSH0 CODECOPY PUSH0 DUP2 DUP2 PUSH2 0xAFD ADD MSTORE PUSH2 0xB51 ADD MSTORE PUSH2 0x439E PUSH0 RETURN INVALID PUSH1 0x80 PUSH1 0x40 MSTORE PUSH1 0x4 CALLDATASIZE LT PUSH2 0x227 JUMPI PUSH0 CALLDATALOAD PUSH1 0xE0 SHR DUP1 PUSH4 0x95D89B41 GT PUSH2 0x122 JUMPI DUP1 PUSH4 0xC45A0155 GT PUSH2 0xAA JUMPI DUP1 PUSH4 0xDC2337E2 GT PUSH2 0x6E JUMPI DUP1 PUSH4 0xDC2337E2 EQ PUSH2 0x7CA JUMPI DUP1 PUSH4 0xE0C86289 EQ PUSH2 0x7F4 JUMPI DUP1 PUSH4 0xE985E9C5 EQ PUSH2 0x81E JUMPI DUP1 PUSH4 0xF2FDE38B EQ PUSH2 0x85A JUMPI DUP1 PUSH4 0xF3CCAAC0 EQ PUSH2 0x882 JUMPI PUSH2 0x22E JUMP JUMPDEST DUP1 PUSH4 0xC45A0155 EQ PUSH2 0x6F4 JUMPI DUP1 PUSH4 0xC87B56DD EQ PUSH2 0x71E JUMPI DUP1 PUSH4 0xCC3BBB20 EQ PUSH2 0x75A JUMPI DUP1 PUSH4 0xD4DDCE8A EQ PUSH2 0x764 JUMPI DUP1 PUSH4 0xDB65DBBB EQ PUSH2 0x7A0 JUMPI PUSH2 0x22E JUMP JUMPDEST DUP1 PUSH4 0xB43A76F1 GT PUSH2 0xF1 JUMPI DUP1 PUSH4 0xB43A76F1 EQ PUSH2 0x622 JUMPI DUP1 PUSH4 0xB88A802F EQ PUSH2 0x65E JUMPI DUP1 PUSH4 0xB88D4FDE EQ PUSH2 0x674 JUMPI DUP1 PUSH4 0xBD81093A EQ PUSH2 0x69C JUMPI DUP1 PUSH4 0xC2DB2C42 EQ PUSH2 0x6D8 JUMPI PUSH2 0x22E JUMP JUMPDEST DUP1 PUSH4 0x95D89B41 EQ PUSH2 0x558 JUMPI DUP1 PUSH4 0x9BBBA3A8 EQ PUSH2 0x582 JUMPI DUP1 PUSH4 0xA22CB465 EQ PUSH2 0x5BE JUMPI DUP1 PUSH4 0xAE9D010C EQ PUSH2 0x5E6 JUMPI PUSH2 0x22E JUMP JUMPDEST DUP1 PUSH4 0x42842E0E GT PUSH2 0x1B0 JUMPI DUP1 PUSH4 0x6817C76C GT PUSH2 0x174 JUMPI DUP1 PUSH4 0x6817C76C EQ PUSH2 0x488 JUMPI DUP1 PUSH4 0x70A08231 EQ PUSH2 0x4B2 JUMPI DUP1 PUSH4 0x715018A6 EQ PUSH2 0x4EE JUMPI DUP1 PUSH4 0x818E9BE0 EQ PUSH2 0x504 JUMPI DUP1 PUSH4 0x8DA5CB5B EQ PUSH2 0x52E JUMPI PUSH2 0x22E JUMP JUMPDEST DUP1 PUSH4 0x42842E0E EQ PUSH2 0x3A8 JUMPI DUP1 PUSH4 0x4A60F620 EQ PUSH2 0x3D0 JUMPI DUP1 PUSH4 0x57AD8071 EQ PUSH2 0x3FA JUMPI DUP1 PUSH4 0x6352211E EQ PUSH2 0x424 JUMPI DUP1 PUSH4 0x65AF3798 EQ PUSH2 0x460 JUMPI PUSH2 0x22E JUMP JUMPDEST DUP1 PUSH4 0x95EA7B3 GT PUSH2 0x1F7 JUMPI DUP1 PUSH4 0x95EA7B3 EQ PUSH2 0x2DE JUMPI DUP1 PUSH4 0x1FE543E3 EQ PUSH2 0x306 JUMPI DUP1 PUSH4 0x22C5DEC7 EQ PUSH2 0x32E JUMPI DUP1 PUSH4 0x23B872DD EQ PUSH2 0x358 JUMPI DUP1 PUSH4 0x410FFD29 EQ PUSH2 0x380 JUMPI PUSH2 0x22E JUMP JUMPDEST DUP1 PUSH3 0xC0E60A EQ PUSH2 0x232 JUMPI DUP1 PUSH4 0x1FFC9A7 EQ PUSH2 0x23C JUMPI DUP1 PUSH4 0x6FDDE03 EQ PUSH2 0x278 JUMPI DUP1 PUSH4 0x81812FC EQ PUSH2 0x2A2 JUMPI PUSH2 0x22E JUMP JUMPDEST CALLDATASIZE PUSH2 0x22E JUMPI STOP JUMPDEST PUSH0 DUP1 REVERT JUMPDEST PUSH2 0x23A PUSH2 0x8AC JUMP JUMPDEST STOP JUMPDEST CALLVALUE DUP1 ISZERO PUSH2 0x247 JUMPI PUSH0 DUP1 REVERT JUMPDEST POP PUSH2 0x262 PUSH1 0x4 DUP1 CALLDATASIZE SUB DUP2 ADD SWAP1 PUSH2 0x25D SWAP2 SWAP1 PUSH2 0x30A8 JUMP JUMPDEST PUSH2 0x9DB JUMP JUMPDEST PUSH1 0x40 MLOAD PUSH2 0x26F SWAP2 SWAP1 PUSH2 0x30ED JUMP JUMPDEST PUSH1 0x40 MLOAD DUP1 SWAP2 SUB SWAP1 RETURN JUMPDEST CALLVALUE DUP1 ISZERO PUSH2 0x283 JUMPI PUSH0 DUP1 REVERT JUMPDEST POP PUSH2 0x28C PUSH2 0xA3B JUMP JUMPDEST PUSH1 0x40 MLOAD PUSH2 0x299 SWAP2 SWAP1 PUSH2 0x3190 JUMP JUMPDEST PUSH1 0x40 MLOAD DUP1 SWAP2 SUB SWAP1 RETURN JUMPDEST CALLVALUE DUP1 ISZERO PUSH2 0x2AD JUMPI PUSH0 DUP1 REVERT JUMPDEST POP PUSH2 0x2C8 PUSH1 0x4 DUP1 CALLDATASIZE SUB DUP2 ADD SWAP1 PUSH2 0x2C3 SWAP2 SWAP1 PUSH2 0x31E3 JUMP JUMPDEST PUSH2 0xACA JUMP JUMPDEST PUSH1 0x40 MLOAD PUSH2 0x2D5 SWAP2 SWAP1 PUSH2 0x324D JUMP JUMPDEST PUSH1 0x40 MLOAD DUP1 SWAP2 SUB SWAP1 RETURN JUMPDEST CALLVALUE DUP1 ISZERO PUSH2 0x2E9 JUMPI PUSH0 DUP1 REVERT JUMPDEST POP PUSH2 0x304 PUSH1 0x4 DUP1 CALLDATASIZE SUB DUP2 ADD SWAP1 PUSH2 0x2FF SWAP2 SWAP1 PUSH2 0x3290 JUMP JUMPDEST PUSH2 0xAE5 JUMP JUMPDEST STOP JUMPDEST CALLVALUE DUP1 ISZERO PUSH2 0x311 JUMPI PUSH0 DUP1 REVERT JUMPDEST POP PUSH2 0x32C PUSH1 0x4 DUP1 CALLDATASIZE SUB DUP2 ADD SWAP1 PUSH2 0x327 SWAP2 SWAP1 PUSH2 0x340E JUMP JUMPDEST PUSH2 0xAFB JUMP JUMPDEST STOP JUMPDEST CALLVALUE DUP1 ISZERO PUSH2 0x339 JUMPI PUSH0 DUP1 REVERT JUMPDEST POP PUSH2 0x342 PUSH2 0xBBB JUMP JUMPDEST PUSH1 0x40 MLOAD PUSH2 0x34F SWAP2 SWAP1 PUSH2 0x324D JUMP JUMPDEST PUSH1 0x40 MLOAD DUP1 SWAP2 SUB SWAP1 RETURN JUMPDEST CALLVALUE DUP1 ISZERO PUSH2 0x363 JUMPI PUSH0 DUP1 REVERT JUMPDEST POP PUSH2 0x37E PUSH1 0x4 DUP1 CALLDATASIZE SUB DUP2 ADD SWAP1 PUSH2 0x379 SWAP2 SWAP1 PUSH2 0x3468 JUMP JUMPDEST PUSH2 0xBE0 JUMP JUMPDEST STOP JUMPDEST CALLVALUE DUP1 ISZERO PUSH2 0x38B JUMPI PUSH0 DUP1 REVERT JUMPDEST POP PUSH2 0x3A6 PUSH1 0x4 DUP1 CALLDATASIZE SUB DUP2 ADD SWAP1 PUSH2 0x3A1 SWAP2 SWAP1 PUSH2 0x31E3 JUMP JUMPDEST PUSH2 0xCDF JUMP JUMPDEST STOP JUMPDEST CALLVALUE DUP1 ISZERO PUSH2 0x3B3 JUMPI PUSH0 DUP1 REVERT JUMPDEST POP PUSH2 0x3CE PUSH1 0x4 DUP1 CALLDATASIZE SUB DUP2 ADD SWAP1 PUSH2 0x3C9 SWAP2 SWAP1 PUSH2 0x3468 JUMP JUMPDEST PUSH2 0xD96 JUMP JUMPDEST STOP JUMPDEST CALLVALUE DUP1 ISZERO PUSH2 0x3DB JUMPI PUSH0 DUP1 REVERT JUMPDEST POP PUSH2 0x3E4 PUSH2 0xDB5 JUMP JUMPDEST PUSH1 0x40 MLOAD PUSH2 0x3F1 SWAP2 SWAP1 PUSH2 0x34C7 JUMP JUMPDEST PUSH1 0x40 MLOAD DUP1 SWAP2 SUB SWAP1 RETURN JUMPDEST CALLVALUE DUP1 ISZERO PUSH2 0x405 JUMPI PUSH0 DUP1 REVERT JUMPDEST POP PUSH2 0x40E PUSH2 0xDBB JUMP JUMPDEST PUSH1 0x40 MLOAD PUSH2 0x41B SWAP2 SWAP1 PUSH2 0x3190 JUMP JUMPDEST PUSH1 0x40 MLOAD DUP1 SWAP2 SUB SWAP1 RETURN JUMPDEST CALLVALUE DUP1 ISZERO PUSH2 0x42F JUMPI PUSH0 DUP1 REVERT JUMPDEST POP PUSH2 0x44A PUSH1 0x4 DUP1 CALLDATASIZE SUB DUP2 ADD SWAP1 PUSH2 0x445 SWAP2 SWAP1 PUSH2 0x31E3 JUMP JUMPDEST PUSH2 0xE47 JUMP JUMPDEST PUSH1 0x40 MLOAD PUSH2 0x457 SWAP2 SWAP1 PUSH2 0x324D JUMP JUMPDEST PUSH1 0x40 MLOAD DUP1 SWAP2 SUB SWAP1 RETURN JUMPDEST CALLVALUE DUP1 ISZERO PUSH2 0x46B JUMPI PUSH0 DUP1 REVERT JUMPDEST POP PUSH2 0x486 PUSH1 0x4 DUP1 CALLDATASIZE SUB DUP2 ADD SWAP1 PUSH2 0x481 SWAP2 SWAP1 PUSH2 0x34E0 JUMP JUMPDEST PUSH2 0xE58 JUMP JUMPDEST STOP JUMPDEST CALLVALUE DUP1 ISZERO PUSH2 0x493 JUMPI PUSH0 DUP1 REVERT JUMPDEST POP PUSH2 0x49C PUSH2 0xF1B JUMP JUMPDEST PUSH1 0x40 MLOAD PUSH2 0x4A9 SWAP2 SWAP1 PUSH2 0x34C7 JUMP JUMPDEST PUSH1 0x40 MLOAD DUP1 SWAP2 SUB SWAP1 RETURN JUMPDEST CALLVALUE DUP1 ISZERO PUSH2 0x4BD JUMPI PUSH0 DUP1 REVERT JUMPDEST POP PUSH2 0x4D8 PUSH1 0x4 DUP1 CALLDATASIZE SUB DUP2 ADD SWAP1 PUSH2 0x4D3 SWAP2 SWAP1 PUSH2 0x351E JUMP JUMPDEST PUSH2 0xF21 JUMP JUMPDEST PUSH1 0x40 MLOAD PUSH2 0x4E5 SWAP2 SWAP1 PUSH2 0x34C7 JUMP JUMPDEST PUSH1 0x40 MLOAD DUP1 SWAP2 SUB SWAP1 RETURN JUMPDEST CALLVALUE DUP1 ISZERO PUSH2 0x4F9 JUMPI PUSH0 DUP1 REVERT JUMPDEST POP PUSH2 0x502 PUSH2 0xFD7 JUMP JUMPDEST STOP JUMPDEST CALLVALUE DUP1 ISZERO PUSH2 0x50F JUMPI PUSH0 DUP1 REVERT JUMPDEST POP PUSH2 0x518 PUSH2 0xFEA JUMP JUMPDEST PUSH1 0x40 MLOAD PUSH2 0x525 SWAP2 SWAP1 PUSH2 0x34C7 JUMP JUMPDEST PUSH1 0x40 MLOAD DUP1 SWAP2 SUB SWAP1 RETURN JUMPDEST CALLVALUE DUP1 ISZERO PUSH2 0x539 JUMPI PUSH0 DUP1 REVERT JUMPDEST POP PUSH2 0x542 PUSH2 0xFF0 JUMP JUMPDEST PUSH1 0x40 MLOAD PUSH2 0x54F SWAP2 SWAP1 PUSH2 0x324D JUMP JUMPDEST PUSH1 0x40 MLOAD DUP1 SWAP2 SUB SWAP1 RETURN JUMPDEST CALLVALUE DUP1 ISZERO PUSH2 0x563 JUMPI PUSH0 DUP1 REVERT JUMPDEST POP PUSH2 0x56C PUSH2 0x1018 JUMP JUMPDEST PUSH1 0x40 MLOAD PUSH2 0x579 SWAP2 SWAP1 PUSH2 0x3190 JUMP JUMPDEST PUSH1 0x40 MLOAD DUP1 SWAP2 SUB SWAP1 RETURN JUMPDEST CALLVALUE DUP1 ISZERO PUSH2 0x58D JUMPI PUSH0 DUP1 REVERT JUMPDEST POP PUSH2 0x5A8 PUSH1 0x4 DUP1 CALLDATASIZE SUB DUP2 ADD SWAP1 PUSH2 0x5A3 SWAP2 SWAP1 PUSH2 0x351E JUMP JUMPDEST PUSH2 0x10A8 JUMP JUMPDEST PUSH1 0x40 MLOAD PUSH2 0x5B5 SWAP2 SWAP1 PUSH2 0x36CA JUMP JUMPDEST PUSH1 0x40 MLOAD DUP1 SWAP2 SUB SWAP1 RETURN JUMPDEST CALLVALUE DUP1 ISZERO PUSH2 0x5C9 JUMPI PUSH0 DUP1 REVERT JUMPDEST POP PUSH2 0x5E4 PUSH1 0x4 DUP1 CALLDATASIZE SUB DUP2 ADD SWAP1 PUSH2 0x5DF SWAP2 SWAP1 PUSH2 0x3714 JUMP JUMPDEST PUSH2 0x121B JUMP JUMPDEST STOP JUMPDEST CALLVALUE DUP1 ISZERO PUSH2 0x5F1 JUMPI PUSH0 DUP1 REVERT JUMPDEST POP PUSH2 0x60C PUSH1 0x4 DUP1 CALLDATASIZE SUB DUP2 ADD SWAP1 PUSH2 0x607 SWAP2 SWAP1 PUSH2 0x351E JUMP JUMPDEST PUSH2 0x1231 JUMP JUMPDEST PUSH1 0x40 MLOAD PUSH2 0x619 SWAP2 SWAP1 PUSH2 0x36CA JUMP JUMPDEST PUSH1 0x40 MLOAD DUP1 SWAP2 SUB SWAP1 RETURN JUMPDEST CALLVALUE DUP1 ISZERO PUSH2 0x62D JUMPI PUSH0 DUP1 REVERT JUMPDEST POP PUSH2 0x648 PUSH1 0x4 DUP1 CALLDATASIZE SUB DUP2 ADD SWAP1 PUSH2 0x643 SWAP2 SWAP1 PUSH2 0x31E3 JUMP JUMPDEST PUSH2 0x1375 JUMP JUMPDEST PUSH1 0x40 MLOAD PUSH2 0x655 SWAP2 SWAP1 PUSH2 0x30ED JUMP JUMPDEST PUSH1 0x40 MLOAD DUP1 SWAP2 SUB SWAP1 RETURN JUMPDEST CALLVALUE DUP1 ISZERO PUSH2 0x669 JUMPI PUSH0 DUP1 REVERT JUMPDEST POP PUSH2 0x672 PUSH2 0x1392 JUMP JUMPDEST STOP JUMPDEST CALLVALUE DUP1 ISZERO PUSH2 0x67F JUMPI PUSH0 DUP1 REVERT JUMPDEST POP PUSH2 0x69A PUSH1 0x4 DUP1 CALLDATASIZE SUB DUP2 ADD SWAP1 PUSH2 0x695 SWAP2 SWAP1 PUSH2 0x3802 JUMP JUMPDEST PUSH2 0x1394 JUMP JUMPDEST STOP JUMPDEST CALLVALUE DUP1 ISZERO PUSH2 0x6A7 JUMPI PUSH0 DUP1 REVERT JUMPDEST POP PUSH2 0x6C2 PUSH1 0x4 DUP1 CALLDATASIZE SUB DUP2 ADD SWAP1 PUSH2 0x6BD SWAP2 SWAP1 PUSH2 0x31E3 JUMP JUMPDEST PUSH2 0x13B1 JUMP JUMPDEST PUSH1 0x40 MLOAD PUSH2 0x6CF SWAP2 SWAP1 PUSH2 0x3190 JUMP JUMPDEST PUSH1 0x40 MLOAD DUP1 SWAP2 SUB SWAP1 RETURN JUMPDEST PUSH2 0x6F2 PUSH1 0x4 DUP1 CALLDATASIZE SUB DUP2 ADD SWAP1 PUSH2 0x6ED SWAP2 SWAP1 PUSH2 0x31E3 JUMP JUMPDEST PUSH2 0x1457 JUMP JUMPDEST STOP JUMPDEST CALLVALUE DUP1 ISZERO PUSH2 0x6FF JUMPI PUSH0 DUP1 REVERT JUMPDEST POP PUSH2 0x708 PUSH2 0x1610 JUMP JUMPDEST PUSH1 0x40 MLOAD PUSH2 0x715 SWAP2 SWAP1 PUSH2 0x38DD JUMP JUMPDEST PUSH1 0x40 MLOAD DUP1 SWAP2 SUB SWAP1 RETURN JUMPDEST CALLVALUE DUP1 ISZERO PUSH2 0x729 JUMPI PUSH0 DUP1 REVERT JUMPDEST POP PUSH2 0x744 PUSH1 0x4 DUP1 CALLDATASIZE SUB DUP2 ADD SWAP1 PUSH2 0x73F SWAP2 SWAP1 PUSH2 0x31E3 JUMP JUMPDEST PUSH2 0x1635 JUMP JUMPDEST PUSH1 0x40 MLOAD PUSH2 0x751 SWAP2 SWAP1 PUSH2 0x3190 JUMP JUMPDEST PUSH1 0x40 MLOAD DUP1 SWAP2 SUB SWAP1 RETURN JUMPDEST PUSH2 0x762 PUSH2 0x1740 JUMP JUMPDEST STOP JUMPDEST CALLVALUE DUP1 ISZERO PUSH2 0x76F JUMPI PUSH0 DUP1 REVERT JUMPDEST POP PUSH2 0x78A PUSH1 0x4 DUP1 CALLDATASIZE SUB DUP2 ADD SWAP1 PUSH2 0x785 SWAP2 SWAP1 PUSH2 0x31E3 JUMP JUMPDEST PUSH2 0x19B1 JUMP JUMPDEST PUSH1 0x40 MLOAD PUSH2 0x797 SWAP2 SWAP1 PUSH2 0x34C7 JUMP JUMPDEST PUSH1 0x40 MLOAD DUP1 SWAP2 SUB SWAP1 RETURN JUMPDEST CALLVALUE DUP1 ISZERO PUSH2 0x7AB JUMPI PUSH0 DUP1 REVERT JUMPDEST POP PUSH2 0x7B4 PUSH2 0x19C6 JUMP JUMPDEST PUSH1 0x40 MLOAD PUSH2 0x7C1 SWAP2 SWAP1 PUSH2 0x3A54 JUMP JUMPDEST PUSH1 0x40 MLOAD DUP1 SWAP2 SUB SWAP1 RETURN JUMPDEST CALLVALUE DUP1 ISZERO PUSH2 0x7D5 JUMPI PUSH0 DUP1 REVERT JUMPDEST POP PUSH2 0x7DE PUSH2 0x1BF6 JUMP JUMPDEST PUSH1 0x40 MLOAD PUSH2 0x7EB SWAP2 SWAP1 PUSH2 0x34C7 JUMP JUMPDEST PUSH1 0x40 MLOAD DUP1 SWAP2 SUB SWAP1 RETURN JUMPDEST CALLVALUE DUP1 ISZERO PUSH2 0x7FF JUMPI PUSH0 DUP1 REVERT JUMPDEST POP PUSH2 0x808 PUSH2 0x1BFC JUMP JUMPDEST PUSH1 0x40 MLOAD PUSH2 0x815 SWAP2 SWAP1 PUSH2 0x34C7 JUMP JUMPDEST PUSH1 0x40 MLOAD DUP1 SWAP2 SUB SWAP1 RETURN JUMPDEST CALLVALUE DUP1 ISZERO PUSH2 0x829 JUMPI PUSH0 DUP1 REVERT JUMPDEST POP PUSH2 0x844 PUSH1 0x4 DUP1 CALLDATASIZE SUB DUP2 ADD SWAP1 PUSH2 0x83F SWAP2 SWAP1 PUSH2 0x3A74 JUMP JUMPDEST PUSH2 0x1CDD JUMP JUMPDEST PUSH1 0x40 MLOAD PUSH2 0x851 SWAP2 SWAP1 PUSH2 0x30ED JUMP JUMPDEST PUSH1 0x40 MLOAD DUP1 SWAP2 SUB SWAP1 RETURN JUMPDEST CALLVALUE DUP1 ISZERO PUSH2 0x865 JUMPI PUSH0 DUP1 REVERT JUMPDEST POP PUSH2 0x880 PUSH1 0x4 DUP1 CALLDATASIZE SUB DUP2 ADD SWAP1 PUSH2 0x87B SWAP2 SWAP1 PUSH2 0x351E JUMP JUMPDEST PUSH2 0x1D6B JUMP JUMPDEST STOP JUMPDEST CALLVALUE DUP1 ISZERO PUSH2 0x88D JUMPI PUSH0 DUP1 REVERT JUMPDEST POP PUSH2 0x896 PUSH2 0x1DEF JUMP JUMPDEST PUSH1 0x40 MLOAD PUSH2 0x8A3 SWAP2 SWAP1 PUSH2 0x3190 JUMP JUMPDEST PUSH1 0x40 MLOAD DUP1 SWAP2 SUB SWAP1 RETURN JUMPDEST PUSH1 0x13 SLOAD CALLER PUSH20 0xFFFFFFFFFFFFFFFFFFFFFFFFFFFFFFFFFFFFFFFF AND BALANCE LT ISZERO PUSH2 0x908 JUMPI PUSH1 0x40 MLOAD PUSH32 0x8C379A000000000000000000000000000000000000000000000000000000000 DUP2 MSTORE PUSH1 0x4 ADD PUSH2 0x8FF SWAP1 PUSH2 0x3AFC JUMP JUMPDEST PUSH1 0x40 MLOAD DUP1 SWAP2 SUB SWAP1 REVERT JUMPDEST PUSH1 0x13 SLOAD CALLVALUE EQ PUSH2 0x94C JUMPI PUSH1 0x40 MLOAD PUSH32 0x8C379A000000000000000000000000000000000000000000000000000000000 DUP2 MSTORE PUSH1 0x4 ADD PUSH2 0x943 SWAP1 PUSH2 0x3B64 JUMP JUMPDEST PUSH1 0x40 MLOAD DUP1 SWAP2 SUB SWAP1 REVERT JUMPDEST CALLER PUSH1 0x15 PUSH0 PUSH2 0x100 EXP DUP2 SLOAD DUP2 PUSH20 0xFFFFFFFFFFFFFFFFFFFFFFFFFFFFFFFFFFFFFFFF MUL NOT AND SWAP1 DUP4 PUSH20 0xFFFFFFFFFFFFFFFFFFFFFFFFFFFFFFFFFFFFFFFF AND MUL OR SWAP1 SSTORE POP ADDRESS PUSH20 0xFFFFFFFFFFFFFFFFFFFFFFFFFFFFFFFFFFFFFFFF AND PUSH2 0x8FC CALLVALUE SWAP1 DUP2 ISZERO MUL SWAP1 PUSH1 0x40 MLOAD PUSH0 PUSH1 0x40 MLOAD DUP1 DUP4 SUB DUP2 DUP6 DUP9 DUP9 CALL SWAP4 POP POP POP POP ISZERO DUP1 ISZERO PUSH2 0x9CF JUMPI RETURNDATASIZE PUSH0 DUP1 RETURNDATACOPY RETURNDATASIZE PUSH0 REVERT JUMPDEST POP PUSH2 0x9D8 PUSH2 0x1BFC JUMP JUMPDEST POP JUMP JUMPDEST PUSH0 PUSH4 0x49064906 PUSH1 0xE0 SHL PUSH28 0xFFFFFFFFFFFFFFFFFFFFFFFFFFFFFFFFFFFFFFFFFFFFFFFFFFFFFFFF NOT AND DUP3 PUSH28 0xFFFFFFFFFFFFFFFFFFFFFFFFFFFFFFFFFFFFFFFFFFFFFFFFFFFFFFFF NOT AND EQ DUP1 PUSH2 0xA34 JUMPI POP PUSH2 0xA33 DUP3 PUSH2 0x1E7B JUMP JUMPDEST JUMPDEST SWAP1 POP SWAP2 SWAP1 POP JUMP JUMPDEST PUSH1 0x60 PUSH0 DUP1 SLOAD PUSH2 0xA49 SWAP1 PUSH2 0x3BAF JUMP JUMPDEST DUP1 PUSH1 0x1F ADD PUSH1 0x20 DUP1 SWAP2 DIV MUL PUSH1 0x20 ADD PUSH1 0x40 MLOAD SWAP1 DUP2 ADD PUSH1 0x40 MSTORE DUP1 SWAP3 SWAP2 SWAP1 DUP2 DUP2 MSTORE PUSH1 0x20 ADD DUP3 DUP1 SLOAD PUSH2 0xA75 SWAP1 PUSH2 0x3BAF JUMP JUMPDEST DUP1 ISZERO PUSH2 0xAC0 JUMPI DUP1 PUSH1 0x1F LT PUSH2 0xA97 JUMPI PUSH2 0x100 DUP1 DUP4 SLOAD DIV MUL DUP4 MSTORE SWAP2 PUSH1 0x20 ADD SWAP2 PUSH2 0xAC0 JUMP JUMPDEST DUP3 ADD SWAP2 SWAP1 PUSH0 MSTORE PUSH1 0x20 PUSH0 KECCAK256 SWAP1 JUMPDEST DUP2 SLOAD DUP2 MSTORE SWAP1 PUSH1 0x1 ADD SWAP1 PUSH1 0x20 ADD DUP1 DUP4 GT PUSH2 0xAA3 JUMPI DUP3 SWAP1 SUB PUSH1 0x1F AND DUP3 ADD SWAP2 JUMPDEST POP POP POP POP POP SWAP1 POP SWAP1 JUMP JUMPDEST PUSH0 PUSH2 0xAD4 DUP3 PUSH2 0x1F5C JUMP JUMPDEST POP PUSH2 0xADE DUP3 PUSH2 0x1FE2 JUMP JUMPDEST SWAP1 POP SWAP2 SWAP1 POP JUMP JUMPDEST PUSH2 0xAF7 DUP3 DUP3 PUSH2 0xAF2 PUSH2 0x201B JUMP JUMPDEST PUSH2 0x2022 JUMP JUMPDEST POP POP JUMP JUMPDEST PUSH32 0x0 PUSH20 0xFFFFFFFFFFFFFFFFFFFFFFFFFFFFFFFFFFFFFFFF AND CALLER PUSH20 0xFFFFFFFFFFFFFFFFFFFFFFFFFFFFFFFFFFFFFFFF AND EQ PUSH2 0xBAD JUMPI CALLER PUSH32 0x0 PUSH1 0x40 MLOAD PUSH32 0x1CF993F400000000000000000000000000000000000000000000000000000000 DUP2 MSTORE PUSH1 0x4 ADD PUSH2 0xBA4 SWAP3 SWAP2 SWAP1 PUSH2 0x3BDF JUMP JUMPDEST PUSH1 0x40 MLOAD DUP1 SWAP2 SUB SWAP1 REVERT JUMPDEST PUSH2 0xBB7 DUP3 DUP3 PUSH2 0x2034 JUMP JUMPDEST POP POP JUMP JUMPDEST PUSH1 0x15 PUSH0 SWAP1 SLOAD SWAP1 PUSH2 0x100 EXP SWAP1 DIV PUSH20 0xFFFFFFFFFFFFFFFFFFFFFFFFFFFFFFFFFFFFFFFF AND DUP2 JUMP JUMPDEST PUSH0 PUSH20 0xFFFFFFFFFFFFFFFFFFFFFFFFFFFFFFFFFFFFFFFF AND DUP3 PUSH20 0xFFFFFFFFFFFFFFFFFFFFFFFFFFFFFFFFFFFFFFFF AND SUB PUSH2 0xC50 JUMPI PUSH0 PUSH1 0x40 MLOAD PUSH32 0x64A0AE9200000000000000000000000000000000000000000000000000000000 DUP2 MSTORE PUSH1 0x4 ADD PUSH2 0xC47 SWAP2 SWAP1 PUSH2 0x324D JUMP JUMPDEST PUSH1 0x40 MLOAD DUP1 SWAP2 SUB SWAP1 REVERT JUMPDEST PUSH0 PUSH2 0xC63 DUP4 DUP4 PUSH2 0xC5E PUSH2 0x201B JUMP JUMPDEST PUSH2 0x219A JUMP JUMPDEST SWAP1 POP DUP4 PUSH20 0xFFFFFFFFFFFFFFFFFFFFFFFFFFFFFFFFFFFFFFFF AND DUP2 PUSH20 0xFFFFFFFFFFFFFFFFFFFFFFFFFFFFFFFFFFFFFFFF AND EQ PUSH2 0xCD9 JUMPI DUP4 DUP3 DUP3 PUSH1 0x40 MLOAD PUSH32 0x64283D7B00000000000000000000000000000000000000000000000000000000 DUP2 MSTORE PUSH1 0x4 ADD PUSH2 0xCD0 SWAP4 SWAP3 SWAP2 SWAP1 PUSH2 0x3C06 JUMP JUMPDEST PUSH1 0x40 MLOAD DUP1 SWAP2 SUB SWAP1 REVERT JUMPDEST POP POP POP POP JUMP JUMPDEST PUSH2 0xCE8 DUP2 PUSH2 0xE47 JUMP JUMPDEST PUSH20 0xFFFFFFFFFFFFFFFFFFFFFFFFFFFFFFFFFFFFFFFF AND CALLER PUSH20 0xFFFFFFFFFFFFFFFFFFFFFFFFFFFFFFFFFFFFFFFF AND EQ PUSH2 0xD55 JUMPI PUSH1 0x40 MLOAD PUSH32 0x8C379A000000000000000000000000000000000000000000000000000000000 DUP2 MSTORE PUSH1 0x4 ADD PUSH2 0xD4C SWAP1 PUSH2 0x3C85 JUMP JUMPDEST PUSH1 0x40 MLOAD DUP1 SWAP2 SUB SWAP1 REVERT JUMPDEST PUSH0 PUSH1 0xD PUSH0 DUP4 DUP2 MSTORE PUSH1 0x20 ADD SWAP1 DUP2 MSTORE PUSH1 0x20 ADD PUSH0 KECCAK256 PUSH0 PUSH2 0x100 EXP DUP2 SLOAD DUP2 PUSH1 0xFF MUL NOT AND SWAP1 DUP4 ISZERO ISZERO MUL OR SWAP1 SSTORE POP PUSH0 PUSH1 0xE PUSH0 DUP4 DUP2 MSTORE PUSH1 0x20 ADD SWAP1 DUP2 MSTORE PUSH1 0x20 ADD PUSH0 KECCAK256 DUP2 SWAP1 SSTORE POP POP JUMP JUMPDEST PUSH2 0xDB0 DUP4 DUP4 DUP4 PUSH1 0x40 MLOAD DUP1 PUSH1 0x20 ADD PUSH1 0x40 MSTORE DUP1 PUSH0 DUP2 MSTORE POP PUSH2 0x1394 JUMP JUMPDEST POP POP POP JUMP JUMPDEST PUSH1 0xC SLOAD DUP2 JUMP JUMPDEST PUSH1 0xF DUP1 SLOAD PUSH2 0xDC8 SWAP1 PUSH2 0x3BAF JUMP JUMPDEST DUP1 PUSH1 0x1F ADD PUSH1 0x20 DUP1 SWAP2 DIV MUL PUSH1 0x20 ADD PUSH1 0x40 MLOAD SWAP1 DUP2 ADD PUSH1 0x40 MSTORE DUP1 SWAP3 SWAP2 SWAP1 DUP2 DUP2 MSTORE PUSH1 0x20 ADD DUP3 DUP1 SLOAD PUSH2 0xDF4 SWAP1 PUSH2 0x3BAF JUMP JUMPDEST DUP1 ISZERO PUSH2 0xE3F JUMPI DUP1 PUSH1 0x1F LT PUSH2 0xE16 JUMPI PUSH2 0x100 DUP1 DUP4 SLOAD DIV MUL DUP4 MSTORE SWAP2 PUSH1 0x20 ADD SWAP2 PUSH2 0xE3F JUMP JUMPDEST DUP3 ADD SWAP2 SWAP1 PUSH0 MSTORE PUSH1 0x20 PUSH0 KECCAK256 SWAP1 JUMPDEST DUP2 SLOAD DUP2 MSTORE SWAP1 PUSH1 0x1 ADD SWAP1 PUSH1 0x20 ADD DUP1 DUP4 GT PUSH2 0xE22 JUMPI DUP3 SWAP1 SUB PUSH1 0x1F AND DUP3 ADD SWAP2 JUMPDEST POP POP POP POP POP DUP2 JUMP JUMPDEST PUSH0 PUSH2 0xE51 DUP3 PUSH2 0x1F5C JUMP JUMPDEST SWAP1 POP SWAP2 SWAP1 POP JUMP JUMPDEST PUSH2 0xE61 DUP3 PUSH2 0xE47 JUMP JUMPDEST PUSH20 0xFFFFFFFFFFFFFFFFFFFFFFFFFFFFFFFFFFFFFFFF AND CALLER PUSH20 0xFFFFFFFFFFFFFFFFFFFFFFFFFFFFFFFFFFFFFFFF AND EQ PUSH2 0xECE JUMPI PUSH1 0x40 MLOAD PUSH32 0x8C379A000000000000000000000000000000000000000000000000000000000 DUP2 MSTORE PUSH1 0x4 ADD PUSH2 0xEC5 SWAP1 PUSH2 0x3C85 JUMP JUMPDEST PUSH1 0x40 MLOAD DUP1 SWAP2 SUB SWAP1 REVERT JUMPDEST PUSH1 0x1 PUSH1 0xD PUSH0 DUP5 DUP2 MSTORE PUSH1 0x20 ADD SWAP1 DUP2 MSTORE PUSH1 0x20 ADD PUSH0 KECCAK256 PUSH0 PUSH2 0x100 EXP DUP2 SLOAD DUP2 PUSH1 0xFF MUL NOT AND SWAP1 DUP4 ISZERO ISZERO MUL OR SWAP1 SSTORE POP DUP1 PUSH1 0xE PUSH0 DUP5 DUP2 MSTORE PUSH1 0x20 ADD SWAP1 DUP2 MSTORE PUSH1 0x20 ADD PUSH0 KECCAK256 DUP2 SWAP1 SSTORE POP PUSH2 0xF17 ADDRESS DUP4 PUSH2 0xAE5 JUMP JUMPDEST POP POP JUMP JUMPDEST PUSH1 0x13 SLOAD DUP2 JUMP JUMPDEST PUSH0 DUP1 PUSH20 0xFFFFFFFFFFFFFFFFFFFFFFFFFFFFFFFFFFFFFFFF AND DUP3 PUSH20 0xFFFFFFFFFFFFFFFFFFFFFFFFFFFFFFFFFFFFFFFF AND SUB PUSH2 0xF92 JUMPI PUSH0 PUSH1 0x40 MLOAD PUSH32 0x89C62B6400000000000000000000000000000000000000000000000000000000 DUP2 MSTORE PUSH1 0x4 ADD PUSH2 0xF89 SWAP2 SWAP1 PUSH2 0x324D JUMP JUMPDEST PUSH1 0x40 MLOAD DUP1 SWAP2 SUB SWAP1 REVERT JUMPDEST PUSH1 0x3 PUSH0 DUP4 PUSH20 0xFFFFFFFFFFFFFFFFFFFFFFFFFFFFFFFFFFFFFFFF AND PUSH20 0xFFFFFFFFFFFFFFFFFFFFFFFFFFFFFFFFFFFFFFFF AND DUP2 MSTORE PUSH1 0x20 ADD SWAP1 DUP2 MSTORE PUSH1 0x20 ADD PUSH0 KECCAK256 SLOAD SWAP1 POP SWAP2 SWAP1 POP JUMP JUMPDEST PUSH2 0xFDF PUSH2 0x23A5 JUMP JUMPDEST PUSH2 0xFE8 PUSH0 PUSH2 0x242C JUMP JUMPDEST JUMP JUMPDEST PUSH1 0x12 SLOAD DUP2 JUMP JUMPDEST PUSH0 PUSH1 0x7 PUSH0 SWAP1 SLOAD SWAP1 PUSH2 0x100 EXP SWAP1 DIV PUSH20 0xFFFFFFFFFFFFFFFFFFFFFFFFFFFFFFFFFFFFFFFF AND SWAP1 POP SWAP1 JUMP JUMPDEST PUSH1 0x60 PUSH1 0x1 DUP1 SLOAD PUSH2 0x1027 SWAP1 PUSH2 0x3BAF JUMP JUMPDEST DUP1 PUSH1 0x1F ADD PUSH1 0x20 DUP1 SWAP2 DIV MUL PUSH1 0x20 ADD PUSH1 0x40 MLOAD SWAP1 DUP2 ADD PUSH1 0x40 MSTORE DUP1 SWAP3 SWAP2 SWAP1 DUP2 DUP2 MSTORE PUSH1 0x20 ADD DUP3 DUP1 SLOAD PUSH2 0x1053 SWAP1 PUSH2 0x3BAF JUMP JUMPDEST DUP1 ISZERO PUSH2 0x109E JUMPI DUP1 PUSH1 0x1F LT PUSH2 0x1075 JUMPI PUSH2 0x100 DUP1 DUP4 SLOAD DIV MUL DUP4 MSTORE SWAP2 PUSH1 0x20 ADD SWAP2 PUSH2 0x109E JUMP JUMPDEST DUP3 ADD SWAP2 SWAP1 PUSH0 MSTORE PUSH1 0x20 PUSH0 KECCAK256 SWAP1 JUMPDEST DUP2 SLOAD DUP2 MSTORE SWAP1 PUSH1 0x1 ADD SWAP1 PUSH1 0x20 ADD DUP1 DUP4 GT PUSH2 0x1081 JUMPI DUP3 SWAP1 SUB PUSH1 0x1F AND DUP3 ADD SWAP2 JUMPDEST POP POP POP POP POP SWAP1 POP SWAP1 JUMP JUMPDEST PUSH1 0x60 PUSH0 PUSH1 0xC SLOAD PUSH8 0xFFFFFFFFFFFFFFFF DUP2 GT ISZERO PUSH2 0x10C7 JUMPI PUSH2 0x10C6 PUSH2 0x32D2 JUMP JUMPDEST JUMPDEST PUSH1 0x40 MLOAD SWAP1 DUP1 DUP3 MSTORE DUP1 PUSH1 0x20 MUL PUSH1 0x20 ADD DUP3 ADD PUSH1 0x40 MSTORE DUP1 ISZERO PUSH2 0x1100 JUMPI DUP2 PUSH1 0x20 ADD JUMPDEST PUSH2 0x10ED PUSH2 0x2FD2 JUMP JUMPDEST DUP2 MSTORE PUSH1 0x20 ADD SWAP1 PUSH1 0x1 SWAP1 SUB SWAP1 DUP2 PUSH2 0x10E5 JUMPI SWAP1 POP JUMPDEST POP SWAP1 POP PUSH0 DUP1 JUMPDEST PUSH1 0xC SLOAD DUP2 LT ISZERO PUSH2 0x120D JUMPI PUSH1 0x1 ISZERO ISZERO PUSH1 0xD PUSH0 DUP4 DUP2 MSTORE PUSH1 0x20 ADD SWAP1 DUP2 MSTORE PUSH1 0x20 ADD PUSH0 KECCAK256 PUSH0 SWAP1 SLOAD SWAP1 PUSH2 0x100 EXP SWAP1 DIV PUSH1 0xFF AND ISZERO ISZERO EQ DUP1 ISZERO PUSH2 0x1175 JUMPI POP DUP5 PUSH20 0xFFFFFFFFFFFFFFFFFFFFFFFFFFFFFFFFFFFFFFFF AND PUSH2 0x115C DUP3 PUSH2 0xE47 JUMP JUMPDEST PUSH20 0xFFFFFFFFFFFFFFFFFFFFFFFFFFFFFFFFFFFFFFFF AND EQ ISZERO JUMPDEST ISZERO PUSH2 0x1200 JUMPI PUSH1 0x40 MLOAD DUP1 PUSH1 0x80 ADD PUSH1 0x40 MSTORE DUP1 DUP3 DUP2 MSTORE PUSH1 0x20 ADD PUSH2 0x1194 DUP4 PUSH2 0x1635 JUMP JUMPDEST DUP2 MSTORE PUSH1 0x20 ADD PUSH1 0xD PUSH0 DUP5 DUP2 MSTORE PUSH1 0x20 ADD SWAP1 DUP2 MSTORE PUSH1 0x20 ADD PUSH0 KECCAK256 PUSH0 SWAP1 SLOAD SWAP1 PUSH2 0x100 EXP SWAP1 DIV PUSH1 0xFF AND ISZERO ISZERO DUP2 MSTORE PUSH1 0x20 ADD PUSH1 0xE PUSH0 DUP5 DUP2 MSTORE PUSH1 0x20 ADD SWAP1 DUP2 MSTORE PUSH1 0x20 ADD PUSH0 KECCAK256 SLOAD DUP2 MSTORE POP DUP4 DUP4 DUP2 MLOAD DUP2 LT PUSH2 0x11E6 JUMPI PUSH2 0x11E5 PUSH2 0x3CA3 JUMP JUMPDEST JUMPDEST PUSH1 0x20 MUL PUSH1 0x20 ADD ADD DUP2 SWAP1 MSTORE POP DUP2 DUP1 PUSH2 0x11FC SWAP1 PUSH2 0x3CFD JUMP JUMPDEST SWAP3 POP POP JUMPDEST DUP1 DUP1 PUSH1 0x1 ADD SWAP2 POP POP PUSH2 0x1106 JUMP JUMPDEST POP DUP1 DUP3 MSTORE DUP2 SWAP3 POP POP POP SWAP2 SWAP1 POP JUMP JUMPDEST PUSH2 0x122D PUSH2 0x1226 PUSH2 0x201B JUMP JUMPDEST DUP4 DUP4 PUSH2 0x24EF JUMP JUMPDEST POP POP JUMP JUMPDEST PUSH1 0x60 PUSH0 PUSH1 0xC SLOAD PUSH8 0xFFFFFFFFFFFFFFFF DUP2 GT ISZERO PUSH2 0x1250 JUMPI PUSH2 0x124F PUSH2 0x32D2 JUMP JUMPDEST JUMPDEST PUSH1 0x40 MLOAD SWAP1 DUP1 DUP3 MSTORE DUP1 PUSH1 0x20 MUL PUSH1 0x20 ADD DUP3 ADD PUSH1 0x40 MSTORE DUP1 ISZERO PUSH2 0x1289 JUMPI DUP2 PUSH1 0x20 ADD JUMPDEST PUSH2 0x1276 PUSH2 0x2FD2 JUMP JUMPDEST DUP2 MSTORE PUSH1 0x20 ADD SWAP1 PUSH1 0x1 SWAP1 SUB SWAP1 DUP2 PUSH2 0x126E JUMPI SWAP1 POP JUMPDEST POP SWAP1 POP PUSH0 DUP1 JUMPDEST PUSH1 0xC SLOAD DUP2 LT ISZERO PUSH2 0x1367 JUMPI DUP5 PUSH20 0xFFFFFFFFFFFFFFFFFFFFFFFFFFFFFFFFFFFFFFFF AND PUSH2 0x12B9 DUP3 PUSH2 0xE47 JUMP JUMPDEST PUSH20 0xFFFFFFFFFFFFFFFFFFFFFFFFFFFFFFFFFFFFFFFF AND SUB PUSH2 0x135A JUMPI PUSH1 0x40 MLOAD DUP1 PUSH1 0x80 ADD PUSH1 0x40 MSTORE DUP1 DUP3 DUP2 MSTORE PUSH1 0x20 ADD PUSH2 0x12EE DUP4 PUSH2 0x1635 JUMP JUMPDEST DUP2 MSTORE PUSH1 0x20 ADD PUSH1 0xD PUSH0 DUP5 DUP2 MSTORE PUSH1 0x20 ADD SWAP1 DUP2 MSTORE PUSH1 0x20 ADD PUSH0 KECCAK256 PUSH0 SWAP1 SLOAD SWAP1 PUSH2 0x100 EXP SWAP1 DIV PUSH1 0xFF AND ISZERO ISZERO DUP2 MSTORE PUSH1 0x20 ADD PUSH1 0xE PUSH0 DUP5 DUP2 MSTORE PUSH1 0x20 ADD SWAP1 DUP2 MSTORE PUSH1 0x20 ADD PUSH0 KECCAK256 SLOAD DUP2 MSTORE POP DUP4 DUP4 DUP2 MLOAD DUP2 LT PUSH2 0x1340 JUMPI PUSH2 0x133F PUSH2 0x3CA3 JUMP JUMPDEST JUMPDEST PUSH1 0x20 MUL PUSH1 0x20 ADD ADD DUP2 SWAP1 MSTORE POP DUP2 DUP1 PUSH2 0x1356 SWAP1 PUSH2 0x3CFD JUMP JUMPDEST SWAP3 POP POP JUMPDEST DUP1 DUP1 PUSH1 0x1 ADD SWAP2 POP POP PUSH2 0x128F JUMP JUMPDEST POP DUP1 DUP3 MSTORE DUP2 SWAP3 POP POP POP SWAP2 SWAP1 POP JUMP JUMPDEST PUSH1 0xD PUSH1 0x20 MSTORE DUP1 PUSH0 MSTORE PUSH1 0x40 PUSH0 KECCAK256 PUSH0 SWAP2 POP SLOAD SWAP1 PUSH2 0x100 EXP SWAP1 DIV PUSH1 0xFF AND DUP2 JUMP JUMPDEST JUMP JUMPDEST PUSH2 0x139F DUP5 DUP5 DUP5 PUSH2 0xBE0 JUMP JUMPDEST PUSH2 0x13AB DUP5 DUP5 DUP5 DUP5 PUSH2 0x2658 JUMP JUMPDEST POP POP POP POP JUMP JUMPDEST PUSH1 0x11 DUP2 DUP2 SLOAD DUP2 LT PUSH2 0x13C0 JUMPI PUSH0 DUP1 REVERT JUMPDEST SWAP1 PUSH0 MSTORE PUSH1 0x20 PUSH0 KECCAK256 ADD PUSH0 SWAP2 POP SWAP1 POP DUP1 SLOAD PUSH2 0x13D8 SWAP1 PUSH2 0x3BAF JUMP JUMPDEST DUP1 PUSH1 0x1F ADD PUSH1 0x20 DUP1 SWAP2 DIV MUL PUSH1 0x20 ADD PUSH1 0x40 MLOAD SWAP1 DUP2 ADD PUSH1 0x40 MSTORE DUP1 SWAP3 SWAP2 SWAP1 DUP2 DUP2 MSTORE PUSH1 0x20 ADD DUP3 DUP1 SLOAD PUSH2 0x1404 SWAP1 PUSH2 0x3BAF JUMP JUMPDEST DUP1 ISZERO PUSH2 0x144F JUMPI DUP1 PUSH1 0x1F LT PUSH2 0x1426 JUMPI PUSH2 0x100 DUP1 DUP4 SLOAD DIV MUL DUP4 MSTORE SWAP2 PUSH1 0x20 ADD SWAP2 PUSH2 0x144F JUMP JUMPDEST DUP3 ADD SWAP2 SWAP1 PUSH0 MSTORE PUSH1 0x20 PUSH0 KECCAK256 SWAP1 JUMPDEST DUP2 SLOAD DUP2 MSTORE SWAP1 PUSH1 0x1 ADD SWAP1 PUSH1 0x20 ADD DUP1 DUP4 GT PUSH2 0x1432 JUMPI DUP3 SWAP1 SUB PUSH1 0x1F AND DUP3 ADD SWAP2 JUMPDEST POP POP POP POP POP DUP2 JUMP JUMPDEST PUSH1 0xE PUSH0 DUP3 DUP2 MSTORE PUSH1 0x20 ADD SWAP1 DUP2 MSTORE PUSH1 0x20 ADD PUSH0 KECCAK256 SLOAD CALLER PUSH20 0xFFFFFFFFFFFFFFFFFFFFFFFFFFFFFFFFFFFFFFFF AND BALANCE GT PUSH2 0x14C1 JUMPI PUSH1 0x40 MLOAD PUSH32 0x8C379A000000000000000000000000000000000000000000000000000000000 DUP2 MSTORE PUSH1 0x4 ADD PUSH2 0x14B8 SWAP1 PUSH2 0x3AFC JUMP JUMPDEST PUSH1 0x40 MLOAD DUP1 SWAP2 SUB SWAP1 REVERT JUMPDEST PUSH1 0xE PUSH0 DUP3 DUP2 MSTORE PUSH1 0x20 ADD SWAP1 DUP2 MSTORE PUSH1 0x20 ADD PUSH0 KECCAK256 SLOAD CALLVALUE EQ PUSH2 0x1514 JUMPI PUSH1 0x40 MLOAD PUSH32 0x8C379A000000000000000000000000000000000000000000000000000000000 DUP2 MSTORE PUSH1 0x4 ADD PUSH2 0x150B SWAP1 PUSH2 0x3DB4 JUMP JUMPDEST PUSH1 0x40 MLOAD DUP1 SWAP2 SUB SWAP1 REVERT JUMPDEST PUSH0 PUSH2 0x151E DUP3 PUSH2 0xE47 JUMP JUMPDEST SWAP1 POP DUP1 PUSH20 0xFFFFFFFFFFFFFFFFFFFFFFFFFFFFFFFFFFFFFFFF AND PUSH2 0x8FC CALLVALUE SWAP1 DUP2 ISZERO MUL SWAP1 PUSH1 0x40 MLOAD PUSH0 PUSH1 0x40 MLOAD DUP1 DUP4 SUB DUP2 DUP6 DUP9 DUP9 CALL SWAP4 POP POP POP POP ISZERO DUP1 ISZERO PUSH2 0x1563 JUMPI RETURNDATASIZE PUSH0 DUP1 RETURNDATACOPY RETURNDATASIZE PUSH0 REVERT JUMPDEST POP ADDRESS PUSH20 0xFFFFFFFFFFFFFFFFFFFFFFFFFFFFFFFFFFFFFFFF AND PUSH4 0x23B872DD DUP3 CALLER DUP6 PUSH1 0x40 MLOAD DUP5 PUSH4 0xFFFFFFFF AND PUSH1 0xE0 SHL DUP2 MSTORE PUSH1 0x4 ADD PUSH2 0x15A1 SWAP4 SWAP3 SWAP2 SWAP1 PUSH2 0x3DD2 JUMP JUMPDEST PUSH0 PUSH1 0x40 MLOAD DUP1 DUP4 SUB DUP2 PUSH0 DUP8 DUP1 EXTCODESIZE ISZERO DUP1 ISZERO PUSH2 0x15B8 JUMPI PUSH0 DUP1 REVERT JUMPDEST POP GAS CALL ISZERO DUP1 ISZERO PUSH2 0x15CA JUMPI RETURNDATASIZE PUSH0 DUP1 RETURNDATACOPY RETURNDATASIZE PUSH0 REVERT JUMPDEST POP POP POP POP PUSH0 PUSH1 0xD PUSH0 DUP5 DUP2 MSTORE PUSH1 0x20 ADD SWAP1 DUP2 MSTORE PUSH1 0x20 ADD PUSH0 KECCAK256 PUSH0 PUSH2 0x100 EXP DUP2 SLOAD DUP2 PUSH1 0xFF MUL NOT AND SWAP1 DUP4 ISZERO ISZERO MUL OR SWAP1 SSTORE POP PUSH0 PUSH1 0xE PUSH0 DUP5 DUP2 MSTORE PUSH1 0x20 ADD SWAP1 DUP2 MSTORE PUSH1 0x20 ADD PUSH0 KECCAK256 DUP2 SWAP1 SSTORE POP POP POP JUMP JUMPDEST PUSH1 0x14 PUSH0 SWAP1 SLOAD SWAP1 PUSH2 0x100 EXP SWAP1 DIV PUSH20 0xFFFFFFFFFFFFFFFFFFFFFFFFFFFFFFFFFFFFFFFF AND DUP2 JUMP JUMPDEST PUSH1 0x60 PUSH2 0x1640 DUP3 PUSH2 0x1F5C JUMP JUMPDEST POP PUSH0 PUSH1 0x6 PUSH0 DUP5 DUP2 MSTORE PUSH1 0x20 ADD SWAP1 DUP2 MSTORE PUSH1 0x20 ADD PUSH0 KECCAK256 DUP1 SLOAD PUSH2 0x165E SWAP1 PUSH2 0x3BAF JUMP JUMPDEST DUP1 PUSH1 0x1F ADD PUSH1 0x20 DUP1 SWAP2 DIV MUL PUSH1 0x20 ADD PUSH1 0x40 MLOAD SWAP1 DUP2 ADD PUSH1 0x40 MSTORE DUP1 SWAP3 SWAP2 SWAP1 DUP2 DUP2 MSTORE PUSH1 0x20 ADD DUP3 DUP1 SLOAD PUSH2 0x168A SWAP1 PUSH2 0x3BAF JUMP JUMPDEST DUP1 ISZERO PUSH2 0x16D5 JUMPI DUP1 PUSH1 0x1F LT PUSH2 0x16AC JUMPI PUSH2 0x100 DUP1 DUP4 SLOAD DIV MUL DUP4 MSTORE SWAP2 PUSH1 0x20 ADD SWAP2 PUSH2 0x16D5 JUMP JUMPDEST DUP3 ADD SWAP2 SWAP1 PUSH0 MSTORE PUSH1 0x20 PUSH0 KECCAK256 SWAP1 JUMPDEST DUP2 SLOAD DUP2 MSTORE SWAP1 PUSH1 0x1 ADD SWAP1 PUSH1 0x20 ADD DUP1 DUP4 GT PUSH2 0x16B8 JUMPI DUP3 SWAP1 SUB PUSH1 0x1F AND DUP3 ADD SWAP2 JUMPDEST POP POP POP POP POP SWAP1 POP PUSH0 PUSH2 0x16E5 PUSH2 0x280A JUMP JUMPDEST SWAP1 POP PUSH0 DUP2 MLOAD SUB PUSH2 0x16F9 JUMPI DUP2 SWAP3 POP POP POP PUSH2 0x173B JUMP JUMPDEST PUSH0 DUP3 MLOAD GT ISZERO PUSH2 0x172D JUMPI DUP1 DUP3 PUSH1 0x40 MLOAD PUSH1 0x20 ADD PUSH2 0x1715 SWAP3 SWAP2 SWAP1 PUSH2 0x3E41 JUMP JUMPDEST PUSH1 0x40 MLOAD PUSH1 0x20 DUP2 DUP4 SUB SUB DUP2 MSTORE SWAP1 PUSH1 0x40 MSTORE SWAP3 POP POP POP PUSH2 0x173B JUMP JUMPDEST PUSH2 0x1736 DUP5 PUSH2 0x2820 JUMP JUMPDEST SWAP3 POP POP POP JUMPDEST SWAP2 SWAP1 POP JUMP JUMPDEST PUSH1 0x13 SLOAD CALLER PUSH20 0xFFFFFFFFFFFFFFFFFFFFFFFFFFFFFFFFFFFFFFFF AND BALANCE GT PUSH2 0x179B JUMPI PUSH1 0x40 MLOAD PUSH32 0x8C379A000000000000000000000000000000000000000000000000000000000 DUP2 MSTORE PUSH1 0x4 ADD PUSH2 0x1792 SWAP1 PUSH2 0x3AFC JUMP JUMPDEST PUSH1 0x40 MLOAD DUP1 SWAP2 SUB SWAP1 REVERT JUMPDEST PUSH1 0x13 SLOAD CALLVALUE EQ PUSH2 0x17DF JUMPI PUSH1 0x40 MLOAD PUSH32 0x8C379A000000000000000000000000000000000000000000000000000000000 DUP2 MSTORE PUSH1 0x4 ADD PUSH2 0x17D6 SWAP1 PUSH2 0x3EAE JUMP JUMPDEST PUSH1 0x40 MLOAD DUP1 SWAP2 SUB SWAP1 REVERT JUMPDEST CALLER PUSH1 0x15 PUSH0 PUSH2 0x100 EXP DUP2 SLOAD DUP2 PUSH20 0xFFFFFFFFFFFFFFFFFFFFFFFFFFFFFFFFFFFFFFFF MUL NOT AND SWAP1 DUP4 PUSH20 0xFFFFFFFFFFFFFFFFFFFFFFFFFFFFFFFFFFFFFFFF AND MUL OR SWAP1 SSTORE POP ADDRESS PUSH20 0xFFFFFFFFFFFFFFFFFFFFFFFFFFFFFFFFFFFFFFFF AND PUSH2 0x8FC CALLVALUE SWAP1 DUP2 ISZERO MUL SWAP1 PUSH1 0x40 MLOAD PUSH0 PUSH1 0x40 MLOAD DUP1 DUP4 SUB DUP2 DUP6 DUP9 DUP9 CALL SWAP4 POP POP POP POP ISZERO DUP1 ISZERO PUSH2 0x1862 JUMPI RETURNDATASIZE PUSH0 DUP1 RETURNDATACOPY RETURNDATASIZE PUSH0 REVERT JUMPDEST POP PUSH0 JUMPDEST PUSH1 0x11 DUP1 SLOAD SWAP1 POP DUP2 LT ISZERO PUSH2 0x19AE JUMPI PUSH0 PUSH1 0xC PUSH0 DUP2 SLOAD DUP1 SWAP3 SWAP2 SWAP1 PUSH2 0x1885 SWAP1 PUSH2 0x3CFD JUMP JUMPDEST SWAP2 SWAP1 POP SSTORE SWAP1 POP PUSH2 0x18B6 PUSH1 0x15 PUSH0 SWAP1 SLOAD SWAP1 PUSH2 0x100 EXP SWAP1 DIV PUSH20 0xFFFFFFFFFFFFFFFFFFFFFFFFFFFFFFFFFFFFFFFF AND DUP3 PUSH2 0x2886 JUMP JUMPDEST PUSH2 0x1962 DUP2 PUSH1 0x11 DUP5 DUP2 SLOAD DUP2 LT PUSH2 0x18CE JUMPI PUSH2 0x18CD PUSH2 0x3CA3 JUMP JUMPDEST JUMPDEST SWAP1 PUSH0 MSTORE PUSH1 0x20 PUSH0 KECCAK256 ADD DUP1 SLOAD PUSH2 0x18E1 SWAP1 PUSH2 0x3BAF JUMP JUMPDEST DUP1 PUSH1 0x1F ADD PUSH1 0x20 DUP1 SWAP2 DIV MUL PUSH1 0x20 ADD PUSH1 0x40 MLOAD SWAP1 DUP2 ADD PUSH1 0x40 MSTORE DUP1 SWAP3 SWAP2 SWAP1 DUP2 DUP2 MSTORE PUSH1 0x20 ADD DUP3 DUP1 SLOAD PUSH2 0x190D SWAP1 PUSH2 0x3BAF JUMP JUMPDEST DUP1 ISZERO PUSH2 0x1958 JUMPI DUP1 PUSH1 0x1F LT PUSH2 0x192F JUMPI PUSH2 0x100 DUP1 DUP4 SLOAD DIV MUL DUP4 MSTORE SWAP2 PUSH1 0x20 ADD SWAP2 PUSH2 0x1958 JUMP JUMPDEST DUP3 ADD SWAP2 SWAP1 PUSH0 MSTORE PUSH1 0x20 PUSH0 KECCAK256 SWAP1 JUMPDEST DUP2 SLOAD DUP2 MSTORE SWAP1 PUSH1 0x1 ADD SWAP1 PUSH1 0x20 ADD DUP1 DUP4 GT PUSH2 0x193B JUMPI DUP3 SWAP1 SUB PUSH1 0x1F AND DUP3 ADD SWAP2 JUMPDEST POP POP POP POP POP PUSH2 0x2979 JUMP JUMPDEST PUSH0 PUSH1 0xD PUSH0 DUP4 DUP2 MSTORE PUSH1 0x20 ADD SWAP1 DUP2 MSTORE PUSH1 0x20 ADD PUSH0 KECCAK256 PUSH0 PUSH2 0x100 EXP DUP2 SLOAD DUP2 PUSH1 0xFF MUL NOT AND SWAP1 DUP4 ISZERO ISZERO MUL OR SWAP1 SSTORE POP PUSH0 PUSH1 0xE PUSH0 DUP4 DUP2 MSTORE PUSH1 0x20 ADD SWAP1 DUP2 MSTORE PUSH1 0x20 ADD PUSH0 KECCAK256 DUP2 SWAP1 SSTORE POP POP DUP1 DUP1 PUSH1 0x1 ADD SWAP2 POP POP PUSH2 0x1865 JUMP JUMPDEST POP JUMP JUMPDEST PUSH1 0xE PUSH1 0x20 MSTORE DUP1 PUSH0 MSTORE PUSH1 0x40 PUSH0 KECCAK256 PUSH0 SWAP2 POP SWAP1 POP SLOAD DUP2 JUMP JUMPDEST PUSH2 0x19CE PUSH2 0x2FF9 JUMP JUMPDEST PUSH1 0x40 MLOAD DUP1 PUSH1 0xC0 ADD PUSH1 0x40 MSTORE DUP1 ADDRESS PUSH20 0xFFFFFFFFFFFFFFFFFFFFFFFFFFFFFFFFFFFFFFFF AND DUP2 MSTORE PUSH1 0x20 ADD PUSH1 0xF DUP1 SLOAD PUSH2 0x1A02 SWAP1 PUSH2 0x3BAF JUMP JUMPDEST DUP1 PUSH1 0x1F ADD PUSH1 0x20 DUP1 SWAP2 DIV MUL PUSH1 0x20 ADD PUSH1 0x40 MLOAD SWAP1 DUP2 ADD PUSH1 0x40 MSTORE DUP1 SWAP3 SWAP2 SWAP1 DUP2 DUP2 MSTORE PUSH1 0x20 ADD DUP3 DUP1 SLOAD PUSH2 0x1A2E SWAP1 PUSH2 0x3BAF JUMP JUMPDEST DUP1 ISZERO PUSH2 0x1A79 JUMPI DUP1 PUSH1 0x1F LT PUSH2 0x1A50 JUMPI PUSH2 0x100 DUP1 DUP4 SLOAD DIV MUL DUP4 MSTORE SWAP2 PUSH1 0x20 ADD SWAP2 PUSH2 0x1A79 JUMP JUMPDEST DUP3 ADD SWAP2 SWAP1 PUSH0 MSTORE PUSH1 0x20 PUSH0 KECCAK256 SWAP1 JUMPDEST DUP2 SLOAD DUP2 MSTORE SWAP1 PUSH1 0x1 ADD SWAP1 PUSH1 0x20 ADD DUP1 DUP4 GT PUSH2 0x1A5C JUMPI DUP3 SWAP1 SUB PUSH1 0x1F AND DUP3 ADD SWAP2 JUMPDEST POP POP POP POP POP DUP2 MSTORE PUSH1 0x20 ADD PUSH1 0x10 DUP1 SLOAD PUSH2 0x1A90 SWAP1 PUSH2 0x3BAF JUMP JUMPDEST DUP1 PUSH1 0x1F ADD PUSH1 0x20 DUP1 SWAP2 DIV MUL PUSH1 0x20 ADD PUSH1 0x40 MLOAD SWAP1 DUP2 ADD PUSH1 0x40 MSTORE DUP1 SWAP3 SWAP2 SWAP1 DUP2 DUP2 MSTORE PUSH1 0x20 ADD DUP3 DUP1 SLOAD PUSH2 0x1ABC SWAP1 PUSH2 0x3BAF JUMP JUMPDEST DUP1 ISZERO PUSH2 0x1B07 JUMPI DUP1 PUSH1 0x1F LT PUSH2 0x1ADE JUMPI PUSH2 0x100 DUP1 DUP4 SLOAD DIV MUL DUP4 MSTORE SWAP2 PUSH1 0x20 ADD SWAP2 PUSH2 0x1B07 JUMP JUMPDEST DUP3 ADD SWAP2 SWAP1 PUSH0 MSTORE PUSH1 0x20 PUSH0 KECCAK256 SWAP1 JUMPDEST DUP2 SLOAD DUP2 MSTORE SWAP1 PUSH1 0x1 ADD SWAP1 PUSH1 0x20 ADD DUP1 DUP4 GT PUSH2 0x1AEA JUMPI DUP3 SWAP1 SUB PUSH1 0x1F AND DUP3 ADD SWAP2 JUMPDEST POP POP POP POP POP DUP2 MSTORE PUSH1 0x20 ADD PUSH1 0x11 DUP1 SLOAD DUP1 PUSH1 0x20 MUL PUSH1 0x20 ADD PUSH1 0x40 MLOAD SWAP1 DUP2 ADD PUSH1 0x40 MSTORE DUP1 SWAP3 SWAP2 SWAP1 DUP2 DUP2 MSTORE PUSH1 0x20 ADD PUSH0 SWAP1 JUMPDEST DUP3 DUP3 LT ISZERO PUSH2 0x1BDA JUMPI DUP4 DUP3 SWAP1 PUSH0 MSTORE PUSH1 0x20 PUSH0 KECCAK256 ADD DUP1 SLOAD PUSH2 0x1B4F SWAP1 PUSH2 0x3BAF JUMP JUMPDEST DUP1 PUSH1 0x1F ADD PUSH1 0x20 DUP1 SWAP2 DIV MUL PUSH1 0x20 ADD PUSH1 0x40 MLOAD SWAP1 DUP2 ADD PUSH1 0x40 MSTORE DUP1 SWAP3 SWAP2 SWAP1 DUP2 DUP2 MSTORE PUSH1 0x20 ADD DUP3 DUP1 SLOAD PUSH2 0x1B7B SWAP1 PUSH2 0x3BAF JUMP JUMPDEST DUP1 ISZERO PUSH2 0x1BC6 JUMPI DUP1 PUSH1 0x1F LT PUSH2 0x1B9D JUMPI PUSH2 0x100 DUP1 DUP4 SLOAD DIV MUL DUP4 MSTORE SWAP2 PUSH1 0x20 ADD SWAP2 PUSH2 0x1BC6 JUMP JUMPDEST DUP3 ADD SWAP2 SWAP1 PUSH0 MSTORE PUSH1 0x20 PUSH0 KECCAK256 SWAP1 JUMPDEST DUP2 SLOAD DUP2 MSTORE SWAP1 PUSH1 0x1 ADD SWAP1 PUSH1 0x20 ADD DUP1 DUP4 GT PUSH2 0x1BA9 JUMPI DUP3 SWAP1 SUB PUSH1 0x1F AND DUP3 ADD SWAP2 JUMPDEST POP POP POP POP POP DUP2 MSTORE PUSH1 0x20 ADD SWAP1 PUSH1 0x1 ADD SWAP1 PUSH2 0x1B32 JUMP JUMPDEST POP POP POP POP DUP2 MSTORE PUSH1 0x20 ADD PUSH1 0x12 SLOAD DUP2 MSTORE PUSH1 0x20 ADD PUSH1 0x13 SLOAD DUP2 MSTORE POP SWAP1 POP SWAP1 JUMP JUMPDEST PUSH1 0xB SLOAD DUP2 JUMP JUMPDEST PUSH0 PUSH1 0x8 PUSH0 SWAP1 SLOAD SWAP1 PUSH2 0x100 EXP SWAP1 DIV PUSH20 0xFFFFFFFFFFFFFFFFFFFFFFFFFFFFFFFFFFFFFFFF AND PUSH20 0xFFFFFFFFFFFFFFFFFFFFFFFFFFFFFFFFFFFFFFFF AND PUSH4 0x2F34077B PUSH1 0x9 SLOAD PUSH1 0x8 PUSH1 0x14 SWAP1 SLOAD SWAP1 PUSH2 0x100 EXP SWAP1 DIV PUSH8 0xFFFFFFFFFFFFFFFF AND PUSH1 0xA PUSH0 SWAP1 SLOAD SWAP1 PUSH2 0x100 EXP SWAP1 DIV PUSH4 0xFFFFFFFF AND PUSH1 0xA PUSH1 0x4 SWAP1 SLOAD SWAP1 PUSH2 0x100 EXP SWAP1 DIV PUSH4 0xFFFFFFFF AND PUSH1 0x40 MLOAD DUP6 PUSH4 0xFFFFFFFF AND PUSH1 0xE0 SHL DUP2 MSTORE PUSH1 0x4 ADD PUSH2 0x1C98 SWAP5 SWAP4 SWAP3 SWAP2 SWAP1 PUSH2 0x3F24 JUMP JUMPDEST PUSH1 0x20 PUSH1 0x40 MLOAD DUP1 DUP4 SUB DUP2 PUSH0 DUP8 GAS CALL ISZERO DUP1 ISZERO PUSH2 0x1CB4 JUMPI RETURNDATASIZE PUSH0 DUP1 RETURNDATACOPY RETURNDATASIZE PUSH0 REVERT JUMPDEST POP POP POP POP PUSH1 0x40 MLOAD RETURNDATASIZE PUSH1 0x1F NOT PUSH1 0x1F DUP3 ADD AND DUP3 ADD DUP1 PUSH1 0x40 MSTORE POP DUP2 ADD SWAP1 PUSH2 0x1CD8 SWAP2 SWAP1 PUSH2 0x3F7B JUMP JUMPDEST SWAP1 POP SWAP1 JUMP JUMPDEST PUSH0 PUSH1 0x5 PUSH0 DUP5 PUSH20 0xFFFFFFFFFFFFFFFFFFFFFFFFFFFFFFFFFFFFFFFF AND PUSH20 0xFFFFFFFFFFFFFFFFFFFFFFFFFFFFFFFFFFFFFFFF AND DUP2 MSTORE PUSH1 0x20 ADD SWAP1 DUP2 MSTORE PUSH1 0x20 ADD PUSH0 KECCAK256 PUSH0 DUP4 PUSH20 0xFFFFFFFFFFFFFFFFFFFFFFFFFFFFFFFFFFFFFFFF AND PUSH20 0xFFFFFFFFFFFFFFFFFFFFFFFFFFFFFFFFFFFFFFFF AND DUP2 MSTORE PUSH1 0x20 ADD SWAP1 DUP2 MSTORE PUSH1 0x20 ADD PUSH0 KECCAK256 PUSH0 SWAP1 SLOAD SWAP1 PUSH2 0x100 EXP SWAP1 DIV PUSH1 0xFF AND SWAP1 POP SWAP3 SWAP2 POP POP JUMP JUMPDEST PUSH2 0x1D73 PUSH2 0x23A5 JUMP JUMPDEST PUSH0 PUSH20 0xFFFFFFFFFFFFFFFFFFFFFFFFFFFFFFFFFFFFFFFF AND DUP2 PUSH20 0xFFFFFFFFFFFFFFFFFFFFFFFFFFFFFFFFFFFFFFFF AND SUB PUSH2 0x1DE3 JUMPI PUSH0 PUSH1 0x40 MLOAD PUSH32 0x1E4FBDF700000000000000000000000000000000000000000000000000000000 DUP2 MSTORE PUSH1 0x4 ADD PUSH2 0x1DDA SWAP2 SWAP1 PUSH2 0x324D JUMP JUMPDEST PUSH1 0x40 MLOAD DUP1 SWAP2 SUB SWAP1 REVERT JUMPDEST PUSH2 0x1DEC DUP2 PUSH2 0x242C JUMP JUMPDEST POP JUMP JUMPDEST PUSH1 0x10 DUP1 SLOAD PUSH2 0x1DFC SWAP1 PUSH2 0x3BAF JUMP JUMPDEST DUP1 PUSH1 0x1F ADD PUSH1 0x20 DUP1 SWAP2 DIV MUL PUSH1 0x20 ADD PUSH1 0x40 MLOAD SWAP1 DUP2 ADD PUSH1 0x40 MSTORE DUP1 SWAP3 SWAP2 SWAP1 DUP2 DUP2 MSTORE PUSH1 0x20 ADD DUP3 DUP1 SLOAD PUSH2 0x1E28 SWAP1 PUSH2 0x3BAF JUMP JUMPDEST DUP1 ISZERO PUSH2 0x1E73 JUMPI DUP1 PUSH1 0x1F LT PUSH2 0x1E4A JUMPI PUSH2 0x100 DUP1 DUP4 SLOAD DIV MUL DUP4 MSTORE SWAP2 PUSH1 0x20 ADD SWAP2 PUSH2 0x1E73 JUMP JUMPDEST DUP3 ADD SWAP2 SWAP1 PUSH0 MSTORE PUSH1 0x20 PUSH0 KECCAK256 SWAP1 JUMPDEST DUP2 SLOAD DUP2 MSTORE SWAP1 PUSH1 0x1 ADD SWAP1 PUSH1 0x20 ADD DUP1 DUP4 GT PUSH2 0x1E56 JUMPI DUP3 SWAP1 SUB PUSH1 0x1F AND DUP3 ADD SWAP2 JUMPDEST POP POP POP POP POP DUP2 JUMP JUMPDEST PUSH0 PUSH32 0x80AC58CD00000000000000000000000000000000000000000000000000000000 PUSH28 0xFFFFFFFFFFFFFFFFFFFFFFFFFFFFFFFFFFFFFFFFFFFFFFFFFFFFFFFF NOT AND DUP3 PUSH28 0xFFFFFFFFFFFFFFFFFFFFFFFFFFFFFFFFFFFFFFFFFFFFFFFFFFFFFFFF NOT AND EQ DUP1 PUSH2 0x1F45 JUMPI POP PUSH32 0x5B5E139F00000000000000000000000000000000000000000000000000000000 PUSH28 0xFFFFFFFFFFFFFFFFFFFFFFFFFFFFFFFFFFFFFFFFFFFFFFFFFFFFFFFF NOT AND DUP3 PUSH28 0xFFFFFFFFFFFFFFFFFFFFFFFFFFFFFFFFFFFFFFFFFFFFFFFFFFFFFFFF NOT AND EQ JUMPDEST DUP1 PUSH2 0x1F55 JUMPI POP PUSH2 0x1F54 DUP3 PUSH2 0x29D3 JUMP JUMPDEST JUMPDEST SWAP1 POP SWAP2 SWAP1 POP JUMP JUMPDEST PUSH0 DUP1 PUSH2 0x1F67 DUP4 PUSH2 0x2A3C JUMP JUMPDEST SWAP1 POP PUSH0 PUSH20 0xFFFFFFFFFFFFFFFFFFFFFFFFFFFFFFFFFFFFFFFF AND DUP2 PUSH20 0xFFFFFFFFFFFFFFFFFFFFFFFFFFFFFFFFFFFFFFFF AND SUB PUSH2 0x1FD9 JUMPI DUP3 PUSH1 0x40 MLOAD PUSH32 0x7E27328900000000000000000000000000000000000000000000000000000000 DUP2 MSTORE PUSH1 0x4 ADD PUSH2 0x1FD0 SWAP2 SWAP1 PUSH2 0x34C7 JUMP JUMPDEST PUSH1 0x40 MLOAD DUP1 SWAP2 SUB SWAP1 REVERT JUMPDEST DUP1 SWAP2 POP POP SWAP2 SWAP1 POP JUMP JUMPDEST PUSH0 PUSH1 0x4 PUSH0 DUP4 DUP2 MSTORE PUSH1 0x20 ADD SWAP1 DUP2 MSTORE PUSH1 0x20 ADD PUSH0 KECCAK256 PUSH0 SWAP1 SLOAD SWAP1 PUSH2 0x100 EXP SWAP1 DIV PUSH20 0xFFFFFFFFFFFFFFFFFFFFFFFFFFFFFFFFFFFFFFFF AND SWAP1 POP SWAP2 SWAP1 POP JUMP JUMPDEST PUSH0 CALLER SWAP1 POP SWAP1 JUMP JUMPDEST PUSH2 0x202F DUP4 DUP4 DUP4 PUSH1 0x1 PUSH2 0x2A75 JUMP JUMPDEST POP POP POP JUMP JUMPDEST PUSH1 0x11 DUP1 SLOAD SWAP1 POP DUP2 PUSH0 DUP2 MLOAD DUP2 LT PUSH2 0x204D JUMPI PUSH2 0x204C PUSH2 0x3CA3 JUMP JUMPDEST JUMPDEST PUSH1 0x20 MUL PUSH1 0x20 ADD ADD MLOAD PUSH2 0x205F SWAP2 SWAP1 PUSH2 0x3FD3 JUMP JUMPDEST PUSH1 0xB DUP2 SWAP1 SSTORE POP PUSH0 PUSH1 0xC PUSH0 DUP2 SLOAD DUP1 SWAP3 SWAP2 SWAP1 PUSH2 0x2078 SWAP1 PUSH2 0x3CFD JUMP JUMPDEST SWAP2 SWAP1 POP SSTORE SWAP1 POP PUSH2 0x20A9 PUSH1 0x15 PUSH0 SWAP1 SLOAD SWAP1 PUSH2 0x100 EXP SWAP1 DIV PUSH20 0xFFFFFFFFFFFFFFFFFFFFFFFFFFFFFFFFFFFFFFFF AND DUP3 PUSH2 0x2886 JUMP JUMPDEST PUSH2 0x2157 DUP2 PUSH1 0x11 PUSH1 0xB SLOAD DUP2 SLOAD DUP2 LT PUSH2 0x20C3 JUMPI PUSH2 0x20C2 PUSH2 0x3CA3 JUMP JUMPDEST JUMPDEST SWAP1 PUSH0 MSTORE PUSH1 0x20 PUSH0 KECCAK256 ADD DUP1 SLOAD PUSH2 0x20D6 SWAP1 PUSH2 0x3BAF JUMP JUMPDEST DUP1 PUSH1 0x1F ADD PUSH1 0x20 DUP1 SWAP2 DIV MUL PUSH1 0x20 ADD PUSH1 0x40 MLOAD SWAP1 DUP2 ADD PUSH1 0x40 MSTORE DUP1 SWAP3 SWAP2 SWAP1 DUP2 DUP2 MSTORE PUSH1 0x20 ADD DUP3 DUP1 SLOAD PUSH2 0x2102 SWAP1 PUSH2 0x3BAF JUMP JUMPDEST DUP1 ISZERO PUSH2 0x214D JUMPI DUP1 PUSH1 0x1F LT PUSH2 0x2124 JUMPI PUSH2 0x100 DUP1 DUP4 SLOAD DIV MUL DUP4 MSTORE SWAP2 PUSH1 0x20 ADD SWAP2 PUSH2 0x214D JUMP JUMPDEST DUP3 ADD SWAP2 SWAP1 PUSH0 MSTORE PUSH1 0x20 PUSH0 KECCAK256 SWAP1 JUMPDEST DUP2 SLOAD DUP2 MSTORE SWAP1 PUSH1 0x1 ADD SWAP1 PUSH1 0x20 ADD DUP1 DUP4 GT PUSH2 0x2130 JUMPI DUP3 SWAP1 SUB PUSH1 0x1F AND DUP3 ADD SWAP2 JUMPDEST POP POP POP POP POP PUSH2 0x2979 JUMP JUMPDEST PUSH0 PUSH1 0xD PUSH0 DUP4 DUP2 MSTORE PUSH1 0x20 ADD SWAP1 DUP2 MSTORE PUSH1 0x20 ADD PUSH0 KECCAK256 PUSH0 PUSH2 0x100 EXP DUP2 SLOAD DUP2 PUSH1 0xFF MUL NOT AND SWAP1 DUP4 ISZERO ISZERO MUL OR SWAP1 SSTORE POP PUSH0 PUSH1 0xE PUSH0 DUP4 DUP2 MSTORE PUSH1 0x20 ADD SWAP1 DUP2 MSTORE PUSH1 0x20 ADD PUSH0 KECCAK256 DUP2 SWAP1 SSTORE POP POP POP POP JUMP JUMPDEST PUSH0 DUP1 PUSH2 0x21A5 DUP5 PUSH2 0x2A3C JUMP JUMPDEST SWAP1 POP PUSH0 PUSH20 0xFFFFFFFFFFFFFFFFFFFFFFFFFFFFFFFFFFFFFFFF AND DUP4 PUSH20 0xFFFFFFFFFFFFFFFFFFFFFFFFFFFFFFFFFFFFFFFF AND EQ PUSH2 0x21E6 JUMPI PUSH2 0x21E5 DUP2 DUP5 DUP7 PUSH2 0x2C34 JUMP JUMPDEST JUMPDEST PUSH0 PUSH20 0xFFFFFFFFFFFFFFFFFFFFFFFFFFFFFFFFFFFFFFFF AND DUP2 PUSH20 0xFFFFFFFFFFFFFFFFFFFFFFFFFFFFFFFFFFFFFFFF AND EQ PUSH2 0x2271 JUMPI PUSH2 0x2225 PUSH0 DUP6 PUSH0 DUP1 PUSH2 0x2A75 JUMP JUMPDEST PUSH1 0x1 PUSH1 0x3 PUSH0 DUP4 PUSH20 0xFFFFFFFFFFFFFFFFFFFFFFFFFFFFFFFFFFFFFFFF AND PUSH20 0xFFFFFFFFFFFFFFFFFFFFFFFFFFFFFFFFFFFFFFFF AND DUP2 MSTORE PUSH1 0x20 ADD SWAP1 DUP2 MSTORE PUSH1 0x20 ADD PUSH0 KECCAK256 PUSH0 DUP3 DUP3 SLOAD SUB SWAP3 POP POP DUP2 SWAP1 SSTORE POP JUMPDEST PUSH0 PUSH20 0xFFFFFFFFFFFFFFFFFFFFFFFFFFFFFFFFFFFFFFFF AND DUP6 PUSH20 0xFFFFFFFFFFFFFFFFFFFFFFFFFFFFFFFFFFFFFFFF AND EQ PUSH2 0x22F0 JUMPI PUSH1 0x1 PUSH1 0x3 PUSH0 DUP8 PUSH20 0xFFFFFFFFFFFFFFFFFFFFFFFFFFFFFFFFFFFFFFFF AND PUSH20 0xFFFFFFFFFFFFFFFFFFFFFFFFFFFFFFFFFFFFFFFF AND DUP2 MSTORE PUSH1 0x20 ADD SWAP1 DUP2 MSTORE PUSH1 0x20 ADD PUSH0 KECCAK256 PUSH0 DUP3 DUP3 SLOAD ADD SWAP3 POP POP DUP2 SWAP1 SSTORE POP JUMPDEST DUP5 PUSH1 0x2 PUSH0 DUP7 DUP2 MSTORE PUSH1 0x20 ADD SWAP1 DUP2 MSTORE PUSH1 0x20 ADD PUSH0 KECCAK256 PUSH0 PUSH2 0x100 EXP DUP2 SLOAD DUP2 PUSH20 0xFFFFFFFFFFFFFFFFFFFFFFFFFFFFFFFFFFFFFFFF MUL NOT AND SWAP1 DUP4 PUSH20 0xFFFFFFFFFFFFFFFFFFFFFFFFFFFFFFFFFFFFFFFF AND MUL OR SWAP1 SSTORE POP DUP4 DUP6 PUSH20 0xFFFFFFFFFFFFFFFFFFFFFFFFFFFFFFFFFFFFFFFF AND DUP3 PUSH20 0xFFFFFFFFFFFFFFFFFFFFFFFFFFFFFFFFFFFFFFFF AND PUSH32 0xDDF252AD1BE2C89B69C2B068FC378DAA952BA7F163C4A11628F55A4DF523B3EF PUSH1 0x40 MLOAD PUSH1 0x40 MLOAD DUP1 SWAP2 SUB SWAP1 LOG4 DUP1 SWAP2 POP POP SWAP4 SWAP3 POP POP POP JUMP JUMPDEST PUSH2 0x23AD PUSH2 0x201B JUMP JUMPDEST PUSH20 0xFFFFFFFFFFFFFFFFFFFFFFFFFFFFFFFFFFFFFFFF AND PUSH2 0x23CB PUSH2 0xFF0 JUMP JUMPDEST PUSH20 0xFFFFFFFFFFFFFFFFFFFFFFFFFFFFFFFFFFFFFFFF AND EQ PUSH2 0x242A JUMPI PUSH2 0x23EE PUSH2 0x201B JUMP JUMPDEST PUSH1 0x40 MLOAD PUSH32 0x118CDAA700000000000000000000000000000000000000000000000000000000 DUP2 MSTORE PUSH1 0x4 ADD PUSH2 0x2421 SWAP2 SWAP1 PUSH2 0x324D JUMP JUMPDEST PUSH1 0x40 MLOAD DUP1 SWAP2 SUB SWAP1 REVERT JUMPDEST JUMP JUMPDEST PUSH0 PUSH1 0x7 PUSH0 SWAP1 SLOAD SWAP1 PUSH2 0x100 EXP SWAP1 DIV PUSH20 0xFFFFFFFFFFFFFFFFFFFFFFFFFFFFFFFFFFFFFFFF AND SWAP1 POP DUP2 PUSH1 0x7 PUSH0 PUSH2 0x100 EXP DUP2 SLOAD DUP2 PUSH20 0xFFFFFFFFFFFFFFFFFFFFFFFFFFFFFFFFFFFFFFFF MUL NOT AND SWAP1 DUP4 PUSH20 0xFFFFFFFFFFFFFFFFFFFFFFFFFFFFFFFFFFFFFFFF AND MUL OR SWAP1 SSTORE POP DUP2 PUSH20 0xFFFFFFFFFFFFFFFFFFFFFFFFFFFFFFFFFFFFFFFF AND DUP2 PUSH20 0xFFFFFFFFFFFFFFFFFFFFFFFFFFFFFFFFFFFFFFFF AND PUSH32 0x8BE0079C531659141344CD1FD0A4F28419497F9722A3DAAFE3B4186F6B6457E0 PUSH1 0x40 MLOAD PUSH1 0x40 MLOAD DUP1 SWAP2 SUB SWAP1 LOG3 POP POP JUMP JUMPDEST PUSH0 PUSH20 0xFFFFFFFFFFFFFFFFFFFFFFFFFFFFFFFFFFFFFFFF AND DUP3 PUSH20 0xFFFFFFFFFFFFFFFFFFFFFFFFFFFFFFFFFFFFFFFF AND SUB PUSH2 0x255F JUMPI DUP2 PUSH1 0x40 MLOAD PUSH32 0x5B08BA1800000000000000000000000000000000000000000000000000000000 DUP2 MSTORE PUSH1 0x4 ADD PUSH2 0x2556 SWAP2 SWAP1 PUSH2 0x324D JUMP JUMPDEST PUSH1 0x40 MLOAD DUP1 SWAP2 SUB SWAP1 REVERT JUMPDEST DUP1 PUSH1 0x5 PUSH0 DUP6 PUSH20 0xFFFFFFFFFFFFFFFFFFFFFFFFFFFFFFFFFFFFFFFF AND PUSH20 0xFFFFFFFFFFFFFFFFFFFFFFFFFFFFFFFFFFFFFFFF AND DUP2 MSTORE PUSH1 0x20 ADD SWAP1 DUP2 MSTORE PUSH1 0x20 ADD PUSH0 KECCAK256 PUSH0 DUP5 PUSH20 0xFFFFFFFFFFFFFFFFFFFFFFFFFFFFFFFFFFFFFFFF AND PUSH20 0xFFFFFFFFFFFFFFFFFFFFFFFFFFFFFFFFFFFFFFFF AND DUP2 MSTORE PUSH1 0x20 ADD SWAP1 DUP2 MSTORE PUSH1 0x20 ADD PUSH0 KECCAK256 PUSH0 PUSH2 0x100 EXP DUP2 SLOAD DUP2 PUSH1 0xFF MUL NOT AND SWAP1 DUP4 ISZERO ISZERO MUL OR SWAP1 SSTORE POP DUP2 PUSH20 0xFFFFFFFFFFFFFFFFFFFFFFFFFFFFFFFFFFFFFFFF AND DUP4 PUSH20 0xFFFFFFFFFFFFFFFFFFFFFFFFFFFFFFFFFFFFFFFF AND PUSH32 0x17307EAB39AB6107E8899845AD3D59BD9653F200F220920489CA2B5937696C31 DUP4 PUSH1 0x40 MLOAD PUSH2 0x264B SWAP2 SWAP1 PUSH2 0x30ED JUMP JUMPDEST PUSH1 0x40 MLOAD DUP1 SWAP2 SUB SWAP1 LOG3 POP POP POP JUMP JUMPDEST PUSH0 DUP4 PUSH20 0xFFFFFFFFFFFFFFFFFFFFFFFFFFFFFFFFFFFFFFFF AND EXTCODESIZE GT ISZERO PUSH2 0x2804 JUMPI DUP3 PUSH20 0xFFFFFFFFFFFFFFFFFFFFFFFFFFFFFFFFFFFFFFFF AND PUSH4 0x150B7A02 PUSH2 0x269B PUSH2 0x201B JUMP JUMPDEST DUP7 DUP6 DUP6 PUSH1 0x40 MLOAD DUP6 PUSH4 0xFFFFFFFF AND PUSH1 0xE0 SHL DUP2 MSTORE PUSH1 0x4 ADD PUSH2 0x26BD SWAP5 SWAP4 SWAP3 SWAP2 SWAP1 PUSH2 0x4055 JUMP JUMPDEST PUSH1 0x20 PUSH1 0x40 MLOAD DUP1 DUP4 SUB DUP2 PUSH0 DUP8 GAS CALL SWAP3 POP POP POP DUP1 ISZERO PUSH2 0x26F8 JUMPI POP PUSH1 0x40 MLOAD RETURNDATASIZE PUSH1 0x1F NOT PUSH1 0x1F DUP3 ADD AND DUP3 ADD DUP1 PUSH1 0x40 MSTORE POP DUP2 ADD SWAP1 PUSH2 0x26F5 SWAP2 SWAP1 PUSH2 0x40B3 JUMP JUMPDEST PUSH1 0x1 JUMPDEST PUSH2 0x2779 JUMPI RETURNDATASIZE DUP1 PUSH0 DUP2 EQ PUSH2 0x2726 JUMPI PUSH1 0x40 MLOAD SWAP2 POP PUSH1 0x1F NOT PUSH1 0x3F RETURNDATASIZE ADD AND DUP3 ADD PUSH1 0x40 MSTORE RETURNDATASIZE DUP3 MSTORE RETURNDATASIZE PUSH0 PUSH1 0x20 DUP5 ADD RETURNDATACOPY PUSH2 0x272B JUMP JUMPDEST PUSH1 0x60 SWAP2 POP JUMPDEST POP PUSH0 DUP2 MLOAD SUB PUSH2 0x2771 JUMPI DUP4 PUSH1 0x40 MLOAD PUSH32 0x64A0AE9200000000000000000000000000000000000000000000000000000000 DUP2 MSTORE PUSH1 0x4 ADD PUSH2 0x2768 SWAP2 SWAP1 PUSH2 0x324D JUMP JUMPDEST PUSH1 0x40 MLOAD DUP1 SWAP2 SUB SWAP1 REVERT JUMPDEST DUP1 MLOAD DUP2 PUSH1 0x20 ADD REVERT JUMPDEST PUSH4 0x150B7A02 PUSH1 0xE0 SHL PUSH28 0xFFFFFFFFFFFFFFFFFFFFFFFFFFFFFFFFFFFFFFFFFFFFFFFFFFFFFFFF NOT AND DUP2 PUSH28 0xFFFFFFFFFFFFFFFFFFFFFFFFFFFFFFFFFFFFFFFFFFFFFFFFFFFFFFFF NOT AND EQ PUSH2 0x2802 JUMPI DUP4 PUSH1 0x40 MLOAD PUSH32 0x64A0AE9200000000000000000000000000000000000000000000000000000000 DUP2 MSTORE PUSH1 0x4 ADD PUSH2 0x27F9 SWAP2 SWAP1 PUSH2 0x324D JUMP JUMPDEST PUSH1 0x40 MLOAD DUP1 SWAP2 SUB SWAP1 REVERT JUMPDEST POP JUMPDEST POP POP POP POP JUMP JUMPDEST PUSH1 0x60 PUSH1 0x40 MLOAD DUP1 PUSH1 0x20 ADD PUSH1 0x40 MSTORE DUP1 PUSH0 DUP2 MSTORE POP SWAP1 POP SWAP1 JUMP JUMPDEST PUSH1 0x60 PUSH2 0x282B DUP3 PUSH2 0x1F5C JUMP JUMPDEST POP PUSH0 PUSH2 0x2835 PUSH2 0x280A JUMP JUMPDEST SWAP1 POP PUSH0 DUP2 MLOAD GT PUSH2 0x2853 JUMPI PUSH1 0x40 MLOAD DUP1 PUSH1 0x20 ADD PUSH1 0x40 MSTORE DUP1 PUSH0 DUP2 MSTORE POP PUSH2 0x287E JUMP JUMPDEST DUP1 PUSH2 0x285D DUP5 PUSH2 0x2CF7 JUMP JUMPDEST PUSH1 0x40 MLOAD PUSH1 0x20 ADD PUSH2 0x286E SWAP3 SWAP2 SWAP1 PUSH2 0x3E41 JUMP JUMPDEST PUSH1 0x40 MLOAD PUSH1 0x20 DUP2 DUP4 SUB SUB DUP2 MSTORE SWAP1 PUSH1 0x40 MSTORE JUMPDEST SWAP2 POP POP SWAP2 SWAP1 POP JUMP JUMPDEST PUSH0 PUSH20 0xFFFFFFFFFFFFFFFFFFFFFFFFFFFFFFFFFFFFFFFF AND DUP3 PUSH20 0xFFFFFFFFFFFFFFFFFFFFFFFFFFFFFFFFFFFFFFFF AND SUB PUSH2 0x28F6 JUMPI PUSH0 PUSH1 0x40 MLOAD PUSH32 0x64A0AE9200000000000000000000000000000000000000000000000000000000 DUP2 MSTORE PUSH1 0x4 ADD PUSH2 0x28ED SWAP2 SWAP1 PUSH2 0x324D JUMP JUMPDEST PUSH1 0x40 MLOAD DUP1 SWAP2 SUB SWAP1 REVERT JUMPDEST PUSH0 PUSH2 0x2902 DUP4 DUP4 PUSH0 PUSH2 0x219A JUMP JUMPDEST SWAP1 POP PUSH0 PUSH20 0xFFFFFFFFFFFFFFFFFFFFFFFFFFFFFFFFFFFFFFFF AND DUP2 PUSH20 0xFFFFFFFFFFFFFFFFFFFFFFFFFFFFFFFFFFFFFFFF AND EQ PUSH2 0x2974 JUMPI PUSH0 PUSH1 0x40 MLOAD PUSH32 0x73C6AC6E00000000000000000000000000000000000000000000000000000000 DUP2 MSTORE PUSH1 0x4 ADD PUSH2 0x296B SWAP2 SWAP1 PUSH2 0x324D JUMP JUMPDEST PUSH1 0x40 MLOAD DUP1 SWAP2 SUB SWAP1 REVERT JUMPDEST POP POP POP JUMP JUMPDEST DUP1 PUSH1 0x6 PUSH0 DUP5 DUP2 MSTORE PUSH1 0x20 ADD SWAP1 DUP2 MSTORE PUSH1 0x20 ADD PUSH0 KECCAK256 SWAP1 DUP2 PUSH2 0x2997 SWAP2 SWAP1 PUSH2 0x4272 JUMP JUMPDEST POP PUSH32 0xF8E1A15ABA9398E019F0B49DF1A4FDE98EE17AE345CB5F6B5E2C27F5033E8CE7 DUP3 PUSH1 0x40 MLOAD PUSH2 0x29C7 SWAP2 SWAP1 PUSH2 0x34C7 JUMP JUMPDEST PUSH1 0x40 MLOAD DUP1 SWAP2 SUB SWAP1 LOG1 POP POP JUMP JUMPDEST PUSH0 PUSH32 0x1FFC9A700000000000000000000000000000000000000000000000000000000 PUSH28 0xFFFFFFFFFFFFFFFFFFFFFFFFFFFFFFFFFFFFFFFFFFFFFFFFFFFFFFFF NOT AND DUP3 PUSH28 0xFFFFFFFFFFFFFFFFFFFFFFFFFFFFFFFFFFFFFFFFFFFFFFFFFFFFFFFF NOT AND EQ SWAP1 POP SWAP2 SWAP1 POP JUMP JUMPDEST PUSH0 PUSH1 0x2 PUSH0 DUP4 DUP2 MSTORE PUSH1 0x20 ADD SWAP1 DUP2 MSTORE PUSH1 0x20 ADD PUSH0 KECCAK256 PUSH0 SWAP1 SLOAD SWAP1 PUSH2 0x100 EXP SWAP1 DIV PUSH20 0xFFFFFFFFFFFFFFFFFFFFFFFFFFFFFFFFFFFFFFFF AND SWAP1 POP SWAP2 SWAP1 POP JUMP JUMPDEST DUP1 DUP1 PUSH2 0x2AAD JUMPI POP PUSH0 PUSH20 0xFFFFFFFFFFFFFFFFFFFFFFFFFFFFFFFFFFFFFFFF AND DUP3 PUSH20 0xFFFFFFFFFFFFFFFFFFFFFFFFFFFFFFFFFFFFFFFF AND EQ ISZERO JUMPDEST ISZERO PUSH2 0x2BDF JUMPI PUSH0 PUSH2 0x2ABC DUP5 PUSH2 0x1F5C JUMP JUMPDEST SWAP1 POP PUSH0 PUSH20 0xFFFFFFFFFFFFFFFFFFFFFFFFFFFFFFFFFFFFFFFF AND DUP4 PUSH20 0xFFFFFFFFFFFFFFFFFFFFFFFFFFFFFFFFFFFFFFFF AND EQ ISZERO DUP1 ISZERO PUSH2 0x2B26 JUMPI POP DUP3 PUSH20 0xFFFFFFFFFFFFFFFFFFFFFFFFFFFFFFFFFFFFFFFF AND DUP2 PUSH20 0xFFFFFFFFFFFFFFFFFFFFFFFFFFFFFFFFFFFFFFFF AND EQ ISZERO JUMPDEST DUP1 ISZERO PUSH2 0x2B39 JUMPI POP PUSH2 0x2B37 DUP2 DUP5 PUSH2 0x1CDD JUMP JUMPDEST ISZERO JUMPDEST ISZERO PUSH2 0x2B7B JUMPI DUP3 PUSH1 0x40 MLOAD PUSH32 0xA9FBF51F00000000000000000000000000000000000000000000000000000000 DUP2 MSTORE PUSH1 0x4 ADD PUSH2 0x2B72 SWAP2 SWAP1 PUSH2 0x324D JUMP JUMPDEST PUSH1 0x40 MLOAD DUP1 SWAP2 SUB SWAP1 REVERT JUMPDEST DUP2 ISZERO PUSH2 0x2BDD JUMPI DUP4 DUP6 PUSH20 0xFFFFFFFFFFFFFFFFFFFFFFFFFFFFFFFFFFFFFFFF AND DUP3 PUSH20 0xFFFFFFFFFFFFFFFFFFFFFFFFFFFFFFFFFFFFFFFF AND PUSH32 0x8C5BE1E5EBEC7D5BD14F71427D1E84F3DD0314C0F7B2291E5B200AC8C7C3B925 PUSH1 0x40 MLOAD PUSH1 0x40 MLOAD DUP1 SWAP2 SUB SWAP1 LOG4 JUMPDEST POP JUMPDEST DUP4 PUSH1 0x4 PUSH0 DUP6 DUP2 MSTORE PUSH1 0x20 ADD SWAP1 DUP2 MSTORE PUSH1 0x20 ADD PUSH0 KECCAK256 PUSH0 PUSH2 0x100 EXP DUP2 SLOAD DUP2 PUSH20 0xFFFFFFFFFFFFFFFFFFFFFFFFFFFFFFFFFFFFFFFF MUL NOT AND SWAP1 DUP4 PUSH20 0xFFFFFFFFFFFFFFFFFFFFFFFFFFFFFFFFFFFFFFFF AND MUL OR SWAP1 SSTORE POP POP POP POP POP JUMP JUMPDEST PUSH2 0x2C3F DUP4 DUP4 DUP4 PUSH2 0x2DC1 JUMP JUMPDEST PUSH2 0x2CF2 JUMPI PUSH0 PUSH20 0xFFFFFFFFFFFFFFFFFFFFFFFFFFFFFFFFFFFFFFFF AND DUP4 PUSH20 0xFFFFFFFFFFFFFFFFFFFFFFFFFFFFFFFFFFFFFFFF AND SUB PUSH2 0x2CB3 JUMPI DUP1 PUSH1 0x40 MLOAD PUSH32 0x7E27328900000000000000000000000000000000000000000000000000000000 DUP2 MSTORE PUSH1 0x4 ADD PUSH2 0x2CAA SWAP2 SWAP1 PUSH2 0x34C7 JUMP JUMPDEST PUSH1 0x40 MLOAD DUP1 SWAP2 SUB SWAP1 REVERT JUMPDEST DUP2 DUP2 PUSH1 0x40 MLOAD PUSH32 0x177E802F00000000000000000000000000000000000000000000000000000000 DUP2 MSTORE PUSH1 0x4 ADD PUSH2 0x2CE9 SWAP3 SWAP2 SWAP1 PUSH2 0x4341 JUMP JUMPDEST PUSH1 0x40 MLOAD DUP1 SWAP2 SUB SWAP1 REVERT JUMPDEST POP POP POP JUMP JUMPDEST PUSH1 0x60 PUSH0 PUSH1 0x1 PUSH2 0x2D05 DUP5 PUSH2 0x2E81 JUMP JUMPDEST ADD SWAP1 POP PUSH0 DUP2 PUSH8 0xFFFFFFFFFFFFFFFF DUP2 GT ISZERO PUSH2 0x2D23 JUMPI PUSH2 0x2D22 PUSH2 0x32D2 JUMP JUMPDEST JUMPDEST PUSH1 0x40 MLOAD SWAP1 DUP1 DUP3 MSTORE DUP1 PUSH1 0x1F ADD PUSH1 0x1F NOT AND PUSH1 0x20 ADD DUP3 ADD PUSH1 0x40 MSTORE DUP1 ISZERO PUSH2 0x2D55 JUMPI DUP2 PUSH1 0x20 ADD PUSH1 0x1 DUP3 MUL DUP1 CALLDATASIZE DUP4 CALLDATACOPY DUP1 DUP3 ADD SWAP2 POP POP SWAP1 POP JUMPDEST POP SWAP1 POP PUSH0 DUP3 PUSH1 0x20 ADD DUP3 ADD SWAP1 POP JUMPDEST PUSH1 0x1 ISZERO PUSH2 0x2DB6 JUMPI DUP1 DUP1 PUSH1 0x1 SWAP1 SUB SWAP2 POP POP PUSH32 0x3031323334353637383961626364656600000000000000000000000000000000 PUSH1 0xA DUP7 MOD BYTE DUP2 MSTORE8 PUSH1 0xA DUP6 DUP2 PUSH2 0x2DAB JUMPI PUSH2 0x2DAA PUSH2 0x3FA6 JUMP JUMPDEST JUMPDEST DIV SWAP5 POP PUSH0 DUP6 SUB PUSH2 0x2D62 JUMPI JUMPDEST DUP2 SWAP4 POP POP POP POP SWAP2 SWAP1 POP JUMP JUMPDEST PUSH0 DUP1 PUSH20 0xFFFFFFFFFFFFFFFFFFFFFFFFFFFFFFFFFFFFFFFF AND DUP4 PUSH20 0xFFFFFFFFFFFFFFFFFFFFFFFFFFFFFFFFFFFFFFFF AND EQ ISZERO DUP1 ISZERO PUSH2 0x2E78 JUMPI POP DUP3 PUSH20 0xFFFFFFFFFFFFFFFFFFFFFFFFFFFFFFFFFFFFFFFF AND DUP5 PUSH20 0xFFFFFFFFFFFFFFFFFFFFFFFFFFFFFFFFFFFFFFFF AND EQ DUP1 PUSH2 0x2E39 JUMPI POP PUSH2 0x2E38 DUP5 DUP5 PUSH2 0x1CDD JUMP JUMPDEST JUMPDEST DUP1 PUSH2 0x2E77 JUMPI POP DUP3 PUSH20 0xFFFFFFFFFFFFFFFFFFFFFFFFFFFFFFFFFFFFFFFF AND PUSH2 0x2E5F DUP4 PUSH2 0x1FE2 JUMP JUMPDEST PUSH20 0xFFFFFFFFFFFFFFFFFFFFFFFFFFFFFFFFFFFFFFFF AND EQ JUMPDEST JUMPDEST SWAP1 POP SWAP4 SWAP3 POP POP POP JUMP JUMPDEST PUSH0 DUP1 PUSH0 SWAP1 POP PUSH27 0x184F03E93FF9F4DAA797ED6E38ED64BF6A1F010000000000000000 DUP4 LT PUSH2 0x2EDD JUMPI PUSH27 0x184F03E93FF9F4DAA797ED6E38ED64BF6A1F010000000000000000 DUP4 DUP2 PUSH2 0x2ED3 JUMPI PUSH2 0x2ED2 PUSH2 0x3FA6 JUMP JUMPDEST JUMPDEST DIV SWAP3 POP PUSH1 0x40 DUP2 ADD SWAP1 POP JUMPDEST PUSH14 0x4EE2D6D415B85ACEF8100000000 DUP4 LT PUSH2 0x2F1A JUMPI PUSH14 0x4EE2D6D415B85ACEF8100000000 DUP4 DUP2 PUSH2 0x2F10 JUMPI PUSH2 0x2F0F PUSH2 0x3FA6 JUMP JUMPDEST JUMPDEST DIV SWAP3 POP PUSH1 0x20 DUP2 ADD SWAP1 POP JUMPDEST PUSH7 0x2386F26FC10000 DUP4 LT PUSH2 0x2F49 JUMPI PUSH7 0x2386F26FC10000 DUP4 DUP2 PUSH2 0x2F3F JUMPI PUSH2 0x2F3E PUSH2 0x3FA6 JUMP JUMPDEST JUMPDEST DIV SWAP3 POP PUSH1 0x10 DUP2 ADD SWAP1 POP JUMPDEST PUSH4 0x5F5E100 DUP4 LT PUSH2 0x2F72 JUMPI PUSH4 0x5F5E100 DUP4 DUP2 PUSH2 0x2F68 JUMPI PUSH2 0x2F67 PUSH2 0x3FA6 JUMP JUMPDEST JUMPDEST DIV SWAP3 POP PUSH1 0x8 DUP2 ADD SWAP1 POP JUMPDEST PUSH2 0x2710 DUP4 LT PUSH2 0x2F97 JUMPI PUSH2 0x2710 DUP4 DUP2 PUSH2 0x2F8D JUMPI PUSH2 0x2F8C PUSH2 0x3FA6 JUMP JUMPDEST JUMPDEST DIV SWAP3 POP PUSH1 0x4 DUP2 ADD SWAP1 POP JUMPDEST PUSH1 0x64 DUP4 LT PUSH2 0x2FBA JUMPI PUSH1 0x64 DUP4 DUP2 PUSH2 0x2FB0 JUMPI PUSH2 0x2FAF PUSH2 0x3FA6 JUMP JUMPDEST JUMPDEST DIV SWAP3 POP PUSH1 0x2 DUP2 ADD SWAP1 POP JUMPDEST PUSH1 0xA DUP4 LT PUSH2 0x2FC9 JUMPI PUSH1 0x1 DUP2 ADD SWAP1 POP JUMPDEST DUP1 SWAP2 POP POP SWAP2 SWAP1 POP JUMP JUMPDEST PUSH1 0x40 MLOAD DUP1 PUSH1 0x80 ADD PUSH1 0x40 MSTORE DUP1 PUSH0 DUP2 MSTORE PUSH1 0x20 ADD PUSH1 0x60 DUP2 MSTORE PUSH1 0x20 ADD PUSH0 ISZERO ISZERO DUP2 MSTORE PUSH1 0x20 ADD PUSH0 DUP2 MSTORE POP SWAP1 JUMP JUMPDEST PUSH1 0x40 MLOAD DUP1 PUSH1 0xC0 ADD PUSH1 0x40 MSTORE DUP1 PUSH0 PUSH20 0xFFFFFFFFFFFFFFFFFFFFFFFFFFFFFFFFFFFFFFFF AND DUP2 MSTORE PUSH1 0x20 ADD PUSH1 0x60 DUP2 MSTORE PUSH1 0x20 ADD PUSH1 0x60 DUP2 MSTORE PUSH1 0x20 ADD PUSH1 0x60 DUP2 MSTORE PUSH1 0x20 ADD PUSH0 DUP2 MSTORE PUSH1 0x20 ADD PUSH0 DUP2 MSTORE POP SWAP1 JUMP JUMPDEST PUSH0 PUSH1 0x40 MLOAD SWAP1 POP SWAP1 JUMP JUMPDEST PUSH0 DUP1 REVERT JUMPDEST PUSH0 DUP1 REVERT JUMPDEST PUSH0 PUSH32 0xFFFFFFFF00000000000000000000000000000000000000000000000000000000 DUP3 AND SWAP1 POP SWAP2 SWAP1 POP JUMP JUMPDEST PUSH2 0x3087 DUP2 PUSH2 0x3053 JUMP JUMPDEST DUP2 EQ PUSH2 0x3091 JUMPI PUSH0 DUP1 REVERT JUMPDEST POP JUMP JUMPDEST PUSH0 DUP2 CALLDATALOAD SWAP1 POP PUSH2 0x30A2 DUP2 PUSH2 0x307E JUMP JUMPDEST SWAP3 SWAP2 POP POP JUMP JUMPDEST PUSH0 PUSH1 0x20 DUP3 DUP5 SUB SLT ISZERO PUSH2 0x30BD JUMPI PUSH2 0x30BC PUSH2 0x304B JUMP JUMPDEST JUMPDEST PUSH0 PUSH2 0x30CA DUP5 DUP3 DUP6 ADD PUSH2 0x3094 JUMP JUMPDEST SWAP2 POP POP SWAP3 SWAP2 POP POP JUMP JUMPDEST PUSH0 DUP2 ISZERO ISZERO SWAP1 POP SWAP2 SWAP1 POP JUMP JUMPDEST PUSH2 0x30E7 DUP2 PUSH2 0x30D3 JUMP JUMPDEST DUP3 MSTORE POP POP JUMP JUMPDEST PUSH0 PUSH1 0x20 DUP3 ADD SWAP1 POP PUSH2 0x3100 PUSH0 DUP4 ADD DUP5 PUSH2 0x30DE JUMP JUMPDEST SWAP3 SWAP2 POP POP JUMP JUMPDEST PUSH0 DUP2 MLOAD SWAP1 POP SWAP2 SWAP1 POP JUMP JUMPDEST PUSH0 DUP3 DUP3 MSTORE PUSH1 0x20 DUP3 ADD SWAP1 POP SWAP3 SWAP2 POP POP JUMP JUMPDEST PUSH0 JUMPDEST DUP4 DUP2 LT ISZERO PUSH2 0x313D JUMPI DUP1 DUP3 ADD MLOAD DUP2 DUP5 ADD MSTORE PUSH1 0x20 DUP2 ADD SWAP1 POP PUSH2 0x3122 JUMP JUMPDEST PUSH0 DUP5 DUP5 ADD MSTORE POP POP POP POP JUMP JUMPDEST PUSH0 PUSH1 0x1F NOT PUSH1 0x1F DUP4 ADD AND SWAP1 POP SWAP2 SWAP1 POP JUMP JUMPDEST PUSH0 PUSH2 0x3162 DUP3 PUSH2 0x3106 JUMP JUMPDEST PUSH2 0x316C DUP2 DUP6 PUSH2 0x3110 JUMP JUMPDEST SWAP4 POP PUSH2 0x317C DUP2 DUP6 PUSH1 0x20 DUP7 ADD PUSH2 0x3120 JUMP JUMPDEST PUSH2 0x3185 DUP2 PUSH2 0x3148 JUMP JUMPDEST DUP5 ADD SWAP2 POP POP SWAP3 SWAP2 POP POP JUMP JUMPDEST PUSH0 PUSH1 0x20 DUP3 ADD SWAP1 POP DUP2 DUP2 SUB PUSH0 DUP4 ADD MSTORE PUSH2 0x31A8 DUP2 DUP5 PUSH2 0x3158 JUMP JUMPDEST SWAP1 POP SWAP3 SWAP2 POP POP JUMP JUMPDEST PUSH0 DUP2 SWAP1 POP SWAP2 SWAP1 POP JUMP JUMPDEST PUSH2 0x31C2 DUP2 PUSH2 0x31B0 JUMP JUMPDEST DUP2 EQ PUSH2 0x31CC JUMPI PUSH0 DUP1 REVERT JUMPDEST POP JUMP JUMPDEST PUSH0 DUP2 CALLDATALOAD SWAP1 POP PUSH2 0x31DD DUP2 PUSH2 0x31B9 JUMP JUMPDEST SWAP3 SWAP2 POP POP JUMP JUMPDEST PUSH0 PUSH1 0x20 DUP3 DUP5 SUB SLT ISZERO PUSH2 0x31F8 JUMPI PUSH2 0x31F7 PUSH2 0x304B JUMP JUMPDEST JUMPDEST PUSH0 PUSH2 0x3205 DUP5 DUP3 DUP6 ADD PUSH2 0x31CF JUMP JUMPDEST SWAP2 POP POP SWAP3 SWAP2 POP POP JUMP JUMPDEST PUSH0 PUSH20 0xFFFFFFFFFFFFFFFFFFFFFFFFFFFFFFFFFFFFFFFF DUP3 AND SWAP1 POP SWAP2 SWAP1 POP JUMP JUMPDEST PUSH0 PUSH2 0x3237 DUP3 PUSH2 0x320E JUMP JUMPDEST SWAP1 POP SWAP2 SWAP1 POP JUMP JUMPDEST PUSH2 0x3247 DUP2 PUSH2 0x322D JUMP JUMPDEST DUP3 MSTORE POP POP JUMP JUMPDEST PUSH0 PUSH1 0x20 DUP3 ADD SWAP1 POP PUSH2 0x3260 PUSH0 DUP4 ADD DUP5 PUSH2 0x323E JUMP JUMPDEST SWAP3 SWAP2 POP POP JUMP JUMPDEST PUSH2 0x326F DUP2 PUSH2 0x322D JUMP JUMPDEST DUP2 EQ PUSH2 0x3279 JUMPI PUSH0 DUP1 REVERT JUMPDEST POP JUMP JUMPDEST PUSH0 DUP2 CALLDATALOAD SWAP1 POP PUSH2 0x328A DUP2 PUSH2 0x3266 JUMP JUMPDEST SWAP3 SWAP2 POP POP JUMP JUMPDEST PUSH0 DUP1 PUSH1 0x40 DUP4 DUP6 SUB SLT ISZERO PUSH2 0x32A6 JUMPI PUSH2 0x32A5 PUSH2 0x304B JUMP JUMPDEST JUMPDEST PUSH0 PUSH2 0x32B3 DUP6 DUP3 DUP7 ADD PUSH2 0x327C JUMP JUMPDEST SWAP3 POP POP PUSH1 0x20 PUSH2 0x32C4 DUP6 DUP3 DUP7 ADD PUSH2 0x31CF JUMP JUMPDEST SWAP2 POP POP SWAP3 POP SWAP3 SWAP1 POP JUMP JUMPDEST PUSH0 DUP1 REVERT JUMPDEST PUSH32 0x4E487B7100000000000000000000000000000000000000000000000000000000 PUSH0 MSTORE PUSH1 0x41 PUSH1 0x4 MSTORE PUSH1 0x24 PUSH0 REVERT JUMPDEST PUSH2 0x3308 DUP3 PUSH2 0x3148 JUMP JUMPDEST DUP2 ADD DUP2 DUP2 LT PUSH8 0xFFFFFFFFFFFFFFFF DUP3 GT OR ISZERO PUSH2 0x3327 JUMPI PUSH2 0x3326 PUSH2 0x32D2 JUMP JUMPDEST JUMPDEST DUP1 PUSH1 0x40 MSTORE POP POP POP JUMP JUMPDEST PUSH0 PUSH2 0x3339 PUSH2 0x3042 JUMP JUMPDEST SWAP1 POP PUSH2 0x3345 DUP3 DUP3 PUSH2 0x32FF JUMP JUMPDEST SWAP2 SWAP1 POP JUMP JUMPDEST PUSH0 PUSH8 0xFFFFFFFFFFFFFFFF DUP3 GT ISZERO PUSH2 0x3364 JUMPI PUSH2 0x3363 PUSH2 0x32D2 JUMP JUMPDEST JUMPDEST PUSH1 0x20 DUP3 MUL SWAP1 POP PUSH1 0x20 DUP2 ADD SWAP1 POP SWAP2 SWAP1 POP JUMP JUMPDEST PUSH0 DUP1 REVERT JUMPDEST PUSH0 PUSH2 0x338B PUSH2 0x3386 DUP5 PUSH2 0x334A JUMP JUMPDEST PUSH2 0x3330 JUMP JUMPDEST SWAP1 POP DUP1 DUP4 DUP3 MSTORE PUSH1 0x20 DUP3 ADD SWAP1 POP PUSH1 0x20 DUP5 MUL DUP4 ADD DUP6 DUP2 GT ISZERO PUSH2 0x33AE JUMPI PUSH2 0x33AD PUSH2 0x3375 JUMP JUMPDEST JUMPDEST DUP4 JUMPDEST DUP2 DUP2 LT ISZERO PUSH2 0x33D7 JUMPI DUP1 PUSH2 0x33C3 DUP9 DUP3 PUSH2 0x31CF JUMP JUMPDEST DUP5 MSTORE PUSH1 0x20 DUP5 ADD SWAP4 POP POP PUSH1 0x20 DUP2 ADD SWAP1 POP PUSH2 0x33B0 JUMP JUMPDEST POP POP POP SWAP4 SWAP3 POP POP POP JUMP JUMPDEST PUSH0 DUP3 PUSH1 0x1F DUP4 ADD SLT PUSH2 0x33F5 JUMPI PUSH2 0x33F4 PUSH2 0x32CE JUMP JUMPDEST JUMPDEST DUP2 CALLDATALOAD PUSH2 0x3405 DUP5 DUP3 PUSH1 0x20 DUP7 ADD PUSH2 0x3379 JUMP JUMPDEST SWAP2 POP POP SWAP3 SWAP2 POP POP JUMP JUMPDEST PUSH0 DUP1 PUSH1 0x40 DUP4 DUP6 SUB SLT ISZERO PUSH2 0x3424 JUMPI PUSH2 0x3423 PUSH2 0x304B JUMP JUMPDEST JUMPDEST PUSH0 PUSH2 0x3431 DUP6 DUP3 DUP7 ADD PUSH2 0x31CF JUMP JUMPDEST SWAP3 POP POP PUSH1 0x20 DUP4 ADD CALLDATALOAD PUSH8 0xFFFFFFFFFFFFFFFF DUP2 GT ISZERO PUSH2 0x3452 JUMPI PUSH2 0x3451 PUSH2 0x304F JUMP JUMPDEST JUMPDEST PUSH2 0x345E DUP6 DUP3 DUP7 ADD PUSH2 0x33E1 JUMP JUMPDEST SWAP2 POP POP SWAP3 POP SWAP3 SWAP1 POP JUMP JUMPDEST PUSH0 DUP1 PUSH0 PUSH1 0x60 DUP5 DUP7 SUB SLT ISZERO PUSH2 0x347F JUMPI PUSH2 0x347E PUSH2 0x304B JUMP JUMPDEST JUMPDEST PUSH0 PUSH2 0x348C DUP7 DUP3 DUP8 ADD PUSH2 0x327C JUMP JUMPDEST SWAP4 POP POP PUSH1 0x20 PUSH2 0x349D DUP7 DUP3 DUP8 ADD PUSH2 0x327C JUMP JUMPDEST SWAP3 POP POP PUSH1 0x40 PUSH2 0x34AE DUP7 DUP3 DUP8 ADD PUSH2 0x31CF JUMP JUMPDEST SWAP2 POP POP SWAP3 POP SWAP3 POP SWAP3 JUMP JUMPDEST PUSH2 0x34C1 DUP2 PUSH2 0x31B0 JUMP JUMPDEST DUP3 MSTORE POP POP JUMP JUMPDEST PUSH0 PUSH1 0x20 DUP3 ADD SWAP1 POP PUSH2 0x34DA PUSH0 DUP4 ADD DUP5 PUSH2 0x34B8 JUMP JUMPDEST SWAP3 SWAP2 POP POP JUMP JUMPDEST PUSH0 DUP1 PUSH1 0x40 DUP4 DUP6 SUB SLT ISZERO PUSH2 0x34F6 JUMPI PUSH2 0x34F5 PUSH2 0x304B JUMP JUMPDEST JUMPDEST PUSH0 PUSH2 0x3503 DUP6 DUP3 DUP7 ADD PUSH2 0x31CF JUMP JUMPDEST SWAP3 POP POP PUSH1 0x20 PUSH2 0x3514 DUP6 DUP3 DUP7 ADD PUSH2 0x31CF JUMP JUMPDEST SWAP2 POP POP SWAP3 POP SWAP3 SWAP1 POP JUMP JUMPDEST PUSH0 PUSH1 0x20 DUP3 DUP5 SUB SLT ISZERO PUSH2 0x3533 JUMPI PUSH2 0x3532 PUSH2 0x304B JUMP JUMPDEST JUMPDEST PUSH0 PUSH2 0x3540 DUP5 DUP3 DUP6 ADD PUSH2 0x327C JUMP JUMPDEST SWAP2 POP POP SWAP3 SWAP2 POP POP JUMP JUMPDEST PUSH0 DUP2 MLOAD SWAP1 POP SWAP2 SWAP1 POP JUMP JUMPDEST PUSH0 DUP3 DUP3 MSTORE PUSH1 0x20 DUP3 ADD SWAP1 POP SWAP3 SWAP2 POP POP JUMP JUMPDEST PUSH0 DUP2 SWAP1 POP PUSH1 0x20 DUP3 ADD SWAP1 POP SWAP2 SWAP1 POP JUMP JUMPDEST PUSH2 0x357B DUP2 PUSH2 0x31B0 JUMP JUMPDEST DUP3 MSTORE POP POP JUMP JUMPDEST PUSH0 DUP3 DUP3 MSTORE PUSH1 0x20 DUP3 ADD SWAP1 POP SWAP3 SWAP2 POP POP JUMP JUMPDEST PUSH0 PUSH2 0x359B DUP3 PUSH2 0x3106 JUMP JUMPDEST PUSH2 0x35A5 DUP2 DUP6 PUSH2 0x3581 JUMP JUMPDEST SWAP4 POP PUSH2 0x35B5 DUP2 DUP6 PUSH1 0x20 DUP7 ADD PUSH2 0x3120 JUMP JUMPDEST PUSH2 0x35BE DUP2 PUSH2 0x3148 JUMP JUMPDEST DUP5 ADD SWAP2 POP POP SWAP3 SWAP2 POP POP JUMP JUMPDEST PUSH2 0x35D2 DUP2 PUSH2 0x30D3 JUMP JUMPDEST DUP3 MSTORE POP POP JUMP JUMPDEST PUSH0 PUSH1 0x80 DUP4 ADD PUSH0 DUP4 ADD MLOAD PUSH2 0x35ED PUSH0 DUP7 ADD DUP3 PUSH2 0x3572 JUMP JUMPDEST POP PUSH1 0x20 DUP4 ADD MLOAD DUP5 DUP3 SUB PUSH1 0x20 DUP7 ADD MSTORE PUSH2 0x3605 DUP3 DUP3 PUSH2 0x3591 JUMP JUMPDEST SWAP2 POP POP PUSH1 0x40 DUP4 ADD MLOAD PUSH2 0x361A PUSH1 0x40 DUP7 ADD DUP3 PUSH2 0x35C9 JUMP JUMPDEST POP PUSH1 0x60 DUP4 ADD MLOAD PUSH2 0x362D PUSH1 0x60 DUP7 ADD DUP3 PUSH2 0x3572 JUMP JUMPDEST POP DUP1 SWAP2 POP POP SWAP3 SWAP2 POP POP JUMP JUMPDEST PUSH0 PUSH2 0x3643 DUP4 DUP4 PUSH2 0x35D8 JUMP JUMPDEST SWAP1 POP SWAP3 SWAP2 POP POP JUMP JUMPDEST PUSH0 PUSH1 0x20 DUP3 ADD SWAP1 POP SWAP2 SWAP1 POP JUMP JUMPDEST PUSH0 PUSH2 0x3661 DUP3 PUSH2 0x3549 JUMP JUMPDEST PUSH2 0x366B DUP2 DUP6 PUSH2 0x3553 JUMP JUMPDEST SWAP4 POP DUP4 PUSH1 0x20 DUP3 MUL DUP6 ADD PUSH2 0x367D DUP6 PUSH2 0x3563 JUMP JUMPDEST DUP1 PUSH0 JUMPDEST DUP6 DUP2 LT ISZERO PUSH2 0x36B8 JUMPI DUP5 DUP5 SUB DUP10 MSTORE DUP2 MLOAD PUSH2 0x3699 DUP6 DUP3 PUSH2 0x3638 JUMP JUMPDEST SWAP5 POP PUSH2 0x36A4 DUP4 PUSH2 0x364B JUMP JUMPDEST SWAP3 POP PUSH1 0x20 DUP11 ADD SWAP10 POP POP PUSH1 0x1 DUP2 ADD SWAP1 POP PUSH2 0x3680 JUMP JUMPDEST POP DUP3 SWAP8 POP DUP8 SWAP6 POP POP POP POP POP POP SWAP3 SWAP2 POP POP JUMP JUMPDEST PUSH0 PUSH1 0x20 DUP3 ADD SWAP1 POP DUP2 DUP2 SUB PUSH0 DUP4 ADD MSTORE PUSH2 0x36E2 DUP2 DUP5 PUSH2 0x3657 JUMP JUMPDEST SWAP1 POP SWAP3 SWAP2 POP POP JUMP JUMPDEST PUSH2 0x36F3 DUP2 PUSH2 0x30D3 JUMP JUMPDEST DUP2 EQ PUSH2 0x36FD JUMPI PUSH0 DUP1 REVERT JUMPDEST POP JUMP JUMPDEST PUSH0 DUP2 CALLDATALOAD SWAP1 POP PUSH2 0x370E DUP2 PUSH2 0x36EA JUMP JUMPDEST SWAP3 SWAP2 POP POP JUMP JUMPDEST PUSH0 DUP1 PUSH1 0x40 DUP4 DUP6 SUB SLT ISZERO PUSH2 0x372A JUMPI PUSH2 0x3729 PUSH2 0x304B JUMP JUMPDEST JUMPDEST PUSH0 PUSH2 0x3737 DUP6 DUP3 DUP7 ADD PUSH2 0x327C JUMP JUMPDEST SWAP3 POP POP PUSH1 0x20 PUSH2 0x3748 DUP6 DUP3 DUP7 ADD PUSH2 0x3700 JUMP JUMPDEST SWAP2 POP POP SWAP3 POP SWAP3 SWAP1 POP JUMP JUMPDEST PUSH0 DUP1 REVERT JUMPDEST PUSH0 PUSH8 0xFFFFFFFFFFFFFFFF DUP3 GT ISZERO PUSH2 0x3770 JUMPI PUSH2 0x376F PUSH2 0x32D2 JUMP JUMPDEST JUMPDEST PUSH2 0x3779 DUP3 PUSH2 0x3148 JUMP JUMPDEST SWAP1 POP PUSH1 0x20 DUP2 ADD SWAP1 POP SWAP2 SWAP1 POP JUMP JUMPDEST DUP3 DUP2 DUP4 CALLDATACOPY PUSH0 DUP4 DUP4 ADD MSTORE POP POP POP JUMP JUMPDEST PUSH0 PUSH2 0x37A6 PUSH2 0x37A1 DUP5 PUSH2 0x3756 JUMP JUMPDEST PUSH2 0x3330 JUMP JUMPDEST SWAP1 POP DUP3 DUP2 MSTORE PUSH1 0x20 DUP2 ADD DUP5 DUP5 DUP5 ADD GT ISZERO PUSH2 0x37C2 JUMPI PUSH2 0x37C1 PUSH2 0x3752 JUMP JUMPDEST JUMPDEST PUSH2 0x37CD DUP5 DUP3 DUP6 PUSH2 0x3786 JUMP JUMPDEST POP SWAP4 SWAP3 POP POP POP JUMP JUMPDEST PUSH0 DUP3 PUSH1 0x1F DUP4 ADD SLT PUSH2 0x37E9 JUMPI PUSH2 0x37E8 PUSH2 0x32CE JUMP JUMPDEST JUMPDEST DUP2 CALLDATALOAD PUSH2 0x37F9 DUP5 DUP3 PUSH1 0x20 DUP7 ADD PUSH2 0x3794 JUMP JUMPDEST SWAP2 POP POP SWAP3 SWAP2 POP POP JUMP JUMPDEST PUSH0 DUP1 PUSH0 DUP1 PUSH1 0x80 DUP6 DUP8 SUB SLT ISZERO PUSH2 0x381A JUMPI PUSH2 0x3819 PUSH2 0x304B JUMP JUMPDEST JUMPDEST PUSH0 PUSH2 0x3827 DUP8 DUP3 DUP9 ADD PUSH2 0x327C JUMP JUMPDEST SWAP5 POP POP PUSH1 0x20 PUSH2 0x3838 DUP8 DUP3 DUP9 ADD PUSH2 0x327C JUMP JUMPDEST SWAP4 POP POP PUSH1 0x40 PUSH2 0x3849 DUP8 DUP3 DUP9 ADD PUSH2 0x31CF JUMP JUMPDEST SWAP3 POP POP PUSH1 0x60 DUP6 ADD CALLDATALOAD PUSH8 0xFFFFFFFFFFFFFFFF DUP2 GT ISZERO PUSH2 0x386A JUMPI PUSH2 0x3869 PUSH2 0x304F JUMP JUMPDEST JUMPDEST PUSH2 0x3876 DUP8 DUP3 DUP9 ADD PUSH2 0x37D5 JUMP JUMPDEST SWAP2 POP POP SWAP3 SWAP6 SWAP2 SWAP5 POP SWAP3 POP JUMP JUMPDEST PUSH0 DUP2 SWAP1 POP SWAP2 SWAP1 POP JUMP JUMPDEST PUSH0 PUSH2 0x38A5 PUSH2 0x38A0 PUSH2 0x389B DUP5 PUSH2 0x320E JUMP JUMPDEST PUSH2 0x3882 JUMP JUMPDEST PUSH2 0x320E JUMP JUMPDEST SWAP1 POP SWAP2 SWAP1 POP JUMP JUMPDEST PUSH0 PUSH2 0x38B6 DUP3 PUSH2 0x388B JUMP JUMPDEST SWAP1 POP SWAP2 SWAP1 POP JUMP JUMPDEST PUSH0 PUSH2 0x38C7 DUP3 PUSH2 0x38AC JUMP JUMPDEST SWAP1 POP SWAP2 SWAP1 POP JUMP JUMPDEST PUSH2 0x38D7 DUP2 PUSH2 0x38BD JUMP JUMPDEST DUP3 MSTORE POP POP JUMP JUMPDEST PUSH0 PUSH1 0x20 DUP3 ADD SWAP1 POP PUSH2 0x38F0 PUSH0 DUP4 ADD DUP5 PUSH2 0x38CE JUMP JUMPDEST SWAP3 SWAP2 POP POP JUMP JUMPDEST PUSH2 0x38FF DUP2 PUSH2 0x322D JUMP JUMPDEST DUP3 MSTORE POP POP JUMP JUMPDEST PUSH0 DUP2 MLOAD SWAP1 POP SWAP2 SWAP1 POP JUMP JUMPDEST PUSH0 DUP3 DUP3 MSTORE PUSH1 0x20 DUP3 ADD SWAP1 POP SWAP3 SWAP2 POP POP JUMP JUMPDEST PUSH0 DUP2 SWAP1 POP PUSH1 0x20 DUP3 ADD SWAP1 POP SWAP2 SWAP1 POP JUMP JUMPDEST PUSH0 PUSH2 0x3939 DUP4 DUP4 PUSH2 0x3591 JUMP JUMPDEST SWAP1 POP SWAP3 SWAP2 POP POP JUMP JUMPDEST PUSH0 PUSH1 0x20 DUP3 ADD SWAP1 POP SWAP2 SWAP1 POP JUMP JUMPDEST PUSH0 PUSH2 0x3957 DUP3 PUSH2 0x3905 JUMP JUMPDEST PUSH2 0x3961 DUP2 DUP6 PUSH2 0x390F JUMP JUMPDEST SWAP4 POP DUP4 PUSH1 0x20 DUP3 MUL DUP6 ADD PUSH2 0x3973 DUP6 PUSH2 0x391F JUMP JUMPDEST DUP1 PUSH0 JUMPDEST DUP6 DUP2 LT ISZERO PUSH2 0x39AE JUMPI DUP5 DUP5 SUB DUP10 MSTORE DUP2 MLOAD PUSH2 0x398F DUP6 DUP3 PUSH2 0x392E JUMP JUMPDEST SWAP5 POP PUSH2 0x399A DUP4 PUSH2 0x3941 JUMP JUMPDEST SWAP3 POP PUSH1 0x20 DUP11 ADD SWAP10 POP POP PUSH1 0x1 DUP2 ADD SWAP1 POP PUSH2 0x3976 JUMP JUMPDEST POP DUP3 SWAP8 POP DUP8 SWAP6 POP POP POP POP POP POP SWAP3 SWAP2 POP POP JUMP JUMPDEST PUSH0 PUSH1 0xC0 DUP4 ADD PUSH0 DUP4 ADD MLOAD PUSH2 0x39D5 PUSH0 DUP7 ADD DUP3 PUSH2 0x38F6 JUMP JUMPDEST POP PUSH1 0x20 DUP4 ADD MLOAD DUP5 DUP3 SUB PUSH1 0x20 DUP7 ADD MSTORE PUSH2 0x39ED DUP3 DUP3 PUSH2 0x3591 JUMP JUMPDEST SWAP2 POP POP PUSH1 0x40 DUP4 ADD MLOAD DUP5 DUP3 SUB PUSH1 0x40 DUP7 ADD MSTORE PUSH2 0x3A07 DUP3 DUP3 PUSH2 0x3591 JUMP JUMPDEST SWAP2 POP POP PUSH1 0x60 DUP4 ADD MLOAD DUP5 DUP3 SUB PUSH1 0x60 DUP7 ADD MSTORE PUSH2 0x3A21 DUP3 DUP3 PUSH2 0x394D JUMP JUMPDEST SWAP2 POP POP PUSH1 0x80 DUP4 ADD MLOAD PUSH2 0x3A36 PUSH1 0x80 DUP7 ADD DUP3 PUSH2 0x3572 JUMP JUMPDEST POP PUSH1 0xA0 DUP4 ADD MLOAD PUSH2 0x3A49 PUSH1 0xA0 DUP7 ADD DUP3 PUSH2 0x3572 JUMP JUMPDEST POP DUP1 SWAP2 POP POP SWAP3 SWAP2 POP POP JUMP JUMPDEST PUSH0 PUSH1 0x20 DUP3 ADD SWAP1 POP DUP2 DUP2 SUB PUSH0 DUP4 ADD MSTORE PUSH2 0x3A6C DUP2 DUP5 PUSH2 0x39C0 JUMP JUMPDEST SWAP1 POP SWAP3 SWAP2 POP POP JUMP JUMPDEST PUSH0 DUP1 PUSH1 0x40 DUP4 DUP6 SUB SLT ISZERO PUSH2 0x3A8A JUMPI PUSH2 0x3A89 PUSH2 0x304B JUMP JUMPDEST JUMPDEST PUSH0 PUSH2 0x3A97 DUP6 DUP3 DUP7 ADD PUSH2 0x327C JUMP JUMPDEST SWAP3 POP POP PUSH1 0x20 PUSH2 0x3AA8 DUP6 DUP3 DUP7 ADD PUSH2 0x327C JUMP JUMPDEST SWAP2 POP POP SWAP3 POP SWAP3 SWAP1 POP JUMP JUMPDEST PUSH32 0x42616C616E6365206973206E6F7420656E6F7567682100000000000000000000 PUSH0 DUP3 ADD MSTORE POP JUMP JUMPDEST PUSH0 PUSH2 0x3AE6 PUSH1 0x16 DUP4 PUSH2 0x3110 JUMP JUMPDEST SWAP2 POP PUSH2 0x3AF1 DUP3 PUSH2 0x3AB2 JUMP JUMPDEST PUSH1 0x20 DUP3 ADD SWAP1 POP SWAP2 SWAP1 POP JUMP JUMPDEST PUSH0 PUSH1 0x20 DUP3 ADD SWAP1 POP DUP2 DUP2 SUB PUSH0 DUP4 ADD MSTORE PUSH2 0x3B13 DUP2 PUSH2 0x3ADA JUMP JUMPDEST SWAP1 POP SWAP2 SWAP1 POP JUMP JUMPDEST PUSH32 0x56616C7565206D75737420626520657175616C204D696E742050726963652100 PUSH0 DUP3 ADD MSTORE POP JUMP JUMPDEST PUSH0 PUSH2 0x3B4E PUSH1 0x1F DUP4 PUSH2 0x3110 JUMP JUMPDEST SWAP2 POP PUSH2 0x3B59 DUP3 PUSH2 0x3B1A JUMP JUMPDEST PUSH1 0x20 DUP3 ADD SWAP1 POP SWAP2 SWAP1 POP JUMP JUMPDEST PUSH0 PUSH1 0x20 DUP3 ADD SWAP1 POP DUP2 DUP2 SUB PUSH0 DUP4 ADD MSTORE PUSH2 0x3B7B DUP2 PUSH2 0x3B42 JUMP JUMPDEST SWAP1 POP SWAP2 SWAP1 POP JUMP JUMPDEST PUSH32 0x4E487B7100000000000000000000000000000000000000000000000000000000 PUSH0 MSTORE PUSH1 0x22 PUSH1 0x4 MSTORE PUSH1 0x24 PUSH0 REVERT JUMPDEST PUSH0 PUSH1 0x2 DUP3 DIV SWAP1 POP PUSH1 0x1 DUP3 AND DUP1 PUSH2 0x3BC6 JUMPI PUSH1 0x7F DUP3 AND SWAP2 POP JUMPDEST PUSH1 0x20 DUP3 LT DUP2 SUB PUSH2 0x3BD9 JUMPI PUSH2 0x3BD8 PUSH2 0x3B82 JUMP JUMPDEST JUMPDEST POP SWAP2 SWAP1 POP JUMP JUMPDEST PUSH0 PUSH1 0x40 DUP3 ADD SWAP1 POP PUSH2 0x3BF2 PUSH0 DUP4 ADD DUP6 PUSH2 0x323E JUMP JUMPDEST PUSH2 0x3BFF PUSH1 0x20 DUP4 ADD DUP5 PUSH2 0x323E JUMP JUMPDEST SWAP4 SWAP3 POP POP POP JUMP JUMPDEST PUSH0 PUSH1 0x60 DUP3 ADD SWAP1 POP PUSH2 0x3C19 PUSH0 DUP4 ADD DUP7 PUSH2 0x323E JUMP JUMPDEST PUSH2 0x3C26 PUSH1 0x20 DUP4 ADD DUP6 PUSH2 0x34B8 JUMP JUMPDEST PUSH2 0x3C33 PUSH1 0x40 DUP4 ADD DUP5 PUSH2 0x323E JUMP JUMPDEST SWAP5 SWAP4 POP POP POP POP JUMP JUMPDEST PUSH32 0x596F75206D7573742062652074686520746F6B656E2773206F776E6572210000 PUSH0 DUP3 ADD MSTORE POP JUMP JUMPDEST PUSH0 PUSH2 0x3C6F PUSH1 0x1E DUP4 PUSH2 0x3110 JUMP JUMPDEST SWAP2 POP PUSH2 0x3C7A DUP3 PUSH2 0x3C3B JUMP JUMPDEST PUSH1 0x20 DUP3 ADD SWAP1 POP SWAP2 SWAP1 POP JUMP JUMPDEST PUSH0 PUSH1 0x20 DUP3 ADD SWAP1 POP DUP2 DUP2 SUB PUSH0 DUP4 ADD MSTORE PUSH2 0x3C9C DUP2 PUSH2 0x3C63 JUMP JUMPDEST SWAP1 POP SWAP2 SWAP1 POP JUMP JUMPDEST PUSH32 0x4E487B7100000000000000000000000000000000000000000000000000000000 PUSH0 MSTORE PUSH1 0x32 PUSH1 0x4 MSTORE PUSH1 0x24 PUSH0 REVERT JUMPDEST PUSH32 0x4E487B7100000000000000000000000000000000000000000000000000000000 PUSH0 MSTORE PUSH1 0x11 PUSH1 0x4 MSTORE PUSH1 0x24 PUSH0 REVERT JUMPDEST PUSH0 PUSH2 0x3D07 DUP3 PUSH2 0x31B0 JUMP JUMPDEST SWAP2 POP PUSH32 0xFFFFFFFFFFFFFFFFFFFFFFFFFFFFFFFFFFFFFFFFFFFFFFFFFFFFFFFFFFFFFFFF DUP3 SUB PUSH2 0x3D39 JUMPI PUSH2 0x3D38 PUSH2 0x3CD0 JUMP JUMPDEST JUMPDEST PUSH1 0x1 DUP3 ADD SWAP1 POP SWAP2 SWAP1 POP JUMP JUMPDEST PUSH32 0x56616C7565206D75737420657175616C20746F2053656C6C696E672050726963 PUSH0 DUP3 ADD MSTORE PUSH32 0x6521000000000000000000000000000000000000000000000000000000000000 PUSH1 0x20 DUP3 ADD MSTORE POP JUMP JUMPDEST PUSH0 PUSH2 0x3D9E PUSH1 0x22 DUP4 PUSH2 0x3110 JUMP JUMPDEST SWAP2 POP PUSH2 0x3DA9 DUP3 PUSH2 0x3D44 JUMP JUMPDEST PUSH1 0x40 DUP3 ADD SWAP1 POP SWAP2 SWAP1 POP JUMP JUMPDEST PUSH0 PUSH1 0x20 DUP3 ADD SWAP1 POP DUP2 DUP2 SUB PUSH0 DUP4 ADD MSTORE PUSH2 0x3DCB DUP2 PUSH2 0x3D92 JUMP JUMPDEST SWAP1 POP SWAP2 SWAP1 POP JUMP JUMPDEST PUSH0 PUSH1 0x60 DUP3 ADD SWAP1 POP PUSH2 0x3DE5 PUSH0 DUP4 ADD DUP7 PUSH2 0x323E JUMP JUMPDEST PUSH2 0x3DF2 PUSH1 0x20 DUP4 ADD DUP6 PUSH2 0x323E JUMP JUMPDEST PUSH2 0x3DFF PUSH1 0x40 DUP4 ADD DUP5 PUSH2 0x34B8 JUMP JUMPDEST SWAP5 SWAP4 POP POP POP POP JUMP JUMPDEST PUSH0 DUP2 SWAP1 POP SWAP3 SWAP2 POP POP JUMP JUMPDEST PUSH0 PUSH2 0x3E1B DUP3 PUSH2 0x3106 JUMP JUMPDEST PUSH2 0x3E25 DUP2 DUP6 PUSH2 0x3E07 JUMP JUMPDEST SWAP4 POP PUSH2 0x3E35 DUP2 DUP6 PUSH1 0x20 DUP7 ADD PUSH2 0x3120 JUMP JUMPDEST DUP1 DUP5 ADD SWAP2 POP POP SWAP3 SWAP2 POP POP JUMP JUMPDEST PUSH0 PUSH2 0x3E4C DUP3 DUP6 PUSH2 0x3E11 JUMP JUMPDEST SWAP2 POP PUSH2 0x3E58 DUP3 DUP5 PUSH2 0x3E11 JUMP JUMPDEST SWAP2 POP DUP2 SWAP1 POP SWAP4 SWAP3 POP POP POP JUMP JUMPDEST PUSH32 0x56616C7565206D75737420657175616C20746F204D696E742050726963652100 PUSH0 DUP3 ADD MSTORE POP JUMP JUMPDEST PUSH0 PUSH2 0x3E98 PUSH1 0x1F DUP4 PUSH2 0x3110 JUMP JUMPDEST SWAP2 POP PUSH2 0x3EA3 DUP3 PUSH2 0x3E64 JUMP JUMPDEST PUSH1 0x20 DUP3 ADD SWAP1 POP SWAP2 SWAP1 POP JUMP JUMPDEST PUSH0 PUSH1 0x20 DUP3 ADD SWAP1 POP DUP2 DUP2 SUB PUSH0 DUP4 ADD MSTORE PUSH2 0x3EC5 DUP2 PUSH2 0x3E8C JUMP JUMPDEST SWAP1 POP SWAP2 SWAP1 POP JUMP JUMPDEST PUSH0 DUP2 SWAP1 POP SWAP2 SWAP1 POP JUMP JUMPDEST PUSH2 0x3EDE DUP2 PUSH2 0x3ECC JUMP JUMPDEST DUP3 MSTORE POP POP JUMP JUMPDEST PUSH0 PUSH8 0xFFFFFFFFFFFFFFFF DUP3 AND SWAP1 POP SWAP2 SWAP1 POP JUMP JUMPDEST PUSH2 0x3F00 DUP2 PUSH2 0x3EE4 JUMP JUMPDEST DUP3 MSTORE POP POP JUMP JUMPDEST PUSH0 PUSH4 0xFFFFFFFF DUP3 AND SWAP1 POP SWAP2 SWAP1 POP JUMP JUMPDEST PUSH2 0x3F1E DUP2 PUSH2 0x3F06 JUMP JUMPDEST DUP3 MSTORE POP POP JUMP JUMPDEST PUSH0 PUSH1 0x80 DUP3 ADD SWAP1 POP PUSH2 0x3F37 PUSH0 DUP4 ADD DUP8 PUSH2 0x3ED5 JUMP JUMPDEST PUSH2 0x3F44 PUSH1 0x20 DUP4 ADD DUP7 PUSH2 0x3EF7 JUMP JUMPDEST PUSH2 0x3F51 PUSH1 0x40 DUP4 ADD DUP6 PUSH2 0x3F15 JUMP JUMPDEST PUSH2 0x3F5E PUSH1 0x60 DUP4 ADD DUP5 PUSH2 0x3F15 JUMP JUMPDEST SWAP6 SWAP5 POP POP POP POP POP JUMP JUMPDEST PUSH0 DUP2 MLOAD SWAP1 POP PUSH2 0x3F75 DUP2 PUSH2 0x31B9 JUMP JUMPDEST SWAP3 SWAP2 POP POP JUMP JUMPDEST PUSH0 PUSH1 0x20 DUP3 DUP5 SUB SLT ISZERO PUSH2 0x3F90 JUMPI PUSH2 0x3F8F PUSH2 0x304B JUMP JUMPDEST JUMPDEST PUSH0 PUSH2 0x3F9D DUP5 DUP3 DUP6 ADD PUSH2 0x3F67 JUMP JUMPDEST SWAP2 POP POP SWAP3 SWAP2 POP POP JUMP JUMPDEST PUSH32 0x4E487B7100000000000000000000000000000000000000000000000000000000 PUSH0 MSTORE PUSH1 0x12 PUSH1 0x4 MSTORE PUSH1 0x24 PUSH0 REVERT JUMPDEST PUSH0 PUSH2 0x3FDD DUP3 PUSH2 0x31B0 JUMP JUMPDEST SWAP2 POP PUSH2 0x3FE8 DUP4 PUSH2 0x31B0 JUMP JUMPDEST SWAP3 POP DUP3 PUSH2 0x3FF8 JUMPI PUSH2 0x3FF7 PUSH2 0x3FA6 JUMP JUMPDEST JUMPDEST DUP3 DUP3 MOD SWAP1 POP SWAP3 SWAP2 POP POP JUMP JUMPDEST PUSH0 DUP2 MLOAD SWAP1 POP SWAP2 SWAP1 POP JUMP JUMPDEST PUSH0 DUP3 DUP3 MSTORE PUSH1 0x20 DUP3 ADD SWAP1 POP SWAP3 SWAP2 POP POP JUMP JUMPDEST PUSH0 PUSH2 0x4027 DUP3 PUSH2 0x4003 JUMP JUMPDEST PUSH2 0x4031 DUP2 DUP6 PUSH2 0x400D JUMP JUMPDEST SWAP4 POP PUSH2 0x4041 DUP2 DUP6 PUSH1 0x20 DUP7 ADD PUSH2 0x3120 JUMP JUMPDEST PUSH2 0x404A DUP2 PUSH2 0x3148 JUMP JUMPDEST DUP5 ADD SWAP2 POP POP SWAP3 SWAP2 POP POP JUMP JUMPDEST PUSH0 PUSH1 0x80 DUP3 ADD SWAP1 POP PUSH2 0x4068 PUSH0 DUP4 ADD DUP8 PUSH2 0x323E JUMP JUMPDEST PUSH2 0x4075 PUSH1 0x20 DUP4 ADD DUP7 PUSH2 0x323E JUMP JUMPDEST PUSH2 0x4082 PUSH1 0x40 DUP4 ADD DUP6 PUSH2 0x34B8 JUMP JUMPDEST DUP2 DUP2 SUB PUSH1 0x60 DUP4 ADD MSTORE PUSH2 0x4094 DUP2 DUP5 PUSH2 0x401D JUMP JUMPDEST SWAP1 POP SWAP6 SWAP5 POP POP POP POP POP JUMP JUMPDEST PUSH0 DUP2 MLOAD SWAP1 POP PUSH2 0x40AD DUP2 PUSH2 0x307E JUMP JUMPDEST SWAP3 SWAP2 POP POP JUMP JUMPDEST PUSH0 PUSH1 0x20 DUP3 DUP5 SUB SLT ISZERO PUSH2 0x40C8 JUMPI PUSH2 0x40C7 PUSH2 0x304B JUMP JUMPDEST JUMPDEST PUSH0 PUSH2 0x40D5 DUP5 DUP3 DUP6 ADD PUSH2 0x409F JUMP JUMPDEST SWAP2 POP POP SWAP3 SWAP2 POP POP JUMP JUMPDEST PUSH0 DUP2 SWAP1 POP DUP2 PUSH0 MSTORE PUSH1 0x20 PUSH0 KECCAK256 SWAP1 POP SWAP2 SWAP1 POP JUMP JUMPDEST PUSH0 PUSH1 0x20 PUSH1 0x1F DUP4 ADD DIV SWAP1 POP SWAP2 SWAP1 POP JUMP JUMPDEST PUSH0 DUP3 DUP3 SHL SWAP1 POP SWAP3 SWAP2 POP POP JUMP JUMPDEST PUSH0 PUSH1 0x8 DUP4 MUL PUSH2 0x413A PUSH32 0xFFFFFFFFFFFFFFFFFFFFFFFFFFFFFFFFFFFFFFFFFFFFFFFFFFFFFFFFFFFFFFFF DUP3 PUSH2 0x40FF JUMP JUMPDEST PUSH2 0x4144 DUP7 DUP4 PUSH2 0x40FF JUMP JUMPDEST SWAP6 POP DUP1 NOT DUP5 AND SWAP4 POP DUP1 DUP7 AND DUP5 OR SWAP3 POP POP POP SWAP4 SWAP3 POP POP POP JUMP JUMPDEST PUSH0 PUSH2 0x4176 PUSH2 0x4171 PUSH2 0x416C DUP5 PUSH2 0x31B0 JUMP JUMPDEST PUSH2 0x3882 JUMP JUMPDEST PUSH2 0x31B0 JUMP JUMPDEST SWAP1 POP SWAP2 SWAP1 POP JUMP JUMPDEST PUSH0 DUP2 SWAP1 POP SWAP2 SWAP1 POP JUMP JUMPDEST PUSH2 0x418F DUP4 PUSH2 0x415C JUMP JUMPDEST PUSH2 0x41A3 PUSH2 0x419B DUP3 PUSH2 0x417D JUMP JUMPDEST DUP5 DUP5 SLOAD PUSH2 0x410B JUMP JUMPDEST DUP3 SSTORE POP POP POP POP JUMP JUMPDEST PUSH0 SWAP1 JUMP JUMPDEST PUSH2 0x41B7 PUSH2 0x41AB JUMP JUMPDEST PUSH2 0x41C2 DUP2 DUP5 DUP5 PUSH2 0x4186 JUMP JUMPDEST POP POP POP JUMP JUMPDEST JUMPDEST DUP2 DUP2 LT ISZERO PUSH2 0x41E5 JUMPI PUSH2 0x41DA PUSH0 DUP3 PUSH2 0x41AF JUMP JUMPDEST PUSH1 0x1 DUP2 ADD SWAP1 POP PUSH2 0x41C8 JUMP JUMPDEST POP POP JUMP JUMPDEST PUSH1 0x1F DUP3 GT ISZERO PUSH2 0x422A JUMPI PUSH2 0x41FB DUP2 PUSH2 0x40DE JUMP JUMPDEST PUSH2 0x4204 DUP5 PUSH2 0x40F0 JUMP JUMPDEST DUP2 ADD PUSH1 0x20 DUP6 LT ISZERO PUSH2 0x4213 JUMPI DUP2 SWAP1 POP JUMPDEST PUSH2 0x4227 PUSH2 0x421F DUP6 PUSH2 0x40F0 JUMP JUMPDEST DUP4 ADD DUP3 PUSH2 0x41C7 JUMP JUMPDEST POP POP JUMPDEST POP POP POP JUMP JUMPDEST PUSH0 DUP3 DUP3 SHR SWAP1 POP SWAP3 SWAP2 POP POP JUMP JUMPDEST PUSH0 PUSH2 0x424A PUSH0 NOT DUP5 PUSH1 0x8 MUL PUSH2 0x422F JUMP JUMPDEST NOT DUP1 DUP4 AND SWAP2 POP POP SWAP3 SWAP2 POP POP JUMP JUMPDEST PUSH0 PUSH2 0x4262 DUP4 DUP4 PUSH2 0x423B JUMP JUMPDEST SWAP2 POP DUP3 PUSH1 0x2 MUL DUP3 OR SWAP1 POP SWAP3 SWAP2 POP POP JUMP JUMPDEST PUSH2 0x427B DUP3 PUSH2 0x3106 JUMP JUMPDEST PUSH8 0xFFFFFFFFFFFFFFFF DUP2 GT ISZERO PUSH2 0x4294 JUMPI PUSH2 0x4293 PUSH2 0x32D2 JUMP JUMPDEST JUMPDEST PUSH2 0x429E DUP3 SLOAD PUSH2 0x3BAF JUMP JUMPDEST PUSH2 0x42A9 DUP3 DUP3 DUP6 PUSH2 0x41E9 JUMP JUMPDEST PUSH0 PUSH1 0x20 SWAP1 POP PUSH1 0x1F DUP4 GT PUSH1 0x1 DUP2 EQ PUSH2 0x42DA JUMPI PUSH0 DUP5 ISZERO PUSH2 0x42C8 JUMPI DUP3 DUP8 ADD MLOAD SWAP1 POP JUMPDEST PUSH2 0x42D2 DUP6 DUP3 PUSH2 0x4257 JUMP JUMPDEST DUP7 SSTORE POP PUSH2 0x4339 JUMP JUMPDEST PUSH1 0x1F NOT DUP5 AND PUSH2 0x42E8 DUP7 PUSH2 0x40DE JUMP JUMPDEST PUSH0 JUMPDEST DUP3 DUP2 LT ISZERO PUSH2 0x430F JUMPI DUP5 DUP10 ADD MLOAD DUP3 SSTORE PUSH1 0x1 DUP3 ADD SWAP2 POP PUSH1 0x20 DUP6 ADD SWAP5 POP PUSH1 0x20 DUP2 ADD SWAP1 POP PUSH2 0x42EA JUMP JUMPDEST DUP7 DUP4 LT ISZERO PUSH2 0x432C JUMPI DUP5 DUP10 ADD MLOAD PUSH2 0x4328 PUSH1 0x1F DUP10 AND DUP3 PUSH2 0x423B JUMP JUMPDEST DUP4 SSTORE POP JUMPDEST PUSH1 0x1 PUSH1 0x2 DUP9 MUL ADD DUP9 SSTORE POP POP POP JUMPDEST POP POP POP POP POP POP JUMP JUMPDEST PUSH0 PUSH1 0x40 DUP3 ADD SWAP1 POP PUSH2 0x4354 PUSH0 DUP4 ADD DUP6 PUSH2 0x323E JUMP JUMPDEST PUSH2 0x4361 PUSH1 0x20 DUP4 ADD DUP5 PUSH2 0x34B8 JUMP JUMPDEST SWAP4 SWAP3 POP POP POP JUMP INVALID LOG2 PUSH5 0x6970667358 0x22 SLT KECCAK256 MLOAD RETURNDATASIZE SELFDESTRUCT 0xF9 PUSH32 0xB253EE4F9CC35AA6335A4F8A2538389EC972C002726B8FD156196264736F6C63 NUMBER STOP ADDMOD AND STOP CALLER "
		},
		"gasEstimates": {
			"creation": {
				"codeDepositCost": "3462000",
				"executionCost": "infinite",
				"totalCost": "infinite"
			},
			"external": {
				"_nextTokenId()": "2493",
				"approve(address,uint256)": "infinite",
				"balanceOf(address)": "infinite",
				"bigPictureName()": "infinite",
				"claimReward()": "210",
				"factory()": "infinite",
				"getApproved(uint256)": "infinite",
				"getSingleBigPicture()": "infinite",
				"getTokensOnSale(address)": "infinite",
				"getYourTokens(address)": "infinite",
				"image()": "infinite",
				"isApprovedForAll(address,address)": "infinite",
				"mintCMT()": "infinite",
				"mintCMTDemo()": "infinite",
				"mintPrice()": "2470",
				"name()": "infinite",
				"onSale(uint256)": "2830",
				"owner()": "2648",
				"ownerOf(uint256)": "infinite",
				"picturePieces(uint256)": "infinite",
				"purchaseToken(uint256)": "infinite",
				"putTokenOnSale(uint256,uint256)": "infinite",
				"randomIndex()": "2469",
				"rawFulfillRandomWords(uint256,uint256[])": "infinite",
				"renounceOwnership()": "infinite",
				"requestRandomWords()": "infinite",
				"rewardPrice()": "2536",
				"safeTransferFrom(address,address,uint256)": "infinite",
				"safeTransferFrom(address,address,uint256,bytes)": "infinite",
				"setApprovalForAll(address,bool)": "infinite",
				"supportsInterface(bytes4)": "926",
				"symbol()": "infinite",
				"tempAddress()": "2598",
				"tokenPrice(uint256)": "infinite",
				"tokenURI(uint256)": "infinite",
				"transferFrom(address,address,uint256)": "infinite",
				"transferOwnership(address)": "infinite",
				"unSell(uint256)": "infinite"
			},
			"internal": {
				"fulfillRandomWords(uint256,uint256[] memory)": "infinite"
			}
		},
		"methodIdentifiers": {
			"_nextTokenId()": "4a60f620",
			"approve(address,uint256)": "095ea7b3",
			"balanceOf(address)": "70a08231",
			"bigPictureName()": "57ad8071",
			"claimReward()": "b88a802f",
			"factory()": "c45a0155",
			"getApproved(uint256)": "081812fc",
			"getSingleBigPicture()": "db65dbbb",
			"getTokensOnSale(address)": "9bbba3a8",
			"getYourTokens(address)": "ae9d010c",
			"image()": "f3ccaac0",
			"isApprovedForAll(address,address)": "e985e9c5",
			"mintCMT()": "00c0e60a",
			"mintCMTDemo()": "cc3bbb20",
			"mintPrice()": "6817c76c",
			"name()": "06fdde03",
			"onSale(uint256)": "b43a76f1",
			"owner()": "8da5cb5b",
			"ownerOf(uint256)": "6352211e",
			"picturePieces(uint256)": "bd81093a",
			"purchaseToken(uint256)": "c2db2c42",
			"putTokenOnSale(uint256,uint256)": "65af3798",
			"randomIndex()": "dc2337e2",
			"rawFulfillRandomWords(uint256,uint256[])": "1fe543e3",
			"renounceOwnership()": "715018a6",
			"requestRandomWords()": "e0c86289",
			"rewardPrice()": "818e9be0",
			"safeTransferFrom(address,address,uint256)": "42842e0e",
			"safeTransferFrom(address,address,uint256,bytes)": "b88d4fde",
			"setApprovalForAll(address,bool)": "a22cb465",
			"supportsInterface(bytes4)": "01ffc9a7",
			"symbol()": "95d89b41",
			"tempAddress()": "22c5dec7",
			"tokenPrice(uint256)": "d4ddce8a",
			"tokenURI(uint256)": "c87b56dd",
			"transferFrom(address,address,uint256)": "23b872dd",
			"transferOwnership(address)": "f2fde38b",
			"unSell(uint256)": "410ffd29"
		}
	},
	"abi": [
		{
			"inputs": [
				{
					"internalType": "string",
					"name": "_name",
					"type": "string"
				},
				{
					"internalType": "string",
					"name": "_image",
					"type": "string"
				},
				{
					"internalType": "string[]",
					"name": "_picturePieces",
					"type": "string[]"
				},
				{
					"internalType": "uint256",
					"name": "_rewardPrice",
					"type": "uint256"
				},
				{
					"internalType": "uint256",
					"name": "_mintPrice",
					"type": "uint256"
				},
				{
					"internalType": "address",
					"name": "_factoryAddress",
					"type": "address"
				}
			],
			"stateMutability": "nonpayable",
			"type": "constructor"
		},
		{
			"inputs": [
				{
					"internalType": "address",
					"name": "sender",
					"type": "address"
				},
				{
					"internalType": "uint256",
					"name": "tokenId",
					"type": "uint256"
				},
				{
					"internalType": "address",
					"name": "owner",
					"type": "address"
				}
			],
			"name": "ERC721IncorrectOwner",
			"type": "error"
		},
		{
			"inputs": [
				{
					"internalType": "address",
					"name": "operator",
					"type": "address"
				},
				{
					"internalType": "uint256",
					"name": "tokenId",
					"type": "uint256"
				}
			],
			"name": "ERC721InsufficientApproval",
			"type": "error"
		},
		{
			"inputs": [
				{
					"internalType": "address",
					"name": "approver",
					"type": "address"
				}
			],
			"name": "ERC721InvalidApprover",
			"type": "error"
		},
		{
			"inputs": [
				{
					"internalType": "address",
					"name": "operator",
					"type": "address"
				}
			],
			"name": "ERC721InvalidOperator",
			"type": "error"
		},
		{
			"inputs": [
				{
					"internalType": "address",
					"name": "owner",
					"type": "address"
				}
			],
			"name": "ERC721InvalidOwner",
			"type": "error"
		},
		{
			"inputs": [
				{
					"internalType": "address",
					"name": "receiver",
					"type": "address"
				}
			],
			"name": "ERC721InvalidReceiver",
			"type": "error"
		},
		{
			"inputs": [
				{
					"internalType": "address",
					"name": "sender",
					"type": "address"
				}
			],
			"name": "ERC721InvalidSender",
			"type": "error"
		},
		{
			"inputs": [
				{
					"internalType": "uint256",
					"name": "tokenId",
					"type": "uint256"
				}
			],
			"name": "ERC721NonexistentToken",
			"type": "error"
		},
		{
			"inputs": [
				{
					"internalType": "address",
					"name": "have",
					"type": "address"
				},
				{
					"internalType": "address",
					"name": "want",
					"type": "address"
				}
			],
			"name": "OnlyCoordinatorCanFulfill",
			"type": "error"
		},
		{
			"inputs": [
				{
					"internalType": "address",
					"name": "owner",
					"type": "address"
				}
			],
			"name": "OwnableInvalidOwner",
			"type": "error"
		},
		{
			"inputs": [
				{
					"internalType": "address",
					"name": "account",
					"type": "address"
				}
			],
			"name": "OwnableUnauthorizedAccount",
			"type": "error"
		},
		{
			"anonymous": false,
			"inputs": [
				{
					"indexed": true,
					"internalType": "address",
					"name": "owner",
					"type": "address"
				},
				{
					"indexed": true,
					"internalType": "address",
					"name": "approved",
					"type": "address"
				},
				{
					"indexed": true,
					"internalType": "uint256",
					"name": "tokenId",
					"type": "uint256"
				}
			],
			"name": "Approval",
			"type": "event"
		},
		{
			"anonymous": false,
			"inputs": [
				{
					"indexed": true,
					"internalType": "address",
					"name": "owner",
					"type": "address"
				},
				{
					"indexed": true,
					"internalType": "address",
					"name": "operator",
					"type": "address"
				},
				{
					"indexed": false,
					"internalType": "bool",
					"name": "approved",
					"type": "bool"
				}
			],
			"name": "ApprovalForAll",
			"type": "event"
		},
		{
			"anonymous": false,
			"inputs": [
				{
					"indexed": false,
					"internalType": "uint256",
					"name": "_fromTokenId",
					"type": "uint256"
				},
				{
					"indexed": false,
					"internalType": "uint256",
					"name": "_toTokenId",
					"type": "uint256"
				}
			],
			"name": "BatchMetadataUpdate",
			"type": "event"
		},
		{
			"anonymous": false,
			"inputs": [
				{
					"indexed": false,
					"internalType": "uint256",
					"name": "_tokenId",
					"type": "uint256"
				}
			],
			"name": "MetadataUpdate",
			"type": "event"
		},
		{
			"anonymous": false,
			"inputs": [
				{
					"indexed": true,
					"internalType": "address",
					"name": "previousOwner",
					"type": "address"
				},
				{
					"indexed": true,
					"internalType": "address",
					"name": "newOwner",
					"type": "address"
				}
			],
			"name": "OwnershipTransferred",
			"type": "event"
		},
		{
			"anonymous": false,
			"inputs": [
				{
					"indexed": true,
					"internalType": "address",
					"name": "from",
					"type": "address"
				},
				{
					"indexed": true,
					"internalType": "address",
					"name": "to",
					"type": "address"
				},
				{
					"indexed": true,
					"internalType": "uint256",
					"name": "tokenId",
					"type": "uint256"
				}
			],
			"name": "Transfer",
			"type": "event"
		},
		{
			"inputs": [],
			"name": "_nextTokenId",
			"outputs": [
				{
					"internalType": "uint256",
					"name": "",
					"type": "uint256"
				}
			],
			"stateMutability": "view",
			"type": "function"
		},
		{
			"inputs": [
				{
					"internalType": "address",
					"name": "to",
					"type": "address"
				},
				{
					"internalType": "uint256",
					"name": "tokenId",
					"type": "uint256"
				}
			],
			"name": "approve",
			"outputs": [],
			"stateMutability": "nonpayable",
			"type": "function"
		},
		{
			"inputs": [
				{
					"internalType": "address",
					"name": "owner",
					"type": "address"
				}
			],
			"name": "balanceOf",
			"outputs": [
				{
					"internalType": "uint256",
					"name": "",
					"type": "uint256"
				}
			],
			"stateMutability": "view",
			"type": "function"
		},
		{
			"inputs": [],
			"name": "bigPictureName",
			"outputs": [
				{
					"internalType": "string",
					"name": "",
					"type": "string"
				}
			],
			"stateMutability": "view",
			"type": "function"
		},
		{
			"inputs": [],
			"name": "claimReward",
			"outputs": [],
			"stateMutability": "nonpayable",
			"type": "function"
		},
		{
			"inputs": [],
			"name": "factory",
			"outputs": [
				{
					"internalType": "contract BigPictureFactory",
					"name": "",
					"type": "address"
				}
			],
			"stateMutability": "view",
			"type": "function"
		},
		{
			"inputs": [
				{
					"internalType": "uint256",
					"name": "tokenId",
					"type": "uint256"
				}
			],
			"name": "getApproved",
			"outputs": [
				{
					"internalType": "address",
					"name": "",
					"type": "address"
				}
			],
			"stateMutability": "view",
			"type": "function"
		},
		{
			"inputs": [],
			"name": "getSingleBigPicture",
			"outputs": [
				{
					"components": [
						{
							"internalType": "address",
							"name": "bigPictureAddress",
							"type": "address"
						},
						{
							"internalType": "string",
							"name": "name",
							"type": "string"
						},
						{
							"internalType": "string",
							"name": "image",
							"type": "string"
						},
						{
							"internalType": "string[]",
							"name": "picturePieces",
							"type": "string[]"
						},
						{
							"internalType": "uint256",
							"name": "rewardPrice",
							"type": "uint256"
						},
						{
							"internalType": "uint256",
							"name": "mintPrice",
							"type": "uint256"
						}
					],
					"internalType": "struct BigPictureData",
					"name": "",
					"type": "tuple"
				}
			],
			"stateMutability": "view",
			"type": "function"
		},
		{
			"inputs": [
				{
					"internalType": "address",
					"name": "viewer",
					"type": "address"
				}
			],
			"name": "getTokensOnSale",
			"outputs": [
				{
					"components": [
						{
							"internalType": "uint256",
							"name": "id",
							"type": "uint256"
						},
						{
							"internalType": "string",
							"name": "image",
							"type": "string"
						},
						{
							"internalType": "bool",
							"name": "onSale",
							"type": "bool"
						},
						{
							"internalType": "uint256",
							"name": "tokenPrice",
							"type": "uint256"
						}
					],
					"internalType": "struct TokenData[]",
					"name": "",
					"type": "tuple[]"
				}
			],
			"stateMutability": "view",
			"type": "function"
		},
		{
			"inputs": [
				{
					"internalType": "address",
					"name": "owner",
					"type": "address"
				}
			],
			"name": "getYourTokens",
			"outputs": [
				{
					"components": [
						{
							"internalType": "uint256",
							"name": "id",
							"type": "uint256"
						},
						{
							"internalType": "string",
							"name": "image",
							"type": "string"
						},
						{
							"internalType": "bool",
							"name": "onSale",
							"type": "bool"
						},
						{
							"internalType": "uint256",
							"name": "tokenPrice",
							"type": "uint256"
						}
					],
					"internalType": "struct TokenData[]",
					"name": "",
					"type": "tuple[]"
				}
			],
			"stateMutability": "view",
			"type": "function"
		},
		{
			"inputs": [],
			"name": "image",
			"outputs": [
				{
					"internalType": "string",
					"name": "",
					"type": "string"
				}
			],
			"stateMutability": "view",
			"type": "function"
		},
		{
			"inputs": [
				{
					"internalType": "address",
					"name": "owner",
					"type": "address"
				},
				{
					"internalType": "address",
					"name": "operator",
					"type": "address"
				}
			],
			"name": "isApprovedForAll",
			"outputs": [
				{
					"internalType": "bool",
					"name": "",
					"type": "bool"
				}
			],
			"stateMutability": "view",
			"type": "function"
		},
		{
			"inputs": [],
			"name": "mintCMT",
			"outputs": [],
			"stateMutability": "payable",
			"type": "function"
		},
		{
			"inputs": [],
			"name": "mintCMTDemo",
			"outputs": [],
			"stateMutability": "payable",
			"type": "function"
		},
		{
			"inputs": [],
			"name": "mintPrice",
			"outputs": [
				{
					"internalType": "uint256",
					"name": "",
					"type": "uint256"
				}
			],
			"stateMutability": "view",
			"type": "function"
		},
		{
			"inputs": [],
			"name": "name",
			"outputs": [
				{
					"internalType": "string",
					"name": "",
					"type": "string"
				}
			],
			"stateMutability": "view",
			"type": "function"
		},
		{
			"inputs": [
				{
					"internalType": "uint256",
					"name": "tokenId",
					"type": "uint256"
				}
			],
			"name": "onSale",
			"outputs": [
				{
					"internalType": "bool",
					"name": "",
					"type": "bool"
				}
			],
			"stateMutability": "view",
			"type": "function"
		},
		{
			"inputs": [],
			"name": "owner",
			"outputs": [
				{
					"internalType": "address",
					"name": "",
					"type": "address"
				}
			],
			"stateMutability": "view",
			"type": "function"
		},
		{
			"inputs": [
				{
					"internalType": "uint256",
					"name": "tokenId",
					"type": "uint256"
				}
			],
			"name": "ownerOf",
			"outputs": [
				{
					"internalType": "address",
					"name": "",
					"type": "address"
				}
			],
			"stateMutability": "view",
			"type": "function"
		},
		{
			"inputs": [
				{
					"internalType": "uint256",
					"name": "",
					"type": "uint256"
				}
			],
			"name": "picturePieces",
			"outputs": [
				{
					"internalType": "string",
					"name": "",
					"type": "string"
				}
			],
			"stateMutability": "view",
			"type": "function"
		},
		{
			"inputs": [
				{
					"internalType": "uint256",
					"name": "tokenId",
					"type": "uint256"
				}
			],
			"name": "purchaseToken",
			"outputs": [],
			"stateMutability": "payable",
			"type": "function"
		},
		{
			"inputs": [
				{
					"internalType": "uint256",
					"name": "tokenId",
					"type": "uint256"
				},
				{
					"internalType": "uint256",
					"name": "price",
					"type": "uint256"
				}
			],
			"name": "putTokenOnSale",
			"outputs": [],
			"stateMutability": "nonpayable",
			"type": "function"
		},
		{
			"inputs": [],
			"name": "randomIndex",
			"outputs": [
				{
					"internalType": "uint256",
					"name": "",
					"type": "uint256"
				}
			],
			"stateMutability": "view",
			"type": "function"
		},
		{
			"inputs": [
				{
					"internalType": "uint256",
					"name": "requestId",
					"type": "uint256"
				},
				{
					"internalType": "uint256[]",
					"name": "randomWords",
					"type": "uint256[]"
				}
			],
			"name": "rawFulfillRandomWords",
			"outputs": [],
			"stateMutability": "nonpayable",
			"type": "function"
		},
		{
			"inputs": [],
			"name": "renounceOwnership",
			"outputs": [],
			"stateMutability": "nonpayable",
			"type": "function"
		},
		{
			"inputs": [],
			"name": "requestRandomWords",
			"outputs": [
				{
					"internalType": "uint256",
					"name": "requestId",
					"type": "uint256"
				}
			],
			"stateMutability": "nonpayable",
			"type": "function"
		},
		{
			"inputs": [],
			"name": "rewardPrice",
			"outputs": [
				{
					"internalType": "uint256",
					"name": "",
					"type": "uint256"
				}
			],
			"stateMutability": "view",
			"type": "function"
		},
		{
			"inputs": [
				{
					"internalType": "address",
					"name": "from",
					"type": "address"
				},
				{
					"internalType": "address",
					"name": "to",
					"type": "address"
				},
				{
					"internalType": "uint256",
					"name": "tokenId",
					"type": "uint256"
				}
			],
			"name": "safeTransferFrom",
			"outputs": [],
			"stateMutability": "nonpayable",
			"type": "function"
		},
		{
			"inputs": [
				{
					"internalType": "address",
					"name": "from",
					"type": "address"
				},
				{
					"internalType": "address",
					"name": "to",
					"type": "address"
				},
				{
					"internalType": "uint256",
					"name": "tokenId",
					"type": "uint256"
				},
				{
					"internalType": "bytes",
					"name": "data",
					"type": "bytes"
				}
			],
			"name": "safeTransferFrom",
			"outputs": [],
			"stateMutability": "nonpayable",
			"type": "function"
		},
		{
			"inputs": [
				{
					"internalType": "address",
					"name": "operator",
					"type": "address"
				},
				{
					"internalType": "bool",
					"name": "approved",
					"type": "bool"
				}
			],
			"name": "setApprovalForAll",
			"outputs": [],
			"stateMutability": "nonpayable",
			"type": "function"
		},
		{
			"inputs": [
				{
					"internalType": "bytes4",
					"name": "interfaceId",
					"type": "bytes4"
				}
			],
			"name": "supportsInterface",
			"outputs": [
				{
					"internalType": "bool",
					"name": "",
					"type": "bool"
				}
			],
			"stateMutability": "view",
			"type": "function"
		},
		{
			"inputs": [],
			"name": "symbol",
			"outputs": [
				{
					"internalType": "string",
					"name": "",
					"type": "string"
				}
			],
			"stateMutability": "view",
			"type": "function"
		},
		{
			"inputs": [],
			"name": "tempAddress",
			"outputs": [
				{
					"internalType": "address",
					"name": "",
					"type": "address"
				}
			],
			"stateMutability": "view",
			"type": "function"
		},
		{
			"inputs": [
				{
					"internalType": "uint256",
					"name": "tokenId",
					"type": "uint256"
				}
			],
			"name": "tokenPrice",
			"outputs": [
				{
					"internalType": "uint256",
					"name": "",
					"type": "uint256"
				}
			],
			"stateMutability": "view",
			"type": "function"
		},
		{
			"inputs": [
				{
					"internalType": "uint256",
					"name": "tokenId",
					"type": "uint256"
				}
			],
			"name": "tokenURI",
			"outputs": [
				{
					"internalType": "string",
					"name": "",
					"type": "string"
				}
			],
			"stateMutability": "view",
			"type": "function"
		},
		{
			"inputs": [
				{
					"internalType": "address",
					"name": "from",
					"type": "address"
				},
				{
					"internalType": "address",
					"name": "to",
					"type": "address"
				},
				{
					"internalType": "uint256",
					"name": "tokenId",
					"type": "uint256"
				}
			],
			"name": "transferFrom",
			"outputs": [],
			"stateMutability": "nonpayable",
			"type": "function"
		},
		{
			"inputs": [
				{
					"internalType": "address",
					"name": "newOwner",
					"type": "address"
				}
			],
			"name": "transferOwnership",
			"outputs": [],
			"stateMutability": "nonpayable",
			"type": "function"
		},
		{
			"inputs": [
				{
					"internalType": "uint256",
					"name": "tokenId",
					"type": "uint256"
				}
			],
			"name": "unSell",
			"outputs": [],
			"stateMutability": "nonpayable",
			"type": "function"
		},
		{
			"stateMutability": "payable",
			"type": "receive"
		}
	]
}